{
  "_format": "hh-sol-artifact-1",
  "contractName": "EquivalenceDestruct",
  "sourceName": "contracts/EquivalenceDestruct.sol",
  "abi": [
    {
      "inputs": [],
      "stateMutability": "payable",
      "type": "constructor"
    },
    {
      "inputs": [
        {
          "internalType": "address payable",
          "name": "beneficiary",
          "type": "address"
        }
      ],
      "name": "destroyContract",
      "outputs": [],
      "stateMutability": "nonpayable",
      "type": "function"
    }
  ],
  "bytecode": "0x608060405260c8806100126000396000f3fe6080604052348015600f57600080fd5b506004361060285760003560e01c8063016a373814602d575b600080fd5b603c60383660046057565b603e565b005b8073ffffffffffffffffffffffffffffffffffffffff16ff5b600060208284031215606857600080fd5b813573ffffffffffffffffffffffffffffffffffffffff81168114608b57600080fd5b939250505056fea2646970667358221220bb735725c650bed74fe0a1a1efd4c731a4e9369c45b5d79598af65c3d0487a8164736f6c63430008090033",
  "linkReferences": {},
  "deployedLinkReferences": {}
}