{
  "_format": "hh-sol-artifact-1",
  "contractName": "MirrorNode",
  "sourceName": "contracts/MirrorNodeShards.sol",
  "abi": [
    {
      "inputs": [
        {
          "internalType": "uint8",
          "name": "_maxShardCount",
          "type": "uint8"
        },
        {
          "internalType": "uint256",
          "name": "_maxTransactionsPerShard",
          "type": "uint256"
        },
        {
          "internalType": "uint256",
          "name": "_storageFee",
          "type": "uint256"
        },
        {
          "internalType": "uint256",
          "name": "_apiFee",
          "type": "uint256"
        }
      ],
      "stateMutability": "nonpayable",
      "type": "constructor"
    },
    {
      "anonymous": false,
      "inputs": [
        {
          "indexed": false,
          "internalType": "uint8",
          "name": "shard",
          "type": "uint8"
        },
        {
          "indexed": false,
          "internalType": "uint256",
          "name": "timestamp",
          "type": "uint256"
        }
      ],
      "name": "NewMirrorNodeShard",
      "type": "event"
    },
    {
      "anonymous": false,
      "inputs": [
        {
          "indexed": false,
          "internalType": "uint256",
          "name": "timestamp",
          "type": "uint256"
        },
        {
          "indexed": false,
          "internalType": "uint8",
          "name": "shard",
          "type": "uint8"
        }
      ],
      "name": "TransactionParsed",
      "type": "event"
    },
    {
      "inputs": [],
      "name": "getApiFee",
      "outputs": [
        {
          "internalType": "uint256",
          "name": "",
          "type": "uint256"
        }
      ],
      "stateMutability": "view",
      "type": "function"
    },
    {
      "inputs": [],
      "name": "getMaxShardCount",
      "outputs": [
        {
          "internalType": "uint256",
          "name": "",
          "type": "uint256"
        }
      ],
      "stateMutability": "view",
      "type": "function"
    },
    {
      "inputs": [],
      "name": "getMaxTransactionsPerShard",
      "outputs": [
        {
          "internalType": "uint256",
          "name": "",
          "type": "uint256"
        }
      ],
      "stateMutability": "view",
      "type": "function"
    },
    {
      "inputs": [
        {
          "internalType": "uint8",
          "name": "shard",
          "type": "uint8"
        }
      ],
      "name": "getShardAddress",
      "outputs": [
        {
          "internalType": "address",
          "name": "",
          "type": "address"
        }
      ],
      "stateMutability": "view",
      "type": "function"
    },
    {
      "inputs": [],
      "name": "getShardCount",
      "outputs": [
        {
          "internalType": "uint256",
          "name": "",
          "type": "uint256"
        }
      ],
      "stateMutability": "view",
      "type": "function"
    },
    {
      "inputs": [],
      "name": "getStorageFee",
      "outputs": [
        {
          "internalType": "uint256",
          "name": "",
          "type": "uint256"
        }
      ],
      "stateMutability": "view",
      "type": "function"
    },
    {
      "inputs": [],
      "name": "getTransactionCount",
      "outputs": [
        {
          "internalType": "uint256",
          "name": "",
          "type": "uint256"
        }
      ],
      "stateMutability": "view",
      "type": "function"
    },
    {
      "inputs": [
        {
          "internalType": "uint256",
          "name": "timestamp",
          "type": "uint256"
        }
      ],
      "name": "getTransactionShard",
      "outputs": [
        {
          "internalType": "uint8",
          "name": "",
          "type": "uint8"
        }
      ],
      "stateMutability": "view",
      "type": "function"
    },
    {
      "inputs": [
        {
          "internalType": "uint256",
          "name": "timestamp",
          "type": "uint256"
        },
        {
          "internalType": "string",
          "name": "transaction",
          "type": "string"
        },
        {
          "internalType": "uint8",
          "name": "shard",
          "type": "uint8"
        }
      ],
      "name": "submitTransaction",
      "outputs": [
        {
          "internalType": "bool",
          "name": "",
          "type": "bool"
        }
      ],
      "stateMutability": "payable",
      "type": "function"
    },
    {
      "inputs": [
        {
          "internalType": "uint256",
          "name": "amount",
          "type": "uint256"
        }
      ],
      "name": "withdraw",
      "outputs": [],
      "stateMutability": "nonpayable",
      "type": "function"
    }
  ],
  "bytecode": "0x60806040523480156200001157600080fd5b506040516200261338038062002613833981810160405281019062000037919062000103565b83600460006101000a81548160ff021916908360ff16021790555082600581905550816008819055508060038190555060006007819055506000600660006101000a81548160ff021916908360ff160217905550336000806101000a81548173ffffffffffffffffffffffffffffffffffffffff021916908373ffffffffffffffffffffffffffffffffffffffff16021790555050505050620001ba565b600081519050620000e68162000186565b92915050565b600081519050620000fd81620001a0565b92915050565b600080600080608085870312156200011a57600080fd5b60006200012a87828801620000ec565b94505060206200013d87828801620000d5565b93505060406200015087828801620000d5565b92505060606200016387828801620000d5565b91505092959194509250565b6000819050919050565b600060ff82169050919050565b62000191816200016f565b81146200019d57600080fd5b50565b620001ab8162000179565b8114620001b757600080fd5b50565b61244980620001ca6000396000f3fe6080604052600436106200009e5760003560e01c806351faa810116200006157806351faa81014620001915780635ffa77c914620001d55780636773042b146200020b578063903b1483146200023b578063e3fe020b146200026b576200009e565b80630494fb6b14620000a35780630da59fb214620000d35780632e1a7d4d14620001035780632e7700f014620001315780634444791f1462000161575b600080fd5b348015620000b057600080fd5b50620000bb620002af565b604051620000ca919062000dc3565b60405180910390f35b348015620000e057600080fd5b50620000eb620002b9565b604051620000fa919062000dc3565b60405180910390f35b3480156200011057600080fd5b506200012f600480360381019062000129919062000a19565b620002c3565b005b3480156200013e57600080fd5b5062000149620003bf565b60405162000158919062000dc3565b60405180910390f35b3480156200016e57600080fd5b5062000179620003c9565b60405162000188919062000dc3565b60405180910390f35b3480156200019e57600080fd5b50620001bd6004803603810190620001b7919062000a19565b620003d3565b604051620001cc919062000e41565b60405180910390f35b620001f36004803603810190620001ed919062000a45565b62000443565b60405162000202919062000cda565b60405180910390f35b3480156200021857600080fd5b506200022362000856565b60405162000232919062000dc3565b60405180910390f35b3480156200024857600080fd5b506200025362000870565b60405162000262919062000dc3565b60405180910390f35b3480156200027857600080fd5b5062000297600480360381019062000291919062000ab4565b6200088a565b604051620002a6919062000c60565b60405180910390f35b6000600354905090565b6000600854905090565b60008054906101000a900473ffffffffffffffffffffffffffffffffffffffff1673ffffffffffffffffffffffffffffffffffffffff163373ffffffffffffffffffffffffffffffffffffffff161462000354576040517f08c379a00000000000000000000000000000000000000000000000000000000081526004016200034b9062000d7f565b60405180910390fd5b60008054906101000a900473ffffffffffffffffffffffffffffffffffffffff1673ffffffffffffffffffffffffffffffffffffffff166108fc829081150290604051600060405180830381858888f19350505050158015620003bb573d6000803e3d6000fd5b5050565b6000600754905090565b6000600554905090565b6000808210156200041b576040517f08c379a0000000000000000000000000000000000000000000000000000000008152600401620004129062000d3b565b60405180910390fd5b6002600083815260200190815260200160002060009054906101000a900460ff169050919050565b60006008543410156200048d576040517f08c379a0000000000000000000000000000000000000000000000000000000008152600401620004849062000cf7565b60405180910390fd5b600073ffffffffffffffffffffffffffffffffffffffff163373ffffffffffffffffffffffffffffffffffffffff16141562000500576040517f08c379a0000000000000000000000000000000000000000000000000000000008152600401620004f79062000d19565b60405180910390fd5b6000841162000546576040517f08c379a00000000000000000000000000000000000000000000000000000000081526004016200053d9062000da1565b60405180910390fd5b600073ffffffffffffffffffffffffffffffffffffffff16600160008460ff1660ff16815260200190815260200160002060009054906101000a900473ffffffffffffffffffffffffffffffffffffffff1673ffffffffffffffffffffffffffffffffffffffff161415620006e65760008054906101000a900473ffffffffffffffffffffffffffffffffffffffff163060035484600554604051620005ec9062000928565b620005fc95949392919062000c7d565b604051809103906000f08015801562000619573d6000803e3d6000fd5b50600160008460ff1660ff16815260200190815260200160002060006101000a81548173ffffffffffffffffffffffffffffffffffffffff021916908373ffffffffffffffffffffffffffffffffffffffff1602179055506001600660008282829054906101000a900460ff1662000692919062000f63565b92506101000a81548160ff021916908360ff1602179055507faeb54827791802cc8503ca56c116c061ae707234e5848d478013c5190456bbb78285604051620006dd92919062000e5e565b60405180910390a15b6000600160008460ff1660ff16815260200190815260200160002060009054906101000a900473ffffffffffffffffffffffffffffffffffffffff1690508073ffffffffffffffffffffffffffffffffffffffff16631642d1e26002346200074f919062000fa1565b87876040518463ffffffff1660e01b81526004016200077092919062000de0565b6020604051808303818588803b1580156200078a57600080fd5b505af11580156200079f573d6000803e3d6000fd5b50505050506040513d601f19601f82011682018060405250810190620007c69190620009ed565b50826002600087815260200190815260200160002060006101000a81548160ff021916908360ff16021790555060016007600082825462000808919062000f06565b925050819055507f29c0183cf16a8df2323b90f7691ffb69e259c062ec23d2ccff072f14d624f12885846040516200084292919062000e14565b60405180910390a160019150509392505050565b6000600660009054906101000a900460ff1660ff16905090565b6000600460009054906101000a900460ff1660ff16905090565b6000600660009054906101000a900460ff1660ff168260ff161115620008e7576040517f08c379a0000000000000000000000000000000000000000000000000000000008152600401620008de9062000d5d565b60405180910390fd5b600160008360ff1660ff16815260200190815260200160002060009054906101000a900473ffffffffffffffffffffffffffffffffffffffff169050919050565b61108c806200138883390190565b60006200094d620009478462000eb4565b62000e8b565b9050828152602081018484840111156200096657600080fd5b620009738482856200106c565b509392505050565b6000815190506200098c8162001339565b92915050565b600082601f830112620009a457600080fd5b8135620009b684826020860162000936565b91505092915050565b600081359050620009d08162001353565b92915050565b600081359050620009e7816200136d565b92915050565b60006020828403121562000a0057600080fd5b600062000a10848285016200097b565b91505092915050565b60006020828403121562000a2c57600080fd5b600062000a3c84828501620009bf565b91505092915050565b60008060006060848603121562000a5b57600080fd5b600062000a6b86828701620009bf565b935050602084013567ffffffffffffffff81111562000a8957600080fd5b62000a978682870162000992565b925050604062000aaa86828701620009d6565b9150509250925092565b60006020828403121562000ac757600080fd5b600062000ad784828501620009d6565b91505092915050565b62000aeb8162001030565b82525050565b62000afc8162000fd9565b82525050565b62000b0d8162000fed565b82525050565b600062000b208262000eea565b62000b2c818562000ef5565b935062000b3e8185602086016200107b565b62000b498162001174565b840191505092915050565b600062000b6360408362000ef5565b915062000b708262001185565b604082019050919050565b600062000b8a60338362000ef5565b915062000b9782620011d4565b604082019050919050565b600062000bb1603b8362000ef5565b915062000bbe8262001223565b604082019050919050565b600062000bd8603b8362000ef5565b915062000be58262001272565b604082019050919050565b600062000bff60098362000ef5565b915062000c0c82620012c1565b602082019050919050565b600062000c26602e8362000ef5565b915062000c3382620012ea565b604082019050919050565b62000c498162001019565b82525050565b62000c5a8162001023565b82525050565b600060208201905062000c77600083018462000af1565b92915050565b600060a08201905062000c94600083018862000ae0565b62000ca3602083018762000af1565b62000cb2604083018662000c3e565b62000cc1606083018562000c4f565b62000cd0608083018462000c3e565b9695505050505050565b600060208201905062000cf1600083018462000b02565b92915050565b6000602082019050818103600083015262000d128162000b54565b9050919050565b6000602082019050818103600083015262000d348162000b7b565b9050919050565b6000602082019050818103600083015262000d568162000ba2565b9050919050565b6000602082019050818103600083015262000d788162000bc9565b9050919050565b6000602082019050818103600083015262000d9a8162000bf0565b9050919050565b6000602082019050818103600083015262000dbc8162000c17565b9050919050565b600060208201905062000dda600083018462000c3e565b92915050565b600060408201905062000df7600083018562000c3e565b818103602083015262000e0b818462000b13565b90509392505050565b600060408201905062000e2b600083018562000c3e565b62000e3a602083018462000c4f565b9392505050565b600060208201905062000e58600083018462000c4f565b92915050565b600060408201905062000e75600083018562000c4f565b62000e84602083018462000c3e565b9392505050565b600062000e9762000eaa565b905062000ea58282620010b1565b919050565b6000604051905090565b600067ffffffffffffffff82111562000ed25762000ed162001145565b5b62000edd8262001174565b9050602081019050919050565b600081519050919050565b600082825260208201905092915050565b600062000f138262001019565b915062000f208362001019565b9250827fffffffffffffffffffffffffffffffffffffffffffffffffffffffffffffffff0382111562000f585762000f57620010e7565b5b828201905092915050565b600062000f708262001023565b915062000f7d8362001023565b92508260ff0382111562000f965762000f95620010e7565b5b828201905092915050565b600062000fae8262001019565b915062000fbb8362001019565b92508262000fce5762000fcd62001116565b5b828204905092915050565b600062000fe68262000ff9565b9050919050565b60008115159050919050565b600073ffffffffffffffffffffffffffffffffffffffff82169050919050565b6000819050919050565b600060ff82169050919050565b60006200103d8262001044565b9050919050565b6000620010518262001058565b9050919050565b6000620010658262000ff9565b9050919050565b82818337600083830152505050565b60005b838110156200109b5780820151818401526020810190506200107e565b83811115620010ab576000848401525b50505050565b620010bc8262001174565b810181811067ffffffffffffffff82111715620010de57620010dd62001145565b5b80604052505050565b7f4e487b7100000000000000000000000000000000000000000000000000000000600052601160045260246000fd5b7f4e487b7100000000000000000000000000000000000000000000000000000000600052601260045260246000fd5b7f4e487b7100000000000000000000000000000000000000000000000000000000600052604160045260246000fd5b6000601f19601f8301169050919050565b7f4d6972726f724e6f64653a207375626d69745472616e73616374696f6e20776960008201527f746820696e61646571756174652073746f72616765466565207061796d656e74602082015250565b7f4d6972726f724e6f64653a207375626d69745472616e73616374696f6e20667260008201527f6f6d20746865207a65726f206164647265737300000000000000000000000000602082015250565b7f4d6972726f724e6f64653a206765745472616e73616374696f6e53686172642060008201527f77697468206f7574206f662072616e67652074696d657374616d700000000000602082015250565b7f4d6972726f724e6f64653a20676574536861726441646472657373207769746860008201527f206f7574206f662072616e676520736861726420696e74656765720000000000602082015250565b7f4e6f74206f776e65720000000000000000000000000000000000000000000000600082015250565b7f4d6972726f724e6f64653a2074696d657374616d702073686f756c642062652060008201527f67726561746572207468616e2030000000000000000000000000000000000000602082015250565b620013448162000fed565b81146200135057600080fd5b50565b6200135e8162001019565b81146200136a57600080fd5b50565b620013788162001023565b81146200138457600080fd5b5056fe60806040523480156200001157600080fd5b506040516200108c3803806200108c833981810160405281019062000037919062000141565b83600260006101000a81548173ffffffffffffffffffffffffffffffffffffffff021916908373ffffffffffffffffffffffffffffffffffffffff1602179055508260038190555081600260146101000a81548160ff021916908360ff160217905550846000806101000a81548173ffffffffffffffffffffffffffffffffffffffff021916908373ffffffffffffffffffffffffffffffffffffffff160217905550806007819055506000600481905550600060058190555050505050506200025c565b6000815190506200010d816200020e565b92915050565b600081519050620001248162000228565b92915050565b6000815190506200013b8162000242565b92915050565b600080600080600060a086880312156200015a57600080fd5b60006200016a88828901620000fc565b95505060206200017d88828901620000fc565b9450506040620001908882890162000113565b9350506060620001a3888289016200012a565b9250506080620001b68882890162000113565b9150509295509295909350565b6000620001d082620001d7565b9050919050565b600073ffffffffffffffffffffffffffffffffffffffff82169050919050565b6000819050919050565b600060ff82169050919050565b6200021981620001c3565b81146200022557600080fd5b50565b6200023381620001f7565b81146200023f57600080fd5b50565b6200024d8162000201565b81146200025957600080fd5b50565b610e20806200026c6000396000f3fe6080604052600436106100705760003560e01c806339120b6d1161004e57806339120b6d146100f95780634687650814610124578063d7aa82731461014f578063e37a16671461017f57610070565b80631642d1e2146100755780632e1a7d4d146100a5578063329d2ef7146100ce575b600080fd5b61008f600480360381019061008a9190610775565b6101aa565b60405161009c91906108de565b60405180910390f35b3480156100b157600080fd5b506100cc60048036038101906100c7919061074c565b6102aa565b005b3480156100da57600080fd5b506100e36103a2565b6040516100f091906109bb565b60405180910390f35b34801561010557600080fd5b5061010e6103ac565b60405161011b91906109bb565b60405180910390f35b34801561013057600080fd5b506101396103b6565b60405161014691906109bb565b60405180910390f35b6101696004803603810190610164919061074c565b61044f565b60405161017691906108f9565b60405180910390f35b34801561018b57600080fd5b50610194610615565b6040516101a191906109d6565b60405180910390f35b600060075460016006546101be9190610a8c565b11156101ff576040517f08c379a00000000000000000000000000000000000000000000000000000000081526004016101f69061095b565b60405180910390fd5b8160016000858152602001908152602001600020908051906020019061022692919061062c565b5060016006600082825461023a9190610a8c565b925050819055503073ffffffffffffffffffffffffffffffffffffffff167fad61c318c4b36f165884af3b15023411e6209feb72d318f7e1fe5a63a5ecc8a8600260149054906101000a900460ff16856040516102989291906109f1565b60405180910390a26001905092915050565b60008054906101000a900473ffffffffffffffffffffffffffffffffffffffff1673ffffffffffffffffffffffffffffffffffffffff163373ffffffffffffffffffffffffffffffffffffffff1614610338576040517f08c379a000000000000000000000000000000000000000000000000000000000815260040161032f9061093b565b60405180910390fd5b60008054906101000a900473ffffffffffffffffffffffffffffffffffffffff1673ffffffffffffffffffffffffffffffffffffffff166108fc829081150290604051600060405180830381858888f1935050505015801561039e573d6000803e3d6000fd5b5050565b6000600554905090565b6000600654905090565b60008060009054906101000a900473ffffffffffffffffffffffffffffffffffffffff1673ffffffffffffffffffffffffffffffffffffffff163373ffffffffffffffffffffffffffffffffffffffff1614610447576040517f08c379a000000000000000000000000000000000000000000000000000000000815260040161043e9061091b565b60405180910390fd5b600454905090565b6060600354341015610496576040517f08c379a000000000000000000000000000000000000000000000000000000000815260040161048d9061097b565b60405180910390fd5b60006001600084815260200190815260200160002080546104b690610b47565b80601f01602080910402602001604051908101604052809291908181526020018280546104e290610b47565b801561052f5780601f106105045761010080835404028352916020019161052f565b820191906000526020600020905b81548152906001019060200180831161051257829003601f168201915b50505050509050600081511161057a576040517f08c379a00000000000000000000000000000000000000000000000000000000081526004016105719061099b565b60405180910390fd5b346004600082825461058c9190610a8c565b925050819055506001600560008282546105a69190610a8c565b925050819055503073ffffffffffffffffffffffffffffffffffffffff167f92a1a1c62fec80c174ca0cd3ad5fc94e29b79e120956b3b36a9c49d26474fdb6600260149054906101000a900460ff16856040516106049291906109f1565b60405180910390a280915050919050565b6000600260149054906101000a900460ff16905090565b82805461063890610b47565b90600052602060002090601f01602090048101928261065a57600085556106a1565b82601f1061067357805160ff19168380011785556106a1565b828001600101855582156106a1579182015b828111156106a0578251825591602001919060010190610685565b5b5090506106ae91906106b2565b5090565b5b808211156106cb5760008160009055506001016106b3565b5090565b60006106e26106dd84610a3f565b610a1a565b9050828152602081018484840111156106fa57600080fd5b610705848285610b05565b509392505050565b600082601f83011261071e57600080fd5b813561072e8482602086016106cf565b91505092915050565b60008135905061074681610dd3565b92915050565b60006020828403121561075e57600080fd5b600061076c84828501610737565b91505092915050565b6000806040838503121561078857600080fd5b600061079685828601610737565b925050602083013567ffffffffffffffff8111156107b357600080fd5b6107bf8582860161070d565b9150509250929050565b6107d281610ae2565b82525050565b60006107e382610a70565b6107ed8185610a7b565b93506107fd818560208601610b14565b61080681610c37565b840191505092915050565b600061081e604883610a7b565b915061082982610c48565b606082019050919050565b6000610841600983610a7b565b915061084c82610cbd565b602082019050919050565b6000610864603783610a7b565b915061086f82610ce6565b604082019050919050565b6000610887603a83610a7b565b915061089282610d35565b604082019050919050565b60006108aa603483610a7b565b91506108b582610d84565b604082019050919050565b6108c981610aee565b82525050565b6108d881610af8565b82525050565b60006020820190506108f360008301846107c9565b92915050565b6000602082019050818103600083015261091381846107d8565b905092915050565b6000602082019050818103600083015261093481610811565b9050919050565b6000602082019050818103600083015261095481610834565b9050919050565b6000602082019050818103600083015261097481610857565b9050919050565b600060208201905081810360008301526109948161087a565b9050919050565b600060208201905081810360008301526109b48161089d565b9050919050565b60006020820190506109d060008301846108c0565b92915050565b60006020820190506109eb60008301846108cf565b92915050565b6000604082019050610a0660008301856108cf565b610a1360208301846108c0565b9392505050565b6000610a24610a35565b9050610a308282610b79565b919050565b6000604051905090565b600067ffffffffffffffff821115610a5a57610a59610c08565b5b610a6382610c37565b9050602081019050919050565b600081519050919050565b600082825260208201905092915050565b6000610a9782610aee565b9150610aa283610aee565b9250827fffffffffffffffffffffffffffffffffffffffffffffffffffffffffffffffff03821115610ad757610ad6610baa565b5b828201905092915050565b60008115159050919050565b6000819050919050565b600060ff82169050919050565b82818337600083830152505050565b60005b83811015610b32578082015181840152602081019050610b17565b83811115610b41576000848401525b50505050565b60006002820490506001821680610b5f57607f821691505b60208210811415610b7357610b72610bd9565b5b50919050565b610b8282610c37565b810181811067ffffffffffffffff82111715610ba157610ba0610c08565b5b80604052505050565b7f4e487b7100000000000000000000000000000000000000000000000000000000600052601160045260246000fd5b7f4e487b7100000000000000000000000000000000000000000000000000000000600052602260045260246000fd5b7f4e487b7100000000000000000000000000000000000000000000000000000000600052604160045260246000fd5b6000601f19601f8301169050919050565b7f4d6972726f724e6f646553686172643a20676574546f74616c46656573436f6c60008201527f6c6563746564206e6f6e206f776e657220636865636b696e672066656573206360208201527f6f6c6c6563746564000000000000000000000000000000000000000000000000604082015250565b7f4e6f74206f776e65720000000000000000000000000000000000000000000000600082015250565b7f4d6972726f724e6f646553686172643a2073746f72655472616e73616374696f60008201527f6e206d6178207472616e73616374696f6e20636f756e74000000000000000000602082015250565b7f4d6972726f724e6f646553686172643a206765745472616e73616374696f6e4960008201527f6e666f206761732065786365656473206e6574776f726b466565000000000000602082015250565b7f4d6972726f724e6f646553686172643a207472616e73616374696f6e20636f6e60008201527f74656e7473206578636565642030206279746573000000000000000000000000602082015250565b610ddc81610aee565b8114610de757600080fd5b5056fea2646970667358221220c596bc0316050ee7a9265e613ccbef48b6ed6b0b08058cfc88982c2797f6339264736f6c63430008040033a2646970667358221220aff99ca76baa4f0c410f0f70de9833e2a19234432de6be392d68f9107a38372d64736f6c63430008040033",
  "linkReferences": {},
  "deployedLinkReferences": {}
}