{"contracts/PrecompileTestContract.sol":{"PrecompileTestContract":{"abi":[{"inputs":[{"internalType":"address","name":"token","type":"address"},{"internalType":"address","name":"from","type":"address"},{"internalType":"address","name":"to","type":"address"},{"internalType":"uint256","name":"amount","type":"uint256"}],"name":"delegateTransferFrom","outputs":[{"internalType":"int64","name":"responseCode","type":"int64"}],"stateMutability":"nonpayable","type":"function"},{"inputs":[{"internalType":"address","name":"token","type":"address"},{"internalType":"address","name":"from","type":"address"},{"internalType":"address","name":"to","type":"address"},{"internalType":"uint256","name":"serialNumber","type":"uint256"}],"name":"delegateTransferFromNFT","outputs":[{"internalType":"int64","name":"responseCode","type":"int64"}],"stateMutability":"nonpayable","type":"function"},{"inputs":[{"internalType":"address","name":"token","type":"address"}],"name":"getCustomFeesForToken","outputs":[{"components":[{"internalType":"int64","name":"amount","type":"int64"},{"internalType":"address","name":"tokenId","type":"address"},{"internalType":"bool","name":"useHbarsForPayment","type":"bool"},{"internalType":"bool","name":"useCurrentTokenForPayment","type":"bool"},{"internalType":"address","name":"feeCollector","type":"address"}],"internalType":"struct IHederaTokenService.FixedFee[]","name":"fixedFees","type":"tuple[]"},{"components":[{"internalType":"int64","name":"numerator","type":"int64"},{"internalType":"int64","name":"denominator","type":"int64"},{"internalType":"int64","name":"minimumAmount","type":"int64"},{"internalType":"int64","name":"maximumAmount","type":"int64"},{"internalType":"bool","name":"netOfTransfers","type":"bool"},{"internalType":"address","name":"feeCollector","type":"address"}],"internalType":"struct IHederaTokenService.FractionalFee[]","name":"fractionalFees","type":"tuple[]"},{"components":[{"internalType":"int64","name":"numerator","type":"int64"},{"internalType":"int64","name":"denominator","type":"int64"},{"internalType":"int64","name":"amount","type":"int64"},{"internalType":"address","name":"tokenId","type":"address"},{"internalType":"bool","name":"useHbarsForPayment","type":"bool"},{"internalType":"address","name":"feeCollector","type":"address"}],"internalType":"struct IHederaTokenService.RoyaltyFee[]","name":"royaltyFees","type":"tuple[]"}],"stateMutability":"nonpayable","type":"function"},{"inputs":[{"internalType":"address","name":"token","type":"address"}],"name":"getExpiryInfoForToken","outputs":[{"components":[{"internalType":"int64","name":"second","type":"int64"},{"internalType":"address","name":"autoRenewAccount","type":"address"},{"internalType":"int64","name":"autoRenewPeriod","type":"int64"}],"internalType":"struct IHederaTokenService.Expiry","name":"expiry","type":"tuple"}],"stateMutability":"nonpayable","type":"function"},{"inputs":[{"internalType":"address","name":"token","type":"address"}],"name":"getInformationForFungibleToken","outputs":[{"components":[{"components":[{"components":[{"internalType":"string","name":"name","type":"string"},{"internalType":"string","name":"symbol","type":"string"},{"internalType":"address","name":"treasury","type":"address"},{"internalType":"string","name":"memo","type":"string"},{"internalType":"bool","name":"tokenSupplyType","type":"bool"},{"internalType":"int64","name":"maxSupply","type":"int64"},{"internalType":"bool","name":"freezeDefault","type":"bool"},{"components":[{"internalType":"uint256","name":"keyType","type":"uint256"},{"components":[{"internalType":"bool","name":"inheritAccountKey","type":"bool"},{"internalType":"address","name":"contractId","type":"address"},{"internalType":"bytes","name":"ed25519","type":"bytes"},{"internalType":"bytes","name":"ECDSA_secp256k1","type":"bytes"},{"internalType":"address","name":"delegatableContractId","type":"address"}],"internalType":"struct IHederaTokenService.KeyValue","name":"key","type":"tuple"}],"internalType":"struct IHederaTokenService.TokenKey[]","name":"tokenKeys","type":"tuple[]"},{"components":[{"internalType":"int64","name":"second","type":"int64"},{"internalType":"address","name":"autoRenewAccount","type":"address"},{"internalType":"int64","name":"autoRenewPeriod","type":"int64"}],"internalType":"struct IHederaTokenService.Expiry","name":"expiry","type":"tuple"}],"internalType":"struct IHederaTokenService.HederaToken","name":"token","type":"tuple"},{"internalType":"int64","name":"totalSupply","type":"int64"},{"internalType":"bool","name":"deleted","type":"bool"},{"internalType":"bool","name":"defaultKycStatus","type":"bool"},{"internalType":"bool","name":"pauseStatus","type":"bool"},{"components":[{"internalType":"int64","name":"amount","type":"int64"},{"internalType":"address","name":"tokenId","type":"address"},{"internalType":"bool","name":"useHbarsForPayment","type":"bool"},{"internalType":"bool","name":"useCurrentTokenForPayment","type":"bool"},{"internalType":"address","name":"feeCollector","type":"address"}],"internalType":"struct IHederaTokenService.FixedFee[]","name":"fixedFees","type":"tuple[]"},{"components":[{"internalType":"int64","name":"numerator","type":"int64"},{"internalType":"int64","name":"denominator","type":"int64"},{"internalType":"int64","name":"minimumAmount","type":"int64"},{"internalType":"int64","name":"maximumAmount","type":"int64"},{"internalType":"bool","name":"netOfTransfers","type":"bool"},{"internalType":"address","name":"feeCollector","type":"address"}],"internalType":"struct IHederaTokenService.FractionalFee[]","name":"fractionalFees","type":"tuple[]"},{"components":[{"internalType":"int64","name":"numerator","type":"int64"},{"internalType":"int64","name":"denominator","type":"int64"},{"internalType":"int64","name":"amount","type":"int64"},{"internalType":"address","name":"tokenId","type":"address"},{"internalType":"bool","name":"useHbarsForPayment","type":"bool"},{"internalType":"address","name":"feeCollector","type":"address"}],"internalType":"struct IHederaTokenService.RoyaltyFee[]","name":"royaltyFees","type":"tuple[]"},{"internalType":"string","name":"ledgerId","type":"string"}],"internalType":"struct IHederaTokenService.TokenInfo","name":"tokenInfo","type":"tuple"},{"internalType":"int32","name":"decimals","type":"int32"}],"internalType":"struct IHederaTokenService.FungibleTokenInfo","name":"fungibleTokenInfo","type":"tuple"}],"stateMutability":"nonpayable","type":"function"},{"inputs":[{"internalType":"address","name":"token","type":"address"},{"internalType":"int64","name":"serialNumber","type":"int64"}],"name":"getInformationForNonFungibleToken","outputs":[{"components":[{"components":[{"components":[{"internalType":"string","name":"name","type":"string"},{"internalType":"string","name":"symbol","type":"string"},{"internalType":"address","name":"treasury","type":"address"},{"internalType":"string","name":"memo","type":"string"},{"internalType":"bool","name":"tokenSupplyType","type":"bool"},{"internalType":"int64","name":"maxSupply","type":"int64"},{"internalType":"bool","name":"freezeDefault","type":"bool"},{"components":[{"internalType":"uint256","name":"keyType","type":"uint256"},{"components":[{"internalType":"bool","name":"inheritAccountKey","type":"bool"},{"internalType":"address","name":"contractId","type":"address"},{"internalType":"bytes","name":"ed25519","type":"bytes"},{"internalType":"bytes","name":"ECDSA_secp256k1","type":"bytes"},{"internalType":"address","name":"delegatableContractId","type":"address"}],"internalType":"struct IHederaTokenService.KeyValue","name":"key","type":"tuple"}],"internalType":"struct IHederaTokenService.TokenKey[]","name":"tokenKeys","type":"tuple[]"},{"components":[{"internalType":"int64","name":"second","type":"int64"},{"internalType":"address","name":"autoRenewAccount","type":"address"},{"internalType":"int64","name":"autoRenewPeriod","type":"int64"}],"internalType":"struct IHederaTokenService.Expiry","name":"expiry","type":"tuple"}],"internalType":"struct IHederaTokenService.HederaToken","name":"token","type":"tuple"},{"internalType":"int64","name":"totalSupply","type":"int64"},{"internalType":"bool","name":"deleted","type":"bool"},{"internalType":"bool","name":"defaultKycStatus","type":"bool"},{"internalType":"bool","name":"pauseStatus","type":"bool"},{"components":[{"internalType":"int64","name":"amount","type":"int64"},{"internalType":"address","name":"tokenId","type":"address"},{"internalType":"bool","name":"useHbarsForPayment","type":"bool"},{"internalType":"bool","name":"useCurrentTokenForPayment","type":"bool"},{"internalType":"address","name":"feeCollector","type":"address"}],"internalType":"struct IHederaTokenService.FixedFee[]","name":"fixedFees","type":"tuple[]"},{"components":[{"internalType":"int64","name":"numerator","type":"int64"},{"internalType":"int64","name":"denominator","type":"int64"},{"internalType":"int64","name":"minimumAmount","type":"int64"},{"internalType":"int64","name":"maximumAmount","type":"int64"},{"internalType":"bool","name":"netOfTransfers","type":"bool"},{"internalType":"address","name":"feeCollector","type":"address"}],"internalType":"struct IHederaTokenService.FractionalFee[]","name":"fractionalFees","type":"tuple[]"},{"components":[{"internalType":"int64","name":"numerator","type":"int64"},{"internalType":"int64","name":"denominator","type":"int64"},{"internalType":"int64","name":"amount","type":"int64"},{"internalType":"address","name":"tokenId","type":"address"},{"internalType":"bool","name":"useHbarsForPayment","type":"bool"},{"internalType":"address","name":"feeCollector","type":"address"}],"internalType":"struct IHederaTokenService.RoyaltyFee[]","name":"royaltyFees","type":"tuple[]"},{"internalType":"string","name":"ledgerId","type":"string"}],"internalType":"struct IHederaTokenService.TokenInfo","name":"tokenInfo","type":"tuple"},{"internalType":"int64","name":"serialNumber","type":"int64"},{"internalType":"address","name":"ownerId","type":"address"},{"internalType":"int64","name":"creationTime","type":"int64"},{"internalType":"bytes","name":"metadata","type":"bytes"},{"internalType":"address","name":"spenderId","type":"address"}],"internalType":"struct IHederaTokenService.NonFungibleTokenInfo","name":"nonFungibleTokenInfo","type":"tuple"}],"stateMutability":"nonpayable","type":"function"},{"inputs":[{"internalType":"address","name":"token","type":"address"}],"name":"getInformationForToken","outputs":[{"components":[{"components":[{"internalType":"string","name":"name","type":"string"},{"internalType":"string","name":"symbol","type":"string"},{"internalType":"address","name":"treasury","type":"address"},{"internalType":"string","name":"memo","type":"string"},{"internalType":"bool","name":"tokenSupplyType","type":"bool"},{"internalType":"int64","name":"maxSupply","type":"int64"},{"internalType":"bool","name":"freezeDefault","type":"bool"},{"components":[{"internalType":"uint256","name":"keyType","type":"uint256"},{"components":[{"internalType":"bool","name":"inheritAccountKey","type":"bool"},{"internalType":"address","name":"contractId","type":"address"},{"internalType":"bytes","name":"ed25519","type":"bytes"},{"internalType":"bytes","name":"ECDSA_secp256k1","type":"bytes"},{"internalType":"address","name":"delegatableContractId","type":"address"}],"internalType":"struct IHederaTokenService.KeyValue","name":"key","type":"tuple"}],"internalType":"struct IHederaTokenService.TokenKey[]","name":"tokenKeys","type":"tuple[]"},{"components":[{"internalType":"int64","name":"second","type":"int64"},{"internalType":"address","name":"autoRenewAccount","type":"address"},{"internalType":"int64","name":"autoRenewPeriod","type":"int64"}],"internalType":"struct IHederaTokenService.Expiry","name":"expiry","type":"tuple"}],"internalType":"struct IHederaTokenService.HederaToken","name":"token","type":"tuple"},{"internalType":"int64","name":"totalSupply","type":"int64"},{"internalType":"bool","name":"deleted","type":"bool"},{"internalType":"bool","name":"defaultKycStatus","type":"bool"},{"internalType":"bool","name":"pauseStatus","type":"bool"},{"components":[{"internalType":"int64","name":"amount","type":"int64"},{"internalType":"address","name":"tokenId","type":"address"},{"internalType":"bool","name":"useHbarsForPayment","type":"bool"},{"internalType":"bool","name":"useCurrentTokenForPayment","type":"bool"},{"internalType":"address","name":"feeCollector","type":"address"}],"internalType":"struct IHederaTokenService.FixedFee[]","name":"fixedFees","type":"tuple[]"},{"components":[{"internalType":"int64","name":"numerator","type":"int64"},{"internalType":"int64","name":"denominator","type":"int64"},{"internalType":"int64","name":"minimumAmount","type":"int64"},{"internalType":"int64","name":"maximumAmount","type":"int64"},{"internalType":"bool","name":"netOfTransfers","type":"bool"},{"internalType":"address","name":"feeCollector","type":"address"}],"internalType":"struct IHederaTokenService.FractionalFee[]","name":"fractionalFees","type":"tuple[]"},{"components":[{"internalType":"int64","name":"numerator","type":"int64"},{"internalType":"int64","name":"denominator","type":"int64"},{"internalType":"int64","name":"amount","type":"int64"},{"internalType":"address","name":"tokenId","type":"address"},{"internalType":"bool","name":"useHbarsForPayment","type":"bool"},{"internalType":"address","name":"feeCollector","type":"address"}],"internalType":"struct IHederaTokenService.RoyaltyFee[]","name":"royaltyFees","type":"tuple[]"},{"internalType":"string","name":"ledgerId","type":"string"}],"internalType":"struct IHederaTokenService.TokenInfo","name":"tokenInfo","type":"tuple"}],"stateMutability":"nonpayable","type":"function"},{"inputs":[{"internalType":"address","name":"token","type":"address"}],"name":"getTokenDefaultFreeze","outputs":[{"internalType":"bool","name":"","type":"bool"}],"stateMutability":"nonpayable","type":"function"},{"inputs":[{"internalType":"address","name":"token","type":"address"}],"name":"getTokenDefaultKyc","outputs":[{"internalType":"bool","name":"","type":"bool"}],"stateMutability":"nonpayable","type":"function"},{"inputs":[{"internalType":"address","name":"token","type":"address"},{"internalType":"uint256","name":"keyType","type":"uint256"}],"name":"getTokenKeyPublic","outputs":[{"components":[{"internalType":"bool","name":"inheritAccountKey","type":"bool"},{"internalType":"address","name":"contractId","type":"address"},{"internalType":"bytes","name":"ed25519","type":"bytes"},{"internalType":"bytes","name":"ECDSA_secp256k1","type":"bytes"},{"internalType":"address","name":"delegatableContractId","type":"address"}],"internalType":"struct IHederaTokenService.KeyValue","name":"","type":"tuple"}],"stateMutability":"nonpayable","type":"function"},{"inputs":[{"internalType":"address","name":"token","type":"address"}],"name":"getType","outputs":[{"internalType":"int256","name":"","type":"int256"}],"stateMutability":"nonpayable","type":"function"},{"inputs":[{"internalType":"address","name":"token","type":"address"},{"internalType":"address","name":"account","type":"address"}],"name":"isKycGranted","outputs":[{"internalType":"bool","name":"","type":"bool"}],"stateMutability":"nonpayable","type":"function"},{"inputs":[{"internalType":"address","name":"token","type":"address"}],"name":"isTokenAddress","outputs":[{"internalType":"bool","name":"","type":"bool"}],"stateMutability":"nonpayable","type":"function"},{"inputs":[{"internalType":"address","name":"token","type":"address"},{"internalType":"address","name":"account","type":"address"}],"name":"isTokenFrozen","outputs":[{"internalType":"bool","name":"","type":"bool"}],"stateMutability":"nonpayable","type":"function"},{"inputs":[{"internalType":"address","name":"token","type":"address"},{"internalType":"address","name":"from","type":"address"},{"internalType":"address","name":"to","type":"address"},{"internalType":"uint256","name":"amount","type":"uint256"}],"name":"transferFrom","outputs":[{"internalType":"int64","name":"responseCode","type":"int64"}],"stateMutability":"nonpayable","type":"function"},{"inputs":[{"internalType":"address","name":"token","type":"address"},{"internalType":"address","name":"from","type":"address"},{"internalType":"address","name":"to","type":"address"},{"internalType":"uint256","name":"serialNumber","type":"uint256"}],"name":"transferFromNFT","outputs":[{"internalType":"int64","name":"responseCode","type":"int64"}],"stateMutability":"nonpayable","type":"function"}],"evm":{"bytecode":{"linkReferences":{},"object":"608060405234801561001057600080fd5b5061269f806100206000396000f3fe608060405234801561001057600080fd5b50600436106101005760003560e01c806359c16f5a11610097578063bff9834f11610066578063bff9834f14610261578063eac6f3fe14610274578063f429f19b14610287578063fd4d1c26146102a857600080fd5b806359c16f5a146101fb5780638e5e79961461021b5780639b23d3d91461023b578063bc2fb00e1461024e57600080fd5b8063319a8723116100d3578063319a87231461018357806335589a13146101a657806344f38bc8146101c6578063565ca6fa146101e857600080fd5b806311e1fc071461010557806315dacbea146101305780631955de0b146101435780631de8edad14610163575b600080fd5b610118610113366004611b59565b6102bb565b60405160079190910b81526020015b60405180910390f35b61011861013e366004611b59565b6103ad565b610156610151366004611bd6565b610469565b6040516101279190612451565b610176610171366004611b05565b6104dd565b60405161012791906123e8565b610196610191366004611b05565b61051d565b6040519015158152602001610127565b6101b96101b4366004611b05565b6105ab565b60405161012791906124e8565b6101d96101d4366004611b05565b6105bf565b604051610127939291906123af565b6101966101f6366004611b21565b6105f0565b61020e610209366004611b05565b610659565b604051610127919061241c565b61022e610229366004611ba9565b61066d565b6040516101279190612464565b610118610249366004611b59565b610694565b61019661025c366004611b21565b6106d9565b61019661026f366004611b05565b610742565b610118610282366004611b59565b6107aa565b61029a610295366004611b05565b6107ef565b604051908152602001610127565b6101966102b6366004611b05565b61085a565b6040516001600160a01b038581166024830152848116604483015283166064820152608481018290526000908190819061016790639b23d3d960e01b9060a4015b60408051601f198184030181529181526020820180516001600160e01b03166001600160e01b031990941693909317909252905161033a9190612393565b600060405180830381855af49150503d8060008114610375576040519150601f19603f3d011682016040523d82523d6000602084013e61037a565b606091505b50915091508161038b57601561039f565b8080602001905181019061039f9190611c01565b60030b979650505050505050565b6040516001600160a01b038581166024830152848116604483015283166064820152608481018290526000908190819061016790630aed65f560e11b9060a4015b60408051601f198184030181529181526020820180516001600160e01b03166001600160e01b031990941693909317909252905161042c9190612393565b6000604051808303816000865af19150503d8060008114610375576040519150601f19603f3d011682016040523d82523d6000602084013e61037a565b6104af6040518060a0016040528060001515815260200160006001600160a01b03168152602001606081526020016060815260200160006001600160a01b031681525090565b6000806104bc85856108bd565b915060070b9150601660030b82146104d357600080fd5b9150505b92915050565b60408051606081018252600080825260208201819052918101829052908061050484610a1a565b90925090506016821461051657600080fd5b9392505050565b600080600061052b84610b3d565b9092509050601682146105165760405162461bcd60e51b815260206004820152602360248201527f676574546f6b656e44656661756c74467265657a65537461747573206661696c60448201527f656421000000000000000000000000000000000000000000000000000000000060648201526084015b60405180910390fd5b6105b36112b3565b60008061050484610c3a565b606080606060006105cf85610d23565b9196509450925060070b9050601681146105e857600080fd5b509193909250565b60008060006105ff8585610e23565b915060070b9150601660030b82146104d35760405162461bcd60e51b815260206004820152601660248201527f546f6b656e20697346726f7a656e206661696c6564210000000000000000000060448201526064016105a2565b61066161136a565b60008061050484610f17565b61067561138a565b6000806106828585611000565b9092509050601682146104d357600080fd5b6040516001600160a01b038581166024830152848116604483015283166064820152608481018290526000908190819061016790639b23d3d960e01b9060a4016103ee565b60008060006106e885856110f3565b915060070b9150601660030b82146104d35760405162461bcd60e51b815260206004820152601360248201527f546f6b656e2069734b7963206661696c6564210000000000000000000000000060448201526064016105a2565b600080600061075084611144565b915060070b9150601660030b82146105165760405162461bcd60e51b815260206004820152601c60248201527f546f6b656e206973546f6b656e41646472657373206661696c6564210000000060448201526064016105a2565b6040516001600160a01b038581166024830152848116604483015283166064820152608481018290526000908190819061016790630aed65f560e11b9060a4016102fc565b60008060006107fd8461118d565b60030b915060070b9150601660030b82146105165760405162461bcd60e51b815260206004820152601c60248201527f546f6b656e20747970652061707072616973616c206661696c6564210000000060448201526064016105a2565b60008060006108688461126a565b9092509050601682146105165760405162461bcd60e51b815260206004820181905260248201527f676574546f6b656e44656661756c744b7963537461747573206661696c65642160448201526064016105a2565b6040805160a081018252600080825260208083018290526060838501819052808401526080830182905283516001600160a01b03871660248201526044808201879052855180830390910181526064909101855290810180516001600160e01b03167f3c4dd32e000000000000000000000000000000000000000000000000000000001790529251909283918291610167916109599190612393565b6000604051808303816000865af19150503d8060008114610996576040519150601f19603f3d011682016040523d82523d6000602084013e61099b565b606091505b50915091506109e66040518060a0016040528060001515815260200160006001600160a01b03168152602001606081526020016060815260200160006001600160a01b031681525090565b826109f357601581610a07565b81806020019051810190610a079190611dd8565b60039190910b9890975095505050505050565b604080516060810182526000808252602080830182905282840182905283516001600160a01b038616602480830191909152855180830390910181526044909101855290810180516001600160e01b03167fd614cdb800000000000000000000000000000000000000000000000000000000179052925190928391829161016791610aa59190612393565b6000604051808303816000865af19150503d8060008114610ae2576040519150601f19603f3d011682016040523d82523d6000602084013e610ae7565b606091505b506040805160608101825260008082526020820181905291810191909152919350915082610b1757601581610b2b565b81806020019051810190610b2b9190611d0b565b60039190910b97909650945050505050565b6040516001600160a01b0382166024820152600090819081908190610167907fa7daa18d00000000000000000000000000000000000000000000000000000000906044015b60408051601f198184030181529181526020820180516001600160e01b03166001600160e01b0319909416939093179092529051610bc09190612393565b6000604051808303816000865af19150503d8060008114610bfd576040519150601f19603f3d011682016040523d82523d6000602084013e610c02565b606091505b509150915081610c155760156000610c29565b80806020019051810190610c299190611cb0565b60039190910b969095509350505050565b6000610c446112b3565b604080516001600160a01b03851660248083019190915282518083039091018152604490910182526020810180516001600160e01b03167f1f69565f000000000000000000000000000000000000000000000000000000001790529051600091829161016791610cb391612393565b6000604051808303816000865af19150503d8060008114610cf0576040519150601f19603f3d011682016040523d82523d6000602084013e610cf5565b606091505b5091509150610d026112b3565b82610d0f57601581610b2b565b81806020019051810190610b2b9190611f07565b604080516001600160a01b03831660248083019190915282518083039091018152604490910182526020810180516001600160e01b03167fae7611a0000000000000000000000000000000000000000000000000000000001790529051600091606091829182918591829161016791610d9b91612393565b6000604051808303816000865af19150503d8060008114610dd8576040519150601f19603f3d011682016040523d82523d6000602084013e610ddd565b606091505b5091509150606080606084610df6576015838383610e0a565b83806020019051810190610e0a9190611c1b565b60039390930b9d919c509a509098509650505050505050565b6040516001600160a01b03838116602483015282166044820152600090819081908190610167907f46de0fb100000000000000000000000000000000000000000000000000000000906064015b60408051601f198184030181529181526020820180516001600160e01b03166001600160e01b0319909416939093179092529051610eae9190612393565b6000604051808303816000865af19150503d8060008114610eeb576040519150601f19603f3d011682016040523d82523d6000602084013e610ef0565b606091505b509150915081610f035760156000610b2b565b80806020019051810190610b2b9190611cb0565b6000610f2161136a565b604080516001600160a01b03851660248083019190915282518083039091018152604490910182526020810180516001600160e01b03167f3f28a19b000000000000000000000000000000000000000000000000000000001790529051600091829161016791610f9091612393565b6000604051808303816000865af19150503d8060008114610fcd576040519150601f19603f3d011682016040523d82523d6000602084013e610fd2565b606091505b5091509150610fdf61136a565b82610fec57601581610b2b565b81806020019051810190610b2b9190611d35565b600061100a61138a565b604080516001600160a01b0386166024820152600785900b60448083019190915282518083039091018152606490910182526020810180516001600160e01b03167f287e1da800000000000000000000000000000000000000000000000000000000179052905160009182916101679161108391612393565b6000604051808303816000865af19150503d80600081146110c0576040519150601f19603f3d011682016040523d82523d6000602084013e6110c5565b606091505b50915091506110d261138a565b826110df57601581610a07565b81806020019051810190610a079190611e24565b6040516001600160a01b03838116602483015282166044820152600090819081908190610167907ff2c31ff40000000000000000000000000000000000000000000000000000000090606401610e70565b6040516001600160a01b0382166024820152600090819081908190610167907f19f373610000000000000000000000000000000000000000000000000000000090604401610b82565b604080516001600160a01b03831660248083019190915282518083039091018152604490910182526020810180516001600160e01b03167f93272baf0000000000000000000000000000000000000000000000000000000017905290516000918291829182916101679161120091612393565b6000604051808303816000865af19150503d806000811461123d576040519150601f19603f3d011682016040523d82523d6000602084013e611242565b606091505b509150915081611256576015600019610c29565b80806020019051810190610c299190611ce2565b6040516001600160a01b0382166024820152600090819081908190610167907f335e04c10000000000000000000000000000000000000000000000000000000090604401610b82565b60408051610240810182526060610120820181815261014083018290526000610160840181905261018084018390526101a084018190526101c084018190526101e0840181905261020084018390528451928301855280835260208301819052938201939093526102208201529081908152602001600060070b8152602001600015158152602001600015158152602001600015158152602001606081526020016060815260200160608152602001606081525090565b604051806040016040528061137d6112b3565b8152600060209091015290565b6040518060c0016040528061139d6112b3565b8152600060208201819052604082018190526060808301829052608083015260a09091015290565b80516113d081612642565b919050565b600082601f8301126113e5578081fd5b815160206113fa6113f5836125bf565b61258e565b8281528181019085830160a080860288018501891015611418578687fd5b865b8681101561149d5781838b031215611430578788fd5b6114386124fb565b83516114438161265a565b81528387015161145281612642565b818801526040611463858201611726565b908201526060611474858201611726565b9082015260808481015161148781612642565b908201528552938501939181019160010161141a565b509198975050505050505050565b600082601f8301126114bb578081fd5b815160206114cb6113f5836125bf565b8281528181019085830160c0808602880185018910156114e9578687fd5b865b8681101561149d5781838b031215611501578788fd5b611509612524565b83516115148161265a565b8152838701516115238161265a565b818801526040848101516115368161265a565b908201526060848101516115498161265a565b90820152608061155a858201611726565b9082015260a08481015161156d81612642565b90820152855293850193918101916001016114eb565b600082601f830112611593578081fd5b815160206115a36113f5836125bf565b8281528181019085830160c0808602880185018910156115c1578687fd5b865b8681101561149d5781838b0312156115d9578788fd5b6115e1612524565b83516115ec8161265a565b8152838701516115fb8161265a565b8188015260408481015161160e8161265a565b9082015260608481015161162181612642565b908201526080611632858201611726565b9082015260a08481015161164581612642565b90820152855293850193918101916001016115c3565b600082601f83011261166b578081fd5b8151602061167b6113f5836125bf565b80838252828201915082860187848660051b890101111561169a578586fd5b855b8581101561171957815167ffffffffffffffff808211156116bb578889fd5b908901906040828c03601f19018113156116d357898afd5b6116db612547565b8389015181529083015190828211156116f2578a8bfd5b6117008d8a8487010161193c565b818a01528752505050928401929084019060010161169c565b5090979650505050505050565b805180151581146113d057600080fd5b600082601f830112611746578081fd5b815167ffffffffffffffff81111561176057611760612613565b611773601f8201601f191660200161258e565b818152846020838601011115611787578283fd5b6104d38260208301602087016125e3565b8051600381900b81146113d057600080fd5b80516113d08161265a565b6000606082840312156117c6578081fd5b6040516060810181811067ffffffffffffffff821117156117e9576117e9612613565b806040525080915082516117fc8161265a565b8152602083015161180c81612642565b6020820152604083015161181f8161265a565b6040919091015292915050565b6000610160828403121561183e578081fd5b61184661256a565b9050815167ffffffffffffffff8082111561186057600080fd5b61186c85838601611736565b8352602084015191508082111561188257600080fd5b61188e85838601611736565b602084015261189f604085016113c5565b604084015260608401519150808211156118b857600080fd5b6118c485838601611736565b60608401526118d560808501611726565b60808401526118e660a085016117aa565b60a08401526118f760c08501611726565b60c084015260e084015191508082111561191057600080fd5b5061191d8482850161165b565b60e083015250610100611932848285016117b5565b9082015292915050565b600060a0828403121561194d578081fd5b6119556124fb565b905061196082611726565b8152602082015161197081612642565b6020820152604082015167ffffffffffffffff8082111561199057600080fd5b61199c85838601611736565b604084015260608401519150808211156119b557600080fd5b506119c284828501611736565b60608301525060808201516119d681612642565b608082015292915050565b600061012082840312156119f3578081fd5b6119fb61256a565b9050815167ffffffffffffffff80821115611a1557600080fd5b611a218583860161182c565b8352611a2f602085016117aa565b6020840152611a4060408501611726565b6040840152611a5160608501611726565b6060840152611a6260808501611726565b608084015260a0840151915080821115611a7b57600080fd5b611a87858386016113d5565b60a084015260c0840151915080821115611aa057600080fd5b611aac858386016114ab565b60c084015260e0840151915080821115611ac557600080fd5b611ad185838601611583565b60e084015261010091508184015181811115611aec57600080fd5b611af886828701611736565b8385015250505092915050565b600060208284031215611b16578081fd5b813561051681612642565b60008060408385031215611b33578081fd5b8235611b3e81612642565b91506020830135611b4e81612642565b809150509250929050565b60008060008060808587031215611b6e578182fd5b8435611b7981612642565b93506020850135611b8981612642565b92506040850135611b9981612642565b9396929550929360600135925050565b60008060408385031215611bbb578182fd5b8235611bc681612642565b91506020830135611b4e8161265a565b60008060408385031215611be8578182fd5b8235611bf381612642565b946020939093013593505050565b600060208284031215611c12578081fd5b61051682611798565b60008060008060808587031215611c30578182fd5b611c3985611798565b9350602085015167ffffffffffffffff80821115611c55578384fd5b611c61888389016113d5565b94506040870151915080821115611c76578384fd5b611c82888389016114ab565b93506060870151915080821115611c97578283fd5b50611ca487828801611583565b91505092959194509250565b60008060408385031215611cc2578182fd5b611ccb83611798565b9150611cd960208401611726565b90509250929050565b60008060408385031215611cf4578182fd5b611cfd83611798565b9150611cd960208401611798565b60008060808385031215611d1d578182fd5b611d2683611798565b9150611cd984602085016117b5565b60008060408385031215611d47578182fd5b611d5083611798565b9150602083015167ffffffffffffffff80821115611d6c578283fd5b9084019060408287031215611d7f578283fd5b604051604081018181108382111715611d9a57611d9a612613565b604052825182811115611dab578485fd5b611db7888286016119e1565b825250611dc660208401611798565b60208201528093505050509250929050565b60008060408385031215611dea578182fd5b611df383611798565b9150602083015167ffffffffffffffff811115611e0e578182fd5b611e1a8582860161193c565b9150509250929050565b60008060408385031215611e36578182fd5b611e3f83611798565b9150602083015167ffffffffffffffff80821115611e5b578283fd5b9084019060c08287031215611e6e578283fd5b611e76612524565b825182811115611e84578485fd5b611e90888286016119e1565b825250611e9f602084016117aa565b6020820152611eb0604084016113c5565b6040820152611ec1606084016117aa565b6060820152608083015182811115611ed7578485fd5b611ee388828601611736565b608083015250611ef560a084016113c5565b60a08201528093505050509250929050565b60008060408385031215611f19578182fd5b611f2283611798565b9150602083015167ffffffffffffffff811115611f3d578182fd5b611e1a858286016119e1565b6000815180845260208085019450808401835b83811015611fb5578151805160070b8852838101516001600160a01b03908116858a01526040808301511515908a01526060808301511515908a0152608091820151169088015260a09096019590820190600101611f5c565b509495945050505050565b6000815180845260208085019450808401835b83811015611fb55781518051600790810b895284820151810b858a0152604080830151820b908a015260608083015190910b9089015260808082015115159089015260a0908101516001600160a01b03169088015260c09096019590820190600101611fd3565b6000815180845260208085019450808401835b83811015611fb55781518051600790810b895284820151810b858a015260408083015190910b908901526060808201516001600160a01b03908116918a01919091526080808301511515908a015260a091820151169088015260c0909601959082019060010161204d565b600081518084526020808501808196508360051b81019150828601855b8581101561211357828403895281518051855285015160408686018190526120ff8187018361224e565b9a87019a95505050908401906001016120d5565b5091979650505050505050565b600081518084526121388160208601602086016125e3565b601f01601f19169290920160200192915050565b6000610160825181855261216282860182612120565b9150506020830151848203602086015261217c8282612120565b915050604083015161219960408601826001600160a01b03169052565b50606083015184820360608601526121b18282612120565b91505060808301516121c7608086018215159052565b5060a08301516121dc60a086018260070b9052565b5060c08301516121f060c086018215159052565b5060e083015184820360e086015261220882826120b8565b9150506101008084015161224482870182805160070b82526001600160a01b036020820151166020830152604081015160070b60408301525050565b5090949350505050565b805115158252600060208201516001600160a01b0380821660208601526040840151915060a0604086015261228660a0860183612120565b91506060840151858303606087015261229f8382612120565b925050806080850151166080860152508091505092915050565b600061012082518185526122cf8286018261214c565b91505060208301516122e6602086018260070b9052565b5060408301516122fa604086018215159052565b50606083015161230e606086018215159052565b506080830151612322608086018215159052565b5060a083015184820360a086015261233a8282611f49565b91505060c083015184820360c08601526123548282611fc0565b91505060e083015184820360e086015261236e828261203a565b91505061010080840151858303828701526123898382612120565b9695505050505050565b600082516123a58184602087016125e3565b9190910192915050565b6060815260006123c26060830186611f49565b82810360208401526123d48186611fc0565b90508281036040840152612389818561203a565b606081016104d78284805160070b82526001600160a01b036020820151166020830152604081015160070b60408301525050565b60208152600082516040602084015261243860608401826122b9565b9050602084015160030b60408401528091505092915050565b602081526000610516602083018461224e565b602081526000825160c0602084015261248060e08401826122b9565b9050602084015160070b604084015260408401516001600160a01b038082166060860152606086015160070b608086015260808601519150601f198584030160a08601526124ce8383612120565b92508060a08701511660c086015250508091505092915050565b60208152600061051660208301846122b9565b60405160a0810167ffffffffffffffff8111828210171561251e5761251e612613565b60405290565b60405160c0810167ffffffffffffffff8111828210171561251e5761251e612613565b6040805190810167ffffffffffffffff8111828210171561251e5761251e612613565b604051610120810167ffffffffffffffff8111828210171561251e5761251e612613565b604051601f8201601f1916810167ffffffffffffffff811182821017156125b7576125b7612613565b604052919050565b600067ffffffffffffffff8211156125d9576125d9612613565b5060051b60200190565b60005b838110156125fe5781810151838201526020016125e6565b8381111561260d576000848401525b50505050565b7f4e487b7100000000000000000000000000000000000000000000000000000000600052604160045260246000fd5b6001600160a01b038116811461265757600080fd5b50565b8060070b811461265757600080fdfea2646970667358221220544295fc55218133f7667091d454c5e766b68f6e4a75fecce4c0856c1649520464736f6c63430008040033","opcodes":"PUSH1 0x80 PUSH1 0x40 MSTORE CALLVALUE DUP1 ISZERO PUSH2 0x10 JUMPI PUSH1 0x0 DUP1 REVERT JUMPDEST POP PUSH2 0x269F DUP1 PUSH2 0x20 PUSH1 0x0 CODECOPY PUSH1 0x0 RETURN INVALID PUSH1 0x80 PUSH1 0x40 MSTORE CALLVALUE DUP1 ISZERO PUSH2 0x10 JUMPI PUSH1 0x0 DUP1 REVERT JUMPDEST POP PUSH1 0x4 CALLDATASIZE LT PUSH2 0x100 JUMPI PUSH1 0x0 CALLDATALOAD PUSH1 0xE0 SHR DUP1 PUSH4 0x59C16F5A GT PUSH2 0x97 JUMPI DUP1 PUSH4 0xBFF9834F GT PUSH2 0x66 JUMPI DUP1 PUSH4 0xBFF9834F EQ PUSH2 0x261 JUMPI DUP1 PUSH4 0xEAC6F3FE EQ PUSH2 0x274 JUMPI DUP1 PUSH4 0xF429F19B EQ PUSH2 0x287 JUMPI DUP1 PUSH4 0xFD4D1C26 EQ PUSH2 0x2A8 JUMPI PUSH1 0x0 DUP1 REVERT JUMPDEST DUP1 PUSH4 0x59C16F5A EQ PUSH2 0x1FB JUMPI DUP1 PUSH4 0x8E5E7996 EQ PUSH2 0x21B JUMPI DUP1 PUSH4 0x9B23D3D9 EQ PUSH2 0x23B JUMPI DUP1 PUSH4 0xBC2FB00E EQ PUSH2 0x24E JUMPI PUSH1 0x0 DUP1 REVERT JUMPDEST DUP1 PUSH4 0x319A8723 GT PUSH2 0xD3 JUMPI DUP1 PUSH4 0x319A8723 EQ PUSH2 0x183 JUMPI DUP1 PUSH4 0x35589A13 EQ PUSH2 0x1A6 JUMPI DUP1 PUSH4 0x44F38BC8 EQ PUSH2 0x1C6 JUMPI DUP1 PUSH4 0x565CA6FA EQ PUSH2 0x1E8 JUMPI PUSH1 0x0 DUP1 REVERT JUMPDEST DUP1 PUSH4 0x11E1FC07 EQ PUSH2 0x105 JUMPI DUP1 PUSH4 0x15DACBEA EQ PUSH2 0x130 JUMPI DUP1 PUSH4 0x1955DE0B EQ PUSH2 0x143 JUMPI DUP1 PUSH4 0x1DE8EDAD EQ PUSH2 0x163 JUMPI JUMPDEST PUSH1 0x0 DUP1 REVERT JUMPDEST PUSH2 0x118 PUSH2 0x113 CALLDATASIZE PUSH1 0x4 PUSH2 0x1B59 JUMP JUMPDEST PUSH2 0x2BB JUMP JUMPDEST PUSH1 0x40 MLOAD PUSH1 0x7 SWAP2 SWAP1 SWAP2 SIGNEXTEND DUP2 MSTORE PUSH1 0x20 ADD JUMPDEST PUSH1 0x40 MLOAD DUP1 SWAP2 SUB SWAP1 RETURN JUMPDEST PUSH2 0x118 PUSH2 0x13E CALLDATASIZE PUSH1 0x4 PUSH2 0x1B59 JUMP JUMPDEST PUSH2 0x3AD JUMP JUMPDEST PUSH2 0x156 PUSH2 0x151 CALLDATASIZE PUSH1 0x4 PUSH2 0x1BD6 JUMP JUMPDEST PUSH2 0x469 JUMP JUMPDEST PUSH1 0x40 MLOAD PUSH2 0x127 SWAP2 SWAP1 PUSH2 0x2451 JUMP JUMPDEST PUSH2 0x176 PUSH2 0x171 CALLDATASIZE PUSH1 0x4 PUSH2 0x1B05 JUMP JUMPDEST PUSH2 0x4DD JUMP JUMPDEST PUSH1 0x40 MLOAD PUSH2 0x127 SWAP2 SWAP1 PUSH2 0x23E8 JUMP JUMPDEST PUSH2 0x196 PUSH2 0x191 CALLDATASIZE PUSH1 0x4 PUSH2 0x1B05 JUMP JUMPDEST PUSH2 0x51D JUMP JUMPDEST PUSH1 0x40 MLOAD SWAP1 ISZERO ISZERO DUP2 MSTORE PUSH1 0x20 ADD PUSH2 0x127 JUMP JUMPDEST PUSH2 0x1B9 PUSH2 0x1B4 CALLDATASIZE PUSH1 0x4 PUSH2 0x1B05 JUMP JUMPDEST PUSH2 0x5AB JUMP JUMPDEST PUSH1 0x40 MLOAD PUSH2 0x127 SWAP2 SWAP1 PUSH2 0x24E8 JUMP JUMPDEST PUSH2 0x1D9 PUSH2 0x1D4 CALLDATASIZE PUSH1 0x4 PUSH2 0x1B05 JUMP JUMPDEST PUSH2 0x5BF JUMP JUMPDEST PUSH1 0x40 MLOAD PUSH2 0x127 SWAP4 SWAP3 SWAP2 SWAP1 PUSH2 0x23AF JUMP JUMPDEST PUSH2 0x196 PUSH2 0x1F6 CALLDATASIZE PUSH1 0x4 PUSH2 0x1B21 JUMP JUMPDEST PUSH2 0x5F0 JUMP JUMPDEST PUSH2 0x20E PUSH2 0x209 CALLDATASIZE PUSH1 0x4 PUSH2 0x1B05 JUMP JUMPDEST PUSH2 0x659 JUMP JUMPDEST PUSH1 0x40 MLOAD PUSH2 0x127 SWAP2 SWAP1 PUSH2 0x241C JUMP JUMPDEST PUSH2 0x22E PUSH2 0x229 CALLDATASIZE PUSH1 0x4 PUSH2 0x1BA9 JUMP JUMPDEST PUSH2 0x66D JUMP JUMPDEST PUSH1 0x40 MLOAD PUSH2 0x127 SWAP2 SWAP1 PUSH2 0x2464 JUMP JUMPDEST PUSH2 0x118 PUSH2 0x249 CALLDATASIZE PUSH1 0x4 PUSH2 0x1B59 JUMP JUMPDEST PUSH2 0x694 JUMP JUMPDEST PUSH2 0x196 PUSH2 0x25C CALLDATASIZE PUSH1 0x4 PUSH2 0x1B21 JUMP JUMPDEST PUSH2 0x6D9 JUMP JUMPDEST PUSH2 0x196 PUSH2 0x26F CALLDATASIZE PUSH1 0x4 PUSH2 0x1B05 JUMP JUMPDEST PUSH2 0x742 JUMP JUMPDEST PUSH2 0x118 PUSH2 0x282 CALLDATASIZE PUSH1 0x4 PUSH2 0x1B59 JUMP JUMPDEST PUSH2 0x7AA JUMP JUMPDEST PUSH2 0x29A PUSH2 0x295 CALLDATASIZE PUSH1 0x4 PUSH2 0x1B05 JUMP JUMPDEST PUSH2 0x7EF JUMP JUMPDEST PUSH1 0x40 MLOAD SWAP1 DUP2 MSTORE PUSH1 0x20 ADD PUSH2 0x127 JUMP JUMPDEST PUSH2 0x196 PUSH2 0x2B6 CALLDATASIZE PUSH1 0x4 PUSH2 0x1B05 JUMP JUMPDEST PUSH2 0x85A JUMP JUMPDEST PUSH1 0x40 MLOAD PUSH1 0x1 PUSH1 0x1 PUSH1 0xA0 SHL SUB DUP6 DUP2 AND PUSH1 0x24 DUP4 ADD MSTORE DUP5 DUP2 AND PUSH1 0x44 DUP4 ADD MSTORE DUP4 AND PUSH1 0x64 DUP3 ADD MSTORE PUSH1 0x84 DUP2 ADD DUP3 SWAP1 MSTORE PUSH1 0x0 SWAP1 DUP2 SWAP1 DUP2 SWAP1 PUSH2 0x167 SWAP1 PUSH4 0x9B23D3D9 PUSH1 0xE0 SHL SWAP1 PUSH1 0xA4 ADD JUMPDEST PUSH1 0x40 DUP1 MLOAD PUSH1 0x1F NOT DUP2 DUP5 SUB ADD DUP2 MSTORE SWAP2 DUP2 MSTORE PUSH1 0x20 DUP3 ADD DUP1 MLOAD PUSH1 0x1 PUSH1 0x1 PUSH1 0xE0 SHL SUB AND PUSH1 0x1 PUSH1 0x1 PUSH1 0xE0 SHL SUB NOT SWAP1 SWAP5 AND SWAP4 SWAP1 SWAP4 OR SWAP1 SWAP3 MSTORE SWAP1 MLOAD PUSH2 0x33A SWAP2 SWAP1 PUSH2 0x2393 JUMP JUMPDEST PUSH1 0x0 PUSH1 0x40 MLOAD DUP1 DUP4 SUB DUP2 DUP6 GAS DELEGATECALL SWAP2 POP POP RETURNDATASIZE DUP1 PUSH1 0x0 DUP2 EQ PUSH2 0x375 JUMPI PUSH1 0x40 MLOAD SWAP2 POP PUSH1 0x1F NOT PUSH1 0x3F RETURNDATASIZE ADD AND DUP3 ADD PUSH1 0x40 MSTORE RETURNDATASIZE DUP3 MSTORE RETURNDATASIZE PUSH1 0x0 PUSH1 0x20 DUP5 ADD RETURNDATACOPY PUSH2 0x37A JUMP JUMPDEST PUSH1 0x60 SWAP2 POP JUMPDEST POP SWAP2 POP SWAP2 POP DUP2 PUSH2 0x38B JUMPI PUSH1 0x15 PUSH2 0x39F JUMP JUMPDEST DUP1 DUP1 PUSH1 0x20 ADD SWAP1 MLOAD DUP2 ADD SWAP1 PUSH2 0x39F SWAP2 SWAP1 PUSH2 0x1C01 JUMP JUMPDEST PUSH1 0x3 SIGNEXTEND SWAP8 SWAP7 POP POP POP POP POP POP POP JUMP JUMPDEST PUSH1 0x40 MLOAD PUSH1 0x1 PUSH1 0x1 PUSH1 0xA0 SHL SUB DUP6 DUP2 AND PUSH1 0x24 DUP4 ADD MSTORE DUP5 DUP2 AND PUSH1 0x44 DUP4 ADD MSTORE DUP4 AND PUSH1 0x64 DUP3 ADD MSTORE PUSH1 0x84 DUP2 ADD DUP3 SWAP1 MSTORE PUSH1 0x0 SWAP1 DUP2 SWAP1 DUP2 SWAP1 PUSH2 0x167 SWAP1 PUSH4 0xAED65F5 PUSH1 0xE1 SHL SWAP1 PUSH1 0xA4 ADD JUMPDEST PUSH1 0x40 DUP1 MLOAD PUSH1 0x1F NOT DUP2 DUP5 SUB ADD DUP2 MSTORE SWAP2 DUP2 MSTORE PUSH1 0x20 DUP3 ADD DUP1 MLOAD PUSH1 0x1 PUSH1 0x1 PUSH1 0xE0 SHL SUB AND PUSH1 0x1 PUSH1 0x1 PUSH1 0xE0 SHL SUB NOT SWAP1 SWAP5 AND SWAP4 SWAP1 SWAP4 OR SWAP1 SWAP3 MSTORE SWAP1 MLOAD PUSH2 0x42C SWAP2 SWAP1 PUSH2 0x2393 JUMP JUMPDEST PUSH1 0x0 PUSH1 0x40 MLOAD DUP1 DUP4 SUB DUP2 PUSH1 0x0 DUP7 GAS CALL SWAP2 POP POP RETURNDATASIZE DUP1 PUSH1 0x0 DUP2 EQ PUSH2 0x375 JUMPI PUSH1 0x40 MLOAD SWAP2 POP PUSH1 0x1F NOT PUSH1 0x3F RETURNDATASIZE ADD AND DUP3 ADD PUSH1 0x40 MSTORE RETURNDATASIZE DUP3 MSTORE RETURNDATASIZE PUSH1 0x0 PUSH1 0x20 DUP5 ADD RETURNDATACOPY PUSH2 0x37A JUMP JUMPDEST PUSH2 0x4AF PUSH1 0x40 MLOAD DUP1 PUSH1 0xA0 ADD PUSH1 0x40 MSTORE DUP1 PUSH1 0x0 ISZERO ISZERO DUP2 MSTORE PUSH1 0x20 ADD PUSH1 0x0 PUSH1 0x1 PUSH1 0x1 PUSH1 0xA0 SHL SUB AND DUP2 MSTORE PUSH1 0x20 ADD PUSH1 0x60 DUP2 MSTORE PUSH1 0x20 ADD PUSH1 0x60 DUP2 MSTORE PUSH1 0x20 ADD PUSH1 0x0 PUSH1 0x1 PUSH1 0x1 PUSH1 0xA0 SHL SUB AND DUP2 MSTORE POP SWAP1 JUMP JUMPDEST PUSH1 0x0 DUP1 PUSH2 0x4BC DUP6 DUP6 PUSH2 0x8BD JUMP JUMPDEST SWAP2 POP PUSH1 0x7 SIGNEXTEND SWAP2 POP PUSH1 0x16 PUSH1 0x3 SIGNEXTEND DUP3 EQ PUSH2 0x4D3 JUMPI PUSH1 0x0 DUP1 REVERT JUMPDEST SWAP2 POP POP JUMPDEST SWAP3 SWAP2 POP POP JUMP JUMPDEST PUSH1 0x40 DUP1 MLOAD PUSH1 0x60 DUP2 ADD DUP3 MSTORE PUSH1 0x0 DUP1 DUP3 MSTORE PUSH1 0x20 DUP3 ADD DUP2 SWAP1 MSTORE SWAP2 DUP2 ADD DUP3 SWAP1 MSTORE SWAP1 DUP1 PUSH2 0x504 DUP5 PUSH2 0xA1A JUMP JUMPDEST SWAP1 SWAP3 POP SWAP1 POP PUSH1 0x16 DUP3 EQ PUSH2 0x516 JUMPI PUSH1 0x0 DUP1 REVERT JUMPDEST SWAP4 SWAP3 POP POP POP JUMP JUMPDEST PUSH1 0x0 DUP1 PUSH1 0x0 PUSH2 0x52B DUP5 PUSH2 0xB3D JUMP JUMPDEST SWAP1 SWAP3 POP SWAP1 POP PUSH1 0x16 DUP3 EQ PUSH2 0x516 JUMPI PUSH1 0x40 MLOAD PUSH3 0x461BCD PUSH1 0xE5 SHL DUP2 MSTORE PUSH1 0x20 PUSH1 0x4 DUP3 ADD MSTORE PUSH1 0x23 PUSH1 0x24 DUP3 ADD MSTORE PUSH32 0x676574546F6B656E44656661756C74467265657A65537461747573206661696C PUSH1 0x44 DUP3 ADD MSTORE PUSH32 0x6564210000000000000000000000000000000000000000000000000000000000 PUSH1 0x64 DUP3 ADD MSTORE PUSH1 0x84 ADD JUMPDEST PUSH1 0x40 MLOAD DUP1 SWAP2 SUB SWAP1 REVERT JUMPDEST PUSH2 0x5B3 PUSH2 0x12B3 JUMP JUMPDEST PUSH1 0x0 DUP1 PUSH2 0x504 DUP5 PUSH2 0xC3A JUMP JUMPDEST PUSH1 0x60 DUP1 PUSH1 0x60 PUSH1 0x0 PUSH2 0x5CF DUP6 PUSH2 0xD23 JUMP JUMPDEST SWAP2 SWAP7 POP SWAP5 POP SWAP3 POP PUSH1 0x7 SIGNEXTEND SWAP1 POP PUSH1 0x16 DUP2 EQ PUSH2 0x5E8 JUMPI PUSH1 0x0 DUP1 REVERT JUMPDEST POP SWAP2 SWAP4 SWAP1 SWAP3 POP JUMP JUMPDEST PUSH1 0x0 DUP1 PUSH1 0x0 PUSH2 0x5FF DUP6 DUP6 PUSH2 0xE23 JUMP JUMPDEST SWAP2 POP PUSH1 0x7 SIGNEXTEND SWAP2 POP PUSH1 0x16 PUSH1 0x3 SIGNEXTEND DUP3 EQ PUSH2 0x4D3 JUMPI PUSH1 0x40 MLOAD PUSH3 0x461BCD PUSH1 0xE5 SHL DUP2 MSTORE PUSH1 0x20 PUSH1 0x4 DUP3 ADD MSTORE PUSH1 0x16 PUSH1 0x24 DUP3 ADD MSTORE PUSH32 0x546F6B656E20697346726F7A656E206661696C65642100000000000000000000 PUSH1 0x44 DUP3 ADD MSTORE PUSH1 0x64 ADD PUSH2 0x5A2 JUMP JUMPDEST PUSH2 0x661 PUSH2 0x136A JUMP JUMPDEST PUSH1 0x0 DUP1 PUSH2 0x504 DUP5 PUSH2 0xF17 JUMP JUMPDEST PUSH2 0x675 PUSH2 0x138A JUMP JUMPDEST PUSH1 0x0 DUP1 PUSH2 0x682 DUP6 DUP6 PUSH2 0x1000 JUMP JUMPDEST SWAP1 SWAP3 POP SWAP1 POP PUSH1 0x16 DUP3 EQ PUSH2 0x4D3 JUMPI PUSH1 0x0 DUP1 REVERT JUMPDEST PUSH1 0x40 MLOAD PUSH1 0x1 PUSH1 0x1 PUSH1 0xA0 SHL SUB DUP6 DUP2 AND PUSH1 0x24 DUP4 ADD MSTORE DUP5 DUP2 AND PUSH1 0x44 DUP4 ADD MSTORE DUP4 AND PUSH1 0x64 DUP3 ADD MSTORE PUSH1 0x84 DUP2 ADD DUP3 SWAP1 MSTORE PUSH1 0x0 SWAP1 DUP2 SWAP1 DUP2 SWAP1 PUSH2 0x167 SWAP1 PUSH4 0x9B23D3D9 PUSH1 0xE0 SHL SWAP1 PUSH1 0xA4 ADD PUSH2 0x3EE JUMP JUMPDEST PUSH1 0x0 DUP1 PUSH1 0x0 PUSH2 0x6E8 DUP6 DUP6 PUSH2 0x10F3 JUMP JUMPDEST SWAP2 POP PUSH1 0x7 SIGNEXTEND SWAP2 POP PUSH1 0x16 PUSH1 0x3 SIGNEXTEND DUP3 EQ PUSH2 0x4D3 JUMPI PUSH1 0x40 MLOAD PUSH3 0x461BCD PUSH1 0xE5 SHL DUP2 MSTORE PUSH1 0x20 PUSH1 0x4 DUP3 ADD MSTORE PUSH1 0x13 PUSH1 0x24 DUP3 ADD MSTORE PUSH32 0x546F6B656E2069734B7963206661696C65642100000000000000000000000000 PUSH1 0x44 DUP3 ADD MSTORE PUSH1 0x64 ADD PUSH2 0x5A2 JUMP JUMPDEST PUSH1 0x0 DUP1 PUSH1 0x0 PUSH2 0x750 DUP5 PUSH2 0x1144 JUMP JUMPDEST SWAP2 POP PUSH1 0x7 SIGNEXTEND SWAP2 POP PUSH1 0x16 PUSH1 0x3 SIGNEXTEND DUP3 EQ PUSH2 0x516 JUMPI PUSH1 0x40 MLOAD PUSH3 0x461BCD PUSH1 0xE5 SHL DUP2 MSTORE PUSH1 0x20 PUSH1 0x4 DUP3 ADD MSTORE PUSH1 0x1C PUSH1 0x24 DUP3 ADD MSTORE PUSH32 0x546F6B656E206973546F6B656E41646472657373206661696C65642100000000 PUSH1 0x44 DUP3 ADD MSTORE PUSH1 0x64 ADD PUSH2 0x5A2 JUMP JUMPDEST PUSH1 0x40 MLOAD PUSH1 0x1 PUSH1 0x1 PUSH1 0xA0 SHL SUB DUP6 DUP2 AND PUSH1 0x24 DUP4 ADD MSTORE DUP5 DUP2 AND PUSH1 0x44 DUP4 ADD MSTORE DUP4 AND PUSH1 0x64 DUP3 ADD MSTORE PUSH1 0x84 DUP2 ADD DUP3 SWAP1 MSTORE PUSH1 0x0 SWAP1 DUP2 SWAP1 DUP2 SWAP1 PUSH2 0x167 SWAP1 PUSH4 0xAED65F5 PUSH1 0xE1 SHL SWAP1 PUSH1 0xA4 ADD PUSH2 0x2FC JUMP JUMPDEST PUSH1 0x0 DUP1 PUSH1 0x0 PUSH2 0x7FD DUP5 PUSH2 0x118D JUMP JUMPDEST PUSH1 0x3 SIGNEXTEND SWAP2 POP PUSH1 0x7 SIGNEXTEND SWAP2 POP PUSH1 0x16 PUSH1 0x3 SIGNEXTEND DUP3 EQ PUSH2 0x516 JUMPI PUSH1 0x40 MLOAD PUSH3 0x461BCD PUSH1 0xE5 SHL DUP2 MSTORE PUSH1 0x20 PUSH1 0x4 DUP3 ADD MSTORE PUSH1 0x1C PUSH1 0x24 DUP3 ADD MSTORE PUSH32 0x546F6B656E20747970652061707072616973616C206661696C65642100000000 PUSH1 0x44 DUP3 ADD MSTORE PUSH1 0x64 ADD PUSH2 0x5A2 JUMP JUMPDEST PUSH1 0x0 DUP1 PUSH1 0x0 PUSH2 0x868 DUP5 PUSH2 0x126A JUMP JUMPDEST SWAP1 SWAP3 POP SWAP1 POP PUSH1 0x16 DUP3 EQ PUSH2 0x516 JUMPI PUSH1 0x40 MLOAD PUSH3 0x461BCD PUSH1 0xE5 SHL DUP2 MSTORE PUSH1 0x20 PUSH1 0x4 DUP3 ADD DUP2 SWAP1 MSTORE PUSH1 0x24 DUP3 ADD MSTORE PUSH32 0x676574546F6B656E44656661756C744B7963537461747573206661696C656421 PUSH1 0x44 DUP3 ADD MSTORE PUSH1 0x64 ADD PUSH2 0x5A2 JUMP JUMPDEST PUSH1 0x40 DUP1 MLOAD PUSH1 0xA0 DUP2 ADD DUP3 MSTORE PUSH1 0x0 DUP1 DUP3 MSTORE PUSH1 0x20 DUP1 DUP4 ADD DUP3 SWAP1 MSTORE PUSH1 0x60 DUP4 DUP6 ADD DUP2 SWAP1 MSTORE DUP1 DUP5 ADD MSTORE PUSH1 0x80 DUP4 ADD DUP3 SWAP1 MSTORE DUP4 MLOAD PUSH1 0x1 PUSH1 0x1 PUSH1 0xA0 SHL SUB DUP8 AND PUSH1 0x24 DUP3 ADD MSTORE PUSH1 0x44 DUP1 DUP3 ADD DUP8 SWAP1 MSTORE DUP6 MLOAD DUP1 DUP4 SUB SWAP1 SWAP2 ADD DUP2 MSTORE PUSH1 0x64 SWAP1 SWAP2 ADD DUP6 MSTORE SWAP1 DUP2 ADD DUP1 MLOAD PUSH1 0x1 PUSH1 0x1 PUSH1 0xE0 SHL SUB AND PUSH32 0x3C4DD32E00000000000000000000000000000000000000000000000000000000 OR SWAP1 MSTORE SWAP3 MLOAD SWAP1 SWAP3 DUP4 SWAP2 DUP3 SWAP2 PUSH2 0x167 SWAP2 PUSH2 0x959 SWAP2 SWAP1 PUSH2 0x2393 JUMP JUMPDEST PUSH1 0x0 PUSH1 0x40 MLOAD DUP1 DUP4 SUB DUP2 PUSH1 0x0 DUP7 GAS CALL SWAP2 POP POP RETURNDATASIZE DUP1 PUSH1 0x0 DUP2 EQ PUSH2 0x996 JUMPI PUSH1 0x40 MLOAD SWAP2 POP PUSH1 0x1F NOT PUSH1 0x3F RETURNDATASIZE ADD AND DUP3 ADD PUSH1 0x40 MSTORE RETURNDATASIZE DUP3 MSTORE RETURNDATASIZE PUSH1 0x0 PUSH1 0x20 DUP5 ADD RETURNDATACOPY PUSH2 0x99B JUMP JUMPDEST PUSH1 0x60 SWAP2 POP JUMPDEST POP SWAP2 POP SWAP2 POP PUSH2 0x9E6 PUSH1 0x40 MLOAD DUP1 PUSH1 0xA0 ADD PUSH1 0x40 MSTORE DUP1 PUSH1 0x0 ISZERO ISZERO DUP2 MSTORE PUSH1 0x20 ADD PUSH1 0x0 PUSH1 0x1 PUSH1 0x1 PUSH1 0xA0 SHL SUB AND DUP2 MSTORE PUSH1 0x20 ADD PUSH1 0x60 DUP2 MSTORE PUSH1 0x20 ADD PUSH1 0x60 DUP2 MSTORE PUSH1 0x20 ADD PUSH1 0x0 PUSH1 0x1 PUSH1 0x1 PUSH1 0xA0 SHL SUB AND DUP2 MSTORE POP SWAP1 JUMP JUMPDEST DUP3 PUSH2 0x9F3 JUMPI PUSH1 0x15 DUP2 PUSH2 0xA07 JUMP JUMPDEST DUP2 DUP1 PUSH1 0x20 ADD SWAP1 MLOAD DUP2 ADD SWAP1 PUSH2 0xA07 SWAP2 SWAP1 PUSH2 0x1DD8 JUMP JUMPDEST PUSH1 0x3 SWAP2 SWAP1 SWAP2 SIGNEXTEND SWAP9 SWAP1 SWAP8 POP SWAP6 POP POP POP POP POP POP JUMP JUMPDEST PUSH1 0x40 DUP1 MLOAD PUSH1 0x60 DUP2 ADD DUP3 MSTORE PUSH1 0x0 DUP1 DUP3 MSTORE PUSH1 0x20 DUP1 DUP4 ADD DUP3 SWAP1 MSTORE DUP3 DUP5 ADD DUP3 SWAP1 MSTORE DUP4 MLOAD PUSH1 0x1 PUSH1 0x1 PUSH1 0xA0 SHL SUB DUP7 AND PUSH1 0x24 DUP1 DUP4 ADD SWAP2 SWAP1 SWAP2 MSTORE DUP6 MLOAD DUP1 DUP4 SUB SWAP1 SWAP2 ADD DUP2 MSTORE PUSH1 0x44 SWAP1 SWAP2 ADD DUP6 MSTORE SWAP1 DUP2 ADD DUP1 MLOAD PUSH1 0x1 PUSH1 0x1 PUSH1 0xE0 SHL SUB AND PUSH32 0xD614CDB800000000000000000000000000000000000000000000000000000000 OR SWAP1 MSTORE SWAP3 MLOAD SWAP1 SWAP3 DUP4 SWAP2 DUP3 SWAP2 PUSH2 0x167 SWAP2 PUSH2 0xAA5 SWAP2 SWAP1 PUSH2 0x2393 JUMP JUMPDEST PUSH1 0x0 PUSH1 0x40 MLOAD DUP1 DUP4 SUB DUP2 PUSH1 0x0 DUP7 GAS CALL SWAP2 POP POP RETURNDATASIZE DUP1 PUSH1 0x0 DUP2 EQ PUSH2 0xAE2 JUMPI PUSH1 0x40 MLOAD SWAP2 POP PUSH1 0x1F NOT PUSH1 0x3F RETURNDATASIZE ADD AND DUP3 ADD PUSH1 0x40 MSTORE RETURNDATASIZE DUP3 MSTORE RETURNDATASIZE PUSH1 0x0 PUSH1 0x20 DUP5 ADD RETURNDATACOPY PUSH2 0xAE7 JUMP JUMPDEST PUSH1 0x60 SWAP2 POP JUMPDEST POP PUSH1 0x40 DUP1 MLOAD PUSH1 0x60 DUP2 ADD DUP3 MSTORE PUSH1 0x0 DUP1 DUP3 MSTORE PUSH1 0x20 DUP3 ADD DUP2 SWAP1 MSTORE SWAP2 DUP2 ADD SWAP2 SWAP1 SWAP2 MSTORE SWAP2 SWAP4 POP SWAP2 POP DUP3 PUSH2 0xB17 JUMPI PUSH1 0x15 DUP2 PUSH2 0xB2B JUMP JUMPDEST DUP2 DUP1 PUSH1 0x20 ADD SWAP1 MLOAD DUP2 ADD SWAP1 PUSH2 0xB2B SWAP2 SWAP1 PUSH2 0x1D0B JUMP JUMPDEST PUSH1 0x3 SWAP2 SWAP1 SWAP2 SIGNEXTEND SWAP8 SWAP1 SWAP7 POP SWAP5 POP POP POP POP POP JUMP JUMPDEST PUSH1 0x40 MLOAD PUSH1 0x1 PUSH1 0x1 PUSH1 0xA0 SHL SUB DUP3 AND PUSH1 0x24 DUP3 ADD MSTORE PUSH1 0x0 SWAP1 DUP2 SWAP1 DUP2 SWAP1 DUP2 SWAP1 PUSH2 0x167 SWAP1 PUSH32 0xA7DAA18D00000000000000000000000000000000000000000000000000000000 SWAP1 PUSH1 0x44 ADD JUMPDEST PUSH1 0x40 DUP1 MLOAD PUSH1 0x1F NOT DUP2 DUP5 SUB ADD DUP2 MSTORE SWAP2 DUP2 MSTORE PUSH1 0x20 DUP3 ADD DUP1 MLOAD PUSH1 0x1 PUSH1 0x1 PUSH1 0xE0 SHL SUB AND PUSH1 0x1 PUSH1 0x1 PUSH1 0xE0 SHL SUB NOT SWAP1 SWAP5 AND SWAP4 SWAP1 SWAP4 OR SWAP1 SWAP3 MSTORE SWAP1 MLOAD PUSH2 0xBC0 SWAP2 SWAP1 PUSH2 0x2393 JUMP JUMPDEST PUSH1 0x0 PUSH1 0x40 MLOAD DUP1 DUP4 SUB DUP2 PUSH1 0x0 DUP7 GAS CALL SWAP2 POP POP RETURNDATASIZE DUP1 PUSH1 0x0 DUP2 EQ PUSH2 0xBFD JUMPI PUSH1 0x40 MLOAD SWAP2 POP PUSH1 0x1F NOT PUSH1 0x3F RETURNDATASIZE ADD AND DUP3 ADD PUSH1 0x40 MSTORE RETURNDATASIZE DUP3 MSTORE RETURNDATASIZE PUSH1 0x0 PUSH1 0x20 DUP5 ADD RETURNDATACOPY PUSH2 0xC02 JUMP JUMPDEST PUSH1 0x60 SWAP2 POP JUMPDEST POP SWAP2 POP SWAP2 POP DUP2 PUSH2 0xC15 JUMPI PUSH1 0x15 PUSH1 0x0 PUSH2 0xC29 JUMP JUMPDEST DUP1 DUP1 PUSH1 0x20 ADD SWAP1 MLOAD DUP2 ADD SWAP1 PUSH2 0xC29 SWAP2 SWAP1 PUSH2 0x1CB0 JUMP JUMPDEST PUSH1 0x3 SWAP2 SWAP1 SWAP2 SIGNEXTEND SWAP7 SWAP1 SWAP6 POP SWAP4 POP POP POP POP JUMP JUMPDEST PUSH1 0x0 PUSH2 0xC44 PUSH2 0x12B3 JUMP JUMPDEST PUSH1 0x40 DUP1 MLOAD PUSH1 0x1 PUSH1 0x1 PUSH1 0xA0 SHL SUB DUP6 AND PUSH1 0x24 DUP1 DUP4 ADD SWAP2 SWAP1 SWAP2 MSTORE DUP3 MLOAD DUP1 DUP4 SUB SWAP1 SWAP2 ADD DUP2 MSTORE PUSH1 0x44 SWAP1 SWAP2 ADD DUP3 MSTORE PUSH1 0x20 DUP2 ADD DUP1 MLOAD PUSH1 0x1 PUSH1 0x1 PUSH1 0xE0 SHL SUB AND PUSH32 0x1F69565F00000000000000000000000000000000000000000000000000000000 OR SWAP1 MSTORE SWAP1 MLOAD PUSH1 0x0 SWAP2 DUP3 SWAP2 PUSH2 0x167 SWAP2 PUSH2 0xCB3 SWAP2 PUSH2 0x2393 JUMP JUMPDEST PUSH1 0x0 PUSH1 0x40 MLOAD DUP1 DUP4 SUB DUP2 PUSH1 0x0 DUP7 GAS CALL SWAP2 POP POP RETURNDATASIZE DUP1 PUSH1 0x0 DUP2 EQ PUSH2 0xCF0 JUMPI PUSH1 0x40 MLOAD SWAP2 POP PUSH1 0x1F NOT PUSH1 0x3F RETURNDATASIZE ADD AND DUP3 ADD PUSH1 0x40 MSTORE RETURNDATASIZE DUP3 MSTORE RETURNDATASIZE PUSH1 0x0 PUSH1 0x20 DUP5 ADD RETURNDATACOPY PUSH2 0xCF5 JUMP JUMPDEST PUSH1 0x60 SWAP2 POP JUMPDEST POP SWAP2 POP SWAP2 POP PUSH2 0xD02 PUSH2 0x12B3 JUMP JUMPDEST DUP3 PUSH2 0xD0F JUMPI PUSH1 0x15 DUP2 PUSH2 0xB2B JUMP JUMPDEST DUP2 DUP1 PUSH1 0x20 ADD SWAP1 MLOAD DUP2 ADD SWAP1 PUSH2 0xB2B SWAP2 SWAP1 PUSH2 0x1F07 JUMP JUMPDEST PUSH1 0x40 DUP1 MLOAD PUSH1 0x1 PUSH1 0x1 PUSH1 0xA0 SHL SUB DUP4 AND PUSH1 0x24 DUP1 DUP4 ADD SWAP2 SWAP1 SWAP2 MSTORE DUP3 MLOAD DUP1 DUP4 SUB SWAP1 SWAP2 ADD DUP2 MSTORE PUSH1 0x44 SWAP1 SWAP2 ADD DUP3 MSTORE PUSH1 0x20 DUP2 ADD DUP1 MLOAD PUSH1 0x1 PUSH1 0x1 PUSH1 0xE0 SHL SUB AND PUSH32 0xAE7611A000000000000000000000000000000000000000000000000000000000 OR SWAP1 MSTORE SWAP1 MLOAD PUSH1 0x0 SWAP2 PUSH1 0x60 SWAP2 DUP3 SWAP2 DUP3 SWAP2 DUP6 SWAP2 DUP3 SWAP2 PUSH2 0x167 SWAP2 PUSH2 0xD9B SWAP2 PUSH2 0x2393 JUMP JUMPDEST PUSH1 0x0 PUSH1 0x40 MLOAD DUP1 DUP4 SUB DUP2 PUSH1 0x0 DUP7 GAS CALL SWAP2 POP POP RETURNDATASIZE DUP1 PUSH1 0x0 DUP2 EQ PUSH2 0xDD8 JUMPI PUSH1 0x40 MLOAD SWAP2 POP PUSH1 0x1F NOT PUSH1 0x3F RETURNDATASIZE ADD AND DUP3 ADD PUSH1 0x40 MSTORE RETURNDATASIZE DUP3 MSTORE RETURNDATASIZE PUSH1 0x0 PUSH1 0x20 DUP5 ADD RETURNDATACOPY PUSH2 0xDDD JUMP JUMPDEST PUSH1 0x60 SWAP2 POP JUMPDEST POP SWAP2 POP SWAP2 POP PUSH1 0x60 DUP1 PUSH1 0x60 DUP5 PUSH2 0xDF6 JUMPI PUSH1 0x15 DUP4 DUP4 DUP4 PUSH2 0xE0A JUMP JUMPDEST DUP4 DUP1 PUSH1 0x20 ADD SWAP1 MLOAD DUP2 ADD SWAP1 PUSH2 0xE0A SWAP2 SWAP1 PUSH2 0x1C1B JUMP JUMPDEST PUSH1 0x3 SWAP4 SWAP1 SWAP4 SIGNEXTEND SWAP14 SWAP2 SWAP13 POP SWAP11 POP SWAP1 SWAP9 POP SWAP7 POP POP POP POP POP POP POP JUMP JUMPDEST PUSH1 0x40 MLOAD PUSH1 0x1 PUSH1 0x1 PUSH1 0xA0 SHL SUB DUP4 DUP2 AND PUSH1 0x24 DUP4 ADD MSTORE DUP3 AND PUSH1 0x44 DUP3 ADD MSTORE PUSH1 0x0 SWAP1 DUP2 SWAP1 DUP2 SWAP1 DUP2 SWAP1 PUSH2 0x167 SWAP1 PUSH32 0x46DE0FB100000000000000000000000000000000000000000000000000000000 SWAP1 PUSH1 0x64 ADD JUMPDEST PUSH1 0x40 DUP1 MLOAD PUSH1 0x1F NOT DUP2 DUP5 SUB ADD DUP2 MSTORE SWAP2 DUP2 MSTORE PUSH1 0x20 DUP3 ADD DUP1 MLOAD PUSH1 0x1 PUSH1 0x1 PUSH1 0xE0 SHL SUB AND PUSH1 0x1 PUSH1 0x1 PUSH1 0xE0 SHL SUB NOT SWAP1 SWAP5 AND SWAP4 SWAP1 SWAP4 OR SWAP1 SWAP3 MSTORE SWAP1 MLOAD PUSH2 0xEAE SWAP2 SWAP1 PUSH2 0x2393 JUMP JUMPDEST PUSH1 0x0 PUSH1 0x40 MLOAD DUP1 DUP4 SUB DUP2 PUSH1 0x0 DUP7 GAS CALL SWAP2 POP POP RETURNDATASIZE DUP1 PUSH1 0x0 DUP2 EQ PUSH2 0xEEB JUMPI PUSH1 0x40 MLOAD SWAP2 POP PUSH1 0x1F NOT PUSH1 0x3F RETURNDATASIZE ADD AND DUP3 ADD PUSH1 0x40 MSTORE RETURNDATASIZE DUP3 MSTORE RETURNDATASIZE PUSH1 0x0 PUSH1 0x20 DUP5 ADD RETURNDATACOPY PUSH2 0xEF0 JUMP JUMPDEST PUSH1 0x60 SWAP2 POP JUMPDEST POP SWAP2 POP SWAP2 POP DUP2 PUSH2 0xF03 JUMPI PUSH1 0x15 PUSH1 0x0 PUSH2 0xB2B JUMP JUMPDEST DUP1 DUP1 PUSH1 0x20 ADD SWAP1 MLOAD DUP2 ADD SWAP1 PUSH2 0xB2B SWAP2 SWAP1 PUSH2 0x1CB0 JUMP JUMPDEST PUSH1 0x0 PUSH2 0xF21 PUSH2 0x136A JUMP JUMPDEST PUSH1 0x40 DUP1 MLOAD PUSH1 0x1 PUSH1 0x1 PUSH1 0xA0 SHL SUB DUP6 AND PUSH1 0x24 DUP1 DUP4 ADD SWAP2 SWAP1 SWAP2 MSTORE DUP3 MLOAD DUP1 DUP4 SUB SWAP1 SWAP2 ADD DUP2 MSTORE PUSH1 0x44 SWAP1 SWAP2 ADD DUP3 MSTORE PUSH1 0x20 DUP2 ADD DUP1 MLOAD PUSH1 0x1 PUSH1 0x1 PUSH1 0xE0 SHL SUB AND PUSH32 0x3F28A19B00000000000000000000000000000000000000000000000000000000 OR SWAP1 MSTORE SWAP1 MLOAD PUSH1 0x0 SWAP2 DUP3 SWAP2 PUSH2 0x167 SWAP2 PUSH2 0xF90 SWAP2 PUSH2 0x2393 JUMP JUMPDEST PUSH1 0x0 PUSH1 0x40 MLOAD DUP1 DUP4 SUB DUP2 PUSH1 0x0 DUP7 GAS CALL SWAP2 POP POP RETURNDATASIZE DUP1 PUSH1 0x0 DUP2 EQ PUSH2 0xFCD JUMPI PUSH1 0x40 MLOAD SWAP2 POP PUSH1 0x1F NOT PUSH1 0x3F RETURNDATASIZE ADD AND DUP3 ADD PUSH1 0x40 MSTORE RETURNDATASIZE DUP3 MSTORE RETURNDATASIZE PUSH1 0x0 PUSH1 0x20 DUP5 ADD RETURNDATACOPY PUSH2 0xFD2 JUMP JUMPDEST PUSH1 0x60 SWAP2 POP JUMPDEST POP SWAP2 POP SWAP2 POP PUSH2 0xFDF PUSH2 0x136A JUMP JUMPDEST DUP3 PUSH2 0xFEC JUMPI PUSH1 0x15 DUP2 PUSH2 0xB2B JUMP JUMPDEST DUP2 DUP1 PUSH1 0x20 ADD SWAP1 MLOAD DUP2 ADD SWAP1 PUSH2 0xB2B SWAP2 SWAP1 PUSH2 0x1D35 JUMP JUMPDEST PUSH1 0x0 PUSH2 0x100A PUSH2 0x138A JUMP JUMPDEST PUSH1 0x40 DUP1 MLOAD PUSH1 0x1 PUSH1 0x1 PUSH1 0xA0 SHL SUB DUP7 AND PUSH1 0x24 DUP3 ADD MSTORE PUSH1 0x7 DUP6 SWAP1 SIGNEXTEND PUSH1 0x44 DUP1 DUP4 ADD SWAP2 SWAP1 SWAP2 MSTORE DUP3 MLOAD DUP1 DUP4 SUB SWAP1 SWAP2 ADD DUP2 MSTORE PUSH1 0x64 SWAP1 SWAP2 ADD DUP3 MSTORE PUSH1 0x20 DUP2 ADD DUP1 MLOAD PUSH1 0x1 PUSH1 0x1 PUSH1 0xE0 SHL SUB AND PUSH32 0x287E1DA800000000000000000000000000000000000000000000000000000000 OR SWAP1 MSTORE SWAP1 MLOAD PUSH1 0x0 SWAP2 DUP3 SWAP2 PUSH2 0x167 SWAP2 PUSH2 0x1083 SWAP2 PUSH2 0x2393 JUMP JUMPDEST PUSH1 0x0 PUSH1 0x40 MLOAD DUP1 DUP4 SUB DUP2 PUSH1 0x0 DUP7 GAS CALL SWAP2 POP POP RETURNDATASIZE DUP1 PUSH1 0x0 DUP2 EQ PUSH2 0x10C0 JUMPI PUSH1 0x40 MLOAD SWAP2 POP PUSH1 0x1F NOT PUSH1 0x3F RETURNDATASIZE ADD AND DUP3 ADD PUSH1 0x40 MSTORE RETURNDATASIZE DUP3 MSTORE RETURNDATASIZE PUSH1 0x0 PUSH1 0x20 DUP5 ADD RETURNDATACOPY PUSH2 0x10C5 JUMP JUMPDEST PUSH1 0x60 SWAP2 POP JUMPDEST POP SWAP2 POP SWAP2 POP PUSH2 0x10D2 PUSH2 0x138A JUMP JUMPDEST DUP3 PUSH2 0x10DF JUMPI PUSH1 0x15 DUP2 PUSH2 0xA07 JUMP JUMPDEST DUP2 DUP1 PUSH1 0x20 ADD SWAP1 MLOAD DUP2 ADD SWAP1 PUSH2 0xA07 SWAP2 SWAP1 PUSH2 0x1E24 JUMP JUMPDEST PUSH1 0x40 MLOAD PUSH1 0x1 PUSH1 0x1 PUSH1 0xA0 SHL SUB DUP4 DUP2 AND PUSH1 0x24 DUP4 ADD MSTORE DUP3 AND PUSH1 0x44 DUP3 ADD MSTORE PUSH1 0x0 SWAP1 DUP2 SWAP1 DUP2 SWAP1 DUP2 SWAP1 PUSH2 0x167 SWAP1 PUSH32 0xF2C31FF400000000000000000000000000000000000000000000000000000000 SWAP1 PUSH1 0x64 ADD PUSH2 0xE70 JUMP JUMPDEST PUSH1 0x40 MLOAD PUSH1 0x1 PUSH1 0x1 PUSH1 0xA0 SHL SUB DUP3 AND PUSH1 0x24 DUP3 ADD MSTORE PUSH1 0x0 SWAP1 DUP2 SWAP1 DUP2 SWAP1 DUP2 SWAP1 PUSH2 0x167 SWAP1 PUSH32 0x19F3736100000000000000000000000000000000000000000000000000000000 SWAP1 PUSH1 0x44 ADD PUSH2 0xB82 JUMP JUMPDEST PUSH1 0x40 DUP1 MLOAD PUSH1 0x1 PUSH1 0x1 PUSH1 0xA0 SHL SUB DUP4 AND PUSH1 0x24 DUP1 DUP4 ADD SWAP2 SWAP1 SWAP2 MSTORE DUP3 MLOAD DUP1 DUP4 SUB SWAP1 SWAP2 ADD DUP2 MSTORE PUSH1 0x44 SWAP1 SWAP2 ADD DUP3 MSTORE PUSH1 0x20 DUP2 ADD DUP1 MLOAD PUSH1 0x1 PUSH1 0x1 PUSH1 0xE0 SHL SUB AND PUSH32 0x93272BAF00000000000000000000000000000000000000000000000000000000 OR SWAP1 MSTORE SWAP1 MLOAD PUSH1 0x0 SWAP2 DUP3 SWAP2 DUP3 SWAP2 DUP3 SWAP2 PUSH2 0x167 SWAP2 PUSH2 0x1200 SWAP2 PUSH2 0x2393 JUMP JUMPDEST PUSH1 0x0 PUSH1 0x40 MLOAD DUP1 DUP4 SUB DUP2 PUSH1 0x0 DUP7 GAS CALL SWAP2 POP POP RETURNDATASIZE DUP1 PUSH1 0x0 DUP2 EQ PUSH2 0x123D JUMPI PUSH1 0x40 MLOAD SWAP2 POP PUSH1 0x1F NOT PUSH1 0x3F RETURNDATASIZE ADD AND DUP3 ADD PUSH1 0x40 MSTORE RETURNDATASIZE DUP3 MSTORE RETURNDATASIZE PUSH1 0x0 PUSH1 0x20 DUP5 ADD RETURNDATACOPY PUSH2 0x1242 JUMP JUMPDEST PUSH1 0x60 SWAP2 POP JUMPDEST POP SWAP2 POP SWAP2 POP DUP2 PUSH2 0x1256 JUMPI PUSH1 0x15 PUSH1 0x0 NOT PUSH2 0xC29 JUMP JUMPDEST DUP1 DUP1 PUSH1 0x20 ADD SWAP1 MLOAD DUP2 ADD SWAP1 PUSH2 0xC29 SWAP2 SWAP1 PUSH2 0x1CE2 JUMP JUMPDEST PUSH1 0x40 MLOAD PUSH1 0x1 PUSH1 0x1 PUSH1 0xA0 SHL SUB DUP3 AND PUSH1 0x24 DUP3 ADD MSTORE PUSH1 0x0 SWAP1 DUP2 SWAP1 DUP2 SWAP1 DUP2 SWAP1 PUSH2 0x167 SWAP1 PUSH32 0x335E04C100000000000000000000000000000000000000000000000000000000 SWAP1 PUSH1 0x44 ADD PUSH2 0xB82 JUMP JUMPDEST PUSH1 0x40 DUP1 MLOAD PUSH2 0x240 DUP2 ADD DUP3 MSTORE PUSH1 0x60 PUSH2 0x120 DUP3 ADD DUP2 DUP2 MSTORE PUSH2 0x140 DUP4 ADD DUP3 SWAP1 MSTORE PUSH1 0x0 PUSH2 0x160 DUP5 ADD DUP2 SWAP1 MSTORE PUSH2 0x180 DUP5 ADD DUP4 SWAP1 MSTORE PUSH2 0x1A0 DUP5 ADD DUP2 SWAP1 MSTORE PUSH2 0x1C0 DUP5 ADD DUP2 SWAP1 MSTORE PUSH2 0x1E0 DUP5 ADD DUP2 SWAP1 MSTORE PUSH2 0x200 DUP5 ADD DUP4 SWAP1 MSTORE DUP5 MLOAD SWAP3 DUP4 ADD DUP6 MSTORE DUP1 DUP4 MSTORE PUSH1 0x20 DUP4 ADD DUP2 SWAP1 MSTORE SWAP4 DUP3 ADD SWAP4 SWAP1 SWAP4 MSTORE PUSH2 0x220 DUP3 ADD MSTORE SWAP1 DUP2 SWAP1 DUP2 MSTORE PUSH1 0x20 ADD PUSH1 0x0 PUSH1 0x7 SIGNEXTEND DUP2 MSTORE PUSH1 0x20 ADD PUSH1 0x0 ISZERO ISZERO DUP2 MSTORE PUSH1 0x20 ADD PUSH1 0x0 ISZERO ISZERO DUP2 MSTORE PUSH1 0x20 ADD PUSH1 0x0 ISZERO ISZERO DUP2 MSTORE PUSH1 0x20 ADD PUSH1 0x60 DUP2 MSTORE PUSH1 0x20 ADD PUSH1 0x60 DUP2 MSTORE PUSH1 0x20 ADD PUSH1 0x60 DUP2 MSTORE PUSH1 0x20 ADD PUSH1 0x60 DUP2 MSTORE POP SWAP1 JUMP JUMPDEST PUSH1 0x40 MLOAD DUP1 PUSH1 0x40 ADD PUSH1 0x40 MSTORE DUP1 PUSH2 0x137D PUSH2 0x12B3 JUMP JUMPDEST DUP2 MSTORE PUSH1 0x0 PUSH1 0x20 SWAP1 SWAP2 ADD MSTORE SWAP1 JUMP JUMPDEST PUSH1 0x40 MLOAD DUP1 PUSH1 0xC0 ADD PUSH1 0x40 MSTORE DUP1 PUSH2 0x139D PUSH2 0x12B3 JUMP JUMPDEST DUP2 MSTORE PUSH1 0x0 PUSH1 0x20 DUP3 ADD DUP2 SWAP1 MSTORE PUSH1 0x40 DUP3 ADD DUP2 SWAP1 MSTORE PUSH1 0x60 DUP1 DUP4 ADD DUP3 SWAP1 MSTORE PUSH1 0x80 DUP4 ADD MSTORE PUSH1 0xA0 SWAP1 SWAP2 ADD MSTORE SWAP1 JUMP JUMPDEST DUP1 MLOAD PUSH2 0x13D0 DUP2 PUSH2 0x2642 JUMP JUMPDEST SWAP2 SWAP1 POP JUMP JUMPDEST PUSH1 0x0 DUP3 PUSH1 0x1F DUP4 ADD SLT PUSH2 0x13E5 JUMPI DUP1 DUP2 REVERT JUMPDEST DUP2 MLOAD PUSH1 0x20 PUSH2 0x13FA PUSH2 0x13F5 DUP4 PUSH2 0x25BF JUMP JUMPDEST PUSH2 0x258E JUMP JUMPDEST DUP3 DUP2 MSTORE DUP2 DUP2 ADD SWAP1 DUP6 DUP4 ADD PUSH1 0xA0 DUP1 DUP7 MUL DUP9 ADD DUP6 ADD DUP10 LT ISZERO PUSH2 0x1418 JUMPI DUP7 DUP8 REVERT JUMPDEST DUP7 JUMPDEST DUP7 DUP2 LT ISZERO PUSH2 0x149D JUMPI DUP2 DUP4 DUP12 SUB SLT ISZERO PUSH2 0x1430 JUMPI DUP8 DUP9 REVERT JUMPDEST PUSH2 0x1438 PUSH2 0x24FB JUMP JUMPDEST DUP4 MLOAD PUSH2 0x1443 DUP2 PUSH2 0x265A JUMP JUMPDEST DUP2 MSTORE DUP4 DUP8 ADD MLOAD PUSH2 0x1452 DUP2 PUSH2 0x2642 JUMP JUMPDEST DUP2 DUP9 ADD MSTORE PUSH1 0x40 PUSH2 0x1463 DUP6 DUP3 ADD PUSH2 0x1726 JUMP JUMPDEST SWAP1 DUP3 ADD MSTORE PUSH1 0x60 PUSH2 0x1474 DUP6 DUP3 ADD PUSH2 0x1726 JUMP JUMPDEST SWAP1 DUP3 ADD MSTORE PUSH1 0x80 DUP5 DUP2 ADD MLOAD PUSH2 0x1487 DUP2 PUSH2 0x2642 JUMP JUMPDEST SWAP1 DUP3 ADD MSTORE DUP6 MSTORE SWAP4 DUP6 ADD SWAP4 SWAP2 DUP2 ADD SWAP2 PUSH1 0x1 ADD PUSH2 0x141A JUMP JUMPDEST POP SWAP2 SWAP9 SWAP8 POP POP POP POP POP POP POP POP JUMP JUMPDEST PUSH1 0x0 DUP3 PUSH1 0x1F DUP4 ADD SLT PUSH2 0x14BB JUMPI DUP1 DUP2 REVERT JUMPDEST DUP2 MLOAD PUSH1 0x20 PUSH2 0x14CB PUSH2 0x13F5 DUP4 PUSH2 0x25BF JUMP JUMPDEST DUP3 DUP2 MSTORE DUP2 DUP2 ADD SWAP1 DUP6 DUP4 ADD PUSH1 0xC0 DUP1 DUP7 MUL DUP9 ADD DUP6 ADD DUP10 LT ISZERO PUSH2 0x14E9 JUMPI DUP7 DUP8 REVERT JUMPDEST DUP7 JUMPDEST DUP7 DUP2 LT ISZERO PUSH2 0x149D JUMPI DUP2 DUP4 DUP12 SUB SLT ISZERO PUSH2 0x1501 JUMPI DUP8 DUP9 REVERT JUMPDEST PUSH2 0x1509 PUSH2 0x2524 JUMP JUMPDEST DUP4 MLOAD PUSH2 0x1514 DUP2 PUSH2 0x265A JUMP JUMPDEST DUP2 MSTORE DUP4 DUP8 ADD MLOAD PUSH2 0x1523 DUP2 PUSH2 0x265A JUMP JUMPDEST DUP2 DUP9 ADD MSTORE PUSH1 0x40 DUP5 DUP2 ADD MLOAD PUSH2 0x1536 DUP2 PUSH2 0x265A JUMP JUMPDEST SWAP1 DUP3 ADD MSTORE PUSH1 0x60 DUP5 DUP2 ADD MLOAD PUSH2 0x1549 DUP2 PUSH2 0x265A JUMP JUMPDEST SWAP1 DUP3 ADD MSTORE PUSH1 0x80 PUSH2 0x155A DUP6 DUP3 ADD PUSH2 0x1726 JUMP JUMPDEST SWAP1 DUP3 ADD MSTORE PUSH1 0xA0 DUP5 DUP2 ADD MLOAD PUSH2 0x156D DUP2 PUSH2 0x2642 JUMP JUMPDEST SWAP1 DUP3 ADD MSTORE DUP6 MSTORE SWAP4 DUP6 ADD SWAP4 SWAP2 DUP2 ADD SWAP2 PUSH1 0x1 ADD PUSH2 0x14EB JUMP JUMPDEST PUSH1 0x0 DUP3 PUSH1 0x1F DUP4 ADD SLT PUSH2 0x1593 JUMPI DUP1 DUP2 REVERT JUMPDEST DUP2 MLOAD PUSH1 0x20 PUSH2 0x15A3 PUSH2 0x13F5 DUP4 PUSH2 0x25BF JUMP JUMPDEST DUP3 DUP2 MSTORE DUP2 DUP2 ADD SWAP1 DUP6 DUP4 ADD PUSH1 0xC0 DUP1 DUP7 MUL DUP9 ADD DUP6 ADD DUP10 LT ISZERO PUSH2 0x15C1 JUMPI DUP7 DUP8 REVERT JUMPDEST DUP7 JUMPDEST DUP7 DUP2 LT ISZERO PUSH2 0x149D JUMPI DUP2 DUP4 DUP12 SUB SLT ISZERO PUSH2 0x15D9 JUMPI DUP8 DUP9 REVERT JUMPDEST PUSH2 0x15E1 PUSH2 0x2524 JUMP JUMPDEST DUP4 MLOAD PUSH2 0x15EC DUP2 PUSH2 0x265A JUMP JUMPDEST DUP2 MSTORE DUP4 DUP8 ADD MLOAD PUSH2 0x15FB DUP2 PUSH2 0x265A JUMP JUMPDEST DUP2 DUP9 ADD MSTORE PUSH1 0x40 DUP5 DUP2 ADD MLOAD PUSH2 0x160E DUP2 PUSH2 0x265A JUMP JUMPDEST SWAP1 DUP3 ADD MSTORE PUSH1 0x60 DUP5 DUP2 ADD MLOAD PUSH2 0x1621 DUP2 PUSH2 0x2642 JUMP JUMPDEST SWAP1 DUP3 ADD MSTORE PUSH1 0x80 PUSH2 0x1632 DUP6 DUP3 ADD PUSH2 0x1726 JUMP JUMPDEST SWAP1 DUP3 ADD MSTORE PUSH1 0xA0 DUP5 DUP2 ADD MLOAD PUSH2 0x1645 DUP2 PUSH2 0x2642 JUMP JUMPDEST SWAP1 DUP3 ADD MSTORE DUP6 MSTORE SWAP4 DUP6 ADD SWAP4 SWAP2 DUP2 ADD SWAP2 PUSH1 0x1 ADD PUSH2 0x15C3 JUMP JUMPDEST PUSH1 0x0 DUP3 PUSH1 0x1F DUP4 ADD SLT PUSH2 0x166B JUMPI DUP1 DUP2 REVERT JUMPDEST DUP2 MLOAD PUSH1 0x20 PUSH2 0x167B PUSH2 0x13F5 DUP4 PUSH2 0x25BF JUMP JUMPDEST DUP1 DUP4 DUP3 MSTORE DUP3 DUP3 ADD SWAP2 POP DUP3 DUP7 ADD DUP8 DUP5 DUP7 PUSH1 0x5 SHL DUP10 ADD ADD GT ISZERO PUSH2 0x169A JUMPI DUP6 DUP7 REVERT JUMPDEST DUP6 JUMPDEST DUP6 DUP2 LT ISZERO PUSH2 0x1719 JUMPI DUP2 MLOAD PUSH8 0xFFFFFFFFFFFFFFFF DUP1 DUP3 GT ISZERO PUSH2 0x16BB JUMPI DUP9 DUP10 REVERT JUMPDEST SWAP1 DUP10 ADD SWAP1 PUSH1 0x40 DUP3 DUP13 SUB PUSH1 0x1F NOT ADD DUP2 SGT ISZERO PUSH2 0x16D3 JUMPI DUP10 DUP11 REVERT JUMPDEST PUSH2 0x16DB PUSH2 0x2547 JUMP JUMPDEST DUP4 DUP10 ADD MLOAD DUP2 MSTORE SWAP1 DUP4 ADD MLOAD SWAP1 DUP3 DUP3 GT ISZERO PUSH2 0x16F2 JUMPI DUP11 DUP12 REVERT JUMPDEST PUSH2 0x1700 DUP14 DUP11 DUP5 DUP8 ADD ADD PUSH2 0x193C JUMP JUMPDEST DUP2 DUP11 ADD MSTORE DUP8 MSTORE POP POP POP SWAP3 DUP5 ADD SWAP3 SWAP1 DUP5 ADD SWAP1 PUSH1 0x1 ADD PUSH2 0x169C JUMP JUMPDEST POP SWAP1 SWAP8 SWAP7 POP POP POP POP POP POP POP JUMP JUMPDEST DUP1 MLOAD DUP1 ISZERO ISZERO DUP2 EQ PUSH2 0x13D0 JUMPI PUSH1 0x0 DUP1 REVERT JUMPDEST PUSH1 0x0 DUP3 PUSH1 0x1F DUP4 ADD SLT PUSH2 0x1746 JUMPI DUP1 DUP2 REVERT JUMPDEST DUP2 MLOAD PUSH8 0xFFFFFFFFFFFFFFFF DUP2 GT ISZERO PUSH2 0x1760 JUMPI PUSH2 0x1760 PUSH2 0x2613 JUMP JUMPDEST PUSH2 0x1773 PUSH1 0x1F DUP3 ADD PUSH1 0x1F NOT AND PUSH1 0x20 ADD PUSH2 0x258E JUMP JUMPDEST DUP2 DUP2 MSTORE DUP5 PUSH1 0x20 DUP4 DUP7 ADD ADD GT ISZERO PUSH2 0x1787 JUMPI DUP3 DUP4 REVERT JUMPDEST PUSH2 0x4D3 DUP3 PUSH1 0x20 DUP4 ADD PUSH1 0x20 DUP8 ADD PUSH2 0x25E3 JUMP JUMPDEST DUP1 MLOAD PUSH1 0x3 DUP2 SWAP1 SIGNEXTEND DUP2 EQ PUSH2 0x13D0 JUMPI PUSH1 0x0 DUP1 REVERT JUMPDEST DUP1 MLOAD PUSH2 0x13D0 DUP2 PUSH2 0x265A JUMP JUMPDEST PUSH1 0x0 PUSH1 0x60 DUP3 DUP5 SUB SLT ISZERO PUSH2 0x17C6 JUMPI DUP1 DUP2 REVERT JUMPDEST PUSH1 0x40 MLOAD PUSH1 0x60 DUP2 ADD DUP2 DUP2 LT PUSH8 0xFFFFFFFFFFFFFFFF DUP3 GT OR ISZERO PUSH2 0x17E9 JUMPI PUSH2 0x17E9 PUSH2 0x2613 JUMP JUMPDEST DUP1 PUSH1 0x40 MSTORE POP DUP1 SWAP2 POP DUP3 MLOAD PUSH2 0x17FC DUP2 PUSH2 0x265A JUMP JUMPDEST DUP2 MSTORE PUSH1 0x20 DUP4 ADD MLOAD PUSH2 0x180C DUP2 PUSH2 0x2642 JUMP JUMPDEST PUSH1 0x20 DUP3 ADD MSTORE PUSH1 0x40 DUP4 ADD MLOAD PUSH2 0x181F DUP2 PUSH2 0x265A JUMP JUMPDEST PUSH1 0x40 SWAP2 SWAP1 SWAP2 ADD MSTORE SWAP3 SWAP2 POP POP JUMP JUMPDEST PUSH1 0x0 PUSH2 0x160 DUP3 DUP5 SUB SLT ISZERO PUSH2 0x183E JUMPI DUP1 DUP2 REVERT JUMPDEST PUSH2 0x1846 PUSH2 0x256A JUMP JUMPDEST SWAP1 POP DUP2 MLOAD PUSH8 0xFFFFFFFFFFFFFFFF DUP1 DUP3 GT ISZERO PUSH2 0x1860 JUMPI PUSH1 0x0 DUP1 REVERT JUMPDEST PUSH2 0x186C DUP6 DUP4 DUP7 ADD PUSH2 0x1736 JUMP JUMPDEST DUP4 MSTORE PUSH1 0x20 DUP5 ADD MLOAD SWAP2 POP DUP1 DUP3 GT ISZERO PUSH2 0x1882 JUMPI PUSH1 0x0 DUP1 REVERT JUMPDEST PUSH2 0x188E DUP6 DUP4 DUP7 ADD PUSH2 0x1736 JUMP JUMPDEST PUSH1 0x20 DUP5 ADD MSTORE PUSH2 0x189F PUSH1 0x40 DUP6 ADD PUSH2 0x13C5 JUMP JUMPDEST PUSH1 0x40 DUP5 ADD MSTORE PUSH1 0x60 DUP5 ADD MLOAD SWAP2 POP DUP1 DUP3 GT ISZERO PUSH2 0x18B8 JUMPI PUSH1 0x0 DUP1 REVERT JUMPDEST PUSH2 0x18C4 DUP6 DUP4 DUP7 ADD PUSH2 0x1736 JUMP JUMPDEST PUSH1 0x60 DUP5 ADD MSTORE PUSH2 0x18D5 PUSH1 0x80 DUP6 ADD PUSH2 0x1726 JUMP JUMPDEST PUSH1 0x80 DUP5 ADD MSTORE PUSH2 0x18E6 PUSH1 0xA0 DUP6 ADD PUSH2 0x17AA JUMP JUMPDEST PUSH1 0xA0 DUP5 ADD MSTORE PUSH2 0x18F7 PUSH1 0xC0 DUP6 ADD PUSH2 0x1726 JUMP JUMPDEST PUSH1 0xC0 DUP5 ADD MSTORE PUSH1 0xE0 DUP5 ADD MLOAD SWAP2 POP DUP1 DUP3 GT ISZERO PUSH2 0x1910 JUMPI PUSH1 0x0 DUP1 REVERT JUMPDEST POP PUSH2 0x191D DUP5 DUP3 DUP6 ADD PUSH2 0x165B JUMP JUMPDEST PUSH1 0xE0 DUP4 ADD MSTORE POP PUSH2 0x100 PUSH2 0x1932 DUP5 DUP3 DUP6 ADD PUSH2 0x17B5 JUMP JUMPDEST SWAP1 DUP3 ADD MSTORE SWAP3 SWAP2 POP POP JUMP JUMPDEST PUSH1 0x0 PUSH1 0xA0 DUP3 DUP5 SUB SLT ISZERO PUSH2 0x194D JUMPI DUP1 DUP2 REVERT JUMPDEST PUSH2 0x1955 PUSH2 0x24FB JUMP JUMPDEST SWAP1 POP PUSH2 0x1960 DUP3 PUSH2 0x1726 JUMP JUMPDEST DUP2 MSTORE PUSH1 0x20 DUP3 ADD MLOAD PUSH2 0x1970 DUP2 PUSH2 0x2642 JUMP JUMPDEST PUSH1 0x20 DUP3 ADD MSTORE PUSH1 0x40 DUP3 ADD MLOAD PUSH8 0xFFFFFFFFFFFFFFFF DUP1 DUP3 GT ISZERO PUSH2 0x1990 JUMPI PUSH1 0x0 DUP1 REVERT JUMPDEST PUSH2 0x199C DUP6 DUP4 DUP7 ADD PUSH2 0x1736 JUMP JUMPDEST PUSH1 0x40 DUP5 ADD MSTORE PUSH1 0x60 DUP5 ADD MLOAD SWAP2 POP DUP1 DUP3 GT ISZERO PUSH2 0x19B5 JUMPI PUSH1 0x0 DUP1 REVERT JUMPDEST POP PUSH2 0x19C2 DUP5 DUP3 DUP6 ADD PUSH2 0x1736 JUMP JUMPDEST PUSH1 0x60 DUP4 ADD MSTORE POP PUSH1 0x80 DUP3 ADD MLOAD PUSH2 0x19D6 DUP2 PUSH2 0x2642 JUMP JUMPDEST PUSH1 0x80 DUP3 ADD MSTORE SWAP3 SWAP2 POP POP JUMP JUMPDEST PUSH1 0x0 PUSH2 0x120 DUP3 DUP5 SUB SLT ISZERO PUSH2 0x19F3 JUMPI DUP1 DUP2 REVERT JUMPDEST PUSH2 0x19FB PUSH2 0x256A JUMP JUMPDEST SWAP1 POP DUP2 MLOAD PUSH8 0xFFFFFFFFFFFFFFFF DUP1 DUP3 GT ISZERO PUSH2 0x1A15 JUMPI PUSH1 0x0 DUP1 REVERT JUMPDEST PUSH2 0x1A21 DUP6 DUP4 DUP7 ADD PUSH2 0x182C JUMP JUMPDEST DUP4 MSTORE PUSH2 0x1A2F PUSH1 0x20 DUP6 ADD PUSH2 0x17AA JUMP JUMPDEST PUSH1 0x20 DUP5 ADD MSTORE PUSH2 0x1A40 PUSH1 0x40 DUP6 ADD PUSH2 0x1726 JUMP JUMPDEST PUSH1 0x40 DUP5 ADD MSTORE PUSH2 0x1A51 PUSH1 0x60 DUP6 ADD PUSH2 0x1726 JUMP JUMPDEST PUSH1 0x60 DUP5 ADD MSTORE PUSH2 0x1A62 PUSH1 0x80 DUP6 ADD PUSH2 0x1726 JUMP JUMPDEST PUSH1 0x80 DUP5 ADD MSTORE PUSH1 0xA0 DUP5 ADD MLOAD SWAP2 POP DUP1 DUP3 GT ISZERO PUSH2 0x1A7B JUMPI PUSH1 0x0 DUP1 REVERT JUMPDEST PUSH2 0x1A87 DUP6 DUP4 DUP7 ADD PUSH2 0x13D5 JUMP JUMPDEST PUSH1 0xA0 DUP5 ADD MSTORE PUSH1 0xC0 DUP5 ADD MLOAD SWAP2 POP DUP1 DUP3 GT ISZERO PUSH2 0x1AA0 JUMPI PUSH1 0x0 DUP1 REVERT JUMPDEST PUSH2 0x1AAC DUP6 DUP4 DUP7 ADD PUSH2 0x14AB JUMP JUMPDEST PUSH1 0xC0 DUP5 ADD MSTORE PUSH1 0xE0 DUP5 ADD MLOAD SWAP2 POP DUP1 DUP3 GT ISZERO PUSH2 0x1AC5 JUMPI PUSH1 0x0 DUP1 REVERT JUMPDEST PUSH2 0x1AD1 DUP6 DUP4 DUP7 ADD PUSH2 0x1583 JUMP JUMPDEST PUSH1 0xE0 DUP5 ADD MSTORE PUSH2 0x100 SWAP2 POP DUP2 DUP5 ADD MLOAD DUP2 DUP2 GT ISZERO PUSH2 0x1AEC JUMPI PUSH1 0x0 DUP1 REVERT JUMPDEST PUSH2 0x1AF8 DUP7 DUP3 DUP8 ADD PUSH2 0x1736 JUMP JUMPDEST DUP4 DUP6 ADD MSTORE POP POP POP SWAP3 SWAP2 POP POP JUMP JUMPDEST PUSH1 0x0 PUSH1 0x20 DUP3 DUP5 SUB SLT ISZERO PUSH2 0x1B16 JUMPI DUP1 DUP2 REVERT JUMPDEST DUP2 CALLDATALOAD PUSH2 0x516 DUP2 PUSH2 0x2642 JUMP JUMPDEST PUSH1 0x0 DUP1 PUSH1 0x40 DUP4 DUP6 SUB SLT ISZERO PUSH2 0x1B33 JUMPI DUP1 DUP2 REVERT JUMPDEST DUP3 CALLDATALOAD PUSH2 0x1B3E DUP2 PUSH2 0x2642 JUMP JUMPDEST SWAP2 POP PUSH1 0x20 DUP4 ADD CALLDATALOAD PUSH2 0x1B4E DUP2 PUSH2 0x2642 JUMP JUMPDEST DUP1 SWAP2 POP POP SWAP3 POP SWAP3 SWAP1 POP JUMP JUMPDEST PUSH1 0x0 DUP1 PUSH1 0x0 DUP1 PUSH1 0x80 DUP6 DUP8 SUB SLT ISZERO PUSH2 0x1B6E JUMPI DUP2 DUP3 REVERT JUMPDEST DUP5 CALLDATALOAD PUSH2 0x1B79 DUP2 PUSH2 0x2642 JUMP JUMPDEST SWAP4 POP PUSH1 0x20 DUP6 ADD CALLDATALOAD PUSH2 0x1B89 DUP2 PUSH2 0x2642 JUMP JUMPDEST SWAP3 POP PUSH1 0x40 DUP6 ADD CALLDATALOAD PUSH2 0x1B99 DUP2 PUSH2 0x2642 JUMP JUMPDEST SWAP4 SWAP7 SWAP3 SWAP6 POP SWAP3 SWAP4 PUSH1 0x60 ADD CALLDATALOAD SWAP3 POP POP JUMP JUMPDEST PUSH1 0x0 DUP1 PUSH1 0x40 DUP4 DUP6 SUB SLT ISZERO PUSH2 0x1BBB JUMPI DUP2 DUP3 REVERT JUMPDEST DUP3 CALLDATALOAD PUSH2 0x1BC6 DUP2 PUSH2 0x2642 JUMP JUMPDEST SWAP2 POP PUSH1 0x20 DUP4 ADD CALLDATALOAD PUSH2 0x1B4E DUP2 PUSH2 0x265A JUMP JUMPDEST PUSH1 0x0 DUP1 PUSH1 0x40 DUP4 DUP6 SUB SLT ISZERO PUSH2 0x1BE8 JUMPI DUP2 DUP3 REVERT JUMPDEST DUP3 CALLDATALOAD PUSH2 0x1BF3 DUP2 PUSH2 0x2642 JUMP JUMPDEST SWAP5 PUSH1 0x20 SWAP4 SWAP1 SWAP4 ADD CALLDATALOAD SWAP4 POP POP POP JUMP JUMPDEST PUSH1 0x0 PUSH1 0x20 DUP3 DUP5 SUB SLT ISZERO PUSH2 0x1C12 JUMPI DUP1 DUP2 REVERT JUMPDEST PUSH2 0x516 DUP3 PUSH2 0x1798 JUMP JUMPDEST PUSH1 0x0 DUP1 PUSH1 0x0 DUP1 PUSH1 0x80 DUP6 DUP8 SUB SLT ISZERO PUSH2 0x1C30 JUMPI DUP2 DUP3 REVERT JUMPDEST PUSH2 0x1C39 DUP6 PUSH2 0x1798 JUMP JUMPDEST SWAP4 POP PUSH1 0x20 DUP6 ADD MLOAD PUSH8 0xFFFFFFFFFFFFFFFF DUP1 DUP3 GT ISZERO PUSH2 0x1C55 JUMPI DUP4 DUP5 REVERT JUMPDEST PUSH2 0x1C61 DUP9 DUP4 DUP10 ADD PUSH2 0x13D5 JUMP JUMPDEST SWAP5 POP PUSH1 0x40 DUP8 ADD MLOAD SWAP2 POP DUP1 DUP3 GT ISZERO PUSH2 0x1C76 JUMPI DUP4 DUP5 REVERT JUMPDEST PUSH2 0x1C82 DUP9 DUP4 DUP10 ADD PUSH2 0x14AB JUMP JUMPDEST SWAP4 POP PUSH1 0x60 DUP8 ADD MLOAD SWAP2 POP DUP1 DUP3 GT ISZERO PUSH2 0x1C97 JUMPI DUP3 DUP4 REVERT JUMPDEST POP PUSH2 0x1CA4 DUP8 DUP3 DUP9 ADD PUSH2 0x1583 JUMP JUMPDEST SWAP2 POP POP SWAP3 SWAP6 SWAP2 SWAP5 POP SWAP3 POP JUMP JUMPDEST PUSH1 0x0 DUP1 PUSH1 0x40 DUP4 DUP6 SUB SLT ISZERO PUSH2 0x1CC2 JUMPI DUP2 DUP3 REVERT JUMPDEST PUSH2 0x1CCB DUP4 PUSH2 0x1798 JUMP JUMPDEST SWAP2 POP PUSH2 0x1CD9 PUSH1 0x20 DUP5 ADD PUSH2 0x1726 JUMP JUMPDEST SWAP1 POP SWAP3 POP SWAP3 SWAP1 POP JUMP JUMPDEST PUSH1 0x0 DUP1 PUSH1 0x40 DUP4 DUP6 SUB SLT ISZERO PUSH2 0x1CF4 JUMPI DUP2 DUP3 REVERT JUMPDEST PUSH2 0x1CFD DUP4 PUSH2 0x1798 JUMP JUMPDEST SWAP2 POP PUSH2 0x1CD9 PUSH1 0x20 DUP5 ADD PUSH2 0x1798 JUMP JUMPDEST PUSH1 0x0 DUP1 PUSH1 0x80 DUP4 DUP6 SUB SLT ISZERO PUSH2 0x1D1D JUMPI DUP2 DUP3 REVERT JUMPDEST PUSH2 0x1D26 DUP4 PUSH2 0x1798 JUMP JUMPDEST SWAP2 POP PUSH2 0x1CD9 DUP5 PUSH1 0x20 DUP6 ADD PUSH2 0x17B5 JUMP JUMPDEST PUSH1 0x0 DUP1 PUSH1 0x40 DUP4 DUP6 SUB SLT ISZERO PUSH2 0x1D47 JUMPI DUP2 DUP3 REVERT JUMPDEST PUSH2 0x1D50 DUP4 PUSH2 0x1798 JUMP JUMPDEST SWAP2 POP PUSH1 0x20 DUP4 ADD MLOAD PUSH8 0xFFFFFFFFFFFFFFFF DUP1 DUP3 GT ISZERO PUSH2 0x1D6C JUMPI DUP3 DUP4 REVERT JUMPDEST SWAP1 DUP5 ADD SWAP1 PUSH1 0x40 DUP3 DUP8 SUB SLT ISZERO PUSH2 0x1D7F JUMPI DUP3 DUP4 REVERT JUMPDEST PUSH1 0x40 MLOAD PUSH1 0x40 DUP2 ADD DUP2 DUP2 LT DUP4 DUP3 GT OR ISZERO PUSH2 0x1D9A JUMPI PUSH2 0x1D9A PUSH2 0x2613 JUMP JUMPDEST PUSH1 0x40 MSTORE DUP3 MLOAD DUP3 DUP2 GT ISZERO PUSH2 0x1DAB JUMPI DUP5 DUP6 REVERT JUMPDEST PUSH2 0x1DB7 DUP9 DUP3 DUP7 ADD PUSH2 0x19E1 JUMP JUMPDEST DUP3 MSTORE POP PUSH2 0x1DC6 PUSH1 0x20 DUP5 ADD PUSH2 0x1798 JUMP JUMPDEST PUSH1 0x20 DUP3 ADD MSTORE DUP1 SWAP4 POP POP POP POP SWAP3 POP SWAP3 SWAP1 POP JUMP JUMPDEST PUSH1 0x0 DUP1 PUSH1 0x40 DUP4 DUP6 SUB SLT ISZERO PUSH2 0x1DEA JUMPI DUP2 DUP3 REVERT JUMPDEST PUSH2 0x1DF3 DUP4 PUSH2 0x1798 JUMP JUMPDEST SWAP2 POP PUSH1 0x20 DUP4 ADD MLOAD PUSH8 0xFFFFFFFFFFFFFFFF DUP2 GT ISZERO PUSH2 0x1E0E JUMPI DUP2 DUP3 REVERT JUMPDEST PUSH2 0x1E1A DUP6 DUP3 DUP7 ADD PUSH2 0x193C JUMP JUMPDEST SWAP2 POP POP SWAP3 POP SWAP3 SWAP1 POP JUMP JUMPDEST PUSH1 0x0 DUP1 PUSH1 0x40 DUP4 DUP6 SUB SLT ISZERO PUSH2 0x1E36 JUMPI DUP2 DUP3 REVERT JUMPDEST PUSH2 0x1E3F DUP4 PUSH2 0x1798 JUMP JUMPDEST SWAP2 POP PUSH1 0x20 DUP4 ADD MLOAD PUSH8 0xFFFFFFFFFFFFFFFF DUP1 DUP3 GT ISZERO PUSH2 0x1E5B JUMPI DUP3 DUP4 REVERT JUMPDEST SWAP1 DUP5 ADD SWAP1 PUSH1 0xC0 DUP3 DUP8 SUB SLT ISZERO PUSH2 0x1E6E JUMPI DUP3 DUP4 REVERT JUMPDEST PUSH2 0x1E76 PUSH2 0x2524 JUMP JUMPDEST DUP3 MLOAD DUP3 DUP2 GT ISZERO PUSH2 0x1E84 JUMPI DUP5 DUP6 REVERT JUMPDEST PUSH2 0x1E90 DUP9 DUP3 DUP7 ADD PUSH2 0x19E1 JUMP JUMPDEST DUP3 MSTORE POP PUSH2 0x1E9F PUSH1 0x20 DUP5 ADD PUSH2 0x17AA JUMP JUMPDEST PUSH1 0x20 DUP3 ADD MSTORE PUSH2 0x1EB0 PUSH1 0x40 DUP5 ADD PUSH2 0x13C5 JUMP JUMPDEST PUSH1 0x40 DUP3 ADD MSTORE PUSH2 0x1EC1 PUSH1 0x60 DUP5 ADD PUSH2 0x17AA JUMP JUMPDEST PUSH1 0x60 DUP3 ADD MSTORE PUSH1 0x80 DUP4 ADD MLOAD DUP3 DUP2 GT ISZERO PUSH2 0x1ED7 JUMPI DUP5 DUP6 REVERT JUMPDEST PUSH2 0x1EE3 DUP9 DUP3 DUP7 ADD PUSH2 0x1736 JUMP JUMPDEST PUSH1 0x80 DUP4 ADD MSTORE POP PUSH2 0x1EF5 PUSH1 0xA0 DUP5 ADD PUSH2 0x13C5 JUMP JUMPDEST PUSH1 0xA0 DUP3 ADD MSTORE DUP1 SWAP4 POP POP POP POP SWAP3 POP SWAP3 SWAP1 POP JUMP JUMPDEST PUSH1 0x0 DUP1 PUSH1 0x40 DUP4 DUP6 SUB SLT ISZERO PUSH2 0x1F19 JUMPI DUP2 DUP3 REVERT JUMPDEST PUSH2 0x1F22 DUP4 PUSH2 0x1798 JUMP JUMPDEST SWAP2 POP PUSH1 0x20 DUP4 ADD MLOAD PUSH8 0xFFFFFFFFFFFFFFFF DUP2 GT ISZERO PUSH2 0x1F3D JUMPI DUP2 DUP3 REVERT JUMPDEST PUSH2 0x1E1A DUP6 DUP3 DUP7 ADD PUSH2 0x19E1 JUMP JUMPDEST PUSH1 0x0 DUP2 MLOAD DUP1 DUP5 MSTORE PUSH1 0x20 DUP1 DUP6 ADD SWAP5 POP DUP1 DUP5 ADD DUP4 JUMPDEST DUP4 DUP2 LT ISZERO PUSH2 0x1FB5 JUMPI DUP2 MLOAD DUP1 MLOAD PUSH1 0x7 SIGNEXTEND DUP9 MSTORE DUP4 DUP2 ADD MLOAD PUSH1 0x1 PUSH1 0x1 PUSH1 0xA0 SHL SUB SWAP1 DUP2 AND DUP6 DUP11 ADD MSTORE PUSH1 0x40 DUP1 DUP4 ADD MLOAD ISZERO ISZERO SWAP1 DUP11 ADD MSTORE PUSH1 0x60 DUP1 DUP4 ADD MLOAD ISZERO ISZERO SWAP1 DUP11 ADD MSTORE PUSH1 0x80 SWAP2 DUP3 ADD MLOAD AND SWAP1 DUP9 ADD MSTORE PUSH1 0xA0 SWAP1 SWAP7 ADD SWAP6 SWAP1 DUP3 ADD SWAP1 PUSH1 0x1 ADD PUSH2 0x1F5C JUMP JUMPDEST POP SWAP5 SWAP6 SWAP5 POP POP POP POP POP JUMP JUMPDEST PUSH1 0x0 DUP2 MLOAD DUP1 DUP5 MSTORE PUSH1 0x20 DUP1 DUP6 ADD SWAP5 POP DUP1 DUP5 ADD DUP4 JUMPDEST DUP4 DUP2 LT ISZERO PUSH2 0x1FB5 JUMPI DUP2 MLOAD DUP1 MLOAD PUSH1 0x7 SWAP1 DUP2 SIGNEXTEND DUP10 MSTORE DUP5 DUP3 ADD MLOAD DUP2 SIGNEXTEND DUP6 DUP11 ADD MSTORE PUSH1 0x40 DUP1 DUP4 ADD MLOAD DUP3 SIGNEXTEND SWAP1 DUP11 ADD MSTORE PUSH1 0x60 DUP1 DUP4 ADD MLOAD SWAP1 SWAP2 SIGNEXTEND SWAP1 DUP10 ADD MSTORE PUSH1 0x80 DUP1 DUP3 ADD MLOAD ISZERO ISZERO SWAP1 DUP10 ADD MSTORE PUSH1 0xA0 SWAP1 DUP2 ADD MLOAD PUSH1 0x1 PUSH1 0x1 PUSH1 0xA0 SHL SUB AND SWAP1 DUP9 ADD MSTORE PUSH1 0xC0 SWAP1 SWAP7 ADD SWAP6 SWAP1 DUP3 ADD SWAP1 PUSH1 0x1 ADD PUSH2 0x1FD3 JUMP JUMPDEST PUSH1 0x0 DUP2 MLOAD DUP1 DUP5 MSTORE PUSH1 0x20 DUP1 DUP6 ADD SWAP5 POP DUP1 DUP5 ADD DUP4 JUMPDEST DUP4 DUP2 LT ISZERO PUSH2 0x1FB5 JUMPI DUP2 MLOAD DUP1 MLOAD PUSH1 0x7 SWAP1 DUP2 SIGNEXTEND DUP10 MSTORE DUP5 DUP3 ADD MLOAD DUP2 SIGNEXTEND DUP6 DUP11 ADD MSTORE PUSH1 0x40 DUP1 DUP4 ADD MLOAD SWAP1 SWAP2 SIGNEXTEND SWAP1 DUP10 ADD MSTORE PUSH1 0x60 DUP1 DUP3 ADD MLOAD PUSH1 0x1 PUSH1 0x1 PUSH1 0xA0 SHL SUB SWAP1 DUP2 AND SWAP2 DUP11 ADD SWAP2 SWAP1 SWAP2 MSTORE PUSH1 0x80 DUP1 DUP4 ADD MLOAD ISZERO ISZERO SWAP1 DUP11 ADD MSTORE PUSH1 0xA0 SWAP2 DUP3 ADD MLOAD AND SWAP1 DUP9 ADD MSTORE PUSH1 0xC0 SWAP1 SWAP7 ADD SWAP6 SWAP1 DUP3 ADD SWAP1 PUSH1 0x1 ADD PUSH2 0x204D JUMP JUMPDEST PUSH1 0x0 DUP2 MLOAD DUP1 DUP5 MSTORE PUSH1 0x20 DUP1 DUP6 ADD DUP1 DUP2 SWAP7 POP DUP4 PUSH1 0x5 SHL DUP2 ADD SWAP2 POP DUP3 DUP7 ADD DUP6 JUMPDEST DUP6 DUP2 LT ISZERO PUSH2 0x2113 JUMPI DUP3 DUP5 SUB DUP10 MSTORE DUP2 MLOAD DUP1 MLOAD DUP6 MSTORE DUP6 ADD MLOAD PUSH1 0x40 DUP7 DUP7 ADD DUP2 SWAP1 MSTORE PUSH2 0x20FF DUP2 DUP8 ADD DUP4 PUSH2 0x224E JUMP JUMPDEST SWAP11 DUP8 ADD SWAP11 SWAP6 POP POP POP SWAP1 DUP5 ADD SWAP1 PUSH1 0x1 ADD PUSH2 0x20D5 JUMP JUMPDEST POP SWAP2 SWAP8 SWAP7 POP POP POP POP POP POP POP JUMP JUMPDEST PUSH1 0x0 DUP2 MLOAD DUP1 DUP5 MSTORE PUSH2 0x2138 DUP2 PUSH1 0x20 DUP7 ADD PUSH1 0x20 DUP7 ADD PUSH2 0x25E3 JUMP JUMPDEST PUSH1 0x1F ADD PUSH1 0x1F NOT AND SWAP3 SWAP1 SWAP3 ADD PUSH1 0x20 ADD SWAP3 SWAP2 POP POP JUMP JUMPDEST PUSH1 0x0 PUSH2 0x160 DUP3 MLOAD DUP2 DUP6 MSTORE PUSH2 0x2162 DUP3 DUP7 ADD DUP3 PUSH2 0x2120 JUMP JUMPDEST SWAP2 POP POP PUSH1 0x20 DUP4 ADD MLOAD DUP5 DUP3 SUB PUSH1 0x20 DUP7 ADD MSTORE PUSH2 0x217C DUP3 DUP3 PUSH2 0x2120 JUMP JUMPDEST SWAP2 POP POP PUSH1 0x40 DUP4 ADD MLOAD PUSH2 0x2199 PUSH1 0x40 DUP7 ADD DUP3 PUSH1 0x1 PUSH1 0x1 PUSH1 0xA0 SHL SUB AND SWAP1 MSTORE JUMP JUMPDEST POP PUSH1 0x60 DUP4 ADD MLOAD DUP5 DUP3 SUB PUSH1 0x60 DUP7 ADD MSTORE PUSH2 0x21B1 DUP3 DUP3 PUSH2 0x2120 JUMP JUMPDEST SWAP2 POP POP PUSH1 0x80 DUP4 ADD MLOAD PUSH2 0x21C7 PUSH1 0x80 DUP7 ADD DUP3 ISZERO ISZERO SWAP1 MSTORE JUMP JUMPDEST POP PUSH1 0xA0 DUP4 ADD MLOAD PUSH2 0x21DC PUSH1 0xA0 DUP7 ADD DUP3 PUSH1 0x7 SIGNEXTEND SWAP1 MSTORE JUMP JUMPDEST POP PUSH1 0xC0 DUP4 ADD MLOAD PUSH2 0x21F0 PUSH1 0xC0 DUP7 ADD DUP3 ISZERO ISZERO SWAP1 MSTORE JUMP JUMPDEST POP PUSH1 0xE0 DUP4 ADD MLOAD DUP5 DUP3 SUB PUSH1 0xE0 DUP7 ADD MSTORE PUSH2 0x2208 DUP3 DUP3 PUSH2 0x20B8 JUMP JUMPDEST SWAP2 POP POP PUSH2 0x100 DUP1 DUP5 ADD MLOAD PUSH2 0x2244 DUP3 DUP8 ADD DUP3 DUP1 MLOAD PUSH1 0x7 SIGNEXTEND DUP3 MSTORE PUSH1 0x1 PUSH1 0x1 PUSH1 0xA0 SHL SUB PUSH1 0x20 DUP3 ADD MLOAD AND PUSH1 0x20 DUP4 ADD MSTORE PUSH1 0x40 DUP2 ADD MLOAD PUSH1 0x7 SIGNEXTEND PUSH1 0x40 DUP4 ADD MSTORE POP POP JUMP JUMPDEST POP SWAP1 SWAP5 SWAP4 POP POP POP POP JUMP JUMPDEST DUP1 MLOAD ISZERO ISZERO DUP3 MSTORE PUSH1 0x0 PUSH1 0x20 DUP3 ADD MLOAD PUSH1 0x1 PUSH1 0x1 PUSH1 0xA0 SHL SUB DUP1 DUP3 AND PUSH1 0x20 DUP7 ADD MSTORE PUSH1 0x40 DUP5 ADD MLOAD SWAP2 POP PUSH1 0xA0 PUSH1 0x40 DUP7 ADD MSTORE PUSH2 0x2286 PUSH1 0xA0 DUP7 ADD DUP4 PUSH2 0x2120 JUMP JUMPDEST SWAP2 POP PUSH1 0x60 DUP5 ADD MLOAD DUP6 DUP4 SUB PUSH1 0x60 DUP8 ADD MSTORE PUSH2 0x229F DUP4 DUP3 PUSH2 0x2120 JUMP JUMPDEST SWAP3 POP POP DUP1 PUSH1 0x80 DUP6 ADD MLOAD AND PUSH1 0x80 DUP7 ADD MSTORE POP DUP1 SWAP2 POP POP SWAP3 SWAP2 POP POP JUMP JUMPDEST PUSH1 0x0 PUSH2 0x120 DUP3 MLOAD DUP2 DUP6 MSTORE PUSH2 0x22CF DUP3 DUP7 ADD DUP3 PUSH2 0x214C JUMP JUMPDEST SWAP2 POP POP PUSH1 0x20 DUP4 ADD MLOAD PUSH2 0x22E6 PUSH1 0x20 DUP7 ADD DUP3 PUSH1 0x7 SIGNEXTEND SWAP1 MSTORE JUMP JUMPDEST POP PUSH1 0x40 DUP4 ADD MLOAD PUSH2 0x22FA PUSH1 0x40 DUP7 ADD DUP3 ISZERO ISZERO SWAP1 MSTORE JUMP JUMPDEST POP PUSH1 0x60 DUP4 ADD MLOAD PUSH2 0x230E PUSH1 0x60 DUP7 ADD DUP3 ISZERO ISZERO SWAP1 MSTORE JUMP JUMPDEST POP PUSH1 0x80 DUP4 ADD MLOAD PUSH2 0x2322 PUSH1 0x80 DUP7 ADD DUP3 ISZERO ISZERO SWAP1 MSTORE JUMP JUMPDEST POP PUSH1 0xA0 DUP4 ADD MLOAD DUP5 DUP3 SUB PUSH1 0xA0 DUP7 ADD MSTORE PUSH2 0x233A DUP3 DUP3 PUSH2 0x1F49 JUMP JUMPDEST SWAP2 POP POP PUSH1 0xC0 DUP4 ADD MLOAD DUP5 DUP3 SUB PUSH1 0xC0 DUP7 ADD MSTORE PUSH2 0x2354 DUP3 DUP3 PUSH2 0x1FC0 JUMP JUMPDEST SWAP2 POP POP PUSH1 0xE0 DUP4 ADD MLOAD DUP5 DUP3 SUB PUSH1 0xE0 DUP7 ADD MSTORE PUSH2 0x236E DUP3 DUP3 PUSH2 0x203A JUMP JUMPDEST SWAP2 POP POP PUSH2 0x100 DUP1 DUP5 ADD MLOAD DUP6 DUP4 SUB DUP3 DUP8 ADD MSTORE PUSH2 0x2389 DUP4 DUP3 PUSH2 0x2120 JUMP JUMPDEST SWAP7 SWAP6 POP POP POP POP POP POP JUMP JUMPDEST PUSH1 0x0 DUP3 MLOAD PUSH2 0x23A5 DUP2 DUP5 PUSH1 0x20 DUP8 ADD PUSH2 0x25E3 JUMP JUMPDEST SWAP2 SWAP1 SWAP2 ADD SWAP3 SWAP2 POP POP JUMP JUMPDEST PUSH1 0x60 DUP2 MSTORE PUSH1 0x0 PUSH2 0x23C2 PUSH1 0x60 DUP4 ADD DUP7 PUSH2 0x1F49 JUMP JUMPDEST DUP3 DUP2 SUB PUSH1 0x20 DUP5 ADD MSTORE PUSH2 0x23D4 DUP2 DUP7 PUSH2 0x1FC0 JUMP JUMPDEST SWAP1 POP DUP3 DUP2 SUB PUSH1 0x40 DUP5 ADD MSTORE PUSH2 0x2389 DUP2 DUP6 PUSH2 0x203A JUMP JUMPDEST PUSH1 0x60 DUP2 ADD PUSH2 0x4D7 DUP3 DUP5 DUP1 MLOAD PUSH1 0x7 SIGNEXTEND DUP3 MSTORE PUSH1 0x1 PUSH1 0x1 PUSH1 0xA0 SHL SUB PUSH1 0x20 DUP3 ADD MLOAD AND PUSH1 0x20 DUP4 ADD MSTORE PUSH1 0x40 DUP2 ADD MLOAD PUSH1 0x7 SIGNEXTEND PUSH1 0x40 DUP4 ADD MSTORE POP POP JUMP JUMPDEST PUSH1 0x20 DUP2 MSTORE PUSH1 0x0 DUP3 MLOAD PUSH1 0x40 PUSH1 0x20 DUP5 ADD MSTORE PUSH2 0x2438 PUSH1 0x60 DUP5 ADD DUP3 PUSH2 0x22B9 JUMP JUMPDEST SWAP1 POP PUSH1 0x20 DUP5 ADD MLOAD PUSH1 0x3 SIGNEXTEND PUSH1 0x40 DUP5 ADD MSTORE DUP1 SWAP2 POP POP SWAP3 SWAP2 POP POP JUMP JUMPDEST PUSH1 0x20 DUP2 MSTORE PUSH1 0x0 PUSH2 0x516 PUSH1 0x20 DUP4 ADD DUP5 PUSH2 0x224E JUMP JUMPDEST PUSH1 0x20 DUP2 MSTORE PUSH1 0x0 DUP3 MLOAD PUSH1 0xC0 PUSH1 0x20 DUP5 ADD MSTORE PUSH2 0x2480 PUSH1 0xE0 DUP5 ADD DUP3 PUSH2 0x22B9 JUMP JUMPDEST SWAP1 POP PUSH1 0x20 DUP5 ADD MLOAD PUSH1 0x7 SIGNEXTEND PUSH1 0x40 DUP5 ADD MSTORE PUSH1 0x40 DUP5 ADD MLOAD PUSH1 0x1 PUSH1 0x1 PUSH1 0xA0 SHL SUB DUP1 DUP3 AND PUSH1 0x60 DUP7 ADD MSTORE PUSH1 0x60 DUP7 ADD MLOAD PUSH1 0x7 SIGNEXTEND PUSH1 0x80 DUP7 ADD MSTORE PUSH1 0x80 DUP7 ADD MLOAD SWAP2 POP PUSH1 0x1F NOT DUP6 DUP5 SUB ADD PUSH1 0xA0 DUP7 ADD MSTORE PUSH2 0x24CE DUP4 DUP4 PUSH2 0x2120 JUMP JUMPDEST SWAP3 POP DUP1 PUSH1 0xA0 DUP8 ADD MLOAD AND PUSH1 0xC0 DUP7 ADD MSTORE POP POP DUP1 SWAP2 POP POP SWAP3 SWAP2 POP POP JUMP JUMPDEST PUSH1 0x20 DUP2 MSTORE PUSH1 0x0 PUSH2 0x516 PUSH1 0x20 DUP4 ADD DUP5 PUSH2 0x22B9 JUMP JUMPDEST PUSH1 0x40 MLOAD PUSH1 0xA0 DUP2 ADD PUSH8 0xFFFFFFFFFFFFFFFF DUP2 GT DUP3 DUP3 LT OR ISZERO PUSH2 0x251E JUMPI PUSH2 0x251E PUSH2 0x2613 JUMP JUMPDEST PUSH1 0x40 MSTORE SWAP1 JUMP JUMPDEST PUSH1 0x40 MLOAD PUSH1 0xC0 DUP2 ADD PUSH8 0xFFFFFFFFFFFFFFFF DUP2 GT DUP3 DUP3 LT OR ISZERO PUSH2 0x251E JUMPI PUSH2 0x251E PUSH2 0x2613 JUMP JUMPDEST PUSH1 0x40 DUP1 MLOAD SWAP1 DUP2 ADD PUSH8 0xFFFFFFFFFFFFFFFF DUP2 GT DUP3 DUP3 LT OR ISZERO PUSH2 0x251E JUMPI PUSH2 0x251E PUSH2 0x2613 JUMP JUMPDEST PUSH1 0x40 MLOAD PUSH2 0x120 DUP2 ADD PUSH8 0xFFFFFFFFFFFFFFFF DUP2 GT DUP3 DUP3 LT OR ISZERO PUSH2 0x251E JUMPI PUSH2 0x251E PUSH2 0x2613 JUMP JUMPDEST PUSH1 0x40 MLOAD PUSH1 0x1F DUP3 ADD PUSH1 0x1F NOT AND DUP2 ADD PUSH8 0xFFFFFFFFFFFFFFFF DUP2 GT DUP3 DUP3 LT OR ISZERO PUSH2 0x25B7 JUMPI PUSH2 0x25B7 PUSH2 0x2613 JUMP JUMPDEST PUSH1 0x40 MSTORE SWAP2 SWAP1 POP JUMP JUMPDEST PUSH1 0x0 PUSH8 0xFFFFFFFFFFFFFFFF DUP3 GT ISZERO PUSH2 0x25D9 JUMPI PUSH2 0x25D9 PUSH2 0x2613 JUMP JUMPDEST POP PUSH1 0x5 SHL PUSH1 0x20 ADD SWAP1 JUMP JUMPDEST PUSH1 0x0 JUMPDEST DUP4 DUP2 LT ISZERO PUSH2 0x25FE JUMPI DUP2 DUP2 ADD MLOAD DUP4 DUP3 ADD MSTORE PUSH1 0x20 ADD PUSH2 0x25E6 JUMP JUMPDEST DUP4 DUP2 GT ISZERO PUSH2 0x260D JUMPI PUSH1 0x0 DUP5 DUP5 ADD MSTORE JUMPDEST POP POP POP POP JUMP JUMPDEST PUSH32 0x4E487B7100000000000000000000000000000000000000000000000000000000 PUSH1 0x0 MSTORE PUSH1 0x41 PUSH1 0x4 MSTORE PUSH1 0x24 PUSH1 0x0 REVERT JUMPDEST PUSH1 0x1 PUSH1 0x1 PUSH1 0xA0 SHL SUB DUP2 AND DUP2 EQ PUSH2 0x2657 JUMPI PUSH1 0x0 DUP1 REVERT JUMPDEST POP JUMP JUMPDEST DUP1 PUSH1 0x7 SIGNEXTEND DUP2 EQ PUSH2 0x2657 JUMPI PUSH1 0x0 DUP1 REVERT INVALID LOG2 PUSH5 0x6970667358 0x22 SLT KECCAK256 SLOAD TIMESTAMP SWAP6 0xFC SSTORE 0x21 DUP2 CALLER 0xF7 PUSH7 0x7091D454C5E766 0xB6 DUP16 PUSH15 0x4A75FECCE4C0856C1649520464736F PUSH13 0x63430008040033000000000000 "},"methodIdentifiers":{"delegateTransferFrom(address,address,address,uint256)":"eac6f3fe","delegateTransferFromNFT(address,address,address,uint256)":"11e1fc07","getCustomFeesForToken(address)":"44f38bc8","getExpiryInfoForToken(address)":"1de8edad","getInformationForFungibleToken(address)":"59c16f5a","getInformationForNonFungibleToken(address,int64)":"8e5e7996","getInformationForToken(address)":"35589a13","getTokenDefaultFreeze(address)":"319a8723","getTokenDefaultKyc(address)":"fd4d1c26","getTokenKeyPublic(address,uint256)":"1955de0b","getType(address)":"f429f19b","isKycGranted(address,address)":"bc2fb00e","isTokenAddress(address)":"bff9834f","isTokenFrozen(address,address)":"565ca6fa","transferFrom(address,address,address,uint256)":"15dacbea","transferFromNFT(address,address,address,uint256)":"9b23d3d9"}}}}}