{
  "_format": "hh-sol-artifact-1",
  "contractName": "MirrorNodeShard",
  "sourceName": "contracts/MirrorNode.sol",
  "abi": [
    {
      "inputs": [
        {
          "internalType": "address",
          "name": "_owner",
          "type": "address"
        },
        {
          "internalType": "address",
          "name": "_parent",
          "type": "address"
        },
        {
          "internalType": "uint256",
          "name": "_queryFee",
          "type": "uint256"
        },
        {
          "internalType": "uint8",
          "name": "_shard",
          "type": "uint8"
        },
        {
          "internalType": "uint256",
          "name": "_maxTransactionsCount",
          "type": "uint256"
        }
      ],
      "stateMutability": "nonpayable",
      "type": "constructor"
    },
    {
      "anonymous": false,
      "inputs": [
        {
          "indexed": false,
          "internalType": "uint8",
          "name": "shard",
          "type": "uint8"
        },
        {
          "indexed": false,
          "internalType": "uint256",
          "name": "timestamp",
          "type": "uint256"
        },
        {
          "indexed": true,
          "internalType": "address",
          "name": "mirror",
          "type": "address"
        }
      ],
      "name": "TransactionRequest",
      "type": "event"
    },
    {
      "anonymous": false,
      "inputs": [
        {
          "indexed": false,
          "internalType": "uint8",
          "name": "shard",
          "type": "uint8"
        },
        {
          "indexed": false,
          "internalType": "uint256",
          "name": "timestamp",
          "type": "uint256"
        },
        {
          "indexed": true,
          "internalType": "address",
          "name": "mirror",
          "type": "address"
        }
      ],
      "name": "TransactionStorage",
      "type": "event"
    },
    {
      "inputs": [],
      "name": "getShard",
      "outputs": [
        {
          "internalType": "uint8",
          "name": "",
          "type": "uint8"
        }
      ],
      "stateMutability": "view",
      "type": "function"
    },
    {
      "inputs": [],
      "name": "getTotalFeesCollected",
      "outputs": [
        {
          "internalType": "uint256",
          "name": "",
          "type": "uint256"
        }
      ],
      "stateMutability": "view",
      "type": "function"
    },
    {
      "inputs": [],
      "name": "getTotalQueriesReceived",
      "outputs": [
        {
          "internalType": "uint256",
          "name": "",
          "type": "uint256"
        }
      ],
      "stateMutability": "view",
      "type": "function"
    },
    {
      "inputs": [
        {
          "internalType": "uint256",
          "name": "timestamp",
          "type": "uint256"
        }
      ],
      "name": "getTransactionInfo",
      "outputs": [
        {
          "internalType": "string",
          "name": "",
          "type": "string"
        }
      ],
      "stateMutability": "payable",
      "type": "function"
    },
    {
      "inputs": [],
      "name": "getTransactionStoredCount",
      "outputs": [
        {
          "internalType": "uint256",
          "name": "",
          "type": "uint256"
        }
      ],
      "stateMutability": "view",
      "type": "function"
    },
    {
      "inputs": [
        {
          "internalType": "uint256",
          "name": "timestamp",
          "type": "uint256"
        },
        {
          "internalType": "string",
          "name": "transaction",
          "type": "string"
        }
      ],
      "name": "storeTransaction",
      "outputs": [
        {
          "internalType": "bool",
          "name": "",
          "type": "bool"
        }
      ],
      "stateMutability": "payable",
      "type": "function"
    },
    {
      "inputs": [
        {
          "internalType": "uint256",
          "name": "amount",
          "type": "uint256"
        }
      ],
      "name": "withdraw",
      "outputs": [],
      "stateMutability": "nonpayable",
      "type": "function"
    }
  ],
  "bytecode": "0x60806040523480156200001157600080fd5b506040516200108c3803806200108c833981810160405281019062000037919062000141565b83600260006101000a81548173ffffffffffffffffffffffffffffffffffffffff021916908373ffffffffffffffffffffffffffffffffffffffff1602179055508260038190555081600260146101000a81548160ff021916908360ff160217905550846000806101000a81548173ffffffffffffffffffffffffffffffffffffffff021916908373ffffffffffffffffffffffffffffffffffffffff160217905550806007819055506000600481905550600060058190555050505050506200025c565b6000815190506200010d816200020e565b92915050565b600081519050620001248162000228565b92915050565b6000815190506200013b8162000242565b92915050565b600080600080600060a086880312156200015a57600080fd5b60006200016a88828901620000fc565b95505060206200017d88828901620000fc565b9450506040620001908882890162000113565b9350506060620001a3888289016200012a565b9250506080620001b68882890162000113565b9150509295509295909350565b6000620001d082620001d7565b9050919050565b600073ffffffffffffffffffffffffffffffffffffffff82169050919050565b6000819050919050565b600060ff82169050919050565b6200021981620001c3565b81146200022557600080fd5b50565b6200023381620001f7565b81146200023f57600080fd5b50565b6200024d8162000201565b81146200025957600080fd5b50565b610e20806200026c6000396000f3fe6080604052600436106100705760003560e01c806339120b6d1161004e57806339120b6d146100f95780634687650814610124578063d7aa82731461014f578063e37a16671461017f57610070565b80631642d1e2146100755780632e1a7d4d146100a5578063329d2ef7146100ce575b600080fd5b61008f600480360381019061008a9190610775565b6101aa565b60405161009c91906108de565b60405180910390f35b3480156100b157600080fd5b506100cc60048036038101906100c7919061074c565b6102aa565b005b3480156100da57600080fd5b506100e36103a2565b6040516100f091906109bb565b60405180910390f35b34801561010557600080fd5b5061010e6103ac565b60405161011b91906109bb565b60405180910390f35b34801561013057600080fd5b506101396103b6565b60405161014691906109bb565b60405180910390f35b6101696004803603810190610164919061074c565b61044f565b60405161017691906108f9565b60405180910390f35b34801561018b57600080fd5b50610194610615565b6040516101a191906109d6565b60405180910390f35b600060075460016006546101be9190610a8c565b11156101ff576040517f08c379a00000000000000000000000000000000000000000000000000000000081526004016101f69061095b565b60405180910390fd5b8160016000858152602001908152602001600020908051906020019061022692919061062c565b5060016006600082825461023a9190610a8c565b925050819055503073ffffffffffffffffffffffffffffffffffffffff167fad61c318c4b36f165884af3b15023411e6209feb72d318f7e1fe5a63a5ecc8a8600260149054906101000a900460ff16856040516102989291906109f1565b60405180910390a26001905092915050565b60008054906101000a900473ffffffffffffffffffffffffffffffffffffffff1673ffffffffffffffffffffffffffffffffffffffff163373ffffffffffffffffffffffffffffffffffffffff1614610338576040517f08c379a000000000000000000000000000000000000000000000000000000000815260040161032f9061093b565b60405180910390fd5b60008054906101000a900473ffffffffffffffffffffffffffffffffffffffff1673ffffffffffffffffffffffffffffffffffffffff166108fc829081150290604051600060405180830381858888f1935050505015801561039e573d6000803e3d6000fd5b5050565b6000600554905090565b6000600654905090565b60008060009054906101000a900473ffffffffffffffffffffffffffffffffffffffff1673ffffffffffffffffffffffffffffffffffffffff163373ffffffffffffffffffffffffffffffffffffffff1614610447576040517f08c379a000000000000000000000000000000000000000000000000000000000815260040161043e9061091b565b60405180910390fd5b600454905090565b6060600354341015610496576040517f08c379a000000000000000000000000000000000000000000000000000000000815260040161048d9061097b565b60405180910390fd5b60006001600084815260200190815260200160002080546104b690610b47565b80601f01602080910402602001604051908101604052809291908181526020018280546104e290610b47565b801561052f5780601f106105045761010080835404028352916020019161052f565b820191906000526020600020905b81548152906001019060200180831161051257829003601f168201915b50505050509050600081511161057a576040517f08c379a00000000000000000000000000000000000000000000000000000000081526004016105719061099b565b60405180910390fd5b346004600082825461058c9190610a8c565b925050819055506001600560008282546105a69190610a8c565b925050819055503073ffffffffffffffffffffffffffffffffffffffff167f92a1a1c62fec80c174ca0cd3ad5fc94e29b79e120956b3b36a9c49d26474fdb6600260149054906101000a900460ff16856040516106049291906109f1565b60405180910390a280915050919050565b6000600260149054906101000a900460ff16905090565b82805461063890610b47565b90600052602060002090601f01602090048101928261065a57600085556106a1565b82601f1061067357805160ff19168380011785556106a1565b828001600101855582156106a1579182015b828111156106a0578251825591602001919060010190610685565b5b5090506106ae91906106b2565b5090565b5b808211156106cb5760008160009055506001016106b3565b5090565b60006106e26106dd84610a3f565b610a1a565b9050828152602081018484840111156106fa57600080fd5b610705848285610b05565b509392505050565b600082601f83011261071e57600080fd5b813561072e8482602086016106cf565b91505092915050565b60008135905061074681610dd3565b92915050565b60006020828403121561075e57600080fd5b600061076c84828501610737565b91505092915050565b6000806040838503121561078857600080fd5b600061079685828601610737565b925050602083013567ffffffffffffffff8111156107b357600080fd5b6107bf8582860161070d565b9150509250929050565b6107d281610ae2565b82525050565b60006107e382610a70565b6107ed8185610a7b565b93506107fd818560208601610b14565b61080681610c37565b840191505092915050565b600061081e604883610a7b565b915061082982610c48565b606082019050919050565b6000610841600983610a7b565b915061084c82610cbd565b602082019050919050565b6000610864603783610a7b565b915061086f82610ce6565b604082019050919050565b6000610887603a83610a7b565b915061089282610d35565b604082019050919050565b60006108aa603483610a7b565b91506108b582610d84565b604082019050919050565b6108c981610aee565b82525050565b6108d881610af8565b82525050565b60006020820190506108f360008301846107c9565b92915050565b6000602082019050818103600083015261091381846107d8565b905092915050565b6000602082019050818103600083015261093481610811565b9050919050565b6000602082019050818103600083015261095481610834565b9050919050565b6000602082019050818103600083015261097481610857565b9050919050565b600060208201905081810360008301526109948161087a565b9050919050565b600060208201905081810360008301526109b48161089d565b9050919050565b60006020820190506109d060008301846108c0565b92915050565b60006020820190506109eb60008301846108cf565b92915050565b6000604082019050610a0660008301856108cf565b610a1360208301846108c0565b9392505050565b6000610a24610a35565b9050610a308282610b79565b919050565b6000604051905090565b600067ffffffffffffffff821115610a5a57610a59610c08565b5b610a6382610c37565b9050602081019050919050565b600081519050919050565b600082825260208201905092915050565b6000610a9782610aee565b9150610aa283610aee565b9250827fffffffffffffffffffffffffffffffffffffffffffffffffffffffffffffffff03821115610ad757610ad6610baa565b5b828201905092915050565b60008115159050919050565b6000819050919050565b600060ff82169050919050565b82818337600083830152505050565b60005b83811015610b32578082015181840152602081019050610b17565b83811115610b41576000848401525b50505050565b60006002820490506001821680610b5f57607f821691505b60208210811415610b7357610b72610bd9565b5b50919050565b610b8282610c37565b810181811067ffffffffffffffff82111715610ba157610ba0610c08565b5b80604052505050565b7f4e487b7100000000000000000000000000000000000000000000000000000000600052601160045260246000fd5b7f4e487b7100000000000000000000000000000000000000000000000000000000600052602260045260246000fd5b7f4e487b7100000000000000000000000000000000000000000000000000000000600052604160045260246000fd5b6000601f19601f8301169050919050565b7f4d6972726f724e6f646553686172643a20676574546f74616c46656573436f6c60008201527f6c6563746564206e6f6e206f776e657220636865636b696e672066656573206360208201527f6f6c6c6563746564000000000000000000000000000000000000000000000000604082015250565b7f4e6f74206f776e65720000000000000000000000000000000000000000000000600082015250565b7f4d6972726f724e6f646553686172643a2073746f72655472616e73616374696f60008201527f6e206d6178207472616e73616374696f6e20636f756e74000000000000000000602082015250565b7f4d6972726f724e6f646553686172643a206765745472616e73616374696f6e4960008201527f6e666f206761732065786365656473206e6574776f726b466565000000000000602082015250565b7f4d6972726f724e6f646553686172643a207472616e73616374696f6e20636f6e60008201527f74656e7473206578636565642030206279746573000000000000000000000000602082015250565b610ddc81610aee565b8114610de757600080fd5b5056fea26469706673582212206a29a42f5f3af96dc7da9380744740b0f24ce7b73bd8cb9042c7971e418089e064736f6c63430008040033",
  "linkReferences": {},
  "deployedLinkReferences": {}
}