{
  "_format": "hh-sol-artifact-1",
  "contractName": "MirrorNodeShard",
  "sourceName": "contracts/MirrorNode.sol",
  "abi": [
    {
      "inputs": [
        {
          "internalType": "address",
          "name": "_owner",
          "type": "address"
        },
        {
          "internalType": "address",
          "name": "_parent",
          "type": "address"
        },
        {
          "internalType": "uint256",
          "name": "_queryFee",
          "type": "uint256"
        },
        {
          "internalType": "uint8",
          "name": "_shard",
          "type": "uint8"
        },
        {
          "internalType": "uint256",
          "name": "_maxTransactionsCount",
          "type": "uint256"
        }
      ],
      "stateMutability": "nonpayable",
      "type": "constructor"
    },
    {
      "anonymous": false,
      "inputs": [
        {
          "indexed": false,
          "internalType": "uint8",
          "name": "shard",
          "type": "uint8"
        },
        {
          "indexed": false,
          "internalType": "uint256",
          "name": "timestamp",
          "type": "uint256"
        },
        {
          "indexed": false,
          "internalType": "string",
          "name": "message",
          "type": "string"
        }
      ],
      "name": "StoreTransactionLog",
      "type": "event"
    },
    {
      "anonymous": false,
      "inputs": [
        {
          "indexed": false,
          "internalType": "uint8",
          "name": "shard",
          "type": "uint8"
        },
        {
          "indexed": false,
          "internalType": "uint256",
          "name": "timestamp",
          "type": "uint256"
        },
        {
          "indexed": true,
          "internalType": "address",
          "name": "mirror",
          "type": "address"
        }
      ],
      "name": "TransactionRequest",
      "type": "event"
    },
    {
      "anonymous": false,
      "inputs": [
        {
          "indexed": false,
          "internalType": "uint8",
          "name": "shard",
          "type": "uint8"
        },
        {
          "indexed": false,
          "internalType": "uint256",
          "name": "timestamp",
          "type": "uint256"
        },
        {
          "indexed": true,
          "internalType": "address",
          "name": "mirror",
          "type": "address"
        }
      ],
      "name": "TransactionStorage",
      "type": "event"
    },
    {
      "inputs": [],
      "name": "getShard",
      "outputs": [
        {
          "internalType": "uint8",
          "name": "",
          "type": "uint8"
        }
      ],
      "stateMutability": "view",
      "type": "function"
    },
    {
      "inputs": [],
      "name": "getTotalFeesCollected",
      "outputs": [
        {
          "internalType": "uint256",
          "name": "",
          "type": "uint256"
        }
      ],
      "stateMutability": "view",
      "type": "function"
    },
    {
      "inputs": [],
      "name": "getTotalQueriesReceived",
      "outputs": [
        {
          "internalType": "uint256",
          "name": "",
          "type": "uint256"
        }
      ],
      "stateMutability": "view",
      "type": "function"
    },
    {
      "inputs": [
        {
          "internalType": "uint256",
          "name": "timestamp",
          "type": "uint256"
        }
      ],
      "name": "getTransactionInfo",
      "outputs": [
        {
          "internalType": "string",
          "name": "",
          "type": "string"
        }
      ],
      "stateMutability": "payable",
      "type": "function"
    },
    {
      "inputs": [],
      "name": "getTransactionStoredCount",
      "outputs": [
        {
          "internalType": "uint256",
          "name": "",
          "type": "uint256"
        }
      ],
      "stateMutability": "view",
      "type": "function"
    },
    {
      "inputs": [
        {
          "internalType": "uint256",
          "name": "timestamp",
          "type": "uint256"
        },
        {
          "internalType": "string",
          "name": "transaction",
          "type": "string"
        }
      ],
      "name": "storeTransaction",
      "outputs": [
        {
          "internalType": "bool",
          "name": "",
          "type": "bool"
        }
      ],
      "stateMutability": "payable",
      "type": "function"
    },
    {
      "inputs": [
        {
          "internalType": "uint256",
          "name": "amount",
          "type": "uint256"
        }
      ],
      "name": "withdraw",
      "outputs": [],
      "stateMutability": "nonpayable",
      "type": "function"
    }
  ],
  "bytecode": "0x60806040523480156200001157600080fd5b5060405162000fb438038062000fb4833981810160405281019062000037919062000141565b83600260006101000a81548173ffffffffffffffffffffffffffffffffffffffff021916908373ffffffffffffffffffffffffffffffffffffffff1602179055508260038190555081600260146101000a81548160ff021916908360ff160217905550846000806101000a81548173ffffffffffffffffffffffffffffffffffffffff021916908373ffffffffffffffffffffffffffffffffffffffff160217905550806007819055506000600481905550600060058190555050505050506200025c565b6000815190506200010d816200020e565b92915050565b600081519050620001248162000228565b92915050565b6000815190506200013b8162000242565b92915050565b600080600080600060a086880312156200015a57600080fd5b60006200016a88828901620000fc565b95505060206200017d88828901620000fc565b9450506040620001908882890162000113565b9350506060620001a3888289016200012a565b9250506080620001b68882890162000113565b9150509295509295909350565b6000620001d082620001d7565b9050919050565b600073ffffffffffffffffffffffffffffffffffffffff82169050919050565b6000819050919050565b600060ff82169050919050565b6200021981620001c3565b81146200022557600080fd5b50565b6200023381620001f7565b81146200023f57600080fd5b50565b6200024d8162000201565b81146200025957600080fd5b50565b610d48806200026c6000396000f3fe6080604052600436106100705760003560e01c806339120b6d1161004e57806339120b6d146100f95780634687650814610124578063d7aa82731461014f578063e37a16671461017f57610070565b80631642d1e2146100755780632e1a7d4d146100a5578063329d2ef7146100ce575b600080fd5b61008f600480360381019061008a9190610647565b6101aa565b60405161009c9190610803565b60405180910390f35b3480156100b157600080fd5b506100cc60048036038101906100c7919061061e565b61021f565b005b3480156100da57600080fd5b506100e3610317565b6040516100f091906108c0565b60405180910390f35b34801561010557600080fd5b5061010e610321565b60405161011b91906108c0565b60405180910390f35b34801561013057600080fd5b5061013961032b565b60405161014691906108c0565b60405180910390f35b6101696004803603810190610164919061061e565b6103c4565b604051610176919061081e565b60405180910390f35b34801561018b57600080fd5b5061019461058a565b6040516101a191906108db565b60405180910390f35b60007fb92b3b10914fc62a536d91e7dbf44fecae17a162977bbf319ab7769ca595ae78600260149054906101000a900460ff1684846040516020016101ef91906107e1565b60405160208183030381529060405260405161020d9392919061091f565b60405180910390a16001905092915050565b60008054906101000a900473ffffffffffffffffffffffffffffffffffffffff1673ffffffffffffffffffffffffffffffffffffffff163373ffffffffffffffffffffffffffffffffffffffff16146102ad576040517f08c379a00000000000000000000000000000000000000000000000000000000081526004016102a490610860565b60405180910390fd5b60008054906101000a900473ffffffffffffffffffffffffffffffffffffffff1673ffffffffffffffffffffffffffffffffffffffff166108fc829081150290604051600060405180830381858888f19350505050158015610313573d6000803e3d6000fd5b5050565b6000600554905090565b6000600654905090565b60008060009054906101000a900473ffffffffffffffffffffffffffffffffffffffff1673ffffffffffffffffffffffffffffffffffffffff163373ffffffffffffffffffffffffffffffffffffffff16146103bc576040517f08c379a00000000000000000000000000000000000000000000000000000000081526004016103b390610840565b60405180910390fd5b600454905090565b606060035434101561040b576040517f08c379a000000000000000000000000000000000000000000000000000000000815260040161040290610880565b60405180910390fd5b600060016000848152602001908152602001600020805461042b90610a95565b80601f016020809104026020016040519081016040528092919081815260200182805461045790610a95565b80156104a45780601f10610479576101008083540402835291602001916104a4565b820191906000526020600020905b81548152906001019060200180831161048757829003601f168201915b5050505050905060008151116104ef576040517f08c379a00000000000000000000000000000000000000000000000000000000081526004016104e6906108a0565b60405180910390fd5b346004600082825461050191906109da565b9250508190555060016005600082825461051b91906109da565b925050819055503073ffffffffffffffffffffffffffffffffffffffff167f92a1a1c62fec80c174ca0cd3ad5fc94e29b79e120956b3b36a9c49d26474fdb6600260149054906101000a900460ff16856040516105799291906108f6565b60405180910390a280915050919050565b6000600260149054906101000a900460ff16905090565b60006105b46105af84610982565b61095d565b9050828152602081018484840111156105cc57600080fd5b6105d7848285610a53565b509392505050565b600082601f8301126105f057600080fd5b81356106008482602086016105a1565b91505092915050565b60008135905061061881610cfb565b92915050565b60006020828403121561063057600080fd5b600061063e84828501610609565b91505092915050565b6000806040838503121561065a57600080fd5b600061066885828601610609565b925050602083013567ffffffffffffffff81111561068557600080fd5b610691858286016105df565b9150509250929050565b6106a481610a30565b82525050565b60006106b5826109b3565b6106bf81856109be565b93506106cf818560208601610a62565b6106d881610b85565b840191505092915050565b60006106ee826109b3565b6106f881856109cf565b9350610708818560208601610a62565b80840191505092915050565b6000610721601d836109cf565b915061072c82610b96565b601d82019050919050565b60006107446048836109be565b915061074f82610bbf565b606082019050919050565b60006107676009836109be565b915061077282610c34565b602082019050919050565b600061078a603a836109be565b915061079582610c5d565b604082019050919050565b60006107ad6034836109be565b91506107b882610cac565b604082019050919050565b6107cc81610a3c565b82525050565b6107db81610a46565b82525050565b60006107ec82610714565b91506107f882846106e3565b915081905092915050565b6000602082019050610818600083018461069b565b92915050565b6000602082019050818103600083015261083881846106aa565b905092915050565b6000602082019050818103600083015261085981610737565b9050919050565b600060208201905081810360008301526108798161075a565b9050919050565b600060208201905081810360008301526108998161077d565b9050919050565b600060208201905081810360008301526108b9816107a0565b9050919050565b60006020820190506108d560008301846107c3565b92915050565b60006020820190506108f060008301846107d2565b92915050565b600060408201905061090b60008301856107d2565b61091860208301846107c3565b9392505050565b600060608201905061093460008301866107d2565b61094160208301856107c3565b818103604083015261095381846106aa565b9050949350505050565b6000610967610978565b90506109738282610ac7565b919050565b6000604051905090565b600067ffffffffffffffff82111561099d5761099c610b56565b5b6109a682610b85565b9050602081019050919050565b600081519050919050565b600082825260208201905092915050565b600081905092915050565b60006109e582610a3c565b91506109f083610a3c565b9250827fffffffffffffffffffffffffffffffffffffffffffffffffffffffffffffffff03821115610a2557610a24610af8565b5b828201905092915050565b60008115159050919050565b6000819050919050565b600060ff82169050919050565b82818337600083830152505050565b60005b83811015610a80578082015181840152602081019050610a65565b83811115610a8f576000848401525b50505050565b60006002820490506001821680610aad57607f821691505b60208210811415610ac157610ac0610b27565b5b50919050565b610ad082610b85565b810181811067ffffffffffffffff82111715610aef57610aee610b56565b5b80604052505050565b7f4e487b7100000000000000000000000000000000000000000000000000000000600052601160045260246000fd5b7f4e487b7100000000000000000000000000000000000000000000000000000000600052602260045260246000fd5b7f4e487b7100000000000000000000000000000000000000000000000000000000600052604160045260246000fd5b6000601f19601f8301169050919050565b7f63616c6c65642073746f72655472616e73616374696f6e207769746820000000600082015250565b7f4d6972726f724e6f646553686172643a20676574546f74616c46656573436f6c60008201527f6c6563746564206e6f6e206f776e657220636865636b696e672066656573206360208201527f6f6c6c6563746564000000000000000000000000000000000000000000000000604082015250565b7f4e6f74206f776e65720000000000000000000000000000000000000000000000600082015250565b7f4d6972726f724e6f646553686172643a206765745472616e73616374696f6e4960008201527f6e666f206761732065786365656473206e6574776f726b466565000000000000602082015250565b7f4d6972726f724e6f646553686172643a207472616e73616374696f6e20636f6e60008201527f74656e7473206578636565642030206279746573000000000000000000000000602082015250565b610d0481610a3c565b8114610d0f57600080fd5b5056fea264697066735822122091a28af9188e1a6f408b9a0b827d01ce9587a5c82de98a8b49c62e4d6fb2763264736f6c63430008040033",
  "linkReferences": {},
  "deployedLinkReferences": {}
}