{
  "_format": "hh-sol-artifact-1",
  "contractName": "MirrorNode",
  "sourceName": "contracts/MirrorNode.sol",
  "abi": [
    {
      "inputs": [
        {
          "internalType": "uint32",
          "name": "_maxShardCount",
          "type": "uint32"
        },
        {
          "internalType": "uint256",
          "name": "_maxTransactionsPerShard",
          "type": "uint256"
        },
        {
          "internalType": "uint256",
          "name": "_storageFee",
          "type": "uint256"
        },
        {
          "internalType": "uint256",
          "name": "_apiFee",
          "type": "uint256"
        }
      ],
      "stateMutability": "nonpayable",
      "type": "constructor"
    },
    {
      "anonymous": false,
      "inputs": [
        {
          "indexed": false,
          "internalType": "uint32",
          "name": "shard",
          "type": "uint32"
        },
        {
          "indexed": false,
          "internalType": "uint256",
          "name": "timestamp",
          "type": "uint256"
        }
      ],
      "name": "NewMirrorNodeShard",
      "type": "event"
    },
    {
      "anonymous": false,
      "inputs": [
        {
          "indexed": false,
          "internalType": "uint256",
          "name": "timestamp",
          "type": "uint256"
        },
        {
          "indexed": false,
          "internalType": "uint32",
          "name": "shard",
          "type": "uint32"
        }
      ],
      "name": "TransactionParsed",
      "type": "event"
    },
    {
      "inputs": [],
      "name": "getApiFee",
      "outputs": [
        {
          "internalType": "uint256",
          "name": "",
          "type": "uint256"
        }
      ],
      "stateMutability": "view",
      "type": "function"
    },
    {
      "inputs": [],
      "name": "getMaxShardCount",
      "outputs": [
        {
          "internalType": "uint256",
          "name": "",
          "type": "uint256"
        }
      ],
      "stateMutability": "view",
      "type": "function"
    },
    {
      "inputs": [],
      "name": "getMaxTransactionsPerShard",
      "outputs": [
        {
          "internalType": "uint256",
          "name": "",
          "type": "uint256"
        }
      ],
      "stateMutability": "view",
      "type": "function"
    },
    {
      "inputs": [
        {
          "internalType": "uint8",
          "name": "shard",
          "type": "uint8"
        }
      ],
      "name": "getShardAddress",
      "outputs": [
        {
          "internalType": "address",
          "name": "",
          "type": "address"
        }
      ],
      "stateMutability": "view",
      "type": "function"
    },
    {
      "inputs": [],
      "name": "getShardCount",
      "outputs": [
        {
          "internalType": "uint256",
          "name": "",
          "type": "uint256"
        }
      ],
      "stateMutability": "view",
      "type": "function"
    },
    {
      "inputs": [],
      "name": "getStorageFee",
      "outputs": [
        {
          "internalType": "uint256",
          "name": "",
          "type": "uint256"
        }
      ],
      "stateMutability": "view",
      "type": "function"
    },
    {
      "inputs": [],
      "name": "getTransactionCount",
      "outputs": [
        {
          "internalType": "uint256",
          "name": "",
          "type": "uint256"
        }
      ],
      "stateMutability": "view",
      "type": "function"
    },
    {
      "inputs": [
        {
          "internalType": "uint256",
          "name": "timestamp",
          "type": "uint256"
        }
      ],
      "name": "getTransactionShard",
      "outputs": [
        {
          "internalType": "uint32",
          "name": "",
          "type": "uint32"
        }
      ],
      "stateMutability": "view",
      "type": "function"
    },
    {
      "inputs": [
        {
          "internalType": "uint256",
          "name": "timestamp",
          "type": "uint256"
        },
        {
          "internalType": "string",
          "name": "transaction",
          "type": "string"
        },
        {
          "internalType": "uint32",
          "name": "shard",
          "type": "uint32"
        }
      ],
      "name": "submitTransaction",
      "outputs": [
        {
          "internalType": "bool",
          "name": "",
          "type": "bool"
        }
      ],
      "stateMutability": "payable",
      "type": "function"
    },
    {
      "inputs": [
        {
          "internalType": "uint256",
          "name": "amount",
          "type": "uint256"
        }
      ],
      "name": "withdraw",
      "outputs": [],
      "stateMutability": "nonpayable",
      "type": "function"
    }
  ],
  "bytecode": "0x60806040523480156200001157600080fd5b50604051620027153803806200271583398181016040528101906200003791906200010f565b83600460006101000a81548163ffffffff021916908363ffffffff16021790555082600581905550816008819055508060038190555060006007819055506000600660006101000a81548163ffffffff021916908363ffffffff160217905550336000806101000a81548173ffffffffffffffffffffffffffffffffffffffff021916908373ffffffffffffffffffffffffffffffffffffffff16021790555050505050620001c9565b600081519050620000f28162000195565b92915050565b6000815190506200010981620001af565b92915050565b600080600080608085870312156200012657600080fd5b60006200013687828801620000f8565b94505060206200014987828801620000e1565b93505060406200015c87828801620000e1565b92505060606200016f87828801620000e1565b91505092959194509250565b6000819050919050565b600063ffffffff82169050919050565b620001a0816200017b565b8114620001ac57600080fd5b50565b620001ba8162000185565b8114620001c657600080fd5b50565b61253c80620001d96000396000f3fe6080604052600436106200009e5760003560e01c806351faa810116200006157806351faa8101462000191578063542c2e1e14620001d55780636773042b146200020b578063903b1483146200023b578063e3fe020b146200026b576200009e565b80630494fb6b14620000a35780630da59fb214620000d35780632e1a7d4d14620001035780632e7700f014620001315780634444791f1462000161575b600080fd5b348015620000b057600080fd5b50620000bb620002af565b604051620000ca919062000e69565b60405180910390f35b348015620000e057600080fd5b50620000eb620002b9565b604051620000fa919062000e69565b60405180910390f35b3480156200011057600080fd5b506200012f600480360381019062000129919062000abf565b620002c3565b005b3480156200013e57600080fd5b5062000149620003bf565b60405162000158919062000e69565b60405180910390f35b3480156200016e57600080fd5b5062000179620003c9565b60405162000188919062000e69565b60405180910390f35b3480156200019e57600080fd5b50620001bd6004803603810190620001b7919062000abf565b620003d3565b604051620001cc919062000ee7565b60405180910390f35b620001f36004803603810190620001ed919062000aeb565b62000446565b60405162000202919062000d80565b60405180910390f35b3480156200021857600080fd5b5062000223620008d0565b60405162000232919062000e69565b60405180910390f35b3480156200024857600080fd5b5062000253620008f0565b60405162000262919062000e69565b60405180910390f35b3480156200027857600080fd5b5062000297600480360381019062000291919062000b5a565b62000910565b604051620002a6919062000d06565b60405180910390f35b6000600354905090565b6000600854905090565b60008054906101000a900473ffffffffffffffffffffffffffffffffffffffff1673ffffffffffffffffffffffffffffffffffffffff163373ffffffffffffffffffffffffffffffffffffffff161462000354576040517f08c379a00000000000000000000000000000000000000000000000000000000081526004016200034b9062000e25565b60405180910390fd5b60008054906101000a900473ffffffffffffffffffffffffffffffffffffffff1673ffffffffffffffffffffffffffffffffffffffff166108fc829081150290604051600060405180830381858888f19350505050158015620003bb573d6000803e3d6000fd5b5050565b6000600754905090565b6000600554905090565b6000808210156200041b576040517f08c379a0000000000000000000000000000000000000000000000000000000008152600401620004129062000de1565b60405180910390fd5b6002600083815260200190815260200160002060009054906101000a900463ffffffff169050919050565b600060085434101562000490576040517f08c379a0000000000000000000000000000000000000000000000000000000008152600401620004879062000d9d565b60405180910390fd5b600073ffffffffffffffffffffffffffffffffffffffff163373ffffffffffffffffffffffffffffffffffffffff16141562000503576040517f08c379a0000000000000000000000000000000000000000000000000000000008152600401620004fa9062000dbf565b60405180910390fd5b6000841162000549576040517f08c379a0000000000000000000000000000000000000000000000000000000008152600401620005409062000e47565b60405180910390fd5b600073ffffffffffffffffffffffffffffffffffffffff16600160008463ffffffff1663ffffffff16815260200190815260200160002060009054906101000a900473ffffffffffffffffffffffffffffffffffffffff1673ffffffffffffffffffffffffffffffffffffffff161415620006fe5760008054906101000a900473ffffffffffffffffffffffffffffffffffffffff163060035484600554604051620005f590620009b7565b6200060595949392919062000d23565b604051809103906000f08015801562000622573d6000803e3d6000fd5b50600160008463ffffffff1663ffffffff16815260200190815260200160002060006101000a81548173ffffffffffffffffffffffffffffffffffffffff021916908373ffffffffffffffffffffffffffffffffffffffff1602179055506001600660008282829054906101000a900463ffffffff16620006a4919062001009565b92506101000a81548163ffffffff021916908363ffffffff1602179055507fd702afea3b92db29fd4c9d02b743f506b29667228e8ebb139ce9d55c16980bc88285604051620006f592919062000f04565b60405180910390a15b6000600160008463ffffffff1663ffffffff16815260200190815260200160002060009054906101000a900473ffffffffffffffffffffffffffffffffffffffff1690508073ffffffffffffffffffffffffffffffffffffffff16631642d1e26002346200076d91906200104a565b87876040518463ffffffff1660e01b81526004016200078e92919062000e86565b6020604051808303818588803b158015620007a857600080fd5b505af1158015620007bd573d6000803e3d6000fd5b50505050506040513d601f19601f82011682018060405250810190620007e4919062000a93565b50826002600087815260200190815260200160002060006101000a81548163ffffffff021916908363ffffffff1602179055506001600760008282546200082c919062000fac565b925050819055508073ffffffffffffffffffffffffffffffffffffffff166108fc6002346200085c91906200104a565b9081150290604051600060405180830381858888f1935050505015801562000888573d6000803e3d6000fd5b507f89f1897a11ecd74da6d55b049a818f397fd48fe34ce88d37eb2291b615a146918584604051620008bc92919062000eba565b60405180910390a160019150509392505050565b6000600660009054906101000a900463ffffffff1663ffffffff16905090565b6000600460009054906101000a900463ffffffff1663ffffffff16905090565b6000600660009054906101000a900463ffffffff1663ffffffff168260ff16111562000973576040517f08c379a00000000000000000000000000000000000000000000000000000000081526004016200096a9062000e03565b60405180910390fd5b600160008360ff1663ffffffff16815260200190815260200160002060009054906101000a900473ffffffffffffffffffffffffffffffffffffffff169050919050565b6110ac806200145b83390190565b6000620009dc620009d68462000f5a565b62000f31565b905082815260208101848484011115620009f557600080fd5b62000a0284828562001125565b509392505050565b60008151905062000a1b81620013f2565b92915050565b600082601f83011262000a3357600080fd5b813562000a45848260208601620009c5565b91505092915050565b60008135905062000a5f816200140c565b92915050565b60008135905062000a768162001426565b92915050565b60008135905062000a8d8162001440565b92915050565b60006020828403121562000aa657600080fd5b600062000ab68482850162000a0a565b91505092915050565b60006020828403121562000ad257600080fd5b600062000ae28482850162000a4e565b91505092915050565b60008060006060848603121562000b0157600080fd5b600062000b118682870162000a4e565b935050602084013567ffffffffffffffff81111562000b2f57600080fd5b62000b3d8682870162000a21565b925050604062000b508682870162000a65565b9150509250925092565b60006020828403121562000b6d57600080fd5b600062000b7d8482850162000a7c565b91505092915050565b62000b9181620010e9565b82525050565b62000ba28162001082565b82525050565b62000bb38162001096565b82525050565b600062000bc68262000f90565b62000bd2818562000f9b565b935062000be481856020860162001134565b62000bef816200122d565b840191505092915050565b600062000c0960408362000f9b565b915062000c16826200123e565b604082019050919050565b600062000c3060338362000f9b565b915062000c3d826200128d565b604082019050919050565b600062000c57603b8362000f9b565b915062000c6482620012dc565b604082019050919050565b600062000c7e603b8362000f9b565b915062000c8b826200132b565b604082019050919050565b600062000ca560098362000f9b565b915062000cb2826200137a565b602082019050919050565b600062000ccc602e8362000f9b565b915062000cd982620013a3565b604082019050919050565b62000cef81620010c2565b82525050565b62000d0081620010cc565b82525050565b600060208201905062000d1d600083018462000b97565b92915050565b600060a08201905062000d3a600083018862000b86565b62000d49602083018762000b97565b62000d58604083018662000ce4565b62000d67606083018562000cf5565b62000d76608083018462000ce4565b9695505050505050565b600060208201905062000d97600083018462000ba8565b92915050565b6000602082019050818103600083015262000db88162000bfa565b9050919050565b6000602082019050818103600083015262000dda8162000c21565b9050919050565b6000602082019050818103600083015262000dfc8162000c48565b9050919050565b6000602082019050818103600083015262000e1e8162000c6f565b9050919050565b6000602082019050818103600083015262000e408162000c96565b9050919050565b6000602082019050818103600083015262000e628162000cbd565b9050919050565b600060208201905062000e80600083018462000ce4565b92915050565b600060408201905062000e9d600083018562000ce4565b818103602083015262000eb1818462000bb9565b90509392505050565b600060408201905062000ed1600083018562000ce4565b62000ee0602083018462000cf5565b9392505050565b600060208201905062000efe600083018462000cf5565b92915050565b600060408201905062000f1b600083018562000cf5565b62000f2a602083018462000ce4565b9392505050565b600062000f3d62000f50565b905062000f4b82826200116a565b919050565b6000604051905090565b600067ffffffffffffffff82111562000f785762000f77620011fe565b5b62000f83826200122d565b9050602081019050919050565b600081519050919050565b600082825260208201905092915050565b600062000fb982620010c2565b915062000fc683620010c2565b9250827fffffffffffffffffffffffffffffffffffffffffffffffffffffffffffffffff0382111562000ffe5762000ffd620011a0565b5b828201905092915050565b60006200101682620010cc565b91506200102383620010cc565b92508263ffffffff038211156200103f576200103e620011a0565b5b828201905092915050565b60006200105782620010c2565b91506200106483620010c2565b925082620010775762001076620011cf565b5b828204905092915050565b60006200108f82620010a2565b9050919050565b60008115159050919050565b600073ffffffffffffffffffffffffffffffffffffffff82169050919050565b6000819050919050565b600063ffffffff82169050919050565b600060ff82169050919050565b6000620010f682620010fd565b9050919050565b60006200110a8262001111565b9050919050565b60006200111e82620010a2565b9050919050565b82818337600083830152505050565b60005b838110156200115457808201518184015260208101905062001137565b8381111562001164576000848401525b50505050565b62001175826200122d565b810181811067ffffffffffffffff82111715620011975762001196620011fe565b5b80604052505050565b7f4e487b7100000000000000000000000000000000000000000000000000000000600052601160045260246000fd5b7f4e487b7100000000000000000000000000000000000000000000000000000000600052601260045260246000fd5b7f4e487b7100000000000000000000000000000000000000000000000000000000600052604160045260246000fd5b6000601f19601f8301169050919050565b7f4d6972726f724e6f64653a207375626d69745472616e73616374696f6e20776960008201527f746820696e61646571756174652073746f72616765466565207061796d656e74602082015250565b7f4d6972726f724e6f64653a207375626d69745472616e73616374696f6e20667260008201527f6f6d20746865207a65726f206164647265737300000000000000000000000000602082015250565b7f4d6972726f724e6f64653a206765745472616e73616374696f6e53686172642060008201527f77697468206f7574206f662072616e67652074696d657374616d700000000000602082015250565b7f4d6972726f724e6f64653a20676574536861726441646472657373207769746860008201527f206f7574206f662072616e676520736861726420696e74656765720000000000602082015250565b7f4e6f74206f776e65720000000000000000000000000000000000000000000000600082015250565b7f4d6972726f724e6f64653a2074696d657374616d702073686f756c642062652060008201527f67726561746572207468616e2030000000000000000000000000000000000000602082015250565b620013fd8162001096565b81146200140957600080fd5b50565b6200141781620010c2565b81146200142357600080fd5b50565b6200143181620010cc565b81146200143d57600080fd5b50565b6200144b81620010dc565b81146200145757600080fd5b5056fe60806040523480156200001157600080fd5b50604051620010ac380380620010ac833981810160405281019062000037919062000147565b83600260006101000a81548173ffffffffffffffffffffffffffffffffffffffff021916908373ffffffffffffffffffffffffffffffffffffffff1602179055508260038190555081600260146101000a81548163ffffffff021916908363ffffffff160217905550846000806101000a81548173ffffffffffffffffffffffffffffffffffffffff021916908373ffffffffffffffffffffffffffffffffffffffff1602179055508060078190555060006004819055506000600581905550505050505062000265565b600081519050620001138162000217565b92915050565b6000815190506200012a8162000231565b92915050565b60008151905062000141816200024b565b92915050565b600080600080600060a086880312156200016057600080fd5b6000620001708882890162000102565b9550506020620001838882890162000102565b9450506040620001968882890162000119565b9350506060620001a98882890162000130565b9250506080620001bc8882890162000119565b9150509295509295909350565b6000620001d682620001dd565b9050919050565b600073ffffffffffffffffffffffffffffffffffffffff82169050919050565b6000819050919050565b600063ffffffff82169050919050565b6200022281620001c9565b81146200022e57600080fd5b50565b6200023c81620001fd565b81146200024857600080fd5b50565b620002568162000207565b81146200026257600080fd5b50565b610e3780620002756000396000f3fe6080604052600436106100745760003560e01c806339120b6d1161004e57806339120b6d14610104578063468765081461012f578063d7aa82731461015a578063e37a16671461018a5761007b565b80631642d1e2146100805780632e1a7d4d146100b0578063329d2ef7146100d95761007b565b3661007b57005b600080fd5b61009a60048036038101906100959190610789565b6101b5565b6040516100a791906108f2565b60405180910390f35b3480156100bc57600080fd5b506100d760048036038101906100d29190610760565b6102b8565b005b3480156100e557600080fd5b506100ee6103b0565b6040516100fb91906109cf565b60405180910390f35b34801561011057600080fd5b506101196103ba565b60405161012691906109cf565b60405180910390f35b34801561013b57600080fd5b506101446103c4565b60405161015191906109cf565b60405180910390f35b610174600480360381019061016f9190610760565b61045d565b604051610181919061090d565b60405180910390f35b34801561019657600080fd5b5061019f610626565b6040516101ac91906109ea565b60405180910390f35b600060075460016006546101c99190610aa0565b111561020a576040517f08c379a00000000000000000000000000000000000000000000000000000000081526004016102019061096f565b60405180910390fd5b81600160008581526020019081526020016000209080519060200190610231929190610640565b506001600660008282546102459190610aa0565b925050819055503073ffffffffffffffffffffffffffffffffffffffff167faf846d22986843e3d25981b94ce181adc556b334ccfdd8225762d7f709841df0600260149054906101000a900463ffffffff16856040516102a6929190610a05565b60405180910390a26001905092915050565b60008054906101000a900473ffffffffffffffffffffffffffffffffffffffff1673ffffffffffffffffffffffffffffffffffffffff163373ffffffffffffffffffffffffffffffffffffffff1614610346576040517f08c379a000000000000000000000000000000000000000000000000000000000815260040161033d9061094f565b60405180910390fd5b60008054906101000a900473ffffffffffffffffffffffffffffffffffffffff1673ffffffffffffffffffffffffffffffffffffffff166108fc829081150290604051600060405180830381858888f193505050501580156103ac573d6000803e3d6000fd5b5050565b6000600554905090565b6000600654905090565b60008060009054906101000a900473ffffffffffffffffffffffffffffffffffffffff1673ffffffffffffffffffffffffffffffffffffffff163373ffffffffffffffffffffffffffffffffffffffff1614610455576040517f08c379a000000000000000000000000000000000000000000000000000000000815260040161044c9061092f565b60405180910390fd5b600454905090565b60606003543410156104a4576040517f08c379a000000000000000000000000000000000000000000000000000000000815260040161049b9061098f565b60405180910390fd5b60006001600084815260200190815260200160002080546104c490610b5e565b80601f01602080910402602001604051908101604052809291908181526020018280546104f090610b5e565b801561053d5780601f106105125761010080835404028352916020019161053d565b820191906000526020600020905b81548152906001019060200180831161052057829003601f168201915b505050505090506000815111610588576040517f08c379a000000000000000000000000000000000000000000000000000000000815260040161057f906109af565b60405180910390fd5b346004600082825461059a9190610aa0565b925050819055506001600560008282546105b49190610aa0565b925050819055503073ffffffffffffffffffffffffffffffffffffffff167fd45ff9b1e6cdefeb0ff51a3f8a94a27e567cb713991ec25d5897ea8d4a9bf7a5600260149054906101000a900463ffffffff1685604051610615929190610a05565b60405180910390a280915050919050565b6000600260149054906101000a900463ffffffff16905090565b82805461064c90610b5e565b90600052602060002090601f01602090048101928261066e57600085556106b5565b82601f1061068757805160ff19168380011785556106b5565b828001600101855582156106b5579182015b828111156106b4578251825591602001919060010190610699565b5b5090506106c291906106c6565b5090565b5b808211156106df5760008160009055506001016106c7565b5090565b60006106f66106f184610a53565b610a2e565b90508281526020810184848401111561070e57600080fd5b610719848285610b1c565b509392505050565b600082601f83011261073257600080fd5b81356107428482602086016106e3565b91505092915050565b60008135905061075a81610dea565b92915050565b60006020828403121561077257600080fd5b60006107808482850161074b565b91505092915050565b6000806040838503121561079c57600080fd5b60006107aa8582860161074b565b925050602083013567ffffffffffffffff8111156107c757600080fd5b6107d385828601610721565b9150509250929050565b6107e681610af6565b82525050565b60006107f782610a84565b6108018185610a8f565b9350610811818560208601610b2b565b61081a81610c4e565b840191505092915050565b6000610832604883610a8f565b915061083d82610c5f565b606082019050919050565b6000610855600983610a8f565b915061086082610cd4565b602082019050919050565b6000610878603783610a8f565b915061088382610cfd565b604082019050919050565b600061089b603a83610a8f565b91506108a682610d4c565b604082019050919050565b60006108be603483610a8f565b91506108c982610d9b565b604082019050919050565b6108dd81610b02565b82525050565b6108ec81610b0c565b82525050565b600060208201905061090760008301846107dd565b92915050565b6000602082019050818103600083015261092781846107ec565b905092915050565b6000602082019050818103600083015261094881610825565b9050919050565b6000602082019050818103600083015261096881610848565b9050919050565b600060208201905081810360008301526109888161086b565b9050919050565b600060208201905081810360008301526109a88161088e565b9050919050565b600060208201905081810360008301526109c8816108b1565b9050919050565b60006020820190506109e460008301846108d4565b92915050565b60006020820190506109ff60008301846108e3565b92915050565b6000604082019050610a1a60008301856108e3565b610a2760208301846108d4565b9392505050565b6000610a38610a49565b9050610a448282610b90565b919050565b6000604051905090565b600067ffffffffffffffff821115610a6e57610a6d610c1f565b5b610a7782610c4e565b9050602081019050919050565b600081519050919050565b600082825260208201905092915050565b6000610aab82610b02565b9150610ab683610b02565b9250827fffffffffffffffffffffffffffffffffffffffffffffffffffffffffffffffff03821115610aeb57610aea610bc1565b5b828201905092915050565b60008115159050919050565b6000819050919050565b600063ffffffff82169050919050565b82818337600083830152505050565b60005b83811015610b49578082015181840152602081019050610b2e565b83811115610b58576000848401525b50505050565b60006002820490506001821680610b7657607f821691505b60208210811415610b8a57610b89610bf0565b5b50919050565b610b9982610c4e565b810181811067ffffffffffffffff82111715610bb857610bb7610c1f565b5b80604052505050565b7f4e487b7100000000000000000000000000000000000000000000000000000000600052601160045260246000fd5b7f4e487b7100000000000000000000000000000000000000000000000000000000600052602260045260246000fd5b7f4e487b7100000000000000000000000000000000000000000000000000000000600052604160045260246000fd5b6000601f19601f8301169050919050565b7f4d6972726f724e6f646553686172643a20676574546f74616c46656573436f6c60008201527f6c6563746564206e6f6e206f776e657220636865636b696e672066656573206360208201527f6f6c6c6563746564000000000000000000000000000000000000000000000000604082015250565b7f4e6f74206f776e65720000000000000000000000000000000000000000000000600082015250565b7f4d6972726f724e6f646553686172643a2073746f72655472616e73616374696f60008201527f6e206d6178207472616e73616374696f6e20636f756e74000000000000000000602082015250565b7f4d6972726f724e6f646553686172643a206765745472616e73616374696f6e4960008201527f6e666f206761732065786365656473206e6574776f726b466565000000000000602082015250565b7f4d6972726f724e6f646553686172643a207472616e73616374696f6e20636f6e60008201527f74656e7473206578636565642030206279746573000000000000000000000000602082015250565b610df381610b02565b8114610dfe57600080fd5b5056fea264697066735822122068e47d8983fb0650b09ff56975ee753db077e4c9d71ed783b139dbccb4df3d4264736f6c63430008040033a264697066735822122084404d67b846d6fa55d7139ca2f1d09238a93a8bd3a6b95a07a7bc433698d80a64736f6c63430008040033",
  "linkReferences": {},
  "deployedLinkReferences": {}
}