{
  "_format": "hh-sol-artifact-1",
  "contractName": "MirrorNode",
  "sourceName": "contracts/MirrorNode.sol",
  "abi": [
    {
      "inputs": [
        {
          "internalType": "uint8",
          "name": "_maxShardCount",
          "type": "uint8"
        },
        {
          "internalType": "uint256",
          "name": "_maxTransactionsPerShard",
          "type": "uint256"
        },
        {
          "internalType": "uint256",
          "name": "_storageFee",
          "type": "uint256"
        },
        {
          "internalType": "uint256",
          "name": "_apiFee",
          "type": "uint256"
        }
      ],
      "stateMutability": "nonpayable",
      "type": "constructor"
    },
    {
      "anonymous": false,
      "inputs": [
        {
          "indexed": false,
          "internalType": "uint8",
          "name": "shard",
          "type": "uint8"
        },
        {
          "indexed": false,
          "internalType": "uint256",
          "name": "timestamp",
          "type": "uint256"
        }
      ],
      "name": "NewMirrorNodeShard",
      "type": "event"
    },
    {
      "anonymous": false,
      "inputs": [
        {
          "indexed": false,
          "internalType": "uint8",
          "name": "shard",
          "type": "uint8"
        },
        {
          "indexed": false,
          "internalType": "uint256",
          "name": "timestamp",
          "type": "uint256"
        },
        {
          "indexed": false,
          "internalType": "string",
          "name": "message",
          "type": "string"
        }
      ],
      "name": "SubmitTransactionLog",
      "type": "event"
    },
    {
      "anonymous": false,
      "inputs": [
        {
          "indexed": false,
          "internalType": "uint256",
          "name": "timestamp",
          "type": "uint256"
        },
        {
          "indexed": false,
          "internalType": "uint8",
          "name": "shard",
          "type": "uint8"
        }
      ],
      "name": "TransactionParsed",
      "type": "event"
    },
    {
      "inputs": [],
      "name": "getApiFee",
      "outputs": [
        {
          "internalType": "uint256",
          "name": "",
          "type": "uint256"
        }
      ],
      "stateMutability": "view",
      "type": "function"
    },
    {
      "inputs": [],
      "name": "getMaxShardCount",
      "outputs": [
        {
          "internalType": "uint256",
          "name": "",
          "type": "uint256"
        }
      ],
      "stateMutability": "view",
      "type": "function"
    },
    {
      "inputs": [],
      "name": "getMaxTransactionsPerShard",
      "outputs": [
        {
          "internalType": "uint256",
          "name": "",
          "type": "uint256"
        }
      ],
      "stateMutability": "view",
      "type": "function"
    },
    {
      "inputs": [
        {
          "internalType": "uint8",
          "name": "shard",
          "type": "uint8"
        }
      ],
      "name": "getShardAddress",
      "outputs": [
        {
          "internalType": "address",
          "name": "",
          "type": "address"
        }
      ],
      "stateMutability": "view",
      "type": "function"
    },
    {
      "inputs": [],
      "name": "getShardCount",
      "outputs": [
        {
          "internalType": "uint256",
          "name": "",
          "type": "uint256"
        }
      ],
      "stateMutability": "view",
      "type": "function"
    },
    {
      "inputs": [],
      "name": "getStorageFee",
      "outputs": [
        {
          "internalType": "uint256",
          "name": "",
          "type": "uint256"
        }
      ],
      "stateMutability": "view",
      "type": "function"
    },
    {
      "inputs": [],
      "name": "getTransactionCount",
      "outputs": [
        {
          "internalType": "uint256",
          "name": "",
          "type": "uint256"
        }
      ],
      "stateMutability": "view",
      "type": "function"
    },
    {
      "inputs": [
        {
          "internalType": "uint256",
          "name": "timestamp",
          "type": "uint256"
        }
      ],
      "name": "getTransactionShard",
      "outputs": [
        {
          "internalType": "uint8",
          "name": "",
          "type": "uint8"
        }
      ],
      "stateMutability": "view",
      "type": "function"
    },
    {
      "inputs": [
        {
          "internalType": "uint256",
          "name": "timestamp",
          "type": "uint256"
        },
        {
          "internalType": "string",
          "name": "transaction",
          "type": "string"
        },
        {
          "internalType": "uint8",
          "name": "shard",
          "type": "uint8"
        }
      ],
      "name": "submitTransaction",
      "outputs": [
        {
          "internalType": "bool",
          "name": "",
          "type": "bool"
        }
      ],
      "stateMutability": "payable",
      "type": "function"
    },
    {
      "inputs": [
        {
          "internalType": "uint256",
          "name": "timestamp",
          "type": "uint256"
        },
        {
          "internalType": "string",
          "name": "transaction",
          "type": "string"
        },
        {
          "internalType": "uint8",
          "name": "shard",
          "type": "uint8"
        }
      ],
      "name": "submitTransactionSimple",
      "outputs": [
        {
          "internalType": "bool",
          "name": "",
          "type": "bool"
        }
      ],
      "stateMutability": "nonpayable",
      "type": "function"
    },
    {
      "inputs": [
        {
          "internalType": "uint256",
          "name": "amount",
          "type": "uint256"
        }
      ],
      "name": "withdraw",
      "outputs": [],
      "stateMutability": "nonpayable",
      "type": "function"
    }
  ],
  "bytecode": "0x60806040523480156200001157600080fd5b50604051620032fd380380620032fd833981810160405281019062000037919062000103565b83600460006101000a81548160ff021916908360ff16021790555082600581905550816008819055508060038190555060006007819055506000600660006101000a81548160ff021916908360ff160217905550336000806101000a81548173ffffffffffffffffffffffffffffffffffffffff021916908373ffffffffffffffffffffffffffffffffffffffff16021790555050505050620001ba565b600081519050620000e68162000186565b92915050565b600081519050620000fd81620001a0565b92915050565b600080600080608085870312156200011a57600080fd5b60006200012a87828801620000ec565b94505060206200013d87828801620000d5565b93505060406200015087828801620000d5565b92505060606200016387828801620000d5565b91505092959194509250565b6000819050919050565b600060ff82169050919050565b62000191816200016f565b81146200019d57600080fd5b50565b620001ab8162000179565b8114620001b757600080fd5b50565b61313380620001ca6000396000f3fe608060405260043610620000aa5760003560e01c806351faa810116200006d57806351faa810146200019d5780635ffa77c914620001e15780636773042b1462000217578063903b14831462000247578063e3fe020b1462000277578063f648f27514620002bb57620000aa565b80630494fb6b14620000af5780630da59fb214620000df5780632e1a7d4d146200010f5780632e7700f0146200013d5780634444791f146200016d575b600080fd5b348015620000bc57600080fd5b50620000c7620002ff565b604051620000d69190620013ef565b60405180910390f35b348015620000ec57600080fd5b50620000f762000309565b604051620001069190620013ef565b60405180910390f35b3480156200011c57600080fd5b506200013b600480360381019062000135919062000e1a565b62000313565b005b3480156200014a57600080fd5b50620001556200040f565b604051620001649190620013ef565b60405180910390f35b3480156200017a57600080fd5b506200018562000419565b604051620001949190620013ef565b60405180910390f35b348015620001aa57600080fd5b50620001c96004803603810190620001c3919062000e1a565b62000423565b604051620001d891906200146d565b60405180910390f35b620001ff6004803603810190620001f9919062000e46565b62000493565b6040516200020e919062001306565b60405180910390f35b3480156200022457600080fd5b506200022f62000bb1565b6040516200023e9190620013ef565b60405180910390f35b3480156200025457600080fd5b506200025f62000bcb565b6040516200026e9190620013ef565b60405180910390f35b3480156200028457600080fd5b50620002a360048036038101906200029d919062000eb5565b62000be5565b604051620002b291906200128c565b60405180910390f35b348015620002c857600080fd5b50620002e76004803603810190620002e1919062000e46565b62000c83565b604051620002f6919062001306565b60405180910390f35b6000600354905090565b6000600854905090565b60008054906101000a900473ffffffffffffffffffffffffffffffffffffffff1673ffffffffffffffffffffffffffffffffffffffff163373ffffffffffffffffffffffffffffffffffffffff1614620003a4576040517f08c379a00000000000000000000000000000000000000000000000000000000081526004016200039b90620013ab565b60405180910390fd5b60008054906101000a900473ffffffffffffffffffffffffffffffffffffffff1673ffffffffffffffffffffffffffffffffffffffff166108fc829081150290604051600060405180830381858888f193505050501580156200040b573d6000803e3d6000fd5b5050565b6000600754905090565b6000600554905090565b6000808210156200046b576040517f08c379a0000000000000000000000000000000000000000000000000000000008152600401620004629062001367565b60405180910390fd5b6002600083815260200190815260200160002060009054906101000a900460ff169050919050565b60007fefbb7f6daab2bffbfb633f20af6434607a0667d68d6492a3dd6ae741dca617ec828585604051602001620004cb91906200123c565b604051602081830303815290604052604051620004eb93929190620014b7565b60405180910390a16008543410156200053b576040517f08c379a0000000000000000000000000000000000000000000000000000000008152600401620005329062001323565b60405180910390fd5b7fefbb7f6daab2bffbfb633f20af6434607a0667d68d6492a3dd6ae741dca617ec82856040516200056e92919062001603565b60405180910390a1600073ffffffffffffffffffffffffffffffffffffffff163373ffffffffffffffffffffffffffffffffffffffff161415620005e9576040517f08c379a0000000000000000000000000000000000000000000000000000000008152600401620005e09062001345565b60405180910390fd5b7fefbb7f6daab2bffbfb633f20af6434607a0667d68d6492a3dd6ae741dca617ec82856040516200061c9291906200153d565b60405180910390a1600084116200066a576040517f08c379a00000000000000000000000000000000000000000000000000000000081526004016200066190620013cd565b60405180910390fd5b7fefbb7f6daab2bffbfb633f20af6434607a0667d68d6492a3dd6ae741dca617ec82856040516200069d92919062001645565b60405180910390a1600073ffffffffffffffffffffffffffffffffffffffff16600160008460ff1660ff16815260200190815260200160002060009054906101000a900473ffffffffffffffffffffffffffffffffffffffff1673ffffffffffffffffffffffffffffffffffffffff16141562000917577fefbb7f6daab2bffbfb633f20af6434607a0667d68d6492a3dd6ae741dca617ec828560405162000747929190620014fb565b60405180910390a160008054906101000a900473ffffffffffffffffffffffffffffffffffffffff163060035484600554604051620007869062000d29565b62000796959493929190620012a9565b604051809103906000f080158015620007b3573d6000803e3d6000fd5b50600160008460ff1660ff16815260200190815260200160002060006101000a81548173ffffffffffffffffffffffffffffffffffffffff021916908373ffffffffffffffffffffffffffffffffffffffff1602179055507fefbb7f6daab2bffbfb633f20af6434607a0667d68d6492a3dd6ae741dca617ec8285600160008660ff1660ff16815260200190815260200160002060009054906101000a900473ffffffffffffffffffffffffffffffffffffffff166040516020016200087a919062001262565b6040516020818303038152906040526040516200089a93929190620014b7565b60405180910390a16001600660008282829054906101000a900460ff16620008c391906200176a565b92506101000a81548160ff021916908360ff1602179055507faeb54827791802cc8503ca56c116c061ae707234e5848d478013c5190456bbb782856040516200090e9291906200148a565b60405180910390a15b6000600160008460ff1660ff16815260200190815260200160002060009054906101000a900473ffffffffffffffffffffffffffffffffffffffff1690507fefbb7f6daab2bffbfb633f20af6434607a0667d68d6492a3dd6ae741dca617ec8386836040516020016200098b919062001212565b604051602081830303815290604052604051620009ab93929190620014b7565b60405180910390a18073ffffffffffffffffffffffffffffffffffffffff16631642d1e2600234620009de9190620017a8565b87876040518463ffffffff1660e01b8152600401620009ff9291906200140c565b6020604051808303818588803b15801562000a1957600080fd5b505af115801562000a2e573d6000803e3d6000fd5b50505050506040513d601f19601f8201168201806040525081019062000a55919062000dee565b507fefbb7f6daab2bffbfb633f20af6434607a0667d68d6492a3dd6ae741dca617ec838660405162000a89929190620015c1565b60405180910390a1826002600087815260200190815260200160002060006101000a81548160ff021916908360ff16021790555060016007600082825462000ad291906200170d565b925050819055507fefbb7f6daab2bffbfb633f20af6434607a0667d68d6492a3dd6ae741dca617ec838660405162000b0c9291906200157f565b60405180910390a18073ffffffffffffffffffffffffffffffffffffffff166108fc60023462000b3d9190620017a8565b9081150290604051600060405180830381858888f1935050505015801562000b69573d6000803e3d6000fd5b507f29c0183cf16a8df2323b90f7691ffb69e259c062ec23d2ccff072f14d624f128858460405162000b9d92919062001440565b60405180910390a160019150509392505050565b6000600660009054906101000a900460ff1660ff16905090565b6000600460009054906101000a900460ff1660ff16905090565b6000600660009054906101000a900460ff1660ff168260ff16111562000c42576040517f08c379a000000000000000000000000000000000000000000000000000000000815260040162000c399062001389565b60405180910390fd5b600160008360ff1660ff16815260200190815260200160002060009054906101000a900473ffffffffffffffffffffffffffffffffffffffff169050919050565b60007fefbb7f6daab2bffbfb633f20af6434607a0667d68d6492a3dd6ae741dca617ec82858560405160200162000cbb91906200123c565b60405160208183030381529060405260405162000cdb93929190620014b7565b60405180910390a17f29c0183cf16a8df2323b90f7691ffb69e259c062ec23d2ccff072f14d624f128848360405162000d1692919062001440565b60405180910390a1600190509392505050565b61137d8062001d8183390190565b600062000d4e62000d4884620016b0565b62001687565b90508281526020810184848401111562000d6757600080fd5b62000d7484828562001873565b509392505050565b60008151905062000d8d8162001d32565b92915050565b600082601f83011262000da557600080fd5b813562000db784826020860162000d37565b91505092915050565b60008135905062000dd18162001d4c565b92915050565b60008135905062000de88162001d66565b92915050565b60006020828403121562000e0157600080fd5b600062000e118482850162000d7c565b91505092915050565b60006020828403121562000e2d57600080fd5b600062000e3d8482850162000dc0565b91505092915050565b60008060006060848603121562000e5c57600080fd5b600062000e6c8682870162000dc0565b935050602084013567ffffffffffffffff81111562000e8a57600080fd5b62000e988682870162000d93565b925050604062000eab8682870162000dd7565b9150509250925092565b60006020828403121562000ec857600080fd5b600062000ed88482850162000dd7565b91505092915050565b62000eec8162001837565b82525050565b62000efd81620017e0565b82525050565b62000f1862000f1282620017e0565b620018ee565b82525050565b62000f2981620017f4565b82525050565b600062000f3c82620016e6565b62000f488185620016f1565b935062000f5a81856020860162001882565b62000f6581620019a3565b840191505092915050565b600062000f7d82620016e6565b62000f89818562001702565b935062000f9b81856020860162001882565b80840191505092915050565b600062000fb6602e8362001702565b915062000fc382620019c1565b602e82019050919050565b600062000fdd601e8362001702565b915062000fea8262001a10565b601e82019050919050565b600062001004604083620016f1565b9150620010118262001a39565b604082019050919050565b60006200102b603383620016f1565b9150620010388262001a88565b604082019050919050565b600062001052603b83620016f1565b91506200105f8262001ad7565b604082019050919050565b600062001079602083620016f1565b9150620010868262001b26565b602082019050919050565b6000620010a0601283620016f1565b9150620010ad8262001b4f565b602082019050919050565b6000620010c7601b83620016f1565b9150620010d48262001b78565b602082019050919050565b6000620010ee603b83620016f1565b9150620010fb8262001ba1565b604082019050919050565b600062001115601283620016f1565b9150620011228262001bf0565b602082019050919050565b60006200113c601583620016f1565b9150620011498262001c19565b602082019050919050565b600062001163600983620016f1565b9150620011708262001c42565b602082019050919050565b60006200118a602e83620016f1565b9150620011978262001c6b565b604082019050919050565b6000620011b160278362001702565b9150620011be8262001cba565b602782019050919050565b6000620011d8601483620016f1565b9150620011e58262001d09565b602082019050919050565b620011fb8162001820565b82525050565b6200120c816200182a565b82525050565b60006200121f8262000fa7565b91506200122d828462000f03565b60148201915081905092915050565b6000620012498262000fce565b915062001257828462000f70565b915081905092915050565b60006200126f82620011a2565b91506200127d828462000f03565b60148201915081905092915050565b6000602082019050620012a3600083018462000ef2565b92915050565b600060a082019050620012c0600083018862000ee1565b620012cf602083018762000ef2565b620012de6040830186620011f0565b620012ed606083018562001201565b620012fc6080830184620011f0565b9695505050505050565b60006020820190506200131d600083018462000f1e565b92915050565b600060208201905081810360008301526200133e8162000ff5565b9050919050565b6000602082019050818103600083015262001360816200101c565b9050919050565b60006020820190508181036000830152620013828162001043565b9050919050565b60006020820190508181036000830152620013a481620010df565b9050919050565b60006020820190508181036000830152620013c68162001154565b9050919050565b60006020820190508181036000830152620013e8816200117b565b9050919050565b6000602082019050620014066000830184620011f0565b92915050565b6000604082019050620014236000830185620011f0565b818103602083015262001437818462000f2f565b90509392505050565b6000604082019050620014576000830185620011f0565b62001466602083018462001201565b9392505050565b600060208201905062001484600083018462001201565b92915050565b6000604082019050620014a1600083018562001201565b620014b06020830184620011f0565b9392505050565b6000606082019050620014ce600083018662001201565b620014dd6020830185620011f0565b8181036040830152620014f1818462000f2f565b9050949350505050565b600060608201905062001512600083018562001201565b620015216020830184620011f0565b818103604083015262001534816200106a565b90509392505050565b600060608201905062001554600083018562001201565b620015636020830184620011f0565b8181036040830152620015768162001091565b90509392505050565b600060608201905062001596600083018562001201565b620015a56020830184620011f0565b8181036040830152620015b881620010b8565b90509392505050565b6000606082019050620015d8600083018562001201565b620015e76020830184620011f0565b8181036040830152620015fa8162001106565b90509392505050565b60006060820190506200161a600083018562001201565b620016296020830184620011f0565b81810360408301526200163c816200112d565b90509392505050565b60006060820190506200165c600083018562001201565b6200166b6020830184620011f0565b81810360408301526200167e81620011c9565b90509392505050565b600062001693620016a6565b9050620016a18282620018b8565b919050565b6000604051905090565b600067ffffffffffffffff821115620016ce57620016cd62001974565b5b620016d982620019a3565b9050602081019050919050565b600081519050919050565b600082825260208201905092915050565b600081905092915050565b60006200171a8262001820565b9150620017278362001820565b9250827fffffffffffffffffffffffffffffffffffffffffffffffffffffffffffffffff038211156200175f576200175e62001916565b5b828201905092915050565b600062001777826200182a565b915062001784836200182a565b92508260ff038211156200179d576200179c62001916565b5b828201905092915050565b6000620017b58262001820565b9150620017c28362001820565b925082620017d557620017d462001945565b5b828204905092915050565b6000620017ed8262001800565b9050919050565b60008115159050919050565b600073ffffffffffffffffffffffffffffffffffffffff82169050919050565b6000819050919050565b600060ff82169050919050565b600062001844826200184b565b9050919050565b600062001858826200185f565b9050919050565b60006200186c8262001800565b9050919050565b82818337600083830152505050565b60005b83811015620018a257808201518184015260208101905062001885565b83811115620018b2576000848401525b50505050565b620018c382620019a3565b810181811067ffffffffffffffff82111715620018e557620018e462001974565b5b80604052505050565b6000620018fb8262001902565b9050919050565b60006200190f82620019b4565b9050919050565b7f4e487b7100000000000000000000000000000000000000000000000000000000600052601160045260246000fd5b7f4e487b7100000000000000000000000000000000000000000000000000000000600052601260045260246000fd5b7f4e487b7100000000000000000000000000000000000000000000000000000000600052604160045260246000fd5b6000601f19601f8301169050919050565b60008160601b9050919050565b7f73746f72696e67206e6577207472616e73616374696f6e20696e204d6972726f60008201527f724e6f6465536861726420617420000000000000000000000000000000000000602082015250565b7f7375626d69745472616e73616374696f6e2063616c6c65642077697468200000600082015250565b7f4d6972726f724e6f64653a207375626d69745472616e73616374696f6e20776960008201527f746820696e61646571756174652073746f72616765466565207061796d656e74602082015250565b7f4d6972726f724e6f64653a207375626d69745472616e73616374696f6e20667260008201527f6f6d20746865207a65726f206164647265737300000000000000000000000000602082015250565b7f4d6972726f724e6f64653a206765745472616e73616374696f6e53686172642060008201527f77697468206f7574206f662072616e67652074696d657374616d700000000000602082015250565b7f736861726420646f65736e27742065786973742c2077696c6c20637265617465600082015250565b7f616464726573732061636365707461626c650000000000000000000000000000600082015250565b7f7570646174656420636f756e747320616e64206d617070696e67730000000000600082015250565b7f4d6972726f724e6f64653a20676574536861726441646472657373207769746860008201527f206f7574206f662072616e676520736861726420696e74656765720000000000602082015250565b7f73746f726564207472616e73616374696f6e0000000000000000000000000000600082015250565b7f73746f726167654665652061636365707461626c650000000000000000000000600082015250565b7f4e6f74206f776e65720000000000000000000000000000000000000000000000600082015250565b7f4d6972726f724e6f64653a2074696d657374616d702073686f756c642062652060008201527f67726561746572207468616e2030000000000000000000000000000000000000602082015250565b7f6e6577204d6972726f724e6f6465536861726420636f6e74726163742063726560008201527f6174652061742000000000000000000000000000000000000000000000000000602082015250565b7f74696d657374616d702061636365707461626c65000000000000000000000000600082015250565b62001d3d81620017f4565b811462001d4957600080fd5b50565b62001d578162001820565b811462001d6357600080fd5b50565b62001d71816200182a565b811462001d7d57600080fd5b5056fe60806040523480156200001157600080fd5b506040516200137d3803806200137d833981810160405281019062000037919062000141565b83600260006101000a81548173ffffffffffffffffffffffffffffffffffffffff021916908373ffffffffffffffffffffffffffffffffffffffff1602179055508260038190555081600260146101000a81548160ff021916908360ff160217905550846000806101000a81548173ffffffffffffffffffffffffffffffffffffffff021916908373ffffffffffffffffffffffffffffffffffffffff160217905550806007819055506000600481905550600060058190555050505050506200025c565b6000815190506200010d816200020e565b92915050565b600081519050620001248162000228565b92915050565b6000815190506200013b8162000242565b92915050565b600080600080600060a086880312156200015a57600080fd5b60006200016a88828901620000fc565b95505060206200017d88828901620000fc565b9450506040620001908882890162000113565b9350506060620001a3888289016200012a565b9250506080620001b68882890162000113565b9150509295509295909350565b6000620001d082620001d7565b9050919050565b600073ffffffffffffffffffffffffffffffffffffffff82169050919050565b6000819050919050565b600060ff82169050919050565b6200021981620001c3565b81146200022557600080fd5b50565b6200023381620001f7565b81146200023f57600080fd5b50565b6200024d8162000201565b81146200025957600080fd5b50565b611111806200026c6000396000f3fe6080604052600436106100705760003560e01c806339120b6d1161004e57806339120b6d146100f95780634687650814610124578063d7aa82731461014f578063e37a16671461017f57610070565b80631642d1e2146100755780632e1a7d4d146100a5578063329d2ef7146100ce575b600080fd5b61008f600480360381019061008a919061086e565b6101aa565b60405161009c9190610a93565b60405180910390f35b3480156100b157600080fd5b506100cc60048036038101906100c79190610845565b6103a3565b005b3480156100da57600080fd5b506100e361049b565b6040516100f09190610b70565b60405180910390f35b34801561010557600080fd5b5061010e6104a5565b60405161011b9190610b70565b60405180910390f35b34801561013057600080fd5b506101396104af565b6040516101469190610b70565b60405180910390f35b61016960048036038101906101649190610845565b610548565b6040516101769190610aae565b60405180910390f35b34801561018b57600080fd5b5061019461070e565b6040516101a19190610b8b565b60405180910390f35b60007fb92b3b10914fc62a536d91e7dbf44fecae17a162977bbf319ab7769ca595ae78600260149054906101000a900460ff1684846040516020016101ef9190610a71565b60405160208183030381529060405260405161020d93929190610bcf565b60405180910390a160075460016006546102279190610d02565b1115610268576040517f08c379a000000000000000000000000000000000000000000000000000000000815260040161025f90610b10565b60405180910390fd5b7fb92b3b10914fc62a536d91e7dbf44fecae17a162977bbf319ab7769ca595ae78600260149054906101000a900460ff16846040516102a8929190610c49565b60405180910390a1816001600085815260200190815260200160002090805190602001906102d7929190610725565b506001600660008282546102eb9190610d02565b925050819055507fb92b3b10914fc62a536d91e7dbf44fecae17a162977bbf319ab7769ca595ae78600260149054906101000a900460ff1684604051610332929190610c0d565b60405180910390a13073ffffffffffffffffffffffffffffffffffffffff167fad61c318c4b36f165884af3b15023411e6209feb72d318f7e1fe5a63a5ecc8a8600260149054906101000a900460ff1685604051610391929190610ba6565b60405180910390a26001905092915050565b60008054906101000a900473ffffffffffffffffffffffffffffffffffffffff1673ffffffffffffffffffffffffffffffffffffffff163373ffffffffffffffffffffffffffffffffffffffff1614610431576040517f08c379a000000000000000000000000000000000000000000000000000000000815260040161042890610af0565b60405180910390fd5b60008054906101000a900473ffffffffffffffffffffffffffffffffffffffff1673ffffffffffffffffffffffffffffffffffffffff166108fc829081150290604051600060405180830381858888f19350505050158015610497573d6000803e3d6000fd5b5050565b6000600554905090565b6000600654905090565b60008060009054906101000a900473ffffffffffffffffffffffffffffffffffffffff1673ffffffffffffffffffffffffffffffffffffffff163373ffffffffffffffffffffffffffffffffffffffff1614610540576040517f08c379a000000000000000000000000000000000000000000000000000000000815260040161053790610ad0565b60405180910390fd5b600454905090565b606060035434101561058f576040517f08c379a000000000000000000000000000000000000000000000000000000000815260040161058690610b30565b60405180910390fd5b60006001600084815260200190815260200160002080546105af90610dbd565b80601f01602080910402602001604051908101604052809291908181526020018280546105db90610dbd565b80156106285780601f106105fd57610100808354040283529160200191610628565b820191906000526020600020905b81548152906001019060200180831161060b57829003601f168201915b505050505090506000815111610673576040517f08c379a000000000000000000000000000000000000000000000000000000000815260040161066a90610b50565b60405180910390fd5b34600460008282546106859190610d02565b9250508190555060016005600082825461069f9190610d02565b925050819055503073ffffffffffffffffffffffffffffffffffffffff167f92a1a1c62fec80c174ca0cd3ad5fc94e29b79e120956b3b36a9c49d26474fdb6600260149054906101000a900460ff16856040516106fd929190610ba6565b60405180910390a280915050919050565b6000600260149054906101000a900460ff16905090565b82805461073190610dbd565b90600052602060002090601f016020900481019282610753576000855561079a565b82601f1061076c57805160ff191683800117855561079a565b8280016001018555821561079a579182015b8281111561079957825182559160200191906001019061077e565b5b5090506107a791906107ab565b5090565b5b808211156107c45760008160009055506001016107ac565b5090565b60006107db6107d684610caa565b610c85565b9050828152602081018484840111156107f357600080fd5b6107fe848285610d7b565b509392505050565b600082601f83011261081757600080fd5b81356108278482602086016107c8565b91505092915050565b60008135905061083f816110c4565b92915050565b60006020828403121561085757600080fd5b600061086584828501610830565b91505092915050565b6000806040838503121561088157600080fd5b600061088f85828601610830565b925050602083013567ffffffffffffffff8111156108ac57600080fd5b6108b885828601610806565b9150509250929050565b6108cb81610d58565b82525050565b60006108dc82610cdb565b6108e68185610ce6565b93506108f6818560208601610d8a565b6108ff81610ead565b840191505092915050565b600061091582610cdb565b61091f8185610cf7565b935061092f818560208601610d8a565b80840191505092915050565b6000610948601d83610cf7565b915061095382610ebe565b601d82019050919050565b600061096b601b83610ce6565b915061097682610ee7565b602082019050919050565b600061098e604883610ce6565b915061099982610f10565b606082019050919050565b60006109b1601f83610ce6565b91506109bc82610f85565b602082019050919050565b60006109d4600983610ce6565b91506109df82610fae565b602082019050919050565b60006109f7603783610ce6565b9150610a0282610fd7565b604082019050919050565b6000610a1a603a83610ce6565b9150610a2582611026565b604082019050919050565b6000610a3d603483610ce6565b9150610a4882611075565b604082019050919050565b610a5c81610d64565b82525050565b610a6b81610d6e565b82525050565b6000610a7c8261093b565b9150610a88828461090a565b915081905092915050565b6000602082019050610aa860008301846108c2565b92915050565b60006020820190508181036000830152610ac881846108d1565b905092915050565b60006020820190508181036000830152610ae981610981565b9050919050565b60006020820190508181036000830152610b09816109c7565b9050919050565b60006020820190508181036000830152610b29816109ea565b9050919050565b60006020820190508181036000830152610b4981610a0d565b9050919050565b60006020820190508181036000830152610b6981610a30565b9050919050565b6000602082019050610b856000830184610a53565b92915050565b6000602082019050610ba06000830184610a62565b92915050565b6000604082019050610bbb6000830185610a62565b610bc86020830184610a53565b9392505050565b6000606082019050610be46000830186610a62565b610bf16020830185610a53565b8181036040830152610c0381846108d1565b9050949350505050565b6000606082019050610c226000830185610a62565b610c2f6020830184610a53565b8181036040830152610c408161095e565b90509392505050565b6000606082019050610c5e6000830185610a62565b610c6b6020830184610a53565b8181036040830152610c7c816109a4565b90509392505050565b6000610c8f610ca0565b9050610c9b8282610def565b919050565b6000604051905090565b600067ffffffffffffffff821115610cc557610cc4610e7e565b5b610cce82610ead565b9050602081019050919050565b600081519050919050565b600082825260208201905092915050565b600081905092915050565b6000610d0d82610d64565b9150610d1883610d64565b9250827fffffffffffffffffffffffffffffffffffffffffffffffffffffffffffffffff03821115610d4d57610d4c610e20565b5b828201905092915050565b60008115159050919050565b6000819050919050565b600060ff82169050919050565b82818337600083830152505050565b60005b83811015610da8578082015181840152602081019050610d8d565b83811115610db7576000848401525b50505050565b60006002820490506001821680610dd557607f821691505b60208210811415610de957610de8610e4f565b5b50919050565b610df882610ead565b810181811067ffffffffffffffff82111715610e1757610e16610e7e565b5b80604052505050565b7f4e487b7100000000000000000000000000000000000000000000000000000000600052601160045260246000fd5b7f4e487b7100000000000000000000000000000000000000000000000000000000600052602260045260246000fd5b7f4e487b7100000000000000000000000000000000000000000000000000000000600052604160045260246000fd5b6000601f19601f8301169050919050565b7f63616c6c65642073746f72655472616e73616374696f6e207769746820000000600082015250565b7f73746f72656420616e642075706461746564206d617070696e67730000000000600082015250565b7f4d6972726f724e6f646553686172643a20676574546f74616c46656573436f6c60008201527f6c6563746564206e6f6e206f776e657220636865636b696e672066656573206360208201527f6f6c6c6563746564000000000000000000000000000000000000000000000000604082015250565b7f7472616e73616374696f6e20636f756e742069732061636365707461626c6500600082015250565b7f4e6f74206f776e65720000000000000000000000000000000000000000000000600082015250565b7f4d6972726f724e6f646553686172643a2073746f72655472616e73616374696f60008201527f6e206d6178207472616e73616374696f6e20636f756e74000000000000000000602082015250565b7f4d6972726f724e6f646553686172643a206765745472616e73616374696f6e4960008201527f6e666f206761732065786365656473206e6574776f726b466565000000000000602082015250565b7f4d6972726f724e6f646553686172643a207472616e73616374696f6e20636f6e60008201527f74656e7473206578636565642030206279746573000000000000000000000000602082015250565b6110cd81610d64565b81146110d857600080fd5b5056fea264697066735822122002900249094b978c8b78465370b3131fe7d174617027246695e62c489b15353d64736f6c63430008040033a26469706673582212208aa856151207b5531ade8d2611fd1dc8641562c9f8ca0d5458186f01a82dcae064736f6c63430008040033",
  "linkReferences": {},
  "deployedLinkReferences": {}
}