{
  "_format": "hh-sol-artifact-1",
  "contractName": "MirrorNode",
  "sourceName": "contracts/MirrorNode.sol",
  "abi": [
    {
      "inputs": [
        {
          "internalType": "uint8",
          "name": "_maxShardCount",
          "type": "uint8"
        },
        {
          "internalType": "uint256",
          "name": "_maxTransactionsPerShard",
          "type": "uint256"
        },
        {
          "internalType": "uint256",
          "name": "_storageFee",
          "type": "uint256"
        },
        {
          "internalType": "uint256",
          "name": "_apiFee",
          "type": "uint256"
        }
      ],
      "stateMutability": "nonpayable",
      "type": "constructor"
    },
    {
      "anonymous": false,
      "inputs": [
        {
          "indexed": false,
          "internalType": "uint8",
          "name": "shard",
          "type": "uint8"
        },
        {
          "indexed": false,
          "internalType": "uint256",
          "name": "timestamp",
          "type": "uint256"
        }
      ],
      "name": "NewMirrorNodeShard",
      "type": "event"
    },
    {
      "anonymous": false,
      "inputs": [
        {
          "indexed": false,
          "internalType": "uint8",
          "name": "shard",
          "type": "uint8"
        },
        {
          "indexed": false,
          "internalType": "uint256",
          "name": "timestamp",
          "type": "uint256"
        },
        {
          "indexed": false,
          "internalType": "string",
          "name": "message",
          "type": "string"
        }
      ],
      "name": "SubmitTransactionLog",
      "type": "event"
    },
    {
      "anonymous": false,
      "inputs": [
        {
          "indexed": false,
          "internalType": "uint256",
          "name": "timestamp",
          "type": "uint256"
        },
        {
          "indexed": false,
          "internalType": "uint8",
          "name": "shard",
          "type": "uint8"
        }
      ],
      "name": "TransactionParsed",
      "type": "event"
    },
    {
      "inputs": [],
      "name": "getApiFee",
      "outputs": [
        {
          "internalType": "uint256",
          "name": "",
          "type": "uint256"
        }
      ],
      "stateMutability": "view",
      "type": "function"
    },
    {
      "inputs": [],
      "name": "getMaxShardCount",
      "outputs": [
        {
          "internalType": "uint256",
          "name": "",
          "type": "uint256"
        }
      ],
      "stateMutability": "view",
      "type": "function"
    },
    {
      "inputs": [],
      "name": "getMaxTransactionsPerShard",
      "outputs": [
        {
          "internalType": "uint256",
          "name": "",
          "type": "uint256"
        }
      ],
      "stateMutability": "view",
      "type": "function"
    },
    {
      "inputs": [
        {
          "internalType": "uint8",
          "name": "shard",
          "type": "uint8"
        }
      ],
      "name": "getShardAddress",
      "outputs": [
        {
          "internalType": "address",
          "name": "",
          "type": "address"
        }
      ],
      "stateMutability": "view",
      "type": "function"
    },
    {
      "inputs": [],
      "name": "getShardCount",
      "outputs": [
        {
          "internalType": "uint256",
          "name": "",
          "type": "uint256"
        }
      ],
      "stateMutability": "view",
      "type": "function"
    },
    {
      "inputs": [],
      "name": "getStorageFee",
      "outputs": [
        {
          "internalType": "uint256",
          "name": "",
          "type": "uint256"
        }
      ],
      "stateMutability": "view",
      "type": "function"
    },
    {
      "inputs": [],
      "name": "getTransactionCount",
      "outputs": [
        {
          "internalType": "uint256",
          "name": "",
          "type": "uint256"
        }
      ],
      "stateMutability": "view",
      "type": "function"
    },
    {
      "inputs": [
        {
          "internalType": "uint256",
          "name": "timestamp",
          "type": "uint256"
        }
      ],
      "name": "getTransactionShard",
      "outputs": [
        {
          "internalType": "uint8",
          "name": "",
          "type": "uint8"
        }
      ],
      "stateMutability": "view",
      "type": "function"
    },
    {
      "inputs": [
        {
          "internalType": "uint256",
          "name": "timestamp",
          "type": "uint256"
        },
        {
          "internalType": "string",
          "name": "transaction",
          "type": "string"
        },
        {
          "internalType": "uint8",
          "name": "shard",
          "type": "uint8"
        }
      ],
      "name": "submitTransaction",
      "outputs": [
        {
          "internalType": "bool",
          "name": "",
          "type": "bool"
        }
      ],
      "stateMutability": "payable",
      "type": "function"
    },
    {
      "inputs": [
        {
          "internalType": "uint256",
          "name": "timestamp",
          "type": "uint256"
        },
        {
          "internalType": "string",
          "name": "transaction",
          "type": "string"
        },
        {
          "internalType": "uint8",
          "name": "shard",
          "type": "uint8"
        }
      ],
      "name": "submitTransactionSimple",
      "outputs": [
        {
          "internalType": "bool",
          "name": "",
          "type": "bool"
        }
      ],
      "stateMutability": "nonpayable",
      "type": "function"
    },
    {
      "inputs": [
        {
          "internalType": "uint256",
          "name": "amount",
          "type": "uint256"
        }
      ],
      "name": "withdraw",
      "outputs": [],
      "stateMutability": "nonpayable",
      "type": "function"
    }
  ],
  "bytecode": "0x60806040523480156200001157600080fd5b5060405162000ec438038062000ec4833981810160405281019062000037919062000103565b83600460006101000a81548160ff021916908360ff16021790555082600581905550816008819055508060038190555060006007819055506000600660006101000a81548160ff021916908360ff160217905550336000806101000a81548173ffffffffffffffffffffffffffffffffffffffff021916908373ffffffffffffffffffffffffffffffffffffffff16021790555050505050620001ba565b600081519050620000e68162000186565b92915050565b600081519050620000fd81620001a0565b92915050565b600080600080608085870312156200011a57600080fd5b60006200012a87828801620000ec565b94505060206200013d87828801620000d5565b93505060406200015087828801620000d5565b92505060606200016387828801620000d5565b91505092959194509250565b6000819050919050565b600060ff82169050919050565b62000191816200016f565b81146200019d57600080fd5b50565b620001ab8162000179565b8114620001b757600080fd5b50565b610cfa80620001ca6000396000f3fe60806040526004361061009c5760003560e01c806351faa8101161006457806351faa810146101765780635ffa77c9146101b35780636773042b146101e3578063903b14831461020e578063e3fe020b14610239578063f648f275146102765761009c565b80630494fb6b146100a15780630da59fb2146100cc5780632e1a7d4d146100f75780632e7700f0146101205780634444791f1461014b575b600080fd5b3480156100ad57600080fd5b506100b66102b3565b6040516100c39190610984565b60405180910390f35b3480156100d857600080fd5b506100e16102bd565b6040516100ee9190610984565b60405180910390f35b34801561010357600080fd5b5061011e600480360381019061011991906106e1565b6102c7565b005b34801561012c57600080fd5b506101356103bf565b6040516101429190610984565b60405180910390f35b34801561015757600080fd5b506101606103c9565b60405161016d9190610984565b60405180910390f35b34801561018257600080fd5b5061019d600480360381019061019891906106e1565b6103d3565b6040516101aa91906109c8565b60405180910390f35b6101cd60048036038101906101c8919061070a565b610440565b6040516101da9190610909565b60405180910390f35b3480156101ef57600080fd5b506101f86104e0565b6040516102059190610984565b60405180910390f35b34801561021a57600080fd5b506102236104fa565b6040516102309190610984565b60405180910390f35b34801561024557600080fd5b50610260600480360381019061025b9190610771565b610514565b60405161026d91906108ee565b60405180910390f35b34801561028257600080fd5b5061029d6004803603810190610298919061070a565b6105af565b6040516102aa9190610909565b60405180910390f35b6000600354905090565b6000600854905090565b60008054906101000a900473ffffffffffffffffffffffffffffffffffffffff1673ffffffffffffffffffffffffffffffffffffffff163373ffffffffffffffffffffffffffffffffffffffff1614610355576040517f08c379a000000000000000000000000000000000000000000000000000000000815260040161034c90610964565b60405180910390fd5b60008054906101000a900473ffffffffffffffffffffffffffffffffffffffff1673ffffffffffffffffffffffffffffffffffffffff166108fc829081150290604051600060405180830381858888f193505050501580156103bb573d6000803e3d6000fd5b5050565b6000600754905090565b6000600554905090565b600080821015610418576040517f08c379a000000000000000000000000000000000000000000000000000000000815260040161040f90610924565b60405180910390fd5b6002600083815260200190815260200160002060009054906101000a900460ff169050919050565b60007fefbb7f6daab2bffbfb633f20af6434607a0667d68d6492a3dd6ae741dca617ec82858560405160200161047691906108cc565b604051602081830303815290604052604051610494939291906109e3565b60405180910390a17f29c0183cf16a8df2323b90f7691ffb69e259c062ec23d2ccff072f14d624f12884836040516104cd92919061099f565b60405180910390a1600190509392505050565b6000600660009054906101000a900460ff1660ff16905090565b6000600460009054906101000a900460ff1660ff16905090565b6000600660009054906101000a900460ff1660ff168260ff16111561056e576040517f08c379a000000000000000000000000000000000000000000000000000000000815260040161056590610944565b60405180910390fd5b600160008360ff1660ff16815260200190815260200160002060009054906101000a900473ffffffffffffffffffffffffffffffffffffffff169050919050565b60007fefbb7f6daab2bffbfb633f20af6434607a0667d68d6492a3dd6ae741dca617ec8285856040516020016105e591906108cc565b604051602081830303815290604052604051610603939291906109e3565b60405180910390a17f29c0183cf16a8df2323b90f7691ffb69e259c062ec23d2ccff072f14d624f128848360405161063c92919061099f565b60405180910390a1600190509392505050565b600061066261065d84610a46565b610a21565b90508281526020810184848401111561067a57600080fd5b610685848285610af3565b509392505050565b600082601f83011261069e57600080fd5b81356106ae84826020860161064f565b91505092915050565b6000813590506106c681610c96565b92915050565b6000813590506106db81610cad565b92915050565b6000602082840312156106f357600080fd5b6000610701848285016106b7565b91505092915050565b60008060006060848603121561071f57600080fd5b600061072d868287016106b7565b935050602084013567ffffffffffffffff81111561074a57600080fd5b6107568682870161068d565b9250506040610767868287016106cc565b9150509250925092565b60006020828403121561078357600080fd5b6000610791848285016106cc565b91505092915050565b6107a381610a9e565b82525050565b6107b281610ab0565b82525050565b60006107c382610a77565b6107cd8185610a82565b93506107dd818560208601610b02565b6107e681610b95565b840191505092915050565b60006107fc82610a77565b6108068185610a93565b9350610816818560208601610b02565b80840191505092915050565b600061082f601e83610a93565b915061083a82610ba6565b601e82019050919050565b6000610852603b83610a82565b915061085d82610bcf565b604082019050919050565b6000610875603b83610a82565b915061088082610c1e565b604082019050919050565b6000610898600983610a82565b91506108a382610c6d565b602082019050919050565b6108b781610adc565b82525050565b6108c681610ae6565b82525050565b60006108d782610822565b91506108e382846107f1565b915081905092915050565b6000602082019050610903600083018461079a565b92915050565b600060208201905061091e60008301846107a9565b92915050565b6000602082019050818103600083015261093d81610845565b9050919050565b6000602082019050818103600083015261095d81610868565b9050919050565b6000602082019050818103600083015261097d8161088b565b9050919050565b600060208201905061099960008301846108ae565b92915050565b60006040820190506109b460008301856108ae565b6109c160208301846108bd565b9392505050565b60006020820190506109dd60008301846108bd565b92915050565b60006060820190506109f860008301866108bd565b610a0560208301856108ae565b8181036040830152610a1781846107b8565b9050949350505050565b6000610a2b610a3c565b9050610a378282610b35565b919050565b6000604051905090565b600067ffffffffffffffff821115610a6157610a60610b66565b5b610a6a82610b95565b9050602081019050919050565b600081519050919050565b600082825260208201905092915050565b600081905092915050565b6000610aa982610abc565b9050919050565b60008115159050919050565b600073ffffffffffffffffffffffffffffffffffffffff82169050919050565b6000819050919050565b600060ff82169050919050565b82818337600083830152505050565b60005b83811015610b20578082015181840152602081019050610b05565b83811115610b2f576000848401525b50505050565b610b3e82610b95565b810181811067ffffffffffffffff82111715610b5d57610b5c610b66565b5b80604052505050565b7f4e487b7100000000000000000000000000000000000000000000000000000000600052604160045260246000fd5b6000601f19601f8301169050919050565b7f7375626d69745472616e73616374696f6e2063616c6c65642077697468200000600082015250565b7f4d6972726f724e6f64653a206765745472616e73616374696f6e53686172642060008201527f77697468206f7574206f662072616e67652074696d657374616d700000000000602082015250565b7f4d6972726f724e6f64653a20676574536861726441646472657373207769746860008201527f206f7574206f662072616e676520736861726420696e74656765720000000000602082015250565b7f4e6f74206f776e65720000000000000000000000000000000000000000000000600082015250565b610c9f81610adc565b8114610caa57600080fd5b50565b610cb681610ae6565b8114610cc157600080fd5b5056fea264697066735822122005aec2ad911e54ddbb30f83723b00829ce328ceac857cfcb870def4fd83447b164736f6c63430008040033",
  "linkReferences": {},
  "deployedLinkReferences": {}
}