{
  "_format": "hh-sol-artifact-1",
  "contractName": "HTSCalls",
  "sourceName": "contracts/HTSCalls.sol",
  "abi": [
    {
      "inputs": [
        {
          "internalType": "address",
          "name": "token",
          "type": "address"
        },
        {
          "internalType": "uint64",
          "name": "amount",
          "type": "uint64"
        },
        {
          "internalType": "int64[]",
          "name": "serialNumbers",
          "type": "int64[]"
        }
      ],
      "name": "burnTokenCall",
      "outputs": [
        {
          "internalType": "int256",
          "name": "responseCode",
          "type": "int256"
        },
        {
          "internalType": "uint64",
          "name": "newTotalSupply",
          "type": "uint64"
        }
      ],
      "stateMutability": "nonpayable",
      "type": "function"
    },
    {
      "inputs": [
        {
          "internalType": "uint64",
          "name": "amount",
          "type": "uint64"
        },
        {
          "internalType": "address",
          "name": "tokenAddress",
          "type": "address"
        },
        {
          "internalType": "bytes[]",
          "name": "metadata",
          "type": "bytes[]"
        },
        {
          "internalType": "address",
          "name": "sender",
          "type": "address"
        },
        {
          "internalType": "address",
          "name": "receiver",
          "type": "address"
        }
      ],
      "name": "mintAndTransferNonFungibleToken",
      "outputs": [],
      "stateMutability": "nonpayable",
      "type": "function"
    },
    {
      "inputs": [
        {
          "internalType": "address",
          "name": "token",
          "type": "address"
        },
        {
          "internalType": "uint64",
          "name": "amount",
          "type": "uint64"
        },
        {
          "internalType": "bytes[]",
          "name": "metadata",
          "type": "bytes[]"
        }
      ],
      "name": "mintTokenCall",
      "outputs": [
        {
          "internalType": "int256",
          "name": "responseCode",
          "type": "int256"
        },
        {
          "internalType": "uint64",
          "name": "newTotalSupply",
          "type": "uint64"
        },
        {
          "internalType": "int64[]",
          "name": "serialNumbers",
          "type": "int64[]"
        }
      ],
      "stateMutability": "nonpayable",
      "type": "function"
    },
    {
      "inputs": [
        {
          "internalType": "address",
          "name": "token",
          "type": "address"
        }
      ],
      "name": "pauseToken",
      "outputs": [
        {
          "internalType": "int256",
          "name": "responseCode",
          "type": "int256"
        }
      ],
      "stateMutability": "nonpayable",
      "type": "function"
    },
    {
      "inputs": [
        {
          "internalType": "address",
          "name": "token",
          "type": "address"
        },
        {
          "internalType": "address",
          "name": "sender",
          "type": "address"
        },
        {
          "internalType": "address",
          "name": "receiver",
          "type": "address"
        },
        {
          "internalType": "int64",
          "name": "serialNum",
          "type": "int64"
        }
      ],
      "name": "transferNFTCall",
      "outputs": [
        {
          "internalType": "int256",
          "name": "responseCode",
          "type": "int256"
        }
      ],
      "stateMutability": "nonpayable",
      "type": "function"
    }
  ],
  "bytecode": "0x608060405234801561001057600080fd5b50610cda806100206000396000f3fe608060405234801561001057600080fd5b50600436106100675760003560e01c80637c41ad2c116100505780637c41ad2c146100a7578063d998e945146100ba578063e235ad1f146100dc57600080fd5b806352277b1e1461006c5780636268fe9e14610081575b600080fd5b61007f61007a3660046107d0565b61010d565b005b61009461008f366004610861565b6101fb565b6040519081526020015b60405180910390f35b6100946100b53660046108b7565b610212565b6100cd6100c83660046108d9565b6102f6565b60405161009e93929190610977565b6100ef6100ea3660046109a0565b610315565b6040805192835267ffffffffffffffff90911660208301520161009e565b600080600061011d87898861032f565b91945092509050601683146101795760405162461bcd60e51b815260206004820152601860248201527f4e6f6e46756e6769626c65206d696e74206661696c656421000000000000000060448201526064015b60405180910390fd5b61019f8786868460008151811061019257610192610a5f565b6020026020010151610445565b9250601683146101f15760405162461bcd60e51b815260206004820152601c60248201527f4e6f6e46756e6769626c65207472616e73666572206661696c656421000000006044820152606401610170565b5050505050505050565b600061020985858585610445565b95945050505050565b604080516001600160a01b03831660248083019190915282518083039091018152604490910182526020810180516001600160e01b03167f7c41ad2c00000000000000000000000000000000000000000000000000000000179052905160009182918291610167916102849190610aa5565b6000604051808303816000865af19150503d80600081146102c1576040519150601f19603f3d011682016040523d82523d6000602084013e6102c6565b606091505b5091509150816102d75760156102eb565b808060200190518101906102eb9190610ad3565b60030b949350505050565b600080606061030686868661032f565b92509250925093509350939050565b600080610323858585610546565b91509150935093915050565b60008060606000806101676001600160a01b031663278e0b8860e01b89898960405160240161036093929190610aee565b60408051601f198184030181529181526020820180516001600160e01b03167fffffffff000000000000000000000000000000000000000000000000000000009094169390931790925290516103b69190610aa5565b6000604051808303816000865af19150503d80600081146103f3576040519150601f19603f3d011682016040523d82523d6000602084013e6103f8565b606091505b50915091508161041b57604080516000808252602082019092526015919061042f565b8080602001905181019061042f9190610b8a565b60039290920b9a90995090975095505050505050565b604080516001600160a01b038681166024830152858116604483015284166064820152600783900b6084808301919091528251808303909101815260a490910182526020810180516001600160e01b03167f5cfc901100000000000000000000000000000000000000000000000000000000179052905160009182918291610167916104d19190610aa5565b6000604051808303816000865af19150503d806000811461050e576040519150601f19603f3d011682016040523d82523d6000602084013e610513565b606091505b509150915081610524576015610538565b808060200190518101906105389190610ad3565b60030b979650505050505050565b6000806000806101676001600160a01b031663acb9cff960e01b88888860405160240161057593929190610c3b565b60408051601f198184030181529181526020820180516001600160e01b03167fffffffff000000000000000000000000000000000000000000000000000000009094169390931790925290516105cb9190610aa5565b6000604051808303816000865af19150503d8060008114610608576040519150601f19603f3d011682016040523d82523d6000602084013e61060d565b606091505b5091509150816106205760156000610634565b808060200190518101906106349190610c6d565b60039190910b9890975095505050505050565b67ffffffffffffffff8116811461065d57600080fd5b50565b80356001600160a01b038116811461067757600080fd5b919050565b634e487b7160e01b600052604160045260246000fd5b604051601f8201601f1916810167ffffffffffffffff811182821017156106bb576106bb61067c565b604052919050565b600067ffffffffffffffff8211156106dd576106dd61067c565b5060051b60200190565b6000601f83818401126106f957600080fd5b8235602061070e610709836106c3565b610692565b82815260059290921b8501810191818101908784111561072d57600080fd5b8287015b848110156107c457803567ffffffffffffffff808211156107525760008081fd5b818a0191508a603f8301126107675760008081fd5b8582013560408282111561077d5761077d61067c565b61078e828b01601f19168901610692565b92508183528c818386010111156107a55760008081fd5b8181850189850137506000908201870152845250918301918301610731565b50979650505050505050565b600080600080600060a086880312156107e857600080fd5b85356107f381610647565b945061080160208701610660565b9350604086013567ffffffffffffffff81111561081d57600080fd5b610829888289016106e7565b93505061083860608701610660565b915061084660808701610660565b90509295509295909350565b8060070b811461065d57600080fd5b6000806000806080858703121561087757600080fd5b61088085610660565b935061088e60208601610660565b925061089c60408601610660565b915060608501356108ac81610852565b939692955090935050565b6000602082840312156108c957600080fd5b6108d282610660565b9392505050565b6000806000606084860312156108ee57600080fd5b6108f784610660565b9250602084013561090781610647565b9150604084013567ffffffffffffffff81111561092357600080fd5b61092f868287016106e7565b9150509250925092565b600081518084526020808501945080840160005b8381101561096c57815160070b8752958201959082019060010161094d565b509495945050505050565b83815267ffffffffffffffff831660208201526060604082015260006102096060830184610939565b6000806000606084860312156109b557600080fd5b6109be84610660565b92506020808501356109cf81610647565b9250604085013567ffffffffffffffff8111156109eb57600080fd5b8501601f810187136109fc57600080fd5b8035610a0a610709826106c3565b81815260059190911b82018301908381019089831115610a2957600080fd5b928401925b82841015610a50578335610a4181610852565b82529284019290840190610a2e565b80955050505050509250925092565b634e487b7160e01b600052603260045260246000fd5b60005b83811015610a90578181015183820152602001610a78565b83811115610a9f576000848401525b50505050565b60008251610ab7818460208701610a75565b9190910192915050565b8051600381900b811461067757600080fd5b600060208284031215610ae557600080fd5b6108d282610ac1565b6000606082016001600160a01b0386168352602067ffffffffffffffff8616818501526060604085015281855180845260808601915060808160051b870101935082870160005b82811015610b7b57878603607f1901845281518051808852610b5c81888a01898501610a75565b601f01601f191696909601850195509284019290840190600101610b35565b50939998505050505050505050565b600080600060608486031215610b9f57600080fd5b610ba884610ac1565b9250602080850151610bb981610647565b604086015190935067ffffffffffffffff811115610bd657600080fd5b8501601f81018713610be757600080fd5b8051610bf5610709826106c3565b81815260059190911b82018301908381019089831115610c1457600080fd5b928401925b82841015610a50578351610c2c81610852565b82529284019290840190610c19565b6001600160a01b038416815267ffffffffffffffff831660208201526060604082015260006102096060830184610939565b60008060408385031215610c8057600080fd5b610c8983610ac1565b91506020830151610c9981610647565b80915050925092905056fea2646970667358221220e61077e3d75d69c1b68db80c305e25ce12cd21fe14e6db55a105bb509fb4c0da64736f6c63430008090033",
  "linkReferences": {},
  "deployedLinkReferences": {}
}