{
  "_format": "hh-sol-artifact-1",
  "contractName": "CallContract",
  "sourceName": "contracts/CallContract.sol",
  "abi": [
    {
      "inputs": [
        {
          "internalType": "address",
          "name": "_address",
          "type": "address"
        },
        {
          "internalType": "bytes4",
          "name": "_sig",
          "type": "bytes4"
        }
      ],
      "name": "callCodeToContractWithAmount",
      "outputs": [
        {
          "internalType": "address",
          "name": "",
          "type": "address"
        }
      ],
      "stateMutability": "payable",
      "type": "function"
    },
    {
      "inputs": [
        {
          "internalType": "address",
          "name": "_address",
          "type": "address"
        },
        {
          "internalType": "bytes4",
          "name": "_sig",
          "type": "bytes4"
        }
      ],
      "name": "callCodeToContractWithoutAmount",
      "outputs": [
        {
          "internalType": "address",
          "name": "",
          "type": "address"
        }
      ],
      "stateMutability": "nonpayable",
      "type": "function"
    },
    {
      "inputs": [
        {
          "internalType": "address",
          "name": "_to",
          "type": "address"
        },
        {
          "internalType": "bytes",
          "name": "_data",
          "type": "bytes"
        }
      ],
      "name": "makeCallWithAmount",
      "outputs": [
        {
          "internalType": "bool",
          "name": "success",
          "type": "bool"
        },
        {
          "internalType": "bytes",
          "name": "returnData",
          "type": "bytes"
        }
      ],
      "stateMutability": "payable",
      "type": "function"
    },
    {
      "inputs": [
        {
          "internalType": "address",
          "name": "_to",
          "type": "address"
        },
        {
          "internalType": "bytes",
          "name": "_data",
          "type": "bytes"
        }
      ],
      "name": "makeCallWithoutAmount",
      "outputs": [
        {
          "internalType": "bool",
          "name": "success",
          "type": "bool"
        },
        {
          "internalType": "bytes",
          "name": "returnData",
          "type": "bytes"
        }
      ],
      "stateMutability": "nonpayable",
      "type": "function"
    },
    {
      "inputs": [
        {
          "internalType": "address",
          "name": "_to",
          "type": "address"
        },
        {
          "internalType": "bytes",
          "name": "_data",
          "type": "bytes"
        }
      ],
      "name": "makeDelegateCall",
      "outputs": [
        {
          "internalType": "bool",
          "name": "success",
          "type": "bool"
        },
        {
          "internalType": "bytes",
          "name": "returnData",
          "type": "bytes"
        }
      ],
      "stateMutability": "nonpayable",
      "type": "function"
    },
    {
      "inputs": [
        {
          "internalType": "address",
          "name": "_to",
          "type": "address"
        },
        {
          "internalType": "bytes",
          "name": "_data",
          "type": "bytes"
        }
      ],
      "name": "makeStaticCall",
      "outputs": [
        {
          "internalType": "bool",
          "name": "success",
          "type": "bool"
        },
        {
          "internalType": "bytes",
          "name": "returnData",
          "type": "bytes"
        }
      ],
      "stateMutability": "nonpayable",
      "type": "function"
    }
  ],
  "bytecode": "0x608060405234801561001057600080fd5b50610574806100206000396000f3fe6080604052600436106100655760003560e01c80638771074f116100435780638771074f146100ec578063915482281461010c578063e9412a8e1461011f57600080fd5b806315ed14111461006a5780637a3e2005146100a15780637e38d3a3146100cc575b600080fd5b34801561007657600080fd5b5061008a610085366004610370565b61013f565b604051610098929190610464565b60405180910390f35b6100b46100af3660046104a0565b6101a7565b6040516001600160a01b039091168152602001610098565b3480156100d857600080fd5b5061008a6100e7366004610370565b6101e8565b3480156100f857600080fd5b5061008a610107366004610370565b610241565b61008a61011a366004610370565b610298565b34801561012b57600080fd5b506100b461013a3660046104a0565b6102f2565b60006060836001600160a01b03168360405161015b91906104fe565b600060405180830381855afa9150503d8060008114610196576040519150601f19603f3d011682016040523d82523d6000602084013e61019b565b606091505b50909590945092505050565b60006060600060405184815234602082600484848b61c350f260208381016040528386529093506101df92850181019150840161051a565b95945050505050565b60006060836001600160a01b03168360405161020491906104fe565b6000604051808303816000865af19150503d8060008114610196576040519150601f19603f3d011682016040523d82523d6000602084013e61019b565b60006060836001600160a01b03168360405161025d91906104fe565b600060405180830381855af49150503d8060008114610196576040519150601f19603f3d011682016040523d82523d6000602084013e61019b565b60006060836001600160a01b031634846040516102b591906104fe565b60006040518083038185875af1925050503d8060008114610196576040519150601f19603f3d011682016040523d82523d6000602084013e61019b565b60006060600060405184815260208160048360008a61c350f260208281016040528285529092506101df918401810190840161051a565b6001600160a01b038116811461033e57600080fd5b50565b7f4e487b7100000000000000000000000000000000000000000000000000000000600052604160045260246000fd5b6000806040838503121561038357600080fd5b823561038e81610329565b9150602083013567ffffffffffffffff808211156103ab57600080fd5b818501915085601f8301126103bf57600080fd5b8135818111156103d1576103d1610341565b604051601f8201601f19908116603f011681019083821181831017156103f9576103f9610341565b8160405282815288602084870101111561041257600080fd5b8260208601602083013760006020848301015280955050505050509250929050565b60005b8381101561044f578181015183820152602001610437565b8381111561045e576000848401525b50505050565b8215158152604060208201526000825180604084015261048b816060850160208701610434565b601f01601f1916919091016060019392505050565b600080604083850312156104b357600080fd5b82356104be81610329565b915060208301357fffffffff00000000000000000000000000000000000000000000000000000000811681146104f357600080fd5b809150509250929050565b60008251610510818460208701610434565b9190910192915050565b60006020828403121561052c57600080fd5b815161053781610329565b939250505056fea26469706673582212208c4f7fcc8a52e25edcf51df6378f6e51419cde42c41093a01e7878333a276a0b64736f6c63430008090033",
  "linkReferences": {},
  "deployedLinkReferences": {}
}