{
  "_format": "hh-sol-artifact-1",
  "contractName": "ServiceContract",
  "sourceName": "contracts/ServiceContract.sol",
  "abi": [
    {
      "inputs": [
        {
          "internalType": "address",
          "name": "token",
          "type": "address"
        },
        {
          "internalType": "address",
          "name": "sender",
          "type": "address"
        },
        {
          "internalType": "address",
          "name": "receiver",
          "type": "address"
        },
        {
          "internalType": "int64",
          "name": "serialNum",
          "type": "int64"
        }
      ],
      "name": "nftTransfer",
      "outputs": [],
      "stateMutability": "nonpayable",
      "type": "function"
    },
    {
      "inputs": [
        {
          "internalType": "address",
          "name": "token",
          "type": "address"
        }
      ],
      "name": "pauseToken",
      "outputs": [
        {
          "internalType": "int256",
          "name": "responseCode",
          "type": "int256"
        }
      ],
      "stateMutability": "nonpayable",
      "type": "function"
    },
    {
      "inputs": [
        {
          "internalType": "address",
          "name": "token",
          "type": "address"
        },
        {
          "internalType": "uint64",
          "name": "amount",
          "type": "uint64"
        },
        {
          "internalType": "int64[]",
          "name": "serialNumbers",
          "type": "int64[]"
        }
      ],
      "name": "tokenBurn",
      "outputs": [],
      "stateMutability": "nonpayable",
      "type": "function"
    },
    {
      "inputs": [
        {
          "internalType": "address",
          "name": "token",
          "type": "address"
        },
        {
          "internalType": "uint64",
          "name": "amount",
          "type": "uint64"
        }
      ],
      "name": "tokenMint",
      "outputs": [],
      "stateMutability": "nonpayable",
      "type": "function"
    }
  ],
  "bytecode": "0x608060405234801561001057600080fd5b50610ae4806100206000396000f3fe608060405234801561001057600080fd5b506004361061004c5760003560e01c80631a1eb403146100515780637c41ad2c14610066578063a4aa39b11461008b578063c7b2d3361461009e575b600080fd5b61006461005f3660046106de565b6100b1565b005b6100796100743660046107a2565b610120565b60405190815260200160405180910390f35b6100646100993660046107c4565b610204565b6100646100ac36600461081a565b610264565b6000806100bf8585856102fe565b9092509050601682146101195760405162461bcd60e51b815260206004820152601160248201527f546f6b656e206275726e206661696c656400000000000000000000000000000060448201526064015b60405180910390fd5b5050505050565b604080516001600160a01b03831660248083019190915282518083039091018152604490910182526020810180516001600160e01b03167f7c41ad2c00000000000000000000000000000000000000000000000000000000179052905160009182918291610167916101929190610881565b6000604051808303816000865af19150503d80600081146101cf576040519150601f19603f3d011682016040523d82523d6000602084013e6101d4565b606091505b5091509150816101e55760156101f9565b808060200190518101906101f991906108af565b60030b949350505050565b6000610212858585856103ff565b9050601681146101195760405162461bcd60e51b815260206004820152601560248201527f546f6b656e207472616e73666572206661696c656400000000000000000000006044820152606401610110565b600080806102a78585836040519080825280602002602001820160405280156102a157816020015b606081526020019060019003908161028c5790505b50610500565b91945092509050601683146101195760405162461bcd60e51b815260206004820152601e60248201527f4d696e74206f662066756e6769626c6520746f6b656e206661696c65642100006044820152606401610110565b6000806000806101676001600160a01b031663acb9cff960e01b88888860405160240161032d939291906108ca565b60408051601f198184030181529181526020820180516001600160e01b03167fffffffff000000000000000000000000000000000000000000000000000000009094169390931790925290516103839190610881565b6000604051808303816000865af19150503d80600081146103c0576040519150601f19603f3d011682016040523d82523d6000602084013e6103c5565b606091505b5091509150816103d857601560006103ec565b808060200190518101906103ec9190610935565b60039190910b9890975095505050505050565b604080516001600160a01b038681166024830152858116604483015284166064820152600783900b6084808301919091528251808303909101815260a490910182526020810180516001600160e01b03167f5cfc9011000000000000000000000000000000000000000000000000000000001790529051600091829182916101679161048b9190610881565b6000604051808303816000865af19150503d80600081146104c8576040519150601f19603f3d011682016040523d82523d6000602084013e6104cd565b606091505b5091509150816104de5760156104f2565b808060200190518101906104f291906108af565b60030b979650505050505050565b60008060606000806101676001600160a01b031663278e0b8860e01b89898960405160240161053193929190610961565b60408051601f198184030181529181526020820180516001600160e01b03167fffffffff000000000000000000000000000000000000000000000000000000009094169390931790925290516105879190610881565b6000604051808303816000865af19150503d80600081146105c4576040519150601f19603f3d011682016040523d82523d6000602084013e6105c9565b606091505b5091509150816105ec576040805160008082526020820190925260159190610600565b8080602001905181019061060091906109fd565b60039290920b9a90995090975095505050505050565b80356001600160a01b038116811461062d57600080fd5b919050565b67ffffffffffffffff8116811461064857600080fd5b50565b7f4e487b7100000000000000000000000000000000000000000000000000000000600052604160045260246000fd5b604051601f8201601f1916810167ffffffffffffffff811182821017156106a3576106a361064b565b604052919050565b600067ffffffffffffffff8211156106c5576106c561064b565b5060051b60200190565b8060070b811461064857600080fd5b6000806000606084860312156106f357600080fd5b6106fc84610616565b925060208085013561070d81610632565b9250604085013567ffffffffffffffff81111561072957600080fd5b8501601f8101871361073a57600080fd5b803561074d610748826106ab565b61067a565b81815260059190911b8201830190838101908983111561076c57600080fd5b928401925b82841015610793578335610784816106cf565b82529284019290840190610771565b80955050505050509250925092565b6000602082840312156107b457600080fd5b6107bd82610616565b9392505050565b600080600080608085870312156107da57600080fd5b6107e385610616565b93506107f160208601610616565b92506107ff60408601610616565b9150606085013561080f816106cf565b939692955090935050565b6000806040838503121561082d57600080fd5b61083683610616565b9150602083013561084681610632565b809150509250929050565b60005b8381101561086c578181015183820152602001610854565b8381111561087b576000848401525b50505050565b60008251610893818460208701610851565b9190910192915050565b8051600381900b811461062d57600080fd5b6000602082840312156108c157600080fd5b6107bd8261089d565b6000606082016001600160a01b0386168352602067ffffffffffffffff86168185015260606040850152818551808452608086019150828701935060005b8181101561092757845160070b83529383019391830191600101610908565b509098975050505050505050565b6000806040838503121561094857600080fd5b6109518361089d565b9150602083015161084681610632565b6000606082016001600160a01b0386168352602067ffffffffffffffff8616818501526060604085015281855180845260808601915060808160051b870101935082870160005b828110156109ee57878603607f19018452815180518088526109cf81888a01898501610851565b601f01601f1916969096018501955092840192908401906001016109a8565b50939998505050505050505050565b600080600060608486031215610a1257600080fd5b610a1b8461089d565b9250602080850151610a2c81610632565b604086015190935067ffffffffffffffff811115610a4957600080fd5b8501601f81018713610a5a57600080fd5b8051610a68610748826106ab565b81815260059190911b82018301908381019089831115610a8757600080fd5b928401925b82841015610793578351610a9f816106cf565b82529284019290840190610a8c56fea264697066735822122016b9663dce196e709c3725cb74ece1c79638a79b7b79e1fcec30cb202696f6d464736f6c63430008090033",
  "linkReferences": {},
  "deployedLinkReferences": {}
}