{
  "_format": "hh-sol-artifact-1",
  "contractName": "ERCTestContract",
  "sourceName": "contracts/ERCTestContract.sol",
  "abi": [
    {
      "inputs": [
        {
          "internalType": "address",
          "name": "token",
          "type": "address"
        },
        {
          "internalType": "address",
          "name": "owner",
          "type": "address"
        },
        {
          "internalType": "address",
          "name": "spender",
          "type": "address"
        }
      ],
      "name": "allowance",
      "outputs": [
        {
          "internalType": "uint256",
          "name": "",
          "type": "uint256"
        }
      ],
      "stateMutability": "view",
      "type": "function"
    },
    {
      "inputs": [
        {
          "internalType": "address",
          "name": "token",
          "type": "address"
        },
        {
          "internalType": "address",
          "name": "spender",
          "type": "address"
        },
        {
          "internalType": "uint256",
          "name": "amount",
          "type": "uint256"
        }
      ],
      "name": "approve",
      "outputs": [
        {
          "internalType": "bool",
          "name": "",
          "type": "bool"
        }
      ],
      "stateMutability": "nonpayable",
      "type": "function"
    },
    {
      "inputs": [
        {
          "internalType": "address",
          "name": "token",
          "type": "address"
        },
        {
          "internalType": "address",
          "name": "account",
          "type": "address"
        }
      ],
      "name": "balanceOf",
      "outputs": [
        {
          "internalType": "uint256",
          "name": "",
          "type": "uint256"
        }
      ],
      "stateMutability": "view",
      "type": "function"
    },
    {
      "inputs": [
        {
          "internalType": "address",
          "name": "token",
          "type": "address"
        },
        {
          "internalType": "address",
          "name": "account",
          "type": "address"
        }
      ],
      "name": "balanceOfIERC721",
      "outputs": [
        {
          "internalType": "uint256",
          "name": "",
          "type": "uint256"
        }
      ],
      "stateMutability": "view",
      "type": "function"
    },
    {
      "inputs": [
        {
          "internalType": "address",
          "name": "token",
          "type": "address"
        }
      ],
      "name": "decimals",
      "outputs": [
        {
          "internalType": "uint8",
          "name": "",
          "type": "uint8"
        }
      ],
      "stateMutability": "view",
      "type": "function"
    },
    {
      "inputs": [
        {
          "internalType": "address",
          "name": "token",
          "type": "address"
        },
        {
          "internalType": "uint256",
          "name": "tokenId",
          "type": "uint256"
        }
      ],
      "name": "getApproved",
      "outputs": [
        {
          "internalType": "address",
          "name": "",
          "type": "address"
        }
      ],
      "stateMutability": "view",
      "type": "function"
    },
    {
      "inputs": [
        {
          "internalType": "address",
          "name": "token",
          "type": "address"
        },
        {
          "internalType": "uint256",
          "name": "serialNo",
          "type": "uint256"
        }
      ],
      "name": "getOwnerOf",
      "outputs": [
        {
          "internalType": "address",
          "name": "",
          "type": "address"
        }
      ],
      "stateMutability": "view",
      "type": "function"
    },
    {
      "inputs": [
        {
          "internalType": "address",
          "name": "token",
          "type": "address"
        },
        {
          "internalType": "address",
          "name": "owner",
          "type": "address"
        },
        {
          "internalType": "address",
          "name": "operator",
          "type": "address"
        }
      ],
      "name": "isApprovedForAll",
      "outputs": [
        {
          "internalType": "bool",
          "name": "",
          "type": "bool"
        }
      ],
      "stateMutability": "view",
      "type": "function"
    },
    {
      "inputs": [
        {
          "internalType": "address",
          "name": "token",
          "type": "address"
        }
      ],
      "name": "name",
      "outputs": [
        {
          "internalType": "string",
          "name": "",
          "type": "string"
        }
      ],
      "stateMutability": "view",
      "type": "function"
    },
    {
      "inputs": [
        {
          "internalType": "address",
          "name": "token",
          "type": "address"
        }
      ],
      "name": "nameIERC721",
      "outputs": [
        {
          "internalType": "string",
          "name": "",
          "type": "string"
        }
      ],
      "stateMutability": "view",
      "type": "function"
    },
    {
      "inputs": [
        {
          "internalType": "address",
          "name": "token",
          "type": "address"
        }
      ],
      "name": "symbol",
      "outputs": [
        {
          "internalType": "string",
          "name": "",
          "type": "string"
        }
      ],
      "stateMutability": "view",
      "type": "function"
    },
    {
      "inputs": [
        {
          "internalType": "address",
          "name": "token",
          "type": "address"
        }
      ],
      "name": "symbolIERC721",
      "outputs": [
        {
          "internalType": "string",
          "name": "",
          "type": "string"
        }
      ],
      "stateMutability": "view",
      "type": "function"
    },
    {
      "inputs": [
        {
          "internalType": "address",
          "name": "token",
          "type": "address"
        },
        {
          "internalType": "uint256",
          "name": "tokenId",
          "type": "uint256"
        }
      ],
      "name": "tokenURI",
      "outputs": [
        {
          "internalType": "string",
          "name": "",
          "type": "string"
        }
      ],
      "stateMutability": "view",
      "type": "function"
    },
    {
      "inputs": [
        {
          "internalType": "address",
          "name": "token",
          "type": "address"
        }
      ],
      "name": "totalSupply",
      "outputs": [
        {
          "internalType": "uint256",
          "name": "",
          "type": "uint256"
        }
      ],
      "stateMutability": "view",
      "type": "function"
    },
    {
      "inputs": [
        {
          "internalType": "address",
          "name": "token",
          "type": "address"
        }
      ],
      "name": "totalSupplyIERC721",
      "outputs": [
        {
          "internalType": "uint256",
          "name": "",
          "type": "uint256"
        }
      ],
      "stateMutability": "view",
      "type": "function"
    },
    {
      "inputs": [
        {
          "internalType": "address",
          "name": "token",
          "type": "address"
        },
        {
          "internalType": "address",
          "name": "to",
          "type": "address"
        },
        {
          "internalType": "uint256",
          "name": "amount",
          "type": "uint256"
        }
      ],
      "name": "transfer",
      "outputs": [
        {
          "internalType": "bool",
          "name": "",
          "type": "bool"
        }
      ],
      "stateMutability": "nonpayable",
      "type": "function"
    },
    {
      "inputs": [
        {
          "internalType": "address",
          "name": "token",
          "type": "address"
        },
        {
          "internalType": "address",
          "name": "from",
          "type": "address"
        },
        {
          "internalType": "address",
          "name": "to",
          "type": "address"
        },
        {
          "internalType": "uint256",
          "name": "amount",
          "type": "uint256"
        }
      ],
      "name": "transferFrom",
      "outputs": [
        {
          "internalType": "bool",
          "name": "",
          "type": "bool"
        }
      ],
      "stateMutability": "nonpayable",
      "type": "function"
    }
  ],
  "bytecode": "0x608060405234801561001057600080fd5b50610c4f806100206000396000f3fe608060405234801561001057600080fd5b506004361061011b5760003560e01c8063beabacc8116100b2578063e4dc2aa411610081578063f49f40db11610066578063f49f40db14610262578063f6b486b7146101de578063f7888aec1461014957600080fd5b8063e4dc2aa4146101b8578063e9dc63751461024f57600080fd5b8063beabacc8146101f1578063d449a83214610204578063d5d03e2114610229578063e1f21c671461023c57600080fd5b80633cd9a3ab116100ee5780633cd9a3ab146101b8578063927da105146101cb578063a86e3576146101de578063b1ec803c1461012057600080fd5b80630198489214610120578063063c7dcf14610149578063098f23661461016a57806315dacbea14610195575b600080fd5b61013361012e366004610900565b610275565b604051610140919061094d565b60405180910390f35b61015c610157366004610980565b6102f2565b604051908152602001610140565b61017d6101783660046109b9565b61038f565b6040516001600160a01b039091168152602001610140565b6101a86101a33660046109e5565b610424565b6040519015158152602001610140565b61015c6101c6366004610900565b6104d4565b61015c6101d9366004610a36565b610547565b6101336101ec366004610900565b6105ed565b6101a86101ff366004610a81565b610628565b610217610212366004610900565b6106c8565b60405160ff9091168152602001610140565b61017d6102373660046109b9565b61073b565b6101a861024a366004610a81565b610784565b61013361025d3660046109b9565b6107d6565b6101a8610270366004610a36565b61086e565b6060816001600160a01b03166306fdde036040518163ffffffff1660e01b815260040160006040518083038186803b1580156102b057600080fd5b505afa1580156102c4573d6000803e3d6000fd5b505050506040513d6000823e601f3d908101601f191682016040526102ec9190810190610af1565b92915050565b6040517f70a082310000000000000000000000000000000000000000000000000000000081526001600160a01b038281166004830152600091908416906370a082319060240160206040518083038186803b15801561035057600080fd5b505afa158015610364573d6000803e3d6000fd5b505050506040513d601f19601f820116820180604052508101906103889190610b9e565b9392505050565b6040517f081812fc000000000000000000000000000000000000000000000000000000008152600481018290526000906001600160a01b0384169063081812fc906024015b60206040518083038186803b1580156103ec57600080fd5b505afa158015610400573d6000803e3d6000fd5b505050506040513d601f19601f820116820180604052508101906103889190610bb7565b6040517f23b872dd0000000000000000000000000000000000000000000000000000000081526001600160a01b038481166004830152838116602483015260448201839052600091908616906323b872dd90606401602060405180830381600087803b15801561049357600080fd5b505af11580156104a7573d6000803e3d6000fd5b505050506040513d601f19601f820116820180604052508101906104cb9190610bd4565b95945050505050565b6000816001600160a01b03166318160ddd6040518163ffffffff1660e01b815260040160206040518083038186803b15801561050f57600080fd5b505afa158015610523573d6000803e3d6000fd5b505050506040513d601f19601f820116820180604052508101906102ec9190610b9e565b6040517fdd62ed3e0000000000000000000000000000000000000000000000000000000081526001600160a01b03838116600483015282811660248301526000919085169063dd62ed3e9060440160206040518083038186803b1580156105ad57600080fd5b505afa1580156105c1573d6000803e3d6000fd5b505050506040513d601f19601f820116820180604052508101906105e59190610b9e565b949350505050565b6060816001600160a01b03166395d89b416040518163ffffffff1660e01b815260040160006040518083038186803b1580156102b057600080fd5b6040517fa9059cbb0000000000000000000000000000000000000000000000000000000081526001600160a01b038381166004830152602482018390526000919085169063a9059cbb906044015b602060405180830381600087803b15801561069057600080fd5b505af11580156106a4573d6000803e3d6000fd5b505050506040513d601f19601f820116820180604052508101906105e59190610bd4565b6000816001600160a01b031663313ce5676040518163ffffffff1660e01b815260040160206040518083038186803b15801561070357600080fd5b505afa158015610717573d6000803e3d6000fd5b505050506040513d601f19601f820116820180604052508101906102ec9190610bf6565b6040517f6352211e000000000000000000000000000000000000000000000000000000008152600481018290526000906001600160a01b03841690636352211e906024016103d4565b6040517f095ea7b30000000000000000000000000000000000000000000000000000000081526001600160a01b038381166004830152602482018390526000919085169063095ea7b390604401610676565b6040517fc87b56dd000000000000000000000000000000000000000000000000000000008152600481018290526060906001600160a01b0384169063c87b56dd9060240160006040518083038186803b15801561083257600080fd5b505afa158015610846573d6000803e3d6000fd5b505050506040513d6000823e601f3d908101601f191682016040526103889190810190610af1565b6040517fe985e9c50000000000000000000000000000000000000000000000000000000081526001600160a01b03838116600483015282811660248301526000919085169063e985e9c59060440160206040518083038186803b1580156108d457600080fd5b505afa1580156106a4573d6000803e3d6000fd5b6001600160a01b03811681146108fd57600080fd5b50565b60006020828403121561091257600080fd5b8135610388816108e8565b60005b83811015610938578181015183820152602001610920565b83811115610947576000848401525b50505050565b602081526000825180602084015261096c81604085016020870161091d565b601f01601f19169190910160400192915050565b6000806040838503121561099357600080fd5b823561099e816108e8565b915060208301356109ae816108e8565b809150509250929050565b600080604083850312156109cc57600080fd5b82356109d7816108e8565b946020939093013593505050565b600080600080608085870312156109fb57600080fd5b8435610a06816108e8565b93506020850135610a16816108e8565b92506040850135610a26816108e8565b9396929550929360600135925050565b600080600060608486031215610a4b57600080fd5b8335610a56816108e8565b92506020840135610a66816108e8565b91506040840135610a76816108e8565b809150509250925092565b600080600060608486031215610a9657600080fd5b8335610aa1816108e8565b92506020840135610ab1816108e8565b929592945050506040919091013590565b7f4e487b7100000000000000000000000000000000000000000000000000000000600052604160045260246000fd5b600060208284031215610b0357600080fd5b815167ffffffffffffffff80821115610b1b57600080fd5b818401915084601f830112610b2f57600080fd5b815181811115610b4157610b41610ac2565b604051601f8201601f19908116603f01168101908382118183101715610b6957610b69610ac2565b81604052828152876020848701011115610b8257600080fd5b610b9383602083016020880161091d565b979650505050505050565b600060208284031215610bb057600080fd5b5051919050565b600060208284031215610bc957600080fd5b8151610388816108e8565b600060208284031215610be657600080fd5b8151801515811461038857600080fd5b600060208284031215610c0857600080fd5b815160ff8116811461038857600080fdfea26469706673582212209ae3cc7d4da3540c55d04953bdf73f9160aa66f925eb573d30804349db0ab53464736f6c63430008090033",
  "linkReferences": {},
  "deployedLinkReferences": {}
}