{
  "_format": "hh-sol-artifact-1",
  "contractName": "ERCTestContract",
  "sourceName": "contracts/ERCTestContract.sol",
  "abi": [
    {
      "inputs": [
        {
          "internalType": "address",
          "name": "token",
          "type": "address"
        },
        {
          "internalType": "address",
          "name": "owner",
          "type": "address"
        },
        {
          "internalType": "address",
          "name": "spender",
          "type": "address"
        }
      ],
      "name": "allowance",
      "outputs": [
        {
          "internalType": "uint256",
          "name": "",
          "type": "uint256"
        }
      ],
      "stateMutability": "view",
      "type": "function"
    },
    {
      "inputs": [
        {
          "internalType": "address",
          "name": "token",
          "type": "address"
        },
        {
          "internalType": "address",
          "name": "account",
          "type": "address"
        }
      ],
      "name": "balanceOf",
      "outputs": [
        {
          "internalType": "uint256",
          "name": "",
          "type": "uint256"
        }
      ],
      "stateMutability": "view",
      "type": "function"
    },
    {
      "inputs": [
        {
          "internalType": "address",
          "name": "token",
          "type": "address"
        },
        {
          "internalType": "address",
          "name": "account",
          "type": "address"
        }
      ],
      "name": "balanceOfIERC721",
      "outputs": [
        {
          "internalType": "uint256",
          "name": "",
          "type": "uint256"
        }
      ],
      "stateMutability": "view",
      "type": "function"
    },
    {
      "inputs": [
        {
          "internalType": "address",
          "name": "token",
          "type": "address"
        }
      ],
      "name": "decimals",
      "outputs": [
        {
          "internalType": "uint8",
          "name": "",
          "type": "uint8"
        }
      ],
      "stateMutability": "view",
      "type": "function"
    },
    {
      "inputs": [
        {
          "internalType": "address",
          "name": "token",
          "type": "address"
        },
        {
          "internalType": "uint256",
          "name": "tokenId",
          "type": "uint256"
        }
      ],
      "name": "getApproved",
      "outputs": [
        {
          "internalType": "address",
          "name": "",
          "type": "address"
        }
      ],
      "stateMutability": "view",
      "type": "function"
    },
    {
      "inputs": [
        {
          "internalType": "address",
          "name": "token",
          "type": "address"
        },
        {
          "internalType": "uint256",
          "name": "serialNo",
          "type": "uint256"
        }
      ],
      "name": "getOwnerOf",
      "outputs": [
        {
          "internalType": "address",
          "name": "",
          "type": "address"
        }
      ],
      "stateMutability": "view",
      "type": "function"
    },
    {
      "inputs": [
        {
          "internalType": "address",
          "name": "token",
          "type": "address"
        },
        {
          "internalType": "address",
          "name": "owner",
          "type": "address"
        },
        {
          "internalType": "address",
          "name": "operator",
          "type": "address"
        }
      ],
      "name": "isApprovedForAll",
      "outputs": [
        {
          "internalType": "bool",
          "name": "",
          "type": "bool"
        }
      ],
      "stateMutability": "view",
      "type": "function"
    },
    {
      "inputs": [
        {
          "internalType": "address",
          "name": "token",
          "type": "address"
        }
      ],
      "name": "name",
      "outputs": [
        {
          "internalType": "string",
          "name": "",
          "type": "string"
        }
      ],
      "stateMutability": "view",
      "type": "function"
    },
    {
      "inputs": [
        {
          "internalType": "address",
          "name": "token",
          "type": "address"
        }
      ],
      "name": "nameIERC721",
      "outputs": [
        {
          "internalType": "string",
          "name": "",
          "type": "string"
        }
      ],
      "stateMutability": "view",
      "type": "function"
    },
    {
      "inputs": [
        {
          "internalType": "address",
          "name": "token",
          "type": "address"
        }
      ],
      "name": "symbol",
      "outputs": [
        {
          "internalType": "string",
          "name": "",
          "type": "string"
        }
      ],
      "stateMutability": "view",
      "type": "function"
    },
    {
      "inputs": [
        {
          "internalType": "address",
          "name": "token",
          "type": "address"
        }
      ],
      "name": "symbolIERC721",
      "outputs": [
        {
          "internalType": "string",
          "name": "",
          "type": "string"
        }
      ],
      "stateMutability": "view",
      "type": "function"
    },
    {
      "inputs": [
        {
          "internalType": "address",
          "name": "token",
          "type": "address"
        },
        {
          "internalType": "uint256",
          "name": "tokenId",
          "type": "uint256"
        }
      ],
      "name": "tokenURI",
      "outputs": [
        {
          "internalType": "string",
          "name": "",
          "type": "string"
        }
      ],
      "stateMutability": "view",
      "type": "function"
    },
    {
      "inputs": [
        {
          "internalType": "address",
          "name": "token",
          "type": "address"
        }
      ],
      "name": "totalSupply",
      "outputs": [
        {
          "internalType": "uint256",
          "name": "",
          "type": "uint256"
        }
      ],
      "stateMutability": "view",
      "type": "function"
    },
    {
      "inputs": [
        {
          "internalType": "address",
          "name": "token",
          "type": "address"
        }
      ],
      "name": "totalSupplyIERC721",
      "outputs": [
        {
          "internalType": "uint256",
          "name": "",
          "type": "uint256"
        }
      ],
      "stateMutability": "view",
      "type": "function"
    }
  ],
  "bytecode": "0x608060405234801561001057600080fd5b506109d5806100206000396000f3fe608060405234801561001057600080fd5b50600436106100ea5760003560e01c8063d449a8321161008c578063e9dc637511610066578063e9dc6375146101d5578063f49f40db146101e8578063f6b486b71461018a578063f7888aec1461011857600080fd5b8063d449a8321461019d578063d5d03e21146101c2578063e4dc2aa41461016457600080fd5b80633cd9a3ab116100c85780633cd9a3ab14610164578063927da10514610177578063a86e35761461018a578063b1ec803c146100ef57600080fd5b806301984892146100ef578063063c7dcf14610118578063098f236614610139575b600080fd5b6101026100fd366004610718565b61020b565b60405161010f9190610765565b60405180910390f35b61012b610126366004610798565b610288565b60405190815260200161010f565b61014c6101473660046107d1565b610325565b6040516001600160a01b03909116815260200161010f565b61012b610172366004610718565b6103ba565b61012b6101853660046107fd565b61042d565b610102610198366004610718565b6104d3565b6101b06101ab366004610718565b61050e565b60405160ff909116815260200161010f565b61014c6101d03660046107d1565b610581565b6101026101e33660046107d1565b6105ca565b6101fb6101f63660046107fd565b610662565b604051901515815260200161010f565b6060816001600160a01b03166306fdde036040518163ffffffff1660e01b815260040160006040518083038186803b15801561024657600080fd5b505afa15801561025a573d6000803e3d6000fd5b505050506040513d6000823e601f3d908101601f191682016040526102829190810190610877565b92915050565b6040517f70a082310000000000000000000000000000000000000000000000000000000081526001600160a01b038281166004830152600091908416906370a082319060240160206040518083038186803b1580156102e657600080fd5b505afa1580156102fa573d6000803e3d6000fd5b505050506040513d601f19601f8201168201806040525081019061031e9190610924565b9392505050565b6040517f081812fc000000000000000000000000000000000000000000000000000000008152600481018290526000906001600160a01b0384169063081812fc906024015b60206040518083038186803b15801561038257600080fd5b505afa158015610396573d6000803e3d6000fd5b505050506040513d601f19601f8201168201806040525081019061031e919061093d565b6000816001600160a01b03166318160ddd6040518163ffffffff1660e01b815260040160206040518083038186803b1580156103f557600080fd5b505afa158015610409573d6000803e3d6000fd5b505050506040513d601f19601f820116820180604052508101906102829190610924565b6040517fdd62ed3e0000000000000000000000000000000000000000000000000000000081526001600160a01b03838116600483015282811660248301526000919085169063dd62ed3e9060440160206040518083038186803b15801561049357600080fd5b505afa1580156104a7573d6000803e3d6000fd5b505050506040513d601f19601f820116820180604052508101906104cb9190610924565b949350505050565b6060816001600160a01b03166395d89b416040518163ffffffff1660e01b815260040160006040518083038186803b15801561024657600080fd5b6000816001600160a01b031663313ce5676040518163ffffffff1660e01b815260040160206040518083038186803b15801561054957600080fd5b505afa15801561055d573d6000803e3d6000fd5b505050506040513d601f19601f82011682018060405250810190610282919061095a565b6040517f6352211e000000000000000000000000000000000000000000000000000000008152600481018290526000906001600160a01b03841690636352211e9060240161036a565b6040517fc87b56dd000000000000000000000000000000000000000000000000000000008152600481018290526060906001600160a01b0384169063c87b56dd9060240160006040518083038186803b15801561062657600080fd5b505afa15801561063a573d6000803e3d6000fd5b505050506040513d6000823e601f3d908101601f1916820160405261031e9190810190610877565b6040517fe985e9c50000000000000000000000000000000000000000000000000000000081526001600160a01b03838116600483015282811660248301526000919085169063e985e9c59060440160206040518083038186803b1580156106c857600080fd5b505afa1580156106dc573d6000803e3d6000fd5b505050506040513d601f19601f820116820180604052508101906104cb919061097d565b6001600160a01b038116811461071557600080fd5b50565b60006020828403121561072a57600080fd5b813561031e81610700565b60005b83811015610750578181015183820152602001610738565b8381111561075f576000848401525b50505050565b6020815260008251806020840152610784816040850160208701610735565b601f01601f19169190910160400192915050565b600080604083850312156107ab57600080fd5b82356107b681610700565b915060208301356107c681610700565b809150509250929050565b600080604083850312156107e457600080fd5b82356107ef81610700565b946020939093013593505050565b60008060006060848603121561081257600080fd5b833561081d81610700565b9250602084013561082d81610700565b9150604084013561083d81610700565b809150509250925092565b7f4e487b7100000000000000000000000000000000000000000000000000000000600052604160045260246000fd5b60006020828403121561088957600080fd5b815167ffffffffffffffff808211156108a157600080fd5b818401915084601f8301126108b557600080fd5b8151818111156108c7576108c7610848565b604051601f8201601f19908116603f011681019083821181831017156108ef576108ef610848565b8160405282815287602084870101111561090857600080fd5b610919836020830160208801610735565b979650505050505050565b60006020828403121561093657600080fd5b5051919050565b60006020828403121561094f57600080fd5b815161031e81610700565b60006020828403121561096c57600080fd5b815160ff8116811461031e57600080fd5b60006020828403121561098f57600080fd5b8151801515811461031e57600080fdfea2646970667358221220479ab6f5409fea1632924afee89e0df8c0e7f30d42c9a0a3df297a977b30f49964736f6c63430008090033",
  "linkReferences": {},
  "deployedLinkReferences": {}
}