{
  "_format": "hh-sol-artifact-1",
  "contractName": "ERCTestContract",
  "sourceName": "contracts/ERCTestContract.sol",
  "abi": [
    {
      "inputs": [
        {
          "internalType": "address",
          "name": "token",
          "type": "address"
        },
        {
          "internalType": "address",
          "name": "owner",
          "type": "address"
        },
        {
          "internalType": "address",
          "name": "spender",
          "type": "address"
        }
      ],
      "name": "allowance",
      "outputs": [
        {
          "internalType": "uint256",
          "name": "",
          "type": "uint256"
        }
      ],
      "stateMutability": "view",
      "type": "function"
    },
    {
      "inputs": [
        {
          "internalType": "address",
          "name": "token",
          "type": "address"
        },
        {
          "internalType": "address",
          "name": "account",
          "type": "address"
        }
      ],
      "name": "balanceOf",
      "outputs": [
        {
          "internalType": "uint256",
          "name": "",
          "type": "uint256"
        }
      ],
      "stateMutability": "view",
      "type": "function"
    },
    {
      "inputs": [
        {
          "internalType": "address",
          "name": "token",
          "type": "address"
        }
      ],
      "name": "decimals",
      "outputs": [
        {
          "internalType": "uint8",
          "name": "",
          "type": "uint8"
        }
      ],
      "stateMutability": "view",
      "type": "function"
    },
    {
      "inputs": [
        {
          "internalType": "address",
          "name": "token",
          "type": "address"
        },
        {
          "internalType": "uint256",
          "name": "tokenId",
          "type": "uint256"
        }
      ],
      "name": "getApproved",
      "outputs": [
        {
          "internalType": "address",
          "name": "",
          "type": "address"
        }
      ],
      "stateMutability": "view",
      "type": "function"
    },
    {
      "inputs": [
        {
          "internalType": "address",
          "name": "token",
          "type": "address"
        },
        {
          "internalType": "uint256",
          "name": "serialNo",
          "type": "uint256"
        }
      ],
      "name": "getOwnerOf",
      "outputs": [
        {
          "internalType": "address",
          "name": "",
          "type": "address"
        }
      ],
      "stateMutability": "view",
      "type": "function"
    },
    {
      "inputs": [
        {
          "internalType": "address",
          "name": "token",
          "type": "address"
        },
        {
          "internalType": "address",
          "name": "owner",
          "type": "address"
        },
        {
          "internalType": "address",
          "name": "operator",
          "type": "address"
        }
      ],
      "name": "isApprovedForAll",
      "outputs": [
        {
          "internalType": "bool",
          "name": "",
          "type": "bool"
        }
      ],
      "stateMutability": "view",
      "type": "function"
    },
    {
      "inputs": [
        {
          "internalType": "address",
          "name": "token",
          "type": "address"
        }
      ],
      "name": "name",
      "outputs": [
        {
          "internalType": "string",
          "name": "",
          "type": "string"
        }
      ],
      "stateMutability": "view",
      "type": "function"
    },
    {
      "inputs": [
        {
          "internalType": "address",
          "name": "token",
          "type": "address"
        }
      ],
      "name": "symbol",
      "outputs": [
        {
          "internalType": "string",
          "name": "",
          "type": "string"
        }
      ],
      "stateMutability": "view",
      "type": "function"
    },
    {
      "inputs": [
        {
          "internalType": "address",
          "name": "token",
          "type": "address"
        },
        {
          "internalType": "uint256",
          "name": "tokenId",
          "type": "uint256"
        }
      ],
      "name": "tokenURI",
      "outputs": [
        {
          "internalType": "string",
          "name": "",
          "type": "string"
        }
      ],
      "stateMutability": "view",
      "type": "function"
    },
    {
      "inputs": [
        {
          "internalType": "address",
          "name": "token",
          "type": "address"
        }
      ],
      "name": "totalSupply",
      "outputs": [
        {
          "internalType": "uint256",
          "name": "",
          "type": "uint256"
        }
      ],
      "stateMutability": "view",
      "type": "function"
    }
  ],
  "bytecode": "0x608060405234801561001057600080fd5b506108cc806100206000396000f3fe608060405234801561001057600080fd5b506004361061009e5760003560e01c8063d5d03e2111610066578063d5d03e2114610150578063e4dc2aa414610163578063e9dc637514610176578063f49f40db14610189578063f7888aec146101ac57600080fd5b806301984892146100a3578063098f2366146100cc578063927da105146100f7578063a86e357614610118578063d449a8321461012b575b600080fd5b6100b66100b136600461061e565b6101bf565b6040516100c39190610805565b60405180910390f35b6100df6100da3660046106d8565b61023c565b6040516001600160a01b0390911681526020016100c3565b61010a61010536600461068e565b6102bf565b6040519081526020016100c3565b6100b661012636600461061e565b61034c565b61013e61013936600461061e565b610387565b60405160ff90911681526020016100c3565b6100df61015e3660046106d8565b6103fa565b61010a61017136600461061e565b61042a565b6100b66101843660046106d8565b61049d565b61019c61019736600461068e565b61051c565b60405190151581526020016100c3565b61010a6101ba366004610656565b6105a1565b6060816001600160a01b03166306fdde036040518163ffffffff1660e01b815260040160006040518083038186803b1580156101fa57600080fd5b505afa15801561020e573d6000803e3d6000fd5b505050506040513d6000823e601f3d908101601f191682016040526102369190810190610723565b92915050565b60405163020604bf60e21b8152600481018290526000906001600160a01b0384169063081812fc906024015b60206040518083038186803b15801561028057600080fd5b505afa158015610294573d6000803e3d6000fd5b505050506040513d601f19601f820116820180604052508101906102b8919061063a565b9392505050565b604051636eb1769f60e11b81526001600160a01b03838116600483015282811660248301526000919085169063dd62ed3e9060440160206040518083038186803b15801561030c57600080fd5b505afa158015610320573d6000803e3d6000fd5b505050506040513d601f19601f8201168201806040525081019061034491906107cc565b949350505050565b6060816001600160a01b03166395d89b416040518163ffffffff1660e01b815260040160006040518083038186803b1580156101fa57600080fd5b6000816001600160a01b031663313ce5676040518163ffffffff1660e01b815260040160206040518083038186803b1580156103c257600080fd5b505afa1580156103d6573d6000803e3d6000fd5b505050506040513d601f19601f8201168201806040525081019061023691906107e4565b6040516331a9108f60e11b8152600481018290526000906001600160a01b03841690636352211e90602401610268565b6000816001600160a01b03166318160ddd6040518163ffffffff1660e01b815260040160206040518083038186803b15801561046557600080fd5b505afa158015610479573d6000803e3d6000fd5b505050506040513d601f19601f8201168201806040525081019061023691906107cc565b60405163c87b56dd60e01b8152600481018290526060906001600160a01b0384169063c87b56dd9060240160006040518083038186803b1580156104e057600080fd5b505afa1580156104f4573d6000803e3d6000fd5b505050506040513d6000823e601f3d908101601f191682016040526102b89190810190610723565b60405163e985e9c560e01b81526001600160a01b03838116600483015282811660248301526000919085169063e985e9c59060440160206040518083038186803b15801561056957600080fd5b505afa15801561057d573d6000803e3d6000fd5b505050506040513d601f19601f820116820180604052508101906103449190610703565b6040516370a0823160e01b81526001600160a01b038281166004830152600091908416906370a082319060240160206040518083038186803b1580156105e657600080fd5b505afa1580156105fa573d6000803e3d6000fd5b505050506040513d601f19601f820116820180604052508101906102b891906107cc565b60006020828403121561062f578081fd5b81356102b88161087e565b60006020828403121561064b578081fd5b81516102b88161087e565b60008060408385031215610668578081fd5b82356106738161087e565b915060208301356106838161087e565b809150509250929050565b6000806000606084860312156106a2578081fd5b83356106ad8161087e565b925060208401356106bd8161087e565b915060408401356106cd8161087e565b809150509250925092565b600080604083850312156106ea578182fd5b82356106f58161087e565b946020939093013593505050565b600060208284031215610714578081fd5b815180151581146102b8578182fd5b600060208284031215610734578081fd5b815167ffffffffffffffff8082111561074b578283fd5b818401915084601f83011261075e578283fd5b81518181111561077057610770610868565b604051601f8201601f19908116603f0116810190838211818310171561079857610798610868565b816040528281528760208487010111156107b0578586fd5b6107c1836020830160208801610838565b979650505050505050565b6000602082840312156107dd578081fd5b5051919050565b6000602082840312156107f5578081fd5b815160ff811681146102b8578182fd5b6020815260008251806020840152610824816040850160208701610838565b601f01601f19169190910160400192915050565b60005b8381101561085357818101518382015260200161083b565b83811115610862576000848401525b50505050565b634e487b7160e01b600052604160045260246000fd5b6001600160a01b038116811461089357600080fd5b5056fea264697066735822122025c8ecf4a43db7544c461217a4f68a8c2f0635fc37427137e941fe448666458b64736f6c63430008040033",
  "linkReferences": {},
  "deployedLinkReferences": {}
}