{
  "_format": "hh-sol-artifact-1",
  "contractName": "EstimatePrecompileContract",
  "sourceName": "contracts/EstimatePrecompileContract.sol",
  "abi": [
    {
      "anonymous": false,
      "inputs": [
        {
          "indexed": false,
          "internalType": "bool",
          "name": "",
          "type": "bool"
        },
        {
          "indexed": false,
          "internalType": "bytes",
          "name": "",
          "type": "bytes"
        }
      ],
      "name": "CallResponseEvent",
      "type": "event"
    },
    {
      "inputs": [
        {
          "internalType": "address",
          "name": "token",
          "type": "address"
        },
        {
          "internalType": "address",
          "name": "spender",
          "type": "address"
        },
        {
          "internalType": "uint256",
          "name": "amount",
          "type": "uint256"
        }
      ],
      "name": "approveExternal",
      "outputs": [
        {
          "internalType": "int256",
          "name": "responseCode",
          "type": "int256"
        }
      ],
      "stateMutability": "nonpayable",
      "type": "function"
    },
    {
      "inputs": [
        {
          "internalType": "address",
          "name": "token",
          "type": "address"
        },
        {
          "internalType": "address",
          "name": "approved",
          "type": "address"
        },
        {
          "internalType": "uint256",
          "name": "serialNumber",
          "type": "uint256"
        }
      ],
      "name": "approveNFTExternal",
      "outputs": [
        {
          "internalType": "int256",
          "name": "responseCode",
          "type": "int256"
        }
      ],
      "stateMutability": "nonpayable",
      "type": "function"
    },
    {
      "inputs": [
        {
          "internalType": "address",
          "name": "account",
          "type": "address"
        },
        {
          "internalType": "address",
          "name": "token",
          "type": "address"
        }
      ],
      "name": "associateTokenExternal",
      "outputs": [
        {
          "internalType": "int256",
          "name": "responseCode",
          "type": "int256"
        }
      ],
      "stateMutability": "nonpayable",
      "type": "function"
    },
    {
      "inputs": [
        {
          "internalType": "address",
          "name": "account",
          "type": "address"
        },
        {
          "internalType": "address[]",
          "name": "tokens",
          "type": "address[]"
        }
      ],
      "name": "associateTokensExternal",
      "outputs": [
        {
          "internalType": "int256",
          "name": "responseCode",
          "type": "int256"
        }
      ],
      "stateMutability": "nonpayable",
      "type": "function"
    },
    {
      "inputs": [
        {
          "internalType": "address",
          "name": "token",
          "type": "address"
        },
        {
          "internalType": "int64",
          "name": "amount",
          "type": "int64"
        },
        {
          "internalType": "int64[]",
          "name": "serialNumbers",
          "type": "int64[]"
        }
      ],
      "name": "burnTokenExternal",
      "outputs": [
        {
          "internalType": "int256",
          "name": "responseCode",
          "type": "int256"
        },
        {
          "internalType": "int64",
          "name": "newTotalSupply",
          "type": "int64"
        }
      ],
      "stateMutability": "nonpayable",
      "type": "function"
    },
    {
      "inputs": [
        {
          "internalType": "address",
          "name": "treasury",
          "type": "address"
        }
      ],
      "name": "createFungibleTokenPublic",
      "outputs": [],
      "stateMutability": "payable",
      "type": "function"
    },
    {
      "inputs": [
        {
          "internalType": "address",
          "name": "treasury",
          "type": "address"
        },
        {
          "internalType": "address",
          "name": "fixedFeeTokenAddress",
          "type": "address"
        }
      ],
      "name": "createFungibleTokenWithCustomFeesPublic",
      "outputs": [],
      "stateMutability": "payable",
      "type": "function"
    },
    {
      "inputs": [
        {
          "internalType": "address",
          "name": "treasury",
          "type": "address"
        }
      ],
      "name": "createNonFungibleTokenPublic",
      "outputs": [],
      "stateMutability": "payable",
      "type": "function"
    },
    {
      "inputs": [
        {
          "internalType": "address",
          "name": "treasury",
          "type": "address"
        },
        {
          "internalType": "address",
          "name": "fixedFeeTokenAddress",
          "type": "address"
        }
      ],
      "name": "createNonFungibleTokenWithCustomFeesPublic",
      "outputs": [],
      "stateMutability": "payable",
      "type": "function"
    },
    {
      "inputs": [
        {
          "components": [
            {
              "components": [
                {
                  "internalType": "address",
                  "name": "accountID",
                  "type": "address"
                },
                {
                  "internalType": "int64",
                  "name": "amount",
                  "type": "int64"
                },
                {
                  "internalType": "bool",
                  "name": "isApproval",
                  "type": "bool"
                }
              ],
              "internalType": "struct IHederaTokenService.AccountAmount[]",
              "name": "transfers",
              "type": "tuple[]"
            }
          ],
          "internalType": "struct IHederaTokenService.TransferList",
          "name": "transferList",
          "type": "tuple"
        },
        {
          "components": [
            {
              "internalType": "address",
              "name": "token",
              "type": "address"
            },
            {
              "components": [
                {
                  "internalType": "address",
                  "name": "accountID",
                  "type": "address"
                },
                {
                  "internalType": "int64",
                  "name": "amount",
                  "type": "int64"
                },
                {
                  "internalType": "bool",
                  "name": "isApproval",
                  "type": "bool"
                }
              ],
              "internalType": "struct IHederaTokenService.AccountAmount[]",
              "name": "transfers",
              "type": "tuple[]"
            },
            {
              "components": [
                {
                  "internalType": "address",
                  "name": "senderAccountID",
                  "type": "address"
                },
                {
                  "internalType": "address",
                  "name": "receiverAccountID",
                  "type": "address"
                },
                {
                  "internalType": "int64",
                  "name": "serialNumber",
                  "type": "int64"
                },
                {
                  "internalType": "bool",
                  "name": "isApproval",
                  "type": "bool"
                }
              ],
              "internalType": "struct IHederaTokenService.NftTransfer[]",
              "name": "nftTransfers",
              "type": "tuple[]"
            }
          ],
          "internalType": "struct IHederaTokenService.TokenTransferList[]",
          "name": "tokenTransfers",
          "type": "tuple[]"
        }
      ],
      "name": "cryptoTransferExternal",
      "outputs": [
        {
          "internalType": "int256",
          "name": "responseCode",
          "type": "int256"
        }
      ],
      "stateMutability": "nonpayable",
      "type": "function"
    },
    {
      "inputs": [
        {
          "internalType": "address",
          "name": "token",
          "type": "address"
        }
      ],
      "name": "deleteTokenExternal",
      "outputs": [
        {
          "internalType": "int256",
          "name": "responseCode",
          "type": "int256"
        }
      ],
      "stateMutability": "nonpayable",
      "type": "function"
    },
    {
      "inputs": [
        {
          "internalType": "address",
          "name": "token",
          "type": "address"
        }
      ],
      "name": "deleteTokenTwiceExternal",
      "outputs": [
        {
          "internalType": "int256",
          "name": "responseCode",
          "type": "int256"
        }
      ],
      "stateMutability": "nonpayable",
      "type": "function"
    },
    {
      "inputs": [
        {
          "internalType": "address",
          "name": "account",
          "type": "address"
        },
        {
          "internalType": "address",
          "name": "token",
          "type": "address"
        }
      ],
      "name": "dissociateAndAssociateTokenExternal",
      "outputs": [
        {
          "internalType": "int256",
          "name": "responseCode",
          "type": "int256"
        }
      ],
      "stateMutability": "nonpayable",
      "type": "function"
    },
    {
      "inputs": [
        {
          "internalType": "address",
          "name": "account",
          "type": "address"
        },
        {
          "internalType": "address",
          "name": "token",
          "type": "address"
        }
      ],
      "name": "dissociateTokenExternal",
      "outputs": [
        {
          "internalType": "int256",
          "name": "responseCode",
          "type": "int256"
        }
      ],
      "stateMutability": "nonpayable",
      "type": "function"
    },
    {
      "inputs": [
        {
          "internalType": "address",
          "name": "account",
          "type": "address"
        },
        {
          "internalType": "address[]",
          "name": "tokens",
          "type": "address[]"
        }
      ],
      "name": "dissociateTokensExternal",
      "outputs": [
        {
          "internalType": "int256",
          "name": "responseCode",
          "type": "int256"
        }
      ],
      "stateMutability": "nonpayable",
      "type": "function"
    },
    {
      "inputs": [
        {
          "internalType": "address",
          "name": "token",
          "type": "address"
        },
        {
          "internalType": "address",
          "name": "account",
          "type": "address"
        }
      ],
      "name": "freezeTokenExternal",
      "outputs": [
        {
          "internalType": "int64",
          "name": "responseCode",
          "type": "int64"
        }
      ],
      "stateMutability": "nonpayable",
      "type": "function"
    },
    {
      "inputs": [
        {
          "internalType": "address",
          "name": "token",
          "type": "address"
        },
        {
          "internalType": "address",
          "name": "account",
          "type": "address"
        }
      ],
      "name": "freezeTokenTwiceExternal",
      "outputs": [
        {
          "internalType": "int64",
          "name": "responseCode",
          "type": "int64"
        }
      ],
      "stateMutability": "nonpayable",
      "type": "function"
    },
    {
      "inputs": [
        {
          "internalType": "address",
          "name": "token",
          "type": "address"
        },
        {
          "internalType": "address",
          "name": "account",
          "type": "address"
        }
      ],
      "name": "grantTokenKycExternal",
      "outputs": [
        {
          "internalType": "int64",
          "name": "responseCode",
          "type": "int64"
        }
      ],
      "stateMutability": "nonpayable",
      "type": "function"
    },
    {
      "inputs": [
        {
          "internalType": "address",
          "name": "token",
          "type": "address"
        },
        {
          "internalType": "int64",
          "name": "amount",
          "type": "int64"
        },
        {
          "internalType": "bytes[]",
          "name": "metadata",
          "type": "bytes[]"
        }
      ],
      "name": "mintTokenExternal",
      "outputs": [
        {
          "internalType": "int256",
          "name": "responseCode",
          "type": "int256"
        },
        {
          "internalType": "int64",
          "name": "newTotalSupply",
          "type": "int64"
        },
        {
          "internalType": "int64[]",
          "name": "serialNumbers",
          "type": "int64[]"
        }
      ],
      "stateMutability": "nonpayable",
      "type": "function"
    },
    {
      "inputs": [
        {
          "internalType": "address",
          "name": "account",
          "type": "address"
        },
        {
          "internalType": "address",
          "name": "token",
          "type": "address"
        }
      ],
      "name": "nestedAssociateTokenExternal",
      "outputs": [
        {
          "internalType": "int256",
          "name": "responseCode",
          "type": "int256"
        }
      ],
      "stateMutability": "nonpayable",
      "type": "function"
    },
    {
      "inputs": [
        {
          "internalType": "address",
          "name": "token",
          "type": "address"
        },
        {
          "internalType": "address",
          "name": "account",
          "type": "address"
        }
      ],
      "name": "nestedFreezeUnfreezeTokenExternal",
      "outputs": [
        {
          "internalType": "int64",
          "name": "responseCode",
          "type": "int64"
        }
      ],
      "stateMutability": "nonpayable",
      "type": "function"
    },
    {
      "inputs": [
        {
          "internalType": "address",
          "name": "token",
          "type": "address"
        },
        {
          "internalType": "address",
          "name": "account",
          "type": "address"
        }
      ],
      "name": "nestedGrantAndRevokeTokenKYCExternal",
      "outputs": [
        {
          "internalType": "int64",
          "name": "responseCode",
          "type": "int64"
        }
      ],
      "stateMutability": "nonpayable",
      "type": "function"
    },
    {
      "inputs": [
        {
          "internalType": "address",
          "name": "token",
          "type": "address"
        }
      ],
      "name": "nestedPauseUnpauseTokenExternal",
      "outputs": [
        {
          "internalType": "int256",
          "name": "responseCode",
          "type": "int256"
        }
      ],
      "stateMutability": "nonpayable",
      "type": "function"
    },
    {
      "inputs": [
        {
          "internalType": "address",
          "name": "token",
          "type": "address"
        }
      ],
      "name": "pauseTokenExternal",
      "outputs": [
        {
          "internalType": "int256",
          "name": "responseCode",
          "type": "int256"
        }
      ],
      "stateMutability": "nonpayable",
      "type": "function"
    },
    {
      "inputs": [
        {
          "internalType": "address",
          "name": "token",
          "type": "address"
        },
        {
          "internalType": "bytes",
          "name": "encodedFunctionSelector",
          "type": "bytes"
        }
      ],
      "name": "redirectForToken",
      "outputs": [],
      "stateMutability": "nonpayable",
      "type": "function"
    },
    {
      "inputs": [
        {
          "internalType": "address",
          "name": "token",
          "type": "address"
        },
        {
          "internalType": "address",
          "name": "account",
          "type": "address"
        }
      ],
      "name": "revokeTokenKycExternal",
      "outputs": [
        {
          "internalType": "int64",
          "name": "responseCode",
          "type": "int64"
        }
      ],
      "stateMutability": "nonpayable",
      "type": "function"
    },
    {
      "inputs": [
        {
          "internalType": "address",
          "name": "token",
          "type": "address"
        },
        {
          "internalType": "address",
          "name": "account",
          "type": "address"
        },
        {
          "internalType": "bool",
          "name": "approved",
          "type": "bool"
        }
      ],
      "name": "setApprovalForAllExternal",
      "outputs": [
        {
          "internalType": "int256",
          "name": "responseCode",
          "type": "int256"
        }
      ],
      "stateMutability": "nonpayable",
      "type": "function"
    },
    {
      "inputs": [
        {
          "internalType": "address",
          "name": "token",
          "type": "address"
        },
        {
          "internalType": "address",
          "name": "from",
          "type": "address"
        },
        {
          "internalType": "address",
          "name": "to",
          "type": "address"
        },
        {
          "internalType": "uint256",
          "name": "amount",
          "type": "uint256"
        }
      ],
      "name": "transferFrom",
      "outputs": [
        {
          "internalType": "int64",
          "name": "responseCode",
          "type": "int64"
        }
      ],
      "stateMutability": "nonpayable",
      "type": "function"
    },
    {
      "inputs": [
        {
          "internalType": "address",
          "name": "token",
          "type": "address"
        },
        {
          "internalType": "address",
          "name": "from",
          "type": "address"
        },
        {
          "internalType": "address",
          "name": "to",
          "type": "address"
        },
        {
          "internalType": "uint256",
          "name": "amount",
          "type": "uint256"
        }
      ],
      "name": "transferFromExternal",
      "outputs": [
        {
          "internalType": "int256",
          "name": "responseCode",
          "type": "int256"
        }
      ],
      "stateMutability": "nonpayable",
      "type": "function"
    },
    {
      "inputs": [
        {
          "internalType": "address",
          "name": "token",
          "type": "address"
        },
        {
          "internalType": "address",
          "name": "from",
          "type": "address"
        },
        {
          "internalType": "address",
          "name": "to",
          "type": "address"
        },
        {
          "internalType": "uint256",
          "name": "serialNumber",
          "type": "uint256"
        }
      ],
      "name": "transferFromNFT",
      "outputs": [
        {
          "internalType": "int64",
          "name": "responseCode",
          "type": "int64"
        }
      ],
      "stateMutability": "nonpayable",
      "type": "function"
    },
    {
      "inputs": [
        {
          "internalType": "address",
          "name": "token",
          "type": "address"
        },
        {
          "internalType": "address",
          "name": "from",
          "type": "address"
        },
        {
          "internalType": "address",
          "name": "to",
          "type": "address"
        },
        {
          "internalType": "uint256",
          "name": "serialNumber",
          "type": "uint256"
        }
      ],
      "name": "transferFromNFTExternal",
      "outputs": [
        {
          "internalType": "int256",
          "name": "responseCode",
          "type": "int256"
        }
      ],
      "stateMutability": "nonpayable",
      "type": "function"
    },
    {
      "inputs": [
        {
          "internalType": "address",
          "name": "token",
          "type": "address"
        },
        {
          "internalType": "address",
          "name": "sender",
          "type": "address"
        },
        {
          "internalType": "address",
          "name": "receiver",
          "type": "address"
        },
        {
          "internalType": "int64",
          "name": "serialNumber",
          "type": "int64"
        }
      ],
      "name": "transferNFTExternal",
      "outputs": [
        {
          "internalType": "int256",
          "name": "responseCode",
          "type": "int256"
        }
      ],
      "stateMutability": "nonpayable",
      "type": "function"
    },
    {
      "inputs": [
        {
          "internalType": "address",
          "name": "token",
          "type": "address"
        },
        {
          "internalType": "address[]",
          "name": "sender",
          "type": "address[]"
        },
        {
          "internalType": "address[]",
          "name": "receiver",
          "type": "address[]"
        },
        {
          "internalType": "int64[]",
          "name": "serialNumber",
          "type": "int64[]"
        }
      ],
      "name": "transferNFTsExternal",
      "outputs": [
        {
          "internalType": "int256",
          "name": "responseCode",
          "type": "int256"
        }
      ],
      "stateMutability": "nonpayable",
      "type": "function"
    },
    {
      "inputs": [
        {
          "internalType": "address",
          "name": "token",
          "type": "address"
        },
        {
          "internalType": "address",
          "name": "sender",
          "type": "address"
        },
        {
          "internalType": "address",
          "name": "receiver",
          "type": "address"
        },
        {
          "internalType": "int64",
          "name": "amount",
          "type": "int64"
        }
      ],
      "name": "transferTokenExternal",
      "outputs": [
        {
          "internalType": "int256",
          "name": "responseCode",
          "type": "int256"
        }
      ],
      "stateMutability": "nonpayable",
      "type": "function"
    },
    {
      "inputs": [
        {
          "internalType": "address",
          "name": "token",
          "type": "address"
        },
        {
          "internalType": "address[]",
          "name": "accountIds",
          "type": "address[]"
        },
        {
          "internalType": "int64[]",
          "name": "amounts",
          "type": "int64[]"
        }
      ],
      "name": "transferTokensExternal",
      "outputs": [
        {
          "internalType": "int256",
          "name": "responseCode",
          "type": "int256"
        }
      ],
      "stateMutability": "nonpayable",
      "type": "function"
    },
    {
      "inputs": [
        {
          "internalType": "address",
          "name": "token",
          "type": "address"
        },
        {
          "internalType": "address",
          "name": "account",
          "type": "address"
        }
      ],
      "name": "unfreezeTokenExternal",
      "outputs": [
        {
          "internalType": "int64",
          "name": "responseCode",
          "type": "int64"
        }
      ],
      "stateMutability": "nonpayable",
      "type": "function"
    },
    {
      "inputs": [
        {
          "internalType": "address",
          "name": "token",
          "type": "address"
        }
      ],
      "name": "unpauseTokenExternal",
      "outputs": [
        {
          "internalType": "int256",
          "name": "responseCode",
          "type": "int256"
        }
      ],
      "stateMutability": "nonpayable",
      "type": "function"
    },
    {
      "inputs": [
        {
          "internalType": "address",
          "name": "token",
          "type": "address"
        },
        {
          "internalType": "address",
          "name": "account",
          "type": "address"
        },
        {
          "internalType": "int64",
          "name": "amount",
          "type": "int64"
        }
      ],
      "name": "wipeTokenAccountExternal",
      "outputs": [
        {
          "internalType": "int256",
          "name": "responseCode",
          "type": "int256"
        }
      ],
      "stateMutability": "nonpayable",
      "type": "function"
    },
    {
      "inputs": [
        {
          "internalType": "address",
          "name": "token",
          "type": "address"
        },
        {
          "internalType": "address",
          "name": "account",
          "type": "address"
        },
        {
          "internalType": "int64[]",
          "name": "serialNumbers",
          "type": "int64[]"
        }
      ],
      "name": "wipeTokenAccountNFTExternal",
      "outputs": [
        {
          "internalType": "int256",
          "name": "responseCode",
          "type": "int256"
        }
      ],
      "stateMutability": "nonpayable",
      "type": "function"
    }
  ],
  "bytecode": "0x60c06040526009608081905268746f6b656e4e616d6560b81b60a09081526200002c9160029190620001cc565b5060408051808201909152600b8082526a1d1bdad95b94de5b589bdb60aa1b60209092019182526200006191600391620001cc565b50604080518082019091526004808252636d656d6f60e01b60209092019182526200008d9181620001cc565b50600580546001600160a81b031916700800000000000003e800000000000003e8179055348015620000be57600080fd5b50600160208181527fa6eef7e35abe7026729641147f7915573c7e97b47efa546f5f6e3230263bcb499190915560027fcc69885fda6bcc1a4ace058b4a62bf5e179ea78fd58a1ccd71c22cc9b688792f5560047fd9d16d34ffb15ba3a3d852f0d403e2ce1d691fb54de27ac87cd2f993f3ec330f5560087f7dfe757ecd65cbd7922a9c0161e935dd7fdbcc0e999689c7d31633896b1fc60b5560107fedc95719e9a3b28dd8e80877cb5880a9be7de1a13fc8b05e7999683b6b567643557fe2689cd4a84e23ad2f564004f1c9013e9589d260bde6380aba3ca7e09e4df40c55600660005260407f8f331abe73332f95a25873e8b430885974c0409691f89d643119a11623a7924a55620002af565b828054620001da9062000272565b90600052602060002090601f016020900481019282620001fe576000855562000249565b82601f106200021957805160ff191683800117855562000249565b8280016001018555821562000249579182015b82811115620002495782518255916020019190600101906200022c565b50620002579291506200025b565b5090565b5b808211156200025757600081556001016200025c565b600181811c908216806200028757607f821691505b60208210811415620002a957634e487b7160e01b600052602260045260246000fd5b50919050565b61464880620002bf6000396000f3fe6080604052600436106102a05760003560e01c806375a854721161016e578063bafa6a91116100cb578063e31b839c1161007f578063ec4ca63911610064578063ec4ca63914610740578063ed129c3f14610760578063f19382661461078057600080fd5b8063e31b839c14610700578063e95a71e51461072057600080fd5b8063d85f74c1116100b0578063d85f74c1146106ad578063d91cfc95146106c0578063e03fc514146106e057600080fd5b8063bafa6a911461066d578063ceda64c41461068d57600080fd5b80639b23d3d9116101225780639c219247116101075780639c2192471461060d578063a62188101461062d578063aa835c631461064d57600080fd5b80639b23d3d9146105cd5780639bc4d354146105ed57600080fd5b80638ba74da0116101535780638ba74da01461057a578063901fe3d01461058d5780639333700b146105ad57600080fd5b806375a854721461053a57806384d232f51461055a57600080fd5b80632fc358f71161021c5780634fd6ce0a116101d05780635ac4fef8116101b55780635ac4fef8146104c2578063618dc65e146104e2578063632da1161461050257600080fd5b80634fd6ce0a1461048257806352205b33146104a257600080fd5b8063437dffd511610201578063437dffd51461042f5780634b5c66871461044f5780634c09c8041461046257600080fd5b80632fc358f7146103ef57806330a8f2931461040f57600080fd5b806315dacbea1161027357806317f96caa1161025857806317f96caa1461038f5780631ba978fc146103af5780632390c1fa146103cf57600080fd5b806315dacbea1461034f578063165aae661461036f57600080fd5b80630488c939146102a557806306a1a5d3146102ba5780630c0295d4146102f25780630c0a198c14610321575b600080fd5b6102b86102b3366004613225565b6107a0565b005b3480156102c657600080fd5b506102da6102d5366004613225565b610cdc565b60405160079190910b81526020015b60405180910390f35b3480156102fe57600080fd5b5061031261030d3660046133b7565b610d0c565b6040516102e9939291906134d2565b34801561032d57600080fd5b5061034161033c3660046134fd565b610d39565b6040519081526020016102e9565b34801561035b57600080fd5b506102da61036a36600461351a565b610d58565b34801561037b57600080fd5b5061034161038a3660046134fd565b610e4c565b34801561039b57600080fd5b506102da6103aa366004613225565b610e57565b3480156103bb57600080fd5b506103416103ca36600461363e565b610e6e565b3480156103db57600080fd5b506103416103ea3660046136d9565b610edb565b3480156103fb57600080fd5b5061034161040a3660046136d9565b610f39565b34801561041b57600080fd5b5061034161042a3660046134fd565b610f97565b34801561043b57600080fd5b5061034161044a366004613225565b610fa2565b6102b861045d3660046134fd565b61100b565b34801561046e57600080fd5b5061034161047d366004613729565b6113e9565b34801561048e57600080fd5b5061034161049d36600461378b565b61140c565b3480156104ae57600080fd5b506102da6104bd366004613225565b61146c565b3480156104ce57600080fd5b506103416104dd3660046137e7565b611478565b3480156104ee57600080fd5b506102b86104fd366004613832565b611485565b34801561050e57600080fd5b5061052261051d366004613878565b611573565b6040805192835260079190910b6020830152016102e9565b34801561054657600080fd5b5061034161055536600461351a565b61159b565b34801561056657600080fd5b506103416105753660046138a8565b611683565b6102b8610588366004613225565b6116e2565b34801561059957600080fd5b506102da6105a8366004613225565b611b16565b3480156105b957600080fd5b506102da6105c8366004613225565b611b2d565b3480156105d957600080fd5b506102da6105e836600461351a565b611b39565b3480156105f957600080fd5b5061034161060836600461351a565b611b7e565b34801561061957600080fd5b50610341610628366004613225565b611c66565b34801561063957600080fd5b506103416106483660046139a6565b611c72565b34801561065957600080fd5b50610341610668366004613bec565b611cd0565b34801561067957600080fd5b5061034161068836600461378b565b611d2f565b34801561069957600080fd5b506103416106a83660046138a8565b611d3d565b6102b86106bb3660046134fd565b611d9c565b3480156106cc57600080fd5b506103416106db366004613225565b61213c565b3480156106ec57600080fd5b506103416106fb3660046134fd565b612148565b34801561070c57600080fd5b5061034161071b366004613c58565b61215d565b34801561072c57600080fd5b506102da61073b366004613225565b61216a565b34801561074c57600080fd5b506102da61075b366004613225565b612176565b34801561076c57600080fd5b5061034161077b3660046134fd565b612182565b34801561078c57600080fd5b5061034161079b366004613225565b612197565b60408051600580825260c08201909252600091816020015b6107c06131b0565b8152602001906001900390816107b85790505090506107f360006006600060405180602001604052806000815250612200565b8160008151811061080657610806613c9f565b602002602001018190525061082d6001600060405180602001604052806000815250612237565b8160018151811061084057610840613c9f565b60200260200101819052506108676002600060405180602001604052806000815250612237565b8160028151811061087a5761087a613c9f565b60200260200101819052506108a16004600060405180602001604052806000815250612237565b816003815181106108b4576108b4613c9f565b60200260200101819052506108db6003600060405180602001604052806000815250612237565b816004815181106108ee576108ee613c9f565b602002602001018190525060006040518060600160405280600060070b8152602001856001600160a01b03168152602001627a120060070b815250905060006040518061012001604052806002805461094690613cb5565b80601f016020809104026020016040519081016040528092919081815260200182805461097290613cb5565b80156109bf5780601f10610994576101008083540402835291602001916109bf565b820191906000526020600020905b8154815290600101906020018083116109a257829003601f168201915b50505050508152602001600380546109d690613cb5565b80601f0160208091040260200160405190810160405280929190818152602001828054610a0290613cb5565b8015610a4f5780601f10610a2457610100808354040283529160200191610a4f565b820191906000526020600020905b815481529060010190602001808311610a3257829003601f168201915b50505050508152602001866001600160a01b0316815260200160048054610a7590613cb5565b80601f0160208091040260200160405190810160405280929190818152602001828054610aa190613cb5565b8015610aee5780601f10610ac357610100808354040283529160200191610aee565b820191906000526020600020905b815481529060010190602001808311610ad157829003601f168201915b505050918352505060016020820181905260055468010000000000000000810460070b6040840152600160a01b900460ff16151560608301526080820186905260a0909101849052909150600090604051908082528060200260200182016040528015610b9557816020015b6040805160a081018252600080825260208083018290529282018190526060820181905260808201528252600019909201910181610b5a5790505b506040805160a081018252600181526001600160a01b03808916602083015260009282018390526060820183905289166080820152825192935091839190610bdf57610bdf613c9f565b6020908102919091010152604080516001808252818301909252600091816020015b6040805160c08101825260008082526020808301829052928201819052606082018190526080820181905260a08201528252600019909201910181610c015790505090506040518060c00160405280600460070b8152602001600560070b8152602001600a60070b8152602001876001600160a01b03168152602001600015158152602001886001600160a01b031681525081600081518110610ca657610ca6613c9f565b6020026020010181905250600080610cbf85858561226c565b909250905060168214610cd157600080fd5b505050505050505050565b6000610ce88383612394565b50610cf38383612490565b9050600781900b601614610d0657600080fd5b92915050565b6000806060610d1c8686866124df565b9194509250905060168314610d3057600080fd5b93509350939050565b6000610d44826125dd565b905060168114610d5357600080fd5b919050565b6040516001600160a01b038581166024830152848116604483015283166064820152608481018290526000908190819061016790630aed65f560e11b9060a4015b60408051601f198184030181529181526020820180516001600160e01b03166001600160e01b0319909416939093179092529051610dd79190613d20565b6000604051808303816000865af19150503d8060008114610e14576040519150601f19603f3d011682016040523d82523d6000602084013e610e19565b606091505b509150915081610e2a576015610e3e565b80806020019051810190610e3e9190613d4e565b60030b979650505050505050565b6000610d44826126d0565b6000610e638383612717565b50610cf38383612717565b6000610e7c85858585612766565b905060168114610ed35760405162461bcd60e51b815260206004820152601360248201527f4e4654207472616e73666572206661696c65640000000000000000000000000060448201526064015b60405180910390fd5b949350505050565b6000610ee78383612796565b905060168114610d065760405162461bcd60e51b815260206004820152601a60248201527f546f6b656e20646973736f63696174696f6e206661696c6564210000000000006044820152606401610eca565b6000610f4583836127c2565b905060168114610d065760405162461bcd60e51b815260206004820152601760248201527f546f6b656e206173736f6369617465206661696c6564210000000000000000006044820152606401610eca565b6000610d44826127ee565b6000610fae8383612835565b50610fb98383612835565b905060168114610d065760405162461bcd60e51b815260206004820152601960248201527f546f6b656e206173736f63696174696f6e206661696c656421000000000000006044820152606401610eca565b60408051600580825260c08201909252600091816020015b61102b6131b0565b81526020019060019003908161102357905050905061105e60006006600060405180602001604052806000815250612200565b8160008151811061107157611071613c9f565b60200260200101819052506110986001600060405180602001604052806000815250612237565b816001815181106110ab576110ab613c9f565b60200260200101819052506110d26002600060405180602001604052806000815250612237565b816002815181106110e5576110e5613c9f565b602002602001018190525061110c6003600060405180602001604052806000815250612237565b8160038151811061111f5761111f613c9f565b60200260200101819052506111466004600060405180602001604052806000815250612237565b8160048151811061115957611159613c9f565b602002602001018190525060006040518060600160405280600060070b8152602001846001600160a01b03168152602001627a120060070b81525090506000604051806101200160405280600280546111b190613cb5565b80601f01602080910402602001604051908101604052809291908181526020018280546111dd90613cb5565b801561122a5780601f106111ff5761010080835404028352916020019161122a565b820191906000526020600020905b81548152906001019060200180831161120d57829003601f168201915b505050505081526020016003805461124190613cb5565b80601f016020809104026020016040519081016040528092919081815260200182805461126d90613cb5565b80156112ba5780601f1061128f576101008083540402835291602001916112ba565b820191906000526020600020905b81548152906001019060200180831161129d57829003601f168201915b50505050508152602001856001600160a01b03168152602001600480546112e090613cb5565b80601f016020809104026020016040519081016040528092919081815260200182805461130c90613cb5565b80156113595780601f1061132e57610100808354040283529160200191611359565b820191906000526020600020905b81548152906001019060200180831161133c57829003601f168201915b505050918352505060016020820152600554680100000000000000008104600790810b604084015260ff600160a01b830416151560608401526080830187905260a090920185905291925060009182916113cf91859181900b90700100000000000000000000000000000000900460030b612884565b9092509050601682146113e157600080fd5b505050505050565b60006113f68484846128f1565b90506016811461140557600080fd5b9392505050565b600061141a858585856129d1565b905060168114610ed35760405162461bcd60e51b815260206004820152601560248201527f546f6b656e207472616e73666572206661696c656400000000000000000000006044820152606401610eca565b6000610cf38383612490565b60006113f6848484612a32565b6000806101676001600160a01b031663618dc65e60e01b85856040516024016114af929190613d95565b60408051601f198184030181529181526020820180516001600160e01b03166001600160e01b03199094169390931790925290516114ed9190613d20565b6000604051808303816000865af19150503d806000811461152a576040519150601f19603f3d011682016040523d82523d6000602084013e61152f565b606091505b50915091507f4af4780e06fe8cb9df64b0794fa6f01399af979175bb988e35e0e57e594567bc8282604051611565929190613db7565b60405180910390a150505050565b600080611581858585612a8b565b90925090506016821461159357600080fd5b935093915050565b604051630aed65f560e11b81526001600160a01b0380861660048301528085166024830152831660448201526064810182905260009030906315dacbea90608401602060405180830381600087803b1580156115f657600080fd5b505af115801561160a573d6000803e3d6000fd5b505050506040513d601f19601f8201168201806040525081019061162e9190613dd2565b60070b905060168114610ed35760405162461bcd60e51b815260206004820152600f60248201527f5472616e73666572206661696c656400000000000000000000000000000000006044820152606401610eca565b6000611690848484612b74565b9050601681146114055760405162461bcd60e51b815260206004820152601460248201527f4e465420617070726f76616c206661696c6564210000000000000000000000006044820152606401610eca565b604080516001808252818301909252600091816020015b6117016131b0565b8152602001906001900390816116f9579050509050611733600080600060405180602001604052806000815250612200565b8160008151811061174657611746613c9f565b602002602001018190525060006040518060600160405280600060070b8152602001856001600160a01b03168152602001627a120060070b815250905060006040518061012001604052806002805461179e90613cb5565b80601f01602080910402602001604051908101604052809291908181526020018280546117ca90613cb5565b80156118175780601f106117ec57610100808354040283529160200191611817565b820191906000526020600020905b8154815290600101906020018083116117fa57829003601f168201915b505050505081526020016003805461182e90613cb5565b80601f016020809104026020016040519081016040528092919081815260200182805461185a90613cb5565b80156118a75780601f1061187c576101008083540402835291602001916118a7565b820191906000526020600020905b81548152906001019060200180831161188a57829003601f168201915b50505050508152602001866001600160a01b03168152602001600480546118cd90613cb5565b80601f01602080910402602001604051908101604052809291908181526020018280546118f990613cb5565b80156119465780601f1061191b57610100808354040283529160200191611946565b820191906000526020600020905b81548152906001019060200180831161192957829003601f168201915b505050918352505060016020820181905260055468010000000000000000900460070b6040808401919091526000606084018190526080840188905260a09093018690528051828152808201909152929350909190816020015b6040805160a0810182526000808252602080830182905292820181905260608201819052608082015282526000199092019101816119a05750506040805160a081018252600181526001600160a01b03888116602083015260009282018390526060820183905289166080820152825192935091839190611a2357611a23613c9f565b6020908102919091010152604080516001808252818301909252600091816020015b6040805160c08101825260008082526020808301829052928201819052606082018190526080820181905260a08201528252600019909201910181611a455750506040805160c0810182526004815260056020820152600a91810191909152601e60608201526000608082018190526001600160a01b038a1660a083015282519293509091839190611ad957611ad9613c9f565b60209081029190910101526005546000908190610cbf908690600781900b90700100000000000000000000000000000000900460030b8787612bca565b6000611b228383612717565b50610cf38383612cf8565b6000610cf38383612717565b6040516001600160a01b038581166024830152848116604483015283166064820152608481018290526000908190819061016790639b23d3d960e01b9060a401610d99565b604051639b23d3d960e01b81526001600160a01b038086166004830152808516602483015283166044820152606481018290526000903090639b23d3d990608401602060405180830381600087803b158015611bd957600080fd5b505af1158015611bed573d6000803e3d6000fd5b505050506040513d601f19601f82011682018060405250810190611c119190613dd2565b60070b905060168114610ed35760405162461bcd60e51b815260206004820152601360248201527f4e4654207472616e73666572206661696c6564000000000000000000000000006044820152606401610eca565b6000610ee78383612d47565b6000611c7e8383612d96565b905060168114610d065760405162461bcd60e51b815260206004820152601660248201527f43727970746f207472616e73666572206661696c6564000000000000000000006044820152606401610eca565b6000611cdd848484612dc2565b9050601681146114055760405162461bcd60e51b815260206004820152601560248201527f546f6b656e207472616e73666572206661696c656400000000000000000000006044820152606401610eca565b6000610e7c85858585612df0565b6000611d4a848484612e51565b9050601681146114055760405162461bcd60e51b815260206004820152601060248201527f417070726f76616c206661696c656421000000000000000000000000000000006044820152606401610eca565b60408051600580825260c08201909252600091816020015b611dbc6131b0565b815260200190600190039081611db4579050509050611def60006006600060405180602001604052806000815250612200565b81600081518110611e0257611e02613c9f565b6020026020010181905250611e296001600060405180602001604052806000815250612237565b81600181518110611e3c57611e3c613c9f565b6020026020010181905250611e636002600060405180602001604052806000815250612237565b81600281518110611e7657611e76613c9f565b6020026020010181905250611e9d6004600060405180602001604052806000815250612237565b81600381518110611eb057611eb0613c9f565b6020026020010181905250611ed76003600060405180602001604052806000815250612237565b81600481518110611eea57611eea613c9f565b602002602001018190525060006040518060600160405280600060070b8152602001846001600160a01b03168152602001627a120060070b8152509050600060405180610120016040528060028054611f4290613cb5565b80601f0160208091040260200160405190810160405280929190818152602001828054611f6e90613cb5565b8015611fbb5780601f10611f9057610100808354040283529160200191611fbb565b820191906000526020600020905b815481529060010190602001808311611f9e57829003601f168201915b5050505050815260200160038054611fd290613cb5565b80601f0160208091040260200160405190810160405280929190818152602001828054611ffe90613cb5565b801561204b5780601f106120205761010080835404028352916020019161204b565b820191906000526020600020905b81548152906001019060200180831161202e57829003601f168201915b50505050508152602001856001600160a01b031681526020016004805461207190613cb5565b80601f016020809104026020016040519081016040528092919081815260200182805461209d90613cb5565b80156120ea5780601f106120bf576101008083540402835291602001916120ea565b820191906000526020600020905b8154815290600101906020018083116120cd57829003601f168201915b50505091835250506001602082015260055468010000000000000000810460070b6040830152600160a01b900460ff16151560608201526080810185905260a00183905290506000806113cf83612ea7565b6000610fb98383612835565b6000612153826125dd565b50610d44826125dd565b60006113f6848484612fc9565b6000610cf38383612cf8565b6000610cf38383612394565b600061218d826127ee565b50610d44826126d0565b60006121a38383612d47565b506121ae8383612835565b905060168114610d065760405162461bcd60e51b815260206004820181905260248201527f4e657374656420746f6b656e206173736f63696174696f6e206661696c6564216044820152606401610eca565b6122086131b0565b604051806040016040528061221d8787613020565b815260200161222c858561305b565b905295945050505050565b61223f6131b0565b604051806040016040528061225386613171565b8152602001612262858561305b565b9052949350505050565b600080848061010001516000015160070b600014801561229657506101008101516040015160070b155b156122ac576101008101516276a7006040909101525b6000806101676001600160a01b03163463abb54eb560e01b8a8a8a6040516024016122d993929190614012565b60408051601f198184030181529181526020820180516001600160e01b03166001600160e01b03199094169390931790925290516123179190613d20565b60006040518083038185875af1925050503d8060008114612354576040519150601f19603f3d011682016040523d82523d6000602084013e612359565b606091505b50915091508161236c5760156000612380565b8080602001905181019061238091906140c9565b60039190910b999098509650505050505050565b6040516001600160a01b0383811660248301528216604482015260009081908190610167907f8f8d7f9900000000000000000000000000000000000000000000000000000000906064015b60408051601f198184030181529181526020820180516001600160e01b03166001600160e01b031990941693909317909252905161241d9190613d20565b6000604051808303816000865af19150503d806000811461245a576040519150601f19603f3d011682016040523d82523d6000602084013e61245f565b606091505b509150915081612470576015612484565b808060200190518101906124849190613d4e565b60030b95945050505050565b6040516001600160a01b0383811660248301528216604482015260009081908190610167907faf99c63300000000000000000000000000000000000000000000000000000000906064016123df565b60008060606000806101676001600160a01b031663e0f4059a60e01b898989604051602401612510939291906140f5565b60408051601f198184030181529181526020820180516001600160e01b03166001600160e01b031990941693909317909252905161254e9190613d20565b6000604051808303816000865af19150503d806000811461258b576040519150601f19603f3d011682016040523d82523d6000602084013e612590565b606091505b5091509150816125b35760408051600080825260208201909252601591906125c7565b808060200190518101906125c79190614172565b60039290920b9a90995090975095505050505050565b6040516001600160a01b038216602482015260009081908190610167907ff069f71200000000000000000000000000000000000000000000000000000000906044015b60408051601f198184030181529181526020820180516001600160e01b03166001600160e01b031990941693909317909252905161265e9190613d20565b6000604051808303816000865af19150503d806000811461269b576040519150601f19603f3d011682016040523d82523d6000602084013e6126a0565b606091505b5091509150816126b15760156126c5565b808060200190518101906126c59190613d4e565b60030b949350505050565b6040516001600160a01b038216602482015260009081908190610167907f3b3bff0f0000000000000000000000000000000000000000000000000000000090604401612620565b6040516001600160a01b0383811660248301528216604482015260009081908190610167907f5b8f858400000000000000000000000000000000000000000000000000000000906064016123df565b60008060006101676001600160a01b0316632c4ba19160e01b88888888604051602401610d99949392919061426b565b60008060006101676001600160a01b03166378b6391860e01b86866040516024016123df9291906142be565b60008060006101676001600160a01b0316632e63879b60e01b86866040516024016123df9291906142be565b6040516001600160a01b038216602482015260009081908190610167907f7c41ad2c0000000000000000000000000000000000000000000000000000000090604401612620565b6040516001600160a01b0383811660248301528216604482015260009081908190610167907f49146bde00000000000000000000000000000000000000000000000000000000906064016123df565b600080848061010001516000015160070b60001480156128ae57506101008101516040015160070b155b156128c4576101008101516276a7006040909101525b6000806101676001600160a01b031634630fb65bf360e01b8a8a8a6040516024016122d9939291906142e0565b60008060006101676001600160a01b031663f7f38e2660e01b87878760405160240161291f9392919061430f565b60408051601f198184030181529181526020820180516001600160e01b03166001600160e01b031990941693909317909252905161295d9190613d20565b6000604051808303816000865af19150503d806000811461299a576040519150601f19603f3d011682016040523d82523d6000602084013e61299f565b606091505b5091509150816129b05760156129c4565b808060200190518101906129c49190613d4e565b60030b9695505050505050565b6040516001600160a01b038581166024830152848116604483015283166064820152600782900b608482015260009081908190610167907feca36917000000000000000000000000000000000000000000000000000000009060a401610d99565b6040516001600160a01b03848116602483015283166044820152600782900b606482015260009081908190610167907fefef57f9000000000000000000000000000000000000000000000000000000009060840161291f565b6000806000806101676001600160a01b031663d6910d0660e01b888888604051602401612aba9392919061433b565b60408051601f198184030181529181526020820180516001600160e01b03166001600160e01b0319909416939093179092529051612af89190613d20565b6000604051808303816000865af19150503d8060008114612b35576040519150601f19603f3d011682016040523d82523d6000602084013e612b3a565b606091505b509150915081612b4d5760156000612b61565b80806020019051810190612b619190614366565b60039190910b9890975095505050505050565b6040516001600160a01b038481166024830152831660448201526064810182905260009081908190610167907f7336aaf0000000000000000000000000000000000000000000000000000000009060840161291f565b600080868061010001516000015160070b6000148015612bf457506101008101516040015160070b155b15612c0a576101008101516276a7006040909101525b6000806101676001600160a01b031634632af0c59a60e01b8c8c8c8c8c604051602401612c3b959493929190614392565b60408051601f198184030181529181526020820180516001600160e01b03166001600160e01b0319909416939093179092529051612c799190613d20565b60006040518083038185875af1925050503d8060008114612cb6576040519150601f19603f3d011682016040523d82523d6000602084013e612cbb565b606091505b509150915081612cce5760156000612ce2565b80806020019051810190612ce291906140c9565b60039190910b9b909a5098505050505050505050565b6040516001600160a01b0383811660248301528216604482015260009081908190610167907f52f9138700000000000000000000000000000000000000000000000000000000906064016123df565b6040516001600160a01b0383811660248301528216604482015260009081908190610167907f099794e800000000000000000000000000000000000000000000000000000000906064016123df565b60008060006101676001600160a01b0316630e71804f60e01b86866040516024016123df9291906144ae565b60008060006101676001600160a01b03166382bba49360e01b87878760405160240161291f939291906145ab565b6040516001600160a01b038581166024830152848116604483015283166064820152600782900b608482015260009081908190610167907f5cfc9011000000000000000000000000000000000000000000000000000000009060a401610d99565b6040516001600160a01b038481166024830152831660448201526064810182905260009081908190610167907fe1f21c67000000000000000000000000000000000000000000000000000000009060840161291f565b600080828061010001516000015160070b6000148015612ed157506101008101516040015160070b155b15612ee7576101008101516276a7006040909101525b6000806101676001600160a01b03163463ea83f29360e01b88604051602401612f1091906145e9565b60408051601f198184030181529181526020820180516001600160e01b03166001600160e01b0319909416939093179092529051612f4e9190613d20565b60006040518083038185875af1925050503d8060008114612f8b576040519150601f19603f3d011682016040523d82523d6000602084013e612f90565b606091505b509150915081612fa35760156000612fb7565b80806020019051810190612fb791906140c9565b60039190910b97909650945050505050565b6040516001600160a01b03848116602483015283166044820152811515606482015260009081908190610167907f367605ca000000000000000000000000000000000000000000000000000000009060840161291f565b6000613044836006811115613037576130376145fc565b600160ff9091161b821790565b9050611405826006811115613037576130376145fc565b6130a16040518060a0016040528060001515815260200160006001600160a01b03168152602001606081526020016060815260200160006001600160a01b031681525090565b60008360048111156130b5576130b56145fc565b14156130c45760018152610d06565b60018360048111156130d8576130d86145fc565b14156130f4576000546001600160a01b03166020820152610d06565b6002836004811115613108576131086145fc565b141561311a5760408101829052610d06565b600383600481111561312e5761312e6145fc565b14156131405760608101829052610d06565b6004836004811115613154576131546145fc565b1415610d06576000546001600160a01b0316608082015292915050565b600060016000836006811115613189576131896145fc565b600681111561319a5761319a6145fc565b8152602001908152602001600020549050919050565b6040518060400160405280600081526020016132086040518060a0016040528060001515815260200160006001600160a01b03168152602001606081526020016060815260200160006001600160a01b031681525090565b905290565b6001600160a01b038116811461322257600080fd5b50565b6000806040838503121561323857600080fd5b82356132438161320d565b915060208301356132538161320d565b809150509250929050565b8060070b811461322257600080fd5b634e487b7160e01b600052604160045260246000fd5b6040516060810167ffffffffffffffff811182821017156132a6576132a661326d565b60405290565b6040516020810167ffffffffffffffff811182821017156132a6576132a661326d565b6040516080810167ffffffffffffffff811182821017156132a6576132a661326d565b604051601f8201601f1916810167ffffffffffffffff8111828210171561331b5761331b61326d565b604052919050565b600067ffffffffffffffff82111561333d5761333d61326d565b5060051b60200190565b600082601f83011261335857600080fd5b813567ffffffffffffffff8111156133725761337261326d565b613385601f8201601f19166020016132f2565b81815284602083860101111561339a57600080fd5b816020850160208301376000918101602001919091529392505050565b6000806000606084860312156133cc57600080fd5b83356133d78161320d565b92506020848101356133e88161325e565b9250604085013567ffffffffffffffff8082111561340557600080fd5b818701915087601f83011261341957600080fd5b813561342c61342782613323565b6132f2565b81815260059190911b8301840190848101908a83111561344b57600080fd5b8585015b83811015613483578035858111156134675760008081fd5b6134758d89838a0101613347565b84525091860191860161344f565b508096505050505050509250925092565b600081518084526020808501945080840160005b838110156134c757815160070b875295820195908201906001016134a8565b509495945050505050565b8381528260070b60208201526060604082015260006134f46060830184613494565b95945050505050565b60006020828403121561350f57600080fd5b81356114058161320d565b6000806000806080858703121561353057600080fd5b843561353b8161320d565b9350602085013561354b8161320d565b9250604085013561355b8161320d565b9396929550929360600135925050565b600082601f83011261357c57600080fd5b8135602061358c61342783613323565b82815260059290921b840181019181810190868411156135ab57600080fd5b8286015b848110156135cf5780356135c28161320d565b83529183019183016135af565b509695505050505050565b600082601f8301126135eb57600080fd5b813560206135fb61342783613323565b82815260059290921b8401810191818101908684111561361a57600080fd5b8286015b848110156135cf5780356136318161325e565b835291830191830161361e565b6000806000806080858703121561365457600080fd5b843561365f8161320d565b9350602085013567ffffffffffffffff8082111561367c57600080fd5b6136888883890161356b565b9450604087013591508082111561369e57600080fd5b6136aa8883890161356b565b935060608701359150808211156136c057600080fd5b506136cd878288016135da565b91505092959194509250565b600080604083850312156136ec57600080fd5b82356136f78161320d565b9150602083013567ffffffffffffffff81111561371357600080fd5b61371f8582860161356b565b9150509250929050565b60008060006060848603121561373e57600080fd5b83356137498161320d565b925060208401356137598161320d565b9150604084013567ffffffffffffffff81111561377557600080fd5b613781868287016135da565b9150509250925092565b600080600080608085870312156137a157600080fd5b84356137ac8161320d565b935060208501356137bc8161320d565b925060408501356137cc8161320d565b915060608501356137dc8161325e565b939692955090935050565b6000806000606084860312156137fc57600080fd5b83356138078161320d565b925060208401356138178161320d565b915060408401356138278161325e565b809150509250925092565b6000806040838503121561384557600080fd5b82356138508161320d565b9150602083013567ffffffffffffffff81111561386c57600080fd5b61371f85828601613347565b60008060006060848603121561388d57600080fd5b83356138988161320d565b925060208401356137598161325e565b6000806000606084860312156138bd57600080fd5b83356138c88161320d565b925060208401356138d88161320d565b929592945050506040919091013590565b80358015158114610d5357600080fd5b600082601f83011261390a57600080fd5b8135602061391a61342783613323565b8281526060928302850182019282820191908785111561393957600080fd5b8387015b858110156139995781818a0312156139555760008081fd5b61395d613283565b81356139688161320d565b8152818601356139778161325e565b8187015260406139888382016138e9565b90820152845292840192810161393d565b5090979650505050505050565b600080604083850312156139b957600080fd5b67ffffffffffffffff80843511156139d057600080fd5b602084358501860312156139e357600080fd5b6139eb6132ac565b81853586013511156139fc57600080fd5b613a0c86863587018035016138f9565b815292506020840135811015613a2157600080fd5b6020840135840185601f820112613a3757600080fd5b613a446134278235613323565b81358082526020808301929160051b840101881015613a6257600080fd5b602083015b6020843560051b850101811015613bdd578481351115613a8657600080fd5b803584016060818b03601f19011215613a9e57600080fd5b613aa6613283565b613ab3602083013561320d565b602082013581528660408301351115613acb57600080fd5b613ade8b602060408501358501016138f9565b60208201528660608301351115613af457600080fd5b6060820135820191508a603f830112613b0c57600080fd5b613b1c6134276020840135613323565b602083810135808352908201919060071b84016040018d811115613b3f57600080fd5b6040850194505b80851015613bc7576080858f031215613b5e57600080fd5b613b666132cf565b613b70863561320d565b85358152613b81602087013561320d565b60208601356020820152613b98604087013561325e565b60408601356040820152613bae606087016138e9565b6060820152835260809490940193602090920191613b46565b5060408301525084525060209283019201613a67565b50809450505050509250929050565b600080600060608486031215613c0157600080fd5b8335613c0c8161320d565b9250602084013567ffffffffffffffff80821115613c2957600080fd5b613c358783880161356b565b93506040860135915080821115613c4b57600080fd5b50613781868287016135da565b600080600060608486031215613c6d57600080fd5b8335613c788161320d565b92506020840135613c888161320d565b9150613c96604085016138e9565b90509250925092565b634e487b7160e01b600052603260045260246000fd5b600181811c90821680613cc957607f821691505b60208210811415613cea57634e487b7160e01b600052602260045260246000fd5b50919050565b60005b83811015613d0b578181015183820152602001613cf3565b83811115613d1a576000848401525b50505050565b60008251613d32818460208701613cf0565b9190910192915050565b8051600381900b8114610d5357600080fd5b600060208284031215613d6057600080fd5b61140582613d3c565b60008151808452613d81816020860160208601613cf0565b601f01601f19169290920160200192915050565b6001600160a01b0383168152604060208201526000610ed36040830184613d69565b8215158152604060208201526000610ed36040830184613d69565b600060208284031215613de457600080fd5b81516114058161325e565b6000815180845260208085019450848260051b860182860160005b858110156139995783830389528151604081518552868201519150808786015281511515818601528682015160606001600160a01b038083168289015283850151935060a09250608083818a0152613e6560e08a0186613d69565b92860151898403603f1901858b0152929450613e818584613d69565b9501511660c09790970196909652505098850198925090840190600101613e0a565b60006101608251818552613eb982860182613d69565b91505060208301518482036020860152613ed38282613d69565b9150506040830151613ef060408601826001600160a01b03169052565b5060608301518482036060860152613f088282613d69565b9150506080830151613f1e608086018215159052565b5060a0830151613f3360a086018260070b9052565b5060c0830151613f4760c086018215159052565b5060e083015184820360e0860152613f5f8282613def565b91505061010080840151613f9b82870182805160070b82526001600160a01b036020820151166020830152604081015160070b60408301525050565b5090949350505050565b600081518084526020808501945080840160005b838110156134c7578151805160070b8852838101516001600160a01b03908116858a01526040808301511515908a01526060808301511515908a0152608091820151169088015260a09096019590820190600101613fb9565b6000606080835261402581840187613ea3565b6020848203818601526140388288613fa5565b91506040858303818701528287518085528385019150838901945060005b818110156140b95785518051600790810b855286820151810b8786015285820151900b85850152878101516001600160a01b039081168986015260808083015115159086015260a09182015116908401529484019460c090920191600101614056565b50909a9950505050505050505050565b600080604083850312156140dc57600080fd5b6140e583613d3c565b915060208301516132538161320d565b6000606082016001600160a01b038616835260208560070b818501526060604085015281855180845260808601915060808160051b870101935082870160005b8281101561416357607f19888703018452614151868351613d69565b95509284019290840190600101614135565b50939998505050505050505050565b60008060006060848603121561418757600080fd5b61419084613d3c565b92506020808501516141a18161325e565b604086015190935067ffffffffffffffff8111156141be57600080fd5b8501601f810187136141cf57600080fd5b80516141dd61342782613323565b81815260059190911b820183019083810190898311156141fc57600080fd5b928401925b828410156142235783516142148161325e565b82529284019290840190614201565b80955050505050509250925092565b600081518084526020808501945080840160005b838110156134c75781516001600160a01b031687529582019590820190600101614246565b6001600160a01b038516815260806020820152600061428d6080830186614232565b828103604084015261429f8186614232565b905082810360608401526142b38185613494565b979650505050505050565b6001600160a01b0383168152604060208201526000610ed36040830184614232565b6060815260006142f36060830186613ea3565b90508360070b60208301528260030b6040830152949350505050565b60006001600160a01b038086168352808516602084015250606060408301526134f46060830184613494565b6001600160a01b03841681528260070b60208201526060604082015260006134f46060830184613494565b6000806040838503121561437957600080fd5b61438283613d3c565b915060208301516132538161325e565b600060a08083526143a581840189613ea3565b6020600789810b8287015260408960030b818801526060878503818901526143cd858b613fa5565b94506080888603818a0152858a518088528688019150868c01975060005b818110156144455788518051880b845288810151880b8985015286810151880b8785015285810151880b86850152848101511515858501528a01516001600160a01b03168a8401529787019760c0909201916001016143eb565b50909f9e505050505050505050505050505050565b600081518084526020808501945080840160005b838110156134c757815180516001600160a01b031688528381015160070b848901526040908101511515908801526060909601959082019060010161446e565b6000604080835260608551602080848701526144cc8387018361445a565b9150858203818701528187518084528284019150828160051b850101838a0160005b8381101561459a57601f1987840301855281516001600160a01b03808251168552878201518a898701526145248b87018261445a565b928c0151868403878e01528051808552908a0193600092508a01905b808310156145845784518051851683528b81015185168c8401528e81015160070b8f8401528d015115158d830152938a019360019290920191608090910190614540565b50978901979550505091860191506001016144ee565b50909b9a5050505050505050505050565b6001600160a01b03841681526060602082015260006145cd6060830185614232565b82810360408401526145df8185613494565b9695505050505050565b6020815260006114056020830184613ea3565b634e487b7160e01b600052602160045260246000fdfea2646970667358221220ccd84417e6678ebb55a09e00f199ee705b9b489f357a23d76fad61833d614bf364736f6c63430008090033",
  "linkReferences": {},
  "deployedLinkReferences": {}
}