{
  "_format": "hh-sol-artifact-1",
  "contractName": "EstimatePrecompileContract",
  "sourceName": "contracts/EstimatePrecompileContract.sol",
  "abi": [
    {
      "anonymous": false,
      "inputs": [
        {
          "indexed": false,
          "internalType": "bool",
          "name": "",
          "type": "bool"
        },
        {
          "indexed": false,
          "internalType": "bytes",
          "name": "",
          "type": "bytes"
        }
      ],
      "name": "CallResponseEvent",
      "type": "event"
    },
    {
      "inputs": [
        {
          "internalType": "address",
          "name": "token",
          "type": "address"
        },
        {
          "internalType": "address",
          "name": "spender",
          "type": "address"
        },
        {
          "internalType": "uint256",
          "name": "amount",
          "type": "uint256"
        }
      ],
      "name": "approveExternal",
      "outputs": [
        {
          "internalType": "int256",
          "name": "responseCode",
          "type": "int256"
        }
      ],
      "stateMutability": "nonpayable",
      "type": "function"
    },
    {
      "inputs": [
        {
          "internalType": "address",
          "name": "token",
          "type": "address"
        },
        {
          "internalType": "address",
          "name": "approved",
          "type": "address"
        },
        {
          "internalType": "uint256",
          "name": "serialNumber",
          "type": "uint256"
        }
      ],
      "name": "approveNFTExternal",
      "outputs": [
        {
          "internalType": "int256",
          "name": "responseCode",
          "type": "int256"
        }
      ],
      "stateMutability": "nonpayable",
      "type": "function"
    },
    {
      "inputs": [
        {
          "internalType": "address",
          "name": "account",
          "type": "address"
        },
        {
          "internalType": "address",
          "name": "token",
          "type": "address"
        }
      ],
      "name": "associateTokenExternal",
      "outputs": [
        {
          "internalType": "int256",
          "name": "responseCode",
          "type": "int256"
        }
      ],
      "stateMutability": "nonpayable",
      "type": "function"
    },
    {
      "inputs": [
        {
          "internalType": "address",
          "name": "account",
          "type": "address"
        },
        {
          "internalType": "address[]",
          "name": "tokens",
          "type": "address[]"
        }
      ],
      "name": "associateTokensExternal",
      "outputs": [
        {
          "internalType": "int256",
          "name": "responseCode",
          "type": "int256"
        }
      ],
      "stateMutability": "nonpayable",
      "type": "function"
    },
    {
      "inputs": [
        {
          "internalType": "address",
          "name": "token",
          "type": "address"
        },
        {
          "internalType": "int64",
          "name": "amount",
          "type": "int64"
        },
        {
          "internalType": "int64[]",
          "name": "serialNumbers",
          "type": "int64[]"
        }
      ],
      "name": "burnTokenExternal",
      "outputs": [
        {
          "internalType": "int256",
          "name": "responseCode",
          "type": "int256"
        },
        {
          "internalType": "int64",
          "name": "newTotalSupply",
          "type": "int64"
        }
      ],
      "stateMutability": "nonpayable",
      "type": "function"
    },
    {
      "inputs": [
        {
          "internalType": "address",
          "name": "treasury",
          "type": "address"
        }
      ],
      "name": "createFungibleTokenPublic",
      "outputs": [],
      "stateMutability": "payable",
      "type": "function"
    },
    {
      "inputs": [
        {
          "internalType": "address",
          "name": "treasury",
          "type": "address"
        },
        {
          "internalType": "address",
          "name": "fixedFeeTokenAddress",
          "type": "address"
        }
      ],
      "name": "createFungibleTokenWithCustomFeesPublic",
      "outputs": [],
      "stateMutability": "payable",
      "type": "function"
    },
    {
      "inputs": [
        {
          "internalType": "address",
          "name": "treasury",
          "type": "address"
        }
      ],
      "name": "createNonFungibleTokenPublic",
      "outputs": [],
      "stateMutability": "payable",
      "type": "function"
    },
    {
      "inputs": [
        {
          "internalType": "address",
          "name": "treasury",
          "type": "address"
        },
        {
          "internalType": "address",
          "name": "fixedFeeTokenAddress",
          "type": "address"
        }
      ],
      "name": "createNonFungibleTokenWithCustomFeesPublic",
      "outputs": [],
      "stateMutability": "payable",
      "type": "function"
    },
    {
      "inputs": [
        {
          "components": [
            {
              "components": [
                {
                  "internalType": "address",
                  "name": "accountID",
                  "type": "address"
                },
                {
                  "internalType": "int64",
                  "name": "amount",
                  "type": "int64"
                },
                {
                  "internalType": "bool",
                  "name": "isApproval",
                  "type": "bool"
                }
              ],
              "internalType": "struct IHederaTokenService.AccountAmount[]",
              "name": "transfers",
              "type": "tuple[]"
            }
          ],
          "internalType": "struct IHederaTokenService.TransferList",
          "name": "transferList",
          "type": "tuple"
        },
        {
          "components": [
            {
              "internalType": "address",
              "name": "token",
              "type": "address"
            },
            {
              "components": [
                {
                  "internalType": "address",
                  "name": "accountID",
                  "type": "address"
                },
                {
                  "internalType": "int64",
                  "name": "amount",
                  "type": "int64"
                },
                {
                  "internalType": "bool",
                  "name": "isApproval",
                  "type": "bool"
                }
              ],
              "internalType": "struct IHederaTokenService.AccountAmount[]",
              "name": "transfers",
              "type": "tuple[]"
            },
            {
              "components": [
                {
                  "internalType": "address",
                  "name": "senderAccountID",
                  "type": "address"
                },
                {
                  "internalType": "address",
                  "name": "receiverAccountID",
                  "type": "address"
                },
                {
                  "internalType": "int64",
                  "name": "serialNumber",
                  "type": "int64"
                },
                {
                  "internalType": "bool",
                  "name": "isApproval",
                  "type": "bool"
                }
              ],
              "internalType": "struct IHederaTokenService.NftTransfer[]",
              "name": "nftTransfers",
              "type": "tuple[]"
            }
          ],
          "internalType": "struct IHederaTokenService.TokenTransferList[]",
          "name": "tokenTransfers",
          "type": "tuple[]"
        }
      ],
      "name": "cryptoTransferExternal",
      "outputs": [
        {
          "internalType": "int256",
          "name": "responseCode",
          "type": "int256"
        }
      ],
      "stateMutability": "nonpayable",
      "type": "function"
    },
    {
      "inputs": [
        {
          "internalType": "address",
          "name": "account",
          "type": "address"
        },
        {
          "internalType": "address",
          "name": "token",
          "type": "address"
        }
      ],
      "name": "dissociateAndAssociateTokenExternal",
      "outputs": [
        {
          "internalType": "int256",
          "name": "responseCode",
          "type": "int256"
        }
      ],
      "stateMutability": "nonpayable",
      "type": "function"
    },
    {
      "inputs": [
        {
          "internalType": "address",
          "name": "account",
          "type": "address"
        },
        {
          "internalType": "address",
          "name": "token",
          "type": "address"
        }
      ],
      "name": "dissociateTokenExternal",
      "outputs": [
        {
          "internalType": "int256",
          "name": "responseCode",
          "type": "int256"
        }
      ],
      "stateMutability": "nonpayable",
      "type": "function"
    },
    {
      "inputs": [
        {
          "internalType": "address",
          "name": "account",
          "type": "address"
        },
        {
          "internalType": "address[]",
          "name": "tokens",
          "type": "address[]"
        }
      ],
      "name": "dissociateTokensExternal",
      "outputs": [
        {
          "internalType": "int256",
          "name": "responseCode",
          "type": "int256"
        }
      ],
      "stateMutability": "nonpayable",
      "type": "function"
    },
    {
      "inputs": [
        {
          "internalType": "address",
          "name": "token",
          "type": "address"
        },
        {
          "internalType": "address",
          "name": "account",
          "type": "address"
        }
      ],
      "name": "freezeTokenExternal",
      "outputs": [
        {
          "internalType": "int64",
          "name": "responseCode",
          "type": "int64"
        }
      ],
      "stateMutability": "nonpayable",
      "type": "function"
    },
    {
      "inputs": [
        {
          "internalType": "address",
          "name": "token",
          "type": "address"
        },
        {
          "internalType": "address",
          "name": "account",
          "type": "address"
        }
      ],
      "name": "freezeTokenTwiceExternal",
      "outputs": [
        {
          "internalType": "int64",
          "name": "responseCode",
          "type": "int64"
        }
      ],
      "stateMutability": "nonpayable",
      "type": "function"
    },
    {
      "inputs": [
        {
          "internalType": "address",
          "name": "token",
          "type": "address"
        },
        {
          "internalType": "address",
          "name": "account",
          "type": "address"
        }
      ],
      "name": "grantTokenKycExternal",
      "outputs": [
        {
          "internalType": "int64",
          "name": "responseCode",
          "type": "int64"
        }
      ],
      "stateMutability": "nonpayable",
      "type": "function"
    },
    {
      "inputs": [
        {
          "internalType": "address",
          "name": "token",
          "type": "address"
        },
        {
          "internalType": "address",
          "name": "account",
          "type": "address"
        }
      ],
      "name": "grantTokenKycTwiceExternal",
      "outputs": [
        {
          "internalType": "int64",
          "name": "responseCode",
          "type": "int64"
        }
      ],
      "stateMutability": "nonpayable",
      "type": "function"
    },
    {
      "inputs": [
        {
          "internalType": "address",
          "name": "token",
          "type": "address"
        },
        {
          "internalType": "int64",
          "name": "amount",
          "type": "int64"
        },
        {
          "internalType": "bytes[]",
          "name": "metadata",
          "type": "bytes[]"
        }
      ],
      "name": "mintTokenExternal",
      "outputs": [
        {
          "internalType": "int256",
          "name": "responseCode",
          "type": "int256"
        },
        {
          "internalType": "int64",
          "name": "newTotalSupply",
          "type": "int64"
        },
        {
          "internalType": "int64[]",
          "name": "serialNumbers",
          "type": "int64[]"
        }
      ],
      "stateMutability": "nonpayable",
      "type": "function"
    },
    {
      "inputs": [
        {
          "internalType": "address",
          "name": "account",
          "type": "address"
        },
        {
          "internalType": "address",
          "name": "token",
          "type": "address"
        }
      ],
      "name": "nestedAssociateTokenExternal",
      "outputs": [
        {
          "internalType": "int256",
          "name": "responseCode",
          "type": "int256"
        }
      ],
      "stateMutability": "nonpayable",
      "type": "function"
    },
    {
      "inputs": [
        {
          "internalType": "address",
          "name": "account",
          "type": "address"
        },
        {
          "internalType": "address",
          "name": "token",
          "type": "address"
        }
      ],
      "name": "nestedDissociateTokenExternal",
      "outputs": [
        {
          "internalType": "int256",
          "name": "responseCode",
          "type": "int256"
        }
      ],
      "stateMutability": "nonpayable",
      "type": "function"
    },
    {
      "inputs": [
        {
          "internalType": "address",
          "name": "token",
          "type": "address"
        },
        {
          "internalType": "address",
          "name": "account",
          "type": "address"
        }
      ],
      "name": "nestedFreezeUnfreezeTokenExternal",
      "outputs": [
        {
          "internalType": "int64",
          "name": "responseCode",
          "type": "int64"
        }
      ],
      "stateMutability": "nonpayable",
      "type": "function"
    },
    {
      "inputs": [
        {
          "internalType": "address",
          "name": "token",
          "type": "address"
        },
        {
          "internalType": "address",
          "name": "account",
          "type": "address"
        }
      ],
      "name": "nestedGrantAndRevokeTokenKYCExternal",
      "outputs": [
        {
          "internalType": "int64",
          "name": "responseCode",
          "type": "int64"
        }
      ],
      "stateMutability": "nonpayable",
      "type": "function"
    },
    {
      "inputs": [
        {
          "internalType": "address",
          "name": "token",
          "type": "address"
        },
        {
          "internalType": "bytes",
          "name": "encodedFunctionSelector",
          "type": "bytes"
        }
      ],
      "name": "redirectForToken",
      "outputs": [],
      "stateMutability": "nonpayable",
      "type": "function"
    },
    {
      "inputs": [
        {
          "internalType": "address",
          "name": "token",
          "type": "address"
        },
        {
          "internalType": "address",
          "name": "account",
          "type": "address"
        }
      ],
      "name": "revokeTokenKycExternal",
      "outputs": [
        {
          "internalType": "int64",
          "name": "responseCode",
          "type": "int64"
        }
      ],
      "stateMutability": "nonpayable",
      "type": "function"
    },
    {
      "inputs": [
        {
          "internalType": "address",
          "name": "token",
          "type": "address"
        },
        {
          "internalType": "address",
          "name": "account",
          "type": "address"
        }
      ],
      "name": "revokeTokenKycTwiceExternal",
      "outputs": [
        {
          "internalType": "int64",
          "name": "responseCode",
          "type": "int64"
        }
      ],
      "stateMutability": "nonpayable",
      "type": "function"
    },
    {
      "inputs": [
        {
          "internalType": "address",
          "name": "token",
          "type": "address"
        },
        {
          "internalType": "address",
          "name": "account",
          "type": "address"
        },
        {
          "internalType": "bool",
          "name": "approved",
          "type": "bool"
        }
      ],
      "name": "setApprovalForAllExternal",
      "outputs": [
        {
          "internalType": "int256",
          "name": "responseCode",
          "type": "int256"
        }
      ],
      "stateMutability": "nonpayable",
      "type": "function"
    },
    {
      "inputs": [
        {
          "internalType": "address",
          "name": "token",
          "type": "address"
        },
        {
          "internalType": "address",
          "name": "from",
          "type": "address"
        },
        {
          "internalType": "address",
          "name": "to",
          "type": "address"
        },
        {
          "internalType": "uint256",
          "name": "amount",
          "type": "uint256"
        }
      ],
      "name": "transferFrom",
      "outputs": [
        {
          "internalType": "int64",
          "name": "responseCode",
          "type": "int64"
        }
      ],
      "stateMutability": "nonpayable",
      "type": "function"
    },
    {
      "inputs": [
        {
          "internalType": "address",
          "name": "token",
          "type": "address"
        },
        {
          "internalType": "address",
          "name": "from",
          "type": "address"
        },
        {
          "internalType": "address",
          "name": "to",
          "type": "address"
        },
        {
          "internalType": "uint256",
          "name": "amount",
          "type": "uint256"
        }
      ],
      "name": "transferFromExternal",
      "outputs": [
        {
          "internalType": "int256",
          "name": "responseCode",
          "type": "int256"
        }
      ],
      "stateMutability": "nonpayable",
      "type": "function"
    },
    {
      "inputs": [
        {
          "internalType": "address",
          "name": "token",
          "type": "address"
        },
        {
          "internalType": "address",
          "name": "from",
          "type": "address"
        },
        {
          "internalType": "address",
          "name": "to",
          "type": "address"
        },
        {
          "internalType": "uint256",
          "name": "serialNumber",
          "type": "uint256"
        }
      ],
      "name": "transferFromNFT",
      "outputs": [
        {
          "internalType": "int64",
          "name": "responseCode",
          "type": "int64"
        }
      ],
      "stateMutability": "nonpayable",
      "type": "function"
    },
    {
      "inputs": [
        {
          "internalType": "address",
          "name": "token",
          "type": "address"
        },
        {
          "internalType": "address",
          "name": "from",
          "type": "address"
        },
        {
          "internalType": "address",
          "name": "to",
          "type": "address"
        },
        {
          "internalType": "uint256",
          "name": "serialNumber",
          "type": "uint256"
        }
      ],
      "name": "transferFromNFTExternal",
      "outputs": [
        {
          "internalType": "int256",
          "name": "responseCode",
          "type": "int256"
        }
      ],
      "stateMutability": "nonpayable",
      "type": "function"
    },
    {
      "inputs": [
        {
          "internalType": "address",
          "name": "token",
          "type": "address"
        },
        {
          "internalType": "address",
          "name": "sender",
          "type": "address"
        },
        {
          "internalType": "address",
          "name": "receiver",
          "type": "address"
        },
        {
          "internalType": "int64",
          "name": "serialNumber",
          "type": "int64"
        }
      ],
      "name": "transferNFTExternal",
      "outputs": [
        {
          "internalType": "int256",
          "name": "responseCode",
          "type": "int256"
        }
      ],
      "stateMutability": "nonpayable",
      "type": "function"
    },
    {
      "inputs": [
        {
          "internalType": "address",
          "name": "token",
          "type": "address"
        },
        {
          "internalType": "address[]",
          "name": "sender",
          "type": "address[]"
        },
        {
          "internalType": "address[]",
          "name": "receiver",
          "type": "address[]"
        },
        {
          "internalType": "int64[]",
          "name": "serialNumber",
          "type": "int64[]"
        }
      ],
      "name": "transferNFTsExternal",
      "outputs": [
        {
          "internalType": "int256",
          "name": "responseCode",
          "type": "int256"
        }
      ],
      "stateMutability": "nonpayable",
      "type": "function"
    },
    {
      "inputs": [
        {
          "internalType": "address",
          "name": "token",
          "type": "address"
        },
        {
          "internalType": "address",
          "name": "sender",
          "type": "address"
        },
        {
          "internalType": "address",
          "name": "receiver",
          "type": "address"
        },
        {
          "internalType": "int64",
          "name": "amount",
          "type": "int64"
        }
      ],
      "name": "transferTokenExternal",
      "outputs": [
        {
          "internalType": "int256",
          "name": "responseCode",
          "type": "int256"
        }
      ],
      "stateMutability": "nonpayable",
      "type": "function"
    },
    {
      "inputs": [
        {
          "internalType": "address",
          "name": "token",
          "type": "address"
        },
        {
          "internalType": "address[]",
          "name": "accountIds",
          "type": "address[]"
        },
        {
          "internalType": "int64[]",
          "name": "amounts",
          "type": "int64[]"
        }
      ],
      "name": "transferTokensExternal",
      "outputs": [
        {
          "internalType": "int256",
          "name": "responseCode",
          "type": "int256"
        }
      ],
      "stateMutability": "nonpayable",
      "type": "function"
    },
    {
      "inputs": [
        {
          "internalType": "address",
          "name": "token",
          "type": "address"
        },
        {
          "internalType": "address",
          "name": "account",
          "type": "address"
        }
      ],
      "name": "unfreezeTokenExternal",
      "outputs": [
        {
          "internalType": "int64",
          "name": "responseCode",
          "type": "int64"
        }
      ],
      "stateMutability": "nonpayable",
      "type": "function"
    },
    {
      "inputs": [
        {
          "internalType": "address",
          "name": "token",
          "type": "address"
        },
        {
          "internalType": "address",
          "name": "account",
          "type": "address"
        }
      ],
      "name": "unfreezeTokenTwiceExternal",
      "outputs": [
        {
          "internalType": "int64",
          "name": "responseCode",
          "type": "int64"
        }
      ],
      "stateMutability": "nonpayable",
      "type": "function"
    },
    {
      "inputs": [
        {
          "internalType": "address",
          "name": "token",
          "type": "address"
        },
        {
          "internalType": "address",
          "name": "account",
          "type": "address"
        },
        {
          "internalType": "int64",
          "name": "amount",
          "type": "int64"
        }
      ],
      "name": "wipeTokenAccountExternal",
      "outputs": [
        {
          "internalType": "int256",
          "name": "responseCode",
          "type": "int256"
        }
      ],
      "stateMutability": "nonpayable",
      "type": "function"
    },
    {
      "inputs": [
        {
          "internalType": "address",
          "name": "token",
          "type": "address"
        },
        {
          "internalType": "address",
          "name": "account",
          "type": "address"
        },
        {
          "internalType": "int64[]",
          "name": "serialNumbers",
          "type": "int64[]"
        }
      ],
      "name": "wipeTokenAccountNFTExternal",
      "outputs": [
        {
          "internalType": "int256",
          "name": "responseCode",
          "type": "int256"
        }
      ],
      "stateMutability": "nonpayable",
      "type": "function"
    }
  ],
  "bytecode": "0x60c06040526009608081905268746f6b656e4e616d6560b81b60a09081526200002c9160029190620001cc565b5060408051808201909152600b8082526a1d1bdad95b94de5b589bdb60aa1b60209092019182526200006191600391620001cc565b50604080518082019091526004808252636d656d6f60e01b60209092019182526200008d9181620001cc565b50600580546001600160a81b031916700800000000000003e800000000000003e8179055348015620000be57600080fd5b50600160208181527fa6eef7e35abe7026729641147f7915573c7e97b47efa546f5f6e3230263bcb499190915560027fcc69885fda6bcc1a4ace058b4a62bf5e179ea78fd58a1ccd71c22cc9b688792f5560047fd9d16d34ffb15ba3a3d852f0d403e2ce1d691fb54de27ac87cd2f993f3ec330f5560087f7dfe757ecd65cbd7922a9c0161e935dd7fdbcc0e999689c7d31633896b1fc60b5560107fedc95719e9a3b28dd8e80877cb5880a9be7de1a13fc8b05e7999683b6b567643557fe2689cd4a84e23ad2f564004f1c9013e9589d260bde6380aba3ca7e09e4df40c55600660005260407f8f331abe73332f95a25873e8b430885974c0409691f89d643119a11623a7924a55620002af565b828054620001da9062000272565b90600052602060002090601f016020900481019282620001fe576000855562000249565b82601f106200021957805160ff191683800117855562000249565b8280016001018555821562000249579182015b82811115620002495782518255916020019190600101906200022c565b50620002579291506200025b565b5090565b5b808211156200025757600081556001016200025c565b600181811c908216806200028757607f821691505b60208210811415620002a957634e487b7160e01b600052602260045260246000fd5b50919050565b61442580620002bf6000396000f3fe6080604052600436106102855760003560e01c806384d232f511610153578063bafa6a91116100cb578063e31b839c1161007f578063ec4ca63911610064578063ec4ca639146106c5578063f1938266146106e5578063f2d756761461070557600080fd5b8063e31b839c146106a5578063e95a71e51461063257600080fd5b8063ceda64c4116100b0578063ceda64c414610652578063d85f74c114610672578063d91cfc951461068557600080fd5b8063bafa6a9114610612578063c96959241461063257600080fd5b80639b23d3d9116101225780639c219247116101075780639c219247146105b2578063a6218810146105d2578063aa835c63146105f257600080fd5b80639b23d3d9146105725780639bc4d3541461059257600080fd5b806384d232f51461051f5780638ba74da01461053f578063901fe3d0146105525780639333700b1461034657600080fd5b80632fc358f71161020157806352205b33116101b5578063618dc65e1161019a578063618dc65e146104a7578063632da116146104c757806375a85472146104ff57600080fd5b806352205b33146104675780635ac4fef81461048757600080fd5b80634b5c6687116101e65780634b5c6687146104145780634c09c804146104275780634fd6ce0a1461044757600080fd5b80632fc358f7146103d4578063437dffd5146103f457600080fd5b806315dacbea116102585780631ba978fc1161023d5780631ba978fc146103665780632390c1fa14610394578063282418a3146103b457600080fd5b806315dacbea1461032657806317f96caa1461034657600080fd5b80630488c9391461028a57806306a1a5d31461029f5780630c0295d4146102d757806315533c9514610306575b600080fd5b61029d610298366004612fed565b610725565b005b3480156102ab57600080fd5b506102bf6102ba366004612fed565b610c61565b60405160079190910b81526020015b60405180910390f35b3480156102e357600080fd5b506102f76102f236600461317f565b610c91565b6040516102ce9392919061329a565b34801561031257600080fd5b506102bf610321366004612fed565b610cbe565b34801561033257600080fd5b506102bf6103413660046132c5565b610cd5565b34801561035257600080fd5b506102bf610361366004612fed565b610dc9565b34801561037257600080fd5b506103866103813660046133e9565b610dd5565b6040519081526020016102ce565b3480156103a057600080fd5b506103866103af366004613484565b610e42565b3480156103c057600080fd5b506102bf6103cf366004612fed565b610ea0565b3480156103e057600080fd5b506103866103ef366004613484565b610eac565b34801561040057600080fd5b5061038661040f366004612fed565b610f0a565b61029d6104223660046134d4565b610f73565b34801561043357600080fd5b506103866104423660046134f1565b611351565b34801561045357600080fd5b50610386610462366004613553565b611374565b34801561047357600080fd5b506102bf610482366004612fed565b6113d4565b34801561049357600080fd5b506103866104a23660046135af565b6113e0565b3480156104b357600080fd5b5061029d6104c23660046135fa565b6113ed565b3480156104d357600080fd5b506104e76104e2366004613640565b6114db565b6040805192835260079190910b6020830152016102ce565b34801561050b57600080fd5b5061038661051a3660046132c5565b611503565b34801561052b57600080fd5b5061038661053a366004613670565b6115eb565b61029d61054d366004612fed565b61164a565b34801561055e57600080fd5b506102bf61056d366004612fed565b611a7e565b34801561057e57600080fd5b506102bf61058d3660046132c5565b611a95565b34801561059e57600080fd5b506103866105ad3660046132c5565b611ada565b3480156105be57600080fd5b506103866105cd366004612fed565b611bc2565b3480156105de57600080fd5b506103866105ed366004613773565b611bce565b3480156105fe57600080fd5b5061038661060d3660046139b9565b611c2c565b34801561061e57600080fd5b5061038661062d366004613553565b611c8b565b34801561063e57600080fd5b506102bf61064d366004612fed565b611c99565b34801561065e57600080fd5b5061038661066d366004613670565b611ca5565b61029d6106803660046134d4565b611d04565b34801561069157600080fd5b506103866106a0366004612fed565b6120a4565b3480156106b157600080fd5b506103866106c0366004613a25565b6120b0565b3480156106d157600080fd5b506102bf6106e0366004612fed565b6120bd565b3480156106f157600080fd5b50610386610700366004612fed565b6120c9565b34801561071157600080fd5b50610386610720366004612fed565b612132565b60408051600580825260c08201909252600091816020015b610745612f78565b81526020019060019003908161073d57905050905061077860006006600060405180602001604052806000815250612149565b8160008151811061078b5761078b613a6c565b60200260200101819052506107b26001600060405180602001604052806000815250612180565b816001815181106107c5576107c5613a6c565b60200260200101819052506107ec6002600060405180602001604052806000815250612180565b816002815181106107ff576107ff613a6c565b60200260200101819052506108266004600060405180602001604052806000815250612180565b8160038151811061083957610839613a6c565b60200260200101819052506108606003600060405180602001604052806000815250612180565b8160048151811061087357610873613a6c565b602002602001018190525060006040518060600160405280600060070b8152602001856001600160a01b03168152602001627a120060070b81525090506000604051806101200160405280600280546108cb90613a82565b80601f01602080910402602001604051908101604052809291908181526020018280546108f790613a82565b80156109445780601f1061091957610100808354040283529160200191610944565b820191906000526020600020905b81548152906001019060200180831161092757829003601f168201915b505050505081526020016003805461095b90613a82565b80601f016020809104026020016040519081016040528092919081815260200182805461098790613a82565b80156109d45780601f106109a9576101008083540402835291602001916109d4565b820191906000526020600020905b8154815290600101906020018083116109b757829003601f168201915b50505050508152602001866001600160a01b03168152602001600480546109fa90613a82565b80601f0160208091040260200160405190810160405280929190818152602001828054610a2690613a82565b8015610a735780601f10610a4857610100808354040283529160200191610a73565b820191906000526020600020905b815481529060010190602001808311610a5657829003601f168201915b505050918352505060016020820181905260055468010000000000000000810460070b6040840152600160a01b900460ff16151560608301526080820186905260a0909101849052909150600090604051908082528060200260200182016040528015610b1a57816020015b6040805160a081018252600080825260208083018290529282018190526060820181905260808201528252600019909201910181610adf5790505b506040805160a081018252600181526001600160a01b03808916602083015260009282018390526060820183905289166080820152825192935091839190610b6457610b64613a6c565b6020908102919091010152604080516001808252818301909252600091816020015b6040805160c08101825260008082526020808301829052928201819052606082018190526080820181905260a08201528252600019909201910181610b865790505090506040518060c00160405280600460070b8152602001600560070b8152602001600a60070b8152602001876001600160a01b03168152602001600015158152602001886001600160a01b031681525081600081518110610c2b57610c2b613a6c565b6020026020010181905250600080610c448585856121b5565b909250905060168214610c5657600080fd5b505050505050505050565b6000610c6d83836122dd565b50610c7883836123d9565b9050600781900b601614610c8b57600080fd5b92915050565b6000806060610ca1868686612428565b9194509250905060168314610cb557600080fd5b93509350939050565b6000610cca83836122dd565b50610c7883836122dd565b6040516001600160a01b038581166024830152848116604483015283166064820152608481018290526000908190819061016790630aed65f560e11b9060a4015b60408051601f198184030181529181526020820180516001600160e01b03166001600160e01b0319909416939093179092529051610d549190613aed565b6000604051808303816000865af19150503d8060008114610d91576040519150601f19603f3d011682016040523d82523d6000602084013e610d96565b606091505b509150915081610da7576015610dbb565b80806020019051810190610dbb9190613b1b565b60030b979650505050505050565b6000610c788383612526565b6000610de385858585612575565b905060168114610e3a5760405162461bcd60e51b815260206004820152601360248201527f4e4654207472616e73666572206661696c65640000000000000000000000000060448201526064015b60405180910390fd5b949350505050565b6000610e4e83836125a5565b905060168114610c8b5760405162461bcd60e51b815260206004820152601a60248201527f546f6b656e20646973736f63696174696f6e206661696c6564210000000000006044820152606401610e31565b6000610c6d83836123d9565b6000610eb883836125d1565b905060168114610c8b5760405162461bcd60e51b815260206004820152601760248201527f546f6b656e206173736f6369617465206661696c6564210000000000000000006044820152606401610e31565b6000610f1683836125fd565b50610f2183836125fd565b905060168114610c8b5760405162461bcd60e51b815260206004820152601960248201527f546f6b656e206173736f63696174696f6e206661696c656421000000000000006044820152606401610e31565b60408051600580825260c08201909252600091816020015b610f93612f78565b815260200190600190039081610f8b579050509050610fc660006006600060405180602001604052806000815250612149565b81600081518110610fd957610fd9613a6c565b60200260200101819052506110006001600060405180602001604052806000815250612180565b8160018151811061101357611013613a6c565b602002602001018190525061103a6002600060405180602001604052806000815250612180565b8160028151811061104d5761104d613a6c565b60200260200101819052506110746003600060405180602001604052806000815250612180565b8160038151811061108757611087613a6c565b60200260200101819052506110ae6004600060405180602001604052806000815250612180565b816004815181106110c1576110c1613a6c565b602002602001018190525060006040518060600160405280600060070b8152602001846001600160a01b03168152602001627a120060070b815250905060006040518061012001604052806002805461111990613a82565b80601f016020809104026020016040519081016040528092919081815260200182805461114590613a82565b80156111925780601f1061116757610100808354040283529160200191611192565b820191906000526020600020905b81548152906001019060200180831161117557829003601f168201915b50505050508152602001600380546111a990613a82565b80601f01602080910402602001604051908101604052809291908181526020018280546111d590613a82565b80156112225780601f106111f757610100808354040283529160200191611222565b820191906000526020600020905b81548152906001019060200180831161120557829003601f168201915b50505050508152602001856001600160a01b031681526020016004805461124890613a82565b80601f016020809104026020016040519081016040528092919081815260200182805461127490613a82565b80156112c15780601f10611296576101008083540402835291602001916112c1565b820191906000526020600020905b8154815290600101906020018083116112a457829003601f168201915b505050918352505060016020820152600554680100000000000000008104600790810b604084015260ff600160a01b830416151560608401526080830187905260a0909201859052919250600091829161133791859181900b90700100000000000000000000000000000000900460030b61264c565b90925090506016821461134957600080fd5b505050505050565b600061135e8484846126b9565b90506016811461136d57600080fd5b9392505050565b600061138285858585612799565b905060168114610e3a5760405162461bcd60e51b815260206004820152601560248201527f546f6b656e207472616e73666572206661696c656400000000000000000000006044820152606401610e31565b6000610c7883836123d9565b600061135e8484846127fa565b6000806101676001600160a01b031663618dc65e60e01b8585604051602401611417929190613b62565b60408051601f198184030181529181526020820180516001600160e01b03166001600160e01b03199094169390931790925290516114559190613aed565b6000604051808303816000865af19150503d8060008114611492576040519150601f19603f3d011682016040523d82523d6000602084013e611497565b606091505b50915091507f4af4780e06fe8cb9df64b0794fa6f01399af979175bb988e35e0e57e594567bc82826040516114cd929190613b84565b60405180910390a150505050565b6000806114e9858585612853565b9092509050601682146114fb57600080fd5b935093915050565b604051630aed65f560e11b81526001600160a01b0380861660048301528085166024830152831660448201526064810182905260009030906315dacbea90608401602060405180830381600087803b15801561155e57600080fd5b505af1158015611572573d6000803e3d6000fd5b505050506040513d601f19601f820116820180604052508101906115969190613b9f565b60070b905060168114610e3a5760405162461bcd60e51b815260206004820152600f60248201527f5472616e73666572206661696c656400000000000000000000000000000000006044820152606401610e31565b60006115f884848461293c565b90506016811461136d5760405162461bcd60e51b815260206004820152601460248201527f4e465420617070726f76616c206661696c6564210000000000000000000000006044820152606401610e31565b604080516001808252818301909252600091816020015b611669612f78565b81526020019060019003908161166157905050905061169b600080600060405180602001604052806000815250612149565b816000815181106116ae576116ae613a6c565b602002602001018190525060006040518060600160405280600060070b8152602001856001600160a01b03168152602001627a120060070b815250905060006040518061012001604052806002805461170690613a82565b80601f016020809104026020016040519081016040528092919081815260200182805461173290613a82565b801561177f5780601f106117545761010080835404028352916020019161177f565b820191906000526020600020905b81548152906001019060200180831161176257829003601f168201915b505050505081526020016003805461179690613a82565b80601f01602080910402602001604051908101604052809291908181526020018280546117c290613a82565b801561180f5780601f106117e45761010080835404028352916020019161180f565b820191906000526020600020905b8154815290600101906020018083116117f257829003601f168201915b50505050508152602001866001600160a01b031681526020016004805461183590613a82565b80601f016020809104026020016040519081016040528092919081815260200182805461186190613a82565b80156118ae5780601f10611883576101008083540402835291602001916118ae565b820191906000526020600020905b81548152906001019060200180831161189157829003601f168201915b505050918352505060016020820181905260055468010000000000000000900460070b6040808401919091526000606084018190526080840188905260a09093018690528051828152808201909152929350909190816020015b6040805160a0810182526000808252602080830182905292820181905260608201819052608082015282526000199092019101816119085750506040805160a081018252600181526001600160a01b0388811660208301526000928201839052606082018390528916608082015282519293509183919061198b5761198b613a6c565b6020908102919091010152604080516001808252818301909252600091816020015b6040805160c08101825260008082526020808301829052928201819052606082018190526080820181905260a082015282526000199092019101816119ad5750506040805160c0810182526004815260056020820152600a91810191909152601e60608201526000608082018190526001600160a01b038a1660a083015282519293509091839190611a4157611a41613a6c565b60209081029190910101526005546000908190610c44908690600781900b90700100000000000000000000000000000000900460030b8787612992565b6000611a8a8383612526565b50610c788383612ac0565b6040516001600160a01b038581166024830152848116604483015283166064820152608481018290526000908190819061016790639b23d3d960e01b9060a401610d16565b604051639b23d3d960e01b81526001600160a01b038086166004830152808516602483015283166044820152606481018290526000903090639b23d3d990608401602060405180830381600087803b158015611b3557600080fd5b505af1158015611b49573d6000803e3d6000fd5b505050506040513d601f19601f82011682018060405250810190611b6d9190613b9f565b60070b905060168114610e3a5760405162461bcd60e51b815260206004820152601360248201527f4e4654207472616e73666572206661696c6564000000000000000000000000006044820152606401610e31565b6000610e4e8383612b0f565b6000611bda8383612b5e565b905060168114610c8b5760405162461bcd60e51b815260206004820152601660248201527f43727970746f207472616e73666572206661696c6564000000000000000000006044820152606401610e31565b6000611c39848484612b8a565b90506016811461136d5760405162461bcd60e51b815260206004820152601560248201527f546f6b656e207472616e73666572206661696c656400000000000000000000006044820152606401610e31565b6000610de385858585612bb8565b6000610c788383612ac0565b6000611cb2848484612c19565b90506016811461136d5760405162461bcd60e51b815260206004820152601060248201527f417070726f76616c206661696c656421000000000000000000000000000000006044820152606401610e31565b60408051600580825260c08201909252600091816020015b611d24612f78565b815260200190600190039081611d1c579050509050611d5760006006600060405180602001604052806000815250612149565b81600081518110611d6a57611d6a613a6c565b6020026020010181905250611d916001600060405180602001604052806000815250612180565b81600181518110611da457611da4613a6c565b6020026020010181905250611dcb6002600060405180602001604052806000815250612180565b81600281518110611dde57611dde613a6c565b6020026020010181905250611e056004600060405180602001604052806000815250612180565b81600381518110611e1857611e18613a6c565b6020026020010181905250611e3f6003600060405180602001604052806000815250612180565b81600481518110611e5257611e52613a6c565b602002602001018190525060006040518060600160405280600060070b8152602001846001600160a01b03168152602001627a120060070b8152509050600060405180610120016040528060028054611eaa90613a82565b80601f0160208091040260200160405190810160405280929190818152602001828054611ed690613a82565b8015611f235780601f10611ef857610100808354040283529160200191611f23565b820191906000526020600020905b815481529060010190602001808311611f0657829003601f168201915b5050505050815260200160038054611f3a90613a82565b80601f0160208091040260200160405190810160405280929190818152602001828054611f6690613a82565b8015611fb35780601f10611f8857610100808354040283529160200191611fb3565b820191906000526020600020905b815481529060010190602001808311611f9657829003601f168201915b50505050508152602001856001600160a01b0316815260200160048054611fd990613a82565b80601f016020809104026020016040519081016040528092919081815260200182805461200590613a82565b80156120525780601f1061202757610100808354040283529160200191612052565b820191906000526020600020905b81548152906001019060200180831161203557829003601f168201915b50505091835250506001602082015260055468010000000000000000810460070b6040830152600160a01b900460ff16151560608201526080810185905260a001839052905060008061133783612c6f565b6000610f2183836125fd565b600061135e848484612d91565b6000610c7883836122dd565b60006120d58383612b0f565b506120e083836125fd565b905060168114610c8b5760405162461bcd60e51b815260206004820181905260248201527f4e657374656420746f6b656e206173736f63696174696f6e206661696c6564216044820152606401610e31565b600061213e8383612b0f565b50610e4e8383612b0f565b612151612f78565b60405180604001604052806121668787612de8565b81526020016121758585612e23565b905295945050505050565b612188612f78565b604051806040016040528061219c86612f39565b81526020016121ab8585612e23565b9052949350505050565b600080848061010001516000015160070b60001480156121df57506101008101516040015160070b155b156121f5576101008101516276a7006040909101525b6000806101676001600160a01b03163463abb54eb560e01b8a8a8a60405160240161222293929190613def565b60408051601f198184030181529181526020820180516001600160e01b03166001600160e01b03199094169390931790925290516122609190613aed565b60006040518083038185875af1925050503d806000811461229d576040519150601f19603f3d011682016040523d82523d6000602084013e6122a2565b606091505b5091509150816122b557601560006122c9565b808060200190518101906122c99190613ea6565b60039190910b999098509650505050505050565b6040516001600160a01b0383811660248301528216604482015260009081908190610167907f8f8d7f9900000000000000000000000000000000000000000000000000000000906064015b60408051601f198184030181529181526020820180516001600160e01b03166001600160e01b03199094169390931790925290516123669190613aed565b6000604051808303816000865af19150503d80600081146123a3576040519150601f19603f3d011682016040523d82523d6000602084013e6123a8565b606091505b5091509150816123b95760156123cd565b808060200190518101906123cd9190613b1b565b60030b95945050505050565b6040516001600160a01b0383811660248301528216604482015260009081908190610167907faf99c6330000000000000000000000000000000000000000000000000000000090606401612328565b60008060606000806101676001600160a01b031663e0f4059a60e01b89898960405160240161245993929190613ed2565b60408051601f198184030181529181526020820180516001600160e01b03166001600160e01b03199094169390931790925290516124979190613aed565b6000604051808303816000865af19150503d80600081146124d4576040519150601f19603f3d011682016040523d82523d6000602084013e6124d9565b606091505b5091509150816124fc576040805160008082526020820190925260159190612510565b808060200190518101906125109190613f4f565b60039290920b9a90995090975095505050505050565b6040516001600160a01b0383811660248301528216604482015260009081908190610167907f5b8f85840000000000000000000000000000000000000000000000000000000090606401612328565b60008060006101676001600160a01b0316632c4ba19160e01b88888888604051602401610d169493929190614048565b60008060006101676001600160a01b03166378b6391860e01b868660405160240161232892919061409b565b60008060006101676001600160a01b0316632e63879b60e01b868660405160240161232892919061409b565b6040516001600160a01b0383811660248301528216604482015260009081908190610167907f49146bde0000000000000000000000000000000000000000000000000000000090606401612328565b600080848061010001516000015160070b600014801561267657506101008101516040015160070b155b1561268c576101008101516276a7006040909101525b6000806101676001600160a01b031634630fb65bf360e01b8a8a8a604051602401612222939291906140bd565b60008060006101676001600160a01b031663f7f38e2660e01b8787876040516024016126e7939291906140ec565b60408051601f198184030181529181526020820180516001600160e01b03166001600160e01b03199094169390931790925290516127259190613aed565b6000604051808303816000865af19150503d8060008114612762576040519150601f19603f3d011682016040523d82523d6000602084013e612767565b606091505b50915091508161277857601561278c565b8080602001905181019061278c9190613b1b565b60030b9695505050505050565b6040516001600160a01b038581166024830152848116604483015283166064820152600782900b608482015260009081908190610167907feca36917000000000000000000000000000000000000000000000000000000009060a401610d16565b6040516001600160a01b03848116602483015283166044820152600782900b606482015260009081908190610167907fefef57f900000000000000000000000000000000000000000000000000000000906084016126e7565b6000806000806101676001600160a01b031663d6910d0660e01b88888860405160240161288293929190614118565b60408051601f198184030181529181526020820180516001600160e01b03166001600160e01b03199094169390931790925290516128c09190613aed565b6000604051808303816000865af19150503d80600081146128fd576040519150601f19603f3d011682016040523d82523d6000602084013e612902565b606091505b5091509150816129155760156000612929565b808060200190518101906129299190614143565b60039190910b9890975095505050505050565b6040516001600160a01b038481166024830152831660448201526064810182905260009081908190610167907f7336aaf000000000000000000000000000000000000000000000000000000000906084016126e7565b600080868061010001516000015160070b60001480156129bc57506101008101516040015160070b155b156129d2576101008101516276a7006040909101525b6000806101676001600160a01b031634632af0c59a60e01b8c8c8c8c8c604051602401612a0395949392919061416f565b60408051601f198184030181529181526020820180516001600160e01b03166001600160e01b0319909416939093179092529051612a419190613aed565b60006040518083038185875af1925050503d8060008114612a7e576040519150601f19603f3d011682016040523d82523d6000602084013e612a83565b606091505b509150915081612a965760156000612aaa565b80806020019051810190612aaa9190613ea6565b60039190910b9b909a5098505050505050505050565b6040516001600160a01b0383811660248301528216604482015260009081908190610167907f52f913870000000000000000000000000000000000000000000000000000000090606401612328565b6040516001600160a01b0383811660248301528216604482015260009081908190610167907f099794e80000000000000000000000000000000000000000000000000000000090606401612328565b60008060006101676001600160a01b0316630e71804f60e01b868660405160240161232892919061428b565b60008060006101676001600160a01b03166382bba49360e01b8787876040516024016126e793929190614388565b6040516001600160a01b038581166024830152848116604483015283166064820152600782900b608482015260009081908190610167907f5cfc9011000000000000000000000000000000000000000000000000000000009060a401610d16565b6040516001600160a01b038481166024830152831660448201526064810182905260009081908190610167907fe1f21c6700000000000000000000000000000000000000000000000000000000906084016126e7565b600080828061010001516000015160070b6000148015612c9957506101008101516040015160070b155b15612caf576101008101516276a7006040909101525b6000806101676001600160a01b03163463ea83f29360e01b88604051602401612cd891906143c6565b60408051601f198184030181529181526020820180516001600160e01b03166001600160e01b0319909416939093179092529051612d169190613aed565b60006040518083038185875af1925050503d8060008114612d53576040519150601f19603f3d011682016040523d82523d6000602084013e612d58565b606091505b509150915081612d6b5760156000612d7f565b80806020019051810190612d7f9190613ea6565b60039190910b97909650945050505050565b6040516001600160a01b03848116602483015283166044820152811515606482015260009081908190610167907f367605ca00000000000000000000000000000000000000000000000000000000906084016126e7565b6000612e0c836006811115612dff57612dff6143d9565b600160ff9091161b821790565b905061136d826006811115612dff57612dff6143d9565b612e696040518060a0016040528060001515815260200160006001600160a01b03168152602001606081526020016060815260200160006001600160a01b031681525090565b6000836004811115612e7d57612e7d6143d9565b1415612e8c5760018152610c8b565b6001836004811115612ea057612ea06143d9565b1415612ebc576000546001600160a01b03166020820152610c8b565b6002836004811115612ed057612ed06143d9565b1415612ee25760408101829052610c8b565b6003836004811115612ef657612ef66143d9565b1415612f085760608101829052610c8b565b6004836004811115612f1c57612f1c6143d9565b1415610c8b576000546001600160a01b0316608082015292915050565b600060016000836006811115612f5157612f516143d9565b6006811115612f6257612f626143d9565b8152602001908152602001600020549050919050565b604051806040016040528060008152602001612fd06040518060a0016040528060001515815260200160006001600160a01b03168152602001606081526020016060815260200160006001600160a01b031681525090565b905290565b6001600160a01b0381168114612fea57600080fd5b50565b6000806040838503121561300057600080fd5b823561300b81612fd5565b9150602083013561301b81612fd5565b809150509250929050565b8060070b8114612fea57600080fd5b634e487b7160e01b600052604160045260246000fd5b6040516060810167ffffffffffffffff8111828210171561306e5761306e613035565b60405290565b6040516020810167ffffffffffffffff8111828210171561306e5761306e613035565b6040516080810167ffffffffffffffff8111828210171561306e5761306e613035565b604051601f8201601f1916810167ffffffffffffffff811182821017156130e3576130e3613035565b604052919050565b600067ffffffffffffffff82111561310557613105613035565b5060051b60200190565b600082601f83011261312057600080fd5b813567ffffffffffffffff81111561313a5761313a613035565b61314d601f8201601f19166020016130ba565b81815284602083860101111561316257600080fd5b816020850160208301376000918101602001919091529392505050565b60008060006060848603121561319457600080fd5b833561319f81612fd5565b92506020848101356131b081613026565b9250604085013567ffffffffffffffff808211156131cd57600080fd5b818701915087601f8301126131e157600080fd5b81356131f46131ef826130eb565b6130ba565b81815260059190911b8301840190848101908a83111561321357600080fd5b8585015b8381101561324b5780358581111561322f5760008081fd5b61323d8d89838a010161310f565b845250918601918601613217565b508096505050505050509250925092565b600081518084526020808501945080840160005b8381101561328f57815160070b87529582019590820190600101613270565b509495945050505050565b8381528260070b60208201526060604082015260006132bc606083018461325c565b95945050505050565b600080600080608085870312156132db57600080fd5b84356132e681612fd5565b935060208501356132f681612fd5565b9250604085013561330681612fd5565b9396929550929360600135925050565b600082601f83011261332757600080fd5b813560206133376131ef836130eb565b82815260059290921b8401810191818101908684111561335657600080fd5b8286015b8481101561337a57803561336d81612fd5565b835291830191830161335a565b509695505050505050565b600082601f83011261339657600080fd5b813560206133a66131ef836130eb565b82815260059290921b840181019181810190868411156133c557600080fd5b8286015b8481101561337a5780356133dc81613026565b83529183019183016133c9565b600080600080608085870312156133ff57600080fd5b843561340a81612fd5565b9350602085013567ffffffffffffffff8082111561342757600080fd5b61343388838901613316565b9450604087013591508082111561344957600080fd5b61345588838901613316565b9350606087013591508082111561346b57600080fd5b5061347887828801613385565b91505092959194509250565b6000806040838503121561349757600080fd5b82356134a281612fd5565b9150602083013567ffffffffffffffff8111156134be57600080fd5b6134ca85828601613316565b9150509250929050565b6000602082840312156134e657600080fd5b813561136d81612fd5565b60008060006060848603121561350657600080fd5b833561351181612fd5565b9250602084013561352181612fd5565b9150604084013567ffffffffffffffff81111561353d57600080fd5b61354986828701613385565b9150509250925092565b6000806000806080858703121561356957600080fd5b843561357481612fd5565b9350602085013561358481612fd5565b9250604085013561359481612fd5565b915060608501356135a481613026565b939692955090935050565b6000806000606084860312156135c457600080fd5b83356135cf81612fd5565b925060208401356135df81612fd5565b915060408401356135ef81613026565b809150509250925092565b6000806040838503121561360d57600080fd5b823561361881612fd5565b9150602083013567ffffffffffffffff81111561363457600080fd5b6134ca8582860161310f565b60008060006060848603121561365557600080fd5b833561366081612fd5565b9250602084013561352181613026565b60008060006060848603121561368557600080fd5b833561369081612fd5565b925060208401356136a081612fd5565b929592945050506040919091013590565b803580151581146136c157600080fd5b919050565b600082601f8301126136d757600080fd5b813560206136e76131ef836130eb565b8281526060928302850182019282820191908785111561370657600080fd5b8387015b858110156137665781818a0312156137225760008081fd5b61372a61304b565b813561373581612fd5565b81528186013561374481613026565b8187015260406137558382016136b1565b90820152845292840192810161370a565b5090979650505050505050565b6000806040838503121561378657600080fd5b67ffffffffffffffff808435111561379d57600080fd5b602084358501860312156137b057600080fd5b6137b8613074565b81853586013511156137c957600080fd5b6137d986863587018035016136c6565b8152925060208401358110156137ee57600080fd5b6020840135840185601f82011261380457600080fd5b6138116131ef82356130eb565b81358082526020808301929160051b84010188101561382f57600080fd5b602083015b6020843560051b8501018110156139aa57848135111561385357600080fd5b803584016060818b03601f1901121561386b57600080fd5b61387361304b565b6138806020830135612fd5565b60208201358152866040830135111561389857600080fd5b6138ab8b602060408501358501016136c6565b602082015286606083013511156138c157600080fd5b6060820135820191508a603f8301126138d957600080fd5b6138e96131ef60208401356130eb565b602083810135808352908201919060071b84016040018d81111561390c57600080fd5b6040850194505b80851015613994576080858f03121561392b57600080fd5b613933613097565b61393d8635612fd5565b8535815261394e6020870135612fd5565b602086013560208201526139656040870135613026565b6040860135604082015261397b606087016136b1565b6060820152835260809490940193602090920191613913565b5060408301525084525060209283019201613834565b50809450505050509250929050565b6000806000606084860312156139ce57600080fd5b83356139d981612fd5565b9250602084013567ffffffffffffffff808211156139f657600080fd5b613a0287838801613316565b93506040860135915080821115613a1857600080fd5b5061354986828701613385565b600080600060608486031215613a3a57600080fd5b8335613a4581612fd5565b92506020840135613a5581612fd5565b9150613a63604085016136b1565b90509250925092565b634e487b7160e01b600052603260045260246000fd5b600181811c90821680613a9657607f821691505b60208210811415613ab757634e487b7160e01b600052602260045260246000fd5b50919050565b60005b83811015613ad8578181015183820152602001613ac0565b83811115613ae7576000848401525b50505050565b60008251613aff818460208701613abd565b9190910192915050565b8051600381900b81146136c157600080fd5b600060208284031215613b2d57600080fd5b61136d82613b09565b60008151808452613b4e816020860160208601613abd565b601f01601f19169290920160200192915050565b6001600160a01b0383168152604060208201526000610e3a6040830184613b36565b8215158152604060208201526000610e3a6040830184613b36565b600060208284031215613bb157600080fd5b815161136d81613026565b600081518084526020808501808196508360051b8101915082860160005b85811015613c735782840389528151604081518652868201519150808787015281511515818701528682015160606001600160a01b03808316828a015283850151935060a09250608083818b0152613c3560e08b0186613b36565b928601518a8403603f1901858c0152929450613c518584613b36565b9501511660c09890980197909752505098850198935090840190600101613bda565b5091979650505050505050565b60006101608251818552613c9682860182613b36565b91505060208301518482036020860152613cb08282613b36565b9150506040830151613ccd60408601826001600160a01b03169052565b5060608301518482036060860152613ce58282613b36565b9150506080830151613cfb608086018215159052565b5060a0830151613d1060a086018260070b9052565b5060c0830151613d2460c086018215159052565b5060e083015184820360e0860152613d3c8282613bbc565b91505061010080840151613d7882870182805160070b82526001600160a01b036020820151166020830152604081015160070b60408301525050565b5090949350505050565b600081518084526020808501945080840160005b8381101561328f578151805160070b8852838101516001600160a01b03908116858a01526040808301511515908a01526060808301511515908a0152608091820151169088015260a09096019590820190600101613d96565b60006060808352613e0281840187613c80565b602084820381860152613e158288613d82565b91506040858303818701528287518085528385019150838901945060005b81811015613e965785518051600790810b855286820151810b8786015285820151900b85850152878101516001600160a01b039081168986015260808083015115159086015260a09182015116908401529484019460c090920191600101613e33565b50909a9950505050505050505050565b60008060408385031215613eb957600080fd5b613ec283613b09565b9150602083015161301b81612fd5565b6000606082016001600160a01b038616835260208560070b818501526060604085015281855180845260808601915060808160051b870101935082870160005b82811015613f4057607f19888703018452613f2e868351613b36565b95509284019290840190600101613f12565b50939998505050505050505050565b600080600060608486031215613f6457600080fd5b613f6d84613b09565b9250602080850151613f7e81613026565b604086015190935067ffffffffffffffff811115613f9b57600080fd5b8501601f81018713613fac57600080fd5b8051613fba6131ef826130eb565b81815260059190911b82018301908381019089831115613fd957600080fd5b928401925b82841015614000578351613ff181613026565b82529284019290840190613fde565b80955050505050509250925092565b600081518084526020808501945080840160005b8381101561328f5781516001600160a01b031687529582019590820190600101614023565b6001600160a01b038516815260806020820152600061406a608083018661400f565b828103604084015261407c818661400f565b90508281036060840152614090818561325c565b979650505050505050565b6001600160a01b0383168152604060208201526000610e3a604083018461400f565b6060815260006140d06060830186613c80565b90508360070b60208301528260030b6040830152949350505050565b60006001600160a01b038086168352808516602084015250606060408301526132bc606083018461325c565b6001600160a01b03841681528260070b60208201526060604082015260006132bc606083018461325c565b6000806040838503121561415657600080fd5b61415f83613b09565b9150602083015161301b81613026565b600060a080835261418281840189613c80565b6020600789810b8287015260408960030b818801526060878503818901526141aa858b613d82565b94506080888603818a0152858a518088528688019150868c01975060005b818110156142225788518051880b845288810151880b8985015286810151880b8785015285810151880b86850152848101511515858501528a01516001600160a01b03168a8401529787019760c0909201916001016141c8565b50909f9e505050505050505050505050505050565b600081518084526020808501945080840160005b8381101561328f57815180516001600160a01b031688528381015160070b848901526040908101511515908801526060909601959082019060010161424b565b6000604080835260608551602080848701526142a983870183614237565b9150858203818701528187518084528284019150828160051b850101838a0160005b8381101561437757601f1987840301855281516001600160a01b03808251168552878201518a898701526143018b870182614237565b928c0151868403878e01528051808552908a0193600092508a01905b808310156143615784518051851683528b81015185168c8401528e81015160070b8f8401528d015115158d830152938a01936001929092019160809091019061431d565b50978901979550505091860191506001016142cb565b50909b9a5050505050505050505050565b6001600160a01b03841681526060602082015260006143aa606083018561400f565b82810360408401526143bc818561325c565b9695505050505050565b60208152600061136d6020830184613c80565b634e487b7160e01b600052602160045260246000fdfea264697066735822122087717958010c322ad74b4c5a89d53b53ae1af2a6bcf73b909940a0ba70a25c5364736f6c63430008090033",
  "linkReferences": {},
  "deployedLinkReferences": {}
}