{
  "_format": "hh-sol-artifact-1",
  "contractName": "EstimatePrecompileContract",
  "sourceName": "contracts/EstimatePrecompileContract.sol",
  "abi": [
    {
      "anonymous": false,
      "inputs": [
        {
          "indexed": false,
          "internalType": "bool",
          "name": "",
          "type": "bool"
        },
        {
          "indexed": false,
          "internalType": "bytes",
          "name": "",
          "type": "bytes"
        }
      ],
      "name": "CallResponseEvent",
      "type": "event"
    },
    {
      "inputs": [
        {
          "internalType": "address",
          "name": "token",
          "type": "address"
        },
        {
          "internalType": "address",
          "name": "owner",
          "type": "address"
        },
        {
          "internalType": "address",
          "name": "spender",
          "type": "address"
        }
      ],
      "name": "allowanceExternal",
      "outputs": [
        {
          "internalType": "uint256",
          "name": "",
          "type": "uint256"
        }
      ],
      "stateMutability": "nonpayable",
      "type": "function"
    },
    {
      "inputs": [
        {
          "internalType": "address",
          "name": "token",
          "type": "address"
        },
        {
          "internalType": "address",
          "name": "spender",
          "type": "address"
        },
        {
          "internalType": "uint256",
          "name": "amount",
          "type": "uint256"
        }
      ],
      "name": "approveExternal",
      "outputs": [],
      "stateMutability": "nonpayable",
      "type": "function"
    },
    {
      "inputs": [
        {
          "internalType": "address",
          "name": "token",
          "type": "address"
        },
        {
          "internalType": "address",
          "name": "approved",
          "type": "address"
        },
        {
          "internalType": "uint256",
          "name": "serialNumber",
          "type": "uint256"
        }
      ],
      "name": "approveNFTExternal",
      "outputs": [],
      "stateMutability": "nonpayable",
      "type": "function"
    },
    {
      "inputs": [
        {
          "internalType": "address",
          "name": "account",
          "type": "address"
        },
        {
          "internalType": "address",
          "name": "token",
          "type": "address"
        }
      ],
      "name": "associateTokenExternal",
      "outputs": [],
      "stateMutability": "nonpayable",
      "type": "function"
    },
    {
      "inputs": [
        {
          "internalType": "address",
          "name": "account",
          "type": "address"
        },
        {
          "internalType": "address[]",
          "name": "tokens",
          "type": "address[]"
        }
      ],
      "name": "associateTokensExternal",
      "outputs": [],
      "stateMutability": "nonpayable",
      "type": "function"
    },
    {
      "inputs": [
        {
          "internalType": "address",
          "name": "token",
          "type": "address"
        },
        {
          "internalType": "int64",
          "name": "amount",
          "type": "int64"
        },
        {
          "internalType": "int64[]",
          "name": "serialNumbers",
          "type": "int64[]"
        }
      ],
      "name": "burnTokenExternal",
      "outputs": [
        {
          "internalType": "int64",
          "name": "newTotalSupply",
          "type": "int64"
        }
      ],
      "stateMutability": "nonpayable",
      "type": "function"
    },
    {
      "inputs": [
        {
          "internalType": "address",
          "name": "treasury",
          "type": "address"
        }
      ],
      "name": "createFungibleTokenPublic",
      "outputs": [
        {
          "internalType": "address",
          "name": "",
          "type": "address"
        }
      ],
      "stateMutability": "payable",
      "type": "function"
    },
    {
      "inputs": [
        {
          "internalType": "address",
          "name": "treasury",
          "type": "address"
        },
        {
          "internalType": "address",
          "name": "fixedFeeTokenAddress",
          "type": "address"
        }
      ],
      "name": "createFungibleTokenWithCustomFeesPublic",
      "outputs": [
        {
          "internalType": "address",
          "name": "",
          "type": "address"
        }
      ],
      "stateMutability": "payable",
      "type": "function"
    },
    {
      "inputs": [
        {
          "internalType": "address",
          "name": "treasury",
          "type": "address"
        }
      ],
      "name": "createNonFungibleTokenPublic",
      "outputs": [
        {
          "internalType": "address",
          "name": "",
          "type": "address"
        }
      ],
      "stateMutability": "payable",
      "type": "function"
    },
    {
      "inputs": [
        {
          "internalType": "address",
          "name": "treasury",
          "type": "address"
        },
        {
          "internalType": "address",
          "name": "fixedFeeTokenAddress",
          "type": "address"
        }
      ],
      "name": "createNonFungibleTokenWithCustomFeesPublic",
      "outputs": [
        {
          "internalType": "address",
          "name": "",
          "type": "address"
        }
      ],
      "stateMutability": "payable",
      "type": "function"
    },
    {
      "inputs": [
        {
          "components": [
            {
              "components": [
                {
                  "internalType": "address",
                  "name": "accountID",
                  "type": "address"
                },
                {
                  "internalType": "int64",
                  "name": "amount",
                  "type": "int64"
                },
                {
                  "internalType": "bool",
                  "name": "isApproval",
                  "type": "bool"
                }
              ],
              "internalType": "struct IHederaTokenService.AccountAmount[]",
              "name": "transfers",
              "type": "tuple[]"
            }
          ],
          "internalType": "struct IHederaTokenService.TransferList",
          "name": "transferList",
          "type": "tuple"
        },
        {
          "components": [
            {
              "internalType": "address",
              "name": "token",
              "type": "address"
            },
            {
              "components": [
                {
                  "internalType": "address",
                  "name": "accountID",
                  "type": "address"
                },
                {
                  "internalType": "int64",
                  "name": "amount",
                  "type": "int64"
                },
                {
                  "internalType": "bool",
                  "name": "isApproval",
                  "type": "bool"
                }
              ],
              "internalType": "struct IHederaTokenService.AccountAmount[]",
              "name": "transfers",
              "type": "tuple[]"
            },
            {
              "components": [
                {
                  "internalType": "address",
                  "name": "senderAccountID",
                  "type": "address"
                },
                {
                  "internalType": "address",
                  "name": "receiverAccountID",
                  "type": "address"
                },
                {
                  "internalType": "int64",
                  "name": "serialNumber",
                  "type": "int64"
                },
                {
                  "internalType": "bool",
                  "name": "isApproval",
                  "type": "bool"
                }
              ],
              "internalType": "struct IHederaTokenService.NftTransfer[]",
              "name": "nftTransfers",
              "type": "tuple[]"
            }
          ],
          "internalType": "struct IHederaTokenService.TokenTransferList[]",
          "name": "tokenTransfers",
          "type": "tuple[]"
        }
      ],
      "name": "cryptoTransferExternal",
      "outputs": [],
      "stateMutability": "nonpayable",
      "type": "function"
    },
    {
      "inputs": [
        {
          "internalType": "address",
          "name": "token",
          "type": "address"
        }
      ],
      "name": "deleteTokenExternal",
      "outputs": [],
      "stateMutability": "nonpayable",
      "type": "function"
    },
    {
      "inputs": [
        {
          "internalType": "address",
          "name": "account",
          "type": "address"
        },
        {
          "internalType": "address",
          "name": "token",
          "type": "address"
        }
      ],
      "name": "dissociateAndAssociateTokenExternal",
      "outputs": [],
      "stateMutability": "nonpayable",
      "type": "function"
    },
    {
      "inputs": [
        {
          "internalType": "address",
          "name": "account",
          "type": "address"
        },
        {
          "internalType": "address",
          "name": "token",
          "type": "address"
        }
      ],
      "name": "dissociateTokenExternal",
      "outputs": [],
      "stateMutability": "nonpayable",
      "type": "function"
    },
    {
      "inputs": [
        {
          "internalType": "address",
          "name": "account",
          "type": "address"
        },
        {
          "internalType": "address[]",
          "name": "tokens",
          "type": "address[]"
        }
      ],
      "name": "dissociateTokensExternal",
      "outputs": [],
      "stateMutability": "nonpayable",
      "type": "function"
    },
    {
      "inputs": [
        {
          "internalType": "address",
          "name": "token",
          "type": "address"
        },
        {
          "internalType": "address",
          "name": "account",
          "type": "address"
        }
      ],
      "name": "freezeTokenExternal",
      "outputs": [],
      "stateMutability": "nonpayable",
      "type": "function"
    },
    {
      "inputs": [
        {
          "internalType": "address",
          "name": "token",
          "type": "address"
        },
        {
          "internalType": "uint256",
          "name": "serialNumber",
          "type": "uint256"
        }
      ],
      "name": "getApprovedExternal",
      "outputs": [
        {
          "internalType": "address",
          "name": "",
          "type": "address"
        }
      ],
      "stateMutability": "nonpayable",
      "type": "function"
    },
    {
      "inputs": [
        {
          "internalType": "address",
          "name": "token",
          "type": "address"
        }
      ],
      "name": "getTokenExpiryInfoExternal",
      "outputs": [
        {
          "internalType": "int64",
          "name": "",
          "type": "int64"
        },
        {
          "internalType": "address",
          "name": "",
          "type": "address"
        },
        {
          "internalType": "int64",
          "name": "",
          "type": "int64"
        }
      ],
      "stateMutability": "nonpayable",
      "type": "function"
    },
    {
      "inputs": [
        {
          "internalType": "address",
          "name": "token",
          "type": "address"
        },
        {
          "internalType": "uint256",
          "name": "keyType",
          "type": "uint256"
        }
      ],
      "name": "getTokenKeyExternal",
      "outputs": [
        {
          "internalType": "bool",
          "name": "",
          "type": "bool"
        },
        {
          "internalType": "address",
          "name": "",
          "type": "address"
        },
        {
          "internalType": "bytes",
          "name": "",
          "type": "bytes"
        },
        {
          "internalType": "bytes",
          "name": "",
          "type": "bytes"
        },
        {
          "internalType": "address",
          "name": "",
          "type": "address"
        }
      ],
      "stateMutability": "nonpayable",
      "type": "function"
    },
    {
      "inputs": [
        {
          "internalType": "address",
          "name": "token",
          "type": "address"
        },
        {
          "internalType": "address",
          "name": "account",
          "type": "address"
        }
      ],
      "name": "grantTokenKycExternal",
      "outputs": [],
      "stateMutability": "nonpayable",
      "type": "function"
    },
    {
      "inputs": [
        {
          "internalType": "address",
          "name": "token",
          "type": "address"
        },
        {
          "internalType": "address",
          "name": "owner",
          "type": "address"
        },
        {
          "internalType": "address",
          "name": "operator",
          "type": "address"
        }
      ],
      "name": "isApprovedForAllExternal",
      "outputs": [
        {
          "internalType": "bool",
          "name": "",
          "type": "bool"
        }
      ],
      "stateMutability": "nonpayable",
      "type": "function"
    },
    {
      "inputs": [
        {
          "internalType": "address",
          "name": "token",
          "type": "address"
        }
      ],
      "name": "isTokenExternal",
      "outputs": [
        {
          "internalType": "bool",
          "name": "",
          "type": "bool"
        }
      ],
      "stateMutability": "nonpayable",
      "type": "function"
    },
    {
      "inputs": [
        {
          "internalType": "address",
          "name": "token",
          "type": "address"
        },
        {
          "internalType": "int64",
          "name": "amount",
          "type": "int64"
        },
        {
          "internalType": "bytes[]",
          "name": "metadata",
          "type": "bytes[]"
        }
      ],
      "name": "mintTokenExternal",
      "outputs": [
        {
          "internalType": "int64",
          "name": "newTotalSupply",
          "type": "int64"
        },
        {
          "internalType": "int64[]",
          "name": "serialNumbers",
          "type": "int64[]"
        }
      ],
      "stateMutability": "nonpayable",
      "type": "function"
    },
    {
      "inputs": [
        {
          "internalType": "address",
          "name": "account",
          "type": "address"
        },
        {
          "internalType": "address",
          "name": "token",
          "type": "address"
        }
      ],
      "name": "nestedAssociateTokenExternal",
      "outputs": [],
      "stateMutability": "nonpayable",
      "type": "function"
    },
    {
      "inputs": [
        {
          "internalType": "address",
          "name": "token",
          "type": "address"
        },
        {
          "internalType": "address",
          "name": "account",
          "type": "address"
        }
      ],
      "name": "nestedFreezeUnfreezeTokenExternal",
      "outputs": [],
      "stateMutability": "nonpayable",
      "type": "function"
    },
    {
      "inputs": [
        {
          "internalType": "address",
          "name": "token",
          "type": "address"
        },
        {
          "internalType": "address",
          "name": "account",
          "type": "address"
        }
      ],
      "name": "nestedGrantAndRevokeTokenKYCExternal",
      "outputs": [],
      "stateMutability": "nonpayable",
      "type": "function"
    },
    {
      "inputs": [
        {
          "internalType": "address",
          "name": "token",
          "type": "address"
        }
      ],
      "name": "nestedPauseUnpauseTokenExternal",
      "outputs": [],
      "stateMutability": "nonpayable",
      "type": "function"
    },
    {
      "inputs": [
        {
          "internalType": "address",
          "name": "token",
          "type": "address"
        }
      ],
      "name": "pauseTokenExternal",
      "outputs": [],
      "stateMutability": "nonpayable",
      "type": "function"
    },
    {
      "inputs": [
        {
          "internalType": "address",
          "name": "token",
          "type": "address"
        },
        {
          "internalType": "bytes",
          "name": "encodedFunctionSelector",
          "type": "bytes"
        }
      ],
      "name": "redirectForToken",
      "outputs": [
        {
          "internalType": "int256",
          "name": "responseCode",
          "type": "int256"
        },
        {
          "internalType": "bytes",
          "name": "response",
          "type": "bytes"
        }
      ],
      "stateMutability": "nonpayable",
      "type": "function"
    },
    {
      "inputs": [
        {
          "internalType": "address",
          "name": "token",
          "type": "address"
        },
        {
          "internalType": "address",
          "name": "account",
          "type": "address"
        }
      ],
      "name": "revokeTokenKycExternal",
      "outputs": [],
      "stateMutability": "nonpayable",
      "type": "function"
    },
    {
      "inputs": [
        {
          "internalType": "address",
          "name": "token",
          "type": "address"
        },
        {
          "internalType": "address",
          "name": "account",
          "type": "address"
        },
        {
          "internalType": "bool",
          "name": "approved",
          "type": "bool"
        }
      ],
      "name": "setApprovalForAllExternal",
      "outputs": [],
      "stateMutability": "nonpayable",
      "type": "function"
    },
    {
      "inputs": [
        {
          "internalType": "address",
          "name": "token",
          "type": "address"
        },
        {
          "internalType": "address",
          "name": "from",
          "type": "address"
        },
        {
          "internalType": "address",
          "name": "to",
          "type": "address"
        },
        {
          "internalType": "uint256",
          "name": "amount",
          "type": "uint256"
        }
      ],
      "name": "transferFrom",
      "outputs": [
        {
          "internalType": "int64",
          "name": "responseCode",
          "type": "int64"
        }
      ],
      "stateMutability": "nonpayable",
      "type": "function"
    },
    {
      "inputs": [
        {
          "internalType": "address",
          "name": "token",
          "type": "address"
        },
        {
          "internalType": "address",
          "name": "from",
          "type": "address"
        },
        {
          "internalType": "address",
          "name": "to",
          "type": "address"
        },
        {
          "internalType": "uint256",
          "name": "amount",
          "type": "uint256"
        }
      ],
      "name": "transferFromExternal",
      "outputs": [],
      "stateMutability": "nonpayable",
      "type": "function"
    },
    {
      "inputs": [
        {
          "internalType": "address",
          "name": "token",
          "type": "address"
        },
        {
          "internalType": "address",
          "name": "from",
          "type": "address"
        },
        {
          "internalType": "address",
          "name": "to",
          "type": "address"
        },
        {
          "internalType": "uint256",
          "name": "serialNumber",
          "type": "uint256"
        }
      ],
      "name": "transferFromNFT",
      "outputs": [
        {
          "internalType": "int64",
          "name": "responseCode",
          "type": "int64"
        }
      ],
      "stateMutability": "nonpayable",
      "type": "function"
    },
    {
      "inputs": [
        {
          "internalType": "address",
          "name": "token",
          "type": "address"
        },
        {
          "internalType": "address",
          "name": "from",
          "type": "address"
        },
        {
          "internalType": "address",
          "name": "to",
          "type": "address"
        },
        {
          "internalType": "uint256",
          "name": "serialNumber",
          "type": "uint256"
        }
      ],
      "name": "transferFromNFTExternal",
      "outputs": [],
      "stateMutability": "nonpayable",
      "type": "function"
    },
    {
      "inputs": [
        {
          "internalType": "address",
          "name": "token",
          "type": "address"
        },
        {
          "internalType": "address",
          "name": "sender",
          "type": "address"
        },
        {
          "internalType": "address",
          "name": "receiver",
          "type": "address"
        },
        {
          "internalType": "int64",
          "name": "serialNumber",
          "type": "int64"
        }
      ],
      "name": "transferNFTExternal",
      "outputs": [],
      "stateMutability": "nonpayable",
      "type": "function"
    },
    {
      "inputs": [
        {
          "internalType": "address",
          "name": "token",
          "type": "address"
        },
        {
          "internalType": "address[]",
          "name": "sender",
          "type": "address[]"
        },
        {
          "internalType": "address[]",
          "name": "receiver",
          "type": "address[]"
        },
        {
          "internalType": "int64[]",
          "name": "serialNumber",
          "type": "int64[]"
        }
      ],
      "name": "transferNFTsExternal",
      "outputs": [],
      "stateMutability": "nonpayable",
      "type": "function"
    },
    {
      "inputs": [
        {
          "internalType": "address",
          "name": "token",
          "type": "address"
        },
        {
          "internalType": "address",
          "name": "sender",
          "type": "address"
        },
        {
          "internalType": "address",
          "name": "receiver",
          "type": "address"
        },
        {
          "internalType": "int64",
          "name": "amount",
          "type": "int64"
        }
      ],
      "name": "transferTokenExternal",
      "outputs": [],
      "stateMutability": "nonpayable",
      "type": "function"
    },
    {
      "inputs": [
        {
          "internalType": "address",
          "name": "token",
          "type": "address"
        },
        {
          "internalType": "address[]",
          "name": "accountIds",
          "type": "address[]"
        },
        {
          "internalType": "int64[]",
          "name": "amounts",
          "type": "int64[]"
        }
      ],
      "name": "transferTokensExternal",
      "outputs": [],
      "stateMutability": "nonpayable",
      "type": "function"
    },
    {
      "inputs": [
        {
          "internalType": "address",
          "name": "token",
          "type": "address"
        },
        {
          "internalType": "address",
          "name": "account",
          "type": "address"
        }
      ],
      "name": "unfreezeTokenExternal",
      "outputs": [],
      "stateMutability": "nonpayable",
      "type": "function"
    },
    {
      "inputs": [
        {
          "internalType": "address",
          "name": "token",
          "type": "address"
        }
      ],
      "name": "unpauseTokenExternal",
      "outputs": [],
      "stateMutability": "nonpayable",
      "type": "function"
    },
    {
      "inputs": [
        {
          "internalType": "address",
          "name": "token",
          "type": "address"
        },
        {
          "internalType": "address",
          "name": "treasury",
          "type": "address"
        }
      ],
      "name": "updateTokenExpiryInfoExternal",
      "outputs": [],
      "stateMutability": "nonpayable",
      "type": "function"
    },
    {
      "inputs": [
        {
          "internalType": "address",
          "name": "token",
          "type": "address"
        },
        {
          "internalType": "address",
          "name": "treasury",
          "type": "address"
        }
      ],
      "name": "updateTokenInfoExternal",
      "outputs": [],
      "stateMutability": "nonpayable",
      "type": "function"
    },
    {
      "inputs": [
        {
          "internalType": "address",
          "name": "token",
          "type": "address"
        }
      ],
      "name": "updateTokenKeysExternal",
      "outputs": [],
      "stateMutability": "nonpayable",
      "type": "function"
    },
    {
      "inputs": [
        {
          "internalType": "address",
          "name": "token",
          "type": "address"
        },
        {
          "internalType": "address",
          "name": "account",
          "type": "address"
        },
        {
          "internalType": "int64",
          "name": "amount",
          "type": "int64"
        }
      ],
      "name": "wipeTokenAccountExternal",
      "outputs": [],
      "stateMutability": "nonpayable",
      "type": "function"
    },
    {
      "inputs": [
        {
          "internalType": "address",
          "name": "token",
          "type": "address"
        },
        {
          "internalType": "address",
          "name": "account",
          "type": "address"
        },
        {
          "internalType": "int64[]",
          "name": "serialNumbers",
          "type": "int64[]"
        }
      ],
      "name": "wipeTokenAccountNFTExternal",
      "outputs": [],
      "stateMutability": "nonpayable",
      "type": "function"
    }
  ],
  "bytecode": "0x60c06040526009608081905268746f6b656e4e616d6560b81b60a09081526200002c9160029190620001c2565b5060408051808201909152600380825262544b5960e81b6020909201918252620000579181620001c2565b50604080518082019091526004808252636d656d6f60e01b6020909201918252620000839181620001c2565b50600580546001600160a81b031916700800000000000003e800000000000003e8179055348015620000b457600080fd5b50600160208181527fa6eef7e35abe7026729641147f7915573c7e97b47efa546f5f6e3230263bcb499190915560027fcc69885fda6bcc1a4ace058b4a62bf5e179ea78fd58a1ccd71c22cc9b688792f5560047fd9d16d34ffb15ba3a3d852f0d403e2ce1d691fb54de27ac87cd2f993f3ec330f5560087f7dfe757ecd65cbd7922a9c0161e935dd7fdbcc0e999689c7d31633896b1fc60b5560107fedc95719e9a3b28dd8e80877cb5880a9be7de1a13fc8b05e7999683b6b567643557fe2689cd4a84e23ad2f564004f1c9013e9589d260bde6380aba3ca7e09e4df40c55600660005260407f8f331abe73332f95a25873e8b430885974c0409691f89d643119a11623a7924a55620002a5565b828054620001d09062000268565b90600052602060002090601f016020900481019282620001f457600085556200023f565b82601f106200020f57805160ff19168380011785556200023f565b828001600101855582156200023f579182015b828111156200023f57825182559160200191906001019062000222565b506200024d92915062000251565b5090565b5b808211156200024d576000815560010162000252565b600181811c908216806200027d57607f821691505b602082108114156200029f57634e487b7160e01b600052602260045260246000fd5b50919050565b61549e80620002b56000396000f3fe6080604052600436106102fd5760003560e01c806375a854721161018f578063aa835c63116100e1578063e31b839c1161008a578063ed129c3f11610064578063ed129c3f146108d7578063f1938266146108f7578063fb2b6cef1461091757600080fd5b8063e31b839c14610877578063e95a71e514610897578063ec4ca639146108b757600080fd5b8063ceda64c4116100bb578063ceda64c414610824578063d85f74c114610844578063d91cfc951461085757600080fd5b8063aa835c63146107c4578063b97beda9146107e4578063bafa6a911461080457600080fd5b8063901fe3d0116101435780639bc4d3541161011d5780639bc4d354146107645780639c21924714610784578063a6218810146107a457600080fd5b8063901fe3d0146107045780639333700b146107245780639b23d3d91461074457600080fd5b80637cea29a3116101745780637cea29a31461068557806384d232f5146106d15780638ba74da0146106f157600080fd5b806375a85472146106455780637adc26b81461066557600080fd5b806330a8f2931161025357806352205b33116101fc578063632da116116101d6578063632da116146105e55780636f3e867814610605578063714c42c01461062557600080fd5b806352205b33146105775780635ac4fef814610597578063618dc65e146105b757600080fd5b80634b5c66871161022d5780634b5c6687146105245780634c09c804146105375780634fd6ce0a1461055757600080fd5b806330a8f293146104b457806331508107146104d4578063437dffd51461050457600080fd5b8063144b06ff116102b55780631ba978fc1161028f5780631ba978fc146104545780632390c1fa146104745780632fc358f71461049457600080fd5b8063144b06ff146103d057806315dacbea14610401578063165aae661461043457600080fd5b806306a1a5d3116102e657806306a1a5d3146103605780630c0295d4146103825780630c0a198c146103b057600080fd5b80630435d840146103025780630488c93914610335575b600080fd5b34801561030e57600080fd5b5061032261031d366004613caf565b610937565b6040519081526020015b60405180910390f35b610348610343366004613cfa565b61095f565b6040516001600160a01b03909116815260200161032c565b34801561036c57600080fd5b5061038061037b366004613cfa565b610e9d565b005b34801561038e57600080fd5b506103a261039d366004613ebd565b610ec7565b60405161032c929190613fd3565b3480156103bc57600080fd5b506103806103cb366004613fef565b610ef7565b3480156103dc57600080fd5b506103f06103eb36600461400c565b610f11565b60405161032c959493929190614090565b34801561040d57600080fd5b5061042161041c3660046140e3565b610f60565b60405160079190910b815260200161032c565b34801561044057600080fd5b5061038061044f366004613fef565b611054565b34801561046057600080fd5b5061038061046f366004614207565b61105f565b34801561048057600080fd5b5061038061048f3660046142a2565b61107f565b3480156104a057600080fd5b506103806104af3660046142a2565b611096565b3480156104c057600080fd5b506103806104cf366004613fef565b6110a2565b3480156104e057600080fd5b506104f46104ef366004613caf565b6110ad565b604051901515815260200161032c565b34801561051057600080fd5b5061038061051f366004613cfa565b6110bd565b610348610532366004613fef565b6110d4565b34801561054357600080fd5b506103806105523660046142f2565b6114b2565b34801561056357600080fd5b50610380610572366004614354565b6114d0565b34801561058357600080fd5b50610380610592366004613cfa565b6114de565b3480156105a357600080fd5b506103806105b23660046143b0565b6114ea565b3480156105c357600080fd5b506105d76105d23660046143f0565b6114f7565b60405161032c929190614436565b3480156105f157600080fd5b5061042161060036600461444f565b611625565b34801561061157600080fd5b506104f4610620366004613fef565b611635565b34801561063157600080fd5b50610380610640366004613fef565b611653565b34801561065157600080fd5b506103806106603660046140e3565b61182f565b34801561067157600080fd5b50610380610680366004613cfa565b6118d1565b34801561069157600080fd5b506106a56106a0366004613fef565b611904565b60408051600794850b81526001600160a01b039093166020840152920b9181019190915260600161032c565b3480156106dd57600080fd5b506103806106ec36600461447f565b61193c565b6103486106ff366004613cfa565b611949565b34801561071057600080fd5b5061038061071f366004613cfa565b611d80565b34801561073057600080fd5b5061038061073f366004613cfa565b611d97565b34801561075057600080fd5b5061042161075f3660046140e3565b611da3565b34801561077057600080fd5b5061038061077f3660046140e3565b611de8565b34801561079057600080fd5b5061038061079f366004613cfa565b611e2e565b3480156107b057600080fd5b506103806107bf36600461457d565b611e3a565b3480156107d057600080fd5b506103806107df3660046147c8565b611e46565b3480156107f057600080fd5b506103486107ff36600461400c565b611e53565b34801561081057600080fd5b5061038061081f366004614354565b611e77565b34801561083057600080fd5b5061038061083f36600461447f565b611e85565b610348610852366004613fef565b611e92565b34801561086357600080fd5b50610380610872366004613cfa565b612235565b34801561088357600080fd5b50610380610892366004614834565b612241565b3480156108a357600080fd5b506103806108b2366004613cfa565b61224e565b3480156108c357600080fd5b506103806108d2366004613cfa565b61225a565b3480156108e357600080fd5b506103806108f2366004613fef565b612266565b34801561090357600080fd5b50610380610912366004613cfa565b61227b565b34801561092357600080fd5b50610380610932366004613cfa565b612285565b6000806000610947868686612637565b9150915061095482612736565b9150505b9392505050565b60408051600580825260c08201909252600091829190816020015b610982613c3d565b81526020019060019003908161097a5790505090506109b560006006600060405180602001604052806000815250612746565b816000815181106109c8576109c8614874565b60200260200101819052506109ef600160006040518060200160405280600081525061277d565b81600181518110610a0257610a02614874565b6020026020010181905250610a29600260006040518060200160405280600081525061277d565b81600281518110610a3c57610a3c614874565b6020026020010181905250610a63600460006040518060200160405280600081525061277d565b81600381518110610a7657610a76614874565b6020026020010181905250610a9d600360006040518060200160405280600081525061277d565b81600481518110610ab057610ab0614874565b602002602001018190525060006040518060600160405280600060070b8152602001866001600160a01b03168152602001627a120060070b8152509050600060405180610120016040528060028054610b089061488a565b80601f0160208091040260200160405190810160405280929190818152602001828054610b349061488a565b8015610b815780601f10610b5657610100808354040283529160200191610b81565b820191906000526020600020905b815481529060010190602001808311610b6457829003601f168201915b5050505050815260200160038054610b989061488a565b80601f0160208091040260200160405190810160405280929190818152602001828054610bc49061488a565b8015610c115780601f10610be657610100808354040283529160200191610c11565b820191906000526020600020905b815481529060010190602001808311610bf457829003601f168201915b50505050508152602001876001600160a01b0316815260200160048054610c379061488a565b80601f0160208091040260200160405190810160405280929190818152602001828054610c639061488a565b8015610cb05780601f10610c8557610100808354040283529160200191610cb0565b820191906000526020600020905b815481529060010190602001808311610c9357829003601f168201915b505050918352505060016020820181905260055468010000000000000000810460070b6040840152600160a01b900460ff16151560608301526080820186905260a0909101849052909150600090604051908082528060200260200182016040528015610d5757816020015b6040805160a081018252600080825260208083018290529282018190526060820181905260808201528252600019909201910181610d1c5790505b506040805160a081018252600181526001600160a01b03808a1660208301526000928201839052606082018390528a166080820152825192935091839190610da157610da1614874565b6020908102919091010152604080516001808252818301909252600091816020015b6040805160c08101825260008082526020808301829052928201819052606082018190526080820181905260a08201528252600019909201910181610dc35790505090506040518060c00160405280600460070b8152602001600560070b8152602001600a60070b8152602001886001600160a01b03168152602001600015158152602001896001600160a01b031681525081600081518110610e6857610e68614874565b6020026020010181905250600080610e818585856127b2565b91509150610e8e82612736565b96505050505050505b92915050565b610ea782826128da565b506000610eb483836129d6565b60070b9050610ec281612736565b505050565b600060606000806000610edb888888612a25565b925092509250610eea83612736565b9097909650945050505050565b6000610f0282612b23565b9050610f0d81612736565b5050565b6000806060806000806000610f268989612c16565b915060070b9150610f3682612736565b8051602082015160408301516060840151608090940151929c919b50995091975095509350505050565b6040516001600160a01b038581166024830152848116604483015283166064820152608481018290526000908190819061016790630aed65f560e11b9060a4015b60408051601f198184030181529181526020820180516001600160e01b03166001600160e01b0319909416939093179092529051610fdf91906148c5565b6000604051808303816000865af19150503d806000811461101c576040519150601f19603f3d011682016040523d82523d6000602084013e611021565b606091505b509150915081611032576015611046565b8080602001905181019061104691906148f8565b60030b979650505050505050565b6000610f0282612d60565b600061106d85858585612da7565b905061107881612736565b5050505050565b600061108b8383612dd7565b9050610ec281612736565b600061108b8383612e03565b6000610f0282612e2f565b6000806000610947868686612e76565b6110c78282612f62565b50600061108b8383612f62565b60408051600580825260c08201909252600091829190816020015b6110f7613c3d565b8152602001906001900390816110ef57905050905061112a60006006600060405180602001604052806000815250612746565b8160008151811061113d5761113d614874565b6020026020010181905250611164600160006040518060200160405280600081525061277d565b8160018151811061117757611177614874565b602002602001018190525061119e600260006040518060200160405280600081525061277d565b816002815181106111b1576111b1614874565b60200260200101819052506111d8600360006040518060200160405280600081525061277d565b816003815181106111eb576111eb614874565b6020026020010181905250611212600460006040518060200160405280600081525061277d565b8160048151811061122557611225614874565b602002602001018190525060006040518060600160405280600060070b8152602001856001600160a01b03168152602001627a120060070b815250905060006040518061012001604052806002805461127d9061488a565b80601f01602080910402602001604051908101604052809291908181526020018280546112a99061488a565b80156112f65780601f106112cb576101008083540402835291602001916112f6565b820191906000526020600020905b8154815290600101906020018083116112d957829003601f168201915b505050505081526020016003805461130d9061488a565b80601f01602080910402602001604051908101604052809291908181526020018280546113399061488a565b80156113865780601f1061135b57610100808354040283529160200191611386565b820191906000526020600020905b81548152906001019060200180831161136957829003601f168201915b50505050508152602001866001600160a01b03168152602001600480546113ac9061488a565b80601f01602080910402602001604051908101604052809291908181526020018280546113d89061488a565b80156114255780601f106113fa57610100808354040283529160200191611425565b820191906000526020600020905b81548152906001019060200180831161140857829003601f168201915b505050918352505060016020820152600554680100000000000000008104600790810b604084015260ff600160a01b830416151560608401526080830187905260a0909201859052919250600091829161149b91859181900b90700100000000000000000000000000000000900460030b612fb1565b915091506114a882612736565b9695505050505050565b60006114bf84848461301e565b90506114ca81612736565b50505050565b600061106d858585856130fe565b6000610eb483836129d6565b60006114bf84848461315f565b600060606000806101676001600160a01b031663618dc65e60e01b8787604051602401611525929190614913565b60408051601f198184030181529181526020820180516001600160e01b03166001600160e01b031990941693909317909252905161156391906148c5565b6000604051808303816000865af19150503d80600081146115a0576040519150601f19603f3d011682016040523d82523d6000602084013e6115a5565b606091505b50915091507f4af4780e06fe8cb9df64b0794fa6f01399af979175bb988e35e0e57e594567bc82826040516115db929190614935565b60405180910390a1816115ff57601560405180602001604052806000815250611613565b808060200190518101906116139190614995565b60039190910b97909650945050505050565b60008060006109478686866131b8565b60008060006116438461328e565b915060070b915061095882612736565b60408051600480825260a08201909252600091816020015b611673613c3d565b81526020019060019003908161166b5790505090506116e0600160036040516020016116cc907f02e35698a0273a8c6509ae4716c26a52eebca73e5de2c6677b189ef40f6fcd1f815260ed60f81b602082015260210190565b60405160208183030381529060405261277d565b816000815181106116f3576116f3614874565b6020026020010181905250611742600260036040516020016116cc907f02e35698a0273a8c6509ae4716c26a52eebca73e5de2c6677b189ef40f6fcd1f815260ed60f81b602082015260210190565b8160018151811061175557611755614874565b60200260200101819052506117a4600460036040516020016116cc907f02e35698a0273a8c6509ae4716c26a52eebca73e5de2c6677b189ef40f6fcd1f815260ed60f81b602082015260210190565b816002815181106117b7576117b7614874565b60200260200101819052506118056003806040516020016116cc907f02e35698a0273a8c6509ae4716c26a52eebca73e5de2c6677b189ef40f6fcd1f815260ed60f81b602082015260210190565b8160038151811061181857611818614874565b60200260200101819052506000610eb4838361337b565b604051630aed65f560e11b81526001600160a01b0380861660048301528085166024830152831660448201526064810182905260009030906315dacbea906084015b602060405180830381600087803b15801561188b57600080fd5b505af115801561189f573d6000803e3d6000fd5b505050506040513d601f19601f820116820180604052508101906118c391906149d9565b60070b905061107881612736565b6040805160608101825260008082526001600160a01b038416602083015261232892820192909252906114bf84836133a7565b6000806000806000611915866133d3565b9150915061192282612736565b805160208201516040909201519097919650945092505050565b60006114bf8484846134e4565b604080516001808252818301909252600091829190816020015b61196b613c3d565b81526020019060019003908161196357905050905061199d600080600060405180602001604052806000815250612746565b816000815181106119b0576119b0614874565b602002602001018190525060006040518060600160405280600060070b8152602001866001600160a01b03168152602001627a120060070b8152509050600060405180610120016040528060028054611a089061488a565b80601f0160208091040260200160405190810160405280929190818152602001828054611a349061488a565b8015611a815780601f10611a5657610100808354040283529160200191611a81565b820191906000526020600020905b815481529060010190602001808311611a6457829003601f168201915b5050505050815260200160038054611a989061488a565b80601f0160208091040260200160405190810160405280929190818152602001828054611ac49061488a565b8015611b115780601f10611ae657610100808354040283529160200191611b11565b820191906000526020600020905b815481529060010190602001808311611af457829003601f168201915b50505050508152602001876001600160a01b0316815260200160048054611b379061488a565b80601f0160208091040260200160405190810160405280929190818152602001828054611b639061488a565b8015611bb05780601f10611b8557610100808354040283529160200191611bb0565b820191906000526020600020905b815481529060010190602001808311611b9357829003601f168201915b505050918352505060016020820181905260055468010000000000000000900460070b6040808401919091526000606084018190526080840188905260a09093018690528051828152808201909152929350909190816020015b6040805160a081018252600080825260208083018290529282018190526060820181905260808201528252600019909201910181611c0a5750506040805160a081018252600181526001600160a01b0389811660208301526000928201839052606082018390528a166080820152825192935091839190611c8d57611c8d614874565b6020908102919091010152604080516001808252818301909252600091816020015b6040805160c08101825260008082526020808301829052928201819052606082018190526080820181905260a08201528252600019909201910181611caf5750506040805160c0810182526004815260056020820152600a91810191909152601e60608201526000608082018190526001600160a01b038b1660a083015282519293509091839190611d4357611d43614874565b60209081029190910101526005546000908190610e81908690600781900b90700100000000000000000000000000000000900460030b878761353a565b611d8a8282613668565b506000610eb483836136b7565b6000610eb48383613668565b6040516001600160a01b038581166024830152848116604483015283166064820152608481018290526000908190819061016790639b23d3d960e01b9060a401610fa1565b604051639b23d3d960e01b81526001600160a01b038086166004830152808516602483015283166044820152606481018290526000903090639b23d3d990608401611871565b600061108b8383613706565b600061108b8383613755565b60006114bf848484613781565b6000806000611e6285856137af565b91509150611e6f82612736565b949350505050565b600061106d8585858561388f565b60006114bf8484846138f0565b60408051600580825260c08201909252600091829190816020015b611eb5613c3d565b815260200190600190039081611ead579050509050611ee860006006600060405180602001604052806000815250612746565b81600081518110611efb57611efb614874565b6020026020010181905250611f22600160006040518060200160405280600081525061277d565b81600181518110611f3557611f35614874565b6020026020010181905250611f5c600260006040518060200160405280600081525061277d565b81600281518110611f6f57611f6f614874565b6020026020010181905250611f96600460006040518060200160405280600081525061277d565b81600381518110611fa957611fa9614874565b6020026020010181905250611fd0600360006040518060200160405280600081525061277d565b81600481518110611fe357611fe3614874565b602002602001018190525060006040518060600160405280600060070b8152602001856001600160a01b03168152602001627a120060070b815250905060006040518061012001604052806002805461203b9061488a565b80601f01602080910402602001604051908101604052809291908181526020018280546120679061488a565b80156120b45780601f10612089576101008083540402835291602001916120b4565b820191906000526020600020905b81548152906001019060200180831161209757829003601f168201915b50505050508152602001600380546120cb9061488a565b80601f01602080910402602001604051908101604052809291908181526020018280546120f79061488a565b80156121445780601f1061211957610100808354040283529160200191612144565b820191906000526020600020905b81548152906001019060200180831161212757829003601f168201915b50505050508152602001866001600160a01b031681526020016004805461216a9061488a565b80601f01602080910402602001604051908101604052809291908181526020018280546121969061488a565b80156121e35780601f106121b8576101008083540402835291602001916121e3565b820191906000526020600020905b8154815290600101906020018083116121c657829003601f168201915b50505091835250506001602082015260055468010000000000000000810460070b6040830152600160a01b900460ff16151560608201526080810185905260a001839052905060008061149b83613946565b600061108b8383612f62565b60006114bf848484613a2a565b6000610eb483836136b7565b6000610eb483836128da565b61226f81612e2f565b506000610f0282612d60565b6110c78282613706565b60408051600580825260c08201909252600091816020015b6122a5613c3d565b81526020019060019003908161229d5790505090506122d860006006600060405180602001604052806000815250612746565b816000815181106122eb576122eb614874565b6020026020010181905250612312600160006040518060200160405280600081525061277d565b8160018151811061232557612325614874565b602002602001018190525061234c600260006040518060200160405280600081525061277d565b8160028151811061235f5761235f614874565b6020026020010181905250612386600460006040518060200160405280600081525061277d565b8160038151811061239957612399614874565b60200260200101819052506123c0600360006040518060200160405280600081525061277d565b816004815181106123d3576123d3614874565b602002602001018190525060006040518060600160405280600060070b8152602001846001600160a01b0316815260200161232860070b815250905060006040518061012001604052806002805461242a9061488a565b80601f01602080910402602001604051908101604052809291908181526020018280546124569061488a565b80156124a35780601f10612478576101008083540402835291602001916124a3565b820191906000526020600020905b81548152906001019060200180831161248657829003601f168201915b50505050508152602001600380546124ba9061488a565b80601f01602080910402602001604051908101604052809291908181526020018280546124e69061488a565b80156125335780601f1061250857610100808354040283529160200191612533565b820191906000526020600020905b81548152906001019060200180831161251657829003601f168201915b50505050508152602001856001600160a01b03168152602001600480546125599061488a565b80601f01602080910402602001604051908101604052809291908181526020018280546125859061488a565b80156125d25780601f106125a7576101008083540402835291602001916125d2565b820191906000526020600020905b8154815290600101906020018083116125b557829003601f168201915b50505091835250506001602082015260055468010000000000000000810460070b6040830152600160a01b900460ff16151560608201526080810185905260a001839052905060006126248683613a81565b905061262f81612736565b505050505050565b604080516001600160a01b0385811660248301528481166044830152831660648083019190915282518083039091018152608490910182526020810180516001600160e01b03167f927da105000000000000000000000000000000000000000000000000000000001790529051600091829182918291610167916126ba916148c5565b6000604051808303816000865af19150503d80600081146126f7576040519150601f19603f3d011682016040523d82523d6000602084013e6126fc565b606091505b50915091508161270f5760156000612723565b8080602001905181019061272391906149f6565b60039190910b9890975095505050505050565b6016811461274357600080fd5b50565b61274e613c3d565b60405180604001604052806127638787613aad565b81526020016127728585613ae8565b905295945050505050565b612785613c3d565b604051806040016040528061279986613bfe565b81526020016127a88585613ae8565b9052949350505050565b600080848061010001516000015160070b60001480156127dc57506101008101516040015160070b155b156127f2576101008101516276a7006040909101525b6000806101676001600160a01b03163463abb54eb560e01b8a8a8a60405160240161281f93929190614c55565b60408051601f198184030181529181526020820180516001600160e01b03166001600160e01b031990941693909317909252905161285d91906148c5565b60006040518083038185875af1925050503d806000811461289a576040519150601f19603f3d011682016040523d82523d6000602084013e61289f565b606091505b5091509150816128b257601560006128c6565b808060200190518101906128c69190614d0c565b60039190910b999098509650505050505050565b6040516001600160a01b0383811660248301528216604482015260009081908190610167907f8f8d7f9900000000000000000000000000000000000000000000000000000000906064015b60408051601f198184030181529181526020820180516001600160e01b03166001600160e01b031990941693909317909252905161296391906148c5565b6000604051808303816000865af19150503d80600081146129a0576040519150601f19603f3d011682016040523d82523d6000602084013e6129a5565b606091505b5091509150816129b65760156129ca565b808060200190518101906129ca91906148f8565b60030b95945050505050565b6040516001600160a01b0383811660248301528216604482015260009081908190610167907faf99c6330000000000000000000000000000000000000000000000000000000090606401612925565b60008060606000806101676001600160a01b031663e0f4059a60e01b898989604051602401612a5693929190614d38565b60408051601f198184030181529181526020820180516001600160e01b03166001600160e01b0319909416939093179092529051612a9491906148c5565b6000604051808303816000865af19150503d8060008114612ad1576040519150601f19603f3d011682016040523d82523d6000602084013e612ad6565b606091505b509150915081612af9576040805160008082526020820190925260159190612b0d565b80806020019051810190612b0d9190614db5565b60039290920b9a90995090975095505050505050565b6040516001600160a01b038216602482015260009081908190610167907ff069f71200000000000000000000000000000000000000000000000000000000906044015b60408051601f198184030181529181526020820180516001600160e01b03166001600160e01b0319909416939093179092529051612ba491906148c5565b6000604051808303816000865af19150503d8060008114612be1576040519150601f19603f3d011682016040523d82523d6000602084013e612be6565b606091505b509150915081612bf7576015612c0b565b80806020019051810190612c0b91906148f8565b60030b949350505050565b6040805160a081018252600080825260208083018290526060838501819052808401526080830182905283516001600160a01b03871660248201526044808201879052855180830390910181526064909101855290810180516001600160e01b03167f3c4dd32e00000000000000000000000000000000000000000000000000000000179052925190928391829161016791612cb291906148c5565b6000604051808303816000865af19150503d8060008114612cef576040519150601f19603f3d011682016040523d82523d6000602084013e612cf4565b606091505b5091509150612d3f6040518060a0016040528060001515815260200160006001600160a01b03168152602001606081526020016060815260200160006001600160a01b031681525090565b82612d4c57601581612723565b818060200190518101906127239190614e80565b6040516001600160a01b038216602482015260009081908190610167907f3b3bff0f0000000000000000000000000000000000000000000000000000000090604401612b66565b60008060006101676001600160a01b0316632c4ba19160e01b88888888604051602401610fa19493929190614f94565b60008060006101676001600160a01b03166378b6391860e01b8686604051602401612925929190614fe7565b60008060006101676001600160a01b0316632e63879b60e01b8686604051602401612925929190614fe7565b6040516001600160a01b038216602482015260009081908190610167907f7c41ad2c0000000000000000000000000000000000000000000000000000000090604401612b66565b604080516001600160a01b0385811660248301528481166044830152831660648083019190915282518083039091018152608490910182526020810180516001600160e01b03167ff49f40db00000000000000000000000000000000000000000000000000000000179052905160009182918291829161016791612ef9916148c5565b6000604051808303816000865af19150503d8060008114612f36576040519150601f19603f3d011682016040523d82523d6000602084013e612f3b565b606091505b509150915081612f4e5760156000612723565b808060200190518101906127239190615009565b6040516001600160a01b0383811660248301528216604482015260009081908190610167907f49146bde0000000000000000000000000000000000000000000000000000000090606401612925565b600080848061010001516000015160070b6000148015612fdb57506101008101516040015160070b155b15612ff1576101008101516276a7006040909101525b6000806101676001600160a01b031634630fb65bf360e01b8a8a8a60405160240161281f93929190615035565b60008060006101676001600160a01b031663f7f38e2660e01b87878760405160240161304c93929190615064565b60408051601f198184030181529181526020820180516001600160e01b03166001600160e01b031990941693909317909252905161308a91906148c5565b6000604051808303816000865af19150503d80600081146130c7576040519150601f19603f3d011682016040523d82523d6000602084013e6130cc565b606091505b5091509150816130dd5760156130f1565b808060200190518101906130f191906148f8565b60030b9695505050505050565b6040516001600160a01b038581166024830152848116604483015283166064820152600782900b608482015260009081908190610167907feca36917000000000000000000000000000000000000000000000000000000009060a401610fa1565b6040516001600160a01b03848116602483015283166044820152600782900b606482015260009081908190610167907fefef57f9000000000000000000000000000000000000000000000000000000009060840161304c565b6000806000806101676001600160a01b031663d6910d0660e01b8888886040516024016131e793929190615099565b60408051601f198184030181529181526020820180516001600160e01b03166001600160e01b031990941693909317909252905161322591906148c5565b6000604051808303816000865af19150503d8060008114613262576040519150601f19603f3d011682016040523d82523d6000602084013e613267565b606091505b50915091508161327a5760156000612723565b8080602001905181019061272391906150c4565b604080516001600160a01b03831660248083019190915282518083039091018152604490910182526020810180516001600160e01b03167f19f3736100000000000000000000000000000000000000000000000000000000179052905160009182918291829161016791613301916148c5565b6000604051808303816000865af19150503d806000811461333e576040519150601f19603f3d011682016040523d82523d6000602084013e613343565b606091505b509150915081613356576015600061336a565b8080602001905181019061336a9190615009565b60039190910b969095509350505050565b60008060006101676001600160a01b0316636fc3cbaf60e01b86866040516024016129259291906150f0565b60008060006101676001600160a01b031663d27be6cd60e01b8686604051602401612925929190615112565b604080516060810182526000808252602080830182905282840182905283516001600160a01b038616602480830191909152855180830390910181526044909101855290810180516001600160e01b03167fd614cdb80000000000000000000000000000000000000000000000000000000017905292519092839182916101679161345e91906148c5565b6000604051808303816000865af19150503d806000811461349b576040519150601f19603f3d011682016040523d82523d6000602084013e6134a0565b606091505b5060408051606081018252600080825260208201819052918101919091529193509150826134d057601581611613565b818060200190518101906116139190615155565b6040516001600160a01b038481166024830152831660448201526064810182905260009081908190610167907f7336aaf0000000000000000000000000000000000000000000000000000000009060840161304c565b600080868061010001516000015160070b600014801561356457506101008101516040015160070b155b1561357a576101008101516276a7006040909101525b6000806101676001600160a01b031634632af0c59a60e01b8c8c8c8c8c6040516024016135ab9594939291906151d0565b60408051601f198184030181529181526020820180516001600160e01b03166001600160e01b03199094169390931790925290516135e991906148c5565b60006040518083038185875af1925050503d8060008114613626576040519150601f19603f3d011682016040523d82523d6000602084013e61362b565b606091505b50915091508161363e5760156000613652565b808060200190518101906136529190614d0c565b60039190910b9b909a5098505050505050505050565b6040516001600160a01b0383811660248301528216604482015260009081908190610167907f5b8f85840000000000000000000000000000000000000000000000000000000090606401612925565b6040516001600160a01b0383811660248301528216604482015260009081908190610167907f52f913870000000000000000000000000000000000000000000000000000000090606401612925565b6040516001600160a01b0383811660248301528216604482015260009081908190610167907f099794e80000000000000000000000000000000000000000000000000000000090606401612925565b60008060006101676001600160a01b0316630e71804f60e01b86866040516024016129259291906152ec565b60008060006101676001600160a01b03166382bba49360e01b87878760405160240161304c939291906153e9565b604080516001600160a01b0384166024820152604480820184905282518083039091018152606490910182526020810180516001600160e01b03167f098f236600000000000000000000000000000000000000000000000000000000179052905160009182918291829161016791613826916148c5565b6000604051808303816000865af19150503d8060008114613863576040519150601f19603f3d011682016040523d82523d6000602084013e613868565b606091505b50915091508161387b5760156000611613565b808060200190518101906116139190614d0c565b6040516001600160a01b038581166024830152848116604483015283166064820152600782900b608482015260009081908190610167907f5cfc9011000000000000000000000000000000000000000000000000000000009060a401610fa1565b6040516001600160a01b038481166024830152831660448201526064810182905260009081908190610167907fe1f21c67000000000000000000000000000000000000000000000000000000009060840161304c565b600080828061010001516000015160070b600014801561397057506101008101516040015160070b155b15613986576101008101516276a7006040909101525b6000806101676001600160a01b03163463ea83f29360e01b886040516024016139af919061541d565b60408051601f198184030181529181526020820180516001600160e01b03166001600160e01b03199094169390931790925290516139ed91906148c5565b60006040518083038185875af1925050503d8060008114613863576040519150601f19603f3d011682016040523d82523d6000602084013e613868565b6040516001600160a01b03848116602483015283166044820152811515606482015260009081908190610167907f367605ca000000000000000000000000000000000000000000000000000000009060840161304c565b60008060006101676001600160a01b0316637d305cfa60e01b8686604051602401612925929190615430565b6000613ad1836006811115613ac457613ac4615452565b600160ff9091161b821790565b9050610958826006811115613ac457613ac4615452565b613b2e6040518060a0016040528060001515815260200160006001600160a01b03168152602001606081526020016060815260200160006001600160a01b031681525090565b6000836004811115613b4257613b42615452565b1415613b515760018152610e97565b6001836004811115613b6557613b65615452565b1415613b81576000546001600160a01b03166020820152610e97565b6002836004811115613b9557613b95615452565b1415613ba75760408101829052610e97565b6003836004811115613bbb57613bbb615452565b1415613bcd5760608101829052610e97565b6004836004811115613be157613be1615452565b1415610e97576000546001600160a01b0316608082015292915050565b600060016000836006811115613c1657613c16615452565b6006811115613c2757613c27615452565b8152602001908152602001600020549050919050565b604051806040016040528060008152602001613c956040518060a0016040528060001515815260200160006001600160a01b03168152602001606081526020016060815260200160006001600160a01b031681525090565b905290565b6001600160a01b038116811461274357600080fd5b600080600060608486031215613cc457600080fd5b8335613ccf81613c9a565b92506020840135613cdf81613c9a565b91506040840135613cef81613c9a565b809150509250925092565b60008060408385031215613d0d57600080fd5b8235613d1881613c9a565b91506020830135613d2881613c9a565b809150509250929050565b8060070b811461274357600080fd5b634e487b7160e01b600052604160045260246000fd5b6040516060810167ffffffffffffffff81118282101715613d7b57613d7b613d42565b60405290565b6040516020810167ffffffffffffffff81118282101715613d7b57613d7b613d42565b6040516080810167ffffffffffffffff81118282101715613d7b57613d7b613d42565b60405160a0810167ffffffffffffffff81118282101715613d7b57613d7b613d42565b604051601f8201601f1916810167ffffffffffffffff81118282101715613e1357613e13613d42565b604052919050565b600067ffffffffffffffff821115613e3557613e35613d42565b5060051b60200190565b600067ffffffffffffffff821115613e5957613e59613d42565b50601f01601f191660200190565b600082601f830112613e7857600080fd5b8135613e8b613e8682613e3f565b613dea565b818152846020838601011115613ea057600080fd5b816020850160208301376000918101602001919091529392505050565b600080600060608486031215613ed257600080fd5b8335613edd81613c9a565b9250602084810135613eee81613d33565b9250604085013567ffffffffffffffff80821115613f0b57600080fd5b818701915087601f830112613f1f57600080fd5b8135613f2d613e8682613e1b565b81815260059190911b8301840190848101908a831115613f4c57600080fd5b8585015b83811015613f8457803585811115613f685760008081fd5b613f768d89838a0101613e67565b845250918601918601613f50565b508096505050505050509250925092565b600081518084526020808501945080840160005b83811015613fc857815160070b87529582019590820190600101613fa9565b509495945050505050565b8260070b8152604060208201526000611e6f6040830184613f95565b60006020828403121561400157600080fd5b813561095881613c9a565b6000806040838503121561401f57600080fd5b823561402a81613c9a565b946020939093013593505050565b60005b8381101561405357818101518382015260200161403b565b838111156114ca5750506000910152565b6000815180845261407c816020860160208601614038565b601f01601f19169290920160200192915050565b851515815260006001600160a01b03808716602084015260a060408401526140bb60a0840187614064565b83810360608501526140cd8187614064565b9250508084166080840152509695505050505050565b600080600080608085870312156140f957600080fd5b843561410481613c9a565b9350602085013561411481613c9a565b9250604085013561412481613c9a565b9396929550929360600135925050565b600082601f83011261414557600080fd5b81356020614155613e8683613e1b565b82815260059290921b8401810191818101908684111561417457600080fd5b8286015b8481101561419857803561418b81613c9a565b8352918301918301614178565b509695505050505050565b600082601f8301126141b457600080fd5b813560206141c4613e8683613e1b565b82815260059290921b840181019181810190868411156141e357600080fd5b8286015b848110156141985780356141fa81613d33565b83529183019183016141e7565b6000806000806080858703121561421d57600080fd5b843561422881613c9a565b9350602085013567ffffffffffffffff8082111561424557600080fd5b61425188838901614134565b9450604087013591508082111561426757600080fd5b61427388838901614134565b9350606087013591508082111561428957600080fd5b50614296878288016141a3565b91505092959194509250565b600080604083850312156142b557600080fd5b82356142c081613c9a565b9150602083013567ffffffffffffffff8111156142dc57600080fd5b6142e885828601614134565b9150509250929050565b60008060006060848603121561430757600080fd5b833561431281613c9a565b9250602084013561432281613c9a565b9150604084013567ffffffffffffffff81111561433e57600080fd5b61434a868287016141a3565b9150509250925092565b6000806000806080858703121561436a57600080fd5b843561437581613c9a565b9350602085013561438581613c9a565b9250604085013561439581613c9a565b915060608501356143a581613d33565b939692955090935050565b6000806000606084860312156143c557600080fd5b83356143d081613c9a565b925060208401356143e081613c9a565b91506040840135613cef81613d33565b6000806040838503121561440357600080fd5b823561440e81613c9a565b9150602083013567ffffffffffffffff81111561442a57600080fd5b6142e885828601613e67565b828152604060208201526000611e6f6040830184614064565b60008060006060848603121561446457600080fd5b833561446f81613c9a565b9250602084013561432281613d33565b60008060006060848603121561449457600080fd5b833561449f81613c9a565b925060208401356144af81613c9a565b929592945050506040919091013590565b801515811461274357600080fd5b600082601f8301126144df57600080fd5b813560206144ef613e8683613e1b565b8281526060928302850182019282820191908785111561450e57600080fd5b8387015b858110156145705781818a03121561452a5760008081fd5b614532613d58565b813561453d81613c9a565b81528186013561454c81613d33565b8187015260408281013561455f816144c0565b908201528452928401928101614512565b5090979650505050505050565b6000806040838503121561459057600080fd5b67ffffffffffffffff80843511156145a757600080fd5b602084358501860312156145ba57600080fd5b6145c2613d81565b81853586013511156145d357600080fd5b6145e386863587018035016144ce565b8152925060208401358110156145f857600080fd5b6020840135840185601f82011261460e57600080fd5b61461b613e868235613e1b565b81358082526020808301929160051b84010188101561463957600080fd5b602083015b6020843560051b8501018110156147b957848135111561465d57600080fd5b803584016060818b03601f1901121561467557600080fd5b61467d613d58565b61468a6020830135613c9a565b6020820135815286604083013511156146a257600080fd5b6146b58b602060408501358501016144ce565b602082015286606083013511156146cb57600080fd5b6060820135820191508a603f8301126146e357600080fd5b6146f3613e866020840135613e1b565b602083810135808352908201919060071b84016040018d81111561471657600080fd5b6040850194505b808510156147a3576080858f03121561473557600080fd5b61473d613da4565b6147478635613c9a565b853581526147586020870135613c9a565b6020860135602082015261476f6040870135613d33565b6040860135604082015261478660608701356144c0565b60608681013590820152835260809094019360209092019161471d565b506040830152508452506020928301920161463e565b50809450505050509250929050565b6000806000606084860312156147dd57600080fd5b83356147e881613c9a565b9250602084013567ffffffffffffffff8082111561480557600080fd5b61481187838801614134565b9350604086013591508082111561482757600080fd5b5061434a868287016141a3565b60008060006060848603121561484957600080fd5b833561485481613c9a565b9250602084013561486481613c9a565b91506040840135613cef816144c0565b634e487b7160e01b600052603260045260246000fd5b600181811c9082168061489e57607f821691505b602082108114156148bf57634e487b7160e01b600052602260045260246000fd5b50919050565b600082516148d7818460208701614038565b9190910192915050565b8051600381900b81146148f357600080fd5b919050565b60006020828403121561490a57600080fd5b610958826148e1565b6001600160a01b0383168152604060208201526000611e6f6040830184614064565b8215158152604060208201526000611e6f6040830184614064565b600082601f83011261496157600080fd5b815161496f613e8682613e3f565b81815284602083860101111561498457600080fd5b611e6f826020830160208701614038565b600080604083850312156149a857600080fd5b6149b1836148e1565b9150602083015167ffffffffffffffff8111156149cd57600080fd5b6142e885828601614950565b6000602082840312156149eb57600080fd5b815161095881613d33565b60008060408385031215614a0957600080fd5b614a12836148e1565b9150602083015190509250929050565b600081518084526020808501808196508360051b8101915082860160005b85811015614ad95782840389528151604081518652868201519150808787015281511515818701528682015160606001600160a01b03808316828a015283850151935060a09250608083818b0152614a9b60e08b0186614064565b928601518a8403603f1901858c0152929450614ab78584614064565b9501511660c09890980197909752505098850198935090840190600101614a40565b5091979650505050505050565b60006101608251818552614afc82860182614064565b91505060208301518482036020860152614b168282614064565b9150506040830151614b3360408601826001600160a01b03169052565b5060608301518482036060860152614b4b8282614064565b9150506080830151614b61608086018215159052565b5060a0830151614b7660a086018260070b9052565b5060c0830151614b8a60c086018215159052565b5060e083015184820360e0860152614ba28282614a22565b91505061010080840151614bde82870182805160070b82526001600160a01b036020820151166020830152604081015160070b60408301525050565b5090949350505050565b600081518084526020808501945080840160005b83811015613fc8578151805160070b8852838101516001600160a01b03908116858a01526040808301511515908a01526060808301511515908a0152608091820151169088015260a09096019590820190600101614bfc565b60006060808352614c6881840187614ae6565b602084820381860152614c7b8288614be8565b91506040858303818701528287518085528385019150838901945060005b81811015614cfc5785518051600790810b855286820151810b8786015285820151900b85850152878101516001600160a01b039081168986015260808083015115159086015260a09182015116908401529484019460c090920191600101614c99565b50909a9950505050505050505050565b60008060408385031215614d1f57600080fd5b614d28836148e1565b91506020830151613d2881613c9a565b6000606082016001600160a01b038616835260208560070b818501526060604085015281855180845260808601915060808160051b870101935082870160005b82811015614da657607f19888703018452614d94868351614064565b95509284019290840190600101614d78565b50939998505050505050505050565b600080600060608486031215614dca57600080fd5b614dd3846148e1565b9250602080850151614de481613d33565b604086015190935067ffffffffffffffff811115614e0157600080fd5b8501601f81018713614e1257600080fd5b8051614e20613e8682613e1b565b81815260059190911b82018301908381019089831115614e3f57600080fd5b928401925b82841015614e66578351614e5781613d33565b82529284019290840190614e44565b80955050505050509250925092565b80516148f381613c9a565b60008060408385031215614e9357600080fd5b614e9c836148e1565b9150602083015167ffffffffffffffff80821115614eb957600080fd5b9084019060a08287031215614ecd57600080fd5b614ed5613dc7565b8251614ee0816144c0565b81526020830151614ef081613c9a565b6020820152604083015182811115614f0757600080fd5b614f1388828601614950565b604083015250606083015182811115614f2b57600080fd5b614f3788828601614950565b606083015250614f4960808401614e75565b60808201528093505050509250929050565b600081518084526020808501945080840160005b83811015613fc85781516001600160a01b031687529582019590820190600101614f6f565b6001600160a01b0385168152608060208201526000614fb66080830186614f5b565b8281036040840152614fc88186614f5b565b90508281036060840152614fdc8185613f95565b979650505050505050565b6001600160a01b0383168152604060208201526000611e6f6040830184614f5b565b6000806040838503121561501c57600080fd5b615025836148e1565b91506020830151613d28816144c0565b6060815260006150486060830186614ae6565b90508360070b60208301528260030b6040830152949350505050565b60006001600160a01b038086168352808516602084015250606060408301526150906060830184613f95565b95945050505050565b6001600160a01b03841681528260070b60208201526060604082015260006150906060830184613f95565b600080604083850312156150d757600080fd5b6150e0836148e1565b91506020830151613d2881613d33565b6001600160a01b0383168152604060208201526000611e6f6040830184614a22565b6001600160a01b0383168152608081016109586020830184805160070b82526001600160a01b036020820151166020830152604081015160070b60408301525050565b600080828403608081121561516957600080fd5b615172846148e1565b92506060601f198201121561518657600080fd5b5061518f613d58565b602084015161519d81613d33565b815260408401516151ad81613c9a565b602082015260608401516151c081613d33565b6040820152919491935090915050565b600060a08083526151e381840189614ae6565b6020600789810b8287015260408960030b8188015260608785038189015261520b858b614be8565b94506080888603818a0152858a518088528688019150868c01975060005b818110156152835788518051880b845288810151880b8985015286810151880b8785015285810151880b86850152848101511515858501528a01516001600160a01b03168a8401529787019760c090920191600101615229565b50909f9e505050505050505050505050505050565b600081518084526020808501945080840160005b83811015613fc857815180516001600160a01b031688528381015160070b84890152604090810151151590880152606090960195908201906001016152ac565b60006040808352606085516020808487015261530a83870183615298565b9150858203818701528187518084528284019150828160051b850101838a0160005b838110156153d857601f1987840301855281516001600160a01b03808251168552878201518a898701526153628b870182615298565b928c0151868403878e01528051808552908a0193600092508a01905b808310156153c25784518051851683528b81015185168c8401528e81015160070b8f8401528d015115158d830152938a01936001929092019160809091019061537e565b509789019795505050918601915060010161532c565b50909b9a5050505050505050505050565b6001600160a01b038416815260606020820152600061540b6060830185614f5b565b82810360408401526114a88185613f95565b6020815260006109586020830184614ae6565b6001600160a01b0383168152604060208201526000611e6f6040830184614ae6565b634e487b7160e01b600052602160045260246000fdfea26469706673582212206c4bdf9e529db16b2eff28e25fdd34c454b9ab6e517afe3ac5d89d91bf0bcd4d64736f6c63430008090033",
  "linkReferences": {},
  "deployedLinkReferences": {}
}