{
  "_format": "hh-sol-artifact-1",
  "contractName": "EstimatePrecompileContract",
  "sourceName": "contracts/EstimatePrecompileContract.sol",
  "abi": [
    {
      "anonymous": false,
      "inputs": [
        {
          "indexed": false,
          "internalType": "bool",
          "name": "",
          "type": "bool"
        },
        {
          "indexed": false,
          "internalType": "bytes",
          "name": "",
          "type": "bytes"
        }
      ],
      "name": "CallResponseEvent",
      "type": "event"
    },
    {
      "inputs": [
        {
          "internalType": "address",
          "name": "token",
          "type": "address"
        },
        {
          "internalType": "address",
          "name": "owner",
          "type": "address"
        },
        {
          "internalType": "address",
          "name": "spender",
          "type": "address"
        }
      ],
      "name": "allowanceExternal",
      "outputs": [
        {
          "internalType": "int256",
          "name": "responseCode",
          "type": "int256"
        }
      ],
      "stateMutability": "nonpayable",
      "type": "function"
    },
    {
      "inputs": [
        {
          "internalType": "address",
          "name": "token",
          "type": "address"
        },
        {
          "internalType": "address",
          "name": "spender",
          "type": "address"
        },
        {
          "internalType": "uint256",
          "name": "amount",
          "type": "uint256"
        }
      ],
      "name": "approveExternal",
      "outputs": [
        {
          "internalType": "int256",
          "name": "responseCode",
          "type": "int256"
        }
      ],
      "stateMutability": "nonpayable",
      "type": "function"
    },
    {
      "inputs": [
        {
          "internalType": "address",
          "name": "token",
          "type": "address"
        },
        {
          "internalType": "address",
          "name": "approved",
          "type": "address"
        },
        {
          "internalType": "uint256",
          "name": "serialNumber",
          "type": "uint256"
        }
      ],
      "name": "approveNFTExternal",
      "outputs": [
        {
          "internalType": "int256",
          "name": "responseCode",
          "type": "int256"
        }
      ],
      "stateMutability": "nonpayable",
      "type": "function"
    },
    {
      "inputs": [
        {
          "internalType": "address",
          "name": "account",
          "type": "address"
        },
        {
          "internalType": "address",
          "name": "token",
          "type": "address"
        }
      ],
      "name": "associateTokenExternal",
      "outputs": [
        {
          "internalType": "int256",
          "name": "responseCode",
          "type": "int256"
        }
      ],
      "stateMutability": "nonpayable",
      "type": "function"
    },
    {
      "inputs": [
        {
          "internalType": "address",
          "name": "account",
          "type": "address"
        },
        {
          "internalType": "address[]",
          "name": "tokens",
          "type": "address[]"
        }
      ],
      "name": "associateTokensExternal",
      "outputs": [
        {
          "internalType": "int256",
          "name": "responseCode",
          "type": "int256"
        }
      ],
      "stateMutability": "nonpayable",
      "type": "function"
    },
    {
      "inputs": [
        {
          "internalType": "address",
          "name": "token",
          "type": "address"
        },
        {
          "internalType": "int64",
          "name": "amount",
          "type": "int64"
        },
        {
          "internalType": "int64[]",
          "name": "serialNumbers",
          "type": "int64[]"
        }
      ],
      "name": "burnTokenExternal",
      "outputs": [
        {
          "internalType": "int256",
          "name": "responseCode",
          "type": "int256"
        },
        {
          "internalType": "int64",
          "name": "newTotalSupply",
          "type": "int64"
        }
      ],
      "stateMutability": "nonpayable",
      "type": "function"
    },
    {
      "inputs": [
        {
          "internalType": "address",
          "name": "treasury",
          "type": "address"
        }
      ],
      "name": "createFungibleTokenPublic",
      "outputs": [],
      "stateMutability": "payable",
      "type": "function"
    },
    {
      "inputs": [
        {
          "internalType": "address",
          "name": "treasury",
          "type": "address"
        },
        {
          "internalType": "address",
          "name": "fixedFeeTokenAddress",
          "type": "address"
        }
      ],
      "name": "createFungibleTokenWithCustomFeesPublic",
      "outputs": [],
      "stateMutability": "payable",
      "type": "function"
    },
    {
      "inputs": [
        {
          "internalType": "address",
          "name": "treasury",
          "type": "address"
        }
      ],
      "name": "createNonFungibleTokenPublic",
      "outputs": [],
      "stateMutability": "payable",
      "type": "function"
    },
    {
      "inputs": [
        {
          "internalType": "address",
          "name": "treasury",
          "type": "address"
        },
        {
          "internalType": "address",
          "name": "fixedFeeTokenAddress",
          "type": "address"
        }
      ],
      "name": "createNonFungibleTokenWithCustomFeesPublic",
      "outputs": [],
      "stateMutability": "payable",
      "type": "function"
    },
    {
      "inputs": [
        {
          "components": [
            {
              "components": [
                {
                  "internalType": "address",
                  "name": "accountID",
                  "type": "address"
                },
                {
                  "internalType": "int64",
                  "name": "amount",
                  "type": "int64"
                },
                {
                  "internalType": "bool",
                  "name": "isApproval",
                  "type": "bool"
                }
              ],
              "internalType": "struct IHederaTokenService.AccountAmount[]",
              "name": "transfers",
              "type": "tuple[]"
            }
          ],
          "internalType": "struct IHederaTokenService.TransferList",
          "name": "transferList",
          "type": "tuple"
        },
        {
          "components": [
            {
              "internalType": "address",
              "name": "token",
              "type": "address"
            },
            {
              "components": [
                {
                  "internalType": "address",
                  "name": "accountID",
                  "type": "address"
                },
                {
                  "internalType": "int64",
                  "name": "amount",
                  "type": "int64"
                },
                {
                  "internalType": "bool",
                  "name": "isApproval",
                  "type": "bool"
                }
              ],
              "internalType": "struct IHederaTokenService.AccountAmount[]",
              "name": "transfers",
              "type": "tuple[]"
            },
            {
              "components": [
                {
                  "internalType": "address",
                  "name": "senderAccountID",
                  "type": "address"
                },
                {
                  "internalType": "address",
                  "name": "receiverAccountID",
                  "type": "address"
                },
                {
                  "internalType": "int64",
                  "name": "serialNumber",
                  "type": "int64"
                },
                {
                  "internalType": "bool",
                  "name": "isApproval",
                  "type": "bool"
                }
              ],
              "internalType": "struct IHederaTokenService.NftTransfer[]",
              "name": "nftTransfers",
              "type": "tuple[]"
            }
          ],
          "internalType": "struct IHederaTokenService.TokenTransferList[]",
          "name": "tokenTransfers",
          "type": "tuple[]"
        }
      ],
      "name": "cryptoTransferExternal",
      "outputs": [
        {
          "internalType": "int256",
          "name": "responseCode",
          "type": "int256"
        }
      ],
      "stateMutability": "nonpayable",
      "type": "function"
    },
    {
      "inputs": [
        {
          "internalType": "address",
          "name": "token",
          "type": "address"
        }
      ],
      "name": "deleteTokenExternal",
      "outputs": [
        {
          "internalType": "int256",
          "name": "responseCode",
          "type": "int256"
        }
      ],
      "stateMutability": "nonpayable",
      "type": "function"
    },
    {
      "inputs": [
        {
          "internalType": "address",
          "name": "token",
          "type": "address"
        }
      ],
      "name": "deleteTokenTwiceExternal",
      "outputs": [
        {
          "internalType": "int256",
          "name": "responseCode",
          "type": "int256"
        }
      ],
      "stateMutability": "nonpayable",
      "type": "function"
    },
    {
      "inputs": [
        {
          "internalType": "address",
          "name": "account",
          "type": "address"
        },
        {
          "internalType": "address",
          "name": "token",
          "type": "address"
        }
      ],
      "name": "dissociateAndAssociateTokenExternal",
      "outputs": [
        {
          "internalType": "int256",
          "name": "responseCode",
          "type": "int256"
        }
      ],
      "stateMutability": "nonpayable",
      "type": "function"
    },
    {
      "inputs": [
        {
          "internalType": "address",
          "name": "account",
          "type": "address"
        },
        {
          "internalType": "address",
          "name": "token",
          "type": "address"
        }
      ],
      "name": "dissociateTokenExternal",
      "outputs": [
        {
          "internalType": "int256",
          "name": "responseCode",
          "type": "int256"
        }
      ],
      "stateMutability": "nonpayable",
      "type": "function"
    },
    {
      "inputs": [
        {
          "internalType": "address",
          "name": "account",
          "type": "address"
        },
        {
          "internalType": "address[]",
          "name": "tokens",
          "type": "address[]"
        }
      ],
      "name": "dissociateTokensExternal",
      "outputs": [
        {
          "internalType": "int256",
          "name": "responseCode",
          "type": "int256"
        }
      ],
      "stateMutability": "nonpayable",
      "type": "function"
    },
    {
      "inputs": [
        {
          "internalType": "address",
          "name": "token",
          "type": "address"
        },
        {
          "internalType": "address",
          "name": "account",
          "type": "address"
        }
      ],
      "name": "freezeTokenExternal",
      "outputs": [
        {
          "internalType": "int64",
          "name": "responseCode",
          "type": "int64"
        }
      ],
      "stateMutability": "nonpayable",
      "type": "function"
    },
    {
      "inputs": [
        {
          "internalType": "address",
          "name": "token",
          "type": "address"
        },
        {
          "internalType": "address",
          "name": "account",
          "type": "address"
        }
      ],
      "name": "freezeTokenTwiceExternal",
      "outputs": [
        {
          "internalType": "int64",
          "name": "responseCode",
          "type": "int64"
        }
      ],
      "stateMutability": "nonpayable",
      "type": "function"
    },
    {
      "inputs": [
        {
          "internalType": "address",
          "name": "token",
          "type": "address"
        },
        {
          "internalType": "uint256",
          "name": "serialNumber",
          "type": "uint256"
        }
      ],
      "name": "getApprovedExternal",
      "outputs": [
        {
          "internalType": "int256",
          "name": "responseCode",
          "type": "int256"
        }
      ],
      "stateMutability": "nonpayable",
      "type": "function"
    },
    {
      "inputs": [
        {
          "internalType": "address",
          "name": "token",
          "type": "address"
        }
      ],
      "name": "getTokenExpiryInfoExternal",
      "outputs": [
        {
          "internalType": "int256",
          "name": "responseCode",
          "type": "int256"
        }
      ],
      "stateMutability": "nonpayable",
      "type": "function"
    },
    {
      "inputs": [
        {
          "internalType": "address",
          "name": "token",
          "type": "address"
        },
        {
          "internalType": "uint256",
          "name": "keyType",
          "type": "uint256"
        }
      ],
      "name": "getTokenKeyExternal",
      "outputs": [
        {
          "internalType": "int256",
          "name": "responseCode",
          "type": "int256"
        }
      ],
      "stateMutability": "nonpayable",
      "type": "function"
    },
    {
      "inputs": [
        {
          "internalType": "address",
          "name": "token",
          "type": "address"
        },
        {
          "internalType": "address",
          "name": "account",
          "type": "address"
        }
      ],
      "name": "grantTokenKycExternal",
      "outputs": [
        {
          "internalType": "int64",
          "name": "responseCode",
          "type": "int64"
        }
      ],
      "stateMutability": "nonpayable",
      "type": "function"
    },
    {
      "inputs": [
        {
          "internalType": "address",
          "name": "token",
          "type": "address"
        },
        {
          "internalType": "address",
          "name": "owner",
          "type": "address"
        },
        {
          "internalType": "address",
          "name": "operator",
          "type": "address"
        }
      ],
      "name": "isApprovedForAllExternal",
      "outputs": [
        {
          "internalType": "int256",
          "name": "responseCode",
          "type": "int256"
        }
      ],
      "stateMutability": "nonpayable",
      "type": "function"
    },
    {
      "inputs": [
        {
          "internalType": "address",
          "name": "token",
          "type": "address"
        }
      ],
      "name": "isTokenExternal",
      "outputs": [
        {
          "internalType": "int256",
          "name": "responseCode",
          "type": "int256"
        }
      ],
      "stateMutability": "nonpayable",
      "type": "function"
    },
    {
      "inputs": [
        {
          "internalType": "address",
          "name": "token",
          "type": "address"
        },
        {
          "internalType": "int64",
          "name": "amount",
          "type": "int64"
        },
        {
          "internalType": "bytes[]",
          "name": "metadata",
          "type": "bytes[]"
        }
      ],
      "name": "mintTokenExternal",
      "outputs": [
        {
          "internalType": "int256",
          "name": "responseCode",
          "type": "int256"
        },
        {
          "internalType": "int64",
          "name": "newTotalSupply",
          "type": "int64"
        },
        {
          "internalType": "int64[]",
          "name": "serialNumbers",
          "type": "int64[]"
        }
      ],
      "stateMutability": "nonpayable",
      "type": "function"
    },
    {
      "inputs": [
        {
          "internalType": "address",
          "name": "account",
          "type": "address"
        },
        {
          "internalType": "address",
          "name": "token",
          "type": "address"
        }
      ],
      "name": "nestedAssociateTokenExternal",
      "outputs": [
        {
          "internalType": "int256",
          "name": "responseCode",
          "type": "int256"
        }
      ],
      "stateMutability": "nonpayable",
      "type": "function"
    },
    {
      "inputs": [
        {
          "internalType": "address",
          "name": "token",
          "type": "address"
        },
        {
          "internalType": "address",
          "name": "account",
          "type": "address"
        }
      ],
      "name": "nestedFreezeUnfreezeTokenExternal",
      "outputs": [
        {
          "internalType": "int64",
          "name": "responseCode",
          "type": "int64"
        }
      ],
      "stateMutability": "nonpayable",
      "type": "function"
    },
    {
      "inputs": [
        {
          "internalType": "address",
          "name": "token",
          "type": "address"
        },
        {
          "internalType": "address",
          "name": "account",
          "type": "address"
        }
      ],
      "name": "nestedGrantAndRevokeTokenKYCExternal",
      "outputs": [
        {
          "internalType": "int64",
          "name": "responseCode",
          "type": "int64"
        }
      ],
      "stateMutability": "nonpayable",
      "type": "function"
    },
    {
      "inputs": [
        {
          "internalType": "address",
          "name": "token",
          "type": "address"
        }
      ],
      "name": "nestedPauseUnpauseTokenExternal",
      "outputs": [
        {
          "internalType": "int256",
          "name": "responseCode",
          "type": "int256"
        }
      ],
      "stateMutability": "nonpayable",
      "type": "function"
    },
    {
      "inputs": [
        {
          "internalType": "address",
          "name": "token",
          "type": "address"
        }
      ],
      "name": "pauseTokenExternal",
      "outputs": [
        {
          "internalType": "int256",
          "name": "responseCode",
          "type": "int256"
        }
      ],
      "stateMutability": "nonpayable",
      "type": "function"
    },
    {
      "inputs": [
        {
          "internalType": "address",
          "name": "token",
          "type": "address"
        },
        {
          "internalType": "bytes",
          "name": "encodedFunctionSelector",
          "type": "bytes"
        }
      ],
      "name": "redirectForToken",
      "outputs": [],
      "stateMutability": "nonpayable",
      "type": "function"
    },
    {
      "inputs": [
        {
          "internalType": "address",
          "name": "token",
          "type": "address"
        },
        {
          "internalType": "address",
          "name": "account",
          "type": "address"
        }
      ],
      "name": "revokeTokenKycExternal",
      "outputs": [
        {
          "internalType": "int64",
          "name": "responseCode",
          "type": "int64"
        }
      ],
      "stateMutability": "nonpayable",
      "type": "function"
    },
    {
      "inputs": [
        {
          "internalType": "address",
          "name": "token",
          "type": "address"
        },
        {
          "internalType": "address",
          "name": "account",
          "type": "address"
        },
        {
          "internalType": "bool",
          "name": "approved",
          "type": "bool"
        }
      ],
      "name": "setApprovalForAllExternal",
      "outputs": [
        {
          "internalType": "int256",
          "name": "responseCode",
          "type": "int256"
        }
      ],
      "stateMutability": "nonpayable",
      "type": "function"
    },
    {
      "inputs": [
        {
          "internalType": "address",
          "name": "a",
          "type": "address"
        }
      ],
      "name": "toBytes",
      "outputs": [
        {
          "internalType": "bytes",
          "name": "b",
          "type": "bytes"
        }
      ],
      "stateMutability": "pure",
      "type": "function"
    },
    {
      "inputs": [
        {
          "internalType": "bytes",
          "name": "key",
          "type": "bytes"
        }
      ],
      "name": "toBytes2",
      "outputs": [
        {
          "internalType": "bytes",
          "name": "",
          "type": "bytes"
        }
      ],
      "stateMutability": "pure",
      "type": "function"
    },
    {
      "inputs": [
        {
          "internalType": "address",
          "name": "token",
          "type": "address"
        },
        {
          "internalType": "address",
          "name": "from",
          "type": "address"
        },
        {
          "internalType": "address",
          "name": "to",
          "type": "address"
        },
        {
          "internalType": "uint256",
          "name": "amount",
          "type": "uint256"
        }
      ],
      "name": "transferFrom",
      "outputs": [
        {
          "internalType": "int64",
          "name": "responseCode",
          "type": "int64"
        }
      ],
      "stateMutability": "nonpayable",
      "type": "function"
    },
    {
      "inputs": [
        {
          "internalType": "address",
          "name": "token",
          "type": "address"
        },
        {
          "internalType": "address",
          "name": "from",
          "type": "address"
        },
        {
          "internalType": "address",
          "name": "to",
          "type": "address"
        },
        {
          "internalType": "uint256",
          "name": "amount",
          "type": "uint256"
        }
      ],
      "name": "transferFromExternal",
      "outputs": [
        {
          "internalType": "int256",
          "name": "responseCode",
          "type": "int256"
        }
      ],
      "stateMutability": "nonpayable",
      "type": "function"
    },
    {
      "inputs": [
        {
          "internalType": "address",
          "name": "token",
          "type": "address"
        },
        {
          "internalType": "address",
          "name": "from",
          "type": "address"
        },
        {
          "internalType": "address",
          "name": "to",
          "type": "address"
        },
        {
          "internalType": "uint256",
          "name": "serialNumber",
          "type": "uint256"
        }
      ],
      "name": "transferFromNFT",
      "outputs": [
        {
          "internalType": "int64",
          "name": "responseCode",
          "type": "int64"
        }
      ],
      "stateMutability": "nonpayable",
      "type": "function"
    },
    {
      "inputs": [
        {
          "internalType": "address",
          "name": "token",
          "type": "address"
        },
        {
          "internalType": "address",
          "name": "from",
          "type": "address"
        },
        {
          "internalType": "address",
          "name": "to",
          "type": "address"
        },
        {
          "internalType": "uint256",
          "name": "serialNumber",
          "type": "uint256"
        }
      ],
      "name": "transferFromNFTExternal",
      "outputs": [
        {
          "internalType": "int256",
          "name": "responseCode",
          "type": "int256"
        }
      ],
      "stateMutability": "nonpayable",
      "type": "function"
    },
    {
      "inputs": [
        {
          "internalType": "address",
          "name": "token",
          "type": "address"
        },
        {
          "internalType": "address",
          "name": "sender",
          "type": "address"
        },
        {
          "internalType": "address",
          "name": "receiver",
          "type": "address"
        },
        {
          "internalType": "int64",
          "name": "serialNumber",
          "type": "int64"
        }
      ],
      "name": "transferNFTExternal",
      "outputs": [
        {
          "internalType": "int256",
          "name": "responseCode",
          "type": "int256"
        }
      ],
      "stateMutability": "nonpayable",
      "type": "function"
    },
    {
      "inputs": [
        {
          "internalType": "address",
          "name": "token",
          "type": "address"
        },
        {
          "internalType": "address[]",
          "name": "sender",
          "type": "address[]"
        },
        {
          "internalType": "address[]",
          "name": "receiver",
          "type": "address[]"
        },
        {
          "internalType": "int64[]",
          "name": "serialNumber",
          "type": "int64[]"
        }
      ],
      "name": "transferNFTsExternal",
      "outputs": [
        {
          "internalType": "int256",
          "name": "responseCode",
          "type": "int256"
        }
      ],
      "stateMutability": "nonpayable",
      "type": "function"
    },
    {
      "inputs": [
        {
          "internalType": "address",
          "name": "token",
          "type": "address"
        },
        {
          "internalType": "address",
          "name": "sender",
          "type": "address"
        },
        {
          "internalType": "address",
          "name": "receiver",
          "type": "address"
        },
        {
          "internalType": "int64",
          "name": "amount",
          "type": "int64"
        }
      ],
      "name": "transferTokenExternal",
      "outputs": [
        {
          "internalType": "int256",
          "name": "responseCode",
          "type": "int256"
        }
      ],
      "stateMutability": "nonpayable",
      "type": "function"
    },
    {
      "inputs": [
        {
          "internalType": "address",
          "name": "token",
          "type": "address"
        },
        {
          "internalType": "address[]",
          "name": "accountIds",
          "type": "address[]"
        },
        {
          "internalType": "int64[]",
          "name": "amounts",
          "type": "int64[]"
        }
      ],
      "name": "transferTokensExternal",
      "outputs": [
        {
          "internalType": "int256",
          "name": "responseCode",
          "type": "int256"
        }
      ],
      "stateMutability": "nonpayable",
      "type": "function"
    },
    {
      "inputs": [
        {
          "internalType": "address",
          "name": "token",
          "type": "address"
        },
        {
          "internalType": "address",
          "name": "account",
          "type": "address"
        }
      ],
      "name": "unfreezeTokenExternal",
      "outputs": [
        {
          "internalType": "int64",
          "name": "responseCode",
          "type": "int64"
        }
      ],
      "stateMutability": "nonpayable",
      "type": "function"
    },
    {
      "inputs": [
        {
          "internalType": "address",
          "name": "token",
          "type": "address"
        }
      ],
      "name": "unpauseTokenExternal",
      "outputs": [
        {
          "internalType": "int256",
          "name": "responseCode",
          "type": "int256"
        }
      ],
      "stateMutability": "nonpayable",
      "type": "function"
    },
    {
      "inputs": [
        {
          "internalType": "address",
          "name": "token",
          "type": "address"
        },
        {
          "internalType": "address",
          "name": "treasury",
          "type": "address"
        }
      ],
      "name": "updateTokenExpiryInfoExternal",
      "outputs": [
        {
          "internalType": "int256",
          "name": "responseCode",
          "type": "int256"
        }
      ],
      "stateMutability": "nonpayable",
      "type": "function"
    },
    {
      "inputs": [
        {
          "internalType": "address",
          "name": "token",
          "type": "address"
        },
        {
          "internalType": "address",
          "name": "treasury",
          "type": "address"
        }
      ],
      "name": "updateTokenInfoExternal",
      "outputs": [
        {
          "internalType": "int256",
          "name": "responseCode",
          "type": "int256"
        }
      ],
      "stateMutability": "nonpayable",
      "type": "function"
    },
    {
      "inputs": [
        {
          "internalType": "address",
          "name": "token",
          "type": "address"
        }
      ],
      "name": "updateTokenKeysExternal",
      "outputs": [
        {
          "internalType": "int256",
          "name": "responseCode",
          "type": "int256"
        }
      ],
      "stateMutability": "nonpayable",
      "type": "function"
    },
    {
      "inputs": [
        {
          "internalType": "address",
          "name": "token",
          "type": "address"
        },
        {
          "internalType": "address",
          "name": "account",
          "type": "address"
        },
        {
          "internalType": "int64",
          "name": "amount",
          "type": "int64"
        }
      ],
      "name": "wipeTokenAccountExternal",
      "outputs": [
        {
          "internalType": "int256",
          "name": "responseCode",
          "type": "int256"
        }
      ],
      "stateMutability": "nonpayable",
      "type": "function"
    },
    {
      "inputs": [
        {
          "internalType": "address",
          "name": "token",
          "type": "address"
        },
        {
          "internalType": "address",
          "name": "account",
          "type": "address"
        },
        {
          "internalType": "int64[]",
          "name": "serialNumbers",
          "type": "int64[]"
        }
      ],
      "name": "wipeTokenAccountNFTExternal",
      "outputs": [
        {
          "internalType": "int256",
          "name": "responseCode",
          "type": "int256"
        }
      ],
      "stateMutability": "nonpayable",
      "type": "function"
    }
  ],
  "bytecode": "0x60c06040526009608090815268746f6b656e4e616d6560b81b60a0526002906200002a908262000263565b5060408051808201909152600b81526a1d1bdad95b94de5b589bdb60aa1b60208201526003906200005c908262000263565b50604080518082019091526004808252636d656d6f60e01b60208301529062000086908262000263565b50600580546001600160a81b031916700800000000000003e800000000000003e8179055348015620000b6575f80fd5b50600160208181527fa6eef7e35abe7026729641147f7915573c7e97b47efa546f5f6e3230263bcb499190915560027fcc69885fda6bcc1a4ace058b4a62bf5e179ea78fd58a1ccd71c22cc9b688792f5560047fd9d16d34ffb15ba3a3d852f0d403e2ce1d691fb54de27ac87cd2f993f3ec330f5560087f7dfe757ecd65cbd7922a9c0161e935dd7fdbcc0e999689c7d31633896b1fc60b5560107fedc95719e9a3b28dd8e80877cb5880a9be7de1a13fc8b05e7999683b6b567643557fe2689cd4a84e23ad2f564004f1c9013e9589d260bde6380aba3ca7e09e4df40c5560065f5260407f8f331abe73332f95a25873e8b430885974c0409691f89d643119a11623a7924a556200032b565b634e487b7160e01b5f52604160045260245ffd5b600181811c90821680620001ec57607f821691505b6020821081036200020b57634e487b7160e01b5f52602260045260245ffd5b50919050565b601f8211156200025e575f81815260208120601f850160051c81016020861015620002395750805b601f850160051c820191505b818110156200025a5782815560010162000245565b5050505b505050565b81516001600160401b038111156200027f576200027f620001c3565b6200029781620002908454620001d7565b8462000211565b602080601f831160018114620002cd575f8415620002b55750858301515b5f19600386901b1c1916600185901b1785556200025a565b5f85815260208120601f198616915b82811015620002fd57888601518255948401946001909101908401620002dc565b50858210156200031b57878501515f19600388901b60f8161c191681555b5050505050600190811b01905550565b61566180620003395f395ff3fe608060405260043610610319575f3560e01c8063714c42c01161019c578063aa835c63116100e7578063e03fc51411610092578063ec4ca6391161006d578063ec4ca63914610909578063ed129c3f14610928578063f193826614610947578063fb2b6cef14610966575f80fd5b8063e03fc514146108ac578063e31b839c146108cb578063e95a71e5146108ea575f80fd5b8063ceda64c4116100c2578063ceda64c41461085b578063d85f74c11461087a578063d91cfc951461088d575f80fd5b8063aa835c63146107fe578063b97beda91461081d578063bafa6a911461083c575f80fd5b8063901fe3d0116101475780639bc4d354116101225780639bc4d354146107a15780639c219247146107c0578063a6218810146107df575f80fd5b8063901fe3d0146107445780639333700b146107635780639b23d3d914610782575f80fd5b80637cea29a3116101775780637cea29a3146106f357806384d232f5146107125780638ba74da014610731575f80fd5b8063714c42c01461069657806375a85472146106b55780637adc26b8146106d4575f80fd5b80632fc358f7116102675780634fd6ce0a116102125780635ac4fef8116101ed5780635ac4fef814610602578063618dc65e14610621578063632da116146106405780636f3e867814610677575f80fd5b80634fd6ce0a1461057557806352205b3314610594578063593b79fe146105b3575f80fd5b8063437dffd511610242578063437dffd5146105245780634b5c6687146105435780634c09c80414610556575f80fd5b80632fc358f7146104c757806330a8f293146104e65780633150810714610505575f80fd5b806315dacbea116102c75780631ba978fc116102a25780631ba978fc1461045f5780632390c1fa1461047e578063268e70751461049d575f80fd5b806315dacbea14610402578063165aae661461042157806317f96caa14610440575f80fd5b80630c0295d4116102f75780630c0295d4146103965780630c0a198c146103c4578063144b06ff146103e3575f80fd5b80630435d8401461031d5780630488c9391461034f57806306a1a5d314610364575b5f80fd5b348015610328575f80fd5b5061033c610337366004613f85565b610985565b6040519081526020015b60405180910390f35b61036261035d366004613fcd565b6109a7565b005b34801561036f575f80fd5b5061038361037e366004613fcd565b610ec2565b60405160079190910b8152602001610346565b3480156103a1575f80fd5b506103b56103b0366004614185565b610ef0565b60405161034693929190614292565b3480156103cf575f80fd5b5061033c6103de3660046142bc565b610f1b565b3480156103ee575f80fd5b5061033c6103fd3660046142d7565b610f38565b34801561040d575f80fd5b5061038361041c366004614301565b610f55565b34801561042c575f80fd5b5061033c61043b3660046142bc565b611044565b34801561044b575f80fd5b5061038361045a366004613fcd565b61104e565b34801561046a575f80fd5b5061033c61047936600461441c565b611064565b348015610489575f80fd5b5061033c6104983660046144b1565b6110d0565b3480156104a8575f80fd5b506104ba6104b73660046144fe565b90565b604051610346919061457d565b3480156104d2575f80fd5b5061033c6104e13660046144b1565b61112d565b3480156104f1575f80fd5b5061033c6105003660046142bc565b61118a565b348015610510575f80fd5b5061033c61051f366004613f85565b611194565b34801561052f575f80fd5b5061033c61053e366004613fcd565b6111a0565b6103626105513660046142bc565b611208565b348015610561575f80fd5b5061033c61057036600461458f565b6115ce565b348015610580575f80fd5b5061033c61058f3660046145ed565b6115e8565b34801561059f575f80fd5b506103836105ae366004613fcd565b611647565b3480156105be575f80fd5b506104ba6105cd3660046142bc565b604080516001600160a01b03929092167414000000000000000000000000000000000000000018601483015260348201905290565b34801561060d575f80fd5b5061033c61061c366004614646565b611652565b34801561062c575f80fd5b5061036261063b366004614683565b61165e565b34801561064b575f80fd5b5061065f61065a3660046146c6565b611747565b6040805192835260079190910b602083015201610346565b348015610682575f80fd5b5061033c6106913660046142bc565b61176d565b3480156106a1575f80fd5b5061033c6106b03660046142bc565b611789565b3480156106c0575f80fd5b5061033c6106cf366004614301565b61197b565b3480156106df575f80fd5b5061033c6106ee366004613fcd565b611a50565b3480156106fe575f80fd5b5061033c61070d3660046142bc565b611a97565b34801561071d575f80fd5b5061033c61072c3660046146f3565b611ab0565b61036261073f366004613fcd565b611b0e565b34801561074f575f80fd5b5061038361075e366004613fcd565b611f2b565b34801561076e575f80fd5b5061038361077d366004613fcd565b611f41565b34801561078d575f80fd5b5061038361079c366004614301565b611f4c565b3480156107ac575f80fd5b5061033c6107bb366004614301565b611f90565b3480156107cb575f80fd5b5061033c6107da366004613fcd565b612065565b3480156107ea575f80fd5b5061033c6107f93660046147e9565b612070565b348015610809575f80fd5b5061033c610818366004614a25565b6120cd565b348015610828575f80fd5b5061033c6108373660046142d7565b61212b565b348015610847575f80fd5b5061033c6108563660046145ed565b612145565b348015610866575f80fd5b5061033c6108753660046146f3565b612152565b6103626108883660046142bc565b6121b0565b348015610898575f80fd5b5061033c6108a7366004613fcd565b612539565b3480156108b7575f80fd5b5061033c6108c63660046142bc565b612544565b3480156108d6575f80fd5b5061033c6108e5366004614a8c565b612558565b3480156108f5575f80fd5b50610383610904366004613fcd565b612564565b348015610914575f80fd5b50610383610923366004613fcd565b61256f565b348015610933575f80fd5b5061033c6109423660046142bc565b61257a565b348015610952575f80fd5b5061033c610961366004613fcd565b61258e565b348015610971575f80fd5b5061033c610980366004613fcd565b6125f6565b5f610991848484612998565b509050601681146109a0575f80fd5b9392505050565b60408051600580825260c082019092525f91816020015b6109c6613f15565b8152602001906001900390816109be5790505090506109f65f60065f60405180602001604052805f815250612a91565b815f81518110610a0857610a08614ac9565b6020026020010181905250610a2d60015f60405180602001604052805f815250612ac8565b81600181518110610a4057610a40614ac9565b6020026020010181905250610a6560025f60405180602001604052805f815250612ac8565b81600281518110610a7857610a78614ac9565b6020026020010181905250610a9d60045f60405180602001604052805f815250612ac8565b81600381518110610ab057610ab0614ac9565b6020026020010181905250610ad560035f60405180602001604052805f815250612ac8565b81600481518110610ae857610ae8614ac9565b60200260200101819052505f60405180606001604052805f60070b8152602001856001600160a01b03168152602001627a120060070b81525090505f60405180610120016040528060028054610b3d90614add565b80601f0160208091040260200160405190810160405280929190818152602001828054610b6990614add565b8015610bb45780601f10610b8b57610100808354040283529160200191610bb4565b820191905f5260205f20905b815481529060010190602001808311610b9757829003601f168201915b5050505050815260200160038054610bcb90614add565b80601f0160208091040260200160405190810160405280929190818152602001828054610bf790614add565b8015610c425780601f10610c1957610100808354040283529160200191610c42565b820191905f5260205f20905b815481529060010190602001808311610c2557829003601f168201915b50505050508152602001866001600160a01b0316815260200160048054610c6890614add565b80601f0160208091040260200160405190810160405280929190818152602001828054610c9490614add565b8015610cdf5780601f10610cb657610100808354040283529160200191610cdf565b820191905f5260205f20905b815481529060010190602001808311610cc257829003601f168201915b505050918352505060016020820181905260055468010000000000000000810460070b6040840152600160a01b900460ff16151560608301526080820186905260a09091018490529091505f90604051908082528060200260200182016040528015610d8357816020015b6040805160a0810182525f808252602080830182905292820181905260608201819052608082015282525f19909201910181610d4a5790505b506040805160a081018252600181526001600160a01b0380891660208301525f9282018390526060820183905289166080820152825192935091839190610dcc57610dcc614ac9565b60209081029190910101526040805160018082528183019092525f91816020015b6040805160c0810182525f8082526020808301829052928201819052606082018190526080820181905260a082015282525f19909201910181610ded5790505090506040518060c00160405280600460070b8152602001600560070b8152602001600a60070b8152602001876001600160a01b031681526020015f15158152602001886001600160a01b0316815250815f81518110610e8e57610e8e614ac9565b60200260200101819052505f80610ea6858585612afd565b909250905060168214610eb7575f80fd5b505050505050505050565b5f610ecd8383612c1d565b50610ed88383612d14565b9050600781900b601614610eea575f80fd5b92915050565b5f806060610eff868686612d62565b9194509250905060168314610f12575f80fd5b93509350939050565b5f610f2582612e59565b905060168114610f33575f80fd5b919050565b5f610f438383612f47565b5060070b905060168114610eea575f80fd5b6040516001600160a01b038581166024830152848116604483015283166064820152608481018290525f908190819061016790630aed65f560e11b9060a4015b60408051601f198184030181529181526020820180516001600160e01b03166001600160e01b0319909416939093179092529051610fd39190614b0f565b5f604051808303815f865af19150503d805f811461100c576040519150601f19603f3d011682016040523d82523d5f602084013e611011565b606091505b509150915081611022576015611036565b808060200190518101906110369190614b3b565b60030b979650505050505050565b5f610f2582613089565b5f61105983836130cf565b50610ed883836130cf565b5f6110718585858561311d565b9050601681146110c85760405162461bcd60e51b815260206004820152601360248201527f4e4654207472616e73666572206661696c65640000000000000000000000000060448201526064015b60405180910390fd5b949350505050565b5f6110db838361314b565b905060168114610eea5760405162461bcd60e51b815260206004820152601a60248201527f546f6b656e20646973736f63696174696f6e206661696c65642100000000000060448201526064016110bf565b5f6111388383613175565b905060168114610eea5760405162461bcd60e51b815260206004820152601760248201527f546f6b656e206173736f6369617465206661696c65642100000000000000000060448201526064016110bf565b5f610f258261319f565b5f6109918484846131e5565b5f6111ab83836132cb565b506111b683836132cb565b905060168114610eea5760405162461bcd60e51b815260206004820152601960248201527f546f6b656e206173736f63696174696f6e206661696c6564210000000000000060448201526064016110bf565b60408051600580825260c082019092525f91816020015b611227613f15565b81526020019060019003908161121f5790505090506112575f60065f60405180602001604052805f815250612a91565b815f8151811061126957611269614ac9565b602002602001018190525061128e60015f60405180602001604052805f815250612ac8565b816001815181106112a1576112a1614ac9565b60200260200101819052506112c660025f60405180602001604052805f815250612ac8565b816002815181106112d9576112d9614ac9565b60200260200101819052506112fe60035f60405180602001604052805f815250612ac8565b8160038151811061131157611311614ac9565b602002602001018190525061133660045f60405180602001604052805f815250612ac8565b8160048151811061134957611349614ac9565b60200260200101819052505f60405180606001604052805f60070b8152602001846001600160a01b03168152602001627a120060070b81525090505f6040518061012001604052806002805461139e90614add565b80601f01602080910402602001604051908101604052809291908181526020018280546113ca90614add565b80156114155780601f106113ec57610100808354040283529160200191611415565b820191905f5260205f20905b8154815290600101906020018083116113f857829003601f168201915b505050505081526020016003805461142c90614add565b80601f016020809104026020016040519081016040528092919081815260200182805461145890614add565b80156114a35780601f1061147a576101008083540402835291602001916114a3565b820191905f5260205f20905b81548152906001019060200180831161148657829003601f168201915b50505050508152602001856001600160a01b03168152602001600480546114c990614add565b80601f01602080910402602001604051908101604052809291908181526020018280546114f590614add565b80156115405780601f1061151757610100808354040283529160200191611540565b820191905f5260205f20905b81548152906001019060200180831161152357829003601f168201915b505050918352505060016020820152600554680100000000000000008104600790810b604084015260ff600160a01b830416151560608401526080830187905260a09092018590529192505f9182916115b591859181900b90700100000000000000000000000000000000900460030b613319565b9092509050601682146115c6575f80fd5b505050505050565b5f6115da848484613382565b9050601681146109a0575f80fd5b5f6115f58585858561345c565b9050601681146110c85760405162461bcd60e51b815260206004820152601560248201527f546f6b656e207472616e73666572206661696c6564000000000000000000000060448201526064016110bf565b5f610ed88383612d14565b5f6115da8484846134bc565b5f806101676001600160a01b031663618dc65e60e01b8585604051602401611687929190614b54565b60408051601f198184030181529181526020820180516001600160e01b03166001600160e01b03199094169390931790925290516116c59190614b0f565b5f604051808303815f865af19150503d805f81146116fe576040519150601f19603f3d011682016040523d82523d5f602084013e611703565b606091505b50915091507f4af4780e06fe8cb9df64b0794fa6f01399af979175bb988e35e0e57e594567bc8282604051611739929190614b75565b60405180910390a150505050565b5f80611754858585613514565b909250905060168214611765575f80fd5b935093915050565b5f611777826135e3565b5060070b905060168114610f33575f80fd5b60408051600480825260a082019092525f91829190816020015b6117ab613f15565b8152602001906001900390816117a357905050905061181860016003604051602001611804907f02e35698a0273a8c6509ae4716c26a52eebca73e5de2c6677b189ef40f6fcd1f815260ed60f81b602082015260210190565b604051602081830303815290604052612ac8565b815f8151811061182a5761182a614ac9565b602002602001018190525061187960026003604051602001611804907f02e35698a0273a8c6509ae4716c26a52eebca73e5de2c6677b189ef40f6fcd1f815260ed60f81b602082015260210190565b8160018151811061188c5761188c614ac9565b60200260200101819052506118db60046003604051602001611804907f02e35698a0273a8c6509ae4716c26a52eebca73e5de2c6677b189ef40f6fcd1f815260ed60f81b602082015260210190565b816002815181106118ee576118ee614ac9565b602002602001018190525061193c600380604051602001611804907f02e35698a0273a8c6509ae4716c26a52eebca73e5de2c6677b189ef40f6fcd1f815260ed60f81b602082015260210190565b8160038151811061194f5761194f614ac9565b602002602001018190525061196483826136ca565b60070b915060168214611975575f80fd5b50919050565b604051630aed65f560e11b81526001600160a01b038086166004830152808516602483015283166044820152606481018290525f9030906315dacbea906084016020604051808303815f875af11580156119d7573d5f803e3d5ffd5b505050506040513d601f19601f820116820180604052508101906119fb9190614b8f565b60070b9050601681146110c85760405162461bcd60e51b815260206004820152600f60248201527f5472616e73666572206661696c6564000000000000000000000000000000000060448201526064016110bf565b604080516060810182525f8082526001600160a01b03841660208301526265b9aa92820192909252611a8284826136f4565b915060168214611a90575f80fd5b5092915050565b5f611aa18261371e565b50905060168114610f33575f80fd5b5f611abc84848461383b565b9050601681146109a05760405162461bcd60e51b815260206004820152601460248201527f4e465420617070726f76616c206661696c65642100000000000000000000000060448201526064016110bf565b6040805160018082528183019092525f91816020015b611b2c613f15565b815260200190600190039081611b24579050509050611b5b5f805f60405180602001604052805f815250612a91565b815f81518110611b6d57611b6d614ac9565b60200260200101819052505f60405180606001604052805f60070b8152602001856001600160a01b03168152602001627a120060070b81525090505f60405180610120016040528060028054611bc290614add565b80601f0160208091040260200160405190810160405280929190818152602001828054611bee90614add565b8015611c395780601f10611c1057610100808354040283529160200191611c39565b820191905f5260205f20905b815481529060010190602001808311611c1c57829003601f168201915b5050505050815260200160038054611c5090614add565b80601f0160208091040260200160405190810160405280929190818152602001828054611c7c90614add565b8015611cc75780601f10611c9e57610100808354040283529160200191611cc7565b820191905f5260205f20905b815481529060010190602001808311611caa57829003601f168201915b50505050508152602001866001600160a01b0316815260200160048054611ced90614add565b80601f0160208091040260200160405190810160405280929190818152602001828054611d1990614add565b8015611d645780601f10611d3b57610100808354040283529160200191611d64565b820191905f5260205f20905b815481529060010190602001808311611d4757829003601f168201915b505050918352505060016020820181905260055468010000000000000000900460070b6040808401919091525f606084018190526080840188905260a09093018690528051828152808201909152929350909190816020015b6040805160a0810182525f808252602080830182905292820181905260608201819052608082015282525f19909201910181611dbd5750506040805160a081018252600181526001600160a01b0388811660208301525f9282018390526060820183905289166080820152825192935091839190611e3d57611e3d614ac9565b60209081029190910101526040805160018082528183019092525f91816020015b6040805160c0810182525f8082526020808301829052928201819052606082018190526080820181905260a082015282525f19909201910181611e5e5750506040805160c0810182526004815260056020820152600a91810191909152601e60608201525f608082018190526001600160a01b038a1660a083015282519293509091839190611eef57611eef614ac9565b60209081029190910101526005545f908190610ea6908690600781900b90700100000000000000000000000000000000900460030b8787613890565b5f611f3683836130cf565b50610ed883836139b6565b5f610ed883836130cf565b6040516001600160a01b038581166024830152848116604483015283166064820152608481018290525f908190819061016790639b23d3d960e01b9060a401610f95565b604051639b23d3d960e01b81526001600160a01b038086166004830152808516602483015283166044820152606481018290525f903090639b23d3d9906084016020604051808303815f875af1158015611fec573d5f803e3d5ffd5b505050506040513d601f19601f820116820180604052508101906120109190614b8f565b60070b9050601681146110c85760405162461bcd60e51b815260206004820152601360248201527f4e4654207472616e73666572206661696c65640000000000000000000000000060448201526064016110bf565b5f6110db8383613a04565b5f61207b8383613a52565b905060168114610eea5760405162461bcd60e51b815260206004820152601660248201527f43727970746f207472616e73666572206661696c65640000000000000000000060448201526064016110bf565b5f6120d9848484613a7c565b9050601681146109a05760405162461bcd60e51b815260206004820152601560248201527f546f6b656e207472616e73666572206661696c6564000000000000000000000060448201526064016110bf565b5f6121368383613aa8565b50905060168114610eea575f80fd5b5f61107185858585613b82565b5f61215e848484613be2565b9050601681146109a05760405162461bcd60e51b815260206004820152601060248201527f417070726f76616c206661696c6564210000000000000000000000000000000060448201526064016110bf565b60408051600580825260c082019092525f91816020015b6121cf613f15565b8152602001906001900390816121c75790505090506121ff5f60065f60405180602001604052805f815250612a91565b815f8151811061221157612211614ac9565b602002602001018190525061223660015f60405180602001604052805f815250612ac8565b8160018151811061224957612249614ac9565b602002602001018190525061226e60025f60405180602001604052805f815250612ac8565b8160028151811061228157612281614ac9565b60200260200101819052506122a660045f60405180602001604052805f815250612ac8565b816003815181106122b9576122b9614ac9565b60200260200101819052506122de60035f60405180602001604052805f815250612ac8565b816004815181106122f1576122f1614ac9565b60200260200101819052505f60405180606001604052805f60070b8152602001846001600160a01b03168152602001627a120060070b81525090505f6040518061012001604052806002805461234690614add565b80601f016020809104026020016040519081016040528092919081815260200182805461237290614add565b80156123bd5780601f10612394576101008083540402835291602001916123bd565b820191905f5260205f20905b8154815290600101906020018083116123a057829003601f168201915b50505050508152602001600380546123d490614add565b80601f016020809104026020016040519081016040528092919081815260200182805461240090614add565b801561244b5780601f106124225761010080835404028352916020019161244b565b820191905f5260205f20905b81548152906001019060200180831161242e57829003601f168201915b50505050508152602001856001600160a01b031681526020016004805461247190614add565b80601f016020809104026020016040519081016040528092919081815260200182805461249d90614add565b80156124e85780601f106124bf576101008083540402835291602001916124e8565b820191905f5260205f20905b8154815290600101906020018083116124cb57829003601f168201915b50505091835250506001602082015260055468010000000000000000810460070b6040830152600160a01b900460ff16151560608201526080810185905260a00183905290505f806115b583613c37565b5f6111b683836132cb565b5f61254e82612e59565b50610f2582612e59565b5f6115da848484613d14565b5f610ed883836139b6565b5f610ed88383612c1d565b5f6125848261319f565b50610f2582613089565b5f6125998383613a04565b506125a483836132cb565b905060168114610eea5760405162461bcd60e51b815260206004820181905260248201527f4e657374656420746f6b656e206173736f63696174696f6e206661696c65642160448201526064016110bf565b60408051600580825260c082019092525f91829190816020015b612618613f15565b8152602001906001900390816126105790505090506126485f60065f60405180602001604052805f815250612a91565b815f8151811061265a5761265a614ac9565b602002602001018190525061267f60015f60405180602001604052805f815250612ac8565b8160018151811061269257612692614ac9565b60200260200101819052506126b760025f60405180602001604052805f815250612ac8565b816002815181106126ca576126ca614ac9565b60200260200101819052506126ef60045f60405180602001604052805f815250612ac8565b8160038151811061270257612702614ac9565b602002602001018190525061272760035f60405180602001604052805f815250612ac8565b8160048151811061273a5761273a614ac9565b60200260200101819052505f60405180606001604052805f60070b8152602001856001600160a01b03168152602001627a120060070b81525090505f6040518061012001604052806002805461278f90614add565b80601f01602080910402602001604051908101604052809291908181526020018280546127bb90614add565b80156128065780601f106127dd57610100808354040283529160200191612806565b820191905f5260205f20905b8154815290600101906020018083116127e957829003601f168201915b505050505081526020016003805461281d90614add565b80601f016020809104026020016040519081016040528092919081815260200182805461284990614add565b80156128945780601f1061286b57610100808354040283529160200191612894565b820191905f5260205f20905b81548152906001019060200180831161287757829003601f168201915b50505050508152602001866001600160a01b03168152602001600480546128ba90614add565b80601f01602080910402602001604051908101604052809291908181526020018280546128e690614add565b80156129315780601f1061290857610100808354040283529160200191612931565b820191905f5260205f20905b81548152906001019060200180831161291457829003601f168201915b50505091835250506001602082015260055468010000000000000000810460070b6040830152600160a01b900460ff16151560608201526080810185905260a00183905290506129818682613d6a565b93506016841461298f575f80fd5b50505092915050565b604080516001600160a01b0385811660248301528481166044830152831660648083019190915282518083039091018152608490910182526020810180516001600160e01b03167f927da1050000000000000000000000000000000000000000000000000000000017905290515f9182918291829161016791612a1a91614b0f565b5f604051808303815f865af19150503d805f8114612a53576040519150601f19603f3d011682016040523d82523d5f602084013e612a58565b606091505b509150915081612a6a5760155f612a7e565b80806020019051810190612a7e9190614baa565b60039190910b9890975095505050505050565b612a99613f15565b6040518060400160405280612aae8787613d94565b8152602001612abd8585613dce565b905295945050505050565b612ad0613f15565b6040518060400160405280612ae486613ed9565b8152602001612af38585613dce565b9052949350505050565b5f80848061010001515f015160070b5f148015612b2457506101008101516040015160070b155b15612b3a576101008101516276a7006040909101525b5f806101676001600160a01b03163463abb54eb560e01b8a8a8a604051602401612b6693929190614e02565b60408051601f198184030181529181526020820180516001600160e01b03166001600160e01b0319909416939093179092529051612ba49190614b0f565b5f6040518083038185875af1925050503d805f8114612bde576040519150601f19603f3d011682016040523d82523d5f602084013e612be3565b606091505b509150915081612bf55760155f612c09565b80806020019051810190612c099190614eb7565b60039190910b999098509650505050505050565b6040516001600160a01b038381166024830152821660448201525f9081908190610167907f8f8d7f9900000000000000000000000000000000000000000000000000000000906064015b60408051601f198184030181529181526020820180516001600160e01b03166001600160e01b0319909416939093179092529051612ca59190614b0f565b5f604051808303815f865af19150503d805f8114612cde576040519150601f19603f3d011682016040523d82523d5f602084013e612ce3565b606091505b509150915081612cf4576015612d08565b80806020019051810190612d089190614b3b565b60030b95945050505050565b6040516001600160a01b038381166024830152821660448201525f9081908190610167907faf99c6330000000000000000000000000000000000000000000000000000000090606401612c67565b5f8060605f806101676001600160a01b031663e0f4059a60e01b898989604051602401612d9193929190614ee1565b60408051601f198184030181529181526020820180516001600160e01b03166001600160e01b0319909416939093179092529051612dcf9190614b0f565b5f604051808303815f865af19150503d805f8114612e08576040519150601f19603f3d011682016040523d82523d5f602084013e612e0d565b606091505b509150915081612e2f57604080515f8082526020820190925260159190612e43565b80806020019051810190612e439190614f5c565b60039290920b9a90995090975095505050505050565b6040516001600160a01b03821660248201525f9081908190610167907ff069f71200000000000000000000000000000000000000000000000000000000906044015b60408051601f198184030181529181526020820180516001600160e01b03166001600160e01b0319909416939093179092529051612ed99190614b0f565b5f604051808303815f865af19150503d805f8114612f12576040519150601f19603f3d011682016040523d82523d5f602084013e612f17565b606091505b509150915081612f28576015612f3c565b80806020019051810190612f3c9190614b3b565b60030b949350505050565b6040805160a0810182525f80825260208083018290526060838501819052808401526080830182905283516001600160a01b03871660248201526044808201879052855180830390910181526064909101855290810180516001600160e01b03167f3c4dd32e00000000000000000000000000000000000000000000000000000000179052925190928391829161016791612fe29190614b0f565b5f604051808303815f865af19150503d805f811461301b576040519150601f19603f3d011682016040523d82523d5f602084013e613020565b606091505b50915091506130686040518060a001604052805f151581526020015f6001600160a01b0316815260200160608152602001606081526020015f6001600160a01b031681525090565b8261307557601581612a7e565b81806020019051810190612a7e9190615063565b6040516001600160a01b03821660248201525f9081908190610167907f3b3bff0f0000000000000000000000000000000000000000000000000000000090604401612e9b565b6040516001600160a01b038381166024830152821660448201525f9081908190610167907f5b8f85840000000000000000000000000000000000000000000000000000000090606401612c67565b5f805f6101676001600160a01b0316632c4ba19160e01b88888888604051602401610f95949392919061516f565b5f805f6101676001600160a01b03166378b6391860e01b8686604051602401612c679291906151c1565b5f805f6101676001600160a01b0316632e63879b60e01b8686604051602401612c679291906151c1565b6040516001600160a01b03821660248201525f9081908190610167907f7c41ad2c0000000000000000000000000000000000000000000000000000000090604401612e9b565b604080516001600160a01b0385811660248301528481166044830152831660648083019190915282518083039091018152608490910182526020810180516001600160e01b03167ff49f40db0000000000000000000000000000000000000000000000000000000017905290515f918291829182916101679161326791614b0f565b5f604051808303815f865af19150503d805f81146132a0576040519150601f19603f3d011682016040523d82523d5f602084013e6132a5565b606091505b5091509150816132b75760155f612a7e565b80806020019051810190612a7e91906151e2565b6040516001600160a01b038381166024830152821660448201525f9081908190610167907f49146bde0000000000000000000000000000000000000000000000000000000090606401612c67565b5f80848061010001515f015160070b5f14801561334057506101008101516040015160070b155b15613356576101008101516276a7006040909101525b5f806101676001600160a01b031634630fb65bf360e01b8a8a8a604051602401612b669392919061520c565b5f805f6101676001600160a01b031663f7f38e2660e01b8787876040516024016133ae9392919061523a565b60408051601f198184030181529181526020820180516001600160e01b03166001600160e01b03199094169390931790925290516133ec9190614b0f565b5f604051808303815f865af19150503d805f8114613425576040519150601f19603f3d011682016040523d82523d5f602084013e61342a565b606091505b50915091508161343b57601561344f565b8080602001905181019061344f9190614b3b565b60030b9695505050505050565b6040516001600160a01b038581166024830152848116604483015283166064820152600782900b60848201525f9081908190610167907feca36917000000000000000000000000000000000000000000000000000000009060a401610f95565b6040516001600160a01b03848116602483015283166044820152600782900b60648201525f9081908190610167907fefef57f900000000000000000000000000000000000000000000000000000000906084016133ae565b5f805f806101676001600160a01b031663d6910d0660e01b88888860405160240161354193929190615265565b60408051601f198184030181529181526020820180516001600160e01b03166001600160e01b031990941693909317909252905161357f9190614b0f565b5f604051808303815f865af19150503d805f81146135b8576040519150601f19603f3d011682016040523d82523d5f602084013e6135bd565b606091505b5091509150816135cf5760155f612a7e565b80806020019051810190612a7e919061528f565b604080516001600160a01b03831660248083019190915282518083039091018152604490910182526020810180516001600160e01b03167f19f373610000000000000000000000000000000000000000000000000000000017905290515f918291829182916101679161365591614b0f565b5f604051808303815f865af19150503d805f811461368e576040519150601f19603f3d011682016040523d82523d5f602084013e613693565b606091505b5091509150816136a55760155f6136b9565b808060200190518101906136b991906151e2565b60039190910b969095509350505050565b5f805f6101676001600160a01b0316636fc3cbaf60e01b8686604051602401612c679291906152b9565b5f805f6101676001600160a01b031663d27be6cd60e01b8686604051602401612c679291906152da565b604080516060810182525f808252602080830182905282840182905283516001600160a01b038616602480830191909152855180830390910181526044909101855290810180516001600160e01b03167fd614cdb8000000000000000000000000000000000000000000000000000000001790529251909283918291610167916137a89190614b0f565b5f604051808303815f865af19150503d805f81146137e1576040519150601f19603f3d011682016040523d82523d5f602084013e6137e6565b606091505b50604080516060810182525f808252602082018190529181019190915291935091508261381557601581613829565b81806020019051810190613829919061531d565b60039190910b97909650945050505050565b6040516001600160a01b03848116602483015283166044820152606481018290525f9081908190610167907f7336aaf000000000000000000000000000000000000000000000000000000000906084016133ae565b5f80868061010001515f015160070b5f1480156138b757506101008101516040015160070b155b156138cd576101008101516276a7006040909101525b5f806101676001600160a01b031634632af0c59a60e01b8c8c8c8c8c6040516024016138fd959493929190615395565b60408051601f198184030181529181526020820180516001600160e01b03166001600160e01b031990941693909317909252905161393b9190614b0f565b5f6040518083038185875af1925050503d805f8114613975576040519150601f19603f3d011682016040523d82523d5f602084013e61397a565b606091505b50915091508161398c5760155f6139a0565b808060200190518101906139a09190614eb7565b60039190910b9b909a5098505050505050505050565b6040516001600160a01b038381166024830152821660448201525f9081908190610167907f52f913870000000000000000000000000000000000000000000000000000000090606401612c67565b6040516001600160a01b038381166024830152821660448201525f9081908190610167907f099794e80000000000000000000000000000000000000000000000000000000090606401612c67565b5f805f6101676001600160a01b0316630e71804f60e01b8686604051602401612c679291906154ad565b5f805f6101676001600160a01b03166382bba49360e01b8787876040516024016133ae939291906155a7565b604080516001600160a01b0384166024820152604480820184905282518083039091018152606490910182526020810180516001600160e01b03167f098f23660000000000000000000000000000000000000000000000000000000017905290515f9182918291829161016791613b1e91614b0f565b5f604051808303815f865af19150503d805f8114613b57576040519150601f19603f3d011682016040523d82523d5f602084013e613b5c565b606091505b509150915081613b6e5760155f613829565b808060200190518101906138299190614eb7565b6040516001600160a01b038581166024830152848116604483015283166064820152600782900b60848201525f9081908190610167907f5cfc9011000000000000000000000000000000000000000000000000000000009060a401610f95565b6040516001600160a01b03848116602483015283166044820152606481018290525f9081908190610167907fe1f21c6700000000000000000000000000000000000000000000000000000000906084016133ae565b5f80828061010001515f015160070b5f148015613c5e57506101008101516040015160070b155b15613c74576101008101516276a7006040909101525b5f806101676001600160a01b03163463ea83f29360e01b88604051602401613c9c91906155e4565b60408051601f198184030181529181526020820180516001600160e01b03166001600160e01b0319909416939093179092529051613cda9190614b0f565b5f6040518083038185875af1925050503d805f8114613b57576040519150601f19603f3d011682016040523d82523d5f602084013e613b5c565b6040516001600160a01b0384811660248301528316604482015281151560648201525f9081908190610167907f367605ca00000000000000000000000000000000000000000000000000000000906084016133ae565b5f805f6101676001600160a01b0316637d305cfa60e01b8686604051602401612c679291906155f6565b5f613db7836006811115613daa57613daa615617565b600160ff9091161b821790565b90506109a0826006811115613daa57613daa615617565b613e116040518060a001604052805f151581526020015f6001600160a01b0316815260200160608152602001606081526020015f6001600160a01b031681525090565b5f836004811115613e2457613e24615617565b03613e325760018152610eea565b6001836004811115613e4657613e46615617565b03613e60575f546001600160a01b03166020820152610eea565b6002836004811115613e7457613e74615617565b03613e855760408101829052610eea565b6003836004811115613e9957613e99615617565b03613eaa5760608101829052610eea565b6004836004811115613ebe57613ebe615617565b03610eea575f546001600160a01b0316608082015292915050565b5f60015f836006811115613eef57613eef615617565b6006811115613f0057613f00615617565b81526020019081526020015f20549050919050565b60405180604001604052805f8152602001613f696040518060a001604052805f151581526020015f6001600160a01b0316815260200160608152602001606081526020015f6001600160a01b031681525090565b905290565b6001600160a01b0381168114613f82575f80fd5b50565b5f805f60608486031215613f97575f80fd5b8335613fa281613f6e565b92506020840135613fb281613f6e565b91506040840135613fc281613f6e565b809150509250925092565b5f8060408385031215613fde575f80fd5b8235613fe981613f6e565b91506020830135613ff981613f6e565b809150509250929050565b8060070b8114613f82575f80fd5b634e487b7160e01b5f52604160045260245ffd5b6040516060810167ffffffffffffffff8111828210171561404957614049614012565b60405290565b6040516020810167ffffffffffffffff8111828210171561404957614049614012565b6040516080810167ffffffffffffffff8111828210171561404957614049614012565b60405160a0810167ffffffffffffffff8111828210171561404957614049614012565b604051601f8201601f1916810167ffffffffffffffff811182821017156140e1576140e1614012565b604052919050565b5f67ffffffffffffffff82111561410257614102614012565b5060051b60200190565b5f67ffffffffffffffff82111561412557614125614012565b50601f01601f191660200190565b5f82601f830112614142575f80fd5b81356141556141508261410c565b6140b8565b818152846020838601011115614169575f80fd5b816020850160208301375f918101602001919091529392505050565b5f805f60608486031215614197575f80fd5b83356141a281613f6e565b92506020848101356141b381614004565b9250604085013567ffffffffffffffff808211156141cf575f80fd5b818701915087601f8301126141e2575f80fd5b81356141f0614150826140e9565b81815260059190911b8301840190848101908a83111561420e575f80fd5b8585015b8381101561424557803585811115614229575f8081fd5b6142378d89838a0101614133565b845250918601918601614212565b508096505050505050509250925092565b5f8151808452602080850194508084015f5b8381101561428757815160070b87529582019590820190600101614268565b509495945050505050565b8381528260070b6020820152606060408201525f6142b36060830184614256565b95945050505050565b5f602082840312156142cc575f80fd5b81356109a081613f6e565b5f80604083850312156142e8575f80fd5b82356142f381613f6e565b946020939093013593505050565b5f805f8060808587031215614314575f80fd5b843561431f81613f6e565b9350602085013561432f81613f6e565b9250604085013561433f81613f6e565b9396929550929360600135925050565b5f82601f83011261435e575f80fd5b8135602061436e614150836140e9565b82815260059290921b8401810191818101908684111561438c575f80fd5b8286015b848110156143b05780356143a381613f6e565b8352918301918301614390565b509695505050505050565b5f82601f8301126143ca575f80fd5b813560206143da614150836140e9565b82815260059290921b840181019181810190868411156143f8575f80fd5b8286015b848110156143b057803561440f81614004565b83529183019183016143fc565b5f805f806080858703121561442f575f80fd5b843561443a81613f6e565b9350602085013567ffffffffffffffff80821115614456575f80fd5b6144628883890161434f565b94506040870135915080821115614477575f80fd5b6144838883890161434f565b93506060870135915080821115614498575f80fd5b506144a5878288016143bb565b91505092959194509250565b5f80604083850312156144c2575f80fd5b82356144cd81613f6e565b9150602083013567ffffffffffffffff8111156144e8575f80fd5b6144f48582860161434f565b9150509250929050565b5f6020828403121561450e575f80fd5b813567ffffffffffffffff811115614524575f80fd5b6110c884828501614133565b5f5b8381101561454a578181015183820152602001614532565b50505f910152565b5f8151808452614569816020860160208601614530565b601f01601f19169290920160200192915050565b602081525f6109a06020830184614552565b5f805f606084860312156145a1575f80fd5b83356145ac81613f6e565b925060208401356145bc81613f6e565b9150604084013567ffffffffffffffff8111156145d7575f80fd5b6145e3868287016143bb565b9150509250925092565b5f805f8060808587031215614600575f80fd5b843561460b81613f6e565b9350602085013561461b81613f6e565b9250604085013561462b81613f6e565b9150606085013561463b81614004565b939692955090935050565b5f805f60608486031215614658575f80fd5b833561466381613f6e565b9250602084013561467381613f6e565b91506040840135613fc281614004565b5f8060408385031215614694575f80fd5b823561469f81613f6e565b9150602083013567ffffffffffffffff8111156146ba575f80fd5b6144f485828601614133565b5f805f606084860312156146d8575f80fd5b83356146e381613f6e565b925060208401356145bc81614004565b5f805f60608486031215614705575f80fd5b833561471081613f6e565b9250602084013561472081613f6e565b929592945050506040919091013590565b8015158114613f82575f80fd5b5f82601f83011261474d575f80fd5b8135602061475d614150836140e9565b8281526060928302850182019282820191908785111561477b575f80fd5b8387015b858110156147dc5781818a031215614796575f8081fd5b61479e614026565b81356147a981613f6e565b8152818601356147b881614004565b818701526040828101356147cb81614731565b90820152845292840192810161477f565b5090979650505050505050565b5f80604083850312156147fa575f80fd5b67ffffffffffffffff8084351115614810575f80fd5b60208435850186031215614822575f80fd5b61482a61404f565b818535860135111561483a575f80fd5b61484a868635870180350161473e565b81529250602084013581101561485e575f80fd5b6020840135840185601f820112614873575f80fd5b61488061415082356140e9565b81358082526020808301929160051b84010188101561489d575f80fd5b602083015b6020843560051b850101811015614a165784813511156148c0575f80fd5b803584016060818b03601f190112156148d7575f80fd5b6148df614026565b6148ec6020830135613f6e565b602082013581528660408301351115614903575f80fd5b6149168b6020604085013585010161473e565b6020820152866060830135111561492b575f80fd5b6060820135820191508a603f830112614942575f80fd5b61495261415060208401356140e9565b602083810135808352908201919060071b84016040018d811115614974575f80fd5b6040850194505b80851015614a00576080858f031215614992575f80fd5b61499a614072565b6149a48635613f6e565b853581526149b56020870135613f6e565b602086013560208201526149cc6040870135614004565b604086013560408201526149e36060870135614731565b60608681013590820152835260809094019360209092019161497b565b50604083015250845250602092830192016148a2565b50809450505050509250929050565b5f805f60608486031215614a37575f80fd5b8335614a4281613f6e565b9250602084013567ffffffffffffffff80821115614a5e575f80fd5b614a6a8783880161434f565b93506040860135915080821115614a7f575f80fd5b506145e3868287016143bb565b5f805f60608486031215614a9e575f80fd5b8335614aa981613f6e565b92506020840135614ab981613f6e565b91506040840135613fc281614731565b634e487b7160e01b5f52603260045260245ffd5b600181811c90821680614af157607f821691505b60208210810361197557634e487b7160e01b5f52602260045260245ffd5b5f8251614b20818460208701614530565b9190910192915050565b8051600381900b8114610f33575f80fd5b5f60208284031215614b4b575f80fd5b6109a082614b2a565b6001600160a01b0383168152604060208201525f6110c86040830184614552565b8215158152604060208201525f6110c86040830184614552565b5f60208284031215614b9f575f80fd5b81516109a081614004565b5f8060408385031215614bbb575f80fd5b614bc483614b2a565b9150602083015190509250929050565b5f81518084526020808501808196508360051b810191508286015f5b85811015614c895782840389528151604081518652868201519150808787015281511515818701528682015160606001600160a01b03808316828a015283850151935060a09250608083818b0152614c4b60e08b0186614552565b928601518a8403603f1901858c0152929450614c678584614552565b9501511660c09890980197909752505098850198935090840190600101614bf0565b5091979650505050505050565b5f6101608251818552614cab82860182614552565b91505060208301518482036020860152614cc58282614552565b9150506040830151614ce260408601826001600160a01b03169052565b5060608301518482036060860152614cfa8282614552565b9150506080830151614d10608086018215159052565b5060a0830151614d2560a086018260070b9052565b5060c0830151614d3960c086018215159052565b5060e083015184820360e0860152614d518282614bd4565b91505061010080840151614d8d82870182805160070b82526001600160a01b036020820151166020830152604081015160070b60408301525050565b5090949350505050565b5f8151808452602080850194508084015f5b83811015614287578151805160070b8852838101516001600160a01b03908116858a01526040808301511515908a01526060808301511515908a0152608091820151169088015260a09096019590820190600101614da9565b5f6060808352614e1481840187614c96565b602084820381860152614e278288614d97565b9150604085830381870152828751808552838501915083890194505f5b81811015614ea75785518051600790810b855286820151810b8786015285820151900b85850152878101516001600160a01b039081168986015260808083015115159086015260a09182015116908401529484019460c090920191600101614e44565b50909a9950505050505050505050565b5f8060408385031215614ec8575f80fd5b614ed183614b2a565b91506020830151613ff981613f6e565b5f606082016001600160a01b038616835260208560070b818501526060604085015281855180845260808601915060808160051b87010193508287015f5b82811015614f4d57607f19888703018452614f3b868351614552565b95509284019290840190600101614f1f565b50939998505050505050505050565b5f805f60608486031215614f6e575f80fd5b614f7784614b2a565b9250602080850151614f8881614004565b604086015190935067ffffffffffffffff811115614fa4575f80fd5b8501601f81018713614fb4575f80fd5b8051614fc2614150826140e9565b81815260059190911b82018301908381019089831115614fe0575f80fd5b928401925b82841015615007578351614ff881614004565b82529284019290840190614fe5565b80955050505050509250925092565b8051610f3381613f6e565b5f82601f830112615030575f80fd5b815161503e6141508261410c565b818152846020838601011115615052575f80fd5b6110c8826020830160208701614530565b5f8060408385031215615074575f80fd5b61507d83614b2a565b9150602083015167ffffffffffffffff80821115615099575f80fd5b9084019060a082870312156150ac575f80fd5b6150b4614095565b82516150bf81614731565b815260208301516150cf81613f6e565b60208201526040830151828111156150e5575f80fd5b6150f188828601615021565b604083015250606083015182811115615108575f80fd5b61511488828601615021565b60608301525061512660808401615016565b60808201528093505050509250929050565b5f8151808452602080850194508084015f5b838110156142875781516001600160a01b03168752958201959082019060010161514a565b6001600160a01b0385168152608060208201525f6151906080830186615138565b82810360408401526151a28186615138565b905082810360608401526151b68185614256565b979650505050505050565b6001600160a01b0383168152604060208201525f6110c86040830184615138565b5f80604083850312156151f3575f80fd5b6151fc83614b2a565b91506020830151613ff981614731565b606081525f61521e6060830186614c96565b90508360070b60208301528260030b6040830152949350505050565b5f6001600160a01b038086168352808516602084015250606060408301526142b36060830184614256565b6001600160a01b03841681528260070b6020820152606060408201525f6142b36060830184614256565b5f80604083850312156152a0575f80fd5b6152a983614b2a565b91506020830151613ff981614004565b6001600160a01b0383168152604060208201525f6110c86040830184614bd4565b6001600160a01b0383168152608081016109a06020830184805160070b82526001600160a01b036020820151166020830152604081015160070b60408301525050565b5f80828403608081121561532f575f80fd5b61533884614b2a565b92506060601f198201121561534b575f80fd5b50615354614026565b602084015161536281614004565b8152604084015161537281613f6e565b6020820152606084015161538581614004565b6040820152919491935090915050565b5f60a08083526153a781840189614c96565b6020600789810b8287015260408960030b818801526060878503818901526153cf858b614d97565b94506080888603818a0152858a518088528688019150868c0197505f5b818110156154465788518051880b845288810151880b8985015286810151880b8785015285810151880b86850152848101511515858501528a01516001600160a01b03168a8401529787019760c0909201916001016153ec565b50909f9e505050505050505050505050505050565b5f8151808452602080850194508084015f5b8381101561428757815180516001600160a01b031688528381015160070b848901526040908101511515908801526060909601959082019060010161546d565b5f604080835260608551602080848701526154ca8387018361545b565b9150858203818701528187518084528284019150828160051b850101838a015f5b8381101561559657601f1987840301855281516001600160a01b03808251168552878201518a898701526155218b87018261545b565b928c0151868403878e01528051808552908a01935f92508a01905b808310156155805784518051851683528b81015185168c8401528e81015160070b8f8401528d015115158d830152938a01936001929092019160809091019061553c565b50978901979550505091860191506001016154eb565b50909b9a5050505050505050505050565b6001600160a01b0384168152606060208201525f6155c86060830185615138565b82810360408401526155da8185614256565b9695505050505050565b602081525f6109a06020830184614c96565b6001600160a01b0383168152604060208201525f6110c86040830184614c96565b634e487b7160e01b5f52602160045260245ffdfea264697066735822122027b2ffba362eb2f39ca2d8bdd3897bfdc84a790c28749968fe1568ec7c784ce664736f6c63430008140033",
  "linkReferences": {},
  "deployedLinkReferences": {}
}