{
  "_format": "hh-sol-artifact-1",
  "contractName": "EstimatePrecompileContract",
  "sourceName": "contracts/EstimatePrecompileContract.sol",
  "abi": [
    {
      "anonymous": false,
      "inputs": [
        {
          "indexed": false,
          "internalType": "bool",
          "name": "",
          "type": "bool"
        },
        {
          "indexed": false,
          "internalType": "bytes",
          "name": "",
          "type": "bytes"
        }
      ],
      "name": "CallResponseEvent",
      "type": "event"
    },
    {
      "inputs": [
        {
          "internalType": "address",
          "name": "token",
          "type": "address"
        },
        {
          "internalType": "address",
          "name": "spender",
          "type": "address"
        },
        {
          "internalType": "uint256",
          "name": "amount",
          "type": "uint256"
        }
      ],
      "name": "approveExternal",
      "outputs": [
        {
          "internalType": "int256",
          "name": "responseCode",
          "type": "int256"
        }
      ],
      "stateMutability": "nonpayable",
      "type": "function"
    },
    {
      "inputs": [
        {
          "internalType": "address",
          "name": "token",
          "type": "address"
        },
        {
          "internalType": "address",
          "name": "approved",
          "type": "address"
        },
        {
          "internalType": "uint256",
          "name": "serialNumber",
          "type": "uint256"
        }
      ],
      "name": "approveNFTExternal",
      "outputs": [
        {
          "internalType": "int256",
          "name": "responseCode",
          "type": "int256"
        }
      ],
      "stateMutability": "nonpayable",
      "type": "function"
    },
    {
      "inputs": [
        {
          "internalType": "address",
          "name": "account",
          "type": "address"
        },
        {
          "internalType": "address",
          "name": "token",
          "type": "address"
        }
      ],
      "name": "associateTokenExternal",
      "outputs": [
        {
          "internalType": "int256",
          "name": "responseCode",
          "type": "int256"
        }
      ],
      "stateMutability": "nonpayable",
      "type": "function"
    },
    {
      "inputs": [
        {
          "internalType": "address",
          "name": "account",
          "type": "address"
        },
        {
          "internalType": "address[]",
          "name": "tokens",
          "type": "address[]"
        }
      ],
      "name": "associateTokensExternal",
      "outputs": [
        {
          "internalType": "int256",
          "name": "responseCode",
          "type": "int256"
        }
      ],
      "stateMutability": "nonpayable",
      "type": "function"
    },
    {
      "inputs": [
        {
          "internalType": "address",
          "name": "token",
          "type": "address"
        },
        {
          "internalType": "int64",
          "name": "amount",
          "type": "int64"
        },
        {
          "internalType": "int64[]",
          "name": "serialNumbers",
          "type": "int64[]"
        }
      ],
      "name": "burnTokenExternal",
      "outputs": [
        {
          "internalType": "int256",
          "name": "responseCode",
          "type": "int256"
        },
        {
          "internalType": "int64",
          "name": "newTotalSupply",
          "type": "int64"
        }
      ],
      "stateMutability": "nonpayable",
      "type": "function"
    },
    {
      "inputs": [
        {
          "internalType": "address",
          "name": "treasury",
          "type": "address"
        }
      ],
      "name": "createFungibleTokenPublic",
      "outputs": [],
      "stateMutability": "payable",
      "type": "function"
    },
    {
      "inputs": [
        {
          "internalType": "address",
          "name": "treasury",
          "type": "address"
        }
      ],
      "name": "createNonFungibleTokenPublic",
      "outputs": [],
      "stateMutability": "payable",
      "type": "function"
    },
    {
      "inputs": [
        {
          "components": [
            {
              "components": [
                {
                  "internalType": "address",
                  "name": "accountID",
                  "type": "address"
                },
                {
                  "internalType": "int64",
                  "name": "amount",
                  "type": "int64"
                },
                {
                  "internalType": "bool",
                  "name": "isApproval",
                  "type": "bool"
                }
              ],
              "internalType": "struct IHederaTokenService.AccountAmount[]",
              "name": "transfers",
              "type": "tuple[]"
            }
          ],
          "internalType": "struct IHederaTokenService.TransferList",
          "name": "transferList",
          "type": "tuple"
        },
        {
          "components": [
            {
              "internalType": "address",
              "name": "token",
              "type": "address"
            },
            {
              "components": [
                {
                  "internalType": "address",
                  "name": "accountID",
                  "type": "address"
                },
                {
                  "internalType": "int64",
                  "name": "amount",
                  "type": "int64"
                },
                {
                  "internalType": "bool",
                  "name": "isApproval",
                  "type": "bool"
                }
              ],
              "internalType": "struct IHederaTokenService.AccountAmount[]",
              "name": "transfers",
              "type": "tuple[]"
            },
            {
              "components": [
                {
                  "internalType": "address",
                  "name": "senderAccountID",
                  "type": "address"
                },
                {
                  "internalType": "address",
                  "name": "receiverAccountID",
                  "type": "address"
                },
                {
                  "internalType": "int64",
                  "name": "serialNumber",
                  "type": "int64"
                },
                {
                  "internalType": "bool",
                  "name": "isApproval",
                  "type": "bool"
                }
              ],
              "internalType": "struct IHederaTokenService.NftTransfer[]",
              "name": "nftTransfers",
              "type": "tuple[]"
            }
          ],
          "internalType": "struct IHederaTokenService.TokenTransferList[]",
          "name": "tokenTransfers",
          "type": "tuple[]"
        }
      ],
      "name": "cryptoTransferExternal",
      "outputs": [
        {
          "internalType": "int256",
          "name": "responseCode",
          "type": "int256"
        }
      ],
      "stateMutability": "nonpayable",
      "type": "function"
    },
    {
      "inputs": [
        {
          "internalType": "address",
          "name": "account",
          "type": "address"
        },
        {
          "internalType": "address",
          "name": "token",
          "type": "address"
        }
      ],
      "name": "dissociateAndAssociateTokenExternal",
      "outputs": [
        {
          "internalType": "int256",
          "name": "responseCode",
          "type": "int256"
        }
      ],
      "stateMutability": "nonpayable",
      "type": "function"
    },
    {
      "inputs": [
        {
          "internalType": "address",
          "name": "account",
          "type": "address"
        },
        {
          "internalType": "address",
          "name": "token",
          "type": "address"
        }
      ],
      "name": "dissociateTokenExternal",
      "outputs": [
        {
          "internalType": "int256",
          "name": "responseCode",
          "type": "int256"
        }
      ],
      "stateMutability": "nonpayable",
      "type": "function"
    },
    {
      "inputs": [
        {
          "internalType": "address",
          "name": "account",
          "type": "address"
        },
        {
          "internalType": "address[]",
          "name": "tokens",
          "type": "address[]"
        }
      ],
      "name": "dissociateTokensExternal",
      "outputs": [
        {
          "internalType": "int256",
          "name": "responseCode",
          "type": "int256"
        }
      ],
      "stateMutability": "nonpayable",
      "type": "function"
    },
    {
      "inputs": [
        {
          "internalType": "address",
          "name": "token",
          "type": "address"
        },
        {
          "internalType": "int64",
          "name": "amount",
          "type": "int64"
        },
        {
          "internalType": "bytes[]",
          "name": "metadata",
          "type": "bytes[]"
        }
      ],
      "name": "mintTokenExternal",
      "outputs": [
        {
          "internalType": "int256",
          "name": "responseCode",
          "type": "int256"
        },
        {
          "internalType": "int64",
          "name": "newTotalSupply",
          "type": "int64"
        },
        {
          "internalType": "int64[]",
          "name": "serialNumbers",
          "type": "int64[]"
        }
      ],
      "stateMutability": "nonpayable",
      "type": "function"
    },
    {
      "inputs": [
        {
          "internalType": "address",
          "name": "account",
          "type": "address"
        },
        {
          "internalType": "address",
          "name": "token",
          "type": "address"
        }
      ],
      "name": "nestedAssociateTokenExternal",
      "outputs": [
        {
          "internalType": "int256",
          "name": "responseCode",
          "type": "int256"
        }
      ],
      "stateMutability": "nonpayable",
      "type": "function"
    },
    {
      "inputs": [
        {
          "internalType": "address",
          "name": "account",
          "type": "address"
        },
        {
          "internalType": "address",
          "name": "token",
          "type": "address"
        }
      ],
      "name": "nestedDissociateTokenExternal",
      "outputs": [
        {
          "internalType": "int256",
          "name": "responseCode",
          "type": "int256"
        }
      ],
      "stateMutability": "nonpayable",
      "type": "function"
    },
    {
      "inputs": [
        {
          "internalType": "address",
          "name": "token",
          "type": "address"
        },
        {
          "internalType": "bytes",
          "name": "encodedFunctionSelector",
          "type": "bytes"
        }
      ],
      "name": "redirectForToken",
      "outputs": [],
      "stateMutability": "nonpayable",
      "type": "function"
    },
    {
      "inputs": [
        {
          "internalType": "address",
          "name": "token",
          "type": "address"
        },
        {
          "internalType": "address",
          "name": "from",
          "type": "address"
        },
        {
          "internalType": "address",
          "name": "to",
          "type": "address"
        },
        {
          "internalType": "uint256",
          "name": "amount",
          "type": "uint256"
        }
      ],
      "name": "transferFrom",
      "outputs": [
        {
          "internalType": "int64",
          "name": "responseCode",
          "type": "int64"
        }
      ],
      "stateMutability": "nonpayable",
      "type": "function"
    },
    {
      "inputs": [
        {
          "internalType": "address",
          "name": "token",
          "type": "address"
        },
        {
          "internalType": "address",
          "name": "from",
          "type": "address"
        },
        {
          "internalType": "address",
          "name": "to",
          "type": "address"
        },
        {
          "internalType": "uint256",
          "name": "amount",
          "type": "uint256"
        }
      ],
      "name": "transferFromExternal",
      "outputs": [
        {
          "internalType": "int256",
          "name": "responseCode",
          "type": "int256"
        }
      ],
      "stateMutability": "nonpayable",
      "type": "function"
    },
    {
      "inputs": [
        {
          "internalType": "address",
          "name": "token",
          "type": "address"
        },
        {
          "internalType": "address",
          "name": "from",
          "type": "address"
        },
        {
          "internalType": "address",
          "name": "to",
          "type": "address"
        },
        {
          "internalType": "uint256",
          "name": "serialNumber",
          "type": "uint256"
        }
      ],
      "name": "transferFromNFT",
      "outputs": [
        {
          "internalType": "int64",
          "name": "responseCode",
          "type": "int64"
        }
      ],
      "stateMutability": "nonpayable",
      "type": "function"
    },
    {
      "inputs": [
        {
          "internalType": "address",
          "name": "token",
          "type": "address"
        },
        {
          "internalType": "address",
          "name": "from",
          "type": "address"
        },
        {
          "internalType": "address",
          "name": "to",
          "type": "address"
        },
        {
          "internalType": "uint256",
          "name": "serialNumber",
          "type": "uint256"
        }
      ],
      "name": "transferFromNFTExternal",
      "outputs": [
        {
          "internalType": "int256",
          "name": "responseCode",
          "type": "int256"
        }
      ],
      "stateMutability": "nonpayable",
      "type": "function"
    },
    {
      "inputs": [
        {
          "internalType": "address",
          "name": "token",
          "type": "address"
        },
        {
          "internalType": "address",
          "name": "sender",
          "type": "address"
        },
        {
          "internalType": "address",
          "name": "receiver",
          "type": "address"
        },
        {
          "internalType": "int64",
          "name": "serialNumber",
          "type": "int64"
        }
      ],
      "name": "transferNFTExternal",
      "outputs": [
        {
          "internalType": "int256",
          "name": "responseCode",
          "type": "int256"
        }
      ],
      "stateMutability": "nonpayable",
      "type": "function"
    },
    {
      "inputs": [
        {
          "internalType": "address",
          "name": "token",
          "type": "address"
        },
        {
          "internalType": "address[]",
          "name": "sender",
          "type": "address[]"
        },
        {
          "internalType": "address[]",
          "name": "receiver",
          "type": "address[]"
        },
        {
          "internalType": "int64[]",
          "name": "serialNumber",
          "type": "int64[]"
        }
      ],
      "name": "transferNFTsExternal",
      "outputs": [
        {
          "internalType": "int256",
          "name": "responseCode",
          "type": "int256"
        }
      ],
      "stateMutability": "nonpayable",
      "type": "function"
    },
    {
      "inputs": [
        {
          "internalType": "address",
          "name": "token",
          "type": "address"
        },
        {
          "internalType": "address",
          "name": "sender",
          "type": "address"
        },
        {
          "internalType": "address",
          "name": "receiver",
          "type": "address"
        },
        {
          "internalType": "int64",
          "name": "amount",
          "type": "int64"
        }
      ],
      "name": "transferTokenExternal",
      "outputs": [
        {
          "internalType": "int256",
          "name": "responseCode",
          "type": "int256"
        }
      ],
      "stateMutability": "nonpayable",
      "type": "function"
    },
    {
      "inputs": [
        {
          "internalType": "address",
          "name": "token",
          "type": "address"
        },
        {
          "internalType": "address[]",
          "name": "accountIds",
          "type": "address[]"
        },
        {
          "internalType": "int64[]",
          "name": "amounts",
          "type": "int64[]"
        }
      ],
      "name": "transferTokensExternal",
      "outputs": [
        {
          "internalType": "int256",
          "name": "responseCode",
          "type": "int256"
        }
      ],
      "stateMutability": "nonpayable",
      "type": "function"
    }
  ],
  "bytecode": "0x60c06040526009608081905268746f6b656e4e616d6560b81b60a09081526200002c9160029190620001cc565b5060408051808201909152600b8082526a1d1bdad95b94de5b589bdb60aa1b60209092019182526200006191600391620001cc565b50604080518082019091526004808252636d656d6f60e01b60209092019182526200008d9181620001cc565b50600580546001600160a81b031916700800000000000003e800000000000003e8179055348015620000be57600080fd5b50600160208181527fa6eef7e35abe7026729641147f7915573c7e97b47efa546f5f6e3230263bcb499190915560027fcc69885fda6bcc1a4ace058b4a62bf5e179ea78fd58a1ccd71c22cc9b688792f5560047fd9d16d34ffb15ba3a3d852f0d403e2ce1d691fb54de27ac87cd2f993f3ec330f5560087f7dfe757ecd65cbd7922a9c0161e935dd7fdbcc0e999689c7d31633896b1fc60b5560107fedc95719e9a3b28dd8e80877cb5880a9be7de1a13fc8b05e7999683b6b567643557fe2689cd4a84e23ad2f564004f1c9013e9589d260bde6380aba3ca7e09e4df40c55600660005260407f8f331abe73332f95a25873e8b430885974c0409691f89d643119a11623a7924a55620002af565b828054620001da9062000272565b90600052602060002090601f016020900481019282620001fe576000855562000249565b82601f106200021957805160ff191683800117855562000249565b8280016001018555821562000249579182015b82811115620002495782518255916020019190600101906200022c565b50620002579291506200025b565b5090565b5b808211156200025757600081556001016200025c565b600181811c908216806200028757607f821691505b60208210811415620002a957634e487b7160e01b600052602260045260246000fd5b50919050565b6130d580620002bf6000396000f3fe6080604052600436106101805760003560e01c806384d232f5116100d6578063bafa6a911161007f578063d91cfc9511610059578063d91cfc951461043e578063f19382661461045e578063f2d756761461047e57600080fd5b8063bafa6a91146103eb578063ceda64c41461040b578063d85f74c11461042b57600080fd5b80639c219247116100b05780639c2192471461038b578063a6218810146103ab578063aa835c63146103cb57600080fd5b806384d232f51461032b5780639b23d3d91461034b5780639bc4d3541461036b57600080fd5b8063437dffd511610138578063618dc65e11610112578063618dc65e146102b3578063632da116146102d357806375a854721461030b57600080fd5b8063437dffd51461025e5780634b5c66871461027e5780634fd6ce0a1461029357600080fd5b80631ba978fc116101695780631ba978fc146101f05780632390c1fa1461021e5780632fc358f71461023e57600080fd5b80630c0295d41461018557806315dacbea146101bd575b600080fd5b34801561019157600080fd5b506101a56101a03660046120d0565b61049e565b6040516101b4939291906121eb565b60405180910390f35b3480156101c957600080fd5b506101dd6101d8366004612216565b6104cb565b60405160079190910b81526020016101b4565b3480156101fc57600080fd5b5061021061020b36600461233a565b6105bf565b6040519081526020016101b4565b34801561022a57600080fd5b506102106102393660046123d5565b61062c565b34801561024a57600080fd5b506102106102593660046123d5565b610690565b34801561026a57600080fd5b50610210610279366004612425565b6106ee565b61029161028c36600461245e565b610757565b005b34801561029f57600080fd5b506102106102ae36600461247b565b610b35565b3480156102bf57600080fd5b506102916102ce3660046124d7565b610b95565b3480156102df57600080fd5b506102f36102ee36600461251d565b610c83565b6040805192835260079190910b6020830152016101b4565b34801561031757600080fd5b50610210610326366004612216565b610cab565b34801561033757600080fd5b5061021061034636600461257f565b610d93565b34801561035757600080fd5b506101dd610366366004612216565b610df9565b34801561037757600080fd5b50610210610386366004612216565b610e3e565b34801561039757600080fd5b506102106103a6366004612425565b610f26565b3480156103b757600080fd5b506102106103c6366004612682565b610f32565b3480156103d757600080fd5b506102106103e63660046128c8565b610f90565b3480156103f757600080fd5b5061021061040636600461247b565b610fef565b34801561041757600080fd5b5061021061042636600461257f565b610ffd565b61029161043936600461245e565b61105c565b34801561044a57600080fd5b50610210610459366004612425565b6113fc565b34801561046a57600080fd5b50610210610479366004612425565b611408565b34801561048a57600080fd5b50610210610499366004612425565b611471565b60008060606104ae868686611488565b91945092509050601683146104c257600080fd5b93509350939050565b6040516001600160a01b038581166024830152848116604483015283166064820152608481018290526000908190819061016790630aed65f560e11b9060a4015b60408051601f198184030181529181526020820180516001600160e01b03166001600160e01b031990941693909317909252905161054a9190612964565b6000604051808303816000865af19150503d8060008114610587576040519150601f19603f3d011682016040523d82523d6000602084013e61058c565b606091505b50915091508161059d5760156105b1565b808060200190518101906105b19190612992565b60030b979650505050505050565b60006105cd85858585611586565b9050601681146106245760405162461bcd60e51b815260206004820152601360248201527f4e4654207472616e73666572206661696c65640000000000000000000000000060448201526064015b60405180910390fd5b949350505050565b600061063883836115b6565b90506016811461068a5760405162461bcd60e51b815260206004820152601a60248201527f546f6b656e20646973736f63696174696f6e206661696c656421000000000000604482015260640161061b565b92915050565b600061069c8383611693565b90506016811461068a5760405162461bcd60e51b815260206004820152601760248201527f546f6b656e206173736f6369617465206661696c656421000000000000000000604482015260640161061b565b60006106fa83836116bf565b5061070583836116bf565b90506016811461068a5760405162461bcd60e51b815260206004820152601960248201527f546f6b656e206173736f63696174696f6e206661696c65642100000000000000604482015260640161061b565b60408051600580825260c08201909252600091816020015b610777611f02565b81526020019060019003908161076f5790505090506107aa6000600660006040518060200160405280600081525061170e565b816000815181106107bd576107bd6129ad565b60200260200101819052506107e46001600060405180602001604052806000815250611745565b816001815181106107f7576107f76129ad565b602002602001018190525061081e6002600060405180602001604052806000815250611745565b81600281518110610831576108316129ad565b60200260200101819052506108586003600060405180602001604052806000815250611745565b8160038151811061086b5761086b6129ad565b60200260200101819052506108926004600060405180602001604052806000815250611745565b816004815181106108a5576108a56129ad565b602002602001018190525060006040518060600160405280600060070b8152602001846001600160a01b03168152602001627a120060070b81525090506000604051806101200160405280600280546108fd906129c3565b80601f0160208091040260200160405190810160405280929190818152602001828054610929906129c3565b80156109765780601f1061094b57610100808354040283529160200191610976565b820191906000526020600020905b81548152906001019060200180831161095957829003601f168201915b505050505081526020016003805461098d906129c3565b80601f01602080910402602001604051908101604052809291908181526020018280546109b9906129c3565b8015610a065780601f106109db57610100808354040283529160200191610a06565b820191906000526020600020905b8154815290600101906020018083116109e957829003601f168201915b50505050508152602001856001600160a01b0316815260200160048054610a2c906129c3565b80601f0160208091040260200160405190810160405280929190818152602001828054610a58906129c3565b8015610aa55780601f10610a7a57610100808354040283529160200191610aa5565b820191906000526020600020905b815481529060010190602001808311610a8857829003601f168201915b505050918352505060016020820152600554680100000000000000008104600790810b604084015260ff600160a01b830416151560608401526080830187905260a09092018590529192506000918291610b1b91859181900b90700100000000000000000000000000000000900460030b61177a565b909250905060168214610b2d57600080fd5b505050505050565b6000610b43858585856118a2565b9050601681146106245760405162461bcd60e51b815260206004820152601560248201527f546f6b656e207472616e73666572206661696c65640000000000000000000000604482015260640161061b565b6000806101676001600160a01b031663618dc65e60e01b8585604051602401610bbf929190612a2a565b60408051601f198184030181529181526020820180516001600160e01b03166001600160e01b0319909416939093179092529051610bfd9190612964565b6000604051808303816000865af19150503d8060008114610c3a576040519150601f19603f3d011682016040523d82523d6000602084013e610c3f565b606091505b50915091507f4af4780e06fe8cb9df64b0794fa6f01399af979175bb988e35e0e57e594567bc8282604051610c75929190612a4c565b60405180910390a150505050565b600080610c91858585611903565b909250905060168214610ca357600080fd5b935093915050565b604051630aed65f560e11b81526001600160a01b0380861660048301528085166024830152831660448201526064810182905260009030906315dacbea90608401602060405180830381600087803b158015610d0657600080fd5b505af1158015610d1a573d6000803e3d6000fd5b505050506040513d601f19601f82011682018060405250810190610d3e9190612a67565b60070b9050601681146106245760405162461bcd60e51b815260206004820152600f60248201527f5472616e73666572206661696c65640000000000000000000000000000000000604482015260640161061b565b6000610da08484846119ec565b905060168114610df25760405162461bcd60e51b815260206004820152601460248201527f4e465420617070726f76616c206661696c656421000000000000000000000000604482015260640161061b565b9392505050565b6040516001600160a01b038581166024830152848116604483015283166064820152608481018290526000908190819061016790639b23d3d960e01b9060a40161050c565b604051639b23d3d960e01b81526001600160a01b038086166004830152808516602483015283166044820152606481018290526000903090639b23d3d990608401602060405180830381600087803b158015610e9957600080fd5b505af1158015610ead573d6000803e3d6000fd5b505050506040513d601f19601f82011682018060405250810190610ed19190612a67565b60070b9050601681146106245760405162461bcd60e51b815260206004820152601360248201527f4e4654207472616e73666572206661696c656400000000000000000000000000604482015260640161061b565b60006106388383611af0565b6000610f3e8383611b3f565b90506016811461068a5760405162461bcd60e51b815260206004820152601660248201527f43727970746f207472616e73666572206661696c656400000000000000000000604482015260640161061b565b6000610f9d848484611b6b565b905060168114610df25760405162461bcd60e51b815260206004820152601560248201527f546f6b656e207472616e73666572206661696c65640000000000000000000000604482015260640161061b565b60006105cd85858585611b99565b600061100a848484611bfa565b905060168114610df25760405162461bcd60e51b815260206004820152601060248201527f417070726f76616c206661696c65642100000000000000000000000000000000604482015260640161061b565b60408051600580825260c08201909252600091816020015b61107c611f02565b8152602001906001900390816110745790505090506110af6000600660006040518060200160405280600081525061170e565b816000815181106110c2576110c26129ad565b60200260200101819052506110e96001600060405180602001604052806000815250611745565b816001815181106110fc576110fc6129ad565b60200260200101819052506111236002600060405180602001604052806000815250611745565b81600281518110611136576111366129ad565b602002602001018190525061115d6004600060405180602001604052806000815250611745565b81600381518110611170576111706129ad565b60200260200101819052506111976003600060405180602001604052806000815250611745565b816004815181106111aa576111aa6129ad565b602002602001018190525060006040518060600160405280600060070b8152602001846001600160a01b03168152602001627a120060070b8152509050600060405180610120016040528060028054611202906129c3565b80601f016020809104026020016040519081016040528092919081815260200182805461122e906129c3565b801561127b5780601f106112505761010080835404028352916020019161127b565b820191906000526020600020905b81548152906001019060200180831161125e57829003601f168201915b5050505050815260200160038054611292906129c3565b80601f01602080910402602001604051908101604052809291908181526020018280546112be906129c3565b801561130b5780601f106112e05761010080835404028352916020019161130b565b820191906000526020600020905b8154815290600101906020018083116112ee57829003601f168201915b50505050508152602001856001600160a01b0316815260200160048054611331906129c3565b80601f016020809104026020016040519081016040528092919081815260200182805461135d906129c3565b80156113aa5780601f1061137f576101008083540402835291602001916113aa565b820191906000526020600020905b81548152906001019060200180831161138d57829003601f168201915b50505091835250506001602082015260055468010000000000000000810460070b6040830152600160a01b900460ff16151560608201526080810185905260a0018390529050600080610b1b83611c50565b600061070583836116bf565b60006114148383611af0565b5061141f83836116bf565b90506016811461068a5760405162461bcd60e51b815260206004820181905260248201527f4e657374656420746f6b656e206173736f63696174696f6e206661696c656421604482015260640161061b565b600061147d8383611af0565b506106388383611af0565b60008060606000806101676001600160a01b031663e0f4059a60e01b8989896040516024016114b993929190612a84565b60408051601f198184030181529181526020820180516001600160e01b03166001600160e01b03199094169390931790925290516114f79190612964565b6000604051808303816000865af19150503d8060008114611534576040519150601f19603f3d011682016040523d82523d6000602084013e611539565b606091505b50915091508161155c576040805160008082526020820190925260159190611570565b808060200190518101906115709190612b01565b60039290920b9a90995090975095505050505050565b60008060006101676001600160a01b0316632c4ba19160e01b8888888860405160240161050c9493929190612bfa565b60008060006101676001600160a01b03166378b6391860e01b86866040516024016115e2929190612c4d565b60408051601f198184030181529181526020820180516001600160e01b03166001600160e01b03199094169390931790925290516116209190612964565b6000604051808303816000865af19150503d806000811461165d576040519150601f19603f3d011682016040523d82523d6000602084013e611662565b606091505b509150915081611673576015611687565b808060200190518101906116879190612992565b60030b95945050505050565b60008060006101676001600160a01b0316632e63879b60e01b86866040516024016115e2929190612c4d565b6040516001600160a01b0383811660248301528216604482015260009081908190610167907f49146bde00000000000000000000000000000000000000000000000000000000906064016115e2565b611716611f02565b604051806040016040528061172b8787611d72565b815260200161173a8585611dad565b905295945050505050565b61174d611f02565b604051806040016040528061176186611ec3565b81526020016117708585611dad565b9052949350505050565b600080848061010001516000015160070b60001480156117a457506101008101516040015160070b155b156117ba576101008101516276a7006040909101525b6000806101676001600160a01b031634630fb65bf360e01b8a8a8a6040516024016117e793929190612e35565b60408051601f198184030181529181526020820180516001600160e01b03166001600160e01b03199094169390931790925290516118259190612964565b60006040518083038185875af1925050503d8060008114611862576040519150601f19603f3d011682016040523d82523d6000602084013e611867565b606091505b50915091508161187a576015600061188e565b8080602001905181019061188e9190612e64565b60039190910b999098509650505050505050565b6040516001600160a01b038581166024830152848116604483015283166064820152600782900b608482015260009081908190610167907feca36917000000000000000000000000000000000000000000000000000000009060a40161050c565b6000806000806101676001600160a01b031663d6910d0660e01b88888860405160240161193293929190612e90565b60408051601f198184030181529181526020820180516001600160e01b03166001600160e01b03199094169390931790925290516119709190612964565b6000604051808303816000865af19150503d80600081146119ad576040519150601f19603f3d011682016040523d82523d6000602084013e6119b2565b606091505b5091509150816119c557601560006119d9565b808060200190518101906119d99190612ebb565b60039190910b9890975095505050505050565b6040516001600160a01b038481166024830152831660448201526064810182905260009081908190610167907f7336aaf000000000000000000000000000000000000000000000000000000000906084015b60408051601f198184030181529181526020820180516001600160e01b03166001600160e01b0319909416939093179092529051611a7c9190612964565b6000604051808303816000865af19150503d8060008114611ab9576040519150601f19603f3d011682016040523d82523d6000602084013e611abe565b606091505b509150915081611acf576015611ae3565b80806020019051810190611ae39190612992565b60030b9695505050505050565b6040516001600160a01b0383811660248301528216604482015260009081908190610167907f099794e800000000000000000000000000000000000000000000000000000000906064016115e2565b60008060006101676001600160a01b0316630e71804f60e01b86866040516024016115e2929190612f3b565b60008060006101676001600160a01b03166382bba49360e01b878787604051602401611a3e93929190613038565b6040516001600160a01b038581166024830152848116604483015283166064820152600782900b608482015260009081908190610167907f5cfc9011000000000000000000000000000000000000000000000000000000009060a40161050c565b6040516001600160a01b038481166024830152831660448201526064810182905260009081908190610167907fe1f21c670000000000000000000000000000000000000000000000000000000090608401611a3e565b600080828061010001516000015160070b6000148015611c7a57506101008101516040015160070b155b15611c90576101008101516276a7006040909101525b6000806101676001600160a01b03163463ea83f29360e01b88604051602401611cb99190613076565b60408051601f198184030181529181526020820180516001600160e01b03166001600160e01b0319909416939093179092529051611cf79190612964565b60006040518083038185875af1925050503d8060008114611d34576040519150601f19603f3d011682016040523d82523d6000602084013e611d39565b606091505b509150915081611d4c5760156000611d60565b80806020019051810190611d609190612e64565b60039190910b97909650945050505050565b6000611d96836006811115611d8957611d89613089565b600160ff9091161b821790565b9050610df2826006811115611d8957611d89613089565b611df36040518060a0016040528060001515815260200160006001600160a01b03168152602001606081526020016060815260200160006001600160a01b031681525090565b6000836004811115611e0757611e07613089565b1415611e16576001815261068a565b6001836004811115611e2a57611e2a613089565b1415611e46576000546001600160a01b0316602082015261068a565b6002836004811115611e5a57611e5a613089565b1415611e6c576040810182905261068a565b6003836004811115611e8057611e80613089565b1415611e92576060810182905261068a565b6004836004811115611ea657611ea6613089565b141561068a576000546001600160a01b0316608082015292915050565b600060016000836006811115611edb57611edb613089565b6006811115611eec57611eec613089565b8152602001908152602001600020549050919050565b604051806040016040528060008152602001611f5a6040518060a0016040528060001515815260200160006001600160a01b03168152602001606081526020016060815260200160006001600160a01b031681525090565b905290565b6001600160a01b0381168114611f7457600080fd5b50565b8060070b8114611f7457600080fd5b634e487b7160e01b600052604160045260246000fd5b6040516060810167ffffffffffffffff81118282101715611fbf57611fbf611f86565b60405290565b6040516020810167ffffffffffffffff81118282101715611fbf57611fbf611f86565b6040516080810167ffffffffffffffff81118282101715611fbf57611fbf611f86565b604051601f8201601f1916810167ffffffffffffffff8111828210171561203457612034611f86565b604052919050565b600067ffffffffffffffff82111561205657612056611f86565b5060051b60200190565b600082601f83011261207157600080fd5b813567ffffffffffffffff81111561208b5761208b611f86565b61209e601f8201601f191660200161200b565b8181528460208386010111156120b357600080fd5b816020850160208301376000918101602001919091529392505050565b6000806000606084860312156120e557600080fd5b83356120f081611f5f565b925060208481013561210181611f77565b9250604085013567ffffffffffffffff8082111561211e57600080fd5b818701915087601f83011261213257600080fd5b81356121456121408261203c565b61200b565b81815260059190911b8301840190848101908a83111561216457600080fd5b8585015b8381101561219c578035858111156121805760008081fd5b61218e8d89838a0101612060565b845250918601918601612168565b508096505050505050509250925092565b600081518084526020808501945080840160005b838110156121e057815160070b875295820195908201906001016121c1565b509495945050505050565b8381528260070b602082015260606040820152600061220d60608301846121ad565b95945050505050565b6000806000806080858703121561222c57600080fd5b843561223781611f5f565b9350602085013561224781611f5f565b9250604085013561225781611f5f565b9396929550929360600135925050565b600082601f83011261227857600080fd5b813560206122886121408361203c565b82815260059290921b840181019181810190868411156122a757600080fd5b8286015b848110156122cb5780356122be81611f5f565b83529183019183016122ab565b509695505050505050565b600082601f8301126122e757600080fd5b813560206122f76121408361203c565b82815260059290921b8401810191818101908684111561231657600080fd5b8286015b848110156122cb57803561232d81611f77565b835291830191830161231a565b6000806000806080858703121561235057600080fd5b843561235b81611f5f565b9350602085013567ffffffffffffffff8082111561237857600080fd5b61238488838901612267565b9450604087013591508082111561239a57600080fd5b6123a688838901612267565b935060608701359150808211156123bc57600080fd5b506123c9878288016122d6565b91505092959194509250565b600080604083850312156123e857600080fd5b82356123f381611f5f565b9150602083013567ffffffffffffffff81111561240f57600080fd5b61241b85828601612267565b9150509250929050565b6000806040838503121561243857600080fd5b823561244381611f5f565b9150602083013561245381611f5f565b809150509250929050565b60006020828403121561247057600080fd5b8135610df281611f5f565b6000806000806080858703121561249157600080fd5b843561249c81611f5f565b935060208501356124ac81611f5f565b925060408501356124bc81611f5f565b915060608501356124cc81611f77565b939692955090935050565b600080604083850312156124ea57600080fd5b82356124f581611f5f565b9150602083013567ffffffffffffffff81111561251157600080fd5b61241b85828601612060565b60008060006060848603121561253257600080fd5b833561253d81611f5f565b9250602084013561254d81611f77565b9150604084013567ffffffffffffffff81111561256957600080fd5b612575868287016122d6565b9150509250925092565b60008060006060848603121561259457600080fd5b833561259f81611f5f565b925060208401356125af81611f5f565b929592945050506040919091013590565b803580151581146125d057600080fd5b919050565b600082601f8301126125e657600080fd5b813560206125f66121408361203c565b8281526060928302850182019282820191908785111561261557600080fd5b8387015b858110156126755781818a0312156126315760008081fd5b612639611f9c565b813561264481611f5f565b81528186013561265381611f77565b8187015260406126648382016125c0565b908201528452928401928101612619565b5090979650505050505050565b6000806040838503121561269557600080fd5b67ffffffffffffffff80843511156126ac57600080fd5b602084358501860312156126bf57600080fd5b6126c7611fc5565b81853586013511156126d857600080fd5b6126e886863587018035016125d5565b8152925060208401358110156126fd57600080fd5b6020840135840185601f82011261271357600080fd5b612720612140823561203c565b81358082526020808301929160051b84010188101561273e57600080fd5b602083015b6020843560051b8501018110156128b957848135111561276257600080fd5b803584016060818b03601f1901121561277a57600080fd5b612782611f9c565b61278f6020830135611f5f565b6020820135815286604083013511156127a757600080fd5b6127ba8b602060408501358501016125d5565b602082015286606083013511156127d057600080fd5b6060820135820191508a603f8301126127e857600080fd5b6127f8612140602084013561203c565b602083810135808352908201919060071b84016040018d81111561281b57600080fd5b6040850194505b808510156128a3576080858f03121561283a57600080fd5b612842611fe8565b61284c8635611f5f565b8535815261285d6020870135611f5f565b602086013560208201526128746040870135611f77565b6040860135604082015261288a606087016125c0565b6060820152835260809490940193602090920191612822565b5060408301525084525060209283019201612743565b50809450505050509250929050565b6000806000606084860312156128dd57600080fd5b83356128e881611f5f565b9250602084013567ffffffffffffffff8082111561290557600080fd5b61291187838801612267565b9350604086013591508082111561292757600080fd5b50612575868287016122d6565b60005b8381101561294f578181015183820152602001612937565b8381111561295e576000848401525b50505050565b60008251612976818460208701612934565b9190910192915050565b8051600381900b81146125d057600080fd5b6000602082840312156129a457600080fd5b610df282612980565b634e487b7160e01b600052603260045260246000fd5b600181811c908216806129d757607f821691505b602082108114156129f857634e487b7160e01b600052602260045260246000fd5b50919050565b60008151808452612a16816020860160208601612934565b601f01601f19169290920160200192915050565b6001600160a01b038316815260406020820152600061062460408301846129fe565b821515815260406020820152600061062460408301846129fe565b600060208284031215612a7957600080fd5b8151610df281611f77565b6000606082016001600160a01b038616835260208560070b818501526060604085015281855180845260808601915060808160051b870101935082870160005b82811015612af257607f19888703018452612ae08683516129fe565b95509284019290840190600101612ac4565b50939998505050505050505050565b600080600060608486031215612b1657600080fd5b612b1f84612980565b9250602080850151612b3081611f77565b604086015190935067ffffffffffffffff811115612b4d57600080fd5b8501601f81018713612b5e57600080fd5b8051612b6c6121408261203c565b81815260059190911b82018301908381019089831115612b8b57600080fd5b928401925b82841015612bb2578351612ba381611f77565b82529284019290840190612b90565b80955050505050509250925092565b600081518084526020808501945080840160005b838110156121e05781516001600160a01b031687529582019590820190600101612bd5565b6001600160a01b0385168152608060208201526000612c1c6080830186612bc1565b8281036040840152612c2e8186612bc1565b90508281036060840152612c4281856121ad565b979650505050505050565b6001600160a01b03831681526040602082015260006106246040830184612bc1565b600081518084526020808501808196508360051b8101915082860160005b85811015612d265782840389528151604081518652868201519150808787015281511515818701528682015160606001600160a01b03808316828a015283850151935060a09250608083818b0152612ce860e08b01866129fe565b928601518a8403603f1901858c0152929450612d0485846129fe565b9501511660c09890980197909752505098850198935090840190600101612c8d565b5091979650505050505050565b60006101608251818552612d49828601826129fe565b91505060208301518482036020860152612d6382826129fe565b9150506040830151612d8060408601826001600160a01b03169052565b5060608301518482036060860152612d9882826129fe565b9150506080830151612dae608086018215159052565b5060a0830151612dc360a086018260070b9052565b5060c0830151612dd760c086018215159052565b5060e083015184820360e0860152612def8282612c6f565b91505061010080840151612e2b82870182805160070b82526001600160a01b036020820151166020830152604081015160070b60408301525050565b5090949350505050565b606081526000612e486060830186612d33565b90508360070b60208301528260030b6040830152949350505050565b60008060408385031215612e7757600080fd5b612e8083612980565b9150602083015161245381611f5f565b6001600160a01b03841681528260070b602082015260606040820152600061220d60608301846121ad565b60008060408385031215612ece57600080fd5b612ed783612980565b9150602083015161245381611f77565b600081518084526020808501945080840160005b838110156121e057815180516001600160a01b031688528381015160070b8489015260409081015115159088015260609096019590820190600101612efb565b600060408083526060855160208084870152612f5983870183612ee7565b9150858203818701528187518084528284019150828160051b850101838a0160005b8381101561302757601f1987840301855281516001600160a01b03808251168552878201518a89870152612fb18b870182612ee7565b928c0151868403878e01528051808552908a0193600092508a01905b808310156130115784518051851683528b81015185168c8401528e81015160070b8f8401528d015115158d830152938a019360019290920191608090910190612fcd565b5097890197955050509186019150600101612f7b565b50909b9a5050505050505050505050565b6001600160a01b038416815260606020820152600061305a6060830185612bc1565b828103604084015261306c81856121ad565b9695505050505050565b602081526000610df26020830184612d33565b634e487b7160e01b600052602160045260246000fdfea26469706673582212206ca9ce9a45fd4a8be7079b1586c38e5525eda60d9a52083a198ac876a3ed53fd64736f6c63430008090033",
  "linkReferences": {},
  "deployedLinkReferences": {}
}