{
  "_format": "hh-sol-artifact-1",
  "contractName": "EstimatePrecompileContract",
  "sourceName": "contracts/EstimatePrecompileContract.sol",
  "abi": [
    {
      "anonymous": false,
      "inputs": [
        {
          "indexed": false,
          "internalType": "bool",
          "name": "",
          "type": "bool"
        },
        {
          "indexed": false,
          "internalType": "bytes",
          "name": "",
          "type": "bytes"
        }
      ],
      "name": "CallResponseEvent",
      "type": "event"
    },
    {
      "inputs": [
        {
          "internalType": "address",
          "name": "token",
          "type": "address"
        },
        {
          "internalType": "address",
          "name": "spender",
          "type": "address"
        },
        {
          "internalType": "uint256",
          "name": "amount",
          "type": "uint256"
        }
      ],
      "name": "approveExternal",
      "outputs": [
        {
          "internalType": "int256",
          "name": "responseCode",
          "type": "int256"
        }
      ],
      "stateMutability": "nonpayable",
      "type": "function"
    },
    {
      "inputs": [
        {
          "internalType": "address",
          "name": "token",
          "type": "address"
        },
        {
          "internalType": "address",
          "name": "approved",
          "type": "address"
        },
        {
          "internalType": "uint256",
          "name": "serialNumber",
          "type": "uint256"
        }
      ],
      "name": "approveNFTExternal",
      "outputs": [
        {
          "internalType": "int256",
          "name": "responseCode",
          "type": "int256"
        }
      ],
      "stateMutability": "nonpayable",
      "type": "function"
    },
    {
      "inputs": [
        {
          "internalType": "address",
          "name": "account",
          "type": "address"
        },
        {
          "internalType": "address",
          "name": "token",
          "type": "address"
        }
      ],
      "name": "associateTokenExternal",
      "outputs": [
        {
          "internalType": "int256",
          "name": "responseCode",
          "type": "int256"
        }
      ],
      "stateMutability": "nonpayable",
      "type": "function"
    },
    {
      "inputs": [
        {
          "internalType": "address",
          "name": "account",
          "type": "address"
        },
        {
          "internalType": "address[]",
          "name": "tokens",
          "type": "address[]"
        }
      ],
      "name": "associateTokensExternal",
      "outputs": [
        {
          "internalType": "int256",
          "name": "responseCode",
          "type": "int256"
        }
      ],
      "stateMutability": "nonpayable",
      "type": "function"
    },
    {
      "inputs": [
        {
          "internalType": "address",
          "name": "token",
          "type": "address"
        },
        {
          "internalType": "int64",
          "name": "amount",
          "type": "int64"
        },
        {
          "internalType": "int64[]",
          "name": "serialNumbers",
          "type": "int64[]"
        }
      ],
      "name": "burnTokenExternal",
      "outputs": [
        {
          "internalType": "int256",
          "name": "responseCode",
          "type": "int256"
        },
        {
          "internalType": "int64",
          "name": "newTotalSupply",
          "type": "int64"
        }
      ],
      "stateMutability": "nonpayable",
      "type": "function"
    },
    {
      "inputs": [
        {
          "internalType": "address",
          "name": "treasury",
          "type": "address"
        }
      ],
      "name": "createFungibleTokenPublic",
      "outputs": [],
      "stateMutability": "payable",
      "type": "function"
    },
    {
      "inputs": [
        {
          "internalType": "address",
          "name": "treasury",
          "type": "address"
        },
        {
          "internalType": "address",
          "name": "fixedFeeTokenAddress",
          "type": "address"
        }
      ],
      "name": "createFungibleTokenWithCustomFeesPublic",
      "outputs": [],
      "stateMutability": "payable",
      "type": "function"
    },
    {
      "inputs": [
        {
          "internalType": "address",
          "name": "treasury",
          "type": "address"
        }
      ],
      "name": "createNonFungibleTokenPublic",
      "outputs": [],
      "stateMutability": "payable",
      "type": "function"
    },
    {
      "inputs": [
        {
          "internalType": "address",
          "name": "treasury",
          "type": "address"
        },
        {
          "internalType": "address",
          "name": "fixedFeeTokenAddress",
          "type": "address"
        }
      ],
      "name": "createNonFungibleTokenWithCustomFeesPublic",
      "outputs": [],
      "stateMutability": "payable",
      "type": "function"
    },
    {
      "inputs": [
        {
          "components": [
            {
              "components": [
                {
                  "internalType": "address",
                  "name": "accountID",
                  "type": "address"
                },
                {
                  "internalType": "int64",
                  "name": "amount",
                  "type": "int64"
                },
                {
                  "internalType": "bool",
                  "name": "isApproval",
                  "type": "bool"
                }
              ],
              "internalType": "struct IHederaTokenService.AccountAmount[]",
              "name": "transfers",
              "type": "tuple[]"
            }
          ],
          "internalType": "struct IHederaTokenService.TransferList",
          "name": "transferList",
          "type": "tuple"
        },
        {
          "components": [
            {
              "internalType": "address",
              "name": "token",
              "type": "address"
            },
            {
              "components": [
                {
                  "internalType": "address",
                  "name": "accountID",
                  "type": "address"
                },
                {
                  "internalType": "int64",
                  "name": "amount",
                  "type": "int64"
                },
                {
                  "internalType": "bool",
                  "name": "isApproval",
                  "type": "bool"
                }
              ],
              "internalType": "struct IHederaTokenService.AccountAmount[]",
              "name": "transfers",
              "type": "tuple[]"
            },
            {
              "components": [
                {
                  "internalType": "address",
                  "name": "senderAccountID",
                  "type": "address"
                },
                {
                  "internalType": "address",
                  "name": "receiverAccountID",
                  "type": "address"
                },
                {
                  "internalType": "int64",
                  "name": "serialNumber",
                  "type": "int64"
                },
                {
                  "internalType": "bool",
                  "name": "isApproval",
                  "type": "bool"
                }
              ],
              "internalType": "struct IHederaTokenService.NftTransfer[]",
              "name": "nftTransfers",
              "type": "tuple[]"
            }
          ],
          "internalType": "struct IHederaTokenService.TokenTransferList[]",
          "name": "tokenTransfers",
          "type": "tuple[]"
        }
      ],
      "name": "cryptoTransferExternal",
      "outputs": [
        {
          "internalType": "int256",
          "name": "responseCode",
          "type": "int256"
        }
      ],
      "stateMutability": "nonpayable",
      "type": "function"
    },
    {
      "inputs": [
        {
          "internalType": "address",
          "name": "account",
          "type": "address"
        },
        {
          "internalType": "address",
          "name": "token",
          "type": "address"
        }
      ],
      "name": "dissociateAndAssociateTokenExternal",
      "outputs": [
        {
          "internalType": "int256",
          "name": "responseCode",
          "type": "int256"
        }
      ],
      "stateMutability": "nonpayable",
      "type": "function"
    },
    {
      "inputs": [
        {
          "internalType": "address",
          "name": "account",
          "type": "address"
        },
        {
          "internalType": "address",
          "name": "token",
          "type": "address"
        }
      ],
      "name": "dissociateTokenExternal",
      "outputs": [
        {
          "internalType": "int256",
          "name": "responseCode",
          "type": "int256"
        }
      ],
      "stateMutability": "nonpayable",
      "type": "function"
    },
    {
      "inputs": [
        {
          "internalType": "address",
          "name": "account",
          "type": "address"
        },
        {
          "internalType": "address[]",
          "name": "tokens",
          "type": "address[]"
        }
      ],
      "name": "dissociateTokensExternal",
      "outputs": [
        {
          "internalType": "int256",
          "name": "responseCode",
          "type": "int256"
        }
      ],
      "stateMutability": "nonpayable",
      "type": "function"
    },
    {
      "inputs": [
        {
          "internalType": "address",
          "name": "token",
          "type": "address"
        },
        {
          "internalType": "address",
          "name": "account",
          "type": "address"
        }
      ],
      "name": "freezeTokenExternal",
      "outputs": [
        {
          "internalType": "int64",
          "name": "responseCode",
          "type": "int64"
        }
      ],
      "stateMutability": "nonpayable",
      "type": "function"
    },
    {
      "inputs": [
        {
          "internalType": "address",
          "name": "token",
          "type": "address"
        },
        {
          "internalType": "address",
          "name": "account",
          "type": "address"
        }
      ],
      "name": "freezeTokenTwiceExternal",
      "outputs": [
        {
          "internalType": "int64",
          "name": "responseCode",
          "type": "int64"
        }
      ],
      "stateMutability": "nonpayable",
      "type": "function"
    },
    {
      "inputs": [
        {
          "internalType": "address",
          "name": "token",
          "type": "address"
        },
        {
          "internalType": "address",
          "name": "account",
          "type": "address"
        }
      ],
      "name": "grantTokenKycExternal",
      "outputs": [
        {
          "internalType": "int64",
          "name": "responseCode",
          "type": "int64"
        }
      ],
      "stateMutability": "nonpayable",
      "type": "function"
    },
    {
      "inputs": [
        {
          "internalType": "address",
          "name": "token",
          "type": "address"
        },
        {
          "internalType": "address",
          "name": "account",
          "type": "address"
        }
      ],
      "name": "grantTokenKycTwiceExternal",
      "outputs": [
        {
          "internalType": "int64",
          "name": "responseCode",
          "type": "int64"
        }
      ],
      "stateMutability": "nonpayable",
      "type": "function"
    },
    {
      "inputs": [
        {
          "internalType": "address",
          "name": "token",
          "type": "address"
        },
        {
          "internalType": "int64",
          "name": "amount",
          "type": "int64"
        },
        {
          "internalType": "bytes[]",
          "name": "metadata",
          "type": "bytes[]"
        }
      ],
      "name": "mintTokenExternal",
      "outputs": [
        {
          "internalType": "int256",
          "name": "responseCode",
          "type": "int256"
        },
        {
          "internalType": "int64",
          "name": "newTotalSupply",
          "type": "int64"
        },
        {
          "internalType": "int64[]",
          "name": "serialNumbers",
          "type": "int64[]"
        }
      ],
      "stateMutability": "nonpayable",
      "type": "function"
    },
    {
      "inputs": [
        {
          "internalType": "address",
          "name": "account",
          "type": "address"
        },
        {
          "internalType": "address",
          "name": "token",
          "type": "address"
        }
      ],
      "name": "nestedAssociateTokenExternal",
      "outputs": [
        {
          "internalType": "int256",
          "name": "responseCode",
          "type": "int256"
        }
      ],
      "stateMutability": "nonpayable",
      "type": "function"
    },
    {
      "inputs": [
        {
          "internalType": "address",
          "name": "token",
          "type": "address"
        },
        {
          "internalType": "address",
          "name": "account",
          "type": "address"
        }
      ],
      "name": "nestedFreezeUnfreezeTokenExternal",
      "outputs": [
        {
          "internalType": "int64",
          "name": "responseCode",
          "type": "int64"
        }
      ],
      "stateMutability": "nonpayable",
      "type": "function"
    },
    {
      "inputs": [
        {
          "internalType": "address",
          "name": "token",
          "type": "address"
        },
        {
          "internalType": "address",
          "name": "account",
          "type": "address"
        }
      ],
      "name": "nestedGrantAndRevokeTokenKYCExternal",
      "outputs": [
        {
          "internalType": "int64",
          "name": "responseCode",
          "type": "int64"
        }
      ],
      "stateMutability": "nonpayable",
      "type": "function"
    },
    {
      "inputs": [
        {
          "internalType": "address",
          "name": "token",
          "type": "address"
        },
        {
          "internalType": "bytes",
          "name": "encodedFunctionSelector",
          "type": "bytes"
        }
      ],
      "name": "redirectForToken",
      "outputs": [],
      "stateMutability": "nonpayable",
      "type": "function"
    },
    {
      "inputs": [
        {
          "internalType": "address",
          "name": "token",
          "type": "address"
        },
        {
          "internalType": "address",
          "name": "account",
          "type": "address"
        }
      ],
      "name": "revokeTokenKycExternal",
      "outputs": [
        {
          "internalType": "int64",
          "name": "responseCode",
          "type": "int64"
        }
      ],
      "stateMutability": "nonpayable",
      "type": "function"
    },
    {
      "inputs": [
        {
          "internalType": "address",
          "name": "token",
          "type": "address"
        },
        {
          "internalType": "address",
          "name": "account",
          "type": "address"
        }
      ],
      "name": "revokeTokenKycTwiceExternal",
      "outputs": [
        {
          "internalType": "int64",
          "name": "responseCode",
          "type": "int64"
        }
      ],
      "stateMutability": "nonpayable",
      "type": "function"
    },
    {
      "inputs": [
        {
          "internalType": "address",
          "name": "token",
          "type": "address"
        },
        {
          "internalType": "address",
          "name": "account",
          "type": "address"
        },
        {
          "internalType": "bool",
          "name": "approved",
          "type": "bool"
        }
      ],
      "name": "setApprovalForAllExternal",
      "outputs": [
        {
          "internalType": "int256",
          "name": "responseCode",
          "type": "int256"
        }
      ],
      "stateMutability": "nonpayable",
      "type": "function"
    },
    {
      "inputs": [
        {
          "internalType": "address",
          "name": "token",
          "type": "address"
        },
        {
          "internalType": "address",
          "name": "from",
          "type": "address"
        },
        {
          "internalType": "address",
          "name": "to",
          "type": "address"
        },
        {
          "internalType": "uint256",
          "name": "amount",
          "type": "uint256"
        }
      ],
      "name": "transferFrom",
      "outputs": [
        {
          "internalType": "int64",
          "name": "responseCode",
          "type": "int64"
        }
      ],
      "stateMutability": "nonpayable",
      "type": "function"
    },
    {
      "inputs": [
        {
          "internalType": "address",
          "name": "token",
          "type": "address"
        },
        {
          "internalType": "address",
          "name": "from",
          "type": "address"
        },
        {
          "internalType": "address",
          "name": "to",
          "type": "address"
        },
        {
          "internalType": "uint256",
          "name": "amount",
          "type": "uint256"
        }
      ],
      "name": "transferFromExternal",
      "outputs": [
        {
          "internalType": "int256",
          "name": "responseCode",
          "type": "int256"
        }
      ],
      "stateMutability": "nonpayable",
      "type": "function"
    },
    {
      "inputs": [
        {
          "internalType": "address",
          "name": "token",
          "type": "address"
        },
        {
          "internalType": "address",
          "name": "from",
          "type": "address"
        },
        {
          "internalType": "address",
          "name": "to",
          "type": "address"
        },
        {
          "internalType": "uint256",
          "name": "serialNumber",
          "type": "uint256"
        }
      ],
      "name": "transferFromNFT",
      "outputs": [
        {
          "internalType": "int64",
          "name": "responseCode",
          "type": "int64"
        }
      ],
      "stateMutability": "nonpayable",
      "type": "function"
    },
    {
      "inputs": [
        {
          "internalType": "address",
          "name": "token",
          "type": "address"
        },
        {
          "internalType": "address",
          "name": "from",
          "type": "address"
        },
        {
          "internalType": "address",
          "name": "to",
          "type": "address"
        },
        {
          "internalType": "uint256",
          "name": "serialNumber",
          "type": "uint256"
        }
      ],
      "name": "transferFromNFTExternal",
      "outputs": [
        {
          "internalType": "int256",
          "name": "responseCode",
          "type": "int256"
        }
      ],
      "stateMutability": "nonpayable",
      "type": "function"
    },
    {
      "inputs": [
        {
          "internalType": "address",
          "name": "token",
          "type": "address"
        },
        {
          "internalType": "address",
          "name": "sender",
          "type": "address"
        },
        {
          "internalType": "address",
          "name": "receiver",
          "type": "address"
        },
        {
          "internalType": "int64",
          "name": "serialNumber",
          "type": "int64"
        }
      ],
      "name": "transferNFTExternal",
      "outputs": [
        {
          "internalType": "int256",
          "name": "responseCode",
          "type": "int256"
        }
      ],
      "stateMutability": "nonpayable",
      "type": "function"
    },
    {
      "inputs": [
        {
          "internalType": "address",
          "name": "token",
          "type": "address"
        },
        {
          "internalType": "address[]",
          "name": "sender",
          "type": "address[]"
        },
        {
          "internalType": "address[]",
          "name": "receiver",
          "type": "address[]"
        },
        {
          "internalType": "int64[]",
          "name": "serialNumber",
          "type": "int64[]"
        }
      ],
      "name": "transferNFTsExternal",
      "outputs": [
        {
          "internalType": "int256",
          "name": "responseCode",
          "type": "int256"
        }
      ],
      "stateMutability": "nonpayable",
      "type": "function"
    },
    {
      "inputs": [
        {
          "internalType": "address",
          "name": "token",
          "type": "address"
        },
        {
          "internalType": "address",
          "name": "sender",
          "type": "address"
        },
        {
          "internalType": "address",
          "name": "receiver",
          "type": "address"
        },
        {
          "internalType": "int64",
          "name": "amount",
          "type": "int64"
        }
      ],
      "name": "transferTokenExternal",
      "outputs": [
        {
          "internalType": "int256",
          "name": "responseCode",
          "type": "int256"
        }
      ],
      "stateMutability": "nonpayable",
      "type": "function"
    },
    {
      "inputs": [
        {
          "internalType": "address",
          "name": "token",
          "type": "address"
        },
        {
          "internalType": "address[]",
          "name": "accountIds",
          "type": "address[]"
        },
        {
          "internalType": "int64[]",
          "name": "amounts",
          "type": "int64[]"
        }
      ],
      "name": "transferTokensExternal",
      "outputs": [
        {
          "internalType": "int256",
          "name": "responseCode",
          "type": "int256"
        }
      ],
      "stateMutability": "nonpayable",
      "type": "function"
    },
    {
      "inputs": [
        {
          "internalType": "address",
          "name": "token",
          "type": "address"
        },
        {
          "internalType": "address",
          "name": "account",
          "type": "address"
        }
      ],
      "name": "unfreezeTokenExternal",
      "outputs": [
        {
          "internalType": "int64",
          "name": "responseCode",
          "type": "int64"
        }
      ],
      "stateMutability": "nonpayable",
      "type": "function"
    },
    {
      "inputs": [
        {
          "internalType": "address",
          "name": "token",
          "type": "address"
        },
        {
          "internalType": "address",
          "name": "account",
          "type": "address"
        },
        {
          "internalType": "int64",
          "name": "amount",
          "type": "int64"
        }
      ],
      "name": "wipeTokenAccountExternal",
      "outputs": [
        {
          "internalType": "int256",
          "name": "responseCode",
          "type": "int256"
        }
      ],
      "stateMutability": "nonpayable",
      "type": "function"
    },
    {
      "inputs": [
        {
          "internalType": "address",
          "name": "token",
          "type": "address"
        },
        {
          "internalType": "address",
          "name": "account",
          "type": "address"
        },
        {
          "internalType": "int64[]",
          "name": "serialNumbers",
          "type": "int64[]"
        }
      ],
      "name": "wipeTokenAccountNFTExternal",
      "outputs": [
        {
          "internalType": "int256",
          "name": "responseCode",
          "type": "int256"
        }
      ],
      "stateMutability": "nonpayable",
      "type": "function"
    }
  ],
  "bytecode": "0x60c06040526009608081905268746f6b656e4e616d6560b81b60a09081526200002c9160029190620001cc565b5060408051808201909152600b8082526a1d1bdad95b94de5b589bdb60aa1b60209092019182526200006191600391620001cc565b50604080518082019091526004808252636d656d6f60e01b60209092019182526200008d9181620001cc565b50600580546001600160a81b031916700800000000000003e800000000000003e8179055348015620000be57600080fd5b50600160208181527fa6eef7e35abe7026729641147f7915573c7e97b47efa546f5f6e3230263bcb499190915560027fcc69885fda6bcc1a4ace058b4a62bf5e179ea78fd58a1ccd71c22cc9b688792f5560047fd9d16d34ffb15ba3a3d852f0d403e2ce1d691fb54de27ac87cd2f993f3ec330f5560087f7dfe757ecd65cbd7922a9c0161e935dd7fdbcc0e999689c7d31633896b1fc60b5560107fedc95719e9a3b28dd8e80877cb5880a9be7de1a13fc8b05e7999683b6b567643557fe2689cd4a84e23ad2f564004f1c9013e9589d260bde6380aba3ca7e09e4df40c55600660005260407f8f331abe73332f95a25873e8b430885974c0409691f89d643119a11623a7924a55620002af565b828054620001da9062000272565b90600052602060002090601f016020900481019282620001fe576000855562000249565b82601f106200021957805160ff191683800117855562000249565b8280016001018555821562000249579182015b82811115620002495782518255916020019190600101906200022c565b50620002579291506200025b565b5090565b5b808211156200025757600081556001016200025c565b600181811c908216806200028757607f821691505b60208210811415620002a957634e487b7160e01b600052602260045260246000fd5b50919050565b6143ef80620002bf6000396000f3fe60806040526004361061024f5760003560e01c806375a8547211610138578063aa835c63116100b0578063d91cfc951161007f578063e95a71e511610064578063e95a71e51461068f578063ec4ca639146106af578063f1938266146106cf57600080fd5b8063d91cfc951461064f578063e31b839c1461066f57600080fd5b8063aa835c63146105dc578063bafa6a91146105fc578063ceda64c41461061c578063d85f74c11461063c57600080fd5b80639333700b116101075780639bc4d354116100ec5780639bc4d3541461057c5780639c2192471461059c578063a6218810146105bc57600080fd5b80639333700b1461053c5780639b23d3d91461055c57600080fd5b806375a85472146104c957806384d232f5146104e95780638ba74da014610509578063901fe3d01461051c57600080fd5b80632fc358f7116101cb5780634fd6ce0a1161019a5780635ac4fef81161017f5780635ac4fef814610451578063618dc65e14610471578063632da1161461049157600080fd5b80634fd6ce0a1461041157806352205b331461043157600080fd5b80632fc358f71461039e578063437dffd5146103be5780634b5c6687146103de5780634c09c804146103f157600080fd5b806315dacbea116102225780631ba978fc116102075780631ba978fc146103305780632390c1fa1461035e578063282418a31461037e57600080fd5b806315dacbea146102f057806317f96caa1461031057600080fd5b80630488c9391461025457806306a1a5d3146102695780630c0295d4146102a157806315533c95146102d0575b600080fd5b610267610262366004612fb7565b6106ef565b005b34801561027557600080fd5b50610289610284366004612fb7565b610c2b565b60405160079190910b81526020015b60405180910390f35b3480156102ad57600080fd5b506102c16102bc366004613149565b610c5b565b60405161029893929190613264565b3480156102dc57600080fd5b506102896102eb366004612fb7565b610c88565b3480156102fc57600080fd5b5061028961030b36600461328f565b610c9f565b34801561031c57600080fd5b5061028961032b366004612fb7565b610d93565b34801561033c57600080fd5b5061035061034b3660046133b3565b610daa565b604051908152602001610298565b34801561036a57600080fd5b5061035061037936600461344e565b610e17565b34801561038a57600080fd5b50610289610399366004612fb7565b610e75565b3480156103aa57600080fd5b506103506103b936600461344e565b610e81565b3480156103ca57600080fd5b506103506103d9366004612fb7565b610edf565b6102676103ec36600461349e565b610f48565b3480156103fd57600080fd5b5061035061040c3660046134bb565b611326565b34801561041d57600080fd5b5061035061042c36600461351d565b611349565b34801561043d57600080fd5b5061028961044c366004612fb7565b6113a9565b34801561045d57600080fd5b5061035061046c366004613579565b6113b5565b34801561047d57600080fd5b5061026761048c3660046135c4565b6113c2565b34801561049d57600080fd5b506104b16104ac36600461360a565b6114b0565b6040805192835260079190910b602083015201610298565b3480156104d557600080fd5b506103506104e436600461328f565b6114d8565b3480156104f557600080fd5b5061035061050436600461363a565b6115c0565b610267610517366004612fb7565b61161f565b34801561052857600080fd5b50610289610537366004612fb7565b611a53565b34801561054857600080fd5b50610289610557366004612fb7565b611a6a565b34801561056857600080fd5b5061028961057736600461328f565b611a76565b34801561058857600080fd5b5061035061059736600461328f565b611abb565b3480156105a857600080fd5b506103506105b7366004612fb7565b611ba3565b3480156105c857600080fd5b506103506105d736600461373d565b611baf565b3480156105e857600080fd5b506103506105f7366004613983565b611c0d565b34801561060857600080fd5b5061035061061736600461351d565b611c6c565b34801561062857600080fd5b5061035061063736600461363a565b611c7a565b61026761064a36600461349e565b611cd9565b34801561065b57600080fd5b5061035061066a366004612fb7565b612079565b34801561067b57600080fd5b5061035061068a3660046139ef565b612085565b34801561069b57600080fd5b506102896106aa366004612fb7565b612092565b3480156106bb57600080fd5b506102896106ca366004612fb7565b61209e565b3480156106db57600080fd5b506103506106ea366004612fb7565b6120aa565b60408051600580825260c08201909252600091816020015b61070f612f42565b81526020019060019003908161070757905050905061074260006006600060405180602001604052806000815250612113565b8160008151811061075557610755613a36565b602002602001018190525061077c600160006040518060200160405280600081525061214a565b8160018151811061078f5761078f613a36565b60200260200101819052506107b6600260006040518060200160405280600081525061214a565b816002815181106107c9576107c9613a36565b60200260200101819052506107f0600460006040518060200160405280600081525061214a565b8160038151811061080357610803613a36565b602002602001018190525061082a600360006040518060200160405280600081525061214a565b8160048151811061083d5761083d613a36565b602002602001018190525060006040518060600160405280600060070b8152602001856001600160a01b03168152602001627a120060070b815250905060006040518061012001604052806002805461089590613a4c565b80601f01602080910402602001604051908101604052809291908181526020018280546108c190613a4c565b801561090e5780601f106108e35761010080835404028352916020019161090e565b820191906000526020600020905b8154815290600101906020018083116108f157829003601f168201915b505050505081526020016003805461092590613a4c565b80601f016020809104026020016040519081016040528092919081815260200182805461095190613a4c565b801561099e5780601f106109735761010080835404028352916020019161099e565b820191906000526020600020905b81548152906001019060200180831161098157829003601f168201915b50505050508152602001866001600160a01b03168152602001600480546109c490613a4c565b80601f01602080910402602001604051908101604052809291908181526020018280546109f090613a4c565b8015610a3d5780601f10610a1257610100808354040283529160200191610a3d565b820191906000526020600020905b815481529060010190602001808311610a2057829003601f168201915b505050918352505060016020820181905260055468010000000000000000810460070b6040840152600160a01b900460ff16151560608301526080820186905260a0909101849052909150600090604051908082528060200260200182016040528015610ae457816020015b6040805160a081018252600080825260208083018290529282018190526060820181905260808201528252600019909201910181610aa95790505b506040805160a081018252600181526001600160a01b03808916602083015260009282018390526060820183905289166080820152825192935091839190610b2e57610b2e613a36565b6020908102919091010152604080516001808252818301909252600091816020015b6040805160c08101825260008082526020808301829052928201819052606082018190526080820181905260a08201528252600019909201910181610b505790505090506040518060c00160405280600460070b8152602001600560070b8152602001600a60070b8152602001876001600160a01b03168152602001600015158152602001886001600160a01b031681525081600081518110610bf557610bf5613a36565b6020026020010181905250600080610c0e85858561217f565b909250905060168214610c2057600080fd5b505050505050505050565b6000610c3783836122a7565b50610c4283836123a3565b9050600781900b601614610c5557600080fd5b92915050565b6000806060610c6b8686866123f2565b9194509250905060168314610c7f57600080fd5b93509350939050565b6000610c9483836122a7565b50610c4283836122a7565b6040516001600160a01b038581166024830152848116604483015283166064820152608481018290526000908190819061016790630aed65f560e11b9060a4015b60408051601f198184030181529181526020820180516001600160e01b03166001600160e01b0319909416939093179092529051610d1e9190613ab7565b6000604051808303816000865af19150503d8060008114610d5b576040519150601f19603f3d011682016040523d82523d6000602084013e610d60565b606091505b509150915081610d71576015610d85565b80806020019051810190610d859190613ae5565b60030b979650505050505050565b6000610d9f83836124f0565b50610c4283836124f0565b6000610db88585858561253f565b905060168114610e0f5760405162461bcd60e51b815260206004820152601360248201527f4e4654207472616e73666572206661696c65640000000000000000000000000060448201526064015b60405180910390fd5b949350505050565b6000610e23838361256f565b905060168114610c555760405162461bcd60e51b815260206004820152601a60248201527f546f6b656e20646973736f63696174696f6e206661696c6564210000000000006044820152606401610e06565b6000610c3783836123a3565b6000610e8d838361259b565b905060168114610c555760405162461bcd60e51b815260206004820152601760248201527f546f6b656e206173736f6369617465206661696c6564210000000000000000006044820152606401610e06565b6000610eeb83836125c7565b50610ef683836125c7565b905060168114610c555760405162461bcd60e51b815260206004820152601960248201527f546f6b656e206173736f63696174696f6e206661696c656421000000000000006044820152606401610e06565b60408051600580825260c08201909252600091816020015b610f68612f42565b815260200190600190039081610f60579050509050610f9b60006006600060405180602001604052806000815250612113565b81600081518110610fae57610fae613a36565b6020026020010181905250610fd5600160006040518060200160405280600081525061214a565b81600181518110610fe857610fe8613a36565b602002602001018190525061100f600260006040518060200160405280600081525061214a565b8160028151811061102257611022613a36565b6020026020010181905250611049600360006040518060200160405280600081525061214a565b8160038151811061105c5761105c613a36565b6020026020010181905250611083600460006040518060200160405280600081525061214a565b8160048151811061109657611096613a36565b602002602001018190525060006040518060600160405280600060070b8152602001846001600160a01b03168152602001627a120060070b81525090506000604051806101200160405280600280546110ee90613a4c565b80601f016020809104026020016040519081016040528092919081815260200182805461111a90613a4c565b80156111675780601f1061113c57610100808354040283529160200191611167565b820191906000526020600020905b81548152906001019060200180831161114a57829003601f168201915b505050505081526020016003805461117e90613a4c565b80601f01602080910402602001604051908101604052809291908181526020018280546111aa90613a4c565b80156111f75780601f106111cc576101008083540402835291602001916111f7565b820191906000526020600020905b8154815290600101906020018083116111da57829003601f168201915b50505050508152602001856001600160a01b031681526020016004805461121d90613a4c565b80601f016020809104026020016040519081016040528092919081815260200182805461124990613a4c565b80156112965780601f1061126b57610100808354040283529160200191611296565b820191906000526020600020905b81548152906001019060200180831161127957829003601f168201915b505050918352505060016020820152600554680100000000000000008104600790810b604084015260ff600160a01b830416151560608401526080830187905260a0909201859052919250600091829161130c91859181900b90700100000000000000000000000000000000900460030b612616565b90925090506016821461131e57600080fd5b505050505050565b6000611333848484612683565b90506016811461134257600080fd5b9392505050565b600061135785858585612763565b905060168114610e0f5760405162461bcd60e51b815260206004820152601560248201527f546f6b656e207472616e73666572206661696c656400000000000000000000006044820152606401610e06565b6000610c4283836123a3565b60006113338484846127c4565b6000806101676001600160a01b031663618dc65e60e01b85856040516024016113ec929190613b2c565b60408051601f198184030181529181526020820180516001600160e01b03166001600160e01b031990941693909317909252905161142a9190613ab7565b6000604051808303816000865af19150503d8060008114611467576040519150601f19603f3d011682016040523d82523d6000602084013e61146c565b606091505b50915091507f4af4780e06fe8cb9df64b0794fa6f01399af979175bb988e35e0e57e594567bc82826040516114a2929190613b4e565b60405180910390a150505050565b6000806114be85858561281d565b9092509050601682146114d057600080fd5b935093915050565b604051630aed65f560e11b81526001600160a01b0380861660048301528085166024830152831660448201526064810182905260009030906315dacbea90608401602060405180830381600087803b15801561153357600080fd5b505af1158015611547573d6000803e3d6000fd5b505050506040513d601f19601f8201168201806040525081019061156b9190613b69565b60070b905060168114610e0f5760405162461bcd60e51b815260206004820152600f60248201527f5472616e73666572206661696c656400000000000000000000000000000000006044820152606401610e06565b60006115cd848484612906565b9050601681146113425760405162461bcd60e51b815260206004820152601460248201527f4e465420617070726f76616c206661696c6564210000000000000000000000006044820152606401610e06565b604080516001808252818301909252600091816020015b61163e612f42565b815260200190600190039081611636579050509050611670600080600060405180602001604052806000815250612113565b8160008151811061168357611683613a36565b602002602001018190525060006040518060600160405280600060070b8152602001856001600160a01b03168152602001627a120060070b81525090506000604051806101200160405280600280546116db90613a4c565b80601f016020809104026020016040519081016040528092919081815260200182805461170790613a4c565b80156117545780601f1061172957610100808354040283529160200191611754565b820191906000526020600020905b81548152906001019060200180831161173757829003601f168201915b505050505081526020016003805461176b90613a4c565b80601f016020809104026020016040519081016040528092919081815260200182805461179790613a4c565b80156117e45780601f106117b9576101008083540402835291602001916117e4565b820191906000526020600020905b8154815290600101906020018083116117c757829003601f168201915b50505050508152602001866001600160a01b031681526020016004805461180a90613a4c565b80601f016020809104026020016040519081016040528092919081815260200182805461183690613a4c565b80156118835780601f1061185857610100808354040283529160200191611883565b820191906000526020600020905b81548152906001019060200180831161186657829003601f168201915b505050918352505060016020820181905260055468010000000000000000900460070b6040808401919091526000606084018190526080840188905260a09093018690528051828152808201909152929350909190816020015b6040805160a0810182526000808252602080830182905292820181905260608201819052608082015282526000199092019101816118dd5750506040805160a081018252600181526001600160a01b0388811660208301526000928201839052606082018390528916608082015282519293509183919061196057611960613a36565b6020908102919091010152604080516001808252818301909252600091816020015b6040805160c08101825260008082526020808301829052928201819052606082018190526080820181905260a082015282526000199092019101816119825750506040805160c0810182526004815260056020820152600a91810191909152601e60608201526000608082018190526001600160a01b038a1660a083015282519293509091839190611a1657611a16613a36565b60209081029190910101526005546000908190610c0e908690600781900b90700100000000000000000000000000000000900460030b878761295c565b6000611a5f83836124f0565b50610c428383612a8a565b6000610c4283836124f0565b6040516001600160a01b038581166024830152848116604483015283166064820152608481018290526000908190819061016790639b23d3d960e01b9060a401610ce0565b604051639b23d3d960e01b81526001600160a01b038086166004830152808516602483015283166044820152606481018290526000903090639b23d3d990608401602060405180830381600087803b158015611b1657600080fd5b505af1158015611b2a573d6000803e3d6000fd5b505050506040513d601f19601f82011682018060405250810190611b4e9190613b69565b60070b905060168114610e0f5760405162461bcd60e51b815260206004820152601360248201527f4e4654207472616e73666572206661696c6564000000000000000000000000006044820152606401610e06565b6000610e238383612ad9565b6000611bbb8383612b28565b905060168114610c555760405162461bcd60e51b815260206004820152601660248201527f43727970746f207472616e73666572206661696c6564000000000000000000006044820152606401610e06565b6000611c1a848484612b54565b9050601681146113425760405162461bcd60e51b815260206004820152601560248201527f546f6b656e207472616e73666572206661696c656400000000000000000000006044820152606401610e06565b6000610db885858585612b82565b6000611c87848484612be3565b9050601681146113425760405162461bcd60e51b815260206004820152601060248201527f417070726f76616c206661696c656421000000000000000000000000000000006044820152606401610e06565b60408051600580825260c08201909252600091816020015b611cf9612f42565b815260200190600190039081611cf1579050509050611d2c60006006600060405180602001604052806000815250612113565b81600081518110611d3f57611d3f613a36565b6020026020010181905250611d66600160006040518060200160405280600081525061214a565b81600181518110611d7957611d79613a36565b6020026020010181905250611da0600260006040518060200160405280600081525061214a565b81600281518110611db357611db3613a36565b6020026020010181905250611dda600460006040518060200160405280600081525061214a565b81600381518110611ded57611ded613a36565b6020026020010181905250611e14600360006040518060200160405280600081525061214a565b81600481518110611e2757611e27613a36565b602002602001018190525060006040518060600160405280600060070b8152602001846001600160a01b03168152602001627a120060070b8152509050600060405180610120016040528060028054611e7f90613a4c565b80601f0160208091040260200160405190810160405280929190818152602001828054611eab90613a4c565b8015611ef85780601f10611ecd57610100808354040283529160200191611ef8565b820191906000526020600020905b815481529060010190602001808311611edb57829003601f168201915b5050505050815260200160038054611f0f90613a4c565b80601f0160208091040260200160405190810160405280929190818152602001828054611f3b90613a4c565b8015611f885780601f10611f5d57610100808354040283529160200191611f88565b820191906000526020600020905b815481529060010190602001808311611f6b57829003601f168201915b50505050508152602001856001600160a01b0316815260200160048054611fae90613a4c565b80601f0160208091040260200160405190810160405280929190818152602001828054611fda90613a4c565b80156120275780601f10611ffc57610100808354040283529160200191612027565b820191906000526020600020905b81548152906001019060200180831161200a57829003601f168201915b50505091835250506001602082015260055468010000000000000000810460070b6040830152600160a01b900460ff16151560608201526080810185905260a001839052905060008061130c83612c39565b6000610ef683836125c7565b6000611333848484612d5b565b6000610c428383612a8a565b6000610c4283836122a7565b60006120b68383612ad9565b506120c183836125c7565b905060168114610c555760405162461bcd60e51b815260206004820181905260248201527f4e657374656420746f6b656e206173736f63696174696f6e206661696c6564216044820152606401610e06565b61211b612f42565b60405180604001604052806121308787612db2565b815260200161213f8585612ded565b905295945050505050565b612152612f42565b604051806040016040528061216686612f03565b81526020016121758585612ded565b9052949350505050565b600080848061010001516000015160070b60001480156121a957506101008101516040015160070b155b156121bf576101008101516276a7006040909101525b6000806101676001600160a01b03163463abb54eb560e01b8a8a8a6040516024016121ec93929190613db9565b60408051601f198184030181529181526020820180516001600160e01b03166001600160e01b031990941693909317909252905161222a9190613ab7565b60006040518083038185875af1925050503d8060008114612267576040519150601f19603f3d011682016040523d82523d6000602084013e61226c565b606091505b50915091508161227f5760156000612293565b808060200190518101906122939190613e70565b60039190910b999098509650505050505050565b6040516001600160a01b0383811660248301528216604482015260009081908190610167907f8f8d7f9900000000000000000000000000000000000000000000000000000000906064015b60408051601f198184030181529181526020820180516001600160e01b03166001600160e01b03199094169390931790925290516123309190613ab7565b6000604051808303816000865af19150503d806000811461236d576040519150601f19603f3d011682016040523d82523d6000602084013e612372565b606091505b509150915081612383576015612397565b808060200190518101906123979190613ae5565b60030b95945050505050565b6040516001600160a01b0383811660248301528216604482015260009081908190610167907faf99c63300000000000000000000000000000000000000000000000000000000906064016122f2565b60008060606000806101676001600160a01b031663e0f4059a60e01b89898960405160240161242393929190613e9c565b60408051601f198184030181529181526020820180516001600160e01b03166001600160e01b03199094169390931790925290516124619190613ab7565b6000604051808303816000865af19150503d806000811461249e576040519150601f19603f3d011682016040523d82523d6000602084013e6124a3565b606091505b5091509150816124c65760408051600080825260208201909252601591906124da565b808060200190518101906124da9190613f19565b60039290920b9a90995090975095505050505050565b6040516001600160a01b0383811660248301528216604482015260009081908190610167907f5b8f858400000000000000000000000000000000000000000000000000000000906064016122f2565b60008060006101676001600160a01b0316632c4ba19160e01b88888888604051602401610ce09493929190614012565b60008060006101676001600160a01b03166378b6391860e01b86866040516024016122f2929190614065565b60008060006101676001600160a01b0316632e63879b60e01b86866040516024016122f2929190614065565b6040516001600160a01b0383811660248301528216604482015260009081908190610167907f49146bde00000000000000000000000000000000000000000000000000000000906064016122f2565b600080848061010001516000015160070b600014801561264057506101008101516040015160070b155b15612656576101008101516276a7006040909101525b6000806101676001600160a01b031634630fb65bf360e01b8a8a8a6040516024016121ec93929190614087565b60008060006101676001600160a01b031663f7f38e2660e01b8787876040516024016126b1939291906140b6565b60408051601f198184030181529181526020820180516001600160e01b03166001600160e01b03199094169390931790925290516126ef9190613ab7565b6000604051808303816000865af19150503d806000811461272c576040519150601f19603f3d011682016040523d82523d6000602084013e612731565b606091505b509150915081612742576015612756565b808060200190518101906127569190613ae5565b60030b9695505050505050565b6040516001600160a01b038581166024830152848116604483015283166064820152600782900b608482015260009081908190610167907feca36917000000000000000000000000000000000000000000000000000000009060a401610ce0565b6040516001600160a01b03848116602483015283166044820152600782900b606482015260009081908190610167907fefef57f900000000000000000000000000000000000000000000000000000000906084016126b1565b6000806000806101676001600160a01b031663d6910d0660e01b88888860405160240161284c939291906140e2565b60408051601f198184030181529181526020820180516001600160e01b03166001600160e01b031990941693909317909252905161288a9190613ab7565b6000604051808303816000865af19150503d80600081146128c7576040519150601f19603f3d011682016040523d82523d6000602084013e6128cc565b606091505b5091509150816128df57601560006128f3565b808060200190518101906128f3919061410d565b60039190910b9890975095505050505050565b6040516001600160a01b038481166024830152831660448201526064810182905260009081908190610167907f7336aaf000000000000000000000000000000000000000000000000000000000906084016126b1565b600080868061010001516000015160070b600014801561298657506101008101516040015160070b155b1561299c576101008101516276a7006040909101525b6000806101676001600160a01b031634632af0c59a60e01b8c8c8c8c8c6040516024016129cd959493929190614139565b60408051601f198184030181529181526020820180516001600160e01b03166001600160e01b0319909416939093179092529051612a0b9190613ab7565b60006040518083038185875af1925050503d8060008114612a48576040519150601f19603f3d011682016040523d82523d6000602084013e612a4d565b606091505b509150915081612a605760156000612a74565b80806020019051810190612a749190613e70565b60039190910b9b909a5098505050505050505050565b6040516001600160a01b0383811660248301528216604482015260009081908190610167907f52f9138700000000000000000000000000000000000000000000000000000000906064016122f2565b6040516001600160a01b0383811660248301528216604482015260009081908190610167907f099794e800000000000000000000000000000000000000000000000000000000906064016122f2565b60008060006101676001600160a01b0316630e71804f60e01b86866040516024016122f2929190614255565b60008060006101676001600160a01b03166382bba49360e01b8787876040516024016126b193929190614352565b6040516001600160a01b038581166024830152848116604483015283166064820152600782900b608482015260009081908190610167907f5cfc9011000000000000000000000000000000000000000000000000000000009060a401610ce0565b6040516001600160a01b038481166024830152831660448201526064810182905260009081908190610167907fe1f21c6700000000000000000000000000000000000000000000000000000000906084016126b1565b600080828061010001516000015160070b6000148015612c6357506101008101516040015160070b155b15612c79576101008101516276a7006040909101525b6000806101676001600160a01b03163463ea83f29360e01b88604051602401612ca29190614390565b60408051601f198184030181529181526020820180516001600160e01b03166001600160e01b0319909416939093179092529051612ce09190613ab7565b60006040518083038185875af1925050503d8060008114612d1d576040519150601f19603f3d011682016040523d82523d6000602084013e612d22565b606091505b509150915081612d355760156000612d49565b80806020019051810190612d499190613e70565b60039190910b97909650945050505050565b6040516001600160a01b03848116602483015283166044820152811515606482015260009081908190610167907f367605ca00000000000000000000000000000000000000000000000000000000906084016126b1565b6000612dd6836006811115612dc957612dc96143a3565b600160ff9091161b821790565b9050611342826006811115612dc957612dc96143a3565b612e336040518060a0016040528060001515815260200160006001600160a01b03168152602001606081526020016060815260200160006001600160a01b031681525090565b6000836004811115612e4757612e476143a3565b1415612e565760018152610c55565b6001836004811115612e6a57612e6a6143a3565b1415612e86576000546001600160a01b03166020820152610c55565b6002836004811115612e9a57612e9a6143a3565b1415612eac5760408101829052610c55565b6003836004811115612ec057612ec06143a3565b1415612ed25760608101829052610c55565b6004836004811115612ee657612ee66143a3565b1415610c55576000546001600160a01b0316608082015292915050565b600060016000836006811115612f1b57612f1b6143a3565b6006811115612f2c57612f2c6143a3565b8152602001908152602001600020549050919050565b604051806040016040528060008152602001612f9a6040518060a0016040528060001515815260200160006001600160a01b03168152602001606081526020016060815260200160006001600160a01b031681525090565b905290565b6001600160a01b0381168114612fb457600080fd5b50565b60008060408385031215612fca57600080fd5b8235612fd581612f9f565b91506020830135612fe581612f9f565b809150509250929050565b8060070b8114612fb457600080fd5b634e487b7160e01b600052604160045260246000fd5b6040516060810167ffffffffffffffff8111828210171561303857613038612fff565b60405290565b6040516020810167ffffffffffffffff8111828210171561303857613038612fff565b6040516080810167ffffffffffffffff8111828210171561303857613038612fff565b604051601f8201601f1916810167ffffffffffffffff811182821017156130ad576130ad612fff565b604052919050565b600067ffffffffffffffff8211156130cf576130cf612fff565b5060051b60200190565b600082601f8301126130ea57600080fd5b813567ffffffffffffffff81111561310457613104612fff565b613117601f8201601f1916602001613084565b81815284602083860101111561312c57600080fd5b816020850160208301376000918101602001919091529392505050565b60008060006060848603121561315e57600080fd5b833561316981612f9f565b925060208481013561317a81612ff0565b9250604085013567ffffffffffffffff8082111561319757600080fd5b818701915087601f8301126131ab57600080fd5b81356131be6131b9826130b5565b613084565b81815260059190911b8301840190848101908a8311156131dd57600080fd5b8585015b83811015613215578035858111156131f95760008081fd5b6132078d89838a01016130d9565b8452509186019186016131e1565b508096505050505050509250925092565b600081518084526020808501945080840160005b8381101561325957815160070b8752958201959082019060010161323a565b509495945050505050565b8381528260070b60208201526060604082015260006132866060830184613226565b95945050505050565b600080600080608085870312156132a557600080fd5b84356132b081612f9f565b935060208501356132c081612f9f565b925060408501356132d081612f9f565b9396929550929360600135925050565b600082601f8301126132f157600080fd5b813560206133016131b9836130b5565b82815260059290921b8401810191818101908684111561332057600080fd5b8286015b8481101561334457803561333781612f9f565b8352918301918301613324565b509695505050505050565b600082601f83011261336057600080fd5b813560206133706131b9836130b5565b82815260059290921b8401810191818101908684111561338f57600080fd5b8286015b848110156133445780356133a681612ff0565b8352918301918301613393565b600080600080608085870312156133c957600080fd5b84356133d481612f9f565b9350602085013567ffffffffffffffff808211156133f157600080fd5b6133fd888389016132e0565b9450604087013591508082111561341357600080fd5b61341f888389016132e0565b9350606087013591508082111561343557600080fd5b506134428782880161334f565b91505092959194509250565b6000806040838503121561346157600080fd5b823561346c81612f9f565b9150602083013567ffffffffffffffff81111561348857600080fd5b613494858286016132e0565b9150509250929050565b6000602082840312156134b057600080fd5b813561134281612f9f565b6000806000606084860312156134d057600080fd5b83356134db81612f9f565b925060208401356134eb81612f9f565b9150604084013567ffffffffffffffff81111561350757600080fd5b6135138682870161334f565b9150509250925092565b6000806000806080858703121561353357600080fd5b843561353e81612f9f565b9350602085013561354e81612f9f565b9250604085013561355e81612f9f565b9150606085013561356e81612ff0565b939692955090935050565b60008060006060848603121561358e57600080fd5b833561359981612f9f565b925060208401356135a981612f9f565b915060408401356135b981612ff0565b809150509250925092565b600080604083850312156135d757600080fd5b82356135e281612f9f565b9150602083013567ffffffffffffffff8111156135fe57600080fd5b613494858286016130d9565b60008060006060848603121561361f57600080fd5b833561362a81612f9f565b925060208401356134eb81612ff0565b60008060006060848603121561364f57600080fd5b833561365a81612f9f565b9250602084013561366a81612f9f565b929592945050506040919091013590565b8035801515811461368b57600080fd5b919050565b600082601f8301126136a157600080fd5b813560206136b16131b9836130b5565b828152606092830285018201928282019190878511156136d057600080fd5b8387015b858110156137305781818a0312156136ec5760008081fd5b6136f4613015565b81356136ff81612f9f565b81528186013561370e81612ff0565b81870152604061371f83820161367b565b9082015284529284019281016136d4565b5090979650505050505050565b6000806040838503121561375057600080fd5b67ffffffffffffffff808435111561376757600080fd5b6020843585018603121561377a57600080fd5b61378261303e565b818535860135111561379357600080fd5b6137a38686358701803501613690565b8152925060208401358110156137b857600080fd5b6020840135840185601f8201126137ce57600080fd5b6137db6131b982356130b5565b81358082526020808301929160051b8401018810156137f957600080fd5b602083015b6020843560051b85010181101561397457848135111561381d57600080fd5b803584016060818b03601f1901121561383557600080fd5b61383d613015565b61384a6020830135612f9f565b60208201358152866040830135111561386257600080fd5b6138758b60206040850135850101613690565b6020820152866060830135111561388b57600080fd5b6060820135820191508a603f8301126138a357600080fd5b6138b36131b960208401356130b5565b602083810135808352908201919060071b84016040018d8111156138d657600080fd5b6040850194505b8085101561395e576080858f0312156138f557600080fd5b6138fd613061565b6139078635612f9f565b853581526139186020870135612f9f565b6020860135602082015261392f6040870135612ff0565b604086013560408201526139456060870161367b565b60608201528352608094909401936020909201916138dd565b50604083015250845250602092830192016137fe565b50809450505050509250929050565b60008060006060848603121561399857600080fd5b83356139a381612f9f565b9250602084013567ffffffffffffffff808211156139c057600080fd5b6139cc878388016132e0565b935060408601359150808211156139e257600080fd5b506135138682870161334f565b600080600060608486031215613a0457600080fd5b8335613a0f81612f9f565b92506020840135613a1f81612f9f565b9150613a2d6040850161367b565b90509250925092565b634e487b7160e01b600052603260045260246000fd5b600181811c90821680613a6057607f821691505b60208210811415613a8157634e487b7160e01b600052602260045260246000fd5b50919050565b60005b83811015613aa2578181015183820152602001613a8a565b83811115613ab1576000848401525b50505050565b60008251613ac9818460208701613a87565b9190910192915050565b8051600381900b811461368b57600080fd5b600060208284031215613af757600080fd5b61134282613ad3565b60008151808452613b18816020860160208601613a87565b601f01601f19169290920160200192915050565b6001600160a01b0383168152604060208201526000610e0f6040830184613b00565b8215158152604060208201526000610e0f6040830184613b00565b600060208284031215613b7b57600080fd5b815161134281612ff0565b600081518084526020808501808196508360051b8101915082860160005b85811015613c3d5782840389528151604081518652868201519150808787015281511515818701528682015160606001600160a01b03808316828a015283850151935060a09250608083818b0152613bff60e08b0186613b00565b928601518a8403603f1901858c0152929450613c1b8584613b00565b9501511660c09890980197909752505098850198935090840190600101613ba4565b5091979650505050505050565b60006101608251818552613c6082860182613b00565b91505060208301518482036020860152613c7a8282613b00565b9150506040830151613c9760408601826001600160a01b03169052565b5060608301518482036060860152613caf8282613b00565b9150506080830151613cc5608086018215159052565b5060a0830151613cda60a086018260070b9052565b5060c0830151613cee60c086018215159052565b5060e083015184820360e0860152613d068282613b86565b91505061010080840151613d4282870182805160070b82526001600160a01b036020820151166020830152604081015160070b60408301525050565b5090949350505050565b600081518084526020808501945080840160005b83811015613259578151805160070b8852838101516001600160a01b03908116858a01526040808301511515908a01526060808301511515908a0152608091820151169088015260a09096019590820190600101613d60565b60006060808352613dcc81840187613c4a565b602084820381860152613ddf8288613d4c565b91506040858303818701528287518085528385019150838901945060005b81811015613e605785518051600790810b855286820151810b8786015285820151900b85850152878101516001600160a01b039081168986015260808083015115159086015260a09182015116908401529484019460c090920191600101613dfd565b50909a9950505050505050505050565b60008060408385031215613e8357600080fd5b613e8c83613ad3565b91506020830151612fe581612f9f565b6000606082016001600160a01b038616835260208560070b818501526060604085015281855180845260808601915060808160051b870101935082870160005b82811015613f0a57607f19888703018452613ef8868351613b00565b95509284019290840190600101613edc565b50939998505050505050505050565b600080600060608486031215613f2e57600080fd5b613f3784613ad3565b9250602080850151613f4881612ff0565b604086015190935067ffffffffffffffff811115613f6557600080fd5b8501601f81018713613f7657600080fd5b8051613f846131b9826130b5565b81815260059190911b82018301908381019089831115613fa357600080fd5b928401925b82841015613fca578351613fbb81612ff0565b82529284019290840190613fa8565b80955050505050509250925092565b600081518084526020808501945080840160005b838110156132595781516001600160a01b031687529582019590820190600101613fed565b6001600160a01b03851681526080602082015260006140346080830186613fd9565b82810360408401526140468186613fd9565b9050828103606084015261405a8185613226565b979650505050505050565b6001600160a01b0383168152604060208201526000610e0f6040830184613fd9565b60608152600061409a6060830186613c4a565b90508360070b60208301528260030b6040830152949350505050565b60006001600160a01b038086168352808516602084015250606060408301526132866060830184613226565b6001600160a01b03841681528260070b60208201526060604082015260006132866060830184613226565b6000806040838503121561412057600080fd5b61412983613ad3565b91506020830151612fe581612ff0565b600060a080835261414c81840189613c4a565b6020600789810b8287015260408960030b81880152606087850381890152614174858b613d4c565b94506080888603818a0152858a518088528688019150868c01975060005b818110156141ec5788518051880b845288810151880b8985015286810151880b8785015285810151880b86850152848101511515858501528a01516001600160a01b03168a8401529787019760c090920191600101614192565b50909f9e505050505050505050505050505050565b600081518084526020808501945080840160005b8381101561325957815180516001600160a01b031688528381015160070b8489015260409081015115159088015260609096019590820190600101614215565b60006040808352606085516020808487015261427383870183614201565b9150858203818701528187518084528284019150828160051b850101838a0160005b8381101561434157601f1987840301855281516001600160a01b03808251168552878201518a898701526142cb8b870182614201565b928c0151868403878e01528051808552908a0193600092508a01905b8083101561432b5784518051851683528b81015185168c8401528e81015160070b8f8401528d015115158d830152938a0193600192909201916080909101906142e7565b5097890197955050509186019150600101614295565b50909b9a5050505050505050505050565b6001600160a01b03841681526060602082015260006143746060830185613fd9565b82810360408401526143868185613226565b9695505050505050565b6020815260006113426020830184613c4a565b634e487b7160e01b600052602160045260246000fdfea26469706673582212207be67b72be887bcfc4410805e73515865c91b5b1b8946f437669c000ac96e86e64736f6c63430008090033",
  "linkReferences": {},
  "deployedLinkReferences": {}
}