{
  "_format": "hh-sol-artifact-1",
  "contractName": "EstimatePrecompileContract",
  "sourceName": "contracts/EstimatePrecompileContract.sol",
  "abi": [
    {
      "anonymous": false,
      "inputs": [
        {
          "indexed": false,
          "internalType": "bool",
          "name": "",
          "type": "bool"
        },
        {
          "indexed": false,
          "internalType": "bytes",
          "name": "",
          "type": "bytes"
        }
      ],
      "name": "CallResponseEvent",
      "type": "event"
    },
    {
      "inputs": [
        {
          "internalType": "address",
          "name": "token",
          "type": "address"
        },
        {
          "internalType": "address",
          "name": "owner",
          "type": "address"
        },
        {
          "internalType": "address",
          "name": "spender",
          "type": "address"
        }
      ],
      "name": "allowanceExternal",
      "outputs": [
        {
          "internalType": "uint256",
          "name": "",
          "type": "uint256"
        }
      ],
      "stateMutability": "nonpayable",
      "type": "function"
    },
    {
      "inputs": [
        {
          "internalType": "address",
          "name": "token",
          "type": "address"
        },
        {
          "internalType": "address",
          "name": "spender",
          "type": "address"
        },
        {
          "internalType": "uint256",
          "name": "amount",
          "type": "uint256"
        }
      ],
      "name": "approveExternal",
      "outputs": [],
      "stateMutability": "nonpayable",
      "type": "function"
    },
    {
      "inputs": [
        {
          "internalType": "address",
          "name": "token",
          "type": "address"
        },
        {
          "internalType": "address",
          "name": "approved",
          "type": "address"
        },
        {
          "internalType": "uint256",
          "name": "serialNumber",
          "type": "uint256"
        }
      ],
      "name": "approveNFTExternal",
      "outputs": [],
      "stateMutability": "nonpayable",
      "type": "function"
    },
    {
      "inputs": [
        {
          "internalType": "address",
          "name": "account",
          "type": "address"
        },
        {
          "internalType": "address",
          "name": "token",
          "type": "address"
        }
      ],
      "name": "associateTokenExternal",
      "outputs": [],
      "stateMutability": "nonpayable",
      "type": "function"
    },
    {
      "inputs": [
        {
          "internalType": "address",
          "name": "account",
          "type": "address"
        },
        {
          "internalType": "address[]",
          "name": "tokens",
          "type": "address[]"
        }
      ],
      "name": "associateTokensExternal",
      "outputs": [],
      "stateMutability": "nonpayable",
      "type": "function"
    },
    {
      "inputs": [
        {
          "internalType": "address",
          "name": "token",
          "type": "address"
        },
        {
          "internalType": "int64",
          "name": "amount",
          "type": "int64"
        },
        {
          "internalType": "int64[]",
          "name": "serialNumbers",
          "type": "int64[]"
        }
      ],
      "name": "burnTokenExternal",
      "outputs": [
        {
          "internalType": "int64",
          "name": "newTotalSupply",
          "type": "int64"
        }
      ],
      "stateMutability": "nonpayable",
      "type": "function"
    },
    {
      "inputs": [
        {
          "internalType": "address",
          "name": "treasury",
          "type": "address"
        }
      ],
      "name": "createFungibleTokenPublic",
      "outputs": [
        {
          "internalType": "address",
          "name": "",
          "type": "address"
        }
      ],
      "stateMutability": "payable",
      "type": "function"
    },
    {
      "inputs": [
        {
          "internalType": "address",
          "name": "treasury",
          "type": "address"
        },
        {
          "internalType": "address",
          "name": "fixedFeeTokenAddress",
          "type": "address"
        }
      ],
      "name": "createFungibleTokenWithCustomFeesPublic",
      "outputs": [
        {
          "internalType": "address",
          "name": "",
          "type": "address"
        }
      ],
      "stateMutability": "payable",
      "type": "function"
    },
    {
      "inputs": [
        {
          "internalType": "address",
          "name": "treasury",
          "type": "address"
        }
      ],
      "name": "createNonFungibleTokenPublic",
      "outputs": [
        {
          "internalType": "address",
          "name": "",
          "type": "address"
        }
      ],
      "stateMutability": "payable",
      "type": "function"
    },
    {
      "inputs": [
        {
          "internalType": "address",
          "name": "treasury",
          "type": "address"
        },
        {
          "internalType": "address",
          "name": "fixedFeeTokenAddress",
          "type": "address"
        }
      ],
      "name": "createNonFungibleTokenWithCustomFeesPublic",
      "outputs": [
        {
          "internalType": "address",
          "name": "",
          "type": "address"
        }
      ],
      "stateMutability": "payable",
      "type": "function"
    },
    {
      "inputs": [
        {
          "components": [
            {
              "components": [
                {
                  "internalType": "address",
                  "name": "accountID",
                  "type": "address"
                },
                {
                  "internalType": "int64",
                  "name": "amount",
                  "type": "int64"
                },
                {
                  "internalType": "bool",
                  "name": "isApproval",
                  "type": "bool"
                }
              ],
              "internalType": "struct IHederaTokenService.AccountAmount[]",
              "name": "transfers",
              "type": "tuple[]"
            }
          ],
          "internalType": "struct IHederaTokenService.TransferList",
          "name": "transferList",
          "type": "tuple"
        },
        {
          "components": [
            {
              "internalType": "address",
              "name": "token",
              "type": "address"
            },
            {
              "components": [
                {
                  "internalType": "address",
                  "name": "accountID",
                  "type": "address"
                },
                {
                  "internalType": "int64",
                  "name": "amount",
                  "type": "int64"
                },
                {
                  "internalType": "bool",
                  "name": "isApproval",
                  "type": "bool"
                }
              ],
              "internalType": "struct IHederaTokenService.AccountAmount[]",
              "name": "transfers",
              "type": "tuple[]"
            },
            {
              "components": [
                {
                  "internalType": "address",
                  "name": "senderAccountID",
                  "type": "address"
                },
                {
                  "internalType": "address",
                  "name": "receiverAccountID",
                  "type": "address"
                },
                {
                  "internalType": "int64",
                  "name": "serialNumber",
                  "type": "int64"
                },
                {
                  "internalType": "bool",
                  "name": "isApproval",
                  "type": "bool"
                }
              ],
              "internalType": "struct IHederaTokenService.NftTransfer[]",
              "name": "nftTransfers",
              "type": "tuple[]"
            }
          ],
          "internalType": "struct IHederaTokenService.TokenTransferList[]",
          "name": "tokenTransfers",
          "type": "tuple[]"
        }
      ],
      "name": "cryptoTransferExternal",
      "outputs": [],
      "stateMutability": "nonpayable",
      "type": "function"
    },
    {
      "inputs": [
        {
          "internalType": "address",
          "name": "token",
          "type": "address"
        }
      ],
      "name": "deleteTokenExternal",
      "outputs": [],
      "stateMutability": "nonpayable",
      "type": "function"
    },
    {
      "inputs": [
        {
          "internalType": "address",
          "name": "account",
          "type": "address"
        },
        {
          "internalType": "address",
          "name": "token",
          "type": "address"
        }
      ],
      "name": "dissociateAndAssociateTokenExternal",
      "outputs": [],
      "stateMutability": "nonpayable",
      "type": "function"
    },
    {
      "inputs": [
        {
          "internalType": "address",
          "name": "account",
          "type": "address"
        },
        {
          "internalType": "address",
          "name": "token",
          "type": "address"
        }
      ],
      "name": "dissociateTokenExternal",
      "outputs": [],
      "stateMutability": "nonpayable",
      "type": "function"
    },
    {
      "inputs": [
        {
          "internalType": "address",
          "name": "account",
          "type": "address"
        },
        {
          "internalType": "address[]",
          "name": "tokens",
          "type": "address[]"
        }
      ],
      "name": "dissociateTokensExternal",
      "outputs": [],
      "stateMutability": "nonpayable",
      "type": "function"
    },
    {
      "inputs": [
        {
          "internalType": "address",
          "name": "token",
          "type": "address"
        },
        {
          "internalType": "address",
          "name": "account",
          "type": "address"
        }
      ],
      "name": "freezeTokenExternal",
      "outputs": [],
      "stateMutability": "nonpayable",
      "type": "function"
    },
    {
      "inputs": [
        {
          "internalType": "address",
          "name": "token",
          "type": "address"
        },
        {
          "internalType": "uint256",
          "name": "serialNumber",
          "type": "uint256"
        }
      ],
      "name": "getApprovedExternal",
      "outputs": [
        {
          "internalType": "address",
          "name": "",
          "type": "address"
        }
      ],
      "stateMutability": "nonpayable",
      "type": "function"
    },
    {
      "inputs": [
        {
          "internalType": "uint32",
          "name": "lo",
          "type": "uint32"
        },
        {
          "internalType": "uint32",
          "name": "hi",
          "type": "uint32"
        }
      ],
      "name": "getPseudorandomNumber",
      "outputs": [
        {
          "internalType": "uint32",
          "name": "",
          "type": "uint32"
        }
      ],
      "stateMutability": "nonpayable",
      "type": "function"
    },
    {
      "inputs": [],
      "name": "getPseudorandomSeed",
      "outputs": [
        {
          "internalType": "bytes32",
          "name": "randomBytes",
          "type": "bytes32"
        }
      ],
      "stateMutability": "nonpayable",
      "type": "function"
    },
    {
      "inputs": [
        {
          "internalType": "address",
          "name": "token",
          "type": "address"
        }
      ],
      "name": "getTokenExpiryInfoExternal",
      "outputs": [
        {
          "internalType": "int64",
          "name": "",
          "type": "int64"
        },
        {
          "internalType": "address",
          "name": "",
          "type": "address"
        },
        {
          "internalType": "int64",
          "name": "",
          "type": "int64"
        }
      ],
      "stateMutability": "nonpayable",
      "type": "function"
    },
    {
      "inputs": [
        {
          "internalType": "address",
          "name": "token",
          "type": "address"
        },
        {
          "internalType": "uint256",
          "name": "keyType",
          "type": "uint256"
        }
      ],
      "name": "getTokenKeyExternal",
      "outputs": [
        {
          "internalType": "bool",
          "name": "",
          "type": "bool"
        },
        {
          "internalType": "address",
          "name": "",
          "type": "address"
        },
        {
          "internalType": "bytes",
          "name": "",
          "type": "bytes"
        },
        {
          "internalType": "bytes",
          "name": "",
          "type": "bytes"
        },
        {
          "internalType": "address",
          "name": "",
          "type": "address"
        }
      ],
      "stateMutability": "nonpayable",
      "type": "function"
    },
    {
      "inputs": [
        {
          "internalType": "address",
          "name": "token",
          "type": "address"
        },
        {
          "internalType": "address",
          "name": "account",
          "type": "address"
        }
      ],
      "name": "grantTokenKycExternal",
      "outputs": [],
      "stateMutability": "nonpayable",
      "type": "function"
    },
    {
      "inputs": [
        {
          "internalType": "address",
          "name": "token",
          "type": "address"
        },
        {
          "internalType": "address",
          "name": "owner",
          "type": "address"
        },
        {
          "internalType": "address",
          "name": "operator",
          "type": "address"
        }
      ],
      "name": "isApprovedForAllExternal",
      "outputs": [
        {
          "internalType": "bool",
          "name": "",
          "type": "bool"
        }
      ],
      "stateMutability": "nonpayable",
      "type": "function"
    },
    {
      "inputs": [
        {
          "internalType": "address",
          "name": "token",
          "type": "address"
        }
      ],
      "name": "isTokenExternal",
      "outputs": [
        {
          "internalType": "bool",
          "name": "",
          "type": "bool"
        }
      ],
      "stateMutability": "nonpayable",
      "type": "function"
    },
    {
      "inputs": [
        {
          "internalType": "address",
          "name": "token",
          "type": "address"
        },
        {
          "internalType": "int64",
          "name": "amount",
          "type": "int64"
        },
        {
          "internalType": "bytes[]",
          "name": "metadata",
          "type": "bytes[]"
        }
      ],
      "name": "mintTokenExternal",
      "outputs": [
        {
          "internalType": "int64",
          "name": "newTotalSupply",
          "type": "int64"
        },
        {
          "internalType": "int64[]",
          "name": "serialNumbers",
          "type": "int64[]"
        }
      ],
      "stateMutability": "nonpayable",
      "type": "function"
    },
    {
      "inputs": [
        {
          "internalType": "address",
          "name": "account",
          "type": "address"
        },
        {
          "internalType": "address",
          "name": "token",
          "type": "address"
        }
      ],
      "name": "nestedAssociateTokenExternal",
      "outputs": [],
      "stateMutability": "nonpayable",
      "type": "function"
    },
    {
      "inputs": [
        {
          "internalType": "address",
          "name": "token",
          "type": "address"
        },
        {
          "internalType": "address",
          "name": "account",
          "type": "address"
        }
      ],
      "name": "nestedFreezeUnfreezeTokenExternal",
      "outputs": [],
      "stateMutability": "nonpayable",
      "type": "function"
    },
    {
      "inputs": [
        {
          "internalType": "address",
          "name": "token",
          "type": "address"
        },
        {
          "internalType": "address",
          "name": "account",
          "type": "address"
        }
      ],
      "name": "nestedGrantAndRevokeTokenKYCExternal",
      "outputs": [],
      "stateMutability": "nonpayable",
      "type": "function"
    },
    {
      "inputs": [
        {
          "internalType": "address",
          "name": "token",
          "type": "address"
        }
      ],
      "name": "nestedPauseUnpauseTokenExternal",
      "outputs": [],
      "stateMutability": "nonpayable",
      "type": "function"
    },
    {
      "inputs": [
        {
          "internalType": "address",
          "name": "token",
          "type": "address"
        }
      ],
      "name": "pauseTokenExternal",
      "outputs": [],
      "stateMutability": "nonpayable",
      "type": "function"
    },
    {
      "inputs": [
        {
          "internalType": "address",
          "name": "token",
          "type": "address"
        },
        {
          "internalType": "bytes",
          "name": "encodedFunctionSelector",
          "type": "bytes"
        }
      ],
      "name": "redirectForToken",
      "outputs": [
        {
          "internalType": "int256",
          "name": "responseCode",
          "type": "int256"
        },
        {
          "internalType": "bytes",
          "name": "response",
          "type": "bytes"
        }
      ],
      "stateMutability": "nonpayable",
      "type": "function"
    },
    {
      "inputs": [
        {
          "internalType": "address",
          "name": "token",
          "type": "address"
        },
        {
          "internalType": "address",
          "name": "account",
          "type": "address"
        }
      ],
      "name": "revokeTokenKycExternal",
      "outputs": [],
      "stateMutability": "nonpayable",
      "type": "function"
    },
    {
      "inputs": [
        {
          "internalType": "address",
          "name": "token",
          "type": "address"
        },
        {
          "internalType": "address",
          "name": "account",
          "type": "address"
        },
        {
          "internalType": "bool",
          "name": "approved",
          "type": "bool"
        }
      ],
      "name": "setApprovalForAllExternal",
      "outputs": [],
      "stateMutability": "nonpayable",
      "type": "function"
    },
    {
      "inputs": [
        {
          "internalType": "uint256",
          "name": "tinybars",
          "type": "uint256"
        }
      ],
      "name": "tinybarsToTinycents",
      "outputs": [
        {
          "internalType": "uint256",
          "name": "tinycents",
          "type": "uint256"
        }
      ],
      "stateMutability": "nonpayable",
      "type": "function"
    },
    {
      "inputs": [
        {
          "internalType": "uint256",
          "name": "tinycents",
          "type": "uint256"
        }
      ],
      "name": "tinycentsToTinybars",
      "outputs": [
        {
          "internalType": "uint256",
          "name": "tinybars",
          "type": "uint256"
        }
      ],
      "stateMutability": "nonpayable",
      "type": "function"
    },
    {
      "inputs": [
        {
          "internalType": "address",
          "name": "token",
          "type": "address"
        },
        {
          "internalType": "address",
          "name": "from",
          "type": "address"
        },
        {
          "internalType": "address",
          "name": "to",
          "type": "address"
        },
        {
          "internalType": "uint256",
          "name": "amount",
          "type": "uint256"
        }
      ],
      "name": "transferFrom",
      "outputs": [
        {
          "internalType": "int64",
          "name": "responseCode",
          "type": "int64"
        }
      ],
      "stateMutability": "nonpayable",
      "type": "function"
    },
    {
      "inputs": [
        {
          "internalType": "address",
          "name": "token",
          "type": "address"
        },
        {
          "internalType": "address",
          "name": "from",
          "type": "address"
        },
        {
          "internalType": "address",
          "name": "to",
          "type": "address"
        },
        {
          "internalType": "uint256",
          "name": "amount",
          "type": "uint256"
        }
      ],
      "name": "transferFromExternal",
      "outputs": [],
      "stateMutability": "nonpayable",
      "type": "function"
    },
    {
      "inputs": [
        {
          "internalType": "address",
          "name": "token",
          "type": "address"
        },
        {
          "internalType": "address",
          "name": "from",
          "type": "address"
        },
        {
          "internalType": "address",
          "name": "to",
          "type": "address"
        },
        {
          "internalType": "uint256",
          "name": "serialNumber",
          "type": "uint256"
        }
      ],
      "name": "transferFromNFT",
      "outputs": [
        {
          "internalType": "int64",
          "name": "responseCode",
          "type": "int64"
        }
      ],
      "stateMutability": "nonpayable",
      "type": "function"
    },
    {
      "inputs": [
        {
          "internalType": "address",
          "name": "token",
          "type": "address"
        },
        {
          "internalType": "address",
          "name": "from",
          "type": "address"
        },
        {
          "internalType": "address",
          "name": "to",
          "type": "address"
        },
        {
          "internalType": "uint256",
          "name": "serialNumber",
          "type": "uint256"
        }
      ],
      "name": "transferFromNFTExternal",
      "outputs": [],
      "stateMutability": "nonpayable",
      "type": "function"
    },
    {
      "inputs": [
        {
          "internalType": "address",
          "name": "token",
          "type": "address"
        },
        {
          "internalType": "address",
          "name": "sender",
          "type": "address"
        },
        {
          "internalType": "address",
          "name": "receiver",
          "type": "address"
        },
        {
          "internalType": "int64",
          "name": "serialNumber",
          "type": "int64"
        }
      ],
      "name": "transferNFTExternal",
      "outputs": [],
      "stateMutability": "nonpayable",
      "type": "function"
    },
    {
      "inputs": [
        {
          "internalType": "address",
          "name": "token",
          "type": "address"
        },
        {
          "internalType": "address[]",
          "name": "sender",
          "type": "address[]"
        },
        {
          "internalType": "address[]",
          "name": "receiver",
          "type": "address[]"
        },
        {
          "internalType": "int64[]",
          "name": "serialNumber",
          "type": "int64[]"
        }
      ],
      "name": "transferNFTsExternal",
      "outputs": [],
      "stateMutability": "nonpayable",
      "type": "function"
    },
    {
      "inputs": [
        {
          "internalType": "address",
          "name": "token",
          "type": "address"
        },
        {
          "internalType": "address",
          "name": "sender",
          "type": "address"
        },
        {
          "internalType": "address",
          "name": "receiver",
          "type": "address"
        },
        {
          "internalType": "int64",
          "name": "amount",
          "type": "int64"
        }
      ],
      "name": "transferTokenExternal",
      "outputs": [],
      "stateMutability": "nonpayable",
      "type": "function"
    },
    {
      "inputs": [
        {
          "internalType": "address",
          "name": "token",
          "type": "address"
        },
        {
          "internalType": "address[]",
          "name": "accountIds",
          "type": "address[]"
        },
        {
          "internalType": "int64[]",
          "name": "amounts",
          "type": "int64[]"
        }
      ],
      "name": "transferTokensExternal",
      "outputs": [],
      "stateMutability": "nonpayable",
      "type": "function"
    },
    {
      "inputs": [
        {
          "internalType": "address",
          "name": "token",
          "type": "address"
        },
        {
          "internalType": "address",
          "name": "account",
          "type": "address"
        }
      ],
      "name": "unfreezeTokenExternal",
      "outputs": [],
      "stateMutability": "nonpayable",
      "type": "function"
    },
    {
      "inputs": [
        {
          "internalType": "address",
          "name": "token",
          "type": "address"
        }
      ],
      "name": "unpauseTokenExternal",
      "outputs": [],
      "stateMutability": "nonpayable",
      "type": "function"
    },
    {
      "inputs": [
        {
          "internalType": "address",
          "name": "token",
          "type": "address"
        },
        {
          "internalType": "address",
          "name": "treasury",
          "type": "address"
        }
      ],
      "name": "updateTokenExpiryInfoExternal",
      "outputs": [],
      "stateMutability": "nonpayable",
      "type": "function"
    },
    {
      "inputs": [
        {
          "internalType": "address",
          "name": "token",
          "type": "address"
        },
        {
          "internalType": "address",
          "name": "treasury",
          "type": "address"
        }
      ],
      "name": "updateTokenInfoExternal",
      "outputs": [],
      "stateMutability": "nonpayable",
      "type": "function"
    },
    {
      "inputs": [
        {
          "internalType": "address",
          "name": "token",
          "type": "address"
        }
      ],
      "name": "updateTokenKeysExternal",
      "outputs": [],
      "stateMutability": "nonpayable",
      "type": "function"
    },
    {
      "inputs": [
        {
          "internalType": "address",
          "name": "token",
          "type": "address"
        },
        {
          "internalType": "address",
          "name": "account",
          "type": "address"
        },
        {
          "internalType": "int64",
          "name": "amount",
          "type": "int64"
        }
      ],
      "name": "wipeTokenAccountExternal",
      "outputs": [],
      "stateMutability": "nonpayable",
      "type": "function"
    },
    {
      "inputs": [
        {
          "internalType": "address",
          "name": "token",
          "type": "address"
        },
        {
          "internalType": "address",
          "name": "account",
          "type": "address"
        },
        {
          "internalType": "int64[]",
          "name": "serialNumbers",
          "type": "int64[]"
        }
      ],
      "name": "wipeTokenAccountNFTExternal",
      "outputs": [],
      "stateMutability": "nonpayable",
      "type": "function"
    }
  ],
  "bytecode": "0x60c06040526009608081905268746f6b656e4e616d6560b81b60a09081526200002c9160029190620001c2565b5060408051808201909152600380825262544b5960e81b6020909201918252620000579181620001c2565b50604080518082019091526004808252636d656d6f60e01b6020909201918252620000839181620001c2565b50600580546001600160a81b031916700800000000000003e800000000000003e8179055348015620000b457600080fd5b50600160208181527fa6eef7e35abe7026729641147f7915573c7e97b47efa546f5f6e3230263bcb499190915560027fcc69885fda6bcc1a4ace058b4a62bf5e179ea78fd58a1ccd71c22cc9b688792f5560047fd9d16d34ffb15ba3a3d852f0d403e2ce1d691fb54de27ac87cd2f993f3ec330f5560087f7dfe757ecd65cbd7922a9c0161e935dd7fdbcc0e999689c7d31633896b1fc60b5560107fedc95719e9a3b28dd8e80877cb5880a9be7de1a13fc8b05e7999683b6b567643557fe2689cd4a84e23ad2f564004f1c9013e9589d260bde6380aba3ca7e09e4df40c55600660005260407f8f331abe73332f95a25873e8b430885974c0409691f89d643119a11623a7924a55620002a5565b828054620001d09062000268565b90600052602060002090601f016020900481019282620001f457600085556200023f565b82601f106200020f57805160ff19168380011785556200023f565b828001600101855582156200023f579182015b828111156200023f57825182559160200191906001019062000222565b506200024d92915062000251565b5090565b5b808211156200024d576000815560010162000252565b600181811c908216806200027d57607f821691505b602082108114156200029f57634e487b7160e01b600052602260045260246000fd5b50919050565b61590880620002b56000396000f3fe6080604052600436106103295760003560e01c806375a85472116101a5578063b97beda9116100ec578063d91cfc9511610095578063ec4ca6391161006f578063ec4ca6391461096d578063ed129c3f1461098d578063f1938266146109ad578063fb2b6cef146109cd57600080fd5b8063d91cfc951461090d578063e31b839c1461092d578063e95a71e51461094d57600080fd5b8063ceda64c4116100c6578063ceda64c4146108c5578063d83bf9a1146108e5578063d85f74c1146108fa57600080fd5b8063b97beda914610850578063bafa6a9114610870578063bc7718e31461089057600080fd5b80639333700b1161014e5780639c219247116101285780639c219247146107f0578063a621881014610810578063aa835c631461083057600080fd5b80639333700b146107905780639b23d3d9146107b05780639bc4d354146107d057600080fd5b806384d232f51161017f57806384d232f51461073d5780638ba74da01461075d578063901fe3d01461077057600080fd5b806375a85472146106b15780637adc26b8146106d15780637cea29a3146106f157600080fd5b806330a8f293116102745780634fd6ce0a1161021d578063618dc65e116101f7578063618dc65e14610623578063632da116146106515780636f3e867814610671578063714c42c01461069157600080fd5b80634fd6ce0a146105c357806352205b33146105e35780635ac4fef81461060357600080fd5b806343a882291161024e57806343a88229146105705780634b5c6687146105905780634c09c804146105a357600080fd5b806330a8f293146105005780633150810714610520578063437dffd51461055057600080fd5b806315dacbea116102d65780632390c1fa116102b05780632390c1fa146104a05780632e3cff6a146104c05780632fc358f7146104e057600080fd5b806315dacbea1461042d578063165aae66146104605780631ba978fc1461048057600080fd5b80630c0295d4116103075780630c0295d4146103ae5780630c0a198c146103dc578063144b06ff146103fc57600080fd5b80630435d8401461032e5780630488c9391461036157806306a1a5d31461038c575b600080fd5b34801561033a57600080fd5b5061034e61034936600461400c565b6109ed565b6040519081526020015b60405180910390f35b61037461036f366004614057565b610a15565b6040516001600160a01b039091168152602001610358565b34801561039857600080fd5b506103ac6103a7366004614057565b610f53565b005b3480156103ba57600080fd5b506103ce6103c936600461421a565b610f7d565b604051610358929190614330565b3480156103e857600080fd5b506103ac6103f736600461434c565b610fad565b34801561040857600080fd5b5061041c610417366004614369565b610fc7565b6040516103589594939291906143ed565b34801561043957600080fd5b5061044d610448366004614440565b611016565b60405160079190910b8152602001610358565b34801561046c57600080fd5b506103ac61047b36600461434c565b61110a565b34801561048c57600080fd5b506103ac61049b366004614564565b611115565b3480156104ac57600080fd5b506103ac6104bb3660046145ff565b611135565b3480156104cc57600080fd5b5061034e6104db36600461464f565b61114c565b3480156104ec57600080fd5b506103ac6104fb3660046145ff565b61122b565b34801561050c57600080fd5b506103ac61051b36600461434c565b611237565b34801561052c57600080fd5b5061054061053b36600461400c565b611242565b6040519015158152602001610358565b34801561055c57600080fd5b506103ac61056b366004614057565b611252565b34801561057c57600080fd5b5061034e61058b36600461464f565b611269565b61037461059e36600461434c565b6112db565b3480156105af57600080fd5b506103ac6105be366004614668565b6116b9565b3480156105cf57600080fd5b506103ac6105de3660046146ca565b6116d7565b3480156105ef57600080fd5b506103ac6105fe366004614057565b6116e5565b34801561060f57600080fd5b506103ac61061e366004614726565b6116f1565b34801561062f57600080fd5b5061064361063e366004614766565b6116fe565b6040516103589291906147ac565b34801561065d57600080fd5b5061044d61066c3660046147c5565b61182c565b34801561067d57600080fd5b5061054061068c36600461434c565b61183c565b34801561069d57600080fd5b506103ac6106ac36600461434c565b61185a565b3480156106bd57600080fd5b506103ac6106cc366004614440565b611a36565b3480156106dd57600080fd5b506103ac6106ec366004614057565b611ad8565b3480156106fd57600080fd5b5061071161070c36600461434c565b611b0b565b60408051600794850b81526001600160a01b039093166020840152920b91810191909152606001610358565b34801561074957600080fd5b506103ac6107583660046147f5565b611b43565b61037461076b366004614057565b611b50565b34801561077c57600080fd5b506103ac61078b366004614057565b611f87565b34801561079c57600080fd5b506103ac6107ab366004614057565b611f9e565b3480156107bc57600080fd5b5061044d6107cb366004614440565b611faa565b3480156107dc57600080fd5b506103ac6107eb366004614440565b611fef565b3480156107fc57600080fd5b506103ac61080b366004614057565b612035565b34801561081c57600080fd5b506103ac61082b3660046148f3565b612041565b34801561083c57600080fd5b506103ac61084b366004614b3e565b61204d565b34801561085c57600080fd5b5061037461086b366004614369565b61205a565b34801561087c57600080fd5b506103ac61088b3660046146ca565b612076565b34801561089c57600080fd5b506108b06108ab366004614bc3565b612084565b60405163ffffffff9091168152602001610358565b3480156108d157600080fd5b506103ac6108e03660046147f5565b612137565b3480156108f157600080fd5b5061034e612144565b61037461090836600461434c565b6121ef565b34801561091957600080fd5b506103ac610928366004614057565b612592565b34801561093957600080fd5b506103ac610948366004614bf6565b61259e565b34801561095957600080fd5b506103ac610968366004614057565b6125ab565b34801561097957600080fd5b506103ac610988366004614057565b6125b7565b34801561099957600080fd5b506103ac6109a836600461434c565b6125c3565b3480156109b957600080fd5b506103ac6109c8366004614057565b6125d8565b3480156109d957600080fd5b506103ac6109e8366004614057565b6125e2565b60008060006109fd868686612994565b91509150610a0a82612a93565b9150505b9392505050565b60408051600580825260c08201909252600091829190816020015b610a38613f9a565b815260200190600190039081610a30579050509050610a6b60006006600060405180602001604052806000815250612aa3565b81600081518110610a7e57610a7e614c36565b6020026020010181905250610aa56001600060405180602001604052806000815250612ada565b81600181518110610ab857610ab8614c36565b6020026020010181905250610adf6002600060405180602001604052806000815250612ada565b81600281518110610af257610af2614c36565b6020026020010181905250610b196004600060405180602001604052806000815250612ada565b81600381518110610b2c57610b2c614c36565b6020026020010181905250610b536003600060405180602001604052806000815250612ada565b81600481518110610b6657610b66614c36565b602002602001018190525060006040518060600160405280600060070b8152602001866001600160a01b03168152602001627a120060070b8152509050600060405180610120016040528060028054610bbe90614c4c565b80601f0160208091040260200160405190810160405280929190818152602001828054610bea90614c4c565b8015610c375780601f10610c0c57610100808354040283529160200191610c37565b820191906000526020600020905b815481529060010190602001808311610c1a57829003601f168201915b5050505050815260200160038054610c4e90614c4c565b80601f0160208091040260200160405190810160405280929190818152602001828054610c7a90614c4c565b8015610cc75780601f10610c9c57610100808354040283529160200191610cc7565b820191906000526020600020905b815481529060010190602001808311610caa57829003601f168201915b50505050508152602001876001600160a01b0316815260200160048054610ced90614c4c565b80601f0160208091040260200160405190810160405280929190818152602001828054610d1990614c4c565b8015610d665780601f10610d3b57610100808354040283529160200191610d66565b820191906000526020600020905b815481529060010190602001808311610d4957829003601f168201915b505050918352505060016020820181905260055468010000000000000000810460070b6040840152600160a01b900460ff16151560608301526080820186905260a0909101849052909150600090604051908082528060200260200182016040528015610e0d57816020015b6040805160a081018252600080825260208083018290529282018190526060820181905260808201528252600019909201910181610dd25790505b506040805160a081018252600181526001600160a01b03808a1660208301526000928201839052606082018390528a166080820152825192935091839190610e5757610e57614c36565b6020908102919091010152604080516001808252818301909252600091816020015b6040805160c08101825260008082526020808301829052928201819052606082018190526080820181905260a08201528252600019909201910181610e795790505090506040518060c00160405280600460070b8152602001600560070b8152602001600a60070b8152602001886001600160a01b03168152602001600015158152602001896001600160a01b031681525081600081518110610f1e57610f1e614c36565b6020026020010181905250600080610f37858585612b0f565b91509150610f4482612a93565b96505050505050505b92915050565b610f5d8282612c37565b506000610f6a8383612d33565b60070b9050610f7881612a93565b505050565b600060606000806000610f91888888612d82565b925092509250610fa083612a93565b9097909650945050505050565b6000610fb882612e80565b9050610fc381612a93565b5050565b6000806060806000806000610fdc8989612f73565b915060070b9150610fec82612a93565b8051602082015160408301516060840151608090940151929c919b50995091975095509350505050565b6040516001600160a01b038581166024830152848116604483015283166064820152608481018290526000908190819061016790630aed65f560e11b9060a4015b60408051601f198184030181529181526020820180516001600160e01b03166001600160e01b03199094169390931790925290516110959190614c87565b6000604051808303816000865af19150503d80600081146110d2576040519150601f19603f3d011682016040523d82523d6000602084013e6110d7565b606091505b5091509150816110e85760156110fc565b808060200190518101906110fc9190614cb5565b60030b979650505050505050565b6000610fb8826130bd565b600061112385858585613104565b905061112e81612a93565b5050505050565b60006111418383613134565b9050610f7881612a93565b60008060006101686001600160a01b03168460405160240161117091815260200190565b60408051601f198184030181529181526020820180516001600160e01b03167f2e3cff6a00000000000000000000000000000000000000000000000000000000179052516111be9190614c87565b6000604051808303816000865af19150503d80600081146111fb576040519150601f19603f3d011682016040523d82523d6000602084013e611200565b606091505b50915091508161120f57600080fd5b808060200190518101906112239190614cd0565b949350505050565b60006111418383613160565b6000610fb88261318c565b60008060006109fd8686866131d3565b61125c82826132bf565b50600061114183836132bf565b60008060006101686001600160a01b03168460405160240161128d91815260200190565b60408051601f198184030181529181526020820180516001600160e01b03167f43a8822900000000000000000000000000000000000000000000000000000000179052516111be9190614c87565b60408051600580825260c08201909252600091829190816020015b6112fe613f9a565b8152602001906001900390816112f657905050905061133160006006600060405180602001604052806000815250612aa3565b8160008151811061134457611344614c36565b602002602001018190525061136b6001600060405180602001604052806000815250612ada565b8160018151811061137e5761137e614c36565b60200260200101819052506113a56002600060405180602001604052806000815250612ada565b816002815181106113b8576113b8614c36565b60200260200101819052506113df6003600060405180602001604052806000815250612ada565b816003815181106113f2576113f2614c36565b60200260200101819052506114196004600060405180602001604052806000815250612ada565b8160048151811061142c5761142c614c36565b602002602001018190525060006040518060600160405280600060070b8152602001856001600160a01b03168152602001627a120060070b815250905060006040518061012001604052806002805461148490614c4c565b80601f01602080910402602001604051908101604052809291908181526020018280546114b090614c4c565b80156114fd5780601f106114d2576101008083540402835291602001916114fd565b820191906000526020600020905b8154815290600101906020018083116114e057829003601f168201915b505050505081526020016003805461151490614c4c565b80601f016020809104026020016040519081016040528092919081815260200182805461154090614c4c565b801561158d5780601f106115625761010080835404028352916020019161158d565b820191906000526020600020905b81548152906001019060200180831161157057829003601f168201915b50505050508152602001866001600160a01b03168152602001600480546115b390614c4c565b80601f01602080910402602001604051908101604052809291908181526020018280546115df90614c4c565b801561162c5780601f106116015761010080835404028352916020019161162c565b820191906000526020600020905b81548152906001019060200180831161160f57829003601f168201915b505050918352505060016020820152600554680100000000000000008104600790810b604084015260ff600160a01b830416151560608401526080830187905260a090920185905291925060009182916116a291859181900b90700100000000000000000000000000000000900460030b61330e565b915091506116af82612a93565b9695505050505050565b60006116c684848461337b565b90506116d181612a93565b50505050565b60006111238585858561345b565b6000610f6a8383612d33565b60006116c68484846134bc565b600060606000806101676001600160a01b031663618dc65e60e01b878760405160240161172c929190614ce9565b60408051601f198184030181529181526020820180516001600160e01b03166001600160e01b031990941693909317909252905161176a9190614c87565b6000604051808303816000865af19150503d80600081146117a7576040519150601f19603f3d011682016040523d82523d6000602084013e6117ac565b606091505b50915091507f4af4780e06fe8cb9df64b0794fa6f01399af979175bb988e35e0e57e594567bc82826040516117e2929190614d0b565b60405180910390a1816118065760156040518060200160405280600081525061181a565b8080602001905181019061181a9190614d6b565b60039190910b97909650945050505050565b60008060006109fd868686613515565b600080600061184a846135eb565b915060070b9150610a0e82612a93565b60408051600480825260a08201909252600091816020015b61187a613f9a565b8152602001906001900390816118725790505090506118e7600160036040516020016118d3907f02e35698a0273a8c6509ae4716c26a52eebca73e5de2c6677b189ef40f6fcd1f815260ed60f81b602082015260210190565b604051602081830303815290604052612ada565b816000815181106118fa576118fa614c36565b6020026020010181905250611949600260036040516020016118d3907f02e35698a0273a8c6509ae4716c26a52eebca73e5de2c6677b189ef40f6fcd1f815260ed60f81b602082015260210190565b8160018151811061195c5761195c614c36565b60200260200101819052506119ab600460036040516020016118d3907f02e35698a0273a8c6509ae4716c26a52eebca73e5de2c6677b189ef40f6fcd1f815260ed60f81b602082015260210190565b816002815181106119be576119be614c36565b6020026020010181905250611a0c6003806040516020016118d3907f02e35698a0273a8c6509ae4716c26a52eebca73e5de2c6677b189ef40f6fcd1f815260ed60f81b602082015260210190565b81600381518110611a1f57611a1f614c36565b60200260200101819052506000610f6a83836136d8565b604051630aed65f560e11b81526001600160a01b0380861660048301528085166024830152831660448201526064810182905260009030906315dacbea906084015b602060405180830381600087803b158015611a9257600080fd5b505af1158015611aa6573d6000803e3d6000fd5b505050506040513d601f19601f82011682018060405250810190611aca9190614daf565b60070b905061112e81612a93565b6040805160608101825260008082526001600160a01b038416602083015261232892820192909252906116c68483613704565b6000806000806000611b1c86613730565b91509150611b2982612a93565b805160208201516040909201519097919650945092505050565b60006116c6848484613841565b604080516001808252818301909252600091829190816020015b611b72613f9a565b815260200190600190039081611b6a579050509050611ba4600080600060405180602001604052806000815250612aa3565b81600081518110611bb757611bb7614c36565b602002602001018190525060006040518060600160405280600060070b8152602001866001600160a01b03168152602001627a120060070b8152509050600060405180610120016040528060028054611c0f90614c4c565b80601f0160208091040260200160405190810160405280929190818152602001828054611c3b90614c4c565b8015611c885780601f10611c5d57610100808354040283529160200191611c88565b820191906000526020600020905b815481529060010190602001808311611c6b57829003601f168201915b5050505050815260200160038054611c9f90614c4c565b80601f0160208091040260200160405190810160405280929190818152602001828054611ccb90614c4c565b8015611d185780601f10611ced57610100808354040283529160200191611d18565b820191906000526020600020905b815481529060010190602001808311611cfb57829003601f168201915b50505050508152602001876001600160a01b0316815260200160048054611d3e90614c4c565b80601f0160208091040260200160405190810160405280929190818152602001828054611d6a90614c4c565b8015611db75780601f10611d8c57610100808354040283529160200191611db7565b820191906000526020600020905b815481529060010190602001808311611d9a57829003601f168201915b505050918352505060016020820181905260055468010000000000000000900460070b6040808401919091526000606084018190526080840188905260a09093018690528051828152808201909152929350909190816020015b6040805160a081018252600080825260208083018290529282018190526060820181905260808201528252600019909201910181611e115750506040805160a081018252600181526001600160a01b0389811660208301526000928201839052606082018390528a166080820152825192935091839190611e9457611e94614c36565b6020908102919091010152604080516001808252818301909252600091816020015b6040805160c08101825260008082526020808301829052928201819052606082018190526080820181905260a08201528252600019909201910181611eb65750506040805160c0810182526004815260056020820152600a91810191909152601e60608201526000608082018190526001600160a01b038b1660a083015282519293509091839190611f4a57611f4a614c36565b60209081029190910101526005546000908190610f37908690600781900b90700100000000000000000000000000000000900460030b8787613897565b611f9182826139c5565b506000610f6a8383613a14565b6000610f6a83836139c5565b6040516001600160a01b038581166024830152848116604483015283166064820152608481018290526000908190819061016790639b23d3d960e01b9060a401611057565b604051639b23d3d960e01b81526001600160a01b038086166004830152808516602483015283166044820152606481018290526000903090639b23d3d990608401611a78565b60006111418383613a63565b60006111418383613ab2565b60006116c6848484613ade565b60008060006120698585613b0c565b9150915061122382612a93565b600061112385858585613bec565b60408051600481526024810182526020810180516001600160e01b031663d83bf9a160e01b179052905160009182918291610169916120c39190614c87565b6000604051808303816000865af19150503d8060008114612100576040519150601f19603f3d011682016040523d82523d6000602084013e612105565b606091505b50915091508161211457600080fd5b60208101516121238686614de2565b61212d9082614e07565b6116af9087614e38565b60006116c6848484613c4d565b60408051600481526024810182526020810180516001600160e01b031663d83bf9a160e01b179052905160009182918291610169916121839190614c87565b6000604051808303816000865af19150503d80600081146121c0576040519150601f19603f3d011682016040523d82523d6000602084013e6121c5565b606091505b5091509150816121d457600080fd5b808060200190518101906121e89190614cd0565b9250505090565b60408051600580825260c08201909252600091829190816020015b612212613f9a565b81526020019060019003908161220a57905050905061224560006006600060405180602001604052806000815250612aa3565b8160008151811061225857612258614c36565b602002602001018190525061227f6001600060405180602001604052806000815250612ada565b8160018151811061229257612292614c36565b60200260200101819052506122b96002600060405180602001604052806000815250612ada565b816002815181106122cc576122cc614c36565b60200260200101819052506122f36004600060405180602001604052806000815250612ada565b8160038151811061230657612306614c36565b602002602001018190525061232d6003600060405180602001604052806000815250612ada565b8160048151811061234057612340614c36565b602002602001018190525060006040518060600160405280600060070b8152602001856001600160a01b03168152602001627a120060070b815250905060006040518061012001604052806002805461239890614c4c565b80601f01602080910402602001604051908101604052809291908181526020018280546123c490614c4c565b80156124115780601f106123e657610100808354040283529160200191612411565b820191906000526020600020905b8154815290600101906020018083116123f457829003601f168201915b505050505081526020016003805461242890614c4c565b80601f016020809104026020016040519081016040528092919081815260200182805461245490614c4c565b80156124a15780601f10612476576101008083540402835291602001916124a1565b820191906000526020600020905b81548152906001019060200180831161248457829003601f168201915b50505050508152602001866001600160a01b03168152602001600480546124c790614c4c565b80601f01602080910402602001604051908101604052809291908181526020018280546124f390614c4c565b80156125405780601f1061251557610100808354040283529160200191612540565b820191906000526020600020905b81548152906001019060200180831161252357829003601f168201915b50505091835250506001602082015260055468010000000000000000810460070b6040830152600160a01b900460ff16151560608201526080810185905260a00183905290506000806116a283613ca3565b600061114183836132bf565b60006116c6848484613d87565b6000610f6a8383613a14565b6000610f6a8383612c37565b6125cc8161318c565b506000610fb8826130bd565b61125c8282613a63565b60408051600580825260c08201909252600091816020015b612602613f9a565b8152602001906001900390816125fa57905050905061263560006006600060405180602001604052806000815250612aa3565b8160008151811061264857612648614c36565b602002602001018190525061266f6001600060405180602001604052806000815250612ada565b8160018151811061268257612682614c36565b60200260200101819052506126a96002600060405180602001604052806000815250612ada565b816002815181106126bc576126bc614c36565b60200260200101819052506126e36004600060405180602001604052806000815250612ada565b816003815181106126f6576126f6614c36565b602002602001018190525061271d6003600060405180602001604052806000815250612ada565b8160048151811061273057612730614c36565b602002602001018190525060006040518060600160405280600060070b8152602001846001600160a01b0316815260200161232860070b815250905060006040518061012001604052806002805461278790614c4c565b80601f01602080910402602001604051908101604052809291908181526020018280546127b390614c4c565b80156128005780601f106127d557610100808354040283529160200191612800565b820191906000526020600020905b8154815290600101906020018083116127e357829003601f168201915b505050505081526020016003805461281790614c4c565b80601f016020809104026020016040519081016040528092919081815260200182805461284390614c4c565b80156128905780601f1061286557610100808354040283529160200191612890565b820191906000526020600020905b81548152906001019060200180831161287357829003601f168201915b50505050508152602001856001600160a01b03168152602001600480546128b690614c4c565b80601f01602080910402602001604051908101604052809291908181526020018280546128e290614c4c565b801561292f5780601f106129045761010080835404028352916020019161292f565b820191906000526020600020905b81548152906001019060200180831161291257829003601f168201915b50505091835250506001602082015260055468010000000000000000810460070b6040830152600160a01b900460ff16151560608201526080810185905260a001839052905060006129818683613dde565b905061298c81612a93565b505050505050565b604080516001600160a01b0385811660248301528481166044830152831660648083019190915282518083039091018152608490910182526020810180516001600160e01b03167f927da10500000000000000000000000000000000000000000000000000000000179052905160009182918291829161016791612a1791614c87565b6000604051808303816000865af19150503d8060008114612a54576040519150601f19603f3d011682016040523d82523d6000602084013e612a59565b606091505b509150915081612a6c5760156000612a80565b80806020019051810190612a809190614e60565b60039190910b9890975095505050505050565b60168114612aa057600080fd5b50565b612aab613f9a565b6040518060400160405280612ac08787613e0a565b8152602001612acf8585613e45565b905295945050505050565b612ae2613f9a565b6040518060400160405280612af686613f5b565b8152602001612b058585613e45565b9052949350505050565b600080848061010001516000015160070b6000148015612b3957506101008101516040015160070b155b15612b4f576101008101516276a7006040909101525b6000806101676001600160a01b03163463abb54eb560e01b8a8a8a604051602401612b7c939291906150bf565b60408051601f198184030181529181526020820180516001600160e01b03166001600160e01b0319909416939093179092529051612bba9190614c87565b60006040518083038185875af1925050503d8060008114612bf7576040519150601f19603f3d011682016040523d82523d6000602084013e612bfc565b606091505b509150915081612c0f5760156000612c23565b80806020019051810190612c239190615176565b60039190910b999098509650505050505050565b6040516001600160a01b0383811660248301528216604482015260009081908190610167907f8f8d7f9900000000000000000000000000000000000000000000000000000000906064015b60408051601f198184030181529181526020820180516001600160e01b03166001600160e01b0319909416939093179092529051612cc09190614c87565b6000604051808303816000865af19150503d8060008114612cfd576040519150601f19603f3d011682016040523d82523d6000602084013e612d02565b606091505b509150915081612d13576015612d27565b80806020019051810190612d279190614cb5565b60030b95945050505050565b6040516001600160a01b0383811660248301528216604482015260009081908190610167907faf99c6330000000000000000000000000000000000000000000000000000000090606401612c82565b60008060606000806101676001600160a01b031663e0f4059a60e01b898989604051602401612db3939291906151a2565b60408051601f198184030181529181526020820180516001600160e01b03166001600160e01b0319909416939093179092529051612df19190614c87565b6000604051808303816000865af19150503d8060008114612e2e576040519150601f19603f3d011682016040523d82523d6000602084013e612e33565b606091505b509150915081612e56576040805160008082526020820190925260159190612e6a565b80806020019051810190612e6a919061521f565b60039290920b9a90995090975095505050505050565b6040516001600160a01b038216602482015260009081908190610167907ff069f71200000000000000000000000000000000000000000000000000000000906044015b60408051601f198184030181529181526020820180516001600160e01b03166001600160e01b0319909416939093179092529051612f019190614c87565b6000604051808303816000865af19150503d8060008114612f3e576040519150601f19603f3d011682016040523d82523d6000602084013e612f43565b606091505b509150915081612f54576015612f68565b80806020019051810190612f689190614cb5565b60030b949350505050565b6040805160a081018252600080825260208083018290526060838501819052808401526080830182905283516001600160a01b03871660248201526044808201879052855180830390910181526064909101855290810180516001600160e01b03167f3c4dd32e0000000000000000000000000000000000000000000000000000000017905292519092839182916101679161300f9190614c87565b6000604051808303816000865af19150503d806000811461304c576040519150601f19603f3d011682016040523d82523d6000602084013e613051565b606091505b509150915061309c6040518060a0016040528060001515815260200160006001600160a01b03168152602001606081526020016060815260200160006001600160a01b031681525090565b826130a957601581612a80565b81806020019051810190612a8091906152ea565b6040516001600160a01b038216602482015260009081908190610167907f3b3bff0f0000000000000000000000000000000000000000000000000000000090604401612ec3565b60008060006101676001600160a01b0316632c4ba19160e01b8888888860405160240161105794939291906153fe565b60008060006101676001600160a01b03166378b6391860e01b8686604051602401612c82929190615451565b60008060006101676001600160a01b0316632e63879b60e01b8686604051602401612c82929190615451565b6040516001600160a01b038216602482015260009081908190610167907f7c41ad2c0000000000000000000000000000000000000000000000000000000090604401612ec3565b604080516001600160a01b0385811660248301528481166044830152831660648083019190915282518083039091018152608490910182526020810180516001600160e01b03167ff49f40db0000000000000000000000000000000000000000000000000000000017905290516000918291829182916101679161325691614c87565b6000604051808303816000865af19150503d8060008114613293576040519150601f19603f3d011682016040523d82523d6000602084013e613298565b606091505b5091509150816132ab5760156000612a80565b80806020019051810190612a809190615473565b6040516001600160a01b0383811660248301528216604482015260009081908190610167907f49146bde0000000000000000000000000000000000000000000000000000000090606401612c82565b600080848061010001516000015160070b600014801561333857506101008101516040015160070b155b1561334e576101008101516276a7006040909101525b6000806101676001600160a01b031634630fb65bf360e01b8a8a8a604051602401612b7c9392919061549f565b60008060006101676001600160a01b031663f7f38e2660e01b8787876040516024016133a9939291906154ce565b60408051601f198184030181529181526020820180516001600160e01b03166001600160e01b03199094169390931790925290516133e79190614c87565b6000604051808303816000865af19150503d8060008114613424576040519150601f19603f3d011682016040523d82523d6000602084013e613429565b606091505b50915091508161343a57601561344e565b8080602001905181019061344e9190614cb5565b60030b9695505050505050565b6040516001600160a01b038581166024830152848116604483015283166064820152600782900b608482015260009081908190610167907feca36917000000000000000000000000000000000000000000000000000000009060a401611057565b6040516001600160a01b03848116602483015283166044820152600782900b606482015260009081908190610167907fefef57f900000000000000000000000000000000000000000000000000000000906084016133a9565b6000806000806101676001600160a01b031663d6910d0660e01b88888860405160240161354493929190615503565b60408051601f198184030181529181526020820180516001600160e01b03166001600160e01b03199094169390931790925290516135829190614c87565b6000604051808303816000865af19150503d80600081146135bf576040519150601f19603f3d011682016040523d82523d6000602084013e6135c4565b606091505b5091509150816135d75760156000612a80565b80806020019051810190612a80919061552e565b604080516001600160a01b03831660248083019190915282518083039091018152604490910182526020810180516001600160e01b03167f19f373610000000000000000000000000000000000000000000000000000000017905290516000918291829182916101679161365e91614c87565b6000604051808303816000865af19150503d806000811461369b576040519150601f19603f3d011682016040523d82523d6000602084013e6136a0565b606091505b5091509150816136b357601560006136c7565b808060200190518101906136c79190615473565b60039190910b969095509350505050565b60008060006101676001600160a01b0316636fc3cbaf60e01b8686604051602401612c8292919061555a565b60008060006101676001600160a01b031663d27be6cd60e01b8686604051602401612c8292919061557c565b604080516060810182526000808252602080830182905282840182905283516001600160a01b038616602480830191909152855180830390910181526044909101855290810180516001600160e01b03167fd614cdb8000000000000000000000000000000000000000000000000000000001790529251909283918291610167916137bb9190614c87565b6000604051808303816000865af19150503d80600081146137f8576040519150601f19603f3d011682016040523d82523d6000602084013e6137fd565b606091505b50604080516060810182526000808252602082018190529181019190915291935091508261382d5760158161181a565b8180602001905181019061181a91906155bf565b6040516001600160a01b038481166024830152831660448201526064810182905260009081908190610167907f7336aaf000000000000000000000000000000000000000000000000000000000906084016133a9565b600080868061010001516000015160070b60001480156138c157506101008101516040015160070b155b156138d7576101008101516276a7006040909101525b6000806101676001600160a01b031634632af0c59a60e01b8c8c8c8c8c60405160240161390895949392919061563a565b60408051601f198184030181529181526020820180516001600160e01b03166001600160e01b03199094169390931790925290516139469190614c87565b60006040518083038185875af1925050503d8060008114613983576040519150601f19603f3d011682016040523d82523d6000602084013e613988565b606091505b50915091508161399b57601560006139af565b808060200190518101906139af9190615176565b60039190910b9b909a5098505050505050505050565b6040516001600160a01b0383811660248301528216604482015260009081908190610167907f5b8f85840000000000000000000000000000000000000000000000000000000090606401612c82565b6040516001600160a01b0383811660248301528216604482015260009081908190610167907f52f913870000000000000000000000000000000000000000000000000000000090606401612c82565b6040516001600160a01b0383811660248301528216604482015260009081908190610167907f099794e80000000000000000000000000000000000000000000000000000000090606401612c82565b60008060006101676001600160a01b0316630e71804f60e01b8686604051602401612c82929190615756565b60008060006101676001600160a01b03166382bba49360e01b8787876040516024016133a993929190615853565b604080516001600160a01b0384166024820152604480820184905282518083039091018152606490910182526020810180516001600160e01b03167f098f236600000000000000000000000000000000000000000000000000000000179052905160009182918291829161016791613b8391614c87565b6000604051808303816000865af19150503d8060008114613bc0576040519150601f19603f3d011682016040523d82523d6000602084013e613bc5565b606091505b509150915081613bd8576015600061181a565b8080602001905181019061181a9190615176565b6040516001600160a01b038581166024830152848116604483015283166064820152600782900b608482015260009081908190610167907f5cfc9011000000000000000000000000000000000000000000000000000000009060a401611057565b6040516001600160a01b038481166024830152831660448201526064810182905260009081908190610167907fe1f21c6700000000000000000000000000000000000000000000000000000000906084016133a9565b600080828061010001516000015160070b6000148015613ccd57506101008101516040015160070b155b15613ce3576101008101516276a7006040909101525b6000806101676001600160a01b03163463ea83f29360e01b88604051602401613d0c9190615887565b60408051601f198184030181529181526020820180516001600160e01b03166001600160e01b0319909416939093179092529051613d4a9190614c87565b60006040518083038185875af1925050503d8060008114613bc0576040519150601f19603f3d011682016040523d82523d6000602084013e613bc5565b6040516001600160a01b03848116602483015283166044820152811515606482015260009081908190610167907f367605ca00000000000000000000000000000000000000000000000000000000906084016133a9565b60008060006101676001600160a01b0316637d305cfa60e01b8686604051602401612c8292919061589a565b6000613e2e836006811115613e2157613e216158bc565b600160ff9091161b821790565b9050610a0e826006811115613e2157613e216158bc565b613e8b6040518060a0016040528060001515815260200160006001600160a01b03168152602001606081526020016060815260200160006001600160a01b031681525090565b6000836004811115613e9f57613e9f6158bc565b1415613eae5760018152610f4d565b6001836004811115613ec257613ec26158bc565b1415613ede576000546001600160a01b03166020820152610f4d565b6002836004811115613ef257613ef26158bc565b1415613f045760408101829052610f4d565b6003836004811115613f1857613f186158bc565b1415613f2a5760608101829052610f4d565b6004836004811115613f3e57613f3e6158bc565b1415610f4d576000546001600160a01b0316608082015292915050565b600060016000836006811115613f7357613f736158bc565b6006811115613f8457613f846158bc565b8152602001908152602001600020549050919050565b604051806040016040528060008152602001613ff26040518060a0016040528060001515815260200160006001600160a01b03168152602001606081526020016060815260200160006001600160a01b031681525090565b905290565b6001600160a01b0381168114612aa057600080fd5b60008060006060848603121561402157600080fd5b833561402c81613ff7565b9250602084013561403c81613ff7565b9150604084013561404c81613ff7565b809150509250925092565b6000806040838503121561406a57600080fd5b823561407581613ff7565b9150602083013561408581613ff7565b809150509250929050565b8060070b8114612aa057600080fd5b634e487b7160e01b600052604160045260246000fd5b6040516060810167ffffffffffffffff811182821017156140d8576140d861409f565b60405290565b6040516020810167ffffffffffffffff811182821017156140d8576140d861409f565b6040516080810167ffffffffffffffff811182821017156140d8576140d861409f565b60405160a0810167ffffffffffffffff811182821017156140d8576140d861409f565b604051601f8201601f1916810167ffffffffffffffff811182821017156141705761417061409f565b604052919050565b600067ffffffffffffffff8211156141925761419261409f565b5060051b60200190565b600067ffffffffffffffff8211156141b6576141b661409f565b50601f01601f191660200190565b600082601f8301126141d557600080fd5b81356141e86141e38261419c565b614147565b8181528460208386010111156141fd57600080fd5b816020850160208301376000918101602001919091529392505050565b60008060006060848603121561422f57600080fd5b833561423a81613ff7565b925060208481013561424b81614090565b9250604085013567ffffffffffffffff8082111561426857600080fd5b818701915087601f83011261427c57600080fd5b813561428a6141e382614178565b81815260059190911b8301840190848101908a8311156142a957600080fd5b8585015b838110156142e1578035858111156142c55760008081fd5b6142d38d89838a01016141c4565b8452509186019186016142ad565b508096505050505050509250925092565b600081518084526020808501945080840160005b8381101561432557815160070b87529582019590820190600101614306565b509495945050505050565b8260070b815260406020820152600061122360408301846142f2565b60006020828403121561435e57600080fd5b8135610a0e81613ff7565b6000806040838503121561437c57600080fd5b823561438781613ff7565b946020939093013593505050565b60005b838110156143b0578181015183820152602001614398565b838111156116d15750506000910152565b600081518084526143d9816020860160208601614395565b601f01601f19169290920160200192915050565b851515815260006001600160a01b03808716602084015260a0604084015261441860a08401876143c1565b838103606085015261442a81876143c1565b9250508084166080840152509695505050505050565b6000806000806080858703121561445657600080fd5b843561446181613ff7565b9350602085013561447181613ff7565b9250604085013561448181613ff7565b9396929550929360600135925050565b600082601f8301126144a257600080fd5b813560206144b26141e383614178565b82815260059290921b840181019181810190868411156144d157600080fd5b8286015b848110156144f55780356144e881613ff7565b83529183019183016144d5565b509695505050505050565b600082601f83011261451157600080fd5b813560206145216141e383614178565b82815260059290921b8401810191818101908684111561454057600080fd5b8286015b848110156144f557803561455781614090565b8352918301918301614544565b6000806000806080858703121561457a57600080fd5b843561458581613ff7565b9350602085013567ffffffffffffffff808211156145a257600080fd5b6145ae88838901614491565b945060408701359150808211156145c457600080fd5b6145d088838901614491565b935060608701359150808211156145e657600080fd5b506145f387828801614500565b91505092959194509250565b6000806040838503121561461257600080fd5b823561461d81613ff7565b9150602083013567ffffffffffffffff81111561463957600080fd5b61464585828601614491565b9150509250929050565b60006020828403121561466157600080fd5b5035919050565b60008060006060848603121561467d57600080fd5b833561468881613ff7565b9250602084013561469881613ff7565b9150604084013567ffffffffffffffff8111156146b457600080fd5b6146c086828701614500565b9150509250925092565b600080600080608085870312156146e057600080fd5b84356146eb81613ff7565b935060208501356146fb81613ff7565b9250604085013561470b81613ff7565b9150606085013561471b81614090565b939692955090935050565b60008060006060848603121561473b57600080fd5b833561474681613ff7565b9250602084013561475681613ff7565b9150604084013561404c81614090565b6000806040838503121561477957600080fd5b823561478481613ff7565b9150602083013567ffffffffffffffff8111156147a057600080fd5b614645858286016141c4565b82815260406020820152600061122360408301846143c1565b6000806000606084860312156147da57600080fd5b83356147e581613ff7565b9250602084013561469881614090565b60008060006060848603121561480a57600080fd5b833561481581613ff7565b9250602084013561482581613ff7565b929592945050506040919091013590565b8015158114612aa057600080fd5b600082601f83011261485557600080fd5b813560206148656141e383614178565b8281526060928302850182019282820191908785111561488457600080fd5b8387015b858110156148e65781818a0312156148a05760008081fd5b6148a86140b5565b81356148b381613ff7565b8152818601356148c281614090565b818701526040828101356148d581614836565b908201528452928401928101614888565b5090979650505050505050565b6000806040838503121561490657600080fd5b67ffffffffffffffff808435111561491d57600080fd5b6020843585018603121561493057600080fd5b6149386140de565b818535860135111561494957600080fd5b6149598686358701803501614844565b81529250602084013581101561496e57600080fd5b6020840135840185601f82011261498457600080fd5b6149916141e38235614178565b81358082526020808301929160051b8401018810156149af57600080fd5b602083015b6020843560051b850101811015614b2f5784813511156149d357600080fd5b803584016060818b03601f190112156149eb57600080fd5b6149f36140b5565b614a006020830135613ff7565b602082013581528660408301351115614a1857600080fd5b614a2b8b60206040850135850101614844565b60208201528660608301351115614a4157600080fd5b6060820135820191508a603f830112614a5957600080fd5b614a696141e36020840135614178565b602083810135808352908201919060071b84016040018d811115614a8c57600080fd5b6040850194505b80851015614b19576080858f031215614aab57600080fd5b614ab3614101565b614abd8635613ff7565b85358152614ace6020870135613ff7565b60208601356020820152614ae56040870135614090565b60408601356040820152614afc6060870135614836565b606086810135908201528352608090940193602090920191614a93565b50604083015250845250602092830192016149b4565b50809450505050509250929050565b600080600060608486031215614b5357600080fd5b8335614b5e81613ff7565b9250602084013567ffffffffffffffff80821115614b7b57600080fd5b614b8787838801614491565b93506040860135915080821115614b9d57600080fd5b506146c086828701614500565b803563ffffffff81168114614bbe57600080fd5b919050565b60008060408385031215614bd657600080fd5b614bdf83614baa565b9150614bed60208401614baa565b90509250929050565b600080600060608486031215614c0b57600080fd5b8335614c1681613ff7565b92506020840135614c2681613ff7565b9150604084013561404c81614836565b634e487b7160e01b600052603260045260246000fd5b600181811c90821680614c6057607f821691505b60208210811415614c8157634e487b7160e01b600052602260045260246000fd5b50919050565b60008251614c99818460208701614395565b9190910192915050565b8051600381900b8114614bbe57600080fd5b600060208284031215614cc757600080fd5b610a0e82614ca3565b600060208284031215614ce257600080fd5b5051919050565b6001600160a01b038316815260406020820152600061122360408301846143c1565b821515815260406020820152600061122360408301846143c1565b600082601f830112614d3757600080fd5b8151614d456141e38261419c565b818152846020838601011115614d5a57600080fd5b611223826020830160208701614395565b60008060408385031215614d7e57600080fd5b614d8783614ca3565b9150602083015167ffffffffffffffff811115614da357600080fd5b61464585828601614d26565b600060208284031215614dc157600080fd5b8151610a0e81614090565b634e487b7160e01b600052601160045260246000fd5b600063ffffffff83811690831681811015614dff57614dff614dcc565b039392505050565b600063ffffffff80841680614e2c57634e487b7160e01b600052601260045260246000fd5b92169190910692915050565b600063ffffffff808316818516808303821115614e5757614e57614dcc565b01949350505050565b60008060408385031215614e7357600080fd5b614e7c83614ca3565b9150602083015190509250929050565b600081518084526020808501808196508360051b8101915082860160005b85811015614f435782840389528151604081518652868201519150808787015281511515818701528682015160606001600160a01b03808316828a015283850151935060a09250608083818b0152614f0560e08b01866143c1565b928601518a8403603f1901858c0152929450614f2185846143c1565b9501511660c09890980197909752505098850198935090840190600101614eaa565b5091979650505050505050565b60006101608251818552614f66828601826143c1565b91505060208301518482036020860152614f8082826143c1565b9150506040830151614f9d60408601826001600160a01b03169052565b5060608301518482036060860152614fb582826143c1565b9150506080830151614fcb608086018215159052565b5060a0830151614fe060a086018260070b9052565b5060c0830151614ff460c086018215159052565b5060e083015184820360e086015261500c8282614e8c565b9150506101008084015161504882870182805160070b82526001600160a01b036020820151166020830152604081015160070b60408301525050565b5090949350505050565b600081518084526020808501945080840160005b83811015614325578151805160070b8852838101516001600160a01b03908116858a01526040808301511515908a01526060808301511515908a0152608091820151169088015260a09096019590820190600101615066565b600060608083526150d281840187614f50565b6020848203818601526150e58288615052565b91506040858303818701528287518085528385019150838901945060005b818110156151665785518051600790810b855286820151810b8786015285820151900b85850152878101516001600160a01b039081168986015260808083015115159086015260a09182015116908401529484019460c090920191600101615103565b50909a9950505050505050505050565b6000806040838503121561518957600080fd5b61519283614ca3565b9150602083015161408581613ff7565b6000606082016001600160a01b038616835260208560070b818501526060604085015281855180845260808601915060808160051b870101935082870160005b8281101561521057607f198887030184526151fe8683516143c1565b955092840192908401906001016151e2565b50939998505050505050505050565b60008060006060848603121561523457600080fd5b61523d84614ca3565b925060208085015161524e81614090565b604086015190935067ffffffffffffffff81111561526b57600080fd5b8501601f8101871361527c57600080fd5b805161528a6141e382614178565b81815260059190911b820183019083810190898311156152a957600080fd5b928401925b828410156152d05783516152c181614090565b825292840192908401906152ae565b80955050505050509250925092565b8051614bbe81613ff7565b600080604083850312156152fd57600080fd5b61530683614ca3565b9150602083015167ffffffffffffffff8082111561532357600080fd5b9084019060a0828703121561533757600080fd5b61533f614124565b825161534a81614836565b8152602083015161535a81613ff7565b602082015260408301518281111561537157600080fd5b61537d88828601614d26565b60408301525060608301518281111561539557600080fd5b6153a188828601614d26565b6060830152506153b3608084016152df565b60808201528093505050509250929050565b600081518084526020808501945080840160005b838110156143255781516001600160a01b0316875295820195908201906001016153d9565b6001600160a01b038516815260806020820152600061542060808301866153c5565b828103604084015261543281866153c5565b9050828103606084015261544681856142f2565b979650505050505050565b6001600160a01b038316815260406020820152600061122360408301846153c5565b6000806040838503121561548657600080fd5b61548f83614ca3565b9150602083015161408581614836565b6060815260006154b26060830186614f50565b90508360070b60208301528260030b6040830152949350505050565b60006001600160a01b038086168352808516602084015250606060408301526154fa60608301846142f2565b95945050505050565b6001600160a01b03841681528260070b60208201526060604082015260006154fa60608301846142f2565b6000806040838503121561554157600080fd5b61554a83614ca3565b9150602083015161408581614090565b6001600160a01b03831681526040602082015260006112236040830184614e8c565b6001600160a01b038316815260808101610a0e6020830184805160070b82526001600160a01b036020820151166020830152604081015160070b60408301525050565b60008082840360808112156155d357600080fd5b6155dc84614ca3565b92506060601f19820112156155f057600080fd5b506155f96140b5565b602084015161560781614090565b8152604084015161561781613ff7565b6020820152606084015161562a81614090565b6040820152919491935090915050565b600060a080835261564d81840189614f50565b6020600789810b8287015260408960030b81880152606087850381890152615675858b615052565b94506080888603818a0152858a518088528688019150868c01975060005b818110156156ed5788518051880b845288810151880b8985015286810151880b8785015285810151880b86850152848101511515858501528a01516001600160a01b03168a8401529787019760c090920191600101615693565b50909f9e505050505050505050505050505050565b600081518084526020808501945080840160005b8381101561432557815180516001600160a01b031688528381015160070b8489015260409081015115159088015260609096019590820190600101615716565b60006040808352606085516020808487015261577483870183615702565b9150858203818701528187518084528284019150828160051b850101838a0160005b8381101561584257601f1987840301855281516001600160a01b03808251168552878201518a898701526157cc8b870182615702565b928c0151868403878e01528051808552908a0193600092508a01905b8083101561582c5784518051851683528b81015185168c8401528e81015160070b8f8401528d015115158d830152938a0193600192909201916080909101906157e8565b5097890197955050509186019150600101615796565b50909b9a5050505050505050505050565b6001600160a01b038416815260606020820152600061587560608301856153c5565b82810360408401526116af81856142f2565b602081526000610a0e6020830184614f50565b6001600160a01b03831681526040602082015260006112236040830184614f50565b634e487b7160e01b600052602160045260246000fdfea26469706673582212206874931a1a20a50986defc8aab42e78f9eb6bb47f2fa0b39efffa7ddbc8c0f6364736f6c63430008090033",
  "linkReferences": {},
  "deployedLinkReferences": {}
}