{
  "_format": "hh-sol-artifact-1",
  "contractName": "EstimatePrecompileContract",
  "sourceName": "contracts/EstimatePrecompileContract.sol",
  "abi": [
    {
      "anonymous": false,
      "inputs": [
        {
          "indexed": false,
          "internalType": "bool",
          "name": "",
          "type": "bool"
        },
        {
          "indexed": false,
          "internalType": "bytes",
          "name": "",
          "type": "bytes"
        }
      ],
      "name": "CallResponseEvent",
      "type": "event"
    },
    {
      "inputs": [
        {
          "internalType": "address",
          "name": "token",
          "type": "address"
        },
        {
          "internalType": "address",
          "name": "spender",
          "type": "address"
        },
        {
          "internalType": "uint256",
          "name": "amount",
          "type": "uint256"
        }
      ],
      "name": "approveExternal",
      "outputs": [
        {
          "internalType": "int256",
          "name": "responseCode",
          "type": "int256"
        }
      ],
      "stateMutability": "nonpayable",
      "type": "function"
    },
    {
      "inputs": [
        {
          "internalType": "address",
          "name": "token",
          "type": "address"
        },
        {
          "internalType": "address",
          "name": "approved",
          "type": "address"
        },
        {
          "internalType": "uint256",
          "name": "serialNumber",
          "type": "uint256"
        }
      ],
      "name": "approveNFTExternal",
      "outputs": [
        {
          "internalType": "int256",
          "name": "responseCode",
          "type": "int256"
        }
      ],
      "stateMutability": "nonpayable",
      "type": "function"
    },
    {
      "inputs": [
        {
          "internalType": "address",
          "name": "account",
          "type": "address"
        },
        {
          "internalType": "address",
          "name": "token",
          "type": "address"
        }
      ],
      "name": "associateTokenExternal",
      "outputs": [
        {
          "internalType": "int256",
          "name": "responseCode",
          "type": "int256"
        }
      ],
      "stateMutability": "nonpayable",
      "type": "function"
    },
    {
      "inputs": [
        {
          "internalType": "address",
          "name": "account",
          "type": "address"
        },
        {
          "internalType": "address[]",
          "name": "tokens",
          "type": "address[]"
        }
      ],
      "name": "associateTokensExternal",
      "outputs": [
        {
          "internalType": "int256",
          "name": "responseCode",
          "type": "int256"
        }
      ],
      "stateMutability": "nonpayable",
      "type": "function"
    },
    {
      "inputs": [
        {
          "internalType": "address",
          "name": "account",
          "type": "address"
        },
        {
          "internalType": "address",
          "name": "token",
          "type": "address"
        }
      ],
      "name": "dissociateAndAssociateTokenExternal",
      "outputs": [
        {
          "internalType": "int256",
          "name": "responseCode",
          "type": "int256"
        }
      ],
      "stateMutability": "nonpayable",
      "type": "function"
    },
    {
      "inputs": [
        {
          "internalType": "address",
          "name": "account",
          "type": "address"
        },
        {
          "internalType": "address",
          "name": "token",
          "type": "address"
        }
      ],
      "name": "dissociateTokenExternal",
      "outputs": [
        {
          "internalType": "int256",
          "name": "responseCode",
          "type": "int256"
        }
      ],
      "stateMutability": "nonpayable",
      "type": "function"
    },
    {
      "inputs": [
        {
          "internalType": "address",
          "name": "account",
          "type": "address"
        },
        {
          "internalType": "address[]",
          "name": "tokens",
          "type": "address[]"
        }
      ],
      "name": "dissociateTokensExternal",
      "outputs": [
        {
          "internalType": "int256",
          "name": "responseCode",
          "type": "int256"
        }
      ],
      "stateMutability": "nonpayable",
      "type": "function"
    },
    {
      "inputs": [
        {
          "internalType": "address",
          "name": "account",
          "type": "address"
        },
        {
          "internalType": "address",
          "name": "token",
          "type": "address"
        }
      ],
      "name": "nestedAssociateTokenExternal",
      "outputs": [
        {
          "internalType": "int256",
          "name": "responseCode",
          "type": "int256"
        }
      ],
      "stateMutability": "nonpayable",
      "type": "function"
    },
    {
      "inputs": [
        {
          "internalType": "address",
          "name": "account",
          "type": "address"
        },
        {
          "internalType": "address",
          "name": "token",
          "type": "address"
        }
      ],
      "name": "nestedDissociateTokenExternal",
      "outputs": [
        {
          "internalType": "int256",
          "name": "responseCode",
          "type": "int256"
        }
      ],
      "stateMutability": "nonpayable",
      "type": "function"
    },
    {
      "inputs": [
        {
          "internalType": "address",
          "name": "token",
          "type": "address"
        },
        {
          "internalType": "bytes",
          "name": "encodedFunctionSelector",
          "type": "bytes"
        }
      ],
      "name": "redirectForToken",
      "outputs": [],
      "stateMutability": "nonpayable",
      "type": "function"
    },
    {
      "inputs": [
        {
          "internalType": "address",
          "name": "token",
          "type": "address"
        },
        {
          "internalType": "address",
          "name": "from",
          "type": "address"
        },
        {
          "internalType": "address",
          "name": "to",
          "type": "address"
        },
        {
          "internalType": "uint256",
          "name": "amount",
          "type": "uint256"
        }
      ],
      "name": "transferFrom",
      "outputs": [
        {
          "internalType": "int64",
          "name": "responseCode",
          "type": "int64"
        }
      ],
      "stateMutability": "nonpayable",
      "type": "function"
    },
    {
      "inputs": [
        {
          "internalType": "address",
          "name": "token",
          "type": "address"
        },
        {
          "internalType": "address",
          "name": "from",
          "type": "address"
        },
        {
          "internalType": "address",
          "name": "to",
          "type": "address"
        },
        {
          "internalType": "uint256",
          "name": "amount",
          "type": "uint256"
        }
      ],
      "name": "transferFromExternal",
      "outputs": [
        {
          "internalType": "int256",
          "name": "responseCode",
          "type": "int256"
        }
      ],
      "stateMutability": "nonpayable",
      "type": "function"
    },
    {
      "inputs": [
        {
          "internalType": "address",
          "name": "token",
          "type": "address"
        },
        {
          "internalType": "address",
          "name": "from",
          "type": "address"
        },
        {
          "internalType": "address",
          "name": "to",
          "type": "address"
        },
        {
          "internalType": "uint256",
          "name": "serialNumber",
          "type": "uint256"
        }
      ],
      "name": "transferFromNFT",
      "outputs": [
        {
          "internalType": "int64",
          "name": "responseCode",
          "type": "int64"
        }
      ],
      "stateMutability": "nonpayable",
      "type": "function"
    },
    {
      "inputs": [
        {
          "internalType": "address",
          "name": "token",
          "type": "address"
        },
        {
          "internalType": "address",
          "name": "from",
          "type": "address"
        },
        {
          "internalType": "address",
          "name": "to",
          "type": "address"
        },
        {
          "internalType": "uint256",
          "name": "serialNumber",
          "type": "uint256"
        }
      ],
      "name": "transferFromNFTExternal",
      "outputs": [
        {
          "internalType": "int256",
          "name": "responseCode",
          "type": "int256"
        }
      ],
      "stateMutability": "nonpayable",
      "type": "function"
    },
    {
      "inputs": [
        {
          "internalType": "address",
          "name": "token",
          "type": "address"
        },
        {
          "internalType": "address",
          "name": "sender",
          "type": "address"
        },
        {
          "internalType": "address",
          "name": "receiver",
          "type": "address"
        },
        {
          "internalType": "int64",
          "name": "serialNumber",
          "type": "int64"
        }
      ],
      "name": "transferNFTExternal",
      "outputs": [
        {
          "internalType": "int256",
          "name": "responseCode",
          "type": "int256"
        }
      ],
      "stateMutability": "nonpayable",
      "type": "function"
    },
    {
      "inputs": [
        {
          "internalType": "address",
          "name": "token",
          "type": "address"
        },
        {
          "internalType": "address[]",
          "name": "sender",
          "type": "address[]"
        },
        {
          "internalType": "address[]",
          "name": "receiver",
          "type": "address[]"
        },
        {
          "internalType": "int64[]",
          "name": "serialNumber",
          "type": "int64[]"
        }
      ],
      "name": "transferNFTsExternal",
      "outputs": [
        {
          "internalType": "int256",
          "name": "responseCode",
          "type": "int256"
        }
      ],
      "stateMutability": "nonpayable",
      "type": "function"
    },
    {
      "inputs": [
        {
          "internalType": "address",
          "name": "token",
          "type": "address"
        },
        {
          "internalType": "address",
          "name": "sender",
          "type": "address"
        },
        {
          "internalType": "address",
          "name": "receiver",
          "type": "address"
        },
        {
          "internalType": "int64",
          "name": "amount",
          "type": "int64"
        }
      ],
      "name": "transferTokenExternal",
      "outputs": [
        {
          "internalType": "int256",
          "name": "responseCode",
          "type": "int256"
        }
      ],
      "stateMutability": "nonpayable",
      "type": "function"
    },
    {
      "inputs": [
        {
          "internalType": "address",
          "name": "token",
          "type": "address"
        },
        {
          "internalType": "address[]",
          "name": "accountIds",
          "type": "address[]"
        },
        {
          "internalType": "int64[]",
          "name": "amounts",
          "type": "int64[]"
        }
      ],
      "name": "transferTokensExternal",
      "outputs": [
        {
          "internalType": "int256",
          "name": "responseCode",
          "type": "int256"
        }
      ],
      "stateMutability": "nonpayable",
      "type": "function"
    }
  ],
  "bytecode": "0x608060405234801561001057600080fd5b50611581806100206000396000f3fe608060405234801561001057600080fd5b50600436106101365760003560e01c80639b23d3d9116100b2578063bafa6a9111610081578063d91cfc9511610066578063d91cfc9514610280578063f193826614610293578063f2d75676146102a657600080fd5b8063bafa6a911461025a578063ceda64c41461026d57600080fd5b80639b23d3d91461020e5780639bc4d354146102215780639c21924714610234578063aa835c631461024757600080fd5b8063437dffd511610109578063618dc65e116100ee578063618dc65e146101d357806375a85472146101e857806384d232f5146101fb57600080fd5b8063437dffd5146101ad5780634fd6ce0a146101c057600080fd5b806315dacbea1461013b5780631ba978fc146101665780632390c1fa146101875780632fc358f71461019a575b600080fd5b61014e610149366004610eaf565b6102b9565b60405160079190910b81526020015b60405180910390f35b610179610174366004611066565b6103ad565b60405190815260200161015d565b6101796101953660046110ff565b61041a565b6101796101a83660046110ff565b61047e565b6101796101bb36600461114d565b6104dc565b6101796101ce366004611180565b610545565b6101e66101e13660046111d6565b6105a5565b005b6101796101f6366004610eaf565b610693565b61017961020936600461127c565b61077b565b61014e61021c366004610eaf565b6107e1565b61017961022f366004610eaf565b610826565b61017961024236600461114d565b61090e565b6101796102553660046112b8565b61091a565b610179610268366004611180565b610979565b61017961027b36600461127c565b610987565b61017961028e36600461114d565b6109e6565b6101796102a136600461114d565b6109f2565b6101796102b436600461114d565b610a5b565b6040516001600160a01b038581166024830152848116604483015283166064820152608481018290526000908190819061016790630aed65f560e11b9060a4015b60408051601f198184030181529181526020820180516001600160e01b03166001600160e01b0319909416939093179092529051610338919061135c565b6000604051808303816000865af19150503d8060008114610375576040519150601f19603f3d011682016040523d82523d6000602084013e61037a565b606091505b50915091508161038b57601561039f565b8080602001905181019061039f9190611378565b60030b979650505050505050565b60006103bb85858585610a72565b9050601681146104125760405162461bcd60e51b815260206004820152601360248201527f4e4654207472616e73666572206661696c65640000000000000000000000000060448201526064015b60405180910390fd5b949350505050565b60006104268383610aa2565b9050601681146104785760405162461bcd60e51b815260206004820152601a60248201527f546f6b656e20646973736f63696174696f6e206661696c6564210000000000006044820152606401610409565b92915050565b600061048a8383610b7f565b9050601681146104785760405162461bcd60e51b815260206004820152601760248201527f546f6b656e206173736f6369617465206661696c6564210000000000000000006044820152606401610409565b60006104e88383610bab565b506104f38383610bab565b9050601681146104785760405162461bcd60e51b815260206004820152601960248201527f546f6b656e206173736f63696174696f6e206661696c656421000000000000006044820152606401610409565b600061055385858585610bfa565b9050601681146104125760405162461bcd60e51b815260206004820152601560248201527f546f6b656e207472616e73666572206661696c656400000000000000000000006044820152606401610409565b6000806101676001600160a01b031663618dc65e60e01b85856040516024016105cf9291906113c7565b60408051601f198184030181529181526020820180516001600160e01b03166001600160e01b031990941693909317909252905161060d919061135c565b6000604051808303816000865af19150503d806000811461064a576040519150601f19603f3d011682016040523d82523d6000602084013e61064f565b606091505b50915091507f4af4780e06fe8cb9df64b0794fa6f01399af979175bb988e35e0e57e594567bc82826040516106859291906113e9565b60405180910390a150505050565b604051630aed65f560e11b81526001600160a01b0380861660048301528085166024830152831660448201526064810182905260009030906315dacbea90608401602060405180830381600087803b1580156106ee57600080fd5b505af1158015610702573d6000803e3d6000fd5b505050506040513d601f19601f820116820180604052508101906107269190611404565b60070b9050601681146104125760405162461bcd60e51b815260206004820152600f60248201527f5472616e73666572206661696c656400000000000000000000000000000000006044820152606401610409565b6000610788848484610c5b565b9050601681146107da5760405162461bcd60e51b815260206004820152601460248201527f4e465420617070726f76616c206661696c6564210000000000000000000000006044820152606401610409565b9392505050565b6040516001600160a01b038581166024830152848116604483015283166064820152608481018290526000908190819061016790639b23d3d960e01b9060a4016102fa565b604051639b23d3d960e01b81526001600160a01b038086166004830152808516602483015283166044820152606481018290526000903090639b23d3d990608401602060405180830381600087803b15801561088157600080fd5b505af1158015610895573d6000803e3d6000fd5b505050506040513d601f19601f820116820180604052508101906108b99190611404565b60070b9050601681146104125760405162461bcd60e51b815260206004820152601360248201527f4e4654207472616e73666572206661696c6564000000000000000000000000006044820152606401610409565b60006104268383610d5f565b6000610927848484610dae565b9050601681146107da5760405162461bcd60e51b815260206004820152601560248201527f546f6b656e207472616e73666572206661696c656400000000000000000000006044820152606401610409565b60006103bb85858585610ddc565b6000610994848484610e3d565b9050601681146107da5760405162461bcd60e51b815260206004820152601060248201527f417070726f76616c206661696c656421000000000000000000000000000000006044820152606401610409565b60006104f38383610bab565b60006109fe8383610d5f565b50610a098383610bab565b9050601681146104785760405162461bcd60e51b815260206004820181905260248201527f4e657374656420746f6b656e206173736f63696174696f6e206661696c6564216044820152606401610409565b6000610a678383610d5f565b506104268383610d5f565b60008060006101676001600160a01b0316632c4ba19160e01b888888886040516024016102fa9493929190611498565b60008060006101676001600160a01b03166378b6391860e01b8686604051602401610ace9291906114eb565b60408051601f198184030181529181526020820180516001600160e01b03166001600160e01b0319909416939093179092529051610b0c919061135c565b6000604051808303816000865af19150503d8060008114610b49576040519150601f19603f3d011682016040523d82523d6000602084013e610b4e565b606091505b509150915081610b5f576015610b73565b80806020019051810190610b739190611378565b60030b95945050505050565b60008060006101676001600160a01b0316632e63879b60e01b8686604051602401610ace9291906114eb565b6040516001600160a01b0383811660248301528216604482015260009081908190610167907f49146bde0000000000000000000000000000000000000000000000000000000090606401610ace565b6040516001600160a01b038581166024830152848116604483015283166064820152600782900b608482015260009081908190610167907feca36917000000000000000000000000000000000000000000000000000000009060a4016102fa565b6040516001600160a01b038481166024830152831660448201526064810182905260009081908190610167907f7336aaf000000000000000000000000000000000000000000000000000000000906084015b60408051601f198184030181529181526020820180516001600160e01b03166001600160e01b0319909416939093179092529051610ceb919061135c565b6000604051808303816000865af19150503d8060008114610d28576040519150601f19603f3d011682016040523d82523d6000602084013e610d2d565b606091505b509150915081610d3e576015610d52565b80806020019051810190610d529190611378565b60030b9695505050505050565b6040516001600160a01b0383811660248301528216604482015260009081908190610167907f099794e80000000000000000000000000000000000000000000000000000000090606401610ace565b60008060006101676001600160a01b03166382bba49360e01b878787604051602401610cad9392919061150d565b6040516001600160a01b038581166024830152848116604483015283166064820152600782900b608482015260009081908190610167907f5cfc9011000000000000000000000000000000000000000000000000000000009060a4016102fa565b6040516001600160a01b038481166024830152831660448201526064810182905260009081908190610167907fe1f21c670000000000000000000000000000000000000000000000000000000090608401610cad565b80356001600160a01b0381168114610eaa57600080fd5b919050565b60008060008060808587031215610ec557600080fd5b610ece85610e93565b9350610edc60208601610e93565b9250610eea60408601610e93565b9396929550929360600135925050565b7f4e487b7100000000000000000000000000000000000000000000000000000000600052604160045260246000fd5b604051601f8201601f1916810167ffffffffffffffff81118282101715610f5257610f52610efa565b604052919050565b600067ffffffffffffffff821115610f7457610f74610efa565b5060051b60200190565b600082601f830112610f8f57600080fd5b81356020610fa4610f9f83610f5a565b610f29565b82815260059290921b84018101918181019086841115610fc357600080fd5b8286015b84811015610fe557610fd881610e93565b8352918301918301610fc7565b509695505050505050565b8060070b8114610fff57600080fd5b50565b600082601f83011261101357600080fd5b81356020611023610f9f83610f5a565b82815260059290921b8401810191818101908684111561104257600080fd5b8286015b84811015610fe557803561105981610ff0565b8352918301918301611046565b6000806000806080858703121561107c57600080fd5b61108585610e93565b9350602085013567ffffffffffffffff808211156110a257600080fd5b6110ae88838901610f7e565b945060408701359150808211156110c457600080fd5b6110d088838901610f7e565b935060608701359150808211156110e657600080fd5b506110f387828801611002565b91505092959194509250565b6000806040838503121561111257600080fd5b61111b83610e93565b9150602083013567ffffffffffffffff81111561113757600080fd5b61114385828601610f7e565b9150509250929050565b6000806040838503121561116057600080fd5b61116983610e93565b915061117760208401610e93565b90509250929050565b6000806000806080858703121561119657600080fd5b61119f85610e93565b93506111ad60208601610e93565b92506111bb60408601610e93565b915060608501356111cb81610ff0565b939692955090935050565b600080604083850312156111e957600080fd5b6111f283610e93565b915060208084013567ffffffffffffffff8082111561121057600080fd5b818601915086601f83011261122457600080fd5b81358181111561123657611236610efa565b611248601f8201601f19168501610f29565b9150808252878482850101111561125e57600080fd5b80848401858401376000848284010152508093505050509250929050565b60008060006060848603121561129157600080fd5b61129a84610e93565b92506112a860208501610e93565b9150604084013590509250925092565b6000806000606084860312156112cd57600080fd5b6112d684610e93565b9250602084013567ffffffffffffffff808211156112f357600080fd5b6112ff87838801610f7e565b9350604086013591508082111561131557600080fd5b5061132286828701611002565b9150509250925092565b60005b8381101561134757818101518382015260200161132f565b83811115611356576000848401525b50505050565b6000825161136e81846020870161132c565b9190910192915050565b60006020828403121561138a57600080fd5b81518060030b81146107da57600080fd5b600081518084526113b381602086016020860161132c565b601f01601f19169290920160200192915050565b6001600160a01b0383168152604060208201526000610412604083018461139b565b8215158152604060208201526000610412604083018461139b565b60006020828403121561141657600080fd5b81516107da81610ff0565b600081518084526020808501945080840160005b8381101561145a5781516001600160a01b031687529582019590820190600101611435565b509495945050505050565b600081518084526020808501945080840160005b8381101561145a57815160070b87529582019590820190600101611479565b6001600160a01b03851681526080602082015260006114ba6080830186611421565b82810360408401526114cc8186611421565b905082810360608401526114e08185611465565b979650505050505050565b6001600160a01b03831681526040602082015260006104126040830184611421565b6001600160a01b038416815260606020820152600061152f6060830185611421565b82810360408401526115418185611465565b969550505050505056fea2646970667358221220dfd81555b02fa9d492ea752b3649588558cc4f7b28440512dff2ce3a27ff2a6964736f6c63430008090033",
  "linkReferences": {},
  "deployedLinkReferences": {}
}