{
  "_format": "hh-sol-artifact-1",
  "contractName": "EstimatePrecompileContract",
  "sourceName": "contracts/EstimatePrecompileContract.sol",
  "abi": [
    {
      "anonymous": false,
      "inputs": [
        {
          "indexed": false,
          "internalType": "bool",
          "name": "",
          "type": "bool"
        },
        {
          "indexed": false,
          "internalType": "bytes",
          "name": "",
          "type": "bytes"
        }
      ],
      "name": "CallResponseEvent",
      "type": "event"
    },
    {
      "inputs": [
        {
          "internalType": "address",
          "name": "token",
          "type": "address"
        },
        {
          "internalType": "address",
          "name": "owner",
          "type": "address"
        },
        {
          "internalType": "address",
          "name": "spender",
          "type": "address"
        }
      ],
      "name": "allowanceExternal",
      "outputs": [
        {
          "internalType": "uint256",
          "name": "",
          "type": "uint256"
        }
      ],
      "stateMutability": "nonpayable",
      "type": "function"
    },
    {
      "inputs": [
        {
          "internalType": "address",
          "name": "token",
          "type": "address"
        },
        {
          "internalType": "address",
          "name": "spender",
          "type": "address"
        },
        {
          "internalType": "uint256",
          "name": "amount",
          "type": "uint256"
        }
      ],
      "name": "approveExternal",
      "outputs": [],
      "stateMutability": "nonpayable",
      "type": "function"
    },
    {
      "inputs": [
        {
          "internalType": "address",
          "name": "token",
          "type": "address"
        },
        {
          "internalType": "address",
          "name": "approved",
          "type": "address"
        },
        {
          "internalType": "uint256",
          "name": "serialNumber",
          "type": "uint256"
        }
      ],
      "name": "approveNFTExternal",
      "outputs": [],
      "stateMutability": "nonpayable",
      "type": "function"
    },
    {
      "inputs": [
        {
          "internalType": "address",
          "name": "account",
          "type": "address"
        },
        {
          "internalType": "address",
          "name": "token",
          "type": "address"
        }
      ],
      "name": "associateTokenExternal",
      "outputs": [],
      "stateMutability": "nonpayable",
      "type": "function"
    },
    {
      "inputs": [
        {
          "internalType": "address",
          "name": "account",
          "type": "address"
        },
        {
          "internalType": "address[]",
          "name": "tokens",
          "type": "address[]"
        }
      ],
      "name": "associateTokensExternal",
      "outputs": [],
      "stateMutability": "nonpayable",
      "type": "function"
    },
    {
      "inputs": [
        {
          "internalType": "address",
          "name": "token",
          "type": "address"
        },
        {
          "internalType": "int64",
          "name": "amount",
          "type": "int64"
        },
        {
          "internalType": "int64[]",
          "name": "serialNumbers",
          "type": "int64[]"
        }
      ],
      "name": "burnTokenExternal",
      "outputs": [
        {
          "internalType": "int64",
          "name": "newTotalSupply",
          "type": "int64"
        }
      ],
      "stateMutability": "nonpayable",
      "type": "function"
    },
    {
      "inputs": [
        {
          "internalType": "address",
          "name": "treasury",
          "type": "address"
        }
      ],
      "name": "createFungibleTokenPublic",
      "outputs": [
        {
          "internalType": "address",
          "name": "",
          "type": "address"
        }
      ],
      "stateMutability": "payable",
      "type": "function"
    },
    {
      "inputs": [
        {
          "internalType": "address",
          "name": "treasury",
          "type": "address"
        },
        {
          "internalType": "address",
          "name": "fixedFeeTokenAddress",
          "type": "address"
        }
      ],
      "name": "createFungibleTokenWithCustomFeesPublic",
      "outputs": [
        {
          "internalType": "address",
          "name": "",
          "type": "address"
        }
      ],
      "stateMutability": "payable",
      "type": "function"
    },
    {
      "inputs": [
        {
          "internalType": "address",
          "name": "treasury",
          "type": "address"
        }
      ],
      "name": "createNonFungibleTokenPublic",
      "outputs": [
        {
          "internalType": "address",
          "name": "",
          "type": "address"
        }
      ],
      "stateMutability": "payable",
      "type": "function"
    },
    {
      "inputs": [
        {
          "internalType": "address",
          "name": "treasury",
          "type": "address"
        },
        {
          "internalType": "address",
          "name": "fixedFeeTokenAddress",
          "type": "address"
        }
      ],
      "name": "createNonFungibleTokenWithCustomFeesPublic",
      "outputs": [
        {
          "internalType": "address",
          "name": "",
          "type": "address"
        }
      ],
      "stateMutability": "payable",
      "type": "function"
    },
    {
      "inputs": [
        {
          "components": [
            {
              "components": [
                {
                  "internalType": "address",
                  "name": "accountID",
                  "type": "address"
                },
                {
                  "internalType": "int64",
                  "name": "amount",
                  "type": "int64"
                },
                {
                  "internalType": "bool",
                  "name": "isApproval",
                  "type": "bool"
                }
              ],
              "internalType": "struct IHederaTokenService.AccountAmount[]",
              "name": "transfers",
              "type": "tuple[]"
            }
          ],
          "internalType": "struct IHederaTokenService.TransferList",
          "name": "transferList",
          "type": "tuple"
        },
        {
          "components": [
            {
              "internalType": "address",
              "name": "token",
              "type": "address"
            },
            {
              "components": [
                {
                  "internalType": "address",
                  "name": "accountID",
                  "type": "address"
                },
                {
                  "internalType": "int64",
                  "name": "amount",
                  "type": "int64"
                },
                {
                  "internalType": "bool",
                  "name": "isApproval",
                  "type": "bool"
                }
              ],
              "internalType": "struct IHederaTokenService.AccountAmount[]",
              "name": "transfers",
              "type": "tuple[]"
            },
            {
              "components": [
                {
                  "internalType": "address",
                  "name": "senderAccountID",
                  "type": "address"
                },
                {
                  "internalType": "address",
                  "name": "receiverAccountID",
                  "type": "address"
                },
                {
                  "internalType": "int64",
                  "name": "serialNumber",
                  "type": "int64"
                },
                {
                  "internalType": "bool",
                  "name": "isApproval",
                  "type": "bool"
                }
              ],
              "internalType": "struct IHederaTokenService.NftTransfer[]",
              "name": "nftTransfers",
              "type": "tuple[]"
            }
          ],
          "internalType": "struct IHederaTokenService.TokenTransferList[]",
          "name": "tokenTransfers",
          "type": "tuple[]"
        }
      ],
      "name": "cryptoTransferExternal",
      "outputs": [],
      "stateMutability": "nonpayable",
      "type": "function"
    },
    {
      "inputs": [
        {
          "internalType": "address",
          "name": "token",
          "type": "address"
        }
      ],
      "name": "deleteTokenExternal",
      "outputs": [],
      "stateMutability": "nonpayable",
      "type": "function"
    },
    {
      "inputs": [
        {
          "internalType": "address",
          "name": "account",
          "type": "address"
        },
        {
          "internalType": "address",
          "name": "token",
          "type": "address"
        }
      ],
      "name": "dissociateAndAssociateTokenExternal",
      "outputs": [],
      "stateMutability": "nonpayable",
      "type": "function"
    },
    {
      "inputs": [
        {
          "internalType": "address",
          "name": "account",
          "type": "address"
        },
        {
          "internalType": "address",
          "name": "token",
          "type": "address"
        }
      ],
      "name": "dissociateTokenExternal",
      "outputs": [],
      "stateMutability": "nonpayable",
      "type": "function"
    },
    {
      "inputs": [
        {
          "internalType": "address",
          "name": "account",
          "type": "address"
        },
        {
          "internalType": "address[]",
          "name": "tokens",
          "type": "address[]"
        }
      ],
      "name": "dissociateTokensExternal",
      "outputs": [],
      "stateMutability": "nonpayable",
      "type": "function"
    },
    {
      "inputs": [
        {
          "internalType": "address",
          "name": "token",
          "type": "address"
        },
        {
          "internalType": "address",
          "name": "account",
          "type": "address"
        }
      ],
      "name": "freezeTokenExternal",
      "outputs": [],
      "stateMutability": "nonpayable",
      "type": "function"
    },
    {
      "inputs": [
        {
          "internalType": "address",
          "name": "token",
          "type": "address"
        },
        {
          "internalType": "uint256",
          "name": "serialNumber",
          "type": "uint256"
        }
      ],
      "name": "getApprovedExternal",
      "outputs": [
        {
          "internalType": "address",
          "name": "",
          "type": "address"
        }
      ],
      "stateMutability": "nonpayable",
      "type": "function"
    },
    {
      "inputs": [
        {
          "internalType": "uint32",
          "name": "lo",
          "type": "uint32"
        },
        {
          "internalType": "uint32",
          "name": "hi",
          "type": "uint32"
        }
      ],
      "name": "getPseudorandomNumber",
      "outputs": [
        {
          "internalType": "uint32",
          "name": "",
          "type": "uint32"
        }
      ],
      "stateMutability": "nonpayable",
      "type": "function"
    },
    {
      "inputs": [],
      "name": "getPseudorandomSeed",
      "outputs": [
        {
          "internalType": "bytes32",
          "name": "randomBytes",
          "type": "bytes32"
        }
      ],
      "stateMutability": "nonpayable",
      "type": "function"
    },
    {
      "inputs": [
        {
          "internalType": "address",
          "name": "token",
          "type": "address"
        }
      ],
      "name": "getTokenExpiryInfoExternal",
      "outputs": [
        {
          "internalType": "int64",
          "name": "",
          "type": "int64"
        },
        {
          "internalType": "address",
          "name": "",
          "type": "address"
        },
        {
          "internalType": "int64",
          "name": "",
          "type": "int64"
        }
      ],
      "stateMutability": "nonpayable",
      "type": "function"
    },
    {
      "inputs": [
        {
          "internalType": "address",
          "name": "token",
          "type": "address"
        },
        {
          "internalType": "uint256",
          "name": "keyType",
          "type": "uint256"
        }
      ],
      "name": "getTokenKeyExternal",
      "outputs": [
        {
          "internalType": "bool",
          "name": "",
          "type": "bool"
        },
        {
          "internalType": "address",
          "name": "",
          "type": "address"
        },
        {
          "internalType": "bytes",
          "name": "",
          "type": "bytes"
        },
        {
          "internalType": "bytes",
          "name": "",
          "type": "bytes"
        },
        {
          "internalType": "address",
          "name": "",
          "type": "address"
        }
      ],
      "stateMutability": "nonpayable",
      "type": "function"
    },
    {
      "inputs": [
        {
          "internalType": "address",
          "name": "token",
          "type": "address"
        },
        {
          "internalType": "address",
          "name": "account",
          "type": "address"
        }
      ],
      "name": "grantTokenKycExternal",
      "outputs": [],
      "stateMutability": "nonpayable",
      "type": "function"
    },
    {
      "inputs": [
        {
          "internalType": "address",
          "name": "token",
          "type": "address"
        },
        {
          "internalType": "address",
          "name": "owner",
          "type": "address"
        },
        {
          "internalType": "address",
          "name": "operator",
          "type": "address"
        }
      ],
      "name": "isApprovedForAllExternal",
      "outputs": [
        {
          "internalType": "bool",
          "name": "",
          "type": "bool"
        }
      ],
      "stateMutability": "nonpayable",
      "type": "function"
    },
    {
      "inputs": [
        {
          "internalType": "address",
          "name": "token",
          "type": "address"
        }
      ],
      "name": "isTokenExternal",
      "outputs": [
        {
          "internalType": "bool",
          "name": "",
          "type": "bool"
        }
      ],
      "stateMutability": "nonpayable",
      "type": "function"
    },
    {
      "inputs": [
        {
          "internalType": "address",
          "name": "token",
          "type": "address"
        },
        {
          "internalType": "int64",
          "name": "amount",
          "type": "int64"
        },
        {
          "internalType": "bytes[]",
          "name": "metadata",
          "type": "bytes[]"
        }
      ],
      "name": "mintTokenExternal",
      "outputs": [
        {
          "internalType": "int64",
          "name": "newTotalSupply",
          "type": "int64"
        },
        {
          "internalType": "int64[]",
          "name": "serialNumbers",
          "type": "int64[]"
        }
      ],
      "stateMutability": "nonpayable",
      "type": "function"
    },
    {
      "inputs": [
        {
          "internalType": "address",
          "name": "account",
          "type": "address"
        },
        {
          "internalType": "address",
          "name": "token",
          "type": "address"
        }
      ],
      "name": "nestedAssociateTokenExternal",
      "outputs": [],
      "stateMutability": "nonpayable",
      "type": "function"
    },
    {
      "inputs": [
        {
          "internalType": "address",
          "name": "token",
          "type": "address"
        },
        {
          "internalType": "address",
          "name": "account",
          "type": "address"
        }
      ],
      "name": "nestedFreezeUnfreezeTokenExternal",
      "outputs": [],
      "stateMutability": "nonpayable",
      "type": "function"
    },
    {
      "inputs": [
        {
          "internalType": "address",
          "name": "token",
          "type": "address"
        },
        {
          "internalType": "address",
          "name": "account",
          "type": "address"
        }
      ],
      "name": "nestedGrantAndRevokeTokenKYCExternal",
      "outputs": [],
      "stateMutability": "nonpayable",
      "type": "function"
    },
    {
      "inputs": [
        {
          "internalType": "address",
          "name": "token",
          "type": "address"
        }
      ],
      "name": "nestedPauseUnpauseTokenExternal",
      "outputs": [],
      "stateMutability": "nonpayable",
      "type": "function"
    },
    {
      "inputs": [
        {
          "internalType": "address",
          "name": "token",
          "type": "address"
        }
      ],
      "name": "pauseTokenExternal",
      "outputs": [],
      "stateMutability": "nonpayable",
      "type": "function"
    },
    {
      "inputs": [
        {
          "internalType": "address",
          "name": "token",
          "type": "address"
        },
        {
          "internalType": "bytes",
          "name": "encodedFunctionSelector",
          "type": "bytes"
        }
      ],
      "name": "redirectForToken",
      "outputs": [
        {
          "internalType": "int256",
          "name": "responseCode",
          "type": "int256"
        },
        {
          "internalType": "bytes",
          "name": "response",
          "type": "bytes"
        }
      ],
      "stateMutability": "nonpayable",
      "type": "function"
    },
    {
      "inputs": [
        {
          "internalType": "address",
          "name": "token",
          "type": "address"
        },
        {
          "internalType": "address",
          "name": "account",
          "type": "address"
        }
      ],
      "name": "revokeTokenKycExternal",
      "outputs": [],
      "stateMutability": "nonpayable",
      "type": "function"
    },
    {
      "inputs": [
        {
          "internalType": "address",
          "name": "token",
          "type": "address"
        },
        {
          "internalType": "address",
          "name": "account",
          "type": "address"
        },
        {
          "internalType": "bool",
          "name": "approved",
          "type": "bool"
        }
      ],
      "name": "setApprovalForAllExternal",
      "outputs": [],
      "stateMutability": "nonpayable",
      "type": "function"
    },
    {
      "inputs": [
        {
          "internalType": "uint256",
          "name": "tinybars",
          "type": "uint256"
        }
      ],
      "name": "tinybarsToTinycents",
      "outputs": [
        {
          "internalType": "uint256",
          "name": "tinycents",
          "type": "uint256"
        }
      ],
      "stateMutability": "nonpayable",
      "type": "function"
    },
    {
      "inputs": [
        {
          "internalType": "uint256",
          "name": "tinycents",
          "type": "uint256"
        }
      ],
      "name": "tinycentsToTinybars",
      "outputs": [
        {
          "internalType": "uint256",
          "name": "tinybars",
          "type": "uint256"
        }
      ],
      "stateMutability": "nonpayable",
      "type": "function"
    },
    {
      "inputs": [
        {
          "internalType": "address",
          "name": "token",
          "type": "address"
        },
        {
          "internalType": "address",
          "name": "from",
          "type": "address"
        },
        {
          "internalType": "address",
          "name": "to",
          "type": "address"
        },
        {
          "internalType": "uint256",
          "name": "amount",
          "type": "uint256"
        }
      ],
      "name": "transferFrom",
      "outputs": [
        {
          "internalType": "int64",
          "name": "responseCode",
          "type": "int64"
        }
      ],
      "stateMutability": "nonpayable",
      "type": "function"
    },
    {
      "inputs": [
        {
          "internalType": "address",
          "name": "token",
          "type": "address"
        },
        {
          "internalType": "address",
          "name": "from",
          "type": "address"
        },
        {
          "internalType": "address",
          "name": "to",
          "type": "address"
        },
        {
          "internalType": "uint256",
          "name": "amount",
          "type": "uint256"
        }
      ],
      "name": "transferFromExternal",
      "outputs": [],
      "stateMutability": "nonpayable",
      "type": "function"
    },
    {
      "inputs": [
        {
          "internalType": "address",
          "name": "token",
          "type": "address"
        },
        {
          "internalType": "address",
          "name": "from",
          "type": "address"
        },
        {
          "internalType": "address",
          "name": "to",
          "type": "address"
        },
        {
          "internalType": "uint256",
          "name": "serialNumber",
          "type": "uint256"
        }
      ],
      "name": "transferFromNFT",
      "outputs": [
        {
          "internalType": "int64",
          "name": "responseCode",
          "type": "int64"
        }
      ],
      "stateMutability": "nonpayable",
      "type": "function"
    },
    {
      "inputs": [
        {
          "internalType": "address",
          "name": "token",
          "type": "address"
        },
        {
          "internalType": "address",
          "name": "from",
          "type": "address"
        },
        {
          "internalType": "address",
          "name": "to",
          "type": "address"
        },
        {
          "internalType": "uint256",
          "name": "serialNumber",
          "type": "uint256"
        }
      ],
      "name": "transferFromNFTExternal",
      "outputs": [],
      "stateMutability": "nonpayable",
      "type": "function"
    },
    {
      "inputs": [
        {
          "internalType": "address",
          "name": "token",
          "type": "address"
        },
        {
          "internalType": "address",
          "name": "sender",
          "type": "address"
        },
        {
          "internalType": "address",
          "name": "receiver",
          "type": "address"
        },
        {
          "internalType": "int64",
          "name": "serialNumber",
          "type": "int64"
        }
      ],
      "name": "transferNFTExternal",
      "outputs": [],
      "stateMutability": "nonpayable",
      "type": "function"
    },
    {
      "inputs": [
        {
          "internalType": "address",
          "name": "token",
          "type": "address"
        },
        {
          "internalType": "address[]",
          "name": "sender",
          "type": "address[]"
        },
        {
          "internalType": "address[]",
          "name": "receiver",
          "type": "address[]"
        },
        {
          "internalType": "int64[]",
          "name": "serialNumber",
          "type": "int64[]"
        }
      ],
      "name": "transferNFTsExternal",
      "outputs": [],
      "stateMutability": "nonpayable",
      "type": "function"
    },
    {
      "inputs": [
        {
          "internalType": "address",
          "name": "token",
          "type": "address"
        },
        {
          "internalType": "address",
          "name": "sender",
          "type": "address"
        },
        {
          "internalType": "address",
          "name": "receiver",
          "type": "address"
        },
        {
          "internalType": "int64",
          "name": "amount",
          "type": "int64"
        }
      ],
      "name": "transferTokenExternal",
      "outputs": [],
      "stateMutability": "nonpayable",
      "type": "function"
    },
    {
      "inputs": [
        {
          "internalType": "address",
          "name": "token",
          "type": "address"
        },
        {
          "internalType": "address[]",
          "name": "accountIds",
          "type": "address[]"
        },
        {
          "internalType": "int64[]",
          "name": "amounts",
          "type": "int64[]"
        }
      ],
      "name": "transferTokensExternal",
      "outputs": [],
      "stateMutability": "nonpayable",
      "type": "function"
    },
    {
      "inputs": [
        {
          "internalType": "address",
          "name": "token",
          "type": "address"
        },
        {
          "internalType": "address",
          "name": "account",
          "type": "address"
        }
      ],
      "name": "unfreezeTokenExternal",
      "outputs": [],
      "stateMutability": "nonpayable",
      "type": "function"
    },
    {
      "inputs": [
        {
          "internalType": "address",
          "name": "token",
          "type": "address"
        }
      ],
      "name": "unpauseTokenExternal",
      "outputs": [],
      "stateMutability": "nonpayable",
      "type": "function"
    },
    {
      "inputs": [
        {
          "internalType": "address",
          "name": "token",
          "type": "address"
        },
        {
          "internalType": "address",
          "name": "treasury",
          "type": "address"
        }
      ],
      "name": "updateTokenExpiryInfoExternal",
      "outputs": [],
      "stateMutability": "nonpayable",
      "type": "function"
    },
    {
      "inputs": [
        {
          "internalType": "address",
          "name": "token",
          "type": "address"
        },
        {
          "internalType": "address",
          "name": "treasury",
          "type": "address"
        }
      ],
      "name": "updateTokenInfoExternal",
      "outputs": [],
      "stateMutability": "nonpayable",
      "type": "function"
    },
    {
      "inputs": [
        {
          "internalType": "address",
          "name": "token",
          "type": "address"
        }
      ],
      "name": "updateTokenKeysExternal",
      "outputs": [],
      "stateMutability": "nonpayable",
      "type": "function"
    },
    {
      "inputs": [
        {
          "internalType": "address",
          "name": "token",
          "type": "address"
        },
        {
          "internalType": "address",
          "name": "account",
          "type": "address"
        },
        {
          "internalType": "int64",
          "name": "amount",
          "type": "int64"
        }
      ],
      "name": "wipeTokenAccountExternal",
      "outputs": [],
      "stateMutability": "nonpayable",
      "type": "function"
    },
    {
      "inputs": [
        {
          "internalType": "address",
          "name": "token",
          "type": "address"
        },
        {
          "internalType": "address",
          "name": "account",
          "type": "address"
        },
        {
          "internalType": "int64[]",
          "name": "serialNumbers",
          "type": "int64[]"
        }
      ],
      "name": "wipeTokenAccountNFTExternal",
      "outputs": [],
      "stateMutability": "nonpayable",
      "type": "function"
    }
  ],
  "bytecode": "0x60c06040526009608090815268746f6b656e4e616d6560b81b60a0526002906200002a908262000261565b5060408051808201909152600380825262544b5960e81b60208301529062000053908262000261565b50604080518082019091526004808252636d656d6f60e01b6020830152906200007d908262000261565b50600580546001600160a81b031916700800000000000003e800000000000003e8179055348015620000ae57600080fd5b50600160208181527fa6eef7e35abe7026729641147f7915573c7e97b47efa546f5f6e3230263bcb499190915560027fcc69885fda6bcc1a4ace058b4a62bf5e179ea78fd58a1ccd71c22cc9b688792f5560047fd9d16d34ffb15ba3a3d852f0d403e2ce1d691fb54de27ac87cd2f993f3ec330f5560087f7dfe757ecd65cbd7922a9c0161e935dd7fdbcc0e999689c7d31633896b1fc60b5560107fedc95719e9a3b28dd8e80877cb5880a9be7de1a13fc8b05e7999683b6b567643557fe2689cd4a84e23ad2f564004f1c9013e9589d260bde6380aba3ca7e09e4df40c55600660005260407f8f331abe73332f95a25873e8b430885974c0409691f89d643119a11623a7924a556200032d565b634e487b7160e01b600052604160045260246000fd5b600181811c90821680620001e757607f821691505b6020821081036200020857634e487b7160e01b600052602260045260246000fd5b50919050565b601f8211156200025c57600081815260208120601f850160051c81016020861015620002375750805b601f850160051c820191505b81811015620002585782815560010162000243565b5050505b505050565b81516001600160401b038111156200027d576200027d620001bc565b62000295816200028e8454620001d2565b846200020e565b602080601f831160018114620002cd5760008415620002b45750858301515b600019600386901b1c1916600185901b17855562000258565b600085815260208120601f198616915b82811015620002fe57888601518255948401946001909101908401620002dd565b50858210156200031d5787850151600019600388901b60f8161c191681555b5050505050600190811b01905550565b61566f806200033d6000396000f3fe6080604052600436106103295760003560e01c806375a85472116101a5578063b97beda9116100ec578063d91cfc9511610095578063ec4ca6391161006f578063ec4ca6391461096d578063ed129c3f1461098d578063f1938266146109ad578063fb2b6cef146109cd57600080fd5b8063d91cfc951461090d578063e31b839c1461092d578063e95a71e51461094d57600080fd5b8063ceda64c4116100c6578063ceda64c4146108c5578063d83bf9a1146108e5578063d85f74c1146108fa57600080fd5b8063b97beda914610850578063bafa6a9114610870578063bc7718e31461089057600080fd5b80639333700b1161014e5780639c219247116101285780639c219247146107f0578063a621881014610810578063aa835c631461083057600080fd5b80639333700b146107905780639b23d3d9146107b05780639bc4d354146107d057600080fd5b806384d232f51161017f57806384d232f51461073d5780638ba74da01461075d578063901fe3d01461077057600080fd5b806375a85472146106b15780637adc26b8146106d15780637cea29a3146106f157600080fd5b806330a8f293116102745780634fd6ce0a1161021d578063618dc65e116101f7578063618dc65e14610623578063632da116146106515780636f3e867814610671578063714c42c01461069157600080fd5b80634fd6ce0a146105c357806352205b33146105e35780635ac4fef81461060357600080fd5b806343a882291161024e57806343a88229146105705780634b5c6687146105905780634c09c804146105a357600080fd5b806330a8f293146105005780633150810714610520578063437dffd51461055057600080fd5b806315dacbea116102d65780632390c1fa116102b05780632390c1fa146104a05780632e3cff6a146104c05780632fc358f7146104e057600080fd5b806315dacbea1461042d578063165aae66146104605780631ba978fc1461048057600080fd5b80630c0295d4116103075780630c0295d4146103ae5780630c0a198c146103dc578063144b06ff146103fc57600080fd5b80630435d8401461032e5780630488c9391461036157806306a1a5d31461038c575b600080fd5b34801561033a57600080fd5b5061034e610349366004613d88565b6109ed565b6040519081526020015b60405180910390f35b61037461036f366004613dd3565b610a15565b6040516001600160a01b039091168152602001610358565b34801561039857600080fd5b506103ac6103a7366004613dd3565b610f4e565b005b3480156103ba57600080fd5b506103ce6103c9366004613f96565b610f78565b6040516103589291906140ac565b3480156103e857600080fd5b506103ac6103f73660046140c8565b610fa8565b34801561040857600080fd5b5061041c6104173660046140e5565b610fc2565b604051610358959493929190614161565b34801561043957600080fd5b5061044d6104483660046141b4565b611011565b60405160079190910b8152602001610358565b34801561046c57600080fd5b506103ac61047b3660046140c8565b611105565b34801561048c57600080fd5b506103ac61049b3660046142d8565b611110565b3480156104ac57600080fd5b506103ac6104bb366004614373565b611130565b3480156104cc57600080fd5b5061034e6104db3660046143c3565b611147565b3480156104ec57600080fd5b506103ac6104fb366004614373565b61120d565b34801561050c57600080fd5b506103ac61051b3660046140c8565b611219565b34801561052c57600080fd5b5061054061053b366004613d88565b611224565b6040519015158152602001610358565b34801561055c57600080fd5b506103ac61056b366004613dd3565b611234565b34801561057c57600080fd5b5061034e61058b3660046143c3565b61124b565b61037461059e3660046140c8565b6112a4565b3480156105af57600080fd5b506103ac6105be3660046143dc565b611670565b3480156105cf57600080fd5b506103ac6105de36600461443e565b61168e565b3480156105ef57600080fd5b506103ac6105fe366004613dd3565b61169c565b34801561060f57600080fd5b506103ac61061e36600461449a565b6116a8565b34801561062f57600080fd5b5061064361063e3660046144da565b6116b5565b604051610358929190614520565b34801561065d57600080fd5b5061044d61066c366004614539565b6117e3565b34801561067d57600080fd5b5061054061068c3660046140c8565b6117f3565b34801561069d57600080fd5b506103ac6106ac3660046140c8565b611811565b3480156106bd57600080fd5b506103ac6106cc3660046141b4565b6119ed565b3480156106dd57600080fd5b506103ac6106ec366004613dd3565b611a80565b3480156106fd57600080fd5b5061071161070c3660046140c8565b611ab4565b60408051600794850b81526001600160a01b039093166020840152920b91810191909152606001610358565b34801561074957600080fd5b506103ac610758366004614569565b611aec565b61037461076b366004613dd3565b611af9565b34801561077c57600080fd5b506103ac61078b366004613dd3565b611f1e565b34801561079c57600080fd5b506103ac6107ab366004613dd3565b611f35565b3480156107bc57600080fd5b5061044d6107cb3660046141b4565b611f41565b3480156107dc57600080fd5b506103ac6107eb3660046141b4565b611f86565b3480156107fc57600080fd5b506103ac61080b366004613dd3565b611fcc565b34801561081c57600080fd5b506103ac61082b366004614667565b611fd8565b34801561083c57600080fd5b506103ac61084b3660046148b2565b611fe4565b34801561085c57600080fd5b5061037461086b3660046140e5565b611ff1565b34801561087c57600080fd5b506103ac61088b36600461443e565b61200d565b34801561089c57600080fd5b506108b06108ab366004614937565b61201b565b60405163ffffffff9091168152602001610358565b3480156108d157600080fd5b506103ac6108e0366004614569565b6120ce565b3480156108f157600080fd5b5061034e6120db565b6103746109083660046140c8565b612186565b34801561091957600080fd5b506103ac610928366004613dd3565b612524565b34801561093957600080fd5b506103ac61094836600461496a565b612530565b34801561095957600080fd5b506103ac610968366004613dd3565b61253d565b34801561097957600080fd5b506103ac610988366004613dd3565b612549565b34801561099957600080fd5b506103ac6109a83660046140c8565b612555565b3480156109b957600080fd5b506103ac6109c8366004613dd3565b61256a565b3480156109d957600080fd5b506103ac6109e8366004613dd3565b612574565b60008060006109fd868686612922565b91509150610a0a82612a08565b9150505b9392505050565b60408051600580825260c08201909252600091829190816020015b610a38613d16565b815260200190600190039081610a30579050509050610a6b60006006600060405180602001604052806000815250612a18565b81600081518110610a7e57610a7e6149aa565b6020026020010181905250610aa56001600060405180602001604052806000815250612a4f565b81600181518110610ab857610ab86149aa565b6020026020010181905250610adf6002600060405180602001604052806000815250612a4f565b81600281518110610af257610af26149aa565b6020026020010181905250610b196004600060405180602001604052806000815250612a4f565b81600381518110610b2c57610b2c6149aa565b6020026020010181905250610b536003600060405180602001604052806000815250612a4f565b81600481518110610b6657610b666149aa565b602002602001018190525060006040518060600160405280600060070b8152602001866001600160a01b03168152602001627a120060070b8152509050600060405180610120016040528060028054610bbe906149c0565b80601f0160208091040260200160405190810160405280929190818152602001828054610bea906149c0565b8015610c375780601f10610c0c57610100808354040283529160200191610c37565b820191906000526020600020905b815481529060010190602001808311610c1a57829003601f168201915b5050505050815260200160038054610c4e906149c0565b80601f0160208091040260200160405190810160405280929190818152602001828054610c7a906149c0565b8015610cc75780601f10610c9c57610100808354040283529160200191610cc7565b820191906000526020600020905b815481529060010190602001808311610caa57829003601f168201915b50505050508152602001876001600160a01b0316815260200160048054610ced906149c0565b80601f0160208091040260200160405190810160405280929190818152602001828054610d19906149c0565b8015610d665780601f10610d3b57610100808354040283529160200191610d66565b820191906000526020600020905b815481529060010190602001808311610d4957829003601f168201915b5050509183525050600160208201819052600554600160401b810460070b6040840152600160a01b900460ff16151560608301526080820186905260a0909101849052909150600090604051908082528060200260200182016040528015610e0857816020015b6040805160a081018252600080825260208083018290529282018190526060820181905260808201528252600019909201910181610dcd5790505b506040805160a081018252600181526001600160a01b03808a1660208301526000928201839052606082018390528a166080820152825192935091839190610e5257610e526149aa565b6020908102919091010152604080516001808252818301909252600091816020015b6040805160c08101825260008082526020808301829052928201819052606082018190526080820181905260a08201528252600019909201910181610e745790505090506040518060c00160405280600460070b8152602001600560070b8152602001600a60070b8152602001886001600160a01b03168152602001600015158152602001896001600160a01b031681525081600081518110610f1957610f196149aa565b6020026020010181905250600080610f32858585612a84565b91509150610f3f82612a08565b96505050505050505b92915050565b610f588282612bac565b506000610f658383612c8f565b60070b9050610f7381612a08565b505050565b600060606000806000610f8c888888612cc5565b925092509250610f9b83612a08565b9097909650945050505050565b6000610fb382612dc3565b9050610fbe81612a08565b5050565b6000806060806000806000610fd78989612e9d565b915060070b9150610fe782612a08565b8051602082015160408301516060840151608090940151929c919b50995091975095509350505050565b6040516001600160a01b038581166024830152848116604483015283166064820152608481018290526000908190819061016790630aed65f560e11b9060a4015b60408051601f198184030181529181526020820180516001600160e01b03166001600160e01b031990941693909317909252905161109091906149fa565b6000604051808303816000865af19150503d80600081146110cd576040519150601f19603f3d011682016040523d82523d6000602084013e6110d2565b606091505b5091509150816110e35760156110f7565b808060200190518101906110f79190614a28565b60030b979650505050505050565b6000610fb382612fce565b600061111e85858585612ffc565b905061112981612a08565b5050505050565b600061113c838361302c565b9050610f7381612a08565b60008060006101686001600160a01b03168460405160240161116b91815260200190565b60408051601f198184030181529181526020820180516001600160e01b031663171e7fb560e11b179052516111a091906149fa565b6000604051808303816000865af19150503d80600081146111dd576040519150601f19603f3d011682016040523d82523d6000602084013e6111e2565b606091505b5091509150816111f157600080fd5b808060200190518101906112059190614a43565b949350505050565b600061113c8383613058565b6000610fb382613084565b60008060006109fd8686866130b2565b61123e8282613185565b50600061113c8383613185565b60008060006101686001600160a01b03168460405160240161126f91815260200190565b60408051601f198184030181529181526020820180516001600160e01b03166343a8822960e01b179052516111a091906149fa565b60408051600580825260c08201909252600091829190816020015b6112c7613d16565b8152602001906001900390816112bf5790505090506112fa60006006600060405180602001604052806000815250612a18565b8160008151811061130d5761130d6149aa565b60200260200101819052506113346001600060405180602001604052806000815250612a4f565b81600181518110611347576113476149aa565b602002602001018190525061136e6002600060405180602001604052806000815250612a4f565b81600281518110611381576113816149aa565b60200260200101819052506113a86003600060405180602001604052806000815250612a4f565b816003815181106113bb576113bb6149aa565b60200260200101819052506113e26004600060405180602001604052806000815250612a4f565b816004815181106113f5576113f56149aa565b602002602001018190525060006040518060600160405280600060070b8152602001856001600160a01b03168152602001627a120060070b815250905060006040518061012001604052806002805461144d906149c0565b80601f0160208091040260200160405190810160405280929190818152602001828054611479906149c0565b80156114c65780601f1061149b576101008083540402835291602001916114c6565b820191906000526020600020905b8154815290600101906020018083116114a957829003601f168201915b50505050508152602001600380546114dd906149c0565b80601f0160208091040260200160405190810160405280929190818152602001828054611509906149c0565b80156115565780601f1061152b57610100808354040283529160200191611556565b820191906000526020600020905b81548152906001019060200180831161153957829003601f168201915b50505050508152602001866001600160a01b031681526020016004805461157c906149c0565b80601f01602080910402602001604051908101604052809291908181526020018280546115a8906149c0565b80156115f55780601f106115ca576101008083540402835291602001916115f5565b820191906000526020600020905b8154815290600101906020018083116115d857829003601f168201915b505050918352505060016020820152600554600160401b8104600790810b604084015260ff600160a01b830416151560608401526080830187905260a0909201859052919250600091829161165991859181900b90600160801b900460030b6131bb565b9150915061166682612a08565b9695505050505050565b600061167d848484613228565b905061168881612a08565b50505050565b600061111e85858585613308565b6000610f658383612c8f565b600061167d848484613350565b600060606000806101676001600160a01b031663618dc65e60e01b87876040516024016116e3929190614a5c565b60408051601f198184030181529181526020820180516001600160e01b03166001600160e01b031990941693909317909252905161172191906149fa565b6000604051808303816000865af19150503d806000811461175e576040519150601f19603f3d011682016040523d82523d6000602084013e611763565b606091505b50915091507f4af4780e06fe8cb9df64b0794fa6f01399af979175bb988e35e0e57e594567bc8282604051611799929190614a7e565b60405180910390a1816117bd576015604051806020016040528060008152506117d1565b808060200190518101906117d19190614ade565b60039190910b97909650945050505050565b60008060006109fd868686613390565b600080600061180184613466565b915060070b9150610a0e82612a08565b60408051600480825260a08201909252600091816020015b611831613d16565b81526020019060019003908161182957905050905061189e6001600360405160200161188a907f02e35698a0273a8c6509ae4716c26a52eebca73e5de2c6677b189ef40f6fcd1f815260ed60f81b602082015260210190565b604051602081830303815290604052612a4f565b816000815181106118b1576118b16149aa565b60200260200101819052506119006002600360405160200161188a907f02e35698a0273a8c6509ae4716c26a52eebca73e5de2c6677b189ef40f6fcd1f815260ed60f81b602082015260210190565b81600181518110611913576119136149aa565b60200260200101819052506119626004600360405160200161188a907f02e35698a0273a8c6509ae4716c26a52eebca73e5de2c6677b189ef40f6fcd1f815260ed60f81b602082015260210190565b81600281518110611975576119756149aa565b60200260200101819052506119c360038060405160200161188a907f02e35698a0273a8c6509ae4716c26a52eebca73e5de2c6677b189ef40f6fcd1f815260ed60f81b602082015260210190565b816003815181106119d6576119d66149aa565b60200260200101819052506000610f65838361353a565b604051630aed65f560e11b81526001600160a01b0380861660048301528085166024830152831660448201526064810182905260009030906315dacbea906084015b6020604051808303816000875af1158015611a4e573d6000803e3d6000fd5b505050506040513d601f19601f82011682018060405250810190611a729190614b22565b60070b905061112981612a08565b6040805160608101825260008082526001600160a01b0384166020830152627a1200928201929092529061167d8483613566565b6000806000806000611ac586613592565b91509150611ad282612a08565b805160208201516040909201519097919650945092505050565b600061167d84848461368a565b604080516001808252818301909252600091829190816020015b611b1b613d16565b815260200190600190039081611b13579050509050611b4d600080600060405180602001604052806000815250612a18565b81600081518110611b6057611b606149aa565b602002602001018190525060006040518060600160405280600060070b8152602001866001600160a01b03168152602001627a120060070b8152509050600060405180610120016040528060028054611bb8906149c0565b80601f0160208091040260200160405190810160405280929190818152602001828054611be4906149c0565b8015611c315780601f10611c0657610100808354040283529160200191611c31565b820191906000526020600020905b815481529060010190602001808311611c1457829003601f168201915b5050505050815260200160038054611c48906149c0565b80601f0160208091040260200160405190810160405280929190818152602001828054611c74906149c0565b8015611cc15780601f10611c9657610100808354040283529160200191611cc1565b820191906000526020600020905b815481529060010190602001808311611ca457829003601f168201915b50505050508152602001876001600160a01b0316815260200160048054611ce7906149c0565b80601f0160208091040260200160405190810160405280929190818152602001828054611d13906149c0565b8015611d605780601f10611d3557610100808354040283529160200191611d60565b820191906000526020600020905b815481529060010190602001808311611d4357829003601f168201915b5050509183525050600160208201819052600554600160401b900460070b6040808401919091526000606084018190526080840188905260a09093018690528051828152808201909152929350909190816020015b6040805160a081018252600080825260208083018290529282018190526060820181905260808201528252600019909201910181611db55750506040805160a081018252600181526001600160a01b0389811660208301526000928201839052606082018390528a166080820152825192935091839190611e3857611e386149aa565b6020908102919091010152604080516001808252818301909252600091816020015b6040805160c08101825260008082526020808301829052928201819052606082018190526080820181905260a08201528252600019909201910181611e5a5750506040805160c0810182526004815260056020820152600a91810191909152601e60608201526000608082018190526001600160a01b038b1660a083015282519293509091839190611eee57611eee6149aa565b60209081029190910101526005546000908190610f32908690600781900b90600160801b900460030b87876136c7565b611f2882826137f5565b506000610f65838361382b565b6000610f6583836137f5565b6040516001600160a01b038581166024830152848116604483015283166064820152608481018290526000908190819061016790639b23d3d960e01b9060a401611052565b604051639b23d3d960e01b81526001600160a01b038086166004830152808516602483015283166044820152606481018290526000903090639b23d3d990608401611a2f565b600061113c8383613861565b600061113c8383613897565b600061167d8484846138c3565b600080600061200085856138f1565b9150915061120582612a08565b600061111e858585856139b8565b60408051600481526024810182526020810180516001600160e01b031663d83bf9a160e01b1790529051600091829182916101699161205a91906149fa565b6000604051808303816000865af19150503d8060008114612097576040519150601f19603f3d011682016040523d82523d6000602084013e61209c565b606091505b5091509150816120ab57600080fd5b60208101516120ba8686614b55565b6120c49082614b79565b6116669087614baa565b600061167d848484613a00565b60408051600481526024810182526020810180516001600160e01b031663d83bf9a160e01b1790529051600091829182916101699161211a91906149fa565b6000604051808303816000865af19150503d8060008114612157576040519150601f19603f3d011682016040523d82523d6000602084013e61215c565b606091505b50915091508161216b57600080fd5b8080602001905181019061217f9190614a43565b9250505090565b60408051600580825260c08201909252600091829190816020015b6121a9613d16565b8152602001906001900390816121a15790505090506121dc60006006600060405180602001604052806000815250612a18565b816000815181106121ef576121ef6149aa565b60200260200101819052506122166001600060405180602001604052806000815250612a4f565b81600181518110612229576122296149aa565b60200260200101819052506122506002600060405180602001604052806000815250612a4f565b81600281518110612263576122636149aa565b602002602001018190525061228a6004600060405180602001604052806000815250612a4f565b8160038151811061229d5761229d6149aa565b60200260200101819052506122c46003600060405180602001604052806000815250612a4f565b816004815181106122d7576122d76149aa565b602002602001018190525060006040518060600160405280600060070b8152602001856001600160a01b03168152602001627a120060070b815250905060006040518061012001604052806002805461232f906149c0565b80601f016020809104026020016040519081016040528092919081815260200182805461235b906149c0565b80156123a85780601f1061237d576101008083540402835291602001916123a8565b820191906000526020600020905b81548152906001019060200180831161238b57829003601f168201915b50505050508152602001600380546123bf906149c0565b80601f01602080910402602001604051908101604052809291908181526020018280546123eb906149c0565b80156124385780601f1061240d57610100808354040283529160200191612438565b820191906000526020600020905b81548152906001019060200180831161241b57829003601f168201915b50505050508152602001866001600160a01b031681526020016004805461245e906149c0565b80601f016020809104026020016040519081016040528092919081815260200182805461248a906149c0565b80156124d75780601f106124ac576101008083540402835291602001916124d7565b820191906000526020600020905b8154815290600101906020018083116124ba57829003601f168201915b505050918352505060016020820152600554600160401b810460070b6040830152600160a01b900460ff16151560608201526080810185905260a001839052905060008061165983613a3d565b600061113c8383613185565b600061167d848484613b21565b6000610f65838361382b565b6000610f658383612bac565b61255e81613084565b506000610fb382612fce565b61123e8282613861565b60408051600580825260c08201909252600091816020015b612594613d16565b81526020019060019003908161258c5790505090506125c760006006600060405180602001604052806000815250612a18565b816000815181106125da576125da6149aa565b60200260200101819052506126016001600060405180602001604052806000815250612a4f565b81600181518110612614576126146149aa565b602002602001018190525061263b6002600060405180602001604052806000815250612a4f565b8160028151811061264e5761264e6149aa565b60200260200101819052506126756004600060405180602001604052806000815250612a4f565b81600381518110612688576126886149aa565b60200260200101819052506126af6003600060405180602001604052806000815250612a4f565b816004815181106126c2576126c26149aa565b602002602001018190525060006040518060600160405280600060070b8152602001846001600160a01b03168152602001626acfc060070b815250905060006040518061012001604052806002805461271a906149c0565b80601f0160208091040260200160405190810160405280929190818152602001828054612746906149c0565b80156127935780601f1061276857610100808354040283529160200191612793565b820191906000526020600020905b81548152906001019060200180831161277657829003601f168201915b50505050508152602001600380546127aa906149c0565b80601f01602080910402602001604051908101604052809291908181526020018280546127d6906149c0565b80156128235780601f106127f857610100808354040283529160200191612823565b820191906000526020600020905b81548152906001019060200180831161280657829003601f168201915b50505050508152602001856001600160a01b0316815260200160048054612849906149c0565b80601f0160208091040260200160405190810160405280929190818152602001828054612875906149c0565b80156128c25780601f10612897576101008083540402835291602001916128c2565b820191906000526020600020905b8154815290600101906020018083116128a557829003601f168201915b505050918352505060016020820152600554600160401b810460070b6040830152600160a01b900460ff16151560608201526080810185905260a0018390529050600061290f8683613b5f565b905061291a81612a08565b505050505050565b604080516001600160a01b0385811660248301528481166044830152831660648083019190915282518083039091018152608490910182526020810180516001600160e01b031663927da10560e01b17905290516000918291829182916101679161298c916149fa565b6000604051808303816000865af19150503d80600081146129c9576040519150601f19603f3d011682016040523d82523d6000602084013e6129ce565b606091505b5091509150816129e157601560006129f5565b808060200190518101906129f59190614bc7565b60039190910b9890975095505050505050565b60168114612a1557600080fd5b50565b612a20613d16565b6040518060400160405280612a358787613b8b565b8152602001612a448585613bc6565b905295945050505050565b612a57613d16565b6040518060400160405280612a6b86613cd7565b8152602001612a7a8585613bc6565b9052949350505050565b600080848061010001516000015160070b6000148015612aae57506101008101516040015160070b155b15612ac4576101008101516276a7006040909101525b6000806101676001600160a01b03163463abb54eb560e01b8a8a8a604051602401612af193929190614e26565b60408051601f198184030181529181526020820180516001600160e01b03166001600160e01b0319909416939093179092529051612b2f91906149fa565b60006040518083038185875af1925050503d8060008114612b6c576040519150601f19603f3d011682016040523d82523d6000602084013e612b71565b606091505b509150915081612b845760156000612b98565b80806020019051810190612b989190614edd565b60039190910b999098509650505050505050565b6040516001600160a01b038381166024830152821660448201526000908190819061016790638f8d7f9960e01b906064015b60408051601f198184030181529181526020820180516001600160e01b03166001600160e01b0319909416939093179092529051612c1c91906149fa565b6000604051808303816000865af19150503d8060008114612c59576040519150601f19603f3d011682016040523d82523d6000602084013e612c5e565b606091505b509150915081612c6f576015612c83565b80806020019051810190612c839190614a28565b60030b95945050505050565b6040516001600160a01b03838116602483015282166044820152600090819081906101679063af99c63360e01b90606401612bde565b60008060606000806101676001600160a01b031663e0f4059a60e01b898989604051602401612cf693929190614f09565b60408051601f198184030181529181526020820180516001600160e01b03166001600160e01b0319909416939093179092529051612d3491906149fa565b6000604051808303816000865af19150503d8060008114612d71576040519150601f19603f3d011682016040523d82523d6000602084013e612d76565b606091505b509150915081612d99576040805160008082526020820190925260159190612dad565b80806020019051810190612dad9190614f86565b60039290920b9a90995090975095505050505050565b6040516001600160a01b03821660248201526000908190819061016790637834fb8960e11b906044015b60408051601f198184030181529181526020820180516001600160e01b03166001600160e01b0319909416939093179092529051612e2b91906149fa565b6000604051808303816000865af19150503d8060008114612e68576040519150601f19603f3d011682016040523d82523d6000602084013e612e6d565b606091505b509150915081612e7e576015612e92565b80806020019051810190612e929190614a28565b60030b949350505050565b6040805160a081018252600080825260208083018290526060838501819052808401526080830182905283516001600160a01b03871660248201526044808201879052855180830390910181526064909101855290810180516001600160e01b0316631e26e99760e11b179052925190928391829161016791612f2091906149fa565b6000604051808303816000865af19150503d8060008114612f5d576040519150601f19603f3d011682016040523d82523d6000602084013e612f62565b606091505b5091509150612fad6040518060a0016040528060001515815260200160006001600160a01b03168152602001606081526020016060815260200160006001600160a01b031681525090565b82612fba576015816129f5565b818060200190518101906129f59190615051565b6040516001600160a01b03821660248201526000908190819061016790633b3bff0f60e01b90604401612ded565b60008060006101676001600160a01b0316632c4ba19160e01b888888886040516024016110529493929190615165565b60008060006101676001600160a01b03166378b6391860e01b8686604051602401612bde9291906151b8565b60008060006101676001600160a01b0316632e63879b60e01b8686604051602401612bde9291906151b8565b6040516001600160a01b03821660248201526000908190819061016790631f106b4b60e21b90604401612ded565b604080516001600160a01b0385811660248301528481166044830152831660648083019190915282518083039091018152608490910182526020810180516001600160e01b031663f49f40db60e01b17905290516000918291829182916101679161311c916149fa565b6000604051808303816000865af19150503d8060008114613159576040519150601f19603f3d011682016040523d82523d6000602084013e61315e565b606091505b50915091508161317157601560006129f5565b808060200190518101906129f591906151da565b6040516001600160a01b03838116602483015282166044820152600090819081906101679063248a35ef60e11b90606401612bde565b600080848061010001516000015160070b60001480156131e557506101008101516040015160070b155b156131fb576101008101516276a7006040909101525b6000806101676001600160a01b031634630fb65bf360e01b8a8a8a604051602401612af193929190615206565b60008060006101676001600160a01b031663f7f38e2660e01b87878760405160240161325693929190615235565b60408051601f198184030181529181526020820180516001600160e01b03166001600160e01b031990941693909317909252905161329491906149fa565b6000604051808303816000865af19150503d80600081146132d1576040519150601f19603f3d011682016040523d82523d6000602084013e6132d6565b606091505b5091509150816132e75760156132fb565b808060200190518101906132fb9190614a28565b60030b9695505050505050565b6040516001600160a01b038581166024830152848116604483015283166064820152600782900b6084820152600090819081906101679063eca3691760e01b9060a401611052565b6040516001600160a01b03848116602483015283166044820152600782900b6064820152600090819081906101679063efef57f960e01b90608401613256565b6000806000806101676001600160a01b031663d6910d0660e01b8888886040516024016133bf9392919061526a565b60408051601f198184030181529181526020820180516001600160e01b03166001600160e01b03199094169390931790925290516133fd91906149fa565b6000604051808303816000865af19150503d806000811461343a576040519150601f19603f3d011682016040523d82523d6000602084013e61343f565b606091505b50915091508161345257601560006129f5565b808060200190518101906129f59190615295565b604080516001600160a01b03831660248083019190915282518083039091018152604490910182526020810180516001600160e01b03166319f3736160e01b1790529051600091829182918291610167916134c0916149fa565b6000604051808303816000865af19150503d80600081146134fd576040519150601f19603f3d011682016040523d82523d6000602084013e613502565b606091505b5091509150816135155760156000613529565b8080602001905181019061352991906151da565b60039190910b969095509350505050565b60008060006101676001600160a01b0316636fc3cbaf60e01b8686604051602401612bde9291906152c1565b60008060006101676001600160a01b031663d27be6cd60e01b8686604051602401612bde9291906152e3565b604080516060810182526000808252602080830182905282840182905283516001600160a01b038616602480830191909152855180830390910181526044909101855290810180516001600160e01b0316631ac299b760e31b17905292519092839182916101679161360491906149fa565b6000604051808303816000865af19150503d8060008114613641576040519150601f19603f3d011682016040523d82523d6000602084013e613646565b606091505b506040805160608101825260008082526020820181905291810191909152919350915082613676576015816117d1565b818060200190518101906117d19190615326565b6040516001600160a01b038481166024830152831660448201526064810182905260009081908190610167906307336aaf60e41b90608401613256565b600080868061010001516000015160070b60001480156136f157506101008101516040015160070b155b15613707576101008101516276a7006040909101525b6000806101676001600160a01b031634632af0c59a60e01b8c8c8c8c8c6040516024016137389594939291906153a1565b60408051601f198184030181529181526020820180516001600160e01b03166001600160e01b031990941693909317909252905161377691906149fa565b60006040518083038185875af1925050503d80600081146137b3576040519150601f19603f3d011682016040523d82523d6000602084013e6137b8565b606091505b5091509150816137cb57601560006137df565b808060200190518101906137df9190614edd565b60039190910b9b909a5098505050505050505050565b6040516001600160a01b0383811660248301528216604482015260009081908190610167906316e3e16160e21b90606401612bde565b6040516001600160a01b0383811660248301528216604482015260009081908190610167906352f9138760e01b90606401612bde565b6040516001600160a01b038381166024830152821660448201526000908190819061016790630132f29d60e31b90606401612bde565b60008060006101676001600160a01b0316630e71804f60e01b8686604051602401612bde9291906154bd565b60008060006101676001600160a01b03166382bba49360e01b878787604051602401613256939291906155ba565b604080516001600160a01b0384166024820152604480820184905282518083039091018152606490910182526020810180516001600160e01b03166304c791b360e11b17905290516000918291829182916101679161394f916149fa565b6000604051808303816000865af19150503d806000811461398c576040519150601f19603f3d011682016040523d82523d6000602084013e613991565b606091505b5091509150816139a457601560006117d1565b808060200190518101906117d19190614edd565b6040516001600160a01b038581166024830152848116604483015283166064820152600782900b60848201526000908190819061016790635cfc901160e01b9060a401611052565b6040516001600160a01b0384811660248301528316604482015260648101829052600090819081906101679063e1f21c6760e01b90608401613256565b600080828061010001516000015160070b6000148015613a6757506101008101516040015160070b155b15613a7d576101008101516276a7006040909101525b6000806101676001600160a01b03163463ea83f29360e01b88604051602401613aa691906155ee565b60408051601f198184030181529181526020820180516001600160e01b03166001600160e01b0319909416939093179092529051613ae491906149fa565b60006040518083038185875af1925050503d806000811461398c576040519150601f19603f3d011682016040523d82523d6000602084013e613991565b6040516001600160a01b0384811660248301528316604482015281151560648201526000908190819061016790631b3b02e560e11b90608401613256565b60008060006101676001600160a01b0316637d305cfa60e01b8686604051602401612bde929190615601565b6000613baf836006811115613ba257613ba2615623565b600160ff9091161b821790565b9050610a0e826006811115613ba257613ba2615623565b613c0c6040518060a0016040528060001515815260200160006001600160a01b03168152602001606081526020016060815260200160006001600160a01b031681525090565b6000836004811115613c2057613c20615623565b03613c2e5760018152610f48565b6001836004811115613c4257613c42615623565b03613c5d576000546001600160a01b03166020820152610f48565b6002836004811115613c7157613c71615623565b03613c825760408101829052610f48565b6003836004811115613c9657613c96615623565b03613ca75760608101829052610f48565b6004836004811115613cbb57613cbb615623565b03610f48576000546001600160a01b0316608082015292915050565b600060016000836006811115613cef57613cef615623565b6006811115613d0057613d00615623565b8152602001908152602001600020549050919050565b604051806040016040528060008152602001613d6e6040518060a0016040528060001515815260200160006001600160a01b03168152602001606081526020016060815260200160006001600160a01b031681525090565b905290565b6001600160a01b0381168114612a1557600080fd5b600080600060608486031215613d9d57600080fd5b8335613da881613d73565b92506020840135613db881613d73565b91506040840135613dc881613d73565b809150509250925092565b60008060408385031215613de657600080fd5b8235613df181613d73565b91506020830135613e0181613d73565b809150509250929050565b8060070b8114612a1557600080fd5b634e487b7160e01b600052604160045260246000fd5b6040516060810167ffffffffffffffff81118282101715613e5457613e54613e1b565b60405290565b6040516020810167ffffffffffffffff81118282101715613e5457613e54613e1b565b6040516080810167ffffffffffffffff81118282101715613e5457613e54613e1b565b60405160a0810167ffffffffffffffff81118282101715613e5457613e54613e1b565b604051601f8201601f1916810167ffffffffffffffff81118282101715613eec57613eec613e1b565b604052919050565b600067ffffffffffffffff821115613f0e57613f0e613e1b565b5060051b60200190565b600067ffffffffffffffff821115613f3257613f32613e1b565b50601f01601f191660200190565b600082601f830112613f5157600080fd5b8135613f64613f5f82613f18565b613ec3565b818152846020838601011115613f7957600080fd5b816020850160208301376000918101602001919091529392505050565b600080600060608486031215613fab57600080fd5b8335613fb681613d73565b9250602084810135613fc781613e0c565b9250604085013567ffffffffffffffff80821115613fe457600080fd5b818701915087601f830112613ff857600080fd5b8135614006613f5f82613ef4565b81815260059190911b8301840190848101908a83111561402557600080fd5b8585015b8381101561405d578035858111156140415760008081fd5b61404f8d89838a0101613f40565b845250918601918601614029565b508096505050505050509250925092565b600081518084526020808501945080840160005b838110156140a157815160070b87529582019590820190600101614082565b509495945050505050565b8260070b8152604060208201526000611205604083018461406e565b6000602082840312156140da57600080fd5b8135610a0e81613d73565b600080604083850312156140f857600080fd5b823561410381613d73565b946020939093013593505050565b60005b8381101561412c578181015183820152602001614114565b50506000910152565b6000815180845261414d816020860160208601614111565b601f01601f19169290920160200192915050565b851515815260006001600160a01b03808716602084015260a0604084015261418c60a0840187614135565b838103606085015261419e8187614135565b9250508084166080840152509695505050505050565b600080600080608085870312156141ca57600080fd5b84356141d581613d73565b935060208501356141e581613d73565b925060408501356141f581613d73565b9396929550929360600135925050565b600082601f83011261421657600080fd5b81356020614226613f5f83613ef4565b82815260059290921b8401810191818101908684111561424557600080fd5b8286015b8481101561426957803561425c81613d73565b8352918301918301614249565b509695505050505050565b600082601f83011261428557600080fd5b81356020614295613f5f83613ef4565b82815260059290921b840181019181810190868411156142b457600080fd5b8286015b848110156142695780356142cb81613e0c565b83529183019183016142b8565b600080600080608085870312156142ee57600080fd5b84356142f981613d73565b9350602085013567ffffffffffffffff8082111561431657600080fd5b61432288838901614205565b9450604087013591508082111561433857600080fd5b61434488838901614205565b9350606087013591508082111561435a57600080fd5b5061436787828801614274565b91505092959194509250565b6000806040838503121561438657600080fd5b823561439181613d73565b9150602083013567ffffffffffffffff8111156143ad57600080fd5b6143b985828601614205565b9150509250929050565b6000602082840312156143d557600080fd5b5035919050565b6000806000606084860312156143f157600080fd5b83356143fc81613d73565b9250602084013561440c81613d73565b9150604084013567ffffffffffffffff81111561442857600080fd5b61443486828701614274565b9150509250925092565b6000806000806080858703121561445457600080fd5b843561445f81613d73565b9350602085013561446f81613d73565b9250604085013561447f81613d73565b9150606085013561448f81613e0c565b939692955090935050565b6000806000606084860312156144af57600080fd5b83356144ba81613d73565b925060208401356144ca81613d73565b91506040840135613dc881613e0c565b600080604083850312156144ed57600080fd5b82356144f881613d73565b9150602083013567ffffffffffffffff81111561451457600080fd5b6143b985828601613f40565b8281526040602082015260006112056040830184614135565b60008060006060848603121561454e57600080fd5b833561455981613d73565b9250602084013561440c81613e0c565b60008060006060848603121561457e57600080fd5b833561458981613d73565b9250602084013561459981613d73565b929592945050506040919091013590565b8015158114612a1557600080fd5b600082601f8301126145c957600080fd5b813560206145d9613f5f83613ef4565b828152606092830285018201928282019190878511156145f857600080fd5b8387015b8581101561465a5781818a0312156146145760008081fd5b61461c613e31565b813561462781613d73565b81528186013561463681613e0c565b81870152604082810135614649816145aa565b9082015284529284019281016145fc565b5090979650505050505050565b6000806040838503121561467a57600080fd5b67ffffffffffffffff808435111561469157600080fd5b602084358501860312156146a457600080fd5b6146ac613e5a565b81853586013511156146bd57600080fd5b6146cd86863587018035016145b8565b8152925060208401358110156146e257600080fd5b6020840135840185601f8201126146f857600080fd5b614705613f5f8235613ef4565b81358082526020808301929160051b84010188101561472357600080fd5b602083015b6020843560051b8501018110156148a357848135111561474757600080fd5b803584016060818b03601f1901121561475f57600080fd5b614767613e31565b6147746020830135613d73565b60208201358152866040830135111561478c57600080fd5b61479f8b602060408501358501016145b8565b602082015286606083013511156147b557600080fd5b6060820135820191508a603f8301126147cd57600080fd5b6147dd613f5f6020840135613ef4565b602083810135808352908201919060071b84016040018d81111561480057600080fd5b6040850194505b8085101561488d576080858f03121561481f57600080fd5b614827613e7d565b6148318635613d73565b853581526148426020870135613d73565b602086013560208201526148596040870135613e0c565b6040860135604082015261487060608701356145aa565b606086810135908201528352608090940193602090920191614807565b5060408301525084525060209283019201614728565b50809450505050509250929050565b6000806000606084860312156148c757600080fd5b83356148d281613d73565b9250602084013567ffffffffffffffff808211156148ef57600080fd5b6148fb87838801614205565b9350604086013591508082111561491157600080fd5b5061443486828701614274565b803563ffffffff8116811461493257600080fd5b919050565b6000806040838503121561494a57600080fd5b6149538361491e565b91506149616020840161491e565b90509250929050565b60008060006060848603121561497f57600080fd5b833561498a81613d73565b9250602084013561499a81613d73565b91506040840135613dc8816145aa565b634e487b7160e01b600052603260045260246000fd5b600181811c908216806149d457607f821691505b6020821081036149f457634e487b7160e01b600052602260045260246000fd5b50919050565b60008251614a0c818460208701614111565b9190910192915050565b8051600381900b811461493257600080fd5b600060208284031215614a3a57600080fd5b610a0e82614a16565b600060208284031215614a5557600080fd5b5051919050565b6001600160a01b03831681526040602082015260006112056040830184614135565b82151581526040602082015260006112056040830184614135565b600082601f830112614aaa57600080fd5b8151614ab8613f5f82613f18565b818152846020838601011115614acd57600080fd5b611205826020830160208701614111565b60008060408385031215614af157600080fd5b614afa83614a16565b9150602083015167ffffffffffffffff811115614b1657600080fd5b6143b985828601614a99565b600060208284031215614b3457600080fd5b8151610a0e81613e0c565b634e487b7160e01b600052601160045260246000fd5b63ffffffff828116828216039080821115614b7257614b72614b3f565b5092915050565b600063ffffffff80841680614b9e57634e487b7160e01b600052601260045260246000fd5b92169190910692915050565b63ffffffff818116838216019080821115614b7257614b72614b3f565b60008060408385031215614bda57600080fd5b614be383614a16565b9150602083015190509250929050565b600081518084526020808501808196508360051b8101915082860160005b85811015614caa5782840389528151604081518652868201519150808787015281511515818701528682015160606001600160a01b03808316828a015283850151935060a09250608083818b0152614c6c60e08b0186614135565b928601518a8403603f1901858c0152929450614c888584614135565b9501511660c09890980197909752505098850198935090840190600101614c11565b5091979650505050505050565b60006101608251818552614ccd82860182614135565b91505060208301518482036020860152614ce78282614135565b9150506040830151614d0460408601826001600160a01b03169052565b5060608301518482036060860152614d1c8282614135565b9150506080830151614d32608086018215159052565b5060a0830151614d4760a086018260070b9052565b5060c0830151614d5b60c086018215159052565b5060e083015184820360e0860152614d738282614bf3565b91505061010080840151614daf82870182805160070b82526001600160a01b036020820151166020830152604081015160070b60408301525050565b5090949350505050565b600081518084526020808501945080840160005b838110156140a1578151805160070b8852838101516001600160a01b03908116858a01526040808301511515908a01526060808301511515908a0152608091820151169088015260a09096019590820190600101614dcd565b60006060808352614e3981840187614cb7565b602084820381860152614e4c8288614db9565b91506040858303818701528287518085528385019150838901945060005b81811015614ecd5785518051600790810b855286820151810b8786015285820151900b85850152878101516001600160a01b039081168986015260808083015115159086015260a09182015116908401529484019460c090920191600101614e6a565b50909a9950505050505050505050565b60008060408385031215614ef057600080fd5b614ef983614a16565b91506020830151613e0181613d73565b6000606082016001600160a01b038616835260208560070b818501526060604085015281855180845260808601915060808160051b870101935082870160005b82811015614f7757607f19888703018452614f65868351614135565b95509284019290840190600101614f49565b50939998505050505050505050565b600080600060608486031215614f9b57600080fd5b614fa484614a16565b9250602080850151614fb581613e0c565b604086015190935067ffffffffffffffff811115614fd257600080fd5b8501601f81018713614fe357600080fd5b8051614ff1613f5f82613ef4565b81815260059190911b8201830190838101908983111561501057600080fd5b928401925b8284101561503757835161502881613e0c565b82529284019290840190615015565b80955050505050509250925092565b805161493281613d73565b6000806040838503121561506457600080fd5b61506d83614a16565b9150602083015167ffffffffffffffff8082111561508a57600080fd5b9084019060a0828703121561509e57600080fd5b6150a6613ea0565b82516150b1816145aa565b815260208301516150c181613d73565b60208201526040830151828111156150d857600080fd5b6150e488828601614a99565b6040830152506060830151828111156150fc57600080fd5b61510888828601614a99565b60608301525061511a60808401615046565b60808201528093505050509250929050565b600081518084526020808501945080840160005b838110156140a15781516001600160a01b031687529582019590820190600101615140565b6001600160a01b0385168152608060208201526000615187608083018661512c565b8281036040840152615199818661512c565b905082810360608401526151ad818561406e565b979650505050505050565b6001600160a01b0383168152604060208201526000611205604083018461512c565b600080604083850312156151ed57600080fd5b6151f683614a16565b91506020830151613e01816145aa565b6060815260006152196060830186614cb7565b90508360070b60208301528260030b6040830152949350505050565b60006001600160a01b03808616835280851660208401525060606040830152615261606083018461406e565b95945050505050565b6001600160a01b03841681528260070b6020820152606060408201526000615261606083018461406e565b600080604083850312156152a857600080fd5b6152b183614a16565b91506020830151613e0181613e0c565b6001600160a01b03831681526040602082015260006112056040830184614bf3565b6001600160a01b038316815260808101610a0e6020830184805160070b82526001600160a01b036020820151166020830152604081015160070b60408301525050565b600080828403608081121561533a57600080fd5b61534384614a16565b92506060601f198201121561535757600080fd5b50615360613e31565b602084015161536e81613e0c565b8152604084015161537e81613d73565b6020820152606084015161539181613e0c565b6040820152919491935090915050565b600060a08083526153b481840189614cb7565b6020600789810b8287015260408960030b818801526060878503818901526153dc858b614db9565b94506080888603818a0152858a518088528688019150868c01975060005b818110156154545788518051880b845288810151880b8985015286810151880b8785015285810151880b86850152848101511515858501528a01516001600160a01b03168a8401529787019760c0909201916001016153fa565b50909f9e505050505050505050505050505050565b600081518084526020808501945080840160005b838110156140a157815180516001600160a01b031688528381015160070b848901526040908101511515908801526060909601959082019060010161547d565b6000604080835260608551602080848701526154db83870183615469565b9150858203818701528187518084528284019150828160051b850101838a0160005b838110156155a957601f1987840301855281516001600160a01b03808251168552878201518a898701526155338b870182615469565b928c0151868403878e01528051808552908a0193600092508a01905b808310156155935784518051851683528b81015185168c8401528e81015160070b8f8401528d015115158d830152938a01936001929092019160809091019061554f565b50978901979550505091860191506001016154fd565b50909b9a5050505050505050505050565b6001600160a01b03841681526060602082015260006155dc606083018561512c565b8281036040840152611666818561406e565b602081526000610a0e6020830184614cb7565b6001600160a01b03831681526040602082015260006112056040830184614cb7565b634e487b7160e01b600052602160045260246000fdfea26469706673582212200df31590fa840d59f70679b86d7c6470da79ba31c0c40f7f8e44937fdaab778764736f6c63430008140033",
  "linkReferences": {},
  "deployedLinkReferences": {}
}