{
  "_format": "hh-sol-artifact-1",
  "contractName": "EstimatePrecompileContract",
  "sourceName": "contracts/EstimatePrecompileContract.sol",
  "abi": [
    {
      "anonymous": false,
      "inputs": [
        {
          "indexed": false,
          "internalType": "bool",
          "name": "",
          "type": "bool"
        },
        {
          "indexed": false,
          "internalType": "bytes",
          "name": "",
          "type": "bytes"
        }
      ],
      "name": "CallResponseEvent",
      "type": "event"
    },
    {
      "inputs": [
        {
          "internalType": "address",
          "name": "token",
          "type": "address"
        },
        {
          "internalType": "address",
          "name": "owner",
          "type": "address"
        },
        {
          "internalType": "address",
          "name": "spender",
          "type": "address"
        }
      ],
      "name": "allowanceExternal",
      "outputs": [
        {
          "internalType": "int256",
          "name": "responseCode",
          "type": "int256"
        }
      ],
      "stateMutability": "nonpayable",
      "type": "function"
    },
    {
      "inputs": [
        {
          "internalType": "address",
          "name": "token",
          "type": "address"
        },
        {
          "internalType": "address",
          "name": "spender",
          "type": "address"
        },
        {
          "internalType": "uint256",
          "name": "amount",
          "type": "uint256"
        }
      ],
      "name": "approveExternal",
      "outputs": [
        {
          "internalType": "int256",
          "name": "responseCode",
          "type": "int256"
        }
      ],
      "stateMutability": "nonpayable",
      "type": "function"
    },
    {
      "inputs": [
        {
          "internalType": "address",
          "name": "token",
          "type": "address"
        },
        {
          "internalType": "address",
          "name": "approved",
          "type": "address"
        },
        {
          "internalType": "uint256",
          "name": "serialNumber",
          "type": "uint256"
        }
      ],
      "name": "approveNFTExternal",
      "outputs": [
        {
          "internalType": "int256",
          "name": "responseCode",
          "type": "int256"
        }
      ],
      "stateMutability": "nonpayable",
      "type": "function"
    },
    {
      "inputs": [
        {
          "internalType": "address",
          "name": "account",
          "type": "address"
        },
        {
          "internalType": "address",
          "name": "token",
          "type": "address"
        }
      ],
      "name": "associateTokenExternal",
      "outputs": [
        {
          "internalType": "int256",
          "name": "responseCode",
          "type": "int256"
        }
      ],
      "stateMutability": "nonpayable",
      "type": "function"
    },
    {
      "inputs": [
        {
          "internalType": "address",
          "name": "account",
          "type": "address"
        },
        {
          "internalType": "address[]",
          "name": "tokens",
          "type": "address[]"
        }
      ],
      "name": "associateTokensExternal",
      "outputs": [
        {
          "internalType": "int256",
          "name": "responseCode",
          "type": "int256"
        }
      ],
      "stateMutability": "nonpayable",
      "type": "function"
    },
    {
      "inputs": [
        {
          "internalType": "address",
          "name": "token",
          "type": "address"
        },
        {
          "internalType": "int64",
          "name": "amount",
          "type": "int64"
        },
        {
          "internalType": "int64[]",
          "name": "serialNumbers",
          "type": "int64[]"
        }
      ],
      "name": "burnTokenExternal",
      "outputs": [
        {
          "internalType": "int256",
          "name": "responseCode",
          "type": "int256"
        },
        {
          "internalType": "int64",
          "name": "newTotalSupply",
          "type": "int64"
        }
      ],
      "stateMutability": "nonpayable",
      "type": "function"
    },
    {
      "inputs": [
        {
          "internalType": "address",
          "name": "treasury",
          "type": "address"
        }
      ],
      "name": "createFungibleTokenPublic",
      "outputs": [],
      "stateMutability": "payable",
      "type": "function"
    },
    {
      "inputs": [
        {
          "internalType": "address",
          "name": "treasury",
          "type": "address"
        },
        {
          "internalType": "address",
          "name": "fixedFeeTokenAddress",
          "type": "address"
        }
      ],
      "name": "createFungibleTokenWithCustomFeesPublic",
      "outputs": [],
      "stateMutability": "payable",
      "type": "function"
    },
    {
      "inputs": [
        {
          "internalType": "address",
          "name": "treasury",
          "type": "address"
        }
      ],
      "name": "createNonFungibleTokenPublic",
      "outputs": [],
      "stateMutability": "payable",
      "type": "function"
    },
    {
      "inputs": [
        {
          "internalType": "address",
          "name": "treasury",
          "type": "address"
        },
        {
          "internalType": "address",
          "name": "fixedFeeTokenAddress",
          "type": "address"
        }
      ],
      "name": "createNonFungibleTokenWithCustomFeesPublic",
      "outputs": [],
      "stateMutability": "payable",
      "type": "function"
    },
    {
      "inputs": [
        {
          "components": [
            {
              "components": [
                {
                  "internalType": "address",
                  "name": "accountID",
                  "type": "address"
                },
                {
                  "internalType": "int64",
                  "name": "amount",
                  "type": "int64"
                },
                {
                  "internalType": "bool",
                  "name": "isApproval",
                  "type": "bool"
                }
              ],
              "internalType": "struct IHederaTokenService.AccountAmount[]",
              "name": "transfers",
              "type": "tuple[]"
            }
          ],
          "internalType": "struct IHederaTokenService.TransferList",
          "name": "transferList",
          "type": "tuple"
        },
        {
          "components": [
            {
              "internalType": "address",
              "name": "token",
              "type": "address"
            },
            {
              "components": [
                {
                  "internalType": "address",
                  "name": "accountID",
                  "type": "address"
                },
                {
                  "internalType": "int64",
                  "name": "amount",
                  "type": "int64"
                },
                {
                  "internalType": "bool",
                  "name": "isApproval",
                  "type": "bool"
                }
              ],
              "internalType": "struct IHederaTokenService.AccountAmount[]",
              "name": "transfers",
              "type": "tuple[]"
            },
            {
              "components": [
                {
                  "internalType": "address",
                  "name": "senderAccountID",
                  "type": "address"
                },
                {
                  "internalType": "address",
                  "name": "receiverAccountID",
                  "type": "address"
                },
                {
                  "internalType": "int64",
                  "name": "serialNumber",
                  "type": "int64"
                },
                {
                  "internalType": "bool",
                  "name": "isApproval",
                  "type": "bool"
                }
              ],
              "internalType": "struct IHederaTokenService.NftTransfer[]",
              "name": "nftTransfers",
              "type": "tuple[]"
            }
          ],
          "internalType": "struct IHederaTokenService.TokenTransferList[]",
          "name": "tokenTransfers",
          "type": "tuple[]"
        }
      ],
      "name": "cryptoTransferExternal",
      "outputs": [
        {
          "internalType": "int256",
          "name": "responseCode",
          "type": "int256"
        }
      ],
      "stateMutability": "nonpayable",
      "type": "function"
    },
    {
      "inputs": [
        {
          "internalType": "address",
          "name": "token",
          "type": "address"
        }
      ],
      "name": "deleteTokenExternal",
      "outputs": [
        {
          "internalType": "int256",
          "name": "responseCode",
          "type": "int256"
        }
      ],
      "stateMutability": "nonpayable",
      "type": "function"
    },
    {
      "inputs": [
        {
          "internalType": "address",
          "name": "token",
          "type": "address"
        }
      ],
      "name": "deleteTokenTwiceExternal",
      "outputs": [
        {
          "internalType": "int256",
          "name": "responseCode",
          "type": "int256"
        }
      ],
      "stateMutability": "nonpayable",
      "type": "function"
    },
    {
      "inputs": [
        {
          "internalType": "address",
          "name": "account",
          "type": "address"
        },
        {
          "internalType": "address",
          "name": "token",
          "type": "address"
        }
      ],
      "name": "dissociateAndAssociateTokenExternal",
      "outputs": [
        {
          "internalType": "int256",
          "name": "responseCode",
          "type": "int256"
        }
      ],
      "stateMutability": "nonpayable",
      "type": "function"
    },
    {
      "inputs": [
        {
          "internalType": "address",
          "name": "account",
          "type": "address"
        },
        {
          "internalType": "address",
          "name": "token",
          "type": "address"
        }
      ],
      "name": "dissociateTokenExternal",
      "outputs": [
        {
          "internalType": "int256",
          "name": "responseCode",
          "type": "int256"
        }
      ],
      "stateMutability": "nonpayable",
      "type": "function"
    },
    {
      "inputs": [
        {
          "internalType": "address",
          "name": "account",
          "type": "address"
        },
        {
          "internalType": "address[]",
          "name": "tokens",
          "type": "address[]"
        }
      ],
      "name": "dissociateTokensExternal",
      "outputs": [
        {
          "internalType": "int256",
          "name": "responseCode",
          "type": "int256"
        }
      ],
      "stateMutability": "nonpayable",
      "type": "function"
    },
    {
      "inputs": [
        {
          "internalType": "address",
          "name": "token",
          "type": "address"
        },
        {
          "internalType": "address",
          "name": "account",
          "type": "address"
        }
      ],
      "name": "freezeTokenExternal",
      "outputs": [
        {
          "internalType": "int64",
          "name": "responseCode",
          "type": "int64"
        }
      ],
      "stateMutability": "nonpayable",
      "type": "function"
    },
    {
      "inputs": [
        {
          "internalType": "address",
          "name": "token",
          "type": "address"
        },
        {
          "internalType": "address",
          "name": "account",
          "type": "address"
        }
      ],
      "name": "freezeTokenTwiceExternal",
      "outputs": [
        {
          "internalType": "int64",
          "name": "responseCode",
          "type": "int64"
        }
      ],
      "stateMutability": "nonpayable",
      "type": "function"
    },
    {
      "inputs": [
        {
          "internalType": "address",
          "name": "token",
          "type": "address"
        },
        {
          "internalType": "uint256",
          "name": "serialNumber",
          "type": "uint256"
        }
      ],
      "name": "getApprovedExternal",
      "outputs": [
        {
          "internalType": "int256",
          "name": "responseCode",
          "type": "int256"
        }
      ],
      "stateMutability": "nonpayable",
      "type": "function"
    },
    {
      "inputs": [
        {
          "internalType": "address",
          "name": "token",
          "type": "address"
        }
      ],
      "name": "getTokenExpiryInfoExternal",
      "outputs": [
        {
          "internalType": "int256",
          "name": "responseCode",
          "type": "int256"
        }
      ],
      "stateMutability": "nonpayable",
      "type": "function"
    },
    {
      "inputs": [
        {
          "internalType": "address",
          "name": "token",
          "type": "address"
        },
        {
          "internalType": "uint256",
          "name": "keyType",
          "type": "uint256"
        }
      ],
      "name": "getTokenKeyExternal",
      "outputs": [
        {
          "internalType": "int256",
          "name": "responseCode",
          "type": "int256"
        }
      ],
      "stateMutability": "nonpayable",
      "type": "function"
    },
    {
      "inputs": [
        {
          "internalType": "address",
          "name": "token",
          "type": "address"
        },
        {
          "internalType": "address",
          "name": "account",
          "type": "address"
        }
      ],
      "name": "grantTokenKycExternal",
      "outputs": [
        {
          "internalType": "int64",
          "name": "responseCode",
          "type": "int64"
        }
      ],
      "stateMutability": "nonpayable",
      "type": "function"
    },
    {
      "inputs": [
        {
          "internalType": "address",
          "name": "token",
          "type": "address"
        },
        {
          "internalType": "address",
          "name": "owner",
          "type": "address"
        },
        {
          "internalType": "address",
          "name": "operator",
          "type": "address"
        }
      ],
      "name": "isApprovedForAllExternal",
      "outputs": [
        {
          "internalType": "int256",
          "name": "responseCode",
          "type": "int256"
        }
      ],
      "stateMutability": "nonpayable",
      "type": "function"
    },
    {
      "inputs": [
        {
          "internalType": "address",
          "name": "token",
          "type": "address"
        }
      ],
      "name": "isTokenExternal",
      "outputs": [
        {
          "internalType": "int256",
          "name": "responseCode",
          "type": "int256"
        }
      ],
      "stateMutability": "nonpayable",
      "type": "function"
    },
    {
      "inputs": [
        {
          "internalType": "address",
          "name": "token",
          "type": "address"
        },
        {
          "internalType": "int64",
          "name": "amount",
          "type": "int64"
        },
        {
          "internalType": "bytes[]",
          "name": "metadata",
          "type": "bytes[]"
        }
      ],
      "name": "mintTokenExternal",
      "outputs": [
        {
          "internalType": "int256",
          "name": "responseCode",
          "type": "int256"
        },
        {
          "internalType": "int64",
          "name": "newTotalSupply",
          "type": "int64"
        },
        {
          "internalType": "int64[]",
          "name": "serialNumbers",
          "type": "int64[]"
        }
      ],
      "stateMutability": "nonpayable",
      "type": "function"
    },
    {
      "inputs": [
        {
          "internalType": "address",
          "name": "account",
          "type": "address"
        },
        {
          "internalType": "address",
          "name": "token",
          "type": "address"
        }
      ],
      "name": "nestedAssociateTokenExternal",
      "outputs": [
        {
          "internalType": "int256",
          "name": "responseCode",
          "type": "int256"
        }
      ],
      "stateMutability": "nonpayable",
      "type": "function"
    },
    {
      "inputs": [
        {
          "internalType": "address",
          "name": "token",
          "type": "address"
        },
        {
          "internalType": "address",
          "name": "account",
          "type": "address"
        }
      ],
      "name": "nestedFreezeUnfreezeTokenExternal",
      "outputs": [
        {
          "internalType": "int64",
          "name": "responseCode",
          "type": "int64"
        }
      ],
      "stateMutability": "nonpayable",
      "type": "function"
    },
    {
      "inputs": [
        {
          "internalType": "address",
          "name": "token",
          "type": "address"
        },
        {
          "internalType": "address",
          "name": "account",
          "type": "address"
        }
      ],
      "name": "nestedGrantAndRevokeTokenKYCExternal",
      "outputs": [
        {
          "internalType": "int64",
          "name": "responseCode",
          "type": "int64"
        }
      ],
      "stateMutability": "nonpayable",
      "type": "function"
    },
    {
      "inputs": [
        {
          "internalType": "address",
          "name": "token",
          "type": "address"
        }
      ],
      "name": "nestedPauseUnpauseTokenExternal",
      "outputs": [
        {
          "internalType": "int256",
          "name": "responseCode",
          "type": "int256"
        }
      ],
      "stateMutability": "nonpayable",
      "type": "function"
    },
    {
      "inputs": [
        {
          "internalType": "address",
          "name": "token",
          "type": "address"
        }
      ],
      "name": "pauseTokenExternal",
      "outputs": [
        {
          "internalType": "int256",
          "name": "responseCode",
          "type": "int256"
        }
      ],
      "stateMutability": "nonpayable",
      "type": "function"
    },
    {
      "inputs": [
        {
          "internalType": "address",
          "name": "token",
          "type": "address"
        },
        {
          "internalType": "bytes",
          "name": "encodedFunctionSelector",
          "type": "bytes"
        }
      ],
      "name": "redirectForToken",
      "outputs": [
        {
          "internalType": "int256",
          "name": "responseCode",
          "type": "int256"
        },
        {
          "internalType": "bytes",
          "name": "response",
          "type": "bytes"
        }
      ],
      "stateMutability": "nonpayable",
      "type": "function"
    },
    {
      "inputs": [
        {
          "internalType": "address",
          "name": "token",
          "type": "address"
        },
        {
          "internalType": "address",
          "name": "account",
          "type": "address"
        }
      ],
      "name": "revokeTokenKycExternal",
      "outputs": [
        {
          "internalType": "int64",
          "name": "responseCode",
          "type": "int64"
        }
      ],
      "stateMutability": "nonpayable",
      "type": "function"
    },
    {
      "inputs": [
        {
          "internalType": "address",
          "name": "token",
          "type": "address"
        },
        {
          "internalType": "address",
          "name": "account",
          "type": "address"
        },
        {
          "internalType": "bool",
          "name": "approved",
          "type": "bool"
        }
      ],
      "name": "setApprovalForAllExternal",
      "outputs": [
        {
          "internalType": "int256",
          "name": "responseCode",
          "type": "int256"
        }
      ],
      "stateMutability": "nonpayable",
      "type": "function"
    },
    {
      "inputs": [
        {
          "internalType": "address",
          "name": "token",
          "type": "address"
        },
        {
          "internalType": "address",
          "name": "from",
          "type": "address"
        },
        {
          "internalType": "address",
          "name": "to",
          "type": "address"
        },
        {
          "internalType": "uint256",
          "name": "amount",
          "type": "uint256"
        }
      ],
      "name": "transferFrom",
      "outputs": [
        {
          "internalType": "int64",
          "name": "responseCode",
          "type": "int64"
        }
      ],
      "stateMutability": "nonpayable",
      "type": "function"
    },
    {
      "inputs": [
        {
          "internalType": "address",
          "name": "token",
          "type": "address"
        },
        {
          "internalType": "address",
          "name": "from",
          "type": "address"
        },
        {
          "internalType": "address",
          "name": "to",
          "type": "address"
        },
        {
          "internalType": "uint256",
          "name": "amount",
          "type": "uint256"
        }
      ],
      "name": "transferFromExternal",
      "outputs": [
        {
          "internalType": "int256",
          "name": "responseCode",
          "type": "int256"
        }
      ],
      "stateMutability": "nonpayable",
      "type": "function"
    },
    {
      "inputs": [
        {
          "internalType": "address",
          "name": "token",
          "type": "address"
        },
        {
          "internalType": "address",
          "name": "from",
          "type": "address"
        },
        {
          "internalType": "address",
          "name": "to",
          "type": "address"
        },
        {
          "internalType": "uint256",
          "name": "serialNumber",
          "type": "uint256"
        }
      ],
      "name": "transferFromNFT",
      "outputs": [
        {
          "internalType": "int64",
          "name": "responseCode",
          "type": "int64"
        }
      ],
      "stateMutability": "nonpayable",
      "type": "function"
    },
    {
      "inputs": [
        {
          "internalType": "address",
          "name": "token",
          "type": "address"
        },
        {
          "internalType": "address",
          "name": "from",
          "type": "address"
        },
        {
          "internalType": "address",
          "name": "to",
          "type": "address"
        },
        {
          "internalType": "uint256",
          "name": "serialNumber",
          "type": "uint256"
        }
      ],
      "name": "transferFromNFTExternal",
      "outputs": [
        {
          "internalType": "int256",
          "name": "responseCode",
          "type": "int256"
        }
      ],
      "stateMutability": "nonpayable",
      "type": "function"
    },
    {
      "inputs": [
        {
          "internalType": "address",
          "name": "token",
          "type": "address"
        },
        {
          "internalType": "address",
          "name": "sender",
          "type": "address"
        },
        {
          "internalType": "address",
          "name": "receiver",
          "type": "address"
        },
        {
          "internalType": "int64",
          "name": "serialNumber",
          "type": "int64"
        }
      ],
      "name": "transferNFTExternal",
      "outputs": [
        {
          "internalType": "int256",
          "name": "responseCode",
          "type": "int256"
        }
      ],
      "stateMutability": "nonpayable",
      "type": "function"
    },
    {
      "inputs": [
        {
          "internalType": "address",
          "name": "token",
          "type": "address"
        },
        {
          "internalType": "address[]",
          "name": "sender",
          "type": "address[]"
        },
        {
          "internalType": "address[]",
          "name": "receiver",
          "type": "address[]"
        },
        {
          "internalType": "int64[]",
          "name": "serialNumber",
          "type": "int64[]"
        }
      ],
      "name": "transferNFTsExternal",
      "outputs": [
        {
          "internalType": "int256",
          "name": "responseCode",
          "type": "int256"
        }
      ],
      "stateMutability": "nonpayable",
      "type": "function"
    },
    {
      "inputs": [
        {
          "internalType": "address",
          "name": "token",
          "type": "address"
        },
        {
          "internalType": "address",
          "name": "sender",
          "type": "address"
        },
        {
          "internalType": "address",
          "name": "receiver",
          "type": "address"
        },
        {
          "internalType": "int64",
          "name": "amount",
          "type": "int64"
        }
      ],
      "name": "transferTokenExternal",
      "outputs": [
        {
          "internalType": "int256",
          "name": "responseCode",
          "type": "int256"
        }
      ],
      "stateMutability": "nonpayable",
      "type": "function"
    },
    {
      "inputs": [
        {
          "internalType": "address",
          "name": "token",
          "type": "address"
        },
        {
          "internalType": "address[]",
          "name": "accountIds",
          "type": "address[]"
        },
        {
          "internalType": "int64[]",
          "name": "amounts",
          "type": "int64[]"
        }
      ],
      "name": "transferTokensExternal",
      "outputs": [
        {
          "internalType": "int256",
          "name": "responseCode",
          "type": "int256"
        }
      ],
      "stateMutability": "nonpayable",
      "type": "function"
    },
    {
      "inputs": [
        {
          "internalType": "address",
          "name": "token",
          "type": "address"
        },
        {
          "internalType": "address",
          "name": "account",
          "type": "address"
        }
      ],
      "name": "unfreezeTokenExternal",
      "outputs": [
        {
          "internalType": "int64",
          "name": "responseCode",
          "type": "int64"
        }
      ],
      "stateMutability": "nonpayable",
      "type": "function"
    },
    {
      "inputs": [
        {
          "internalType": "address",
          "name": "token",
          "type": "address"
        }
      ],
      "name": "unpauseTokenExternal",
      "outputs": [
        {
          "internalType": "int256",
          "name": "responseCode",
          "type": "int256"
        }
      ],
      "stateMutability": "nonpayable",
      "type": "function"
    },
    {
      "inputs": [
        {
          "internalType": "address",
          "name": "token",
          "type": "address"
        },
        {
          "internalType": "address",
          "name": "treasury",
          "type": "address"
        }
      ],
      "name": "updateTokenExpiryInfoExternal",
      "outputs": [
        {
          "internalType": "int256",
          "name": "responseCode",
          "type": "int256"
        }
      ],
      "stateMutability": "nonpayable",
      "type": "function"
    },
    {
      "inputs": [
        {
          "internalType": "address",
          "name": "token",
          "type": "address"
        },
        {
          "internalType": "address",
          "name": "treasury",
          "type": "address"
        }
      ],
      "name": "updateTokenInfoExternal",
      "outputs": [
        {
          "internalType": "int256",
          "name": "responseCode",
          "type": "int256"
        }
      ],
      "stateMutability": "nonpayable",
      "type": "function"
    },
    {
      "inputs": [
        {
          "internalType": "address",
          "name": "token",
          "type": "address"
        }
      ],
      "name": "updateTokenKeysExternal",
      "outputs": [
        {
          "internalType": "int256",
          "name": "responseCode",
          "type": "int256"
        }
      ],
      "stateMutability": "nonpayable",
      "type": "function"
    },
    {
      "inputs": [
        {
          "internalType": "address",
          "name": "token",
          "type": "address"
        },
        {
          "internalType": "address",
          "name": "account",
          "type": "address"
        },
        {
          "internalType": "int64",
          "name": "amount",
          "type": "int64"
        }
      ],
      "name": "wipeTokenAccountExternal",
      "outputs": [
        {
          "internalType": "int256",
          "name": "responseCode",
          "type": "int256"
        }
      ],
      "stateMutability": "nonpayable",
      "type": "function"
    },
    {
      "inputs": [
        {
          "internalType": "address",
          "name": "token",
          "type": "address"
        },
        {
          "internalType": "address",
          "name": "account",
          "type": "address"
        },
        {
          "internalType": "int64[]",
          "name": "serialNumbers",
          "type": "int64[]"
        }
      ],
      "name": "wipeTokenAccountNFTExternal",
      "outputs": [
        {
          "internalType": "int256",
          "name": "responseCode",
          "type": "int256"
        }
      ],
      "stateMutability": "nonpayable",
      "type": "function"
    }
  ],
  "bytecode": "0x60c06040526009608081905268746f6b656e4e616d6560b81b60a09081526200002c9160029190620001c2565b5060408051808201909152600380825262544b5960e81b6020909201918252620000579181620001c2565b50604080518082019091526004808252636d656d6f60e01b6020909201918252620000839181620001c2565b50600580546001600160a81b031916700800000000000003e800000000000003e8179055348015620000b457600080fd5b50600160208181527fa6eef7e35abe7026729641147f7915573c7e97b47efa546f5f6e3230263bcb499190915560027fcc69885fda6bcc1a4ace058b4a62bf5e179ea78fd58a1ccd71c22cc9b688792f5560047fd9d16d34ffb15ba3a3d852f0d403e2ce1d691fb54de27ac87cd2f993f3ec330f5560087f7dfe757ecd65cbd7922a9c0161e935dd7fdbcc0e999689c7d31633896b1fc60b5560107fedc95719e9a3b28dd8e80877cb5880a9be7de1a13fc8b05e7999683b6b567643557fe2689cd4a84e23ad2f564004f1c9013e9589d260bde6380aba3ca7e09e4df40c55600660005260407f8f331abe73332f95a25873e8b430885974c0409691f89d643119a11623a7924a55620002a5565b828054620001d09062000268565b90600052602060002090601f016020900481019282620001f457600085556200023f565b82601f106200020f57805160ff19168380011785556200023f565b828001600101855582156200023f579182015b828111156200023f57825182559160200191906001019062000222565b506200024d92915062000251565b5090565b5b808211156200024d576000815560010162000252565b600181811c908216806200027d57607f821691505b602082108114156200029f57634e487b7160e01b600052602260045260246000fd5b50919050565b61543c80620002b56000396000f3fe6080604052600436106103135760003560e01c806375a854721161019a578063b97beda9116100e1578063e31b839c1161008a578063ed129c3f11610064578063ed129c3f146108e1578063f193826614610901578063fb2b6cef1461092157600080fd5b8063e31b839c14610881578063e95a71e5146108a1578063ec4ca639146108c157600080fd5b8063d85f74c1116100bb578063d85f74c11461082e578063d91cfc9514610841578063e03fc5141461086157600080fd5b8063b97beda9146107ce578063bafa6a91146107ee578063ceda64c41461080e57600080fd5b80639333700b116101435780639c2192471161011d5780639c2192471461076e578063a62188101461078e578063aa835c63146107ae57600080fd5b80639333700b1461070e5780639b23d3d91461072e5780639bc4d3541461074e57600080fd5b806384d232f51161017457806384d232f5146106bb5780638ba74da0146106db578063901fe3d0146106ee57600080fd5b806375a854721461065b5780637adc26b81461067b5780637cea29a31461069b57600080fd5b806330a8f2931161025e57806352205b3311610207578063632da116116101e1578063632da116146105e35780636f3e86781461061b578063714c42c01461063b57600080fd5b806352205b33146105755780635ac4fef814610595578063618dc65e146105b557600080fd5b80634b5c6687116102385780634b5c6687146105225780634c09c804146105355780634fd6ce0a1461055557600080fd5b806330a8f293146104c257806331508107146104e2578063437dffd51461050257600080fd5b806315dacbea116102c05780631ba978fc1161029a5780631ba978fc146104625780632390c1fa146104825780632fc358f7146104a257600080fd5b806315dacbea14610402578063165aae661461042257806317f96caa1461044257600080fd5b80630c0295d4116102f15780630c0295d4146103935780630c0a198c146103c2578063144b06ff146103e257600080fd5b80630435d840146103185780630488c9391461034b57806306a1a5d314610360575b600080fd5b34801561032457600080fd5b50610338610333366004613c97565b610941565b6040519081526020015b60405180910390f35b61035e610359366004613ce2565b610961565b005b34801561036c57600080fd5b5061038061037b366004613ce2565b610e98565b60405160079190910b8152602001610342565b34801561039f57600080fd5b506103b36103ae366004613ea5565b610ec3565b60405161034293929190613fbb565b3480156103ce57600080fd5b506103386103dd366004613fe6565b610eec565b3480156103ee57600080fd5b506103386103fd366004614003565b610f07565b34801561040e57600080fd5b5061038061041d36600461402f565b610f22565b34801561042e57600080fd5b5061033861043d366004613fe6565b611016565b34801561044e57600080fd5b5061038061045d366004613ce2565b611021565b34801561046e57600080fd5b5061033861047d366004614153565b611038565b34801561048e57600080fd5b5061033861049d3660046141ee565b611059565b3480156104ae57600080fd5b506103386104bd3660046141ee565b611070565b3480156104ce57600080fd5b506103386104dd366004613fe6565b61107c565b3480156104ee57600080fd5b506103386104fd366004613c97565b611087565b34801561050e57600080fd5b5061033861051d366004613ce2565b611094565b61035e610530366004613fe6565b6110ab565b34801561054157600080fd5b5061033861055036600461423e565b611484565b34801561056157600080fd5b506103386105703660046142a0565b61149c565b34801561058157600080fd5b50610380610590366004613ce2565b6114aa565b3480156105a157600080fd5b506103386105b03660046142fc565b6114b6565b3480156105c157600080fd5b506105d56105d036600461433c565b6114c3565b6040516103429291906143de565b3480156105ef57600080fd5b506106036105fe3660046143f7565b6115f1565b6040805192835260079190910b602083015201610342565b34801561062757600080fd5b50610338610636366004613fe6565b611615565b34801561064757600080fd5b50610338610656366004613fe6565b61162f565b34801561066757600080fd5b5061033861067636600461402f565b611820565b34801561068757600080fd5b50610338610696366004613ce2565b6118c2565b3480156106a757600080fd5b506103386106b6366004613fe6565b611906565b3480156106c757600080fd5b506103386106d6366004614427565b61191d565b61035e6106e9366004613ce2565b61192a565b3480156106fa57600080fd5b50610380610709366004613ce2565b611d5e565b34801561071a57600080fd5b50610380610729366004613ce2565b611d75565b34801561073a57600080fd5b5061038061074936600461402f565b611d81565b34801561075a57600080fd5b5061033861076936600461402f565b611dc6565b34801561077a57600080fd5b50610338610789366004613ce2565b611e0c565b34801561079a57600080fd5b506103386107a9366004614525565b611e18565b3480156107ba57600080fd5b506103386107c9366004614770565b611e24565b3480156107da57600080fd5b506103386107e9366004614003565b611e31565b3480156107fa57600080fd5b506103386108093660046142a0565b611e49565b34801561081a57600080fd5b50610338610829366004614427565b611e57565b61035e61083c366004613fe6565b611e64565b34801561084d57600080fd5b5061033861085c366004613ce2565b612204565b34801561086d57600080fd5b5061033861087c366004613fe6565b612210565b34801561088d57600080fd5b5061033861089c3660046147dc565b612225565b3480156108ad57600080fd5b506103806108bc366004613ce2565b612232565b3480156108cd57600080fd5b506103806108dc366004613ce2565b61223e565b3480156108ed57600080fd5b506103386108fc366004613fe6565b61224a565b34801561090d57600080fd5b5061033861091c366004613ce2565b61225f565b34801561092d57600080fd5b5061033861093c366004613ce2565b61226b565b600061094e84848461261f565b50905061095a8161271e565b9392505050565b60408051600580825260c08201909252600091816020015b610981613c25565b8152602001906001900390816109795790505090506109b46000600660006040518060200160405280600081525061272e565b816000815181106109c7576109c761481c565b60200260200101819052506109ee6001600060405180602001604052806000815250612765565b81600181518110610a0157610a0161481c565b6020026020010181905250610a286002600060405180602001604052806000815250612765565b81600281518110610a3b57610a3b61481c565b6020026020010181905250610a626004600060405180602001604052806000815250612765565b81600381518110610a7557610a7561481c565b6020026020010181905250610a9c6003600060405180602001604052806000815250612765565b81600481518110610aaf57610aaf61481c565b602002602001018190525060006040518060600160405280600060070b8152602001856001600160a01b03168152602001627a120060070b8152509050600060405180610120016040528060028054610b0790614832565b80601f0160208091040260200160405190810160405280929190818152602001828054610b3390614832565b8015610b805780601f10610b5557610100808354040283529160200191610b80565b820191906000526020600020905b815481529060010190602001808311610b6357829003601f168201915b5050505050815260200160038054610b9790614832565b80601f0160208091040260200160405190810160405280929190818152602001828054610bc390614832565b8015610c105780601f10610be557610100808354040283529160200191610c10565b820191906000526020600020905b815481529060010190602001808311610bf357829003601f168201915b50505050508152602001866001600160a01b0316815260200160048054610c3690614832565b80601f0160208091040260200160405190810160405280929190818152602001828054610c6290614832565b8015610caf5780601f10610c8457610100808354040283529160200191610caf565b820191906000526020600020905b815481529060010190602001808311610c9257829003601f168201915b505050918352505060016020820181905260055468010000000000000000810460070b6040840152600160a01b900460ff16151560608301526080820186905260a0909101849052909150600090604051908082528060200260200182016040528015610d5657816020015b6040805160a081018252600080825260208083018290529282018190526060820181905260808201528252600019909201910181610d1b5790505b506040805160a081018252600181526001600160a01b03808916602083015260009282018390526060820183905289166080820152825192935091839190610da057610da061481c565b6020908102919091010152604080516001808252818301909252600091816020015b6040805160c08101825260008082526020808301829052928201819052606082018190526080820181905260a08201528252600019909201910181610dc25790505090506040518060c00160405280600460070b8152602001600560070b8152602001600a60070b8152602001876001600160a01b03168152602001600015158152602001886001600160a01b031681525081600081518110610e6757610e6761481c565b6020026020010181905250600080610e8085858561279a565b91509150610e8d8261271e565b505050505050505050565b6000610ea483836128c2565b50610eaf83836129be565b9050610ebd8160070b61271e565b92915050565b6000806060610ed3868686612a0d565b91945092509050610ee38361271e565b93509350939050565b6000610ef782612b0b565b9050610f028161271e565b919050565b6000610f138383612bfe565b5060070b9050610ebd8161271e565b6040516001600160a01b038581166024830152848116604483015283166064820152608481018290526000908190819061016790630aed65f560e11b9060a4015b60408051601f198184030181529181526020820180516001600160e01b03166001600160e01b0319909416939093179092529051610fa19190614867565b6000604051808303816000865af19150503d8060008114610fde576040519150601f19603f3d011682016040523d82523d6000602084013e610fe3565b606091505b509150915081610ff4576015611008565b808060200190518101906110089190614895565b60030b979650505050505050565b6000610ef782612d48565b600061102d8383612d8f565b50610eaf8383612d8f565b600061104685858585612dde565b90506110518161271e565b949350505050565b60006110658383612e0e565b9050610ebd8161271e565b60006110658383612e3a565b6000610ef782612e66565b600061094e848484612ead565b60006110a08383612f99565b506110658383612f99565b60408051600580825260c08201909252600091816020015b6110cb613c25565b8152602001906001900390816110c35790505090506110fe6000600660006040518060200160405280600081525061272e565b816000815181106111115761111161481c565b60200260200101819052506111386001600060405180602001604052806000815250612765565b8160018151811061114b5761114b61481c565b60200260200101819052506111726002600060405180602001604052806000815250612765565b816002815181106111855761118561481c565b60200260200101819052506111ac6003600060405180602001604052806000815250612765565b816003815181106111bf576111bf61481c565b60200260200101819052506111e66004600060405180602001604052806000815250612765565b816004815181106111f9576111f961481c565b602002602001018190525060006040518060600160405280600060070b8152602001846001600160a01b03168152602001627a120060070b815250905060006040518061012001604052806002805461125190614832565b80601f016020809104026020016040519081016040528092919081815260200182805461127d90614832565b80156112ca5780601f1061129f576101008083540402835291602001916112ca565b820191906000526020600020905b8154815290600101906020018083116112ad57829003601f168201915b50505050508152602001600380546112e190614832565b80601f016020809104026020016040519081016040528092919081815260200182805461130d90614832565b801561135a5780601f1061132f5761010080835404028352916020019161135a565b820191906000526020600020905b81548152906001019060200180831161133d57829003601f168201915b50505050508152602001856001600160a01b031681526020016004805461138090614832565b80601f01602080910402602001604051908101604052809291908181526020018280546113ac90614832565b80156113f95780601f106113ce576101008083540402835291602001916113f9565b820191906000526020600020905b8154815290600101906020018083116113dc57829003601f168201915b505050918352505060016020820152600554680100000000000000008104600790810b604084015260ff600160a01b830416151560608401526080830187905260a0909201859052919250600091829161146f91859181900b90700100000000000000000000000000000000900460030b612fe8565b9150915061147c8261271e565b505050505050565b6000611491848484613055565b905061095a8161271e565b600061104685858585613135565b6000610eaf83836129be565b6000611491848484613196565b600060606000806101676001600160a01b031663618dc65e60e01b87876040516024016114f19291906148b0565b60408051601f198184030181529181526020820180516001600160e01b03166001600160e01b031990941693909317909252905161152f9190614867565b6000604051808303816000865af19150503d806000811461156c576040519150601f19603f3d011682016040523d82523d6000602084013e611571565b606091505b50915091507f4af4780e06fe8cb9df64b0794fa6f01399af979175bb988e35e0e57e594567bc82826040516115a79291906148d2565b60405180910390a1816115cb576015604051806020016040528060008152506115df565b808060200190518101906115df9190614932565b60039190910b97909650945050505050565b6000806115ff8585856131ef565b909250905061160d8261271e565b935093915050565b6000611620826132c5565b5060070b9050610f028161271e565b60408051600480825260a08201909252600091829190816020015b611652613c25565b81526020019060019003908161164a5790505090506116bf600160036040516020016116ab907f02e35698a0273a8c6509ae4716c26a52eebca73e5de2c6677b189ef40f6fcd1f815260ed60f81b602082015260210190565b604051602081830303815290604052612765565b816000815181106116d2576116d261481c565b6020026020010181905250611721600260036040516020016116ab907f02e35698a0273a8c6509ae4716c26a52eebca73e5de2c6677b189ef40f6fcd1f815260ed60f81b602082015260210190565b816001815181106117345761173461481c565b6020026020010181905250611783600460036040516020016116ab907f02e35698a0273a8c6509ae4716c26a52eebca73e5de2c6677b189ef40f6fcd1f815260ed60f81b602082015260210190565b816002815181106117965761179661481c565b60200260200101819052506117e46003806040516020016116ab907f02e35698a0273a8c6509ae4716c26a52eebca73e5de2c6677b189ef40f6fcd1f815260ed60f81b602082015260210190565b816003815181106117f7576117f761481c565b602002602001018190525061180c83826133b2565b60070b915061181a8261271e565b50919050565b604051630aed65f560e11b81526001600160a01b0380861660048301528085166024830152831660448201526064810182905260009030906315dacbea906084015b602060405180830381600087803b15801561187c57600080fd5b505af1158015611890573d6000803e3d6000fd5b505050506040513d601f19601f820116820180604052508101906118b49190614976565b60070b90506110518161271e565b6040805160608101825260008082526001600160a01b0384166020830152612328928201929092526118f484826133de565b91506118ff8261271e565b5092915050565b60006119118261340a565b509050610f028161271e565b600061149184848461351b565b604080516001808252818301909252600091816020015b611949613c25565b81526020019060019003908161194157905050905061197b60008060006040518060200160405280600081525061272e565b8160008151811061198e5761198e61481c565b602002602001018190525060006040518060600160405280600060070b8152602001856001600160a01b03168152602001627a120060070b81525090506000604051806101200160405280600280546119e690614832565b80601f0160208091040260200160405190810160405280929190818152602001828054611a1290614832565b8015611a5f5780601f10611a3457610100808354040283529160200191611a5f565b820191906000526020600020905b815481529060010190602001808311611a4257829003601f168201915b5050505050815260200160038054611a7690614832565b80601f0160208091040260200160405190810160405280929190818152602001828054611aa290614832565b8015611aef5780601f10611ac457610100808354040283529160200191611aef565b820191906000526020600020905b815481529060010190602001808311611ad257829003601f168201915b50505050508152602001866001600160a01b0316815260200160048054611b1590614832565b80601f0160208091040260200160405190810160405280929190818152602001828054611b4190614832565b8015611b8e5780601f10611b6357610100808354040283529160200191611b8e565b820191906000526020600020905b815481529060010190602001808311611b7157829003601f168201915b505050918352505060016020820181905260055468010000000000000000900460070b6040808401919091526000606084018190526080840188905260a09093018690528051828152808201909152929350909190816020015b6040805160a081018252600080825260208083018290529282018190526060820181905260808201528252600019909201910181611be85750506040805160a081018252600181526001600160a01b03888116602083015260009282018390526060820183905289166080820152825192935091839190611c6b57611c6b61481c565b6020908102919091010152604080516001808252818301909252600091816020015b6040805160c08101825260008082526020808301829052928201819052606082018190526080820181905260a08201528252600019909201910181611c8d5750506040805160c0810182526004815260056020820152600a91810191909152601e60608201526000608082018190526001600160a01b038a1660a083015282519293509091839190611d2157611d2161481c565b60209081029190910101526005546000908190610e80908690600781900b90700100000000000000000000000000000000900460030b8787613571565b6000611d6a8383612d8f565b50610eaf838361369f565b6000610eaf8383612d8f565b6040516001600160a01b038581166024830152848116604483015283166064820152608481018290526000908190819061016790639b23d3d960e01b9060a401610f63565b604051639b23d3d960e01b81526001600160a01b038086166004830152808516602483015283166044820152606481018290526000903090639b23d3d990608401611862565b600061106583836136ee565b6000611065838361373d565b6000611491848484613769565b6000611e3d8383613797565b509050610ebd8161271e565b600061104685858585613877565b60006114918484846138d8565b60408051600580825260c08201909252600091816020015b611e84613c25565b815260200190600190039081611e7c579050509050611eb76000600660006040518060200160405280600081525061272e565b81600081518110611eca57611eca61481c565b6020026020010181905250611ef16001600060405180602001604052806000815250612765565b81600181518110611f0457611f0461481c565b6020026020010181905250611f2b6002600060405180602001604052806000815250612765565b81600281518110611f3e57611f3e61481c565b6020026020010181905250611f656004600060405180602001604052806000815250612765565b81600381518110611f7857611f7861481c565b6020026020010181905250611f9f6003600060405180602001604052806000815250612765565b81600481518110611fb257611fb261481c565b602002602001018190525060006040518060600160405280600060070b8152602001846001600160a01b03168152602001627a120060070b815250905060006040518061012001604052806002805461200a90614832565b80601f016020809104026020016040519081016040528092919081815260200182805461203690614832565b80156120835780601f1061205857610100808354040283529160200191612083565b820191906000526020600020905b81548152906001019060200180831161206657829003601f168201915b505050505081526020016003805461209a90614832565b80601f01602080910402602001604051908101604052809291908181526020018280546120c690614832565b80156121135780601f106120e857610100808354040283529160200191612113565b820191906000526020600020905b8154815290600101906020018083116120f657829003601f168201915b50505050508152602001856001600160a01b031681526020016004805461213990614832565b80601f016020809104026020016040519081016040528092919081815260200182805461216590614832565b80156121b25780601f10612187576101008083540402835291602001916121b2565b820191906000526020600020905b81548152906001019060200180831161219557829003601f168201915b50505091835250506001602082015260055468010000000000000000810460070b6040830152600160a01b900460ff16151560608201526080810185905260a001839052905060008061146f8361392e565b60006110658383612f99565b600061221b82612b0b565b50610ef782612b0b565b6000611491848484613a12565b6000610eaf838361369f565b6000610eaf83836128c2565b600061225582612e66565b50610ef782612d48565b60006110a083836136ee565b60408051600580825260c08201909252600091829190816020015b61228e613c25565b8152602001906001900390816122865790505090506122c16000600660006040518060200160405280600081525061272e565b816000815181106122d4576122d461481c565b60200260200101819052506122fb6001600060405180602001604052806000815250612765565b8160018151811061230e5761230e61481c565b60200260200101819052506123356002600060405180602001604052806000815250612765565b816002815181106123485761234861481c565b602002602001018190525061236f6004600060405180602001604052806000815250612765565b816003815181106123825761238261481c565b60200260200101819052506123a96003600060405180602001604052806000815250612765565b816004815181106123bc576123bc61481c565b602002602001018190525060006040518060600160405280600060070b8152602001856001600160a01b0316815260200161232860070b815250905060006040518061012001604052806002805461241390614832565b80601f016020809104026020016040519081016040528092919081815260200182805461243f90614832565b801561248c5780601f106124615761010080835404028352916020019161248c565b820191906000526020600020905b81548152906001019060200180831161246f57829003601f168201915b50505050508152602001600380546124a390614832565b80601f01602080910402602001604051908101604052809291908181526020018280546124cf90614832565b801561251c5780601f106124f15761010080835404028352916020019161251c565b820191906000526020600020905b8154815290600101906020018083116124ff57829003601f168201915b50505050508152602001866001600160a01b031681526020016004805461254290614832565b80601f016020809104026020016040519081016040528092919081815260200182805461256e90614832565b80156125bb5780601f10612590576101008083540402835291602001916125bb565b820191906000526020600020905b81548152906001019060200180831161259e57829003601f168201915b50505091835250506001602082015260055468010000000000000000810460070b6040830152600160a01b900460ff16151560608201526080810185905260a001839052905061260b8682613a69565b93506126168461271e565b50505092915050565b604080516001600160a01b0385811660248301528481166044830152831660648083019190915282518083039091018152608490910182526020810180516001600160e01b03167f927da105000000000000000000000000000000000000000000000000000000001790529051600091829182918291610167916126a291614867565b6000604051808303816000865af19150503d80600081146126df576040519150601f19603f3d011682016040523d82523d6000602084013e6126e4565b606091505b5091509150816126f7576015600061270b565b8080602001905181019061270b9190614993565b60039190910b9890975095505050505050565b6016811461272b57600080fd5b50565b612736613c25565b604051806040016040528061274b8787613a95565b815260200161275a8585613ad0565b905295945050505050565b61276d613c25565b604051806040016040528061278186613be6565b81526020016127908585613ad0565b9052949350505050565b600080848061010001516000015160070b60001480156127c457506101008101516040015160070b155b156127da576101008101516276a7006040909101525b6000806101676001600160a01b03163463abb54eb560e01b8a8a8a60405160240161280793929190614bf2565b60408051601f198184030181529181526020820180516001600160e01b03166001600160e01b03199094169390931790925290516128459190614867565b60006040518083038185875af1925050503d8060008114612882576040519150601f19603f3d011682016040523d82523d6000602084013e612887565b606091505b50915091508161289a57601560006128ae565b808060200190518101906128ae9190614ca9565b60039190910b999098509650505050505050565b6040516001600160a01b0383811660248301528216604482015260009081908190610167907f8f8d7f9900000000000000000000000000000000000000000000000000000000906064015b60408051601f198184030181529181526020820180516001600160e01b03166001600160e01b031990941693909317909252905161294b9190614867565b6000604051808303816000865af19150503d8060008114612988576040519150601f19603f3d011682016040523d82523d6000602084013e61298d565b606091505b50915091508161299e5760156129b2565b808060200190518101906129b29190614895565b60030b95945050505050565b6040516001600160a01b0383811660248301528216604482015260009081908190610167907faf99c633000000000000000000000000000000000000000000000000000000009060640161290d565b60008060606000806101676001600160a01b031663e0f4059a60e01b898989604051602401612a3e93929190614cd5565b60408051601f198184030181529181526020820180516001600160e01b03166001600160e01b0319909416939093179092529051612a7c9190614867565b6000604051808303816000865af19150503d8060008114612ab9576040519150601f19603f3d011682016040523d82523d6000602084013e612abe565b606091505b509150915081612ae1576040805160008082526020820190925260159190612af5565b80806020019051810190612af59190614d52565b60039290920b9a90995090975095505050505050565b6040516001600160a01b038216602482015260009081908190610167907ff069f71200000000000000000000000000000000000000000000000000000000906044015b60408051601f198184030181529181526020820180516001600160e01b03166001600160e01b0319909416939093179092529051612b8c9190614867565b6000604051808303816000865af19150503d8060008114612bc9576040519150601f19603f3d011682016040523d82523d6000602084013e612bce565b606091505b509150915081612bdf576015612bf3565b80806020019051810190612bf39190614895565b60030b949350505050565b6040805160a081018252600080825260208083018290526060838501819052808401526080830182905283516001600160a01b03871660248201526044808201879052855180830390910181526064909101855290810180516001600160e01b03167f3c4dd32e00000000000000000000000000000000000000000000000000000000179052925190928391829161016791612c9a9190614867565b6000604051808303816000865af19150503d8060008114612cd7576040519150601f19603f3d011682016040523d82523d6000602084013e612cdc565b606091505b5091509150612d276040518060a0016040528060001515815260200160006001600160a01b03168152602001606081526020016060815260200160006001600160a01b031681525090565b82612d345760158161270b565b8180602001905181019061270b9190614e1d565b6040516001600160a01b038216602482015260009081908190610167907f3b3bff0f0000000000000000000000000000000000000000000000000000000090604401612b4e565b6040516001600160a01b0383811660248301528216604482015260009081908190610167907f5b8f8584000000000000000000000000000000000000000000000000000000009060640161290d565b60008060006101676001600160a01b0316632c4ba19160e01b88888888604051602401610f639493929190614f31565b60008060006101676001600160a01b03166378b6391860e01b868660405160240161290d929190614f84565b60008060006101676001600160a01b0316632e63879b60e01b868660405160240161290d929190614f84565b6040516001600160a01b038216602482015260009081908190610167907f7c41ad2c0000000000000000000000000000000000000000000000000000000090604401612b4e565b604080516001600160a01b0385811660248301528481166044830152831660648083019190915282518083039091018152608490910182526020810180516001600160e01b03167ff49f40db00000000000000000000000000000000000000000000000000000000179052905160009182918291829161016791612f3091614867565b6000604051808303816000865af19150503d8060008114612f6d576040519150601f19603f3d011682016040523d82523d6000602084013e612f72565b606091505b509150915081612f85576015600061270b565b8080602001905181019061270b9190614fa6565b6040516001600160a01b0383811660248301528216604482015260009081908190610167907f49146bde000000000000000000000000000000000000000000000000000000009060640161290d565b600080848061010001516000015160070b600014801561301257506101008101516040015160070b155b15613028576101008101516276a7006040909101525b6000806101676001600160a01b031634630fb65bf360e01b8a8a8a60405160240161280793929190614fd2565b60008060006101676001600160a01b031663f7f38e2660e01b87878760405160240161308393929190615001565b60408051601f198184030181529181526020820180516001600160e01b03166001600160e01b03199094169390931790925290516130c19190614867565b6000604051808303816000865af19150503d80600081146130fe576040519150601f19603f3d011682016040523d82523d6000602084013e613103565b606091505b509150915081613114576015613128565b808060200190518101906131289190614895565b60030b9695505050505050565b6040516001600160a01b038581166024830152848116604483015283166064820152600782900b608482015260009081908190610167907feca36917000000000000000000000000000000000000000000000000000000009060a401610f63565b6040516001600160a01b03848116602483015283166044820152600782900b606482015260009081908190610167907fefef57f90000000000000000000000000000000000000000000000000000000090608401613083565b6000806000806101676001600160a01b031663d6910d0660e01b88888860405160240161321e9392919061502d565b60408051601f198184030181529181526020820180516001600160e01b03166001600160e01b031990941693909317909252905161325c9190614867565b6000604051808303816000865af19150503d8060008114613299576040519150601f19603f3d011682016040523d82523d6000602084013e61329e565b606091505b5091509150816132b1576015600061270b565b8080602001905181019061270b9190615058565b604080516001600160a01b03831660248083019190915282518083039091018152604490910182526020810180516001600160e01b03167f19f373610000000000000000000000000000000000000000000000000000000017905290516000918291829182916101679161333891614867565b6000604051808303816000865af19150503d8060008114613375576040519150601f19603f3d011682016040523d82523d6000602084013e61337a565b606091505b50915091508161338d57601560006133a1565b808060200190518101906133a19190614fa6565b60039190910b969095509350505050565b60008060006101676001600160a01b0316636fc3cbaf60e01b868660405160240161290d929190615084565b60008060006101676001600160a01b031663d27be6cd60e01b868660405160240161290d9291906150a6565b604080516060810182526000808252602080830182905282840182905283516001600160a01b038616602480830191909152855180830390910181526044909101855290810180516001600160e01b03167fd614cdb8000000000000000000000000000000000000000000000000000000001790529251909283918291610167916134959190614867565b6000604051808303816000865af19150503d80600081146134d2576040519150601f19603f3d011682016040523d82523d6000602084013e6134d7565b606091505b506040805160608101825260008082526020820181905291810191909152919350915082613507576015816115df565b818060200190518101906115df91906150e9565b6040516001600160a01b038481166024830152831660448201526064810182905260009081908190610167907f7336aaf00000000000000000000000000000000000000000000000000000000090608401613083565b600080868061010001516000015160070b600014801561359b57506101008101516040015160070b155b156135b1576101008101516276a7006040909101525b6000806101676001600160a01b031634632af0c59a60e01b8c8c8c8c8c6040516024016135e2959493929190615164565b60408051601f198184030181529181526020820180516001600160e01b03166001600160e01b03199094169390931790925290516136209190614867565b60006040518083038185875af1925050503d806000811461365d576040519150601f19603f3d011682016040523d82523d6000602084013e613662565b606091505b5091509150816136755760156000613689565b808060200190518101906136899190614ca9565b60039190910b9b909a5098505050505050505050565b6040516001600160a01b0383811660248301528216604482015260009081908190610167907f52f91387000000000000000000000000000000000000000000000000000000009060640161290d565b6040516001600160a01b0383811660248301528216604482015260009081908190610167907f099794e8000000000000000000000000000000000000000000000000000000009060640161290d565b60008060006101676001600160a01b0316630e71804f60e01b868660405160240161290d929190615280565b60008060006101676001600160a01b03166382bba49360e01b8787876040516024016130839392919061537d565b604080516001600160a01b0384166024820152604480820184905282518083039091018152606490910182526020810180516001600160e01b03167f098f23660000000000000000000000000000000000000000000000000000000017905290516000918291829182916101679161380e91614867565b6000604051808303816000865af19150503d806000811461384b576040519150601f19603f3d011682016040523d82523d6000602084013e613850565b606091505b50915091508161386357601560006115df565b808060200190518101906115df9190614ca9565b6040516001600160a01b038581166024830152848116604483015283166064820152600782900b608482015260009081908190610167907f5cfc9011000000000000000000000000000000000000000000000000000000009060a401610f63565b6040516001600160a01b038481166024830152831660448201526064810182905260009081908190610167907fe1f21c670000000000000000000000000000000000000000000000000000000090608401613083565b600080828061010001516000015160070b600014801561395857506101008101516040015160070b155b1561396e576101008101516276a7006040909101525b6000806101676001600160a01b03163463ea83f29360e01b8860405160240161399791906153bb565b60408051601f198184030181529181526020820180516001600160e01b03166001600160e01b03199094169390931790925290516139d59190614867565b60006040518083038185875af1925050503d806000811461384b576040519150601f19603f3d011682016040523d82523d6000602084013e613850565b6040516001600160a01b03848116602483015283166044820152811515606482015260009081908190610167907f367605ca0000000000000000000000000000000000000000000000000000000090608401613083565b60008060006101676001600160a01b0316637d305cfa60e01b868660405160240161290d9291906153ce565b6000613ab9836006811115613aac57613aac6153f0565b600160ff9091161b821790565b905061095a826006811115613aac57613aac6153f0565b613b166040518060a0016040528060001515815260200160006001600160a01b03168152602001606081526020016060815260200160006001600160a01b031681525090565b6000836004811115613b2a57613b2a6153f0565b1415613b395760018152610ebd565b6001836004811115613b4d57613b4d6153f0565b1415613b69576000546001600160a01b03166020820152610ebd565b6002836004811115613b7d57613b7d6153f0565b1415613b8f5760408101829052610ebd565b6003836004811115613ba357613ba36153f0565b1415613bb55760608101829052610ebd565b6004836004811115613bc957613bc96153f0565b1415610ebd576000546001600160a01b0316608082015292915050565b600060016000836006811115613bfe57613bfe6153f0565b6006811115613c0f57613c0f6153f0565b8152602001908152602001600020549050919050565b604051806040016040528060008152602001613c7d6040518060a0016040528060001515815260200160006001600160a01b03168152602001606081526020016060815260200160006001600160a01b031681525090565b905290565b6001600160a01b038116811461272b57600080fd5b600080600060608486031215613cac57600080fd5b8335613cb781613c82565b92506020840135613cc781613c82565b91506040840135613cd781613c82565b809150509250925092565b60008060408385031215613cf557600080fd5b8235613d0081613c82565b91506020830135613d1081613c82565b809150509250929050565b8060070b811461272b57600080fd5b634e487b7160e01b600052604160045260246000fd5b6040516060810167ffffffffffffffff81118282101715613d6357613d63613d2a565b60405290565b6040516020810167ffffffffffffffff81118282101715613d6357613d63613d2a565b6040516080810167ffffffffffffffff81118282101715613d6357613d63613d2a565b60405160a0810167ffffffffffffffff81118282101715613d6357613d63613d2a565b604051601f8201601f1916810167ffffffffffffffff81118282101715613dfb57613dfb613d2a565b604052919050565b600067ffffffffffffffff821115613e1d57613e1d613d2a565b5060051b60200190565b600067ffffffffffffffff821115613e4157613e41613d2a565b50601f01601f191660200190565b600082601f830112613e6057600080fd5b8135613e73613e6e82613e27565b613dd2565b818152846020838601011115613e8857600080fd5b816020850160208301376000918101602001919091529392505050565b600080600060608486031215613eba57600080fd5b8335613ec581613c82565b9250602084810135613ed681613d1b565b9250604085013567ffffffffffffffff80821115613ef357600080fd5b818701915087601f830112613f0757600080fd5b8135613f15613e6e82613e03565b81815260059190911b8301840190848101908a831115613f3457600080fd5b8585015b83811015613f6c57803585811115613f505760008081fd5b613f5e8d89838a0101613e4f565b845250918601918601613f38565b508096505050505050509250925092565b600081518084526020808501945080840160005b83811015613fb057815160070b87529582019590820190600101613f91565b509495945050505050565b8381528260070b6020820152606060408201526000613fdd6060830184613f7d565b95945050505050565b600060208284031215613ff857600080fd5b813561095a81613c82565b6000806040838503121561401657600080fd5b823561402181613c82565b946020939093013593505050565b6000806000806080858703121561404557600080fd5b843561405081613c82565b9350602085013561406081613c82565b9250604085013561407081613c82565b9396929550929360600135925050565b600082601f83011261409157600080fd5b813560206140a1613e6e83613e03565b82815260059290921b840181019181810190868411156140c057600080fd5b8286015b848110156140e45780356140d781613c82565b83529183019183016140c4565b509695505050505050565b600082601f83011261410057600080fd5b81356020614110613e6e83613e03565b82815260059290921b8401810191818101908684111561412f57600080fd5b8286015b848110156140e457803561414681613d1b565b8352918301918301614133565b6000806000806080858703121561416957600080fd5b843561417481613c82565b9350602085013567ffffffffffffffff8082111561419157600080fd5b61419d88838901614080565b945060408701359150808211156141b357600080fd5b6141bf88838901614080565b935060608701359150808211156141d557600080fd5b506141e2878288016140ef565b91505092959194509250565b6000806040838503121561420157600080fd5b823561420c81613c82565b9150602083013567ffffffffffffffff81111561422857600080fd5b61423485828601614080565b9150509250929050565b60008060006060848603121561425357600080fd5b833561425e81613c82565b9250602084013561426e81613c82565b9150604084013567ffffffffffffffff81111561428a57600080fd5b614296868287016140ef565b9150509250925092565b600080600080608085870312156142b657600080fd5b84356142c181613c82565b935060208501356142d181613c82565b925060408501356142e181613c82565b915060608501356142f181613d1b565b939692955090935050565b60008060006060848603121561431157600080fd5b833561431c81613c82565b9250602084013561432c81613c82565b91506040840135613cd781613d1b565b6000806040838503121561434f57600080fd5b823561435a81613c82565b9150602083013567ffffffffffffffff81111561437657600080fd5b61423485828601613e4f565b60005b8381101561439d578181015183820152602001614385565b838111156143ac576000848401525b50505050565b600081518084526143ca816020860160208601614382565b601f01601f19169290920160200192915050565b82815260406020820152600061105160408301846143b2565b60008060006060848603121561440c57600080fd5b833561441781613c82565b9250602084013561426e81613d1b565b60008060006060848603121561443c57600080fd5b833561444781613c82565b9250602084013561445781613c82565b929592945050506040919091013590565b801515811461272b57600080fd5b600082601f83011261448757600080fd5b81356020614497613e6e83613e03565b828152606092830285018201928282019190878511156144b657600080fd5b8387015b858110156145185781818a0312156144d25760008081fd5b6144da613d40565b81356144e581613c82565b8152818601356144f481613d1b565b8187015260408281013561450781614468565b9082015284529284019281016144ba565b5090979650505050505050565b6000806040838503121561453857600080fd5b67ffffffffffffffff808435111561454f57600080fd5b6020843585018603121561456257600080fd5b61456a613d69565b818535860135111561457b57600080fd5b61458b8686358701803501614476565b8152925060208401358110156145a057600080fd5b6020840135840185601f8201126145b657600080fd5b6145c3613e6e8235613e03565b81358082526020808301929160051b8401018810156145e157600080fd5b602083015b6020843560051b85010181101561476157848135111561460557600080fd5b803584016060818b03601f1901121561461d57600080fd5b614625613d40565b6146326020830135613c82565b60208201358152866040830135111561464a57600080fd5b61465d8b60206040850135850101614476565b6020820152866060830135111561467357600080fd5b6060820135820191508a603f83011261468b57600080fd5b61469b613e6e6020840135613e03565b602083810135808352908201919060071b84016040018d8111156146be57600080fd5b6040850194505b8085101561474b576080858f0312156146dd57600080fd5b6146e5613d8c565b6146ef8635613c82565b853581526147006020870135613c82565b602086013560208201526147176040870135613d1b565b6040860135604082015261472e6060870135614468565b6060868101359082015283526080909401936020909201916146c5565b50604083015250845250602092830192016145e6565b50809450505050509250929050565b60008060006060848603121561478557600080fd5b833561479081613c82565b9250602084013567ffffffffffffffff808211156147ad57600080fd5b6147b987838801614080565b935060408601359150808211156147cf57600080fd5b50614296868287016140ef565b6000806000606084860312156147f157600080fd5b83356147fc81613c82565b9250602084013561480c81613c82565b91506040840135613cd781614468565b634e487b7160e01b600052603260045260246000fd5b600181811c9082168061484657607f821691505b6020821081141561181a57634e487b7160e01b600052602260045260246000fd5b60008251614879818460208701614382565b9190910192915050565b8051600381900b8114610f0257600080fd5b6000602082840312156148a757600080fd5b61095a82614883565b6001600160a01b038316815260406020820152600061105160408301846143b2565b821515815260406020820152600061105160408301846143b2565b600082601f8301126148fe57600080fd5b815161490c613e6e82613e27565b81815284602083860101111561492157600080fd5b611051826020830160208701614382565b6000806040838503121561494557600080fd5b61494e83614883565b9150602083015167ffffffffffffffff81111561496a57600080fd5b614234858286016148ed565b60006020828403121561498857600080fd5b815161095a81613d1b565b600080604083850312156149a657600080fd5b6149af83614883565b9150602083015190509250929050565b600081518084526020808501808196508360051b8101915082860160005b85811015614a765782840389528151604081518652868201519150808787015281511515818701528682015160606001600160a01b03808316828a015283850151935060a09250608083818b0152614a3860e08b01866143b2565b928601518a8403603f1901858c0152929450614a5485846143b2565b9501511660c098909801979097525050988501989350908401906001016149dd565b5091979650505050505050565b60006101608251818552614a99828601826143b2565b91505060208301518482036020860152614ab382826143b2565b9150506040830151614ad060408601826001600160a01b03169052565b5060608301518482036060860152614ae882826143b2565b9150506080830151614afe608086018215159052565b5060a0830151614b1360a086018260070b9052565b5060c0830151614b2760c086018215159052565b5060e083015184820360e0860152614b3f82826149bf565b91505061010080840151614b7b82870182805160070b82526001600160a01b036020820151166020830152604081015160070b60408301525050565b5090949350505050565b600081518084526020808501945080840160005b83811015613fb0578151805160070b8852838101516001600160a01b03908116858a01526040808301511515908a01526060808301511515908a0152608091820151169088015260a09096019590820190600101614b99565b60006060808352614c0581840187614a83565b602084820381860152614c188288614b85565b91506040858303818701528287518085528385019150838901945060005b81811015614c995785518051600790810b855286820151810b8786015285820151900b85850152878101516001600160a01b039081168986015260808083015115159086015260a09182015116908401529484019460c090920191600101614c36565b50909a9950505050505050505050565b60008060408385031215614cbc57600080fd5b614cc583614883565b91506020830151613d1081613c82565b6000606082016001600160a01b038616835260208560070b818501526060604085015281855180845260808601915060808160051b870101935082870160005b82811015614d4357607f19888703018452614d318683516143b2565b95509284019290840190600101614d15565b50939998505050505050505050565b600080600060608486031215614d6757600080fd5b614d7084614883565b9250602080850151614d8181613d1b565b604086015190935067ffffffffffffffff811115614d9e57600080fd5b8501601f81018713614daf57600080fd5b8051614dbd613e6e82613e03565b81815260059190911b82018301908381019089831115614ddc57600080fd5b928401925b82841015614e03578351614df481613d1b565b82529284019290840190614de1565b80955050505050509250925092565b8051610f0281613c82565b60008060408385031215614e3057600080fd5b614e3983614883565b9150602083015167ffffffffffffffff80821115614e5657600080fd5b9084019060a08287031215614e6a57600080fd5b614e72613daf565b8251614e7d81614468565b81526020830151614e8d81613c82565b6020820152604083015182811115614ea457600080fd5b614eb0888286016148ed565b604083015250606083015182811115614ec857600080fd5b614ed4888286016148ed565b606083015250614ee660808401614e12565b60808201528093505050509250929050565b600081518084526020808501945080840160005b83811015613fb05781516001600160a01b031687529582019590820190600101614f0c565b6001600160a01b0385168152608060208201526000614f536080830186614ef8565b8281036040840152614f658186614ef8565b90508281036060840152614f798185613f7d565b979650505050505050565b6001600160a01b03831681526040602082015260006110516040830184614ef8565b60008060408385031215614fb957600080fd5b614fc283614883565b91506020830151613d1081614468565b606081526000614fe56060830186614a83565b90508360070b60208301528260030b6040830152949350505050565b60006001600160a01b03808616835280851660208401525060606040830152613fdd6060830184613f7d565b6001600160a01b03841681528260070b6020820152606060408201526000613fdd6060830184613f7d565b6000806040838503121561506b57600080fd5b61507483614883565b91506020830151613d1081613d1b565b6001600160a01b038316815260406020820152600061105160408301846149bf565b6001600160a01b03831681526080810161095a6020830184805160070b82526001600160a01b036020820151166020830152604081015160070b60408301525050565b60008082840360808112156150fd57600080fd5b61510684614883565b92506060601f198201121561511a57600080fd5b50615123613d40565b602084015161513181613d1b565b8152604084015161514181613c82565b6020820152606084015161515481613d1b565b6040820152919491935090915050565b600060a080835261517781840189614a83565b6020600789810b8287015260408960030b8188015260608785038189015261519f858b614b85565b94506080888603818a0152858a518088528688019150868c01975060005b818110156152175788518051880b845288810151880b8985015286810151880b8785015285810151880b86850152848101511515858501528a01516001600160a01b03168a8401529787019760c0909201916001016151bd565b50909f9e505050505050505050505050505050565b600081518084526020808501945080840160005b83811015613fb057815180516001600160a01b031688528381015160070b8489015260409081015115159088015260609096019590820190600101615240565b60006040808352606085516020808487015261529e8387018361522c565b9150858203818701528187518084528284019150828160051b850101838a0160005b8381101561536c57601f1987840301855281516001600160a01b03808251168552878201518a898701526152f68b87018261522c565b928c0151868403878e01528051808552908a0193600092508a01905b808310156153565784518051851683528b81015185168c8401528e81015160070b8f8401528d015115158d830152938a019360019290920191608090910190615312565b50978901979550505091860191506001016152c0565b50909b9a5050505050505050505050565b6001600160a01b038416815260606020820152600061539f6060830185614ef8565b82810360408401526153b18185613f7d565b9695505050505050565b60208152600061095a6020830184614a83565b6001600160a01b03831681526040602082015260006110516040830184614a83565b634e487b7160e01b600052602160045260246000fdfea2646970667358221220f6b675accea3c8dfae320082a871a34a520f7c9858b08e06431303e06024b38f64736f6c63430008090033",
  "linkReferences": {},
  "deployedLinkReferences": {}
}