{
  "_format": "hh-sol-artifact-1",
  "contractName": "EstimatePrecompileContract",
  "sourceName": "contracts/EstimatePrecompileContract.sol",
  "abi": [
    {
      "anonymous": false,
      "inputs": [
        {
          "indexed": false,
          "internalType": "bool",
          "name": "",
          "type": "bool"
        },
        {
          "indexed": false,
          "internalType": "bytes",
          "name": "",
          "type": "bytes"
        }
      ],
      "name": "CallResponseEvent",
      "type": "event"
    },
    {
      "inputs": [
        {
          "internalType": "address",
          "name": "token",
          "type": "address"
        },
        {
          "internalType": "address",
          "name": "owner",
          "type": "address"
        },
        {
          "internalType": "address",
          "name": "spender",
          "type": "address"
        }
      ],
      "name": "allowanceExternal",
      "outputs": [
        {
          "internalType": "int256",
          "name": "responseCode",
          "type": "int256"
        }
      ],
      "stateMutability": "nonpayable",
      "type": "function"
    },
    {
      "inputs": [
        {
          "internalType": "address",
          "name": "token",
          "type": "address"
        },
        {
          "internalType": "address",
          "name": "spender",
          "type": "address"
        },
        {
          "internalType": "uint256",
          "name": "amount",
          "type": "uint256"
        }
      ],
      "name": "approveExternal",
      "outputs": [
        {
          "internalType": "int256",
          "name": "responseCode",
          "type": "int256"
        }
      ],
      "stateMutability": "nonpayable",
      "type": "function"
    },
    {
      "inputs": [
        {
          "internalType": "address",
          "name": "token",
          "type": "address"
        },
        {
          "internalType": "address",
          "name": "approved",
          "type": "address"
        },
        {
          "internalType": "uint256",
          "name": "serialNumber",
          "type": "uint256"
        }
      ],
      "name": "approveNFTExternal",
      "outputs": [
        {
          "internalType": "int256",
          "name": "responseCode",
          "type": "int256"
        }
      ],
      "stateMutability": "nonpayable",
      "type": "function"
    },
    {
      "inputs": [
        {
          "internalType": "address",
          "name": "account",
          "type": "address"
        },
        {
          "internalType": "address",
          "name": "token",
          "type": "address"
        }
      ],
      "name": "associateTokenExternal",
      "outputs": [
        {
          "internalType": "int256",
          "name": "responseCode",
          "type": "int256"
        }
      ],
      "stateMutability": "nonpayable",
      "type": "function"
    },
    {
      "inputs": [
        {
          "internalType": "address",
          "name": "account",
          "type": "address"
        },
        {
          "internalType": "address[]",
          "name": "tokens",
          "type": "address[]"
        }
      ],
      "name": "associateTokensExternal",
      "outputs": [
        {
          "internalType": "int256",
          "name": "responseCode",
          "type": "int256"
        }
      ],
      "stateMutability": "nonpayable",
      "type": "function"
    },
    {
      "inputs": [
        {
          "internalType": "address",
          "name": "token",
          "type": "address"
        },
        {
          "internalType": "int64",
          "name": "amount",
          "type": "int64"
        },
        {
          "internalType": "int64[]",
          "name": "serialNumbers",
          "type": "int64[]"
        }
      ],
      "name": "burnTokenExternal",
      "outputs": [
        {
          "internalType": "int256",
          "name": "responseCode",
          "type": "int256"
        },
        {
          "internalType": "int64",
          "name": "newTotalSupply",
          "type": "int64"
        }
      ],
      "stateMutability": "nonpayable",
      "type": "function"
    },
    {
      "inputs": [
        {
          "internalType": "address",
          "name": "treasury",
          "type": "address"
        }
      ],
      "name": "createFungibleTokenPublic",
      "outputs": [],
      "stateMutability": "payable",
      "type": "function"
    },
    {
      "inputs": [
        {
          "internalType": "address",
          "name": "treasury",
          "type": "address"
        },
        {
          "internalType": "address",
          "name": "fixedFeeTokenAddress",
          "type": "address"
        }
      ],
      "name": "createFungibleTokenWithCustomFeesPublic",
      "outputs": [],
      "stateMutability": "payable",
      "type": "function"
    },
    {
      "inputs": [
        {
          "internalType": "address",
          "name": "treasury",
          "type": "address"
        }
      ],
      "name": "createNonFungibleTokenPublic",
      "outputs": [],
      "stateMutability": "payable",
      "type": "function"
    },
    {
      "inputs": [
        {
          "internalType": "address",
          "name": "treasury",
          "type": "address"
        },
        {
          "internalType": "address",
          "name": "fixedFeeTokenAddress",
          "type": "address"
        }
      ],
      "name": "createNonFungibleTokenWithCustomFeesPublic",
      "outputs": [],
      "stateMutability": "payable",
      "type": "function"
    },
    {
      "inputs": [
        {
          "components": [
            {
              "components": [
                {
                  "internalType": "address",
                  "name": "accountID",
                  "type": "address"
                },
                {
                  "internalType": "int64",
                  "name": "amount",
                  "type": "int64"
                },
                {
                  "internalType": "bool",
                  "name": "isApproval",
                  "type": "bool"
                }
              ],
              "internalType": "struct IHederaTokenService.AccountAmount[]",
              "name": "transfers",
              "type": "tuple[]"
            }
          ],
          "internalType": "struct IHederaTokenService.TransferList",
          "name": "transferList",
          "type": "tuple"
        },
        {
          "components": [
            {
              "internalType": "address",
              "name": "token",
              "type": "address"
            },
            {
              "components": [
                {
                  "internalType": "address",
                  "name": "accountID",
                  "type": "address"
                },
                {
                  "internalType": "int64",
                  "name": "amount",
                  "type": "int64"
                },
                {
                  "internalType": "bool",
                  "name": "isApproval",
                  "type": "bool"
                }
              ],
              "internalType": "struct IHederaTokenService.AccountAmount[]",
              "name": "transfers",
              "type": "tuple[]"
            },
            {
              "components": [
                {
                  "internalType": "address",
                  "name": "senderAccountID",
                  "type": "address"
                },
                {
                  "internalType": "address",
                  "name": "receiverAccountID",
                  "type": "address"
                },
                {
                  "internalType": "int64",
                  "name": "serialNumber",
                  "type": "int64"
                },
                {
                  "internalType": "bool",
                  "name": "isApproval",
                  "type": "bool"
                }
              ],
              "internalType": "struct IHederaTokenService.NftTransfer[]",
              "name": "nftTransfers",
              "type": "tuple[]"
            }
          ],
          "internalType": "struct IHederaTokenService.TokenTransferList[]",
          "name": "tokenTransfers",
          "type": "tuple[]"
        }
      ],
      "name": "cryptoTransferExternal",
      "outputs": [
        {
          "internalType": "int256",
          "name": "responseCode",
          "type": "int256"
        }
      ],
      "stateMutability": "nonpayable",
      "type": "function"
    },
    {
      "inputs": [
        {
          "internalType": "address",
          "name": "token",
          "type": "address"
        }
      ],
      "name": "deleteTokenExternal",
      "outputs": [
        {
          "internalType": "int256",
          "name": "responseCode",
          "type": "int256"
        }
      ],
      "stateMutability": "nonpayable",
      "type": "function"
    },
    {
      "inputs": [
        {
          "internalType": "address",
          "name": "token",
          "type": "address"
        }
      ],
      "name": "deleteTokenTwiceExternal",
      "outputs": [
        {
          "internalType": "int256",
          "name": "responseCode",
          "type": "int256"
        }
      ],
      "stateMutability": "nonpayable",
      "type": "function"
    },
    {
      "inputs": [
        {
          "internalType": "address",
          "name": "account",
          "type": "address"
        },
        {
          "internalType": "address",
          "name": "token",
          "type": "address"
        }
      ],
      "name": "dissociateAndAssociateTokenExternal",
      "outputs": [
        {
          "internalType": "int256",
          "name": "responseCode",
          "type": "int256"
        }
      ],
      "stateMutability": "nonpayable",
      "type": "function"
    },
    {
      "inputs": [
        {
          "internalType": "address",
          "name": "account",
          "type": "address"
        },
        {
          "internalType": "address",
          "name": "token",
          "type": "address"
        }
      ],
      "name": "dissociateTokenExternal",
      "outputs": [
        {
          "internalType": "int256",
          "name": "responseCode",
          "type": "int256"
        }
      ],
      "stateMutability": "nonpayable",
      "type": "function"
    },
    {
      "inputs": [
        {
          "internalType": "address",
          "name": "account",
          "type": "address"
        },
        {
          "internalType": "address[]",
          "name": "tokens",
          "type": "address[]"
        }
      ],
      "name": "dissociateTokensExternal",
      "outputs": [
        {
          "internalType": "int256",
          "name": "responseCode",
          "type": "int256"
        }
      ],
      "stateMutability": "nonpayable",
      "type": "function"
    },
    {
      "inputs": [
        {
          "internalType": "address",
          "name": "token",
          "type": "address"
        },
        {
          "internalType": "address",
          "name": "account",
          "type": "address"
        }
      ],
      "name": "freezeTokenExternal",
      "outputs": [
        {
          "internalType": "int64",
          "name": "responseCode",
          "type": "int64"
        }
      ],
      "stateMutability": "nonpayable",
      "type": "function"
    },
    {
      "inputs": [
        {
          "internalType": "address",
          "name": "token",
          "type": "address"
        },
        {
          "internalType": "address",
          "name": "account",
          "type": "address"
        }
      ],
      "name": "freezeTokenTwiceExternal",
      "outputs": [
        {
          "internalType": "int64",
          "name": "responseCode",
          "type": "int64"
        }
      ],
      "stateMutability": "nonpayable",
      "type": "function"
    },
    {
      "inputs": [
        {
          "internalType": "address",
          "name": "token",
          "type": "address"
        },
        {
          "internalType": "uint256",
          "name": "serialNumber",
          "type": "uint256"
        }
      ],
      "name": "getApprovedExternal",
      "outputs": [
        {
          "internalType": "int256",
          "name": "responseCode",
          "type": "int256"
        }
      ],
      "stateMutability": "nonpayable",
      "type": "function"
    },
    {
      "inputs": [
        {
          "internalType": "address",
          "name": "token",
          "type": "address"
        }
      ],
      "name": "getTokenExpiryInfoExternal",
      "outputs": [
        {
          "internalType": "int256",
          "name": "responseCode",
          "type": "int256"
        }
      ],
      "stateMutability": "nonpayable",
      "type": "function"
    },
    {
      "inputs": [
        {
          "internalType": "address",
          "name": "token",
          "type": "address"
        },
        {
          "internalType": "uint256",
          "name": "keyType",
          "type": "uint256"
        }
      ],
      "name": "getTokenKeyExternal",
      "outputs": [
        {
          "internalType": "int256",
          "name": "responseCode",
          "type": "int256"
        }
      ],
      "stateMutability": "nonpayable",
      "type": "function"
    },
    {
      "inputs": [
        {
          "internalType": "address",
          "name": "token",
          "type": "address"
        },
        {
          "internalType": "address",
          "name": "account",
          "type": "address"
        }
      ],
      "name": "grantTokenKycExternal",
      "outputs": [
        {
          "internalType": "int64",
          "name": "responseCode",
          "type": "int64"
        }
      ],
      "stateMutability": "nonpayable",
      "type": "function"
    },
    {
      "inputs": [
        {
          "internalType": "address",
          "name": "token",
          "type": "address"
        },
        {
          "internalType": "address",
          "name": "owner",
          "type": "address"
        },
        {
          "internalType": "address",
          "name": "operator",
          "type": "address"
        }
      ],
      "name": "isApprovedForAllExternal",
      "outputs": [
        {
          "internalType": "int256",
          "name": "responseCode",
          "type": "int256"
        }
      ],
      "stateMutability": "nonpayable",
      "type": "function"
    },
    {
      "inputs": [
        {
          "internalType": "address",
          "name": "token",
          "type": "address"
        }
      ],
      "name": "isTokenExternal",
      "outputs": [
        {
          "internalType": "int256",
          "name": "responseCode",
          "type": "int256"
        }
      ],
      "stateMutability": "nonpayable",
      "type": "function"
    },
    {
      "inputs": [
        {
          "internalType": "address",
          "name": "token",
          "type": "address"
        },
        {
          "internalType": "int64",
          "name": "amount",
          "type": "int64"
        },
        {
          "internalType": "bytes[]",
          "name": "metadata",
          "type": "bytes[]"
        }
      ],
      "name": "mintTokenExternal",
      "outputs": [
        {
          "internalType": "int256",
          "name": "responseCode",
          "type": "int256"
        },
        {
          "internalType": "int64",
          "name": "newTotalSupply",
          "type": "int64"
        },
        {
          "internalType": "int64[]",
          "name": "serialNumbers",
          "type": "int64[]"
        }
      ],
      "stateMutability": "nonpayable",
      "type": "function"
    },
    {
      "inputs": [
        {
          "internalType": "address",
          "name": "account",
          "type": "address"
        },
        {
          "internalType": "address",
          "name": "token",
          "type": "address"
        }
      ],
      "name": "nestedAssociateTokenExternal",
      "outputs": [
        {
          "internalType": "int256",
          "name": "responseCode",
          "type": "int256"
        }
      ],
      "stateMutability": "nonpayable",
      "type": "function"
    },
    {
      "inputs": [
        {
          "internalType": "address",
          "name": "token",
          "type": "address"
        },
        {
          "internalType": "address",
          "name": "account",
          "type": "address"
        }
      ],
      "name": "nestedFreezeUnfreezeTokenExternal",
      "outputs": [
        {
          "internalType": "int64",
          "name": "responseCode",
          "type": "int64"
        }
      ],
      "stateMutability": "nonpayable",
      "type": "function"
    },
    {
      "inputs": [
        {
          "internalType": "address",
          "name": "token",
          "type": "address"
        },
        {
          "internalType": "address",
          "name": "account",
          "type": "address"
        }
      ],
      "name": "nestedGrantAndRevokeTokenKYCExternal",
      "outputs": [
        {
          "internalType": "int64",
          "name": "responseCode",
          "type": "int64"
        }
      ],
      "stateMutability": "nonpayable",
      "type": "function"
    },
    {
      "inputs": [
        {
          "internalType": "address",
          "name": "token",
          "type": "address"
        }
      ],
      "name": "nestedPauseUnpauseTokenExternal",
      "outputs": [
        {
          "internalType": "int256",
          "name": "responseCode",
          "type": "int256"
        }
      ],
      "stateMutability": "nonpayable",
      "type": "function"
    },
    {
      "inputs": [
        {
          "internalType": "address",
          "name": "token",
          "type": "address"
        }
      ],
      "name": "pauseTokenExternal",
      "outputs": [
        {
          "internalType": "int256",
          "name": "responseCode",
          "type": "int256"
        }
      ],
      "stateMutability": "nonpayable",
      "type": "function"
    },
    {
      "inputs": [
        {
          "internalType": "address",
          "name": "token",
          "type": "address"
        },
        {
          "internalType": "bytes",
          "name": "encodedFunctionSelector",
          "type": "bytes"
        }
      ],
      "name": "redirectForToken",
      "outputs": [],
      "stateMutability": "nonpayable",
      "type": "function"
    },
    {
      "inputs": [
        {
          "internalType": "address",
          "name": "token",
          "type": "address"
        },
        {
          "internalType": "address",
          "name": "account",
          "type": "address"
        }
      ],
      "name": "revokeTokenKycExternal",
      "outputs": [
        {
          "internalType": "int64",
          "name": "responseCode",
          "type": "int64"
        }
      ],
      "stateMutability": "nonpayable",
      "type": "function"
    },
    {
      "inputs": [
        {
          "internalType": "address",
          "name": "token",
          "type": "address"
        },
        {
          "internalType": "address",
          "name": "account",
          "type": "address"
        },
        {
          "internalType": "bool",
          "name": "approved",
          "type": "bool"
        }
      ],
      "name": "setApprovalForAllExternal",
      "outputs": [
        {
          "internalType": "int256",
          "name": "responseCode",
          "type": "int256"
        }
      ],
      "stateMutability": "nonpayable",
      "type": "function"
    },
    {
      "inputs": [
        {
          "internalType": "address",
          "name": "token",
          "type": "address"
        },
        {
          "internalType": "address",
          "name": "from",
          "type": "address"
        },
        {
          "internalType": "address",
          "name": "to",
          "type": "address"
        },
        {
          "internalType": "uint256",
          "name": "amount",
          "type": "uint256"
        }
      ],
      "name": "transferFrom",
      "outputs": [
        {
          "internalType": "int64",
          "name": "responseCode",
          "type": "int64"
        }
      ],
      "stateMutability": "nonpayable",
      "type": "function"
    },
    {
      "inputs": [
        {
          "internalType": "address",
          "name": "token",
          "type": "address"
        },
        {
          "internalType": "address",
          "name": "from",
          "type": "address"
        },
        {
          "internalType": "address",
          "name": "to",
          "type": "address"
        },
        {
          "internalType": "uint256",
          "name": "amount",
          "type": "uint256"
        }
      ],
      "name": "transferFromExternal",
      "outputs": [
        {
          "internalType": "int256",
          "name": "responseCode",
          "type": "int256"
        }
      ],
      "stateMutability": "nonpayable",
      "type": "function"
    },
    {
      "inputs": [
        {
          "internalType": "address",
          "name": "token",
          "type": "address"
        },
        {
          "internalType": "address",
          "name": "from",
          "type": "address"
        },
        {
          "internalType": "address",
          "name": "to",
          "type": "address"
        },
        {
          "internalType": "uint256",
          "name": "serialNumber",
          "type": "uint256"
        }
      ],
      "name": "transferFromNFT",
      "outputs": [
        {
          "internalType": "int64",
          "name": "responseCode",
          "type": "int64"
        }
      ],
      "stateMutability": "nonpayable",
      "type": "function"
    },
    {
      "inputs": [
        {
          "internalType": "address",
          "name": "token",
          "type": "address"
        },
        {
          "internalType": "address",
          "name": "from",
          "type": "address"
        },
        {
          "internalType": "address",
          "name": "to",
          "type": "address"
        },
        {
          "internalType": "uint256",
          "name": "serialNumber",
          "type": "uint256"
        }
      ],
      "name": "transferFromNFTExternal",
      "outputs": [
        {
          "internalType": "int256",
          "name": "responseCode",
          "type": "int256"
        }
      ],
      "stateMutability": "nonpayable",
      "type": "function"
    },
    {
      "inputs": [
        {
          "internalType": "address",
          "name": "token",
          "type": "address"
        },
        {
          "internalType": "address",
          "name": "sender",
          "type": "address"
        },
        {
          "internalType": "address",
          "name": "receiver",
          "type": "address"
        },
        {
          "internalType": "int64",
          "name": "serialNumber",
          "type": "int64"
        }
      ],
      "name": "transferNFTExternal",
      "outputs": [
        {
          "internalType": "int256",
          "name": "responseCode",
          "type": "int256"
        }
      ],
      "stateMutability": "nonpayable",
      "type": "function"
    },
    {
      "inputs": [
        {
          "internalType": "address",
          "name": "token",
          "type": "address"
        },
        {
          "internalType": "address[]",
          "name": "sender",
          "type": "address[]"
        },
        {
          "internalType": "address[]",
          "name": "receiver",
          "type": "address[]"
        },
        {
          "internalType": "int64[]",
          "name": "serialNumber",
          "type": "int64[]"
        }
      ],
      "name": "transferNFTsExternal",
      "outputs": [
        {
          "internalType": "int256",
          "name": "responseCode",
          "type": "int256"
        }
      ],
      "stateMutability": "nonpayable",
      "type": "function"
    },
    {
      "inputs": [
        {
          "internalType": "address",
          "name": "token",
          "type": "address"
        },
        {
          "internalType": "address",
          "name": "sender",
          "type": "address"
        },
        {
          "internalType": "address",
          "name": "receiver",
          "type": "address"
        },
        {
          "internalType": "int64",
          "name": "amount",
          "type": "int64"
        }
      ],
      "name": "transferTokenExternal",
      "outputs": [
        {
          "internalType": "int256",
          "name": "responseCode",
          "type": "int256"
        }
      ],
      "stateMutability": "nonpayable",
      "type": "function"
    },
    {
      "inputs": [
        {
          "internalType": "address",
          "name": "token",
          "type": "address"
        },
        {
          "internalType": "address[]",
          "name": "accountIds",
          "type": "address[]"
        },
        {
          "internalType": "int64[]",
          "name": "amounts",
          "type": "int64[]"
        }
      ],
      "name": "transferTokensExternal",
      "outputs": [
        {
          "internalType": "int256",
          "name": "responseCode",
          "type": "int256"
        }
      ],
      "stateMutability": "nonpayable",
      "type": "function"
    },
    {
      "inputs": [
        {
          "internalType": "address",
          "name": "token",
          "type": "address"
        },
        {
          "internalType": "address",
          "name": "account",
          "type": "address"
        }
      ],
      "name": "unfreezeTokenExternal",
      "outputs": [
        {
          "internalType": "int64",
          "name": "responseCode",
          "type": "int64"
        }
      ],
      "stateMutability": "nonpayable",
      "type": "function"
    },
    {
      "inputs": [
        {
          "internalType": "address",
          "name": "token",
          "type": "address"
        }
      ],
      "name": "unpauseTokenExternal",
      "outputs": [
        {
          "internalType": "int256",
          "name": "responseCode",
          "type": "int256"
        }
      ],
      "stateMutability": "nonpayable",
      "type": "function"
    },
    {
      "inputs": [
        {
          "internalType": "address",
          "name": "token",
          "type": "address"
        },
        {
          "internalType": "address",
          "name": "treasury",
          "type": "address"
        }
      ],
      "name": "updateTokenExpiryInfoExternal",
      "outputs": [
        {
          "internalType": "int256",
          "name": "responseCode",
          "type": "int256"
        }
      ],
      "stateMutability": "nonpayable",
      "type": "function"
    },
    {
      "inputs": [
        {
          "internalType": "address",
          "name": "token",
          "type": "address"
        },
        {
          "internalType": "address",
          "name": "treasury",
          "type": "address"
        }
      ],
      "name": "updateTokenInfoExternal",
      "outputs": [
        {
          "internalType": "int256",
          "name": "responseCode",
          "type": "int256"
        }
      ],
      "stateMutability": "nonpayable",
      "type": "function"
    },
    {
      "inputs": [
        {
          "internalType": "address",
          "name": "token",
          "type": "address"
        }
      ],
      "name": "updateTokenKeysExternal",
      "outputs": [
        {
          "internalType": "int256",
          "name": "responseCode",
          "type": "int256"
        }
      ],
      "stateMutability": "nonpayable",
      "type": "function"
    },
    {
      "inputs": [
        {
          "internalType": "address",
          "name": "token",
          "type": "address"
        },
        {
          "internalType": "address",
          "name": "account",
          "type": "address"
        },
        {
          "internalType": "int64",
          "name": "amount",
          "type": "int64"
        }
      ],
      "name": "wipeTokenAccountExternal",
      "outputs": [
        {
          "internalType": "int256",
          "name": "responseCode",
          "type": "int256"
        }
      ],
      "stateMutability": "nonpayable",
      "type": "function"
    },
    {
      "inputs": [
        {
          "internalType": "address",
          "name": "token",
          "type": "address"
        },
        {
          "internalType": "address",
          "name": "account",
          "type": "address"
        },
        {
          "internalType": "int64[]",
          "name": "serialNumbers",
          "type": "int64[]"
        }
      ],
      "name": "wipeTokenAccountNFTExternal",
      "outputs": [
        {
          "internalType": "int256",
          "name": "responseCode",
          "type": "int256"
        }
      ],
      "stateMutability": "nonpayable",
      "type": "function"
    }
  ],
  "bytecode": "0x60c06040526009608081905268746f6b656e4e616d6560b81b60a09081526200002c9160029190620001cc565b5060408051808201909152600b8082526a1d1bdad95b94de5b589bdb60aa1b60209092019182526200006191600391620001cc565b50604080518082019091526004808252636d656d6f60e01b60209092019182526200008d9181620001cc565b50600580546001600160a81b031916700800000000000003e800000000000003e8179055348015620000be57600080fd5b50600160208181527fa6eef7e35abe7026729641147f7915573c7e97b47efa546f5f6e3230263bcb499190915560027fcc69885fda6bcc1a4ace058b4a62bf5e179ea78fd58a1ccd71c22cc9b688792f5560047fd9d16d34ffb15ba3a3d852f0d403e2ce1d691fb54de27ac87cd2f993f3ec330f5560087f7dfe757ecd65cbd7922a9c0161e935dd7fdbcc0e999689c7d31633896b1fc60b5560107fedc95719e9a3b28dd8e80877cb5880a9be7de1a13fc8b05e7999683b6b567643557fe2689cd4a84e23ad2f564004f1c9013e9589d260bde6380aba3ca7e09e4df40c55600660005260407f8f331abe73332f95a25873e8b430885974c0409691f89d643119a11623a7924a55620002af565b828054620001da9062000272565b90600052602060002090601f016020900481019282620001fe576000855562000249565b82601f106200021957805160ff191683800117855562000249565b8280016001018555821562000249579182015b82811115620002495782518255916020019190600101906200022c565b50620002579291506200025b565b5090565b5b808211156200025757600081556001016200025c565b600181811c908216806200028757607f821691505b60208210811415620002a957634e487b7160e01b600052602260045260246000fd5b50919050565b61577680620002bf6000396000f3fe6080604052600436106103135760003560e01c806375a854721161019a578063b97beda9116100e1578063e31b839c1161008a578063ed129c3f11610064578063ed129c3f146108d3578063f1938266146108f3578063fb2b6cef1461091357600080fd5b8063e31b839c14610873578063e95a71e514610893578063ec4ca639146108b357600080fd5b8063d85f74c1116100bb578063d85f74c114610820578063d91cfc9514610833578063e03fc5141461085357600080fd5b8063b97beda9146107c0578063bafa6a91146107e0578063ceda64c41461080057600080fd5b80639333700b116101435780639c2192471161011d5780639c21924714610760578063a621881014610780578063aa835c63146107a057600080fd5b80639333700b146107005780639b23d3d9146107205780639bc4d3541461074057600080fd5b806384d232f51161017457806384d232f5146106ad5780638ba74da0146106cd578063901fe3d0146106e057600080fd5b806375a854721461064d5780637adc26b81461066d5780637cea29a31461068d57600080fd5b806330a8f2931161025e57806352205b3311610207578063632da116116101e1578063632da116146105d55780636f3e86781461060d578063714c42c01461062d57600080fd5b806352205b33146105755780635ac4fef814610595578063618dc65e146105b557600080fd5b80634b5c6687116102385780634b5c6687146105225780634c09c804146105355780634fd6ce0a1461055557600080fd5b806330a8f293146104c257806331508107146104e2578063437dffd51461050257600080fd5b806315dacbea116102c05780631ba978fc1161029a5780631ba978fc146104625780632390c1fa146104825780632fc358f7146104a257600080fd5b806315dacbea14610402578063165aae661461042257806317f96caa1461044257600080fd5b80630c0295d4116102f15780630c0295d4146103935780630c0a198c146103c2578063144b06ff146103e257600080fd5b80630435d840146103185780630488c9391461034b57806306a1a5d314610360575b600080fd5b34801561032457600080fd5b5061033861033336600461402e565b610933565b6040519081526020015b60405180910390f35b61035e610359366004614079565b610957565b005b34801561036c57600080fd5b5061038061037b366004614079565b610e93565b60405160079190910b8152602001610342565b34801561039f57600080fd5b506103b36103ae36600461423c565b610ec3565b60405161034293929190614352565b3480156103ce57600080fd5b506103386103dd36600461437d565b610ef0565b3480156103ee57600080fd5b506103386103fd36600461439a565b610f0f565b34801561040e57600080fd5b5061038061041d3660046143c6565b610f2e565b34801561042e57600080fd5b5061033861043d36600461437d565b611022565b34801561044e57600080fd5b5061038061045d366004614079565b61102d565b34801561046e57600080fd5b5061033861047d3660046144ea565b611044565b34801561048e57600080fd5b5061033861049d366004614585565b6110b1565b3480156104ae57600080fd5b506103386104bd366004614585565b61110f565b3480156104ce57600080fd5b506103386104dd36600461437d565b61116d565b3480156104ee57600080fd5b506103386104fd36600461402e565b611178565b34801561050e57600080fd5b5061033861051d366004614079565b611185565b61035e61053036600461437d565b6111ee565b34801561054157600080fd5b506103386105503660046145d5565b6115cc565b34801561056157600080fd5b50610338610570366004614637565b6115e8565b34801561058157600080fd5b50610380610590366004614079565b611648565b3480156105a157600080fd5b506103386105b0366004614693565b611654565b3480156105c157600080fd5b5061035e6105d03660046146d3565b611661565b3480156105e157600080fd5b506105f56105f0366004614719565b61174f565b6040805192835260079190910b602083015201610342565b34801561061957600080fd5b5061033861062836600461437d565b611777565b34801561063957600080fd5b5061033861064836600461437d565b611795565b34801561065957600080fd5b506103386106683660046143c6565b611913565b34801561067957600080fd5b50610338610688366004614079565b6119fb565b34801561069957600080fd5b506103386106a836600461437d565b611a44565b3480156106b957600080fd5b506103386106c8366004614749565b611a5f565b61035e6106db366004614079565b611abe565b3480156106ec57600080fd5b506103806106fb366004614079565b611ef2565b34801561070c57600080fd5b5061038061071b366004614079565b611f09565b34801561072c57600080fd5b5061038061073b3660046143c6565b611f15565b34801561074c57600080fd5b5061033861075b3660046143c6565b611f5a565b34801561076c57600080fd5b5061033861077b366004614079565b612042565b34801561078c57600080fd5b5061033861079b366004614847565b61204e565b3480156107ac57600080fd5b506103386107bb366004614a92565b6120ac565b3480156107cc57600080fd5b506103386107db36600461439a565b61210b565b3480156107ec57600080fd5b506103386107fb366004614637565b612127565b34801561080c57600080fd5b5061033861081b366004614749565b612135565b61035e61082e36600461437d565b612194565b34801561083f57600080fd5b5061033861084e366004614079565b612534565b34801561085f57600080fd5b5061033861086e36600461437d565b612540565b34801561087f57600080fd5b5061033861088e366004614afe565b612555565b34801561089f57600080fd5b506103806108ae366004614079565b612562565b3480156108bf57600080fd5b506103806108ce366004614079565b61256e565b3480156108df57600080fd5b506103386108ee36600461437d565b61257a565b3480156108ff57600080fd5b5061033861090e366004614079565b61258f565b34801561091f57600080fd5b5061033861092e366004614079565b6125f8565b60006109408484846129b1565b5090506016811461095057600080fd5b9392505050565b60408051600580825260c08201909252600091816020015b610977613fb9565b81526020019060019003908161096f5790505090506109aa60006006600060405180602001604052806000815250612ab0565b816000815181106109bd576109bd614b3e565b60200260200101819052506109e46001600060405180602001604052806000815250612ae7565b816001815181106109f7576109f7614b3e565b6020026020010181905250610a1e6002600060405180602001604052806000815250612ae7565b81600281518110610a3157610a31614b3e565b6020026020010181905250610a586004600060405180602001604052806000815250612ae7565b81600381518110610a6b57610a6b614b3e565b6020026020010181905250610a926003600060405180602001604052806000815250612ae7565b81600481518110610aa557610aa5614b3e565b602002602001018190525060006040518060600160405280600060070b8152602001856001600160a01b03168152602001627a120060070b8152509050600060405180610120016040528060028054610afd90614b54565b80601f0160208091040260200160405190810160405280929190818152602001828054610b2990614b54565b8015610b765780601f10610b4b57610100808354040283529160200191610b76565b820191906000526020600020905b815481529060010190602001808311610b5957829003601f168201915b5050505050815260200160038054610b8d90614b54565b80601f0160208091040260200160405190810160405280929190818152602001828054610bb990614b54565b8015610c065780601f10610bdb57610100808354040283529160200191610c06565b820191906000526020600020905b815481529060010190602001808311610be957829003601f168201915b50505050508152602001866001600160a01b0316815260200160048054610c2c90614b54565b80601f0160208091040260200160405190810160405280929190818152602001828054610c5890614b54565b8015610ca55780601f10610c7a57610100808354040283529160200191610ca5565b820191906000526020600020905b815481529060010190602001808311610c8857829003601f168201915b505050918352505060016020820181905260055468010000000000000000810460070b6040840152600160a01b900460ff16151560608301526080820186905260a0909101849052909150600090604051908082528060200260200182016040528015610d4c57816020015b6040805160a081018252600080825260208083018290529282018190526060820181905260808201528252600019909201910181610d115790505b506040805160a081018252600181526001600160a01b03808916602083015260009282018390526060820183905289166080820152825192935091839190610d9657610d96614b3e565b6020908102919091010152604080516001808252818301909252600091816020015b6040805160c08101825260008082526020808301829052928201819052606082018190526080820181905260a08201528252600019909201910181610db85790505090506040518060c00160405280600460070b8152602001600560070b8152602001600a60070b8152602001876001600160a01b03168152602001600015158152602001886001600160a01b031681525081600081518110610e5d57610e5d614b3e565b6020026020010181905250600080610e76858585612b1c565b909250905060168214610e8857600080fd5b505050505050505050565b6000610e9f8383612c44565b50610eaa8383612d40565b9050600781900b601614610ebd57600080fd5b92915050565b6000806060610ed3868686612d8f565b9194509250905060168314610ee757600080fd5b93509350939050565b6000610efb82612e8d565b905060168114610f0a57600080fd5b919050565b6000610f1b8383612f80565b5060070b905060168114610ebd57600080fd5b6040516001600160a01b038581166024830152848116604483015283166064820152608481018290526000908190819061016790630aed65f560e11b9060a4015b60408051601f198184030181529181526020820180516001600160e01b03166001600160e01b0319909416939093179092529051610fad9190614bb9565b6000604051808303816000865af19150503d8060008114610fea576040519150601f19603f3d011682016040523d82523d6000602084013e610fef565b606091505b509150915081611000576015611014565b808060200190518101906110149190614be7565b60030b979650505050505050565b6000610efb826130ca565b60006110398383613111565b50610eaa8383613111565b600061105285858585613160565b9050601681146110a95760405162461bcd60e51b815260206004820152601360248201527f4e4654207472616e73666572206661696c65640000000000000000000000000060448201526064015b60405180910390fd5b949350505050565b60006110bd8383613190565b905060168114610ebd5760405162461bcd60e51b815260206004820152601a60248201527f546f6b656e20646973736f63696174696f6e206661696c65642100000000000060448201526064016110a0565b600061111b83836131bc565b905060168114610ebd5760405162461bcd60e51b815260206004820152601760248201527f546f6b656e206173736f6369617465206661696c65642100000000000000000060448201526064016110a0565b6000610efb826131e8565b600061094084848461322f565b6000611191838361331b565b5061119c838361331b565b905060168114610ebd5760405162461bcd60e51b815260206004820152601960248201527f546f6b656e206173736f63696174696f6e206661696c6564210000000000000060448201526064016110a0565b60408051600580825260c08201909252600091816020015b61120e613fb9565b81526020019060019003908161120657905050905061124160006006600060405180602001604052806000815250612ab0565b8160008151811061125457611254614b3e565b602002602001018190525061127b6001600060405180602001604052806000815250612ae7565b8160018151811061128e5761128e614b3e565b60200260200101819052506112b56002600060405180602001604052806000815250612ae7565b816002815181106112c8576112c8614b3e565b60200260200101819052506112ef6003600060405180602001604052806000815250612ae7565b8160038151811061130257611302614b3e565b60200260200101819052506113296004600060405180602001604052806000815250612ae7565b8160048151811061133c5761133c614b3e565b602002602001018190525060006040518060600160405280600060070b8152602001846001600160a01b03168152602001627a120060070b815250905060006040518061012001604052806002805461139490614b54565b80601f01602080910402602001604051908101604052809291908181526020018280546113c090614b54565b801561140d5780601f106113e25761010080835404028352916020019161140d565b820191906000526020600020905b8154815290600101906020018083116113f057829003601f168201915b505050505081526020016003805461142490614b54565b80601f016020809104026020016040519081016040528092919081815260200182805461145090614b54565b801561149d5780601f106114725761010080835404028352916020019161149d565b820191906000526020600020905b81548152906001019060200180831161148057829003601f168201915b50505050508152602001856001600160a01b03168152602001600480546114c390614b54565b80601f01602080910402602001604051908101604052809291908181526020018280546114ef90614b54565b801561153c5780601f106115115761010080835404028352916020019161153c565b820191906000526020600020905b81548152906001019060200180831161151f57829003601f168201915b505050918352505060016020820152600554680100000000000000008104600790810b604084015260ff600160a01b830416151560608401526080830187905260a090920185905291925060009182916115b291859181900b90700100000000000000000000000000000000900460030b61336a565b9092509050601682146115c457600080fd5b505050505050565b60006115d98484846133d7565b90506016811461095057600080fd5b60006115f6858585856134b7565b9050601681146110a95760405162461bcd60e51b815260206004820152601560248201527f546f6b656e207472616e73666572206661696c6564000000000000000000000060448201526064016110a0565b6000610eaa8383612d40565b60006115d9848484613518565b6000806101676001600160a01b031663618dc65e60e01b858560405160240161168b929190614c2e565b60408051601f198184030181529181526020820180516001600160e01b03166001600160e01b03199094169390931790925290516116c99190614bb9565b6000604051808303816000865af19150503d8060008114611706576040519150601f19603f3d011682016040523d82523d6000602084013e61170b565b606091505b50915091507f4af4780e06fe8cb9df64b0794fa6f01399af979175bb988e35e0e57e594567bc8282604051611741929190614c50565b60405180910390a150505050565b60008061175d858585613571565b90925090506016821461176f57600080fd5b935093915050565b600061178282613647565b5060070b905060168114610f0a57600080fd5b60408051600580825260c08201909252600091829190816020015b6117b8613fb9565b8152602001906001900390816117b05790505090506117eb60006006600060405180602001604052806000815250612ab0565b816000815181106117fe576117fe614b3e565b60200260200101819052506118256001600060405180602001604052806000815250612ae7565b8160018151811061183857611838614b3e565b602002602001018190525061185f6002600060405180602001604052806000815250612ae7565b8160028151811061187257611872614b3e565b60200260200101819052506118996004600060405180602001604052806000815250612ae7565b816003815181106118ac576118ac614b3e565b60200260200101819052506118d36003600060405180602001604052806000815250612ae7565b816004815181106118e6576118e6614b3e565b60200260200101819052506118fb8382613734565b60070b91506016821461190d57600080fd5b50919050565b604051630aed65f560e11b81526001600160a01b0380861660048301528085166024830152831660448201526064810182905260009030906315dacbea90608401602060405180830381600087803b15801561196e57600080fd5b505af1158015611982573d6000803e3d6000fd5b505050506040513d601f19601f820116820180604052508101906119a69190614c6b565b60070b9050601681146110a95760405162461bcd60e51b815260206004820152600f60248201527f5472616e73666572206661696c6564000000000000000000000000000000000060448201526064016110a0565b6040805160608101825260008082526001600160a01b03841660208301526265b9aa92820192909252611a2e8482613760565b915060168214611a3d57600080fd5b5092915050565b6000611a4f8261378c565b50905060168114610f0a57600080fd5b6000611a6c8484846138af565b9050601681146109505760405162461bcd60e51b815260206004820152601460248201527f4e465420617070726f76616c206661696c65642100000000000000000000000060448201526064016110a0565b604080516001808252818301909252600091816020015b611add613fb9565b815260200190600190039081611ad5579050509050611b0f600080600060405180602001604052806000815250612ab0565b81600081518110611b2257611b22614b3e565b602002602001018190525060006040518060600160405280600060070b8152602001856001600160a01b03168152602001627a120060070b8152509050600060405180610120016040528060028054611b7a90614b54565b80601f0160208091040260200160405190810160405280929190818152602001828054611ba690614b54565b8015611bf35780601f10611bc857610100808354040283529160200191611bf3565b820191906000526020600020905b815481529060010190602001808311611bd657829003601f168201915b5050505050815260200160038054611c0a90614b54565b80601f0160208091040260200160405190810160405280929190818152602001828054611c3690614b54565b8015611c835780601f10611c5857610100808354040283529160200191611c83565b820191906000526020600020905b815481529060010190602001808311611c6657829003601f168201915b50505050508152602001866001600160a01b0316815260200160048054611ca990614b54565b80601f0160208091040260200160405190810160405280929190818152602001828054611cd590614b54565b8015611d225780601f10611cf757610100808354040283529160200191611d22565b820191906000526020600020905b815481529060010190602001808311611d0557829003601f168201915b505050918352505060016020820181905260055468010000000000000000900460070b6040808401919091526000606084018190526080840188905260a09093018690528051828152808201909152929350909190816020015b6040805160a081018252600080825260208083018290529282018190526060820181905260808201528252600019909201910181611d7c5750506040805160a081018252600181526001600160a01b03888116602083015260009282018390526060820183905289166080820152825192935091839190611dff57611dff614b3e565b6020908102919091010152604080516001808252818301909252600091816020015b6040805160c08101825260008082526020808301829052928201819052606082018190526080820181905260a08201528252600019909201910181611e215750506040805160c0810182526004815260056020820152600a91810191909152601e60608201526000608082018190526001600160a01b038a1660a083015282519293509091839190611eb557611eb5614b3e565b60209081029190910101526005546000908190610e76908690600781900b90700100000000000000000000000000000000900460030b8787613905565b6000611efe8383613111565b50610eaa8383613a33565b6000610eaa8383613111565b6040516001600160a01b038581166024830152848116604483015283166064820152608481018290526000908190819061016790639b23d3d960e01b9060a401610f6f565b604051639b23d3d960e01b81526001600160a01b038086166004830152808516602483015283166044820152606481018290526000903090639b23d3d990608401602060405180830381600087803b158015611fb557600080fd5b505af1158015611fc9573d6000803e3d6000fd5b505050506040513d601f19601f82011682018060405250810190611fed9190614c6b565b60070b9050601681146110a95760405162461bcd60e51b815260206004820152601360248201527f4e4654207472616e73666572206661696c65640000000000000000000000000060448201526064016110a0565b60006110bd8383613a82565b600061205a8383613ad1565b905060168114610ebd5760405162461bcd60e51b815260206004820152601660248201527f43727970746f207472616e73666572206661696c65640000000000000000000060448201526064016110a0565b60006120b9848484613afd565b9050601681146109505760405162461bcd60e51b815260206004820152601560248201527f546f6b656e207472616e73666572206661696c6564000000000000000000000060448201526064016110a0565b60006121178383613b2b565b50905060168114610ebd57600080fd5b600061105285858585613c0b565b6000612142848484613c6c565b9050601681146109505760405162461bcd60e51b815260206004820152601060248201527f417070726f76616c206661696c6564210000000000000000000000000000000060448201526064016110a0565b60408051600580825260c08201909252600091816020015b6121b4613fb9565b8152602001906001900390816121ac5790505090506121e760006006600060405180602001604052806000815250612ab0565b816000815181106121fa576121fa614b3e565b60200260200101819052506122216001600060405180602001604052806000815250612ae7565b8160018151811061223457612234614b3e565b602002602001018190525061225b6002600060405180602001604052806000815250612ae7565b8160028151811061226e5761226e614b3e565b60200260200101819052506122956004600060405180602001604052806000815250612ae7565b816003815181106122a8576122a8614b3e565b60200260200101819052506122cf6003600060405180602001604052806000815250612ae7565b816004815181106122e2576122e2614b3e565b602002602001018190525060006040518060600160405280600060070b8152602001846001600160a01b03168152602001627a120060070b815250905060006040518061012001604052806002805461233a90614b54565b80601f016020809104026020016040519081016040528092919081815260200182805461236690614b54565b80156123b35780601f10612388576101008083540402835291602001916123b3565b820191906000526020600020905b81548152906001019060200180831161239657829003601f168201915b50505050508152602001600380546123ca90614b54565b80601f01602080910402602001604051908101604052809291908181526020018280546123f690614b54565b80156124435780601f1061241857610100808354040283529160200191612443565b820191906000526020600020905b81548152906001019060200180831161242657829003601f168201915b50505050508152602001856001600160a01b031681526020016004805461246990614b54565b80601f016020809104026020016040519081016040528092919081815260200182805461249590614b54565b80156124e25780601f106124b7576101008083540402835291602001916124e2565b820191906000526020600020905b8154815290600101906020018083116124c557829003601f168201915b50505091835250506001602082015260055468010000000000000000810460070b6040830152600160a01b900460ff16151560608201526080810185905260a00183905290506000806115b283613cc2565b600061119c838361331b565b600061254b82612e8d565b50610efb82612e8d565b60006115d9848484613da6565b6000610eaa8383613a33565b6000610eaa8383612c44565b6000612585826131e8565b50610efb826130ca565b600061259b8383613a82565b506125a6838361331b565b905060168114610ebd5760405162461bcd60e51b815260206004820181905260248201527f4e657374656420746f6b656e206173736f63696174696f6e206661696c65642160448201526064016110a0565b60408051600580825260c08201909252600091829190816020015b61261b613fb9565b81526020019060019003908161261357905050905061264e60006006600060405180602001604052806000815250612ab0565b8160008151811061266157612661614b3e565b60200260200101819052506126886001600060405180602001604052806000815250612ae7565b8160018151811061269b5761269b614b3e565b60200260200101819052506126c26002600060405180602001604052806000815250612ae7565b816002815181106126d5576126d5614b3e565b60200260200101819052506126fc6004600060405180602001604052806000815250612ae7565b8160038151811061270f5761270f614b3e565b60200260200101819052506127366003600060405180602001604052806000815250612ae7565b8160048151811061274957612749614b3e565b602002602001018190525060006040518060600160405280600060070b8152602001856001600160a01b03168152602001627a120060070b81525090506000604051806101200160405280600280546127a190614b54565b80601f01602080910402602001604051908101604052809291908181526020018280546127cd90614b54565b801561281a5780601f106127ef5761010080835404028352916020019161281a565b820191906000526020600020905b8154815290600101906020018083116127fd57829003601f168201915b505050505081526020016003805461283190614b54565b80601f016020809104026020016040519081016040528092919081815260200182805461285d90614b54565b80156128aa5780601f1061287f576101008083540402835291602001916128aa565b820191906000526020600020905b81548152906001019060200180831161288d57829003601f168201915b50505050508152602001866001600160a01b03168152602001600480546128d090614b54565b80601f01602080910402602001604051908101604052809291908181526020018280546128fc90614b54565b80156129495780601f1061291e57610100808354040283529160200191612949565b820191906000526020600020905b81548152906001019060200180831161292c57829003601f168201915b50505091835250506001602082015260055468010000000000000000810460070b6040830152600160a01b900460ff16151560608201526080810185905260a00183905290506129998682613dfd565b9350601684146129a857600080fd5b50505092915050565b604080516001600160a01b0385811660248301528481166044830152831660648083019190915282518083039091018152608490910182526020810180516001600160e01b03167f927da10500000000000000000000000000000000000000000000000000000000179052905160009182918291829161016791612a3491614bb9565b6000604051808303816000865af19150503d8060008114612a71576040519150601f19603f3d011682016040523d82523d6000602084013e612a76565b606091505b509150915081612a895760156000612a9d565b80806020019051810190612a9d9190614c88565b60039190910b9890975095505050505050565b612ab8613fb9565b6040518060400160405280612acd8787613e29565b8152602001612adc8585613e64565b905295945050505050565b612aef613fb9565b6040518060400160405280612b0386613f7a565b8152602001612b128585613e64565b9052949350505050565b600080848061010001516000015160070b6000148015612b4657506101008101516040015160070b155b15612b5c576101008101516276a7006040909101525b6000806101676001600160a01b03163463abb54eb560e01b8a8a8a604051602401612b8993929190614ee7565b60408051601f198184030181529181526020820180516001600160e01b03166001600160e01b0319909416939093179092529051612bc79190614bb9565b60006040518083038185875af1925050503d8060008114612c04576040519150601f19603f3d011682016040523d82523d6000602084013e612c09565b606091505b509150915081612c1c5760156000612c30565b80806020019051810190612c309190614f9e565b60039190910b999098509650505050505050565b6040516001600160a01b0383811660248301528216604482015260009081908190610167907f8f8d7f9900000000000000000000000000000000000000000000000000000000906064015b60408051601f198184030181529181526020820180516001600160e01b03166001600160e01b0319909416939093179092529051612ccd9190614bb9565b6000604051808303816000865af19150503d8060008114612d0a576040519150601f19603f3d011682016040523d82523d6000602084013e612d0f565b606091505b509150915081612d20576015612d34565b80806020019051810190612d349190614be7565b60030b95945050505050565b6040516001600160a01b0383811660248301528216604482015260009081908190610167907faf99c6330000000000000000000000000000000000000000000000000000000090606401612c8f565b60008060606000806101676001600160a01b031663e0f4059a60e01b898989604051602401612dc093929190614fca565b60408051601f198184030181529181526020820180516001600160e01b03166001600160e01b0319909416939093179092529051612dfe9190614bb9565b6000604051808303816000865af19150503d8060008114612e3b576040519150601f19603f3d011682016040523d82523d6000602084013e612e40565b606091505b509150915081612e63576040805160008082526020820190925260159190612e77565b80806020019051810190612e779190615047565b60039290920b9a90995090975095505050505050565b6040516001600160a01b038216602482015260009081908190610167907ff069f71200000000000000000000000000000000000000000000000000000000906044015b60408051601f198184030181529181526020820180516001600160e01b03166001600160e01b0319909416939093179092529051612f0e9190614bb9565b6000604051808303816000865af19150503d8060008114612f4b576040519150601f19603f3d011682016040523d82523d6000602084013e612f50565b606091505b509150915081612f61576015612f75565b80806020019051810190612f759190614be7565b60030b949350505050565b6040805160a081018252600080825260208083018290526060838501819052808401526080830182905283516001600160a01b03871660248201526044808201879052855180830390910181526064909101855290810180516001600160e01b03167f3c4dd32e0000000000000000000000000000000000000000000000000000000017905292519092839182916101679161301c9190614bb9565b6000604051808303816000865af19150503d8060008114613059576040519150601f19603f3d011682016040523d82523d6000602084013e61305e565b606091505b50915091506130a96040518060a0016040528060001515815260200160006001600160a01b03168152602001606081526020016060815260200160006001600160a01b031681525090565b826130b657601581612a9d565b81806020019051810190612a9d9190615157565b6040516001600160a01b038216602482015260009081908190610167907f3b3bff0f0000000000000000000000000000000000000000000000000000000090604401612ed0565b6040516001600160a01b0383811660248301528216604482015260009081908190610167907f5b8f85840000000000000000000000000000000000000000000000000000000090606401612c8f565b60008060006101676001600160a01b0316632c4ba19160e01b88888888604051602401610f6f949392919061526b565b60008060006101676001600160a01b03166378b6391860e01b8686604051602401612c8f9291906152be565b60008060006101676001600160a01b0316632e63879b60e01b8686604051602401612c8f9291906152be565b6040516001600160a01b038216602482015260009081908190610167907f7c41ad2c0000000000000000000000000000000000000000000000000000000090604401612ed0565b604080516001600160a01b0385811660248301528481166044830152831660648083019190915282518083039091018152608490910182526020810180516001600160e01b03167ff49f40db000000000000000000000000000000000000000000000000000000001790529051600091829182918291610167916132b291614bb9565b6000604051808303816000865af19150503d80600081146132ef576040519150601f19603f3d011682016040523d82523d6000602084013e6132f4565b606091505b5091509150816133075760156000612a9d565b80806020019051810190612a9d91906152e0565b6040516001600160a01b0383811660248301528216604482015260009081908190610167907f49146bde0000000000000000000000000000000000000000000000000000000090606401612c8f565b600080848061010001516000015160070b600014801561339457506101008101516040015160070b155b156133aa576101008101516276a7006040909101525b6000806101676001600160a01b031634630fb65bf360e01b8a8a8a604051602401612b899392919061530c565b60008060006101676001600160a01b031663f7f38e2660e01b8787876040516024016134059392919061533b565b60408051601f198184030181529181526020820180516001600160e01b03166001600160e01b03199094169390931790925290516134439190614bb9565b6000604051808303816000865af19150503d8060008114613480576040519150601f19603f3d011682016040523d82523d6000602084013e613485565b606091505b5091509150816134965760156134aa565b808060200190518101906134aa9190614be7565b60030b9695505050505050565b6040516001600160a01b038581166024830152848116604483015283166064820152600782900b608482015260009081908190610167907feca36917000000000000000000000000000000000000000000000000000000009060a401610f6f565b6040516001600160a01b03848116602483015283166044820152600782900b606482015260009081908190610167907fefef57f90000000000000000000000000000000000000000000000000000000090608401613405565b6000806000806101676001600160a01b031663d6910d0660e01b8888886040516024016135a093929190615367565b60408051601f198184030181529181526020820180516001600160e01b03166001600160e01b03199094169390931790925290516135de9190614bb9565b6000604051808303816000865af19150503d806000811461361b576040519150601f19603f3d011682016040523d82523d6000602084013e613620565b606091505b5091509150816136335760156000612a9d565b80806020019051810190612a9d9190615392565b604080516001600160a01b03831660248083019190915282518083039091018152604490910182526020810180516001600160e01b03167f19f37361000000000000000000000000000000000000000000000000000000001790529051600091829182918291610167916136ba91614bb9565b6000604051808303816000865af19150503d80600081146136f7576040519150601f19603f3d011682016040523d82523d6000602084013e6136fc565b606091505b50915091508161370f5760156000613723565b8080602001905181019061372391906152e0565b60039190910b969095509350505050565b60008060006101676001600160a01b0316636fc3cbaf60e01b8686604051602401612c8f9291906153be565b60008060006101676001600160a01b031663d27be6cd60e01b8686604051602401612c8f9291906153e0565b604080516060810182526000808252602080830182905282840182905283516001600160a01b038616602480830191909152855180830390910181526044909101855290810180516001600160e01b03167fd614cdb8000000000000000000000000000000000000000000000000000000001790529251909283918291610167916138179190614bb9565b6000604051808303816000865af19150503d8060008114613854576040519150601f19603f3d011682016040523d82523d6000602084013e613859565b606091505b5060408051606081018252600080825260208201819052918101919091529193509150826138895760158161389d565b8180602001905181019061389d9190615423565b60039190910b97909650945050505050565b6040516001600160a01b038481166024830152831660448201526064810182905260009081908190610167907f7336aaf00000000000000000000000000000000000000000000000000000000090608401613405565b600080868061010001516000015160070b600014801561392f57506101008101516040015160070b155b15613945576101008101516276a7006040909101525b6000806101676001600160a01b031634632af0c59a60e01b8c8c8c8c8c60405160240161397695949392919061549e565b60408051601f198184030181529181526020820180516001600160e01b03166001600160e01b03199094169390931790925290516139b49190614bb9565b60006040518083038185875af1925050503d80600081146139f1576040519150601f19603f3d011682016040523d82523d6000602084013e6139f6565b606091505b509150915081613a095760156000613a1d565b80806020019051810190613a1d9190614f9e565b60039190910b9b909a5098505050505050505050565b6040516001600160a01b0383811660248301528216604482015260009081908190610167907f52f913870000000000000000000000000000000000000000000000000000000090606401612c8f565b6040516001600160a01b0383811660248301528216604482015260009081908190610167907f099794e80000000000000000000000000000000000000000000000000000000090606401612c8f565b60008060006101676001600160a01b0316630e71804f60e01b8686604051602401612c8f9291906155ba565b60008060006101676001600160a01b03166382bba49360e01b878787604051602401613405939291906156b7565b604080516001600160a01b0384166024820152604480820184905282518083039091018152606490910182526020810180516001600160e01b03167f098f236600000000000000000000000000000000000000000000000000000000179052905160009182918291829161016791613ba291614bb9565b6000604051808303816000865af19150503d8060008114613bdf576040519150601f19603f3d011682016040523d82523d6000602084013e613be4565b606091505b509150915081613bf7576015600061389d565b8080602001905181019061389d9190614f9e565b6040516001600160a01b038581166024830152848116604483015283166064820152600782900b608482015260009081908190610167907f5cfc9011000000000000000000000000000000000000000000000000000000009060a401610f6f565b6040516001600160a01b038481166024830152831660448201526064810182905260009081908190610167907fe1f21c670000000000000000000000000000000000000000000000000000000090608401613405565b600080828061010001516000015160070b6000148015613cec57506101008101516040015160070b155b15613d02576101008101516276a7006040909101525b6000806101676001600160a01b03163463ea83f29360e01b88604051602401613d2b91906156f5565b60408051601f198184030181529181526020820180516001600160e01b03166001600160e01b0319909416939093179092529051613d699190614bb9565b60006040518083038185875af1925050503d8060008114613bdf576040519150601f19603f3d011682016040523d82523d6000602084013e613be4565b6040516001600160a01b03848116602483015283166044820152811515606482015260009081908190610167907f367605ca0000000000000000000000000000000000000000000000000000000090608401613405565b60008060006101676001600160a01b0316637d305cfa60e01b8686604051602401612c8f929190615708565b6000613e4d836006811115613e4057613e4061572a565b600160ff9091161b821790565b9050610950826006811115613e4057613e4061572a565b613eaa6040518060a0016040528060001515815260200160006001600160a01b03168152602001606081526020016060815260200160006001600160a01b031681525090565b6000836004811115613ebe57613ebe61572a565b1415613ecd5760018152610ebd565b6001836004811115613ee157613ee161572a565b1415613efd576000546001600160a01b03166020820152610ebd565b6002836004811115613f1157613f1161572a565b1415613f235760408101829052610ebd565b6003836004811115613f3757613f3761572a565b1415613f495760608101829052610ebd565b6004836004811115613f5d57613f5d61572a565b1415610ebd576000546001600160a01b0316608082015292915050565b600060016000836006811115613f9257613f9261572a565b6006811115613fa357613fa361572a565b8152602001908152602001600020549050919050565b6040518060400160405280600081526020016140116040518060a0016040528060001515815260200160006001600160a01b03168152602001606081526020016060815260200160006001600160a01b031681525090565b905290565b6001600160a01b038116811461402b57600080fd5b50565b60008060006060848603121561404357600080fd5b833561404e81614016565b9250602084013561405e81614016565b9150604084013561406e81614016565b809150509250925092565b6000806040838503121561408c57600080fd5b823561409781614016565b915060208301356140a781614016565b809150509250929050565b8060070b811461402b57600080fd5b634e487b7160e01b600052604160045260246000fd5b6040516060810167ffffffffffffffff811182821017156140fa576140fa6140c1565b60405290565b6040516020810167ffffffffffffffff811182821017156140fa576140fa6140c1565b6040516080810167ffffffffffffffff811182821017156140fa576140fa6140c1565b60405160a0810167ffffffffffffffff811182821017156140fa576140fa6140c1565b604051601f8201601f1916810167ffffffffffffffff81118282101715614192576141926140c1565b604052919050565b600067ffffffffffffffff8211156141b4576141b46140c1565b5060051b60200190565b600067ffffffffffffffff8211156141d8576141d86140c1565b50601f01601f191660200190565b600082601f8301126141f757600080fd5b813561420a614205826141be565b614169565b81815284602083860101111561421f57600080fd5b816020850160208301376000918101602001919091529392505050565b60008060006060848603121561425157600080fd5b833561425c81614016565b925060208481013561426d816140b2565b9250604085013567ffffffffffffffff8082111561428a57600080fd5b818701915087601f83011261429e57600080fd5b81356142ac6142058261419a565b81815260059190911b8301840190848101908a8311156142cb57600080fd5b8585015b83811015614303578035858111156142e75760008081fd5b6142f58d89838a01016141e6565b8452509186019186016142cf565b508096505050505050509250925092565b600081518084526020808501945080840160005b8381101561434757815160070b87529582019590820190600101614328565b509495945050505050565b8381528260070b60208201526060604082015260006143746060830184614314565b95945050505050565b60006020828403121561438f57600080fd5b813561095081614016565b600080604083850312156143ad57600080fd5b82356143b881614016565b946020939093013593505050565b600080600080608085870312156143dc57600080fd5b84356143e781614016565b935060208501356143f781614016565b9250604085013561440781614016565b9396929550929360600135925050565b600082601f83011261442857600080fd5b813560206144386142058361419a565b82815260059290921b8401810191818101908684111561445757600080fd5b8286015b8481101561447b57803561446e81614016565b835291830191830161445b565b509695505050505050565b600082601f83011261449757600080fd5b813560206144a76142058361419a565b82815260059290921b840181019181810190868411156144c657600080fd5b8286015b8481101561447b5780356144dd816140b2565b83529183019183016144ca565b6000806000806080858703121561450057600080fd5b843561450b81614016565b9350602085013567ffffffffffffffff8082111561452857600080fd5b61453488838901614417565b9450604087013591508082111561454a57600080fd5b61455688838901614417565b9350606087013591508082111561456c57600080fd5b5061457987828801614486565b91505092959194509250565b6000806040838503121561459857600080fd5b82356145a381614016565b9150602083013567ffffffffffffffff8111156145bf57600080fd5b6145cb85828601614417565b9150509250929050565b6000806000606084860312156145ea57600080fd5b83356145f581614016565b9250602084013561460581614016565b9150604084013567ffffffffffffffff81111561462157600080fd5b61462d86828701614486565b9150509250925092565b6000806000806080858703121561464d57600080fd5b843561465881614016565b9350602085013561466881614016565b9250604085013561467881614016565b91506060850135614688816140b2565b939692955090935050565b6000806000606084860312156146a857600080fd5b83356146b381614016565b925060208401356146c381614016565b9150604084013561406e816140b2565b600080604083850312156146e657600080fd5b82356146f181614016565b9150602083013567ffffffffffffffff81111561470d57600080fd5b6145cb858286016141e6565b60008060006060848603121561472e57600080fd5b833561473981614016565b92506020840135614605816140b2565b60008060006060848603121561475e57600080fd5b833561476981614016565b9250602084013561477981614016565b929592945050506040919091013590565b801515811461402b57600080fd5b600082601f8301126147a957600080fd5b813560206147b96142058361419a565b828152606092830285018201928282019190878511156147d857600080fd5b8387015b8581101561483a5781818a0312156147f45760008081fd5b6147fc6140d7565b813561480781614016565b815281860135614816816140b2565b818701526040828101356148298161478a565b9082015284529284019281016147dc565b5090979650505050505050565b6000806040838503121561485a57600080fd5b67ffffffffffffffff808435111561487157600080fd5b6020843585018603121561488457600080fd5b61488c614100565b818535860135111561489d57600080fd5b6148ad8686358701803501614798565b8152925060208401358110156148c257600080fd5b6020840135840185601f8201126148d857600080fd5b6148e5614205823561419a565b81358082526020808301929160051b84010188101561490357600080fd5b602083015b6020843560051b850101811015614a8357848135111561492757600080fd5b803584016060818b03601f1901121561493f57600080fd5b6149476140d7565b6149546020830135614016565b60208201358152866040830135111561496c57600080fd5b61497f8b60206040850135850101614798565b6020820152866060830135111561499557600080fd5b6060820135820191508a603f8301126149ad57600080fd5b6149bd614205602084013561419a565b602083810135808352908201919060071b84016040018d8111156149e057600080fd5b6040850194505b80851015614a6d576080858f0312156149ff57600080fd5b614a07614123565b614a118635614016565b85358152614a226020870135614016565b60208601356020820152614a3960408701356140b2565b60408601356040820152614a50606087013561478a565b6060868101359082015283526080909401936020909201916149e7565b5060408301525084525060209283019201614908565b50809450505050509250929050565b600080600060608486031215614aa757600080fd5b8335614ab281614016565b9250602084013567ffffffffffffffff80821115614acf57600080fd5b614adb87838801614417565b93506040860135915080821115614af157600080fd5b5061462d86828701614486565b600080600060608486031215614b1357600080fd5b8335614b1e81614016565b92506020840135614b2e81614016565b9150604084013561406e8161478a565b634e487b7160e01b600052603260045260246000fd5b600181811c90821680614b6857607f821691505b6020821081141561190d57634e487b7160e01b600052602260045260246000fd5b60005b83811015614ba4578181015183820152602001614b8c565b83811115614bb3576000848401525b50505050565b60008251614bcb818460208701614b89565b9190910192915050565b8051600381900b8114610f0a57600080fd5b600060208284031215614bf957600080fd5b61095082614bd5565b60008151808452614c1a816020860160208601614b89565b601f01601f19169290920160200192915050565b6001600160a01b03831681526040602082015260006110a96040830184614c02565b82151581526040602082015260006110a96040830184614c02565b600060208284031215614c7d57600080fd5b8151610950816140b2565b60008060408385031215614c9b57600080fd5b614ca483614bd5565b9150602083015190509250929050565b600081518084526020808501808196508360051b8101915082860160005b85811015614d6b5782840389528151604081518652868201519150808787015281511515818701528682015160606001600160a01b03808316828a015283850151935060a09250608083818b0152614d2d60e08b0186614c02565b928601518a8403603f1901858c0152929450614d498584614c02565b9501511660c09890980197909752505098850198935090840190600101614cd2565b5091979650505050505050565b60006101608251818552614d8e82860182614c02565b91505060208301518482036020860152614da88282614c02565b9150506040830151614dc560408601826001600160a01b03169052565b5060608301518482036060860152614ddd8282614c02565b9150506080830151614df3608086018215159052565b5060a0830151614e0860a086018260070b9052565b5060c0830151614e1c60c086018215159052565b5060e083015184820360e0860152614e348282614cb4565b91505061010080840151614e7082870182805160070b82526001600160a01b036020820151166020830152604081015160070b60408301525050565b5090949350505050565b600081518084526020808501945080840160005b83811015614347578151805160070b8852838101516001600160a01b03908116858a01526040808301511515908a01526060808301511515908a0152608091820151169088015260a09096019590820190600101614e8e565b60006060808352614efa81840187614d78565b602084820381860152614f0d8288614e7a565b91506040858303818701528287518085528385019150838901945060005b81811015614f8e5785518051600790810b855286820151810b8786015285820151900b85850152878101516001600160a01b039081168986015260808083015115159086015260a09182015116908401529484019460c090920191600101614f2b565b50909a9950505050505050505050565b60008060408385031215614fb157600080fd5b614fba83614bd5565b915060208301516140a781614016565b6000606082016001600160a01b038616835260208560070b818501526060604085015281855180845260808601915060808160051b870101935082870160005b8281101561503857607f19888703018452615026868351614c02565b9550928401929084019060010161500a565b50939998505050505050505050565b60008060006060848603121561505c57600080fd5b61506584614bd5565b9250602080850151615076816140b2565b604086015190935067ffffffffffffffff81111561509357600080fd5b8501601f810187136150a457600080fd5b80516150b26142058261419a565b81815260059190911b820183019083810190898311156150d157600080fd5b928401925b828410156150f85783516150e9816140b2565b825292840192908401906150d6565b80955050505050509250925092565b8051610f0a81614016565b600082601f83011261512357600080fd5b8151615131614205826141be565b81815284602083860101111561514657600080fd5b6110a9826020830160208701614b89565b6000806040838503121561516a57600080fd5b61517383614bd5565b9150602083015167ffffffffffffffff8082111561519057600080fd5b9084019060a082870312156151a457600080fd5b6151ac614146565b82516151b78161478a565b815260208301516151c781614016565b60208201526040830151828111156151de57600080fd5b6151ea88828601615112565b60408301525060608301518281111561520257600080fd5b61520e88828601615112565b60608301525061522060808401615107565b60808201528093505050509250929050565b600081518084526020808501945080840160005b838110156143475781516001600160a01b031687529582019590820190600101615246565b6001600160a01b038516815260806020820152600061528d6080830186615232565b828103604084015261529f8186615232565b905082810360608401526152b38185614314565b979650505050505050565b6001600160a01b03831681526040602082015260006110a96040830184615232565b600080604083850312156152f357600080fd5b6152fc83614bd5565b915060208301516140a78161478a565b60608152600061531f6060830186614d78565b90508360070b60208301528260030b6040830152949350505050565b60006001600160a01b038086168352808516602084015250606060408301526143746060830184614314565b6001600160a01b03841681528260070b60208201526060604082015260006143746060830184614314565b600080604083850312156153a557600080fd5b6153ae83614bd5565b915060208301516140a7816140b2565b6001600160a01b03831681526040602082015260006110a96040830184614cb4565b6001600160a01b0383168152608081016109506020830184805160070b82526001600160a01b036020820151166020830152604081015160070b60408301525050565b600080828403608081121561543757600080fd5b61544084614bd5565b92506060601f198201121561545457600080fd5b5061545d6140d7565b602084015161546b816140b2565b8152604084015161547b81614016565b6020820152606084015161548e816140b2565b6040820152919491935090915050565b600060a08083526154b181840189614d78565b6020600789810b8287015260408960030b818801526060878503818901526154d9858b614e7a565b94506080888603818a0152858a518088528688019150868c01975060005b818110156155515788518051880b845288810151880b8985015286810151880b8785015285810151880b86850152848101511515858501528a01516001600160a01b03168a8401529787019760c0909201916001016154f7565b50909f9e505050505050505050505050505050565b600081518084526020808501945080840160005b8381101561434757815180516001600160a01b031688528381015160070b848901526040908101511515908801526060909601959082019060010161557a565b6000604080835260608551602080848701526155d883870183615566565b9150858203818701528187518084528284019150828160051b850101838a0160005b838110156156a657601f1987840301855281516001600160a01b03808251168552878201518a898701526156308b870182615566565b928c0151868403878e01528051808552908a0193600092508a01905b808310156156905784518051851683528b81015185168c8401528e81015160070b8f8401528d015115158d830152938a01936001929092019160809091019061564c565b50978901979550505091860191506001016155fa565b50909b9a5050505050505050505050565b6001600160a01b03841681526060602082015260006156d96060830185615232565b82810360408401526156eb8185614314565b9695505050505050565b6020815260006109506020830184614d78565b6001600160a01b03831681526040602082015260006110a96040830184614d78565b634e487b7160e01b600052602160045260246000fdfea264697066735822122049070ead35f221f8ae0ddfe8a0573011d1ae4690036ea5c50828fd0af22abd0264736f6c63430008090033",
  "linkReferences": {},
  "deployedLinkReferences": {}
}