{
  "_format": "hh-sol-artifact-1",
  "contractName": "EstimatePrecompileContract",
  "sourceName": "contracts/EstimatePrecompileContract.sol",
  "abi": [
    {
      "anonymous": false,
      "inputs": [
        {
          "indexed": false,
          "internalType": "bool",
          "name": "",
          "type": "bool"
        },
        {
          "indexed": false,
          "internalType": "bytes",
          "name": "",
          "type": "bytes"
        }
      ],
      "name": "CallResponseEvent",
      "type": "event"
    },
    {
      "inputs": [
        {
          "internalType": "address",
          "name": "token",
          "type": "address"
        },
        {
          "internalType": "address",
          "name": "spender",
          "type": "address"
        },
        {
          "internalType": "uint256",
          "name": "amount",
          "type": "uint256"
        }
      ],
      "name": "approveExternal",
      "outputs": [
        {
          "internalType": "int256",
          "name": "responseCode",
          "type": "int256"
        }
      ],
      "stateMutability": "nonpayable",
      "type": "function"
    },
    {
      "inputs": [
        {
          "internalType": "address",
          "name": "token",
          "type": "address"
        },
        {
          "internalType": "address",
          "name": "approved",
          "type": "address"
        },
        {
          "internalType": "uint256",
          "name": "serialNumber",
          "type": "uint256"
        }
      ],
      "name": "approveNFTExternal",
      "outputs": [
        {
          "internalType": "int256",
          "name": "responseCode",
          "type": "int256"
        }
      ],
      "stateMutability": "nonpayable",
      "type": "function"
    },
    {
      "inputs": [
        {
          "internalType": "address",
          "name": "account",
          "type": "address"
        },
        {
          "internalType": "address",
          "name": "token",
          "type": "address"
        }
      ],
      "name": "associateTokenExternal",
      "outputs": [
        {
          "internalType": "int256",
          "name": "responseCode",
          "type": "int256"
        }
      ],
      "stateMutability": "nonpayable",
      "type": "function"
    },
    {
      "inputs": [
        {
          "internalType": "address",
          "name": "account",
          "type": "address"
        },
        {
          "internalType": "address[]",
          "name": "tokens",
          "type": "address[]"
        }
      ],
      "name": "associateTokensExternal",
      "outputs": [
        {
          "internalType": "int256",
          "name": "responseCode",
          "type": "int256"
        }
      ],
      "stateMutability": "nonpayable",
      "type": "function"
    },
    {
      "inputs": [
        {
          "internalType": "address",
          "name": "token",
          "type": "address"
        },
        {
          "internalType": "int64",
          "name": "amount",
          "type": "int64"
        },
        {
          "internalType": "int64[]",
          "name": "serialNumbers",
          "type": "int64[]"
        }
      ],
      "name": "burnTokenExternal",
      "outputs": [
        {
          "internalType": "int256",
          "name": "responseCode",
          "type": "int256"
        },
        {
          "internalType": "int64",
          "name": "newTotalSupply",
          "type": "int64"
        }
      ],
      "stateMutability": "nonpayable",
      "type": "function"
    },
    {
      "inputs": [
        {
          "internalType": "address",
          "name": "treasury",
          "type": "address"
        }
      ],
      "name": "createFungibleTokenPublic",
      "outputs": [],
      "stateMutability": "payable",
      "type": "function"
    },
    {
      "inputs": [
        {
          "internalType": "address",
          "name": "treasury",
          "type": "address"
        },
        {
          "internalType": "address",
          "name": "fixedFeeTokenAddress",
          "type": "address"
        }
      ],
      "name": "createFungibleTokenWithCustomFeesPublic",
      "outputs": [],
      "stateMutability": "payable",
      "type": "function"
    },
    {
      "inputs": [
        {
          "internalType": "address",
          "name": "treasury",
          "type": "address"
        }
      ],
      "name": "createNonFungibleTokenPublic",
      "outputs": [],
      "stateMutability": "payable",
      "type": "function"
    },
    {
      "inputs": [
        {
          "internalType": "address",
          "name": "treasury",
          "type": "address"
        },
        {
          "internalType": "address",
          "name": "fixedFeeTokenAddress",
          "type": "address"
        }
      ],
      "name": "createNonFungibleTokenWithCustomFeesPublic",
      "outputs": [],
      "stateMutability": "payable",
      "type": "function"
    },
    {
      "inputs": [
        {
          "components": [
            {
              "components": [
                {
                  "internalType": "address",
                  "name": "accountID",
                  "type": "address"
                },
                {
                  "internalType": "int64",
                  "name": "amount",
                  "type": "int64"
                },
                {
                  "internalType": "bool",
                  "name": "isApproval",
                  "type": "bool"
                }
              ],
              "internalType": "struct IHederaTokenService.AccountAmount[]",
              "name": "transfers",
              "type": "tuple[]"
            }
          ],
          "internalType": "struct IHederaTokenService.TransferList",
          "name": "transferList",
          "type": "tuple"
        },
        {
          "components": [
            {
              "internalType": "address",
              "name": "token",
              "type": "address"
            },
            {
              "components": [
                {
                  "internalType": "address",
                  "name": "accountID",
                  "type": "address"
                },
                {
                  "internalType": "int64",
                  "name": "amount",
                  "type": "int64"
                },
                {
                  "internalType": "bool",
                  "name": "isApproval",
                  "type": "bool"
                }
              ],
              "internalType": "struct IHederaTokenService.AccountAmount[]",
              "name": "transfers",
              "type": "tuple[]"
            },
            {
              "components": [
                {
                  "internalType": "address",
                  "name": "senderAccountID",
                  "type": "address"
                },
                {
                  "internalType": "address",
                  "name": "receiverAccountID",
                  "type": "address"
                },
                {
                  "internalType": "int64",
                  "name": "serialNumber",
                  "type": "int64"
                },
                {
                  "internalType": "bool",
                  "name": "isApproval",
                  "type": "bool"
                }
              ],
              "internalType": "struct IHederaTokenService.NftTransfer[]",
              "name": "nftTransfers",
              "type": "tuple[]"
            }
          ],
          "internalType": "struct IHederaTokenService.TokenTransferList[]",
          "name": "tokenTransfers",
          "type": "tuple[]"
        }
      ],
      "name": "cryptoTransferExternal",
      "outputs": [
        {
          "internalType": "int256",
          "name": "responseCode",
          "type": "int256"
        }
      ],
      "stateMutability": "nonpayable",
      "type": "function"
    },
    {
      "inputs": [
        {
          "internalType": "address",
          "name": "token",
          "type": "address"
        }
      ],
      "name": "deleteTokenExternal",
      "outputs": [
        {
          "internalType": "int256",
          "name": "responseCode",
          "type": "int256"
        }
      ],
      "stateMutability": "nonpayable",
      "type": "function"
    },
    {
      "inputs": [
        {
          "internalType": "address",
          "name": "token",
          "type": "address"
        }
      ],
      "name": "deleteTokenTwiceExternal",
      "outputs": [
        {
          "internalType": "int256",
          "name": "responseCode",
          "type": "int256"
        }
      ],
      "stateMutability": "nonpayable",
      "type": "function"
    },
    {
      "inputs": [
        {
          "internalType": "address",
          "name": "account",
          "type": "address"
        },
        {
          "internalType": "address",
          "name": "token",
          "type": "address"
        }
      ],
      "name": "dissociateAndAssociateTokenExternal",
      "outputs": [
        {
          "internalType": "int256",
          "name": "responseCode",
          "type": "int256"
        }
      ],
      "stateMutability": "nonpayable",
      "type": "function"
    },
    {
      "inputs": [
        {
          "internalType": "address",
          "name": "account",
          "type": "address"
        },
        {
          "internalType": "address",
          "name": "token",
          "type": "address"
        }
      ],
      "name": "dissociateTokenExternal",
      "outputs": [
        {
          "internalType": "int256",
          "name": "responseCode",
          "type": "int256"
        }
      ],
      "stateMutability": "nonpayable",
      "type": "function"
    },
    {
      "inputs": [
        {
          "internalType": "address",
          "name": "account",
          "type": "address"
        },
        {
          "internalType": "address[]",
          "name": "tokens",
          "type": "address[]"
        }
      ],
      "name": "dissociateTokensExternal",
      "outputs": [
        {
          "internalType": "int256",
          "name": "responseCode",
          "type": "int256"
        }
      ],
      "stateMutability": "nonpayable",
      "type": "function"
    },
    {
      "inputs": [
        {
          "internalType": "address",
          "name": "token",
          "type": "address"
        },
        {
          "internalType": "address",
          "name": "account",
          "type": "address"
        }
      ],
      "name": "freezeTokenExternal",
      "outputs": [
        {
          "internalType": "int64",
          "name": "responseCode",
          "type": "int64"
        }
      ],
      "stateMutability": "nonpayable",
      "type": "function"
    },
    {
      "inputs": [
        {
          "internalType": "address",
          "name": "token",
          "type": "address"
        },
        {
          "internalType": "address",
          "name": "account",
          "type": "address"
        }
      ],
      "name": "freezeTokenTwiceExternal",
      "outputs": [
        {
          "internalType": "int64",
          "name": "responseCode",
          "type": "int64"
        }
      ],
      "stateMutability": "nonpayable",
      "type": "function"
    },
    {
      "inputs": [
        {
          "internalType": "address",
          "name": "token",
          "type": "address"
        },
        {
          "internalType": "address",
          "name": "account",
          "type": "address"
        }
      ],
      "name": "grantTokenKycExternal",
      "outputs": [
        {
          "internalType": "int64",
          "name": "responseCode",
          "type": "int64"
        }
      ],
      "stateMutability": "nonpayable",
      "type": "function"
    },
    {
      "inputs": [
        {
          "internalType": "address",
          "name": "token",
          "type": "address"
        },
        {
          "internalType": "int64",
          "name": "amount",
          "type": "int64"
        },
        {
          "internalType": "bytes[]",
          "name": "metadata",
          "type": "bytes[]"
        }
      ],
      "name": "mintTokenExternal",
      "outputs": [
        {
          "internalType": "int256",
          "name": "responseCode",
          "type": "int256"
        },
        {
          "internalType": "int64",
          "name": "newTotalSupply",
          "type": "int64"
        },
        {
          "internalType": "int64[]",
          "name": "serialNumbers",
          "type": "int64[]"
        }
      ],
      "stateMutability": "nonpayable",
      "type": "function"
    },
    {
      "inputs": [
        {
          "internalType": "address",
          "name": "account",
          "type": "address"
        },
        {
          "internalType": "address",
          "name": "token",
          "type": "address"
        }
      ],
      "name": "nestedAssociateTokenExternal",
      "outputs": [
        {
          "internalType": "int256",
          "name": "responseCode",
          "type": "int256"
        }
      ],
      "stateMutability": "nonpayable",
      "type": "function"
    },
    {
      "inputs": [
        {
          "internalType": "address",
          "name": "token",
          "type": "address"
        },
        {
          "internalType": "address",
          "name": "account",
          "type": "address"
        }
      ],
      "name": "nestedFreezeUnfreezeTokenExternal",
      "outputs": [
        {
          "internalType": "int64",
          "name": "responseCode",
          "type": "int64"
        }
      ],
      "stateMutability": "nonpayable",
      "type": "function"
    },
    {
      "inputs": [
        {
          "internalType": "address",
          "name": "token",
          "type": "address"
        },
        {
          "internalType": "address",
          "name": "account",
          "type": "address"
        }
      ],
      "name": "nestedGrantAndRevokeTokenKYCExternal",
      "outputs": [
        {
          "internalType": "int64",
          "name": "responseCode",
          "type": "int64"
        }
      ],
      "stateMutability": "nonpayable",
      "type": "function"
    },
    {
      "inputs": [
        {
          "internalType": "address",
          "name": "token",
          "type": "address"
        }
      ],
      "name": "nestedPauseUnpauseTokenExternal",
      "outputs": [
        {
          "internalType": "int256",
          "name": "responseCode",
          "type": "int256"
        }
      ],
      "stateMutability": "nonpayable",
      "type": "function"
    },
    {
      "inputs": [
        {
          "internalType": "address",
          "name": "token",
          "type": "address"
        }
      ],
      "name": "pauseTokenExternal",
      "outputs": [
        {
          "internalType": "int256",
          "name": "responseCode",
          "type": "int256"
        }
      ],
      "stateMutability": "nonpayable",
      "type": "function"
    },
    {
      "inputs": [
        {
          "internalType": "address",
          "name": "token",
          "type": "address"
        },
        {
          "internalType": "bytes",
          "name": "encodedFunctionSelector",
          "type": "bytes"
        }
      ],
      "name": "redirectForToken",
      "outputs": [
        {
          "internalType": "int64",
          "name": "responseCode",
          "type": "int64"
        },
        {
          "internalType": "bytes",
          "name": "response",
          "type": "bytes"
        }
      ],
      "stateMutability": "nonpayable",
      "type": "function"
    },
    {
      "inputs": [
        {
          "internalType": "address",
          "name": "token",
          "type": "address"
        },
        {
          "internalType": "address",
          "name": "account",
          "type": "address"
        }
      ],
      "name": "revokeTokenKycExternal",
      "outputs": [
        {
          "internalType": "int64",
          "name": "responseCode",
          "type": "int64"
        }
      ],
      "stateMutability": "nonpayable",
      "type": "function"
    },
    {
      "inputs": [
        {
          "internalType": "address",
          "name": "token",
          "type": "address"
        },
        {
          "internalType": "address",
          "name": "account",
          "type": "address"
        },
        {
          "internalType": "bool",
          "name": "approved",
          "type": "bool"
        }
      ],
      "name": "setApprovalForAllExternal",
      "outputs": [
        {
          "internalType": "int256",
          "name": "responseCode",
          "type": "int256"
        }
      ],
      "stateMutability": "nonpayable",
      "type": "function"
    },
    {
      "inputs": [
        {
          "internalType": "address",
          "name": "token",
          "type": "address"
        },
        {
          "internalType": "address",
          "name": "from",
          "type": "address"
        },
        {
          "internalType": "address",
          "name": "to",
          "type": "address"
        },
        {
          "internalType": "uint256",
          "name": "amount",
          "type": "uint256"
        }
      ],
      "name": "transferFrom",
      "outputs": [
        {
          "internalType": "int64",
          "name": "responseCode",
          "type": "int64"
        }
      ],
      "stateMutability": "nonpayable",
      "type": "function"
    },
    {
      "inputs": [
        {
          "internalType": "address",
          "name": "token",
          "type": "address"
        },
        {
          "internalType": "address",
          "name": "from",
          "type": "address"
        },
        {
          "internalType": "address",
          "name": "to",
          "type": "address"
        },
        {
          "internalType": "uint256",
          "name": "amount",
          "type": "uint256"
        }
      ],
      "name": "transferFromExternal",
      "outputs": [
        {
          "internalType": "int256",
          "name": "responseCode",
          "type": "int256"
        }
      ],
      "stateMutability": "nonpayable",
      "type": "function"
    },
    {
      "inputs": [
        {
          "internalType": "address",
          "name": "token",
          "type": "address"
        },
        {
          "internalType": "address",
          "name": "from",
          "type": "address"
        },
        {
          "internalType": "address",
          "name": "to",
          "type": "address"
        },
        {
          "internalType": "uint256",
          "name": "serialNumber",
          "type": "uint256"
        }
      ],
      "name": "transferFromNFT",
      "outputs": [
        {
          "internalType": "int64",
          "name": "responseCode",
          "type": "int64"
        }
      ],
      "stateMutability": "nonpayable",
      "type": "function"
    },
    {
      "inputs": [
        {
          "internalType": "address",
          "name": "token",
          "type": "address"
        },
        {
          "internalType": "address",
          "name": "from",
          "type": "address"
        },
        {
          "internalType": "address",
          "name": "to",
          "type": "address"
        },
        {
          "internalType": "uint256",
          "name": "serialNumber",
          "type": "uint256"
        }
      ],
      "name": "transferFromNFTExternal",
      "outputs": [
        {
          "internalType": "int256",
          "name": "responseCode",
          "type": "int256"
        }
      ],
      "stateMutability": "nonpayable",
      "type": "function"
    },
    {
      "inputs": [
        {
          "internalType": "address",
          "name": "token",
          "type": "address"
        },
        {
          "internalType": "address",
          "name": "sender",
          "type": "address"
        },
        {
          "internalType": "address",
          "name": "receiver",
          "type": "address"
        },
        {
          "internalType": "int64",
          "name": "serialNumber",
          "type": "int64"
        }
      ],
      "name": "transferNFTExternal",
      "outputs": [
        {
          "internalType": "int256",
          "name": "responseCode",
          "type": "int256"
        }
      ],
      "stateMutability": "nonpayable",
      "type": "function"
    },
    {
      "inputs": [
        {
          "internalType": "address",
          "name": "token",
          "type": "address"
        },
        {
          "internalType": "address[]",
          "name": "sender",
          "type": "address[]"
        },
        {
          "internalType": "address[]",
          "name": "receiver",
          "type": "address[]"
        },
        {
          "internalType": "int64[]",
          "name": "serialNumber",
          "type": "int64[]"
        }
      ],
      "name": "transferNFTsExternal",
      "outputs": [
        {
          "internalType": "int256",
          "name": "responseCode",
          "type": "int256"
        }
      ],
      "stateMutability": "nonpayable",
      "type": "function"
    },
    {
      "inputs": [
        {
          "internalType": "address",
          "name": "token",
          "type": "address"
        },
        {
          "internalType": "address",
          "name": "sender",
          "type": "address"
        },
        {
          "internalType": "address",
          "name": "receiver",
          "type": "address"
        },
        {
          "internalType": "int64",
          "name": "amount",
          "type": "int64"
        }
      ],
      "name": "transferTokenExternal",
      "outputs": [
        {
          "internalType": "int256",
          "name": "responseCode",
          "type": "int256"
        }
      ],
      "stateMutability": "nonpayable",
      "type": "function"
    },
    {
      "inputs": [
        {
          "internalType": "address",
          "name": "token",
          "type": "address"
        },
        {
          "internalType": "address[]",
          "name": "accountIds",
          "type": "address[]"
        },
        {
          "internalType": "int64[]",
          "name": "amounts",
          "type": "int64[]"
        }
      ],
      "name": "transferTokensExternal",
      "outputs": [
        {
          "internalType": "int256",
          "name": "responseCode",
          "type": "int256"
        }
      ],
      "stateMutability": "nonpayable",
      "type": "function"
    },
    {
      "inputs": [
        {
          "internalType": "address",
          "name": "token",
          "type": "address"
        },
        {
          "internalType": "address",
          "name": "account",
          "type": "address"
        }
      ],
      "name": "unfreezeTokenExternal",
      "outputs": [
        {
          "internalType": "int64",
          "name": "responseCode",
          "type": "int64"
        }
      ],
      "stateMutability": "nonpayable",
      "type": "function"
    },
    {
      "inputs": [
        {
          "internalType": "address",
          "name": "token",
          "type": "address"
        }
      ],
      "name": "unpauseTokenExternal",
      "outputs": [
        {
          "internalType": "int256",
          "name": "responseCode",
          "type": "int256"
        }
      ],
      "stateMutability": "nonpayable",
      "type": "function"
    },
    {
      "inputs": [
        {
          "internalType": "address",
          "name": "token",
          "type": "address"
        },
        {
          "internalType": "address",
          "name": "treasury",
          "type": "address"
        }
      ],
      "name": "updateTokenExpiryInfoExternal",
      "outputs": [
        {
          "internalType": "int256",
          "name": "responseCode",
          "type": "int256"
        }
      ],
      "stateMutability": "nonpayable",
      "type": "function"
    },
    {
      "inputs": [
        {
          "internalType": "address",
          "name": "token",
          "type": "address"
        },
        {
          "internalType": "address",
          "name": "treasury",
          "type": "address"
        }
      ],
      "name": "updateTokenInfoExternal",
      "outputs": [
        {
          "internalType": "int256",
          "name": "responseCode",
          "type": "int256"
        }
      ],
      "stateMutability": "nonpayable",
      "type": "function"
    },
    {
      "inputs": [
        {
          "internalType": "address",
          "name": "token",
          "type": "address"
        }
      ],
      "name": "updateTokenKeysExternal",
      "outputs": [
        {
          "internalType": "int256",
          "name": "responseCode",
          "type": "int256"
        }
      ],
      "stateMutability": "nonpayable",
      "type": "function"
    },
    {
      "inputs": [
        {
          "internalType": "address",
          "name": "token",
          "type": "address"
        },
        {
          "internalType": "address",
          "name": "account",
          "type": "address"
        },
        {
          "internalType": "int64",
          "name": "amount",
          "type": "int64"
        }
      ],
      "name": "wipeTokenAccountExternal",
      "outputs": [
        {
          "internalType": "int256",
          "name": "responseCode",
          "type": "int256"
        }
      ],
      "stateMutability": "nonpayable",
      "type": "function"
    },
    {
      "inputs": [
        {
          "internalType": "address",
          "name": "token",
          "type": "address"
        },
        {
          "internalType": "address",
          "name": "account",
          "type": "address"
        },
        {
          "internalType": "int64[]",
          "name": "serialNumbers",
          "type": "int64[]"
        }
      ],
      "name": "wipeTokenAccountNFTExternal",
      "outputs": [
        {
          "internalType": "int256",
          "name": "responseCode",
          "type": "int256"
        }
      ],
      "stateMutability": "nonpayable",
      "type": "function"
    }
  ],
  "bytecode": "0x60c06040526009608081905268746f6b656e4e616d6560b81b60a09081526200002c9160029190620001cc565b5060408051808201909152600b8082526a1d1bdad95b94de5b589bdb60aa1b60209092019182526200006191600391620001cc565b50604080518082019091526004808252636d656d6f60e01b60209092019182526200008d9181620001cc565b50600580546001600160a81b031916700800000000000003e800000000000003e8179055348015620000be57600080fd5b50600160208181527fa6eef7e35abe7026729641147f7915573c7e97b47efa546f5f6e3230263bcb499190915560027fcc69885fda6bcc1a4ace058b4a62bf5e179ea78fd58a1ccd71c22cc9b688792f5560047fd9d16d34ffb15ba3a3d852f0d403e2ce1d691fb54de27ac87cd2f993f3ec330f5560087f7dfe757ecd65cbd7922a9c0161e935dd7fdbcc0e999689c7d31633896b1fc60b5560107fedc95719e9a3b28dd8e80877cb5880a9be7de1a13fc8b05e7999683b6b567643557fe2689cd4a84e23ad2f564004f1c9013e9589d260bde6380aba3ca7e09e4df40c55600660005260407f8f331abe73332f95a25873e8b430885974c0409691f89d643119a11623a7924a55620002af565b828054620001da9062000272565b90600052602060002090601f016020900481019282620001fe576000855562000249565b82601f106200021957805160ff191683800117855562000249565b8280016001018555821562000249579182015b82811115620002495782518255916020019190600101906200022c565b50620002579291506200025b565b5090565b5b808211156200025757600081556001016200025c565b600181811c908216806200028757607f821691505b60208210811415620002a957634e487b7160e01b600052602260045260246000fd5b50919050565b614e5980620002bf6000396000f3fe6080604052600436106102d15760003560e01c80637adc26b811610179578063bafa6a91116100d6578063e31b839c1161008a578063ed129c3f11610064578063ed129c3f146107df578063f1938266146107ff578063fb2b6cef1461081f57600080fd5b8063e31b839c1461077f578063e95a71e51461079f578063ec4ca639146107bf57600080fd5b8063d85f74c1116100bb578063d85f74c11461072c578063d91cfc951461073f578063e03fc5141461075f57600080fd5b8063bafa6a91146106ec578063ceda64c41461070c57600080fd5b80639b23d3d91161012d5780639c219247116101125780639c2192471461068c578063a6218810146106ac578063aa835c63146106cc57600080fd5b80639b23d3d91461064c5780639bc4d3541461066c57600080fd5b80638ba74da01161015e5780638ba74da0146105f9578063901fe3d01461060c5780639333700b1461062c57600080fd5b80637adc26b8146105b957806384d232f5146105d957600080fd5b806330a8f2931161023257806352205b33116101e6578063632da116116101c0578063632da11614610541578063714c42c01461057957806375a854721461059957600080fd5b806352205b33146104d35780635ac4fef8146104f3578063618dc65e1461051357600080fd5b80634b5c6687116102175780634b5c6687146104805780634c09c804146104935780634fd6ce0a146104b357600080fd5b806330a8f29314610440578063437dffd51461046057600080fd5b8063165aae66116102895780631ba978fc1161026e5780631ba978fc146103e05780632390c1fa146104005780632fc358f71461042057600080fd5b8063165aae66146103a057806317f96caa146103c057600080fd5b80630c0295d4116102ba5780630c0295d4146103235780630c0a198c1461035257806315dacbea1461038057600080fd5b80630488c939146102d657806306a1a5d3146102eb575b600080fd5b6102e96102e43660046138f6565b61083f565b005b3480156102f757600080fd5b5061030b6103063660046138f6565b610d7b565b60405160079190910b81526020015b60405180910390f35b34801561032f57600080fd5b5061034361033e366004613a96565b610dab565b60405161031a93929190613bac565b34801561035e57600080fd5b5061037261036d366004613bd7565b610dd8565b60405190815260200161031a565b34801561038c57600080fd5b5061030b61039b366004613bf4565b610df7565b3480156103ac57600080fd5b506103726103bb366004613bd7565b610eeb565b3480156103cc57600080fd5b5061030b6103db3660046138f6565b610ef6565b3480156103ec57600080fd5b506103726103fb366004613d18565b610f0d565b34801561040c57600080fd5b5061037261041b366004613db3565b610f7a565b34801561042c57600080fd5b5061037261043b366004613db3565b610fd8565b34801561044c57600080fd5b5061037261045b366004613bd7565b611036565b34801561046c57600080fd5b5061037261047b3660046138f6565b611041565b6102e961048e366004613bd7565b6110aa565b34801561049f57600080fd5b506103726104ae366004613e03565b611488565b3480156104bf57600080fd5b506103726104ce366004613e65565b6114ab565b3480156104df57600080fd5b5061030b6104ee3660046138f6565b61150b565b3480156104ff57600080fd5b5061037261050e366004613ec1565b611517565b34801561051f57600080fd5b5061053361052e366004613f0c565b611524565b60405161031a929190613fae565b34801561054d57600080fd5b5061056161055c366004613fca565b611652565b6040805192835260079190910b60208301520161031a565b34801561058557600080fd5b50610372610594366004613bd7565b61167a565b3480156105a557600080fd5b506103726105b4366004613bf4565b6117f8565b3480156105c557600080fd5b506103726105d43660046138f6565b6118e0565b3480156105e557600080fd5b506103726105f4366004613ffa565b611929565b6102e96106073660046138f6565b611988565b34801561061857600080fd5b5061030b6106273660046138f6565b611dbc565b34801561063857600080fd5b5061030b6106473660046138f6565b611dd3565b34801561065857600080fd5b5061030b610667366004613bf4565b611ddf565b34801561067857600080fd5b50610372610687366004613bf4565b611e24565b34801561069857600080fd5b506103726106a73660046138f6565b611f0c565b3480156106b857600080fd5b506103726106c73660046140f8565b611f18565b3480156106d857600080fd5b506103726106e736600461433e565b611f76565b3480156106f857600080fd5b50610372610707366004613e65565b611fd5565b34801561071857600080fd5b50610372610727366004613ffa565b611fe3565b6102e961073a366004613bd7565b612042565b34801561074b57600080fd5b5061037261075a3660046138f6565b6123e2565b34801561076b57600080fd5b5061037261077a366004613bd7565b6123ee565b34801561078b57600080fd5b5061037261079a3660046143aa565b612403565b3480156107ab57600080fd5b5061030b6107ba3660046138f6565b612410565b3480156107cb57600080fd5b5061030b6107da3660046138f6565b61241c565b3480156107eb57600080fd5b506103726107fa366004613bd7565b612428565b34801561080b57600080fd5b5061037261081a3660046138f6565b61243d565b34801561082b57600080fd5b5061037261083a3660046138f6565b6124a6565b60408051600580825260c08201909252600091816020015b61085f613881565b8152602001906001900390816108575790505090506108926000600660006040518060200160405280600081525061285f565b816000815181106108a5576108a56143f1565b60200260200101819052506108cc6001600060405180602001604052806000815250612896565b816001815181106108df576108df6143f1565b60200260200101819052506109066002600060405180602001604052806000815250612896565b81600281518110610919576109196143f1565b60200260200101819052506109406004600060405180602001604052806000815250612896565b81600381518110610953576109536143f1565b602002602001018190525061097a6003600060405180602001604052806000815250612896565b8160048151811061098d5761098d6143f1565b602002602001018190525060006040518060600160405280600060070b8152602001856001600160a01b03168152602001627a120060070b81525090506000604051806101200160405280600280546109e590614407565b80601f0160208091040260200160405190810160405280929190818152602001828054610a1190614407565b8015610a5e5780601f10610a3357610100808354040283529160200191610a5e565b820191906000526020600020905b815481529060010190602001808311610a4157829003601f168201915b5050505050815260200160038054610a7590614407565b80601f0160208091040260200160405190810160405280929190818152602001828054610aa190614407565b8015610aee5780601f10610ac357610100808354040283529160200191610aee565b820191906000526020600020905b815481529060010190602001808311610ad157829003601f168201915b50505050508152602001866001600160a01b0316815260200160048054610b1490614407565b80601f0160208091040260200160405190810160405280929190818152602001828054610b4090614407565b8015610b8d5780601f10610b6257610100808354040283529160200191610b8d565b820191906000526020600020905b815481529060010190602001808311610b7057829003601f168201915b505050918352505060016020820181905260055468010000000000000000810460070b6040840152600160a01b900460ff16151560608301526080820186905260a0909101849052909150600090604051908082528060200260200182016040528015610c3457816020015b6040805160a081018252600080825260208083018290529282018190526060820181905260808201528252600019909201910181610bf95790505b506040805160a081018252600181526001600160a01b03808916602083015260009282018390526060820183905289166080820152825192935091839190610c7e57610c7e6143f1565b6020908102919091010152604080516001808252818301909252600091816020015b6040805160c08101825260008082526020808301829052928201819052606082018190526080820181905260a08201528252600019909201910181610ca05790505090506040518060c00160405280600460070b8152602001600560070b8152602001600a60070b8152602001876001600160a01b03168152602001600015158152602001886001600160a01b031681525081600081518110610d4557610d456143f1565b6020026020010181905250600080610d5e8585856128cb565b909250905060168214610d7057600080fd5b505050505050505050565b6000610d8783836129f3565b50610d928383612aef565b9050600781900b601614610da557600080fd5b92915050565b6000806060610dbb868686612b3e565b9194509250905060168314610dcf57600080fd5b93509350939050565b6000610de382612c3c565b905060168114610df257600080fd5b919050565b6040516001600160a01b038581166024830152848116604483015283166064820152608481018290526000908190819061016790630aed65f560e11b9060a4015b60408051601f198184030181529181526020820180516001600160e01b03166001600160e01b0319909416939093179092529051610e76919061443c565b6000604051808303816000865af19150503d8060008114610eb3576040519150601f19603f3d011682016040523d82523d6000602084013e610eb8565b606091505b509150915081610ec9576015610edd565b80806020019051810190610edd919061446a565b60030b979650505050505050565b6000610de382612d2f565b6000610f028383612d76565b50610d928383612d76565b6000610f1b85858585612dc5565b905060168114610f725760405162461bcd60e51b815260206004820152601360248201527f4e4654207472616e73666572206661696c65640000000000000000000000000060448201526064015b60405180910390fd5b949350505050565b6000610f868383612df5565b905060168114610da55760405162461bcd60e51b815260206004820152601a60248201527f546f6b656e20646973736f63696174696f6e206661696c6564210000000000006044820152606401610f69565b6000610fe48383612e21565b905060168114610da55760405162461bcd60e51b815260206004820152601760248201527f546f6b656e206173736f6369617465206661696c6564210000000000000000006044820152606401610f69565b6000610de382612e4d565b600061104d8383612e94565b506110588383612e94565b905060168114610da55760405162461bcd60e51b815260206004820152601960248201527f546f6b656e206173736f63696174696f6e206661696c656421000000000000006044820152606401610f69565b60408051600580825260c08201909252600091816020015b6110ca613881565b8152602001906001900390816110c25790505090506110fd6000600660006040518060200160405280600081525061285f565b81600081518110611110576111106143f1565b60200260200101819052506111376001600060405180602001604052806000815250612896565b8160018151811061114a5761114a6143f1565b60200260200101819052506111716002600060405180602001604052806000815250612896565b81600281518110611184576111846143f1565b60200260200101819052506111ab6003600060405180602001604052806000815250612896565b816003815181106111be576111be6143f1565b60200260200101819052506111e56004600060405180602001604052806000815250612896565b816004815181106111f8576111f86143f1565b602002602001018190525060006040518060600160405280600060070b8152602001846001600160a01b03168152602001627a120060070b815250905060006040518061012001604052806002805461125090614407565b80601f016020809104026020016040519081016040528092919081815260200182805461127c90614407565b80156112c95780601f1061129e576101008083540402835291602001916112c9565b820191906000526020600020905b8154815290600101906020018083116112ac57829003601f168201915b50505050508152602001600380546112e090614407565b80601f016020809104026020016040519081016040528092919081815260200182805461130c90614407565b80156113595780601f1061132e57610100808354040283529160200191611359565b820191906000526020600020905b81548152906001019060200180831161133c57829003601f168201915b50505050508152602001856001600160a01b031681526020016004805461137f90614407565b80601f01602080910402602001604051908101604052809291908181526020018280546113ab90614407565b80156113f85780601f106113cd576101008083540402835291602001916113f8565b820191906000526020600020905b8154815290600101906020018083116113db57829003601f168201915b505050918352505060016020820152600554680100000000000000008104600790810b604084015260ff600160a01b830416151560608401526080830187905260a0909201859052919250600091829161146e91859181900b90700100000000000000000000000000000000900460030b612ee3565b90925090506016821461148057600080fd5b505050505050565b6000611495848484612f50565b9050601681146114a457600080fd5b9392505050565b60006114b985858585613030565b905060168114610f725760405162461bcd60e51b815260206004820152601560248201527f546f6b656e207472616e73666572206661696c656400000000000000000000006044820152606401610f69565b6000610d928383612aef565b6000611495848484613091565b600060606000806101676001600160a01b031663618dc65e60e01b8787604051602401611552929190614485565b60408051601f198184030181529181526020820180516001600160e01b03166001600160e01b0319909416939093179092529051611590919061443c565b6000604051808303816000865af19150503d80600081146115cd576040519150601f19603f3d011682016040523d82523d6000602084013e6115d2565b606091505b50915091507f4af4780e06fe8cb9df64b0794fa6f01399af979175bb988e35e0e57e594567bc82826040516116089291906144a7565b60405180910390a18161162c57601560405180602001604052806000815250611640565b8080602001905181019061164091906144c2565b60039190910b97909650945050505050565b6000806116608585856130ea565b90925090506016821461167257600080fd5b935093915050565b60408051600580825260c08201909252600091829190816020015b61169d613881565b8152602001906001900390816116955790505090506116d06000600660006040518060200160405280600081525061285f565b816000815181106116e3576116e36143f1565b602002602001018190525061170a6001600060405180602001604052806000815250612896565b8160018151811061171d5761171d6143f1565b60200260200101819052506117446002600060405180602001604052806000815250612896565b81600281518110611757576117576143f1565b602002602001018190525061177e6004600060405180602001604052806000815250612896565b81600381518110611791576117916143f1565b60200260200101819052506117b86003600060405180602001604052806000815250612896565b816004815181106117cb576117cb6143f1565b60200260200101819052506117e083826131d3565b60070b9150601682146117f257600080fd5b50919050565b604051630aed65f560e11b81526001600160a01b0380861660048301528085166024830152831660448201526064810182905260009030906315dacbea90608401602060405180830381600087803b15801561185357600080fd5b505af1158015611867573d6000803e3d6000fd5b505050506040513d601f19601f8201168201806040525081019061188b919061454c565b60070b905060168114610f725760405162461bcd60e51b815260206004820152600f60248201527f5472616e73666572206661696c656400000000000000000000000000000000006044820152606401610f69565b6040805160608101825260008082526001600160a01b03841660208301526265b9aa9282019290925261191384826131ff565b91506016821461192257600080fd5b5092915050565b600061193684848461322b565b9050601681146114a45760405162461bcd60e51b815260206004820152601460248201527f4e465420617070726f76616c206661696c6564210000000000000000000000006044820152606401610f69565b604080516001808252818301909252600091816020015b6119a7613881565b81526020019060019003908161199f5790505090506119d960008060006040518060200160405280600081525061285f565b816000815181106119ec576119ec6143f1565b602002602001018190525060006040518060600160405280600060070b8152602001856001600160a01b03168152602001627a120060070b8152509050600060405180610120016040528060028054611a4490614407565b80601f0160208091040260200160405190810160405280929190818152602001828054611a7090614407565b8015611abd5780601f10611a9257610100808354040283529160200191611abd565b820191906000526020600020905b815481529060010190602001808311611aa057829003601f168201915b5050505050815260200160038054611ad490614407565b80601f0160208091040260200160405190810160405280929190818152602001828054611b0090614407565b8015611b4d5780601f10611b2257610100808354040283529160200191611b4d565b820191906000526020600020905b815481529060010190602001808311611b3057829003601f168201915b50505050508152602001866001600160a01b0316815260200160048054611b7390614407565b80601f0160208091040260200160405190810160405280929190818152602001828054611b9f90614407565b8015611bec5780601f10611bc157610100808354040283529160200191611bec565b820191906000526020600020905b815481529060010190602001808311611bcf57829003601f168201915b505050918352505060016020820181905260055468010000000000000000900460070b6040808401919091526000606084018190526080840188905260a09093018690528051828152808201909152929350909190816020015b6040805160a081018252600080825260208083018290529282018190526060820181905260808201528252600019909201910181611c465750506040805160a081018252600181526001600160a01b03888116602083015260009282018390526060820183905289166080820152825192935091839190611cc957611cc96143f1565b6020908102919091010152604080516001808252818301909252600091816020015b6040805160c08101825260008082526020808301829052928201819052606082018190526080820181905260a08201528252600019909201910181611ceb5750506040805160c0810182526004815260056020820152600a91810191909152601e60608201526000608082018190526001600160a01b038a1660a083015282519293509091839190611d7f57611d7f6143f1565b60209081029190910101526005546000908190610d5e908690600781900b90700100000000000000000000000000000000900460030b8787613281565b6000611dc88383612d76565b50610d9283836133af565b6000610d928383612d76565b6040516001600160a01b038581166024830152848116604483015283166064820152608481018290526000908190819061016790639b23d3d960e01b9060a401610e38565b604051639b23d3d960e01b81526001600160a01b038086166004830152808516602483015283166044820152606481018290526000903090639b23d3d990608401602060405180830381600087803b158015611e7f57600080fd5b505af1158015611e93573d6000803e3d6000fd5b505050506040513d601f19601f82011682018060405250810190611eb7919061454c565b60070b905060168114610f725760405162461bcd60e51b815260206004820152601360248201527f4e4654207472616e73666572206661696c6564000000000000000000000000006044820152606401610f69565b6000610f8683836133fe565b6000611f24838361344d565b905060168114610da55760405162461bcd60e51b815260206004820152601660248201527f43727970746f207472616e73666572206661696c6564000000000000000000006044820152606401610f69565b6000611f83848484613479565b9050601681146114a45760405162461bcd60e51b815260206004820152601560248201527f546f6b656e207472616e73666572206661696c656400000000000000000000006044820152606401610f69565b6000610f1b858585856134a7565b6000611ff0848484613508565b9050601681146114a45760405162461bcd60e51b815260206004820152601060248201527f417070726f76616c206661696c656421000000000000000000000000000000006044820152606401610f69565b60408051600580825260c08201909252600091816020015b612062613881565b81526020019060019003908161205a5790505090506120956000600660006040518060200160405280600081525061285f565b816000815181106120a8576120a86143f1565b60200260200101819052506120cf6001600060405180602001604052806000815250612896565b816001815181106120e2576120e26143f1565b60200260200101819052506121096002600060405180602001604052806000815250612896565b8160028151811061211c5761211c6143f1565b60200260200101819052506121436004600060405180602001604052806000815250612896565b81600381518110612156576121566143f1565b602002602001018190525061217d6003600060405180602001604052806000815250612896565b81600481518110612190576121906143f1565b602002602001018190525060006040518060600160405280600060070b8152602001846001600160a01b03168152602001627a120060070b81525090506000604051806101200160405280600280546121e890614407565b80601f016020809104026020016040519081016040528092919081815260200182805461221490614407565b80156122615780601f1061223657610100808354040283529160200191612261565b820191906000526020600020905b81548152906001019060200180831161224457829003601f168201915b505050505081526020016003805461227890614407565b80601f01602080910402602001604051908101604052809291908181526020018280546122a490614407565b80156122f15780601f106122c6576101008083540402835291602001916122f1565b820191906000526020600020905b8154815290600101906020018083116122d457829003601f168201915b50505050508152602001856001600160a01b031681526020016004805461231790614407565b80601f016020809104026020016040519081016040528092919081815260200182805461234390614407565b80156123905780601f1061236557610100808354040283529160200191612390565b820191906000526020600020905b81548152906001019060200180831161237357829003601f168201915b50505091835250506001602082015260055468010000000000000000810460070b6040830152600160a01b900460ff16151560608201526080810185905260a001839052905060008061146e8361355e565b60006110588383612e94565b60006123f982612c3c565b50610de382612c3c565b600061149584848461366e565b6000610d9283836133af565b6000610d9283836129f3565b600061243382612e4d565b50610de382612d2f565b600061244983836133fe565b506124548383612e94565b905060168114610da55760405162461bcd60e51b815260206004820181905260248201527f4e657374656420746f6b656e206173736f63696174696f6e206661696c6564216044820152606401610f69565b60408051600580825260c08201909252600091829190816020015b6124c9613881565b8152602001906001900390816124c15790505090506124fc6000600660006040518060200160405280600081525061285f565b8160008151811061250f5761250f6143f1565b60200260200101819052506125366001600060405180602001604052806000815250612896565b81600181518110612549576125496143f1565b60200260200101819052506125706002600060405180602001604052806000815250612896565b81600281518110612583576125836143f1565b60200260200101819052506125aa6004600060405180602001604052806000815250612896565b816003815181106125bd576125bd6143f1565b60200260200101819052506125e46003600060405180602001604052806000815250612896565b816004815181106125f7576125f76143f1565b602002602001018190525060006040518060600160405280600060070b8152602001856001600160a01b03168152602001627a120060070b815250905060006040518061012001604052806002805461264f90614407565b80601f016020809104026020016040519081016040528092919081815260200182805461267b90614407565b80156126c85780601f1061269d576101008083540402835291602001916126c8565b820191906000526020600020905b8154815290600101906020018083116126ab57829003601f168201915b50505050508152602001600380546126df90614407565b80601f016020809104026020016040519081016040528092919081815260200182805461270b90614407565b80156127585780601f1061272d57610100808354040283529160200191612758565b820191906000526020600020905b81548152906001019060200180831161273b57829003601f168201915b50505050508152602001866001600160a01b031681526020016004805461277e90614407565b80601f01602080910402602001604051908101604052809291908181526020018280546127aa90614407565b80156127f75780601f106127cc576101008083540402835291602001916127f7565b820191906000526020600020905b8154815290600101906020018083116127da57829003601f168201915b50505091835250506001602082015260055468010000000000000000810460070b6040830152600160a01b900460ff16151560608201526080810185905260a001839052905061284786826136c5565b93506016841461285657600080fd5b50505092915050565b612867613881565b604051806040016040528061287c87876136f1565b815260200161288b858561372c565b905295945050505050565b61289e613881565b60405180604001604052806128b286613842565b81526020016128c1858561372c565b9052949350505050565b600080848061010001516000015160070b60001480156128f557506101008101516040015160070b155b1561290b576101008101516276a7006040909101525b6000806101676001600160a01b03163463abb54eb560e01b8a8a8a6040516024016129389392919061479c565b60408051601f198184030181529181526020820180516001600160e01b03166001600160e01b0319909416939093179092529051612976919061443c565b60006040518083038185875af1925050503d80600081146129b3576040519150601f19603f3d011682016040523d82523d6000602084013e6129b8565b606091505b5091509150816129cb57601560006129df565b808060200190518101906129df9190614853565b60039190910b999098509650505050505050565b6040516001600160a01b0383811660248301528216604482015260009081908190610167907f8f8d7f9900000000000000000000000000000000000000000000000000000000906064015b60408051601f198184030181529181526020820180516001600160e01b03166001600160e01b0319909416939093179092529051612a7c919061443c565b6000604051808303816000865af19150503d8060008114612ab9576040519150601f19603f3d011682016040523d82523d6000602084013e612abe565b606091505b509150915081612acf576015612ae3565b80806020019051810190612ae3919061446a565b60030b95945050505050565b6040516001600160a01b0383811660248301528216604482015260009081908190610167907faf99c6330000000000000000000000000000000000000000000000000000000090606401612a3e565b60008060606000806101676001600160a01b031663e0f4059a60e01b898989604051602401612b6f9392919061487f565b60408051601f198184030181529181526020820180516001600160e01b03166001600160e01b0319909416939093179092529051612bad919061443c565b6000604051808303816000865af19150503d8060008114612bea576040519150601f19603f3d011682016040523d82523d6000602084013e612bef565b606091505b509150915081612c12576040805160008082526020820190925260159190612c26565b80806020019051810190612c2691906148fc565b60039290920b9a90995090975095505050505050565b6040516001600160a01b038216602482015260009081908190610167907ff069f71200000000000000000000000000000000000000000000000000000000906044015b60408051601f198184030181529181526020820180516001600160e01b03166001600160e01b0319909416939093179092529051612cbd919061443c565b6000604051808303816000865af19150503d8060008114612cfa576040519150601f19603f3d011682016040523d82523d6000602084013e612cff565b606091505b509150915081612d10576015612d24565b80806020019051810190612d24919061446a565b60030b949350505050565b6040516001600160a01b038216602482015260009081908190610167907f3b3bff0f0000000000000000000000000000000000000000000000000000000090604401612c7f565b6040516001600160a01b0383811660248301528216604482015260009081908190610167907f5b8f85840000000000000000000000000000000000000000000000000000000090606401612a3e565b60008060006101676001600160a01b0316632c4ba19160e01b88888888604051602401610e3894939291906149f5565b60008060006101676001600160a01b03166378b6391860e01b8686604051602401612a3e929190614a48565b60008060006101676001600160a01b0316632e63879b60e01b8686604051602401612a3e929190614a48565b6040516001600160a01b038216602482015260009081908190610167907f7c41ad2c0000000000000000000000000000000000000000000000000000000090604401612c7f565b6040516001600160a01b0383811660248301528216604482015260009081908190610167907f49146bde0000000000000000000000000000000000000000000000000000000090606401612a3e565b600080848061010001516000015160070b6000148015612f0d57506101008101516040015160070b155b15612f23576101008101516276a7006040909101525b6000806101676001600160a01b031634630fb65bf360e01b8a8a8a60405160240161293893929190614a6a565b60008060006101676001600160a01b031663f7f38e2660e01b878787604051602401612f7e93929190614a99565b60408051601f198184030181529181526020820180516001600160e01b03166001600160e01b0319909416939093179092529051612fbc919061443c565b6000604051808303816000865af19150503d8060008114612ff9576040519150601f19603f3d011682016040523d82523d6000602084013e612ffe565b606091505b50915091508161300f576015613023565b80806020019051810190613023919061446a565b60030b9695505050505050565b6040516001600160a01b038581166024830152848116604483015283166064820152600782900b608482015260009081908190610167907feca36917000000000000000000000000000000000000000000000000000000009060a401610e38565b6040516001600160a01b03848116602483015283166044820152600782900b606482015260009081908190610167907fefef57f90000000000000000000000000000000000000000000000000000000090608401612f7e565b6000806000806101676001600160a01b031663d6910d0660e01b88888860405160240161311993929190614ac5565b60408051601f198184030181529181526020820180516001600160e01b03166001600160e01b0319909416939093179092529051613157919061443c565b6000604051808303816000865af19150503d8060008114613194576040519150601f19603f3d011682016040523d82523d6000602084013e613199565b606091505b5091509150816131ac57601560006131c0565b808060200190518101906131c09190614af0565b60039190910b9890975095505050505050565b60008060006101676001600160a01b0316636fc3cbaf60e01b8686604051602401612a3e929190614b1c565b60008060006101676001600160a01b031663d27be6cd60e01b8686604051602401612a3e929190614b3e565b6040516001600160a01b038481166024830152831660448201526064810182905260009081908190610167907f7336aaf00000000000000000000000000000000000000000000000000000000090608401612f7e565b600080868061010001516000015160070b60001480156132ab57506101008101516040015160070b155b156132c1576101008101516276a7006040909101525b6000806101676001600160a01b031634632af0c59a60e01b8c8c8c8c8c6040516024016132f2959493929190614b81565b60408051601f198184030181529181526020820180516001600160e01b03166001600160e01b0319909416939093179092529051613330919061443c565b60006040518083038185875af1925050503d806000811461336d576040519150601f19603f3d011682016040523d82523d6000602084013e613372565b606091505b5091509150816133855760156000613399565b808060200190518101906133999190614853565b60039190910b9b909a5098505050505050505050565b6040516001600160a01b0383811660248301528216604482015260009081908190610167907f52f913870000000000000000000000000000000000000000000000000000000090606401612a3e565b6040516001600160a01b0383811660248301528216604482015260009081908190610167907f099794e80000000000000000000000000000000000000000000000000000000090606401612a3e565b60008060006101676001600160a01b0316630e71804f60e01b8686604051602401612a3e929190614c9d565b60008060006101676001600160a01b03166382bba49360e01b878787604051602401612f7e93929190614d9a565b6040516001600160a01b038581166024830152848116604483015283166064820152600782900b608482015260009081908190610167907f5cfc9011000000000000000000000000000000000000000000000000000000009060a401610e38565b6040516001600160a01b038481166024830152831660448201526064810182905260009081908190610167907fe1f21c670000000000000000000000000000000000000000000000000000000090608401612f7e565b600080828061010001516000015160070b600014801561358857506101008101516040015160070b155b1561359e576101008101516276a7006040909101525b6000806101676001600160a01b03163463ea83f29360e01b886040516024016135c79190614dd8565b60408051601f198184030181529181526020820180516001600160e01b03166001600160e01b0319909416939093179092529051613605919061443c565b60006040518083038185875af1925050503d8060008114613642576040519150601f19603f3d011682016040523d82523d6000602084013e613647565b606091505b50915091508161365a5760156000611640565b808060200190518101906116409190614853565b6040516001600160a01b03848116602483015283166044820152811515606482015260009081908190610167907f367605ca0000000000000000000000000000000000000000000000000000000090608401612f7e565b60008060006101676001600160a01b0316637d305cfa60e01b8686604051602401612a3e929190614deb565b600061371583600681111561370857613708614e0d565b600160ff9091161b821790565b90506114a482600681111561370857613708614e0d565b6137726040518060a0016040528060001515815260200160006001600160a01b03168152602001606081526020016060815260200160006001600160a01b031681525090565b600083600481111561378657613786614e0d565b14156137955760018152610da5565b60018360048111156137a9576137a9614e0d565b14156137c5576000546001600160a01b03166020820152610da5565b60028360048111156137d9576137d9614e0d565b14156137eb5760408101829052610da5565b60038360048111156137ff576137ff614e0d565b14156138115760608101829052610da5565b600483600481111561382557613825614e0d565b1415610da5576000546001600160a01b0316608082015292915050565b60006001600083600681111561385a5761385a614e0d565b600681111561386b5761386b614e0d565b8152602001908152602001600020549050919050565b6040518060400160405280600081526020016138d96040518060a0016040528060001515815260200160006001600160a01b03168152602001606081526020016060815260200160006001600160a01b031681525090565b905290565b6001600160a01b03811681146138f357600080fd5b50565b6000806040838503121561390957600080fd5b8235613914816138de565b91506020830135613924816138de565b809150509250929050565b8060070b81146138f357600080fd5b634e487b7160e01b600052604160045260246000fd5b6040516060810167ffffffffffffffff811182821017156139775761397761393e565b60405290565b6040516020810167ffffffffffffffff811182821017156139775761397761393e565b6040516080810167ffffffffffffffff811182821017156139775761397761393e565b604051601f8201601f1916810167ffffffffffffffff811182821017156139ec576139ec61393e565b604052919050565b600067ffffffffffffffff821115613a0e57613a0e61393e565b5060051b60200190565b600067ffffffffffffffff821115613a3257613a3261393e565b50601f01601f191660200190565b600082601f830112613a5157600080fd5b8135613a64613a5f82613a18565b6139c3565b818152846020838601011115613a7957600080fd5b816020850160208301376000918101602001919091529392505050565b600080600060608486031215613aab57600080fd5b8335613ab6816138de565b9250602084810135613ac78161392f565b9250604085013567ffffffffffffffff80821115613ae457600080fd5b818701915087601f830112613af857600080fd5b8135613b06613a5f826139f4565b81815260059190911b8301840190848101908a831115613b2557600080fd5b8585015b83811015613b5d57803585811115613b415760008081fd5b613b4f8d89838a0101613a40565b845250918601918601613b29565b508096505050505050509250925092565b600081518084526020808501945080840160005b83811015613ba157815160070b87529582019590820190600101613b82565b509495945050505050565b8381528260070b6020820152606060408201526000613bce6060830184613b6e565b95945050505050565b600060208284031215613be957600080fd5b81356114a4816138de565b60008060008060808587031215613c0a57600080fd5b8435613c15816138de565b93506020850135613c25816138de565b92506040850135613c35816138de565b9396929550929360600135925050565b600082601f830112613c5657600080fd5b81356020613c66613a5f836139f4565b82815260059290921b84018101918181019086841115613c8557600080fd5b8286015b84811015613ca9578035613c9c816138de565b8352918301918301613c89565b509695505050505050565b600082601f830112613cc557600080fd5b81356020613cd5613a5f836139f4565b82815260059290921b84018101918181019086841115613cf457600080fd5b8286015b84811015613ca9578035613d0b8161392f565b8352918301918301613cf8565b60008060008060808587031215613d2e57600080fd5b8435613d39816138de565b9350602085013567ffffffffffffffff80821115613d5657600080fd5b613d6288838901613c45565b94506040870135915080821115613d7857600080fd5b613d8488838901613c45565b93506060870135915080821115613d9a57600080fd5b50613da787828801613cb4565b91505092959194509250565b60008060408385031215613dc657600080fd5b8235613dd1816138de565b9150602083013567ffffffffffffffff811115613ded57600080fd5b613df985828601613c45565b9150509250929050565b600080600060608486031215613e1857600080fd5b8335613e23816138de565b92506020840135613e33816138de565b9150604084013567ffffffffffffffff811115613e4f57600080fd5b613e5b86828701613cb4565b9150509250925092565b60008060008060808587031215613e7b57600080fd5b8435613e86816138de565b93506020850135613e96816138de565b92506040850135613ea6816138de565b91506060850135613eb68161392f565b939692955090935050565b600080600060608486031215613ed657600080fd5b8335613ee1816138de565b92506020840135613ef1816138de565b91506040840135613f018161392f565b809150509250925092565b60008060408385031215613f1f57600080fd5b8235613f2a816138de565b9150602083013567ffffffffffffffff811115613f4657600080fd5b613df985828601613a40565b60005b83811015613f6d578181015183820152602001613f55565b83811115613f7c576000848401525b50505050565b60008151808452613f9a816020860160208601613f52565b601f01601f19169290920160200192915050565b8260070b8152604060208201526000610f726040830184613f82565b600080600060608486031215613fdf57600080fd5b8335613fea816138de565b92506020840135613e338161392f565b60008060006060848603121561400f57600080fd5b833561401a816138de565b9250602084013561402a816138de565b929592945050506040919091013590565b80358015158114610df257600080fd5b600082601f83011261405c57600080fd5b8135602061406c613a5f836139f4565b8281526060928302850182019282820191908785111561408b57600080fd5b8387015b858110156140eb5781818a0312156140a75760008081fd5b6140af613954565b81356140ba816138de565b8152818601356140c98161392f565b8187015260406140da83820161403b565b90820152845292840192810161408f565b5090979650505050505050565b6000806040838503121561410b57600080fd5b67ffffffffffffffff808435111561412257600080fd5b6020843585018603121561413557600080fd5b61413d61397d565b818535860135111561414e57600080fd5b61415e868635870180350161404b565b81529250602084013581101561417357600080fd5b6020840135840185601f82011261418957600080fd5b614196613a5f82356139f4565b81358082526020808301929160051b8401018810156141b457600080fd5b602083015b6020843560051b85010181101561432f5784813511156141d857600080fd5b803584016060818b03601f190112156141f057600080fd5b6141f8613954565b61420560208301356138de565b60208201358152866040830135111561421d57600080fd5b6142308b6020604085013585010161404b565b6020820152866060830135111561424657600080fd5b6060820135820191508a603f83011261425e57600080fd5b61426e613a5f60208401356139f4565b602083810135808352908201919060071b84016040018d81111561429157600080fd5b6040850194505b80851015614319576080858f0312156142b057600080fd5b6142b86139a0565b6142c286356138de565b853581526142d360208701356138de565b602086013560208201526142ea604087013561392f565b604086013560408201526143006060870161403b565b6060820152835260809490940193602090920191614298565b50604083015250845250602092830192016141b9565b50809450505050509250929050565b60008060006060848603121561435357600080fd5b833561435e816138de565b9250602084013567ffffffffffffffff8082111561437b57600080fd5b61438787838801613c45565b9350604086013591508082111561439d57600080fd5b50613e5b86828701613cb4565b6000806000606084860312156143bf57600080fd5b83356143ca816138de565b925060208401356143da816138de565b91506143e86040850161403b565b90509250925092565b634e487b7160e01b600052603260045260246000fd5b600181811c9082168061441b57607f821691505b602082108114156117f257634e487b7160e01b600052602260045260246000fd5b6000825161444e818460208701613f52565b9190910192915050565b8051600381900b8114610df257600080fd5b60006020828403121561447c57600080fd5b6114a482614458565b6001600160a01b0383168152604060208201526000610f726040830184613f82565b8215158152604060208201526000610f726040830184613f82565b600080604083850312156144d557600080fd5b6144de83614458565b9150602083015167ffffffffffffffff8111156144fa57600080fd5b8301601f8101851361450b57600080fd5b8051614519613a5f82613a18565b81815286602083850101111561452e57600080fd5b61453f826020830160208601613f52565b8093505050509250929050565b60006020828403121561455e57600080fd5b81516114a48161392f565b600081518084526020808501808196508360051b8101915082860160005b858110156146205782840389528151604081518652868201519150808787015281511515818701528682015160606001600160a01b03808316828a015283850151935060a09250608083818b01526145e260e08b0186613f82565b928601518a8403603f1901858c01529294506145fe8584613f82565b9501511660c09890980197909752505098850198935090840190600101614587565b5091979650505050505050565b6000610160825181855261464382860182613f82565b9150506020830151848203602086015261465d8282613f82565b915050604083015161467a60408601826001600160a01b03169052565b50606083015184820360608601526146928282613f82565b91505060808301516146a8608086018215159052565b5060a08301516146bd60a086018260070b9052565b5060c08301516146d160c086018215159052565b5060e083015184820360e08601526146e98282614569565b9150506101008084015161472582870182805160070b82526001600160a01b036020820151166020830152604081015160070b60408301525050565b5090949350505050565b600081518084526020808501945080840160005b83811015613ba1578151805160070b8852838101516001600160a01b03908116858a01526040808301511515908a01526060808301511515908a0152608091820151169088015260a09096019590820190600101614743565b600060608083526147af8184018761462d565b6020848203818601526147c2828861472f565b91506040858303818701528287518085528385019150838901945060005b818110156148435785518051600790810b855286820151810b8786015285820151900b85850152878101516001600160a01b039081168986015260808083015115159086015260a09182015116908401529484019460c0909201916001016147e0565b50909a9950505050505050505050565b6000806040838503121561486657600080fd5b61486f83614458565b91506020830151613924816138de565b6000606082016001600160a01b038616835260208560070b818501526060604085015281855180845260808601915060808160051b870101935082870160005b828110156148ed57607f198887030184526148db868351613f82565b955092840192908401906001016148bf565b50939998505050505050505050565b60008060006060848603121561491157600080fd5b61491a84614458565b925060208085015161492b8161392f565b604086015190935067ffffffffffffffff81111561494857600080fd5b8501601f8101871361495957600080fd5b8051614967613a5f826139f4565b81815260059190911b8201830190838101908983111561498657600080fd5b928401925b828410156149ad57835161499e8161392f565b8252928401929084019061498b565b80955050505050509250925092565b600081518084526020808501945080840160005b83811015613ba15781516001600160a01b0316875295820195908201906001016149d0565b6001600160a01b0385168152608060208201526000614a1760808301866149bc565b8281036040840152614a2981866149bc565b90508281036060840152614a3d8185613b6e565b979650505050505050565b6001600160a01b0383168152604060208201526000610f7260408301846149bc565b606081526000614a7d606083018661462d565b90508360070b60208301528260030b6040830152949350505050565b60006001600160a01b03808616835280851660208401525060606040830152613bce6060830184613b6e565b6001600160a01b03841681528260070b6020820152606060408201526000613bce6060830184613b6e565b60008060408385031215614b0357600080fd5b614b0c83614458565b915060208301516139248161392f565b6001600160a01b0383168152604060208201526000610f726040830184614569565b6001600160a01b0383168152608081016114a46020830184805160070b82526001600160a01b036020820151166020830152604081015160070b60408301525050565b600060a0808352614b948184018961462d565b6020600789810b8287015260408960030b81880152606087850381890152614bbc858b61472f565b94506080888603818a0152858a518088528688019150868c01975060005b81811015614c345788518051880b845288810151880b8985015286810151880b8785015285810151880b86850152848101511515858501528a01516001600160a01b03168a8401529787019760c090920191600101614bda565b50909f9e505050505050505050505050505050565b600081518084526020808501945080840160005b83811015613ba157815180516001600160a01b031688528381015160070b8489015260409081015115159088015260609096019590820190600101614c5d565b600060408083526060855160208084870152614cbb83870183614c49565b9150858203818701528187518084528284019150828160051b850101838a0160005b83811015614d8957601f1987840301855281516001600160a01b03808251168552878201518a89870152614d138b870182614c49565b928c0151868403878e01528051808552908a0193600092508a01905b80831015614d735784518051851683528b81015185168c8401528e81015160070b8f8401528d015115158d830152938a019360019290920191608090910190614d2f565b5097890197955050509186019150600101614cdd565b50909b9a5050505050505050505050565b6001600160a01b0384168152606060208201526000614dbc60608301856149bc565b8281036040840152614dce8185613b6e565b9695505050505050565b6020815260006114a4602083018461462d565b6001600160a01b0383168152604060208201526000610f72604083018461462d565b634e487b7160e01b600052602160045260246000fdfea26469706673582212202f7c379fdcbe4544efc2d07d2d936722135c9adad65baff3f6b9c45105d96b2d64736f6c63430008090033",
  "linkReferences": {},
  "deployedLinkReferences": {}
}