{
  "_format": "hh-sol-artifact-1",
  "contractName": "AssociateDissociateHRC",
  "sourceName": "contracts/AssociateDissociateHRC.sol",
  "abi": [
    {
      "inputs": [],
      "name": "associate",
      "outputs": [
        {
          "internalType": "uint256",
          "name": "responseCode",
          "type": "uint256"
        }
      ],
      "stateMutability": "nonpayable",
      "type": "function"
    },
    {
      "inputs": [],
      "name": "dissociate",
      "outputs": [
        {
          "internalType": "uint256",
          "name": "responseCode",
          "type": "uint256"
        }
      ],
      "stateMutability": "nonpayable",
      "type": "function"
    },
    {
      "inputs": [
        {
          "internalType": "address",
          "name": "tokenAddress",
          "type": "address"
        }
      ],
      "name": "tokenAssociate",
      "outputs": [],
      "stateMutability": "nonpayable",
      "type": "function"
    },
    {
      "inputs": [
        {
          "internalType": "address",
          "name": "tokenAddress",
          "type": "address"
        }
      ],
      "name": "tokenDissociate",
      "outputs": [],
      "stateMutability": "nonpayable",
      "type": "function"
    }
  ],
  "bytecode": "0x608060405234801561001057600080fd5b50610370806100206000396000f3fe608060405234801561001057600080fd5b506004361061004c5760003560e01c80630a754de6146100515780631a2a5e151461006b5780634c46d7ce146100805780635c9217e014610093575b600080fd5b61005961009b565b60405190815260200160405180910390f35b61007e6100793660046102f1565b610115565b005b61007e61008e3660046102f1565b6101e9565b6100596102b4565b6000306001600160a01b0316630a754de66040518163ffffffff1660e01b8152600401602060405180830381600087803b1580156100d857600080fd5b505af11580156100ec573d6000803e3d6000fd5b505050506040513d601f19601f820116820180604052508101906101109190610321565b905090565b6000816001600160a01b0316630a754de66040518163ffffffff1660e01b8152600401602060405180830381600087803b15801561015257600080fd5b505af1158015610166573d6000803e3d6000fd5b505050506040513d601f19601f8201168201806040525081019061018a9190610321565b9050600381900b6016146101e55760405162461bcd60e51b815260206004820152601060248201527f4173736f6369617465204661696c65640000000000000000000000000000000060448201526064015b60405180910390fd5b5050565b6000816001600160a01b0316635c9217e06040518163ffffffff1660e01b8152600401602060405180830381600087803b15801561022657600080fd5b505af115801561023a573d6000803e3d6000fd5b505050506040513d601f19601f8201168201806040525081019061025e9190610321565b9050600381900b6016146101e55760405162461bcd60e51b815260206004820152601160248201527f446973736f6369617465204661696c656400000000000000000000000000000060448201526064016101dc565b6000306001600160a01b0316635c9217e06040518163ffffffff1660e01b8152600401602060405180830381600087803b1580156100d857600080fd5b60006020828403121561030357600080fd5b81356001600160a01b038116811461031a57600080fd5b9392505050565b60006020828403121561033357600080fd5b505191905056fea2646970667358221220b558bd9f7692fcd8413f1724360b42d0feacf9ed47798ef700b72915a23ae1ad64736f6c63430008090033",
  "linkReferences": {},
  "deployedLinkReferences": {}
}