{
  "_format": "hh-sol-artifact-1",
  "contractName": "HRC",
  "sourceName": "contracts/AssociateDissociateHRC.sol",
  "abi": [
    {
      "inputs": [],
      "name": "associate",
      "outputs": [
        {
          "internalType": "uint256",
          "name": "responseCode",
          "type": "uint256"
        }
      ],
      "stateMutability": "nonpayable",
      "type": "function"
    },
    {
      "inputs": [],
      "name": "dissociate",
      "outputs": [
        {
          "internalType": "uint256",
          "name": "responseCode",
          "type": "uint256"
        }
      ],
      "stateMutability": "nonpayable",
      "type": "function"
    }
  ],
  "bytecode": "0x608060405234801561001057600080fd5b5061017d806100206000396000f3fe608060405234801561001057600080fd5b50600436106100365760003560e01c80630a754de61461003b5780635c9217e014610055575b600080fd5b61004361005d565b60405190815260200160405180910390f35b6100436100e4565b60003073ffffffffffffffffffffffffffffffffffffffff16630a754de66040518163ffffffff1660e01b8152600401602060405180830381600087803b1580156100a757600080fd5b505af11580156100bb573d6000803e3d6000fd5b505050506040513d601f19601f820116820180604052508101906100df919061012e565b905090565b60003073ffffffffffffffffffffffffffffffffffffffff16635c9217e06040518163ffffffff1660e01b8152600401602060405180830381600087803b1580156100a757600080fd5b60006020828403121561014057600080fd5b505191905056fea264697066735822122034a190376c6369669af134a9230f9b4f23df0701a507d7e8021e2dc1db76838364736f6c63430008090033",
  "linkReferences": {},
  "deployedLinkReferences": {}
}