{
  "_format": "hh-sol-artifact-1",
  "contractName": "Child",
  "sourceName": "contracts/Parent.sol",
  "abi": [
    {
      "inputs": [],
      "stateMutability": "nonpayable",
      "type": "constructor"
    },
    {
      "anonymous": false,
      "inputs": [
        {
          "indexed": false,
          "internalType": "address",
          "name": "addr",
          "type": "address"
        }
      ],
      "name": "Create2Vacate",
      "type": "event"
    },
    {
      "anonymous": false,
      "inputs": [
        {
          "indexed": true,
          "internalType": "address",
          "name": "_from",
          "type": "address"
        },
        {
          "indexed": true,
          "internalType": "address",
          "name": "_to",
          "type": "address"
        },
        {
          "indexed": false,
          "internalType": "uint256",
          "name": "amount",
          "type": "uint256"
        }
      ],
      "name": "Transfer",
      "type": "event"
    },
    {
      "inputs": [],
      "name": "vacateAddress",
      "outputs": [],
      "stateMutability": "nonpayable",
      "type": "function"
    },
    {
      "stateMutability": "payable",
      "type": "receive"
    }
  ],
  "bytecode": "0x608060405234801561001057600080fd5b50600080546001600160a01b0319163317905560fa806100316000396000f3fe60806040526004361060205760003560e01c8063737bc3c914606257600080fd5b36605d57604051348152309033907fddf252ad1be2c89b69c2b068fc378daa952ba7f163c4a11628f55a4df523b3ef9060200160405180910390a3005b600080fd5b348015606d57600080fd5b5060746076565b005b6040513081527f05f4cdb0006e7dcbffd6cada5f35f6938b85d0b79d1c2a53752186c6ea4219049060200160405180910390a160005473ffffffffffffffffffffffffffffffffffffffff16fffea2646970667358221220df5e55cf4a9e45f0dbeffc540229cd9cb64a0a574d1dfbf81c8ee8365126459d64736f6c63430008090033",
  "linkReferences": {},
  "deployedLinkReferences": {}
}