{
  "_format": "hh-sol-artifact-1",
  "contractName": "Child",
  "sourceName": "contracts/Parent.sol",
  "abi": [
    {
      "anonymous": false,
      "inputs": [
        {
          "indexed": true,
          "internalType": "address",
          "name": "_from",
          "type": "address"
        },
        {
          "indexed": true,
          "internalType": "address",
          "name": "_to",
          "type": "address"
        },
        {
          "indexed": false,
          "internalType": "uint256",
          "name": "amount",
          "type": "uint256"
        }
      ],
      "name": "Transfer",
      "type": "event"
    },
    {
      "inputs": [],
      "name": "getAmount",
      "outputs": [
        {
          "internalType": "uint256",
          "name": "",
          "type": "uint256"
        }
      ],
      "stateMutability": "view",
      "type": "function"
    },
    {
      "inputs": [
        {
          "internalType": "uint256",
          "name": "_amount",
          "type": "uint256"
        }
      ],
      "name": "spend",
      "outputs": [
        {
          "internalType": "bool",
          "name": "",
          "type": "bool"
        }
      ],
      "stateMutability": "nonpayable",
      "type": "function"
    },
    {
      "stateMutability": "payable",
      "type": "receive"
    }
  ],
  "bytecode": "0x608060405234801561001057600080fd5b50610264806100206000396000f3fe60806040526004361061002d5760003560e01c80631dbf3bc714610039578063d321fe291461007657610034565b3661003457005b600080fd5b34801561004557600080fd5b50610060600480360381019061005b9190610184565b6100a1565b60405161006d91906101cb565b60405180910390f35b34801561008257600080fd5b5061008b610167565b60405161009891906101e6565b60405180910390f35b6000814710156100b057600080fd5b600073ffffffffffffffffffffffffffffffffffffffff166108fc839081150290604051600060405180830381858888f193505050501580156100f7573d6000803e3d6000fd5b50600073ffffffffffffffffffffffffffffffffffffffff163073ffffffffffffffffffffffffffffffffffffffff167fddf252ad1be2c89b69c2b068fc378daa952ba7f163c4a11628f55a4df523b3ef8460405161015691906101e6565b60405180910390a360019050919050565b600047905090565b60008135905061017e81610217565b92915050565b60006020828403121561019657600080fd5b60006101a48482850161016f565b91505092915050565b6101b681610201565b82525050565b6101c58161020d565b82525050565b60006020820190506101e060008301846101ad565b92915050565b60006020820190506101fb60008301846101bc565b92915050565b60008115159050919050565b6000819050919050565b6102208161020d565b811461022b57600080fd5b5056fea26469706673582212206076dfa143b82e193989ada0695a9c32bb97d4e78113eec8f09c8da1abcb357864736f6c63430008040033",
  "linkReferences": {},
  "deployedLinkReferences": {}
}