{
  "_format": "hh-sol-artifact-1",
  "contractName": "Parent",
  "sourceName": "contracts/Parent.sol",
  "abi": [
    {
      "inputs": [],
      "stateMutability": "payable",
      "type": "constructor"
    },
    {
      "anonymous": false,
      "inputs": [
        {
          "indexed": false,
          "internalType": "address",
          "name": "addr",
          "type": "address"
        }
      ],
      "name": "Create2Deploy",
      "type": "event"
    },
    {
      "anonymous": false,
      "inputs": [
        {
          "indexed": false,
          "internalType": "string",
          "name": "message",
          "type": "string"
        }
      ],
      "name": "ParentActivityLog",
      "type": "event"
    },
    {
      "inputs": [
        {
          "internalType": "bytes",
          "name": "bytecode",
          "type": "bytes"
        },
        {
          "internalType": "uint256",
          "name": "_salt",
          "type": "uint256"
        }
      ],
      "name": "create2Deploy",
      "outputs": [],
      "stateMutability": "payable",
      "type": "function"
    },
    {
      "inputs": [
        {
          "internalType": "uint256",
          "name": "amount",
          "type": "uint256"
        }
      ],
      "name": "createChild",
      "outputs": [
        {
          "internalType": "address",
          "name": "",
          "type": "address"
        }
      ],
      "stateMutability": "nonpayable",
      "type": "function"
    },
    {
      "inputs": [],
      "name": "getAccountBalance",
      "outputs": [
        {
          "internalType": "uint256",
          "name": "",
          "type": "uint256"
        }
      ],
      "stateMutability": "view",
      "type": "function"
    },
    {
      "inputs": [
        {
          "internalType": "bytes",
          "name": "bytecode",
          "type": "bytes"
        },
        {
          "internalType": "uint256",
          "name": "_salt",
          "type": "uint256"
        }
      ],
      "name": "getAddress",
      "outputs": [
        {
          "internalType": "address",
          "name": "",
          "type": "address"
        }
      ],
      "stateMutability": "view",
      "type": "function"
    },
    {
      "inputs": [],
      "name": "getBytecode",
      "outputs": [
        {
          "internalType": "bytes",
          "name": "",
          "type": "bytes"
        }
      ],
      "stateMutability": "pure",
      "type": "function"
    },
    {
      "inputs": [],
      "name": "getSender",
      "outputs": [
        {
          "internalType": "address",
          "name": "",
          "type": "address"
        }
      ],
      "stateMutability": "view",
      "type": "function"
    },
    {
      "inputs": [],
      "name": "identifier",
      "outputs": [
        {
          "internalType": "bytes4",
          "name": "",
          "type": "bytes4"
        }
      ],
      "stateMutability": "pure",
      "type": "function"
    },
    {
      "inputs": [],
      "name": "multiplySimpleNumbers",
      "outputs": [
        {
          "internalType": "uint256",
          "name": "",
          "type": "uint256"
        }
      ],
      "stateMutability": "pure",
      "type": "function"
    },
    {
      "stateMutability": "payable",
      "type": "receive"
    }
  ],
  "bytecode": "0x60806040526000604051610012906100b7565b604051809103906000f08015801561002e573d6000803e3d6000fd5b50600080546001600160a01b0319166001600160a01b038316179055604080516020808252601c908201527f43726561746564206669727374206368696c6420636f6e747261637400000000918101919091529091507f8f5fd6a78ac856dc2d622ab0db626cf919c1911133d4b038171534ea477e5d159060600160405180910390a1506100c4565b61012b8061079a83390190565b6106c7806100d36000396000f3fe60806040526004361061007f5760003560e01c80637998a1c41161004e5780637998a1c4146101265780638070450f1461016557806394ca2cb51461017957806394f0f9d81461020857600080fd5b80630419eca51461008b57806352c7420d146100c85780635e01eb5a146100ea5780636896fabf146100fd57600080fd5b3661008657005b600080fd5b34801561009757600080fd5b506100ab6100a63660046103ea565b61021d565b6040516001600160a01b0390911681526020015b60405180910390f35b3480156100d457600080fd5b506100dd610334565b6040516100bf9190610433565b3480156100f657600080fd5b50336100ab565b34801561010957600080fd5b506001546001600160a01b0316315b6040519081526020016100bf565b34801561013257600080fd5b506040517fffffffff000000000000000000000000000000000000000000000000000000006000351681526020016100bf565b34801561017157600080fd5b506004610118565b34801561018557600080fd5b506100ab610194366004610495565b8151602092830120604080517fff00000000000000000000000000000000000000000000000000000000000000818601523060601b6bffffffffffffffffffffffff191660218201526035810193909352605580840192909252805180840390920182526075909201909152805191012090565b61021b610216366004610495565b610384565b005b600060405161022b906103dd565b604051809103906000f080158015610247573d6000803e3d6000fd5b50600180547fffffffffffffffffffffffff0000000000000000000000000000000000000000166001600160a01b0392909216919091179055604080516020808252601d908201527f43726561746564207365636f6e64206368696c6420636f6e74726163740000008183015290517f8f5fd6a78ac856dc2d622ab0db626cf919c1911133d4b038171534ea477e5d15916060908290030190a18115610323576001546040516001600160a01b03909116906108fc8415029084906000818181858888f19350505050158015610321573d6000803e3d6000fd5b505b50506001546001600160a01b031690565b6060600060405180602001610348906103dd565b6020820181038252601f19601f8201166040525090508060405160200161036f919061054a565b60405160208183030381529060405291505090565b60008183516020850134f59050803b61039c57600080fd5b6040516001600160a01b03821681527f605601ca79beaa36a9f7d7d60aa42a86d497babf7b13a5d52aaac233054dc4a69060200160405180910390a1505050565b61012b8061056783390190565b6000602082840312156103fc57600080fd5b5035919050565b60005b8381101561041e578181015183820152602001610406565b8381111561042d576000848401525b50505050565b6020815260008251806020840152610452816040850160208701610403565b601f01601f19169190910160400192915050565b7f4e487b7100000000000000000000000000000000000000000000000000000000600052604160045260246000fd5b600080604083850312156104a857600080fd5b823567ffffffffffffffff808211156104c057600080fd5b818501915085601f8301126104d457600080fd5b8135818111156104e6576104e6610466565b604051601f8201601f19908116603f0116810190838211818310171561050e5761050e610466565b8160405282815288602084870101111561052757600080fd5b826020860160208301376000602093820184015298969091013596505050505050565b6000825161055c818460208701610403565b919091019291505056fe608060405234801561001057600080fd5b50600080546001600160a01b0319163317905560fa806100316000396000f3fe60806040526004361060205760003560e01c8063737bc3c914606257600080fd5b36605d57604051348152309033907fddf252ad1be2c89b69c2b068fc378daa952ba7f163c4a11628f55a4df523b3ef9060200160405180910390a3005b600080fd5b348015606d57600080fd5b5060746076565b005b6040513081527f05f4cdb0006e7dcbffd6cada5f35f6938b85d0b79d1c2a53752186c6ea4219049060200160405180910390a160005473ffffffffffffffffffffffffffffffffffffffff16fffea2646970667358221220df5e55cf4a9e45f0dbeffc540229cd9cb64a0a574d1dfbf81c8ee8365126459d64736f6c63430008090033a26469706673582212202abdbf3b1b3da32883aca3b5149bdca3b36e425a4b61407606fddb42ea63a24064736f6c63430008090033608060405234801561001057600080fd5b50600080546001600160a01b0319163317905560fa806100316000396000f3fe60806040526004361060205760003560e01c8063737bc3c914606257600080fd5b36605d57604051348152309033907fddf252ad1be2c89b69c2b068fc378daa952ba7f163c4a11628f55a4df523b3ef9060200160405180910390a3005b600080fd5b348015606d57600080fd5b5060746076565b005b6040513081527f05f4cdb0006e7dcbffd6cada5f35f6938b85d0b79d1c2a53752186c6ea4219049060200160405180910390a160005473ffffffffffffffffffffffffffffffffffffffff16fffea2646970667358221220df5e55cf4a9e45f0dbeffc540229cd9cb64a0a574d1dfbf81c8ee8365126459d64736f6c63430008090033",
  "linkReferences": {},
  "deployedLinkReferences": {}
}