{
  "_format": "hh-sol-artifact-1",
  "contractName": "Parent",
  "sourceName": "contracts/Parent.sol",
  "abi": [
    {
      "inputs": [],
      "stateMutability": "payable",
      "type": "constructor"
    },
    {
      "anonymous": false,
      "inputs": [
        {
          "indexed": false,
          "internalType": "string",
          "name": "message",
          "type": "string"
        }
      ],
      "name": "ParentActivityLog",
      "type": "event"
    },
    {
      "inputs": [
        {
          "internalType": "uint256",
          "name": "amount",
          "type": "uint256"
        }
      ],
      "name": "createChild",
      "outputs": [
        {
          "internalType": "address",
          "name": "",
          "type": "address"
        }
      ],
      "stateMutability": "nonpayable",
      "type": "function"
    },
    {
      "inputs": [],
      "name": "getAccountBalance",
      "outputs": [
        {
          "internalType": "uint256",
          "name": "",
          "type": "uint256"
        }
      ],
      "stateMutability": "view",
      "type": "function"
    },
    {
      "inputs": [],
      "name": "getSender",
      "outputs": [
        {
          "internalType": "address",
          "name": "",
          "type": "address"
        }
      ],
      "stateMutability": "view",
      "type": "function"
    },
    {
      "inputs": [],
      "name": "identifier",
      "outputs": [
        {
          "internalType": "bytes4",
          "name": "",
          "type": "bytes4"
        }
      ],
      "stateMutability": "pure",
      "type": "function"
    },
    {
      "inputs": [],
      "name": "multiplySimpleNumbers",
      "outputs": [
        {
          "internalType": "uint256",
          "name": "",
          "type": "uint256"
        }
      ],
      "stateMutability": "pure",
      "type": "function"
    },
    {
      "stateMutability": "payable",
      "type": "receive"
    }
  ],
  "bytecode": "0x60806040526000604051610012906100b7565b604051809103906000f08015801561002e573d6000803e3d6000fd5b50600080546001600160a01b0319166001600160a01b038316179055604080516020808252601c908201527f43726561746564206669727374206368696c6420636f6e747261637400000000918101919091529091507f8f5fd6a78ac856dc2d622ab0db626cf919c1911133d4b038171534ea477e5d159060600160405180910390a1506100c3565b609a8061041383390190565b610341806100d26000396000f3fe60806040526004361061005e5760003560e01c80636896fabf116100435780636896fabf146100ba5780637998a1c4146100e35780638070450f1461012257600080fd5b80630419eca51461006a5780635e01eb5a146100a757600080fd5b3661006557005b600080fd5b34801561007657600080fd5b5061008a610085366004610259565b610136565b6040516001600160a01b0390911681526020015b60405180910390f35b3480156100b357600080fd5b503361008a565b3480156100c657600080fd5b506001546001600160a01b0316315b60405190815260200161009e565b3480156100ef57600080fd5b506040517fffffffff0000000000000000000000000000000000000000000000000000000060003516815260200161009e565b34801561012e57600080fd5b5060046100d5565b60006040516101449061024d565b604051809103906000f080158015610160573d6000803e3d6000fd5b50600180547fffffffffffffffffffffffff0000000000000000000000000000000000000000166001600160a01b0392909216919091179055604080516020808252601d908201527f43726561746564207365636f6e64206368696c6420636f6e74726163740000008183015290517f8f5fd6a78ac856dc2d622ab0db626cf919c1911133d4b038171534ea477e5d15916060908290030190a1811561023c576001546040516001600160a01b03909116906108fc8415029084906000818181858888f1935050505015801561023a573d6000803e3d6000fd5b505b50506001546001600160a01b031690565b609a8061027283390190565b60006020828403121561026a578081fd5b503591905056fe6080604052348015600f57600080fd5b50607c8061001e6000396000f3fe608060405236604157604051348152309033907fddf252ad1be2c89b69c2b068fc378daa952ba7f163c4a11628f55a4df523b3ef9060200160405180910390a3005b600080fdfea26469706673582212207d767a886855844f814472cf01fd1b1c127e3b4339920eb1a00c489b235a84d564736f6c63430008040033a2646970667358221220edb5933763b8951ffba3c8f935603dc1673f141908f9120e81ecf53e57bee27464736f6c634300080400336080604052348015600f57600080fd5b50607c8061001e6000396000f3fe608060405236604157604051348152309033907fddf252ad1be2c89b69c2b068fc378daa952ba7f163c4a11628f55a4df523b3ef9060200160405180910390a3005b600080fdfea26469706673582212207d767a886855844f814472cf01fd1b1c127e3b4339920eb1a00c489b235a84d564736f6c63430008040033",
  "linkReferences": {},
  "deployedLinkReferences": {}
}