{
  "_format": "hh-sol-artifact-1",
  "contractName": "Parent",
  "sourceName": "contracts/Parent.sol",
  "abi": [
    {
      "inputs": [],
      "stateMutability": "payable",
      "type": "constructor"
    },
    {
      "anonymous": false,
      "inputs": [
        {
          "indexed": false,
          "internalType": "string",
          "name": "message",
          "type": "string"
        }
      ],
      "name": "ParentActivityLog",
      "type": "event"
    },
    {
      "inputs": [
        {
          "internalType": "uint256",
          "name": "amount",
          "type": "uint256"
        }
      ],
      "name": "createChild",
      "outputs": [
        {
          "internalType": "address",
          "name": "",
          "type": "address"
        }
      ],
      "stateMutability": "nonpayable",
      "type": "function"
    },
    {
      "stateMutability": "payable",
      "type": "receive"
    }
  ],
  "bytecode": "0x60806040526000604051610012906100e6565b604051809103906000f08015801561002e573d6000803e3d6000fd5b509050806000806002811061006c577f4e487b7100000000000000000000000000000000000000000000000000000000600052603260045260246000fd5b0160006101000a81548173ffffffffffffffffffffffffffffffffffffffff021916908373ffffffffffffffffffffffffffffffffffffffff1602179055507f8f5fd6a78ac856dc2d622ab0db626cf919c1911133d4b038171534ea477e5d156040516100d890610115565b60405180910390a15061016f565b60f78061064583390190565b60006100ff601c83610135565b915061010a82610146565b602082019050919050565b6000602082019050818103600083015261012e816100f2565b9050919050565b600082825260208201905092915050565b7f43726561746564206669727374206368696c6420636f6e747261637400000000600082015250565b6104c78061017e6000396000f3fe6080604052600436106100225760003560e01c80630419eca51461002e57610029565b3661002957005b600080fd5b34801561003a57600080fd5b5061005560048036038101906100509190610277565b61006b565b60405161006291906102d2565b60405180910390f35b600060405161007990610256565b604051809103906000f080158015610095573d6000803e3d6000fd5b5060006001600281106100d1577f4e487b7100000000000000000000000000000000000000000000000000000000600052603260045260246000fd5b0160006101000a81548173ffffffffffffffffffffffffffffffffffffffff021916908373ffffffffffffffffffffffffffffffffffffffff1602179055507f8f5fd6a78ac856dc2d622ab0db626cf919c1911133d4b038171534ea477e5d1560405161013d906102ed565b60405180910390a160008211156101f2576000600160028110610189577f4e487b7100000000000000000000000000000000000000000000000000000000600052603260045260246000fd5b0160009054906101000a900473ffffffffffffffffffffffffffffffffffffffff1673ffffffffffffffffffffffffffffffffffffffff166108fc839081150290604051600060405180830381858888f193505050501580156101f0573d6000803e3d6000fd5b505b600060016002811061022d577f4e487b7100000000000000000000000000000000000000000000000000000000600052603260045260246000fd5b0160009054906101000a900473ffffffffffffffffffffffffffffffffffffffff169050919050565b60f78061039b83390190565b60008135905061027181610383565b92915050565b60006020828403121561028957600080fd5b600061029784828501610262565b91505092915050565b6102a98161031e565b82525050565b60006102bc601d8361030d565b91506102c78261035a565b602082019050919050565b60006020820190506102e760008301846102a0565b92915050565b60006020820190508181036000830152610306816102af565b9050919050565b600082825260208201905092915050565b600061032982610330565b9050919050565b600073ffffffffffffffffffffffffffffffffffffffff82169050919050565b6000819050919050565b7f43726561746564207365636f6e64206368696c6420636f6e7472616374000000600082015250565b61038c81610350565b811461039757600080fd5b5056fe608060405234801561001057600080fd5b5060d88061001f6000396000f3fe608060405236606d573073ffffffffffffffffffffffffffffffffffffffff163373ffffffffffffffffffffffffffffffffffffffff167fddf252ad1be2c89b69c2b068fc378daa952ba7f163c4a11628f55a4df523b3ef3460405160639190607f565b60405180910390a3005b600080fd5b6079816098565b82525050565b6000602082019050609260008301846072565b92915050565b600081905091905056fea2646970667358221220b94efca641a0cf62b2bd505f79fe4be165c582520bc615e5c5fa3402156eafd864736f6c63430008040033a2646970667358221220e201e4b4097f725ce2de66f5ad3bb3d1dca2d2a58ca96a52d21a74a471da572d64736f6c63430008040033608060405234801561001057600080fd5b5060d88061001f6000396000f3fe608060405236606d573073ffffffffffffffffffffffffffffffffffffffff163373ffffffffffffffffffffffffffffffffffffffff167fddf252ad1be2c89b69c2b068fc378daa952ba7f163c4a11628f55a4df523b3ef3460405160639190607f565b60405180910390a3005b600080fd5b6079816098565b82525050565b6000602082019050609260008301846072565b92915050565b600081905091905056fea2646970667358221220b94efca641a0cf62b2bd505f79fe4be165c582520bc615e5c5fa3402156eafd864736f6c63430008040033",
  "linkReferences": {},
  "deployedLinkReferences": {}
}