{
  "_format": "hh-sol-artifact-1",
  "contractName": "Parent",
  "sourceName": "contracts/Parent.sol",
  "abi": [
    {
      "inputs": [],
      "stateMutability": "payable",
      "type": "constructor"
    },
    {
      "anonymous": false,
      "inputs": [
        {
          "indexed": false,
          "internalType": "string",
          "name": "message",
          "type": "string"
        }
      ],
      "name": "ParentActivityLog",
      "type": "event"
    },
    {
      "inputs": [
        {
          "internalType": "uint256",
          "name": "amount",
          "type": "uint256"
        }
      ],
      "name": "createChild",
      "outputs": [
        {
          "internalType": "address",
          "name": "",
          "type": "address"
        }
      ],
      "stateMutability": "nonpayable",
      "type": "function"
    },
    {
      "inputs": [],
      "name": "getAccountBalance",
      "outputs": [
        {
          "internalType": "uint256",
          "name": "",
          "type": "uint256"
        }
      ],
      "stateMutability": "view",
      "type": "function"
    },
    {
      "inputs": [],
      "name": "getSender",
      "outputs": [
        {
          "internalType": "address",
          "name": "",
          "type": "address"
        }
      ],
      "stateMutability": "view",
      "type": "function"
    },
    {
      "inputs": [],
      "name": "identifier",
      "outputs": [
        {
          "internalType": "bytes4",
          "name": "",
          "type": "bytes4"
        }
      ],
      "stateMutability": "pure",
      "type": "function"
    },
    {
      "inputs": [],
      "name": "multiplySimpleNumbers",
      "outputs": [
        {
          "internalType": "uint256",
          "name": "",
          "type": "uint256"
        }
      ],
      "stateMutability": "pure",
      "type": "function"
    },
    {
      "stateMutability": "payable",
      "type": "receive"
    }
  ],
  "bytecode": "0x60806040526000604051610012906100c0565b604051809103906000f08015801561002e573d6000803e3d6000fd5b509050806000806002811061004657610045610120565b5b0160006101000a81548173ffffffffffffffffffffffffffffffffffffffff021916908373ffffffffffffffffffffffffffffffffffffffff1602179055507f8f5fd6a78ac856dc2d622ab0db626cf919c1911133d4b038171534ea477e5d156040516100b2906100ef565b60405180910390a150610178565b60f7806107fc83390190565b60006100d9601c8361010f565b91506100e48261014f565b602082019050919050565b60006020820190508181036000830152610108816100cc565b9050919050565b600082825260208201905092915050565b7f4e487b7100000000000000000000000000000000000000000000000000000000600052603260045260246000fd5b7f43726561746564206669727374206368696c6420636f6e747261637400000000600082015250565b610675806101876000396000f3fe60806040526004361061004e5760003560e01c80630419eca51461005a5780635e01eb5a146100975780636896fabf146100c25780637998a1c4146100ed5780638070450f1461011857610055565b3661005557005b600080fd5b34801561006657600080fd5b50610081600480360381019061007c919061036d565b610143565b60405161008e91906103ea565b60405180910390f35b3480156100a357600080fd5b506100ac6102bc565b6040516100b991906103ea565b60405180910390f35b3480156100ce57600080fd5b506100d76102c4565b6040516100e49190610440565b60405180910390f35b3480156100f957600080fd5b50610102610318565b60405161010f9190610405565b60405180910390f35b34801561012457600080fd5b5061012d610343565b60405161013a9190610440565b60405180910390f35b60006040516101519061034c565b604051809103906000f08015801561016d573d6000803e3d6000fd5b506000600160028110610183576101826104d4565b5b0160006101000a81548173ffffffffffffffffffffffffffffffffffffffff021916908373ffffffffffffffffffffffffffffffffffffffff1602179055507f8f5fd6a78ac856dc2d622ab0db626cf919c1911133d4b038171534ea477e5d156040516101ef90610420565b60405180910390a1600082111561027e576000600160028110610215576102146104d4565b5b0160009054906101000a900473ffffffffffffffffffffffffffffffffffffffff1673ffffffffffffffffffffffffffffffffffffffff166108fc839081150290604051600060405180830381858888f1935050505015801561027c573d6000803e3d6000fd5b505b6000600160028110610293576102926104d4565b5b0160009054906101000a900473ffffffffffffffffffffffffffffffffffffffff169050919050565b600033905090565b6000806001600281106102da576102d96104d4565b5b0160009054906101000a900473ffffffffffffffffffffffffffffffffffffffff1673ffffffffffffffffffffffffffffffffffffffff1631905090565b600080357fffffffff0000000000000000000000000000000000000000000000000000000016905090565b60006004905090565b60f78061054983390190565b60008135905061036781610531565b92915050565b60006020828403121561038357610382610503565b5b600061039184828501610358565b91505092915050565b6103a38161046c565b82525050565b6103b28161047e565b82525050565b60006103c5601d8361045b565b91506103d082610508565b602082019050919050565b6103e4816104ca565b82525050565b60006020820190506103ff600083018461039a565b92915050565b600060208201905061041a60008301846103a9565b92915050565b60006020820190508181036000830152610439816103b8565b9050919050565b600060208201905061045560008301846103db565b92915050565b600082825260208201905092915050565b6000610477826104aa565b9050919050565b60007fffffffff0000000000000000000000000000000000000000000000000000000082169050919050565b600073ffffffffffffffffffffffffffffffffffffffff82169050919050565b6000819050919050565b7f4e487b7100000000000000000000000000000000000000000000000000000000600052603260045260246000fd5b600080fd5b7f43726561746564207365636f6e64206368696c6420636f6e7472616374000000600082015250565b61053a816104ca565b811461054557600080fd5b5056fe608060405234801561001057600080fd5b5060d88061001f6000396000f3fe608060405236606d573073ffffffffffffffffffffffffffffffffffffffff163373ffffffffffffffffffffffffffffffffffffffff167fddf252ad1be2c89b69c2b068fc378daa952ba7f163c4a11628f55a4df523b3ef3460405160639190607f565b60405180910390a3005b600080fd5b6079816098565b82525050565b6000602082019050609260008301846072565b92915050565b600081905091905056fea2646970667358221220ea586cff48dcd1217f760d1f472aee583d4ad44ed2709c1dfc64e012c798e31464736f6c63430008070033a2646970667358221220986779c445b4d0d7b036341c851a5e6f7b4ec491201222820e95152b5581026064736f6c63430008070033608060405234801561001057600080fd5b5060d88061001f6000396000f3fe608060405236606d573073ffffffffffffffffffffffffffffffffffffffff163373ffffffffffffffffffffffffffffffffffffffff167fddf252ad1be2c89b69c2b068fc378daa952ba7f163c4a11628f55a4df523b3ef3460405160639190607f565b60405180910390a3005b600080fd5b6079816098565b82525050565b6000602082019050609260008301846072565b92915050565b600081905091905056fea2646970667358221220ea586cff48dcd1217f760d1f472aee583d4ad44ed2709c1dfc64e012c798e31464736f6c63430008070033",
  "linkReferences": {},
  "deployedLinkReferences": {}
}