{
  "_format": "hh-sol-artifact-1",
  "contractName": "Parent",
  "sourceName": "contracts/Parent.sol",
  "abi": [
    {
      "inputs": [],
      "stateMutability": "payable",
      "type": "constructor"
    },
    {
      "anonymous": false,
      "inputs": [
        {
          "indexed": false,
          "internalType": "string",
          "name": "message",
          "type": "string"
        }
      ],
      "name": "ParentActivityLog",
      "type": "event"
    },
    {
      "anonymous": false,
      "inputs": [
        {
          "indexed": true,
          "internalType": "address",
          "name": "_from",
          "type": "address"
        },
        {
          "indexed": true,
          "internalType": "address",
          "name": "_to",
          "type": "address"
        },
        {
          "indexed": false,
          "internalType": "uint256",
          "name": "amount",
          "type": "uint256"
        }
      ],
      "name": "Transfer",
      "type": "event"
    },
    {
      "inputs": [
        {
          "internalType": "uint256",
          "name": "amount",
          "type": "uint256"
        }
      ],
      "name": "createChild",
      "outputs": [],
      "stateMutability": "nonpayable",
      "type": "function"
    },
    {
      "inputs": [],
      "name": "donate",
      "outputs": [],
      "stateMutability": "payable",
      "type": "function"
    },
    {
      "inputs": [],
      "name": "getBalance",
      "outputs": [
        {
          "internalType": "uint256",
          "name": "",
          "type": "uint256"
        }
      ],
      "stateMutability": "view",
      "type": "function"
    },
    {
      "inputs": [
        {
          "internalType": "uint64",
          "name": "childIndex",
          "type": "uint64"
        }
      ],
      "name": "getChildAddress",
      "outputs": [
        {
          "internalType": "address",
          "name": "",
          "type": "address"
        }
      ],
      "stateMutability": "view",
      "type": "function"
    },
    {
      "inputs": [
        {
          "internalType": "uint64",
          "name": "childIndex",
          "type": "uint64"
        }
      ],
      "name": "getChildBalance",
      "outputs": [
        {
          "internalType": "uint256",
          "name": "",
          "type": "uint256"
        }
      ],
      "stateMutability": "view",
      "type": "function"
    },
    {
      "inputs": [
        {
          "internalType": "uint256",
          "name": "amount",
          "type": "uint256"
        },
        {
          "internalType": "uint64",
          "name": "childIndex",
          "type": "uint64"
        }
      ],
      "name": "transferToChild",
      "outputs": [
        {
          "internalType": "bool",
          "name": "",
          "type": "bool"
        }
      ],
      "stateMutability": "nonpayable",
      "type": "function"
    },
    {
      "stateMutability": "payable",
      "type": "receive"
    }
  ],
  "bytecode": "0x60806040526000604051610012906100e6565b604051809103906000f08015801561002e573d6000803e3d6000fd5b509050806000806002811061006c577f4e487b7100000000000000000000000000000000000000000000000000000000600052603260045260246000fd5b0160006101000a81548173ffffffffffffffffffffffffffffffffffffffff021916908373ffffffffffffffffffffffffffffffffffffffff1602179055507f8f5fd6a78ac856dc2d622ab0db626cf919c1911133d4b038171534ea477e5d156040516100d890610116565b60405180910390a150610170565b61028480610d2683390190565b6000610100601c83610136565b915061010b82610147565b602082019050919050565b6000602082019050818103600083015261012f816100f3565b9050919050565b600082825260208201905092915050565b7f43726561746564206669727374206368696c6420636f6e747261637400000000600082015250565b610ba78061017f6000396000f3fe6080604052600436106100595760003560e01c80630419eca51461006557806312065fe01461008e57806328d9cc60146100b957806353afe639146100f6578063ed88c68e14610133578063ee2e13cb1461013d57610060565b3661006057005b600080fd5b34801561007157600080fd5b5061008c600480360381019061008791906106b1565b61017a565b005b34801561009a57600080fd5b506100a3610302565b6040516100b0919061080e565b60405180910390f35b3480156100c557600080fd5b506100e060048036038101906100db9190610703565b61030a565b6040516100ed91906107d3565b60405180910390f35b34801561010257600080fd5b5061011d6004803603810190610118919061073f565b610465565b60405161012a91906107b8565b60405180910390f35b61013b61056a565b005b34801561014957600080fd5b50610164600480360381019061015f919061073f565b6105d1565b604051610171919061080e565b60405180910390f35b60405161018690610665565b604051809103906000f0801580156101a2573d6000803e3d6000fd5b5060006001600281106101de577f4e487b7100000000000000000000000000000000000000000000000000000000600052603260045260246000fd5b0160006101000a81548173ffffffffffffffffffffffffffffffffffffffff021916908373ffffffffffffffffffffffffffffffffffffffff1602179055507f8f5fd6a78ac856dc2d622ab0db626cf919c1911133d4b038171534ea477e5d1560405161024a906107ee565b60405180910390a160008111156102ff576000600160028110610296577f4e487b7100000000000000000000000000000000000000000000000000000000600052603260045260246000fd5b0160009054906101000a900473ffffffffffffffffffffffffffffffffffffffff1673ffffffffffffffffffffffffffffffffffffffff166108fc829081150290604051600060405180830381858888f193505050501580156102fd573d6000803e3d6000fd5b505b50565b600047905090565b60008247101561031957600080fd5b60008267ffffffffffffffff16148061033c575060018267ffffffffffffffff16145b61034557600080fd5b6000808367ffffffffffffffff166002811061038a577f4e487b7100000000000000000000000000000000000000000000000000000000600052603260045260246000fd5b0160009054906101000a900473ffffffffffffffffffffffffffffffffffffffff1690508073ffffffffffffffffffffffffffffffffffffffff166108fc859081150290604051600060405180830381858888f193505050501580156103f4573d6000803e3d6000fd5b508073ffffffffffffffffffffffffffffffffffffffff163073ffffffffffffffffffffffffffffffffffffffff167fddf252ad1be2c89b69c2b068fc378daa952ba7f163c4a11628f55a4df523b3ef86604051610452919061080e565b60405180910390a3600191505092915050565b6000808267ffffffffffffffff161480610489575060018267ffffffffffffffff16145b61049257600080fd5b60008267ffffffffffffffff16146105065760006001600281106104df577f4e487b7100000000000000000000000000000000000000000000000000000000600052603260045260246000fd5b0160009054906101000a900473ffffffffffffffffffffffffffffffffffffffff16610563565b60008060028110610540577f4e487b7100000000000000000000000000000000000000000000000000000000600052603260045260246000fd5b0160009054906101000a900473ffffffffffffffffffffffffffffffffffffffff165b9050919050565b3073ffffffffffffffffffffffffffffffffffffffff163373ffffffffffffffffffffffffffffffffffffffff167fddf252ad1be2c89b69c2b068fc378daa952ba7f163c4a11628f55a4df523b3ef346040516105c7919061080e565b60405180910390a3565b6000806105dd83610465565b90508073ffffffffffffffffffffffffffffffffffffffff1663d321fe296040518163ffffffff1660e01b815260040160206040518083038186803b15801561062557600080fd5b505afa158015610639573d6000803e3d6000fd5b505050506040513d601f19601f8201168201806040525081019061065d91906106da565b915050919050565b610284806108ee83390190565b600081359050610681816108bf565b92915050565b600081519050610696816108bf565b92915050565b6000813590506106ab816108d6565b92915050565b6000602082840312156106c357600080fd5b60006106d184828501610672565b91505092915050565b6000602082840312156106ec57600080fd5b60006106fa84828501610687565b91505092915050565b6000806040838503121561071657600080fd5b600061072485828601610672565b92505060206107358582860161069c565b9150509250929050565b60006020828403121561075157600080fd5b600061075f8482850161069c565b91505092915050565b6107718161083a565b82525050565b6107808161084c565b82525050565b6000610793601d83610829565b915061079e82610896565b602082019050919050565b6107b281610878565b82525050565b60006020820190506107cd6000830184610768565b92915050565b60006020820190506107e86000830184610777565b92915050565b6000602082019050818103600083015261080781610786565b9050919050565b600060208201905061082360008301846107a9565b92915050565b600082825260208201905092915050565b600061084582610858565b9050919050565b60008115159050919050565b600073ffffffffffffffffffffffffffffffffffffffff82169050919050565b6000819050919050565b600067ffffffffffffffff82169050919050565b7f43726561746564207365636f6e64206368696c6420636f6e7472616374000000600082015250565b6108c881610878565b81146108d357600080fd5b50565b6108df81610882565b81146108ea57600080fd5b5056fe608060405234801561001057600080fd5b50610264806100206000396000f3fe60806040526004361061002d5760003560e01c80631dbf3bc714610039578063d321fe291461007657610034565b3661003457005b600080fd5b34801561004557600080fd5b50610060600480360381019061005b9190610184565b6100a1565b60405161006d91906101cb565b60405180910390f35b34801561008257600080fd5b5061008b610167565b60405161009891906101e6565b60405180910390f35b6000814710156100b057600080fd5b600073ffffffffffffffffffffffffffffffffffffffff166108fc839081150290604051600060405180830381858888f193505050501580156100f7573d6000803e3d6000fd5b50600073ffffffffffffffffffffffffffffffffffffffff163073ffffffffffffffffffffffffffffffffffffffff167fddf252ad1be2c89b69c2b068fc378daa952ba7f163c4a11628f55a4df523b3ef8460405161015691906101e6565b60405180910390a360019050919050565b600047905090565b60008135905061017e81610217565b92915050565b60006020828403121561019657600080fd5b60006101a48482850161016f565b91505092915050565b6101b681610201565b82525050565b6101c58161020d565b82525050565b60006020820190506101e060008301846101ad565b92915050565b60006020820190506101fb60008301846101bc565b92915050565b60008115159050919050565b6000819050919050565b6102208161020d565b811461022b57600080fd5b5056fea264697066735822122004c50a9cb6dfacbc8c8758451f2a3721b583bc2f6771b0b3099cd9a7db5f1f1164736f6c63430008040033a26469706673582212200e456fdaf1952e86a8425444993b64f39ff45293da779cb6b43aaee8cf7fab7b64736f6c63430008040033608060405234801561001057600080fd5b50610264806100206000396000f3fe60806040526004361061002d5760003560e01c80631dbf3bc714610039578063d321fe291461007657610034565b3661003457005b600080fd5b34801561004557600080fd5b50610060600480360381019061005b9190610184565b6100a1565b60405161006d91906101cb565b60405180910390f35b34801561008257600080fd5b5061008b610167565b60405161009891906101e6565b60405180910390f35b6000814710156100b057600080fd5b600073ffffffffffffffffffffffffffffffffffffffff166108fc839081150290604051600060405180830381858888f193505050501580156100f7573d6000803e3d6000fd5b50600073ffffffffffffffffffffffffffffffffffffffff163073ffffffffffffffffffffffffffffffffffffffff167fddf252ad1be2c89b69c2b068fc378daa952ba7f163c4a11628f55a4df523b3ef8460405161015691906101e6565b60405180910390a360019050919050565b600047905090565b60008135905061017e81610217565b92915050565b60006020828403121561019657600080fd5b60006101a48482850161016f565b91505092915050565b6101b681610201565b82525050565b6101c58161020d565b82525050565b60006020820190506101e060008301846101ad565b92915050565b60006020820190506101fb60008301846101bc565b92915050565b60008115159050919050565b6000819050919050565b6102208161020d565b811461022b57600080fd5b5056fea264697066735822122004c50a9cb6dfacbc8c8758451f2a3721b583bc2f6771b0b3099cd9a7db5f1f1164736f6c63430008040033",
  "linkReferences": {},
  "deployedLinkReferences": {}
}