{
  "_format": "hh-sol-artifact-1",
  "contractName": "Parent",
  "sourceName": "contracts/Parent.sol",
  "abi": [
    {
      "inputs": [],
      "stateMutability": "payable",
      "type": "constructor"
    },
    {
      "anonymous": false,
      "inputs": [
        {
          "indexed": false,
          "internalType": "address",
          "name": "addr",
          "type": "address"
        }
      ],
      "name": "Create2Deploy",
      "type": "event"
    },
    {
      "anonymous": false,
      "inputs": [
        {
          "indexed": false,
          "internalType": "string",
          "name": "message",
          "type": "string"
        }
      ],
      "name": "ParentActivityLog",
      "type": "event"
    },
    {
      "inputs": [
        {
          "internalType": "bytes",
          "name": "bytecode",
          "type": "bytes"
        },
        {
          "internalType": "uint256",
          "name": "_salt",
          "type": "uint256"
        }
      ],
      "name": "create2Deploy",
      "outputs": [],
      "stateMutability": "payable",
      "type": "function"
    },
    {
      "inputs": [
        {
          "internalType": "uint256",
          "name": "amount",
          "type": "uint256"
        }
      ],
      "name": "createChild",
      "outputs": [
        {
          "internalType": "address",
          "name": "",
          "type": "address"
        }
      ],
      "stateMutability": "nonpayable",
      "type": "function"
    },
    {
      "inputs": [],
      "name": "getAccountBalance",
      "outputs": [
        {
          "internalType": "uint256",
          "name": "",
          "type": "uint256"
        }
      ],
      "stateMutability": "view",
      "type": "function"
    },
    {
      "inputs": [
        {
          "internalType": "bytes",
          "name": "bytecode",
          "type": "bytes"
        },
        {
          "internalType": "uint256",
          "name": "_salt",
          "type": "uint256"
        }
      ],
      "name": "getAddress",
      "outputs": [
        {
          "internalType": "address",
          "name": "",
          "type": "address"
        }
      ],
      "stateMutability": "view",
      "type": "function"
    },
    {
      "inputs": [],
      "name": "getSender",
      "outputs": [
        {
          "internalType": "address",
          "name": "",
          "type": "address"
        }
      ],
      "stateMutability": "view",
      "type": "function"
    },
    {
      "inputs": [],
      "name": "identifier",
      "outputs": [
        {
          "internalType": "bytes4",
          "name": "",
          "type": "bytes4"
        }
      ],
      "stateMutability": "pure",
      "type": "function"
    },
    {
      "inputs": [],
      "name": "multiplySimpleNumbers",
      "outputs": [
        {
          "internalType": "uint256",
          "name": "",
          "type": "uint256"
        }
      ],
      "stateMutability": "pure",
      "type": "function"
    },
    {
      "stateMutability": "payable",
      "type": "receive"
    }
  ],
  "bytecode": "0x60806040526000604051610012906100e6565b604051809103906000f08015801561002e573d6000803e3d6000fd5b509050806000806002811061006c577f4e487b7100000000000000000000000000000000000000000000000000000000600052603260045260246000fd5b0160006101000a81548173ffffffffffffffffffffffffffffffffffffffff021916908373ffffffffffffffffffffffffffffffffffffffff1602179055507f8f5fd6a78ac856dc2d622ab0db626cf919c1911133d4b038171534ea477e5d156040516100d890610116565b60405180910390a150610170565b61024080610d7c83390190565b6000610100601c83610136565b915061010b82610147565b602082019050919050565b6000602082019050818103600083015261012f816100f3565b9050919050565b600082825260208201905092915050565b7f43726561746564206669727374206368696c6420636f6e747261637400000000600082015250565b610bfd8061017f6000396000f3fe6080604052600436106100745760003560e01c80637998a1c41161004e5780637998a1c4146101135780638070450f1461013e57806394ca2cb51461016957806394f0f9d8146101a65761007b565b80630419eca5146100805780635e01eb5a146100bd5780636896fabf146100e85761007b565b3661007b57005b600080fd5b34801561008c57600080fd5b506100a760048036038101906100a291906105df565b6101c2565b6040516100b49190610702565b60405180910390f35b3480156100c957600080fd5b506100d26103ad565b6040516100df9190610702565b60405180910390f35b3480156100f457600080fd5b506100fd6103b5565b60405161010a9190610758565b60405180910390f35b34801561011f57600080fd5b5061012861042f565b604051610135919061071d565b60405180910390f35b34801561014a57600080fd5b5061015361045a565b6040516101609190610758565b60405180910390f35b34801561017557600080fd5b50610190600480360381019061018b919061058b565b610463565b60405161019d9190610702565b60405180910390f35b6101c060048036038101906101bb919061058b565b6104ad565b005b60006040516101d090610501565b604051809103906000f0801580156101ec573d6000803e3d6000fd5b506000600160028110610228577f4e487b7100000000000000000000000000000000000000000000000000000000600052603260045260246000fd5b0160006101000a81548173ffffffffffffffffffffffffffffffffffffffff021916908373ffffffffffffffffffffffffffffffffffffffff1602179055507f8f5fd6a78ac856dc2d622ab0db626cf919c1911133d4b038171534ea477e5d1560405161029490610738565b60405180910390a160008211156103495760006001600281106102e0577f4e487b7100000000000000000000000000000000000000000000000000000000600052603260045260246000fd5b0160009054906101000a900473ffffffffffffffffffffffffffffffffffffffff1673ffffffffffffffffffffffffffffffffffffffff166108fc839081150290604051600060405180830381858888f19350505050158015610347573d6000803e3d6000fd5b505b6000600160028110610384577f4e487b7100000000000000000000000000000000000000000000000000000000600052603260045260246000fd5b0160009054906101000a900473ffffffffffffffffffffffffffffffffffffffff169050919050565b600033905090565b6000806001600281106103f1577f4e487b7100000000000000000000000000000000000000000000000000000000600052603260045260246000fd5b0160009054906101000a900473ffffffffffffffffffffffffffffffffffffffff1673ffffffffffffffffffffffffffffffffffffffff1631905090565b600080357fffffffff0000000000000000000000000000000000000000000000000000000016905090565b60006004905090565b60008060ff60f81b3084868051906020012060405160200161048894939291906106b4565b6040516020818303038152906040528051906020012090508060001c91505092915050565b60008183516020850134f59050803b6104c557600080fd5b7f605601ca79beaa36a9f7d7d60aa42a86d497babf7b13a5d52aaac233054dc4a6816040516104f49190610702565b60405180910390a1505050565b6102408061098883390190565b600061052161051c84610798565b610773565b90508281526020810184848401111561053957600080fd5b610544848285610878565b509392505050565b600082601f83011261055d57600080fd5b813561056d84826020860161050e565b91505092915050565b60008135905061058581610970565b92915050565b6000806040838503121561059e57600080fd5b600083013567ffffffffffffffff8111156105b857600080fd5b6105c48582860161054c565b92505060206105d585828601610576565b9150509250929050565b6000602082840312156105f157600080fd5b60006105ff84828501610576565b91505092915050565b610611816107da565b82525050565b610628610623826107da565b6108b8565b82525050565b61063f61063a826107ec565b6108ca565b82525050565b61065661065182610818565b6108d4565b82525050565b61066581610822565b82525050565b6000610678601d836107c9565b915061068382610947565b602082019050919050565b6106978161086e565b82525050565b6106ae6106a98261086e565b6108f0565b82525050565b60006106c0828761062e565b6001820191506106d08286610617565b6014820191506106e0828561069d565b6020820191506106f08284610645565b60208201915081905095945050505050565b60006020820190506107176000830184610608565b92915050565b6000602082019050610732600083018461065c565b92915050565b600060208201905081810360008301526107518161066b565b9050919050565b600060208201905061076d600083018461068e565b92915050565b600061077d61078e565b90506107898282610887565b919050565b6000604051905090565b600067ffffffffffffffff8211156107b3576107b26108fa565b5b6107bc82610929565b9050602081019050919050565b600082825260208201905092915050565b60006107e58261084e565b9050919050565b60007fff0000000000000000000000000000000000000000000000000000000000000082169050919050565b6000819050919050565b60007fffffffff0000000000000000000000000000000000000000000000000000000082169050919050565b600073ffffffffffffffffffffffffffffffffffffffff82169050919050565b6000819050919050565b82818337600083830152505050565b61089082610929565b810181811067ffffffffffffffff821117156108af576108ae6108fa565b5b80604052505050565b60006108c3826108de565b9050919050565b6000819050919050565b6000819050919050565b60006108e98261093a565b9050919050565b6000819050919050565b7f4e487b7100000000000000000000000000000000000000000000000000000000600052604160045260246000fd5b6000601f19601f8301169050919050565b60008160601b9050919050565b7f43726561746564207365636f6e64206368696c6420636f6e7472616374000000600082015250565b6109798161086e565b811461098457600080fd5b5056fe608060405234801561001057600080fd5b50336000806101000a81548173ffffffffffffffffffffffffffffffffffffffff021916908373ffffffffffffffffffffffffffffffffffffffff1602179055506101e0806100606000396000f3fe6080604052600436106100225760003560e01c8063737bc3c9146100935761008e565b3661008e573073ffffffffffffffffffffffffffffffffffffffff163373ffffffffffffffffffffffffffffffffffffffff167fddf252ad1be2c89b69c2b068fc378daa952ba7f163c4a11628f55a4df523b3ef346040516100849190610153565b60405180910390a3005b600080fd5b34801561009f57600080fd5b506100a86100aa565b005b7f05f4cdb0006e7dcbffd6cada5f35f6938b85d0b79d1c2a53752186c6ea421904306040516100d99190610138565b60405180910390a160008054906101000a900473ffffffffffffffffffffffffffffffffffffffff1673ffffffffffffffffffffffffffffffffffffffff16ff5b6101238161016e565b82525050565b610132816101a0565b82525050565b600060208201905061014d600083018461011a565b92915050565b60006020820190506101686000830184610129565b92915050565b600061017982610180565b9050919050565b600073ffffffffffffffffffffffffffffffffffffffff82169050919050565b600081905091905056fea26469706673582212200ac9e3fb95071ed1620ac177bc54ff30b53f75abbf173223f10f5149d6b24c6b64736f6c63430008040033a26469706673582212204f626716edc1748bc6586f58ffb5ce8e27a377795b35317399c32a2fb8e731ab64736f6c63430008040033608060405234801561001057600080fd5b50336000806101000a81548173ffffffffffffffffffffffffffffffffffffffff021916908373ffffffffffffffffffffffffffffffffffffffff1602179055506101e0806100606000396000f3fe6080604052600436106100225760003560e01c8063737bc3c9146100935761008e565b3661008e573073ffffffffffffffffffffffffffffffffffffffff163373ffffffffffffffffffffffffffffffffffffffff167fddf252ad1be2c89b69c2b068fc378daa952ba7f163c4a11628f55a4df523b3ef346040516100849190610153565b60405180910390a3005b600080fd5b34801561009f57600080fd5b506100a86100aa565b005b7f05f4cdb0006e7dcbffd6cada5f35f6938b85d0b79d1c2a53752186c6ea421904306040516100d99190610138565b60405180910390a160008054906101000a900473ffffffffffffffffffffffffffffffffffffffff1673ffffffffffffffffffffffffffffffffffffffff16ff5b6101238161016e565b82525050565b610132816101a0565b82525050565b600060208201905061014d600083018461011a565b92915050565b60006020820190506101686000830184610129565b92915050565b600061017982610180565b9050919050565b600073ffffffffffffffffffffffffffffffffffffffff82169050919050565b600081905091905056fea26469706673582212200ac9e3fb95071ed1620ac177bc54ff30b53f75abbf173223f10f5149d6b24c6b64736f6c63430008040033",
  "linkReferences": {},
  "deployedLinkReferences": {}
}