{
  "_format": "hh-sol-artifact-1",
  "contractName": "Parent",
  "sourceName": "contracts/Parent.sol",
  "abi": [
    {
      "inputs": [],
      "stateMutability": "payable",
      "type": "constructor"
    },
    {
      "anonymous": false,
      "inputs": [
        {
          "indexed": false,
          "internalType": "address",
          "name": "addr",
          "type": "address"
        }
      ],
      "name": "Create2Deploy",
      "type": "event"
    },
    {
      "anonymous": false,
      "inputs": [
        {
          "indexed": false,
          "internalType": "string",
          "name": "message",
          "type": "string"
        }
      ],
      "name": "ParentActivityLog",
      "type": "event"
    },
    {
      "inputs": [
        {
          "internalType": "bytes",
          "name": "bytecode",
          "type": "bytes"
        },
        {
          "internalType": "uint256",
          "name": "_salt",
          "type": "uint256"
        }
      ],
      "name": "create2Deploy",
      "outputs": [],
      "stateMutability": "payable",
      "type": "function"
    },
    {
      "inputs": [
        {
          "internalType": "uint256",
          "name": "amount",
          "type": "uint256"
        }
      ],
      "name": "createChild",
      "outputs": [
        {
          "internalType": "address",
          "name": "",
          "type": "address"
        }
      ],
      "stateMutability": "nonpayable",
      "type": "function"
    },
    {
      "inputs": [],
      "name": "getAccountBalance",
      "outputs": [
        {
          "internalType": "uint256",
          "name": "",
          "type": "uint256"
        }
      ],
      "stateMutability": "view",
      "type": "function"
    },
    {
      "inputs": [
        {
          "internalType": "bytes",
          "name": "bytecode",
          "type": "bytes"
        },
        {
          "internalType": "uint256",
          "name": "_salt",
          "type": "uint256"
        }
      ],
      "name": "getAddress",
      "outputs": [
        {
          "internalType": "address",
          "name": "",
          "type": "address"
        }
      ],
      "stateMutability": "view",
      "type": "function"
    },
    {
      "inputs": [],
      "name": "getBytecode",
      "outputs": [
        {
          "internalType": "bytes",
          "name": "",
          "type": "bytes"
        }
      ],
      "stateMutability": "pure",
      "type": "function"
    },
    {
      "inputs": [],
      "name": "getSender",
      "outputs": [
        {
          "internalType": "address",
          "name": "",
          "type": "address"
        }
      ],
      "stateMutability": "view",
      "type": "function"
    },
    {
      "inputs": [],
      "name": "identifier",
      "outputs": [
        {
          "internalType": "bytes4",
          "name": "",
          "type": "bytes4"
        }
      ],
      "stateMutability": "pure",
      "type": "function"
    },
    {
      "inputs": [],
      "name": "multiplySimpleNumbers",
      "outputs": [
        {
          "internalType": "uint256",
          "name": "",
          "type": "uint256"
        }
      ],
      "stateMutability": "pure",
      "type": "function"
    },
    {
      "stateMutability": "payable",
      "type": "receive"
    }
  ],
  "bytecode": "0x60806040526000604051610012906100e6565b604051809103906000f08015801561002e573d6000803e3d6000fd5b509050806000806002811061006c577f4e487b7100000000000000000000000000000000000000000000000000000000600052603260045260246000fd5b0160006101000a81548173ffffffffffffffffffffffffffffffffffffffff021916908373ffffffffffffffffffffffffffffffffffffffff1602179055507f8f5fd6a78ac856dc2d622ab0db626cf919c1911133d4b038171534ea477e5d156040516100d890610116565b60405180910390a150610170565b61024080610eff83390190565b6000610100601c83610136565b915061010b82610147565b602082019050919050565b6000602082019050818103600083015261012f816100f3565b9050919050565b600082825260208201905092915050565b7f43726561746564206669727374206368696c6420636f6e747261637400000000600082015250565b610d808061017f6000396000f3fe60806040526004361061007f5760003560e01c80637998a1c41161004e5780637998a1c4146101495780638070450f1461017457806394ca2cb51461019f57806394f0f9d8146101dc57610086565b80630419eca51461008b57806352c7420d146100c85780635e01eb5a146100f35780636896fabf1461011e57610086565b3661008657005b600080fd5b34801561009757600080fd5b506100b260048036038101906100ad9190610665565b6101f8565b6040516100bf9190610809565b60405180910390f35b3480156100d457600080fd5b506100dd6103e3565b6040516100ea919061083f565b60405180910390f35b3480156100ff57600080fd5b50610108610433565b6040516101159190610809565b60405180910390f35b34801561012a57600080fd5b5061013361043b565b6040516101409190610881565b60405180910390f35b34801561015557600080fd5b5061015e6104b5565b60405161016b9190610824565b60405180910390f35b34801561018057600080fd5b506101896104e0565b6040516101969190610881565b60405180910390f35b3480156101ab57600080fd5b506101c660048036038101906101c19190610611565b6104e9565b6040516101d39190610809565b60405180910390f35b6101f660048036038101906101f19190610611565b610533565b005b600060405161020690610587565b604051809103906000f080158015610222573d6000803e3d6000fd5b50600060016002811061025e577f4e487b7100000000000000000000000000000000000000000000000000000000600052603260045260246000fd5b0160006101000a81548173ffffffffffffffffffffffffffffffffffffffff021916908373ffffffffffffffffffffffffffffffffffffffff1602179055507f8f5fd6a78ac856dc2d622ab0db626cf919c1911133d4b038171534ea477e5d156040516102ca90610861565b60405180910390a1600082111561037f576000600160028110610316577f4e487b7100000000000000000000000000000000000000000000000000000000600052603260045260246000fd5b0160009054906101000a900473ffffffffffffffffffffffffffffffffffffffff1673ffffffffffffffffffffffffffffffffffffffff166108fc839081150290604051600060405180830381858888f1935050505015801561037d573d6000803e3d6000fd5b505b60006001600281106103ba577f4e487b7100000000000000000000000000000000000000000000000000000000600052603260045260246000fd5b0160009054906101000a900473ffffffffffffffffffffffffffffffffffffffff169050919050565b60606000604051806020016103f790610587565b6020820181038252601f19601f8201166040525090508060405160200161041e91906107f2565b60405160208183030381529060405291505090565b600033905090565b600080600160028110610477577f4e487b7100000000000000000000000000000000000000000000000000000000600052603260045260246000fd5b0160009054906101000a900473ffffffffffffffffffffffffffffffffffffffff1673ffffffffffffffffffffffffffffffffffffffff1631905090565b600080357fffffffff0000000000000000000000000000000000000000000000000000000016905090565b60006004905090565b60008060ff60f81b3084868051906020012060405160200161050e94939291906107a4565b6040516020818303038152906040528051906020012090508060001c91505092915050565b60008183516020850134f59050803b61054b57600080fd5b7f605601ca79beaa36a9f7d7d60aa42a86d497babf7b13a5d52aaac233054dc4a68160405161057a9190610809565b60405180910390a1505050565b61024080610b0b83390190565b60006105a76105a2846108c1565b61089c565b9050828152602081018484840111156105bf57600080fd5b6105ca8482856109c8565b509392505050565b600082601f8301126105e357600080fd5b81356105f3848260208601610594565b91505092915050565b60008135905061060b81610af3565b92915050565b6000806040838503121561062457600080fd5b600083013567ffffffffffffffff81111561063e57600080fd5b61064a858286016105d2565b925050602061065b858286016105fc565b9150509250929050565b60006020828403121561067757600080fd5b6000610685848285016105fc565b91505092915050565b6106978161092a565b82525050565b6106ae6106a98261092a565b610a3b565b82525050565b6106c56106c08261093c565b610a4d565b82525050565b6106dc6106d782610968565b610a57565b82525050565b6106eb81610972565b82525050565b60006106fc826108f2565b61070681856108fd565b93506107168185602086016109d7565b61071f81610aac565b840191505092915050565b6000610735826108f2565b61073f818561090e565b935061074f8185602086016109d7565b80840191505092915050565b6000610768601d83610919565b915061077382610aca565b602082019050919050565b610787816109be565b82525050565b61079e610799826109be565b610a73565b82525050565b60006107b082876106b4565b6001820191506107c0828661069d565b6014820191506107d0828561078d565b6020820191506107e082846106cb565b60208201915081905095945050505050565b60006107fe828461072a565b915081905092915050565b600060208201905061081e600083018461068e565b92915050565b600060208201905061083960008301846106e2565b92915050565b6000602082019050818103600083015261085981846106f1565b905092915050565b6000602082019050818103600083015261087a8161075b565b9050919050565b6000602082019050610896600083018461077e565b92915050565b60006108a66108b7565b90506108b28282610a0a565b919050565b6000604051905090565b600067ffffffffffffffff8211156108dc576108db610a7d565b5b6108e582610aac565b9050602081019050919050565b600081519050919050565b600082825260208201905092915050565b600081905092915050565b600082825260208201905092915050565b60006109358261099e565b9050919050565b60007fff0000000000000000000000000000000000000000000000000000000000000082169050919050565b6000819050919050565b60007fffffffff0000000000000000000000000000000000000000000000000000000082169050919050565b600073ffffffffffffffffffffffffffffffffffffffff82169050919050565b6000819050919050565b82818337600083830152505050565b60005b838110156109f55780820151818401526020810190506109da565b83811115610a04576000848401525b50505050565b610a1382610aac565b810181811067ffffffffffffffff82111715610a3257610a31610a7d565b5b80604052505050565b6000610a4682610a61565b9050919050565b6000819050919050565b6000819050919050565b6000610a6c82610abd565b9050919050565b6000819050919050565b7f4e487b7100000000000000000000000000000000000000000000000000000000600052604160045260246000fd5b6000601f19601f8301169050919050565b60008160601b9050919050565b7f43726561746564207365636f6e64206368696c6420636f6e7472616374000000600082015250565b610afc816109be565b8114610b0757600080fd5b5056fe608060405234801561001057600080fd5b50336000806101000a81548173ffffffffffffffffffffffffffffffffffffffff021916908373ffffffffffffffffffffffffffffffffffffffff1602179055506101e0806100606000396000f3fe6080604052600436106100225760003560e01c8063737bc3c9146100935761008e565b3661008e573073ffffffffffffffffffffffffffffffffffffffff163373ffffffffffffffffffffffffffffffffffffffff167fddf252ad1be2c89b69c2b068fc378daa952ba7f163c4a11628f55a4df523b3ef346040516100849190610153565b60405180910390a3005b600080fd5b34801561009f57600080fd5b506100a86100aa565b005b7f05f4cdb0006e7dcbffd6cada5f35f6938b85d0b79d1c2a53752186c6ea421904306040516100d99190610138565b60405180910390a160008054906101000a900473ffffffffffffffffffffffffffffffffffffffff1673ffffffffffffffffffffffffffffffffffffffff16ff5b6101238161016e565b82525050565b610132816101a0565b82525050565b600060208201905061014d600083018461011a565b92915050565b60006020820190506101686000830184610129565b92915050565b600061017982610180565b9050919050565b600073ffffffffffffffffffffffffffffffffffffffff82169050919050565b600081905091905056fea2646970667358221220d02052d7a2c13cda697979d8e6e2aacdb38e70889d790800c06294ffbd671ced64736f6c63430008040033a264697066735822122091d9ea6556ff674db08763a987895b2056c0e2c3835c8ccad16cc5ec71b24ed364736f6c63430008040033608060405234801561001057600080fd5b50336000806101000a81548173ffffffffffffffffffffffffffffffffffffffff021916908373ffffffffffffffffffffffffffffffffffffffff1602179055506101e0806100606000396000f3fe6080604052600436106100225760003560e01c8063737bc3c9146100935761008e565b3661008e573073ffffffffffffffffffffffffffffffffffffffff163373ffffffffffffffffffffffffffffffffffffffff167fddf252ad1be2c89b69c2b068fc378daa952ba7f163c4a11628f55a4df523b3ef346040516100849190610153565b60405180910390a3005b600080fd5b34801561009f57600080fd5b506100a86100aa565b005b7f05f4cdb0006e7dcbffd6cada5f35f6938b85d0b79d1c2a53752186c6ea421904306040516100d99190610138565b60405180910390a160008054906101000a900473ffffffffffffffffffffffffffffffffffffffff1673ffffffffffffffffffffffffffffffffffffffff16ff5b6101238161016e565b82525050565b610132816101a0565b82525050565b600060208201905061014d600083018461011a565b92915050565b60006020820190506101686000830184610129565b92915050565b600061017982610180565b9050919050565b600073ffffffffffffffffffffffffffffffffffffffff82169050919050565b600081905091905056fea2646970667358221220d02052d7a2c13cda697979d8e6e2aacdb38e70889d790800c06294ffbd671ced64736f6c63430008040033",
  "linkReferences": {},
  "deployedLinkReferences": {}
}