{
  "_format": "hh-sol-artifact-1",
  "contractName": "Parent",
  "sourceName": "contracts/Parent.sol",
  "abi": [
    {
      "inputs": [],
      "stateMutability": "payable",
      "type": "constructor"
    },
    {
      "anonymous": false,
      "inputs": [
        {
          "indexed": false,
          "internalType": "string",
          "name": "message",
          "type": "string"
        }
      ],
      "name": "ParentActivityLog",
      "type": "event"
    },
    {
      "anonymous": false,
      "inputs": [
        {
          "indexed": true,
          "internalType": "address",
          "name": "_from",
          "type": "address"
        },
        {
          "indexed": true,
          "internalType": "address",
          "name": "_to",
          "type": "address"
        },
        {
          "indexed": false,
          "internalType": "uint256",
          "name": "amount",
          "type": "uint256"
        }
      ],
      "name": "Transfer",
      "type": "event"
    },
    {
      "inputs": [],
      "name": "createChild",
      "outputs": [],
      "stateMutability": "nonpayable",
      "type": "function"
    },
    {
      "inputs": [],
      "name": "donate",
      "outputs": [],
      "stateMutability": "payable",
      "type": "function"
    },
    {
      "inputs": [],
      "name": "getBalance",
      "outputs": [
        {
          "internalType": "uint256",
          "name": "",
          "type": "uint256"
        }
      ],
      "stateMutability": "view",
      "type": "function"
    },
    {
      "inputs": [],
      "name": "getChildAddress",
      "outputs": [
        {
          "internalType": "address",
          "name": "",
          "type": "address"
        }
      ],
      "stateMutability": "view",
      "type": "function"
    },
    {
      "inputs": [],
      "name": "getChildBalance",
      "outputs": [
        {
          "internalType": "uint256",
          "name": "",
          "type": "uint256"
        }
      ],
      "stateMutability": "view",
      "type": "function"
    },
    {
      "inputs": [
        {
          "internalType": "uint256",
          "name": "_amount",
          "type": "uint256"
        }
      ],
      "name": "transferToChild",
      "outputs": [
        {
          "internalType": "bool",
          "name": "",
          "type": "bool"
        }
      ],
      "stateMutability": "nonpayable",
      "type": "function"
    },
    {
      "stateMutability": "payable",
      "type": "receive"
    }
  ],
  "bytecode": "0x60806040526108a9806100136000396000f3fe6080604052600436106100595760003560e01c806312065fe014610065578063a3a4ba3114610090578063bcb1c3a9146100a7578063dc26c1fb146100d2578063ed88c68e1461010f578063fd5555d91461011957610060565b3661006057005b600080fd5b34801561007157600080fd5b5061007a610144565b604051610087919061053b565b60405180910390f35b34801561009c57600080fd5b506100a561014c565b005b3480156100b357600080fd5b506100bc6101eb565b6040516100c991906104e5565b60405180910390f35b3480156100de57600080fd5b506100f960048036038101906100f49190610443565b610214565b6040516101069190610500565b60405180910390f35b6101176102ff565b005b34801561012557600080fd5b5061012e610366565b60405161013b919061053b565b60405180910390f35b600047905090565b6040516101589061040c565b604051809103906000f080158015610174573d6000803e3d6000fd5b506000806101000a81548173ffffffffffffffffffffffffffffffffffffffff021916908373ffffffffffffffffffffffffffffffffffffffff1602179055507f8f5fd6a78ac856dc2d622ab0db626cf919c1911133d4b038171534ea477e5d156040516101e19061051b565b60405180910390a1565b60008060009054906101000a900473ffffffffffffffffffffffffffffffffffffffff16905090565b60008147101561022357600080fd5b60008060009054906101000a900473ffffffffffffffffffffffffffffffffffffffff1690508073ffffffffffffffffffffffffffffffffffffffff166108fc849081150290604051600060405180830381858888f1935050505015801561028f573d6000803e3d6000fd5b508073ffffffffffffffffffffffffffffffffffffffff163073ffffffffffffffffffffffffffffffffffffffff167fddf252ad1be2c89b69c2b068fc378daa952ba7f163c4a11628f55a4df523b3ef856040516102ed919061053b565b60405180910390a36001915050919050565b3073ffffffffffffffffffffffffffffffffffffffff163373ffffffffffffffffffffffffffffffffffffffff167fddf252ad1be2c89b69c2b068fc378daa952ba7f163c4a11628f55a4df523b3ef3460405161035c919061053b565b60405180910390a3565b60008060009054906101000a900473ffffffffffffffffffffffffffffffffffffffff1673ffffffffffffffffffffffffffffffffffffffff1663d321fe296040518163ffffffff1660e01b815260040160206040518083038186803b1580156103cf57600080fd5b505afa1580156103e3573d6000803e3d6000fd5b505050506040513d601f19601f82011682018060405250810190610407919061046c565b905090565b610284806105f083390190565b600081359050610428816105d8565b92915050565b60008151905061043d816105d8565b92915050565b60006020828403121561045557600080fd5b600061046384828501610419565b91505092915050565b60006020828403121561047e57600080fd5b600061048c8482850161042e565b91505092915050565b61049e81610567565b82525050565b6104ad81610579565b82525050565b60006104c0601683610556565b91506104cb826105af565b602082019050919050565b6104df816105a5565b82525050565b60006020820190506104fa6000830184610495565b92915050565b600060208201905061051560008301846104a4565b92915050565b60006020820190508181036000830152610534816104b3565b9050919050565b600060208201905061055060008301846104d6565b92915050565b600082825260208201905092915050565b600061057282610585565b9050919050565b60008115159050919050565b600073ffffffffffffffffffffffffffffffffffffffff82169050919050565b6000819050919050565b7f43726561746564206368696c6420636f6e747261637400000000000000000000600082015250565b6105e1816105a5565b81146105ec57600080fd5b5056fe608060405234801561001057600080fd5b50610264806100206000396000f3fe60806040526004361061002d5760003560e01c80631dbf3bc714610039578063d321fe291461007657610034565b3661003457005b600080fd5b34801561004557600080fd5b50610060600480360381019061005b9190610184565b6100a1565b60405161006d91906101cb565b60405180910390f35b34801561008257600080fd5b5061008b610167565b60405161009891906101e6565b60405180910390f35b6000814710156100b057600080fd5b600073ffffffffffffffffffffffffffffffffffffffff166108fc839081150290604051600060405180830381858888f193505050501580156100f7573d6000803e3d6000fd5b50600073ffffffffffffffffffffffffffffffffffffffff163073ffffffffffffffffffffffffffffffffffffffff167fddf252ad1be2c89b69c2b068fc378daa952ba7f163c4a11628f55a4df523b3ef8460405161015691906101e6565b60405180910390a360019050919050565b600047905090565b60008135905061017e81610217565b92915050565b60006020828403121561019657600080fd5b60006101a48482850161016f565b91505092915050565b6101b681610201565b82525050565b6101c58161020d565b82525050565b60006020820190506101e060008301846101ad565b92915050565b60006020820190506101fb60008301846101bc565b92915050565b60008115159050919050565b6000819050919050565b6102208161020d565b811461022b57600080fd5b5056fea26469706673582212206076dfa143b82e193989ada0695a9c32bb97d4e78113eec8f09c8da1abcb357864736f6c63430008040033a2646970667358221220904f0df6443029f0420a754cfa3a06376654938ec00a80f0575d717e8251a37564736f6c63430008040033",
  "linkReferences": {},
  "deployedLinkReferences": {}
}