{
  "_format": "hh-sol-artifact-1",
  "contractName": "EquivalenceContract",
  "sourceName": "contracts/EquivalenceContract.sol",
  "abi": [
    {
      "inputs": [
        {
          "internalType": "address",
          "name": "_address",
          "type": "address"
        },
        {
          "internalType": "bytes4",
          "name": "_sig",
          "type": "bytes4"
        }
      ],
      "name": "callCodeToContractWithAmount",
      "outputs": [
        {
          "internalType": "address",
          "name": "",
          "type": "address"
        }
      ],
      "stateMutability": "payable",
      "type": "function"
    },
    {
      "inputs": [
        {
          "internalType": "address",
          "name": "_address",
          "type": "address"
        },
        {
          "internalType": "bytes4",
          "name": "_sig",
          "type": "bytes4"
        }
      ],
      "name": "callCodeToContractWithoutAmount",
      "outputs": [
        {
          "internalType": "address",
          "name": "",
          "type": "address"
        }
      ],
      "stateMutability": "nonpayable",
      "type": "function"
    },
    {
      "inputs": [
        {
          "internalType": "address",
          "name": "_address",
          "type": "address"
        }
      ],
      "name": "copyCode",
      "outputs": [
        {
          "internalType": "bytes",
          "name": "",
          "type": "bytes"
        }
      ],
      "stateMutability": "view",
      "type": "function"
    },
    {
      "inputs": [
        {
          "internalType": "address",
          "name": "_address",
          "type": "address"
        }
      ],
      "name": "getBalance",
      "outputs": [
        {
          "internalType": "uint256",
          "name": "",
          "type": "uint256"
        }
      ],
      "stateMutability": "view",
      "type": "function"
    },
    {
      "inputs": [
        {
          "internalType": "address",
          "name": "_address",
          "type": "address"
        }
      ],
      "name": "getCodeHash",
      "outputs": [
        {
          "internalType": "bytes32",
          "name": "",
          "type": "bytes32"
        }
      ],
      "stateMutability": "view",
      "type": "function"
    },
    {
      "inputs": [
        {
          "internalType": "address",
          "name": "_address",
          "type": "address"
        }
      ],
      "name": "getCodeSize",
      "outputs": [
        {
          "internalType": "uint256",
          "name": "",
          "type": "uint256"
        }
      ],
      "stateMutability": "view",
      "type": "function"
    },
    {
      "inputs": [
        {
          "internalType": "address",
          "name": "_to",
          "type": "address"
        },
        {
          "internalType": "bytes",
          "name": "_data",
          "type": "bytes"
        }
      ],
      "name": "makeCallWithAmount",
      "outputs": [
        {
          "internalType": "bool",
          "name": "success",
          "type": "bool"
        },
        {
          "internalType": "bytes",
          "name": "returnData",
          "type": "bytes"
        }
      ],
      "stateMutability": "payable",
      "type": "function"
    },
    {
      "inputs": [
        {
          "internalType": "address",
          "name": "_to",
          "type": "address"
        },
        {
          "internalType": "bytes",
          "name": "_data",
          "type": "bytes"
        }
      ],
      "name": "makeCallWithoutAmount",
      "outputs": [
        {
          "internalType": "bool",
          "name": "success",
          "type": "bool"
        },
        {
          "internalType": "bytes",
          "name": "returnData",
          "type": "bytes"
        }
      ],
      "stateMutability": "nonpayable",
      "type": "function"
    },
    {
      "inputs": [
        {
          "internalType": "address",
          "name": "_to",
          "type": "address"
        },
        {
          "internalType": "bytes",
          "name": "_data",
          "type": "bytes"
        }
      ],
      "name": "makeDelegateCall",
      "outputs": [
        {
          "internalType": "bool",
          "name": "success",
          "type": "bool"
        },
        {
          "internalType": "bytes",
          "name": "returnData",
          "type": "bytes"
        }
      ],
      "stateMutability": "nonpayable",
      "type": "function"
    },
    {
      "inputs": [
        {
          "internalType": "address",
          "name": "_to",
          "type": "address"
        },
        {
          "internalType": "bytes",
          "name": "_data",
          "type": "bytes"
        }
      ],
      "name": "makeStaticCall",
      "outputs": [
        {
          "internalType": "bool",
          "name": "success",
          "type": "bool"
        },
        {
          "internalType": "bytes",
          "name": "returnData",
          "type": "bytes"
        }
      ],
      "stateMutability": "nonpayable",
      "type": "function"
    }
  ],
  "bytecode": "0x608060405234801561001057600080fd5b50610700806100206000396000f3fe6080604052600436106100b15760003560e01c80638771074f11610069578063b51c4f961161004e578063b51c4f96146101c5578063e9412a8e146101e4578063f8b2cb4f1461020457600080fd5b80638771074f1461019257806391548228146101b257600080fd5b80637a3e20051161009a5780637a3e20051461011a5780637e38d3a31461014557806381ea44081461016557600080fd5b806315ed1411146100b65780634e731583146100ed575b600080fd5b3480156100c257600080fd5b506100d66100d13660046104b9565b61022c565b6040516100e49291906105d9565b60405180910390f35b3480156100f957600080fd5b5061010d6101083660046105fc565b610294565b6040516100e49190610620565b61012d610128366004610633565b6102f0565b6040516001600160a01b0390911681526020016100e4565b34801561015157600080fd5b506100d66101603660046104b9565b610331565b34801561017157600080fd5b506101846101803660046105fc565b3f90565b6040519081526020016100e4565b34801561019e57600080fd5b506100d66101ad3660046104b9565b61038a565b6100d66101c03660046104b9565b6103e1565b3480156101d157600080fd5b506101846101e03660046105fc565b3b90565b3480156101f057600080fd5b5061012d6101ff366004610633565b61043b565b34801561021057600080fd5b5061018461021f3660046105fc565b6001600160a01b03163190565b60006060836001600160a01b0316836040516102489190610691565b600060405180830381855afa9150503d8060008114610283576040519150601f19603f3d011682016040523d82523d6000602084013e610288565b606091505b50909590945092505050565b6060813b60008167ffffffffffffffff8111156102b3576102b361048a565b6040519080825280601f01601f1916602001820160405280156102dd576020820181803683370190505b50905081600060208301863c9392505050565b60006060600060405184815234602082600484848b61c350f260208381016040528386529093506103289285018101915084016106ad565b95945050505050565b60006060836001600160a01b03168360405161034d9190610691565b6000604051808303816000865af19150503d8060008114610283576040519150601f19603f3d011682016040523d82523d6000602084013e610288565b60006060836001600160a01b0316836040516103a69190610691565b600060405180830381855af49150503d8060008114610283576040519150601f19603f3d011682016040523d82523d6000602084013e610288565b60006060836001600160a01b031634846040516103fe9190610691565b60006040518083038185875af1925050503d8060008114610283576040519150601f19603f3d011682016040523d82523d6000602084013e610288565b60006060600060405184815260208160048360008a61c350f2602082810160405282855290925061032891840181019084016106ad565b6001600160a01b038116811461048757600080fd5b50565b7f4e487b7100000000000000000000000000000000000000000000000000000000600052604160045260246000fd5b600080604083850312156104cc57600080fd5b82356104d781610472565b9150602083013567ffffffffffffffff808211156104f457600080fd5b818501915085601f83011261050857600080fd5b81358181111561051a5761051a61048a565b604051601f8201601f19908116603f011681019083821181831017156105425761054261048a565b8160405282815288602084870101111561055b57600080fd5b8260208601602083013760006020848301015280955050505050509250929050565b60005b83811015610598578181015183820152602001610580565b838111156105a7576000848401525b50505050565b600081518084526105c581602086016020860161057d565b601f01601f19169290920160200192915050565b82151581526040602082015260006105f460408301846105ad565b949350505050565b60006020828403121561060e57600080fd5b813561061981610472565b9392505050565b60208152600061061960208301846105ad565b6000806040838503121561064657600080fd5b823561065181610472565b915060208301357fffffffff000000000000000000000000000000000000000000000000000000008116811461068657600080fd5b809150509250929050565b600082516106a381846020870161057d565b9190910192915050565b6000602082840312156106bf57600080fd5b81516106198161047256fea26469706673582212202bfdd68268e16bb9ec16bea41b875722176c0d04db2fb4bf7b376eaf11a54a4364736f6c63430008090033",
  "linkReferences": {},
  "deployedLinkReferences": {}
}