{
  "_format": "hh-sol-artifact-1",
  "contractName": "EquivalenceContract",
  "sourceName": "contracts/EquivalenceContract.sol",
  "abi": [
    {
      "inputs": [
        {
          "internalType": "address",
          "name": "_address",
          "type": "address"
        },
        {
          "internalType": "bytes",
          "name": "_data",
          "type": "bytes"
        }
      ],
      "name": "callCodeToContractWithAmount",
      "outputs": [
        {
          "internalType": "address",
          "name": "",
          "type": "address"
        }
      ],
      "stateMutability": "payable",
      "type": "function"
    },
    {
      "inputs": [
        {
          "internalType": "address",
          "name": "_address",
          "type": "address"
        },
        {
          "internalType": "bytes",
          "name": "_data",
          "type": "bytes"
        }
      ],
      "name": "callCodeToContractWithoutAmount",
      "outputs": [
        {
          "internalType": "address",
          "name": "",
          "type": "address"
        }
      ],
      "stateMutability": "nonpayable",
      "type": "function"
    },
    {
      "inputs": [
        {
          "internalType": "address",
          "name": "_address",
          "type": "address"
        }
      ],
      "name": "copyCode",
      "outputs": [
        {
          "internalType": "bytes",
          "name": "",
          "type": "bytes"
        }
      ],
      "stateMutability": "view",
      "type": "function"
    },
    {
      "inputs": [
        {
          "internalType": "uint256",
          "name": "tinycents",
          "type": "uint256"
        }
      ],
      "name": "exchangeRateWithAmount",
      "outputs": [
        {
          "internalType": "uint256",
          "name": "tinybars",
          "type": "uint256"
        }
      ],
      "stateMutability": "payable",
      "type": "function"
    },
    {
      "inputs": [
        {
          "internalType": "uint256",
          "name": "tinycents",
          "type": "uint256"
        }
      ],
      "name": "exchangeRateWithoutAmount",
      "outputs": [
        {
          "internalType": "uint256",
          "name": "tinybars",
          "type": "uint256"
        }
      ],
      "stateMutability": "nonpayable",
      "type": "function"
    },
    {
      "inputs": [
        {
          "internalType": "address",
          "name": "_address",
          "type": "address"
        }
      ],
      "name": "getBalance",
      "outputs": [
        {
          "internalType": "uint256",
          "name": "",
          "type": "uint256"
        }
      ],
      "stateMutability": "view",
      "type": "function"
    },
    {
      "inputs": [
        {
          "internalType": "address",
          "name": "_address",
          "type": "address"
        }
      ],
      "name": "getCodeHash",
      "outputs": [
        {
          "internalType": "bytes32",
          "name": "",
          "type": "bytes32"
        }
      ],
      "stateMutability": "view",
      "type": "function"
    },
    {
      "inputs": [
        {
          "internalType": "address",
          "name": "_address",
          "type": "address"
        }
      ],
      "name": "getCodeSize",
      "outputs": [
        {
          "internalType": "uint256",
          "name": "",
          "type": "uint256"
        }
      ],
      "stateMutability": "view",
      "type": "function"
    },
    {
      "inputs": [],
      "name": "getCurrentAddress",
      "outputs": [
        {
          "internalType": "address",
          "name": "",
          "type": "address"
        }
      ],
      "stateMutability": "nonpayable",
      "type": "function"
    },
    {
      "inputs": [],
      "name": "getPseudorandomSeed",
      "outputs": [
        {
          "internalType": "bytes32",
          "name": "randomBytes",
          "type": "bytes32"
        }
      ],
      "stateMutability": "nonpayable",
      "type": "function"
    },
    {
      "inputs": [],
      "name": "getPseudorandomSeedWithAmount",
      "outputs": [
        {
          "internalType": "bytes32",
          "name": "randomBytes",
          "type": "bytes32"
        }
      ],
      "stateMutability": "payable",
      "type": "function"
    },
    {
      "inputs": [
        {
          "internalType": "address",
          "name": "_to",
          "type": "address"
        },
        {
          "internalType": "bytes",
          "name": "_data",
          "type": "bytes"
        }
      ],
      "name": "makeCallWithAmount",
      "outputs": [
        {
          "internalType": "bool",
          "name": "success",
          "type": "bool"
        },
        {
          "internalType": "bytes",
          "name": "returnData",
          "type": "bytes"
        }
      ],
      "stateMutability": "payable",
      "type": "function"
    },
    {
      "inputs": [
        {
          "internalType": "address",
          "name": "_to",
          "type": "address"
        },
        {
          "internalType": "bytes",
          "name": "_data",
          "type": "bytes"
        }
      ],
      "name": "makeCallWithoutAmount",
      "outputs": [
        {
          "internalType": "bool",
          "name": "success",
          "type": "bool"
        },
        {
          "internalType": "bytes",
          "name": "returnData",
          "type": "bytes"
        }
      ],
      "stateMutability": "nonpayable",
      "type": "function"
    },
    {
      "inputs": [
        {
          "internalType": "address",
          "name": "_to",
          "type": "address"
        },
        {
          "internalType": "bytes",
          "name": "_data",
          "type": "bytes"
        }
      ],
      "name": "makeDelegateCall",
      "outputs": [
        {
          "internalType": "bool",
          "name": "success",
          "type": "bool"
        },
        {
          "internalType": "bytes",
          "name": "returnData",
          "type": "bytes"
        }
      ],
      "stateMutability": "nonpayable",
      "type": "function"
    },
    {
      "inputs": [
        {
          "internalType": "address",
          "name": "_to",
          "type": "address"
        },
        {
          "internalType": "bytes",
          "name": "_data",
          "type": "bytes"
        }
      ],
      "name": "makeStaticCall",
      "outputs": [
        {
          "internalType": "bool",
          "name": "success",
          "type": "bool"
        },
        {
          "internalType": "bytes",
          "name": "returnData",
          "type": "bytes"
        }
      ],
      "stateMutability": "nonpayable",
      "type": "function"
    }
  ],
  "bytecode": "0x608060405234801561001057600080fd5b50610af1806100206000396000f3fe6080604052600436106100e85760003560e01c8063915482281161008a578063d83bf9a111610059578063d83bf9a114610263578063e34c93b814610278578063e717ea611461028b578063f8b2cb4f1461029e57600080fd5b806391548228146101fe578063b0d869b114610211578063b2a07c3e14610231578063b51c4f961461024457600080fd5b80636144ef6d116100c65780636144ef6d146101895780637e38d3a31461019f57806381ea4408146101bf5780638771074f146101de57600080fd5b806315ed1411146100ed57806319f88c7d146101245780634e7315831461015c575b600080fd5b3480156100f957600080fd5b5061010d6101083660046108de565b6102c6565b60405161011b9291906109fe565b60405180910390f35b34801561013057600080fd5b5061014461013f3660046108de565b61032e565b6040516001600160a01b03909116815260200161011b565b34801561016857600080fd5b5061017c610177366004610a19565b6103f3565b60405161011b9190610a3d565b61019161044f565b60405190815260200161011b565b3480156101ab57600080fd5b5061010d6101ba3660046108de565b6104fb565b3480156101cb57600080fd5b506101916101da366004610a19565b3f90565b3480156101ea57600080fd5b5061010d6101f93660046108de565b610554565b61010d61020c3660046108de565b6105ab565b34801561021d57600080fd5b5061019161022c366004610a50565b610605565b61019161023f366004610a50565b6106cb565b34801561025057600080fd5b5061019161025f366004610a19565b3b90565b34801561026f57600080fd5b50610191610762565b6101446102863660046108de565b6107de565b34801561029757600080fd5b5030610144565b3480156102aa57600080fd5b506101916102b9366004610a19565b6001600160a01b03163190565b60006060836001600160a01b0316836040516102e29190610a69565b600060405180830381855afa9150503d806000811461031d576040519150601f19603f3d011682016040523d82523d6000602084013e610322565b606091505b50909590945092505050565b60006004825110156103875760405162461bcd60e51b815260206004820152600e60248201527f4461746120746f6f2073686f727400000000000000000000000000000000000060448201526064015b60405180910390fd5b606060006040516000805b60208110156103b45786810151156103ac578091506103b4565b600101610392565b50808601518252602082828851038460008b620927c0f260208381016040528386529093506103ea928501810191508401610a85565b95945050505050565b6060813b60008167ffffffffffffffff811115610412576104126108af565b6040519080825280601f01601f19166020018201604052801561043c576020820181803683370190505b50905081600060208301863c9392505050565b60408051600481526024810182526020810180516001600160e01b031663d83bf9a160e01b17905290516000918291829161016991349161048f91610a69565b60006040518083038185875af1925050503d80600081146104cc576040519150601f19603f3d011682016040523d82523d6000602084013e6104d1565b606091505b5091509150816104e057600080fd5b808060200190518101906104f49190610aa2565b9250505090565b60006060836001600160a01b0316836040516105179190610a69565b6000604051808303816000865af19150503d806000811461031d576040519150601f19603f3d011682016040523d82523d6000602084013e610322565b60006060836001600160a01b0316836040516105709190610a69565b600060405180830381855af49150503d806000811461031d576040519150601f19603f3d011682016040523d82523d6000602084013e610322565b60006060836001600160a01b031634846040516105c89190610a69565b60006040518083038185875af1925050503d806000811461031d576040519150601f19603f3d011682016040523d82523d6000602084013e610322565b60008060006101686001600160a01b03168460405160240161062991815260200190565b60408051601f198184030181529181526020820180516001600160e01b031663171e7fb560e11b1790525161065e9190610a69565b6000604051808303816000865af19150503d806000811461069b576040519150601f19603f3d011682016040523d82523d6000602084013e6106a0565b606091505b5091509150816106af57600080fd5b808060200190518101906106c39190610aa2565b949350505050565b60008060006101686001600160a01b031634856040516024016106f091815260200190565b60408051601f198184030181529181526020820180516001600160e01b031663171e7fb560e11b179052516107259190610a69565b60006040518083038185875af1925050503d806000811461069b576040519150601f19603f3d011682016040523d82523d6000602084013e6106a0565b60408051600481526024810182526020810180516001600160e01b031663d83bf9a160e01b179052905160009182918291610169916107a19190610a69565b6000604051808303816000865af19150503d80600081146104cc576040519150601f19603f3d011682016040523d82523d6000602084013e6104d1565b60006004825110156108325760405162461bcd60e51b815260206004820152600e60248201527f4461746120746f6f2073686f7274000000000000000000000000000000000000604482015260640161037e565b606060006040516000805b602081101561085f5786810151156108575780915061085f565b60010161083d565b50808601518252346020838389510385848c620dbba0f260208481016040528487529094506103ea9386018101925085019050610a85565b6001600160a01b03811681146108ac57600080fd5b50565b7f4e487b7100000000000000000000000000000000000000000000000000000000600052604160045260246000fd5b600080604083850312156108f157600080fd5b82356108fc81610897565b9150602083013567ffffffffffffffff8082111561091957600080fd5b818501915085601f83011261092d57600080fd5b81358181111561093f5761093f6108af565b604051601f8201601f19908116603f01168101908382118183101715610967576109676108af565b8160405282815288602084870101111561098057600080fd5b8260208601602083013760006020848301015280955050505050509250929050565b60005b838110156109bd5781810151838201526020016109a5565b838111156109cc576000848401525b50505050565b600081518084526109ea8160208601602086016109a2565b601f01601f19169290920160200192915050565b82151581526040602082015260006106c360408301846109d2565b600060208284031215610a2b57600080fd5b8135610a3681610897565b9392505050565b602081526000610a3660208301846109d2565b600060208284031215610a6257600080fd5b5035919050565b60008251610a7b8184602087016109a2565b9190910192915050565b600060208284031215610a9757600080fd5b8151610a3681610897565b600060208284031215610ab457600080fd5b505191905056fea2646970667358221220df41739df415533c7a4207660e5fdd2de73dae96b9ad139082240866d718196a64736f6c63430008090033",
  "linkReferences": {},
  "deployedLinkReferences": {}
}