{
  "_format": "hh-sol-artifact-1",
  "contractName": "EquivalenceContract",
  "sourceName": "contracts/EquivalenceContract.sol",
  "abi": [
    {
      "inputs": [
        {
          "internalType": "address",
          "name": "_addr",
          "type": "address"
        },
        {
          "internalType": "bytes",
          "name": "_customData",
          "type": "bytes"
        }
      ],
      "name": "callCodeToContractWithAmount",
      "outputs": [
        {
          "internalType": "bytes32",
          "name": "output",
          "type": "bytes32"
        }
      ],
      "stateMutability": "payable",
      "type": "function"
    },
    {
      "inputs": [
        {
          "internalType": "address",
          "name": "_addr",
          "type": "address"
        },
        {
          "internalType": "bytes",
          "name": "_customData",
          "type": "bytes"
        }
      ],
      "name": "callCodeToContractWithoutAmount",
      "outputs": [
        {
          "internalType": "bytes32",
          "name": "output",
          "type": "bytes32"
        }
      ],
      "stateMutability": "nonpayable",
      "type": "function"
    },
    {
      "inputs": [
        {
          "internalType": "address",
          "name": "_address",
          "type": "address"
        }
      ],
      "name": "copyCode",
      "outputs": [
        {
          "internalType": "bytes",
          "name": "",
          "type": "bytes"
        }
      ],
      "stateMutability": "view",
      "type": "function"
    },
    {
      "inputs": [
        {
          "internalType": "uint256",
          "name": "tinycents",
          "type": "uint256"
        }
      ],
      "name": "exchangeRateWithAmount",
      "outputs": [
        {
          "internalType": "uint256",
          "name": "tinybars",
          "type": "uint256"
        }
      ],
      "stateMutability": "payable",
      "type": "function"
    },
    {
      "inputs": [
        {
          "internalType": "uint256",
          "name": "tinycents",
          "type": "uint256"
        }
      ],
      "name": "exchangeRateWithoutAmount",
      "outputs": [
        {
          "internalType": "uint256",
          "name": "tinybars",
          "type": "uint256"
        }
      ],
      "stateMutability": "nonpayable",
      "type": "function"
    },
    {
      "inputs": [
        {
          "internalType": "address",
          "name": "_address",
          "type": "address"
        }
      ],
      "name": "getBalance",
      "outputs": [
        {
          "internalType": "uint256",
          "name": "",
          "type": "uint256"
        }
      ],
      "stateMutability": "view",
      "type": "function"
    },
    {
      "inputs": [
        {
          "internalType": "address",
          "name": "_address",
          "type": "address"
        }
      ],
      "name": "getCodeHash",
      "outputs": [
        {
          "internalType": "bytes32",
          "name": "",
          "type": "bytes32"
        }
      ],
      "stateMutability": "view",
      "type": "function"
    },
    {
      "inputs": [
        {
          "internalType": "address",
          "name": "_address",
          "type": "address"
        }
      ],
      "name": "getCodeSize",
      "outputs": [
        {
          "internalType": "uint256",
          "name": "",
          "type": "uint256"
        }
      ],
      "stateMutability": "view",
      "type": "function"
    },
    {
      "inputs": [],
      "name": "getCurrentAddress",
      "outputs": [
        {
          "internalType": "address",
          "name": "",
          "type": "address"
        }
      ],
      "stateMutability": "nonpayable",
      "type": "function"
    },
    {
      "inputs": [],
      "name": "getPseudorandomSeed",
      "outputs": [
        {
          "internalType": "bytes32",
          "name": "randomBytes",
          "type": "bytes32"
        }
      ],
      "stateMutability": "nonpayable",
      "type": "function"
    },
    {
      "inputs": [],
      "name": "getPseudorandomSeedWithAmount",
      "outputs": [
        {
          "internalType": "bytes32",
          "name": "randomBytes",
          "type": "bytes32"
        }
      ],
      "stateMutability": "payable",
      "type": "function"
    },
    {
      "inputs": [
        {
          "internalType": "address",
          "name": "_to",
          "type": "address"
        },
        {
          "internalType": "bytes",
          "name": "_data",
          "type": "bytes"
        }
      ],
      "name": "makeCallWithAmount",
      "outputs": [
        {
          "internalType": "bool",
          "name": "success",
          "type": "bool"
        },
        {
          "internalType": "bytes",
          "name": "returnData",
          "type": "bytes"
        }
      ],
      "stateMutability": "payable",
      "type": "function"
    },
    {
      "inputs": [
        {
          "internalType": "address",
          "name": "_to",
          "type": "address"
        },
        {
          "internalType": "bytes",
          "name": "_data",
          "type": "bytes"
        }
      ],
      "name": "makeCallWithAmountRevert",
      "outputs": [
        {
          "internalType": "bool",
          "name": "success",
          "type": "bool"
        },
        {
          "internalType": "bytes",
          "name": "returnData",
          "type": "bytes"
        }
      ],
      "stateMutability": "payable",
      "type": "function"
    },
    {
      "inputs": [
        {
          "internalType": "address",
          "name": "_to",
          "type": "address"
        },
        {
          "internalType": "bytes",
          "name": "_data",
          "type": "bytes"
        }
      ],
      "name": "makeCallWithoutAmount",
      "outputs": [
        {
          "internalType": "bool",
          "name": "success",
          "type": "bool"
        },
        {
          "internalType": "bytes",
          "name": "returnData",
          "type": "bytes"
        }
      ],
      "stateMutability": "nonpayable",
      "type": "function"
    },
    {
      "inputs": [
        {
          "internalType": "address",
          "name": "_to",
          "type": "address"
        },
        {
          "internalType": "bytes",
          "name": "_data",
          "type": "bytes"
        }
      ],
      "name": "makeDelegateCall",
      "outputs": [
        {
          "internalType": "bool",
          "name": "success",
          "type": "bool"
        },
        {
          "internalType": "bytes",
          "name": "returnData",
          "type": "bytes"
        }
      ],
      "stateMutability": "nonpayable",
      "type": "function"
    },
    {
      "inputs": [
        {
          "internalType": "address",
          "name": "_to",
          "type": "address"
        },
        {
          "internalType": "bytes",
          "name": "_data",
          "type": "bytes"
        }
      ],
      "name": "makeStaticCall",
      "outputs": [
        {
          "internalType": "bool",
          "name": "success",
          "type": "bool"
        },
        {
          "internalType": "bytes",
          "name": "returnData",
          "type": "bytes"
        }
      ],
      "stateMutability": "nonpayable",
      "type": "function"
    }
  ],
  "bytecode": "0x608060405234801561001057600080fd5b50610afd806100206000396000f3fe6080604052600436106100f35760003560e01c8063915482281161008a578063d83bf9a111610059578063d83bf9a114610269578063e34c93b81461027e578063e717ea6114610291578063f8b2cb4f146102ac57600080fd5b80639154822814610204578063b0d869b114610217578063b2a07c3e14610237578063b51c4f961461024a57600080fd5b806376d5810a116100c657806376d5810a146101925780637e38d3a3146101a557806381ea4408146101c55780638771074f146101e457600080fd5b806315ed1411146100f857806319f88c7d1461012f5780634e7315831461015d5780636144ef6d1461018a575b600080fd5b34801561010457600080fd5b50610118610113366004610888565b6102d4565b6040516101269291906109a6565b60405180910390f35b34801561013b57600080fd5b5061014f61014a3660046109c1565b61033c565b604051908152602001610126565b34801561016957600080fd5b5061017d610178366004610a44565b61035c565b6040516101269190610a66565b61014f6103b8565b6101186101a0366004610888565b610464565b3480156101b157600080fd5b506101186101c0366004610888565b61053b565b3480156101d157600080fd5b5061014f6101e0366004610a44565b3f90565b3480156101f057600080fd5b506101186101ff366004610888565b610594565b610118610212366004610888565b6105eb565b34801561022357600080fd5b5061014f610232366004610a79565b610645565b61014f610245366004610a79565b61070b565b34801561025657600080fd5b5061014f610265366004610a44565b3b90565b34801561027557600080fd5b5061014f6107a2565b61014f61028c3660046109c1565b61081e565b34801561029d57600080fd5b50604051308152602001610126565b3480156102b857600080fd5b5061014f6102c7366004610a44565b6001600160a01b03163190565b60006060836001600160a01b0316836040516102f09190610a92565b600060405180830381855afa9150503d806000811461032b576040519150601f19603f3d011682016040523d82523d6000602084013e610330565b606091505b50909590945092505050565b6000604051368482376020813683600089620dbba0f25051949350505050565b6060813b60008167ffffffffffffffff81111561037b5761037b610859565b6040519080825280601f01601f1916602001820160405280156103a5576020820181803683370190505b50905081600060208301863c9392505050565b60408051600481526024810182526020810180516001600160e01b031663d83bf9a160e01b1790529051600091829182916101699134916103f891610a92565b60006040518083038185875af1925050503d8060008114610435576040519150601f19603f3d011682016040523d82523d6000602084013e61043a565b606091505b50915091508161044957600080fd5b8080602001905181019061045d9190610aae565b9250505090565b60006060836001600160a01b031634846040516104819190610a92565b60006040518083038185875af1925050503d80600081146104be576040519150601f19603f3d011682016040523d82523d6000602084013e6104c3565b606091505b50909250905081610534576040517f08c379a000000000000000000000000000000000000000000000000000000000815260206004820152600b60248201527f43616c6c206661696c6564000000000000000000000000000000000000000000604482015260640160405180910390fd5b9250929050565b60006060836001600160a01b0316836040516105579190610a92565b6000604051808303816000865af19150503d806000811461032b576040519150601f19603f3d011682016040523d82523d6000602084013e610330565b60006060836001600160a01b0316836040516105b09190610a92565b600060405180830381855af49150503d806000811461032b576040519150601f19603f3d011682016040523d82523d6000602084013e610330565b60006060836001600160a01b031634846040516106089190610a92565b60006040518083038185875af1925050503d806000811461032b576040519150601f19603f3d011682016040523d82523d6000602084013e610330565b60008060006101686001600160a01b03168460405160240161066991815260200190565b60408051601f198184030181529181526020820180516001600160e01b031663171e7fb560e11b1790525161069e9190610a92565b6000604051808303816000865af19150503d80600081146106db576040519150601f19603f3d011682016040523d82523d6000602084013e6106e0565b606091505b5091509150816106ef57600080fd5b808060200190518101906107039190610aae565b949350505050565b60008060006101686001600160a01b0316348560405160240161073091815260200190565b60408051601f198184030181529181526020820180516001600160e01b031663171e7fb560e11b179052516107659190610a92565b60006040518083038185875af1925050503d80600081146106db576040519150601f19603f3d011682016040523d82523d6000602084013e6106e0565b60408051600481526024810182526020810180516001600160e01b031663d83bf9a160e01b179052905160009182918291610169916107e19190610a92565b6000604051808303816000865af19150503d8060008114610435576040519150601f19603f3d011682016040523d82523d6000602084013e61043a565b60006040513684823760208136833489620dbba0f25051949350505050565b80356001600160a01b038116811461085457600080fd5b919050565b7f4e487b7100000000000000000000000000000000000000000000000000000000600052604160045260246000fd5b6000806040838503121561089b57600080fd5b6108a48361083d565b9150602083013567ffffffffffffffff808211156108c157600080fd5b818501915085601f8301126108d557600080fd5b8135818111156108e7576108e7610859565b604051601f8201601f19908116603f0116810190838211818310171561090f5761090f610859565b8160405282815288602084870101111561092857600080fd5b8260208601602083013760006020848301015280955050505050509250929050565b60005b8381101561096557818101518382015260200161094d565b83811115610974576000848401525b50505050565b6000815180845261099281602086016020860161094a565b601f01601f19169290920160200192915050565b8215158152604060208201526000610703604083018461097a565b6000806000604084860312156109d657600080fd5b6109df8461083d565b9250602084013567ffffffffffffffff808211156109fc57600080fd5b818601915086601f830112610a1057600080fd5b813581811115610a1f57600080fd5b876020828501011115610a3157600080fd5b6020830194508093505050509250925092565b600060208284031215610a5657600080fd5b610a5f8261083d565b9392505050565b602081526000610a5f602083018461097a565b600060208284031215610a8b57600080fd5b5035919050565b60008251610aa481846020870161094a565b9190910192915050565b600060208284031215610ac057600080fd5b505191905056fea26469706673582212205c37a9f7b0a05f851032c68ab7e413fce02c6bd027ff47a783dfe881595a1bc564736f6c63430008090033",
  "linkReferences": {},
  "deployedLinkReferences": {}
}