{
  "_format": "hh-sol-artifact-1",
  "contractName": "EquivalenceContract",
  "sourceName": "contracts/EquivalenceContract.sol",
  "abi": [
    {
      "inputs": [
        {
          "internalType": "address",
          "name": "_addr",
          "type": "address"
        },
        {
          "internalType": "bytes",
          "name": "_customData",
          "type": "bytes"
        }
      ],
      "name": "callCodeToContractWithAmount",
      "outputs": [
        {
          "internalType": "bytes32",
          "name": "returnData",
          "type": "bytes32"
        }
      ],
      "stateMutability": "payable",
      "type": "function"
    },
    {
      "inputs": [
        {
          "internalType": "address",
          "name": "_addr",
          "type": "address"
        },
        {
          "internalType": "bytes",
          "name": "_customData",
          "type": "bytes"
        }
      ],
      "name": "callCodeToContractWithoutAmount",
      "outputs": [
        {
          "internalType": "bytes32",
          "name": "returnData",
          "type": "bytes32"
        }
      ],
      "stateMutability": "nonpayable",
      "type": "function"
    },
    {
      "inputs": [
        {
          "internalType": "address",
          "name": "_address",
          "type": "address"
        }
      ],
      "name": "copyCode",
      "outputs": [
        {
          "internalType": "bytes",
          "name": "",
          "type": "bytes"
        }
      ],
      "stateMutability": "view",
      "type": "function"
    },
    {
      "inputs": [
        {
          "internalType": "uint256",
          "name": "tinycents",
          "type": "uint256"
        }
      ],
      "name": "exchangeRateWithAmount",
      "outputs": [
        {
          "internalType": "uint256",
          "name": "tinybars",
          "type": "uint256"
        }
      ],
      "stateMutability": "payable",
      "type": "function"
    },
    {
      "inputs": [
        {
          "internalType": "uint256",
          "name": "tinycents",
          "type": "uint256"
        }
      ],
      "name": "exchangeRateWithoutAmount",
      "outputs": [
        {
          "internalType": "uint256",
          "name": "tinybars",
          "type": "uint256"
        }
      ],
      "stateMutability": "nonpayable",
      "type": "function"
    },
    {
      "inputs": [
        {
          "internalType": "address",
          "name": "_address",
          "type": "address"
        }
      ],
      "name": "getBalance",
      "outputs": [
        {
          "internalType": "uint256",
          "name": "",
          "type": "uint256"
        }
      ],
      "stateMutability": "view",
      "type": "function"
    },
    {
      "inputs": [
        {
          "internalType": "address",
          "name": "_address",
          "type": "address"
        }
      ],
      "name": "getCodeHash",
      "outputs": [
        {
          "internalType": "bytes32",
          "name": "",
          "type": "bytes32"
        }
      ],
      "stateMutability": "view",
      "type": "function"
    },
    {
      "inputs": [
        {
          "internalType": "address",
          "name": "_address",
          "type": "address"
        }
      ],
      "name": "getCodeSize",
      "outputs": [
        {
          "internalType": "uint256",
          "name": "",
          "type": "uint256"
        }
      ],
      "stateMutability": "view",
      "type": "function"
    },
    {
      "inputs": [],
      "name": "getCurrentAddress",
      "outputs": [
        {
          "internalType": "address",
          "name": "",
          "type": "address"
        }
      ],
      "stateMutability": "nonpayable",
      "type": "function"
    },
    {
      "inputs": [],
      "name": "getPseudorandomSeed",
      "outputs": [
        {
          "internalType": "bytes32",
          "name": "randomBytes",
          "type": "bytes32"
        }
      ],
      "stateMutability": "nonpayable",
      "type": "function"
    },
    {
      "inputs": [],
      "name": "getPseudorandomSeedWithAmount",
      "outputs": [
        {
          "internalType": "bytes32",
          "name": "randomBytes",
          "type": "bytes32"
        }
      ],
      "stateMutability": "payable",
      "type": "function"
    },
    {
      "inputs": [
        {
          "internalType": "address",
          "name": "token",
          "type": "address"
        }
      ],
      "name": "htsCallWithAmount",
      "outputs": [
        {
          "internalType": "bool",
          "name": "success",
          "type": "bool"
        },
        {
          "internalType": "bool",
          "name": "isToken",
          "type": "bool"
        }
      ],
      "stateMutability": "payable",
      "type": "function"
    },
    {
      "inputs": [
        {
          "internalType": "address",
          "name": "token",
          "type": "address"
        }
      ],
      "name": "htsCallWithoutAmount",
      "outputs": [
        {
          "internalType": "bool",
          "name": "success",
          "type": "bool"
        },
        {
          "internalType": "bool",
          "name": "isToken",
          "type": "bool"
        }
      ],
      "stateMutability": "nonpayable",
      "type": "function"
    },
    {
      "inputs": [
        {
          "internalType": "address",
          "name": "token",
          "type": "address"
        }
      ],
      "name": "htsDelegateCall",
      "outputs": [
        {
          "internalType": "bool",
          "name": "success",
          "type": "bool"
        },
        {
          "internalType": "bool",
          "name": "isToken",
          "type": "bool"
        }
      ],
      "stateMutability": "nonpayable",
      "type": "function"
    },
    {
      "inputs": [
        {
          "internalType": "address",
          "name": "token",
          "type": "address"
        }
      ],
      "name": "htsStaticCall",
      "outputs": [
        {
          "internalType": "bool",
          "name": "success",
          "type": "bool"
        },
        {
          "internalType": "bool",
          "name": "isToken",
          "type": "bool"
        }
      ],
      "stateMutability": "nonpayable",
      "type": "function"
    },
    {
      "inputs": [
        {
          "internalType": "address",
          "name": "_to",
          "type": "address"
        },
        {
          "internalType": "bytes",
          "name": "_data",
          "type": "bytes"
        }
      ],
      "name": "makeCallWithAmount",
      "outputs": [
        {
          "internalType": "bool",
          "name": "success",
          "type": "bool"
        },
        {
          "internalType": "bytes",
          "name": "returnData",
          "type": "bytes"
        }
      ],
      "stateMutability": "payable",
      "type": "function"
    },
    {
      "inputs": [
        {
          "internalType": "address",
          "name": "_to",
          "type": "address"
        },
        {
          "internalType": "bytes",
          "name": "_data",
          "type": "bytes"
        }
      ],
      "name": "makeCallWithAmountRevert",
      "outputs": [
        {
          "internalType": "bool",
          "name": "success",
          "type": "bool"
        },
        {
          "internalType": "bytes",
          "name": "returnData",
          "type": "bytes"
        }
      ],
      "stateMutability": "payable",
      "type": "function"
    },
    {
      "inputs": [],
      "name": "makeCallWithAmountToIdentityPrecompile",
      "outputs": [
        {
          "internalType": "bool",
          "name": "success",
          "type": "bool"
        },
        {
          "internalType": "bytes",
          "name": "returnData",
          "type": "bytes"
        }
      ],
      "stateMutability": "payable",
      "type": "function"
    },
    {
      "inputs": [
        {
          "internalType": "address",
          "name": "_to",
          "type": "address"
        },
        {
          "internalType": "bytes",
          "name": "_data",
          "type": "bytes"
        }
      ],
      "name": "makeCallWithoutAmount",
      "outputs": [
        {
          "internalType": "bool",
          "name": "success",
          "type": "bool"
        },
        {
          "internalType": "bytes",
          "name": "returnData",
          "type": "bytes"
        }
      ],
      "stateMutability": "nonpayable",
      "type": "function"
    },
    {
      "inputs": [],
      "name": "makeCallWithoutAmountToIdentityPrecompile",
      "outputs": [
        {
          "internalType": "bool",
          "name": "success",
          "type": "bool"
        },
        {
          "internalType": "bytes",
          "name": "returnData",
          "type": "bytes"
        }
      ],
      "stateMutability": "nonpayable",
      "type": "function"
    },
    {
      "inputs": [
        {
          "internalType": "address",
          "name": "_to",
          "type": "address"
        },
        {
          "internalType": "bytes",
          "name": "_data",
          "type": "bytes"
        }
      ],
      "name": "makeDelegateCall",
      "outputs": [
        {
          "internalType": "bool",
          "name": "success",
          "type": "bool"
        },
        {
          "internalType": "bytes",
          "name": "returnData",
          "type": "bytes"
        }
      ],
      "stateMutability": "nonpayable",
      "type": "function"
    },
    {
      "inputs": [],
      "name": "makeDelegateCallToIdentityPrecompile",
      "outputs": [
        {
          "internalType": "bool",
          "name": "success",
          "type": "bool"
        },
        {
          "internalType": "bytes",
          "name": "returnData",
          "type": "bytes"
        }
      ],
      "stateMutability": "nonpayable",
      "type": "function"
    },
    {
      "inputs": [
        {
          "internalType": "address",
          "name": "_to",
          "type": "address"
        },
        {
          "internalType": "bytes",
          "name": "_data",
          "type": "bytes"
        }
      ],
      "name": "makeStaticCall",
      "outputs": [
        {
          "internalType": "bool",
          "name": "success",
          "type": "bool"
        },
        {
          "internalType": "bytes",
          "name": "returnData",
          "type": "bytes"
        }
      ],
      "stateMutability": "nonpayable",
      "type": "function"
    },
    {
      "inputs": [],
      "name": "makeStaticCallToIdentityPrecompile",
      "outputs": [
        {
          "internalType": "bool",
          "name": "success",
          "type": "bool"
        },
        {
          "internalType": "bytes",
          "name": "returnData",
          "type": "bytes"
        }
      ],
      "stateMutability": "nonpayable",
      "type": "function"
    }
  ],
  "bytecode": "0x6080604052341561001257610012600080fd5b604051611136610024823961113681f3fe6080604052600436106104815760003560e01c806315ed14118114610120576319f88c7d811461016357631d620e2a81146101a657634e73158381146101de57636144ef6d8114610215576367edbd6d811461023057636f68a38e811461025f576375ce65198114610281576376d5810a81146102a257637e38d3a381146102b7576381ea440881146102da5763845b27cd811461030157638771074f8114610323576388b0764a811461034657639154822881146103595763b0d869b1811461036e5763b2539b2e81146103905763b2a07c3e81146103a45763b51c4f9681146103b85763d558bd8e81146103d85763d83bf9a181146103f95763e34c93b8811461041a5763e717ea6181146104305763f8b2cb4f811461045e5761047e565b341561012e5761012e600080fd5b6101393660046105c6565b6101438183610943565b9250905061015060405190565b61015b83838361068a565b925080830381f35b341561017157610171600080fd5b61017c3660046106fc565b610187818385610981565b9250505061019460405190565b61019e828261075e565b915080820381f35b34156101b4576101b4600080fd5b6101bf36600461076c565b6101c881610de8565b91506101d360405190565b61015b83838361078d565b34156101ec576101ec600080fd5b6101f736600461076c565b61020081610a20565b905061020b60405190565b61019e82826107af565b6102203660046107c0565b610228610b12565b604051610194565b341561023e5761023e600080fd5b6102493660046107c0565b610251610f03565b60405161015b82848361068a565b341561026d5761026d600080fd5b61027836600461076c565b6101c881610e42565b341561028f5761028f600080fd5b61029a3660046107c0565b610251611078565b6102ad3660046105c6565b6101438183610909565b34156102c5576102c5600080fd5b6102d03660046105c6565b6101438183610866565b34156102e8576102e8600080fd5b6102f336600461076c565b803f5b905061019460405190565b341561030f5761030f600080fd5b61031a36600461076c565b6101c881610cce565b341561033157610331600080fd5b61033c3660046105c6565b6101438183610962565b6103513660046107c0565b610251610f83565b6103643660046105c6565b6101438183610891565b341561037c5761037c600080fd5b6103873660046107e8565b6102f681610b72565b61039b36600461076c565b6101c881610d85565b6103af3660046107e8565b6102f681610be0565b34156103c6576103c6600080fd5b6103d136600461076c565b803b6102f6565b34156103e6576103e6600080fd5b6103f13660046107c0565b610251610fff565b341561040757610407600080fd5b6104123660046107c0565b610228610aa6565b6104253660046106fc565b6101878183856109b4565b341561043e5761043e600080fd5b6104493660046107c0565b610451610ec6565b60405161019e8282610812565b341561046c5761046c600080fd5b61047736600461076c565b80316102f6565b50505b610489600080fd5b6110f1565b60006001600160a01b0382165b92915050565b6104aa8161048e565b81146104b557600080fd5b50565b803561049b816104a1565b634e487b7160e01b600052604160045260246000fd5b601f19601f830116810181811067ffffffffffffffff821117156104ff576104ff6104c3565b6040525050565b600061051160405190565b905061051d82826104d9565b919050565b600067ffffffffffffffff82111561053c5761053c6104c3565b601f19601f83011660200192915050565b82818337506000910152565b600061056c61056784610522565b610506565b90508281526020810184848401111561058757610587600080fd5b61059284828561054d565b509392505050565b600082601f8301126105ae576105ae600080fd5b81356105be848260208601610559565b949350505050565b600080604083850312156105dc576105dc600080fd5b60006105e885856104b8565b925050602083013567ffffffffffffffff81111561060857610608600080fd5b6106148582860161059a565b9150509250929050565b8015155b82525050565b60005b8381101561064357818101518382015260200161062b565b83811115610652576000848401525b50505050565b6000610662825190565b808452602084019350610679818560208601610628565b601f01601f19169290920192915050565b60408101610698828461061e565b81810360208301526105be8185610658565b60008083601f8401126106bf576106bf600080fd5b50813567ffffffffffffffff8111156106da576106da600080fd5b6020830191508360018202830111156106f5576106f5600080fd5b9250929050565b60008060006040848603121561071457610714600080fd5b600061072086866104b8565b935050602084013567ffffffffffffffff81111561074057610740600080fd5b61074c868287016106aa565b92509250509250925092565b80610622565b6020810161049b8284610758565b60006020828403121561078157610781600080fd5b60006105be84846104b8565b6040810161079b828461061e565b6107a8602083018561061e565b9392505050565b602080825281016107a88184610658565b600081830312156107d3576107d3600080fd5b5050565b806104aa565b803561049b816107d7565b6000602082840312156107fd576107fd600080fd5b60006105be84846107dd565b6106228161048e565b6020810161049b8284610809565b600061082b82610522565b61083481610506565b9283525090919050565b60003d801561085e576108503d610820565b91503d6000602084013e5090565b606091505090565b815160009060609060208501908380828482895af191505061088661083e565b909590945092505050565b81516000906060903490602086019084808284868a5af19250505061088661083e565b600b8152602081016a10d85b1b0819985a5b195960aa1b815290505b60200190565b6020808252810161049b816108b4565b806104b55760405162461bcd60e51b8152610903600482016108d6565b81810382fd5b81516000906060903490602086019084808284868a5af19250505061092c61083e565b90925090508161093b816108e6565b509250929050565b8151600090606090602085019083808284885afa91505061088661083e565b8151600090606090602085019083808284885af491505061088661083e565b6040805136808201909252600091848237604051602081016040526020813684600088620dbba0f2505195945050505050565b60408051368082019092526000918482376040516020810160405260208136843488620dbba0f2505195945050505050565b813682375050565b60006109f982610820565b905080610a0583610522565b602083019150601f1901610a1981836109e6565b5050919050565b6060813b610a2d816109ee565b81600060208301863c9392505050565b600061049b82610a4b565b90565b6001600160a01b031690565b600061049b82610a3d565b600061016961049b81610a57565b806104b557600080fd5b805161049b816107d7565b600060208284031215610a9a57610a9a600080fd5b60006105be8484610a7a565b6000610ab0610a62565b60405163d83bf9a160e01b602082015260048152602480820190610ad490836104d9565b50805190602001600080838382875af192505050610af061083e565b610af982610a70565b6107a8610b04825190565b602083010160208301610a85565b6000610b1c610a62565b34610b2660405190565b63d83bf9a160e01b602082015260048152602480820190610b4790836104d9565b50805190602001600080838386885af19350505050610af061083e565b600061016861049b81610a57565b6000610b7c610b64565b60405163171e7fb560e11b602082015260248101610b9a858261075e565b90506020820181038252610bb0828203836104d9565b50805190602001600080838382875af192505050610bcc61083e565b610bd582610a70565b6105be610b04825190565b6000610bea610b64565b34610bf460405190565b63171e7fb560e11b602082015260248101610c0f868261075e565b90506020820181038252610c25828203836104d9565b50805190602001600080838386885af19350505050610bcc61083e565b600061016761049b81610a57565b6104aa8160030b90565b805161049b81610c50565b8015156104aa565b805161049b81610c65565b60008060408385031215610c8e57610c8e600080fd5b6000610c9a8585610c5a565b925050602061061485828601610c6d565b600061049b610cbd610a488460030b90565b60070b90565b600061049b82610cbd565b600080610cd9610c42565b6040516319f3736160e01b602082015260248101610cf78682610812565b90506020820181038252610d0d828203836104d9565b50805190602001600080838382875af192505050610d2961083e565b8115610d7e57610d48610d3a825190565b602083010160208301610c78565b610d5182610cab565b91506016610d5e81610cc3565b610d688460070b90565b14925050819550818215610d795750805b945050505b5050915091565b600080610d90610c42565b34610d9a60405190565b6319f3736160e01b602082015260248101610db58782610812565b90506020820181038252610dcb828203836104d9565b50805190602001600080838386885af19350505050610d2961083e565b600080610df3610c42565b6040516319f3736160e01b602082015260248101610e118682610812565b90506020820181038252610e27828203836104d9565b508051906020016000808383865afa92505050610d2961083e565b600080610e4d610c42565b6040516319f3736160e01b602082015260248101610e6b8682610812565b90506020820181038252610e81828203836104d9565b508051906020016000808383865af492505050610d2961083e565b600061049b6001600160a01b038316610a4b565b600061049b82610e9c565b600061049b82610eb0565b60003061049b81610ebb565b600c8152602081016b12195b1b1bcb0815dbdc9b1960a21b815290506108d0565b6020808252810161049b81610ed2565b60405160009060609060208101610f1981610ef3565b8181038352610f2a838203846104d9565b50506004610f3781610a57565b9050610f4260405190565b60208101610f5084826107af565b93508084038252610f63828503836104d9565b8151935060008085836000875af15050505050610f7e61083e565b509091565b60405160009060609060208101610f9981610ef3565b8181038352610faa838203846104d9565b50506004610fb781610a57565b905034610fc360405190565b60208101610fd185826107af565b94508085038252610fe4828603836104d9565b81519450600080868386885af1505050505050610f7e61083e565b6040516000906060906020810161101581610ef3565b8181038352611026838203846104d9565b5050600461103381610a57565b905061103e60405190565b6020810161104c84826107af565b9350808403825261105f828503836104d9565b815193506000808583865afa5050505050610f7e61083e565b6040516000906060906020810161108e81610ef3565b818103835261109f838203846104d9565b505060046110ac81610a57565b90506110b760405190565b602081016110c584826107af565b935080840382526110d8828503836104d9565b815193506000808583865af45050505050610f7e61083e565bfea3646970667358221220be451a2f60d092e644ec2f5d6fda63e51872ccf3f9687188dce1c888583c68756c6578706572696d656e74616cf564736f6c63430008090041",
  "linkReferences": {},
  "deployedLinkReferences": {}
}