{
  "_format": "hh-sol-artifact-1",
  "contractName": "EquivalenceContract",
  "sourceName": "contracts/EquivalenceContract.sol",
  "abi": [
    {
      "inputs": [
        {
          "internalType": "address",
          "name": "_address",
          "type": "address"
        },
        {
          "internalType": "bytes4",
          "name": "_sig",
          "type": "bytes4"
        }
      ],
      "name": "callCodeToContractWithAmount",
      "outputs": [
        {
          "internalType": "address",
          "name": "",
          "type": "address"
        }
      ],
      "stateMutability": "payable",
      "type": "function"
    },
    {
      "inputs": [
        {
          "internalType": "address",
          "name": "_address",
          "type": "address"
        },
        {
          "internalType": "bytes4",
          "name": "_sig",
          "type": "bytes4"
        }
      ],
      "name": "callCodeToContractWithoutAmount",
      "outputs": [
        {
          "internalType": "address",
          "name": "",
          "type": "address"
        }
      ],
      "stateMutability": "nonpayable",
      "type": "function"
    },
    {
      "inputs": [
        {
          "internalType": "address",
          "name": "_address",
          "type": "address"
        }
      ],
      "name": "copyCode",
      "outputs": [
        {
          "internalType": "bytes",
          "name": "",
          "type": "bytes"
        }
      ],
      "stateMutability": "view",
      "type": "function"
    },
    {
      "inputs": [
        {
          "internalType": "address",
          "name": "_address",
          "type": "address"
        }
      ],
      "name": "getBalance",
      "outputs": [
        {
          "internalType": "uint256",
          "name": "",
          "type": "uint256"
        }
      ],
      "stateMutability": "view",
      "type": "function"
    },
    {
      "inputs": [
        {
          "internalType": "address",
          "name": "_address",
          "type": "address"
        }
      ],
      "name": "getCodeHash",
      "outputs": [
        {
          "internalType": "bytes32",
          "name": "",
          "type": "bytes32"
        }
      ],
      "stateMutability": "view",
      "type": "function"
    },
    {
      "inputs": [
        {
          "internalType": "address",
          "name": "_address",
          "type": "address"
        }
      ],
      "name": "getCodeSize",
      "outputs": [
        {
          "internalType": "uint256",
          "name": "",
          "type": "uint256"
        }
      ],
      "stateMutability": "view",
      "type": "function"
    },
    {
      "inputs": [],
      "name": "getPseudorandomSeed",
      "outputs": [
        {
          "internalType": "bytes32",
          "name": "randomBytes",
          "type": "bytes32"
        }
      ],
      "stateMutability": "nonpayable",
      "type": "function"
    },
    {
      "inputs": [],
      "name": "getPseudorandomSeedWithAmount",
      "outputs": [
        {
          "internalType": "bytes32",
          "name": "randomBytes",
          "type": "bytes32"
        }
      ],
      "stateMutability": "payable",
      "type": "function"
    },
    {
      "inputs": [
        {
          "internalType": "address",
          "name": "_to",
          "type": "address"
        },
        {
          "internalType": "bytes",
          "name": "_data",
          "type": "bytes"
        }
      ],
      "name": "makeCallWithAmount",
      "outputs": [
        {
          "internalType": "bool",
          "name": "success",
          "type": "bool"
        },
        {
          "internalType": "bytes",
          "name": "returnData",
          "type": "bytes"
        }
      ],
      "stateMutability": "payable",
      "type": "function"
    },
    {
      "inputs": [
        {
          "internalType": "address",
          "name": "_to",
          "type": "address"
        },
        {
          "internalType": "bytes",
          "name": "_data",
          "type": "bytes"
        }
      ],
      "name": "makeCallWithoutAmount",
      "outputs": [
        {
          "internalType": "bool",
          "name": "success",
          "type": "bool"
        },
        {
          "internalType": "bytes",
          "name": "returnData",
          "type": "bytes"
        }
      ],
      "stateMutability": "nonpayable",
      "type": "function"
    },
    {
      "inputs": [
        {
          "internalType": "address",
          "name": "_to",
          "type": "address"
        },
        {
          "internalType": "bytes",
          "name": "_data",
          "type": "bytes"
        }
      ],
      "name": "makeDelegateCall",
      "outputs": [
        {
          "internalType": "bool",
          "name": "success",
          "type": "bool"
        },
        {
          "internalType": "bytes",
          "name": "returnData",
          "type": "bytes"
        }
      ],
      "stateMutability": "nonpayable",
      "type": "function"
    },
    {
      "inputs": [
        {
          "internalType": "address",
          "name": "_to",
          "type": "address"
        },
        {
          "internalType": "bytes",
          "name": "_data",
          "type": "bytes"
        }
      ],
      "name": "makeStaticCall",
      "outputs": [
        {
          "internalType": "bool",
          "name": "success",
          "type": "bool"
        },
        {
          "internalType": "bytes",
          "name": "returnData",
          "type": "bytes"
        }
      ],
      "stateMutability": "nonpayable",
      "type": "function"
    }
  ],
  "bytecode": "0x608060405234801561001057600080fd5b5061089e806100206000396000f3fe6080604052600436106100c75760003560e01c80638771074f11610074578063d83bf9a11161004e578063d83bf9a114610202578063e9412a8e14610217578063f8b2cb4f1461023757600080fd5b80638771074f146101b057806391548228146101d0578063b51c4f96146101e357600080fd5b80637a3e2005116100a55780637a3e2005146101465780637e38d3a31461017157806381ea44081461019157600080fd5b806315ed1411146100cc5780634e731583146101035780636144ef6d14610130575b600080fd5b3480156100d857600080fd5b506100ec6100e736600461063e565b61025f565b6040516100fa92919061075e565b60405180910390f35b34801561010f57600080fd5b5061012361011e366004610781565b6102c7565b6040516100fa91906107a5565b610138610323565b6040519081526020016100fa565b6101596101543660046107b8565b6103e4565b6040516001600160a01b0390911681526020016100fa565b34801561017d57600080fd5b506100ec61018c36600461063e565b610425565b34801561019d57600080fd5b506101386101ac366004610781565b3f90565b3480156101bc57600080fd5b506100ec6101cb36600461063e565b61047e565b6100ec6101de36600461063e565b6104d5565b3480156101ef57600080fd5b506101386101fe366004610781565b3b90565b34801561020e57600080fd5b5061013861052f565b34801561022357600080fd5b506101596102323660046107b8565b6105c0565b34801561024357600080fd5b50610138610252366004610781565b6001600160a01b03163190565b60006060836001600160a01b03168360405161027b9190610816565b600060405180830381855afa9150503d80600081146102b6576040519150601f19603f3d011682016040523d82523d6000602084013e6102bb565b606091505b50909590945092505050565b6060813b60008167ffffffffffffffff8111156102e6576102e661060f565b6040519080825280601f01601f191660200182016040528015610310576020820181803683370190505b50905081600060208301863c9392505050565b60408051600481526024810182526020810180517bffffffffffffffffffffffffffffffffffffffffffffffffffffffff1663d83bf9a160e01b17905290516000918291829161016991349161037891610816565b60006040518083038185875af1925050503d80600081146103b5576040519150601f19603f3d011682016040523d82523d6000602084013e6103ba565b606091505b5091509150816103c957600080fd5b808060200190518101906103dd9190610832565b9250505090565b60006060600060405184815234602082600484848b61c350f2602083810160405283865290935061041c92850181019150840161084b565b95945050505050565b60006060836001600160a01b0316836040516104419190610816565b6000604051808303816000865af19150503d80600081146102b6576040519150601f19603f3d011682016040523d82523d6000602084013e6102bb565b60006060836001600160a01b03168360405161049a9190610816565b600060405180830381855af49150503d80600081146102b6576040519150601f19603f3d011682016040523d82523d6000602084013e6102bb565b60006060836001600160a01b031634846040516104f29190610816565b60006040518083038185875af1925050503d80600081146102b6576040519150601f19603f3d011682016040523d82523d6000602084013e6102bb565b60408051600481526024810182526020810180517bffffffffffffffffffffffffffffffffffffffffffffffffffffffff1663d83bf9a160e01b179052905160009182918291610169916105839190610816565b6000604051808303816000865af19150503d80600081146103b5576040519150601f19603f3d011682016040523d82523d6000602084013e6103ba565b60006060600060405184815260208160048360008a61c350f2602082810160405282855290925061041c918401810190840161084b565b6001600160a01b038116811461060c57600080fd5b50565b7f4e487b7100000000000000000000000000000000000000000000000000000000600052604160045260246000fd5b6000806040838503121561065157600080fd5b823561065c816105f7565b9150602083013567ffffffffffffffff8082111561067957600080fd5b818501915085601f83011261068d57600080fd5b81358181111561069f5761069f61060f565b604051601f8201601f19908116603f011681019083821181831017156106c7576106c761060f565b816040528281528860208487010111156106e057600080fd5b8260208601602083013760006020848301015280955050505050509250929050565b60005b8381101561071d578181015183820152602001610705565b8381111561072c576000848401525b50505050565b6000815180845261074a816020860160208601610702565b601f01601f19169290920160200192915050565b82151581526040602082015260006107796040830184610732565b949350505050565b60006020828403121561079357600080fd5b813561079e816105f7565b9392505050565b60208152600061079e6020830184610732565b600080604083850312156107cb57600080fd5b82356107d6816105f7565b915060208301357fffffffff000000000000000000000000000000000000000000000000000000008116811461080b57600080fd5b809150509250929050565b60008251610828818460208701610702565b9190910192915050565b60006020828403121561084457600080fd5b5051919050565b60006020828403121561085d57600080fd5b815161079e816105f756fea26469706673582212205d0f5c7d0ed918fa16de87d3227cd12f44ac2a457a72c617893e4bb024257cbb64736f6c63430008090033",
  "linkReferences": {},
  "deployedLinkReferences": {}
}