{
  "_format": "hh-sol-artifact-1",
  "contractName": "EquivalenceContract",
  "sourceName": "contracts/EquivalenceContract.sol",
  "abi": [
    {
      "inputs": [
        {
          "internalType": "address",
          "name": "_addr",
          "type": "address"
        },
        {
          "internalType": "bytes",
          "name": "_customData",
          "type": "bytes"
        }
      ],
      "name": "callCodeToContractWithAmount",
      "outputs": [
        {
          "internalType": "bytes32",
          "name": "returnData",
          "type": "bytes32"
        }
      ],
      "stateMutability": "payable",
      "type": "function"
    },
    {
      "inputs": [
        {
          "internalType": "address",
          "name": "_addr",
          "type": "address"
        },
        {
          "internalType": "bytes",
          "name": "_customData",
          "type": "bytes"
        }
      ],
      "name": "callCodeToContractWithoutAmount",
      "outputs": [
        {
          "internalType": "bytes32",
          "name": "returnData",
          "type": "bytes32"
        }
      ],
      "stateMutability": "nonpayable",
      "type": "function"
    },
    {
      "inputs": [
        {
          "internalType": "address",
          "name": "_address",
          "type": "address"
        }
      ],
      "name": "copyCode",
      "outputs": [
        {
          "internalType": "bytes",
          "name": "",
          "type": "bytes"
        }
      ],
      "stateMutability": "view",
      "type": "function"
    },
    {
      "inputs": [
        {
          "internalType": "uint256",
          "name": "tinycents",
          "type": "uint256"
        }
      ],
      "name": "exchangeRateWithAmount",
      "outputs": [
        {
          "internalType": "uint256",
          "name": "tinybars",
          "type": "uint256"
        }
      ],
      "stateMutability": "payable",
      "type": "function"
    },
    {
      "inputs": [
        {
          "internalType": "uint256",
          "name": "tinycents",
          "type": "uint256"
        }
      ],
      "name": "exchangeRateWithoutAmount",
      "outputs": [
        {
          "internalType": "uint256",
          "name": "tinybars",
          "type": "uint256"
        }
      ],
      "stateMutability": "nonpayable",
      "type": "function"
    },
    {
      "inputs": [
        {
          "internalType": "address",
          "name": "_address",
          "type": "address"
        }
      ],
      "name": "getBalance",
      "outputs": [
        {
          "internalType": "uint256",
          "name": "",
          "type": "uint256"
        }
      ],
      "stateMutability": "view",
      "type": "function"
    },
    {
      "inputs": [
        {
          "internalType": "address",
          "name": "_address",
          "type": "address"
        }
      ],
      "name": "getCodeHash",
      "outputs": [
        {
          "internalType": "bytes32",
          "name": "",
          "type": "bytes32"
        }
      ],
      "stateMutability": "view",
      "type": "function"
    },
    {
      "inputs": [
        {
          "internalType": "address",
          "name": "_address",
          "type": "address"
        }
      ],
      "name": "getCodeSize",
      "outputs": [
        {
          "internalType": "uint256",
          "name": "",
          "type": "uint256"
        }
      ],
      "stateMutability": "view",
      "type": "function"
    },
    {
      "inputs": [],
      "name": "getCurrentAddress",
      "outputs": [
        {
          "internalType": "address",
          "name": "",
          "type": "address"
        }
      ],
      "stateMutability": "nonpayable",
      "type": "function"
    },
    {
      "inputs": [],
      "name": "getPseudorandomSeed",
      "outputs": [
        {
          "internalType": "bytes32",
          "name": "randomBytes",
          "type": "bytes32"
        }
      ],
      "stateMutability": "nonpayable",
      "type": "function"
    },
    {
      "inputs": [],
      "name": "getPseudorandomSeedWithAmount",
      "outputs": [
        {
          "internalType": "bytes32",
          "name": "randomBytes",
          "type": "bytes32"
        }
      ],
      "stateMutability": "payable",
      "type": "function"
    },
    {
      "inputs": [
        {
          "internalType": "address",
          "name": "token",
          "type": "address"
        }
      ],
      "name": "htsCallWithAmount",
      "outputs": [
        {
          "internalType": "bool",
          "name": "success",
          "type": "bool"
        },
        {
          "internalType": "bool",
          "name": "isToken",
          "type": "bool"
        }
      ],
      "stateMutability": "payable",
      "type": "function"
    },
    {
      "inputs": [
        {
          "internalType": "address",
          "name": "token",
          "type": "address"
        }
      ],
      "name": "htsCallWithoutAmount",
      "outputs": [
        {
          "internalType": "bool",
          "name": "success",
          "type": "bool"
        },
        {
          "internalType": "bool",
          "name": "isToken",
          "type": "bool"
        }
      ],
      "stateMutability": "nonpayable",
      "type": "function"
    },
    {
      "inputs": [
        {
          "internalType": "address",
          "name": "token",
          "type": "address"
        }
      ],
      "name": "htsDelegateCall",
      "outputs": [
        {
          "internalType": "bool",
          "name": "success",
          "type": "bool"
        },
        {
          "internalType": "bool",
          "name": "isToken",
          "type": "bool"
        }
      ],
      "stateMutability": "nonpayable",
      "type": "function"
    },
    {
      "inputs": [
        {
          "internalType": "address",
          "name": "token",
          "type": "address"
        }
      ],
      "name": "htsStaticCall",
      "outputs": [
        {
          "internalType": "bool",
          "name": "success",
          "type": "bool"
        },
        {
          "internalType": "bool",
          "name": "isToken",
          "type": "bool"
        }
      ],
      "stateMutability": "nonpayable",
      "type": "function"
    },
    {
      "inputs": [
        {
          "internalType": "address",
          "name": "_to",
          "type": "address"
        },
        {
          "internalType": "bytes",
          "name": "_data",
          "type": "bytes"
        }
      ],
      "name": "makeCallWithAmount",
      "outputs": [
        {
          "internalType": "bool",
          "name": "success",
          "type": "bool"
        },
        {
          "internalType": "bytes",
          "name": "returnData",
          "type": "bytes"
        }
      ],
      "stateMutability": "payable",
      "type": "function"
    },
    {
      "inputs": [],
      "name": "makeCallWithAmountToIdentityPrecompile",
      "outputs": [
        {
          "internalType": "bool",
          "name": "success",
          "type": "bool"
        },
        {
          "internalType": "bytes",
          "name": "returnData",
          "type": "bytes"
        }
      ],
      "stateMutability": "payable",
      "type": "function"
    },
    {
      "inputs": [
        {
          "internalType": "address",
          "name": "_to",
          "type": "address"
        },
        {
          "internalType": "bytes",
          "name": "_data",
          "type": "bytes"
        }
      ],
      "name": "makeCallWithoutAmount",
      "outputs": [
        {
          "internalType": "bool",
          "name": "success",
          "type": "bool"
        },
        {
          "internalType": "bytes",
          "name": "returnData",
          "type": "bytes"
        }
      ],
      "stateMutability": "nonpayable",
      "type": "function"
    },
    {
      "inputs": [],
      "name": "makeCallWithoutAmountToIdentityPrecompile",
      "outputs": [
        {
          "internalType": "bool",
          "name": "success",
          "type": "bool"
        },
        {
          "internalType": "bytes",
          "name": "returnData",
          "type": "bytes"
        }
      ],
      "stateMutability": "nonpayable",
      "type": "function"
    },
    {
      "inputs": [
        {
          "internalType": "address",
          "name": "_to",
          "type": "address"
        },
        {
          "internalType": "bytes",
          "name": "_data",
          "type": "bytes"
        }
      ],
      "name": "makeDelegateCall",
      "outputs": [
        {
          "internalType": "bool",
          "name": "success",
          "type": "bool"
        },
        {
          "internalType": "bytes",
          "name": "returnData",
          "type": "bytes"
        }
      ],
      "stateMutability": "nonpayable",
      "type": "function"
    },
    {
      "inputs": [],
      "name": "makeDelegateCallToIdentityPrecompile",
      "outputs": [
        {
          "internalType": "bool",
          "name": "success",
          "type": "bool"
        },
        {
          "internalType": "bytes",
          "name": "returnData",
          "type": "bytes"
        }
      ],
      "stateMutability": "nonpayable",
      "type": "function"
    },
    {
      "inputs": [
        {
          "internalType": "address",
          "name": "_to",
          "type": "address"
        },
        {
          "internalType": "bytes",
          "name": "_data",
          "type": "bytes"
        }
      ],
      "name": "makeStaticCall",
      "outputs": [
        {
          "internalType": "bool",
          "name": "success",
          "type": "bool"
        },
        {
          "internalType": "bytes",
          "name": "returnData",
          "type": "bytes"
        }
      ],
      "stateMutability": "nonpayable",
      "type": "function"
    },
    {
      "inputs": [],
      "name": "makeStaticCallToIdentityPrecompile",
      "outputs": [
        {
          "internalType": "bool",
          "name": "success",
          "type": "bool"
        },
        {
          "internalType": "bytes",
          "name": "returnData",
          "type": "bytes"
        }
      ],
      "stateMutability": "nonpayable",
      "type": "function"
    }
  ],
  "bytecode": "0x608060405234801561001057600080fd5b5061114c806100206000396000f3fe6080604052600436106101705760003560e01c80638771074f116100d6578063b51c4f961161007f578063e34c93b811610059578063e34c93b8146103b9578063e717ea61146103cc578063f8b2cb4f146103e757600080fd5b8063b51c4f9614610370578063d558bd8e1461038f578063d83bf9a1146103a457600080fd5b8063b0d869b1116100b0578063b0d869b11461032a578063b2539b2e1461034a578063b2a07c3e1461035d57600080fd5b80638771074f146102ef57806388b0764a1461030f578063915482281461031757600080fd5b806367edbd6d116101385780637e38d3a3116101125780637e38d3a31461029057806381ea4408146102b0578063845b27cd146102cf57600080fd5b806367edbd6d146102465780636f68a38e1461025b57806375ce65191461027b57600080fd5b806315ed14111461017557806319f88c7d146101ac5780631d620e2a146101da5780634e731583146102115780636144ef6d1461023e575b600080fd5b34801561018157600080fd5b50610195610190366004610e92565b61040f565b6040516101a3929190610fb0565b60405180910390f35b3480156101b857600080fd5b506101cc6101c7366004610fcb565b610477565b6040519081526020016101a3565b3480156101e657600080fd5b506101fa6101f536600461104e565b6104a8565b6040805192151583529015156020830152016101a3565b34801561021d57600080fd5b5061023161022c36600461104e565b610587565b6040516101a39190611070565b6101cc6105e3565b34801561025257600080fd5b5061019561068f565b34801561026757600080fd5b506101fa61027636600461104e565b61075d565b34801561028757600080fd5b506101956107ef565b34801561029c57600080fd5b506101956102ab366004610e92565b6108aa565b3480156102bc57600080fd5b506101cc6102cb36600461104e565b3f90565b3480156102db57600080fd5b506101fa6102ea36600461104e565b610903565b3480156102fb57600080fd5b5061019561030a366004610e92565b610997565b6101956109ee565b610195610325366004610e92565b610aac565b34801561033657600080fd5b506101cc610345366004611083565b610b06565b6101fa61035836600461104e565b610bcc565b6101cc61036b366004611083565b610c62565b34801561037c57600080fd5b506101cc61038b36600461104e565b3b90565b34801561039b57600080fd5b50610195610cf9565b3480156103b057600080fd5b506101cc610db4565b6101cc6103c7366004610fcb565b610e30565b3480156103d857600080fd5b506040513081526020016101a3565b3480156103f357600080fd5b506101cc61040236600461104e565b6001600160a01b03163190565b60006060836001600160a01b03168360405161042b919061109c565b600060405180830381855afa9150503d8060008114610466576040519150601f19603f3d011682016040523d82523d6000602084013e61046b565b606091505b50909590945092505050565b60006040513681016040523684823760405160208101604052602081368460008a620dbba0f2505195945050505050565b6040516001600160a01b03821660248201526000908190819081906101679060440160408051601f198184030181529181526020820180516001600160e01b03166319f3736160e01b179052516104ff919061109c565b600060405180830381855afa9150503d806000811461053a576040519150601f19603f3d011682016040523d82523d6000602084013e61053f565b606091505b50915091508115610580576000808280602001905181019061056191906110b8565b915060030b91508160070b601614955085801561057b5750805b945050505b5050915091565b6060813b60008167ffffffffffffffff8111156105a6576105a6610e7c565b6040519080825280601f01601f1916602001820160405280156105d0576020820181803683370190505b50905081600060208301863c9392505050565b60408051600481526024810182526020810180516001600160e01b031663d83bf9a160e01b1790529051600091829182916101699134916106239161109c565b60006040518083038185875af1925050503d8060008114610660576040519150601f19603f3d011682016040523d82523d6000602084013e610665565b606091505b50915091508161067457600080fd5b8080602001905181019061068891906110fd565b9250505090565b6000606060006040516020016106c5906020808252600c908201526b12195b1b1bcb0815dbdc9b1960a21b604082015260600190565b604051602081830303815290604052905060008060046001600160a01b0316836040516020016106f59190611070565b60408051601f198184030181529082905261070f9161109c565b6000604051808303816000865af19150503d806000811461074c576040519150601f19603f3d011682016040523d82523d6000602084013e610751565b606091505b50915091505050509091565b6040516001600160a01b03821660248201526000908190819081906101679060440160408051601f198184030181529181526020820180516001600160e01b03166319f3736160e01b179052516107b4919061109c565b600060405180830381855af49150503d806000811461053a576040519150601f19603f3d011682016040523d82523d6000602084013e61053f565b600060606000604051602001610825906020808252600c908201526b12195b1b1bcb0815dbdc9b1960a21b604082015260600190565b604051602081830303815290604052905060008060046001600160a01b0316836040516020016108559190611070565b60408051601f198184030181529082905261086f9161109c565b600060405180830381855af49150503d806000811461074c576040519150601f19603f3d011682016040523d82523d6000602084013e610751565b60006060836001600160a01b0316836040516108c6919061109c565b6000604051808303816000865af19150503d8060008114610466576040519150601f19603f3d011682016040523d82523d6000602084013e61046b565b6040516001600160a01b03821660248201526000908190819081906101679060440160408051601f198184030181529181526020820180516001600160e01b03166319f3736160e01b1790525161095a919061109c565b6000604051808303816000865af19150503d806000811461053a576040519150601f19603f3d011682016040523d82523d6000602084013e61053f565b60006060836001600160a01b0316836040516109b3919061109c565b600060405180830381855af49150503d8060008114610466576040519150601f19603f3d011682016040523d82523d6000602084013e61046b565b600060606000604051602001610a24906020808252600c908201526b12195b1b1bcb0815dbdc9b1960a21b604082015260600190565b604051602081830303815290604052905060008060046001600160a01b03163484604051602001610a559190611070565b60408051601f1981840301815290829052610a6f9161109c565b60006040518083038185875af1925050503d806000811461074c576040519150601f19603f3d011682016040523d82523d6000602084013e610751565b60006060836001600160a01b03163484604051610ac9919061109c565b60006040518083038185875af1925050503d8060008114610466576040519150601f19603f3d011682016040523d82523d6000602084013e61046b565b60008060006101686001600160a01b031684604051602401610b2a91815260200190565b60408051601f198184030181529181526020820180516001600160e01b031663171e7fb560e11b17905251610b5f919061109c565b6000604051808303816000865af19150503d8060008114610b9c576040519150601f19603f3d011682016040523d82523d6000602084013e610ba1565b606091505b509150915081610bb057600080fd5b80806020019051810190610bc491906110fd565b949350505050565b6040516001600160a01b038216602482015260009081908190819061016790349060440160408051601f198184030181529181526020820180516001600160e01b03166319f3736160e01b17905251610c25919061109c565b60006040518083038185875af1925050503d806000811461053a576040519150601f19603f3d011682016040523d82523d6000602084013e61053f565b60008060006101686001600160a01b03163485604051602401610c8791815260200190565b60408051601f198184030181529181526020820180516001600160e01b031663171e7fb560e11b17905251610cbc919061109c565b60006040518083038185875af1925050503d8060008114610b9c576040519150601f19603f3d011682016040523d82523d6000602084013e610ba1565b600060606000604051602001610d2f906020808252600c908201526b12195b1b1bcb0815dbdc9b1960a21b604082015260600190565b604051602081830303815290604052905060008060046001600160a01b031683604051602001610d5f9190611070565b60408051601f1981840301815290829052610d799161109c565b600060405180830381855afa9150503d806000811461074c576040519150601f19603f3d011682016040523d82523d6000602084013e610751565b60408051600481526024810182526020810180516001600160e01b031663d83bf9a160e01b17905290516000918291829161016991610df3919061109c565b6000604051808303816000865af19150503d8060008114610660576040519150601f19603f3d011682016040523d82523d6000602084013e610665565b600060405136810160405236848237604051602081016040526020813684348a620dbba0f2505195945050505050565b80356001600160a01b0381168114610e7757600080fd5b919050565b634e487b7160e01b600052604160045260246000fd5b60008060408385031215610ea557600080fd5b610eae83610e60565b9150602083013567ffffffffffffffff80821115610ecb57600080fd5b818501915085601f830112610edf57600080fd5b813581811115610ef157610ef1610e7c565b604051601f8201601f19908116603f01168101908382118183101715610f1957610f19610e7c565b81604052828152886020848701011115610f3257600080fd5b8260208601602083013760006020848301015280955050505050509250929050565b60005b83811015610f6f578181015183820152602001610f57565b83811115610f7e576000848401525b50505050565b60008151808452610f9c816020860160208601610f54565b601f01601f19169290920160200192915050565b8215158152604060208201526000610bc46040830184610f84565b600080600060408486031215610fe057600080fd5b610fe984610e60565b9250602084013567ffffffffffffffff8082111561100657600080fd5b818601915086601f83011261101a57600080fd5b81358181111561102957600080fd5b87602082850101111561103b57600080fd5b6020830194508093505050509250925092565b60006020828403121561106057600080fd5b61106982610e60565b9392505050565b6020815260006110696020830184610f84565b60006020828403121561109557600080fd5b5035919050565b600082516110ae818460208701610f54565b9190910192915050565b600080604083850312156110cb57600080fd5b82518060030b81146110dc57600080fd5b602084015190925080151581146110f257600080fd5b809150509250929050565b60006020828403121561110f57600080fd5b505191905056fea2646970667358221220b774fcfcede95d5d0a658065ae9aba74acf713de4417f59168cf907ed0bbe87764736f6c63430008090033",
  "linkReferences": {},
  "deployedLinkReferences": {}
}