{
  "_format": "hh-sol-artifact-1",
  "contractName": "EquivalenceContract",
  "sourceName": "contracts/EquivalenceContract.sol",
  "abi": [
    {
      "inputs": [
        {
          "internalType": "address",
          "name": "_address",
          "type": "address"
        },
        {
          "internalType": "bytes32",
          "name": "_sig",
          "type": "bytes32"
        }
      ],
      "name": "callCodeToContractWithAmount",
      "outputs": [
        {
          "internalType": "address",
          "name": "",
          "type": "address"
        }
      ],
      "stateMutability": "payable",
      "type": "function"
    },
    {
      "inputs": [
        {
          "internalType": "address",
          "name": "_address",
          "type": "address"
        },
        {
          "internalType": "bytes32",
          "name": "_sig",
          "type": "bytes32"
        }
      ],
      "name": "callCodeToContractWithoutAmount",
      "outputs": [
        {
          "internalType": "address",
          "name": "",
          "type": "address"
        }
      ],
      "stateMutability": "nonpayable",
      "type": "function"
    },
    {
      "inputs": [
        {
          "internalType": "address",
          "name": "_address",
          "type": "address"
        }
      ],
      "name": "copyCode",
      "outputs": [
        {
          "internalType": "bytes",
          "name": "",
          "type": "bytes"
        }
      ],
      "stateMutability": "view",
      "type": "function"
    },
    {
      "inputs": [
        {
          "internalType": "uint256",
          "name": "tinycents",
          "type": "uint256"
        }
      ],
      "name": "exchangeRateWithAmount",
      "outputs": [
        {
          "internalType": "uint256",
          "name": "tinybars",
          "type": "uint256"
        }
      ],
      "stateMutability": "payable",
      "type": "function"
    },
    {
      "inputs": [
        {
          "internalType": "uint256",
          "name": "tinycents",
          "type": "uint256"
        }
      ],
      "name": "exchangeRateWithoutAmount",
      "outputs": [
        {
          "internalType": "uint256",
          "name": "tinybars",
          "type": "uint256"
        }
      ],
      "stateMutability": "nonpayable",
      "type": "function"
    },
    {
      "inputs": [
        {
          "internalType": "address",
          "name": "_address",
          "type": "address"
        }
      ],
      "name": "getBalance",
      "outputs": [
        {
          "internalType": "uint256",
          "name": "",
          "type": "uint256"
        }
      ],
      "stateMutability": "view",
      "type": "function"
    },
    {
      "inputs": [
        {
          "internalType": "address",
          "name": "_address",
          "type": "address"
        }
      ],
      "name": "getCodeHash",
      "outputs": [
        {
          "internalType": "bytes32",
          "name": "",
          "type": "bytes32"
        }
      ],
      "stateMutability": "view",
      "type": "function"
    },
    {
      "inputs": [
        {
          "internalType": "address",
          "name": "_address",
          "type": "address"
        }
      ],
      "name": "getCodeSize",
      "outputs": [
        {
          "internalType": "uint256",
          "name": "",
          "type": "uint256"
        }
      ],
      "stateMutability": "view",
      "type": "function"
    },
    {
      "inputs": [],
      "name": "getCurrentAddress",
      "outputs": [
        {
          "internalType": "address",
          "name": "",
          "type": "address"
        }
      ],
      "stateMutability": "nonpayable",
      "type": "function"
    },
    {
      "inputs": [],
      "name": "getPseudorandomSeed",
      "outputs": [
        {
          "internalType": "bytes32",
          "name": "randomBytes",
          "type": "bytes32"
        }
      ],
      "stateMutability": "nonpayable",
      "type": "function"
    },
    {
      "inputs": [],
      "name": "getPseudorandomSeedWithAmount",
      "outputs": [
        {
          "internalType": "bytes32",
          "name": "randomBytes",
          "type": "bytes32"
        }
      ],
      "stateMutability": "payable",
      "type": "function"
    },
    {
      "inputs": [
        {
          "internalType": "address",
          "name": "_to",
          "type": "address"
        },
        {
          "internalType": "bytes",
          "name": "_data",
          "type": "bytes"
        }
      ],
      "name": "makeCallWithAmount",
      "outputs": [
        {
          "internalType": "bool",
          "name": "success",
          "type": "bool"
        },
        {
          "internalType": "bytes",
          "name": "returnData",
          "type": "bytes"
        }
      ],
      "stateMutability": "payable",
      "type": "function"
    },
    {
      "inputs": [
        {
          "internalType": "address",
          "name": "_to",
          "type": "address"
        },
        {
          "internalType": "bytes",
          "name": "_data",
          "type": "bytes"
        }
      ],
      "name": "makeCallWithoutAmount",
      "outputs": [
        {
          "internalType": "bool",
          "name": "success",
          "type": "bool"
        },
        {
          "internalType": "bytes",
          "name": "returnData",
          "type": "bytes"
        }
      ],
      "stateMutability": "nonpayable",
      "type": "function"
    },
    {
      "inputs": [
        {
          "internalType": "address",
          "name": "_to",
          "type": "address"
        },
        {
          "internalType": "bytes",
          "name": "_data",
          "type": "bytes"
        }
      ],
      "name": "makeDelegateCall",
      "outputs": [
        {
          "internalType": "bool",
          "name": "success",
          "type": "bool"
        },
        {
          "internalType": "bytes",
          "name": "returnData",
          "type": "bytes"
        }
      ],
      "stateMutability": "nonpayable",
      "type": "function"
    },
    {
      "inputs": [
        {
          "internalType": "address",
          "name": "_to",
          "type": "address"
        },
        {
          "internalType": "bytes",
          "name": "_data",
          "type": "bytes"
        }
      ],
      "name": "makeStaticCall",
      "outputs": [
        {
          "internalType": "bool",
          "name": "success",
          "type": "bool"
        },
        {
          "internalType": "bytes",
          "name": "returnData",
          "type": "bytes"
        }
      ],
      "stateMutability": "nonpayable",
      "type": "function"
    }
  ],
  "bytecode": "0x608060405234801561001057600080fd5b50610a19806100206000396000f3fe6080604052600436106100e85760003560e01c80638771074f1161008a578063b51c4f9611610059578063b51c4f9614610257578063d83bf9a114610276578063e717ea611461028b578063f8b2cb4f1461029e57600080fd5b80638771074f146101f15780639154822814610211578063b0d869b114610224578063b2a07c3e1461024457600080fd5b80634e731583116100c65780634e7315831461016f5780636144ef6d1461019c5780637e38d3a3146101b257806381ea4408146101d257600080fd5b806315ed1411146100ed57806327594cc9146101245780633b5363891461015c575b600080fd5b3480156100f957600080fd5b5061010d6101083660046107da565b6102c6565b60405161011b9291906108fa565b60405180910390f35b34801561013057600080fd5b5061014461013f366004610915565b61032e565b6040516001600160a01b03909116815260200161011b565b61014461016a366004610915565b61036f565b34801561017b57600080fd5b5061018f61018a366004610941565b6103a8565b60405161011b9190610965565b6101a4610404565b60405190815260200161011b565b3480156101be57600080fd5b5061010d6101cd3660046107da565b6104b0565b3480156101de57600080fd5b506101a46101ed366004610941565b3f90565b3480156101fd57600080fd5b5061010d61020c3660046107da565b610509565b61010d61021f3660046107da565b610560565b34801561023057600080fd5b506101a461023f366004610978565b6105ba565b6101a4610252366004610978565b610680565b34801561026357600080fd5b506101a4610272366004610941565b3b90565b34801561028257600080fd5b506101a4610717565b34801561029757600080fd5b5030610144565b3480156102aa57600080fd5b506101a46102b9366004610941565b6001600160a01b03163190565b60006060836001600160a01b0316836040516102e29190610991565b600060405180830381855afa9150503d806000811461031d576040519150601f19603f3d011682016040523d82523d6000602084013e610322565b606091505b50909590945092505050565b60006060600060405184815260208160048360008a620927c0f2602082810160405282855290925061036691840181019084016109ad565b95945050505050565b60006060600060405184815234602082600484848b620927c0f260208381016040528386529093506103669285018101915084016109ad565b6060813b60008167ffffffffffffffff8111156103c7576103c76107ab565b6040519080825280601f01601f1916602001820160405280156103f1576020820181803683370190505b50905081600060208301863c9392505050565b60408051600481526024810182526020810180516001600160e01b031663d83bf9a160e01b17905290516000918291829161016991349161044491610991565b60006040518083038185875af1925050503d8060008114610481576040519150601f19603f3d011682016040523d82523d6000602084013e610486565b606091505b50915091508161049557600080fd5b808060200190518101906104a991906109ca565b9250505090565b60006060836001600160a01b0316836040516104cc9190610991565b6000604051808303816000865af19150503d806000811461031d576040519150601f19603f3d011682016040523d82523d6000602084013e610322565b60006060836001600160a01b0316836040516105259190610991565b600060405180830381855af49150503d806000811461031d576040519150601f19603f3d011682016040523d82523d6000602084013e610322565b60006060836001600160a01b0316348460405161057d9190610991565b60006040518083038185875af1925050503d806000811461031d576040519150601f19603f3d011682016040523d82523d6000602084013e610322565b60008060006101686001600160a01b0316846040516024016105de91815260200190565b60408051601f198184030181529181526020820180516001600160e01b031663171e7fb560e11b179052516106139190610991565b6000604051808303816000865af19150503d8060008114610650576040519150601f19603f3d011682016040523d82523d6000602084013e610655565b606091505b50915091508161066457600080fd5b8080602001905181019061067891906109ca565b949350505050565b60008060006101686001600160a01b031634856040516024016106a591815260200190565b60408051601f198184030181529181526020820180516001600160e01b031663171e7fb560e11b179052516106da9190610991565b60006040518083038185875af1925050503d8060008114610650576040519150601f19603f3d011682016040523d82523d6000602084013e610655565b60408051600481526024810182526020810180516001600160e01b031663d83bf9a160e01b179052905160009182918291610169916107569190610991565b6000604051808303816000865af19150503d8060008114610481576040519150601f19603f3d011682016040523d82523d6000602084013e610486565b6001600160a01b03811681146107a857600080fd5b50565b7f4e487b7100000000000000000000000000000000000000000000000000000000600052604160045260246000fd5b600080604083850312156107ed57600080fd5b82356107f881610793565b9150602083013567ffffffffffffffff8082111561081557600080fd5b818501915085601f83011261082957600080fd5b81358181111561083b5761083b6107ab565b604051601f8201601f19908116603f01168101908382118183101715610863576108636107ab565b8160405282815288602084870101111561087c57600080fd5b8260208601602083013760006020848301015280955050505050509250929050565b60005b838110156108b95781810151838201526020016108a1565b838111156108c8576000848401525b50505050565b600081518084526108e681602086016020860161089e565b601f01601f19169290920160200192915050565b821515815260406020820152600061067860408301846108ce565b6000806040838503121561092857600080fd5b823561093381610793565b946020939093013593505050565b60006020828403121561095357600080fd5b813561095e81610793565b9392505050565b60208152600061095e60208301846108ce565b60006020828403121561098a57600080fd5b5035919050565b600082516109a381846020870161089e565b9190910192915050565b6000602082840312156109bf57600080fd5b815161095e81610793565b6000602082840312156109dc57600080fd5b505191905056fea26469706673582212203703284812a4ac62c06f68be808c6a5c5b120e01370059a964aef9d58ffd64de64736f6c63430008090033",
  "linkReferences": {},
  "deployedLinkReferences": {}
}