{
  "_format": "hh-sol-artifact-1",
  "contractName": "EquivalenceContract",
  "sourceName": "contracts/EquivalenceContract.sol",
  "abi": [
    {
      "inputs": [
        {
          "internalType": "address",
          "name": "_address",
          "type": "address"
        },
        {
          "internalType": "bytes4",
          "name": "_sig",
          "type": "bytes4"
        }
      ],
      "name": "callCodeToContractWithAmount",
      "outputs": [
        {
          "internalType": "address",
          "name": "",
          "type": "address"
        }
      ],
      "stateMutability": "payable",
      "type": "function"
    },
    {
      "inputs": [
        {
          "internalType": "address",
          "name": "_address",
          "type": "address"
        },
        {
          "internalType": "bytes4",
          "name": "_sig",
          "type": "bytes4"
        }
      ],
      "name": "callCodeToContractWithoutAmount",
      "outputs": [
        {
          "internalType": "address",
          "name": "",
          "type": "address"
        }
      ],
      "stateMutability": "nonpayable",
      "type": "function"
    },
    {
      "inputs": [
        {
          "internalType": "address",
          "name": "_address",
          "type": "address"
        }
      ],
      "name": "copyCode",
      "outputs": [
        {
          "internalType": "bytes",
          "name": "",
          "type": "bytes"
        }
      ],
      "stateMutability": "view",
      "type": "function"
    },
    {
      "inputs": [
        {
          "internalType": "uint256",
          "name": "tinycents",
          "type": "uint256"
        }
      ],
      "name": "exchangeRateWithAmount",
      "outputs": [
        {
          "internalType": "uint256",
          "name": "tinybars",
          "type": "uint256"
        }
      ],
      "stateMutability": "payable",
      "type": "function"
    },
    {
      "inputs": [
        {
          "internalType": "uint256",
          "name": "tinycents",
          "type": "uint256"
        }
      ],
      "name": "exchangeRateWithoutAmount",
      "outputs": [
        {
          "internalType": "uint256",
          "name": "tinybars",
          "type": "uint256"
        }
      ],
      "stateMutability": "nonpayable",
      "type": "function"
    },
    {
      "inputs": [
        {
          "internalType": "address",
          "name": "_address",
          "type": "address"
        }
      ],
      "name": "getBalance",
      "outputs": [
        {
          "internalType": "uint256",
          "name": "",
          "type": "uint256"
        }
      ],
      "stateMutability": "view",
      "type": "function"
    },
    {
      "inputs": [
        {
          "internalType": "address",
          "name": "_address",
          "type": "address"
        }
      ],
      "name": "getCodeHash",
      "outputs": [
        {
          "internalType": "bytes32",
          "name": "",
          "type": "bytes32"
        }
      ],
      "stateMutability": "view",
      "type": "function"
    },
    {
      "inputs": [
        {
          "internalType": "address",
          "name": "_address",
          "type": "address"
        }
      ],
      "name": "getCodeSize",
      "outputs": [
        {
          "internalType": "uint256",
          "name": "",
          "type": "uint256"
        }
      ],
      "stateMutability": "view",
      "type": "function"
    },
    {
      "inputs": [],
      "name": "getPseudorandomSeed",
      "outputs": [
        {
          "internalType": "bytes32",
          "name": "randomBytes",
          "type": "bytes32"
        }
      ],
      "stateMutability": "nonpayable",
      "type": "function"
    },
    {
      "inputs": [],
      "name": "getPseudorandomSeedWithAmount",
      "outputs": [
        {
          "internalType": "bytes32",
          "name": "randomBytes",
          "type": "bytes32"
        }
      ],
      "stateMutability": "payable",
      "type": "function"
    },
    {
      "inputs": [
        {
          "internalType": "address",
          "name": "_to",
          "type": "address"
        },
        {
          "internalType": "bytes",
          "name": "_data",
          "type": "bytes"
        }
      ],
      "name": "makeCallWithAmount",
      "outputs": [
        {
          "internalType": "bool",
          "name": "success",
          "type": "bool"
        },
        {
          "internalType": "bytes",
          "name": "returnData",
          "type": "bytes"
        }
      ],
      "stateMutability": "payable",
      "type": "function"
    },
    {
      "inputs": [
        {
          "internalType": "address",
          "name": "_to",
          "type": "address"
        },
        {
          "internalType": "bytes",
          "name": "_data",
          "type": "bytes"
        }
      ],
      "name": "makeCallWithoutAmount",
      "outputs": [
        {
          "internalType": "bool",
          "name": "success",
          "type": "bool"
        },
        {
          "internalType": "bytes",
          "name": "returnData",
          "type": "bytes"
        }
      ],
      "stateMutability": "nonpayable",
      "type": "function"
    },
    {
      "inputs": [
        {
          "internalType": "address",
          "name": "_to",
          "type": "address"
        },
        {
          "internalType": "bytes",
          "name": "_data",
          "type": "bytes"
        }
      ],
      "name": "makeDelegateCall",
      "outputs": [
        {
          "internalType": "bool",
          "name": "success",
          "type": "bool"
        },
        {
          "internalType": "bytes",
          "name": "returnData",
          "type": "bytes"
        }
      ],
      "stateMutability": "nonpayable",
      "type": "function"
    },
    {
      "inputs": [
        {
          "internalType": "address",
          "name": "_to",
          "type": "address"
        },
        {
          "internalType": "bytes",
          "name": "_data",
          "type": "bytes"
        }
      ],
      "name": "makeStaticCall",
      "outputs": [
        {
          "internalType": "bool",
          "name": "success",
          "type": "bool"
        },
        {
          "internalType": "bytes",
          "name": "returnData",
          "type": "bytes"
        }
      ],
      "stateMutability": "nonpayable",
      "type": "function"
    }
  ],
  "bytecode": "0x608060405234801561001057600080fd5b50610a2d806100206000396000f3fe6080604052600436106100dd5760003560e01c8063915482281161007f578063b51c4f9611610059578063b51c4f961461022c578063d83bf9a11461024b578063e9412a8e14610260578063f8b2cb4f1461028057600080fd5b806391548228146101e6578063b0d869b1146101f9578063b2a07c3e1461021957600080fd5b80637a3e2005116100bb5780637a3e20051461015c5780637e38d3a31461018757806381ea4408146101a75780638771074f146101c657600080fd5b806315ed1411146100e25780634e731583146101195780636144ef6d14610146575b600080fd5b3480156100ee57600080fd5b506101026100fd3660046107bc565b6102a8565b6040516101109291906108dc565b60405180910390f35b34801561012557600080fd5b506101396101343660046108f7565b610310565b604051610110919061091b565b61014e61036c565b604051908152602001610110565b61016f61016a36600461092e565b610418565b6040516001600160a01b039091168152602001610110565b34801561019357600080fd5b506101026101a23660046107bc565b61045a565b3480156101b357600080fd5b5061014e6101c23660046108f7565b3f90565b3480156101d257600080fd5b506101026101e13660046107bc565b6104b3565b6101026101f43660046107bc565b61050a565b34801561020557600080fd5b5061014e61021436600461098c565b610564565b61014e61022736600461098c565b61062a565b34801561023857600080fd5b5061014e6102473660046108f7565b3b90565b34801561025757600080fd5b5061014e6106c1565b34801561026c57600080fd5b5061016f61027b36600461092e565b61073d565b34801561028c57600080fd5b5061014e61029b3660046108f7565b6001600160a01b03163190565b60006060836001600160a01b0316836040516102c491906109a5565b600060405180830381855afa9150503d80600081146102ff576040519150601f19603f3d011682016040523d82523d6000602084013e610304565b606091505b50909590945092505050565b6060813b60008167ffffffffffffffff81111561032f5761032f61078d565b6040519080825280601f01601f191660200182016040528015610359576020820181803683370190505b50905081600060208301863c9392505050565b60408051600481526024810182526020810180516001600160e01b031663d83bf9a160e01b1790529051600091829182916101699134916103ac916109a5565b60006040518083038185875af1925050503d80600081146103e9576040519150601f19603f3d011682016040523d82523d6000602084013e6103ee565b606091505b5091509150816103fd57600080fd5b8080602001905181019061041191906109c1565b9250505090565b60006060600060405184815234602082600484848b620927c0f260208381016040528386529093506104519285018101915084016109da565b95945050505050565b60006060836001600160a01b03168360405161047691906109a5565b6000604051808303816000865af19150503d80600081146102ff576040519150601f19603f3d011682016040523d82523d6000602084013e610304565b60006060836001600160a01b0316836040516104cf91906109a5565b600060405180830381855af49150503d80600081146102ff576040519150601f19603f3d011682016040523d82523d6000602084013e610304565b60006060836001600160a01b0316348460405161052791906109a5565b60006040518083038185875af1925050503d80600081146102ff576040519150601f19603f3d011682016040523d82523d6000602084013e610304565b60008060006101686001600160a01b03168460405160240161058891815260200190565b60408051601f198184030181529181526020820180516001600160e01b031663171e7fb560e11b179052516105bd91906109a5565b6000604051808303816000865af19150503d80600081146105fa576040519150601f19603f3d011682016040523d82523d6000602084013e6105ff565b606091505b50915091508161060e57600080fd5b8080602001905181019061062291906109c1565b949350505050565b60008060006101686001600160a01b0316348560405160240161064f91815260200190565b60408051601f198184030181529181526020820180516001600160e01b031663171e7fb560e11b1790525161068491906109a5565b60006040518083038185875af1925050503d80600081146105fa576040519150601f19603f3d011682016040523d82523d6000602084013e6105ff565b60408051600481526024810182526020810180516001600160e01b031663d83bf9a160e01b1790529051600091829182916101699161070091906109a5565b6000604051808303816000865af19150503d80600081146103e9576040519150601f19603f3d011682016040523d82523d6000602084013e6103ee565b60006060600060405184815260208160048360008a620927c0f2602082810160405282855290925061045191840181019084016109da565b6001600160a01b038116811461078a57600080fd5b50565b7f4e487b7100000000000000000000000000000000000000000000000000000000600052604160045260246000fd5b600080604083850312156107cf57600080fd5b82356107da81610775565b9150602083013567ffffffffffffffff808211156107f757600080fd5b818501915085601f83011261080b57600080fd5b81358181111561081d5761081d61078d565b604051601f8201601f19908116603f011681019083821181831017156108455761084561078d565b8160405282815288602084870101111561085e57600080fd5b8260208601602083013760006020848301015280955050505050509250929050565b60005b8381101561089b578181015183820152602001610883565b838111156108aa576000848401525b50505050565b600081518084526108c8816020860160208601610880565b601f01601f19169290920160200192915050565b821515815260406020820152600061062260408301846108b0565b60006020828403121561090957600080fd5b813561091481610775565b9392505050565b60208152600061091460208301846108b0565b6000806040838503121561094157600080fd5b823561094c81610775565b915060208301357fffffffff000000000000000000000000000000000000000000000000000000008116811461098157600080fd5b809150509250929050565b60006020828403121561099e57600080fd5b5035919050565b600082516109b7818460208701610880565b9190910192915050565b6000602082840312156109d357600080fd5b5051919050565b6000602082840312156109ec57600080fd5b81516109148161077556fea2646970667358221220689ca85065d5260d5d9df29bee4af7ddac69f1dd26592700c6b0255f84e1542c64736f6c63430008090033",
  "linkReferences": {},
  "deployedLinkReferences": {}
}