{
  "_format": "hh-sol-artifact-1",
  "contractName": "EquivalenceContract",
  "sourceName": "contracts/EquivalenceContract.sol",
  "abi": [
    {
      "inputs": [
        {
          "internalType": "address",
          "name": "_address",
          "type": "address"
        },
        {
          "internalType": "bytes4",
          "name": "_sig",
          "type": "bytes4"
        }
      ],
      "name": "callCodeToContractWithAmount",
      "outputs": [
        {
          "internalType": "address",
          "name": "",
          "type": "address"
        }
      ],
      "stateMutability": "payable",
      "type": "function"
    },
    {
      "inputs": [
        {
          "internalType": "address",
          "name": "_address",
          "type": "address"
        },
        {
          "internalType": "bytes4",
          "name": "_sig",
          "type": "bytes4"
        }
      ],
      "name": "callCodeToContractWithoutAmount",
      "outputs": [
        {
          "internalType": "address",
          "name": "",
          "type": "address"
        }
      ],
      "stateMutability": "nonpayable",
      "type": "function"
    },
    {
      "inputs": [
        {
          "internalType": "address",
          "name": "_address",
          "type": "address"
        }
      ],
      "name": "copyCode",
      "outputs": [
        {
          "internalType": "bytes",
          "name": "",
          "type": "bytes"
        }
      ],
      "stateMutability": "view",
      "type": "function"
    },
    {
      "inputs": [
        {
          "internalType": "uint256",
          "name": "tinycents",
          "type": "uint256"
        }
      ],
      "name": "exchangeRateWithAmount",
      "outputs": [
        {
          "internalType": "uint256",
          "name": "tinybars",
          "type": "uint256"
        }
      ],
      "stateMutability": "payable",
      "type": "function"
    },
    {
      "inputs": [
        {
          "internalType": "uint256",
          "name": "tinycents",
          "type": "uint256"
        }
      ],
      "name": "exchangeRateWithoutAmount",
      "outputs": [
        {
          "internalType": "uint256",
          "name": "tinybars",
          "type": "uint256"
        }
      ],
      "stateMutability": "nonpayable",
      "type": "function"
    },
    {
      "inputs": [
        {
          "internalType": "address",
          "name": "_address",
          "type": "address"
        }
      ],
      "name": "getBalance",
      "outputs": [
        {
          "internalType": "uint256",
          "name": "",
          "type": "uint256"
        }
      ],
      "stateMutability": "view",
      "type": "function"
    },
    {
      "inputs": [
        {
          "internalType": "address",
          "name": "_address",
          "type": "address"
        }
      ],
      "name": "getCodeHash",
      "outputs": [
        {
          "internalType": "bytes32",
          "name": "",
          "type": "bytes32"
        }
      ],
      "stateMutability": "view",
      "type": "function"
    },
    {
      "inputs": [
        {
          "internalType": "address",
          "name": "_address",
          "type": "address"
        }
      ],
      "name": "getCodeSize",
      "outputs": [
        {
          "internalType": "uint256",
          "name": "",
          "type": "uint256"
        }
      ],
      "stateMutability": "view",
      "type": "function"
    },
    {
      "inputs": [],
      "name": "getPseudorandomSeed",
      "outputs": [
        {
          "internalType": "bytes32",
          "name": "randomBytes",
          "type": "bytes32"
        }
      ],
      "stateMutability": "nonpayable",
      "type": "function"
    },
    {
      "inputs": [],
      "name": "getPseudorandomSeedWithAmount",
      "outputs": [
        {
          "internalType": "bytes32",
          "name": "randomBytes",
          "type": "bytes32"
        }
      ],
      "stateMutability": "payable",
      "type": "function"
    },
    {
      "inputs": [
        {
          "internalType": "address",
          "name": "_to",
          "type": "address"
        },
        {
          "internalType": "bytes",
          "name": "_data",
          "type": "bytes"
        }
      ],
      "name": "makeCallWithAmount",
      "outputs": [
        {
          "internalType": "bool",
          "name": "success",
          "type": "bool"
        },
        {
          "internalType": "bytes",
          "name": "returnData",
          "type": "bytes"
        }
      ],
      "stateMutability": "payable",
      "type": "function"
    },
    {
      "inputs": [
        {
          "internalType": "address",
          "name": "_to",
          "type": "address"
        },
        {
          "internalType": "bytes",
          "name": "_data",
          "type": "bytes"
        }
      ],
      "name": "makeCallWithoutAmount",
      "outputs": [
        {
          "internalType": "bool",
          "name": "success",
          "type": "bool"
        },
        {
          "internalType": "bytes",
          "name": "returnData",
          "type": "bytes"
        }
      ],
      "stateMutability": "nonpayable",
      "type": "function"
    },
    {
      "inputs": [
        {
          "internalType": "address",
          "name": "_to",
          "type": "address"
        },
        {
          "internalType": "bytes",
          "name": "_data",
          "type": "bytes"
        }
      ],
      "name": "makeDelegateCall",
      "outputs": [
        {
          "internalType": "bool",
          "name": "success",
          "type": "bool"
        },
        {
          "internalType": "bytes",
          "name": "returnData",
          "type": "bytes"
        }
      ],
      "stateMutability": "nonpayable",
      "type": "function"
    },
    {
      "inputs": [
        {
          "internalType": "address",
          "name": "_to",
          "type": "address"
        },
        {
          "internalType": "bytes",
          "name": "_data",
          "type": "bytes"
        }
      ],
      "name": "makeStaticCall",
      "outputs": [
        {
          "internalType": "bool",
          "name": "success",
          "type": "bool"
        },
        {
          "internalType": "bytes",
          "name": "returnData",
          "type": "bytes"
        }
      ],
      "stateMutability": "nonpayable",
      "type": "function"
    }
  ],
  "bytecode": "0x608060405234801561001057600080fd5b50610a2b806100206000396000f3fe6080604052600436106100dd5760003560e01c8063915482281161007f578063b51c4f9611610059578063b51c4f961461022c578063d83bf9a11461024b578063e9412a8e14610260578063f8b2cb4f1461028057600080fd5b806391548228146101e6578063b0d869b1146101f9578063b2a07c3e1461021957600080fd5b80637a3e2005116100bb5780637a3e20051461015c5780637e38d3a31461018757806381ea4408146101a75780638771074f146101c657600080fd5b806315ed1411146100e25780634e731583146101195780636144ef6d14610146575b600080fd5b3480156100ee57600080fd5b506101026100fd3660046107ba565b6102a8565b6040516101109291906108da565b60405180910390f35b34801561012557600080fd5b506101396101343660046108f5565b610310565b6040516101109190610919565b61014e61036c565b604051908152602001610110565b61016f61016a36600461092c565b610418565b6040516001600160a01b039091168152602001610110565b34801561019357600080fd5b506101026101a23660046107ba565b610459565b3480156101b357600080fd5b5061014e6101c23660046108f5565b3f90565b3480156101d257600080fd5b506101026101e13660046107ba565b6104b2565b6101026101f43660046107ba565b610509565b34801561020557600080fd5b5061014e61021436600461098a565b610563565b61014e61022736600461098a565b610629565b34801561023857600080fd5b5061014e6102473660046108f5565b3b90565b34801561025757600080fd5b5061014e6106c0565b34801561026c57600080fd5b5061016f61027b36600461092c565b61073c565b34801561028c57600080fd5b5061014e61029b3660046108f5565b6001600160a01b03163190565b60006060836001600160a01b0316836040516102c491906109a3565b600060405180830381855afa9150503d80600081146102ff576040519150601f19603f3d011682016040523d82523d6000602084013e610304565b606091505b50909590945092505050565b6060813b60008167ffffffffffffffff81111561032f5761032f61078b565b6040519080825280601f01601f191660200182016040528015610359576020820181803683370190505b50905081600060208301863c9392505050565b60408051600481526024810182526020810180516001600160e01b031663d83bf9a160e01b1790529051600091829182916101699134916103ac916109a3565b60006040518083038185875af1925050503d80600081146103e9576040519150601f19603f3d011682016040523d82523d6000602084013e6103ee565b606091505b5091509150816103fd57600080fd5b8080602001905181019061041191906109bf565b9250505090565b60006060600060405184815234602082600484848b61c350f260208381016040528386529093506104509285018101915084016109d8565b95945050505050565b60006060836001600160a01b03168360405161047591906109a3565b6000604051808303816000865af19150503d80600081146102ff576040519150601f19603f3d011682016040523d82523d6000602084013e610304565b60006060836001600160a01b0316836040516104ce91906109a3565b600060405180830381855af49150503d80600081146102ff576040519150601f19603f3d011682016040523d82523d6000602084013e610304565b60006060836001600160a01b0316348460405161052691906109a3565b60006040518083038185875af1925050503d80600081146102ff576040519150601f19603f3d011682016040523d82523d6000602084013e610304565b60008060006101686001600160a01b03168460405160240161058791815260200190565b60408051601f198184030181529181526020820180516001600160e01b031663171e7fb560e11b179052516105bc91906109a3565b6000604051808303816000865af19150503d80600081146105f9576040519150601f19603f3d011682016040523d82523d6000602084013e6105fe565b606091505b50915091508161060d57600080fd5b8080602001905181019061062191906109bf565b949350505050565b60008060006101686001600160a01b0316348560405160240161064e91815260200190565b60408051601f198184030181529181526020820180516001600160e01b031663171e7fb560e11b1790525161068391906109a3565b60006040518083038185875af1925050503d80600081146105f9576040519150601f19603f3d011682016040523d82523d6000602084013e6105fe565b60408051600481526024810182526020810180516001600160e01b031663d83bf9a160e01b179052905160009182918291610169916106ff91906109a3565b6000604051808303816000865af19150503d80600081146103e9576040519150601f19603f3d011682016040523d82523d6000602084013e6103ee565b60006060600060405184815260208160048360008a61c350f2602082810160405282855290925061045091840181019084016109d8565b6001600160a01b038116811461078857600080fd5b50565b7f4e487b7100000000000000000000000000000000000000000000000000000000600052604160045260246000fd5b600080604083850312156107cd57600080fd5b82356107d881610773565b9150602083013567ffffffffffffffff808211156107f557600080fd5b818501915085601f83011261080957600080fd5b81358181111561081b5761081b61078b565b604051601f8201601f19908116603f011681019083821181831017156108435761084361078b565b8160405282815288602084870101111561085c57600080fd5b8260208601602083013760006020848301015280955050505050509250929050565b60005b83811015610899578181015183820152602001610881565b838111156108a8576000848401525b50505050565b600081518084526108c681602086016020860161087e565b601f01601f19169290920160200192915050565b821515815260406020820152600061062160408301846108ae565b60006020828403121561090757600080fd5b813561091281610773565b9392505050565b60208152600061091260208301846108ae565b6000806040838503121561093f57600080fd5b823561094a81610773565b915060208301357fffffffff000000000000000000000000000000000000000000000000000000008116811461097f57600080fd5b809150509250929050565b60006020828403121561099c57600080fd5b5035919050565b600082516109b581846020870161087e565b9190910192915050565b6000602082840312156109d157600080fd5b5051919050565b6000602082840312156109ea57600080fd5b81516109128161077356fea26469706673582212200cac7309eb8c8d74c64b950858527508494a8cd0516bf585e2b3c67c3f257cfe64736f6c63430008090033",
  "linkReferences": {},
  "deployedLinkReferences": {}
}