{
  "_format": "hh-sol-artifact-1",
  "contractName": "EquivalenceContract",
  "sourceName": "contracts/EquivalenceContract.sol",
  "abi": [
    {
      "inputs": [
        {
          "internalType": "address",
          "name": "_addr",
          "type": "address"
        },
        {
          "internalType": "bytes",
          "name": "_customData",
          "type": "bytes"
        }
      ],
      "name": "callCodeToContractWithAmount",
      "outputs": [
        {
          "internalType": "bytes32",
          "name": "output",
          "type": "bytes32"
        }
      ],
      "stateMutability": "payable",
      "type": "function"
    },
    {
      "inputs": [
        {
          "internalType": "address",
          "name": "_addr",
          "type": "address"
        },
        {
          "internalType": "bytes",
          "name": "_customData",
          "type": "bytes"
        }
      ],
      "name": "callCodeToContractWithoutAmount",
      "outputs": [
        {
          "internalType": "bytes32",
          "name": "output",
          "type": "bytes32"
        }
      ],
      "stateMutability": "nonpayable",
      "type": "function"
    },
    {
      "inputs": [
        {
          "internalType": "address",
          "name": "_address",
          "type": "address"
        }
      ],
      "name": "copyCode",
      "outputs": [
        {
          "internalType": "bytes",
          "name": "",
          "type": "bytes"
        }
      ],
      "stateMutability": "view",
      "type": "function"
    },
    {
      "inputs": [
        {
          "internalType": "uint256",
          "name": "tinycents",
          "type": "uint256"
        }
      ],
      "name": "exchangeRateWithAmount",
      "outputs": [
        {
          "internalType": "uint256",
          "name": "tinybars",
          "type": "uint256"
        }
      ],
      "stateMutability": "payable",
      "type": "function"
    },
    {
      "inputs": [
        {
          "internalType": "uint256",
          "name": "tinycents",
          "type": "uint256"
        }
      ],
      "name": "exchangeRateWithoutAmount",
      "outputs": [
        {
          "internalType": "uint256",
          "name": "tinybars",
          "type": "uint256"
        }
      ],
      "stateMutability": "nonpayable",
      "type": "function"
    },
    {
      "inputs": [
        {
          "internalType": "address",
          "name": "_address",
          "type": "address"
        }
      ],
      "name": "getBalance",
      "outputs": [
        {
          "internalType": "uint256",
          "name": "",
          "type": "uint256"
        }
      ],
      "stateMutability": "view",
      "type": "function"
    },
    {
      "inputs": [
        {
          "internalType": "address",
          "name": "_address",
          "type": "address"
        }
      ],
      "name": "getCodeHash",
      "outputs": [
        {
          "internalType": "bytes32",
          "name": "",
          "type": "bytes32"
        }
      ],
      "stateMutability": "view",
      "type": "function"
    },
    {
      "inputs": [
        {
          "internalType": "address",
          "name": "_address",
          "type": "address"
        }
      ],
      "name": "getCodeSize",
      "outputs": [
        {
          "internalType": "uint256",
          "name": "",
          "type": "uint256"
        }
      ],
      "stateMutability": "view",
      "type": "function"
    },
    {
      "inputs": [],
      "name": "getCurrentAddress",
      "outputs": [
        {
          "internalType": "address",
          "name": "",
          "type": "address"
        }
      ],
      "stateMutability": "nonpayable",
      "type": "function"
    },
    {
      "inputs": [],
      "name": "getPseudorandomSeed",
      "outputs": [
        {
          "internalType": "bytes32",
          "name": "randomBytes",
          "type": "bytes32"
        }
      ],
      "stateMutability": "nonpayable",
      "type": "function"
    },
    {
      "inputs": [],
      "name": "getPseudorandomSeedWithAmount",
      "outputs": [
        {
          "internalType": "bytes32",
          "name": "randomBytes",
          "type": "bytes32"
        }
      ],
      "stateMutability": "payable",
      "type": "function"
    },
    {
      "inputs": [
        {
          "internalType": "address",
          "name": "_to",
          "type": "address"
        },
        {
          "internalType": "bytes",
          "name": "_data",
          "type": "bytes"
        }
      ],
      "name": "makeCallWithAmount",
      "outputs": [
        {
          "internalType": "bool",
          "name": "success",
          "type": "bool"
        },
        {
          "internalType": "bytes",
          "name": "returnData",
          "type": "bytes"
        }
      ],
      "stateMutability": "payable",
      "type": "function"
    },
    {
      "inputs": [
        {
          "internalType": "address",
          "name": "_to",
          "type": "address"
        },
        {
          "internalType": "bytes",
          "name": "_data",
          "type": "bytes"
        }
      ],
      "name": "makeCallWithoutAmount",
      "outputs": [
        {
          "internalType": "bool",
          "name": "success",
          "type": "bool"
        },
        {
          "internalType": "bytes",
          "name": "returnData",
          "type": "bytes"
        }
      ],
      "stateMutability": "nonpayable",
      "type": "function"
    },
    {
      "inputs": [
        {
          "internalType": "address",
          "name": "_to",
          "type": "address"
        },
        {
          "internalType": "bytes",
          "name": "_data",
          "type": "bytes"
        }
      ],
      "name": "makeDelegateCall",
      "outputs": [
        {
          "internalType": "bool",
          "name": "success",
          "type": "bool"
        },
        {
          "internalType": "bytes",
          "name": "returnData",
          "type": "bytes"
        }
      ],
      "stateMutability": "nonpayable",
      "type": "function"
    },
    {
      "inputs": [
        {
          "internalType": "address",
          "name": "_to",
          "type": "address"
        },
        {
          "internalType": "bytes",
          "name": "_data",
          "type": "bytes"
        }
      ],
      "name": "makeStaticCall",
      "outputs": [
        {
          "internalType": "bool",
          "name": "success",
          "type": "bool"
        },
        {
          "internalType": "bytes",
          "name": "returnData",
          "type": "bytes"
        }
      ],
      "stateMutability": "nonpayable",
      "type": "function"
    }
  ],
  "bytecode": "0x608060405234801561001057600080fd5b50610a08806100206000396000f3fe6080604052600436106100e85760003560e01c8063915482281161008a578063d83bf9a111610059578063d83bf9a11461024b578063e34c93b814610260578063e717ea6114610273578063f8b2cb4f1461028e57600080fd5b806391548228146101e6578063b0d869b1146101f9578063b2a07c3e14610219578063b51c4f961461022c57600080fd5b80636144ef6d116100c65780636144ef6d1461017f5780637e38d3a31461018757806381ea4408146101a75780638771074f146101c657600080fd5b806315ed1411146100ed57806319f88c7d146101245780634e73158314610152575b600080fd5b3480156100f957600080fd5b5061010d610108366004610793565b6102b6565b60405161011b9291906108b1565b60405180910390f35b34801561013057600080fd5b5061014461013f3660046108cc565b61031e565b60405190815260200161011b565b34801561015e57600080fd5b5061017261016d36600461094f565b61033e565b60405161011b9190610971565b61014461039a565b34801561019357600080fd5b5061010d6101a2366004610793565b610446565b3480156101b357600080fd5b506101446101c236600461094f565b3f90565b3480156101d257600080fd5b5061010d6101e1366004610793565b61049f565b61010d6101f4366004610793565b6104f6565b34801561020557600080fd5b50610144610214366004610984565b610550565b610144610227366004610984565b610616565b34801561023857600080fd5b5061014461024736600461094f565b3b90565b34801561025757600080fd5b506101446106ad565b61014461026e3660046108cc565b610729565b34801561027f57600080fd5b5060405130815260200161011b565b34801561029a57600080fd5b506101446102a936600461094f565b6001600160a01b03163190565b60006060836001600160a01b0316836040516102d2919061099d565b600060405180830381855afa9150503d806000811461030d576040519150601f19603f3d011682016040523d82523d6000602084013e610312565b606091505b50909590945092505050565b6000604051368482376020813683600089620dbba0f25051949350505050565b6060813b60008167ffffffffffffffff81111561035d5761035d610764565b6040519080825280601f01601f191660200182016040528015610387576020820181803683370190505b50905081600060208301863c9392505050565b60408051600481526024810182526020810180516001600160e01b031663d83bf9a160e01b1790529051600091829182916101699134916103da9161099d565b60006040518083038185875af1925050503d8060008114610417576040519150601f19603f3d011682016040523d82523d6000602084013e61041c565b606091505b50915091508161042b57600080fd5b8080602001905181019061043f91906109b9565b9250505090565b60006060836001600160a01b031683604051610462919061099d565b6000604051808303816000865af19150503d806000811461030d576040519150601f19603f3d011682016040523d82523d6000602084013e610312565b60006060836001600160a01b0316836040516104bb919061099d565b600060405180830381855af49150503d806000811461030d576040519150601f19603f3d011682016040523d82523d6000602084013e610312565b60006060836001600160a01b03163484604051610513919061099d565b60006040518083038185875af1925050503d806000811461030d576040519150601f19603f3d011682016040523d82523d6000602084013e610312565b60008060006101686001600160a01b03168460405160240161057491815260200190565b60408051601f198184030181529181526020820180516001600160e01b031663171e7fb560e11b179052516105a9919061099d565b6000604051808303816000865af19150503d80600081146105e6576040519150601f19603f3d011682016040523d82523d6000602084013e6105eb565b606091505b5091509150816105fa57600080fd5b8080602001905181019061060e91906109b9565b949350505050565b60008060006101686001600160a01b0316348560405160240161063b91815260200190565b60408051601f198184030181529181526020820180516001600160e01b031663171e7fb560e11b17905251610670919061099d565b60006040518083038185875af1925050503d80600081146105e6576040519150601f19603f3d011682016040523d82523d6000602084013e6105eb565b60408051600481526024810182526020810180516001600160e01b031663d83bf9a160e01b179052905160009182918291610169916106ec919061099d565b6000604051808303816000865af19150503d8060008114610417576040519150601f19603f3d011682016040523d82523d6000602084013e61041c565b60006040513684823760208136833489620dbba0f25051949350505050565b80356001600160a01b038116811461075f57600080fd5b919050565b7f4e487b7100000000000000000000000000000000000000000000000000000000600052604160045260246000fd5b600080604083850312156107a657600080fd5b6107af83610748565b9150602083013567ffffffffffffffff808211156107cc57600080fd5b818501915085601f8301126107e057600080fd5b8135818111156107f2576107f2610764565b604051601f8201601f19908116603f0116810190838211818310171561081a5761081a610764565b8160405282815288602084870101111561083357600080fd5b8260208601602083013760006020848301015280955050505050509250929050565b60005b83811015610870578181015183820152602001610858565b8381111561087f576000848401525b50505050565b6000815180845261089d816020860160208601610855565b601f01601f19169290920160200192915050565b821515815260406020820152600061060e6040830184610885565b6000806000604084860312156108e157600080fd5b6108ea84610748565b9250602084013567ffffffffffffffff8082111561090757600080fd5b818601915086601f83011261091b57600080fd5b81358181111561092a57600080fd5b87602082850101111561093c57600080fd5b6020830194508093505050509250925092565b60006020828403121561096157600080fd5b61096a82610748565b9392505050565b60208152600061096a6020830184610885565b60006020828403121561099657600080fd5b5035919050565b600082516109af818460208701610855565b9190910192915050565b6000602082840312156109cb57600080fd5b505191905056fea26469706673582212200abf2346dba81401fafb8c5f3ca0051ebc5023b51eb10ea6adac7f18e7cb695364736f6c63430008090033",
  "linkReferences": {},
  "deployedLinkReferences": {}
}