{
  "_format": "hh-sol-artifact-1",
  "contractName": "EstimateGasContract",
  "sourceName": "contracts/EstimateGasContract.sol",
  "abi": [
    {
      "inputs": [],
      "stateMutability": "payable",
      "type": "constructor"
    },
    {
      "anonymous": false,
      "inputs": [
        {
          "indexed": false,
          "internalType": "bool",
          "name": "success",
          "type": "bool"
        }
      ],
      "name": "TransferSuccess",
      "type": "event"
    },
    {
      "stateMutability": "payable",
      "type": "fallback"
    },
    {
      "inputs": [
        {
          "internalType": "address",
          "name": "addr",
          "type": "address"
        }
      ],
      "name": "addressBalance",
      "outputs": [
        {
          "internalType": "uint256",
          "name": "",
          "type": "uint256"
        }
      ],
      "stateMutability": "view",
      "type": "function"
    },
    {
      "inputs": [
        {
          "internalType": "address",
          "name": "_address",
          "type": "address"
        },
        {
          "internalType": "bytes4",
          "name": "_sig",
          "type": "bytes4"
        }
      ],
      "name": "callCodeToContract",
      "outputs": [
        {
          "internalType": "address",
          "name": "",
          "type": "address"
        }
      ],
      "stateMutability": "nonpayable",
      "type": "function"
    },
    {
      "inputs": [
        {
          "internalType": "address",
          "name": "_invalidContract",
          "type": "address"
        }
      ],
      "name": "callCodeToInvalidContract",
      "outputs": [],
      "stateMutability": "nonpayable",
      "type": "function"
    },
    {
      "inputs": [
        {
          "internalType": "uint256",
          "name": "_n",
          "type": "uint256"
        },
        {
          "internalType": "address",
          "name": "_contractAddress",
          "type": "address"
        }
      ],
      "name": "callExternalFunctionNTimes",
      "outputs": [],
      "stateMutability": "nonpayable",
      "type": "function"
    },
    {
      "inputs": [
        {
          "internalType": "uint256",
          "name": "_n",
          "type": "uint256"
        },
        {
          "internalType": "address",
          "name": "_contractAddress",
          "type": "address"
        }
      ],
      "name": "callExternalViewFunctionNTimes",
      "outputs": [],
      "stateMutability": "nonpayable",
      "type": "function"
    },
    {
      "inputs": [
        {
          "internalType": "address",
          "name": "_invalidContract",
          "type": "address"
        }
      ],
      "name": "callToInvalidContract",
      "outputs": [],
      "stateMutability": "nonpayable",
      "type": "function"
    },
    {
      "inputs": [],
      "name": "counter",
      "outputs": [
        {
          "internalType": "uint256",
          "name": "",
          "type": "uint256"
        }
      ],
      "stateMutability": "view",
      "type": "function"
    },
    {
      "inputs": [],
      "name": "createClone",
      "outputs": [
        {
          "internalType": "address",
          "name": "result",
          "type": "address"
        }
      ],
      "stateMutability": "nonpayable",
      "type": "function"
    },
    {
      "inputs": [],
      "name": "createDummyContract",
      "outputs": [
        {
          "internalType": "address",
          "name": "",
          "type": "address"
        }
      ],
      "stateMutability": "nonpayable",
      "type": "function"
    },
    {
      "inputs": [
        {
          "internalType": "address",
          "name": "_address",
          "type": "address"
        },
        {
          "internalType": "bytes4",
          "name": "_sig",
          "type": "bytes4"
        }
      ],
      "name": "delegateCallToContract",
      "outputs": [
        {
          "internalType": "address",
          "name": "",
          "type": "address"
        }
      ],
      "stateMutability": "nonpayable",
      "type": "function"
    },
    {
      "inputs": [
        {
          "internalType": "address",
          "name": "_invalidContract",
          "type": "address"
        }
      ],
      "name": "delegateCallToInvalidContract",
      "outputs": [],
      "stateMutability": "nonpayable",
      "type": "function"
    },
    {
      "inputs": [
        {
          "internalType": "uint256",
          "name": "_n",
          "type": "uint256"
        },
        {
          "internalType": "address",
          "name": "_contractAddress",
          "type": "address"
        }
      ],
      "name": "delegatecallExternalFunctionNTimes",
      "outputs": [],
      "stateMutability": "nonpayable",
      "type": "function"
    },
    {
      "inputs": [
        {
          "internalType": "uint256",
          "name": "_n",
          "type": "uint256"
        },
        {
          "internalType": "address",
          "name": "_contractAddress",
          "type": "address"
        }
      ],
      "name": "delegatecallExternalViewFunctionNTimes",
      "outputs": [],
      "stateMutability": "nonpayable",
      "type": "function"
    },
    {
      "inputs": [
        {
          "internalType": "uint256",
          "name": "_numCalls",
          "type": "uint256"
        }
      ],
      "name": "deployAndCallMockContract",
      "outputs": [],
      "stateMutability": "nonpayable",
      "type": "function"
    },
    {
      "inputs": [],
      "name": "deployDestroy",
      "outputs": [],
      "stateMutability": "nonpayable",
      "type": "function"
    },
    {
      "inputs": [],
      "name": "deployNestedContracts",
      "outputs": [
        {
          "internalType": "address",
          "name": "",
          "type": "address"
        },
        {
          "internalType": "address",
          "name": "",
          "type": "address"
        }
      ],
      "stateMutability": "nonpayable",
      "type": "function"
    },
    {
      "inputs": [],
      "name": "deployNestedContracts2",
      "outputs": [
        {
          "internalType": "address",
          "name": "",
          "type": "address"
        },
        {
          "internalType": "address",
          "name": "",
          "type": "address"
        }
      ],
      "stateMutability": "nonpayable",
      "type": "function"
    },
    {
      "inputs": [],
      "name": "deployViaCreate",
      "outputs": [
        {
          "internalType": "address",
          "name": "",
          "type": "address"
        }
      ],
      "stateMutability": "nonpayable",
      "type": "function"
    },
    {
      "inputs": [],
      "name": "deployViaCreate2",
      "outputs": [
        {
          "internalType": "address",
          "name": "",
          "type": "address"
        }
      ],
      "stateMutability": "nonpayable",
      "type": "function"
    },
    {
      "inputs": [
        {
          "internalType": "uint256",
          "name": "",
          "type": "uint256"
        }
      ],
      "name": "deployedMockContracts",
      "outputs": [
        {
          "internalType": "address",
          "name": "",
          "type": "address"
        }
      ],
      "stateMutability": "view",
      "type": "function"
    },
    {
      "inputs": [],
      "name": "destroy",
      "outputs": [],
      "stateMutability": "nonpayable",
      "type": "function"
    },
    {
      "inputs": [],
      "name": "getCounter",
      "outputs": [
        {
          "internalType": "uint256",
          "name": "",
          "type": "uint256"
        }
      ],
      "stateMutability": "view",
      "type": "function"
    },
    {
      "inputs": [],
      "name": "getGasLeft",
      "outputs": [
        {
          "internalType": "uint256",
          "name": "",
          "type": "uint256"
        }
      ],
      "stateMutability": "view",
      "type": "function"
    },
    {
      "inputs": [],
      "name": "getMockContractAddress",
      "outputs": [
        {
          "internalType": "address",
          "name": "",
          "type": "address"
        }
      ],
      "stateMutability": "view",
      "type": "function"
    },
    {
      "inputs": [],
      "name": "incrementCounter",
      "outputs": [
        {
          "internalType": "address",
          "name": "",
          "type": "address"
        }
      ],
      "stateMutability": "nonpayable",
      "type": "function"
    },
    {
      "inputs": [],
      "name": "logs",
      "outputs": [],
      "stateMutability": "nonpayable",
      "type": "function"
    },
    {
      "inputs": [],
      "name": "msgSender",
      "outputs": [
        {
          "internalType": "address",
          "name": "",
          "type": "address"
        }
      ],
      "stateMutability": "view",
      "type": "function"
    },
    {
      "inputs": [],
      "name": "msgSig",
      "outputs": [
        {
          "internalType": "bytes4",
          "name": "",
          "type": "bytes4"
        }
      ],
      "stateMutability": "pure",
      "type": "function"
    },
    {
      "inputs": [],
      "name": "msgValue",
      "outputs": [
        {
          "internalType": "uint256",
          "name": "",
          "type": "uint256"
        }
      ],
      "stateMutability": "payable",
      "type": "function"
    },
    {
      "inputs": [
        {
          "internalType": "uint256",
          "name": "_it",
          "type": "uint256"
        },
        {
          "internalType": "uint256",
          "name": "_n",
          "type": "uint256"
        },
        {
          "internalType": "address",
          "name": "_contractAddress",
          "type": "address"
        }
      ],
      "name": "nestedCalls",
      "outputs": [
        {
          "internalType": "uint256",
          "name": "",
          "type": "uint256"
        }
      ],
      "stateMutability": "nonpayable",
      "type": "function"
    },
    {
      "inputs": [],
      "name": "pureMultiply",
      "outputs": [
        {
          "internalType": "int256",
          "name": "",
          "type": "int256"
        }
      ],
      "stateMutability": "pure",
      "type": "function"
    },
    {
      "inputs": [
        {
          "internalType": "uint256",
          "name": "depth",
          "type": "uint256"
        }
      ],
      "name": "recurse",
      "outputs": [],
      "stateMutability": "nonpayable",
      "type": "function"
    },
    {
      "inputs": [
        {
          "internalType": "address",
          "name": "_to",
          "type": "address"
        },
        {
          "internalType": "uint256",
          "name": "_amount",
          "type": "uint256"
        }
      ],
      "name": "reentrancyCallWithGas",
      "outputs": [
        {
          "internalType": "uint256",
          "name": "",
          "type": "uint256"
        },
        {
          "internalType": "uint256",
          "name": "",
          "type": "uint256"
        }
      ],
      "stateMutability": "nonpayable",
      "type": "function"
    },
    {
      "inputs": [
        {
          "internalType": "address",
          "name": "_to",
          "type": "address"
        },
        {
          "internalType": "uint256",
          "name": "_amount",
          "type": "uint256"
        }
      ],
      "name": "reentrancyWithCall",
      "outputs": [],
      "stateMutability": "nonpayable",
      "type": "function"
    },
    {
      "inputs": [
        {
          "internalType": "address",
          "name": "_to",
          "type": "address"
        },
        {
          "internalType": "uint256",
          "name": "_amount",
          "type": "uint256"
        }
      ],
      "name": "reentrancyWithTransfer",
      "outputs": [],
      "stateMutability": "nonpayable",
      "type": "function"
    },
    {
      "inputs": [],
      "name": "salt",
      "outputs": [
        {
          "internalType": "uint256",
          "name": "",
          "type": "uint256"
        }
      ],
      "stateMutability": "view",
      "type": "function"
    },
    {
      "inputs": [],
      "name": "salt2",
      "outputs": [
        {
          "internalType": "uint256",
          "name": "",
          "type": "uint256"
        }
      ],
      "stateMutability": "view",
      "type": "function"
    },
    {
      "inputs": [
        {
          "internalType": "address",
          "name": "_address",
          "type": "address"
        },
        {
          "internalType": "bytes4",
          "name": "_sig",
          "type": "bytes4"
        }
      ],
      "name": "staticCallToContract",
      "outputs": [
        {
          "internalType": "address",
          "name": "",
          "type": "address"
        }
      ],
      "stateMutability": "view",
      "type": "function"
    },
    {
      "inputs": [
        {
          "internalType": "address",
          "name": "_invalidContract",
          "type": "address"
        }
      ],
      "name": "staticCallToInvalidContract",
      "outputs": [],
      "stateMutability": "view",
      "type": "function"
    },
    {
      "inputs": [],
      "name": "transferType",
      "outputs": [
        {
          "internalType": "uint256",
          "name": "",
          "type": "uint256"
        }
      ],
      "stateMutability": "view",
      "type": "function"
    },
    {
      "inputs": [],
      "name": "txOrigin",
      "outputs": [
        {
          "internalType": "address",
          "name": "",
          "type": "address"
        }
      ],
      "stateMutability": "view",
      "type": "function"
    },
    {
      "inputs": [
        {
          "internalType": "uint256",
          "name": "_counter",
          "type": "uint256"
        }
      ],
      "name": "updateCounter",
      "outputs": [
        {
          "internalType": "uint256",
          "name": "",
          "type": "uint256"
        }
      ],
      "stateMutability": "nonpayable",
      "type": "function"
    },
    {
      "inputs": [
        {
          "internalType": "uint256",
          "name": "_n",
          "type": "uint256"
        }
      ],
      "name": "updateStateNTimes",
      "outputs": [
        {
          "internalType": "uint256",
          "name": "",
          "type": "uint256"
        }
      ],
      "stateMutability": "nonpayable",
      "type": "function"
    },
    {
      "inputs": [
        {
          "internalType": "uint256",
          "name": "_type",
          "type": "uint256"
        }
      ],
      "name": "updateType",
      "outputs": [
        {
          "internalType": "uint256",
          "name": "",
          "type": "uint256"
        }
      ],
      "stateMutability": "nonpayable",
      "type": "function"
    },
    {
      "stateMutability": "payable",
      "type": "receive"
    }
  ],
  "bytecode": "0x6080604052600160005560026001556001600255600160035560405161002490610066565b604051809103906000f080158015610040573d6000803e3d6000fd5b50600480546001600160a01b0319166001600160a01b0392909216919091179055610073565b6101dc80611eab83390190565b611e29806100826000396000f3fe608060405260043610620003375760003560e01c806383197ef011620001ab578063d737d0c711620000eb578063ec3e88cf1162000097578063f96757d1116200006d578063f96757d11462000acf578063fa5e414e1462000ae4578063ffaf08901462000b09576200033f565b8063ec3e88cf1462000a51578063ef043d571462000a92578063ef0a4eac1462000aaa576200033f565b8063ddf363d711620000cd578063ddf363d71462000a00578063e080b4aa1462000a07578063e7df080e1462000a2c576200033f565b8063d737d0c714620009d3578063dbb6f04a14620009e8576200033f565b8063bb376a961162000157578063cdb9c283116200012d578063cdb9c283146200095d578063cfa7dcf31462000996578063d3b6e74114620009ae576200033f565b8063bb376a9614620008f9578063bfa0b133146200091e578063c648049d1462000936576200033f565b806393cc6546116200018d57806393cc6546146200088a578063ac7e275814620008af578063b2041d2114620008d4576200033f565b806383197ef0146200085e5780638ada066e1462000873576200033f565b80635256b99d11620002775780636e6662b9116200022357806378eac4cc11620001f957806378eac4cc14620007fc5780637df6ee27146200081457806380f009b61462000839576200033f565b80636e6662b914620007a75780637007996314620007bf5780637425979514620007e4576200033f565b80635ecc65f911620002595780635ecc65f9146200075057806361bc221a146200077757806364f2d4b9146200078f576200033f565b80635256b99d14620007135780635b34b9661462000738576200033f565b806339a92ada11620002e357806341f32f0c11620002b957806341f32f0c14620006b15780634929af3714620006d657806351be4eaa14620006fb576200033f565b806339a92ada14620006325780633c5de277146200066d5780633ec4de351462000685576200033f565b80631708c37311620003195780631708c37314620005ce57806319a6e3d514620005f357806331bf722a146200061a576200033f565b80630ec1551d146200057657806314a7862c146200059a576200033f565b366200033f57005b6004546001600160a01b03166200039d5760405162461bcd60e51b815260206004820152601c60248201527f4d6f636b436f6e74726163742061646472657373206e6f74207365740000000060448201526064015b60405180910390fd5b6004546003546001600160a01b039091169060011415620003f2576040516001600160a01b038216903480156108fc02916000818181858888f19350505050158015620003ee573d6000803e3d6000fd5b5050005b6003546002141562000475576040516000906001600160a01b038316903480156108fc029184818181858888f19350505050905080620003ee5760405162461bcd60e51b815260206004820152601d60248201527f4661696c656420746f2073656e64204574686572207669612073656e64000000604482015260640162000394565b600354600314156200052d576000816001600160a01b0316346108fc90604051600060405180830381858888f193505050503d8060008114620004d5576040519150601f19603f3d011682016040523d82523d6000602084013e620004da565b606091505b5050905080620003ee5760405162461bcd60e51b815260206004820152601d60248201527f4661696c656420746f2073656e64204574686572207669612063616c6c000000604482015260640162000394565b60405162461bcd60e51b815260206004820152601560248201527f496e76616c6964207472616e7366657220747970650000000000000000000000604482015260640162000394565b3480156200058357600080fd5b5060045b6040519081526020015b60405180910390f35b348015620005a757600080fd5b506004546001600160a01b03165b6040516001600160a01b03909116815260200162000591565b348015620005db57600080fd5b50620005b5620005ed366004620017c9565b62000b2e565b3480156200060057600080fd5b506200061862000612366004620017fc565b62000b59565b005b3480156200062757600080fd5b506200058760015481565b3480156200063f57600080fd5b5062000657620006513660046200182f565b62000c05565b6040805192835260208301919091520162000591565b3480156200067a57600080fd5b50620005b562000c6e565b3480156200069257600080fd5b5062000587620006a43660046200185e565b6001600160a01b03163190565b348015620006be57600080fd5b5062000618620006d03660046200185e565b62000cae565b348015620006e357600080fd5b5062000618620006f5366004620017fc565b62000d36565b3480156200070857600080fd5b506200058762000df4565b3480156200072057600080fd5b506200058762000732366004620017c9565b62000dfc565b3480156200074557600080fd5b50620005b562000e2d565b3480156200075d57600080fd5b50620005876200076f366004620017c9565b600381905590565b3480156200078457600080fd5b506200058760025481565b3480156200079c57600080fd5b50620005b562000e4f565b348015620007b457600080fd5b50620005b562000ee4565b348015620007cc57600080fd5b5062000618620007de3660046200185e565b62000ef5565b348015620007f157600080fd5b506200061862000f74565b3480156200080957600080fd5b506200058760035481565b3480156200082157600080fd5b5062000618620008333660046200185e565b62001028565b3480156200084657600080fd5b506200061862000858366004620017fc565b620010a5565b3480156200086b57600080fd5b506200061833ff5b3480156200088057600080fd5b5060025462000587565b3480156200089757600080fd5b5062000618620008a9366004620017c9565b62001161565b348015620008bc57600080fd5b50620005b5620008ce3660046200187e565b62001269565b348015620008e157600080fd5b5062000618620008f3366004620017c9565b620012ab565b3480156200090657600080fd5b506200058762000918366004620018d5565b62001324565b3480156200092b57600080fd5b506200058760005481565b3480156200094357600080fd5b506200058762000955366004620017c9565b600281905590565b3480156200096a57600080fd5b506200097562001424565b604080516001600160a01b0393841681529290911660208301520162000591565b348015620009a357600080fd5b506200061862001490565b348015620009bb57600080fd5b50620005b5620009cd3660046200187e565b6200151e565b348015620009e057600080fd5b5033620005b5565b348015620009f557600080fd5b50620005b562001555565b3462000587565b34801562000a1457600080fd5b506200061862000a263660046200185e565b6200158d565b34801562000a3957600080fd5b506200061862000a4b3660046200182f565b620015d8565b34801562000a5e57600080fd5b506040517fffffffff0000000000000000000000000000000000000000000000000000000060003516815260200162000591565b34801562000a9f57600080fd5b506200097562001623565b34801562000ab757600080fd5b50620005b562000ac93660046200187e565b62001696565b34801562000adc57600080fd5b5032620005b5565b34801562000af157600080fd5b506200061862000b03366004620017fc565b620016cd565b34801562000b1657600080fd5b506200061862000b283660046200182f565b62001776565b6006818154811062000b3f57600080fd5b6000918252602090912001546001600160a01b0316905081565b60005b8281101562000c005760408051600481526024810182526020810180516001600160e01b03166338cc483160e01b17905290516001600160a01b0384169162000ba59162001911565b600060405180830381855af49150503d806000811462000be2576040519150601f19603f3d011682016040523d82523d6000602084013e62000be7565b606091505b505050808062000bf7906200197e565b91505062000b5c565b505050565b604051600090819047906001600160a01b038616906108fc90869085818181858888f193505050503d806000811462000c5b576040519150601f19603f3d011682016040523d82523d6000602084013e62000c60565b606091505b509196479650945050505050565b600080600160405162000c8190620017ad565b90151581526020015b604051809103906000f08015801562000ca7573d6000803e3d6000fd5b5092915050565b60408051600481526024810182526020810180516001600160e01b0316632d3c86dd60e11b17905290516001600160a01b0383169162000cee9162001911565b600060405180830381855afa9150503d806000811462000d2b576040519150601f19603f3d011682016040523d82523d6000602084013e62000d30565b606091505b50505050565b60015b8281101562000c0057816001600160a01b03168160405160240162000d6091815260200190565b60408051601f198184030181529181526020820180516001600160e01b031663c648049d60e01b1790525162000d97919062001911565b6000604051808303816000865af19150503d806000811462000dd6576040519150601f19603f3d011682016040523d82523d6000602084013e62000ddb565b606091505b505050808062000deb906200197e565b91505062000d39565b60005a905090565b6000805b8281101562000e235760028190558062000e1a816200197e565b91505062000e00565b5050600254919050565b600060016002600082825462000e4491906200199c565b909155503092915050565b604051673d80600a3d3981f381523060601b601482018190526e5af43d82803e903d91602b57fd5bf3602883015260009160378184f09250506001600160a01b03821662000ee05760405162461bcd60e51b815260206004820152601560248201527f436c6f6e65206372656174696f6e206661696c65640000000000000000000000604482015260640162000394565b5090565b60008060405162000c8a90620017bb565b60408051600481526024810182526020810180516001600160e01b0316632d3c86dd60e11b17905290516001600160a01b0383169162000f359162001911565b6000604051808303816000865af19150503d806000811462000d2b576040519150601f19603f3d011682016040523d82523d6000602084013e62000d30565b608061160c8152602081a07fac3e966f295f2d5312f973dc6d42f30a6dc1c1f76ab8ee91cc8ca5dad1fa60fd80602083a17fae85c7887d510d629d8eb59ca412c0bf604c72c550fb0eec2734b12c76f2760b8082602085a261055160a0527ff4cd3854cb47c6b2f68a3a796635d026b9b412a93dfb80dd411c544cbc3c1817808284604087a37fe32ef46652011110f84325a4871007ee80018c1b6728ee04ffae74eb557e3fbf818385604088a450505050565b60408051600481526024810182526020810180516001600160e01b0316632d3c86dd60e11b17905290516001600160a01b03831691620010689162001911565b600060405180830381855af49150503d806000811462000d2b576040519150601f19603f3d011682016040523d82523d6000602084013e62000d30565b60015b8281101562000c0057816001600160a01b031681604051602401620010cf91815260200190565b60408051601f198184030181529181526020820180516001600160e01b031663c648049d60e01b1790525162001106919062001911565b600060405180830381855af49150503d806000811462001143576040519150601f19603f3d011682016040523d82523d6000602084013e62001148565b606091505b505050808062001158906200197e565b915050620010a8565b60006040516200117190620017bb565b604051809103906000f0801580156200118e573d6000803e3d6000fd5b506006805460018101825560009182527ff652222313e28459528d920b65115c16c04f3efc82aaedc97be59f3f377c0d3f0180547fffffffffffffffffffffffff0000000000000000000000000000000000000000166001600160a01b0384161790559091505b8281101562000c0057816001600160a01b0316635b34b9666040518163ffffffff1660e01b8152600401600060405180830381600087803b1580156200123a57600080fd5b505af11580156200124f573d6000803e3d6000fd5b50505050808062001260906200197e565b915050620011f5565b60006060600060405184815260208160048360008a61c350f26020828101604052828552909250620012a29184018101908401620019b7565b95945050505050565b600160026003831562000d30573063b2041d21620012cb600187620019d7565b6040518263ffffffff1660e01b8152600401620012ea91815260200190565b600060405180830381600087803b1580156200130557600080fd5b505af11580156200131a573d6000803e3d6000fd5b5050505050505050565b6000828410156200141a5760006001600160a01b038316620013488660016200199c565b6040516024810191909152604481018690526001600160a01b038516606482015260840160408051601f198184030181529181526020820180516001600160e01b03167fbb376a960000000000000000000000000000000000000000000000000000000017905251620013bc919062001911565b6000604051808303816000865af19150503d8060008114620013fb576040519150601f19603f3d011682016040523d82523d6000602084013e62001400565b606091505b50915050806200141090620019f1565b91506200141d9050565b50825b9392505050565b60008060006040516200143790620017bb565b604051809103906000f08015801562001454573d6000803e3d6000fd5b50905060006040516200146790620017bb565b604051809103906000f08015801562001484573d6000803e3d6000fd5b50919491935090915050565b60008054604051620014a290620017bb565b8190604051809103906000f5905080158015620014c3573d6000803e3d6000fd5b509050806001600160a01b03166383197ef06040518163ffffffff1660e01b8152600401600060405180830381600087803b1580156200150257600080fd5b505af115801562001517573d6000803e3d6000fd5b5050505050565b6000606060006040518481526020816004838961c350f46020828101604052828552909250620012a29184018101908401620019b7565b60008060025460001b6040516200156c90620017bb565b8190604051809103906000f590508015801562000ca7573d6000803e3d6000fd5b60606000807f5a790dba3c23b59f4183a2d8e5d0ceae10b15e337a4dcaeae2d5897a5f68a3d4905060405181815260208160048360008961c350f25060208101604052909252505050565b6040516001600160a01b038316908290600081818185875af1925050503d806000811462001517576040519150601f19603f3d011682016040523d82523d6000602084013e62001517565b6000806000805460001b6040516200163b90620017bb565b8190604051809103906000f59050801580156200165c573d6000803e3d6000fd5b509050600060015460001b6040516200167590620017bb565b8190604051809103906000f590508015801562001484573d6000803e3d6000fd5b6000606060006040518481526020816004838961c350fa6020828101604052828552909250620012a29184018101908401620019b7565b60005b8281101562000c005760408051600481526024810182526020810180516001600160e01b03166338cc483160e01b17905290516001600160a01b03841691620017199162001911565b6000604051808303816000865af19150503d806000811462001758576040519150601f19603f3d011682016040523d82523d6000602084013e6200175d565b606091505b50505080806200176d906200197e565b915050620016d0565b6040516001600160a01b0383169082156108fc029083906000818181858888f1935050505015801562000c00573d6000803e3d6000fd5b6101fe8062001a1a83390190565b6101dc8062001c1883390190565b600060208284031215620017dc57600080fd5b5035919050565b6001600160a01b0381168114620017f957600080fd5b50565b600080604083850312156200181057600080fd5b8235915060208301356200182481620017e3565b809150509250929050565b600080604083850312156200184357600080fd5b82356200185081620017e3565b946020939093013593505050565b6000602082840312156200187157600080fd5b81356200141d81620017e3565b600080604083850312156200189257600080fd5b82356200189f81620017e3565b915060208301357fffffffff00000000000000000000000000000000000000000000000000000000811681146200182457600080fd5b600080600060608486031215620018eb57600080fd5b833592506020840135915060408401356200190681620017e3565b809150509250925092565b6000825160005b8181101562001934576020818601810151858301520162001918565b8181111562001944576000828501525b509190910192915050565b7f4e487b7100000000000000000000000000000000000000000000000000000000600052601160045260246000fd5b60006000198214156200199557620019956200194f565b5060010190565b60008219821115620019b257620019b26200194f565b500190565b600060208284031215620019ca57600080fd5b81516200141d81620017e3565b600082821015620019ec57620019ec6200194f565b500390565b8051602080830151919081101562001a13576000198160200360031b1b821691505b5091905056fe60806040526040516101fe3803806101fe83398101604081905261002291610087565b8060405161002f9061007a565b9015158152602001604051809103906000f080158015610053573d6000803e3d6000fd5b50600080546001600160a01b0319166001600160a01b0392909216919091179055506100b0565b610101806100fd83390190565b60006020828403121561009957600080fd5b815180151581146100a957600080fd5b9392505050565b603f806100be6000396000f3fe6080604052600080fdfea264697066735822122095ac5b9dec29093d2d3905d159d15c41de595c2db91143bca7357a23a25b420164736f6c634300080900336080604052604051610101380380610101833981016040819052602091608d565b801560885760405162461bcd60e51b815260206004820152602e60248201527f44756d6d79436f6e7472616374206465706c6f796d656e74206661696c65642060448201526d34b73a32b73a34b7b730b6363c9760911b606482015260840160405180910390fd5b5060b4565b600060208284031215609e57600080fd5b8151801515811460ad57600080fd5b9392505050565b603f806100c26000396000f3fe6080604052600080fdfea26469706673582212208b148fc3e7cadb343f4f544f1839f05f0cfec6a7fab4a3d4824459b1c466036564736f6c63430008090033608060405234801561001057600080fd5b506101bc806100206000396000f3fe6080604052600436106100435760003560e01c806338cc48311461004f5780635b34b9661461006f57806361bc221a1461008657806383197ef0146100aa57600080fd5b3661004a57005b600080fd5b34801561005b57600080fd5b506040513081526020015b60405180910390f35b34801561007b57600080fd5b506100846100bd565b005b34801561009257600080fd5b5061009c60005481565b604051908152602001610066565b3480156100b657600080fd5b5061008433ff5b60016000808282546100cf9190610147565b9091555050600054600a1015610145576040517f08c379a000000000000000000000000000000000000000000000000000000000815260206004820152600d60248201527f466f726365642072657665727400000000000000000000000000000000000000604482015260640160405180910390fd5b565b60008219821115610181577f4e487b7100000000000000000000000000000000000000000000000000000000600052601160045260246000fd5b50019056fea2646970667358221220f428ac1bebd1b17eb607f07d73e6ccc4852e2de3016fed656fe49e8da226bffc64736f6c63430008090033a26469706673582212204a62dd83d13e6ae6fb21c8f380395ba735e7b0e7018f5ef51fad1c9f5029209764736f6c63430008090033608060405234801561001057600080fd5b506101bc806100206000396000f3fe6080604052600436106100435760003560e01c806338cc48311461004f5780635b34b9661461006f57806361bc221a1461008657806383197ef0146100aa57600080fd5b3661004a57005b600080fd5b34801561005b57600080fd5b506040513081526020015b60405180910390f35b34801561007b57600080fd5b506100846100bd565b005b34801561009257600080fd5b5061009c60005481565b604051908152602001610066565b3480156100b657600080fd5b5061008433ff5b60016000808282546100cf9190610147565b9091555050600054600a1015610145576040517f08c379a000000000000000000000000000000000000000000000000000000000815260206004820152600d60248201527f466f726365642072657665727400000000000000000000000000000000000000604482015260640160405180910390fd5b565b60008219821115610181577f4e487b7100000000000000000000000000000000000000000000000000000000600052601160045260246000fd5b50019056fea2646970667358221220f428ac1bebd1b17eb607f07d73e6ccc4852e2de3016fed656fe49e8da226bffc64736f6c63430008090033",
  "linkReferences": {},
  "deployedLinkReferences": {}
}