{
  "_format": "hh-sol-artifact-1",
  "contractName": "EstimateGasContract",
  "sourceName": "contracts/EstimateGasContract.sol",
  "abi": [
    {
      "inputs": [],
      "stateMutability": "payable",
      "type": "constructor"
    },
    {
      "inputs": [
        {
          "internalType": "address",
          "name": "addr",
          "type": "address"
        }
      ],
      "name": "addressBalance",
      "outputs": [
        {
          "internalType": "uint256",
          "name": "",
          "type": "uint256"
        }
      ],
      "stateMutability": "view",
      "type": "function"
    },
    {
      "inputs": [
        {
          "internalType": "address",
          "name": "_address",
          "type": "address"
        },
        {
          "internalType": "bytes4",
          "name": "_sig",
          "type": "bytes4"
        }
      ],
      "name": "callCodeToContract",
      "outputs": [
        {
          "internalType": "address",
          "name": "",
          "type": "address"
        }
      ],
      "stateMutability": "nonpayable",
      "type": "function"
    },
    {
      "inputs": [
        {
          "internalType": "address",
          "name": "_invalidContract",
          "type": "address"
        }
      ],
      "name": "callCodeToInvalidContract",
      "outputs": [],
      "stateMutability": "nonpayable",
      "type": "function"
    },
    {
      "inputs": [
        {
          "internalType": "uint256",
          "name": "_n",
          "type": "uint256"
        },
        {
          "internalType": "address",
          "name": "_contractAddress",
          "type": "address"
        }
      ],
      "name": "callExternalFunctionNTimes",
      "outputs": [],
      "stateMutability": "nonpayable",
      "type": "function"
    },
    {
      "inputs": [
        {
          "internalType": "uint256",
          "name": "_n",
          "type": "uint256"
        },
        {
          "internalType": "address",
          "name": "_contractAddress",
          "type": "address"
        }
      ],
      "name": "callExternalViewFunctionNTimes",
      "outputs": [],
      "stateMutability": "nonpayable",
      "type": "function"
    },
    {
      "inputs": [
        {
          "internalType": "address",
          "name": "_invalidContract",
          "type": "address"
        }
      ],
      "name": "callToInvalidContract",
      "outputs": [],
      "stateMutability": "nonpayable",
      "type": "function"
    },
    {
      "inputs": [],
      "name": "counter",
      "outputs": [
        {
          "internalType": "uint256",
          "name": "",
          "type": "uint256"
        }
      ],
      "stateMutability": "view",
      "type": "function"
    },
    {
      "inputs": [],
      "name": "counter2",
      "outputs": [
        {
          "internalType": "uint256",
          "name": "",
          "type": "uint256"
        }
      ],
      "stateMutability": "view",
      "type": "function"
    },
    {
      "inputs": [
        {
          "internalType": "address",
          "name": "_address",
          "type": "address"
        },
        {
          "internalType": "bytes4",
          "name": "_sig",
          "type": "bytes4"
        }
      ],
      "name": "delegateCallToContract",
      "outputs": [
        {
          "internalType": "address",
          "name": "",
          "type": "address"
        }
      ],
      "stateMutability": "nonpayable",
      "type": "function"
    },
    {
      "inputs": [
        {
          "internalType": "address",
          "name": "_invalidContract",
          "type": "address"
        }
      ],
      "name": "delegateCallToInvalidContract",
      "outputs": [],
      "stateMutability": "nonpayable",
      "type": "function"
    },
    {
      "inputs": [
        {
          "internalType": "uint256",
          "name": "_n",
          "type": "uint256"
        },
        {
          "internalType": "address",
          "name": "_contractAddress",
          "type": "address"
        }
      ],
      "name": "delegatecallExternalFunctionNTimes",
      "outputs": [],
      "stateMutability": "nonpayable",
      "type": "function"
    },
    {
      "inputs": [
        {
          "internalType": "uint256",
          "name": "_n",
          "type": "uint256"
        },
        {
          "internalType": "address",
          "name": "_contractAddress",
          "type": "address"
        }
      ],
      "name": "delegatecallExternalViewFunctionNTimes",
      "outputs": [],
      "stateMutability": "nonpayable",
      "type": "function"
    },
    {
      "inputs": [],
      "name": "deployDestroyAndRedeploy",
      "outputs": [
        {
          "internalType": "address",
          "name": "",
          "type": "address"
        }
      ],
      "stateMutability": "nonpayable",
      "type": "function"
    },
    {
      "inputs": [],
      "name": "deployNestedContracts",
      "outputs": [
        {
          "internalType": "address",
          "name": "",
          "type": "address"
        },
        {
          "internalType": "address",
          "name": "",
          "type": "address"
        }
      ],
      "stateMutability": "nonpayable",
      "type": "function"
    },
    {
      "inputs": [],
      "name": "deployNestedContracts2",
      "outputs": [
        {
          "internalType": "address",
          "name": "",
          "type": "address"
        },
        {
          "internalType": "address",
          "name": "",
          "type": "address"
        }
      ],
      "stateMutability": "nonpayable",
      "type": "function"
    },
    {
      "inputs": [],
      "name": "deployViaCreate",
      "outputs": [
        {
          "internalType": "address",
          "name": "",
          "type": "address"
        }
      ],
      "stateMutability": "nonpayable",
      "type": "function"
    },
    {
      "inputs": [],
      "name": "deployViaCreate2",
      "outputs": [
        {
          "internalType": "address",
          "name": "",
          "type": "address"
        }
      ],
      "stateMutability": "nonpayable",
      "type": "function"
    },
    {
      "inputs": [],
      "name": "destroy",
      "outputs": [],
      "stateMutability": "nonpayable",
      "type": "function"
    },
    {
      "inputs": [],
      "name": "getGasLeft",
      "outputs": [
        {
          "internalType": "uint256",
          "name": "",
          "type": "uint256"
        }
      ],
      "stateMutability": "view",
      "type": "function"
    },
    {
      "inputs": [],
      "name": "getMockContractAddress",
      "outputs": [
        {
          "internalType": "address",
          "name": "",
          "type": "address"
        }
      ],
      "stateMutability": "view",
      "type": "function"
    },
    {
      "inputs": [],
      "name": "logs",
      "outputs": [],
      "stateMutability": "nonpayable",
      "type": "function"
    },
    {
      "inputs": [],
      "name": "msgSender",
      "outputs": [
        {
          "internalType": "address",
          "name": "",
          "type": "address"
        }
      ],
      "stateMutability": "view",
      "type": "function"
    },
    {
      "inputs": [],
      "name": "msgSig",
      "outputs": [
        {
          "internalType": "bytes4",
          "name": "",
          "type": "bytes4"
        }
      ],
      "stateMutability": "pure",
      "type": "function"
    },
    {
      "inputs": [],
      "name": "msgValue",
      "outputs": [
        {
          "internalType": "uint256",
          "name": "",
          "type": "uint256"
        }
      ],
      "stateMutability": "payable",
      "type": "function"
    },
    {
      "inputs": [
        {
          "internalType": "uint256",
          "name": "_it",
          "type": "uint256"
        },
        {
          "internalType": "uint256",
          "name": "_n",
          "type": "uint256"
        },
        {
          "internalType": "address",
          "name": "_contractAddress",
          "type": "address"
        }
      ],
      "name": "nestedCalls",
      "outputs": [
        {
          "internalType": "uint256",
          "name": "",
          "type": "uint256"
        }
      ],
      "stateMutability": "nonpayable",
      "type": "function"
    },
    {
      "inputs": [],
      "name": "pureMultiply",
      "outputs": [
        {
          "internalType": "int256",
          "name": "",
          "type": "int256"
        }
      ],
      "stateMutability": "pure",
      "type": "function"
    },
    {
      "inputs": [
        {
          "internalType": "address",
          "name": "_to",
          "type": "address"
        },
        {
          "internalType": "uint256",
          "name": "_amount",
          "type": "uint256"
        }
      ],
      "name": "reentrancyCallWithGas",
      "outputs": [
        {
          "internalType": "uint256",
          "name": "",
          "type": "uint256"
        },
        {
          "internalType": "uint256",
          "name": "",
          "type": "uint256"
        }
      ],
      "stateMutability": "nonpayable",
      "type": "function"
    },
    {
      "inputs": [
        {
          "internalType": "address",
          "name": "_to",
          "type": "address"
        },
        {
          "internalType": "uint256",
          "name": "_amount",
          "type": "uint256"
        }
      ],
      "name": "reentrancyWithCall",
      "outputs": [],
      "stateMutability": "nonpayable",
      "type": "function"
    },
    {
      "inputs": [
        {
          "internalType": "address",
          "name": "_to",
          "type": "address"
        },
        {
          "internalType": "uint256",
          "name": "_amount",
          "type": "uint256"
        }
      ],
      "name": "reentrancyWithTransfer",
      "outputs": [],
      "stateMutability": "nonpayable",
      "type": "function"
    },
    {
      "inputs": [],
      "name": "salt",
      "outputs": [
        {
          "internalType": "uint256",
          "name": "",
          "type": "uint256"
        }
      ],
      "stateMutability": "view",
      "type": "function"
    },
    {
      "inputs": [],
      "name": "salt2",
      "outputs": [
        {
          "internalType": "uint256",
          "name": "",
          "type": "uint256"
        }
      ],
      "stateMutability": "view",
      "type": "function"
    },
    {
      "inputs": [
        {
          "internalType": "address",
          "name": "_address",
          "type": "address"
        },
        {
          "internalType": "bytes4",
          "name": "_sig",
          "type": "bytes4"
        }
      ],
      "name": "staticCallToContract",
      "outputs": [
        {
          "internalType": "address",
          "name": "",
          "type": "address"
        }
      ],
      "stateMutability": "view",
      "type": "function"
    },
    {
      "inputs": [
        {
          "internalType": "address",
          "name": "_invalidContract",
          "type": "address"
        }
      ],
      "name": "staticCallToInvalidContract",
      "outputs": [],
      "stateMutability": "view",
      "type": "function"
    },
    {
      "inputs": [],
      "name": "txOrigin",
      "outputs": [
        {
          "internalType": "address",
          "name": "",
          "type": "address"
        }
      ],
      "stateMutability": "view",
      "type": "function"
    },
    {
      "inputs": [
        {
          "internalType": "uint256",
          "name": "_counter",
          "type": "uint256"
        }
      ],
      "name": "updateCounter",
      "outputs": [
        {
          "internalType": "uint256",
          "name": "",
          "type": "uint256"
        }
      ],
      "stateMutability": "nonpayable",
      "type": "function"
    },
    {
      "inputs": [
        {
          "internalType": "uint256",
          "name": "_n",
          "type": "uint256"
        }
      ],
      "name": "updateStateNTimes",
      "outputs": [
        {
          "internalType": "uint256",
          "name": "",
          "type": "uint256"
        }
      ],
      "stateMutability": "nonpayable",
      "type": "function"
    },
    {
      "stateMutability": "payable",
      "type": "receive"
    }
  ],
  "bytecode": "0x608060405260015f55600180556002805560016003556040516100219061007f565b604051809103905ff08015801561003a573d5f803e3d5ffd5b5060045f6101000a81548173ffffffffffffffffffffffffffffffffffffffff021916908373ffffffffffffffffffffffffffffffffffffffff16021790555061008c565b61011a80611e9683390190565b611dfd806100995f395ff3fe608060405260043610610212575f3560e01c8063a17d256a11610117578063ddf363d71161009f578063ef043d571161006e578063ef043d571461076f578063ef0a4eac1461079a578063f96757d1146107d6578063fa5e414e14610800578063ffaf08901461082857610219565b8063ddf363d7146106d7578063e080b4aa146106f5578063e7df080e1461071d578063ec3e88cf1461074557610219565b8063c648049d116100e6578063c648049d146105e0578063cdb9c2831461061c578063d3b6e74114610647578063d737d0c714610683578063dbb6f04a146106ad57610219565b8063a17d256a14610514578063ac7e27581461053e578063bb376a961461057a578063bfa0b133146105b657610219565b806351be4eaa1161019a5780637007996311610169578063700799631461047057806374259795146104985780637df6ee27146104ae57806380f009b6146104d657806383197ef0146104fe57610219565b806351be4eaa146103b65780635256b99d146103e057806361bc221a1461041c5780636e6662b91461044657610219565b806331bf722a116101e157806331bf722a146102c357806339a92ada146102ed5780633ec4de351461032a57806341f32f0c146103665780634929af371461038e57610219565b80630ec1551d1461021d57806314a7862c1461024757806319a6e3d5146102715780631abd7d871461029957610219565b3661021957005b5f80fd5b348015610228575f80fd5b50610231610850565b60405161023e9190611736565b60405180910390f35b348015610252575f80fd5b5061025b610858565b604051610268919061178e565b60405180910390f35b34801561027c575f80fd5b5061029760048036038101906102929190611808565b610880565b005b3480156102a4575f80fd5b506102ad610983565b6040516102ba919061178e565b60405180910390f35b3480156102ce575f80fd5b506102d7610a4b565b6040516102e49190611855565b60405180910390f35b3480156102f8575f80fd5b50610313600480360381019061030e919061186e565b610a51565b6040516103219291906118ac565b60405180910390f35b348015610335575f80fd5b50610350600480360381019061034b91906118d3565b610ad5565b60405161035d9190611855565b60405180910390f35b348015610371575f80fd5b5061038c600480360381019061038791906118d3565b610af5565b005b348015610399575f80fd5b506103b460048036038101906103af9190611808565b610bdf565b005b3480156103c1575f80fd5b506103ca610cee565b6040516103d79190611855565b60405180910390f35b3480156103eb575f80fd5b50610406600480360381019061040191906118fe565b610cf5565b6040516104139190611855565b60405180910390f35b348015610427575f80fd5b50610430610d22565b60405161043d9190611855565b60405180910390f35b348015610451575f80fd5b5061045a610d28565b604051610467919061178e565b60405180910390f35b34801561047b575f80fd5b50610496600480360381019061049191906118d3565b610d59565b005b3480156104a3575f80fd5b506104ac610e44565b005b3480156104b9575f80fd5b506104d460048036038101906104cf91906118d3565b610fb8565b005b3480156104e1575f80fd5b506104fc60048036038101906104f79190611808565b6110a2565b005b348015610509575f80fd5b506105126111b0565b005b34801561051f575f80fd5b506105286111b3565b6040516105359190611855565b60405180910390f35b348015610549575f80fd5b50610564600480360381019061055f919061197e565b6111b8565b604051610571919061178e565b60405180910390f35b348015610585575f80fd5b506105a0600480360381019061059b91906119bc565b6111f9565b6040516105ad9190611855565b60405180910390f35b3480156105c1575f80fd5b506105ca611326565b6040516105d79190611855565b60405180910390f35b3480156105eb575f80fd5b50610606600480360381019061060191906118fe565b61132c565b6040516106139190611855565b60405180910390f35b348015610627575f80fd5b50610630611344565b60405161063e929190611a0c565b60405180910390f35b348015610652575f80fd5b5061066d6004803603810190610668919061197e565b6113a4565b60405161067a919061178e565b60405180910390f35b34801561068e575f80fd5b506106976113e4565b6040516106a4919061178e565b60405180910390f35b3480156106b8575f80fd5b506106c16113eb565b6040516106ce919061178e565b60405180910390f35b6106df611425565b6040516106ec9190611855565b60405180910390f35b348015610700575f80fd5b5061071b600480360381019061071691906118d3565b61142c565b005b348015610728575f80fd5b50610743600480360381019061073e919061186e565b611478565b005b348015610750575f80fd5b506107596114e2565b6040516107669190611a42565b60405180910390f35b34801561077a575f80fd5b5061078361150c565b604051610791929190611a0c565b60405180910390f35b3480156107a5575f80fd5b506107c060048036038101906107bb919061197e565b61157e565b6040516107cd919061178e565b60405180910390f35b3480156107e1575f80fd5b506107ea6115be565b6040516107f7919061178e565b60405180910390f35b34801561080b575f80fd5b5061082660048036038101906108219190611808565b6115c5565b005b348015610833575f80fd5b5061084e6004803603810190610849919061186e565b6116c9565b005b5f6004905090565b5f60045f9054906101000a900473ffffffffffffffffffffffffffffffffffffffff16905090565b5f5b8281101561097e578173ffffffffffffffffffffffffffffffffffffffff166040516024016040516020818303038152906040527f38cc4831000000000000000000000000000000000000000000000000000000007bffffffffffffffffffffffffffffffffffffffffffffffffffffffff19166020820180517bffffffffffffffffffffffffffffffffffffffffffffffffffffffff83818316178352505050506040516109319190611ac7565b5f60405180830381855af49150503d805f8114610969576040519150601f19603f3d011682016040523d82523d5f602084013e61096e565b606091505b5050508080600101915050610882565b505050565b5f806001545f1b60405161099690611711565b8190604051809103905ff59050801580156109b3573d5f803e3d5ffd5b5090508073ffffffffffffffffffffffffffffffffffffffff166383197ef06040518163ffffffff1660e01b81526004015f604051808303815f87803b1580156109fb575f80fd5b505af1158015610a0d573d5f803e3d5ffd5b505050505f6001545f1b604051610a2390611711565b8190604051809103905ff5905080158015610a40573d5f803e3d5ffd5b509050809250505090565b60025481565b5f805f4790508473ffffffffffffffffffffffffffffffffffffffff16846108fc90604051610a7f90611b00565b5f60405180830381858888f193505050503d805f8114610aba576040519150601f19603f3d011682016040523d82523d5f602084013e610abf565b606091505b5050505f47905081819350935050509250929050565b5f8173ffffffffffffffffffffffffffffffffffffffff16319050919050565b8073ffffffffffffffffffffffffffffffffffffffff166040516024016040516020818303038152906040527f5a790dba000000000000000000000000000000000000000000000000000000007bffffffffffffffffffffffffffffffffffffffffffffffffffffffff19166020820180517bffffffffffffffffffffffffffffffffffffffffffffffffffffffff8381831617835250505050604051610b9c9190611ac7565b5f60405180830381855afa9150503d805f8114610bd4576040519150601f19603f3d011682016040523d82523d5f602084013e610bd9565b606091505b50505050565b5f5b82811015610ce9578173ffffffffffffffffffffffffffffffffffffffff1681604051602401610c119190611855565b6040516020818303038152906040527fc648049d000000000000000000000000000000000000000000000000000000007bffffffffffffffffffffffffffffffffffffffffffffffffffffffff19166020820180517bffffffffffffffffffffffffffffffffffffffffffffffffffffffff8381831617835250505050604051610c9b9190611ac7565b5f604051808303815f865af19150503d805f8114610cd4576040519150601f19603f3d011682016040523d82523d5f602084013e610cd9565b606091505b5050508080600101915050610be1565b505050565b5f5a905090565b5f805f90505b82811015610d1757806003819055508080600101915050610cfb565b506003549050919050565b60035481565b5f80604051610d3690611711565b604051809103905ff080158015610d4f573d5f803e3d5ffd5b5090508091505090565b8073ffffffffffffffffffffffffffffffffffffffff166040516024016040516020818303038152906040527f5a790dba000000000000000000000000000000000000000000000000000000007bffffffffffffffffffffffffffffffffffffffffffffffffffffffff19166020820180517bffffffffffffffffffffffffffffffffffffffffffffffffffffffff8381831617835250505050604051610e009190611ac7565b5f604051808303815f865af19150503d805f8114610e39576040519150601f19603f3d011682016040523d82523d5f602084013e610e3e565b606091505b50505050565b61160c60805260206080a07fac3e966f295f2d5312f973dc6d42f30a6dc1c1f76ab8ee91cc8ca5dad1fa60fd60206080a17fae85c7887d510d629d8eb59ca412c0bf604c72c550fb0eec2734b12c76f2760b7fac3e966f295f2d5312f973dc6d42f30a6dc1c1f76ab8ee91cc8ca5dad1fa60fd60206080a26105516020608001527ff4cd3854cb47c6b2f68a3a796635d026b9b412a93dfb80dd411c544cbc3c18177fae85c7887d510d629d8eb59ca412c0bf604c72c550fb0eec2734b12c76f2760b7fac3e966f295f2d5312f973dc6d42f30a6dc1c1f76ab8ee91cc8ca5dad1fa60fd60406080a37fe32ef46652011110f84325a4871007ee80018c1b6728ee04ffae74eb557e3fbf7ff4cd3854cb47c6b2f68a3a796635d026b9b412a93dfb80dd411c544cbc3c18177fae85c7887d510d629d8eb59ca412c0bf604c72c550fb0eec2734b12c76f2760b7fac3e966f295f2d5312f973dc6d42f30a6dc1c1f76ab8ee91cc8ca5dad1fa60fd60406080a4565b8073ffffffffffffffffffffffffffffffffffffffff166040516024016040516020818303038152906040527f5a790dba000000000000000000000000000000000000000000000000000000007bffffffffffffffffffffffffffffffffffffffffffffffffffffffff19166020820180517bffffffffffffffffffffffffffffffffffffffffffffffffffffffff838183161783525050505060405161105f9190611ac7565b5f60405180830381855af49150503d805f8114611097576040519150601f19603f3d011682016040523d82523d5f602084013e61109c565b606091505b50505050565b5f5b828110156111ab578173ffffffffffffffffffffffffffffffffffffffff16816040516024016110d49190611855565b6040516020818303038152906040527fc648049d000000000000000000000000000000000000000000000000000000007bffffffffffffffffffffffffffffffffffffffffffffffffffffffff19166020820180517bffffffffffffffffffffffffffffffffffffffffffffffffffffffff838183161783525050505060405161115e9190611ac7565b5f60405180830381855af49150503d805f8114611196576040519150601f19603f3d011682016040523d82523d5f602084013e61119b565b606091505b50505080806001019150506110a4565b505050565b33ff5b5f5481565b5f60605f6040518481526020816004835f8a61c350f291506020810160405280835250818060200190518101906111ef9190611b4f565b9250505092915050565b5f8284101561131b575f8273ffffffffffffffffffffffffffffffffffffffff166001866112279190611ba7565b858560405160240161123b93929190611bda565b6040516020818303038152906040527fbb376a96000000000000000000000000000000000000000000000000000000007bffffffffffffffffffffffffffffffffffffffffffffffffffffffff19166020820180517bffffffffffffffffffffffffffffffffffffffffffffffffffffffff83818316178352505050506040516112c59190611ac7565b5f604051808303815f865af19150503d805f81146112fe576040519150601f19603f3d011682016040523d82523d5f602084013e611303565b606091505b509150508061131190611c47565b5f1c91505061131f565b8390505b9392505050565b60015481565b5f81600381905550815f819055506003549050919050565b5f805f60405161135390611711565b604051809103905ff08015801561136c573d5f803e3d5ffd5b5090505f60405161137c90611711565b604051809103905ff080158015611395573d5f803e3d5ffd5b50905081819350935050509091565b5f60605f6040518481526020816004838961c350f491506020810160405280835250818060200190518101906113da9190611b4f565b9250505092915050565b5f33905090565b5f806003545f1b6040516113fe90611711565b8190604051809103905ff590508015801561141b573d5f803e3d5ffd5b5090508091505090565b5f34905090565b60605f807f5a790dba3c23b59f4183a2d8e5d0ceae10b15e337a4dcaeae2d5897a5f68a3d490506040518181526020816004835f8961c350f29250602081016040528084525050505050565b8173ffffffffffffffffffffffffffffffffffffffff168160405161149c90611b00565b5f6040518083038185875af1925050503d805f81146114d6576040519150601f19603f3d011682016040523d82523d5f602084013e6114db565b606091505b5050505050565b5f80357fffffffff0000000000000000000000000000000000000000000000000000000016905090565b5f805f6001545f1b60405161152090611711565b8190604051809103905ff590508015801561153d573d5f803e3d5ffd5b5090505f6002545f1b60405161155290611711565b8190604051809103905ff590508015801561156f573d5f803e3d5ffd5b50905081819350935050509091565b5f60605f6040518481526020816004838961c350fa91506020810160405280835250818060200190518101906115b49190611b4f565b9250505092915050565b5f32905090565b5f5b828110156116c4578173ffffffffffffffffffffffffffffffffffffffff166040516024016040516020818303038152906040527f38cc4831000000000000000000000000000000000000000000000000000000007bffffffffffffffffffffffffffffffffffffffffffffffffffffffff19166020820180517bffffffffffffffffffffffffffffffffffffffffffffffffffffffff83818316178352505050506040516116769190611ac7565b5f604051808303815f865af19150503d805f81146116af576040519150601f19603f3d011682016040523d82523d5f602084013e6116b4565b606091505b50505080806001019150506115c7565b505050565b8173ffffffffffffffffffffffffffffffffffffffff166108fc8290811502906040515f60405180830381858888f1935050505015801561170c573d5f803e3d5ffd5b505050565b61011a80611cae83390190565b5f819050919050565b6117308161171e565b82525050565b5f6020820190506117495f830184611727565b92915050565b5f73ffffffffffffffffffffffffffffffffffffffff82169050919050565b5f6117788261174f565b9050919050565b6117888161176e565b82525050565b5f6020820190506117a15f83018461177f565b92915050565b5f80fd5b5f819050919050565b6117bd816117ab565b81146117c7575f80fd5b50565b5f813590506117d8816117b4565b92915050565b6117e78161176e565b81146117f1575f80fd5b50565b5f81359050611802816117de565b92915050565b5f806040838503121561181e5761181d6117a7565b5b5f61182b858286016117ca565b925050602061183c858286016117f4565b9150509250929050565b61184f816117ab565b82525050565b5f6020820190506118685f830184611846565b92915050565b5f8060408385031215611884576118836117a7565b5b5f611891858286016117f4565b92505060206118a2858286016117ca565b9150509250929050565b5f6040820190506118bf5f830185611846565b6118cc6020830184611846565b9392505050565b5f602082840312156118e8576118e76117a7565b5b5f6118f5848285016117f4565b91505092915050565b5f60208284031215611913576119126117a7565b5b5f611920848285016117ca565b91505092915050565b5f7fffffffff0000000000000000000000000000000000000000000000000000000082169050919050565b61195d81611929565b8114611967575f80fd5b50565b5f8135905061197881611954565b92915050565b5f8060408385031215611994576119936117a7565b5b5f6119a1858286016117f4565b92505060206119b28582860161196a565b9150509250929050565b5f805f606084860312156119d3576119d26117a7565b5b5f6119e0868287016117ca565b93505060206119f1868287016117ca565b9250506040611a02868287016117f4565b9150509250925092565b5f604082019050611a1f5f83018561177f565b611a2c602083018461177f565b9392505050565b611a3c81611929565b82525050565b5f602082019050611a555f830184611a33565b92915050565b5f81519050919050565b5f81905092915050565b5f5b83811015611a8c578082015181840152602081019050611a71565b5f8484015250505050565b5f611aa182611a5b565b611aab8185611a65565b9350611abb818560208601611a6f565b80840191505092915050565b5f611ad28284611a97565b915081905092915050565b50565b5f611aeb5f83611a65565b9150611af682611add565b5f82019050919050565b5f611b0a82611ae0565b9150819050919050565b5f611b1e8261174f565b9050919050565b611b2e81611b14565b8114611b38575f80fd5b50565b5f81519050611b4981611b25565b92915050565b5f60208284031215611b6457611b636117a7565b5b5f611b7184828501611b3b565b91505092915050565b7f4e487b71000000000000000000000000000000000000000000000000000000005f52601160045260245ffd5b5f611bb1826117ab565b9150611bbc836117ab565b9250828201905080821115611bd457611bd3611b7a565b5b92915050565b5f606082019050611bed5f830186611846565b611bfa6020830185611846565b611c07604083018461177f565b949350505050565b5f819050602082019050919050565b5f819050919050565b5f611c328251611c1e565b80915050919050565b5f82821b905092915050565b5f611c5182611a5b565b82611c5b84611c0f565b9050611c6681611c27565b92506020821015611ca657611ca17fffffffffffffffffffffffffffffffffffffffffffffffffffffffffffffffff83602003600802611c3b565b831692505b505091905056fe608060405234801561000f575f80fd5b5060fe8061001c5f395ff3fe6080604052348015600e575f80fd5b50600436106030575f3560e01c806338cc483114603457806383197ef014604e575b5f80fd5b603a6056565b6040516045919060b1565b60405180910390f35b6054605d565b005b5f30905090565b3373ffffffffffffffffffffffffffffffffffffffff16ff5b5f73ffffffffffffffffffffffffffffffffffffffff82169050919050565b5f609d826076565b9050919050565b60ab816095565b82525050565b5f60208201905060c25f83018460a4565b9291505056fea2646970667358221220cc66cddc91539359e3f6d47e73ebbfaef2ed65f26daf3060cc3028ff661ef17764736f6c63430008160033a2646970667358221220563472d9c13f048e9454a82ca1352a6cacf899b781c4a7becaac7321dd5d13ea64736f6c63430008160033608060405234801561000f575f80fd5b5060fe8061001c5f395ff3fe6080604052348015600e575f80fd5b50600436106030575f3560e01c806338cc483114603457806383197ef014604e575b5f80fd5b603a6056565b6040516045919060b1565b60405180910390f35b6054605d565b005b5f30905090565b3373ffffffffffffffffffffffffffffffffffffffff16ff5b5f73ffffffffffffffffffffffffffffffffffffffff82169050919050565b5f609d826076565b9050919050565b60ab816095565b82525050565b5f60208201905060c25f83018460a4565b9291505056fea2646970667358221220cc66cddc91539359e3f6d47e73ebbfaef2ed65f26daf3060cc3028ff661ef17764736f6c63430008160033",
  "linkReferences": {},
  "deployedLinkReferences": {}
}