{
  "_format": "hh-sol-artifact-1",
  "contractName": "EstimateGasContract",
  "sourceName": "contracts/EstimateGasContract.sol",
  "abi": [
    {
      "inputs": [],
      "stateMutability": "payable",
      "type": "constructor"
    },
    {
      "inputs": [
        {
          "internalType": "address",
          "name": "addr",
          "type": "address"
        }
      ],
      "name": "addressBalance",
      "outputs": [
        {
          "internalType": "uint256",
          "name": "",
          "type": "uint256"
        }
      ],
      "stateMutability": "view",
      "type": "function"
    },
    {
      "inputs": [
        {
          "internalType": "address",
          "name": "_address",
          "type": "address"
        },
        {
          "internalType": "bytes4",
          "name": "_sig",
          "type": "bytes4"
        }
      ],
      "name": "callCodeToContract",
      "outputs": [
        {
          "internalType": "address",
          "name": "",
          "type": "address"
        }
      ],
      "stateMutability": "nonpayable",
      "type": "function"
    },
    {
      "inputs": [
        {
          "internalType": "address",
          "name": "_invalidContract",
          "type": "address"
        }
      ],
      "name": "callCodeToInvalidContract",
      "outputs": [],
      "stateMutability": "nonpayable",
      "type": "function"
    },
    {
      "inputs": [
        {
          "internalType": "uint256",
          "name": "_n",
          "type": "uint256"
        },
        {
          "internalType": "address",
          "name": "_contractAddress",
          "type": "address"
        }
      ],
      "name": "callExternalFunctionNTimes",
      "outputs": [],
      "stateMutability": "nonpayable",
      "type": "function"
    },
    {
      "inputs": [
        {
          "internalType": "uint256",
          "name": "_n",
          "type": "uint256"
        },
        {
          "internalType": "address",
          "name": "_contractAddress",
          "type": "address"
        }
      ],
      "name": "callExternalViewFunctionNTimes",
      "outputs": [],
      "stateMutability": "nonpayable",
      "type": "function"
    },
    {
      "inputs": [
        {
          "internalType": "address",
          "name": "_invalidContract",
          "type": "address"
        }
      ],
      "name": "callToInvalidContract",
      "outputs": [],
      "stateMutability": "nonpayable",
      "type": "function"
    },
    {
      "inputs": [],
      "name": "counter",
      "outputs": [
        {
          "internalType": "uint256",
          "name": "",
          "type": "uint256"
        }
      ],
      "stateMutability": "view",
      "type": "function"
    },
    {
      "inputs": [
        {
          "internalType": "address",
          "name": "_address",
          "type": "address"
        },
        {
          "internalType": "bytes4",
          "name": "_sig",
          "type": "bytes4"
        }
      ],
      "name": "delegateCallToContract",
      "outputs": [
        {
          "internalType": "address",
          "name": "",
          "type": "address"
        }
      ],
      "stateMutability": "nonpayable",
      "type": "function"
    },
    {
      "inputs": [
        {
          "internalType": "address",
          "name": "_invalidContract",
          "type": "address"
        }
      ],
      "name": "delegateCallToInvalidContract",
      "outputs": [],
      "stateMutability": "nonpayable",
      "type": "function"
    },
    {
      "inputs": [
        {
          "internalType": "uint256",
          "name": "_n",
          "type": "uint256"
        },
        {
          "internalType": "address",
          "name": "_contractAddress",
          "type": "address"
        }
      ],
      "name": "delegatecallExternalFunctionNTimes",
      "outputs": [],
      "stateMutability": "nonpayable",
      "type": "function"
    },
    {
      "inputs": [
        {
          "internalType": "uint256",
          "name": "_n",
          "type": "uint256"
        },
        {
          "internalType": "address",
          "name": "_contractAddress",
          "type": "address"
        }
      ],
      "name": "delegatecallExternalViewFunctionNTimes",
      "outputs": [],
      "stateMutability": "nonpayable",
      "type": "function"
    },
    {
      "inputs": [],
      "name": "deployDestroyAndRedeploy",
      "outputs": [
        {
          "internalType": "address",
          "name": "",
          "type": "address"
        }
      ],
      "stateMutability": "nonpayable",
      "type": "function"
    },
    {
      "inputs": [],
      "name": "deployNestedContracts",
      "outputs": [
        {
          "internalType": "address",
          "name": "",
          "type": "address"
        },
        {
          "internalType": "address",
          "name": "",
          "type": "address"
        }
      ],
      "stateMutability": "nonpayable",
      "type": "function"
    },
    {
      "inputs": [],
      "name": "deployNestedContracts2",
      "outputs": [
        {
          "internalType": "address",
          "name": "",
          "type": "address"
        },
        {
          "internalType": "address",
          "name": "",
          "type": "address"
        }
      ],
      "stateMutability": "nonpayable",
      "type": "function"
    },
    {
      "inputs": [],
      "name": "deployViaCreate",
      "outputs": [
        {
          "internalType": "address",
          "name": "",
          "type": "address"
        }
      ],
      "stateMutability": "nonpayable",
      "type": "function"
    },
    {
      "inputs": [],
      "name": "deployViaCreate2",
      "outputs": [
        {
          "internalType": "address",
          "name": "",
          "type": "address"
        }
      ],
      "stateMutability": "nonpayable",
      "type": "function"
    },
    {
      "inputs": [],
      "name": "destroy",
      "outputs": [],
      "stateMutability": "nonpayable",
      "type": "function"
    },
    {
      "inputs": [],
      "name": "getCounter",
      "outputs": [
        {
          "internalType": "uint256",
          "name": "",
          "type": "uint256"
        }
      ],
      "stateMutability": "view",
      "type": "function"
    },
    {
      "inputs": [],
      "name": "getGasLeft",
      "outputs": [
        {
          "internalType": "uint256",
          "name": "",
          "type": "uint256"
        }
      ],
      "stateMutability": "view",
      "type": "function"
    },
    {
      "inputs": [],
      "name": "getMockContractAddress",
      "outputs": [
        {
          "internalType": "address",
          "name": "",
          "type": "address"
        }
      ],
      "stateMutability": "view",
      "type": "function"
    },
    {
      "inputs": [],
      "name": "logs",
      "outputs": [],
      "stateMutability": "nonpayable",
      "type": "function"
    },
    {
      "inputs": [],
      "name": "msgSender",
      "outputs": [
        {
          "internalType": "address",
          "name": "",
          "type": "address"
        }
      ],
      "stateMutability": "view",
      "type": "function"
    },
    {
      "inputs": [],
      "name": "msgSig",
      "outputs": [
        {
          "internalType": "bytes4",
          "name": "",
          "type": "bytes4"
        }
      ],
      "stateMutability": "pure",
      "type": "function"
    },
    {
      "inputs": [],
      "name": "msgValue",
      "outputs": [
        {
          "internalType": "uint256",
          "name": "",
          "type": "uint256"
        }
      ],
      "stateMutability": "payable",
      "type": "function"
    },
    {
      "inputs": [
        {
          "internalType": "uint256",
          "name": "_it",
          "type": "uint256"
        },
        {
          "internalType": "uint256",
          "name": "_n",
          "type": "uint256"
        },
        {
          "internalType": "address",
          "name": "_contractAddress",
          "type": "address"
        }
      ],
      "name": "nestedCalls",
      "outputs": [
        {
          "internalType": "uint256",
          "name": "",
          "type": "uint256"
        }
      ],
      "stateMutability": "nonpayable",
      "type": "function"
    },
    {
      "inputs": [],
      "name": "pureMultiply",
      "outputs": [
        {
          "internalType": "int256",
          "name": "",
          "type": "int256"
        }
      ],
      "stateMutability": "pure",
      "type": "function"
    },
    {
      "inputs": [
        {
          "internalType": "address",
          "name": "_to",
          "type": "address"
        },
        {
          "internalType": "uint256",
          "name": "_amount",
          "type": "uint256"
        }
      ],
      "name": "reentrancyCallWithGas",
      "outputs": [
        {
          "internalType": "uint256",
          "name": "",
          "type": "uint256"
        },
        {
          "internalType": "uint256",
          "name": "",
          "type": "uint256"
        }
      ],
      "stateMutability": "nonpayable",
      "type": "function"
    },
    {
      "inputs": [
        {
          "internalType": "address",
          "name": "_to",
          "type": "address"
        },
        {
          "internalType": "uint256",
          "name": "_amount",
          "type": "uint256"
        }
      ],
      "name": "reentrancyWithCall",
      "outputs": [],
      "stateMutability": "nonpayable",
      "type": "function"
    },
    {
      "inputs": [
        {
          "internalType": "address",
          "name": "_to",
          "type": "address"
        },
        {
          "internalType": "uint256",
          "name": "_amount",
          "type": "uint256"
        }
      ],
      "name": "reentrancyWithTransfer",
      "outputs": [],
      "stateMutability": "nonpayable",
      "type": "function"
    },
    {
      "inputs": [],
      "name": "salt",
      "outputs": [
        {
          "internalType": "uint256",
          "name": "",
          "type": "uint256"
        }
      ],
      "stateMutability": "view",
      "type": "function"
    },
    {
      "inputs": [],
      "name": "salt2",
      "outputs": [
        {
          "internalType": "uint256",
          "name": "",
          "type": "uint256"
        }
      ],
      "stateMutability": "view",
      "type": "function"
    },
    {
      "inputs": [
        {
          "internalType": "address",
          "name": "_address",
          "type": "address"
        },
        {
          "internalType": "bytes4",
          "name": "_sig",
          "type": "bytes4"
        }
      ],
      "name": "staticCallToContract",
      "outputs": [
        {
          "internalType": "address",
          "name": "",
          "type": "address"
        }
      ],
      "stateMutability": "view",
      "type": "function"
    },
    {
      "inputs": [
        {
          "internalType": "address",
          "name": "_invalidContract",
          "type": "address"
        }
      ],
      "name": "staticCallToInvalidContract",
      "outputs": [],
      "stateMutability": "view",
      "type": "function"
    },
    {
      "inputs": [],
      "name": "txOrigin",
      "outputs": [
        {
          "internalType": "address",
          "name": "",
          "type": "address"
        }
      ],
      "stateMutability": "view",
      "type": "function"
    },
    {
      "inputs": [
        {
          "internalType": "uint256",
          "name": "_counter",
          "type": "uint256"
        }
      ],
      "name": "updateCounter",
      "outputs": [
        {
          "internalType": "uint256",
          "name": "",
          "type": "uint256"
        }
      ],
      "stateMutability": "nonpayable",
      "type": "function"
    },
    {
      "inputs": [
        {
          "internalType": "uint256",
          "name": "_n",
          "type": "uint256"
        }
      ],
      "name": "updateStateNTimes",
      "outputs": [
        {
          "internalType": "uint256",
          "name": "",
          "type": "uint256"
        }
      ],
      "stateMutability": "nonpayable",
      "type": "function"
    },
    {
      "stateMutability": "payable",
      "type": "receive"
    }
  ],
  "bytecode": "0x608060405260016000556002600155600160025560405161001f90610061565b604051809103906000f08015801561003b573d6000803e3d6000fd5b50600380546001600160a01b0319166001600160a01b039290921691909117905561006d565b60a58061140383390190565b6113878061007c6000396000f3fe6080604052600436106102535760003560e01c80638ada066e11610138578063ddf363d7116100b0578063ef043d571161007f578063f96757d111610064578063f96757d11461064b578063fa5e414e1461065e578063ffaf08901461067e57600080fd5b8063ef043d5714610616578063ef0a4eac1461062b57600080fd5b8063ddf363d714610591578063e080b4aa14610597578063e7df080e146105b7578063ec3e88cf146105d757600080fd5b8063c648049d11610107578063d3b6e741116100ec578063d3b6e74114610549578063d737d0c714610569578063dbb6f04a1461057c57600080fd5b8063c648049d146104f1578063cdb9c2831461051457600080fd5b80638ada066e14610486578063ac7e27581461049b578063bb376a96146104bb578063bfa0b133146104db57600080fd5b806351be4eaa116101cb578063700799631161019a5780637df6ee271161017f5780637df6ee271461043357806380f009b61461045357806383197ef01461047357600080fd5b806370079963146103fe578063742597951461041e57600080fd5b806351be4eaa1461039e5780635256b99d146103b357806361bc221a146103d35780636e6662b9146103e957600080fd5b806331bf722a116102225780633ec4de35116102075780633ec4de351461033657806341f32f0c1461035e5780634929af371461037e57600080fd5b806331bf722a146102eb57806339a92ada1461030157600080fd5b80630ec1551d1461025f57806314a7862c1461028257806319a6e3d5146102b45780631abd7d87146102d657600080fd5b3661025a57005b600080fd5b34801561026b57600080fd5b5060045b6040519081526020015b60405180910390f35b34801561028e57600080fd5b506003546001600160a01b03165b6040516001600160a01b039091168152602001610279565b3480156102c057600080fd5b506102d46102cf3660046110ad565b61069e565b005b3480156102e257600080fd5b5061029c610742565b3480156102f757600080fd5b5061026f60015481565b34801561030d57600080fd5b5061032161031c3660046110dd565b610808565b60408051928352602083019190915201610279565b34801561034257600080fd5b5061026f610351366004611109565b6001600160a01b03163190565b34801561036a57600080fd5b506102d4610379366004611109565b61086f565b34801561038a57600080fd5b506102d46103993660046110ad565b6108f3565b3480156103aa57600080fd5b5061026f6109a8565b3480156103bf57600080fd5b5061026f6103ce366004611126565b6109b0565b3480156103df57600080fd5b5061026f60025481565b3480156103f557600080fd5b5061029c6109dd565b34801561040a57600080fd5b506102d4610419366004611109565b610a0f565b34801561042a57600080fd5b506102d4610a8a565b34801561043f57600080fd5b506102d461044e366004611109565b610b3e565b34801561045f57600080fd5b506102d461046e3660046110ad565b610bb7565b34801561047f57600080fd5b506102d433ff5b34801561049257600080fd5b5060025461026f565b3480156104a757600080fd5b5061029c6104b636600461113f565b610c6a565b3480156104c757600080fd5b5061026f6104d6366004611192565b610caa565b3480156104e757600080fd5b5061026f60005481565b3480156104fd57600080fd5b5061026f61050c366004611126565b600281905590565b34801561052057600080fd5b50610529610da0565b604080516001600160a01b03938416815292909116602083015201610279565b34801561055557600080fd5b5061029c61056436600461113f565b610e06565b34801561057557600080fd5b503361029c565b34801561058857600080fd5b5061029c610e3b565b3461026f565b3480156105a357600080fd5b506102d46105b2366004611109565b610e70565b3480156105c357600080fd5b506102d46105d23660046110dd565b610ebb565b3480156105e357600080fd5b506040517fffffffff00000000000000000000000000000000000000000000000000000000600035168152602001610279565b34801561062257600080fd5b50610529610f10565b34801561063757600080fd5b5061029c61064636600461113f565b610f7d565b34801561065757600080fd5b503261029c565b34801561066a57600080fd5b506102d46106793660046110ad565b610fb2565b34801561068a57600080fd5b506102d46106993660046110dd565b611053565b60005b8281101561073d5760408051600481526024810182526020810180516001600160e01b03166338cc483160e01b17905290516001600160a01b038416916106e7916111cb565b600060405180830381855af49150503d8060008114610722576040519150601f19603f3d011682016040523d82523d6000602084013e610727565b606091505b505050808061073590611235565b9150506106a1565b505050565b60008060005460001b60405161075790611089565b8190604051809103906000f5905080158015610777573d6000803e3d6000fd5b509050806001600160a01b03166383197ef06040518163ffffffff1660e01b8152600401600060405180830381600087803b1580156107b557600080fd5b505af11580156107c9573d6000803e3d6000fd5b505050506000805460001b6040516107e090611089565b8190604051809103906000f5905080158015610800573d6000803e3d6000fd5b509392505050565b604051600090819047906001600160a01b038616906108fc90869085818181858888f193505050503d806000811461085c576040519150601f19603f3d011682016040523d82523d6000602084013e610861565b606091505b509196479650945050505050565b60408051600481526024810182526020810180516001600160e01b0316632d3c86dd60e11b17905290516001600160a01b038316916108ad916111cb565b600060405180830381855afa9150503d80600081146108e8576040519150601f19603f3d011682016040523d82523d6000602084013e6108ed565b606091505b50505050565b60005b8281101561073d57816001600160a01b03168160405160240161091b91815260200190565b60408051601f198184030181529181526020820180516001600160e01b031663c648049d60e01b1790525161095091906111cb565b6000604051808303816000865af19150503d806000811461098d576040519150601f19603f3d011682016040523d82523d6000602084013e610992565b606091505b50505080806109a090611235565b9150506108f6565b60005a905090565b6000805b828110156109d3576002819055806109cb81611235565b9150506109b4565b5050600254919050565b6000806040516109ec90611089565b604051809103906000f080158015610a08573d6000803e3d6000fd5b5092915050565b60408051600481526024810182526020810180516001600160e01b0316632d3c86dd60e11b17905290516001600160a01b03831691610a4d916111cb565b6000604051808303816000865af19150503d80600081146108e8576040519150601f19603f3d011682016040523d82523d6000602084013e6108ed565b608061160c8152602081a07fac3e966f295f2d5312f973dc6d42f30a6dc1c1f76ab8ee91cc8ca5dad1fa60fd80602083a17fae85c7887d510d629d8eb59ca412c0bf604c72c550fb0eec2734b12c76f2760b8082602085a261055160a0527ff4cd3854cb47c6b2f68a3a796635d026b9b412a93dfb80dd411c544cbc3c1817808284604087a37fe32ef46652011110f84325a4871007ee80018c1b6728ee04ffae74eb557e3fbf818385604088a450505050565b60408051600481526024810182526020810180516001600160e01b0316632d3c86dd60e11b17905290516001600160a01b03831691610b7c916111cb565b600060405180830381855af49150503d80600081146108e8576040519150601f19603f3d011682016040523d82523d6000602084013e6108ed565b60005b8281101561073d57816001600160a01b031681604051602401610bdf91815260200190565b60408051601f198184030181529181526020820180516001600160e01b031663c648049d60e01b17905251610c1491906111cb565b600060405180830381855af49150503d8060008114610c4f576040519150601f19603f3d011682016040523d82523d6000602084013e610c54565b606091505b5050508080610c6290611235565b915050610bba565b60006060600060405184815260208160048360008a61c350f26020828101604052828552909250610ca19184018101908401611250565b95945050505050565b600082841015610d965760006001600160a01b038316610ccb86600161126d565b6040516024810191909152604481018690526001600160a01b038516606482015260840160408051601f198184030181529181526020820180516001600160e01b03167fbb376a960000000000000000000000000000000000000000000000000000000017905251610d3d91906111cb565b6000604051808303816000865af19150503d8060008114610d7a576040519150601f19603f3d011682016040523d82523d6000602084013e610d7f565b606091505b5091505080610d8d90611285565b9150610d999050565b50825b9392505050565b6000806000604051610db190611089565b604051809103906000f080158015610dcd573d6000803e3d6000fd5b5090506000604051610dde90611089565b604051809103906000f080158015610dfa573d6000803e3d6000fd5b50919491935090915050565b6000606060006040518481526020816004838961c350f46020828101604052828552909250610ca19184018101908401611250565b60008060025460001b604051610e5090611089565b8190604051809103906000f5905080158015610a08573d6000803e3d6000fd5b60606000807f5a790dba3c23b59f4183a2d8e5d0ceae10b15e337a4dcaeae2d5897a5f68a3d4905060405181815260208160048360008961c350f25060208101604052909252505050565b6040516001600160a01b038316908290600081818185875af1925050503d8060008114610f04576040519150601f19603f3d011682016040523d82523d6000602084013e610f09565b606091505b5050505050565b6000806000805460001b604051610f2690611089565b8190604051809103906000f5905080158015610f46573d6000803e3d6000fd5b509050600060015460001b604051610f5d90611089565b8190604051809103906000f5905080158015610dfa573d6000803e3d6000fd5b6000606060006040518481526020816004838961c350fa6020828101604052828552909250610ca19184018101908401611250565b60005b8281101561073d5760408051600481526024810182526020810180516001600160e01b03166338cc483160e01b17905290516001600160a01b03841691610ffb916111cb565b6000604051808303816000865af19150503d8060008114611038576040519150601f19603f3d011682016040523d82523d6000602084013e61103d565b606091505b505050808061104b90611235565b915050610fb5565b6040516001600160a01b0383169082156108fc029083906000818181858888f1935050505015801561073d573d6000803e3d6000fd5b60a5806112ad83390190565b6001600160a01b03811681146110aa57600080fd5b50565b600080604083850312156110c057600080fd5b8235915060208301356110d281611095565b809150509250929050565b600080604083850312156110f057600080fd5b82356110fb81611095565b946020939093013593505050565b60006020828403121561111b57600080fd5b8135610d9981611095565b60006020828403121561113857600080fd5b5035919050565b6000806040838503121561115257600080fd5b823561115d81611095565b915060208301357fffffffff00000000000000000000000000000000000000000000000000000000811681146110d257600080fd5b6000806000606084860312156111a757600080fd5b833592506020840135915060408401356111c081611095565b809150509250925092565b6000825160005b818110156111ec57602081860181015185830152016111d2565b818111156111fb576000828501525b509190910192915050565b7f4e487b7100000000000000000000000000000000000000000000000000000000600052601160045260246000fd5b600060001982141561124957611249611206565b5060010190565b60006020828403121561126257600080fd5b8151610d9981611095565b6000821982111561128057611280611206565b500190565b805160208083015191908110156112a6576000198160200360031b1b821691505b5091905056fe6080604052348015600f57600080fd5b5060878061001e6000396000f3fe6080604052348015600f57600080fd5b506004361060325760003560e01c806338cc483114603757806383197ef014604a575b600080fd5b6040805130815290519081900360200190f35b604f33ff5b00fea2646970667358221220fae3ca9c8faee6454abb4b562e8e9cb76207de8b6d1638500fbdf800dbc2b3b564736f6c63430008090033a264697066735822122055a78fd150b8ea1fb90527c99d7e91c8f08028d1d4567168579d14a57a70833564736f6c634300080900336080604052348015600f57600080fd5b5060878061001e6000396000f3fe6080604052348015600f57600080fd5b506004361060325760003560e01c806338cc483114603757806383197ef014604a575b600080fd5b6040805130815290519081900360200190f35b604f33ff5b00fea2646970667358221220fae3ca9c8faee6454abb4b562e8e9cb76207de8b6d1638500fbdf800dbc2b3b564736f6c63430008090033",
  "linkReferences": {},
  "deployedLinkReferences": {}
}