{
  "_format": "hh-sol-artifact-1",
  "contractName": "EstimateGasContract",
  "sourceName": "contracts/EstimateGasContract.sol",
  "abi": [
    {
      "inputs": [],
      "stateMutability": "payable",
      "type": "constructor"
    },
    {
      "anonymous": false,
      "inputs": [
        {
          "indexed": false,
          "internalType": "bool",
          "name": "success",
          "type": "bool"
        }
      ],
      "name": "TransferSuccess",
      "type": "event"
    },
    {
      "stateMutability": "payable",
      "type": "fallback"
    },
    {
      "inputs": [
        {
          "internalType": "address",
          "name": "addr",
          "type": "address"
        }
      ],
      "name": "addressBalance",
      "outputs": [
        {
          "internalType": "uint256",
          "name": "",
          "type": "uint256"
        }
      ],
      "stateMutability": "view",
      "type": "function"
    },
    {
      "inputs": [
        {
          "internalType": "address",
          "name": "_address",
          "type": "address"
        },
        {
          "internalType": "bytes4",
          "name": "_sig",
          "type": "bytes4"
        }
      ],
      "name": "callCodeToContract",
      "outputs": [
        {
          "internalType": "address",
          "name": "",
          "type": "address"
        }
      ],
      "stateMutability": "nonpayable",
      "type": "function"
    },
    {
      "inputs": [
        {
          "internalType": "address",
          "name": "_invalidContract",
          "type": "address"
        }
      ],
      "name": "callCodeToInvalidContract",
      "outputs": [],
      "stateMutability": "nonpayable",
      "type": "function"
    },
    {
      "inputs": [
        {
          "internalType": "uint256",
          "name": "_n",
          "type": "uint256"
        },
        {
          "internalType": "address",
          "name": "_contractAddress",
          "type": "address"
        }
      ],
      "name": "callExternalFunctionNTimes",
      "outputs": [],
      "stateMutability": "nonpayable",
      "type": "function"
    },
    {
      "inputs": [
        {
          "internalType": "uint256",
          "name": "_n",
          "type": "uint256"
        },
        {
          "internalType": "address",
          "name": "_contractAddress",
          "type": "address"
        }
      ],
      "name": "callExternalViewFunctionNTimes",
      "outputs": [],
      "stateMutability": "nonpayable",
      "type": "function"
    },
    {
      "inputs": [
        {
          "internalType": "address",
          "name": "_invalidContract",
          "type": "address"
        }
      ],
      "name": "callToInvalidContract",
      "outputs": [],
      "stateMutability": "nonpayable",
      "type": "function"
    },
    {
      "inputs": [],
      "name": "counter",
      "outputs": [
        {
          "internalType": "uint256",
          "name": "",
          "type": "uint256"
        }
      ],
      "stateMutability": "view",
      "type": "function"
    },
    {
      "inputs": [
        {
          "internalType": "address",
          "name": "_address",
          "type": "address"
        },
        {
          "internalType": "bytes4",
          "name": "_sig",
          "type": "bytes4"
        }
      ],
      "name": "delegateCallToContract",
      "outputs": [
        {
          "internalType": "address",
          "name": "",
          "type": "address"
        }
      ],
      "stateMutability": "nonpayable",
      "type": "function"
    },
    {
      "inputs": [
        {
          "internalType": "address",
          "name": "_invalidContract",
          "type": "address"
        }
      ],
      "name": "delegateCallToInvalidContract",
      "outputs": [],
      "stateMutability": "nonpayable",
      "type": "function"
    },
    {
      "inputs": [
        {
          "internalType": "uint256",
          "name": "_n",
          "type": "uint256"
        },
        {
          "internalType": "address",
          "name": "_contractAddress",
          "type": "address"
        }
      ],
      "name": "delegatecallExternalFunctionNTimes",
      "outputs": [],
      "stateMutability": "nonpayable",
      "type": "function"
    },
    {
      "inputs": [
        {
          "internalType": "uint256",
          "name": "_n",
          "type": "uint256"
        },
        {
          "internalType": "address",
          "name": "_contractAddress",
          "type": "address"
        }
      ],
      "name": "delegatecallExternalViewFunctionNTimes",
      "outputs": [],
      "stateMutability": "nonpayable",
      "type": "function"
    },
    {
      "inputs": [
        {
          "internalType": "uint256",
          "name": "_numCalls",
          "type": "uint256"
        }
      ],
      "name": "deployAndCallContract",
      "outputs": [],
      "stateMutability": "nonpayable",
      "type": "function"
    },
    {
      "inputs": [],
      "name": "deployContract",
      "outputs": [
        {
          "internalType": "address",
          "name": "",
          "type": "address"
        }
      ],
      "stateMutability": "nonpayable",
      "type": "function"
    },
    {
      "inputs": [],
      "name": "deployDestroy",
      "outputs": [],
      "stateMutability": "nonpayable",
      "type": "function"
    },
    {
      "inputs": [],
      "name": "deployNestedContracts",
      "outputs": [
        {
          "internalType": "address",
          "name": "",
          "type": "address"
        },
        {
          "internalType": "address",
          "name": "",
          "type": "address"
        }
      ],
      "stateMutability": "nonpayable",
      "type": "function"
    },
    {
      "inputs": [],
      "name": "deployNestedContracts2",
      "outputs": [
        {
          "internalType": "address",
          "name": "",
          "type": "address"
        },
        {
          "internalType": "address",
          "name": "",
          "type": "address"
        }
      ],
      "stateMutability": "nonpayable",
      "type": "function"
    },
    {
      "inputs": [],
      "name": "deployNewInstance",
      "outputs": [
        {
          "internalType": "address",
          "name": "",
          "type": "address"
        }
      ],
      "stateMutability": "nonpayable",
      "type": "function"
    },
    {
      "inputs": [],
      "name": "deployViaCreate",
      "outputs": [
        {
          "internalType": "address",
          "name": "",
          "type": "address"
        }
      ],
      "stateMutability": "nonpayable",
      "type": "function"
    },
    {
      "inputs": [],
      "name": "deployViaCreate2",
      "outputs": [
        {
          "internalType": "address",
          "name": "",
          "type": "address"
        }
      ],
      "stateMutability": "nonpayable",
      "type": "function"
    },
    {
      "inputs": [
        {
          "internalType": "uint256",
          "name": "",
          "type": "uint256"
        }
      ],
      "name": "deployedMockContracts",
      "outputs": [
        {
          "internalType": "address",
          "name": "",
          "type": "address"
        }
      ],
      "stateMutability": "view",
      "type": "function"
    },
    {
      "inputs": [],
      "name": "destroy",
      "outputs": [],
      "stateMutability": "nonpayable",
      "type": "function"
    },
    {
      "inputs": [],
      "name": "getCounter",
      "outputs": [
        {
          "internalType": "uint256",
          "name": "",
          "type": "uint256"
        }
      ],
      "stateMutability": "view",
      "type": "function"
    },
    {
      "inputs": [],
      "name": "getGasLeft",
      "outputs": [
        {
          "internalType": "uint256",
          "name": "",
          "type": "uint256"
        }
      ],
      "stateMutability": "view",
      "type": "function"
    },
    {
      "inputs": [],
      "name": "getMockContractAddress",
      "outputs": [
        {
          "internalType": "address",
          "name": "",
          "type": "address"
        }
      ],
      "stateMutability": "view",
      "type": "function"
    },
    {
      "inputs": [],
      "name": "logs",
      "outputs": [],
      "stateMutability": "nonpayable",
      "type": "function"
    },
    {
      "inputs": [],
      "name": "msgSender",
      "outputs": [
        {
          "internalType": "address",
          "name": "",
          "type": "address"
        }
      ],
      "stateMutability": "view",
      "type": "function"
    },
    {
      "inputs": [],
      "name": "msgSig",
      "outputs": [
        {
          "internalType": "bytes4",
          "name": "",
          "type": "bytes4"
        }
      ],
      "stateMutability": "pure",
      "type": "function"
    },
    {
      "inputs": [],
      "name": "msgValue",
      "outputs": [
        {
          "internalType": "uint256",
          "name": "",
          "type": "uint256"
        }
      ],
      "stateMutability": "payable",
      "type": "function"
    },
    {
      "inputs": [
        {
          "internalType": "uint256",
          "name": "_it",
          "type": "uint256"
        },
        {
          "internalType": "uint256",
          "name": "_n",
          "type": "uint256"
        },
        {
          "internalType": "address",
          "name": "_contractAddress",
          "type": "address"
        }
      ],
      "name": "nestedCalls",
      "outputs": [
        {
          "internalType": "uint256",
          "name": "",
          "type": "uint256"
        }
      ],
      "stateMutability": "nonpayable",
      "type": "function"
    },
    {
      "inputs": [],
      "name": "pureMultiply",
      "outputs": [
        {
          "internalType": "int256",
          "name": "",
          "type": "int256"
        }
      ],
      "stateMutability": "pure",
      "type": "function"
    },
    {
      "inputs": [
        {
          "internalType": "uint256",
          "name": "depth",
          "type": "uint256"
        }
      ],
      "name": "recurse",
      "outputs": [],
      "stateMutability": "nonpayable",
      "type": "function"
    },
    {
      "inputs": [
        {
          "internalType": "address",
          "name": "_to",
          "type": "address"
        },
        {
          "internalType": "uint256",
          "name": "_amount",
          "type": "uint256"
        }
      ],
      "name": "reentrancyCallWithGas",
      "outputs": [
        {
          "internalType": "uint256",
          "name": "",
          "type": "uint256"
        },
        {
          "internalType": "uint256",
          "name": "",
          "type": "uint256"
        }
      ],
      "stateMutability": "nonpayable",
      "type": "function"
    },
    {
      "inputs": [
        {
          "internalType": "address",
          "name": "_to",
          "type": "address"
        },
        {
          "internalType": "uint256",
          "name": "_amount",
          "type": "uint256"
        }
      ],
      "name": "reentrancyWithCall",
      "outputs": [],
      "stateMutability": "nonpayable",
      "type": "function"
    },
    {
      "inputs": [
        {
          "internalType": "address",
          "name": "_to",
          "type": "address"
        },
        {
          "internalType": "uint256",
          "name": "_amount",
          "type": "uint256"
        }
      ],
      "name": "reentrancyWithTransfer",
      "outputs": [],
      "stateMutability": "nonpayable",
      "type": "function"
    },
    {
      "inputs": [],
      "name": "salt",
      "outputs": [
        {
          "internalType": "uint256",
          "name": "",
          "type": "uint256"
        }
      ],
      "stateMutability": "view",
      "type": "function"
    },
    {
      "inputs": [],
      "name": "salt2",
      "outputs": [
        {
          "internalType": "uint256",
          "name": "",
          "type": "uint256"
        }
      ],
      "stateMutability": "view",
      "type": "function"
    },
    {
      "inputs": [
        {
          "internalType": "address",
          "name": "_address",
          "type": "address"
        },
        {
          "internalType": "bytes4",
          "name": "_sig",
          "type": "bytes4"
        }
      ],
      "name": "staticCallToContract",
      "outputs": [
        {
          "internalType": "address",
          "name": "",
          "type": "address"
        }
      ],
      "stateMutability": "view",
      "type": "function"
    },
    {
      "inputs": [
        {
          "internalType": "address",
          "name": "_invalidContract",
          "type": "address"
        }
      ],
      "name": "staticCallToInvalidContract",
      "outputs": [],
      "stateMutability": "view",
      "type": "function"
    },
    {
      "inputs": [],
      "name": "transferType",
      "outputs": [
        {
          "internalType": "uint256",
          "name": "",
          "type": "uint256"
        }
      ],
      "stateMutability": "view",
      "type": "function"
    },
    {
      "inputs": [],
      "name": "txOrigin",
      "outputs": [
        {
          "internalType": "address",
          "name": "",
          "type": "address"
        }
      ],
      "stateMutability": "view",
      "type": "function"
    },
    {
      "inputs": [
        {
          "internalType": "uint256",
          "name": "_counter",
          "type": "uint256"
        }
      ],
      "name": "updateCounter",
      "outputs": [
        {
          "internalType": "uint256",
          "name": "",
          "type": "uint256"
        }
      ],
      "stateMutability": "nonpayable",
      "type": "function"
    },
    {
      "inputs": [
        {
          "internalType": "uint256",
          "name": "_n",
          "type": "uint256"
        }
      ],
      "name": "updateStateNTimes",
      "outputs": [
        {
          "internalType": "uint256",
          "name": "",
          "type": "uint256"
        }
      ],
      "stateMutability": "nonpayable",
      "type": "function"
    },
    {
      "inputs": [
        {
          "internalType": "uint256",
          "name": "_type",
          "type": "uint256"
        }
      ],
      "name": "updateType",
      "outputs": [
        {
          "internalType": "uint256",
          "name": "",
          "type": "uint256"
        }
      ],
      "stateMutability": "nonpayable",
      "type": "function"
    },
    {
      "stateMutability": "payable",
      "type": "receive"
    }
  ],
  "bytecode": "0x6080604052600160005560026001556001600255600160035560405161002490610066565b604051809103906000f080158015610040573d6000803e3d6000fd5b50600480546001600160a01b0319166001600160a01b0392909216919091179055610073565b6101dc80611e7683390190565b611df4806100826000396000f3fe6080604052600436106200032b5760003560e01c806383197ef011620001ab578063d737d0c711620000eb578063ec3e88cf1162000097578063f96757d1116200006d578063f96757d11462000aab578063fa5e414e1462000ac0578063ffaf08901462000ae55762000333565b8063ec3e88cf1462000a2d578063ef043d571462000a6e578063ef0a4eac1462000a865762000333565b8063ddf363d711620000cd578063ddf363d714620009dc578063e080b4aa14620009e3578063e7df080e1462000a085762000333565b8063d737d0c714620009af578063dbb6f04a14620009c45762000333565b8063bb376a961162000157578063cdb9c283116200012d578063cdb9c2831462000939578063cfa7dcf31462000972578063d3b6e741146200098a5762000333565b8063bb376a9614620008d5578063bfa0b13314620008fa578063c648049d14620009125762000333565b8063ab300e5d116200018d578063ab300e5d1462000866578063ac7e2758146200088b578063b2041d2114620008b05762000333565b806383197ef0146200083a5780638ada066e146200084f5762000333565b806351be4eaa11620002775780636e6662b9116200022357806378eac4cc11620001f957806378eac4cc14620007d85780637df6ee2714620007f057806380f009b614620008155762000333565b80636e6662b9146200078357806370079963146200079b5780637425979514620007c05762000333565b80635ecc65f911620002595780635ecc65f9146200072c57806361bc221a14620007535780636cd5c39b146200076b5762000333565b806351be4eaa14620006ef5780635256b99d14620007075762000333565b806339a92ada11620002d757806341f32f0c11620002b957806341f32f0c146200068d5780634929af3714620006b257806349984e0814620006d75762000333565b806339a92ada14620006265780633ec4de3514620006615762000333565b80631708c373116200030d5780631708c37314620005c257806319a6e3d514620005e757806331bf722a146200060e5762000333565b80630ec1551d146200056a57806314a7862c146200058e5762000333565b366200033357005b6004546001600160a01b0316620003915760405162461bcd60e51b815260206004820152601c60248201527f4d6f636b436f6e74726163742061646472657373206e6f74207365740000000060448201526064015b60405180910390fd5b6004546003546001600160a01b039091169060011415620003e6576040516001600160a01b038216903480156108fc02916000818181858888f19350505050158015620003e2573d6000803e3d6000fd5b5050005b6003546002141562000469576040516000906001600160a01b038316903480156108fc029184818181858888f19350505050905080620003e25760405162461bcd60e51b815260206004820152601d60248201527f4661696c656420746f2073656e64204574686572207669612073656e64000000604482015260640162000388565b6003546003141562000521576000816001600160a01b0316346108fc90604051600060405180830381858888f193505050503d8060008114620004c9576040519150601f19603f3d011682016040523d82523d6000602084013e620004ce565b606091505b5050905080620003e25760405162461bcd60e51b815260206004820152601d60248201527f4661696c656420746f2073656e64204574686572207669612063616c6c000000604482015260640162000388565b60405162461bcd60e51b815260206004820152601560248201527f496e76616c6964207472616e7366657220747970650000000000000000000000604482015260640162000388565b3480156200057757600080fd5b5060045b6040519081526020015b60405180910390f35b3480156200059b57600080fd5b506004546001600160a01b03165b6040516001600160a01b03909116815260200162000585565b348015620005cf57600080fd5b50620005a9620005e136600462001794565b62000b0a565b348015620005f457600080fd5b506200060c62000606366004620017c7565b62000b35565b005b3480156200061b57600080fd5b506200057b60015481565b3480156200063357600080fd5b506200064b62000645366004620017fa565b62000be1565b6040805192835260208301919091520162000585565b3480156200066e57600080fd5b506200057b6200068036600462001829565b6001600160a01b03163190565b3480156200069a57600080fd5b506200060c620006ac36600462001829565b62000c4a565b348015620006bf57600080fd5b506200060c620006d1366004620017c7565b62000cd2565b348015620006e457600080fd5b50620005a962000d90565b348015620006fc57600080fd5b506200057b62000da1565b3480156200071457600080fd5b506200057b6200072636600462001794565b62000da9565b3480156200073957600080fd5b506200057b6200074b36600462001794565b600381905590565b3480156200076057600080fd5b506200057b60025481565b3480156200077857600080fd5b50620005a962000dda565b3480156200079057600080fd5b50620005a962000e1a565b348015620007a857600080fd5b506200060c620007ba36600462001829565b62000e2b565b348015620007cd57600080fd5b506200060c62000eaa565b348015620007e557600080fd5b506200057b60035481565b348015620007fd57600080fd5b506200060c6200080f36600462001829565b62000f5e565b3480156200082257600080fd5b506200060c62000834366004620017c7565b62000fdb565b3480156200084757600080fd5b506200060c33ff5b3480156200085c57600080fd5b506002546200057b565b3480156200087357600080fd5b506200060c6200088536600462001794565b62001097565b3480156200089857600080fd5b50620005a9620008aa36600462001849565b6200119f565b348015620008bd57600080fd5b506200060c620008cf36600462001794565b620011e1565b348015620008e257600080fd5b506200057b620008f4366004620018a0565b6200125a565b3480156200090757600080fd5b506200057b60005481565b3480156200091f57600080fd5b506200057b6200093136600462001794565b600281905590565b3480156200094657600080fd5b50620009516200135a565b604080516001600160a01b0393841681529290911660208301520162000585565b3480156200097f57600080fd5b506200060c620013c6565b3480156200099757600080fd5b50620005a9620009a936600462001849565b62001454565b348015620009bc57600080fd5b5033620005a9565b348015620009d157600080fd5b50620005a96200148b565b346200057b565b348015620009f057600080fd5b506200060c62000a0236600462001829565b620014c3565b34801562000a1557600080fd5b506200060c62000a27366004620017fa565b6200150e565b34801562000a3a57600080fd5b506040517fffffffff0000000000000000000000000000000000000000000000000000000060003516815260200162000585565b34801562000a7b57600080fd5b506200095162001559565b34801562000a9357600080fd5b50620005a962000aa536600462001849565b620015cc565b34801562000ab857600080fd5b5032620005a9565b34801562000acd57600080fd5b506200060c62000adf366004620017c7565b62001603565b34801562000af257600080fd5b506200060c62000b04366004620017fa565b620016ac565b6006818154811062000b1b57600080fd5b6000918252602090912001546001600160a01b0316905081565b60005b8281101562000bdc5760408051600481526024810182526020810180516001600160e01b03166338cc483160e01b17905290516001600160a01b0384169162000b8191620018dc565b600060405180830381855af49150503d806000811462000bbe576040519150601f19603f3d011682016040523d82523d6000602084013e62000bc3565b606091505b505050808062000bd39062001949565b91505062000b38565b505050565b604051600090819047906001600160a01b038616906108fc90869085818181858888f193505050503d806000811462000c37576040519150601f19603f3d011682016040523d82523d6000602084013e62000c3c565b606091505b509196479650945050505050565b60408051600481526024810182526020810180516001600160e01b0316632d3c86dd60e11b17905290516001600160a01b0383169162000c8a91620018dc565b600060405180830381855afa9150503d806000811462000cc7576040519150601f19603f3d011682016040523d82523d6000602084013e62000ccc565b606091505b50505050565b60005b8281101562000bdc57816001600160a01b03168160405160240162000cfc91815260200190565b60408051601f198184030181529181526020820180516001600160e01b031663c648049d60e01b1790525162000d339190620018dc565b6000604051808303816000865af19150503d806000811462000d72576040519150601f19603f3d011682016040523d82523d6000602084013e62000d77565b606091505b505050808062000d879062001949565b91505062000cd5565b600062000d9c620016e3565b905090565b60005a905090565b6000805b8281101562000dd05760028190558062000dc78162001949565b91505062000dad565b5050600254919050565b600080600160405162000ded9062001778565b90151581526020015b604051809103906000f08015801562000e13573d6000803e3d6000fd5b5092915050565b60008060405162000df69062001786565b60408051600481526024810182526020810180516001600160e01b0316632d3c86dd60e11b17905290516001600160a01b0383169162000e6b91620018dc565b6000604051808303816000865af19150503d806000811462000cc7576040519150601f19603f3d011682016040523d82523d6000602084013e62000ccc565b608061160c8152602081a07fac3e966f295f2d5312f973dc6d42f30a6dc1c1f76ab8ee91cc8ca5dad1fa60fd80602083a17fae85c7887d510d629d8eb59ca412c0bf604c72c550fb0eec2734b12c76f2760b8082602085a261055160a0527ff4cd3854cb47c6b2f68a3a796635d026b9b412a93dfb80dd411c544cbc3c1817808284604087a37fe32ef46652011110f84325a4871007ee80018c1b6728ee04ffae74eb557e3fbf818385604088a450505050565b60408051600481526024810182526020810180516001600160e01b0316632d3c86dd60e11b17905290516001600160a01b0383169162000f9e91620018dc565b600060405180830381855af49150503d806000811462000cc7576040519150601f19603f3d011682016040523d82523d6000602084013e62000ccc565b60005b8281101562000bdc57816001600160a01b0316816040516024016200100591815260200190565b60408051601f198184030181529181526020820180516001600160e01b031663c648049d60e01b179052516200103c9190620018dc565b600060405180830381855af49150503d806000811462001079576040519150601f19603f3d011682016040523d82523d6000602084013e6200107e565b606091505b50505080806200108e9062001949565b91505062000fde565b6000604051620010a79062001786565b604051809103906000f080158015620010c4573d6000803e3d6000fd5b506006805460018101825560009182527ff652222313e28459528d920b65115c16c04f3efc82aaedc97be59f3f377c0d3f0180547fffffffffffffffffffffffff0000000000000000000000000000000000000000166001600160a01b0384161790559091505b8281101562000bdc57816001600160a01b0316635b34b9666040518163ffffffff1660e01b8152600401600060405180830381600087803b1580156200117057600080fd5b505af115801562001185573d6000803e3d6000fd5b505050508080620011969062001949565b9150506200112b565b60006060600060405184815260208160048360008a61c350f26020828101604052828552909250620011d8918401810190840162001967565b95945050505050565b600160026003831562000ccc573063b2041d216200120160018762001987565b6040518263ffffffff1660e01b81526004016200122091815260200190565b600060405180830381600087803b1580156200123b57600080fd5b505af115801562001250573d6000803e3d6000fd5b5050505050505050565b600082841015620013505760006001600160a01b0383166200127e866001620019a1565b6040516024810191909152604481018690526001600160a01b038516606482015260840160408051601f198184030181529181526020820180516001600160e01b03167fbb376a960000000000000000000000000000000000000000000000000000000017905251620012f29190620018dc565b6000604051808303816000865af19150503d806000811462001331576040519150601f19603f3d011682016040523d82523d6000602084013e62001336565b606091505b50915050806200134690620019bc565b9150620013539050565b50825b9392505050565b60008060006040516200136d9062001786565b604051809103906000f0801580156200138a573d6000803e3d6000fd5b50905060006040516200139d9062001786565b604051809103906000f080158015620013ba573d6000803e3d6000fd5b50919491935090915050565b60008054604051620013d89062001786565b8190604051809103906000f5905080158015620013f9573d6000803e3d6000fd5b509050806001600160a01b03166383197ef06040518163ffffffff1660e01b8152600401600060405180830381600087803b1580156200143857600080fd5b505af11580156200144d573d6000803e3d6000fd5b5050505050565b6000606060006040518481526020816004838961c350f46020828101604052828552909250620011d8918401810190840162001967565b60008060025460001b604051620014a29062001786565b8190604051809103906000f590508015801562000e13573d6000803e3d6000fd5b60606000807f5a790dba3c23b59f4183a2d8e5d0ceae10b15e337a4dcaeae2d5897a5f68a3d4905060405181815260208160048360008961c350f25060208101604052909252505050565b6040516001600160a01b038316908290600081818185875af1925050503d80600081146200144d576040519150601f19603f3d011682016040523d82523d6000602084013e6200144d565b6000806000805460001b604051620015719062001786565b8190604051809103906000f590508015801562001592573d6000803e3d6000fd5b509050600060015460001b604051620015ab9062001786565b8190604051809103906000f5905080158015620013ba573d6000803e3d6000fd5b6000606060006040518481526020816004838961c350fa6020828101604052828552909250620011d8918401810190840162001967565b60005b8281101562000bdc5760408051600481526024810182526020810180516001600160e01b03166338cc483160e01b17905290516001600160a01b038416916200164f91620018dc565b6000604051808303816000865af19150503d80600081146200168e576040519150601f19603f3d011682016040523d82523d6000602084013e62001693565b606091505b5050508080620016a39062001949565b91505062001606565b6040516001600160a01b0383169082156108fc029083906000818181858888f1935050505015801562000bdc573d6000803e3d6000fd5b604051673d80600a3d3981f381523060601b601482018190526e5af43d82803e903d91602b57fd5bf3602883015260009160378184f09250506001600160a01b038216620017745760405162461bcd60e51b815260206004820152601560248201527f436c6f6e65206372656174696f6e206661696c65640000000000000000000000604482015260640162000388565b5090565b6101fe80620019e583390190565b6101dc8062001be383390190565b600060208284031215620017a757600080fd5b5035919050565b6001600160a01b0381168114620017c457600080fd5b50565b60008060408385031215620017db57600080fd5b823591506020830135620017ef81620017ae565b809150509250929050565b600080604083850312156200180e57600080fd5b82356200181b81620017ae565b946020939093013593505050565b6000602082840312156200183c57600080fd5b81356200135381620017ae565b600080604083850312156200185d57600080fd5b82356200186a81620017ae565b915060208301357fffffffff0000000000000000000000000000000000000000000000000000000081168114620017ef57600080fd5b600080600060608486031215620018b657600080fd5b83359250602084013591506040840135620018d181620017ae565b809150509250925092565b6000825160005b81811015620018ff5760208186018101518583015201620018e3565b818111156200190f576000828501525b509190910192915050565b7f4e487b7100000000000000000000000000000000000000000000000000000000600052601160045260246000fd5b60006000198214156200196057620019606200191a565b5060010190565b6000602082840312156200197a57600080fd5b81516200135381620017ae565b6000828210156200199c576200199c6200191a565b500390565b60008219821115620019b757620019b76200191a565b500190565b80516020808301519190811015620019de576000198160200360031b1b821691505b5091905056fe60806040526040516101fe3803806101fe83398101604081905261002291610087565b8060405161002f9061007a565b9015158152602001604051809103906000f080158015610053573d6000803e3d6000fd5b50600080546001600160a01b0319166001600160a01b0392909216919091179055506100b0565b610101806100fd83390190565b60006020828403121561009957600080fd5b815180151581146100a957600080fd5b9392505050565b603f806100be6000396000f3fe6080604052600080fdfea2646970667358221220bec85c3cc4a78c63172a1819a932c7285cd1a62a1db3d08a45981cfbc14a35d464736f6c634300080900336080604052604051610101380380610101833981016040819052602091608d565b801560885760405162461bcd60e51b815260206004820152602e60248201527f44756d6d79436f6e7472616374206465706c6f796d656e74206661696c65642060448201526d34b73a32b73a34b7b730b6363c9760911b606482015260840160405180910390fd5b5060b4565b600060208284031215609e57600080fd5b8151801515811460ad57600080fd5b9392505050565b603f806100c26000396000f3fe6080604052600080fdfea26469706673582212203abde30776bd621ee2749e72fc895c9590723afdc5d2255da3631d07e72bb5e064736f6c63430008090033608060405234801561001057600080fd5b506101bc806100206000396000f3fe6080604052600436106100435760003560e01c806338cc48311461004f5780635b34b9661461006f57806361bc221a1461008657806383197ef0146100aa57600080fd5b3661004a57005b600080fd5b34801561005b57600080fd5b506040513081526020015b60405180910390f35b34801561007b57600080fd5b506100846100bd565b005b34801561009257600080fd5b5061009c60005481565b604051908152602001610066565b3480156100b657600080fd5b5061008433ff5b60016000808282546100cf9190610147565b9091555050600054600a1015610145576040517f08c379a000000000000000000000000000000000000000000000000000000000815260206004820152600d60248201527f466f726365642072657665727400000000000000000000000000000000000000604482015260640160405180910390fd5b565b60008219821115610181577f4e487b7100000000000000000000000000000000000000000000000000000000600052601160045260246000fd5b50019056fea2646970667358221220254ec81c8bd69f2f54d133557a239c262aefe1a51b3240e7f984ee9593b78db864736f6c63430008090033a2646970667358221220586f0246879b59e34a7899beaeb177432d38d4dec215b9a787948373bb7de99c64736f6c63430008090033608060405234801561001057600080fd5b506101bc806100206000396000f3fe6080604052600436106100435760003560e01c806338cc48311461004f5780635b34b9661461006f57806361bc221a1461008657806383197ef0146100aa57600080fd5b3661004a57005b600080fd5b34801561005b57600080fd5b506040513081526020015b60405180910390f35b34801561007b57600080fd5b506100846100bd565b005b34801561009257600080fd5b5061009c60005481565b604051908152602001610066565b3480156100b657600080fd5b5061008433ff5b60016000808282546100cf9190610147565b9091555050600054600a1015610145576040517f08c379a000000000000000000000000000000000000000000000000000000000815260206004820152600d60248201527f466f726365642072657665727400000000000000000000000000000000000000604482015260640160405180910390fd5b565b60008219821115610181577f4e487b7100000000000000000000000000000000000000000000000000000000600052601160045260246000fd5b50019056fea2646970667358221220254ec81c8bd69f2f54d133557a239c262aefe1a51b3240e7f984ee9593b78db864736f6c63430008090033",
  "linkReferences": {},
  "deployedLinkReferences": {}
}