{
  "_format": "hh-sol-artifact-1",
  "contractName": "EstimateGasContract",
  "sourceName": "contracts/EstimateGasContract.sol",
  "abi": [
    {
      "inputs": [],
      "stateMutability": "payable",
      "type": "constructor"
    },
    {
      "anonymous": false,
      "inputs": [
        {
          "indexed": false,
          "internalType": "bool",
          "name": "success",
          "type": "bool"
        }
      ],
      "name": "TransferSuccess",
      "type": "event"
    },
    {
      "stateMutability": "payable",
      "type": "fallback"
    },
    {
      "inputs": [
        {
          "internalType": "address",
          "name": "addr",
          "type": "address"
        }
      ],
      "name": "addressBalance",
      "outputs": [
        {
          "internalType": "uint256",
          "name": "",
          "type": "uint256"
        }
      ],
      "stateMutability": "view",
      "type": "function"
    },
    {
      "inputs": [
        {
          "internalType": "address",
          "name": "_address",
          "type": "address"
        },
        {
          "internalType": "bytes4",
          "name": "_sig",
          "type": "bytes4"
        }
      ],
      "name": "callCodeToContract",
      "outputs": [
        {
          "internalType": "address",
          "name": "",
          "type": "address"
        }
      ],
      "stateMutability": "nonpayable",
      "type": "function"
    },
    {
      "inputs": [
        {
          "internalType": "address",
          "name": "_invalidContract",
          "type": "address"
        }
      ],
      "name": "callCodeToInvalidContract",
      "outputs": [],
      "stateMutability": "nonpayable",
      "type": "function"
    },
    {
      "inputs": [
        {
          "internalType": "uint256",
          "name": "_n",
          "type": "uint256"
        },
        {
          "internalType": "address",
          "name": "_contractAddress",
          "type": "address"
        }
      ],
      "name": "callExternalFunctionNTimes",
      "outputs": [],
      "stateMutability": "nonpayable",
      "type": "function"
    },
    {
      "inputs": [
        {
          "internalType": "uint256",
          "name": "_n",
          "type": "uint256"
        },
        {
          "internalType": "address",
          "name": "_contractAddress",
          "type": "address"
        }
      ],
      "name": "callExternalViewFunctionNTimes",
      "outputs": [],
      "stateMutability": "nonpayable",
      "type": "function"
    },
    {
      "inputs": [
        {
          "internalType": "address",
          "name": "_invalidContract",
          "type": "address"
        }
      ],
      "name": "callToInvalidContract",
      "outputs": [],
      "stateMutability": "nonpayable",
      "type": "function"
    },
    {
      "inputs": [],
      "name": "counter",
      "outputs": [
        {
          "internalType": "uint256",
          "name": "",
          "type": "uint256"
        }
      ],
      "stateMutability": "view",
      "type": "function"
    },
    {
      "inputs": [],
      "name": "counter2",
      "outputs": [
        {
          "internalType": "uint256",
          "name": "",
          "type": "uint256"
        }
      ],
      "stateMutability": "view",
      "type": "function"
    },
    {
      "inputs": [],
      "name": "counter3",
      "outputs": [
        {
          "internalType": "uint256",
          "name": "",
          "type": "uint256"
        }
      ],
      "stateMutability": "view",
      "type": "function"
    },
    {
      "inputs": [],
      "name": "counter4",
      "outputs": [
        {
          "internalType": "uint256",
          "name": "",
          "type": "uint256"
        }
      ],
      "stateMutability": "view",
      "type": "function"
    },
    {
      "inputs": [],
      "name": "counter5",
      "outputs": [
        {
          "internalType": "uint256",
          "name": "",
          "type": "uint256"
        }
      ],
      "stateMutability": "view",
      "type": "function"
    },
    {
      "inputs": [],
      "name": "createClone",
      "outputs": [
        {
          "internalType": "address",
          "name": "result",
          "type": "address"
        }
      ],
      "stateMutability": "nonpayable",
      "type": "function"
    },
    {
      "inputs": [],
      "name": "createDummyContract",
      "outputs": [
        {
          "internalType": "address",
          "name": "",
          "type": "address"
        }
      ],
      "stateMutability": "nonpayable",
      "type": "function"
    },
    {
      "inputs": [
        {
          "internalType": "address",
          "name": "_address",
          "type": "address"
        },
        {
          "internalType": "bytes4",
          "name": "_sig",
          "type": "bytes4"
        }
      ],
      "name": "delegateCallToContract",
      "outputs": [
        {
          "internalType": "address",
          "name": "",
          "type": "address"
        }
      ],
      "stateMutability": "nonpayable",
      "type": "function"
    },
    {
      "inputs": [
        {
          "internalType": "address",
          "name": "_invalidContract",
          "type": "address"
        }
      ],
      "name": "delegateCallToInvalidContract",
      "outputs": [],
      "stateMutability": "nonpayable",
      "type": "function"
    },
    {
      "inputs": [
        {
          "internalType": "uint256",
          "name": "_n",
          "type": "uint256"
        },
        {
          "internalType": "address",
          "name": "_contractAddress",
          "type": "address"
        }
      ],
      "name": "delegatecallExternalFunctionNTimes",
      "outputs": [],
      "stateMutability": "nonpayable",
      "type": "function"
    },
    {
      "inputs": [
        {
          "internalType": "uint256",
          "name": "_n",
          "type": "uint256"
        },
        {
          "internalType": "address",
          "name": "_contractAddress",
          "type": "address"
        }
      ],
      "name": "delegatecallExternalViewFunctionNTimes",
      "outputs": [],
      "stateMutability": "nonpayable",
      "type": "function"
    },
    {
      "inputs": [
        {
          "internalType": "uint256",
          "name": "_numCalls",
          "type": "uint256"
        }
      ],
      "name": "deployAndCallMockContract",
      "outputs": [],
      "stateMutability": "nonpayable",
      "type": "function"
    },
    {
      "inputs": [],
      "name": "deployDestroy",
      "outputs": [],
      "stateMutability": "nonpayable",
      "type": "function"
    },
    {
      "inputs": [],
      "name": "deployNestedContracts",
      "outputs": [
        {
          "internalType": "address",
          "name": "",
          "type": "address"
        },
        {
          "internalType": "address",
          "name": "",
          "type": "address"
        }
      ],
      "stateMutability": "nonpayable",
      "type": "function"
    },
    {
      "inputs": [],
      "name": "deployNestedContracts2",
      "outputs": [
        {
          "internalType": "address",
          "name": "",
          "type": "address"
        },
        {
          "internalType": "address",
          "name": "",
          "type": "address"
        }
      ],
      "stateMutability": "nonpayable",
      "type": "function"
    },
    {
      "inputs": [],
      "name": "deployViaCreate",
      "outputs": [
        {
          "internalType": "address",
          "name": "",
          "type": "address"
        }
      ],
      "stateMutability": "nonpayable",
      "type": "function"
    },
    {
      "inputs": [],
      "name": "deployViaCreate2",
      "outputs": [
        {
          "internalType": "address",
          "name": "",
          "type": "address"
        }
      ],
      "stateMutability": "nonpayable",
      "type": "function"
    },
    {
      "inputs": [
        {
          "internalType": "uint256",
          "name": "",
          "type": "uint256"
        }
      ],
      "name": "deployedMockContracts",
      "outputs": [
        {
          "internalType": "address",
          "name": "",
          "type": "address"
        }
      ],
      "stateMutability": "view",
      "type": "function"
    },
    {
      "inputs": [],
      "name": "destroy",
      "outputs": [],
      "stateMutability": "nonpayable",
      "type": "function"
    },
    {
      "inputs": [],
      "name": "getCounter",
      "outputs": [
        {
          "internalType": "uint256",
          "name": "",
          "type": "uint256"
        }
      ],
      "stateMutability": "view",
      "type": "function"
    },
    {
      "inputs": [],
      "name": "getGasLeft",
      "outputs": [
        {
          "internalType": "uint256",
          "name": "",
          "type": "uint256"
        }
      ],
      "stateMutability": "view",
      "type": "function"
    },
    {
      "inputs": [],
      "name": "getMockContractAddress",
      "outputs": [
        {
          "internalType": "address",
          "name": "",
          "type": "address"
        }
      ],
      "stateMutability": "view",
      "type": "function"
    },
    {
      "inputs": [],
      "name": "incrementCounter",
      "outputs": [
        {
          "internalType": "address",
          "name": "",
          "type": "address"
        }
      ],
      "stateMutability": "nonpayable",
      "type": "function"
    },
    {
      "inputs": [],
      "name": "logs",
      "outputs": [],
      "stateMutability": "nonpayable",
      "type": "function"
    },
    {
      "inputs": [],
      "name": "msgSender",
      "outputs": [
        {
          "internalType": "address",
          "name": "",
          "type": "address"
        }
      ],
      "stateMutability": "view",
      "type": "function"
    },
    {
      "inputs": [],
      "name": "msgSig",
      "outputs": [
        {
          "internalType": "bytes4",
          "name": "",
          "type": "bytes4"
        }
      ],
      "stateMutability": "pure",
      "type": "function"
    },
    {
      "inputs": [],
      "name": "msgValue",
      "outputs": [
        {
          "internalType": "uint256",
          "name": "",
          "type": "uint256"
        }
      ],
      "stateMutability": "payable",
      "type": "function"
    },
    {
      "inputs": [
        {
          "internalType": "uint256",
          "name": "_it",
          "type": "uint256"
        },
        {
          "internalType": "uint256",
          "name": "_n",
          "type": "uint256"
        },
        {
          "internalType": "address",
          "name": "_contractAddress",
          "type": "address"
        }
      ],
      "name": "nestedCalls",
      "outputs": [
        {
          "internalType": "uint256",
          "name": "",
          "type": "uint256"
        }
      ],
      "stateMutability": "nonpayable",
      "type": "function"
    },
    {
      "inputs": [],
      "name": "pureMultiply",
      "outputs": [
        {
          "internalType": "int256",
          "name": "",
          "type": "int256"
        }
      ],
      "stateMutability": "pure",
      "type": "function"
    },
    {
      "inputs": [
        {
          "internalType": "uint256",
          "name": "depth",
          "type": "uint256"
        }
      ],
      "name": "recurse",
      "outputs": [],
      "stateMutability": "nonpayable",
      "type": "function"
    },
    {
      "inputs": [
        {
          "internalType": "address",
          "name": "_to",
          "type": "address"
        },
        {
          "internalType": "uint256",
          "name": "_amount",
          "type": "uint256"
        }
      ],
      "name": "reentrancyCallWithGas",
      "outputs": [
        {
          "internalType": "uint256",
          "name": "",
          "type": "uint256"
        },
        {
          "internalType": "uint256",
          "name": "",
          "type": "uint256"
        }
      ],
      "stateMutability": "nonpayable",
      "type": "function"
    },
    {
      "inputs": [
        {
          "internalType": "address",
          "name": "_to",
          "type": "address"
        },
        {
          "internalType": "uint256",
          "name": "_amount",
          "type": "uint256"
        }
      ],
      "name": "reentrancyWithCall",
      "outputs": [],
      "stateMutability": "nonpayable",
      "type": "function"
    },
    {
      "inputs": [
        {
          "internalType": "address",
          "name": "_to",
          "type": "address"
        },
        {
          "internalType": "uint256",
          "name": "_amount",
          "type": "uint256"
        }
      ],
      "name": "reentrancyWithTransfer",
      "outputs": [],
      "stateMutability": "nonpayable",
      "type": "function"
    },
    {
      "inputs": [],
      "name": "salt",
      "outputs": [
        {
          "internalType": "uint256",
          "name": "",
          "type": "uint256"
        }
      ],
      "stateMutability": "view",
      "type": "function"
    },
    {
      "inputs": [],
      "name": "salt2",
      "outputs": [
        {
          "internalType": "uint256",
          "name": "",
          "type": "uint256"
        }
      ],
      "stateMutability": "view",
      "type": "function"
    },
    {
      "inputs": [],
      "name": "salt_create2",
      "outputs": [
        {
          "internalType": "uint256",
          "name": "",
          "type": "uint256"
        }
      ],
      "stateMutability": "view",
      "type": "function"
    },
    {
      "inputs": [
        {
          "internalType": "address",
          "name": "_address",
          "type": "address"
        },
        {
          "internalType": "bytes4",
          "name": "_sig",
          "type": "bytes4"
        }
      ],
      "name": "staticCallToContract",
      "outputs": [
        {
          "internalType": "address",
          "name": "",
          "type": "address"
        }
      ],
      "stateMutability": "view",
      "type": "function"
    },
    {
      "inputs": [
        {
          "internalType": "address",
          "name": "_invalidContract",
          "type": "address"
        }
      ],
      "name": "staticCallToInvalidContract",
      "outputs": [],
      "stateMutability": "view",
      "type": "function"
    },
    {
      "inputs": [],
      "name": "transferType",
      "outputs": [
        {
          "internalType": "uint256",
          "name": "",
          "type": "uint256"
        }
      ],
      "stateMutability": "view",
      "type": "function"
    },
    {
      "inputs": [],
      "name": "txOrigin",
      "outputs": [
        {
          "internalType": "address",
          "name": "",
          "type": "address"
        }
      ],
      "stateMutability": "view",
      "type": "function"
    },
    {
      "inputs": [
        {
          "internalType": "uint256",
          "name": "_counter",
          "type": "uint256"
        }
      ],
      "name": "updateCounter",
      "outputs": [
        {
          "internalType": "uint256",
          "name": "",
          "type": "uint256"
        }
      ],
      "stateMutability": "nonpayable",
      "type": "function"
    },
    {
      "inputs": [
        {
          "internalType": "uint256",
          "name": "_counter",
          "type": "uint256"
        }
      ],
      "name": "updateCounter4",
      "outputs": [
        {
          "internalType": "uint256",
          "name": "",
          "type": "uint256"
        }
      ],
      "stateMutability": "nonpayable",
      "type": "function"
    },
    {
      "inputs": [
        {
          "internalType": "uint256",
          "name": "_counter",
          "type": "uint256"
        }
      ],
      "name": "updateCounter5",
      "outputs": [
        {
          "internalType": "uint256",
          "name": "",
          "type": "uint256"
        }
      ],
      "stateMutability": "nonpayable",
      "type": "function"
    },
    {
      "inputs": [
        {
          "internalType": "uint256",
          "name": "_n",
          "type": "uint256"
        }
      ],
      "name": "updateStateNTimes",
      "outputs": [
        {
          "internalType": "uint256",
          "name": "",
          "type": "uint256"
        }
      ],
      "stateMutability": "nonpayable",
      "type": "function"
    },
    {
      "inputs": [
        {
          "internalType": "uint256",
          "name": "_type",
          "type": "uint256"
        }
      ],
      "name": "updateType",
      "outputs": [
        {
          "internalType": "uint256",
          "name": "",
          "type": "uint256"
        }
      ],
      "stateMutability": "nonpayable",
      "type": "function"
    },
    {
      "stateMutability": "payable",
      "type": "receive"
    }
  ],
  "bytecode": "0x608060405260016000556002600155600160025560016003556001600455600160055560016006556001600755600160085560405161003d9061007f565b604051809103906000f080158015610059573d6000803e3d6000fd5b50600980546001600160a01b0319166001600160a01b039290921691909117905561008c565b6101dc8061201583390190565b611f7a8061009b6000396000f3fe6080604052600436106200038b5760003560e01c806393850a4211620001db578063d737d0c71162000103578063ec3e88cf11620000a3578063f722ff7e1162000079578063f722ff7e1462000bd6578063f96757d11462000bee578063fa5e414e1462000c03578063ffaf08901462000c285762000393565b8063ec3e88cf1462000b58578063ef043d571462000b99578063ef0a4eac1462000bb15762000393565b8063e080b4aa11620000d9578063e080b4aa1462000ae7578063e7df080e1462000b0c578063eaa65c151462000b315762000393565b8063d737d0c71462000ab3578063dbb6f04a1462000ac8578063ddf363d71462000ae05762000393565b8063b496ca71116200017b578063c648049d1162000151578063c648049d1462000a16578063cdb9c2831462000a3d578063cfa7dcf31462000a76578063d3b6e7411462000a8e5762000393565b8063b496ca7114620009c1578063bb376a9614620009d9578063bfa0b13314620009fe5762000393565b8063ac7e275811620001b1578063ac7e2758146200095f578063b2041d211462000984578063b38fe21c14620009a95762000393565b806393850a4214620008fb57806393cc65461462000922578063a17d256a14620009475762000393565b80635256b99d11620002bf57806370079963116200025f5780637df6ee2711620002355780637df6ee27146200088557806380f009b614620008aa57806383197ef014620008cf5780638ada066e14620008e45762000393565b806370079963146200083057806374259795146200085557806378eac4cc146200086d5762000393565b806361bc221a116200029557806361bc221a14620007e857806364f2d4b914620008005780636e6662b914620008185762000393565b80635256b99d14620007845780635b34b96614620007a95780635ecc65f914620007c15762000393565b806339a92ada116200032b57806341f32f0c116200030157806341f32f0c14620007225780634929af37146200074757806351be4eaa146200076c5762000393565b806339a92ada14620006a35780633c5de27714620006de5780633ec4de3514620006f65762000393565b80631708c37311620003615780631708c373146200063f57806319a6e3d5146200066457806331bf722a146200068b5762000393565b806303faa32314620005ca5780630ec1551d14620005f557806314a7862c146200060b5762000393565b366200039357005b6009546001600160a01b0316620003f15760405162461bcd60e51b815260206004820152601c60248201527f4d6f636b436f6e74726163742061646472657373206e6f74207365740000000060448201526064015b60405180910390fd5b6009546008546001600160a01b03909116906001141562000446576040516001600160a01b038216903480156108fc02916000818181858888f1935050505015801562000442573d6000803e3d6000fd5b5050005b60085460021415620004c9576040516000906001600160a01b038316903480156108fc029184818181858888f19350505050905080620004425760405162461bcd60e51b815260206004820152601d60248201527f4661696c656420746f2073656e64204574686572207669612073656e640000006044820152606401620003e8565b6008546003141562000581576000816001600160a01b0316346108fc90604051600060405180830381858888f193505050503d806000811462000529576040519150601f19603f3d011682016040523d82523d6000602084013e6200052e565b606091505b5050905080620004425760405162461bcd60e51b815260206004820152601d60248201527f4661696c656420746f2073656e64204574686572207669612063616c6c0000006044820152606401620003e8565b60405162461bcd60e51b815260206004820152601560248201527f496e76616c6964207472616e73666572207479706500000000000000000000006044820152606401620003e8565b348015620005d757600080fd5b50620005e260025481565b6040519081526020015b60405180910390f35b3480156200060257600080fd5b506004620005e2565b3480156200061857600080fd5b506009546001600160a01b03165b6040516001600160a01b039091168152602001620005ec565b3480156200064c57600080fd5b50620006266200065e3660046200191a565b62000c4d565b3480156200067157600080fd5b5062000689620006833660046200194d565b62000c78565b005b3480156200069857600080fd5b50620005e260015481565b348015620006b057600080fd5b50620006c8620006c236600462001980565b62000d24565b60408051928352602083019190915201620005ec565b348015620006eb57600080fd5b506200062662000d8d565b3480156200070357600080fd5b50620005e262000715366004620019af565b6001600160a01b03163190565b3480156200072f57600080fd5b506200068962000741366004620019af565b62000dcd565b3480156200075457600080fd5b5062000689620007663660046200194d565b62000e55565b3480156200077957600080fd5b50620005e262000f2c565b3480156200079157600080fd5b50620005e2620007a33660046200191a565b62000f34565b348015620007b657600080fd5b506200062662000f65565b348015620007ce57600080fd5b50620005e2620007e03660046200191a565b600881905590565b348015620007f557600080fd5b50620005e260035481565b3480156200080d57600080fd5b506200062662000f87565b3480156200082557600080fd5b50620006266200101c565b3480156200083d57600080fd5b50620006896200084f366004620019af565b6200102d565b3480156200086257600080fd5b5062000689620010ac565b3480156200087a57600080fd5b50620005e260085481565b3480156200089257600080fd5b5062000689620008a4366004620019af565b62001160565b348015620008b757600080fd5b5062000689620008c93660046200194d565b620011dd565b348015620008dc57600080fd5b506200068933ff5b348015620008f157600080fd5b50600354620005e2565b3480156200090857600080fd5b50620005e26200091a3660046200191a565b600681905590565b3480156200092f57600080fd5b5062000689620009413660046200191a565b620012b2565b3480156200095457600080fd5b50620005e260045481565b3480156200096c57600080fd5b50620006266200097e366004620019cf565b620013ba565b3480156200099157600080fd5b5062000689620009a33660046200191a565b620013fc565b348015620009b657600080fd5b50620005e260075481565b348015620009ce57600080fd5b50620005e260065481565b348015620009e657600080fd5b50620005e2620009f836600462001a26565b62001475565b34801562000a0b57600080fd5b50620005e260005481565b34801562000a2357600080fd5b50620005e262000a353660046200191a565b600381905590565b34801562000a4a57600080fd5b5062000a5562001575565b604080516001600160a01b03938416815292909116602083015201620005ec565b34801562000a8357600080fd5b5062000689620015e1565b34801562000a9b57600080fd5b506200062662000aad366004620019cf565b6200166f565b34801562000ac057600080fd5b503362000626565b34801562000ad557600080fd5b5062000626620016a6565b34620005e2565b34801562000af457600080fd5b506200068962000b06366004620019af565b620016de565b34801562000b1957600080fd5b506200068962000b2b36600462001980565b62001729565b34801562000b3e57600080fd5b50620005e262000b503660046200191a565b600781905590565b34801562000b6557600080fd5b506040517fffffffff00000000000000000000000000000000000000000000000000000000600035168152602001620005ec565b34801562000ba657600080fd5b5062000a5562001774565b34801562000bbe57600080fd5b506200062662000bd0366004620019cf565b620017e7565b34801562000be357600080fd5b50620005e260055481565b34801562000bfb57600080fd5b503262000626565b34801562000c1057600080fd5b506200068962000c223660046200194d565b6200181e565b34801562000c3557600080fd5b506200068962000c4736600462001980565b620018c7565b600b818154811062000c5e57600080fd5b6000918252602090912001546001600160a01b0316905081565b60005b8281101562000d1f5760408051600481526024810182526020810180516001600160e01b03166338cc483160e01b17905290516001600160a01b0384169162000cc49162001a62565b600060405180830381855af49150503d806000811462000d01576040519150601f19603f3d011682016040523d82523d6000602084013e62000d06565b606091505b505050808062000d169062001acf565b91505062000c7b565b505050565b604051600090819047906001600160a01b038616906108fc90869085818181858888f193505050503d806000811462000d7a576040519150601f19603f3d011682016040523d82523d6000602084013e62000d7f565b606091505b509196479650945050505050565b600080600160405162000da090620018fe565b90151581526020015b604051809103906000f08015801562000dc6573d6000803e3d6000fd5b5092915050565b60408051600481526024810182526020810180516001600160e01b0316632d3c86dd60e11b17905290516001600160a01b0383169162000e0d9162001a62565b600060405180830381855afa9150503d806000811462000e4a576040519150601f19603f3d011682016040523d82523d6000602084013e62000e4f565b606091505b50505050565b60015b8281101562000d1f57816001600160a01b03168160405160240162000e7f91815260200190565b60408051601f198184030181529181526020820180516001600160e01b03167f93850a42000000000000000000000000000000000000000000000000000000001790525162000ecf919062001a62565b6000604051808303816000865af19150503d806000811462000f0e576040519150601f19603f3d011682016040523d82523d6000602084013e62000f13565b606091505b505050808062000f239062001acf565b91505062000e58565b60005a905090565b6000805b8281101562000f5b5760058190558062000f528162001acf565b91505062000f38565b5050600554919050565b600060016004600082825462000f7c919062001aed565b909155503092915050565b604051673d80600a3d3981f381523060601b601482018190526e5af43d82803e903d91602b57fd5bf3602883015260009160378184f09250506001600160a01b038216620010185760405162461bcd60e51b815260206004820152601560248201527f436c6f6e65206372656174696f6e206661696c656400000000000000000000006044820152606401620003e8565b5090565b60008060405162000da9906200190c565b60408051600481526024810182526020810180516001600160e01b0316632d3c86dd60e11b17905290516001600160a01b038316916200106d9162001a62565b6000604051808303816000865af19150503d806000811462000e4a576040519150601f19603f3d011682016040523d82523d6000602084013e62000e4f565b608061160c8152602081a07fac3e966f295f2d5312f973dc6d42f30a6dc1c1f76ab8ee91cc8ca5dad1fa60fd80602083a17fae85c7887d510d629d8eb59ca412c0bf604c72c550fb0eec2734b12c76f2760b8082602085a261055160a0527ff4cd3854cb47c6b2f68a3a796635d026b9b412a93dfb80dd411c544cbc3c1817808284604087a37fe32ef46652011110f84325a4871007ee80018c1b6728ee04ffae74eb557e3fbf818385604088a450505050565b60408051600481526024810182526020810180516001600160e01b0316632d3c86dd60e11b17905290516001600160a01b03831691620011a09162001a62565b600060405180830381855af49150503d806000811462000e4a576040519150601f19603f3d011682016040523d82523d6000602084013e62000e4f565b60015b8281101562000d1f57816001600160a01b0316816040516024016200120791815260200190565b60408051601f198184030181529181526020820180516001600160e01b03167feaa65c15000000000000000000000000000000000000000000000000000000001790525162001257919062001a62565b600060405180830381855af49150503d806000811462001294576040519150601f19603f3d011682016040523d82523d6000602084013e62001299565b606091505b5050508080620012a99062001acf565b915050620011e0565b6000604051620012c2906200190c565b604051809103906000f080158015620012df573d6000803e3d6000fd5b50600b805460018101825560009182527f0175b7a638427703f0dbe7bb9bbf987a2551717b34e79f33b5b1008d1fa01db90180547fffffffffffffffffffffffff0000000000000000000000000000000000000000166001600160a01b0384161790559091505b8281101562000d1f57816001600160a01b0316635b34b9666040518163ffffffff1660e01b8152600401600060405180830381600087803b1580156200138b57600080fd5b505af1158015620013a0573d6000803e3d6000fd5b505050508080620013b19062001acf565b91505062001346565b60006060600060405184815260208160048360008a61c350f26020828101604052828552909250620013f3918401810190840162001b08565b95945050505050565b600160026003831562000e4f573063b2041d216200141c60018762001b28565b6040518263ffffffff1660e01b81526004016200143b91815260200190565b600060405180830381600087803b1580156200145657600080fd5b505af11580156200146b573d6000803e3d6000fd5b5050505050505050565b6000828410156200156b5760006001600160a01b0383166200149986600162001aed565b6040516024810191909152604481018690526001600160a01b038516606482015260840160408051601f198184030181529181526020820180516001600160e01b03167fbb376a9600000000000000000000000000000000000000000000000000000000179052516200150d919062001a62565b6000604051808303816000865af19150503d80600081146200154c576040519150601f19603f3d011682016040523d82523d6000602084013e62001551565b606091505b5091505080620015619062001b42565b91506200156e9050565b50825b9392505050565b600080600060405162001588906200190c565b604051809103906000f080158015620015a5573d6000803e3d6000fd5b5090506000604051620015b8906200190c565b604051809103906000f080158015620015d5573d6000803e3d6000fd5b50919491935090915050565b60008054604051620015f3906200190c565b8190604051809103906000f590508015801562001614573d6000803e3d6000fd5b509050806001600160a01b03166383197ef06040518163ffffffff1660e01b8152600401600060405180830381600087803b1580156200165357600080fd5b505af115801562001668573d6000803e3d6000fd5b5050505050565b6000606060006040518481526020816004838961c350f46020828101604052828552909250620013f3918401810190840162001b08565b60008060025460001b604051620016bd906200190c565b8190604051809103906000f590508015801562000dc6573d6000803e3d6000fd5b60606000807f5a790dba3c23b59f4183a2d8e5d0ceae10b15e337a4dcaeae2d5897a5f68a3d4905060405181815260208160048360008961c350f25060208101604052909252505050565b6040516001600160a01b038316908290600081818185875af1925050503d806000811462001668576040519150601f19603f3d011682016040523d82523d6000602084013e62001668565b6000806000805460001b6040516200178c906200190c565b8190604051809103906000f5905080158015620017ad573d6000803e3d6000fd5b509050600060015460001b604051620017c6906200190c565b8190604051809103906000f5905080158015620015d5573d6000803e3d6000fd5b6000606060006040518481526020816004838961c350fa6020828101604052828552909250620013f3918401810190840162001b08565b60005b8281101562000d1f5760408051600481526024810182526020810180516001600160e01b03166338cc483160e01b17905290516001600160a01b038416916200186a9162001a62565b6000604051808303816000865af19150503d8060008114620018a9576040519150601f19603f3d011682016040523d82523d6000602084013e620018ae565b606091505b5050508080620018be9062001acf565b91505062001821565b6040516001600160a01b0383169082156108fc029083906000818181858888f1935050505015801562000d1f573d6000803e3d6000fd5b6101fe8062001b6b83390190565b6101dc8062001d6983390190565b6000602082840312156200192d57600080fd5b5035919050565b6001600160a01b03811681146200194a57600080fd5b50565b600080604083850312156200196157600080fd5b823591506020830135620019758162001934565b809150509250929050565b600080604083850312156200199457600080fd5b8235620019a18162001934565b946020939093013593505050565b600060208284031215620019c257600080fd5b81356200156e8162001934565b60008060408385031215620019e357600080fd5b8235620019f08162001934565b915060208301357fffffffff00000000000000000000000000000000000000000000000000000000811681146200197557600080fd5b60008060006060848603121562001a3c57600080fd5b8335925060208401359150604084013562001a578162001934565b809150509250925092565b6000825160005b8181101562001a85576020818601810151858301520162001a69565b8181111562001a95576000828501525b509190910192915050565b7f4e487b7100000000000000000000000000000000000000000000000000000000600052601160045260246000fd5b600060001982141562001ae65762001ae662001aa0565b5060010190565b6000821982111562001b035762001b0362001aa0565b500190565b60006020828403121562001b1b57600080fd5b81516200156e8162001934565b60008282101562001b3d5762001b3d62001aa0565b500390565b8051602080830151919081101562001b64576000198160200360031b1b821691505b5091905056fe60806040526040516101fe3803806101fe83398101604081905261002291610087565b8060405161002f9061007a565b9015158152602001604051809103906000f080158015610053573d6000803e3d6000fd5b50600080546001600160a01b0319166001600160a01b0392909216919091179055506100b0565b610101806100fd83390190565b60006020828403121561009957600080fd5b815180151581146100a957600080fd5b9392505050565b603f806100be6000396000f3fe6080604052600080fdfea2646970667358221220324944985cc7950f10b023eab7e93d74fd78cac0d63c7204e0a94dc1838b526064736f6c634300080900336080604052604051610101380380610101833981016040819052602091608d565b801560885760405162461bcd60e51b815260206004820152602e60248201527f44756d6d79436f6e7472616374206465706c6f796d656e74206661696c65642060448201526d34b73a32b73a34b7b730b6363c9760911b606482015260840160405180910390fd5b5060b4565b600060208284031215609e57600080fd5b8151801515811460ad57600080fd5b9392505050565b603f806100c26000396000f3fe6080604052600080fdfea2646970667358221220e0a44b98d61c1741c4d88bf90145b666b676efedba2f985908c840ae1dcacd4264736f6c63430008090033608060405234801561001057600080fd5b506101bc806100206000396000f3fe6080604052600436106100435760003560e01c806338cc48311461004f5780635b34b9661461006f57806361bc221a1461008657806383197ef0146100aa57600080fd5b3661004a57005b600080fd5b34801561005b57600080fd5b506040513081526020015b60405180910390f35b34801561007b57600080fd5b506100846100bd565b005b34801561009257600080fd5b5061009c60005481565b604051908152602001610066565b3480156100b657600080fd5b5061008433ff5b60016000808282546100cf9190610147565b9091555050600054600a1015610145576040517f08c379a000000000000000000000000000000000000000000000000000000000815260206004820152600d60248201527f466f726365642072657665727400000000000000000000000000000000000000604482015260640160405180910390fd5b565b60008219821115610181577f4e487b7100000000000000000000000000000000000000000000000000000000600052601160045260246000fd5b50019056fea2646970667358221220bcdbc2bc6e6cec8fd6992af54f194c24675f7cab9dc19217a8ead77d0aa8e16864736f6c63430008090033a26469706673582212207de1a828a24843f4824fddb9e5b091624acd9584dcb5f67b6b01e0281d0c330664736f6c63430008090033608060405234801561001057600080fd5b506101bc806100206000396000f3fe6080604052600436106100435760003560e01c806338cc48311461004f5780635b34b9661461006f57806361bc221a1461008657806383197ef0146100aa57600080fd5b3661004a57005b600080fd5b34801561005b57600080fd5b506040513081526020015b60405180910390f35b34801561007b57600080fd5b506100846100bd565b005b34801561009257600080fd5b5061009c60005481565b604051908152602001610066565b3480156100b657600080fd5b5061008433ff5b60016000808282546100cf9190610147565b9091555050600054600a1015610145576040517f08c379a000000000000000000000000000000000000000000000000000000000815260206004820152600d60248201527f466f726365642072657665727400000000000000000000000000000000000000604482015260640160405180910390fd5b565b60008219821115610181577f4e487b7100000000000000000000000000000000000000000000000000000000600052601160045260246000fd5b50019056fea2646970667358221220bcdbc2bc6e6cec8fd6992af54f194c24675f7cab9dc19217a8ead77d0aa8e16864736f6c63430008090033",
  "linkReferences": {},
  "deployedLinkReferences": {}
}