{
  "_format": "hh-sol-artifact-1",
  "contractName": "EstimateGasContract",
  "sourceName": "contracts/EstimateGasContract.sol",
  "abi": [
    {
      "inputs": [],
      "stateMutability": "payable",
      "type": "constructor"
    },
    {
      "anonymous": false,
      "inputs": [
        {
          "indexed": false,
          "internalType": "bool",
          "name": "success",
          "type": "bool"
        }
      ],
      "name": "TransferSuccess",
      "type": "event"
    },
    {
      "stateMutability": "payable",
      "type": "fallback"
    },
    {
      "inputs": [
        {
          "internalType": "address",
          "name": "addr",
          "type": "address"
        }
      ],
      "name": "addressBalance",
      "outputs": [
        {
          "internalType": "uint256",
          "name": "",
          "type": "uint256"
        }
      ],
      "stateMutability": "view",
      "type": "function"
    },
    {
      "inputs": [
        {
          "internalType": "address",
          "name": "_address",
          "type": "address"
        },
        {
          "internalType": "bytes4",
          "name": "_sig",
          "type": "bytes4"
        }
      ],
      "name": "callCodeToContract",
      "outputs": [
        {
          "internalType": "address",
          "name": "",
          "type": "address"
        }
      ],
      "stateMutability": "nonpayable",
      "type": "function"
    },
    {
      "inputs": [
        {
          "internalType": "address",
          "name": "_invalidContract",
          "type": "address"
        }
      ],
      "name": "callCodeToInvalidContract",
      "outputs": [],
      "stateMutability": "nonpayable",
      "type": "function"
    },
    {
      "inputs": [
        {
          "internalType": "uint256",
          "name": "_n",
          "type": "uint256"
        },
        {
          "internalType": "address",
          "name": "_contractAddress",
          "type": "address"
        }
      ],
      "name": "callExternalFunctionNTimes",
      "outputs": [],
      "stateMutability": "nonpayable",
      "type": "function"
    },
    {
      "inputs": [
        {
          "internalType": "uint256",
          "name": "_n",
          "type": "uint256"
        },
        {
          "internalType": "address",
          "name": "_contractAddress",
          "type": "address"
        }
      ],
      "name": "callExternalViewFunctionNTimes",
      "outputs": [],
      "stateMutability": "nonpayable",
      "type": "function"
    },
    {
      "inputs": [
        {
          "internalType": "address",
          "name": "_invalidContract",
          "type": "address"
        }
      ],
      "name": "callToInvalidContract",
      "outputs": [],
      "stateMutability": "nonpayable",
      "type": "function"
    },
    {
      "inputs": [],
      "name": "counter",
      "outputs": [
        {
          "internalType": "uint256",
          "name": "",
          "type": "uint256"
        }
      ],
      "stateMutability": "view",
      "type": "function"
    },
    {
      "inputs": [
        {
          "internalType": "address",
          "name": "_address",
          "type": "address"
        },
        {
          "internalType": "bytes4",
          "name": "_sig",
          "type": "bytes4"
        }
      ],
      "name": "delegateCallToContract",
      "outputs": [
        {
          "internalType": "address",
          "name": "",
          "type": "address"
        }
      ],
      "stateMutability": "nonpayable",
      "type": "function"
    },
    {
      "inputs": [
        {
          "internalType": "address",
          "name": "_invalidContract",
          "type": "address"
        }
      ],
      "name": "delegateCallToInvalidContract",
      "outputs": [],
      "stateMutability": "nonpayable",
      "type": "function"
    },
    {
      "inputs": [
        {
          "internalType": "uint256",
          "name": "_n",
          "type": "uint256"
        },
        {
          "internalType": "address",
          "name": "_contractAddress",
          "type": "address"
        }
      ],
      "name": "delegatecallExternalFunctionNTimes",
      "outputs": [],
      "stateMutability": "nonpayable",
      "type": "function"
    },
    {
      "inputs": [
        {
          "internalType": "uint256",
          "name": "_n",
          "type": "uint256"
        },
        {
          "internalType": "address",
          "name": "_contractAddress",
          "type": "address"
        }
      ],
      "name": "delegatecallExternalViewFunctionNTimes",
      "outputs": [],
      "stateMutability": "nonpayable",
      "type": "function"
    },
    {
      "inputs": [
        {
          "internalType": "uint256",
          "name": "_numCalls",
          "type": "uint256"
        }
      ],
      "name": "deployAndCallContract",
      "outputs": [],
      "stateMutability": "nonpayable",
      "type": "function"
    },
    {
      "inputs": [],
      "name": "deployContract",
      "outputs": [
        {
          "internalType": "address",
          "name": "",
          "type": "address"
        }
      ],
      "stateMutability": "nonpayable",
      "type": "function"
    },
    {
      "inputs": [],
      "name": "deployDestroy",
      "outputs": [],
      "stateMutability": "nonpayable",
      "type": "function"
    },
    {
      "inputs": [],
      "name": "deployNestedContracts",
      "outputs": [
        {
          "internalType": "address",
          "name": "",
          "type": "address"
        },
        {
          "internalType": "address",
          "name": "",
          "type": "address"
        }
      ],
      "stateMutability": "nonpayable",
      "type": "function"
    },
    {
      "inputs": [],
      "name": "deployNestedContracts2",
      "outputs": [
        {
          "internalType": "address",
          "name": "",
          "type": "address"
        },
        {
          "internalType": "address",
          "name": "",
          "type": "address"
        }
      ],
      "stateMutability": "nonpayable",
      "type": "function"
    },
    {
      "inputs": [],
      "name": "deployNewInstance",
      "outputs": [
        {
          "internalType": "address",
          "name": "",
          "type": "address"
        }
      ],
      "stateMutability": "nonpayable",
      "type": "function"
    },
    {
      "inputs": [],
      "name": "deployViaCreate",
      "outputs": [
        {
          "internalType": "address",
          "name": "",
          "type": "address"
        }
      ],
      "stateMutability": "nonpayable",
      "type": "function"
    },
    {
      "inputs": [],
      "name": "deployViaCreate2",
      "outputs": [
        {
          "internalType": "address",
          "name": "",
          "type": "address"
        }
      ],
      "stateMutability": "nonpayable",
      "type": "function"
    },
    {
      "inputs": [
        {
          "internalType": "uint256",
          "name": "",
          "type": "uint256"
        }
      ],
      "name": "deployedMockContracts",
      "outputs": [
        {
          "internalType": "address",
          "name": "",
          "type": "address"
        }
      ],
      "stateMutability": "view",
      "type": "function"
    },
    {
      "inputs": [],
      "name": "destroy",
      "outputs": [],
      "stateMutability": "nonpayable",
      "type": "function"
    },
    {
      "inputs": [],
      "name": "getCounter",
      "outputs": [
        {
          "internalType": "uint256",
          "name": "",
          "type": "uint256"
        }
      ],
      "stateMutability": "view",
      "type": "function"
    },
    {
      "inputs": [],
      "name": "getGasLeft",
      "outputs": [
        {
          "internalType": "uint256",
          "name": "",
          "type": "uint256"
        }
      ],
      "stateMutability": "view",
      "type": "function"
    },
    {
      "inputs": [],
      "name": "getMockContractAddress",
      "outputs": [
        {
          "internalType": "address",
          "name": "",
          "type": "address"
        }
      ],
      "stateMutability": "view",
      "type": "function"
    },
    {
      "inputs": [],
      "name": "incrementCounter",
      "outputs": [
        {
          "internalType": "address",
          "name": "",
          "type": "address"
        }
      ],
      "stateMutability": "nonpayable",
      "type": "function"
    },
    {
      "inputs": [],
      "name": "logs",
      "outputs": [],
      "stateMutability": "nonpayable",
      "type": "function"
    },
    {
      "inputs": [],
      "name": "msgSender",
      "outputs": [
        {
          "internalType": "address",
          "name": "",
          "type": "address"
        }
      ],
      "stateMutability": "view",
      "type": "function"
    },
    {
      "inputs": [],
      "name": "msgSig",
      "outputs": [
        {
          "internalType": "bytes4",
          "name": "",
          "type": "bytes4"
        }
      ],
      "stateMutability": "pure",
      "type": "function"
    },
    {
      "inputs": [],
      "name": "msgValue",
      "outputs": [
        {
          "internalType": "uint256",
          "name": "",
          "type": "uint256"
        }
      ],
      "stateMutability": "payable",
      "type": "function"
    },
    {
      "inputs": [
        {
          "internalType": "uint256",
          "name": "_it",
          "type": "uint256"
        },
        {
          "internalType": "uint256",
          "name": "_n",
          "type": "uint256"
        },
        {
          "internalType": "address",
          "name": "_contractAddress",
          "type": "address"
        }
      ],
      "name": "nestedCalls",
      "outputs": [
        {
          "internalType": "uint256",
          "name": "",
          "type": "uint256"
        }
      ],
      "stateMutability": "nonpayable",
      "type": "function"
    },
    {
      "inputs": [],
      "name": "pureMultiply",
      "outputs": [
        {
          "internalType": "int256",
          "name": "",
          "type": "int256"
        }
      ],
      "stateMutability": "pure",
      "type": "function"
    },
    {
      "inputs": [
        {
          "internalType": "uint256",
          "name": "depth",
          "type": "uint256"
        }
      ],
      "name": "recurse",
      "outputs": [],
      "stateMutability": "nonpayable",
      "type": "function"
    },
    {
      "inputs": [
        {
          "internalType": "address",
          "name": "_to",
          "type": "address"
        },
        {
          "internalType": "uint256",
          "name": "_amount",
          "type": "uint256"
        }
      ],
      "name": "reentrancyCallWithGas",
      "outputs": [
        {
          "internalType": "uint256",
          "name": "",
          "type": "uint256"
        },
        {
          "internalType": "uint256",
          "name": "",
          "type": "uint256"
        }
      ],
      "stateMutability": "nonpayable",
      "type": "function"
    },
    {
      "inputs": [
        {
          "internalType": "address",
          "name": "_to",
          "type": "address"
        },
        {
          "internalType": "uint256",
          "name": "_amount",
          "type": "uint256"
        }
      ],
      "name": "reentrancyWithCall",
      "outputs": [],
      "stateMutability": "nonpayable",
      "type": "function"
    },
    {
      "inputs": [
        {
          "internalType": "address",
          "name": "_to",
          "type": "address"
        },
        {
          "internalType": "uint256",
          "name": "_amount",
          "type": "uint256"
        }
      ],
      "name": "reentrancyWithTransfer",
      "outputs": [],
      "stateMutability": "nonpayable",
      "type": "function"
    },
    {
      "inputs": [],
      "name": "salt",
      "outputs": [
        {
          "internalType": "uint256",
          "name": "",
          "type": "uint256"
        }
      ],
      "stateMutability": "view",
      "type": "function"
    },
    {
      "inputs": [],
      "name": "salt2",
      "outputs": [
        {
          "internalType": "uint256",
          "name": "",
          "type": "uint256"
        }
      ],
      "stateMutability": "view",
      "type": "function"
    },
    {
      "inputs": [
        {
          "internalType": "address",
          "name": "_address",
          "type": "address"
        },
        {
          "internalType": "bytes4",
          "name": "_sig",
          "type": "bytes4"
        }
      ],
      "name": "staticCallToContract",
      "outputs": [
        {
          "internalType": "address",
          "name": "",
          "type": "address"
        }
      ],
      "stateMutability": "view",
      "type": "function"
    },
    {
      "inputs": [
        {
          "internalType": "address",
          "name": "_invalidContract",
          "type": "address"
        }
      ],
      "name": "staticCallToInvalidContract",
      "outputs": [],
      "stateMutability": "view",
      "type": "function"
    },
    {
      "inputs": [],
      "name": "transferType",
      "outputs": [
        {
          "internalType": "uint256",
          "name": "",
          "type": "uint256"
        }
      ],
      "stateMutability": "view",
      "type": "function"
    },
    {
      "inputs": [],
      "name": "txOrigin",
      "outputs": [
        {
          "internalType": "address",
          "name": "",
          "type": "address"
        }
      ],
      "stateMutability": "view",
      "type": "function"
    },
    {
      "inputs": [
        {
          "internalType": "uint256",
          "name": "_counter",
          "type": "uint256"
        }
      ],
      "name": "updateCounter",
      "outputs": [
        {
          "internalType": "uint256",
          "name": "",
          "type": "uint256"
        }
      ],
      "stateMutability": "nonpayable",
      "type": "function"
    },
    {
      "inputs": [
        {
          "internalType": "uint256",
          "name": "_n",
          "type": "uint256"
        }
      ],
      "name": "updateStateNTimes",
      "outputs": [
        {
          "internalType": "uint256",
          "name": "",
          "type": "uint256"
        }
      ],
      "stateMutability": "nonpayable",
      "type": "function"
    },
    {
      "inputs": [
        {
          "internalType": "uint256",
          "name": "_type",
          "type": "uint256"
        }
      ],
      "name": "updateType",
      "outputs": [
        {
          "internalType": "uint256",
          "name": "",
          "type": "uint256"
        }
      ],
      "stateMutability": "nonpayable",
      "type": "function"
    },
    {
      "stateMutability": "payable",
      "type": "receive"
    }
  ],
  "bytecode": "0x6080604052600160005560026001556001600255600160035560405161002490610066565b604051809103906000f080158015610040573d6000803e3d6000fd5b50600480546001600160a01b0319166001600160a01b0392909216919091179055610073565b6101dc80611ebc83390190565b611e3a806100826000396000f3fe608060405260043610620003375760003560e01c806383197ef011620001ab578063d737d0c711620000eb578063ec3e88cf1162000097578063f96757d1116200006d578063f96757d11462000acf578063fa5e414e1462000ae4578063ffaf08901462000b09576200033f565b8063ec3e88cf1462000a51578063ef043d571462000a92578063ef0a4eac1462000aaa576200033f565b8063ddf363d711620000cd578063ddf363d71462000a00578063e080b4aa1462000a07578063e7df080e1462000a2c576200033f565b8063d737d0c714620009d3578063dbb6f04a14620009e8576200033f565b8063bb376a961162000157578063cdb9c283116200012d578063cdb9c283146200095d578063cfa7dcf31462000996578063d3b6e74114620009ae576200033f565b8063bb376a9614620008f9578063bfa0b133146200091e578063c648049d1462000936576200033f565b8063ab300e5d116200018d578063ab300e5d146200088a578063ac7e275814620008af578063b2041d2114620008d4576200033f565b806383197ef0146200085e5780638ada066e1462000873576200033f565b80635256b99d11620002775780636e6662b9116200022357806378eac4cc11620001f957806378eac4cc14620007fc5780637df6ee27146200081457806380f009b61462000839576200033f565b80636e6662b914620007a75780637007996314620007bf5780637425979514620007e4576200033f565b80635ecc65f911620002595780635ecc65f9146200075057806361bc221a14620007775780636cd5c39b146200078f576200033f565b80635256b99d14620007135780635b34b9661462000738576200033f565b806339a92ada11620002e35780634929af3711620002b95780634929af3714620006be57806349984e0814620006e357806351be4eaa14620006fb576200033f565b806339a92ada14620006325780633ec4de35146200066d57806341f32f0c1462000699576200033f565b80631708c37311620003195780631708c37314620005ce57806319a6e3d514620005f357806331bf722a146200061a576200033f565b80630ec1551d146200057657806314a7862c146200059a576200033f565b366200033f57005b6004546001600160a01b03166200039d5760405162461bcd60e51b815260206004820152601c60248201527f4d6f636b436f6e74726163742061646472657373206e6f74207365740000000060448201526064015b60405180910390fd5b6004546003546001600160a01b039091169060011415620003f2576040516001600160a01b038216903480156108fc02916000818181858888f19350505050158015620003ee573d6000803e3d6000fd5b5050005b6003546002141562000475576040516000906001600160a01b038316903480156108fc029184818181858888f19350505050905080620003ee5760405162461bcd60e51b815260206004820152601d60248201527f4661696c656420746f2073656e64204574686572207669612073656e64000000604482015260640162000394565b600354600314156200052d576000816001600160a01b0316346108fc90604051600060405180830381858888f193505050503d8060008114620004d5576040519150601f19603f3d011682016040523d82523d6000602084013e620004da565b606091505b5050905080620003ee5760405162461bcd60e51b815260206004820152601d60248201527f4661696c656420746f2073656e64204574686572207669612063616c6c000000604482015260640162000394565b60405162461bcd60e51b815260206004820152601560248201527f496e76616c6964207472616e7366657220747970650000000000000000000000604482015260640162000394565b3480156200058357600080fd5b5060045b6040519081526020015b60405180910390f35b348015620005a757600080fd5b506004546001600160a01b03165b6040516001600160a01b03909116815260200162000591565b348015620005db57600080fd5b50620005b5620005ed366004620017da565b62000b2e565b3480156200060057600080fd5b5062000618620006123660046200180d565b62000b59565b005b3480156200062757600080fd5b506200058760015481565b3480156200063f57600080fd5b50620006576200065136600462001840565b62000c05565b6040805192835260208301919091520162000591565b3480156200067a57600080fd5b50620005876200068c3660046200186f565b6001600160a01b03163190565b348015620006a657600080fd5b5062000618620006b83660046200186f565b62000c6e565b348015620006cb57600080fd5b5062000618620006dd3660046200180d565b62000cf6565b348015620006f057600080fd5b50620005b562000db4565b3480156200070857600080fd5b506200058762000dc5565b3480156200072057600080fd5b506200058762000732366004620017da565b62000dcd565b3480156200074557600080fd5b50620005b562000dfe565b3480156200075d57600080fd5b50620005876200076f366004620017da565b600381905590565b3480156200078457600080fd5b506200058760025481565b3480156200079c57600080fd5b50620005b562000e20565b348015620007b457600080fd5b50620005b562000e60565b348015620007cc57600080fd5b5062000618620007de3660046200186f565b62000e71565b348015620007f157600080fd5b506200061862000ef0565b3480156200080957600080fd5b506200058760035481565b3480156200082157600080fd5b5062000618620008333660046200186f565b62000fa4565b3480156200084657600080fd5b5062000618620008583660046200180d565b62001021565b3480156200086b57600080fd5b506200061833ff5b3480156200088057600080fd5b5060025462000587565b3480156200089757600080fd5b5062000618620008a9366004620017da565b620010dd565b348015620008bc57600080fd5b50620005b5620008ce3660046200188f565b620011e5565b348015620008e157600080fd5b5062000618620008f3366004620017da565b62001227565b3480156200090657600080fd5b506200058762000918366004620018e6565b620012a0565b3480156200092b57600080fd5b506200058760005481565b3480156200094357600080fd5b506200058762000955366004620017da565b600281905590565b3480156200096a57600080fd5b5062000975620013a0565b604080516001600160a01b0393841681529290911660208301520162000591565b348015620009a357600080fd5b50620006186200140c565b348015620009bb57600080fd5b50620005b5620009cd3660046200188f565b6200149a565b348015620009e057600080fd5b5033620005b5565b348015620009f557600080fd5b50620005b5620014d1565b3462000587565b34801562000a1457600080fd5b506200061862000a263660046200186f565b62001509565b34801562000a3957600080fd5b506200061862000a4b36600462001840565b62001554565b34801562000a5e57600080fd5b506040517fffffffff0000000000000000000000000000000000000000000000000000000060003516815260200162000591565b34801562000a9f57600080fd5b50620009756200159f565b34801562000ab757600080fd5b50620005b562000ac93660046200188f565b62001612565b34801562000adc57600080fd5b5032620005b5565b34801562000af157600080fd5b506200061862000b033660046200180d565b62001649565b34801562000b1657600080fd5b506200061862000b2836600462001840565b620016f2565b6006818154811062000b3f57600080fd5b6000918252602090912001546001600160a01b0316905081565b60005b8281101562000c005760408051600481526024810182526020810180516001600160e01b03166338cc483160e01b17905290516001600160a01b0384169162000ba59162001922565b600060405180830381855af49150503d806000811462000be2576040519150601f19603f3d011682016040523d82523d6000602084013e62000be7565b606091505b505050808062000bf7906200198f565b91505062000b5c565b505050565b604051600090819047906001600160a01b038616906108fc90869085818181858888f193505050503d806000811462000c5b576040519150601f19603f3d011682016040523d82523d6000602084013e62000c60565b606091505b509196479650945050505050565b60408051600481526024810182526020810180516001600160e01b0316632d3c86dd60e11b17905290516001600160a01b0383169162000cae9162001922565b600060405180830381855afa9150503d806000811462000ceb576040519150601f19603f3d011682016040523d82523d6000602084013e62000cf0565b606091505b50505050565b60005b8281101562000c0057816001600160a01b03168160405160240162000d2091815260200190565b60408051601f198184030181529181526020820180516001600160e01b031663c648049d60e01b1790525162000d57919062001922565b6000604051808303816000865af19150503d806000811462000d96576040519150601f19603f3d011682016040523d82523d6000602084013e62000d9b565b606091505b505050808062000dab906200198f565b91505062000cf9565b600062000dc062001729565b905090565b60005a905090565b6000805b8281101562000df45760028190558062000deb816200198f565b91505062000dd1565b5050600254919050565b600060016002600082825462000e159190620019ad565b909155503092915050565b600080600160405162000e3390620017be565b90151581526020015b604051809103906000f08015801562000e59573d6000803e3d6000fd5b5092915050565b60008060405162000e3c90620017cc565b60408051600481526024810182526020810180516001600160e01b0316632d3c86dd60e11b17905290516001600160a01b0383169162000eb19162001922565b6000604051808303816000865af19150503d806000811462000ceb576040519150601f19603f3d011682016040523d82523d6000602084013e62000cf0565b608061160c8152602081a07fac3e966f295f2d5312f973dc6d42f30a6dc1c1f76ab8ee91cc8ca5dad1fa60fd80602083a17fae85c7887d510d629d8eb59ca412c0bf604c72c550fb0eec2734b12c76f2760b8082602085a261055160a0527ff4cd3854cb47c6b2f68a3a796635d026b9b412a93dfb80dd411c544cbc3c1817808284604087a37fe32ef46652011110f84325a4871007ee80018c1b6728ee04ffae74eb557e3fbf818385604088a450505050565b60408051600481526024810182526020810180516001600160e01b0316632d3c86dd60e11b17905290516001600160a01b0383169162000fe49162001922565b600060405180830381855af49150503d806000811462000ceb576040519150601f19603f3d011682016040523d82523d6000602084013e62000cf0565b60005b8281101562000c0057816001600160a01b0316816040516024016200104b91815260200190565b60408051601f198184030181529181526020820180516001600160e01b031663c648049d60e01b1790525162001082919062001922565b600060405180830381855af49150503d8060008114620010bf576040519150601f19603f3d011682016040523d82523d6000602084013e620010c4565b606091505b5050508080620010d4906200198f565b91505062001024565b6000604051620010ed90620017cc565b604051809103906000f0801580156200110a573d6000803e3d6000fd5b506006805460018101825560009182527ff652222313e28459528d920b65115c16c04f3efc82aaedc97be59f3f377c0d3f0180547fffffffffffffffffffffffff0000000000000000000000000000000000000000166001600160a01b0384161790559091505b8281101562000c0057816001600160a01b0316635b34b9666040518163ffffffff1660e01b8152600401600060405180830381600087803b158015620011b657600080fd5b505af1158015620011cb573d6000803e3d6000fd5b505050508080620011dc906200198f565b91505062001171565b60006060600060405184815260208160048360008a61c350f260208281016040528285529092506200121e9184018101908401620019c8565b95945050505050565b600160026003831562000cf0573063b2041d2162001247600187620019e8565b6040518263ffffffff1660e01b81526004016200126691815260200190565b600060405180830381600087803b1580156200128157600080fd5b505af115801562001296573d6000803e3d6000fd5b5050505050505050565b600082841015620013965760006001600160a01b038316620012c4866001620019ad565b6040516024810191909152604481018690526001600160a01b038516606482015260840160408051601f198184030181529181526020820180516001600160e01b03167fbb376a96000000000000000000000000000000000000000000000000000000001790525162001338919062001922565b6000604051808303816000865af19150503d806000811462001377576040519150601f19603f3d011682016040523d82523d6000602084013e6200137c565b606091505b50915050806200138c9062001a02565b9150620013999050565b50825b9392505050565b6000806000604051620013b390620017cc565b604051809103906000f080158015620013d0573d6000803e3d6000fd5b5090506000604051620013e390620017cc565b604051809103906000f08015801562001400573d6000803e3d6000fd5b50919491935090915050565b600080546040516200141e90620017cc565b8190604051809103906000f59050801580156200143f573d6000803e3d6000fd5b509050806001600160a01b03166383197ef06040518163ffffffff1660e01b8152600401600060405180830381600087803b1580156200147e57600080fd5b505af115801562001493573d6000803e3d6000fd5b5050505050565b6000606060006040518481526020816004838961c350f460208281016040528285529092506200121e9184018101908401620019c8565b60008060025460001b604051620014e890620017cc565b8190604051809103906000f590508015801562000e59573d6000803e3d6000fd5b60606000807f5a790dba3c23b59f4183a2d8e5d0ceae10b15e337a4dcaeae2d5897a5f68a3d4905060405181815260208160048360008961c350f25060208101604052909252505050565b6040516001600160a01b038316908290600081818185875af1925050503d806000811462001493576040519150601f19603f3d011682016040523d82523d6000602084013e62001493565b6000806000805460001b604051620015b790620017cc565b8190604051809103906000f5905080158015620015d8573d6000803e3d6000fd5b509050600060015460001b604051620015f190620017cc565b8190604051809103906000f590508015801562001400573d6000803e3d6000fd5b6000606060006040518481526020816004838961c350fa60208281016040528285529092506200121e9184018101908401620019c8565b60005b8281101562000c005760408051600481526024810182526020810180516001600160e01b03166338cc483160e01b17905290516001600160a01b03841691620016959162001922565b6000604051808303816000865af19150503d8060008114620016d4576040519150601f19603f3d011682016040523d82523d6000602084013e620016d9565b606091505b5050508080620016e9906200198f565b9150506200164c565b6040516001600160a01b0383169082156108fc029083906000818181858888f1935050505015801562000c00573d6000803e3d6000fd5b604051673d80600a3d3981f381523060601b601482018190526e5af43d82803e903d91602b57fd5bf3602883015260009160378184f09250506001600160a01b038216620017ba5760405162461bcd60e51b815260206004820152601560248201527f436c6f6e65206372656174696f6e206661696c65640000000000000000000000604482015260640162000394565b5090565b6101fe8062001a2b83390190565b6101dc8062001c2983390190565b600060208284031215620017ed57600080fd5b5035919050565b6001600160a01b03811681146200180a57600080fd5b50565b600080604083850312156200182157600080fd5b8235915060208301356200183581620017f4565b809150509250929050565b600080604083850312156200185457600080fd5b82356200186181620017f4565b946020939093013593505050565b6000602082840312156200188257600080fd5b81356200139981620017f4565b60008060408385031215620018a357600080fd5b8235620018b081620017f4565b915060208301357fffffffff00000000000000000000000000000000000000000000000000000000811681146200183557600080fd5b600080600060608486031215620018fc57600080fd5b833592506020840135915060408401356200191781620017f4565b809150509250925092565b6000825160005b8181101562001945576020818601810151858301520162001929565b8181111562001955576000828501525b509190910192915050565b7f4e487b7100000000000000000000000000000000000000000000000000000000600052601160045260246000fd5b6000600019821415620019a657620019a662001960565b5060010190565b60008219821115620019c357620019c362001960565b500190565b600060208284031215620019db57600080fd5b81516200139981620017f4565b600082821015620019fd57620019fd62001960565b500390565b8051602080830151919081101562001a24576000198160200360031b1b821691505b5091905056fe60806040526040516101fe3803806101fe83398101604081905261002291610087565b8060405161002f9061007a565b9015158152602001604051809103906000f080158015610053573d6000803e3d6000fd5b50600080546001600160a01b0319166001600160a01b0392909216919091179055506100b0565b610101806100fd83390190565b60006020828403121561009957600080fd5b815180151581146100a957600080fd5b9392505050565b603f806100be6000396000f3fe6080604052600080fdfea2646970667358221220b6635c1ebcdc3bb87ecdd841c63ddb39d4bfc5ce7e62c3d7b26e419e0f5a7b9564736f6c634300080900336080604052604051610101380380610101833981016040819052602091608d565b801560885760405162461bcd60e51b815260206004820152602e60248201527f44756d6d79436f6e7472616374206465706c6f796d656e74206661696c65642060448201526d34b73a32b73a34b7b730b6363c9760911b606482015260840160405180910390fd5b5060b4565b600060208284031215609e57600080fd5b8151801515811460ad57600080fd5b9392505050565b603f806100c26000396000f3fe6080604052600080fdfea2646970667358221220535b01a4a3896d8d117d7717d8f184f4857ca738f7eb1a069c8437dc27d12be864736f6c63430008090033608060405234801561001057600080fd5b506101bc806100206000396000f3fe6080604052600436106100435760003560e01c806338cc48311461004f5780635b34b9661461006f57806361bc221a1461008657806383197ef0146100aa57600080fd5b3661004a57005b600080fd5b34801561005b57600080fd5b506040513081526020015b60405180910390f35b34801561007b57600080fd5b506100846100bd565b005b34801561009257600080fd5b5061009c60005481565b604051908152602001610066565b3480156100b657600080fd5b5061008433ff5b60016000808282546100cf9190610147565b9091555050600054600a1015610145576040517f08c379a000000000000000000000000000000000000000000000000000000000815260206004820152600d60248201527f466f726365642072657665727400000000000000000000000000000000000000604482015260640160405180910390fd5b565b60008219821115610181577f4e487b7100000000000000000000000000000000000000000000000000000000600052601160045260246000fd5b50019056fea26469706673582212205d7b620bc35684fb54d530299f3b64ef701b99ab31ab5d03f45bbc9896a7f96364736f6c63430008090033a2646970667358221220c1908ac80841252a5780cbdaf91346d86bec6a89796b8d99de5a22c2b2b3120b64736f6c63430008090033608060405234801561001057600080fd5b506101bc806100206000396000f3fe6080604052600436106100435760003560e01c806338cc48311461004f5780635b34b9661461006f57806361bc221a1461008657806383197ef0146100aa57600080fd5b3661004a57005b600080fd5b34801561005b57600080fd5b506040513081526020015b60405180910390f35b34801561007b57600080fd5b506100846100bd565b005b34801561009257600080fd5b5061009c60005481565b604051908152602001610066565b3480156100b657600080fd5b5061008433ff5b60016000808282546100cf9190610147565b9091555050600054600a1015610145576040517f08c379a000000000000000000000000000000000000000000000000000000000815260206004820152600d60248201527f466f726365642072657665727400000000000000000000000000000000000000604482015260640160405180910390fd5b565b60008219821115610181577f4e487b7100000000000000000000000000000000000000000000000000000000600052601160045260246000fd5b50019056fea26469706673582212205d7b620bc35684fb54d530299f3b64ef701b99ab31ab5d03f45bbc9896a7f96364736f6c63430008090033",
  "linkReferences": {},
  "deployedLinkReferences": {}
}