{
  "_format": "hh-sol-artifact-1",
  "contractName": "EstimateGasContract",
  "sourceName": "contracts/EstimateGasContract.sol",
  "abi": [
    {
      "inputs": [],
      "stateMutability": "payable",
      "type": "constructor"
    },
    {
      "inputs": [
        {
          "internalType": "address",
          "name": "addr",
          "type": "address"
        }
      ],
      "name": "addressBalance",
      "outputs": [
        {
          "internalType": "uint256",
          "name": "",
          "type": "uint256"
        }
      ],
      "stateMutability": "view",
      "type": "function"
    },
    {
      "inputs": [
        {
          "internalType": "address",
          "name": "_address",
          "type": "address"
        },
        {
          "internalType": "bytes4",
          "name": "_sig",
          "type": "bytes4"
        }
      ],
      "name": "callCodeToContract",
      "outputs": [
        {
          "internalType": "address",
          "name": "",
          "type": "address"
        }
      ],
      "stateMutability": "nonpayable",
      "type": "function"
    },
    {
      "inputs": [
        {
          "internalType": "address",
          "name": "_invalidContract",
          "type": "address"
        }
      ],
      "name": "callCodeToInvalidContract",
      "outputs": [],
      "stateMutability": "nonpayable",
      "type": "function"
    },
    {
      "inputs": [
        {
          "internalType": "uint256",
          "name": "_n",
          "type": "uint256"
        },
        {
          "internalType": "address",
          "name": "_contractAddress",
          "type": "address"
        }
      ],
      "name": "callExternalFunctionNTimes",
      "outputs": [],
      "stateMutability": "nonpayable",
      "type": "function"
    },
    {
      "inputs": [
        {
          "internalType": "uint256",
          "name": "_n",
          "type": "uint256"
        },
        {
          "internalType": "address",
          "name": "_contractAddress",
          "type": "address"
        }
      ],
      "name": "callExternalViewFunctionNTimes",
      "outputs": [],
      "stateMutability": "nonpayable",
      "type": "function"
    },
    {
      "inputs": [
        {
          "internalType": "address",
          "name": "_invalidContract",
          "type": "address"
        }
      ],
      "name": "callToInvalidContract",
      "outputs": [],
      "stateMutability": "nonpayable",
      "type": "function"
    },
    {
      "inputs": [],
      "name": "counter",
      "outputs": [
        {
          "internalType": "uint256",
          "name": "",
          "type": "uint256"
        }
      ],
      "stateMutability": "view",
      "type": "function"
    },
    {
      "inputs": [
        {
          "internalType": "address",
          "name": "_address",
          "type": "address"
        },
        {
          "internalType": "bytes4",
          "name": "_sig",
          "type": "bytes4"
        }
      ],
      "name": "delegateCallToContract",
      "outputs": [
        {
          "internalType": "address",
          "name": "",
          "type": "address"
        }
      ],
      "stateMutability": "nonpayable",
      "type": "function"
    },
    {
      "inputs": [
        {
          "internalType": "address",
          "name": "_invalidContract",
          "type": "address"
        }
      ],
      "name": "delegateCallToInvalidContract",
      "outputs": [],
      "stateMutability": "nonpayable",
      "type": "function"
    },
    {
      "inputs": [
        {
          "internalType": "uint256",
          "name": "_n",
          "type": "uint256"
        },
        {
          "internalType": "address",
          "name": "_contractAddress",
          "type": "address"
        }
      ],
      "name": "delegatecallExternalFunctionNTimes",
      "outputs": [],
      "stateMutability": "nonpayable",
      "type": "function"
    },
    {
      "inputs": [
        {
          "internalType": "uint256",
          "name": "_n",
          "type": "uint256"
        },
        {
          "internalType": "address",
          "name": "_contractAddress",
          "type": "address"
        }
      ],
      "name": "delegatecallExternalViewFunctionNTimes",
      "outputs": [],
      "stateMutability": "nonpayable",
      "type": "function"
    },
    {
      "inputs": [],
      "name": "deployDestroyAndRedeploy",
      "outputs": [
        {
          "internalType": "address",
          "name": "",
          "type": "address"
        }
      ],
      "stateMutability": "nonpayable",
      "type": "function"
    },
    {
      "inputs": [],
      "name": "deployNestedContracts",
      "outputs": [
        {
          "internalType": "address",
          "name": "",
          "type": "address"
        },
        {
          "internalType": "address",
          "name": "",
          "type": "address"
        }
      ],
      "stateMutability": "nonpayable",
      "type": "function"
    },
    {
      "inputs": [],
      "name": "deployNestedContracts2",
      "outputs": [
        {
          "internalType": "address",
          "name": "",
          "type": "address"
        },
        {
          "internalType": "address",
          "name": "",
          "type": "address"
        }
      ],
      "stateMutability": "nonpayable",
      "type": "function"
    },
    {
      "inputs": [],
      "name": "deployViaCreate",
      "outputs": [
        {
          "internalType": "address",
          "name": "",
          "type": "address"
        }
      ],
      "stateMutability": "nonpayable",
      "type": "function"
    },
    {
      "inputs": [],
      "name": "deployViaCreate2",
      "outputs": [
        {
          "internalType": "address",
          "name": "",
          "type": "address"
        }
      ],
      "stateMutability": "nonpayable",
      "type": "function"
    },
    {
      "inputs": [],
      "name": "destroy",
      "outputs": [],
      "stateMutability": "nonpayable",
      "type": "function"
    },
    {
      "inputs": [],
      "name": "getGasLeft",
      "outputs": [
        {
          "internalType": "uint256",
          "name": "",
          "type": "uint256"
        }
      ],
      "stateMutability": "view",
      "type": "function"
    },
    {
      "inputs": [],
      "name": "getMockContractAddress",
      "outputs": [
        {
          "internalType": "address",
          "name": "",
          "type": "address"
        }
      ],
      "stateMutability": "view",
      "type": "function"
    },
    {
      "inputs": [],
      "name": "logs",
      "outputs": [],
      "stateMutability": "nonpayable",
      "type": "function"
    },
    {
      "inputs": [],
      "name": "msgSender",
      "outputs": [
        {
          "internalType": "address",
          "name": "",
          "type": "address"
        }
      ],
      "stateMutability": "view",
      "type": "function"
    },
    {
      "inputs": [],
      "name": "msgSig",
      "outputs": [
        {
          "internalType": "bytes4",
          "name": "",
          "type": "bytes4"
        }
      ],
      "stateMutability": "pure",
      "type": "function"
    },
    {
      "inputs": [],
      "name": "msgValue",
      "outputs": [
        {
          "internalType": "uint256",
          "name": "",
          "type": "uint256"
        }
      ],
      "stateMutability": "payable",
      "type": "function"
    },
    {
      "inputs": [
        {
          "internalType": "uint256",
          "name": "_it",
          "type": "uint256"
        },
        {
          "internalType": "uint256",
          "name": "_n",
          "type": "uint256"
        },
        {
          "internalType": "address",
          "name": "_contractAddress",
          "type": "address"
        }
      ],
      "name": "nestedCalls",
      "outputs": [
        {
          "internalType": "uint256",
          "name": "",
          "type": "uint256"
        }
      ],
      "stateMutability": "nonpayable",
      "type": "function"
    },
    {
      "inputs": [],
      "name": "pureMultiply",
      "outputs": [
        {
          "internalType": "int256",
          "name": "",
          "type": "int256"
        }
      ],
      "stateMutability": "pure",
      "type": "function"
    },
    {
      "inputs": [
        {
          "internalType": "address",
          "name": "_to",
          "type": "address"
        },
        {
          "internalType": "uint256",
          "name": "_amount",
          "type": "uint256"
        }
      ],
      "name": "reentrancyCallWithGas",
      "outputs": [
        {
          "internalType": "uint256",
          "name": "",
          "type": "uint256"
        },
        {
          "internalType": "uint256",
          "name": "",
          "type": "uint256"
        }
      ],
      "stateMutability": "nonpayable",
      "type": "function"
    },
    {
      "inputs": [
        {
          "internalType": "address",
          "name": "_to",
          "type": "address"
        },
        {
          "internalType": "uint256",
          "name": "_amount",
          "type": "uint256"
        }
      ],
      "name": "reentrancyWithCall",
      "outputs": [],
      "stateMutability": "nonpayable",
      "type": "function"
    },
    {
      "inputs": [
        {
          "internalType": "address",
          "name": "_to",
          "type": "address"
        },
        {
          "internalType": "uint256",
          "name": "_amount",
          "type": "uint256"
        }
      ],
      "name": "reentrancyWithTransfer",
      "outputs": [],
      "stateMutability": "nonpayable",
      "type": "function"
    },
    {
      "inputs": [],
      "name": "salt",
      "outputs": [
        {
          "internalType": "uint256",
          "name": "",
          "type": "uint256"
        }
      ],
      "stateMutability": "view",
      "type": "function"
    },
    {
      "inputs": [],
      "name": "salt2",
      "outputs": [
        {
          "internalType": "uint256",
          "name": "",
          "type": "uint256"
        }
      ],
      "stateMutability": "view",
      "type": "function"
    },
    {
      "inputs": [
        {
          "internalType": "address",
          "name": "_address",
          "type": "address"
        },
        {
          "internalType": "bytes4",
          "name": "_sig",
          "type": "bytes4"
        }
      ],
      "name": "staticCallToContract",
      "outputs": [
        {
          "internalType": "address",
          "name": "",
          "type": "address"
        }
      ],
      "stateMutability": "view",
      "type": "function"
    },
    {
      "inputs": [
        {
          "internalType": "address",
          "name": "_invalidContract",
          "type": "address"
        }
      ],
      "name": "staticCallToInvalidContract",
      "outputs": [],
      "stateMutability": "view",
      "type": "function"
    },
    {
      "inputs": [],
      "name": "txOrigin",
      "outputs": [
        {
          "internalType": "address",
          "name": "",
          "type": "address"
        }
      ],
      "stateMutability": "view",
      "type": "function"
    },
    {
      "inputs": [
        {
          "internalType": "uint256",
          "name": "_counter",
          "type": "uint256"
        }
      ],
      "name": "updateCounter",
      "outputs": [
        {
          "internalType": "uint256",
          "name": "",
          "type": "uint256"
        }
      ],
      "stateMutability": "nonpayable",
      "type": "function"
    },
    {
      "inputs": [
        {
          "internalType": "uint256",
          "name": "_n",
          "type": "uint256"
        }
      ],
      "name": "updateStateNTimes",
      "outputs": [
        {
          "internalType": "uint256",
          "name": "",
          "type": "uint256"
        }
      ],
      "stateMutability": "nonpayable",
      "type": "function"
    },
    {
      "stateMutability": "payable",
      "type": "receive"
    }
  ],
  "bytecode": "0x60806040526001600055600180556002805560405161001d9061005f565b604051809103906000f080158015610039573d6000803e3d6000fd5b50600380546001600160a01b0319166001600160a01b039290921691909117905561006b565b60a5806113d383390190565b6113598061007a6000396000f3fe6080604052600436106102385760003560e01c806383197ef011610138578063ddf363d7116100b0578063ef043d571161007f578063f96757d111610064578063f96757d11461061b578063fa5e414e1461062e578063ffaf08901461064e57600080fd5b8063ef043d57146105e6578063ef0a4eac146105fb57600080fd5b8063ddf363d714610561578063e080b4aa14610567578063e7df080e14610587578063ec3e88cf146105a757600080fd5b8063c648049d11610107578063d3b6e741116100ec578063d3b6e74114610519578063d737d0c714610539578063dbb6f04a1461054c57600080fd5b8063c648049d146104c1578063cdb9c283146104e457600080fd5b806383197ef014610458578063ac7e27581461046b578063bb376a961461048b578063bfa0b133146104ab57600080fd5b80634929af37116101cb5780636e6662b91161019a578063742597951161017f57806374259795146104035780637df6ee271461041857806380f009b61461043857600080fd5b80636e6662b9146103ce57806370079963146103e357600080fd5b80634929af371461036357806351be4eaa146103835780635256b99d1461039857806361bc221a146103b857600080fd5b806331bf722a1161020757806331bf722a146102d057806339a92ada146102e65780633ec4de351461031b57806341f32f0c1461034357600080fd5b80630ec1551d1461024457806314a7862c1461026757806319a6e3d5146102995780631abd7d87146102bb57600080fd5b3661023f57005b600080fd5b34801561025057600080fd5b5060045b6040519081526020015b60405180910390f35b34801561027357600080fd5b506003546001600160a01b03165b6040516001600160a01b03909116815260200161025e565b3480156102a557600080fd5b506102b96102b436600461107f565b61066e565b005b3480156102c757600080fd5b50610281610712565b3480156102dc57600080fd5b5061025460025481565b3480156102f257600080fd5b506103066103013660046110af565b6107d9565b6040805192835260208301919091520161025e565b34801561032757600080fd5b506102546103363660046110db565b6001600160a01b03163190565b34801561034f57600080fd5b506102b961035e3660046110db565b610840565b34801561036f57600080fd5b506102b961037e36600461107f565b6108c4565b34801561038f57600080fd5b50610254610979565b3480156103a457600080fd5b506102546103b33660046110f8565b610981565b3480156103c457600080fd5b5061025460005481565b3480156103da57600080fd5b506102816109ae565b3480156103ef57600080fd5b506102b96103fe3660046110db565b6109e0565b34801561040f57600080fd5b506102b9610a5b565b34801561042457600080fd5b506102b96104333660046110db565b610b0f565b34801561044457600080fd5b506102b961045336600461107f565b610b88565b34801561046457600080fd5b506102b933ff5b34801561047757600080fd5b50610281610486366004611111565b610c3b565b34801561049757600080fd5b506102546104a6366004611164565b610c7b565b3480156104b757600080fd5b5061025460015481565b3480156104cd57600080fd5b506102546104dc3660046110f8565b600081905590565b3480156104f057600080fd5b506104f9610d71565b604080516001600160a01b0393841681529290911660208301520161025e565b34801561052557600080fd5b50610281610534366004611111565b610dd7565b34801561054557600080fd5b5033610281565b34801561055857600080fd5b50610281610e0c565b34610254565b34801561057357600080fd5b506102b96105823660046110db565b610e41565b34801561059357600080fd5b506102b96105a23660046110af565b610e8c565b3480156105b357600080fd5b506040517fffffffff0000000000000000000000000000000000000000000000000000000060003516815260200161025e565b3480156105f257600080fd5b506104f9610ee1565b34801561060757600080fd5b50610281610616366004611111565b610f4f565b34801561062757600080fd5b5032610281565b34801561063a57600080fd5b506102b961064936600461107f565b610f84565b34801561065a57600080fd5b506102b96106693660046110af565b611025565b60005b8281101561070d5760408051600481526024810182526020810180516001600160e01b03166338cc483160e01b17905290516001600160a01b038416916106b79161119d565b600060405180830381855af49150503d80600081146106f2576040519150601f19603f3d011682016040523d82523d6000602084013e6106f7565b606091505b505050808061070590611207565b915050610671565b505050565b60008060015460001b6040516107279061105b565b8190604051809103906000f5905080158015610747573d6000803e3d6000fd5b509050806001600160a01b03166383197ef06040518163ffffffff1660e01b8152600401600060405180830381600087803b15801561078557600080fd5b505af1158015610799573d6000803e3d6000fd5b50505050600060015460001b6040516107b19061105b565b8190604051809103906000f59050801580156107d1573d6000803e3d6000fd5b509392505050565b604051600090819047906001600160a01b038616906108fc90869085818181858888f193505050503d806000811461082d576040519150601f19603f3d011682016040523d82523d6000602084013e610832565b606091505b509196479650945050505050565b60408051600481526024810182526020810180516001600160e01b0316632d3c86dd60e11b17905290516001600160a01b0383169161087e9161119d565b600060405180830381855afa9150503d80600081146108b9576040519150601f19603f3d011682016040523d82523d6000602084013e6108be565b606091505b50505050565b60005b8281101561070d57816001600160a01b0316816040516024016108ec91815260200190565b60408051601f198184030181529181526020820180516001600160e01b031663c648049d60e01b17905251610921919061119d565b6000604051808303816000865af19150503d806000811461095e576040519150601f19603f3d011682016040523d82523d6000602084013e610963565b606091505b505050808061097190611207565b9150506108c7565b60005a905090565b6000805b828110156109a45760008190558061099c81611207565b915050610985565b5050600054919050565b6000806040516109bd9061105b565b604051809103906000f0801580156109d9573d6000803e3d6000fd5b5092915050565b60408051600481526024810182526020810180516001600160e01b0316632d3c86dd60e11b17905290516001600160a01b03831691610a1e9161119d565b6000604051808303816000865af19150503d80600081146108b9576040519150601f19603f3d011682016040523d82523d6000602084013e6108be565b608061160c8152602081a07fac3e966f295f2d5312f973dc6d42f30a6dc1c1f76ab8ee91cc8ca5dad1fa60fd80602083a17fae85c7887d510d629d8eb59ca412c0bf604c72c550fb0eec2734b12c76f2760b8082602085a261055160a0527ff4cd3854cb47c6b2f68a3a796635d026b9b412a93dfb80dd411c544cbc3c1817808284604087a37fe32ef46652011110f84325a4871007ee80018c1b6728ee04ffae74eb557e3fbf818385604088a450505050565b60408051600481526024810182526020810180516001600160e01b0316632d3c86dd60e11b17905290516001600160a01b03831691610b4d9161119d565b600060405180830381855af49150503d80600081146108b9576040519150601f19603f3d011682016040523d82523d6000602084013e6108be565b60005b8281101561070d57816001600160a01b031681604051602401610bb091815260200190565b60408051601f198184030181529181526020820180516001600160e01b031663c648049d60e01b17905251610be5919061119d565b600060405180830381855af49150503d8060008114610c20576040519150601f19603f3d011682016040523d82523d6000602084013e610c25565b606091505b5050508080610c3390611207565b915050610b8b565b60006060600060405184815260208160048360008a61c350f26020828101604052828552909250610c729184018101908401611222565b95945050505050565b600082841015610d675760006001600160a01b038316610c9c86600161123f565b6040516024810191909152604481018690526001600160a01b038516606482015260840160408051601f198184030181529181526020820180516001600160e01b03167fbb376a960000000000000000000000000000000000000000000000000000000017905251610d0e919061119d565b6000604051808303816000865af19150503d8060008114610d4b576040519150601f19603f3d011682016040523d82523d6000602084013e610d50565b606091505b5091505080610d5e90611257565b9150610d6a9050565b50825b9392505050565b6000806000604051610d829061105b565b604051809103906000f080158015610d9e573d6000803e3d6000fd5b5090506000604051610daf9061105b565b604051809103906000f080158015610dcb573d6000803e3d6000fd5b50919491935090915050565b6000606060006040518481526020816004838961c350f46020828101604052828552909250610c729184018101908401611222565b60008060005460001b604051610e219061105b565b8190604051809103906000f59050801580156109d9573d6000803e3d6000fd5b60606000807f5a790dba3c23b59f4183a2d8e5d0ceae10b15e337a4dcaeae2d5897a5f68a3d4905060405181815260208160048360008961c350f25060208101604052909252505050565b6040516001600160a01b038316908290600081818185875af1925050503d8060008114610ed5576040519150601f19603f3d011682016040523d82523d6000602084013e610eda565b606091505b5050505050565b600080600060015460001b604051610ef89061105b565b8190604051809103906000f5905080158015610f18573d6000803e3d6000fd5b509050600060025460001b604051610f2f9061105b565b8190604051809103906000f5905080158015610dcb573d6000803e3d6000fd5b6000606060006040518481526020816004838961c350fa6020828101604052828552909250610c729184018101908401611222565b60005b8281101561070d5760408051600481526024810182526020810180516001600160e01b03166338cc483160e01b17905290516001600160a01b03841691610fcd9161119d565b6000604051808303816000865af19150503d806000811461100a576040519150601f19603f3d011682016040523d82523d6000602084013e61100f565b606091505b505050808061101d90611207565b915050610f87565b6040516001600160a01b0383169082156108fc029083906000818181858888f1935050505015801561070d573d6000803e3d6000fd5b60a58061127f83390190565b6001600160a01b038116811461107c57600080fd5b50565b6000806040838503121561109257600080fd5b8235915060208301356110a481611067565b809150509250929050565b600080604083850312156110c257600080fd5b82356110cd81611067565b946020939093013593505050565b6000602082840312156110ed57600080fd5b8135610d6a81611067565b60006020828403121561110a57600080fd5b5035919050565b6000806040838503121561112457600080fd5b823561112f81611067565b915060208301357fffffffff00000000000000000000000000000000000000000000000000000000811681146110a457600080fd5b60008060006060848603121561117957600080fd5b8335925060208401359150604084013561119281611067565b809150509250925092565b6000825160005b818110156111be57602081860181015185830152016111a4565b818111156111cd576000828501525b509190910192915050565b7f4e487b7100000000000000000000000000000000000000000000000000000000600052601160045260246000fd5b600060001982141561121b5761121b6111d8565b5060010190565b60006020828403121561123457600080fd5b8151610d6a81611067565b60008219821115611252576112526111d8565b500190565b80516020808301519190811015611278576000198160200360031b1b821691505b5091905056fe6080604052348015600f57600080fd5b5060878061001e6000396000f3fe6080604052348015600f57600080fd5b506004361060325760003560e01c806338cc483114603757806383197ef014604a575b600080fd5b6040805130815290519081900360200190f35b604f33ff5b00fea2646970667358221220cfc308e9de819aedcdb7067ebe905ab94bddd10968317b879e45bd36e315b5ae64736f6c63430008090033a264697066735822122035c6ab72e98f1c49683ea80b78a06049a2f98ac13929e13390ad6dddb927d45b64736f6c634300080900336080604052348015600f57600080fd5b5060878061001e6000396000f3fe6080604052348015600f57600080fd5b506004361060325760003560e01c806338cc483114603757806383197ef014604a575b600080fd5b6040805130815290519081900360200190f35b604f33ff5b00fea2646970667358221220cfc308e9de819aedcdb7067ebe905ab94bddd10968317b879e45bd36e315b5ae64736f6c63430008090033",
  "linkReferences": {},
  "deployedLinkReferences": {}
}