{
  "_format": "hh-sol-artifact-1",
  "contractName": "MockContract",
  "sourceName": "contracts/EstimateGasContract.sol",
  "abi": [
    {
      "inputs": [],
      "name": "destroy",
      "outputs": [],
      "stateMutability": "nonpayable",
      "type": "function"
    },
    {
      "inputs": [],
      "name": "getAddress",
      "outputs": [
        {
          "internalType": "address",
          "name": "",
          "type": "address"
        }
      ],
      "stateMutability": "view",
      "type": "function"
    }
  ],
  "bytecode": "0x6080604052348015600f57600080fd5b5060878061001e6000396000f3fe6080604052348015600f57600080fd5b506004361060325760003560e01c806338cc483114603757806383197ef014604a575b600080fd5b6040805130815290519081900360200190f35b604f33ff5b00fea26469706673582212207f8d0d55b3787b8ea7bf2132a72ce817bcf89ef532ff88dbf1d9ac46d2d8a27564736f6c63430008090033",
  "linkReferences": {},
  "deployedLinkReferences": {}
}