{
  "_format": "hh-sol-artifact-1",
  "contractName": "MockContract",
  "sourceName": "contracts/EstimateGasContract.sol",
  "abi": [
    {
      "inputs": [],
      "name": "counter",
      "outputs": [
        {
          "internalType": "uint256",
          "name": "",
          "type": "uint256"
        }
      ],
      "stateMutability": "view",
      "type": "function"
    },
    {
      "inputs": [],
      "name": "destroy",
      "outputs": [],
      "stateMutability": "nonpayable",
      "type": "function"
    },
    {
      "inputs": [],
      "name": "getAddress",
      "outputs": [
        {
          "internalType": "address",
          "name": "",
          "type": "address"
        }
      ],
      "stateMutability": "view",
      "type": "function"
    },
    {
      "inputs": [],
      "name": "incrementCounter",
      "outputs": [],
      "stateMutability": "nonpayable",
      "type": "function"
    },
    {
      "stateMutability": "payable",
      "type": "receive"
    }
  ],
  "bytecode": "0x608060405234801561001057600080fd5b506101bc806100206000396000f3fe6080604052600436106100435760003560e01c806338cc48311461004f5780635b34b9661461006f57806361bc221a1461008657806383197ef0146100aa57600080fd5b3661004a57005b600080fd5b34801561005b57600080fd5b506040513081526020015b60405180910390f35b34801561007b57600080fd5b506100846100bd565b005b34801561009257600080fd5b5061009c60005481565b604051908152602001610066565b3480156100b657600080fd5b5061008433ff5b60016000808282546100cf9190610147565b9091555050600054600a1015610145576040517f08c379a000000000000000000000000000000000000000000000000000000000815260206004820152600d60248201527f466f726365642072657665727400000000000000000000000000000000000000604482015260640160405180910390fd5b565b60008219821115610181577f4e487b7100000000000000000000000000000000000000000000000000000000600052601160045260246000fd5b50019056fea2646970667358221220f428ac1bebd1b17eb607f07d73e6ccc4852e2de3016fed656fe49e8da226bffc64736f6c63430008090033",
  "linkReferences": {},
  "deployedLinkReferences": {}
}