{
  "_format": "hh-sol-artifact-1",
  "contractName": "PrecompileTestContract",
  "sourceName": "contracts/PrecompileTestContract.sol",
  "abi": [
    {
      "anonymous": false,
      "inputs": [
        {
          "indexed": false,
          "internalType": "bool",
          "name": "",
          "type": "bool"
        },
        {
          "indexed": false,
          "internalType": "bytes",
          "name": "",
          "type": "bytes"
        }
      ],
      "name": "CallResponseEvent",
      "type": "event"
    },
    {
      "inputs": [
        {
          "internalType": "address",
          "name": "token",
          "type": "address"
        }
      ],
      "name": "getCustomFeesForToken",
      "outputs": [
        {
          "components": [
            {
              "internalType": "int64",
              "name": "amount",
              "type": "int64"
            },
            {
              "internalType": "address",
              "name": "tokenId",
              "type": "address"
            },
            {
              "internalType": "bool",
              "name": "useHbarsForPayment",
              "type": "bool"
            },
            {
              "internalType": "bool",
              "name": "useCurrentTokenForPayment",
              "type": "bool"
            },
            {
              "internalType": "address",
              "name": "feeCollector",
              "type": "address"
            }
          ],
          "internalType": "struct IHederaTokenService.FixedFee[]",
          "name": "fixedFees",
          "type": "tuple[]"
        },
        {
          "components": [
            {
              "internalType": "int64",
              "name": "numerator",
              "type": "int64"
            },
            {
              "internalType": "int64",
              "name": "denominator",
              "type": "int64"
            },
            {
              "internalType": "int64",
              "name": "minimumAmount",
              "type": "int64"
            },
            {
              "internalType": "int64",
              "name": "maximumAmount",
              "type": "int64"
            },
            {
              "internalType": "bool",
              "name": "netOfTransfers",
              "type": "bool"
            },
            {
              "internalType": "address",
              "name": "feeCollector",
              "type": "address"
            }
          ],
          "internalType": "struct IHederaTokenService.FractionalFee[]",
          "name": "fractionalFees",
          "type": "tuple[]"
        },
        {
          "components": [
            {
              "internalType": "int64",
              "name": "numerator",
              "type": "int64"
            },
            {
              "internalType": "int64",
              "name": "denominator",
              "type": "int64"
            },
            {
              "internalType": "int64",
              "name": "amount",
              "type": "int64"
            },
            {
              "internalType": "address",
              "name": "tokenId",
              "type": "address"
            },
            {
              "internalType": "bool",
              "name": "useHbarsForPayment",
              "type": "bool"
            },
            {
              "internalType": "address",
              "name": "feeCollector",
              "type": "address"
            }
          ],
          "internalType": "struct IHederaTokenService.RoyaltyFee[]",
          "name": "royaltyFees",
          "type": "tuple[]"
        }
      ],
      "stateMutability": "nonpayable",
      "type": "function"
    },
    {
      "inputs": [
        {
          "internalType": "address",
          "name": "token",
          "type": "address"
        }
      ],
      "name": "getExpiryInfoForToken",
      "outputs": [
        {
          "components": [
            {
              "internalType": "int64",
              "name": "second",
              "type": "int64"
            },
            {
              "internalType": "address",
              "name": "autoRenewAccount",
              "type": "address"
            },
            {
              "internalType": "int64",
              "name": "autoRenewPeriod",
              "type": "int64"
            }
          ],
          "internalType": "struct IHederaTokenService.Expiry",
          "name": "expiry",
          "type": "tuple"
        }
      ],
      "stateMutability": "nonpayable",
      "type": "function"
    },
    {
      "inputs": [
        {
          "internalType": "address",
          "name": "token",
          "type": "address"
        }
      ],
      "name": "getInformationForFungibleToken",
      "outputs": [
        {
          "components": [
            {
              "components": [
                {
                  "components": [
                    {
                      "internalType": "string",
                      "name": "name",
                      "type": "string"
                    },
                    {
                      "internalType": "string",
                      "name": "symbol",
                      "type": "string"
                    },
                    {
                      "internalType": "address",
                      "name": "treasury",
                      "type": "address"
                    },
                    {
                      "internalType": "string",
                      "name": "memo",
                      "type": "string"
                    },
                    {
                      "internalType": "bool",
                      "name": "tokenSupplyType",
                      "type": "bool"
                    },
                    {
                      "internalType": "int64",
                      "name": "maxSupply",
                      "type": "int64"
                    },
                    {
                      "internalType": "bool",
                      "name": "freezeDefault",
                      "type": "bool"
                    },
                    {
                      "components": [
                        {
                          "internalType": "uint256",
                          "name": "keyType",
                          "type": "uint256"
                        },
                        {
                          "components": [
                            {
                              "internalType": "bool",
                              "name": "inheritAccountKey",
                              "type": "bool"
                            },
                            {
                              "internalType": "address",
                              "name": "contractId",
                              "type": "address"
                            },
                            {
                              "internalType": "bytes",
                              "name": "ed25519",
                              "type": "bytes"
                            },
                            {
                              "internalType": "bytes",
                              "name": "ECDSA_secp256k1",
                              "type": "bytes"
                            },
                            {
                              "internalType": "address",
                              "name": "delegatableContractId",
                              "type": "address"
                            }
                          ],
                          "internalType": "struct IHederaTokenService.KeyValue",
                          "name": "key",
                          "type": "tuple"
                        }
                      ],
                      "internalType": "struct IHederaTokenService.TokenKey[]",
                      "name": "tokenKeys",
                      "type": "tuple[]"
                    },
                    {
                      "components": [
                        {
                          "internalType": "int64",
                          "name": "second",
                          "type": "int64"
                        },
                        {
                          "internalType": "address",
                          "name": "autoRenewAccount",
                          "type": "address"
                        },
                        {
                          "internalType": "int64",
                          "name": "autoRenewPeriod",
                          "type": "int64"
                        }
                      ],
                      "internalType": "struct IHederaTokenService.Expiry",
                      "name": "expiry",
                      "type": "tuple"
                    }
                  ],
                  "internalType": "struct IHederaTokenService.HederaToken",
                  "name": "token",
                  "type": "tuple"
                },
                {
                  "internalType": "int64",
                  "name": "totalSupply",
                  "type": "int64"
                },
                {
                  "internalType": "bool",
                  "name": "deleted",
                  "type": "bool"
                },
                {
                  "internalType": "bool",
                  "name": "defaultKycStatus",
                  "type": "bool"
                },
                {
                  "internalType": "bool",
                  "name": "pauseStatus",
                  "type": "bool"
                },
                {
                  "components": [
                    {
                      "internalType": "int64",
                      "name": "amount",
                      "type": "int64"
                    },
                    {
                      "internalType": "address",
                      "name": "tokenId",
                      "type": "address"
                    },
                    {
                      "internalType": "bool",
                      "name": "useHbarsForPayment",
                      "type": "bool"
                    },
                    {
                      "internalType": "bool",
                      "name": "useCurrentTokenForPayment",
                      "type": "bool"
                    },
                    {
                      "internalType": "address",
                      "name": "feeCollector",
                      "type": "address"
                    }
                  ],
                  "internalType": "struct IHederaTokenService.FixedFee[]",
                  "name": "fixedFees",
                  "type": "tuple[]"
                },
                {
                  "components": [
                    {
                      "internalType": "int64",
                      "name": "numerator",
                      "type": "int64"
                    },
                    {
                      "internalType": "int64",
                      "name": "denominator",
                      "type": "int64"
                    },
                    {
                      "internalType": "int64",
                      "name": "minimumAmount",
                      "type": "int64"
                    },
                    {
                      "internalType": "int64",
                      "name": "maximumAmount",
                      "type": "int64"
                    },
                    {
                      "internalType": "bool",
                      "name": "netOfTransfers",
                      "type": "bool"
                    },
                    {
                      "internalType": "address",
                      "name": "feeCollector",
                      "type": "address"
                    }
                  ],
                  "internalType": "struct IHederaTokenService.FractionalFee[]",
                  "name": "fractionalFees",
                  "type": "tuple[]"
                },
                {
                  "components": [
                    {
                      "internalType": "int64",
                      "name": "numerator",
                      "type": "int64"
                    },
                    {
                      "internalType": "int64",
                      "name": "denominator",
                      "type": "int64"
                    },
                    {
                      "internalType": "int64",
                      "name": "amount",
                      "type": "int64"
                    },
                    {
                      "internalType": "address",
                      "name": "tokenId",
                      "type": "address"
                    },
                    {
                      "internalType": "bool",
                      "name": "useHbarsForPayment",
                      "type": "bool"
                    },
                    {
                      "internalType": "address",
                      "name": "feeCollector",
                      "type": "address"
                    }
                  ],
                  "internalType": "struct IHederaTokenService.RoyaltyFee[]",
                  "name": "royaltyFees",
                  "type": "tuple[]"
                },
                {
                  "internalType": "string",
                  "name": "ledgerId",
                  "type": "string"
                }
              ],
              "internalType": "struct IHederaTokenService.TokenInfo",
              "name": "tokenInfo",
              "type": "tuple"
            },
            {
              "internalType": "int32",
              "name": "decimals",
              "type": "int32"
            }
          ],
          "internalType": "struct IHederaTokenService.FungibleTokenInfo",
          "name": "fungibleTokenInfo",
          "type": "tuple"
        }
      ],
      "stateMutability": "nonpayable",
      "type": "function"
    },
    {
      "inputs": [
        {
          "internalType": "address",
          "name": "token",
          "type": "address"
        },
        {
          "internalType": "int64",
          "name": "serialNumber",
          "type": "int64"
        }
      ],
      "name": "getInformationForNonFungibleToken",
      "outputs": [
        {
          "components": [
            {
              "components": [
                {
                  "components": [
                    {
                      "internalType": "string",
                      "name": "name",
                      "type": "string"
                    },
                    {
                      "internalType": "string",
                      "name": "symbol",
                      "type": "string"
                    },
                    {
                      "internalType": "address",
                      "name": "treasury",
                      "type": "address"
                    },
                    {
                      "internalType": "string",
                      "name": "memo",
                      "type": "string"
                    },
                    {
                      "internalType": "bool",
                      "name": "tokenSupplyType",
                      "type": "bool"
                    },
                    {
                      "internalType": "int64",
                      "name": "maxSupply",
                      "type": "int64"
                    },
                    {
                      "internalType": "bool",
                      "name": "freezeDefault",
                      "type": "bool"
                    },
                    {
                      "components": [
                        {
                          "internalType": "uint256",
                          "name": "keyType",
                          "type": "uint256"
                        },
                        {
                          "components": [
                            {
                              "internalType": "bool",
                              "name": "inheritAccountKey",
                              "type": "bool"
                            },
                            {
                              "internalType": "address",
                              "name": "contractId",
                              "type": "address"
                            },
                            {
                              "internalType": "bytes",
                              "name": "ed25519",
                              "type": "bytes"
                            },
                            {
                              "internalType": "bytes",
                              "name": "ECDSA_secp256k1",
                              "type": "bytes"
                            },
                            {
                              "internalType": "address",
                              "name": "delegatableContractId",
                              "type": "address"
                            }
                          ],
                          "internalType": "struct IHederaTokenService.KeyValue",
                          "name": "key",
                          "type": "tuple"
                        }
                      ],
                      "internalType": "struct IHederaTokenService.TokenKey[]",
                      "name": "tokenKeys",
                      "type": "tuple[]"
                    },
                    {
                      "components": [
                        {
                          "internalType": "int64",
                          "name": "second",
                          "type": "int64"
                        },
                        {
                          "internalType": "address",
                          "name": "autoRenewAccount",
                          "type": "address"
                        },
                        {
                          "internalType": "int64",
                          "name": "autoRenewPeriod",
                          "type": "int64"
                        }
                      ],
                      "internalType": "struct IHederaTokenService.Expiry",
                      "name": "expiry",
                      "type": "tuple"
                    }
                  ],
                  "internalType": "struct IHederaTokenService.HederaToken",
                  "name": "token",
                  "type": "tuple"
                },
                {
                  "internalType": "int64",
                  "name": "totalSupply",
                  "type": "int64"
                },
                {
                  "internalType": "bool",
                  "name": "deleted",
                  "type": "bool"
                },
                {
                  "internalType": "bool",
                  "name": "defaultKycStatus",
                  "type": "bool"
                },
                {
                  "internalType": "bool",
                  "name": "pauseStatus",
                  "type": "bool"
                },
                {
                  "components": [
                    {
                      "internalType": "int64",
                      "name": "amount",
                      "type": "int64"
                    },
                    {
                      "internalType": "address",
                      "name": "tokenId",
                      "type": "address"
                    },
                    {
                      "internalType": "bool",
                      "name": "useHbarsForPayment",
                      "type": "bool"
                    },
                    {
                      "internalType": "bool",
                      "name": "useCurrentTokenForPayment",
                      "type": "bool"
                    },
                    {
                      "internalType": "address",
                      "name": "feeCollector",
                      "type": "address"
                    }
                  ],
                  "internalType": "struct IHederaTokenService.FixedFee[]",
                  "name": "fixedFees",
                  "type": "tuple[]"
                },
                {
                  "components": [
                    {
                      "internalType": "int64",
                      "name": "numerator",
                      "type": "int64"
                    },
                    {
                      "internalType": "int64",
                      "name": "denominator",
                      "type": "int64"
                    },
                    {
                      "internalType": "int64",
                      "name": "minimumAmount",
                      "type": "int64"
                    },
                    {
                      "internalType": "int64",
                      "name": "maximumAmount",
                      "type": "int64"
                    },
                    {
                      "internalType": "bool",
                      "name": "netOfTransfers",
                      "type": "bool"
                    },
                    {
                      "internalType": "address",
                      "name": "feeCollector",
                      "type": "address"
                    }
                  ],
                  "internalType": "struct IHederaTokenService.FractionalFee[]",
                  "name": "fractionalFees",
                  "type": "tuple[]"
                },
                {
                  "components": [
                    {
                      "internalType": "int64",
                      "name": "numerator",
                      "type": "int64"
                    },
                    {
                      "internalType": "int64",
                      "name": "denominator",
                      "type": "int64"
                    },
                    {
                      "internalType": "int64",
                      "name": "amount",
                      "type": "int64"
                    },
                    {
                      "internalType": "address",
                      "name": "tokenId",
                      "type": "address"
                    },
                    {
                      "internalType": "bool",
                      "name": "useHbarsForPayment",
                      "type": "bool"
                    },
                    {
                      "internalType": "address",
                      "name": "feeCollector",
                      "type": "address"
                    }
                  ],
                  "internalType": "struct IHederaTokenService.RoyaltyFee[]",
                  "name": "royaltyFees",
                  "type": "tuple[]"
                },
                {
                  "internalType": "string",
                  "name": "ledgerId",
                  "type": "string"
                }
              ],
              "internalType": "struct IHederaTokenService.TokenInfo",
              "name": "tokenInfo",
              "type": "tuple"
            },
            {
              "internalType": "int64",
              "name": "serialNumber",
              "type": "int64"
            },
            {
              "internalType": "address",
              "name": "ownerId",
              "type": "address"
            },
            {
              "internalType": "int64",
              "name": "creationTime",
              "type": "int64"
            },
            {
              "internalType": "bytes",
              "name": "metadata",
              "type": "bytes"
            },
            {
              "internalType": "address",
              "name": "spenderId",
              "type": "address"
            }
          ],
          "internalType": "struct IHederaTokenService.NonFungibleTokenInfo",
          "name": "nonFungibleTokenInfo",
          "type": "tuple"
        }
      ],
      "stateMutability": "nonpayable",
      "type": "function"
    },
    {
      "inputs": [
        {
          "internalType": "address",
          "name": "token",
          "type": "address"
        }
      ],
      "name": "getInformationForToken",
      "outputs": [
        {
          "components": [
            {
              "components": [
                {
                  "internalType": "string",
                  "name": "name",
                  "type": "string"
                },
                {
                  "internalType": "string",
                  "name": "symbol",
                  "type": "string"
                },
                {
                  "internalType": "address",
                  "name": "treasury",
                  "type": "address"
                },
                {
                  "internalType": "string",
                  "name": "memo",
                  "type": "string"
                },
                {
                  "internalType": "bool",
                  "name": "tokenSupplyType",
                  "type": "bool"
                },
                {
                  "internalType": "int64",
                  "name": "maxSupply",
                  "type": "int64"
                },
                {
                  "internalType": "bool",
                  "name": "freezeDefault",
                  "type": "bool"
                },
                {
                  "components": [
                    {
                      "internalType": "uint256",
                      "name": "keyType",
                      "type": "uint256"
                    },
                    {
                      "components": [
                        {
                          "internalType": "bool",
                          "name": "inheritAccountKey",
                          "type": "bool"
                        },
                        {
                          "internalType": "address",
                          "name": "contractId",
                          "type": "address"
                        },
                        {
                          "internalType": "bytes",
                          "name": "ed25519",
                          "type": "bytes"
                        },
                        {
                          "internalType": "bytes",
                          "name": "ECDSA_secp256k1",
                          "type": "bytes"
                        },
                        {
                          "internalType": "address",
                          "name": "delegatableContractId",
                          "type": "address"
                        }
                      ],
                      "internalType": "struct IHederaTokenService.KeyValue",
                      "name": "key",
                      "type": "tuple"
                    }
                  ],
                  "internalType": "struct IHederaTokenService.TokenKey[]",
                  "name": "tokenKeys",
                  "type": "tuple[]"
                },
                {
                  "components": [
                    {
                      "internalType": "int64",
                      "name": "second",
                      "type": "int64"
                    },
                    {
                      "internalType": "address",
                      "name": "autoRenewAccount",
                      "type": "address"
                    },
                    {
                      "internalType": "int64",
                      "name": "autoRenewPeriod",
                      "type": "int64"
                    }
                  ],
                  "internalType": "struct IHederaTokenService.Expiry",
                  "name": "expiry",
                  "type": "tuple"
                }
              ],
              "internalType": "struct IHederaTokenService.HederaToken",
              "name": "token",
              "type": "tuple"
            },
            {
              "internalType": "int64",
              "name": "totalSupply",
              "type": "int64"
            },
            {
              "internalType": "bool",
              "name": "deleted",
              "type": "bool"
            },
            {
              "internalType": "bool",
              "name": "defaultKycStatus",
              "type": "bool"
            },
            {
              "internalType": "bool",
              "name": "pauseStatus",
              "type": "bool"
            },
            {
              "components": [
                {
                  "internalType": "int64",
                  "name": "amount",
                  "type": "int64"
                },
                {
                  "internalType": "address",
                  "name": "tokenId",
                  "type": "address"
                },
                {
                  "internalType": "bool",
                  "name": "useHbarsForPayment",
                  "type": "bool"
                },
                {
                  "internalType": "bool",
                  "name": "useCurrentTokenForPayment",
                  "type": "bool"
                },
                {
                  "internalType": "address",
                  "name": "feeCollector",
                  "type": "address"
                }
              ],
              "internalType": "struct IHederaTokenService.FixedFee[]",
              "name": "fixedFees",
              "type": "tuple[]"
            },
            {
              "components": [
                {
                  "internalType": "int64",
                  "name": "numerator",
                  "type": "int64"
                },
                {
                  "internalType": "int64",
                  "name": "denominator",
                  "type": "int64"
                },
                {
                  "internalType": "int64",
                  "name": "minimumAmount",
                  "type": "int64"
                },
                {
                  "internalType": "int64",
                  "name": "maximumAmount",
                  "type": "int64"
                },
                {
                  "internalType": "bool",
                  "name": "netOfTransfers",
                  "type": "bool"
                },
                {
                  "internalType": "address",
                  "name": "feeCollector",
                  "type": "address"
                }
              ],
              "internalType": "struct IHederaTokenService.FractionalFee[]",
              "name": "fractionalFees",
              "type": "tuple[]"
            },
            {
              "components": [
                {
                  "internalType": "int64",
                  "name": "numerator",
                  "type": "int64"
                },
                {
                  "internalType": "int64",
                  "name": "denominator",
                  "type": "int64"
                },
                {
                  "internalType": "int64",
                  "name": "amount",
                  "type": "int64"
                },
                {
                  "internalType": "address",
                  "name": "tokenId",
                  "type": "address"
                },
                {
                  "internalType": "bool",
                  "name": "useHbarsForPayment",
                  "type": "bool"
                },
                {
                  "internalType": "address",
                  "name": "feeCollector",
                  "type": "address"
                }
              ],
              "internalType": "struct IHederaTokenService.RoyaltyFee[]",
              "name": "royaltyFees",
              "type": "tuple[]"
            },
            {
              "internalType": "string",
              "name": "ledgerId",
              "type": "string"
            }
          ],
          "internalType": "struct IHederaTokenService.TokenInfo",
          "name": "tokenInfo",
          "type": "tuple"
        }
      ],
      "stateMutability": "nonpayable",
      "type": "function"
    },
    {
      "inputs": [
        {
          "internalType": "address",
          "name": "token",
          "type": "address"
        }
      ],
      "name": "getTokenDefaultFreeze",
      "outputs": [
        {
          "internalType": "bool",
          "name": "",
          "type": "bool"
        }
      ],
      "stateMutability": "nonpayable",
      "type": "function"
    },
    {
      "inputs": [
        {
          "internalType": "address",
          "name": "token",
          "type": "address"
        }
      ],
      "name": "getTokenDefaultKyc",
      "outputs": [
        {
          "internalType": "bool",
          "name": "",
          "type": "bool"
        }
      ],
      "stateMutability": "nonpayable",
      "type": "function"
    },
    {
      "inputs": [
        {
          "internalType": "address",
          "name": "token",
          "type": "address"
        },
        {
          "internalType": "uint256",
          "name": "keyType",
          "type": "uint256"
        }
      ],
      "name": "getTokenKeyPublic",
      "outputs": [
        {
          "components": [
            {
              "internalType": "bool",
              "name": "inheritAccountKey",
              "type": "bool"
            },
            {
              "internalType": "address",
              "name": "contractId",
              "type": "address"
            },
            {
              "internalType": "bytes",
              "name": "ed25519",
              "type": "bytes"
            },
            {
              "internalType": "bytes",
              "name": "ECDSA_secp256k1",
              "type": "bytes"
            },
            {
              "internalType": "address",
              "name": "delegatableContractId",
              "type": "address"
            }
          ],
          "internalType": "struct IHederaTokenService.KeyValue",
          "name": "",
          "type": "tuple"
        }
      ],
      "stateMutability": "nonpayable",
      "type": "function"
    },
    {
      "inputs": [
        {
          "internalType": "address",
          "name": "token",
          "type": "address"
        }
      ],
      "name": "getType",
      "outputs": [
        {
          "internalType": "int256",
          "name": "",
          "type": "int256"
        }
      ],
      "stateMutability": "nonpayable",
      "type": "function"
    },
    {
      "inputs": [
        {
          "internalType": "address",
          "name": "token",
          "type": "address"
        },
        {
          "internalType": "address",
          "name": "account",
          "type": "address"
        }
      ],
      "name": "isKycGranted",
      "outputs": [
        {
          "internalType": "bool",
          "name": "",
          "type": "bool"
        }
      ],
      "stateMutability": "nonpayable",
      "type": "function"
    },
    {
      "inputs": [
        {
          "internalType": "address",
          "name": "token",
          "type": "address"
        }
      ],
      "name": "isTokenAddress",
      "outputs": [
        {
          "internalType": "bool",
          "name": "",
          "type": "bool"
        }
      ],
      "stateMutability": "nonpayable",
      "type": "function"
    },
    {
      "inputs": [
        {
          "internalType": "address",
          "name": "token",
          "type": "address"
        },
        {
          "internalType": "address",
          "name": "account",
          "type": "address"
        }
      ],
      "name": "isTokenFrozen",
      "outputs": [
        {
          "internalType": "bool",
          "name": "",
          "type": "bool"
        }
      ],
      "stateMutability": "nonpayable",
      "type": "function"
    },
    {
      "inputs": [
        {
          "internalType": "address",
          "name": "token",
          "type": "address"
        },
        {
          "internalType": "bytes",
          "name": "encodedFunctionSelector",
          "type": "bytes"
        }
      ],
      "name": "redirectForToken",
      "outputs": [
        {
          "internalType": "int256",
          "name": "responseCode",
          "type": "int256"
        },
        {
          "internalType": "bytes",
          "name": "response",
          "type": "bytes"
        }
      ],
      "stateMutability": "nonpayable",
      "type": "function"
    },
    {
      "inputs": [
        {
          "internalType": "address",
          "name": "token",
          "type": "address"
        },
        {
          "internalType": "bytes",
          "name": "encodedFunctionSelector",
          "type": "bytes"
        }
      ],
      "name": "redirectForTokenExternal",
      "outputs": [
        {
          "internalType": "int256",
          "name": "responseCode",
          "type": "int256"
        }
      ],
      "stateMutability": "nonpayable",
      "type": "function"
    },
    {
      "inputs": [
        {
          "internalType": "address",
          "name": "token",
          "type": "address"
        },
        {
          "internalType": "address",
          "name": "from",
          "type": "address"
        },
        {
          "internalType": "address",
          "name": "to",
          "type": "address"
        },
        {
          "internalType": "uint256",
          "name": "amount",
          "type": "uint256"
        }
      ],
      "name": "transferFrom",
      "outputs": [
        {
          "internalType": "int64",
          "name": "responseCode",
          "type": "int64"
        }
      ],
      "stateMutability": "nonpayable",
      "type": "function"
    },
    {
      "inputs": [
        {
          "internalType": "address",
          "name": "token",
          "type": "address"
        },
        {
          "internalType": "address",
          "name": "from",
          "type": "address"
        },
        {
          "internalType": "address",
          "name": "to",
          "type": "address"
        },
        {
          "internalType": "uint256",
          "name": "serialNumber",
          "type": "uint256"
        }
      ],
      "name": "transferFromNFT",
      "outputs": [
        {
          "internalType": "int64",
          "name": "responseCode",
          "type": "int64"
        }
      ],
      "stateMutability": "nonpayable",
      "type": "function"
    }
  ],
  "bytecode": "0x608060405234801561001057600080fd5b50612936806100206000396000f3fe608060405234801561001057600080fd5b50600436106101005760003560e01c8063618dc65e11610097578063bff9834f11610066578063bff9834f1461026f578063cd0ba71e14610282578063f429f19b146102a3578063fd4d1c26146102b657600080fd5b8063618dc65e146102085780638e5e7996146102295780639b23d3d914610249578063bc2fb00e1461025c57600080fd5b806335589a13116100d357806335589a131461019357806344f38bc8146101b3578063565ca6fa146101d557806359c16f5a146101e857600080fd5b806315dacbea146101055780631955de0b146101305780631de8edad14610150578063319a872314610170575b600080fd5b6101186101133660046114e2565b6102c9565b60405160079190910b81526020015b60405180910390f35b61014361013e366004611533565b6103d6565b6040516101279190611626565b61016361015e366004611639565b61044a565b6040516101279190611656565b61018361017e366004611639565b61048a565b6040519015158152602001610127565b6101a66101a1366004611639565b610518565b6040516101279190611a41565b6101c66101c1366004611639565b61052c565b60405161012793929190611a54565b6101836101e3366004611a8d565b61055e565b6101fb6101f6366004611639565b6105c7565b6040516101279190611ac6565b61021b610216366004611c16565b6105db565b604051610127929190611ca9565b61023c610237366004611cd9565b610709565b6040516101279190611d07565b6101186102573660046114e2565b610730565b61018361026a366004611a8d565b61078e565b61018361027d366004611639565b6107f7565b610295610290366004611c16565b61085f565b604051908152602001610127565b6102956102b1366004611639565b610906565b6101836102c4366004611639565b610971565b6040516001600160a01b0385811660248301528481166044830152831660648201526084810182905260009081908190610167907f15dacbea000000000000000000000000000000000000000000000000000000009060a4015b60408051601f198184030181529181526020820180516001600160e01b03166001600160e01b03199094169390931790925290516103619190611d8b565b6000604051808303816000865af19150503d806000811461039e576040519150601f19603f3d011682016040523d82523d6000602084013e6103a3565b606091505b5091509150816103b45760156103c8565b808060200190518101906103c89190611dbe565b60030b979650505050505050565b61041c6040518060a0016040528060001515815260200160006001600160a01b03168152602001606081526020016060815260200160006001600160a01b031681525090565b60008061042985856109d4565b915060070b9150601660030b821461044057600080fd5b9150505b92915050565b60408051606081018252600080825260208201819052918101829052908061047184610b31565b90925090506016821461048357600080fd5b9392505050565b600080600061049884610c42565b9092509050601682146104835760405162461bcd60e51b815260206004820152602360248201527f676574546f6b656e44656661756c74467265657a65537461747573206661696c60448201527f656421000000000000000000000000000000000000000000000000000000000060648201526084015b60405180910390fd5b6105206113b8565b60008061047184610d3f565b6060806060600061053c85610e28565b919650945092509050600781900b60161461055657600080fd5b509193909250565b600080600061056d8585610f28565b915060070b9150601660030b82146104405760405162461bcd60e51b815260206004820152601660248201527f546f6b656e20697346726f7a656e206661696c65642100000000000000000000604482015260640161050f565b6105cf61146f565b6000806104718461101c565b600060606000806101676001600160a01b031663618dc65e60e01b8787604051602401610609929190611dd9565b60408051601f198184030181529181526020820180516001600160e01b03166001600160e01b03199094169390931790925290516106479190611d8b565b6000604051808303816000865af19150503d8060008114610684576040519150601f19603f3d011682016040523d82523d6000602084013e610689565b606091505b50915091507f4af4780e06fe8cb9df64b0794fa6f01399af979175bb988e35e0e57e594567bc82826040516106bf929190611dfb565b60405180910390a1816106e3576015604051806020016040528060008152506106f7565b808060200190518101906106f79190611e5b565b60039190910b97909650945050505050565b61071161148f565b60008061071e8585611105565b90925090506016821461044057600080fd5b6040516001600160a01b0385811660248301528481166044830152831660648201526084810182905260009081908190610167907f9b23d3d9000000000000000000000000000000000000000000000000000000009060a401610323565b600080600061079d85856111f8565b915060070b9150601660030b82146104405760405162461bcd60e51b815260206004820152601360248201527f546f6b656e2069734b7963206661696c65642100000000000000000000000000604482015260640161050f565b600080600061080584611249565b915060070b9150601660030b82146104835760405162461bcd60e51b815260206004820152601c60248201527f546f6b656e206973546f6b656e41646472657373206661696c65642100000000604482015260640161050f565b6040517f618dc65e000000000000000000000000000000000000000000000000000000008152600090309063618dc65e906108a09086908690600401611dd9565b600060405180830381600087803b1580156108ba57600080fd5b505af11580156108ce573d6000803e3d6000fd5b505050506040513d6000823e601f3d908101601f191682016040526108f69190810190611ea9565b5090506016811461044457600080fd5b600080600061091484611292565b60030b915060070b9150601660030b82146104835760405162461bcd60e51b815260206004820152601c60248201527f546f6b656e20747970652061707072616973616c206661696c65642100000000604482015260640161050f565b600080600061097f8461136f565b9092509050601682146104835760405162461bcd60e51b815260206004820181905260248201527f676574546f6b656e44656661756c744b7963537461747573206661696c656421604482015260640161050f565b6040805160a081018252600080825260208083018290526060838501819052808401526080830182905283516001600160a01b03871660248201526044808201879052855180830390910181526064909101855290810180516001600160e01b03167f3c4dd32e00000000000000000000000000000000000000000000000000000000179052925190928391829161016791610a709190611d8b565b6000604051808303816000865af19150503d8060008114610aad576040519150601f19603f3d011682016040523d82523d6000602084013e610ab2565b606091505b5091509150610afd6040518060a0016040528060001515815260200160006001600160a01b03168152602001606081526020016060815260200160006001600160a01b031681525090565b82610b0a57601581610b1e565b81806020019051810190610b1e9190611f9b565b60039190910b9890975095505050505050565b604080516060810182526000808252602080830182905282840182905283516001600160a01b038616602480830191909152855180830390910181526044909101855290810180516001600160e01b03167fd614cdb800000000000000000000000000000000000000000000000000000000179052925190928391829161016791610bbc9190611d8b565b6000604051808303816000865af19150503d8060008114610bf9576040519150601f19603f3d011682016040523d82523d6000602084013e610bfe565b606091505b506040805160608101825260008082526020820181905291810191909152919350915082610c2e576015816106f7565b818060200190518101906106f79190612062565b6040516001600160a01b0382166024820152600090819081908190610167907fa7daa18d00000000000000000000000000000000000000000000000000000000906044015b60408051601f198184030181529181526020820180516001600160e01b03166001600160e01b0319909416939093179092529051610cc59190611d8b565b6000604051808303816000865af19150503d8060008114610d02576040519150601f19603f3d011682016040523d82523d6000602084013e610d07565b606091505b509150915081610d1a5760156000610d2e565b80806020019051810190610d2e9190612096565b60039190910b969095509350505050565b6000610d496113b8565b604080516001600160a01b03851660248083019190915282518083039091018152604490910182526020810180516001600160e01b03167f1f69565f000000000000000000000000000000000000000000000000000000001790529051600091829161016791610db891611d8b565b6000604051808303816000865af19150503d8060008114610df5576040519150601f19603f3d011682016040523d82523d6000602084013e610dfa565b606091505b5091509150610e076113b8565b82610e14576015816106f7565b818060200190518101906106f7919061266a565b604080516001600160a01b03831660248083019190915282518083039091018152604490910182526020810180516001600160e01b03167fae7611a0000000000000000000000000000000000000000000000000000000001790529051600091606091829182918591829161016791610ea091611d8b565b6000604051808303816000865af19150503d8060008114610edd576040519150601f19603f3d011682016040523d82523d6000602084013e610ee2565b606091505b5091509150606080606084610efb576015838383610f0f565b83806020019051810190610f0f91906126ae565b60039390930b9d919c509a509098509650505050505050565b6040516001600160a01b03838116602483015282166044820152600090819081908190610167907f46de0fb100000000000000000000000000000000000000000000000000000000906064015b60408051601f198184030181529181526020820180516001600160e01b03166001600160e01b0319909416939093179092529051610fb39190611d8b565b6000604051808303816000865af19150503d8060008114610ff0576040519150601f19603f3d011682016040523d82523d6000602084013e610ff5565b606091505b50915091508161100857601560006106f7565b808060200190518101906106f79190612096565b600061102661146f565b604080516001600160a01b03851660248083019190915282518083039091018152604490910182526020810180516001600160e01b03167f3f28a19b00000000000000000000000000000000000000000000000000000000179052905160009182916101679161109591611d8b565b6000604051808303816000865af19150503d80600081146110d2576040519150601f19603f3d011682016040523d82523d6000602084013e6110d7565b606091505b50915091506110e461146f565b826110f1576015816106f7565b818060200190518101906106f79190612747565b600061110f61148f565b604080516001600160a01b0386166024820152600785900b60448083019190915282518083039091018152606490910182526020810180516001600160e01b03167f287e1da800000000000000000000000000000000000000000000000000000000179052905160009182916101679161118891611d8b565b6000604051808303816000865af19150503d80600081146111c5576040519150601f19603f3d011682016040523d82523d6000602084013e6111ca565b606091505b50915091506111d761148f565b826111e457601581610b1e565b81806020019051810190610b1e91906127ee565b6040516001600160a01b03838116602483015282166044820152600090819081908190610167907ff2c31ff40000000000000000000000000000000000000000000000000000000090606401610f75565b6040516001600160a01b0382166024820152600090819081908190610167907f19f373610000000000000000000000000000000000000000000000000000000090604401610c87565b604080516001600160a01b03831660248083019190915282518083039091018152604490910182526020810180516001600160e01b03167f93272baf0000000000000000000000000000000000000000000000000000000017905290516000918291829182916101679161130591611d8b565b6000604051808303816000865af19150503d8060008114611342576040519150601f19603f3d011682016040523d82523d6000602084013e611347565b606091505b50915091508161135b576015600019610d2e565b80806020019051810190610d2e91906128d6565b6040516001600160a01b0382166024820152600090819081908190610167907f335e04c10000000000000000000000000000000000000000000000000000000090604401610c87565b60408051610240810182526060610120820181815261014083018290526000610160840181905261018084018390526101a084018190526101c084018190526101e0840181905261020084018390528451928301855280835260208301819052938201939093526102208201529081908152602001600060070b8152602001600015158152602001600015158152602001600015158152602001606081526020016060815260200160608152602001606081525090565b60405180604001604052806114826113b8565b8152600060209091015290565b6040518060c001604052806114a26113b8565b8152600060208201819052604082018190526060808301829052608083015260a09091015290565b6001600160a01b03811681146114df57600080fd5b50565b600080600080608085870312156114f857600080fd5b8435611503816114ca565b93506020850135611513816114ca565b92506040850135611523816114ca565b9396929550929360600135925050565b6000806040838503121561154657600080fd5b8235611551816114ca565b946020939093013593505050565b60005b8381101561157a578181015183820152602001611562565b83811115611589576000848401525b50505050565b600081518084526115a781602086016020860161155f565b601f01601f19169290920160200192915050565b805115158252600060208201516001600160a01b0380821660208601526040840151915060a060408601526115f360a086018361158f565b91506060840151858303606087015261160c838261158f565b925050806080850151166080860152508091505092915050565b60208152600061048360208301846115bb565b60006020828403121561164b57600080fd5b8135610483816114ca565b606081016104448284805160070b82526001600160a01b036020820151166020830152604081015160070b60408301525050565b600081518084526020808501808196508360051b8101915082860160005b858110156116e657828403895281518051855285015160408686018190526116d2818701836115bb565b9a87019a95505050908401906001016116a8565b5091979650505050505050565b600061016082518185526117098286018261158f565b91505060208301518482036020860152611723828261158f565b915050604083015161174060408601826001600160a01b03169052565b5060608301518482036060860152611758828261158f565b915050608083015161176e608086018215159052565b5060a083015161178360a086018260070b9052565b5060c083015161179760c086018215159052565b5060e083015184820360e08601526117af828261168a565b915050610100808401516117eb82870182805160070b82526001600160a01b036020820151166020830152604081015160070b60408301525050565b5090949350505050565b600081518084526020808501945080840160005b83811015611862578151805160070b8852838101516001600160a01b03908116858a01526040808301511515908a01526060808301511515908a0152608091820151169088015260a09096019590820190600101611809565b509495945050505050565b600081518084526020808501945080840160005b838110156118625781518051600790810b895284820151810b858a0152604080830151820b908a015260608083015190910b9089015260808082015115159089015260a0908101516001600160a01b03169088015260c09096019590820190600101611881565b600081518084526020808501945080840160005b838110156118625781518051600790810b895284820151810b858a015260408083015190910b908901526060808201516001600160a01b03908116918a01919091526080808301511515908a015260a091820151169088015260c090960195908201906001016118fc565b6000610120825181855261197d828601826116f3565b9150506020830151611994602086018260070b9052565b5060408301516119a8604086018215159052565b5060608301516119bc606086018215159052565b5060808301516119d0608086018215159052565b5060a083015184820360a08601526119e882826117f5565b91505060c083015184820360c0860152611a02828261186d565b91505060e083015184820360e0860152611a1c82826118e8565b9150506101008084015185830382870152611a37838261158f565b9695505050505050565b6020815260006104836020830184611967565b606081526000611a6760608301866117f5565b8281036020840152611a79818661186d565b90508281036040840152611a3781856118e8565b60008060408385031215611aa057600080fd5b8235611aab816114ca565b91506020830135611abb816114ca565b809150509250929050565b602081526000825160406020840152611ae26060840182611967565b9050602084015160030b60408401528091505092915050565b7f4e487b7100000000000000000000000000000000000000000000000000000000600052604160045260246000fd5b60405160a0810167ffffffffffffffff81118282101715611b4d57611b4d611afb565b60405290565b6040805190810167ffffffffffffffff81118282101715611b4d57611b4d611afb565b604051610120810167ffffffffffffffff81118282101715611b4d57611b4d611afb565b60405160c0810167ffffffffffffffff81118282101715611b4d57611b4d611afb565b604051601f8201601f1916810167ffffffffffffffff81118282101715611be657611be6611afb565b604052919050565b600067ffffffffffffffff821115611c0857611c08611afb565b50601f01601f191660200190565b60008060408385031215611c2957600080fd5b8235611c34816114ca565b9150602083013567ffffffffffffffff811115611c5057600080fd5b8301601f81018513611c6157600080fd5b8035611c74611c6f82611bee565b611bbd565b818152866020838501011115611c8957600080fd5b816020840160208301376000602083830101528093505050509250929050565b828152604060208201526000611cc2604083018461158f565b949350505050565b8060070b81146114df57600080fd5b60008060408385031215611cec57600080fd5b8235611cf7816114ca565b91506020830135611abb81611cca565b602081526000825160c06020840152611d2360e0840182611967565b9050602084015160070b604084015260408401516001600160a01b038082166060860152606086015160070b608086015260808601519150601f198584030160a0860152611d71838361158f565b92508060a08701511660c086015250508091505092915050565b60008251611d9d81846020870161155f565b9190910192915050565b8051600381900b8114611db957600080fd5b919050565b600060208284031215611dd057600080fd5b61048382611da7565b6001600160a01b0383168152604060208201526000611cc2604083018461158f565b8215158152604060208201526000611cc2604083018461158f565b600082601f830112611e2757600080fd5b8151611e35611c6f82611bee565b818152846020838601011115611e4a57600080fd5b61044082602083016020870161155f565b60008060408385031215611e6e57600080fd5b611e7783611da7565b9150602083015167ffffffffffffffff811115611e9357600080fd5b611e9f85828601611e16565b9150509250929050565b60008060408385031215611ebc57600080fd5b82519150602083015167ffffffffffffffff811115611e9357600080fd5b80518015158114611db957600080fd5b8051611db9816114ca565b600060a08284031215611f0757600080fd5b611f0f611b2a565b9050611f1a82611eda565b81526020820151611f2a816114ca565b6020820152604082015167ffffffffffffffff80821115611f4a57600080fd5b611f5685838601611e16565b60408401526060840151915080821115611f6f57600080fd5b50611f7c84828501611e16565b6060830152506080820151611f90816114ca565b608082015292915050565b60008060408385031215611fae57600080fd5b611fb783611da7565b9150602083015167ffffffffffffffff811115611fd357600080fd5b611e9f85828601611ef5565b8051611db981611cca565b600060608284031215611ffc57600080fd5b6040516060810181811067ffffffffffffffff8211171561201f5761201f611afb565b8060405250809150825161203281611cca565b81526020830151612042816114ca565b6020820152604083015161205581611cca565b6040919091015292915050565b6000806080838503121561207557600080fd5b61207e83611da7565b915061208d8460208501611fea565b90509250929050565b600080604083850312156120a957600080fd5b6120b283611da7565b915061208d60208401611eda565b600067ffffffffffffffff8211156120da576120da611afb565b5060051b60200190565b600082601f8301126120f557600080fd5b81516020612105611c6f836120c0565b82815260059290921b8401810191818101908684111561212457600080fd5b8286015b848110156121a657805167ffffffffffffffff808211156121495760008081fd5b908801906040828b03601f19018113156121635760008081fd5b61216b611b53565b8388015181529083015190828211156121845760008081fd5b6121928c8984870101611ef5565b818901528652505050918301918301612128565b509695505050505050565b600061016082840312156121c457600080fd5b6121cc611b76565b9050815167ffffffffffffffff808211156121e657600080fd5b6121f285838601611e16565b8352602084015191508082111561220857600080fd5b61221485838601611e16565b602084015261222560408501611eea565b6040840152606084015191508082111561223e57600080fd5b61224a85838601611e16565b606084015261225b60808501611eda565b608084015261226c60a08501611fdf565b60a084015261227d60c08501611eda565b60c084015260e084015191508082111561229657600080fd5b506122a3848285016120e4565b60e0830152506101006122b884828501611fea565b9082015292915050565b600082601f8301126122d357600080fd5b815160206122e3611c6f836120c0565b82815260a0928302850182019282820191908785111561230257600080fd5b8387015b858110156123865781818a03121561231e5760008081fd5b612326611b2a565b815161233181611cca565b815281860151612340816114ca565b818701526040612351838201611eda565b908201526060612362838201611eda565b90820152608082810151612375816114ca565b908201528452928401928101612306565b5090979650505050505050565b600082601f8301126123a457600080fd5b815160206123b4611c6f836120c0565b82815260c092830285018201928282019190878511156123d357600080fd5b8387015b858110156123865781818a0312156123ef5760008081fd5b6123f7611b9a565b815161240281611cca565b81528186015161241181611cca565b8187015260408281015161242481611cca565b9082015260608281015161243781611cca565b908201526080612448838201611eda565b9082015260a08281015161245b816114ca565b9082015284529284019281016123d7565b600082601f83011261247d57600080fd5b8151602061248d611c6f836120c0565b82815260c092830285018201928282019190878511156124ac57600080fd5b8387015b858110156123865781818a0312156124c85760008081fd5b6124d0611b9a565b81516124db81611cca565b8152818601516124ea81611cca565b818701526040828101516124fd81611cca565b90820152606082810151612510816114ca565b908201526080612521838201611eda565b9082015260a082810151612534816114ca565b9082015284529284019281016124b0565b6000610120828403121561255857600080fd5b612560611b76565b9050815167ffffffffffffffff8082111561257a57600080fd5b612586858386016121b1565b835261259460208501611fdf565b60208401526125a560408501611eda565b60408401526125b660608501611eda565b60608401526125c760808501611eda565b608084015260a08401519150808211156125e057600080fd5b6125ec858386016122c2565b60a084015260c084015191508082111561260557600080fd5b61261185838601612393565b60c084015260e084015191508082111561262a57600080fd5b6126368583860161246c565b60e08401526101009150818401518181111561265157600080fd5b61265d86828701611e16565b8385015250505092915050565b6000806040838503121561267d57600080fd5b61268683611da7565b9150602083015167ffffffffffffffff8111156126a257600080fd5b611e9f85828601612545565b600080600080608085870312156126c457600080fd5b6126cd85611da7565b9350602085015167ffffffffffffffff808211156126ea57600080fd5b6126f6888389016122c2565b9450604087015191508082111561270c57600080fd5b61271888838901612393565b9350606087015191508082111561272e57600080fd5b5061273b8782880161246c565b91505092959194509250565b6000806040838503121561275a57600080fd5b61276383611da7565b9150602083015167ffffffffffffffff8082111561278057600080fd5b908401906040828703121561279457600080fd5b6040516040810181811083821117156127af576127af611afb565b6040528251828111156127c157600080fd5b6127cd88828601612545565b8252506127dc60208401611da7565b60208201528093505050509250929050565b6000806040838503121561280157600080fd5b61280a83611da7565b9150602083015167ffffffffffffffff8082111561282757600080fd5b9084019060c0828703121561283b57600080fd5b612843611b9a565b82518281111561285257600080fd5b61285e88828601612545565b82525061286d60208401611fdf565b602082015261287e60408401611eea565b604082015261288f60608401611fdf565b60608201526080830151828111156128a657600080fd5b6128b288828601611e16565b6080830152506128c460a08401611eea565b60a08201528093505050509250929050565b600080604083850312156128e957600080fd5b6128f283611da7565b915061208d60208401611da756fea2646970667358221220dcb56a6405aff6b82769406951a83d14e73c94eaf08196c13f77d79ed6685c9364736f6c63430008090033",
  "linkReferences": {},
  "deployedLinkReferences": {}
}