{
  "_format": "hh-sol-artifact-1",
  "contractName": "PrecompileTestContract",
  "sourceName": "contracts/PrecompileTestContract.sol",
  "abi": [
    {
      "anonymous": false,
      "inputs": [
        {
          "indexed": false,
          "internalType": "bool",
          "name": "",
          "type": "bool"
        },
        {
          "indexed": false,
          "internalType": "bytes",
          "name": "",
          "type": "bytes"
        }
      ],
      "name": "CallResponseEvent",
      "type": "event"
    },
    {
      "inputs": [
        {
          "internalType": "address",
          "name": "token",
          "type": "address"
        },
        {
          "internalType": "address",
          "name": "owner",
          "type": "address"
        },
        {
          "internalType": "address",
          "name": "spender",
          "type": "address"
        }
      ],
      "name": "allowanceRedirect",
      "outputs": [
        {
          "internalType": "bytes",
          "name": "result",
          "type": "bytes"
        }
      ],
      "stateMutability": "nonpayable",
      "type": "function"
    },
    {
      "inputs": [
        {
          "internalType": "address",
          "name": "token",
          "type": "address"
        },
        {
          "internalType": "address",
          "name": "spender",
          "type": "address"
        },
        {
          "internalType": "uint256",
          "name": "amount",
          "type": "uint256"
        }
      ],
      "name": "approveRedirect",
      "outputs": [
        {
          "internalType": "bytes",
          "name": "result",
          "type": "bytes"
        }
      ],
      "stateMutability": "nonpayable",
      "type": "function"
    },
    {
      "inputs": [
        {
          "internalType": "address",
          "name": "token",
          "type": "address"
        },
        {
          "internalType": "address",
          "name": "account",
          "type": "address"
        }
      ],
      "name": "balanceOfRedirect",
      "outputs": [
        {
          "internalType": "bytes",
          "name": "result",
          "type": "bytes"
        }
      ],
      "stateMutability": "nonpayable",
      "type": "function"
    },
    {
      "inputs": [
        {
          "internalType": "address",
          "name": "token",
          "type": "address"
        },
        {
          "internalType": "int64",
          "name": "amount",
          "type": "int64"
        },
        {
          "internalType": "int64[]",
          "name": "serialNumbers",
          "type": "int64[]"
        },
        {
          "internalType": "address",
          "name": "treasury",
          "type": "address"
        }
      ],
      "name": "burnTokenGetTotalSupplyAndBalanceOfTreasury",
      "outputs": [
        {
          "internalType": "uint256",
          "name": "",
          "type": "uint256"
        },
        {
          "internalType": "uint256",
          "name": "",
          "type": "uint256"
        },
        {
          "internalType": "int256",
          "name": "",
          "type": "int256"
        },
        {
          "internalType": "int256",
          "name": "",
          "type": "int256"
        }
      ],
      "stateMutability": "nonpayable",
      "type": "function"
    },
    {
      "inputs": [
        {
          "internalType": "address",
          "name": "token",
          "type": "address"
        }
      ],
      "name": "decimalsRedirect",
      "outputs": [
        {
          "internalType": "bytes",
          "name": "result",
          "type": "bytes"
        }
      ],
      "stateMutability": "nonpayable",
      "type": "function"
    },
    {
      "inputs": [
        {
          "internalType": "address",
          "name": "token",
          "type": "address"
        },
        {
          "internalType": "address",
          "name": "account",
          "type": "address"
        }
      ],
      "name": "freezeTokenGetFreezeStatusUnfreezeGetFreezeStatus",
      "outputs": [
        {
          "internalType": "bool",
          "name": "",
          "type": "bool"
        },
        {
          "internalType": "bool",
          "name": "",
          "type": "bool"
        }
      ],
      "stateMutability": "nonpayable",
      "type": "function"
    },
    {
      "inputs": [
        {
          "internalType": "address",
          "name": "token",
          "type": "address"
        },
        {
          "internalType": "uint256",
          "name": "tokenId",
          "type": "uint256"
        }
      ],
      "name": "getApprovedRedirect",
      "outputs": [
        {
          "internalType": "bytes",
          "name": "result",
          "type": "bytes"
        }
      ],
      "stateMutability": "nonpayable",
      "type": "function"
    },
    {
      "inputs": [
        {
          "internalType": "address",
          "name": "token",
          "type": "address"
        }
      ],
      "name": "getCustomFeesForToken",
      "outputs": [
        {
          "components": [
            {
              "internalType": "int64",
              "name": "amount",
              "type": "int64"
            },
            {
              "internalType": "address",
              "name": "tokenId",
              "type": "address"
            },
            {
              "internalType": "bool",
              "name": "useHbarsForPayment",
              "type": "bool"
            },
            {
              "internalType": "bool",
              "name": "useCurrentTokenForPayment",
              "type": "bool"
            },
            {
              "internalType": "address",
              "name": "feeCollector",
              "type": "address"
            }
          ],
          "internalType": "struct IHederaTokenService.FixedFee[]",
          "name": "fixedFees",
          "type": "tuple[]"
        },
        {
          "components": [
            {
              "internalType": "int64",
              "name": "numerator",
              "type": "int64"
            },
            {
              "internalType": "int64",
              "name": "denominator",
              "type": "int64"
            },
            {
              "internalType": "int64",
              "name": "minimumAmount",
              "type": "int64"
            },
            {
              "internalType": "int64",
              "name": "maximumAmount",
              "type": "int64"
            },
            {
              "internalType": "bool",
              "name": "netOfTransfers",
              "type": "bool"
            },
            {
              "internalType": "address",
              "name": "feeCollector",
              "type": "address"
            }
          ],
          "internalType": "struct IHederaTokenService.FractionalFee[]",
          "name": "fractionalFees",
          "type": "tuple[]"
        },
        {
          "components": [
            {
              "internalType": "int64",
              "name": "numerator",
              "type": "int64"
            },
            {
              "internalType": "int64",
              "name": "denominator",
              "type": "int64"
            },
            {
              "internalType": "int64",
              "name": "amount",
              "type": "int64"
            },
            {
              "internalType": "address",
              "name": "tokenId",
              "type": "address"
            },
            {
              "internalType": "bool",
              "name": "useHbarsForPayment",
              "type": "bool"
            },
            {
              "internalType": "address",
              "name": "feeCollector",
              "type": "address"
            }
          ],
          "internalType": "struct IHederaTokenService.RoyaltyFee[]",
          "name": "royaltyFees",
          "type": "tuple[]"
        }
      ],
      "stateMutability": "nonpayable",
      "type": "function"
    },
    {
      "inputs": [
        {
          "internalType": "address",
          "name": "token",
          "type": "address"
        }
      ],
      "name": "getExpiryInfoForToken",
      "outputs": [
        {
          "components": [
            {
              "internalType": "int64",
              "name": "second",
              "type": "int64"
            },
            {
              "internalType": "address",
              "name": "autoRenewAccount",
              "type": "address"
            },
            {
              "internalType": "int64",
              "name": "autoRenewPeriod",
              "type": "int64"
            }
          ],
          "internalType": "struct IHederaTokenService.Expiry",
          "name": "expiry",
          "type": "tuple"
        }
      ],
      "stateMutability": "nonpayable",
      "type": "function"
    },
    {
      "inputs": [
        {
          "internalType": "address",
          "name": "token",
          "type": "address"
        }
      ],
      "name": "getInformationForFungibleToken",
      "outputs": [
        {
          "components": [
            {
              "components": [
                {
                  "components": [
                    {
                      "internalType": "string",
                      "name": "name",
                      "type": "string"
                    },
                    {
                      "internalType": "string",
                      "name": "symbol",
                      "type": "string"
                    },
                    {
                      "internalType": "address",
                      "name": "treasury",
                      "type": "address"
                    },
                    {
                      "internalType": "string",
                      "name": "memo",
                      "type": "string"
                    },
                    {
                      "internalType": "bool",
                      "name": "tokenSupplyType",
                      "type": "bool"
                    },
                    {
                      "internalType": "int64",
                      "name": "maxSupply",
                      "type": "int64"
                    },
                    {
                      "internalType": "bool",
                      "name": "freezeDefault",
                      "type": "bool"
                    },
                    {
                      "components": [
                        {
                          "internalType": "uint256",
                          "name": "keyType",
                          "type": "uint256"
                        },
                        {
                          "components": [
                            {
                              "internalType": "bool",
                              "name": "inheritAccountKey",
                              "type": "bool"
                            },
                            {
                              "internalType": "address",
                              "name": "contractId",
                              "type": "address"
                            },
                            {
                              "internalType": "bytes",
                              "name": "ed25519",
                              "type": "bytes"
                            },
                            {
                              "internalType": "bytes",
                              "name": "ECDSA_secp256k1",
                              "type": "bytes"
                            },
                            {
                              "internalType": "address",
                              "name": "delegatableContractId",
                              "type": "address"
                            }
                          ],
                          "internalType": "struct IHederaTokenService.KeyValue",
                          "name": "key",
                          "type": "tuple"
                        }
                      ],
                      "internalType": "struct IHederaTokenService.TokenKey[]",
                      "name": "tokenKeys",
                      "type": "tuple[]"
                    },
                    {
                      "components": [
                        {
                          "internalType": "int64",
                          "name": "second",
                          "type": "int64"
                        },
                        {
                          "internalType": "address",
                          "name": "autoRenewAccount",
                          "type": "address"
                        },
                        {
                          "internalType": "int64",
                          "name": "autoRenewPeriod",
                          "type": "int64"
                        }
                      ],
                      "internalType": "struct IHederaTokenService.Expiry",
                      "name": "expiry",
                      "type": "tuple"
                    }
                  ],
                  "internalType": "struct IHederaTokenService.HederaToken",
                  "name": "token",
                  "type": "tuple"
                },
                {
                  "internalType": "int64",
                  "name": "totalSupply",
                  "type": "int64"
                },
                {
                  "internalType": "bool",
                  "name": "deleted",
                  "type": "bool"
                },
                {
                  "internalType": "bool",
                  "name": "defaultKycStatus",
                  "type": "bool"
                },
                {
                  "internalType": "bool",
                  "name": "pauseStatus",
                  "type": "bool"
                },
                {
                  "components": [
                    {
                      "internalType": "int64",
                      "name": "amount",
                      "type": "int64"
                    },
                    {
                      "internalType": "address",
                      "name": "tokenId",
                      "type": "address"
                    },
                    {
                      "internalType": "bool",
                      "name": "useHbarsForPayment",
                      "type": "bool"
                    },
                    {
                      "internalType": "bool",
                      "name": "useCurrentTokenForPayment",
                      "type": "bool"
                    },
                    {
                      "internalType": "address",
                      "name": "feeCollector",
                      "type": "address"
                    }
                  ],
                  "internalType": "struct IHederaTokenService.FixedFee[]",
                  "name": "fixedFees",
                  "type": "tuple[]"
                },
                {
                  "components": [
                    {
                      "internalType": "int64",
                      "name": "numerator",
                      "type": "int64"
                    },
                    {
                      "internalType": "int64",
                      "name": "denominator",
                      "type": "int64"
                    },
                    {
                      "internalType": "int64",
                      "name": "minimumAmount",
                      "type": "int64"
                    },
                    {
                      "internalType": "int64",
                      "name": "maximumAmount",
                      "type": "int64"
                    },
                    {
                      "internalType": "bool",
                      "name": "netOfTransfers",
                      "type": "bool"
                    },
                    {
                      "internalType": "address",
                      "name": "feeCollector",
                      "type": "address"
                    }
                  ],
                  "internalType": "struct IHederaTokenService.FractionalFee[]",
                  "name": "fractionalFees",
                  "type": "tuple[]"
                },
                {
                  "components": [
                    {
                      "internalType": "int64",
                      "name": "numerator",
                      "type": "int64"
                    },
                    {
                      "internalType": "int64",
                      "name": "denominator",
                      "type": "int64"
                    },
                    {
                      "internalType": "int64",
                      "name": "amount",
                      "type": "int64"
                    },
                    {
                      "internalType": "address",
                      "name": "tokenId",
                      "type": "address"
                    },
                    {
                      "internalType": "bool",
                      "name": "useHbarsForPayment",
                      "type": "bool"
                    },
                    {
                      "internalType": "address",
                      "name": "feeCollector",
                      "type": "address"
                    }
                  ],
                  "internalType": "struct IHederaTokenService.RoyaltyFee[]",
                  "name": "royaltyFees",
                  "type": "tuple[]"
                },
                {
                  "internalType": "string",
                  "name": "ledgerId",
                  "type": "string"
                }
              ],
              "internalType": "struct IHederaTokenService.TokenInfo",
              "name": "tokenInfo",
              "type": "tuple"
            },
            {
              "internalType": "int32",
              "name": "decimals",
              "type": "int32"
            }
          ],
          "internalType": "struct IHederaTokenService.FungibleTokenInfo",
          "name": "fungibleTokenInfo",
          "type": "tuple"
        }
      ],
      "stateMutability": "nonpayable",
      "type": "function"
    },
    {
      "inputs": [
        {
          "internalType": "address",
          "name": "token",
          "type": "address"
        },
        {
          "internalType": "int64",
          "name": "serialNumber",
          "type": "int64"
        }
      ],
      "name": "getInformationForNonFungibleToken",
      "outputs": [
        {
          "components": [
            {
              "components": [
                {
                  "components": [
                    {
                      "internalType": "string",
                      "name": "name",
                      "type": "string"
                    },
                    {
                      "internalType": "string",
                      "name": "symbol",
                      "type": "string"
                    },
                    {
                      "internalType": "address",
                      "name": "treasury",
                      "type": "address"
                    },
                    {
                      "internalType": "string",
                      "name": "memo",
                      "type": "string"
                    },
                    {
                      "internalType": "bool",
                      "name": "tokenSupplyType",
                      "type": "bool"
                    },
                    {
                      "internalType": "int64",
                      "name": "maxSupply",
                      "type": "int64"
                    },
                    {
                      "internalType": "bool",
                      "name": "freezeDefault",
                      "type": "bool"
                    },
                    {
                      "components": [
                        {
                          "internalType": "uint256",
                          "name": "keyType",
                          "type": "uint256"
                        },
                        {
                          "components": [
                            {
                              "internalType": "bool",
                              "name": "inheritAccountKey",
                              "type": "bool"
                            },
                            {
                              "internalType": "address",
                              "name": "contractId",
                              "type": "address"
                            },
                            {
                              "internalType": "bytes",
                              "name": "ed25519",
                              "type": "bytes"
                            },
                            {
                              "internalType": "bytes",
                              "name": "ECDSA_secp256k1",
                              "type": "bytes"
                            },
                            {
                              "internalType": "address",
                              "name": "delegatableContractId",
                              "type": "address"
                            }
                          ],
                          "internalType": "struct IHederaTokenService.KeyValue",
                          "name": "key",
                          "type": "tuple"
                        }
                      ],
                      "internalType": "struct IHederaTokenService.TokenKey[]",
                      "name": "tokenKeys",
                      "type": "tuple[]"
                    },
                    {
                      "components": [
                        {
                          "internalType": "int64",
                          "name": "second",
                          "type": "int64"
                        },
                        {
                          "internalType": "address",
                          "name": "autoRenewAccount",
                          "type": "address"
                        },
                        {
                          "internalType": "int64",
                          "name": "autoRenewPeriod",
                          "type": "int64"
                        }
                      ],
                      "internalType": "struct IHederaTokenService.Expiry",
                      "name": "expiry",
                      "type": "tuple"
                    }
                  ],
                  "internalType": "struct IHederaTokenService.HederaToken",
                  "name": "token",
                  "type": "tuple"
                },
                {
                  "internalType": "int64",
                  "name": "totalSupply",
                  "type": "int64"
                },
                {
                  "internalType": "bool",
                  "name": "deleted",
                  "type": "bool"
                },
                {
                  "internalType": "bool",
                  "name": "defaultKycStatus",
                  "type": "bool"
                },
                {
                  "internalType": "bool",
                  "name": "pauseStatus",
                  "type": "bool"
                },
                {
                  "components": [
                    {
                      "internalType": "int64",
                      "name": "amount",
                      "type": "int64"
                    },
                    {
                      "internalType": "address",
                      "name": "tokenId",
                      "type": "address"
                    },
                    {
                      "internalType": "bool",
                      "name": "useHbarsForPayment",
                      "type": "bool"
                    },
                    {
                      "internalType": "bool",
                      "name": "useCurrentTokenForPayment",
                      "type": "bool"
                    },
                    {
                      "internalType": "address",
                      "name": "feeCollector",
                      "type": "address"
                    }
                  ],
                  "internalType": "struct IHederaTokenService.FixedFee[]",
                  "name": "fixedFees",
                  "type": "tuple[]"
                },
                {
                  "components": [
                    {
                      "internalType": "int64",
                      "name": "numerator",
                      "type": "int64"
                    },
                    {
                      "internalType": "int64",
                      "name": "denominator",
                      "type": "int64"
                    },
                    {
                      "internalType": "int64",
                      "name": "minimumAmount",
                      "type": "int64"
                    },
                    {
                      "internalType": "int64",
                      "name": "maximumAmount",
                      "type": "int64"
                    },
                    {
                      "internalType": "bool",
                      "name": "netOfTransfers",
                      "type": "bool"
                    },
                    {
                      "internalType": "address",
                      "name": "feeCollector",
                      "type": "address"
                    }
                  ],
                  "internalType": "struct IHederaTokenService.FractionalFee[]",
                  "name": "fractionalFees",
                  "type": "tuple[]"
                },
                {
                  "components": [
                    {
                      "internalType": "int64",
                      "name": "numerator",
                      "type": "int64"
                    },
                    {
                      "internalType": "int64",
                      "name": "denominator",
                      "type": "int64"
                    },
                    {
                      "internalType": "int64",
                      "name": "amount",
                      "type": "int64"
                    },
                    {
                      "internalType": "address",
                      "name": "tokenId",
                      "type": "address"
                    },
                    {
                      "internalType": "bool",
                      "name": "useHbarsForPayment",
                      "type": "bool"
                    },
                    {
                      "internalType": "address",
                      "name": "feeCollector",
                      "type": "address"
                    }
                  ],
                  "internalType": "struct IHederaTokenService.RoyaltyFee[]",
                  "name": "royaltyFees",
                  "type": "tuple[]"
                },
                {
                  "internalType": "string",
                  "name": "ledgerId",
                  "type": "string"
                }
              ],
              "internalType": "struct IHederaTokenService.TokenInfo",
              "name": "tokenInfo",
              "type": "tuple"
            },
            {
              "internalType": "int64",
              "name": "serialNumber",
              "type": "int64"
            },
            {
              "internalType": "address",
              "name": "ownerId",
              "type": "address"
            },
            {
              "internalType": "int64",
              "name": "creationTime",
              "type": "int64"
            },
            {
              "internalType": "bytes",
              "name": "metadata",
              "type": "bytes"
            },
            {
              "internalType": "address",
              "name": "spenderId",
              "type": "address"
            }
          ],
          "internalType": "struct IHederaTokenService.NonFungibleTokenInfo",
          "name": "nonFungibleTokenInfo",
          "type": "tuple"
        }
      ],
      "stateMutability": "nonpayable",
      "type": "function"
    },
    {
      "inputs": [
        {
          "internalType": "address",
          "name": "token",
          "type": "address"
        }
      ],
      "name": "getInformationForToken",
      "outputs": [
        {
          "components": [
            {
              "components": [
                {
                  "internalType": "string",
                  "name": "name",
                  "type": "string"
                },
                {
                  "internalType": "string",
                  "name": "symbol",
                  "type": "string"
                },
                {
                  "internalType": "address",
                  "name": "treasury",
                  "type": "address"
                },
                {
                  "internalType": "string",
                  "name": "memo",
                  "type": "string"
                },
                {
                  "internalType": "bool",
                  "name": "tokenSupplyType",
                  "type": "bool"
                },
                {
                  "internalType": "int64",
                  "name": "maxSupply",
                  "type": "int64"
                },
                {
                  "internalType": "bool",
                  "name": "freezeDefault",
                  "type": "bool"
                },
                {
                  "components": [
                    {
                      "internalType": "uint256",
                      "name": "keyType",
                      "type": "uint256"
                    },
                    {
                      "components": [
                        {
                          "internalType": "bool",
                          "name": "inheritAccountKey",
                          "type": "bool"
                        },
                        {
                          "internalType": "address",
                          "name": "contractId",
                          "type": "address"
                        },
                        {
                          "internalType": "bytes",
                          "name": "ed25519",
                          "type": "bytes"
                        },
                        {
                          "internalType": "bytes",
                          "name": "ECDSA_secp256k1",
                          "type": "bytes"
                        },
                        {
                          "internalType": "address",
                          "name": "delegatableContractId",
                          "type": "address"
                        }
                      ],
                      "internalType": "struct IHederaTokenService.KeyValue",
                      "name": "key",
                      "type": "tuple"
                    }
                  ],
                  "internalType": "struct IHederaTokenService.TokenKey[]",
                  "name": "tokenKeys",
                  "type": "tuple[]"
                },
                {
                  "components": [
                    {
                      "internalType": "int64",
                      "name": "second",
                      "type": "int64"
                    },
                    {
                      "internalType": "address",
                      "name": "autoRenewAccount",
                      "type": "address"
                    },
                    {
                      "internalType": "int64",
                      "name": "autoRenewPeriod",
                      "type": "int64"
                    }
                  ],
                  "internalType": "struct IHederaTokenService.Expiry",
                  "name": "expiry",
                  "type": "tuple"
                }
              ],
              "internalType": "struct IHederaTokenService.HederaToken",
              "name": "token",
              "type": "tuple"
            },
            {
              "internalType": "int64",
              "name": "totalSupply",
              "type": "int64"
            },
            {
              "internalType": "bool",
              "name": "deleted",
              "type": "bool"
            },
            {
              "internalType": "bool",
              "name": "defaultKycStatus",
              "type": "bool"
            },
            {
              "internalType": "bool",
              "name": "pauseStatus",
              "type": "bool"
            },
            {
              "components": [
                {
                  "internalType": "int64",
                  "name": "amount",
                  "type": "int64"
                },
                {
                  "internalType": "address",
                  "name": "tokenId",
                  "type": "address"
                },
                {
                  "internalType": "bool",
                  "name": "useHbarsForPayment",
                  "type": "bool"
                },
                {
                  "internalType": "bool",
                  "name": "useCurrentTokenForPayment",
                  "type": "bool"
                },
                {
                  "internalType": "address",
                  "name": "feeCollector",
                  "type": "address"
                }
              ],
              "internalType": "struct IHederaTokenService.FixedFee[]",
              "name": "fixedFees",
              "type": "tuple[]"
            },
            {
              "components": [
                {
                  "internalType": "int64",
                  "name": "numerator",
                  "type": "int64"
                },
                {
                  "internalType": "int64",
                  "name": "denominator",
                  "type": "int64"
                },
                {
                  "internalType": "int64",
                  "name": "minimumAmount",
                  "type": "int64"
                },
                {
                  "internalType": "int64",
                  "name": "maximumAmount",
                  "type": "int64"
                },
                {
                  "internalType": "bool",
                  "name": "netOfTransfers",
                  "type": "bool"
                },
                {
                  "internalType": "address",
                  "name": "feeCollector",
                  "type": "address"
                }
              ],
              "internalType": "struct IHederaTokenService.FractionalFee[]",
              "name": "fractionalFees",
              "type": "tuple[]"
            },
            {
              "components": [
                {
                  "internalType": "int64",
                  "name": "numerator",
                  "type": "int64"
                },
                {
                  "internalType": "int64",
                  "name": "denominator",
                  "type": "int64"
                },
                {
                  "internalType": "int64",
                  "name": "amount",
                  "type": "int64"
                },
                {
                  "internalType": "address",
                  "name": "tokenId",
                  "type": "address"
                },
                {
                  "internalType": "bool",
                  "name": "useHbarsForPayment",
                  "type": "bool"
                },
                {
                  "internalType": "address",
                  "name": "feeCollector",
                  "type": "address"
                }
              ],
              "internalType": "struct IHederaTokenService.RoyaltyFee[]",
              "name": "royaltyFees",
              "type": "tuple[]"
            },
            {
              "internalType": "string",
              "name": "ledgerId",
              "type": "string"
            }
          ],
          "internalType": "struct IHederaTokenService.TokenInfo",
          "name": "tokenInfo",
          "type": "tuple"
        }
      ],
      "stateMutability": "nonpayable",
      "type": "function"
    },
    {
      "inputs": [
        {
          "internalType": "address",
          "name": "token",
          "type": "address"
        },
        {
          "internalType": "uint256",
          "name": "serialNo",
          "type": "uint256"
        }
      ],
      "name": "getOwnerOfRedirect",
      "outputs": [
        {
          "internalType": "bytes",
          "name": "result",
          "type": "bytes"
        }
      ],
      "stateMutability": "nonpayable",
      "type": "function"
    },
    {
      "inputs": [
        {
          "internalType": "address",
          "name": "token",
          "type": "address"
        }
      ],
      "name": "getTokenDefaultFreeze",
      "outputs": [
        {
          "internalType": "bool",
          "name": "",
          "type": "bool"
        }
      ],
      "stateMutability": "nonpayable",
      "type": "function"
    },
    {
      "inputs": [
        {
          "internalType": "address",
          "name": "token",
          "type": "address"
        }
      ],
      "name": "getTokenDefaultKyc",
      "outputs": [
        {
          "internalType": "bool",
          "name": "",
          "type": "bool"
        }
      ],
      "stateMutability": "nonpayable",
      "type": "function"
    },
    {
      "inputs": [
        {
          "internalType": "address",
          "name": "token",
          "type": "address"
        },
        {
          "internalType": "uint256",
          "name": "keyType",
          "type": "uint256"
        }
      ],
      "name": "getTokenKeyPublic",
      "outputs": [
        {
          "components": [
            {
              "internalType": "bool",
              "name": "inheritAccountKey",
              "type": "bool"
            },
            {
              "internalType": "address",
              "name": "contractId",
              "type": "address"
            },
            {
              "internalType": "bytes",
              "name": "ed25519",
              "type": "bytes"
            },
            {
              "internalType": "bytes",
              "name": "ECDSA_secp256k1",
              "type": "bytes"
            },
            {
              "internalType": "address",
              "name": "delegatableContractId",
              "type": "address"
            }
          ],
          "internalType": "struct IHederaTokenService.KeyValue",
          "name": "",
          "type": "tuple"
        }
      ],
      "stateMutability": "nonpayable",
      "type": "function"
    },
    {
      "inputs": [
        {
          "internalType": "address",
          "name": "token",
          "type": "address"
        }
      ],
      "name": "getType",
      "outputs": [
        {
          "internalType": "int256",
          "name": "",
          "type": "int256"
        }
      ],
      "stateMutability": "nonpayable",
      "type": "function"
    },
    {
      "inputs": [
        {
          "internalType": "address",
          "name": "token",
          "type": "address"
        },
        {
          "internalType": "address",
          "name": "owner",
          "type": "address"
        },
        {
          "internalType": "address",
          "name": "operator",
          "type": "address"
        }
      ],
      "name": "isApprovedForAllRedirect",
      "outputs": [
        {
          "internalType": "bytes",
          "name": "result",
          "type": "bytes"
        }
      ],
      "stateMutability": "nonpayable",
      "type": "function"
    },
    {
      "inputs": [
        {
          "internalType": "address",
          "name": "token",
          "type": "address"
        },
        {
          "internalType": "address",
          "name": "account",
          "type": "address"
        }
      ],
      "name": "isKycGranted",
      "outputs": [
        {
          "internalType": "bool",
          "name": "",
          "type": "bool"
        }
      ],
      "stateMutability": "nonpayable",
      "type": "function"
    },
    {
      "inputs": [
        {
          "internalType": "address",
          "name": "token",
          "type": "address"
        }
      ],
      "name": "isTokenAddress",
      "outputs": [
        {
          "internalType": "bool",
          "name": "",
          "type": "bool"
        }
      ],
      "stateMutability": "nonpayable",
      "type": "function"
    },
    {
      "inputs": [
        {
          "internalType": "address",
          "name": "token",
          "type": "address"
        },
        {
          "internalType": "address",
          "name": "account",
          "type": "address"
        }
      ],
      "name": "isTokenFrozen",
      "outputs": [
        {
          "internalType": "bool",
          "name": "",
          "type": "bool"
        }
      ],
      "stateMutability": "nonpayable",
      "type": "function"
    },
    {
      "inputs": [
        {
          "internalType": "address",
          "name": "token",
          "type": "address"
        },
        {
          "internalType": "int64",
          "name": "amount",
          "type": "int64"
        },
        {
          "internalType": "bytes[]",
          "name": "metadata",
          "type": "bytes[]"
        },
        {
          "internalType": "address",
          "name": "treasury",
          "type": "address"
        }
      ],
      "name": "mintTokenGetTotalSupplyAndBalanceOfTreasury",
      "outputs": [
        {
          "internalType": "uint256",
          "name": "",
          "type": "uint256"
        },
        {
          "internalType": "uint256",
          "name": "",
          "type": "uint256"
        },
        {
          "internalType": "int256",
          "name": "",
          "type": "int256"
        },
        {
          "internalType": "int256",
          "name": "",
          "type": "int256"
        }
      ],
      "stateMutability": "nonpayable",
      "type": "function"
    },
    {
      "inputs": [
        {
          "internalType": "address",
          "name": "token",
          "type": "address"
        }
      ],
      "name": "nameNFTRedirect",
      "outputs": [
        {
          "internalType": "bytes",
          "name": "result",
          "type": "bytes"
        }
      ],
      "stateMutability": "nonpayable",
      "type": "function"
    },
    {
      "inputs": [
        {
          "internalType": "address",
          "name": "token",
          "type": "address"
        }
      ],
      "name": "nameRedirect",
      "outputs": [
        {
          "internalType": "bytes",
          "name": "result",
          "type": "bytes"
        }
      ],
      "stateMutability": "nonpayable",
      "type": "function"
    },
    {
      "inputs": [
        {
          "internalType": "address",
          "name": "token",
          "type": "address"
        }
      ],
      "name": "pauseTokenGetPauseStatusUnpauseGetPauseStatus",
      "outputs": [
        {
          "internalType": "bool",
          "name": "",
          "type": "bool"
        },
        {
          "internalType": "bool",
          "name": "",
          "type": "bool"
        }
      ],
      "stateMutability": "nonpayable",
      "type": "function"
    },
    {
      "inputs": [
        {
          "internalType": "address",
          "name": "token",
          "type": "address"
        },
        {
          "internalType": "bytes",
          "name": "encodedFunctionSelector",
          "type": "bytes"
        }
      ],
      "name": "redirectForToken",
      "outputs": [
        {
          "internalType": "int256",
          "name": "responseCode",
          "type": "int256"
        },
        {
          "internalType": "bytes",
          "name": "response",
          "type": "bytes"
        }
      ],
      "stateMutability": "nonpayable",
      "type": "function"
    },
    {
      "inputs": [
        {
          "internalType": "address",
          "name": "token",
          "type": "address"
        },
        {
          "internalType": "address",
          "name": "operator",
          "type": "address"
        },
        {
          "internalType": "bool",
          "name": "approved",
          "type": "bool"
        }
      ],
      "name": "setApprovalForAllRedirect",
      "outputs": [
        {
          "internalType": "bytes",
          "name": "result",
          "type": "bytes"
        }
      ],
      "stateMutability": "nonpayable",
      "type": "function"
    },
    {
      "inputs": [
        {
          "internalType": "address",
          "name": "token",
          "type": "address"
        }
      ],
      "name": "symbolNFTRedirect",
      "outputs": [
        {
          "internalType": "bytes",
          "name": "result",
          "type": "bytes"
        }
      ],
      "stateMutability": "nonpayable",
      "type": "function"
    },
    {
      "inputs": [
        {
          "internalType": "address",
          "name": "token",
          "type": "address"
        }
      ],
      "name": "symbolRedirect",
      "outputs": [
        {
          "internalType": "bytes",
          "name": "result",
          "type": "bytes"
        }
      ],
      "stateMutability": "nonpayable",
      "type": "function"
    },
    {
      "inputs": [
        {
          "internalType": "address",
          "name": "token",
          "type": "address"
        },
        {
          "internalType": "uint256",
          "name": "tokenId",
          "type": "uint256"
        }
      ],
      "name": "tokenURIRedirect",
      "outputs": [
        {
          "internalType": "bytes",
          "name": "result",
          "type": "bytes"
        }
      ],
      "stateMutability": "nonpayable",
      "type": "function"
    },
    {
      "inputs": [
        {
          "internalType": "address",
          "name": "token",
          "type": "address"
        }
      ],
      "name": "totalSupplyRedirect",
      "outputs": [
        {
          "internalType": "bytes",
          "name": "result",
          "type": "bytes"
        }
      ],
      "stateMutability": "nonpayable",
      "type": "function"
    },
    {
      "inputs": [
        {
          "internalType": "address",
          "name": "token",
          "type": "address"
        },
        {
          "internalType": "address",
          "name": "from",
          "type": "address"
        },
        {
          "internalType": "address",
          "name": "to",
          "type": "address"
        },
        {
          "internalType": "uint256",
          "name": "amount",
          "type": "uint256"
        }
      ],
      "name": "transferFrom",
      "outputs": [
        {
          "internalType": "int64",
          "name": "responseCode",
          "type": "int64"
        }
      ],
      "stateMutability": "nonpayable",
      "type": "function"
    },
    {
      "inputs": [
        {
          "internalType": "address",
          "name": "token",
          "type": "address"
        },
        {
          "internalType": "address",
          "name": "from",
          "type": "address"
        },
        {
          "internalType": "address",
          "name": "to",
          "type": "address"
        },
        {
          "internalType": "uint256",
          "name": "serialNumber",
          "type": "uint256"
        }
      ],
      "name": "transferFromNFT",
      "outputs": [
        {
          "internalType": "int64",
          "name": "responseCode",
          "type": "int64"
        }
      ],
      "stateMutability": "nonpayable",
      "type": "function"
    },
    {
      "inputs": [
        {
          "internalType": "address",
          "name": "token",
          "type": "address"
        },
        {
          "internalType": "address",
          "name": "from",
          "type": "address"
        },
        {
          "internalType": "address",
          "name": "to",
          "type": "address"
        },
        {
          "internalType": "uint256",
          "name": "tokenId",
          "type": "uint256"
        }
      ],
      "name": "transferFromNFTRedirect",
      "outputs": [
        {
          "internalType": "bytes",
          "name": "result",
          "type": "bytes"
        }
      ],
      "stateMutability": "nonpayable",
      "type": "function"
    },
    {
      "inputs": [
        {
          "internalType": "address",
          "name": "token",
          "type": "address"
        },
        {
          "internalType": "address",
          "name": "sender",
          "type": "address"
        },
        {
          "internalType": "address",
          "name": "recipient",
          "type": "address"
        },
        {
          "internalType": "uint256",
          "name": "amount",
          "type": "uint256"
        }
      ],
      "name": "transferFromRedirect",
      "outputs": [
        {
          "internalType": "bytes",
          "name": "result",
          "type": "bytes"
        }
      ],
      "stateMutability": "nonpayable",
      "type": "function"
    },
    {
      "inputs": [
        {
          "internalType": "address",
          "name": "token",
          "type": "address"
        },
        {
          "internalType": "address",
          "name": "recipient",
          "type": "address"
        },
        {
          "internalType": "uint256",
          "name": "amount",
          "type": "uint256"
        }
      ],
      "name": "transferRedirect",
      "outputs": [
        {
          "internalType": "bytes",
          "name": "result",
          "type": "bytes"
        }
      ],
      "stateMutability": "nonpayable",
      "type": "function"
    },
    {
      "inputs": [
        {
          "internalType": "address",
          "name": "token",
          "type": "address"
        },
        {
          "internalType": "int64",
          "name": "amount",
          "type": "int64"
        },
        {
          "internalType": "int64[]",
          "name": "serialNumbers",
          "type": "int64[]"
        },
        {
          "internalType": "address",
          "name": "account",
          "type": "address"
        }
      ],
      "name": "wipeTokenGetTotalSupplyAndBalanceOfAccount",
      "outputs": [
        {
          "internalType": "uint256",
          "name": "",
          "type": "uint256"
        },
        {
          "internalType": "uint256",
          "name": "",
          "type": "uint256"
        },
        {
          "internalType": "int256",
          "name": "",
          "type": "int256"
        },
        {
          "internalType": "int256",
          "name": "",
          "type": "int256"
        }
      ],
      "stateMutability": "nonpayable",
      "type": "function"
    }
  ],
  "bytecode": "0x608060405234801561001057600080fd5b50614976806100206000396000f3fe608060405234801561001057600080fd5b50600436106102775760003560e01c806370a0636411610160578063bff9834f116100d8578063f1e3aea21161008c578063f68a81bb11610071578063f68a81bb146105a5578063fa5c2224146105b8578063fd4d1c26146105cb57600080fd5b8063f1e3aea214610571578063f429f19b1461058457600080fd5b8063d3f67d27116100bd578063d3f67d27146104ff578063ebe1e5fb1461054b578063efe60aeb1461055e57600080fd5b8063bff9834f14610538578063c0395467146104d957600080fd5b8063971f5a0b1161012f578063b132f49411610114578063b132f494146104ff578063b51f3cf514610512578063bc2fb00e1461052557600080fd5b8063971f5a0b146104d95780639b23d3d9146104ec57600080fd5b806370a063641461046957806385dec08e146104935780638e5e7996146104a6578063911ce425146104c657600080fd5b80633717ec98116101f3578063565ca6fa116101c25780635b391493116101a75780635b39149314610422578063618dc65e14610435578063622488631461045657600080fd5b8063565ca6fa146103ef57806359c16f5a1461040257600080fd5b80633717ec98146103875780633cc2322f1461038757806344f38bc81461039a5780634dc21f9f146103bc57600080fd5b806325004c1c1161024a578063319a87231161022f578063319a8723146103315780633232fc9f1461035457806335589a131461036757600080fd5b806325004c1c1461030b5780632b2f5c661461031e57600080fd5b8063045c5bfe1461027c57806315dacbea146102a55780631955de0b146102cb5780631de8edad146102eb575b600080fd5b61028f61028a366004613086565b6105de565b60405161029c919061312d565b60405180910390f35b6102b86102b3366004613140565b6106e7565b60405160079190910b815260200161029c565b6102de6102d9366004613191565b6107f4565b60405161029c9190613228565b6102fe6102f936600461323b565b610868565b60405161029c9190613258565b61028f61031936600461328c565b6108a8565b61028f61032c36600461323b565b610987565b61034461033f36600461323b565b610a47565b604051901515815260200161029c565b61028f610362366004613191565b610ad5565b61037a61037536600461323b565b610b05565b60405161029c9190613672565b61028f610395366004613140565b610b19565b6103ad6103a836600461323b565b610c1d565b60405161029c93929190613685565b6103cf6103ca3660046137e4565b610c4f565b60408051948552602085019390935291830152606082015260800161029c565b6103446103fd36600461328c565b610f89565b61041561041036600461323b565b610ff2565b60405161029c91906138bb565b61028f6104303660046138f0565b611006565b6104486104433660046139a9565b61105c565b60405161029c9291906139f9565b61028f610464366004613191565b61118a565b61047c61047736600461328c565b6111ba565b60408051921515835290151560208301520161029c565b61028f6104a136600461323b565b6113cf565b6104b96104b4366004613a1a565b6114e4565b60405161029c9190613a48565b61028f6104d4366004613acc565b6114f9565b61028f6104e736600461323b565b61154e565b6102b86104fa366004613140565b6115b8565b61028f61050d36600461323b565b611616565b61028f6105203660046138f0565b611680565b61034461053336600461328c565b6116d6565b61034461054636600461323b565b61173f565b6103cf610559366004613b0d565b6117a7565b61047c61056c36600461323b565b611994565b61028f61057f366004613acc565b611b75565b61059761059236600461323b565b611bca565b60405190815260200161029c565b6103cf6105b33660046137e4565b611c35565b61028f6105c6366004613191565b611f39565b6103446105d936600461323b565b611f69565b6040516001600160a01b038316602482015281151560448201526060906000908190309063618dc65e9088907fa22cb46500000000000000000000000000000000000000000000000000000000906064015b60408051601f198184030181529181526020820180516001600160e01b03166001600160e01b03199485161790525160e085901b90921682526106769291600401613beb565b600060405180830381600087803b15801561069057600080fd5b505af11580156106a4573d6000803e3d6000fd5b505050506040513d6000823e601f3d908101601f191682016040526106cc9190810190613c52565b9092509050601682146106de57600080fd5b95945050505050565b6040516001600160a01b0385811660248301528481166044830152831660648201526084810182905260009081908190610167907f15dacbea000000000000000000000000000000000000000000000000000000009060a4015b60408051601f198184030181529181526020820180516001600160e01b03166001600160e01b031990941693909317909252905161077f9190613c8f565b6000604051808303816000865af19150503d80600081146107bc576040519150601f19603f3d011682016040523d82523d6000602084013e6107c1565b606091505b5091509150816107d25760156107e6565b808060200190518101906107e69190613cbd565b60030b979650505050505050565b61083a6040518060a0016040528060001515815260200160006001600160a01b03168152602001606081526020016060815260200160006001600160a01b031681525090565b6000806108478585611fcc565b915060070b9150601660030b821461085e57600080fd5b9150505b92915050565b60408051606081018252600080825260208201819052918101829052908061088f84612129565b9092509050601682146108a157600080fd5b9392505050565b6040516001600160a01b03821660248201526060906000908190309063618dc65e9087906370a0823160e01b906044015b60408051601f198184030181529181526020820180516001600160e01b03166001600160e01b03199485161790525160e085901b909216825261091f9291600401613beb565b600060405180830381600087803b15801561093957600080fd5b505af115801561094d573d6000803e3d6000fd5b505050506040513d6000823e601f3d908101601f191682016040526109759190810190613c52565b90925090506016821461085e57600080fd5b6040805160048082526024820183526020820180516001600160e01b03167f313ce5670000000000000000000000000000000000000000000000000000000017905291516330c6e32f60e11b81526060926000928392309263618dc65e926109f192899201613beb565b600060405180830381600087803b158015610a0b57600080fd5b505af1158015610a1f573d6000803e3d6000fd5b505050506040513d6000823e601f3d908101601f1916820160405261088f9190810190613c52565b6000806000610a558461223a565b9092509050601682146108a15760405162461bcd60e51b815260206004820152602360248201527f676574546f6b656e44656661756c74467265657a65537461747573206661696c60448201527f656421000000000000000000000000000000000000000000000000000000000060648201526084015b60405180910390fd5b6060600080306001600160a01b031663618dc65e8663081812fc60e01b876040516024016108d991815260200190565b610b0d612f3e565b60008061088f84612337565b604080516001600160a01b03858116602483015284166044820152606480820184905282518083039091018152608490910182526020810180516001600160e01b03167f23b872dd0000000000000000000000000000000000000000000000000000000017905290516330c6e32f60e11b81526060916000918291309163618dc65e91610bab918b9190600401613beb565b600060405180830381600087803b158015610bc557600080fd5b505af1158015610bd9573d6000803e3d6000fd5b505050506040513d6000823e601f3d908101601f19168201604052610c019190810190613c52565b909250905060168214610c1357600080fd5b9695505050505050565b60608060606000610c2d85612420565b919650945092509050600781900b601614610c4757600080fd5b509193909250565b60008060008060008060008060008b60070b138015610c6d57508951155b15610cf2576040516370a0823160e01b81526001600160a01b038a811660048301528d16906370a082319060240160206040518083038186803b158015610cb357600080fd5b505afa158015610cc7573d6000803e3d6000fd5b505050506040513d601f19601f82011682018060405250810190610ceb9190613cd8565b9350610d6e565b6040516370a0823160e01b81526001600160a01b038a811660048301528d16906370a082319060240160206040518083038186803b158015610d3357600080fd5b505afa158015610d47573d6000803e3d6000fd5b505050506040513d601f19601f82011682018060405250810190610d6b9190613cd8565b93505b600080610d7a8e612337565b909250905060168214610df55760405162461bcd60e51b815260206004820152602960248201527f4661696c656420746f20726574726965766520746f6b656e20696e666f20626560448201527f666f7265206275726e00000000000000000000000000000000000000000000006064820152608401610acc565b806020015160070b9350610e0a8e8e8e612520565b60070b9350915060168214610e615760405162461bcd60e51b815260206004820152601460248201527f4661696c656420746f206275726e20746f6b656e0000000000000000000000006044820152606401610acc565b60008d60070b138015610e7357508b51155b15610ef9576040516370a0823160e01b81526001600160a01b038c811660048301528f16906370a08231906024015b60206040518083038186803b158015610eba57600080fd5b505afa158015610ece573d6000803e3d6000fd5b505050506040513d601f19601f82011682018060405250810190610ef29190613cd8565b9450610f75565b6040516370a0823160e01b81526001600160a01b038c811660048301528f16906370a082319060240160206040518083038186803b158015610f3a57600080fd5b505afa158015610f4e573d6000803e3d6000fd5b505050506040513d601f19601f82011682018060405250810190610f729190613cd8565b94505b50939c929b50909950975095505050505050565b6000806000610f9885856125f6565b915060070b9150601660030b821461085e5760405162461bcd60e51b815260206004820152601660248201527f546f6b656e20697346726f7a656e206661696c656421000000000000000000006044820152606401610acc565b610ffa612ff5565b60008061088f846126ea565b6040516001600160a01b038381166024830152821660448201526060906000908190309063618dc65e9088907fdd62ed3e0000000000000000000000000000000000000000000000000000000090606401610630565b600060606000806101676001600160a01b031663618dc65e60e01b878760405160240161108a929190613beb565b60408051601f198184030181529181526020820180516001600160e01b03166001600160e01b03199094169390931790925290516110c89190613c8f565b6000604051808303816000865af19150503d8060008114611105576040519150601f19603f3d011682016040523d82523d6000602084013e61110a565b606091505b50915091507f4af4780e06fe8cb9df64b0794fa6f01399af979175bb988e35e0e57e594567bc8282604051611140929190613cf1565b60405180910390a18161116457601560405180602001604052806000815250611178565b808060200190518101906111789190613d0c565b60039190910b97909650945050505050565b6060600080306001600160a01b031663618dc65e86636352211e60e01b876040516024016108d991815260200190565b60008060008060006111cc87876127d3565b60070b9050601681146112475760405162461bcd60e51b815260206004820152602660248201527f4661696c656420746f20667265657a6520746f6b656e20666f7220746865206160448201527f63636f756e7400000000000000000000000000000000000000000000000000006064820152608401610acc565b60008061125489896125f6565b915060070b9150601660030b82146112d45760405162461bcd60e51b815260206004820152602860248201527f4661696c656420746f20636865636b20667265657a6520737461747573206f6660448201527f206163636f756e740000000000000000000000000000000000000000000000006064820152608401610acc565b8094506112e189896128cf565b60070b9250601683146113365760405162461bcd60e51b815260206004820152601a60248201527f4661696c656420746f20756e667265657a65206163636f756e740000000000006044820152606401610acc565b61134089896125f6565b60079190910b92509050601682146113c05760405162461bcd60e51b815260206004820152602a60248201527f4661696c656420746f20636865636b20756e667265657a65207374617475732060448201527f6f66206163636f756e74000000000000000000000000000000000000000000006064820152608401610acc565b93989397509295505050505050565b6040805160048082526024820183526020820180516001600160e01b03167f18160ddd0000000000000000000000000000000000000000000000000000000017905291516330c6e32f60e11b81526060926000928392309263618dc65e9261143992899201613beb565b600060405180830381600087803b15801561145357600080fd5b505af1158015611467573d6000803e3d6000fd5b505050506040513d6000823e601f3d908101601f1916820160405261148f9190810190613c52565b9092509050601682146108a15760405162461bcd60e51b815260206004820152601560248201527f546f6b656e207265646972656374206661696c656400000000000000000000006044820152606401610acc565b6114ec613015565b600080610975858561291e565b6040516001600160a01b0383166024820152604481018290526060906000908190309063618dc65e9088907f095ea7b30000000000000000000000000000000000000000000000000000000090606401610630565b6040805160048082526024820183526020820180516001600160e01b03167f06fdde030000000000000000000000000000000000000000000000000000000017905291516330c6e32f60e11b81526060926000928392309263618dc65e926109f192899201613beb565b6040516001600160a01b0385811660248301528481166044830152831660648201526084810182905260009081908190610167907f9b23d3d9000000000000000000000000000000000000000000000000000000009060a401610741565b6040805160048082526024820183526020820180516001600160e01b03167f95d89b410000000000000000000000000000000000000000000000000000000017905291516330c6e32f60e11b81526060926000928392309263618dc65e926109f192899201613beb565b6040516001600160a01b038381166024830152821660448201526060906000908190309063618dc65e9088907fe985e9c50000000000000000000000000000000000000000000000000000000090606401610630565b60008060006116e58585612a11565b915060070b9150601660030b821461085e5760405162461bcd60e51b815260206004820152601360248201527f546f6b656e2069734b7963206661696c656421000000000000000000000000006044820152606401610acc565b600080600061174d84612a62565b915060070b9150601660030b82146108a15760405162461bcd60e51b815260206004820152601c60248201527f546f6b656e206973546f6b656e41646472657373206661696c656421000000006044820152606401610acc565b60008060008060008060008060008b60070b1380156117c557508951155b1561184a576040516370a0823160e01b81526001600160a01b038a811660048301528d16906370a082319060240160206040518083038186803b15801561180b57600080fd5b505afa15801561181f573d6000803e3d6000fd5b505050506040513d601f19601f820116820180604052508101906118439190613cd8565b93506118c6565b6040516370a0823160e01b81526001600160a01b038a811660048301528d16906370a082319060240160206040518083038186803b15801561188b57600080fd5b505afa15801561189f573d6000803e3d6000fd5b505050506040513d601f19601f820116820180604052508101906118c39190613cd8565b93505b6000806118d28e612337565b9092509050601682146119275760405162461bcd60e51b815260206004820152601d60248201527f4661696c656420746f20726574726965766520746f6b656e20696e666f0000006044820152606401610acc565b806020015160070b935061193c8e8e8e612aab565b5060070b9350915060168214610e615760405162461bcd60e51b815260206004820152601460248201527f4661696c656420746f206d696e7420746f6b656e0000000000000000000000006044820152606401610acc565b60008060008060006119a586612ba9565b9050601681146119f75760405162461bcd60e51b815260206004820152601560248201527f4661696c656420746f20706175736520746f6b656e00000000000000000000006044820152606401610acc565b600080611a0388612337565b909250905060168214611a7d5760405162461bcd60e51b8152602060048201526024808201527f4661696c656420746f2067657420746f6b656e20696e666f206166746572207060448201527f61757365000000000000000000000000000000000000000000000000000000006064820152608401610acc565b80608001519450611a8d88612c9c565b925060168314611adf5760405162461bcd60e51b815260206004820152601760248201527f4661696c656420746f20756e706175736520746f6b656e0000000000000000006044820152606401610acc565b611ae888612337565b909250905060168214611b635760405162461bcd60e51b815260206004820152602b60248201527f4661696c656420746f20726574726965766520746f6b656e20696e666f20616660448201527f74657220756e70617573650000000000000000000000000000000000000000006064820152608401610acc565b60800151939793965092945050505050565b6040516001600160a01b0383166024820152604481018290526060906000908190309063618dc65e9088907fa9059cbb0000000000000000000000000000000000000000000000000000000090606401610630565b6000806000611bd884612ce3565b60030b915060070b9150601660030b82146108a15760405162461bcd60e51b815260206004820152601c60248201527f546f6b656e20747970652061707072616973616c206661696c656421000000006044820152606401610acc565b60008080808080808060078b900b81128015611c5057508951155b15611cd5576040516370a0823160e01b81526001600160a01b038a811660048301528d16906370a082319060240160206040518083038186803b158015611c9657600080fd5b505afa158015611caa573d6000803e3d6000fd5b505050506040513d601f19601f82011682018060405250810190611cce9190613cd8565b9350611d51565b6040516370a0823160e01b81526001600160a01b038a811660048301528d16906370a082319060240160206040518083038186803b158015611d1657600080fd5b505afa158015611d2a573d6000803e3d6000fd5b505050506040513d601f19601f82011682018060405250810190611d4e9190613cd8565b93505b600080611d5d8e612337565b909250905060168214611dd85760405162461bcd60e51b815260206004820152602960248201527f4661696c656420746f20726574726965766520746f6b656e20696e666f20626560448201527f666f7265207769706500000000000000000000000000000000000000000000006064820152608401610acc565b806020015160070b935060008d60070b138015611df457508b51155b15611e0b57611e048e8c8f612dc0565b9150611e19565b611e168e8c8e612ec7565b91505b60168214611e695760405162461bcd60e51b815260206004820152601460248201527f4661696c656420746f207769706520746f6b656e0000000000000000000000006044820152606401610acc565b611e728e612337565b909250905060168214611eed5760405162461bcd60e51b815260206004820152602860248201527f4661696c656420746f20726574726965766520746f6b656e20696e666f20616660448201527f74657220776970650000000000000000000000000000000000000000000000006064820152608401610acc565b806020015160070b925060008d60070b138015610e7357508b51610ef9576040516370a0823160e01b81526001600160a01b038c811660048301528f16906370a0823190602401610ea2565b6060600080306001600160a01b031663618dc65e8663c87b56dd60e01b876040516024016108d991815260200190565b6000806000611f7784612ef5565b9092509050601682146108a15760405162461bcd60e51b815260206004820181905260248201527f676574546f6b656e44656661756c744b7963537461747573206661696c6564216044820152606401610acc565b6040805160a081018252600080825260208083018290526060838501819052808401526080830182905283516001600160a01b03871660248201526044808201879052855180830390910181526064909101855290810180516001600160e01b03167f3c4dd32e000000000000000000000000000000000000000000000000000000001790529251909283918291610167916120689190613c8f565b6000604051808303816000865af19150503d80600081146120a5576040519150601f19603f3d011682016040523d82523d6000602084013e6120aa565b606091505b50915091506120f56040518060a0016040528060001515815260200160006001600160a01b03168152602001606081526020016060815260200160006001600160a01b031681525090565b8261210257601581612116565b818060200190518101906121169190613e02565b60039190910b9890975095505050505050565b604080516060810182526000808252602080830182905282840182905283516001600160a01b038616602480830191909152855180830390910181526044909101855290810180516001600160e01b03167fd614cdb8000000000000000000000000000000000000000000000000000000001790529251909283918291610167916121b49190613c8f565b6000604051808303816000865af19150503d80600081146121f1576040519150601f19603f3d011682016040523d82523d6000602084013e6121f6565b606091505b50604080516060810182526000808252602082018190529181019190915291935091508261222657601581611178565b818060200190518101906111789190613ec9565b6040516001600160a01b0382166024820152600090819081908190610167907fa7daa18d00000000000000000000000000000000000000000000000000000000906044015b60408051601f198184030181529181526020820180516001600160e01b03166001600160e01b03199094169390931790925290516122bd9190613c8f565b6000604051808303816000865af19150503d80600081146122fa576040519150601f19603f3d011682016040523d82523d6000602084013e6122ff565b606091505b5091509150816123125760156000612326565b808060200190518101906123269190613efd565b60039190910b969095509350505050565b6000612341612f3e565b604080516001600160a01b03851660248083019190915282518083039091018152604490910182526020810180516001600160e01b03167f1f69565f0000000000000000000000000000000000000000000000000000000017905290516000918291610167916123b091613c8f565b6000604051808303816000865af19150503d80600081146123ed576040519150601f19603f3d011682016040523d82523d6000602084013e6123f2565b606091505b50915091506123ff612f3e565b8261240c57601581611178565b8180602001905181019061117891906144b7565b604080516001600160a01b03831660248083019190915282518083039091018152604490910182526020810180516001600160e01b03167fae7611a000000000000000000000000000000000000000000000000000000000179052905160009160609182918291859182916101679161249891613c8f565b6000604051808303816000865af19150503d80600081146124d5576040519150601f19603f3d011682016040523d82523d6000602084013e6124da565b606091505b50915091506060806060846124f3576015838383612507565b8380602001905181019061250791906144fb565b60039390930b9d919c509a509098509650505050505050565b6000806000806101676001600160a01b031663d6910d0660e01b88888860405160240161254f939291906145c7565b60408051601f198184030181529181526020820180516001600160e01b03166001600160e01b031990941693909317909252905161258d9190613c8f565b6000604051808303816000865af19150503d80600081146125ca576040519150601f19603f3d011682016040523d82523d6000602084013e6125cf565b606091505b5091509150816125e25760156000612116565b8080602001905181019061211691906145f2565b6040516001600160a01b03838116602483015282166044820152600090819081908190610167907f46de0fb100000000000000000000000000000000000000000000000000000000906064015b60408051601f198184030181529181526020820180516001600160e01b03166001600160e01b03199094169390931790925290516126819190613c8f565b6000604051808303816000865af19150503d80600081146126be576040519150601f19603f3d011682016040523d82523d6000602084013e6126c3565b606091505b5091509150816126d65760156000611178565b808060200190518101906111789190613efd565b60006126f4612ff5565b604080516001600160a01b03851660248083019190915282518083039091018152604490910182526020810180516001600160e01b03167f3f28a19b00000000000000000000000000000000000000000000000000000000179052905160009182916101679161276391613c8f565b6000604051808303816000865af19150503d80600081146127a0576040519150601f19603f3d011682016040523d82523d6000602084013e6127a5565b606091505b50915091506127b2612ff5565b826127bf57601581611178565b81806020019051810190611178919061461e565b6040516001600160a01b0383811660248301528216604482015260009081908190610167907f5b8f858400000000000000000000000000000000000000000000000000000000906064015b60408051601f198184030181529181526020820180516001600160e01b03166001600160e01b031990941693909317909252905161285c9190613c8f565b6000604051808303816000865af19150503d8060008114612899576040519150601f19603f3d011682016040523d82523d6000602084013e61289e565b606091505b5091509150816128af5760156128c3565b808060200190518101906128c39190613cbd565b60030b95945050505050565b6040516001600160a01b0383811660248301528216604482015260009081908190610167907f52f91387000000000000000000000000000000000000000000000000000000009060640161281e565b6000612928613015565b604080516001600160a01b0386166024820152600785900b60448083019190915282518083039091018152606490910182526020810180516001600160e01b03167f287e1da80000000000000000000000000000000000000000000000000000000017905290516000918291610167916129a191613c8f565b6000604051808303816000865af19150503d80600081146129de576040519150601f19603f3d011682016040523d82523d6000602084013e6129e3565b606091505b50915091506129f0613015565b826129fd57601581612116565b8180602001905181019061211691906146c5565b6040516001600160a01b03838116602483015282166044820152600090819081908190610167907ff2c31ff40000000000000000000000000000000000000000000000000000000090606401612643565b6040516001600160a01b0382166024820152600090819081908190610167907f19f37361000000000000000000000000000000000000000000000000000000009060440161227f565b60008060606000806101676001600160a01b031663e0f4059a60e01b898989604051602401612adc939291906147ad565b60408051601f198184030181529181526020820180516001600160e01b03166001600160e01b0319909416939093179092529051612b1a9190613c8f565b6000604051808303816000865af19150503d8060008114612b57576040519150601f19603f3d011682016040523d82523d6000602084013e612b5c565b606091505b509150915081612b7f576040805160008082526020820190925260159190612b93565b80806020019051810190612b93919061482a565b60039290920b9a90995090975095505050505050565b6040516001600160a01b038216602482015260009081908190610167907f7c41ad2c00000000000000000000000000000000000000000000000000000000906044015b60408051601f198184030181529181526020820180516001600160e01b03166001600160e01b0319909416939093179092529051612c2a9190613c8f565b6000604051808303816000865af19150503d8060008114612c67576040519150601f19603f3d011682016040523d82523d6000602084013e612c6c565b606091505b509150915081612c7d576015612c91565b80806020019051810190612c919190613cbd565b60030b949350505050565b6040516001600160a01b038216602482015260009081908190610167907f3b3bff0f0000000000000000000000000000000000000000000000000000000090604401612bec565b604080516001600160a01b03831660248083019190915282518083039091018152604490910182526020810180516001600160e01b03167f93272baf00000000000000000000000000000000000000000000000000000000179052905160009182918291829161016791612d5691613c8f565b6000604051808303816000865af19150503d8060008114612d93576040519150601f19603f3d011682016040523d82523d6000602084013e612d98565b606091505b509150915081612dac576015600019612326565b8080602001905181019061232691906148ea565b6040516001600160a01b03848116602483015283166044820152600782900b606482015260009081908190610167907fefef57f900000000000000000000000000000000000000000000000000000000906084015b60408051601f198184030181529181526020820180516001600160e01b03166001600160e01b0319909416939093179092529051612e539190613c8f565b6000604051808303816000865af19150503d8060008114612e90576040519150601f19603f3d011682016040523d82523d6000602084013e612e95565b606091505b509150915081612ea6576015612eba565b80806020019051810190612eba9190613cbd565b60030b9695505050505050565b60008060006101676001600160a01b031663f7f38e2660e01b878787604051602401612e1593929190614914565b6040516001600160a01b0382166024820152600090819081908190610167907f335e04c1000000000000000000000000000000000000000000000000000000009060440161227f565b60408051610240810182526060610120820181815261014083018290526000610160840181905261018084018390526101a084018190526101c084018190526101e0840181905261020084018390528451928301855280835260208301819052938201939093526102208201529081908152602001600060070b8152602001600015158152602001600015158152602001600015158152602001606081526020016060815260200160608152602001606081525090565b6040518060400160405280613008612f3e565b8152600060209091015290565b6040518060c00160405280613028612f3e565b8152600060208201819052604082018190526060808301829052608083015260a09091015290565b6001600160a01b038116811461306557600080fd5b50565b803561307381613050565b919050565b801515811461306557600080fd5b60008060006060848603121561309b57600080fd5b83356130a681613050565b925060208401356130b681613050565b915060408401356130c681613078565b809150509250925092565b60005b838110156130ec5781810151838201526020016130d4565b838111156130fb576000848401525b50505050565b600081518084526131198160208601602086016130d1565b601f01601f19169290920160200192915050565b6020815260006108a16020830184613101565b6000806000806080858703121561315657600080fd5b843561316181613050565b9350602085013561317181613050565b9250604085013561318181613050565b9396929550929360600135925050565b600080604083850312156131a457600080fd5b82356131af81613050565b946020939093013593505050565b805115158252600060208201516001600160a01b0380821660208601526040840151915060a060408601526131f560a0860183613101565b91506060840151858303606087015261320e8382613101565b925050806080850151166080860152508091505092915050565b6020815260006108a160208301846131bd565b60006020828403121561324d57600080fd5b81356108a181613050565b606081016108628284805160070b82526001600160a01b036020820151166020830152604081015160070b60408301525050565b6000806040838503121561329f57600080fd5b82356132aa81613050565b915060208301356132ba81613050565b809150509250929050565b600081518084526020808501808196508360051b8101915082860160005b85811015613321578284038952815180518552850151604086860181905261330d818701836131bd565b9a87019a95505050908401906001016132e3565b5091979650505050505050565b6000610160825181855261334482860182613101565b9150506020830151848203602086015261335e8282613101565b915050604083015161337b60408601826001600160a01b03169052565b50606083015184820360608601526133938282613101565b91505060808301516133a9608086018215159052565b5060a08301516133be60a086018260070b9052565b5060c08301516133d260c086018215159052565b5060e083015184820360e08601526133ea82826132c5565b9150506101008084015161342682870182805160070b82526001600160a01b036020820151166020830152604081015160070b60408301525050565b5090949350505050565b600081518084526020808501945080840160005b8381101561349d578151805160070b8852838101516001600160a01b03908116858a01526040808301511515908a01526060808301511515908a0152608091820151169088015260a09096019590820190600101613444565b509495945050505050565b600081518084526020808501945080840160005b8381101561349d5781518051600790810b895284820151810b858a0152604080830151820b908a015260608083015190910b9089015260808082015115159089015260a0908101516001600160a01b03169088015260c090960195908201906001016134bc565b600081518084526020808501945080840160005b8381101561349d5781518051600790810b895284820151810b858a015260408083015190910b908901526060808201516001600160a01b03908116918a01919091526080808301511515908a015260a091820151169088015260c09096019590820190600101613537565b600061012082518185526135b88286018261332e565b91505060208301516135cf602086018260070b9052565b5060408301516135e3604086018215159052565b5060608301516135f7606086018215159052565b50608083015161360b608086018215159052565b5060a083015184820360a08601526136238282613430565b91505060c083015184820360c086015261363d82826134a8565b91505060e083015184820360e08601526136578282613523565b9150506101008084015185830382870152610c138382613101565b6020815260006108a160208301846135a2565b6060815260006136986060830186613430565b82810360208401526136aa81866134a8565b90508281036040840152610c138185613523565b8060070b811461306557600080fd5b7f4e487b7100000000000000000000000000000000000000000000000000000000600052604160045260246000fd5b60405160a0810167ffffffffffffffff8111828210171561371f5761371f6136cd565b60405290565b6040805190810167ffffffffffffffff8111828210171561371f5761371f6136cd565b604051610120810167ffffffffffffffff8111828210171561371f5761371f6136cd565b60405160c0810167ffffffffffffffff8111828210171561371f5761371f6136cd565b604051601f8201601f1916810167ffffffffffffffff811182821017156137b8576137b86136cd565b604052919050565b600067ffffffffffffffff8211156137da576137da6136cd565b5060051b60200190565b600080600080608085870312156137fa57600080fd5b843561380581613050565b9350602085810135613816816136be565b9350604086013567ffffffffffffffff81111561383257600080fd5b8601601f8101881361384357600080fd5b8035613856613851826137c0565b61378f565b81815260059190911b8201830190838101908a83111561387557600080fd5b928401925b8284101561389c57833561388d816136be565b8252928401929084019061387a565b80965050505050506138b060608601613068565b905092959194509250565b6020815260008251604060208401526138d760608401826135a2565b9050602084015160030b60408401528091505092915050565b60008060006060848603121561390557600080fd5b833561391081613050565b9250602084013561392081613050565b915060408401356130c681613050565b600067ffffffffffffffff82111561394a5761394a6136cd565b50601f01601f191660200190565b600082601f83011261396957600080fd5b813561397761385182613930565b81815284602083860101111561398c57600080fd5b816020850160208301376000918101602001919091529392505050565b600080604083850312156139bc57600080fd5b82356139c781613050565b9150602083013567ffffffffffffffff8111156139e357600080fd5b6139ef85828601613958565b9150509250929050565b828152604060208201526000613a126040830184613101565b949350505050565b60008060408385031215613a2d57600080fd5b8235613a3881613050565b915060208301356132ba816136be565b602081526000825160c06020840152613a6460e08401826135a2565b9050602084015160070b604084015260408401516001600160a01b038082166060860152606086015160070b608086015260808601519150601f198584030160a0860152613ab28383613101565b92508060a08701511660c086015250508091505092915050565b600080600060608486031215613ae157600080fd5b8335613aec81613050565b92506020840135613afc81613050565b929592945050506040919091013590565b60008060008060808587031215613b2357600080fd5b8435613b2e81613050565b9350602085810135613b3f816136be565b9350604086013567ffffffffffffffff80821115613b5c57600080fd5b818801915088601f830112613b7057600080fd5b8135613b7e613851826137c0565b81815260059190911b8301840190848101908b831115613b9d57600080fd5b8585015b83811015613bd557803585811115613bb95760008081fd5b613bc78e89838a0101613958565b845250918601918601613ba1565b508097505050505050506138b060608601613068565b6001600160a01b0383168152604060208201526000613a126040830184613101565b600082601f830112613c1e57600080fd5b8151613c2c61385182613930565b818152846020838601011115613c4157600080fd5b61085e8260208301602087016130d1565b60008060408385031215613c6557600080fd5b82519150602083015167ffffffffffffffff811115613c8357600080fd5b6139ef85828601613c0d565b60008251613ca18184602087016130d1565b9190910192915050565b8051600381900b811461307357600080fd5b600060208284031215613ccf57600080fd5b6108a182613cab565b600060208284031215613cea57600080fd5b5051919050565b8215158152604060208201526000613a126040830184613101565b60008060408385031215613d1f57600080fd5b613d2883613cab565b9150602083015167ffffffffffffffff811115613c8357600080fd5b805161307381613078565b805161307381613050565b600060a08284031215613d6c57600080fd5b613d746136fc565b90508151613d8181613078565b81526020820151613d9181613050565b6020820152604082015167ffffffffffffffff80821115613db157600080fd5b613dbd85838601613c0d565b60408401526060840151915080821115613dd657600080fd5b50613de384828501613c0d565b6060830152506080820151613df781613050565b608082015292915050565b60008060408385031215613e1557600080fd5b613e1e83613cab565b9150602083015167ffffffffffffffff811115613e3a57600080fd5b6139ef85828601613d5a565b8051613073816136be565b600060608284031215613e6357600080fd5b6040516060810181811067ffffffffffffffff82111715613e8657613e866136cd565b80604052508091508251613e99816136be565b81526020830151613ea981613050565b60208201526040830151613ebc816136be565b6040919091015292915050565b60008060808385031215613edc57600080fd5b613ee583613cab565b9150613ef48460208501613e51565b90509250929050565b60008060408385031215613f1057600080fd5b613f1983613cab565b915060208301516132ba81613078565b600082601f830112613f3a57600080fd5b81516020613f4a613851836137c0565b82815260059290921b84018101918181019086841115613f6957600080fd5b8286015b84811015613feb57805167ffffffffffffffff80821115613f8e5760008081fd5b908801906040828b03601f1901811315613fa85760008081fd5b613fb0613725565b838801518152908301519082821115613fc95760008081fd5b613fd78c8984870101613d5a565b818901528652505050918301918301613f6d565b509695505050505050565b6000610160828403121561400957600080fd5b614011613748565b9050815167ffffffffffffffff8082111561402b57600080fd5b61403785838601613c0d565b8352602084015191508082111561404d57600080fd5b61405985838601613c0d565b602084015261406a60408501613d4f565b6040840152606084015191508082111561408357600080fd5b61408f85838601613c0d565b60608401526140a060808501613d44565b60808401526140b160a08501613e46565b60a08401526140c260c08501613d44565b60c084015260e08401519150808211156140db57600080fd5b506140e884828501613f29565b60e0830152506101006140fd84828501613e51565b9082015292915050565b600082601f83011261411857600080fd5b81516020614128613851836137c0565b82815260a0928302850182019282820191908785111561414757600080fd5b8387015b858110156141cf5781818a0312156141635760008081fd5b61416b6136fc565b8151614176816136be565b81528186015161418581613050565b8187015260408281015161419881613078565b908201526060828101516141ab81613078565b908201526080828101516141be81613050565b90820152845292840192810161414b565b5090979650505050505050565b600082601f8301126141ed57600080fd5b815160206141fd613851836137c0565b82815260c0928302850182019282820191908785111561421c57600080fd5b8387015b858110156141cf5781818a0312156142385760008081fd5b61424061376c565b815161424b816136be565b81528186015161425a816136be565b8187015260408281015161426d816136be565b90820152606082810151614280816136be565b9082015260808281015161429381613078565b9082015260a0828101516142a681613050565b908201528452928401928101614220565b600082601f8301126142c857600080fd5b815160206142d8613851836137c0565b82815260c092830285018201928282019190878511156142f757600080fd5b8387015b858110156141cf5781818a0312156143135760008081fd5b61431b61376c565b8151614326816136be565b815281860151614335816136be565b81870152604082810151614348816136be565b9082015260608281015161435b81613050565b9082015260808281015161436e81613078565b9082015260a08281015161438181613050565b9082015284529284019281016142fb565b600061012082840312156143a557600080fd5b6143ad613748565b9050815167ffffffffffffffff808211156143c757600080fd5b6143d385838601613ff6565b83526143e160208501613e46565b60208401526143f260408501613d44565b604084015261440360608501613d44565b606084015261441460808501613d44565b608084015260a084015191508082111561442d57600080fd5b61443985838601614107565b60a084015260c084015191508082111561445257600080fd5b61445e858386016141dc565b60c084015260e084015191508082111561447757600080fd5b614483858386016142b7565b60e08401526101009150818401518181111561449e57600080fd5b6144aa86828701613c0d565b8385015250505092915050565b600080604083850312156144ca57600080fd5b6144d383613cab565b9150602083015167ffffffffffffffff8111156144ef57600080fd5b6139ef85828601614392565b6000806000806080858703121561451157600080fd5b61451a85613cab565b9350602085015167ffffffffffffffff8082111561453757600080fd5b61454388838901614107565b9450604087015191508082111561455957600080fd5b614565888389016141dc565b9350606087015191508082111561457b57600080fd5b50614588878288016142b7565b91505092959194509250565b600081518084526020808501945080840160005b8381101561349d57815160070b875295820195908201906001016145a8565b6001600160a01b03841681528260070b60208201526060604082015260006106de6060830184614594565b6000806040838503121561460557600080fd5b61460e83613cab565b915060208301516132ba816136be565b6000806040838503121561463157600080fd5b61463a83613cab565b9150602083015167ffffffffffffffff8082111561465757600080fd5b908401906040828703121561466b57600080fd5b604051604081018181108382111715614686576146866136cd565b60405282518281111561469857600080fd5b6146a488828601614392565b8252506146b360208401613cab565b60208201528093505050509250929050565b600080604083850312156146d857600080fd5b6146e183613cab565b9150602083015167ffffffffffffffff808211156146fe57600080fd5b9084019060c0828703121561471257600080fd5b61471a61376c565b82518281111561472957600080fd5b61473588828601614392565b82525061474460208401613e46565b602082015261475560408401613d4f565b604082015261476660608401613e46565b606082015260808301518281111561477d57600080fd5b61478988828601613c0d565b60808301525061479b60a08401613d4f565b60a08201528093505050509250929050565b6000606082016001600160a01b038616835260208560070b818501526060604085015281855180845260808601915060808160051b870101935082870160005b8281101561481b57607f19888703018452614809868351613101565b955092840192908401906001016147ed565b50939998505050505050505050565b60008060006060848603121561483f57600080fd5b61484884613cab565b9250602080850151614859816136be565b604086015190935067ffffffffffffffff81111561487657600080fd5b8501601f8101871361488757600080fd5b8051614895613851826137c0565b81815260059190911b820183019083810190898311156148b457600080fd5b928401925b828410156148db5783516148cc816136be565b825292840192908401906148b9565b80955050505050509250925092565b600080604083850312156148fd57600080fd5b61490683613cab565b9150613ef460208401613cab565b60006001600160a01b038086168352808516602084015250606060408301526106de606083018461459456fea264697066735822122055d1e7b11794d9d7ebe716647397545df47c11a2dd45038e43a4f10f69a7d11964736f6c63430008090033",
  "linkReferences": {},
  "deployedLinkReferences": {}
}