{
  "_format": "hh-sol-artifact-1",
  "contractName": "PrecompileTestContract",
  "sourceName": "contracts/PrecompileTestContract.sol",
  "abi": [
    {
      "anonymous": false,
      "inputs": [
        {
          "indexed": false,
          "internalType": "bool",
          "name": "",
          "type": "bool"
        },
        {
          "indexed": false,
          "internalType": "bytes",
          "name": "",
          "type": "bytes"
        }
      ],
      "name": "CallResponseEvent",
      "type": "event"
    },
    {
      "inputs": [
        {
          "internalType": "address",
          "name": "token",
          "type": "address"
        }
      ],
      "name": "getCustomFeesForToken",
      "outputs": [
        {
          "components": [
            {
              "internalType": "int64",
              "name": "amount",
              "type": "int64"
            },
            {
              "internalType": "address",
              "name": "tokenId",
              "type": "address"
            },
            {
              "internalType": "bool",
              "name": "useHbarsForPayment",
              "type": "bool"
            },
            {
              "internalType": "bool",
              "name": "useCurrentTokenForPayment",
              "type": "bool"
            },
            {
              "internalType": "address",
              "name": "feeCollector",
              "type": "address"
            }
          ],
          "internalType": "struct IHederaTokenService.FixedFee[]",
          "name": "fixedFees",
          "type": "tuple[]"
        },
        {
          "components": [
            {
              "internalType": "int64",
              "name": "numerator",
              "type": "int64"
            },
            {
              "internalType": "int64",
              "name": "denominator",
              "type": "int64"
            },
            {
              "internalType": "int64",
              "name": "minimumAmount",
              "type": "int64"
            },
            {
              "internalType": "int64",
              "name": "maximumAmount",
              "type": "int64"
            },
            {
              "internalType": "bool",
              "name": "netOfTransfers",
              "type": "bool"
            },
            {
              "internalType": "address",
              "name": "feeCollector",
              "type": "address"
            }
          ],
          "internalType": "struct IHederaTokenService.FractionalFee[]",
          "name": "fractionalFees",
          "type": "tuple[]"
        },
        {
          "components": [
            {
              "internalType": "int64",
              "name": "numerator",
              "type": "int64"
            },
            {
              "internalType": "int64",
              "name": "denominator",
              "type": "int64"
            },
            {
              "internalType": "int64",
              "name": "amount",
              "type": "int64"
            },
            {
              "internalType": "address",
              "name": "tokenId",
              "type": "address"
            },
            {
              "internalType": "bool",
              "name": "useHbarsForPayment",
              "type": "bool"
            },
            {
              "internalType": "address",
              "name": "feeCollector",
              "type": "address"
            }
          ],
          "internalType": "struct IHederaTokenService.RoyaltyFee[]",
          "name": "royaltyFees",
          "type": "tuple[]"
        }
      ],
      "stateMutability": "nonpayable",
      "type": "function"
    },
    {
      "inputs": [
        {
          "internalType": "address",
          "name": "token",
          "type": "address"
        }
      ],
      "name": "getExpiryInfoForToken",
      "outputs": [
        {
          "components": [
            {
              "internalType": "int64",
              "name": "second",
              "type": "int64"
            },
            {
              "internalType": "address",
              "name": "autoRenewAccount",
              "type": "address"
            },
            {
              "internalType": "int64",
              "name": "autoRenewPeriod",
              "type": "int64"
            }
          ],
          "internalType": "struct IHederaTokenService.Expiry",
          "name": "expiry",
          "type": "tuple"
        }
      ],
      "stateMutability": "nonpayable",
      "type": "function"
    },
    {
      "inputs": [
        {
          "internalType": "address",
          "name": "token",
          "type": "address"
        }
      ],
      "name": "getInformationForFungibleToken",
      "outputs": [
        {
          "components": [
            {
              "components": [
                {
                  "components": [
                    {
                      "internalType": "string",
                      "name": "name",
                      "type": "string"
                    },
                    {
                      "internalType": "string",
                      "name": "symbol",
                      "type": "string"
                    },
                    {
                      "internalType": "address",
                      "name": "treasury",
                      "type": "address"
                    },
                    {
                      "internalType": "string",
                      "name": "memo",
                      "type": "string"
                    },
                    {
                      "internalType": "bool",
                      "name": "tokenSupplyType",
                      "type": "bool"
                    },
                    {
                      "internalType": "int64",
                      "name": "maxSupply",
                      "type": "int64"
                    },
                    {
                      "internalType": "bool",
                      "name": "freezeDefault",
                      "type": "bool"
                    },
                    {
                      "components": [
                        {
                          "internalType": "uint256",
                          "name": "keyType",
                          "type": "uint256"
                        },
                        {
                          "components": [
                            {
                              "internalType": "bool",
                              "name": "inheritAccountKey",
                              "type": "bool"
                            },
                            {
                              "internalType": "address",
                              "name": "contractId",
                              "type": "address"
                            },
                            {
                              "internalType": "bytes",
                              "name": "ed25519",
                              "type": "bytes"
                            },
                            {
                              "internalType": "bytes",
                              "name": "ECDSA_secp256k1",
                              "type": "bytes"
                            },
                            {
                              "internalType": "address",
                              "name": "delegatableContractId",
                              "type": "address"
                            }
                          ],
                          "internalType": "struct IHederaTokenService.KeyValue",
                          "name": "key",
                          "type": "tuple"
                        }
                      ],
                      "internalType": "struct IHederaTokenService.TokenKey[]",
                      "name": "tokenKeys",
                      "type": "tuple[]"
                    },
                    {
                      "components": [
                        {
                          "internalType": "int64",
                          "name": "second",
                          "type": "int64"
                        },
                        {
                          "internalType": "address",
                          "name": "autoRenewAccount",
                          "type": "address"
                        },
                        {
                          "internalType": "int64",
                          "name": "autoRenewPeriod",
                          "type": "int64"
                        }
                      ],
                      "internalType": "struct IHederaTokenService.Expiry",
                      "name": "expiry",
                      "type": "tuple"
                    }
                  ],
                  "internalType": "struct IHederaTokenService.HederaToken",
                  "name": "token",
                  "type": "tuple"
                },
                {
                  "internalType": "int64",
                  "name": "totalSupply",
                  "type": "int64"
                },
                {
                  "internalType": "bool",
                  "name": "deleted",
                  "type": "bool"
                },
                {
                  "internalType": "bool",
                  "name": "defaultKycStatus",
                  "type": "bool"
                },
                {
                  "internalType": "bool",
                  "name": "pauseStatus",
                  "type": "bool"
                },
                {
                  "components": [
                    {
                      "internalType": "int64",
                      "name": "amount",
                      "type": "int64"
                    },
                    {
                      "internalType": "address",
                      "name": "tokenId",
                      "type": "address"
                    },
                    {
                      "internalType": "bool",
                      "name": "useHbarsForPayment",
                      "type": "bool"
                    },
                    {
                      "internalType": "bool",
                      "name": "useCurrentTokenForPayment",
                      "type": "bool"
                    },
                    {
                      "internalType": "address",
                      "name": "feeCollector",
                      "type": "address"
                    }
                  ],
                  "internalType": "struct IHederaTokenService.FixedFee[]",
                  "name": "fixedFees",
                  "type": "tuple[]"
                },
                {
                  "components": [
                    {
                      "internalType": "int64",
                      "name": "numerator",
                      "type": "int64"
                    },
                    {
                      "internalType": "int64",
                      "name": "denominator",
                      "type": "int64"
                    },
                    {
                      "internalType": "int64",
                      "name": "minimumAmount",
                      "type": "int64"
                    },
                    {
                      "internalType": "int64",
                      "name": "maximumAmount",
                      "type": "int64"
                    },
                    {
                      "internalType": "bool",
                      "name": "netOfTransfers",
                      "type": "bool"
                    },
                    {
                      "internalType": "address",
                      "name": "feeCollector",
                      "type": "address"
                    }
                  ],
                  "internalType": "struct IHederaTokenService.FractionalFee[]",
                  "name": "fractionalFees",
                  "type": "tuple[]"
                },
                {
                  "components": [
                    {
                      "internalType": "int64",
                      "name": "numerator",
                      "type": "int64"
                    },
                    {
                      "internalType": "int64",
                      "name": "denominator",
                      "type": "int64"
                    },
                    {
                      "internalType": "int64",
                      "name": "amount",
                      "type": "int64"
                    },
                    {
                      "internalType": "address",
                      "name": "tokenId",
                      "type": "address"
                    },
                    {
                      "internalType": "bool",
                      "name": "useHbarsForPayment",
                      "type": "bool"
                    },
                    {
                      "internalType": "address",
                      "name": "feeCollector",
                      "type": "address"
                    }
                  ],
                  "internalType": "struct IHederaTokenService.RoyaltyFee[]",
                  "name": "royaltyFees",
                  "type": "tuple[]"
                },
                {
                  "internalType": "string",
                  "name": "ledgerId",
                  "type": "string"
                }
              ],
              "internalType": "struct IHederaTokenService.TokenInfo",
              "name": "tokenInfo",
              "type": "tuple"
            },
            {
              "internalType": "int32",
              "name": "decimals",
              "type": "int32"
            }
          ],
          "internalType": "struct IHederaTokenService.FungibleTokenInfo",
          "name": "fungibleTokenInfo",
          "type": "tuple"
        }
      ],
      "stateMutability": "nonpayable",
      "type": "function"
    },
    {
      "inputs": [
        {
          "internalType": "address",
          "name": "token",
          "type": "address"
        },
        {
          "internalType": "int64",
          "name": "serialNumber",
          "type": "int64"
        }
      ],
      "name": "getInformationForNonFungibleToken",
      "outputs": [
        {
          "components": [
            {
              "components": [
                {
                  "components": [
                    {
                      "internalType": "string",
                      "name": "name",
                      "type": "string"
                    },
                    {
                      "internalType": "string",
                      "name": "symbol",
                      "type": "string"
                    },
                    {
                      "internalType": "address",
                      "name": "treasury",
                      "type": "address"
                    },
                    {
                      "internalType": "string",
                      "name": "memo",
                      "type": "string"
                    },
                    {
                      "internalType": "bool",
                      "name": "tokenSupplyType",
                      "type": "bool"
                    },
                    {
                      "internalType": "int64",
                      "name": "maxSupply",
                      "type": "int64"
                    },
                    {
                      "internalType": "bool",
                      "name": "freezeDefault",
                      "type": "bool"
                    },
                    {
                      "components": [
                        {
                          "internalType": "uint256",
                          "name": "keyType",
                          "type": "uint256"
                        },
                        {
                          "components": [
                            {
                              "internalType": "bool",
                              "name": "inheritAccountKey",
                              "type": "bool"
                            },
                            {
                              "internalType": "address",
                              "name": "contractId",
                              "type": "address"
                            },
                            {
                              "internalType": "bytes",
                              "name": "ed25519",
                              "type": "bytes"
                            },
                            {
                              "internalType": "bytes",
                              "name": "ECDSA_secp256k1",
                              "type": "bytes"
                            },
                            {
                              "internalType": "address",
                              "name": "delegatableContractId",
                              "type": "address"
                            }
                          ],
                          "internalType": "struct IHederaTokenService.KeyValue",
                          "name": "key",
                          "type": "tuple"
                        }
                      ],
                      "internalType": "struct IHederaTokenService.TokenKey[]",
                      "name": "tokenKeys",
                      "type": "tuple[]"
                    },
                    {
                      "components": [
                        {
                          "internalType": "int64",
                          "name": "second",
                          "type": "int64"
                        },
                        {
                          "internalType": "address",
                          "name": "autoRenewAccount",
                          "type": "address"
                        },
                        {
                          "internalType": "int64",
                          "name": "autoRenewPeriod",
                          "type": "int64"
                        }
                      ],
                      "internalType": "struct IHederaTokenService.Expiry",
                      "name": "expiry",
                      "type": "tuple"
                    }
                  ],
                  "internalType": "struct IHederaTokenService.HederaToken",
                  "name": "token",
                  "type": "tuple"
                },
                {
                  "internalType": "int64",
                  "name": "totalSupply",
                  "type": "int64"
                },
                {
                  "internalType": "bool",
                  "name": "deleted",
                  "type": "bool"
                },
                {
                  "internalType": "bool",
                  "name": "defaultKycStatus",
                  "type": "bool"
                },
                {
                  "internalType": "bool",
                  "name": "pauseStatus",
                  "type": "bool"
                },
                {
                  "components": [
                    {
                      "internalType": "int64",
                      "name": "amount",
                      "type": "int64"
                    },
                    {
                      "internalType": "address",
                      "name": "tokenId",
                      "type": "address"
                    },
                    {
                      "internalType": "bool",
                      "name": "useHbarsForPayment",
                      "type": "bool"
                    },
                    {
                      "internalType": "bool",
                      "name": "useCurrentTokenForPayment",
                      "type": "bool"
                    },
                    {
                      "internalType": "address",
                      "name": "feeCollector",
                      "type": "address"
                    }
                  ],
                  "internalType": "struct IHederaTokenService.FixedFee[]",
                  "name": "fixedFees",
                  "type": "tuple[]"
                },
                {
                  "components": [
                    {
                      "internalType": "int64",
                      "name": "numerator",
                      "type": "int64"
                    },
                    {
                      "internalType": "int64",
                      "name": "denominator",
                      "type": "int64"
                    },
                    {
                      "internalType": "int64",
                      "name": "minimumAmount",
                      "type": "int64"
                    },
                    {
                      "internalType": "int64",
                      "name": "maximumAmount",
                      "type": "int64"
                    },
                    {
                      "internalType": "bool",
                      "name": "netOfTransfers",
                      "type": "bool"
                    },
                    {
                      "internalType": "address",
                      "name": "feeCollector",
                      "type": "address"
                    }
                  ],
                  "internalType": "struct IHederaTokenService.FractionalFee[]",
                  "name": "fractionalFees",
                  "type": "tuple[]"
                },
                {
                  "components": [
                    {
                      "internalType": "int64",
                      "name": "numerator",
                      "type": "int64"
                    },
                    {
                      "internalType": "int64",
                      "name": "denominator",
                      "type": "int64"
                    },
                    {
                      "internalType": "int64",
                      "name": "amount",
                      "type": "int64"
                    },
                    {
                      "internalType": "address",
                      "name": "tokenId",
                      "type": "address"
                    },
                    {
                      "internalType": "bool",
                      "name": "useHbarsForPayment",
                      "type": "bool"
                    },
                    {
                      "internalType": "address",
                      "name": "feeCollector",
                      "type": "address"
                    }
                  ],
                  "internalType": "struct IHederaTokenService.RoyaltyFee[]",
                  "name": "royaltyFees",
                  "type": "tuple[]"
                },
                {
                  "internalType": "string",
                  "name": "ledgerId",
                  "type": "string"
                }
              ],
              "internalType": "struct IHederaTokenService.TokenInfo",
              "name": "tokenInfo",
              "type": "tuple"
            },
            {
              "internalType": "int64",
              "name": "serialNumber",
              "type": "int64"
            },
            {
              "internalType": "address",
              "name": "ownerId",
              "type": "address"
            },
            {
              "internalType": "int64",
              "name": "creationTime",
              "type": "int64"
            },
            {
              "internalType": "bytes",
              "name": "metadata",
              "type": "bytes"
            },
            {
              "internalType": "address",
              "name": "spenderId",
              "type": "address"
            }
          ],
          "internalType": "struct IHederaTokenService.NonFungibleTokenInfo",
          "name": "nonFungibleTokenInfo",
          "type": "tuple"
        }
      ],
      "stateMutability": "nonpayable",
      "type": "function"
    },
    {
      "inputs": [
        {
          "internalType": "address",
          "name": "token",
          "type": "address"
        }
      ],
      "name": "getInformationForToken",
      "outputs": [
        {
          "components": [
            {
              "components": [
                {
                  "internalType": "string",
                  "name": "name",
                  "type": "string"
                },
                {
                  "internalType": "string",
                  "name": "symbol",
                  "type": "string"
                },
                {
                  "internalType": "address",
                  "name": "treasury",
                  "type": "address"
                },
                {
                  "internalType": "string",
                  "name": "memo",
                  "type": "string"
                },
                {
                  "internalType": "bool",
                  "name": "tokenSupplyType",
                  "type": "bool"
                },
                {
                  "internalType": "int64",
                  "name": "maxSupply",
                  "type": "int64"
                },
                {
                  "internalType": "bool",
                  "name": "freezeDefault",
                  "type": "bool"
                },
                {
                  "components": [
                    {
                      "internalType": "uint256",
                      "name": "keyType",
                      "type": "uint256"
                    },
                    {
                      "components": [
                        {
                          "internalType": "bool",
                          "name": "inheritAccountKey",
                          "type": "bool"
                        },
                        {
                          "internalType": "address",
                          "name": "contractId",
                          "type": "address"
                        },
                        {
                          "internalType": "bytes",
                          "name": "ed25519",
                          "type": "bytes"
                        },
                        {
                          "internalType": "bytes",
                          "name": "ECDSA_secp256k1",
                          "type": "bytes"
                        },
                        {
                          "internalType": "address",
                          "name": "delegatableContractId",
                          "type": "address"
                        }
                      ],
                      "internalType": "struct IHederaTokenService.KeyValue",
                      "name": "key",
                      "type": "tuple"
                    }
                  ],
                  "internalType": "struct IHederaTokenService.TokenKey[]",
                  "name": "tokenKeys",
                  "type": "tuple[]"
                },
                {
                  "components": [
                    {
                      "internalType": "int64",
                      "name": "second",
                      "type": "int64"
                    },
                    {
                      "internalType": "address",
                      "name": "autoRenewAccount",
                      "type": "address"
                    },
                    {
                      "internalType": "int64",
                      "name": "autoRenewPeriod",
                      "type": "int64"
                    }
                  ],
                  "internalType": "struct IHederaTokenService.Expiry",
                  "name": "expiry",
                  "type": "tuple"
                }
              ],
              "internalType": "struct IHederaTokenService.HederaToken",
              "name": "token",
              "type": "tuple"
            },
            {
              "internalType": "int64",
              "name": "totalSupply",
              "type": "int64"
            },
            {
              "internalType": "bool",
              "name": "deleted",
              "type": "bool"
            },
            {
              "internalType": "bool",
              "name": "defaultKycStatus",
              "type": "bool"
            },
            {
              "internalType": "bool",
              "name": "pauseStatus",
              "type": "bool"
            },
            {
              "components": [
                {
                  "internalType": "int64",
                  "name": "amount",
                  "type": "int64"
                },
                {
                  "internalType": "address",
                  "name": "tokenId",
                  "type": "address"
                },
                {
                  "internalType": "bool",
                  "name": "useHbarsForPayment",
                  "type": "bool"
                },
                {
                  "internalType": "bool",
                  "name": "useCurrentTokenForPayment",
                  "type": "bool"
                },
                {
                  "internalType": "address",
                  "name": "feeCollector",
                  "type": "address"
                }
              ],
              "internalType": "struct IHederaTokenService.FixedFee[]",
              "name": "fixedFees",
              "type": "tuple[]"
            },
            {
              "components": [
                {
                  "internalType": "int64",
                  "name": "numerator",
                  "type": "int64"
                },
                {
                  "internalType": "int64",
                  "name": "denominator",
                  "type": "int64"
                },
                {
                  "internalType": "int64",
                  "name": "minimumAmount",
                  "type": "int64"
                },
                {
                  "internalType": "int64",
                  "name": "maximumAmount",
                  "type": "int64"
                },
                {
                  "internalType": "bool",
                  "name": "netOfTransfers",
                  "type": "bool"
                },
                {
                  "internalType": "address",
                  "name": "feeCollector",
                  "type": "address"
                }
              ],
              "internalType": "struct IHederaTokenService.FractionalFee[]",
              "name": "fractionalFees",
              "type": "tuple[]"
            },
            {
              "components": [
                {
                  "internalType": "int64",
                  "name": "numerator",
                  "type": "int64"
                },
                {
                  "internalType": "int64",
                  "name": "denominator",
                  "type": "int64"
                },
                {
                  "internalType": "int64",
                  "name": "amount",
                  "type": "int64"
                },
                {
                  "internalType": "address",
                  "name": "tokenId",
                  "type": "address"
                },
                {
                  "internalType": "bool",
                  "name": "useHbarsForPayment",
                  "type": "bool"
                },
                {
                  "internalType": "address",
                  "name": "feeCollector",
                  "type": "address"
                }
              ],
              "internalType": "struct IHederaTokenService.RoyaltyFee[]",
              "name": "royaltyFees",
              "type": "tuple[]"
            },
            {
              "internalType": "string",
              "name": "ledgerId",
              "type": "string"
            }
          ],
          "internalType": "struct IHederaTokenService.TokenInfo",
          "name": "tokenInfo",
          "type": "tuple"
        }
      ],
      "stateMutability": "nonpayable",
      "type": "function"
    },
    {
      "inputs": [
        {
          "internalType": "address",
          "name": "token",
          "type": "address"
        }
      ],
      "name": "getTokenDefaultFreeze",
      "outputs": [
        {
          "internalType": "bool",
          "name": "",
          "type": "bool"
        }
      ],
      "stateMutability": "nonpayable",
      "type": "function"
    },
    {
      "inputs": [
        {
          "internalType": "address",
          "name": "token",
          "type": "address"
        }
      ],
      "name": "getTokenDefaultKyc",
      "outputs": [
        {
          "internalType": "bool",
          "name": "",
          "type": "bool"
        }
      ],
      "stateMutability": "nonpayable",
      "type": "function"
    },
    {
      "inputs": [
        {
          "internalType": "address",
          "name": "token",
          "type": "address"
        },
        {
          "internalType": "uint256",
          "name": "keyType",
          "type": "uint256"
        }
      ],
      "name": "getTokenKeyPublic",
      "outputs": [
        {
          "components": [
            {
              "internalType": "bool",
              "name": "inheritAccountKey",
              "type": "bool"
            },
            {
              "internalType": "address",
              "name": "contractId",
              "type": "address"
            },
            {
              "internalType": "bytes",
              "name": "ed25519",
              "type": "bytes"
            },
            {
              "internalType": "bytes",
              "name": "ECDSA_secp256k1",
              "type": "bytes"
            },
            {
              "internalType": "address",
              "name": "delegatableContractId",
              "type": "address"
            }
          ],
          "internalType": "struct IHederaTokenService.KeyValue",
          "name": "",
          "type": "tuple"
        }
      ],
      "stateMutability": "nonpayable",
      "type": "function"
    },
    {
      "inputs": [
        {
          "internalType": "address",
          "name": "token",
          "type": "address"
        }
      ],
      "name": "getType",
      "outputs": [
        {
          "internalType": "int256",
          "name": "",
          "type": "int256"
        }
      ],
      "stateMutability": "nonpayable",
      "type": "function"
    },
    {
      "inputs": [
        {
          "internalType": "address",
          "name": "token",
          "type": "address"
        },
        {
          "internalType": "address",
          "name": "account",
          "type": "address"
        }
      ],
      "name": "isKycGranted",
      "outputs": [
        {
          "internalType": "bool",
          "name": "",
          "type": "bool"
        }
      ],
      "stateMutability": "nonpayable",
      "type": "function"
    },
    {
      "inputs": [
        {
          "internalType": "address",
          "name": "token",
          "type": "address"
        }
      ],
      "name": "isTokenAddress",
      "outputs": [
        {
          "internalType": "bool",
          "name": "",
          "type": "bool"
        }
      ],
      "stateMutability": "nonpayable",
      "type": "function"
    },
    {
      "inputs": [
        {
          "internalType": "address",
          "name": "token",
          "type": "address"
        },
        {
          "internalType": "address",
          "name": "account",
          "type": "address"
        }
      ],
      "name": "isTokenFrozen",
      "outputs": [
        {
          "internalType": "bool",
          "name": "",
          "type": "bool"
        }
      ],
      "stateMutability": "nonpayable",
      "type": "function"
    },
    {
      "inputs": [
        {
          "internalType": "address",
          "name": "token",
          "type": "address"
        },
        {
          "internalType": "address",
          "name": "account",
          "type": "address"
        }
      ],
      "name": "redirectBalanceOfExternal",
      "outputs": [
        {
          "internalType": "int256",
          "name": "responseCode",
          "type": "int256"
        }
      ],
      "stateMutability": "nonpayable",
      "type": "function"
    },
    {
      "inputs": [
        {
          "internalType": "address",
          "name": "token",
          "type": "address"
        },
        {
          "internalType": "bytes",
          "name": "encodedFunctionSelector",
          "type": "bytes"
        }
      ],
      "name": "redirectForToken",
      "outputs": [
        {
          "internalType": "int256",
          "name": "responseCode",
          "type": "int256"
        },
        {
          "internalType": "bytes",
          "name": "response",
          "type": "bytes"
        }
      ],
      "stateMutability": "nonpayable",
      "type": "function"
    },
    {
      "inputs": [
        {
          "internalType": "address",
          "name": "token",
          "type": "address"
        },
        {
          "internalType": "address",
          "name": "from",
          "type": "address"
        },
        {
          "internalType": "address",
          "name": "to",
          "type": "address"
        },
        {
          "internalType": "uint256",
          "name": "amount",
          "type": "uint256"
        }
      ],
      "name": "transferFrom",
      "outputs": [
        {
          "internalType": "int64",
          "name": "responseCode",
          "type": "int64"
        }
      ],
      "stateMutability": "nonpayable",
      "type": "function"
    },
    {
      "inputs": [
        {
          "internalType": "address",
          "name": "token",
          "type": "address"
        },
        {
          "internalType": "address",
          "name": "from",
          "type": "address"
        },
        {
          "internalType": "address",
          "name": "to",
          "type": "address"
        },
        {
          "internalType": "uint256",
          "name": "serialNumber",
          "type": "uint256"
        }
      ],
      "name": "transferFromNFT",
      "outputs": [
        {
          "internalType": "int64",
          "name": "responseCode",
          "type": "int64"
        }
      ],
      "stateMutability": "nonpayable",
      "type": "function"
    }
  ],
  "bytecode": "0x608060405234801561001057600080fd5b5061298f806100206000396000f3fe608060405234801561001057600080fd5b50600436106101005760003560e01c8063618dc65e11610097578063bff9834f11610066578063bff9834f1461026f578063f429f19b14610282578063facc4ec6146102a3578063fd4d1c26146102b657600080fd5b8063618dc65e146102085780638e5e7996146102295780639b23d3d914610249578063bc2fb00e1461025c57600080fd5b806335589a13116100d357806335589a131461019357806344f38bc8146101b3578063565ca6fa146101d557806359c16f5a146101e857600080fd5b806315dacbea146101055780631955de0b146101305780631de8edad14610150578063319a872314610170575b600080fd5b61011861011336600461153b565b6102c9565b60405160079190910b81526020015b60405180910390f35b61014361013e36600461158c565b6103d6565b604051610127919061167f565b61016361015e366004611692565b61044a565b60405161012791906116af565b61018361017e366004611692565b61048a565b6040519015158152602001610127565b6101a66101a1366004611692565b610518565b6040516101279190611a9a565b6101c66101c1366004611692565b61052c565b60405161012793929190611aad565b6101836101e3366004611ae6565b61055e565b6101fb6101f6366004611692565b6105c7565b6040516101279190611b1f565b61021b610216366004611c6f565b6105db565b604051610127929190611d02565b61023c610237366004611d32565b610709565b6040516101279190611d60565b61011861025736600461153b565b610730565b61018361026a366004611ae6565b61078e565b61018361027d366004611692565b6107f7565b610295610290366004611692565b61085f565b604051908152602001610127565b6102956102b1366004611ae6565b6108ca565b6101836102c4366004611692565b6109ca565b6040516001600160a01b0385811660248301528481166044830152831660648201526084810182905260009081908190610167907f15dacbea000000000000000000000000000000000000000000000000000000009060a4015b60408051601f198184030181529181526020820180516001600160e01b03166001600160e01b03199094169390931790925290516103619190611de4565b6000604051808303816000865af19150503d806000811461039e576040519150601f19603f3d011682016040523d82523d6000602084013e6103a3565b606091505b5091509150816103b45760156103c8565b808060200190518101906103c89190611e17565b60030b979650505050505050565b61041c6040518060a0016040528060001515815260200160006001600160a01b03168152602001606081526020016060815260200160006001600160a01b031681525090565b6000806104298585610a2d565b915060070b9150601660030b821461044057600080fd5b9150505b92915050565b60408051606081018252600080825260208201819052918101829052908061047184610b8a565b90925090506016821461048357600080fd5b9392505050565b600080600061049884610c9b565b9092509050601682146104835760405162461bcd60e51b815260206004820152602360248201527f676574546f6b656e44656661756c74467265657a65537461747573206661696c60448201527f656421000000000000000000000000000000000000000000000000000000000060648201526084015b60405180910390fd5b610520611411565b60008061047184610d98565b6060806060600061053c85610e81565b919650945092509050600781900b60161461055657600080fd5b509193909250565b600080600061056d8585610f81565b915060070b9150601660030b82146104405760405162461bcd60e51b815260206004820152601660248201527f546f6b656e20697346726f7a656e206661696c65642100000000000000000000604482015260640161050f565b6105cf6114c8565b60008061047184611075565b600060606000806101676001600160a01b031663618dc65e60e01b8787604051602401610609929190611e32565b60408051601f198184030181529181526020820180516001600160e01b03166001600160e01b03199094169390931790925290516106479190611de4565b6000604051808303816000865af19150503d8060008114610684576040519150601f19603f3d011682016040523d82523d6000602084013e610689565b606091505b50915091507f4af4780e06fe8cb9df64b0794fa6f01399af979175bb988e35e0e57e594567bc82826040516106bf929190611e54565b60405180910390a1816106e3576015604051806020016040528060008152506106f7565b808060200190518101906106f79190611eb4565b60039190910b97909650945050505050565b6107116114e8565b60008061071e858561115e565b90925090506016821461044057600080fd5b6040516001600160a01b0385811660248301528481166044830152831660648201526084810182905260009081908190610167907f9b23d3d9000000000000000000000000000000000000000000000000000000009060a401610323565b600080600061079d8585611251565b915060070b9150601660030b82146104405760405162461bcd60e51b815260206004820152601360248201527f546f6b656e2069734b7963206661696c65642100000000000000000000000000604482015260640161050f565b6000806000610805846112a2565b915060070b9150601660030b82146104835760405162461bcd60e51b815260206004820152601c60248201527f546f6b656e206973546f6b656e41646472657373206661696c65642100000000604482015260640161050f565b600080600061086d846112eb565b60030b915060070b9150601660030b82146104835760405162461bcd60e51b815260206004820152601c60248201527f546f6b656e20747970652061707072616973616c206661696c65642100000000604482015260640161050f565b604080516001600160a01b03831660248083019190915282518083039091018152604490910182526020810180516001600160e01b03167f70a082310000000000000000000000000000000000000000000000000000000017905290517f618dc65e000000000000000000000000000000000000000000000000000000008152600091309163618dc65e9161096491879190600401611e32565b600060405180830381600087803b15801561097e57600080fd5b505af1158015610992573d6000803e3d6000fd5b505050506040513d6000823e601f3d908101601f191682016040526109ba9190810190611f02565b5090506016811461044457600080fd5b60008060006109d8846113c8565b9092509050601682146104835760405162461bcd60e51b815260206004820181905260248201527f676574546f6b656e44656661756c744b7963537461747573206661696c656421604482015260640161050f565b6040805160a081018252600080825260208083018290526060838501819052808401526080830182905283516001600160a01b03871660248201526044808201879052855180830390910181526064909101855290810180516001600160e01b03167f3c4dd32e00000000000000000000000000000000000000000000000000000000179052925190928391829161016791610ac99190611de4565b6000604051808303816000865af19150503d8060008114610b06576040519150601f19603f3d011682016040523d82523d6000602084013e610b0b565b606091505b5091509150610b566040518060a0016040528060001515815260200160006001600160a01b03168152602001606081526020016060815260200160006001600160a01b031681525090565b82610b6357601581610b77565b81806020019051810190610b779190611ff4565b60039190910b9890975095505050505050565b604080516060810182526000808252602080830182905282840182905283516001600160a01b038616602480830191909152855180830390910181526044909101855290810180516001600160e01b03167fd614cdb800000000000000000000000000000000000000000000000000000000179052925190928391829161016791610c159190611de4565b6000604051808303816000865af19150503d8060008114610c52576040519150601f19603f3d011682016040523d82523d6000602084013e610c57565b606091505b506040805160608101825260008082526020820181905291810191909152919350915082610c87576015816106f7565b818060200190518101906106f791906120bb565b6040516001600160a01b0382166024820152600090819081908190610167907fa7daa18d00000000000000000000000000000000000000000000000000000000906044015b60408051601f198184030181529181526020820180516001600160e01b03166001600160e01b0319909416939093179092529051610d1e9190611de4565b6000604051808303816000865af19150503d8060008114610d5b576040519150601f19603f3d011682016040523d82523d6000602084013e610d60565b606091505b509150915081610d735760156000610d87565b80806020019051810190610d8791906120ef565b60039190910b969095509350505050565b6000610da2611411565b604080516001600160a01b03851660248083019190915282518083039091018152604490910182526020810180516001600160e01b03167f1f69565f000000000000000000000000000000000000000000000000000000001790529051600091829161016791610e1191611de4565b6000604051808303816000865af19150503d8060008114610e4e576040519150601f19603f3d011682016040523d82523d6000602084013e610e53565b606091505b5091509150610e60611411565b82610e6d576015816106f7565b818060200190518101906106f791906126c3565b604080516001600160a01b03831660248083019190915282518083039091018152604490910182526020810180516001600160e01b03167fae7611a0000000000000000000000000000000000000000000000000000000001790529051600091606091829182918591829161016791610ef991611de4565b6000604051808303816000865af19150503d8060008114610f36576040519150601f19603f3d011682016040523d82523d6000602084013e610f3b565b606091505b5091509150606080606084610f54576015838383610f68565b83806020019051810190610f689190612707565b60039390930b9d919c509a509098509650505050505050565b6040516001600160a01b03838116602483015282166044820152600090819081908190610167907f46de0fb100000000000000000000000000000000000000000000000000000000906064015b60408051601f198184030181529181526020820180516001600160e01b03166001600160e01b031990941693909317909252905161100c9190611de4565b6000604051808303816000865af19150503d8060008114611049576040519150601f19603f3d011682016040523d82523d6000602084013e61104e565b606091505b50915091508161106157601560006106f7565b808060200190518101906106f791906120ef565b600061107f6114c8565b604080516001600160a01b03851660248083019190915282518083039091018152604490910182526020810180516001600160e01b03167f3f28a19b0000000000000000000000000000000000000000000000000000000017905290516000918291610167916110ee91611de4565b6000604051808303816000865af19150503d806000811461112b576040519150601f19603f3d011682016040523d82523d6000602084013e611130565b606091505b509150915061113d6114c8565b8261114a576015816106f7565b818060200190518101906106f791906127a0565b60006111686114e8565b604080516001600160a01b0386166024820152600785900b60448083019190915282518083039091018152606490910182526020810180516001600160e01b03167f287e1da80000000000000000000000000000000000000000000000000000000017905290516000918291610167916111e191611de4565b6000604051808303816000865af19150503d806000811461121e576040519150601f19603f3d011682016040523d82523d6000602084013e611223565b606091505b50915091506112306114e8565b8261123d57601581610b77565b81806020019051810190610b779190612847565b6040516001600160a01b03838116602483015282166044820152600090819081908190610167907ff2c31ff40000000000000000000000000000000000000000000000000000000090606401610fce565b6040516001600160a01b0382166024820152600090819081908190610167907f19f373610000000000000000000000000000000000000000000000000000000090604401610ce0565b604080516001600160a01b03831660248083019190915282518083039091018152604490910182526020810180516001600160e01b03167f93272baf0000000000000000000000000000000000000000000000000000000017905290516000918291829182916101679161135e91611de4565b6000604051808303816000865af19150503d806000811461139b576040519150601f19603f3d011682016040523d82523d6000602084013e6113a0565b606091505b5091509150816113b4576015600019610d87565b80806020019051810190610d87919061292f565b6040516001600160a01b0382166024820152600090819081908190610167907f335e04c10000000000000000000000000000000000000000000000000000000090604401610ce0565b60408051610240810182526060610120820181815261014083018290526000610160840181905261018084018390526101a084018190526101c084018190526101e0840181905261020084018390528451928301855280835260208301819052938201939093526102208201529081908152602001600060070b8152602001600015158152602001600015158152602001600015158152602001606081526020016060815260200160608152602001606081525090565b60405180604001604052806114db611411565b8152600060209091015290565b6040518060c001604052806114fb611411565b8152600060208201819052604082018190526060808301829052608083015260a09091015290565b6001600160a01b038116811461153857600080fd5b50565b6000806000806080858703121561155157600080fd5b843561155c81611523565b9350602085013561156c81611523565b9250604085013561157c81611523565b9396929550929360600135925050565b6000806040838503121561159f57600080fd5b82356115aa81611523565b946020939093013593505050565b60005b838110156115d35781810151838201526020016115bb565b838111156115e2576000848401525b50505050565b600081518084526116008160208601602086016115b8565b601f01601f19169290920160200192915050565b805115158252600060208201516001600160a01b0380821660208601526040840151915060a0604086015261164c60a08601836115e8565b91506060840151858303606087015261166583826115e8565b925050806080850151166080860152508091505092915050565b6020815260006104836020830184611614565b6000602082840312156116a457600080fd5b813561048381611523565b606081016104448284805160070b82526001600160a01b036020820151166020830152604081015160070b60408301525050565b600081518084526020808501808196508360051b8101915082860160005b8581101561173f578284038952815180518552850151604086860181905261172b81870183611614565b9a87019a9550505090840190600101611701565b5091979650505050505050565b60006101608251818552611762828601826115e8565b9150506020830151848203602086015261177c82826115e8565b915050604083015161179960408601826001600160a01b03169052565b50606083015184820360608601526117b182826115e8565b91505060808301516117c7608086018215159052565b5060a08301516117dc60a086018260070b9052565b5060c08301516117f060c086018215159052565b5060e083015184820360e086015261180882826116e3565b9150506101008084015161184482870182805160070b82526001600160a01b036020820151166020830152604081015160070b60408301525050565b5090949350505050565b600081518084526020808501945080840160005b838110156118bb578151805160070b8852838101516001600160a01b03908116858a01526040808301511515908a01526060808301511515908a0152608091820151169088015260a09096019590820190600101611862565b509495945050505050565b600081518084526020808501945080840160005b838110156118bb5781518051600790810b895284820151810b858a0152604080830151820b908a015260608083015190910b9089015260808082015115159089015260a0908101516001600160a01b03169088015260c090960195908201906001016118da565b600081518084526020808501945080840160005b838110156118bb5781518051600790810b895284820151810b858a015260408083015190910b908901526060808201516001600160a01b03908116918a01919091526080808301511515908a015260a091820151169088015260c09096019590820190600101611955565b600061012082518185526119d68286018261174c565b91505060208301516119ed602086018260070b9052565b506040830151611a01604086018215159052565b506060830151611a15606086018215159052565b506080830151611a29608086018215159052565b5060a083015184820360a0860152611a41828261184e565b91505060c083015184820360c0860152611a5b82826118c6565b91505060e083015184820360e0860152611a758282611941565b9150506101008084015185830382870152611a9083826115e8565b9695505050505050565b60208152600061048360208301846119c0565b606081526000611ac0606083018661184e565b8281036020840152611ad281866118c6565b90508281036040840152611a908185611941565b60008060408385031215611af957600080fd5b8235611b0481611523565b91506020830135611b1481611523565b809150509250929050565b602081526000825160406020840152611b3b60608401826119c0565b9050602084015160030b60408401528091505092915050565b7f4e487b7100000000000000000000000000000000000000000000000000000000600052604160045260246000fd5b60405160a0810167ffffffffffffffff81118282101715611ba657611ba6611b54565b60405290565b6040805190810167ffffffffffffffff81118282101715611ba657611ba6611b54565b604051610120810167ffffffffffffffff81118282101715611ba657611ba6611b54565b60405160c0810167ffffffffffffffff81118282101715611ba657611ba6611b54565b604051601f8201601f1916810167ffffffffffffffff81118282101715611c3f57611c3f611b54565b604052919050565b600067ffffffffffffffff821115611c6157611c61611b54565b50601f01601f191660200190565b60008060408385031215611c8257600080fd5b8235611c8d81611523565b9150602083013567ffffffffffffffff811115611ca957600080fd5b8301601f81018513611cba57600080fd5b8035611ccd611cc882611c47565b611c16565b818152866020838501011115611ce257600080fd5b816020840160208301376000602083830101528093505050509250929050565b828152604060208201526000611d1b60408301846115e8565b949350505050565b8060070b811461153857600080fd5b60008060408385031215611d4557600080fd5b8235611d5081611523565b91506020830135611b1481611d23565b602081526000825160c06020840152611d7c60e08401826119c0565b9050602084015160070b604084015260408401516001600160a01b038082166060860152606086015160070b608086015260808601519150601f198584030160a0860152611dca83836115e8565b92508060a08701511660c086015250508091505092915050565b60008251611df68184602087016115b8565b9190910192915050565b8051600381900b8114611e1257600080fd5b919050565b600060208284031215611e2957600080fd5b61048382611e00565b6001600160a01b0383168152604060208201526000611d1b60408301846115e8565b8215158152604060208201526000611d1b60408301846115e8565b600082601f830112611e8057600080fd5b8151611e8e611cc882611c47565b818152846020838601011115611ea357600080fd5b6104408260208301602087016115b8565b60008060408385031215611ec757600080fd5b611ed083611e00565b9150602083015167ffffffffffffffff811115611eec57600080fd5b611ef885828601611e6f565b9150509250929050565b60008060408385031215611f1557600080fd5b82519150602083015167ffffffffffffffff811115611eec57600080fd5b80518015158114611e1257600080fd5b8051611e1281611523565b600060a08284031215611f6057600080fd5b611f68611b83565b9050611f7382611f33565b81526020820151611f8381611523565b6020820152604082015167ffffffffffffffff80821115611fa357600080fd5b611faf85838601611e6f565b60408401526060840151915080821115611fc857600080fd5b50611fd584828501611e6f565b6060830152506080820151611fe981611523565b608082015292915050565b6000806040838503121561200757600080fd5b61201083611e00565b9150602083015167ffffffffffffffff81111561202c57600080fd5b611ef885828601611f4e565b8051611e1281611d23565b60006060828403121561205557600080fd5b6040516060810181811067ffffffffffffffff8211171561207857612078611b54565b8060405250809150825161208b81611d23565b8152602083015161209b81611523565b602082015260408301516120ae81611d23565b6040919091015292915050565b600080608083850312156120ce57600080fd5b6120d783611e00565b91506120e68460208501612043565b90509250929050565b6000806040838503121561210257600080fd5b61210b83611e00565b91506120e660208401611f33565b600067ffffffffffffffff82111561213357612133611b54565b5060051b60200190565b600082601f83011261214e57600080fd5b8151602061215e611cc883612119565b82815260059290921b8401810191818101908684111561217d57600080fd5b8286015b848110156121ff57805167ffffffffffffffff808211156121a25760008081fd5b908801906040828b03601f19018113156121bc5760008081fd5b6121c4611bac565b8388015181529083015190828211156121dd5760008081fd5b6121eb8c8984870101611f4e565b818901528652505050918301918301612181565b509695505050505050565b6000610160828403121561221d57600080fd5b612225611bcf565b9050815167ffffffffffffffff8082111561223f57600080fd5b61224b85838601611e6f565b8352602084015191508082111561226157600080fd5b61226d85838601611e6f565b602084015261227e60408501611f43565b6040840152606084015191508082111561229757600080fd5b6122a385838601611e6f565b60608401526122b460808501611f33565b60808401526122c560a08501612038565b60a08401526122d660c08501611f33565b60c084015260e08401519150808211156122ef57600080fd5b506122fc8482850161213d565b60e08301525061010061231184828501612043565b9082015292915050565b600082601f83011261232c57600080fd5b8151602061233c611cc883612119565b82815260a0928302850182019282820191908785111561235b57600080fd5b8387015b858110156123df5781818a0312156123775760008081fd5b61237f611b83565b815161238a81611d23565b81528186015161239981611523565b8187015260406123aa838201611f33565b9082015260606123bb838201611f33565b908201526080828101516123ce81611523565b90820152845292840192810161235f565b5090979650505050505050565b600082601f8301126123fd57600080fd5b8151602061240d611cc883612119565b82815260c0928302850182019282820191908785111561242c57600080fd5b8387015b858110156123df5781818a0312156124485760008081fd5b612450611bf3565b815161245b81611d23565b81528186015161246a81611d23565b8187015260408281015161247d81611d23565b9082015260608281015161249081611d23565b9082015260806124a1838201611f33565b9082015260a0828101516124b481611523565b908201528452928401928101612430565b600082601f8301126124d657600080fd5b815160206124e6611cc883612119565b82815260c0928302850182019282820191908785111561250557600080fd5b8387015b858110156123df5781818a0312156125215760008081fd5b612529611bf3565b815161253481611d23565b81528186015161254381611d23565b8187015260408281015161255681611d23565b9082015260608281015161256981611523565b90820152608061257a838201611f33565b9082015260a08281015161258d81611523565b908201528452928401928101612509565b600061012082840312156125b157600080fd5b6125b9611bcf565b9050815167ffffffffffffffff808211156125d357600080fd5b6125df8583860161220a565b83526125ed60208501612038565b60208401526125fe60408501611f33565b604084015261260f60608501611f33565b606084015261262060808501611f33565b608084015260a084015191508082111561263957600080fd5b6126458583860161231b565b60a084015260c084015191508082111561265e57600080fd5b61266a858386016123ec565b60c084015260e084015191508082111561268357600080fd5b61268f858386016124c5565b60e0840152610100915081840151818111156126aa57600080fd5b6126b686828701611e6f565b8385015250505092915050565b600080604083850312156126d657600080fd5b6126df83611e00565b9150602083015167ffffffffffffffff8111156126fb57600080fd5b611ef88582860161259e565b6000806000806080858703121561271d57600080fd5b61272685611e00565b9350602085015167ffffffffffffffff8082111561274357600080fd5b61274f8883890161231b565b9450604087015191508082111561276557600080fd5b612771888389016123ec565b9350606087015191508082111561278757600080fd5b50612794878288016124c5565b91505092959194509250565b600080604083850312156127b357600080fd5b6127bc83611e00565b9150602083015167ffffffffffffffff808211156127d957600080fd5b90840190604082870312156127ed57600080fd5b60405160408101818110838211171561280857612808611b54565b60405282518281111561281a57600080fd5b6128268882860161259e565b82525061283560208401611e00565b60208201528093505050509250929050565b6000806040838503121561285a57600080fd5b61286383611e00565b9150602083015167ffffffffffffffff8082111561288057600080fd5b9084019060c0828703121561289457600080fd5b61289c611bf3565b8251828111156128ab57600080fd5b6128b78882860161259e565b8252506128c660208401612038565b60208201526128d760408401611f43565b60408201526128e860608401612038565b60608201526080830151828111156128ff57600080fd5b61290b88828601611e6f565b60808301525061291d60a08401611f43565b60a08201528093505050509250929050565b6000806040838503121561294257600080fd5b61294b83611e00565b91506120e660208401611e0056fea264697066735822122067385f0f7740f954977b7cdcb63a0215771688f7aea4c5d29f6d74ab2f93683664736f6c63430008090033",
  "linkReferences": {},
  "deployedLinkReferences": {}
}