{
  "_format": "hh-sol-artifact-1",
  "contractName": "PrecompileTestContract",
  "sourceName": "contracts/PrecompileTestContract.sol",
  "abi": [
    {
      "anonymous": false,
      "inputs": [
        {
          "indexed": false,
          "internalType": "bool",
          "name": "",
          "type": "bool"
        },
        {
          "indexed": false,
          "internalType": "bytes",
          "name": "",
          "type": "bytes"
        }
      ],
      "name": "CallResponseEvent",
      "type": "event"
    },
    {
      "inputs": [
        {
          "internalType": "address",
          "name": "token",
          "type": "address"
        }
      ],
      "name": "getCustomFeesForToken",
      "outputs": [
        {
          "components": [
            {
              "internalType": "int64",
              "name": "amount",
              "type": "int64"
            },
            {
              "internalType": "address",
              "name": "tokenId",
              "type": "address"
            },
            {
              "internalType": "bool",
              "name": "useHbarsForPayment",
              "type": "bool"
            },
            {
              "internalType": "bool",
              "name": "useCurrentTokenForPayment",
              "type": "bool"
            },
            {
              "internalType": "address",
              "name": "feeCollector",
              "type": "address"
            }
          ],
          "internalType": "struct IHederaTokenService.FixedFee[]",
          "name": "fixedFees",
          "type": "tuple[]"
        },
        {
          "components": [
            {
              "internalType": "int64",
              "name": "numerator",
              "type": "int64"
            },
            {
              "internalType": "int64",
              "name": "denominator",
              "type": "int64"
            },
            {
              "internalType": "int64",
              "name": "minimumAmount",
              "type": "int64"
            },
            {
              "internalType": "int64",
              "name": "maximumAmount",
              "type": "int64"
            },
            {
              "internalType": "bool",
              "name": "netOfTransfers",
              "type": "bool"
            },
            {
              "internalType": "address",
              "name": "feeCollector",
              "type": "address"
            }
          ],
          "internalType": "struct IHederaTokenService.FractionalFee[]",
          "name": "fractionalFees",
          "type": "tuple[]"
        },
        {
          "components": [
            {
              "internalType": "int64",
              "name": "numerator",
              "type": "int64"
            },
            {
              "internalType": "int64",
              "name": "denominator",
              "type": "int64"
            },
            {
              "internalType": "int64",
              "name": "amount",
              "type": "int64"
            },
            {
              "internalType": "address",
              "name": "tokenId",
              "type": "address"
            },
            {
              "internalType": "bool",
              "name": "useHbarsForPayment",
              "type": "bool"
            },
            {
              "internalType": "address",
              "name": "feeCollector",
              "type": "address"
            }
          ],
          "internalType": "struct IHederaTokenService.RoyaltyFee[]",
          "name": "royaltyFees",
          "type": "tuple[]"
        }
      ],
      "stateMutability": "nonpayable",
      "type": "function"
    },
    {
      "inputs": [
        {
          "internalType": "address",
          "name": "token",
          "type": "address"
        }
      ],
      "name": "getExpiryInfoForToken",
      "outputs": [
        {
          "components": [
            {
              "internalType": "int64",
              "name": "second",
              "type": "int64"
            },
            {
              "internalType": "address",
              "name": "autoRenewAccount",
              "type": "address"
            },
            {
              "internalType": "int64",
              "name": "autoRenewPeriod",
              "type": "int64"
            }
          ],
          "internalType": "struct IHederaTokenService.Expiry",
          "name": "expiry",
          "type": "tuple"
        }
      ],
      "stateMutability": "nonpayable",
      "type": "function"
    },
    {
      "inputs": [
        {
          "internalType": "address",
          "name": "token",
          "type": "address"
        }
      ],
      "name": "getInformationForFungibleToken",
      "outputs": [
        {
          "components": [
            {
              "components": [
                {
                  "components": [
                    {
                      "internalType": "string",
                      "name": "name",
                      "type": "string"
                    },
                    {
                      "internalType": "string",
                      "name": "symbol",
                      "type": "string"
                    },
                    {
                      "internalType": "address",
                      "name": "treasury",
                      "type": "address"
                    },
                    {
                      "internalType": "string",
                      "name": "memo",
                      "type": "string"
                    },
                    {
                      "internalType": "bool",
                      "name": "tokenSupplyType",
                      "type": "bool"
                    },
                    {
                      "internalType": "int64",
                      "name": "maxSupply",
                      "type": "int64"
                    },
                    {
                      "internalType": "bool",
                      "name": "freezeDefault",
                      "type": "bool"
                    },
                    {
                      "components": [
                        {
                          "internalType": "uint256",
                          "name": "keyType",
                          "type": "uint256"
                        },
                        {
                          "components": [
                            {
                              "internalType": "bool",
                              "name": "inheritAccountKey",
                              "type": "bool"
                            },
                            {
                              "internalType": "address",
                              "name": "contractId",
                              "type": "address"
                            },
                            {
                              "internalType": "bytes",
                              "name": "ed25519",
                              "type": "bytes"
                            },
                            {
                              "internalType": "bytes",
                              "name": "ECDSA_secp256k1",
                              "type": "bytes"
                            },
                            {
                              "internalType": "address",
                              "name": "delegatableContractId",
                              "type": "address"
                            }
                          ],
                          "internalType": "struct IHederaTokenService.KeyValue",
                          "name": "key",
                          "type": "tuple"
                        }
                      ],
                      "internalType": "struct IHederaTokenService.TokenKey[]",
                      "name": "tokenKeys",
                      "type": "tuple[]"
                    },
                    {
                      "components": [
                        {
                          "internalType": "int64",
                          "name": "second",
                          "type": "int64"
                        },
                        {
                          "internalType": "address",
                          "name": "autoRenewAccount",
                          "type": "address"
                        },
                        {
                          "internalType": "int64",
                          "name": "autoRenewPeriod",
                          "type": "int64"
                        }
                      ],
                      "internalType": "struct IHederaTokenService.Expiry",
                      "name": "expiry",
                      "type": "tuple"
                    }
                  ],
                  "internalType": "struct IHederaTokenService.HederaToken",
                  "name": "token",
                  "type": "tuple"
                },
                {
                  "internalType": "int64",
                  "name": "totalSupply",
                  "type": "int64"
                },
                {
                  "internalType": "bool",
                  "name": "deleted",
                  "type": "bool"
                },
                {
                  "internalType": "bool",
                  "name": "defaultKycStatus",
                  "type": "bool"
                },
                {
                  "internalType": "bool",
                  "name": "pauseStatus",
                  "type": "bool"
                },
                {
                  "components": [
                    {
                      "internalType": "int64",
                      "name": "amount",
                      "type": "int64"
                    },
                    {
                      "internalType": "address",
                      "name": "tokenId",
                      "type": "address"
                    },
                    {
                      "internalType": "bool",
                      "name": "useHbarsForPayment",
                      "type": "bool"
                    },
                    {
                      "internalType": "bool",
                      "name": "useCurrentTokenForPayment",
                      "type": "bool"
                    },
                    {
                      "internalType": "address",
                      "name": "feeCollector",
                      "type": "address"
                    }
                  ],
                  "internalType": "struct IHederaTokenService.FixedFee[]",
                  "name": "fixedFees",
                  "type": "tuple[]"
                },
                {
                  "components": [
                    {
                      "internalType": "int64",
                      "name": "numerator",
                      "type": "int64"
                    },
                    {
                      "internalType": "int64",
                      "name": "denominator",
                      "type": "int64"
                    },
                    {
                      "internalType": "int64",
                      "name": "minimumAmount",
                      "type": "int64"
                    },
                    {
                      "internalType": "int64",
                      "name": "maximumAmount",
                      "type": "int64"
                    },
                    {
                      "internalType": "bool",
                      "name": "netOfTransfers",
                      "type": "bool"
                    },
                    {
                      "internalType": "address",
                      "name": "feeCollector",
                      "type": "address"
                    }
                  ],
                  "internalType": "struct IHederaTokenService.FractionalFee[]",
                  "name": "fractionalFees",
                  "type": "tuple[]"
                },
                {
                  "components": [
                    {
                      "internalType": "int64",
                      "name": "numerator",
                      "type": "int64"
                    },
                    {
                      "internalType": "int64",
                      "name": "denominator",
                      "type": "int64"
                    },
                    {
                      "internalType": "int64",
                      "name": "amount",
                      "type": "int64"
                    },
                    {
                      "internalType": "address",
                      "name": "tokenId",
                      "type": "address"
                    },
                    {
                      "internalType": "bool",
                      "name": "useHbarsForPayment",
                      "type": "bool"
                    },
                    {
                      "internalType": "address",
                      "name": "feeCollector",
                      "type": "address"
                    }
                  ],
                  "internalType": "struct IHederaTokenService.RoyaltyFee[]",
                  "name": "royaltyFees",
                  "type": "tuple[]"
                },
                {
                  "internalType": "string",
                  "name": "ledgerId",
                  "type": "string"
                }
              ],
              "internalType": "struct IHederaTokenService.TokenInfo",
              "name": "tokenInfo",
              "type": "tuple"
            },
            {
              "internalType": "int32",
              "name": "decimals",
              "type": "int32"
            }
          ],
          "internalType": "struct IHederaTokenService.FungibleTokenInfo",
          "name": "fungibleTokenInfo",
          "type": "tuple"
        }
      ],
      "stateMutability": "nonpayable",
      "type": "function"
    },
    {
      "inputs": [
        {
          "internalType": "address",
          "name": "token",
          "type": "address"
        },
        {
          "internalType": "int64",
          "name": "serialNumber",
          "type": "int64"
        }
      ],
      "name": "getInformationForNonFungibleToken",
      "outputs": [
        {
          "components": [
            {
              "components": [
                {
                  "components": [
                    {
                      "internalType": "string",
                      "name": "name",
                      "type": "string"
                    },
                    {
                      "internalType": "string",
                      "name": "symbol",
                      "type": "string"
                    },
                    {
                      "internalType": "address",
                      "name": "treasury",
                      "type": "address"
                    },
                    {
                      "internalType": "string",
                      "name": "memo",
                      "type": "string"
                    },
                    {
                      "internalType": "bool",
                      "name": "tokenSupplyType",
                      "type": "bool"
                    },
                    {
                      "internalType": "int64",
                      "name": "maxSupply",
                      "type": "int64"
                    },
                    {
                      "internalType": "bool",
                      "name": "freezeDefault",
                      "type": "bool"
                    },
                    {
                      "components": [
                        {
                          "internalType": "uint256",
                          "name": "keyType",
                          "type": "uint256"
                        },
                        {
                          "components": [
                            {
                              "internalType": "bool",
                              "name": "inheritAccountKey",
                              "type": "bool"
                            },
                            {
                              "internalType": "address",
                              "name": "contractId",
                              "type": "address"
                            },
                            {
                              "internalType": "bytes",
                              "name": "ed25519",
                              "type": "bytes"
                            },
                            {
                              "internalType": "bytes",
                              "name": "ECDSA_secp256k1",
                              "type": "bytes"
                            },
                            {
                              "internalType": "address",
                              "name": "delegatableContractId",
                              "type": "address"
                            }
                          ],
                          "internalType": "struct IHederaTokenService.KeyValue",
                          "name": "key",
                          "type": "tuple"
                        }
                      ],
                      "internalType": "struct IHederaTokenService.TokenKey[]",
                      "name": "tokenKeys",
                      "type": "tuple[]"
                    },
                    {
                      "components": [
                        {
                          "internalType": "int64",
                          "name": "second",
                          "type": "int64"
                        },
                        {
                          "internalType": "address",
                          "name": "autoRenewAccount",
                          "type": "address"
                        },
                        {
                          "internalType": "int64",
                          "name": "autoRenewPeriod",
                          "type": "int64"
                        }
                      ],
                      "internalType": "struct IHederaTokenService.Expiry",
                      "name": "expiry",
                      "type": "tuple"
                    }
                  ],
                  "internalType": "struct IHederaTokenService.HederaToken",
                  "name": "token",
                  "type": "tuple"
                },
                {
                  "internalType": "int64",
                  "name": "totalSupply",
                  "type": "int64"
                },
                {
                  "internalType": "bool",
                  "name": "deleted",
                  "type": "bool"
                },
                {
                  "internalType": "bool",
                  "name": "defaultKycStatus",
                  "type": "bool"
                },
                {
                  "internalType": "bool",
                  "name": "pauseStatus",
                  "type": "bool"
                },
                {
                  "components": [
                    {
                      "internalType": "int64",
                      "name": "amount",
                      "type": "int64"
                    },
                    {
                      "internalType": "address",
                      "name": "tokenId",
                      "type": "address"
                    },
                    {
                      "internalType": "bool",
                      "name": "useHbarsForPayment",
                      "type": "bool"
                    },
                    {
                      "internalType": "bool",
                      "name": "useCurrentTokenForPayment",
                      "type": "bool"
                    },
                    {
                      "internalType": "address",
                      "name": "feeCollector",
                      "type": "address"
                    }
                  ],
                  "internalType": "struct IHederaTokenService.FixedFee[]",
                  "name": "fixedFees",
                  "type": "tuple[]"
                },
                {
                  "components": [
                    {
                      "internalType": "int64",
                      "name": "numerator",
                      "type": "int64"
                    },
                    {
                      "internalType": "int64",
                      "name": "denominator",
                      "type": "int64"
                    },
                    {
                      "internalType": "int64",
                      "name": "minimumAmount",
                      "type": "int64"
                    },
                    {
                      "internalType": "int64",
                      "name": "maximumAmount",
                      "type": "int64"
                    },
                    {
                      "internalType": "bool",
                      "name": "netOfTransfers",
                      "type": "bool"
                    },
                    {
                      "internalType": "address",
                      "name": "feeCollector",
                      "type": "address"
                    }
                  ],
                  "internalType": "struct IHederaTokenService.FractionalFee[]",
                  "name": "fractionalFees",
                  "type": "tuple[]"
                },
                {
                  "components": [
                    {
                      "internalType": "int64",
                      "name": "numerator",
                      "type": "int64"
                    },
                    {
                      "internalType": "int64",
                      "name": "denominator",
                      "type": "int64"
                    },
                    {
                      "internalType": "int64",
                      "name": "amount",
                      "type": "int64"
                    },
                    {
                      "internalType": "address",
                      "name": "tokenId",
                      "type": "address"
                    },
                    {
                      "internalType": "bool",
                      "name": "useHbarsForPayment",
                      "type": "bool"
                    },
                    {
                      "internalType": "address",
                      "name": "feeCollector",
                      "type": "address"
                    }
                  ],
                  "internalType": "struct IHederaTokenService.RoyaltyFee[]",
                  "name": "royaltyFees",
                  "type": "tuple[]"
                },
                {
                  "internalType": "string",
                  "name": "ledgerId",
                  "type": "string"
                }
              ],
              "internalType": "struct IHederaTokenService.TokenInfo",
              "name": "tokenInfo",
              "type": "tuple"
            },
            {
              "internalType": "int64",
              "name": "serialNumber",
              "type": "int64"
            },
            {
              "internalType": "address",
              "name": "ownerId",
              "type": "address"
            },
            {
              "internalType": "int64",
              "name": "creationTime",
              "type": "int64"
            },
            {
              "internalType": "bytes",
              "name": "metadata",
              "type": "bytes"
            },
            {
              "internalType": "address",
              "name": "spenderId",
              "type": "address"
            }
          ],
          "internalType": "struct IHederaTokenService.NonFungibleTokenInfo",
          "name": "nonFungibleTokenInfo",
          "type": "tuple"
        }
      ],
      "stateMutability": "nonpayable",
      "type": "function"
    },
    {
      "inputs": [
        {
          "internalType": "address",
          "name": "token",
          "type": "address"
        }
      ],
      "name": "getInformationForToken",
      "outputs": [
        {
          "components": [
            {
              "components": [
                {
                  "internalType": "string",
                  "name": "name",
                  "type": "string"
                },
                {
                  "internalType": "string",
                  "name": "symbol",
                  "type": "string"
                },
                {
                  "internalType": "address",
                  "name": "treasury",
                  "type": "address"
                },
                {
                  "internalType": "string",
                  "name": "memo",
                  "type": "string"
                },
                {
                  "internalType": "bool",
                  "name": "tokenSupplyType",
                  "type": "bool"
                },
                {
                  "internalType": "int64",
                  "name": "maxSupply",
                  "type": "int64"
                },
                {
                  "internalType": "bool",
                  "name": "freezeDefault",
                  "type": "bool"
                },
                {
                  "components": [
                    {
                      "internalType": "uint256",
                      "name": "keyType",
                      "type": "uint256"
                    },
                    {
                      "components": [
                        {
                          "internalType": "bool",
                          "name": "inheritAccountKey",
                          "type": "bool"
                        },
                        {
                          "internalType": "address",
                          "name": "contractId",
                          "type": "address"
                        },
                        {
                          "internalType": "bytes",
                          "name": "ed25519",
                          "type": "bytes"
                        },
                        {
                          "internalType": "bytes",
                          "name": "ECDSA_secp256k1",
                          "type": "bytes"
                        },
                        {
                          "internalType": "address",
                          "name": "delegatableContractId",
                          "type": "address"
                        }
                      ],
                      "internalType": "struct IHederaTokenService.KeyValue",
                      "name": "key",
                      "type": "tuple"
                    }
                  ],
                  "internalType": "struct IHederaTokenService.TokenKey[]",
                  "name": "tokenKeys",
                  "type": "tuple[]"
                },
                {
                  "components": [
                    {
                      "internalType": "int64",
                      "name": "second",
                      "type": "int64"
                    },
                    {
                      "internalType": "address",
                      "name": "autoRenewAccount",
                      "type": "address"
                    },
                    {
                      "internalType": "int64",
                      "name": "autoRenewPeriod",
                      "type": "int64"
                    }
                  ],
                  "internalType": "struct IHederaTokenService.Expiry",
                  "name": "expiry",
                  "type": "tuple"
                }
              ],
              "internalType": "struct IHederaTokenService.HederaToken",
              "name": "token",
              "type": "tuple"
            },
            {
              "internalType": "int64",
              "name": "totalSupply",
              "type": "int64"
            },
            {
              "internalType": "bool",
              "name": "deleted",
              "type": "bool"
            },
            {
              "internalType": "bool",
              "name": "defaultKycStatus",
              "type": "bool"
            },
            {
              "internalType": "bool",
              "name": "pauseStatus",
              "type": "bool"
            },
            {
              "components": [
                {
                  "internalType": "int64",
                  "name": "amount",
                  "type": "int64"
                },
                {
                  "internalType": "address",
                  "name": "tokenId",
                  "type": "address"
                },
                {
                  "internalType": "bool",
                  "name": "useHbarsForPayment",
                  "type": "bool"
                },
                {
                  "internalType": "bool",
                  "name": "useCurrentTokenForPayment",
                  "type": "bool"
                },
                {
                  "internalType": "address",
                  "name": "feeCollector",
                  "type": "address"
                }
              ],
              "internalType": "struct IHederaTokenService.FixedFee[]",
              "name": "fixedFees",
              "type": "tuple[]"
            },
            {
              "components": [
                {
                  "internalType": "int64",
                  "name": "numerator",
                  "type": "int64"
                },
                {
                  "internalType": "int64",
                  "name": "denominator",
                  "type": "int64"
                },
                {
                  "internalType": "int64",
                  "name": "minimumAmount",
                  "type": "int64"
                },
                {
                  "internalType": "int64",
                  "name": "maximumAmount",
                  "type": "int64"
                },
                {
                  "internalType": "bool",
                  "name": "netOfTransfers",
                  "type": "bool"
                },
                {
                  "internalType": "address",
                  "name": "feeCollector",
                  "type": "address"
                }
              ],
              "internalType": "struct IHederaTokenService.FractionalFee[]",
              "name": "fractionalFees",
              "type": "tuple[]"
            },
            {
              "components": [
                {
                  "internalType": "int64",
                  "name": "numerator",
                  "type": "int64"
                },
                {
                  "internalType": "int64",
                  "name": "denominator",
                  "type": "int64"
                },
                {
                  "internalType": "int64",
                  "name": "amount",
                  "type": "int64"
                },
                {
                  "internalType": "address",
                  "name": "tokenId",
                  "type": "address"
                },
                {
                  "internalType": "bool",
                  "name": "useHbarsForPayment",
                  "type": "bool"
                },
                {
                  "internalType": "address",
                  "name": "feeCollector",
                  "type": "address"
                }
              ],
              "internalType": "struct IHederaTokenService.RoyaltyFee[]",
              "name": "royaltyFees",
              "type": "tuple[]"
            },
            {
              "internalType": "string",
              "name": "ledgerId",
              "type": "string"
            }
          ],
          "internalType": "struct IHederaTokenService.TokenInfo",
          "name": "tokenInfo",
          "type": "tuple"
        }
      ],
      "stateMutability": "nonpayable",
      "type": "function"
    },
    {
      "inputs": [
        {
          "internalType": "address",
          "name": "token",
          "type": "address"
        }
      ],
      "name": "getTokenDefaultFreeze",
      "outputs": [
        {
          "internalType": "bool",
          "name": "",
          "type": "bool"
        }
      ],
      "stateMutability": "nonpayable",
      "type": "function"
    },
    {
      "inputs": [
        {
          "internalType": "address",
          "name": "token",
          "type": "address"
        }
      ],
      "name": "getTokenDefaultKyc",
      "outputs": [
        {
          "internalType": "bool",
          "name": "",
          "type": "bool"
        }
      ],
      "stateMutability": "nonpayable",
      "type": "function"
    },
    {
      "inputs": [
        {
          "internalType": "address",
          "name": "token",
          "type": "address"
        },
        {
          "internalType": "uint256",
          "name": "keyType",
          "type": "uint256"
        }
      ],
      "name": "getTokenKeyPublic",
      "outputs": [
        {
          "components": [
            {
              "internalType": "bool",
              "name": "inheritAccountKey",
              "type": "bool"
            },
            {
              "internalType": "address",
              "name": "contractId",
              "type": "address"
            },
            {
              "internalType": "bytes",
              "name": "ed25519",
              "type": "bytes"
            },
            {
              "internalType": "bytes",
              "name": "ECDSA_secp256k1",
              "type": "bytes"
            },
            {
              "internalType": "address",
              "name": "delegatableContractId",
              "type": "address"
            }
          ],
          "internalType": "struct IHederaTokenService.KeyValue",
          "name": "",
          "type": "tuple"
        }
      ],
      "stateMutability": "nonpayable",
      "type": "function"
    },
    {
      "inputs": [
        {
          "internalType": "address",
          "name": "token",
          "type": "address"
        }
      ],
      "name": "getType",
      "outputs": [
        {
          "internalType": "int256",
          "name": "",
          "type": "int256"
        }
      ],
      "stateMutability": "nonpayable",
      "type": "function"
    },
    {
      "inputs": [
        {
          "internalType": "address",
          "name": "token",
          "type": "address"
        },
        {
          "internalType": "address",
          "name": "account",
          "type": "address"
        }
      ],
      "name": "isKycGranted",
      "outputs": [
        {
          "internalType": "bool",
          "name": "",
          "type": "bool"
        }
      ],
      "stateMutability": "nonpayable",
      "type": "function"
    },
    {
      "inputs": [
        {
          "internalType": "address",
          "name": "token",
          "type": "address"
        }
      ],
      "name": "isTokenAddress",
      "outputs": [
        {
          "internalType": "bool",
          "name": "",
          "type": "bool"
        }
      ],
      "stateMutability": "nonpayable",
      "type": "function"
    },
    {
      "inputs": [
        {
          "internalType": "address",
          "name": "token",
          "type": "address"
        },
        {
          "internalType": "address",
          "name": "account",
          "type": "address"
        }
      ],
      "name": "isTokenFrozen",
      "outputs": [
        {
          "internalType": "bool",
          "name": "",
          "type": "bool"
        }
      ],
      "stateMutability": "nonpayable",
      "type": "function"
    },
    {
      "inputs": [
        {
          "internalType": "address",
          "name": "token",
          "type": "address"
        },
        {
          "internalType": "bytes",
          "name": "encodedFunctionSelector",
          "type": "bytes"
        }
      ],
      "name": "redirectForToken",
      "outputs": [],
      "stateMutability": "nonpayable",
      "type": "function"
    },
    {
      "inputs": [
        {
          "internalType": "address",
          "name": "token",
          "type": "address"
        },
        {
          "internalType": "address",
          "name": "from",
          "type": "address"
        },
        {
          "internalType": "address",
          "name": "to",
          "type": "address"
        },
        {
          "internalType": "uint256",
          "name": "amount",
          "type": "uint256"
        }
      ],
      "name": "transferFrom",
      "outputs": [
        {
          "internalType": "int64",
          "name": "responseCode",
          "type": "int64"
        }
      ],
      "stateMutability": "nonpayable",
      "type": "function"
    },
    {
      "inputs": [
        {
          "internalType": "address",
          "name": "token",
          "type": "address"
        },
        {
          "internalType": "address",
          "name": "from",
          "type": "address"
        },
        {
          "internalType": "address",
          "name": "to",
          "type": "address"
        },
        {
          "internalType": "uint256",
          "name": "serialNumber",
          "type": "uint256"
        }
      ],
      "name": "transferFromNFT",
      "outputs": [
        {
          "internalType": "int64",
          "name": "responseCode",
          "type": "int64"
        }
      ],
      "stateMutability": "nonpayable",
      "type": "function"
    }
  ],
  "bytecode": "0x608060405234801561001057600080fd5b506127a9806100206000396000f3fe608060405234801561001057600080fd5b50600436106100f55760003560e01c806359c16f5a11610097578063bc2fb00e11610066578063bc2fb00e14610245578063bff9834f14610258578063f429f19b1461026b578063fd4d1c261461028c57600080fd5b806359c16f5a146101dd578063618dc65e146101fd5780638e5e7996146102125780639b23d3d91461023257600080fd5b8063319a8723116100d3578063319a87231461016557806335589a131461018857806344f38bc8146101a8578063565ca6fa146101ca57600080fd5b806315dacbea146100fa5780631955de0b146101255780631de8edad14610145575b600080fd5b61010d6101083660046113e3565b61029f565b60405160079190910b81526020015b60405180910390f35b610138610133366004611434565b6103ac565b60405161011c9190611527565b61015861015336600461153a565b610420565b60405161011c9190611557565b61017861017336600461153a565b610460565b604051901515815260200161011c565b61019b61019636600461153a565b6104ee565b60405161011c9190611942565b6101bb6101b636600461153a565b610502565b60405161011c93929190611955565b6101786101d836600461198e565b610534565b6101f06101eb36600461153a565b61059d565b60405161011c91906119c7565b61021061020b366004611b17565b6105b1565b005b610225610220366004611bb9565b61069f565b60405161011c9190611be7565b61010d6102403660046113e3565b6106c6565b61017861025336600461198e565b610724565b61017861026636600461153a565b61078d565b61027e61027936600461153a565b6107f5565b60405190815260200161011c565b61017861029a36600461153a565b610860565b6040516001600160a01b0385811660248301528481166044830152831660648201526084810182905260009081908190610167907f15dacbea000000000000000000000000000000000000000000000000000000009060a4015b60408051601f198184030181529181526020820180516001600160e01b03166001600160e01b03199094169390931790925290516103379190611c6b565b6000604051808303816000865af19150503d8060008114610374576040519150601f19603f3d011682016040523d82523d6000602084013e610379565b606091505b50915091508161038a57601561039e565b8080602001905181019061039e9190611c9e565b60030b979650505050505050565b6103f26040518060a0016040528060001515815260200160006001600160a01b03168152602001606081526020016060815260200160006001600160a01b031681525090565b6000806103ff85856108c3565b915060070b9150601660030b821461041657600080fd5b9150505b92915050565b60408051606081018252600080825260208201819052918101829052908061044784610a20565b90925090506016821461045957600080fd5b9392505050565b600080600061046e84610b43565b9092509050601682146104595760405162461bcd60e51b815260206004820152602360248201527f676574546f6b656e44656661756c74467265657a65537461747573206661696c60448201527f656421000000000000000000000000000000000000000000000000000000000060648201526084015b60405180910390fd5b6104f66112b9565b60008061044784610c40565b6060806060600061051285610d29565b919650945092509050600781900b60161461052c57600080fd5b509193909250565b60008060006105438585610e29565b915060070b9150601660030b82146104165760405162461bcd60e51b815260206004820152601660248201527f546f6b656e20697346726f7a656e206661696c6564210000000000000000000060448201526064016104e5565b6105a5611370565b60008061044784610f1d565b6000806101676001600160a01b031663618dc65e60e01b85856040516024016105db929190611cb9565b60408051601f198184030181529181526020820180516001600160e01b03166001600160e01b03199094169390931790925290516106199190611c6b565b6000604051808303816000865af19150503d8060008114610656576040519150601f19603f3d011682016040523d82523d6000602084013e61065b565b606091505b50915091507f4af4780e06fe8cb9df64b0794fa6f01399af979175bb988e35e0e57e594567bc8282604051610691929190611ce3565b60405180910390a150505050565b6106a7611390565b6000806106b48585611006565b90925090506016821461041657600080fd5b6040516001600160a01b0385811660248301528481166044830152831660648201526084810182905260009081908190610167907f9b23d3d9000000000000000000000000000000000000000000000000000000009060a4016102f9565b600080600061073385856110f9565b915060070b9150601660030b82146104165760405162461bcd60e51b815260206004820152601360248201527f546f6b656e2069734b7963206661696c6564210000000000000000000000000060448201526064016104e5565b600080600061079b8461114a565b915060070b9150601660030b82146104595760405162461bcd60e51b815260206004820152601c60248201527f546f6b656e206973546f6b656e41646472657373206661696c6564210000000060448201526064016104e5565b600080600061080384611193565b60030b915060070b9150601660030b82146104595760405162461bcd60e51b815260206004820152601c60248201527f546f6b656e20747970652061707072616973616c206661696c6564210000000060448201526064016104e5565b600080600061086e84611270565b9092509050601682146104595760405162461bcd60e51b815260206004820181905260248201527f676574546f6b656e44656661756c744b7963537461747573206661696c65642160448201526064016104e5565b6040805160a081018252600080825260208083018290526060838501819052808401526080830182905283516001600160a01b03871660248201526044808201879052855180830390910181526064909101855290810180516001600160e01b03167f3c4dd32e0000000000000000000000000000000000000000000000000000000017905292519092839182916101679161095f9190611c6b565b6000604051808303816000865af19150503d806000811461099c576040519150601f19603f3d011682016040523d82523d6000602084013e6109a1565b606091505b50915091506109ec6040518060a0016040528060001515815260200160006001600160a01b03168152602001606081526020016060815260200160006001600160a01b031681525090565b826109f957601581610a0d565b81806020019051810190610a0d9190611e04565b60039190910b9890975095505050505050565b604080516060810182526000808252602080830182905282840182905283516001600160a01b038616602480830191909152855180830390910181526044909101855290810180516001600160e01b03167fd614cdb800000000000000000000000000000000000000000000000000000000179052925190928391829161016791610aab9190611c6b565b6000604051808303816000865af19150503d8060008114610ae8576040519150601f19603f3d011682016040523d82523d6000602084013e610aed565b606091505b506040805160608101825260008082526020820181905291810191909152919350915082610b1d57601581610b31565b81806020019051810190610b319190611ed5565b60039190910b97909650945050505050565b6040516001600160a01b0382166024820152600090819081908190610167907fa7daa18d00000000000000000000000000000000000000000000000000000000906044015b60408051601f198184030181529181526020820180516001600160e01b03166001600160e01b0319909416939093179092529051610bc69190611c6b565b6000604051808303816000865af19150503d8060008114610c03576040519150601f19603f3d011682016040523d82523d6000602084013e610c08565b606091505b509150915081610c1b5760156000610c2f565b80806020019051810190610c2f9190611f09565b60039190910b969095509350505050565b6000610c4a6112b9565b604080516001600160a01b03851660248083019190915282518083039091018152604490910182526020810180516001600160e01b03167f1f69565f000000000000000000000000000000000000000000000000000000001790529051600091829161016791610cb991611c6b565b6000604051808303816000865af19150503d8060008114610cf6576040519150601f19603f3d011682016040523d82523d6000602084013e610cfb565b606091505b5091509150610d086112b9565b82610d1557601581610b31565b81806020019051810190610b3191906124dd565b604080516001600160a01b03831660248083019190915282518083039091018152604490910182526020810180516001600160e01b03167fae7611a0000000000000000000000000000000000000000000000000000000001790529051600091606091829182918591829161016791610da191611c6b565b6000604051808303816000865af19150503d8060008114610dde576040519150601f19603f3d011682016040523d82523d6000602084013e610de3565b606091505b5091509150606080606084610dfc576015838383610e10565b83806020019051810190610e109190612521565b60039390930b9d919c509a509098509650505050505050565b6040516001600160a01b03838116602483015282166044820152600090819081908190610167907f46de0fb100000000000000000000000000000000000000000000000000000000906064015b60408051601f198184030181529181526020820180516001600160e01b03166001600160e01b0319909416939093179092529051610eb49190611c6b565b6000604051808303816000865af19150503d8060008114610ef1576040519150601f19603f3d011682016040523d82523d6000602084013e610ef6565b606091505b509150915081610f095760156000610b31565b80806020019051810190610b319190611f09565b6000610f27611370565b604080516001600160a01b03851660248083019190915282518083039091018152604490910182526020810180516001600160e01b03167f3f28a19b000000000000000000000000000000000000000000000000000000001790529051600091829161016791610f9691611c6b565b6000604051808303816000865af19150503d8060008114610fd3576040519150601f19603f3d011682016040523d82523d6000602084013e610fd8565b606091505b5091509150610fe5611370565b82610ff257601581610b31565b81806020019051810190610b3191906125ba565b6000611010611390565b604080516001600160a01b0386166024820152600785900b60448083019190915282518083039091018152606490910182526020810180516001600160e01b03167f287e1da800000000000000000000000000000000000000000000000000000000179052905160009182916101679161108991611c6b565b6000604051808303816000865af19150503d80600081146110c6576040519150601f19603f3d011682016040523d82523d6000602084013e6110cb565b606091505b50915091506110d8611390565b826110e557601581610a0d565b81806020019051810190610a0d9190612661565b6040516001600160a01b03838116602483015282166044820152600090819081908190610167907ff2c31ff40000000000000000000000000000000000000000000000000000000090606401610e76565b6040516001600160a01b0382166024820152600090819081908190610167907f19f373610000000000000000000000000000000000000000000000000000000090604401610b88565b604080516001600160a01b03831660248083019190915282518083039091018152604490910182526020810180516001600160e01b03167f93272baf0000000000000000000000000000000000000000000000000000000017905290516000918291829182916101679161120691611c6b565b6000604051808303816000865af19150503d8060008114611243576040519150601f19603f3d011682016040523d82523d6000602084013e611248565b606091505b50915091508161125c576015600019610c2f565b80806020019051810190610c2f9190612749565b6040516001600160a01b0382166024820152600090819081908190610167907f335e04c10000000000000000000000000000000000000000000000000000000090604401610b88565b60408051610240810182526060610120820181815261014083018290526000610160840181905261018084018390526101a084018190526101c084018190526101e0840181905261020084018390528451928301855280835260208301819052938201939093526102208201529081908152602001600060070b8152602001600015158152602001600015158152602001600015158152602001606081526020016060815260200160608152602001606081525090565b60405180604001604052806113836112b9565b8152600060209091015290565b6040518060c001604052806113a36112b9565b8152600060208201819052604082018190526060808301829052608083015260a09091015290565b6001600160a01b03811681146113e057600080fd5b50565b600080600080608085870312156113f957600080fd5b8435611404816113cb565b93506020850135611414816113cb565b92506040850135611424816113cb565b9396929550929360600135925050565b6000806040838503121561144757600080fd5b8235611452816113cb565b946020939093013593505050565b60005b8381101561147b578181015183820152602001611463565b8381111561148a576000848401525b50505050565b600081518084526114a8816020860160208601611460565b601f01601f19169290920160200192915050565b805115158252600060208201516001600160a01b0380821660208601526040840151915060a060408601526114f460a0860183611490565b91506060840151858303606087015261150d8382611490565b925050806080850151166080860152508091505092915050565b60208152600061045960208301846114bc565b60006020828403121561154c57600080fd5b8135610459816113cb565b6060810161041a8284805160070b82526001600160a01b036020820151166020830152604081015160070b60408301525050565b600081518084526020808501808196508360051b8101915082860160005b858110156115e757828403895281518051855285015160408686018190526115d3818701836114bc565b9a87019a95505050908401906001016115a9565b5091979650505050505050565b6000610160825181855261160a82860182611490565b915050602083015184820360208601526116248282611490565b915050604083015161164160408601826001600160a01b03169052565b50606083015184820360608601526116598282611490565b915050608083015161166f608086018215159052565b5060a083015161168460a086018260070b9052565b5060c083015161169860c086018215159052565b5060e083015184820360e08601526116b0828261158b565b915050610100808401516116ec82870182805160070b82526001600160a01b036020820151166020830152604081015160070b60408301525050565b5090949350505050565b600081518084526020808501945080840160005b83811015611763578151805160070b8852838101516001600160a01b03908116858a01526040808301511515908a01526060808301511515908a0152608091820151169088015260a0909601959082019060010161170a565b509495945050505050565b600081518084526020808501945080840160005b838110156117635781518051600790810b895284820151810b858a0152604080830151820b908a015260608083015190910b9089015260808082015115159089015260a0908101516001600160a01b03169088015260c09096019590820190600101611782565b600081518084526020808501945080840160005b838110156117635781518051600790810b895284820151810b858a015260408083015190910b908901526060808201516001600160a01b03908116918a01919091526080808301511515908a015260a091820151169088015260c090960195908201906001016117fd565b6000610120825181855261187e828601826115f4565b9150506020830151611895602086018260070b9052565b5060408301516118a9604086018215159052565b5060608301516118bd606086018215159052565b5060808301516118d1608086018215159052565b5060a083015184820360a08601526118e982826116f6565b91505060c083015184820360c0860152611903828261176e565b91505060e083015184820360e086015261191d82826117e9565b91505061010080840151858303828701526119388382611490565b9695505050505050565b6020815260006104596020830184611868565b60608152600061196860608301866116f6565b828103602084015261197a818661176e565b9050828103604084015261193881856117e9565b600080604083850312156119a157600080fd5b82356119ac816113cb565b915060208301356119bc816113cb565b809150509250929050565b6020815260008251604060208401526119e36060840182611868565b9050602084015160030b60408401528091505092915050565b7f4e487b7100000000000000000000000000000000000000000000000000000000600052604160045260246000fd5b60405160a0810167ffffffffffffffff81118282101715611a4e57611a4e6119fc565b60405290565b6040805190810167ffffffffffffffff81118282101715611a4e57611a4e6119fc565b604051610120810167ffffffffffffffff81118282101715611a4e57611a4e6119fc565b60405160c0810167ffffffffffffffff81118282101715611a4e57611a4e6119fc565b604051601f8201601f1916810167ffffffffffffffff81118282101715611ae757611ae76119fc565b604052919050565b600067ffffffffffffffff821115611b0957611b096119fc565b50601f01601f191660200190565b60008060408385031215611b2a57600080fd5b8235611b35816113cb565b9150602083013567ffffffffffffffff811115611b5157600080fd5b8301601f81018513611b6257600080fd5b8035611b75611b7082611aef565b611abe565b818152866020838501011115611b8a57600080fd5b816020840160208301376000602083830101528093505050509250929050565b8060070b81146113e057600080fd5b60008060408385031215611bcc57600080fd5b8235611bd7816113cb565b915060208301356119bc81611baa565b602081526000825160c06020840152611c0360e0840182611868565b9050602084015160070b604084015260408401516001600160a01b038082166060860152606086015160070b608086015260808601519150601f198584030160a0860152611c518383611490565b92508060a08701511660c086015250508091505092915050565b60008251611c7d818460208701611460565b9190910192915050565b8051600381900b8114611c9957600080fd5b919050565b600060208284031215611cb057600080fd5b61045982611c87565b6001600160a01b0383168152604060208201526000611cdb6040830184611490565b949350505050565b8215158152604060208201526000611cdb6040830184611490565b80518015158114611c9957600080fd5b8051611c99816113cb565b600082601f830112611d2a57600080fd5b8151611d38611b7082611aef565b818152846020838601011115611d4d57600080fd5b610416826020830160208701611460565b600060a08284031215611d7057600080fd5b611d78611a2b565b9050611d8382611cfe565b81526020820151611d93816113cb565b6020820152604082015167ffffffffffffffff80821115611db357600080fd5b611dbf85838601611d19565b60408401526060840151915080821115611dd857600080fd5b50611de584828501611d19565b6060830152506080820151611df9816113cb565b608082015292915050565b60008060408385031215611e1757600080fd5b611e2083611c87565b9150602083015167ffffffffffffffff811115611e3c57600080fd5b611e4885828601611d5e565b9150509250929050565b8051611c9981611baa565b600060608284031215611e6f57600080fd5b6040516060810181811067ffffffffffffffff82111715611e9257611e926119fc565b80604052508091508251611ea581611baa565b81526020830151611eb5816113cb565b60208201526040830151611ec881611baa565b6040919091015292915050565b60008060808385031215611ee857600080fd5b611ef183611c87565b9150611f008460208501611e5d565b90509250929050565b60008060408385031215611f1c57600080fd5b611f2583611c87565b9150611f0060208401611cfe565b600067ffffffffffffffff821115611f4d57611f4d6119fc565b5060051b60200190565b600082601f830112611f6857600080fd5b81516020611f78611b7083611f33565b82815260059290921b84018101918181019086841115611f9757600080fd5b8286015b8481101561201957805167ffffffffffffffff80821115611fbc5760008081fd5b908801906040828b03601f1901811315611fd65760008081fd5b611fde611a54565b838801518152908301519082821115611ff75760008081fd5b6120058c8984870101611d5e565b818901528652505050918301918301611f9b565b509695505050505050565b6000610160828403121561203757600080fd5b61203f611a77565b9050815167ffffffffffffffff8082111561205957600080fd5b61206585838601611d19565b8352602084015191508082111561207b57600080fd5b61208785838601611d19565b602084015261209860408501611d0e565b604084015260608401519150808211156120b157600080fd5b6120bd85838601611d19565b60608401526120ce60808501611cfe565b60808401526120df60a08501611e52565b60a08401526120f060c08501611cfe565b60c084015260e084015191508082111561210957600080fd5b5061211684828501611f57565b60e08301525061010061212b84828501611e5d565b9082015292915050565b600082601f83011261214657600080fd5b81516020612156611b7083611f33565b82815260a0928302850182019282820191908785111561217557600080fd5b8387015b858110156121f95781818a0312156121915760008081fd5b612199611a2b565b81516121a481611baa565b8152818601516121b3816113cb565b8187015260406121c4838201611cfe565b9082015260606121d5838201611cfe565b908201526080828101516121e8816113cb565b908201528452928401928101612179565b5090979650505050505050565b600082601f83011261221757600080fd5b81516020612227611b7083611f33565b82815260c0928302850182019282820191908785111561224657600080fd5b8387015b858110156121f95781818a0312156122625760008081fd5b61226a611a9b565b815161227581611baa565b81528186015161228481611baa565b8187015260408281015161229781611baa565b908201526060828101516122aa81611baa565b9082015260806122bb838201611cfe565b9082015260a0828101516122ce816113cb565b90820152845292840192810161224a565b600082601f8301126122f057600080fd5b81516020612300611b7083611f33565b82815260c0928302850182019282820191908785111561231f57600080fd5b8387015b858110156121f95781818a03121561233b5760008081fd5b612343611a9b565b815161234e81611baa565b81528186015161235d81611baa565b8187015260408281015161237081611baa565b90820152606082810151612383816113cb565b908201526080612394838201611cfe565b9082015260a0828101516123a7816113cb565b908201528452928401928101612323565b600061012082840312156123cb57600080fd5b6123d3611a77565b9050815167ffffffffffffffff808211156123ed57600080fd5b6123f985838601612024565b835261240760208501611e52565b602084015261241860408501611cfe565b604084015261242960608501611cfe565b606084015261243a60808501611cfe565b608084015260a084015191508082111561245357600080fd5b61245f85838601612135565b60a084015260c084015191508082111561247857600080fd5b61248485838601612206565b60c084015260e084015191508082111561249d57600080fd5b6124a9858386016122df565b60e0840152610100915081840151818111156124c457600080fd5b6124d086828701611d19565b8385015250505092915050565b600080604083850312156124f057600080fd5b6124f983611c87565b9150602083015167ffffffffffffffff81111561251557600080fd5b611e48858286016123b8565b6000806000806080858703121561253757600080fd5b61254085611c87565b9350602085015167ffffffffffffffff8082111561255d57600080fd5b61256988838901612135565b9450604087015191508082111561257f57600080fd5b61258b88838901612206565b935060608701519150808211156125a157600080fd5b506125ae878288016122df565b91505092959194509250565b600080604083850312156125cd57600080fd5b6125d683611c87565b9150602083015167ffffffffffffffff808211156125f357600080fd5b908401906040828703121561260757600080fd5b604051604081018181108382111715612622576126226119fc565b60405282518281111561263457600080fd5b612640888286016123b8565b82525061264f60208401611c87565b60208201528093505050509250929050565b6000806040838503121561267457600080fd5b61267d83611c87565b9150602083015167ffffffffffffffff8082111561269a57600080fd5b9084019060c082870312156126ae57600080fd5b6126b6611a9b565b8251828111156126c557600080fd5b6126d1888286016123b8565b8252506126e060208401611e52565b60208201526126f160408401611d0e565b604082015261270260608401611e52565b606082015260808301518281111561271957600080fd5b61272588828601611d19565b60808301525061273760a08401611d0e565b60a08201528093505050509250929050565b6000806040838503121561275c57600080fd5b61276583611c87565b9150611f0060208401611c8756fea2646970667358221220e2e36129145bcb8bc722c3d804fabb8afedf039904dffc2d66734a6cd1a538f264736f6c63430008090033",
  "linkReferences": {},
  "deployedLinkReferences": {}
}