{
  "_format": "hh-sol-artifact-1",
  "contractName": "PrecompileTestContract",
  "sourceName": "contracts/PrecompileTestContract.sol",
  "abi": [
    {
      "anonymous": false,
      "inputs": [
        {
          "indexed": false,
          "internalType": "bool",
          "name": "",
          "type": "bool"
        },
        {
          "indexed": false,
          "internalType": "bytes",
          "name": "",
          "type": "bytes"
        }
      ],
      "name": "CallResponseEvent",
      "type": "event"
    },
    {
      "inputs": [
        {
          "internalType": "address",
          "name": "token",
          "type": "address"
        },
        {
          "internalType": "address",
          "name": "owner",
          "type": "address"
        },
        {
          "internalType": "address",
          "name": "spender",
          "type": "address"
        }
      ],
      "name": "allowanceRedirect",
      "outputs": [
        {
          "internalType": "bytes",
          "name": "result",
          "type": "bytes"
        }
      ],
      "stateMutability": "nonpayable",
      "type": "function"
    },
    {
      "inputs": [
        {
          "internalType": "address",
          "name": "token",
          "type": "address"
        },
        {
          "internalType": "address",
          "name": "spender",
          "type": "address"
        },
        {
          "internalType": "uint256",
          "name": "amount",
          "type": "uint256"
        }
      ],
      "name": "approveFungibleTokenTransferFromGetAllowanceGetBalance",
      "outputs": [
        {
          "internalType": "uint256",
          "name": "",
          "type": "uint256"
        },
        {
          "internalType": "uint256",
          "name": "",
          "type": "uint256"
        },
        {
          "internalType": "uint256",
          "name": "",
          "type": "uint256"
        },
        {
          "internalType": "uint256",
          "name": "",
          "type": "uint256"
        }
      ],
      "stateMutability": "nonpayable",
      "type": "function"
    },
    {
      "inputs": [
        {
          "internalType": "address",
          "name": "token",
          "type": "address"
        },
        {
          "internalType": "address",
          "name": "spender",
          "type": "address"
        },
        {
          "internalType": "uint256",
          "name": "serialNumber",
          "type": "uint256"
        }
      ],
      "name": "approveNftTransferFromGetAllowanceGetBalance",
      "outputs": [
        {
          "internalType": "address",
          "name": "",
          "type": "address"
        },
        {
          "internalType": "address",
          "name": "",
          "type": "address"
        },
        {
          "internalType": "address",
          "name": "",
          "type": "address"
        }
      ],
      "stateMutability": "nonpayable",
      "type": "function"
    },
    {
      "inputs": [
        {
          "internalType": "address",
          "name": "token",
          "type": "address"
        },
        {
          "internalType": "address",
          "name": "spender",
          "type": "address"
        },
        {
          "internalType": "uint256",
          "name": "amount",
          "type": "uint256"
        }
      ],
      "name": "approveRedirect",
      "outputs": [
        {
          "internalType": "bytes",
          "name": "result",
          "type": "bytes"
        }
      ],
      "stateMutability": "nonpayable",
      "type": "function"
    },
    {
      "inputs": [
        {
          "internalType": "address",
          "name": "token",
          "type": "address"
        },
        {
          "internalType": "address",
          "name": "spender",
          "type": "address"
        },
        {
          "internalType": "uint256",
          "name": "amount",
          "type": "uint256"
        },
        {
          "internalType": "uint256",
          "name": "serialNumber",
          "type": "uint256"
        }
      ],
      "name": "approveTokenGetAllowance",
      "outputs": [
        {
          "internalType": "uint256",
          "name": "",
          "type": "uint256"
        },
        {
          "internalType": "address",
          "name": "",
          "type": "address"
        }
      ],
      "stateMutability": "nonpayable",
      "type": "function"
    },
    {
      "inputs": [
        {
          "internalType": "address",
          "name": "token",
          "type": "address"
        },
        {
          "internalType": "address",
          "name": "from",
          "type": "address"
        },
        {
          "internalType": "address",
          "name": "to",
          "type": "address"
        },
        {
          "internalType": "int64",
          "name": "amount",
          "type": "int64"
        },
        {
          "internalType": "int64",
          "name": "serialNumber",
          "type": "int64"
        }
      ],
      "name": "associateTokenDissociateFailTransfer",
      "outputs": [
        {
          "internalType": "int256",
          "name": "",
          "type": "int256"
        },
        {
          "internalType": "int256",
          "name": "",
          "type": "int256"
        }
      ],
      "stateMutability": "nonpayable",
      "type": "function"
    },
    {
      "inputs": [
        {
          "internalType": "address",
          "name": "token",
          "type": "address"
        },
        {
          "internalType": "address",
          "name": "account",
          "type": "address"
        }
      ],
      "name": "balanceOfRedirect",
      "outputs": [
        {
          "internalType": "bytes",
          "name": "result",
          "type": "bytes"
        }
      ],
      "stateMutability": "nonpayable",
      "type": "function"
    },
    {
      "inputs": [
        {
          "internalType": "address",
          "name": "token",
          "type": "address"
        },
        {
          "internalType": "int64",
          "name": "amount",
          "type": "int64"
        },
        {
          "internalType": "int64[]",
          "name": "serialNumbers",
          "type": "int64[]"
        },
        {
          "internalType": "address",
          "name": "treasury",
          "type": "address"
        }
      ],
      "name": "burnTokenGetTotalSupplyAndBalanceOfTreasury",
      "outputs": [
        {
          "internalType": "uint256",
          "name": "",
          "type": "uint256"
        },
        {
          "internalType": "uint256",
          "name": "",
          "type": "uint256"
        },
        {
          "internalType": "int256",
          "name": "",
          "type": "int256"
        },
        {
          "internalType": "int256",
          "name": "",
          "type": "int256"
        }
      ],
      "stateMutability": "nonpayable",
      "type": "function"
    },
    {
      "inputs": [
        {
          "internalType": "address",
          "name": "token",
          "type": "address"
        }
      ],
      "name": "decimalsRedirect",
      "outputs": [
        {
          "internalType": "bytes",
          "name": "result",
          "type": "bytes"
        }
      ],
      "stateMutability": "nonpayable",
      "type": "function"
    },
    {
      "inputs": [
        {
          "internalType": "address",
          "name": "token",
          "type": "address"
        },
        {
          "internalType": "address",
          "name": "account",
          "type": "address"
        }
      ],
      "name": "freezeTokenGetFreezeStatusUnfreezeGetFreezeStatus",
      "outputs": [
        {
          "internalType": "bool",
          "name": "",
          "type": "bool"
        },
        {
          "internalType": "bool",
          "name": "",
          "type": "bool"
        }
      ],
      "stateMutability": "nonpayable",
      "type": "function"
    },
    {
      "inputs": [
        {
          "internalType": "address",
          "name": "token",
          "type": "address"
        },
        {
          "internalType": "uint256",
          "name": "tokenId",
          "type": "uint256"
        }
      ],
      "name": "getApprovedRedirect",
      "outputs": [
        {
          "internalType": "bytes",
          "name": "result",
          "type": "bytes"
        }
      ],
      "stateMutability": "nonpayable",
      "type": "function"
    },
    {
      "inputs": [
        {
          "internalType": "address",
          "name": "token",
          "type": "address"
        }
      ],
      "name": "getCustomFeesForToken",
      "outputs": [
        {
          "components": [
            {
              "internalType": "int64",
              "name": "amount",
              "type": "int64"
            },
            {
              "internalType": "address",
              "name": "tokenId",
              "type": "address"
            },
            {
              "internalType": "bool",
              "name": "useHbarsForPayment",
              "type": "bool"
            },
            {
              "internalType": "bool",
              "name": "useCurrentTokenForPayment",
              "type": "bool"
            },
            {
              "internalType": "address",
              "name": "feeCollector",
              "type": "address"
            }
          ],
          "internalType": "struct IHederaTokenService.FixedFee[]",
          "name": "fixedFees",
          "type": "tuple[]"
        },
        {
          "components": [
            {
              "internalType": "int64",
              "name": "numerator",
              "type": "int64"
            },
            {
              "internalType": "int64",
              "name": "denominator",
              "type": "int64"
            },
            {
              "internalType": "int64",
              "name": "minimumAmount",
              "type": "int64"
            },
            {
              "internalType": "int64",
              "name": "maximumAmount",
              "type": "int64"
            },
            {
              "internalType": "bool",
              "name": "netOfTransfers",
              "type": "bool"
            },
            {
              "internalType": "address",
              "name": "feeCollector",
              "type": "address"
            }
          ],
          "internalType": "struct IHederaTokenService.FractionalFee[]",
          "name": "fractionalFees",
          "type": "tuple[]"
        },
        {
          "components": [
            {
              "internalType": "int64",
              "name": "numerator",
              "type": "int64"
            },
            {
              "internalType": "int64",
              "name": "denominator",
              "type": "int64"
            },
            {
              "internalType": "int64",
              "name": "amount",
              "type": "int64"
            },
            {
              "internalType": "address",
              "name": "tokenId",
              "type": "address"
            },
            {
              "internalType": "bool",
              "name": "useHbarsForPayment",
              "type": "bool"
            },
            {
              "internalType": "address",
              "name": "feeCollector",
              "type": "address"
            }
          ],
          "internalType": "struct IHederaTokenService.RoyaltyFee[]",
          "name": "royaltyFees",
          "type": "tuple[]"
        }
      ],
      "stateMutability": "nonpayable",
      "type": "function"
    },
    {
      "inputs": [
        {
          "internalType": "address",
          "name": "token",
          "type": "address"
        }
      ],
      "name": "getExpiryInfoForToken",
      "outputs": [
        {
          "components": [
            {
              "internalType": "int64",
              "name": "second",
              "type": "int64"
            },
            {
              "internalType": "address",
              "name": "autoRenewAccount",
              "type": "address"
            },
            {
              "internalType": "int64",
              "name": "autoRenewPeriod",
              "type": "int64"
            }
          ],
          "internalType": "struct IHederaTokenService.Expiry",
          "name": "expiry",
          "type": "tuple"
        }
      ],
      "stateMutability": "nonpayable",
      "type": "function"
    },
    {
      "inputs": [
        {
          "internalType": "address",
          "name": "token",
          "type": "address"
        }
      ],
      "name": "getInformationForFungibleToken",
      "outputs": [
        {
          "components": [
            {
              "components": [
                {
                  "components": [
                    {
                      "internalType": "string",
                      "name": "name",
                      "type": "string"
                    },
                    {
                      "internalType": "string",
                      "name": "symbol",
                      "type": "string"
                    },
                    {
                      "internalType": "address",
                      "name": "treasury",
                      "type": "address"
                    },
                    {
                      "internalType": "string",
                      "name": "memo",
                      "type": "string"
                    },
                    {
                      "internalType": "bool",
                      "name": "tokenSupplyType",
                      "type": "bool"
                    },
                    {
                      "internalType": "int64",
                      "name": "maxSupply",
                      "type": "int64"
                    },
                    {
                      "internalType": "bool",
                      "name": "freezeDefault",
                      "type": "bool"
                    },
                    {
                      "components": [
                        {
                          "internalType": "uint256",
                          "name": "keyType",
                          "type": "uint256"
                        },
                        {
                          "components": [
                            {
                              "internalType": "bool",
                              "name": "inheritAccountKey",
                              "type": "bool"
                            },
                            {
                              "internalType": "address",
                              "name": "contractId",
                              "type": "address"
                            },
                            {
                              "internalType": "bytes",
                              "name": "ed25519",
                              "type": "bytes"
                            },
                            {
                              "internalType": "bytes",
                              "name": "ECDSA_secp256k1",
                              "type": "bytes"
                            },
                            {
                              "internalType": "address",
                              "name": "delegatableContractId",
                              "type": "address"
                            }
                          ],
                          "internalType": "struct IHederaTokenService.KeyValue",
                          "name": "key",
                          "type": "tuple"
                        }
                      ],
                      "internalType": "struct IHederaTokenService.TokenKey[]",
                      "name": "tokenKeys",
                      "type": "tuple[]"
                    },
                    {
                      "components": [
                        {
                          "internalType": "int64",
                          "name": "second",
                          "type": "int64"
                        },
                        {
                          "internalType": "address",
                          "name": "autoRenewAccount",
                          "type": "address"
                        },
                        {
                          "internalType": "int64",
                          "name": "autoRenewPeriod",
                          "type": "int64"
                        }
                      ],
                      "internalType": "struct IHederaTokenService.Expiry",
                      "name": "expiry",
                      "type": "tuple"
                    }
                  ],
                  "internalType": "struct IHederaTokenService.HederaToken",
                  "name": "token",
                  "type": "tuple"
                },
                {
                  "internalType": "int64",
                  "name": "totalSupply",
                  "type": "int64"
                },
                {
                  "internalType": "bool",
                  "name": "deleted",
                  "type": "bool"
                },
                {
                  "internalType": "bool",
                  "name": "defaultKycStatus",
                  "type": "bool"
                },
                {
                  "internalType": "bool",
                  "name": "pauseStatus",
                  "type": "bool"
                },
                {
                  "components": [
                    {
                      "internalType": "int64",
                      "name": "amount",
                      "type": "int64"
                    },
                    {
                      "internalType": "address",
                      "name": "tokenId",
                      "type": "address"
                    },
                    {
                      "internalType": "bool",
                      "name": "useHbarsForPayment",
                      "type": "bool"
                    },
                    {
                      "internalType": "bool",
                      "name": "useCurrentTokenForPayment",
                      "type": "bool"
                    },
                    {
                      "internalType": "address",
                      "name": "feeCollector",
                      "type": "address"
                    }
                  ],
                  "internalType": "struct IHederaTokenService.FixedFee[]",
                  "name": "fixedFees",
                  "type": "tuple[]"
                },
                {
                  "components": [
                    {
                      "internalType": "int64",
                      "name": "numerator",
                      "type": "int64"
                    },
                    {
                      "internalType": "int64",
                      "name": "denominator",
                      "type": "int64"
                    },
                    {
                      "internalType": "int64",
                      "name": "minimumAmount",
                      "type": "int64"
                    },
                    {
                      "internalType": "int64",
                      "name": "maximumAmount",
                      "type": "int64"
                    },
                    {
                      "internalType": "bool",
                      "name": "netOfTransfers",
                      "type": "bool"
                    },
                    {
                      "internalType": "address",
                      "name": "feeCollector",
                      "type": "address"
                    }
                  ],
                  "internalType": "struct IHederaTokenService.FractionalFee[]",
                  "name": "fractionalFees",
                  "type": "tuple[]"
                },
                {
                  "components": [
                    {
                      "internalType": "int64",
                      "name": "numerator",
                      "type": "int64"
                    },
                    {
                      "internalType": "int64",
                      "name": "denominator",
                      "type": "int64"
                    },
                    {
                      "internalType": "int64",
                      "name": "amount",
                      "type": "int64"
                    },
                    {
                      "internalType": "address",
                      "name": "tokenId",
                      "type": "address"
                    },
                    {
                      "internalType": "bool",
                      "name": "useHbarsForPayment",
                      "type": "bool"
                    },
                    {
                      "internalType": "address",
                      "name": "feeCollector",
                      "type": "address"
                    }
                  ],
                  "internalType": "struct IHederaTokenService.RoyaltyFee[]",
                  "name": "royaltyFees",
                  "type": "tuple[]"
                },
                {
                  "internalType": "string",
                  "name": "ledgerId",
                  "type": "string"
                }
              ],
              "internalType": "struct IHederaTokenService.TokenInfo",
              "name": "tokenInfo",
              "type": "tuple"
            },
            {
              "internalType": "int32",
              "name": "decimals",
              "type": "int32"
            }
          ],
          "internalType": "struct IHederaTokenService.FungibleTokenInfo",
          "name": "fungibleTokenInfo",
          "type": "tuple"
        }
      ],
      "stateMutability": "nonpayable",
      "type": "function"
    },
    {
      "inputs": [
        {
          "internalType": "address",
          "name": "token",
          "type": "address"
        },
        {
          "internalType": "int64",
          "name": "serialNumber",
          "type": "int64"
        }
      ],
      "name": "getInformationForNonFungibleToken",
      "outputs": [
        {
          "components": [
            {
              "components": [
                {
                  "components": [
                    {
                      "internalType": "string",
                      "name": "name",
                      "type": "string"
                    },
                    {
                      "internalType": "string",
                      "name": "symbol",
                      "type": "string"
                    },
                    {
                      "internalType": "address",
                      "name": "treasury",
                      "type": "address"
                    },
                    {
                      "internalType": "string",
                      "name": "memo",
                      "type": "string"
                    },
                    {
                      "internalType": "bool",
                      "name": "tokenSupplyType",
                      "type": "bool"
                    },
                    {
                      "internalType": "int64",
                      "name": "maxSupply",
                      "type": "int64"
                    },
                    {
                      "internalType": "bool",
                      "name": "freezeDefault",
                      "type": "bool"
                    },
                    {
                      "components": [
                        {
                          "internalType": "uint256",
                          "name": "keyType",
                          "type": "uint256"
                        },
                        {
                          "components": [
                            {
                              "internalType": "bool",
                              "name": "inheritAccountKey",
                              "type": "bool"
                            },
                            {
                              "internalType": "address",
                              "name": "contractId",
                              "type": "address"
                            },
                            {
                              "internalType": "bytes",
                              "name": "ed25519",
                              "type": "bytes"
                            },
                            {
                              "internalType": "bytes",
                              "name": "ECDSA_secp256k1",
                              "type": "bytes"
                            },
                            {
                              "internalType": "address",
                              "name": "delegatableContractId",
                              "type": "address"
                            }
                          ],
                          "internalType": "struct IHederaTokenService.KeyValue",
                          "name": "key",
                          "type": "tuple"
                        }
                      ],
                      "internalType": "struct IHederaTokenService.TokenKey[]",
                      "name": "tokenKeys",
                      "type": "tuple[]"
                    },
                    {
                      "components": [
                        {
                          "internalType": "int64",
                          "name": "second",
                          "type": "int64"
                        },
                        {
                          "internalType": "address",
                          "name": "autoRenewAccount",
                          "type": "address"
                        },
                        {
                          "internalType": "int64",
                          "name": "autoRenewPeriod",
                          "type": "int64"
                        }
                      ],
                      "internalType": "struct IHederaTokenService.Expiry",
                      "name": "expiry",
                      "type": "tuple"
                    }
                  ],
                  "internalType": "struct IHederaTokenService.HederaToken",
                  "name": "token",
                  "type": "tuple"
                },
                {
                  "internalType": "int64",
                  "name": "totalSupply",
                  "type": "int64"
                },
                {
                  "internalType": "bool",
                  "name": "deleted",
                  "type": "bool"
                },
                {
                  "internalType": "bool",
                  "name": "defaultKycStatus",
                  "type": "bool"
                },
                {
                  "internalType": "bool",
                  "name": "pauseStatus",
                  "type": "bool"
                },
                {
                  "components": [
                    {
                      "internalType": "int64",
                      "name": "amount",
                      "type": "int64"
                    },
                    {
                      "internalType": "address",
                      "name": "tokenId",
                      "type": "address"
                    },
                    {
                      "internalType": "bool",
                      "name": "useHbarsForPayment",
                      "type": "bool"
                    },
                    {
                      "internalType": "bool",
                      "name": "useCurrentTokenForPayment",
                      "type": "bool"
                    },
                    {
                      "internalType": "address",
                      "name": "feeCollector",
                      "type": "address"
                    }
                  ],
                  "internalType": "struct IHederaTokenService.FixedFee[]",
                  "name": "fixedFees",
                  "type": "tuple[]"
                },
                {
                  "components": [
                    {
                      "internalType": "int64",
                      "name": "numerator",
                      "type": "int64"
                    },
                    {
                      "internalType": "int64",
                      "name": "denominator",
                      "type": "int64"
                    },
                    {
                      "internalType": "int64",
                      "name": "minimumAmount",
                      "type": "int64"
                    },
                    {
                      "internalType": "int64",
                      "name": "maximumAmount",
                      "type": "int64"
                    },
                    {
                      "internalType": "bool",
                      "name": "netOfTransfers",
                      "type": "bool"
                    },
                    {
                      "internalType": "address",
                      "name": "feeCollector",
                      "type": "address"
                    }
                  ],
                  "internalType": "struct IHederaTokenService.FractionalFee[]",
                  "name": "fractionalFees",
                  "type": "tuple[]"
                },
                {
                  "components": [
                    {
                      "internalType": "int64",
                      "name": "numerator",
                      "type": "int64"
                    },
                    {
                      "internalType": "int64",
                      "name": "denominator",
                      "type": "int64"
                    },
                    {
                      "internalType": "int64",
                      "name": "amount",
                      "type": "int64"
                    },
                    {
                      "internalType": "address",
                      "name": "tokenId",
                      "type": "address"
                    },
                    {
                      "internalType": "bool",
                      "name": "useHbarsForPayment",
                      "type": "bool"
                    },
                    {
                      "internalType": "address",
                      "name": "feeCollector",
                      "type": "address"
                    }
                  ],
                  "internalType": "struct IHederaTokenService.RoyaltyFee[]",
                  "name": "royaltyFees",
                  "type": "tuple[]"
                },
                {
                  "internalType": "string",
                  "name": "ledgerId",
                  "type": "string"
                }
              ],
              "internalType": "struct IHederaTokenService.TokenInfo",
              "name": "tokenInfo",
              "type": "tuple"
            },
            {
              "internalType": "int64",
              "name": "serialNumber",
              "type": "int64"
            },
            {
              "internalType": "address",
              "name": "ownerId",
              "type": "address"
            },
            {
              "internalType": "int64",
              "name": "creationTime",
              "type": "int64"
            },
            {
              "internalType": "bytes",
              "name": "metadata",
              "type": "bytes"
            },
            {
              "internalType": "address",
              "name": "spenderId",
              "type": "address"
            }
          ],
          "internalType": "struct IHederaTokenService.NonFungibleTokenInfo",
          "name": "nonFungibleTokenInfo",
          "type": "tuple"
        }
      ],
      "stateMutability": "nonpayable",
      "type": "function"
    },
    {
      "inputs": [
        {
          "internalType": "address",
          "name": "token",
          "type": "address"
        }
      ],
      "name": "getInformationForToken",
      "outputs": [
        {
          "components": [
            {
              "components": [
                {
                  "internalType": "string",
                  "name": "name",
                  "type": "string"
                },
                {
                  "internalType": "string",
                  "name": "symbol",
                  "type": "string"
                },
                {
                  "internalType": "address",
                  "name": "treasury",
                  "type": "address"
                },
                {
                  "internalType": "string",
                  "name": "memo",
                  "type": "string"
                },
                {
                  "internalType": "bool",
                  "name": "tokenSupplyType",
                  "type": "bool"
                },
                {
                  "internalType": "int64",
                  "name": "maxSupply",
                  "type": "int64"
                },
                {
                  "internalType": "bool",
                  "name": "freezeDefault",
                  "type": "bool"
                },
                {
                  "components": [
                    {
                      "internalType": "uint256",
                      "name": "keyType",
                      "type": "uint256"
                    },
                    {
                      "components": [
                        {
                          "internalType": "bool",
                          "name": "inheritAccountKey",
                          "type": "bool"
                        },
                        {
                          "internalType": "address",
                          "name": "contractId",
                          "type": "address"
                        },
                        {
                          "internalType": "bytes",
                          "name": "ed25519",
                          "type": "bytes"
                        },
                        {
                          "internalType": "bytes",
                          "name": "ECDSA_secp256k1",
                          "type": "bytes"
                        },
                        {
                          "internalType": "address",
                          "name": "delegatableContractId",
                          "type": "address"
                        }
                      ],
                      "internalType": "struct IHederaTokenService.KeyValue",
                      "name": "key",
                      "type": "tuple"
                    }
                  ],
                  "internalType": "struct IHederaTokenService.TokenKey[]",
                  "name": "tokenKeys",
                  "type": "tuple[]"
                },
                {
                  "components": [
                    {
                      "internalType": "int64",
                      "name": "second",
                      "type": "int64"
                    },
                    {
                      "internalType": "address",
                      "name": "autoRenewAccount",
                      "type": "address"
                    },
                    {
                      "internalType": "int64",
                      "name": "autoRenewPeriod",
                      "type": "int64"
                    }
                  ],
                  "internalType": "struct IHederaTokenService.Expiry",
                  "name": "expiry",
                  "type": "tuple"
                }
              ],
              "internalType": "struct IHederaTokenService.HederaToken",
              "name": "token",
              "type": "tuple"
            },
            {
              "internalType": "int64",
              "name": "totalSupply",
              "type": "int64"
            },
            {
              "internalType": "bool",
              "name": "deleted",
              "type": "bool"
            },
            {
              "internalType": "bool",
              "name": "defaultKycStatus",
              "type": "bool"
            },
            {
              "internalType": "bool",
              "name": "pauseStatus",
              "type": "bool"
            },
            {
              "components": [
                {
                  "internalType": "int64",
                  "name": "amount",
                  "type": "int64"
                },
                {
                  "internalType": "address",
                  "name": "tokenId",
                  "type": "address"
                },
                {
                  "internalType": "bool",
                  "name": "useHbarsForPayment",
                  "type": "bool"
                },
                {
                  "internalType": "bool",
                  "name": "useCurrentTokenForPayment",
                  "type": "bool"
                },
                {
                  "internalType": "address",
                  "name": "feeCollector",
                  "type": "address"
                }
              ],
              "internalType": "struct IHederaTokenService.FixedFee[]",
              "name": "fixedFees",
              "type": "tuple[]"
            },
            {
              "components": [
                {
                  "internalType": "int64",
                  "name": "numerator",
                  "type": "int64"
                },
                {
                  "internalType": "int64",
                  "name": "denominator",
                  "type": "int64"
                },
                {
                  "internalType": "int64",
                  "name": "minimumAmount",
                  "type": "int64"
                },
                {
                  "internalType": "int64",
                  "name": "maximumAmount",
                  "type": "int64"
                },
                {
                  "internalType": "bool",
                  "name": "netOfTransfers",
                  "type": "bool"
                },
                {
                  "internalType": "address",
                  "name": "feeCollector",
                  "type": "address"
                }
              ],
              "internalType": "struct IHederaTokenService.FractionalFee[]",
              "name": "fractionalFees",
              "type": "tuple[]"
            },
            {
              "components": [
                {
                  "internalType": "int64",
                  "name": "numerator",
                  "type": "int64"
                },
                {
                  "internalType": "int64",
                  "name": "denominator",
                  "type": "int64"
                },
                {
                  "internalType": "int64",
                  "name": "amount",
                  "type": "int64"
                },
                {
                  "internalType": "address",
                  "name": "tokenId",
                  "type": "address"
                },
                {
                  "internalType": "bool",
                  "name": "useHbarsForPayment",
                  "type": "bool"
                },
                {
                  "internalType": "address",
                  "name": "feeCollector",
                  "type": "address"
                }
              ],
              "internalType": "struct IHederaTokenService.RoyaltyFee[]",
              "name": "royaltyFees",
              "type": "tuple[]"
            },
            {
              "internalType": "string",
              "name": "ledgerId",
              "type": "string"
            }
          ],
          "internalType": "struct IHederaTokenService.TokenInfo",
          "name": "tokenInfo",
          "type": "tuple"
        }
      ],
      "stateMutability": "nonpayable",
      "type": "function"
    },
    {
      "inputs": [
        {
          "internalType": "address",
          "name": "token",
          "type": "address"
        },
        {
          "internalType": "uint256",
          "name": "serialNo",
          "type": "uint256"
        }
      ],
      "name": "getOwnerOfRedirect",
      "outputs": [
        {
          "internalType": "bytes",
          "name": "result",
          "type": "bytes"
        }
      ],
      "stateMutability": "nonpayable",
      "type": "function"
    },
    {
      "inputs": [
        {
          "internalType": "address",
          "name": "token",
          "type": "address"
        }
      ],
      "name": "getTokenDefaultFreeze",
      "outputs": [
        {
          "internalType": "bool",
          "name": "",
          "type": "bool"
        }
      ],
      "stateMutability": "nonpayable",
      "type": "function"
    },
    {
      "inputs": [
        {
          "internalType": "address",
          "name": "token",
          "type": "address"
        }
      ],
      "name": "getTokenDefaultKyc",
      "outputs": [
        {
          "internalType": "bool",
          "name": "",
          "type": "bool"
        }
      ],
      "stateMutability": "nonpayable",
      "type": "function"
    },
    {
      "inputs": [
        {
          "internalType": "address",
          "name": "token",
          "type": "address"
        },
        {
          "internalType": "uint256",
          "name": "keyType",
          "type": "uint256"
        }
      ],
      "name": "getTokenKeyPublic",
      "outputs": [
        {
          "components": [
            {
              "internalType": "bool",
              "name": "inheritAccountKey",
              "type": "bool"
            },
            {
              "internalType": "address",
              "name": "contractId",
              "type": "address"
            },
            {
              "internalType": "bytes",
              "name": "ed25519",
              "type": "bytes"
            },
            {
              "internalType": "bytes",
              "name": "ECDSA_secp256k1",
              "type": "bytes"
            },
            {
              "internalType": "address",
              "name": "delegatableContractId",
              "type": "address"
            }
          ],
          "internalType": "struct IHederaTokenService.KeyValue",
          "name": "",
          "type": "tuple"
        }
      ],
      "stateMutability": "nonpayable",
      "type": "function"
    },
    {
      "inputs": [
        {
          "internalType": "address",
          "name": "token",
          "type": "address"
        }
      ],
      "name": "getType",
      "outputs": [
        {
          "internalType": "int256",
          "name": "",
          "type": "int256"
        }
      ],
      "stateMutability": "nonpayable",
      "type": "function"
    },
    {
      "inputs": [
        {
          "internalType": "address",
          "name": "token",
          "type": "address"
        },
        {
          "internalType": "address",
          "name": "owner",
          "type": "address"
        },
        {
          "internalType": "address",
          "name": "operator",
          "type": "address"
        }
      ],
      "name": "isApprovedForAllRedirect",
      "outputs": [
        {
          "internalType": "bytes",
          "name": "result",
          "type": "bytes"
        }
      ],
      "stateMutability": "nonpayable",
      "type": "function"
    },
    {
      "inputs": [
        {
          "internalType": "address",
          "name": "token",
          "type": "address"
        },
        {
          "internalType": "address",
          "name": "account",
          "type": "address"
        }
      ],
      "name": "isKycGranted",
      "outputs": [
        {
          "internalType": "bool",
          "name": "",
          "type": "bool"
        }
      ],
      "stateMutability": "nonpayable",
      "type": "function"
    },
    {
      "inputs": [
        {
          "internalType": "address",
          "name": "token",
          "type": "address"
        }
      ],
      "name": "isTokenAddress",
      "outputs": [
        {
          "internalType": "bool",
          "name": "",
          "type": "bool"
        }
      ],
      "stateMutability": "nonpayable",
      "type": "function"
    },
    {
      "inputs": [
        {
          "internalType": "address",
          "name": "token",
          "type": "address"
        },
        {
          "internalType": "address",
          "name": "account",
          "type": "address"
        }
      ],
      "name": "isTokenFrozen",
      "outputs": [
        {
          "internalType": "bool",
          "name": "",
          "type": "bool"
        }
      ],
      "stateMutability": "nonpayable",
      "type": "function"
    },
    {
      "inputs": [
        {
          "internalType": "address",
          "name": "token",
          "type": "address"
        },
        {
          "internalType": "int64",
          "name": "amount",
          "type": "int64"
        },
        {
          "internalType": "bytes[]",
          "name": "metadata",
          "type": "bytes[]"
        },
        {
          "internalType": "address",
          "name": "treasury",
          "type": "address"
        }
      ],
      "name": "mintTokenGetTotalSupplyAndBalanceOfTreasury",
      "outputs": [
        {
          "internalType": "uint256",
          "name": "",
          "type": "uint256"
        },
        {
          "internalType": "uint256",
          "name": "",
          "type": "uint256"
        },
        {
          "internalType": "int256",
          "name": "",
          "type": "int256"
        },
        {
          "internalType": "int256",
          "name": "",
          "type": "int256"
        }
      ],
      "stateMutability": "nonpayable",
      "type": "function"
    },
    {
      "inputs": [
        {
          "internalType": "address",
          "name": "token",
          "type": "address"
        }
      ],
      "name": "nameNFTRedirect",
      "outputs": [
        {
          "internalType": "bytes",
          "name": "result",
          "type": "bytes"
        }
      ],
      "stateMutability": "nonpayable",
      "type": "function"
    },
    {
      "inputs": [
        {
          "internalType": "address",
          "name": "token",
          "type": "address"
        }
      ],
      "name": "nameRedirect",
      "outputs": [
        {
          "internalType": "bytes",
          "name": "result",
          "type": "bytes"
        }
      ],
      "stateMutability": "nonpayable",
      "type": "function"
    },
    {
      "inputs": [
        {
          "internalType": "address",
          "name": "token",
          "type": "address"
        }
      ],
      "name": "pauseTokenGetPauseStatusUnpauseGetPauseStatus",
      "outputs": [
        {
          "internalType": "bool",
          "name": "",
          "type": "bool"
        },
        {
          "internalType": "bool",
          "name": "",
          "type": "bool"
        }
      ],
      "stateMutability": "nonpayable",
      "type": "function"
    },
    {
      "inputs": [
        {
          "internalType": "address",
          "name": "token",
          "type": "address"
        },
        {
          "internalType": "bytes",
          "name": "encodedFunctionSelector",
          "type": "bytes"
        }
      ],
      "name": "redirectForToken",
      "outputs": [
        {
          "internalType": "int256",
          "name": "responseCode",
          "type": "int256"
        },
        {
          "internalType": "bytes",
          "name": "response",
          "type": "bytes"
        }
      ],
      "stateMutability": "nonpayable",
      "type": "function"
    },
    {
      "inputs": [
        {
          "internalType": "address",
          "name": "token",
          "type": "address"
        },
        {
          "internalType": "address",
          "name": "operator",
          "type": "address"
        },
        {
          "internalType": "bool",
          "name": "approved",
          "type": "bool"
        }
      ],
      "name": "setApprovalForAllRedirect",
      "outputs": [
        {
          "internalType": "bytes",
          "name": "result",
          "type": "bytes"
        }
      ],
      "stateMutability": "nonpayable",
      "type": "function"
    },
    {
      "inputs": [
        {
          "internalType": "address",
          "name": "token",
          "type": "address"
        }
      ],
      "name": "symbolNFTRedirect",
      "outputs": [
        {
          "internalType": "bytes",
          "name": "result",
          "type": "bytes"
        }
      ],
      "stateMutability": "nonpayable",
      "type": "function"
    },
    {
      "inputs": [
        {
          "internalType": "address",
          "name": "token",
          "type": "address"
        }
      ],
      "name": "symbolRedirect",
      "outputs": [
        {
          "internalType": "bytes",
          "name": "result",
          "type": "bytes"
        }
      ],
      "stateMutability": "nonpayable",
      "type": "function"
    },
    {
      "inputs": [
        {
          "internalType": "address",
          "name": "token",
          "type": "address"
        },
        {
          "internalType": "uint256",
          "name": "tokenId",
          "type": "uint256"
        }
      ],
      "name": "tokenURIRedirect",
      "outputs": [
        {
          "internalType": "bytes",
          "name": "result",
          "type": "bytes"
        }
      ],
      "stateMutability": "nonpayable",
      "type": "function"
    },
    {
      "inputs": [
        {
          "internalType": "address",
          "name": "token",
          "type": "address"
        }
      ],
      "name": "totalSupplyRedirect",
      "outputs": [
        {
          "internalType": "bytes",
          "name": "result",
          "type": "bytes"
        }
      ],
      "stateMutability": "nonpayable",
      "type": "function"
    },
    {
      "inputs": [
        {
          "internalType": "address",
          "name": "token",
          "type": "address"
        },
        {
          "internalType": "address",
          "name": "from",
          "type": "address"
        },
        {
          "internalType": "address",
          "name": "to",
          "type": "address"
        },
        {
          "internalType": "uint256",
          "name": "amount",
          "type": "uint256"
        }
      ],
      "name": "transferFrom",
      "outputs": [
        {
          "internalType": "int64",
          "name": "responseCode",
          "type": "int64"
        }
      ],
      "stateMutability": "nonpayable",
      "type": "function"
    },
    {
      "inputs": [
        {
          "internalType": "address",
          "name": "token",
          "type": "address"
        },
        {
          "internalType": "address",
          "name": "from",
          "type": "address"
        },
        {
          "internalType": "address",
          "name": "to",
          "type": "address"
        },
        {
          "internalType": "uint256",
          "name": "serialNumber",
          "type": "uint256"
        }
      ],
      "name": "transferFromNFT",
      "outputs": [
        {
          "internalType": "int64",
          "name": "responseCode",
          "type": "int64"
        }
      ],
      "stateMutability": "nonpayable",
      "type": "function"
    },
    {
      "inputs": [
        {
          "internalType": "address",
          "name": "token",
          "type": "address"
        },
        {
          "internalType": "address",
          "name": "from",
          "type": "address"
        },
        {
          "internalType": "address",
          "name": "to",
          "type": "address"
        },
        {
          "internalType": "uint256",
          "name": "tokenId",
          "type": "uint256"
        }
      ],
      "name": "transferFromNFTRedirect",
      "outputs": [
        {
          "internalType": "bytes",
          "name": "result",
          "type": "bytes"
        }
      ],
      "stateMutability": "nonpayable",
      "type": "function"
    },
    {
      "inputs": [
        {
          "internalType": "address",
          "name": "token",
          "type": "address"
        },
        {
          "internalType": "address",
          "name": "sender",
          "type": "address"
        },
        {
          "internalType": "address",
          "name": "recipient",
          "type": "address"
        },
        {
          "internalType": "uint256",
          "name": "amount",
          "type": "uint256"
        }
      ],
      "name": "transferFromRedirect",
      "outputs": [
        {
          "internalType": "bytes",
          "name": "result",
          "type": "bytes"
        }
      ],
      "stateMutability": "nonpayable",
      "type": "function"
    },
    {
      "inputs": [
        {
          "internalType": "address",
          "name": "token",
          "type": "address"
        },
        {
          "internalType": "address",
          "name": "recipient",
          "type": "address"
        },
        {
          "internalType": "uint256",
          "name": "amount",
          "type": "uint256"
        }
      ],
      "name": "transferRedirect",
      "outputs": [
        {
          "internalType": "bytes",
          "name": "result",
          "type": "bytes"
        }
      ],
      "stateMutability": "nonpayable",
      "type": "function"
    },
    {
      "inputs": [
        {
          "internalType": "address",
          "name": "token",
          "type": "address"
        },
        {
          "internalType": "int64",
          "name": "amount",
          "type": "int64"
        },
        {
          "internalType": "int64[]",
          "name": "serialNumbers",
          "type": "int64[]"
        },
        {
          "internalType": "address",
          "name": "account",
          "type": "address"
        }
      ],
      "name": "wipeTokenGetTotalSupplyAndBalanceOfAccount",
      "outputs": [
        {
          "internalType": "uint256",
          "name": "",
          "type": "uint256"
        },
        {
          "internalType": "uint256",
          "name": "",
          "type": "uint256"
        },
        {
          "internalType": "int256",
          "name": "",
          "type": "int256"
        },
        {
          "internalType": "int256",
          "name": "",
          "type": "int256"
        }
      ],
      "stateMutability": "nonpayable",
      "type": "function"
    }
  ],
  "bytecode": "0x608060405234801561001057600080fd5b50615572806100206000396000f3fe608060405234801561001057600080fd5b50600436106102d35760003560e01c806370a0636411610186578063c0395467116100e3578063f1e3aea211610097578063f68a81bb11610071578063f68a81bb146106a9578063fa5c2224146106bc578063fd4d1c26146106cf57600080fd5b8063f1e3aea21461064d578063f429f19b14610660578063f46c8ae21461068157600080fd5b8063ebe1e5fb116100c8578063ebe1e5fb146105ea578063ef80861e146105fd578063efe60aeb1461063a57600080fd5b8063c039546714610578578063d3f67d271461059e57600080fd5b80639b23d3d91161013a578063b51f3cf51161011f578063b51f3cf5146105b1578063bc2fb00e146105c4578063bff9834f146105d757600080fd5b80639b23d3d91461058b578063b132f4941461059e57600080fd5b80638e5e79961161016b5780638e5e799614610545578063911ce42514610565578063971f5a0b1461057857600080fd5b806370a063641461050857806385dec08e1461053257600080fd5b80633717ec9811610234578063565ca6fa116101e85780635b391493116101cd5780635b391493146104c1578063618dc65e146104d457806362248863146104f557600080fd5b8063565ca6fa1461048e57806359c16f5a146104a157600080fd5b806344f38bc81161021957806344f38bc8146104295780634b27d1ac1461044b5780634dc21f9f1461047b57600080fd5b80633717ec98146104165780633cc2322f1461041657600080fd5b806325004c1c1161028b578063319a872311610270578063319a8723146103c05780633232fc9f146103e357806335589a13146103f657600080fd5b806325004c1c1461039a5780632b2f5c66146103ad57600080fd5b806315dacbea116102bc57806315dacbea146103345780631955de0b1461035a5780631de8edad1461037a57600080fd5b8063045c5bfe146102d857806312fe055014610301575b600080fd5b6102eb6102e6366004613a08565b6106e2565b6040516102f89190613aaf565b60405180910390f35b61031461030f366004613ac2565b6107eb565b6040805194855260208501939093529183015260608201526080016102f8565b610347610342366004613b03565b610af3565b60405160079190910b81526020016102f8565b61036d610368366004613b54565b610be7565b6040516102f89190613beb565b61038d610388366004613bfe565b610c5b565b6040516102f89190613c1b565b6102eb6103a8366004613c4f565b610c9b565b6102eb6103bb366004613bfe565b610d7a565b6103d36103ce366004613bfe565b610e3a565b60405190151581526020016102f8565b6102eb6103f1366004613b54565b610ec8565b610409610404366004613bfe565b610ef8565b6040516102f89190614035565b6102eb610424366004613b03565b610f0c565b61043c610437366004613bfe565b611010565b6040516102f893929190614048565b61045e610459366004614081565b611042565b604080519283526001600160a01b039091166020830152016102f8565b6103146104893660046141d4565b6111fa565b6103d361049c366004613c4f565b6114d2565b6104b46104af366004613bfe565b61153b565b6040516102f891906142ab565b6102eb6104cf3660046142e0565b61154f565b6104e76104e2366004614399565b61158c565b6040516102f89291906143e9565b6102eb610503366004613b54565b6116ba565b61051b610516366004613c4f565b6116ea565b6040805192151583529015156020830152016102f8565b6102eb610540366004613bfe565b6117f3565b61055861055336600461440a565b611908565b6040516102f89190614438565b6102eb610573366004613ac2565b61191d565b6102eb610586366004613bfe565b611972565b610347610599366004613b03565b6119dc565b6102eb6105ac366004613bfe565b611a21565b6102eb6105bf3660046142e0565b611a8b565b6103d36105d2366004613c4f565b611ae1565b6103d36105e5366004613bfe565b611b4a565b6103146105f83660046144bc565b611bb2565b61061061060b366004613ac2565b611d80565b604080516001600160a01b03948516815292841660208401529216918101919091526060016102f8565b61051b610648366004613bfe565b612046565b6102eb61065b366004613ac2565b612160565b61067361066e366004613bfe565b6121b5565b6040519081526020016102f8565b61069461068f36600461459a565b612220565b604080519283526020830191909152016102f8565b6103146106b73660046141d4565b61243c565b6102eb6106ca366004613b54565b612689565b6103d36106dd366004613bfe565b6126b9565b6040516001600160a01b038316602482015281151560448201526060906000908190309063618dc65e9088907fa22cb46500000000000000000000000000000000000000000000000000000000906064015b60408051601f198184030181529181526020820180516001600160e01b03166001600160e01b03199485161790525160e085901b909216825261077a929160040161460b565b600060405180830381600087803b15801561079457600080fd5b505af11580156107a8573d6000803e3d6000fd5b505050506040513d6000823e601f3d908101601f191682016040526107d09190810190614672565b9092509050601682146107e257600080fd5b95945050505050565b60008060008060006107fe88888861271c565b9050610822816040518060600160405280602181526020016153b160219139612820565b604051636eb1769f60e11b81523060048201526001600160a01b038881166024830152600091908a169063dd62ed3e9060440160206040518083038186803b15801561086d57600080fd5b505afa158015610881573d6000803e3d6000fd5b505050506040513d601f19601f820116820180604052508101906108a591906146af565b6040516370a0823160e01b81526001600160a01b038a811660048301529192506000918b16906370a082319060240160206040518083038186803b1580156108ec57600080fd5b505afa158015610900573d6000803e3d6000fd5b505050506040513d601f19601f8201168201806040525081019061092491906146af565b604051630aed65f560e11b81526001600160a01b03808d1660048301523060248301819052908c166044830152606482018b90529192506315dacbea90608401602060405180830381600087803b15801561097e57600080fd5b505af1158015610992573d6000803e3d6000fd5b505050506040513d601f19601f820116820180604052508101906109b691906146d3565b60070b92506109dd836040518060600160405280602281526020016153fb60229139612820565b604051636eb1769f60e11b81523060048201526001600160a01b038a81166024830152600091908c169063dd62ed3e9060440160206040518083038186803b158015610a2857600080fd5b505afa158015610a3c573d6000803e3d6000fd5b505050506040513d601f19601f82011682018060405250810190610a6091906146af565b6040516370a0823160e01b81526001600160a01b038c811660048301529192506000918d16906370a082319060240160206040518083038186803b158015610aa757600080fd5b505afa158015610abb573d6000803e3d6000fd5b505050506040513d601f19601f82011682018060405250810190610adf91906146af565b939c929b5090995091975095505050505050565b6040516001600160a01b038581166024830152848116604483015283166064820152608481018290526000908190819061016790630aed65f560e11b9060a4015b60408051601f198184030181529181526020820180516001600160e01b03166001600160e01b0319909416939093179092529051610b7291906146f0565b6000604051808303816000865af19150503d8060008114610baf576040519150601f19603f3d011682016040523d82523d6000602084013e610bb4565b606091505b509150915081610bc5576015610bd9565b80806020019051810190610bd9919061471e565b60030b979650505050505050565b610c2d6040518060a0016040528060001515815260200160006001600160a01b03168152602001606081526020016060815260200160006001600160a01b031681525090565b600080610c3a8585612846565b915060070b9150601660030b8214610c5157600080fd5b9150505b92915050565b604080516060810182526000808252602082018190529181018290529080610c82846129a3565b909250905060168214610c9457600080fd5b9392505050565b6040516001600160a01b03821660248201526060906000908190309063618dc65e9087906370a0823160e01b906044015b60408051601f198184030181529181526020820180516001600160e01b03166001600160e01b03199485161790525160e085901b9092168252610d12929160040161460b565b600060405180830381600087803b158015610d2c57600080fd5b505af1158015610d40573d6000803e3d6000fd5b505050506040513d6000823e601f3d908101601f19168201604052610d689190810190614672565b909250905060168214610c5157600080fd5b6040805160048082526024820183526020820180516001600160e01b03167f313ce5670000000000000000000000000000000000000000000000000000000017905291516330c6e32f60e11b81526060926000928392309263618dc65e92610de49289920161460b565b600060405180830381600087803b158015610dfe57600080fd5b505af1158015610e12573d6000803e3d6000fd5b505050506040513d6000823e601f3d908101601f19168201604052610c829190810190614672565b6000806000610e4884612ab4565b909250905060168214610c945760405162461bcd60e51b815260206004820152602360248201527f676574546f6b656e44656661756c74467265657a65537461747573206661696c60448201527f656421000000000000000000000000000000000000000000000000000000000060648201526084015b60405180910390fd5b6060600080306001600160a01b031663618dc65e8663081812fc60e01b87604051602401610ccc91815260200190565b610f006138c0565b600080610c8284612bb1565b604080516001600160a01b03858116602483015284166044820152606480820184905282518083039091018152608490910182526020810180516001600160e01b03167f23b872dd0000000000000000000000000000000000000000000000000000000017905290516330c6e32f60e11b81526060916000918291309163618dc65e91610f9e918b919060040161460b565b600060405180830381600087803b158015610fb857600080fd5b505af1158015610fcc573d6000803e3d6000fd5b505050506040513d6000823e601f3d908101601f19168201604052610ff49190810190614672565b90925090506016821461100657600080fd5b9695505050505050565b6060806060600061102085612c9a565b919650945092509050600781900b60161461103a57600080fd5b509193909250565b600080600084118015611053575082155b1561111a57600061106587878761271c565b9050611089816040518060600160405280602181526020016153b160219139612820565b604051636eb1769f60e11b81523060048201526001600160a01b0387811660248301526000919089169063dd62ed3e9060440160206040518083038186803b1580156110d457600080fd5b505afa1580156110e8573d6000803e3d6000fd5b505050506040513d601f19601f8201168201806040525081019061110c91906146af565b9350600092506111f1915050565b6000611127878786612d9a565b9050611168816040518060400160405280601681526020017f4661696c656420746f20617070726f7665204e46542e00000000000000000000815250612820565b60405163020604bf60e21b8152600481018590526000906001600160a01b0389169063081812fc9060240160206040518083038186803b1580156111ab57600080fd5b505afa1580156111bf573d6000803e3d6000fd5b505050506040513d601f19601f820116820180604052508101906111e39190614744565b6000945092506111f1915050565b94509492505050565b60008060008060008060008060008b60070b13801561121857508951155b1561129d576040516370a0823160e01b81526001600160a01b038a811660048301528d16906370a082319060240160206040518083038186803b15801561125e57600080fd5b505afa158015611272573d6000803e3d6000fd5b505050506040513d601f19601f8201168201806040525081019061129691906146af565b9350611319565b6040516370a0823160e01b81526001600160a01b038a811660048301528d16906370a082319060240160206040518083038186803b1580156112de57600080fd5b505afa1580156112f2573d6000803e3d6000fd5b505050506040513d601f19601f8201168201806040525081019061131691906146af565b93505b6000806113258e612bb1565b9150915061134b826040518060600160405280602a815260200161549d602a9139612820565b806020015160070b93506113608e8e8e612df0565b60408051808201909152601581527f4661696c656420746f206275726e20746f6b656e2e0000000000000000000000602082015260079190910b94509092506113aa908390612820565b60008d60070b1380156113bc57508b51155b15611442576040516370a0823160e01b81526001600160a01b038c811660048301528f16906370a08231906024015b60206040518083038186803b15801561140357600080fd5b505afa158015611417573d6000803e3d6000fd5b505050506040513d601f19601f8201168201806040525081019061143b91906146af565b94506114be565b6040516370a0823160e01b81526001600160a01b038c811660048301528f16906370a082319060240160206040518083038186803b15801561148357600080fd5b505afa158015611497573d6000803e3d6000fd5b505050506040513d601f19601f820116820180604052508101906114bb91906146af565b94505b50939c929b50909950975095505050505050565b60008060006114e18585612ec6565b915060070b9150601660030b8214610c515760405162461bcd60e51b815260206004820152601660248201527f546f6b656e20697346726f7a656e206661696c656421000000000000000000006044820152606401610ebf565b611543613977565b600080610c8284612fba565b6040516001600160a01b038381166024830152821660448201526060906000908190309063618dc65e908890636eb1769f60e11b90606401610734565b600060606000806101676001600160a01b031663618dc65e60e01b87876040516024016115ba92919061460b565b60408051601f198184030181529181526020820180516001600160e01b03166001600160e01b03199094169390931790925290516115f891906146f0565b6000604051808303816000865af19150503d8060008114611635576040519150601f19603f3d011682016040523d82523d6000602084013e61163a565b606091505b50915091507f4af4780e06fe8cb9df64b0794fa6f01399af979175bb988e35e0e57e594567bc8282604051611670929190614761565b60405180910390a181611694576015604051806020016040528060008152506116a8565b808060200190518101906116a8919061477c565b60039190910b97909650945050505050565b6060600080306001600160a01b031663618dc65e86636352211e60e01b87604051602401610ccc91815260200190565b60008060008060006116fc87876130a3565b60070b90506117238160405180606001604052806027815260200161551660279139612820565b6000806117308989612ec6565b915060070b9150611759836040518060600160405280602981526020016153d260299139612820565b809450611766898961319f565b60070b92506117aa836040518060400160405280601b81526020017f4661696c656420746f20756e667265657a65206163636f756e742e0000000000815250612820565b6117b48989612ec6565b8160070b915080925081935050506117e4836040518060600160405280602b8152602001615472602b9139612820565b93989397509295505050505050565b6040805160048082526024820183526020820180516001600160e01b03167f18160ddd0000000000000000000000000000000000000000000000000000000017905291516330c6e32f60e11b81526060926000928392309263618dc65e9261185d9289920161460b565b600060405180830381600087803b15801561187757600080fd5b505af115801561188b573d6000803e3d6000fd5b505050506040513d6000823e601f3d908101601f191682016040526118b39190810190614672565b909250905060168214610c945760405162461bcd60e51b815260206004820152601560248201527f546f6b656e207265646972656374206661696c656400000000000000000000006044820152606401610ebf565b611910613997565b600080610d6885856131ee565b6040516001600160a01b0383166024820152604481018290526060906000908190309063618dc65e9088907f095ea7b30000000000000000000000000000000000000000000000000000000090606401610734565b6040805160048082526024820183526020820180516001600160e01b03167f06fdde030000000000000000000000000000000000000000000000000000000017905291516330c6e32f60e11b81526060926000928392309263618dc65e92610de49289920161460b565b6040516001600160a01b038581166024830152848116604483015283166064820152608481018290526000908190819061016790639b23d3d960e01b9060a401610b34565b6040805160048082526024820183526020820180516001600160e01b03167f95d89b410000000000000000000000000000000000000000000000000000000017905291516330c6e32f60e11b81526060926000928392309263618dc65e92610de49289920161460b565b6040516001600160a01b038381166024830152821660448201526060906000908190309063618dc65e9088907fe985e9c50000000000000000000000000000000000000000000000000000000090606401610734565b6000806000611af085856132e1565b915060070b9150601660030b8214610c515760405162461bcd60e51b815260206004820152601360248201527f546f6b656e2069734b7963206661696c656421000000000000000000000000006044820152606401610ebf565b6000806000611b5884613332565b915060070b9150601660030b8214610c945760405162461bcd60e51b815260206004820152601c60248201527f546f6b656e206973546f6b656e41646472657373206661696c656421000000006044820152606401610ebf565b60008060008060008060008060008b60070b138015611bd057508951155b15611c55576040516370a0823160e01b81526001600160a01b038a811660048301528d16906370a082319060240160206040518083038186803b158015611c1657600080fd5b505afa158015611c2a573d6000803e3d6000fd5b505050506040513d601f19601f82011682018060405250810190611c4e91906146af565b9350611cd1565b6040516370a0823160e01b81526001600160a01b038a811660048301528d16906370a082319060240160206040518083038186803b158015611c9657600080fd5b505afa158015611caa573d6000803e3d6000fd5b505050506040513d601f19601f82011682018060405250810190611cce91906146af565b93505b600080611cdd8e612bb1565b91509150611d20826040518060400160405280601e81526020017f4661696c656420746f20726574726965766520746f6b656e20696e666f2e0000815250612820565b806020015160070b9350611d358e8e8e61337b565b5060408051808201909152601581527f4661696c656420746f206d696e7420746f6b656e2e0000000000000000000000602082015260079190910b94509092506113aa908390612820565b600080600080611d91878787612d9a565b9050611dd2816040518060400160405280601681526020017f4661696c656420746f20617070726f7665204e46542e00000000000000000000815250612820565b60405163020604bf60e21b8152600481018690526000906001600160a01b0389169063081812fc9060240160206040518083038186803b158015611e1557600080fd5b505afa158015611e29573d6000803e3d6000fd5b505050506040513d601f19601f82011682018060405250810190611e4d9190614744565b604051639b23d3d960e01b81526001600160a01b03808b1660048301523060248301819052908a16604483015260648201899052919250639b23d3d990608401602060405180830381600087803b158015611ea757600080fd5b505af1158015611ebb573d6000803e3d6000fd5b505050506040513d601f19601f82011682018060405250810190611edf91906146d3565b60070b9150611f23826040518060400160405280601781526020017f4661696c656420746f207472616e73666572204e46542e000000000000000000815250612820565b6040517f6352211e000000000000000000000000000000000000000000000000000000008152600481018790526000906001600160a01b038a1690636352211e9060240160206040518083038186803b158015611f7f57600080fd5b505afa158015611f93573d6000803e3d6000fd5b505050506040513d601f19601f82011682018060405250810190611fb79190614744565b60405163020604bf60e21b8152600481018990529091506000906001600160a01b038b169063081812fc9060240160206040518083038186803b158015611ffd57600080fd5b505afa158015612011573d6000803e3d6000fd5b505050506040513d601f19601f820116820180604052508101906120359190614744565b929a91995091975095505050505050565b600080600080600061205786613479565b9050612098816040518060400160405280601681526020017f4661696c656420746f20706175736520746f6b656e2e00000000000000000000815250612820565b6000806120a488612bb1565b915091506120ca836040518060600160405280602581526020016154f160259139612820565b806080015194506120da8861356c565b925061211b836040518060400160405280601881526020017f4661696c656420746f20756e706175736520746f6b656e2e0000000000000000815250612820565b61212488612bb1565b809250819350505061214e836040518060600160405280602c815260200161541d602c9139612820565b60800151939793965092945050505050565b6040516001600160a01b0383166024820152604481018290526060906000908190309063618dc65e9088907fa9059cbb0000000000000000000000000000000000000000000000000000000090606401610734565b60008060006121c3846135b3565b60030b915060070b9150601660030b8214610c945760405162461bcd60e51b815260206004820152601c60248201527f546f6b656e20747970652061707072616973616c206661696c656421000000006044820152606401610ebf565b6040805160018082528183019092526000918291829160208083019080368337019050509050600080898360008151811061225d5761225d6147b4565b60200260200101906001600160a01b031690816001600160a01b0316815250506000612289898c613690565b90506122ca816040518060400160405280601b81526020017f4661696c656420746f206173736f636961746520746f6b656e732e0000000000815250612820565b60008860070b1380156122e057508660070b6000145b156122f8576122f18b8b8b8b6136df565b9250612307565b6123048b8b8b8a613740565b92505b60008860070b13801561231d57508660070b6000145b156123575761232e8b8a308b6136df565b9050612352816040518060600160405280602281526020016153fb60229139612820565b6123a4565b6123638b8a308a613740565b90506123a4816040518060400160405280601d81526020017f4661696c656420746f207472616e73666572204e465420746f6b656e2e000000815250612820565b6123ae898c6137a1565b90506123ef816040518060400160405280601b81526020017f4661696c656420746f20646973736f636961746520746f6b656e2e0000000000815250612820565b60008860070b13801561240557508660070b6000145b1561241d576124168b8b8b8b6136df565b915061242c565b6124298b8b8b8a613740565b91505b5090999098509650505050505050565b60008080808080808060078b900b8112801561245757508951155b156124dc576040516370a0823160e01b81526001600160a01b038a811660048301528d16906370a082319060240160206040518083038186803b15801561249d57600080fd5b505afa1580156124b1573d6000803e3d6000fd5b505050506040513d601f19601f820116820180604052508101906124d591906146af565b9350612558565b6040516370a0823160e01b81526001600160a01b038a811660048301528d16906370a082319060240160206040518083038186803b15801561251d57600080fd5b505afa158015612531573d6000803e3d6000fd5b505050506040513d601f19601f8201168201806040525081019061255591906146af565b93505b6000806125648e612bb1565b9150915061258a826040518060600160405280602a81526020016154c7602a9139612820565b806020015160070b935060008d60070b1380156125a657508b51155b156125bd576125b68e8c8f6137f0565b91506125cb565b6125c88e8c8e613849565b91505b61260a826040518060400160405280601581526020017f4661696c656420746f207769706520746f6b656e2e0000000000000000000000815250612820565b6126138e612bb1565b809250819350505061263d8260405180606001604052806029815260200161544960299139612820565b806020015160070b925060008d60070b1380156113bc57508b51611442576040516370a0823160e01b81526001600160a01b038c811660048301528f16906370a08231906024016113eb565b6060600080306001600160a01b031663618dc65e8663c87b56dd60e01b87604051602401610ccc91815260200190565b60008060006126c784613877565b909250905060168214610c945760405162461bcd60e51b815260206004820181905260248201527f676574546f6b656e44656661756c744b7963537461747573206661696c6564216044820152606401610ebf565b6040516001600160a01b038481166024830152831660448201526064810182905260009081908190610167907fe1f21c6700000000000000000000000000000000000000000000000000000000906084015b60408051601f198184030181529181526020820180516001600160e01b03166001600160e01b03199094169390931790925290516127ac91906146f0565b6000604051808303816000865af19150503d80600081146127e9576040519150601f19603f3d011682016040523d82523d6000602084013e6127ee565b606091505b5091509150816127ff576015612813565b80806020019051810190612813919061471e565b60030b9695505050505050565b60168214612842578060405162461bcd60e51b8152600401610ebf9190613aaf565b5050565b6040805160a081018252600080825260208083018290526060838501819052808401526080830182905283516001600160a01b03871660248201526044808201879052855180830390910181526064909101855290810180516001600160e01b03167f3c4dd32e000000000000000000000000000000000000000000000000000000001790529251909283918291610167916128e291906146f0565b6000604051808303816000865af19150503d806000811461291f576040519150601f19603f3d011682016040523d82523d6000602084013e612924565b606091505b509150915061296f6040518060a0016040528060001515815260200160006001600160a01b03168152602001606081526020016060815260200160006001600160a01b031681525090565b8261297c57601581612990565b81806020019051810190612990919061487d565b60039190910b9890975095505050505050565b604080516060810182526000808252602080830182905282840182905283516001600160a01b038616602480830191909152855180830390910181526044909101855290810180516001600160e01b03167fd614cdb800000000000000000000000000000000000000000000000000000000179052925190928391829161016791612a2e91906146f0565b6000604051808303816000865af19150503d8060008114612a6b576040519150601f19603f3d011682016040523d82523d6000602084013e612a70565b606091505b506040805160608101825260008082526020820181905291810191909152919350915082612aa0576015816116a8565b818060200190518101906116a89190614939565b6040516001600160a01b0382166024820152600090819081908190610167907fa7daa18d00000000000000000000000000000000000000000000000000000000906044015b60408051601f198184030181529181526020820180516001600160e01b03166001600160e01b0319909416939093179092529051612b3791906146f0565b6000604051808303816000865af19150503d8060008114612b74576040519150601f19603f3d011682016040523d82523d6000602084013e612b79565b606091505b509150915081612b8c5760156000612ba0565b80806020019051810190612ba0919061496d565b60039190910b969095509350505050565b6000612bbb6138c0565b604080516001600160a01b03851660248083019190915282518083039091018152604490910182526020810180516001600160e01b03167f1f69565f000000000000000000000000000000000000000000000000000000001790529051600091829161016791612c2a916146f0565b6000604051808303816000865af19150503d8060008114612c67576040519150601f19603f3d011682016040523d82523d6000602084013e612c6c565b606091505b5091509150612c796138c0565b82612c86576015816116a8565b818060200190518101906116a89190614f27565b604080516001600160a01b03831660248083019190915282518083039091018152604490910182526020810180516001600160e01b03167fae7611a0000000000000000000000000000000000000000000000000000000001790529051600091606091829182918591829161016791612d12916146f0565b6000604051808303816000865af19150503d8060008114612d4f576040519150601f19603f3d011682016040523d82523d6000602084013e612d54565b606091505b5091509150606080606084612d6d576015838383612d81565b83806020019051810190612d819190614f6b565b60039390930b9d919c509a509098509650505050505050565b6040516001600160a01b038481166024830152831660448201526064810182905260009081908190610167907f7336aaf0000000000000000000000000000000000000000000000000000000009060840161276e565b6000806000806101676001600160a01b031663d6910d0660e01b888888604051602401612e1f93929190615037565b60408051601f198184030181529181526020820180516001600160e01b03166001600160e01b0319909416939093179092529051612e5d91906146f0565b6000604051808303816000865af19150503d8060008114612e9a576040519150601f19603f3d011682016040523d82523d6000602084013e612e9f565b606091505b509150915081612eb25760156000612990565b808060200190518101906129909190615062565b6040516001600160a01b03838116602483015282166044820152600090819081908190610167907f46de0fb100000000000000000000000000000000000000000000000000000000906064015b60408051601f198184030181529181526020820180516001600160e01b03166001600160e01b0319909416939093179092529051612f5191906146f0565b6000604051808303816000865af19150503d8060008114612f8e576040519150601f19603f3d011682016040523d82523d6000602084013e612f93565b606091505b509150915081612fa657601560006116a8565b808060200190518101906116a8919061496d565b6000612fc4613977565b604080516001600160a01b03851660248083019190915282518083039091018152604490910182526020810180516001600160e01b03167f3f28a19b000000000000000000000000000000000000000000000000000000001790529051600091829161016791613033916146f0565b6000604051808303816000865af19150503d8060008114613070576040519150601f19603f3d011682016040523d82523d6000602084013e613075565b606091505b5091509150613082613977565b8261308f576015816116a8565b818060200190518101906116a8919061508e565b6040516001600160a01b0383811660248301528216604482015260009081908190610167907f5b8f858400000000000000000000000000000000000000000000000000000000906064015b60408051601f198184030181529181526020820180516001600160e01b03166001600160e01b031990941693909317909252905161312c91906146f0565b6000604051808303816000865af19150503d8060008114613169576040519150601f19603f3d011682016040523d82523d6000602084013e61316e565b606091505b50915091508161317f576015613193565b80806020019051810190613193919061471e565b60030b95945050505050565b6040516001600160a01b0383811660248301528216604482015260009081908190610167907f52f9138700000000000000000000000000000000000000000000000000000000906064016130ee565b60006131f8613997565b604080516001600160a01b0386166024820152600785900b60448083019190915282518083039091018152606490910182526020810180516001600160e01b03167f287e1da8000000000000000000000000000000000000000000000000000000001790529051600091829161016791613271916146f0565b6000604051808303816000865af19150503d80600081146132ae576040519150601f19603f3d011682016040523d82523d6000602084013e6132b3565b606091505b50915091506132c0613997565b826132cd57601581612990565b818060200190518101906129909190615135565b6040516001600160a01b03838116602483015282166044820152600090819081908190610167907ff2c31ff40000000000000000000000000000000000000000000000000000000090606401612f13565b6040516001600160a01b0382166024820152600090819081908190610167907f19f373610000000000000000000000000000000000000000000000000000000090604401612af9565b60008060606000806101676001600160a01b031663e0f4059a60e01b8989896040516024016133ac9392919061521d565b60408051601f198184030181529181526020820180516001600160e01b03166001600160e01b03199094169390931790925290516133ea91906146f0565b6000604051808303816000865af19150503d8060008114613427576040519150601f19603f3d011682016040523d82523d6000602084013e61342c565b606091505b50915091508161344f576040805160008082526020820190925260159190613463565b80806020019051810190613463919061529a565b60039290920b9a90995090975095505050505050565b6040516001600160a01b038216602482015260009081908190610167907f7c41ad2c00000000000000000000000000000000000000000000000000000000906044015b60408051601f198184030181529181526020820180516001600160e01b03166001600160e01b03199094169390931790925290516134fa91906146f0565b6000604051808303816000865af19150503d8060008114613537576040519150601f19603f3d011682016040523d82523d6000602084013e61353c565b606091505b50915091508161354d576015613561565b80806020019051810190613561919061471e565b60030b949350505050565b6040516001600160a01b038216602482015260009081908190610167907f3b3bff0f00000000000000000000000000000000000000000000000000000000906044016134bc565b604080516001600160a01b03831660248083019190915282518083039091018152604490910182526020810180516001600160e01b03167f93272baf00000000000000000000000000000000000000000000000000000000179052905160009182918291829161016791613626916146f0565b6000604051808303816000865af19150503d8060008114613663576040519150601f19603f3d011682016040523d82523d6000602084013e613668565b606091505b50915091508161367c576015600019612ba0565b80806020019051810190612ba0919061535a565b6040516001600160a01b0383811660248301528216604482015260009081908190610167907f49146bde00000000000000000000000000000000000000000000000000000000906064016130ee565b6040516001600160a01b038581166024830152848116604483015283166064820152600782900b608482015260009081908190610167907feca36917000000000000000000000000000000000000000000000000000000009060a401610b34565b6040516001600160a01b038581166024830152848116604483015283166064820152600782900b608482015260009081908190610167907f5cfc9011000000000000000000000000000000000000000000000000000000009060a401610b34565b6040516001600160a01b0383811660248301528216604482015260009081908190610167907f099794e800000000000000000000000000000000000000000000000000000000906064016130ee565b6040516001600160a01b03848116602483015283166044820152600782900b606482015260009081908190610167907fefef57f9000000000000000000000000000000000000000000000000000000009060840161276e565b60008060006101676001600160a01b031663f7f38e2660e01b87878760405160240161276e93929190615384565b6040516001600160a01b0382166024820152600090819081908190610167907f335e04c10000000000000000000000000000000000000000000000000000000090604401612af9565b60408051610240810182526060610120820181815261014083018290526000610160840181905261018084018390526101a084018190526101c084018190526101e0840181905261020084018390528451928301855280835260208301819052938201939093526102208201529081908152602001600060070b8152602001600015158152602001600015158152602001600015158152602001606081526020016060815260200160608152602001606081525090565b604051806040016040528061398a6138c0565b8152600060209091015290565b6040518060c001604052806139aa6138c0565b8152600060208201819052604082018190526060808301829052608083015260a09091015290565b6001600160a01b03811681146139e757600080fd5b50565b80356139f5816139d2565b919050565b80151581146139e757600080fd5b600080600060608486031215613a1d57600080fd5b8335613a28816139d2565b92506020840135613a38816139d2565b91506040840135613a48816139fa565b809150509250925092565b60005b83811015613a6e578181015183820152602001613a56565b83811115613a7d576000848401525b50505050565b60008151808452613a9b816020860160208601613a53565b601f01601f19169290920160200192915050565b602081526000610c946020830184613a83565b600080600060608486031215613ad757600080fd5b8335613ae2816139d2565b92506020840135613af2816139d2565b929592945050506040919091013590565b60008060008060808587031215613b1957600080fd5b8435613b24816139d2565b93506020850135613b34816139d2565b92506040850135613b44816139d2565b9396929550929360600135925050565b60008060408385031215613b6757600080fd5b8235613b72816139d2565b946020939093013593505050565b805115158252600060208201516001600160a01b0380821660208601526040840151915060a06040860152613bb860a0860183613a83565b915060608401518583036060870152613bd18382613a83565b925050806080850151166080860152508091505092915050565b602081526000610c946020830184613b80565b600060208284031215613c1057600080fd5b8135610c94816139d2565b60608101610c558284805160070b82526001600160a01b036020820151166020830152604081015160070b60408301525050565b60008060408385031215613c6257600080fd5b8235613c6d816139d2565b91506020830135613c7d816139d2565b809150509250929050565b600081518084526020808501808196508360051b8101915082860160005b85811015613ce45782840389528151805185528501516040868601819052613cd081870183613b80565b9a87019a9550505090840190600101613ca6565b5091979650505050505050565b60006101608251818552613d0782860182613a83565b91505060208301518482036020860152613d218282613a83565b9150506040830151613d3e60408601826001600160a01b03169052565b5060608301518482036060860152613d568282613a83565b9150506080830151613d6c608086018215159052565b5060a0830151613d8160a086018260070b9052565b5060c0830151613d9560c086018215159052565b5060e083015184820360e0860152613dad8282613c88565b91505061010080840151613de982870182805160070b82526001600160a01b036020820151166020830152604081015160070b60408301525050565b5090949350505050565b600081518084526020808501945080840160005b83811015613e60578151805160070b8852838101516001600160a01b03908116858a01526040808301511515908a01526060808301511515908a0152608091820151169088015260a09096019590820190600101613e07565b509495945050505050565b600081518084526020808501945080840160005b83811015613e605781518051600790810b895284820151810b858a0152604080830151820b908a015260608083015190910b9089015260808082015115159089015260a0908101516001600160a01b03169088015260c09096019590820190600101613e7f565b600081518084526020808501945080840160005b83811015613e605781518051600790810b895284820151810b858a015260408083015190910b908901526060808201516001600160a01b03908116918a01919091526080808301511515908a015260a091820151169088015260c09096019590820190600101613efa565b60006101208251818552613f7b82860182613cf1565b9150506020830151613f92602086018260070b9052565b506040830151613fa6604086018215159052565b506060830151613fba606086018215159052565b506080830151613fce608086018215159052565b5060a083015184820360a0860152613fe68282613df3565b91505060c083015184820360c08601526140008282613e6b565b91505060e083015184820360e086015261401a8282613ee6565b91505061010080840151858303828701526110068382613a83565b602081526000610c946020830184613f65565b60608152600061405b6060830186613df3565b828103602084015261406d8186613e6b565b905082810360408401526110068185613ee6565b6000806000806080858703121561409757600080fd5b84356140a2816139d2565b935060208501356140b2816139d2565b93969395505050506040820135916060013590565b8060070b81146139e757600080fd5b634e487b7160e01b600052604160045260246000fd5b60405160a0810167ffffffffffffffff8111828210171561410f5761410f6140d6565b60405290565b6040805190810167ffffffffffffffff8111828210171561410f5761410f6140d6565b604051610120810167ffffffffffffffff8111828210171561410f5761410f6140d6565b60405160c0810167ffffffffffffffff8111828210171561410f5761410f6140d6565b604051601f8201601f1916810167ffffffffffffffff811182821017156141a8576141a86140d6565b604052919050565b600067ffffffffffffffff8211156141ca576141ca6140d6565b5060051b60200190565b600080600080608085870312156141ea57600080fd5b84356141f5816139d2565b9350602085810135614206816140c7565b9350604086013567ffffffffffffffff81111561422257600080fd5b8601601f8101881361423357600080fd5b8035614246614241826141b0565b61417f565b81815260059190911b8201830190838101908a83111561426557600080fd5b928401925b8284101561428c57833561427d816140c7565b8252928401929084019061426a565b80965050505050506142a0606086016139ea565b905092959194509250565b6020815260008251604060208401526142c76060840182613f65565b9050602084015160030b60408401528091505092915050565b6000806000606084860312156142f557600080fd5b8335614300816139d2565b92506020840135614310816139d2565b91506040840135613a48816139d2565b600067ffffffffffffffff82111561433a5761433a6140d6565b50601f01601f191660200190565b600082601f83011261435957600080fd5b813561436761424182614320565b81815284602083860101111561437c57600080fd5b816020850160208301376000918101602001919091529392505050565b600080604083850312156143ac57600080fd5b82356143b7816139d2565b9150602083013567ffffffffffffffff8111156143d357600080fd5b6143df85828601614348565b9150509250929050565b8281526040602082015260006144026040830184613a83565b949350505050565b6000806040838503121561441d57600080fd5b8235614428816139d2565b91506020830135613c7d816140c7565b602081526000825160c0602084015261445460e0840182613f65565b9050602084015160070b604084015260408401516001600160a01b038082166060860152606086015160070b608086015260808601519150601f198584030160a08601526144a28383613a83565b92508060a08701511660c086015250508091505092915050565b600080600080608085870312156144d257600080fd5b84356144dd816139d2565b93506020858101356144ee816140c7565b9350604086013567ffffffffffffffff8082111561450b57600080fd5b818801915088601f83011261451f57600080fd5b813561452d614241826141b0565b81815260059190911b8301840190848101908b83111561454c57600080fd5b8585015b83811015614584578035858111156145685760008081fd5b6145768e89838a0101614348565b845250918601918601614550565b508097505050505050506142a0606086016139ea565b600080600080600060a086880312156145b257600080fd5b85356145bd816139d2565b945060208601356145cd816139d2565b935060408601356145dd816139d2565b925060608601356145ed816140c7565b915060808601356145fd816140c7565b809150509295509295909350565b6001600160a01b03831681526040602082015260006144026040830184613a83565b600082601f83011261463e57600080fd5b815161464c61424182614320565b81815284602083860101111561466157600080fd5b610c51826020830160208701613a53565b6000806040838503121561468557600080fd5b82519150602083015167ffffffffffffffff8111156146a357600080fd5b6143df8582860161462d565b6000602082840312156146c157600080fd5b5051919050565b80516139f5816140c7565b6000602082840312156146e557600080fd5b8151610c94816140c7565b60008251614702818460208701613a53565b9190910192915050565b8051600381900b81146139f557600080fd5b60006020828403121561473057600080fd5b610c948261470c565b80516139f5816139d2565b60006020828403121561475657600080fd5b8151610c94816139d2565b82151581526040602082015260006144026040830184613a83565b6000806040838503121561478f57600080fd5b6147988361470c565b9150602083015167ffffffffffffffff8111156146a357600080fd5b634e487b7160e01b600052603260045260246000fd5b80516139f5816139fa565b600060a082840312156147e757600080fd5b6147ef6140ec565b905081516147fc816139fa565b8152602082015161480c816139d2565b6020820152604082015167ffffffffffffffff8082111561482c57600080fd5b6148388583860161462d565b6040840152606084015191508082111561485157600080fd5b5061485e8482850161462d565b6060830152506080820151614872816139d2565b608082015292915050565b6000806040838503121561489057600080fd5b6148998361470c565b9150602083015167ffffffffffffffff8111156148b557600080fd5b6143df858286016147d5565b6000606082840312156148d357600080fd5b6040516060810181811067ffffffffffffffff821117156148f6576148f66140d6565b80604052508091508251614909816140c7565b81526020830151614919816139d2565b6020820152604083015161492c816140c7565b6040919091015292915050565b6000806080838503121561494c57600080fd5b6149558361470c565b915061496484602085016148c1565b90509250929050565b6000806040838503121561498057600080fd5b6149898361470c565b91506020830151613c7d816139fa565b600082601f8301126149aa57600080fd5b815160206149ba614241836141b0565b82815260059290921b840181019181810190868411156149d957600080fd5b8286015b84811015614a5b57805167ffffffffffffffff808211156149fe5760008081fd5b908801906040828b03601f1901811315614a185760008081fd5b614a20614115565b838801518152908301519082821115614a395760008081fd5b614a478c89848701016147d5565b8189015286525050509183019183016149dd565b509695505050505050565b60006101608284031215614a7957600080fd5b614a81614138565b9050815167ffffffffffffffff80821115614a9b57600080fd5b614aa78583860161462d565b83526020840151915080821115614abd57600080fd5b614ac98583860161462d565b6020840152614ada60408501614739565b60408401526060840151915080821115614af357600080fd5b614aff8583860161462d565b6060840152614b10608085016147ca565b6080840152614b2160a085016146c8565b60a0840152614b3260c085016147ca565b60c084015260e0840151915080821115614b4b57600080fd5b50614b5884828501614999565b60e083015250610100614b6d848285016148c1565b9082015292915050565b600082601f830112614b8857600080fd5b81516020614b98614241836141b0565b82815260a09283028501820192828201919087851115614bb757600080fd5b8387015b85811015614c3f5781818a031215614bd35760008081fd5b614bdb6140ec565b8151614be6816140c7565b815281860151614bf5816139d2565b81870152604082810151614c08816139fa565b90820152606082810151614c1b816139fa565b90820152608082810151614c2e816139d2565b908201528452928401928101614bbb565b5090979650505050505050565b600082601f830112614c5d57600080fd5b81516020614c6d614241836141b0565b82815260c09283028501820192828201919087851115614c8c57600080fd5b8387015b85811015614c3f5781818a031215614ca85760008081fd5b614cb061415c565b8151614cbb816140c7565b815281860151614cca816140c7565b81870152604082810151614cdd816140c7565b90820152606082810151614cf0816140c7565b90820152608082810151614d03816139fa565b9082015260a082810151614d16816139d2565b908201528452928401928101614c90565b600082601f830112614d3857600080fd5b81516020614d48614241836141b0565b82815260c09283028501820192828201919087851115614d6757600080fd5b8387015b85811015614c3f5781818a031215614d835760008081fd5b614d8b61415c565b8151614d96816140c7565b815281860151614da5816140c7565b81870152604082810151614db8816140c7565b90820152606082810151614dcb816139d2565b90820152608082810151614dde816139fa565b9082015260a082810151614df1816139d2565b908201528452928401928101614d6b565b60006101208284031215614e1557600080fd5b614e1d614138565b9050815167ffffffffffffffff80821115614e3757600080fd5b614e4385838601614a66565b8352614e51602085016146c8565b6020840152614e62604085016147ca565b6040840152614e73606085016147ca565b6060840152614e84608085016147ca565b608084015260a0840151915080821115614e9d57600080fd5b614ea985838601614b77565b60a084015260c0840151915080821115614ec257600080fd5b614ece85838601614c4c565b60c084015260e0840151915080821115614ee757600080fd5b614ef385838601614d27565b60e084015261010091508184015181811115614f0e57600080fd5b614f1a8682870161462d565b8385015250505092915050565b60008060408385031215614f3a57600080fd5b614f438361470c565b9150602083015167ffffffffffffffff811115614f5f57600080fd5b6143df85828601614e02565b60008060008060808587031215614f8157600080fd5b614f8a8561470c565b9350602085015167ffffffffffffffff80821115614fa757600080fd5b614fb388838901614b77565b94506040870151915080821115614fc957600080fd5b614fd588838901614c4c565b93506060870151915080821115614feb57600080fd5b50614ff887828801614d27565b91505092959194509250565b600081518084526020808501945080840160005b83811015613e6057815160070b87529582019590820190600101615018565b6001600160a01b03841681528260070b60208201526060604082015260006107e26060830184615004565b6000806040838503121561507557600080fd5b61507e8361470c565b91506020830151613c7d816140c7565b600080604083850312156150a157600080fd5b6150aa8361470c565b9150602083015167ffffffffffffffff808211156150c757600080fd5b90840190604082870312156150db57600080fd5b6040516040810181811083821117156150f6576150f66140d6565b60405282518281111561510857600080fd5b61511488828601614e02565b8252506151236020840161470c565b60208201528093505050509250929050565b6000806040838503121561514857600080fd5b6151518361470c565b9150602083015167ffffffffffffffff8082111561516e57600080fd5b9084019060c0828703121561518257600080fd5b61518a61415c565b82518281111561519957600080fd5b6151a588828601614e02565b8252506151b4602084016146c8565b60208201526151c560408401614739565b60408201526151d6606084016146c8565b60608201526080830151828111156151ed57600080fd5b6151f98882860161462d565b60808301525061520b60a08401614739565b60a08201528093505050509250929050565b6000606082016001600160a01b038616835260208560070b818501526060604085015281855180845260808601915060808160051b870101935082870160005b8281101561528b57607f19888703018452615279868351613a83565b9550928401929084019060010161525d565b50939998505050505050505050565b6000806000606084860312156152af57600080fd5b6152b88461470c565b92506020808501516152c9816140c7565b604086015190935067ffffffffffffffff8111156152e657600080fd5b8501601f810187136152f757600080fd5b8051615305614241826141b0565b81815260059190911b8201830190838101908983111561532457600080fd5b928401925b8284101561534b57835161533c816140c7565b82529284019290840190615329565b80955050505050509250925092565b6000806040838503121561536d57600080fd5b6153768361470c565b91506149646020840161470c565b60006001600160a01b038086168352808516602084015250606060408301526107e2606083018461500456fe4661696c656420746f20617070726f76652046756e6769626c6520746f6b656e2e4661696c656420746f20636865636b20667265657a6520737461747573206f66206163636f756e742e4661696c656420746f207472616e736665722046756e6769626c6520746f6b656e2e4661696c656420746f20726574726965766520746f6b656e20696e666f20616674657220756e70617573652e4661696c656420746f20726574726965766520746f6b656e20696e666f20616674657220776970652e4661696c656420746f20636865636b20756e667265657a6520737461747573206f66206163636f756e742e4661696c656420746f20726574726965766520746f6b656e20696e666f206265666f7265206275726e2e4661696c656420746f20726574726965766520746f6b656e20696e666f206265666f726520776970652e4661696c656420746f2067657420746f6b656e20696e666f2061667465722070617573652e4661696c656420746f20667265657a6520746f6b656e20666f7220746865206163636f756e742ea2646970667358221220b08903710723c50ad6fd3da6a81afe2791886e23ed4d57f388e6287e23df895564736f6c63430008090033",
  "linkReferences": {},
  "deployedLinkReferences": {}
}