{
  "_format": "hh-sol-artifact-1",
  "contractName": "PrecompileTestContract",
  "sourceName": "contracts/PrecompileTestContract.sol",
  "abi": [
    {
      "anonymous": false,
      "inputs": [
        {
          "indexed": false,
          "internalType": "bool",
          "name": "",
          "type": "bool"
        },
        {
          "indexed": false,
          "internalType": "bytes",
          "name": "",
          "type": "bytes"
        }
      ],
      "name": "CallResponseEvent",
      "type": "event"
    },
    {
      "inputs": [
        {
          "internalType": "address",
          "name": "token",
          "type": "address"
        }
      ],
      "name": "getCustomFeesForToken",
      "outputs": [
        {
          "components": [
            {
              "internalType": "int64",
              "name": "amount",
              "type": "int64"
            },
            {
              "internalType": "address",
              "name": "tokenId",
              "type": "address"
            },
            {
              "internalType": "bool",
              "name": "useHbarsForPayment",
              "type": "bool"
            },
            {
              "internalType": "bool",
              "name": "useCurrentTokenForPayment",
              "type": "bool"
            },
            {
              "internalType": "address",
              "name": "feeCollector",
              "type": "address"
            }
          ],
          "internalType": "struct IHederaTokenService.FixedFee[]",
          "name": "fixedFees",
          "type": "tuple[]"
        },
        {
          "components": [
            {
              "internalType": "int64",
              "name": "numerator",
              "type": "int64"
            },
            {
              "internalType": "int64",
              "name": "denominator",
              "type": "int64"
            },
            {
              "internalType": "int64",
              "name": "minimumAmount",
              "type": "int64"
            },
            {
              "internalType": "int64",
              "name": "maximumAmount",
              "type": "int64"
            },
            {
              "internalType": "bool",
              "name": "netOfTransfers",
              "type": "bool"
            },
            {
              "internalType": "address",
              "name": "feeCollector",
              "type": "address"
            }
          ],
          "internalType": "struct IHederaTokenService.FractionalFee[]",
          "name": "fractionalFees",
          "type": "tuple[]"
        },
        {
          "components": [
            {
              "internalType": "int64",
              "name": "numerator",
              "type": "int64"
            },
            {
              "internalType": "int64",
              "name": "denominator",
              "type": "int64"
            },
            {
              "internalType": "int64",
              "name": "amount",
              "type": "int64"
            },
            {
              "internalType": "address",
              "name": "tokenId",
              "type": "address"
            },
            {
              "internalType": "bool",
              "name": "useHbarsForPayment",
              "type": "bool"
            },
            {
              "internalType": "address",
              "name": "feeCollector",
              "type": "address"
            }
          ],
          "internalType": "struct IHederaTokenService.RoyaltyFee[]",
          "name": "royaltyFees",
          "type": "tuple[]"
        }
      ],
      "stateMutability": "nonpayable",
      "type": "function"
    },
    {
      "inputs": [
        {
          "internalType": "address",
          "name": "token",
          "type": "address"
        }
      ],
      "name": "getExpiryInfoForToken",
      "outputs": [
        {
          "components": [
            {
              "internalType": "int64",
              "name": "second",
              "type": "int64"
            },
            {
              "internalType": "address",
              "name": "autoRenewAccount",
              "type": "address"
            },
            {
              "internalType": "int64",
              "name": "autoRenewPeriod",
              "type": "int64"
            }
          ],
          "internalType": "struct IHederaTokenService.Expiry",
          "name": "expiry",
          "type": "tuple"
        }
      ],
      "stateMutability": "nonpayable",
      "type": "function"
    },
    {
      "inputs": [
        {
          "internalType": "address",
          "name": "token",
          "type": "address"
        }
      ],
      "name": "getInformationForFungibleToken",
      "outputs": [
        {
          "components": [
            {
              "components": [
                {
                  "components": [
                    {
                      "internalType": "string",
                      "name": "name",
                      "type": "string"
                    },
                    {
                      "internalType": "string",
                      "name": "symbol",
                      "type": "string"
                    },
                    {
                      "internalType": "address",
                      "name": "treasury",
                      "type": "address"
                    },
                    {
                      "internalType": "string",
                      "name": "memo",
                      "type": "string"
                    },
                    {
                      "internalType": "bool",
                      "name": "tokenSupplyType",
                      "type": "bool"
                    },
                    {
                      "internalType": "int64",
                      "name": "maxSupply",
                      "type": "int64"
                    },
                    {
                      "internalType": "bool",
                      "name": "freezeDefault",
                      "type": "bool"
                    },
                    {
                      "components": [
                        {
                          "internalType": "uint256",
                          "name": "keyType",
                          "type": "uint256"
                        },
                        {
                          "components": [
                            {
                              "internalType": "bool",
                              "name": "inheritAccountKey",
                              "type": "bool"
                            },
                            {
                              "internalType": "address",
                              "name": "contractId",
                              "type": "address"
                            },
                            {
                              "internalType": "bytes",
                              "name": "ed25519",
                              "type": "bytes"
                            },
                            {
                              "internalType": "bytes",
                              "name": "ECDSA_secp256k1",
                              "type": "bytes"
                            },
                            {
                              "internalType": "address",
                              "name": "delegatableContractId",
                              "type": "address"
                            }
                          ],
                          "internalType": "struct IHederaTokenService.KeyValue",
                          "name": "key",
                          "type": "tuple"
                        }
                      ],
                      "internalType": "struct IHederaTokenService.TokenKey[]",
                      "name": "tokenKeys",
                      "type": "tuple[]"
                    },
                    {
                      "components": [
                        {
                          "internalType": "int64",
                          "name": "second",
                          "type": "int64"
                        },
                        {
                          "internalType": "address",
                          "name": "autoRenewAccount",
                          "type": "address"
                        },
                        {
                          "internalType": "int64",
                          "name": "autoRenewPeriod",
                          "type": "int64"
                        }
                      ],
                      "internalType": "struct IHederaTokenService.Expiry",
                      "name": "expiry",
                      "type": "tuple"
                    }
                  ],
                  "internalType": "struct IHederaTokenService.HederaToken",
                  "name": "token",
                  "type": "tuple"
                },
                {
                  "internalType": "int64",
                  "name": "totalSupply",
                  "type": "int64"
                },
                {
                  "internalType": "bool",
                  "name": "deleted",
                  "type": "bool"
                },
                {
                  "internalType": "bool",
                  "name": "defaultKycStatus",
                  "type": "bool"
                },
                {
                  "internalType": "bool",
                  "name": "pauseStatus",
                  "type": "bool"
                },
                {
                  "components": [
                    {
                      "internalType": "int64",
                      "name": "amount",
                      "type": "int64"
                    },
                    {
                      "internalType": "address",
                      "name": "tokenId",
                      "type": "address"
                    },
                    {
                      "internalType": "bool",
                      "name": "useHbarsForPayment",
                      "type": "bool"
                    },
                    {
                      "internalType": "bool",
                      "name": "useCurrentTokenForPayment",
                      "type": "bool"
                    },
                    {
                      "internalType": "address",
                      "name": "feeCollector",
                      "type": "address"
                    }
                  ],
                  "internalType": "struct IHederaTokenService.FixedFee[]",
                  "name": "fixedFees",
                  "type": "tuple[]"
                },
                {
                  "components": [
                    {
                      "internalType": "int64",
                      "name": "numerator",
                      "type": "int64"
                    },
                    {
                      "internalType": "int64",
                      "name": "denominator",
                      "type": "int64"
                    },
                    {
                      "internalType": "int64",
                      "name": "minimumAmount",
                      "type": "int64"
                    },
                    {
                      "internalType": "int64",
                      "name": "maximumAmount",
                      "type": "int64"
                    },
                    {
                      "internalType": "bool",
                      "name": "netOfTransfers",
                      "type": "bool"
                    },
                    {
                      "internalType": "address",
                      "name": "feeCollector",
                      "type": "address"
                    }
                  ],
                  "internalType": "struct IHederaTokenService.FractionalFee[]",
                  "name": "fractionalFees",
                  "type": "tuple[]"
                },
                {
                  "components": [
                    {
                      "internalType": "int64",
                      "name": "numerator",
                      "type": "int64"
                    },
                    {
                      "internalType": "int64",
                      "name": "denominator",
                      "type": "int64"
                    },
                    {
                      "internalType": "int64",
                      "name": "amount",
                      "type": "int64"
                    },
                    {
                      "internalType": "address",
                      "name": "tokenId",
                      "type": "address"
                    },
                    {
                      "internalType": "bool",
                      "name": "useHbarsForPayment",
                      "type": "bool"
                    },
                    {
                      "internalType": "address",
                      "name": "feeCollector",
                      "type": "address"
                    }
                  ],
                  "internalType": "struct IHederaTokenService.RoyaltyFee[]",
                  "name": "royaltyFees",
                  "type": "tuple[]"
                },
                {
                  "internalType": "string",
                  "name": "ledgerId",
                  "type": "string"
                }
              ],
              "internalType": "struct IHederaTokenService.TokenInfo",
              "name": "tokenInfo",
              "type": "tuple"
            },
            {
              "internalType": "int32",
              "name": "decimals",
              "type": "int32"
            }
          ],
          "internalType": "struct IHederaTokenService.FungibleTokenInfo",
          "name": "fungibleTokenInfo",
          "type": "tuple"
        }
      ],
      "stateMutability": "nonpayable",
      "type": "function"
    },
    {
      "inputs": [
        {
          "internalType": "address",
          "name": "token",
          "type": "address"
        },
        {
          "internalType": "int64",
          "name": "serialNumber",
          "type": "int64"
        }
      ],
      "name": "getInformationForNonFungibleToken",
      "outputs": [
        {
          "components": [
            {
              "components": [
                {
                  "components": [
                    {
                      "internalType": "string",
                      "name": "name",
                      "type": "string"
                    },
                    {
                      "internalType": "string",
                      "name": "symbol",
                      "type": "string"
                    },
                    {
                      "internalType": "address",
                      "name": "treasury",
                      "type": "address"
                    },
                    {
                      "internalType": "string",
                      "name": "memo",
                      "type": "string"
                    },
                    {
                      "internalType": "bool",
                      "name": "tokenSupplyType",
                      "type": "bool"
                    },
                    {
                      "internalType": "int64",
                      "name": "maxSupply",
                      "type": "int64"
                    },
                    {
                      "internalType": "bool",
                      "name": "freezeDefault",
                      "type": "bool"
                    },
                    {
                      "components": [
                        {
                          "internalType": "uint256",
                          "name": "keyType",
                          "type": "uint256"
                        },
                        {
                          "components": [
                            {
                              "internalType": "bool",
                              "name": "inheritAccountKey",
                              "type": "bool"
                            },
                            {
                              "internalType": "address",
                              "name": "contractId",
                              "type": "address"
                            },
                            {
                              "internalType": "bytes",
                              "name": "ed25519",
                              "type": "bytes"
                            },
                            {
                              "internalType": "bytes",
                              "name": "ECDSA_secp256k1",
                              "type": "bytes"
                            },
                            {
                              "internalType": "address",
                              "name": "delegatableContractId",
                              "type": "address"
                            }
                          ],
                          "internalType": "struct IHederaTokenService.KeyValue",
                          "name": "key",
                          "type": "tuple"
                        }
                      ],
                      "internalType": "struct IHederaTokenService.TokenKey[]",
                      "name": "tokenKeys",
                      "type": "tuple[]"
                    },
                    {
                      "components": [
                        {
                          "internalType": "int64",
                          "name": "second",
                          "type": "int64"
                        },
                        {
                          "internalType": "address",
                          "name": "autoRenewAccount",
                          "type": "address"
                        },
                        {
                          "internalType": "int64",
                          "name": "autoRenewPeriod",
                          "type": "int64"
                        }
                      ],
                      "internalType": "struct IHederaTokenService.Expiry",
                      "name": "expiry",
                      "type": "tuple"
                    }
                  ],
                  "internalType": "struct IHederaTokenService.HederaToken",
                  "name": "token",
                  "type": "tuple"
                },
                {
                  "internalType": "int64",
                  "name": "totalSupply",
                  "type": "int64"
                },
                {
                  "internalType": "bool",
                  "name": "deleted",
                  "type": "bool"
                },
                {
                  "internalType": "bool",
                  "name": "defaultKycStatus",
                  "type": "bool"
                },
                {
                  "internalType": "bool",
                  "name": "pauseStatus",
                  "type": "bool"
                },
                {
                  "components": [
                    {
                      "internalType": "int64",
                      "name": "amount",
                      "type": "int64"
                    },
                    {
                      "internalType": "address",
                      "name": "tokenId",
                      "type": "address"
                    },
                    {
                      "internalType": "bool",
                      "name": "useHbarsForPayment",
                      "type": "bool"
                    },
                    {
                      "internalType": "bool",
                      "name": "useCurrentTokenForPayment",
                      "type": "bool"
                    },
                    {
                      "internalType": "address",
                      "name": "feeCollector",
                      "type": "address"
                    }
                  ],
                  "internalType": "struct IHederaTokenService.FixedFee[]",
                  "name": "fixedFees",
                  "type": "tuple[]"
                },
                {
                  "components": [
                    {
                      "internalType": "int64",
                      "name": "numerator",
                      "type": "int64"
                    },
                    {
                      "internalType": "int64",
                      "name": "denominator",
                      "type": "int64"
                    },
                    {
                      "internalType": "int64",
                      "name": "minimumAmount",
                      "type": "int64"
                    },
                    {
                      "internalType": "int64",
                      "name": "maximumAmount",
                      "type": "int64"
                    },
                    {
                      "internalType": "bool",
                      "name": "netOfTransfers",
                      "type": "bool"
                    },
                    {
                      "internalType": "address",
                      "name": "feeCollector",
                      "type": "address"
                    }
                  ],
                  "internalType": "struct IHederaTokenService.FractionalFee[]",
                  "name": "fractionalFees",
                  "type": "tuple[]"
                },
                {
                  "components": [
                    {
                      "internalType": "int64",
                      "name": "numerator",
                      "type": "int64"
                    },
                    {
                      "internalType": "int64",
                      "name": "denominator",
                      "type": "int64"
                    },
                    {
                      "internalType": "int64",
                      "name": "amount",
                      "type": "int64"
                    },
                    {
                      "internalType": "address",
                      "name": "tokenId",
                      "type": "address"
                    },
                    {
                      "internalType": "bool",
                      "name": "useHbarsForPayment",
                      "type": "bool"
                    },
                    {
                      "internalType": "address",
                      "name": "feeCollector",
                      "type": "address"
                    }
                  ],
                  "internalType": "struct IHederaTokenService.RoyaltyFee[]",
                  "name": "royaltyFees",
                  "type": "tuple[]"
                },
                {
                  "internalType": "string",
                  "name": "ledgerId",
                  "type": "string"
                }
              ],
              "internalType": "struct IHederaTokenService.TokenInfo",
              "name": "tokenInfo",
              "type": "tuple"
            },
            {
              "internalType": "int64",
              "name": "serialNumber",
              "type": "int64"
            },
            {
              "internalType": "address",
              "name": "ownerId",
              "type": "address"
            },
            {
              "internalType": "int64",
              "name": "creationTime",
              "type": "int64"
            },
            {
              "internalType": "bytes",
              "name": "metadata",
              "type": "bytes"
            },
            {
              "internalType": "address",
              "name": "spenderId",
              "type": "address"
            }
          ],
          "internalType": "struct IHederaTokenService.NonFungibleTokenInfo",
          "name": "nonFungibleTokenInfo",
          "type": "tuple"
        }
      ],
      "stateMutability": "nonpayable",
      "type": "function"
    },
    {
      "inputs": [
        {
          "internalType": "address",
          "name": "token",
          "type": "address"
        }
      ],
      "name": "getInformationForToken",
      "outputs": [
        {
          "components": [
            {
              "components": [
                {
                  "internalType": "string",
                  "name": "name",
                  "type": "string"
                },
                {
                  "internalType": "string",
                  "name": "symbol",
                  "type": "string"
                },
                {
                  "internalType": "address",
                  "name": "treasury",
                  "type": "address"
                },
                {
                  "internalType": "string",
                  "name": "memo",
                  "type": "string"
                },
                {
                  "internalType": "bool",
                  "name": "tokenSupplyType",
                  "type": "bool"
                },
                {
                  "internalType": "int64",
                  "name": "maxSupply",
                  "type": "int64"
                },
                {
                  "internalType": "bool",
                  "name": "freezeDefault",
                  "type": "bool"
                },
                {
                  "components": [
                    {
                      "internalType": "uint256",
                      "name": "keyType",
                      "type": "uint256"
                    },
                    {
                      "components": [
                        {
                          "internalType": "bool",
                          "name": "inheritAccountKey",
                          "type": "bool"
                        },
                        {
                          "internalType": "address",
                          "name": "contractId",
                          "type": "address"
                        },
                        {
                          "internalType": "bytes",
                          "name": "ed25519",
                          "type": "bytes"
                        },
                        {
                          "internalType": "bytes",
                          "name": "ECDSA_secp256k1",
                          "type": "bytes"
                        },
                        {
                          "internalType": "address",
                          "name": "delegatableContractId",
                          "type": "address"
                        }
                      ],
                      "internalType": "struct IHederaTokenService.KeyValue",
                      "name": "key",
                      "type": "tuple"
                    }
                  ],
                  "internalType": "struct IHederaTokenService.TokenKey[]",
                  "name": "tokenKeys",
                  "type": "tuple[]"
                },
                {
                  "components": [
                    {
                      "internalType": "int64",
                      "name": "second",
                      "type": "int64"
                    },
                    {
                      "internalType": "address",
                      "name": "autoRenewAccount",
                      "type": "address"
                    },
                    {
                      "internalType": "int64",
                      "name": "autoRenewPeriod",
                      "type": "int64"
                    }
                  ],
                  "internalType": "struct IHederaTokenService.Expiry",
                  "name": "expiry",
                  "type": "tuple"
                }
              ],
              "internalType": "struct IHederaTokenService.HederaToken",
              "name": "token",
              "type": "tuple"
            },
            {
              "internalType": "int64",
              "name": "totalSupply",
              "type": "int64"
            },
            {
              "internalType": "bool",
              "name": "deleted",
              "type": "bool"
            },
            {
              "internalType": "bool",
              "name": "defaultKycStatus",
              "type": "bool"
            },
            {
              "internalType": "bool",
              "name": "pauseStatus",
              "type": "bool"
            },
            {
              "components": [
                {
                  "internalType": "int64",
                  "name": "amount",
                  "type": "int64"
                },
                {
                  "internalType": "address",
                  "name": "tokenId",
                  "type": "address"
                },
                {
                  "internalType": "bool",
                  "name": "useHbarsForPayment",
                  "type": "bool"
                },
                {
                  "internalType": "bool",
                  "name": "useCurrentTokenForPayment",
                  "type": "bool"
                },
                {
                  "internalType": "address",
                  "name": "feeCollector",
                  "type": "address"
                }
              ],
              "internalType": "struct IHederaTokenService.FixedFee[]",
              "name": "fixedFees",
              "type": "tuple[]"
            },
            {
              "components": [
                {
                  "internalType": "int64",
                  "name": "numerator",
                  "type": "int64"
                },
                {
                  "internalType": "int64",
                  "name": "denominator",
                  "type": "int64"
                },
                {
                  "internalType": "int64",
                  "name": "minimumAmount",
                  "type": "int64"
                },
                {
                  "internalType": "int64",
                  "name": "maximumAmount",
                  "type": "int64"
                },
                {
                  "internalType": "bool",
                  "name": "netOfTransfers",
                  "type": "bool"
                },
                {
                  "internalType": "address",
                  "name": "feeCollector",
                  "type": "address"
                }
              ],
              "internalType": "struct IHederaTokenService.FractionalFee[]",
              "name": "fractionalFees",
              "type": "tuple[]"
            },
            {
              "components": [
                {
                  "internalType": "int64",
                  "name": "numerator",
                  "type": "int64"
                },
                {
                  "internalType": "int64",
                  "name": "denominator",
                  "type": "int64"
                },
                {
                  "internalType": "int64",
                  "name": "amount",
                  "type": "int64"
                },
                {
                  "internalType": "address",
                  "name": "tokenId",
                  "type": "address"
                },
                {
                  "internalType": "bool",
                  "name": "useHbarsForPayment",
                  "type": "bool"
                },
                {
                  "internalType": "address",
                  "name": "feeCollector",
                  "type": "address"
                }
              ],
              "internalType": "struct IHederaTokenService.RoyaltyFee[]",
              "name": "royaltyFees",
              "type": "tuple[]"
            },
            {
              "internalType": "string",
              "name": "ledgerId",
              "type": "string"
            }
          ],
          "internalType": "struct IHederaTokenService.TokenInfo",
          "name": "tokenInfo",
          "type": "tuple"
        }
      ],
      "stateMutability": "nonpayable",
      "type": "function"
    },
    {
      "inputs": [
        {
          "internalType": "address",
          "name": "token",
          "type": "address"
        }
      ],
      "name": "getTokenDefaultFreeze",
      "outputs": [
        {
          "internalType": "bool",
          "name": "",
          "type": "bool"
        }
      ],
      "stateMutability": "nonpayable",
      "type": "function"
    },
    {
      "inputs": [
        {
          "internalType": "address",
          "name": "token",
          "type": "address"
        }
      ],
      "name": "getTokenDefaultKyc",
      "outputs": [
        {
          "internalType": "bool",
          "name": "",
          "type": "bool"
        }
      ],
      "stateMutability": "nonpayable",
      "type": "function"
    },
    {
      "inputs": [
        {
          "internalType": "address",
          "name": "token",
          "type": "address"
        },
        {
          "internalType": "uint256",
          "name": "keyType",
          "type": "uint256"
        }
      ],
      "name": "getTokenKeyPublic",
      "outputs": [
        {
          "components": [
            {
              "internalType": "bool",
              "name": "inheritAccountKey",
              "type": "bool"
            },
            {
              "internalType": "address",
              "name": "contractId",
              "type": "address"
            },
            {
              "internalType": "bytes",
              "name": "ed25519",
              "type": "bytes"
            },
            {
              "internalType": "bytes",
              "name": "ECDSA_secp256k1",
              "type": "bytes"
            },
            {
              "internalType": "address",
              "name": "delegatableContractId",
              "type": "address"
            }
          ],
          "internalType": "struct IHederaTokenService.KeyValue",
          "name": "",
          "type": "tuple"
        }
      ],
      "stateMutability": "nonpayable",
      "type": "function"
    },
    {
      "inputs": [
        {
          "internalType": "address",
          "name": "token",
          "type": "address"
        }
      ],
      "name": "getType",
      "outputs": [
        {
          "internalType": "int256",
          "name": "",
          "type": "int256"
        }
      ],
      "stateMutability": "nonpayable",
      "type": "function"
    },
    {
      "inputs": [
        {
          "internalType": "address",
          "name": "token",
          "type": "address"
        },
        {
          "internalType": "address",
          "name": "account",
          "type": "address"
        }
      ],
      "name": "isKycGranted",
      "outputs": [
        {
          "internalType": "bool",
          "name": "",
          "type": "bool"
        }
      ],
      "stateMutability": "nonpayable",
      "type": "function"
    },
    {
      "inputs": [
        {
          "internalType": "address",
          "name": "token",
          "type": "address"
        }
      ],
      "name": "isTokenAddress",
      "outputs": [
        {
          "internalType": "bool",
          "name": "",
          "type": "bool"
        }
      ],
      "stateMutability": "nonpayable",
      "type": "function"
    },
    {
      "inputs": [
        {
          "internalType": "address",
          "name": "token",
          "type": "address"
        },
        {
          "internalType": "address",
          "name": "account",
          "type": "address"
        }
      ],
      "name": "isTokenFrozen",
      "outputs": [
        {
          "internalType": "bool",
          "name": "",
          "type": "bool"
        }
      ],
      "stateMutability": "nonpayable",
      "type": "function"
    },
    {
      "inputs": [
        {
          "internalType": "address",
          "name": "token",
          "type": "address"
        },
        {
          "internalType": "bytes",
          "name": "encodedFunctionSelector",
          "type": "bytes"
        }
      ],
      "name": "redirectForToken",
      "outputs": [
        {
          "internalType": "int64",
          "name": "responseCode",
          "type": "int64"
        },
        {
          "internalType": "bytes",
          "name": "response",
          "type": "bytes"
        }
      ],
      "stateMutability": "nonpayable",
      "type": "function"
    },
    {
      "inputs": [
        {
          "internalType": "address",
          "name": "token",
          "type": "address"
        },
        {
          "internalType": "address",
          "name": "from",
          "type": "address"
        },
        {
          "internalType": "address",
          "name": "to",
          "type": "address"
        },
        {
          "internalType": "uint256",
          "name": "amount",
          "type": "uint256"
        }
      ],
      "name": "transferFrom",
      "outputs": [
        {
          "internalType": "int64",
          "name": "responseCode",
          "type": "int64"
        }
      ],
      "stateMutability": "nonpayable",
      "type": "function"
    },
    {
      "inputs": [
        {
          "internalType": "address",
          "name": "token",
          "type": "address"
        },
        {
          "internalType": "address",
          "name": "from",
          "type": "address"
        },
        {
          "internalType": "address",
          "name": "to",
          "type": "address"
        },
        {
          "internalType": "uint256",
          "name": "serialNumber",
          "type": "uint256"
        }
      ],
      "name": "transferFromNFT",
      "outputs": [
        {
          "internalType": "int64",
          "name": "responseCode",
          "type": "int64"
        }
      ],
      "stateMutability": "nonpayable",
      "type": "function"
    }
  ],
  "bytecode": "0x608060405234801561001057600080fd5b50612843806100206000396000f3fe608060405234801561001057600080fd5b50600436106100f55760003560e01c806359c16f5a11610097578063bc2fb00e11610066578063bc2fb00e14610251578063bff9834f14610264578063f429f19b14610277578063fd4d1c261461029857600080fd5b806359c16f5a146101dd578063618dc65e146101fd5780638e5e79961461021e5780639b23d3d91461023e57600080fd5b8063319a8723116100d3578063319a87231461016557806335589a131461018857806344f38bc8146101a8578063565ca6fa146101ca57600080fd5b806315dacbea146100fa5780631955de0b146101255780631de8edad14610145575b600080fd5b61010d61010836600461141d565b6102ab565b60405160079190910b81526020015b60405180910390f35b61013861013336600461146e565b6103b8565b60405161011c9190611561565b610158610153366004611574565b61042c565b60405161011c9190611591565b610178610173366004611574565b61046c565b604051901515815260200161011c565b61019b610196366004611574565b6104fa565b60405161011c919061197c565b6101bb6101b6366004611574565b61050e565b60405161011c9392919061198f565b6101786101d83660046119c8565b610540565b6101f06101eb366004611574565b6105a9565b60405161011c9190611a01565b61021061020b366004611b51565b6105bd565b60405161011c929190611be4565b61023161022c366004611c17565b6106eb565b60405161011c9190611c45565b61010d61024c36600461141d565b610712565b61017861025f3660046119c8565b610770565b610178610272366004611574565b6107d9565b61028a610285366004611574565b610841565b60405190815260200161011c565b6101786102a6366004611574565b6108ac565b6040516001600160a01b0385811660248301528481166044830152831660648201526084810182905260009081908190610167907f15dacbea000000000000000000000000000000000000000000000000000000009060a4015b60408051601f198184030181529181526020820180516001600160e01b03166001600160e01b03199094169390931790925290516103439190611cc9565b6000604051808303816000865af19150503d8060008114610380576040519150601f19603f3d011682016040523d82523d6000602084013e610385565b606091505b5091509150816103965760156103aa565b808060200190518101906103aa9190611cfc565b60030b979650505050505050565b6103fe6040518060a0016040528060001515815260200160006001600160a01b03168152602001606081526020016060815260200160006001600160a01b031681525090565b60008061040b858561090f565b915060070b9150601660030b821461042257600080fd5b9150505b92915050565b60408051606081018252600080825260208201819052918101829052908061045384610a6c565b90925090506016821461046557600080fd5b9392505050565b600080600061047a84610b7d565b9092509050601682146104655760405162461bcd60e51b815260206004820152602360248201527f676574546f6b656e44656661756c74467265657a65537461747573206661696c60448201527f656421000000000000000000000000000000000000000000000000000000000060648201526084015b60405180910390fd5b6105026112f3565b60008061045384610c7a565b6060806060600061051e85610d63565b919650945092509050600781900b60161461053857600080fd5b509193909250565b600080600061054f8585610e63565b915060070b9150601660030b82146104225760405162461bcd60e51b815260206004820152601660248201527f546f6b656e20697346726f7a656e206661696c6564210000000000000000000060448201526064016104f1565b6105b16113aa565b60008061045384610f57565b600060606000806101676001600160a01b031663618dc65e60e01b87876040516024016105eb929190611d17565b60408051601f198184030181529181526020820180516001600160e01b03166001600160e01b03199094169390931790925290516106299190611cc9565b6000604051808303816000865af19150503d8060008114610666576040519150601f19603f3d011682016040523d82523d6000602084013e61066b565b606091505b50915091507f4af4780e06fe8cb9df64b0794fa6f01399af979175bb988e35e0e57e594567bc82826040516106a1929190611d39565b60405180910390a1816106c5576015604051806020016040528060008152506106d9565b808060200190518101906106d99190611d99565b60039190910b97909650945050505050565b6106f36113ca565b6000806107008585611040565b90925090506016821461042257600080fd5b6040516001600160a01b0385811660248301528481166044830152831660648201526084810182905260009081908190610167907f9b23d3d9000000000000000000000000000000000000000000000000000000009060a401610305565b600080600061077f8585611133565b915060070b9150601660030b82146104225760405162461bcd60e51b815260206004820152601360248201527f546f6b656e2069734b7963206661696c6564210000000000000000000000000060448201526064016104f1565b60008060006107e784611184565b915060070b9150601660030b82146104655760405162461bcd60e51b815260206004820152601c60248201527f546f6b656e206973546f6b656e41646472657373206661696c6564210000000060448201526064016104f1565b600080600061084f846111cd565b60030b915060070b9150601660030b82146104655760405162461bcd60e51b815260206004820152601c60248201527f546f6b656e20747970652061707072616973616c206661696c6564210000000060448201526064016104f1565b60008060006108ba846112aa565b9092509050601682146104655760405162461bcd60e51b815260206004820181905260248201527f676574546f6b656e44656661756c744b7963537461747573206661696c65642160448201526064016104f1565b6040805160a081018252600080825260208083018290526060838501819052808401526080830182905283516001600160a01b03871660248201526044808201879052855180830390910181526064909101855290810180516001600160e01b03167f3c4dd32e000000000000000000000000000000000000000000000000000000001790529251909283918291610167916109ab9190611cc9565b6000604051808303816000865af19150503d80600081146109e8576040519150601f19603f3d011682016040523d82523d6000602084013e6109ed565b606091505b5091509150610a386040518060a0016040528060001515815260200160006001600160a01b03168152602001606081526020016060815260200160006001600160a01b031681525090565b82610a4557601581610a59565b81806020019051810190610a599190611ea8565b60039190910b9890975095505050505050565b604080516060810182526000808252602080830182905282840182905283516001600160a01b038616602480830191909152855180830390910181526044909101855290810180516001600160e01b03167fd614cdb800000000000000000000000000000000000000000000000000000000179052925190928391829161016791610af79190611cc9565b6000604051808303816000865af19150503d8060008114610b34576040519150601f19603f3d011682016040523d82523d6000602084013e610b39565b606091505b506040805160608101825260008082526020820181905291810191909152919350915082610b69576015816106d9565b818060200190518101906106d99190611f6f565b6040516001600160a01b0382166024820152600090819081908190610167907fa7daa18d00000000000000000000000000000000000000000000000000000000906044015b60408051601f198184030181529181526020820180516001600160e01b03166001600160e01b0319909416939093179092529051610c009190611cc9565b6000604051808303816000865af19150503d8060008114610c3d576040519150601f19603f3d011682016040523d82523d6000602084013e610c42565b606091505b509150915081610c555760156000610c69565b80806020019051810190610c699190611fa3565b60039190910b969095509350505050565b6000610c846112f3565b604080516001600160a01b03851660248083019190915282518083039091018152604490910182526020810180516001600160e01b03167f1f69565f000000000000000000000000000000000000000000000000000000001790529051600091829161016791610cf391611cc9565b6000604051808303816000865af19150503d8060008114610d30576040519150601f19603f3d011682016040523d82523d6000602084013e610d35565b606091505b5091509150610d426112f3565b82610d4f576015816106d9565b818060200190518101906106d99190612577565b604080516001600160a01b03831660248083019190915282518083039091018152604490910182526020810180516001600160e01b03167fae7611a0000000000000000000000000000000000000000000000000000000001790529051600091606091829182918591829161016791610ddb91611cc9565b6000604051808303816000865af19150503d8060008114610e18576040519150601f19603f3d011682016040523d82523d6000602084013e610e1d565b606091505b5091509150606080606084610e36576015838383610e4a565b83806020019051810190610e4a91906125bb565b60039390930b9d919c509a509098509650505050505050565b6040516001600160a01b03838116602483015282166044820152600090819081908190610167907f46de0fb100000000000000000000000000000000000000000000000000000000906064015b60408051601f198184030181529181526020820180516001600160e01b03166001600160e01b0319909416939093179092529051610eee9190611cc9565b6000604051808303816000865af19150503d8060008114610f2b576040519150601f19603f3d011682016040523d82523d6000602084013e610f30565b606091505b509150915081610f4357601560006106d9565b808060200190518101906106d99190611fa3565b6000610f616113aa565b604080516001600160a01b03851660248083019190915282518083039091018152604490910182526020810180516001600160e01b03167f3f28a19b000000000000000000000000000000000000000000000000000000001790529051600091829161016791610fd091611cc9565b6000604051808303816000865af19150503d806000811461100d576040519150601f19603f3d011682016040523d82523d6000602084013e611012565b606091505b509150915061101f6113aa565b8261102c576015816106d9565b818060200190518101906106d99190612654565b600061104a6113ca565b604080516001600160a01b0386166024820152600785900b60448083019190915282518083039091018152606490910182526020810180516001600160e01b03167f287e1da80000000000000000000000000000000000000000000000000000000017905290516000918291610167916110c391611cc9565b6000604051808303816000865af19150503d8060008114611100576040519150601f19603f3d011682016040523d82523d6000602084013e611105565b606091505b50915091506111126113ca565b8261111f57601581610a59565b81806020019051810190610a5991906126fb565b6040516001600160a01b03838116602483015282166044820152600090819081908190610167907ff2c31ff40000000000000000000000000000000000000000000000000000000090606401610eb0565b6040516001600160a01b0382166024820152600090819081908190610167907f19f373610000000000000000000000000000000000000000000000000000000090604401610bc2565b604080516001600160a01b03831660248083019190915282518083039091018152604490910182526020810180516001600160e01b03167f93272baf0000000000000000000000000000000000000000000000000000000017905290516000918291829182916101679161124091611cc9565b6000604051808303816000865af19150503d806000811461127d576040519150601f19603f3d011682016040523d82523d6000602084013e611282565b606091505b509150915081611296576015600019610c69565b80806020019051810190610c6991906127e3565b6040516001600160a01b0382166024820152600090819081908190610167907f335e04c10000000000000000000000000000000000000000000000000000000090604401610bc2565b60408051610240810182526060610120820181815261014083018290526000610160840181905261018084018390526101a084018190526101c084018190526101e0840181905261020084018390528451928301855280835260208301819052938201939093526102208201529081908152602001600060070b8152602001600015158152602001600015158152602001600015158152602001606081526020016060815260200160608152602001606081525090565b60405180604001604052806113bd6112f3565b8152600060209091015290565b6040518060c001604052806113dd6112f3565b8152600060208201819052604082018190526060808301829052608083015260a09091015290565b6001600160a01b038116811461141a57600080fd5b50565b6000806000806080858703121561143357600080fd5b843561143e81611405565b9350602085013561144e81611405565b9250604085013561145e81611405565b9396929550929360600135925050565b6000806040838503121561148157600080fd5b823561148c81611405565b946020939093013593505050565b60005b838110156114b557818101518382015260200161149d565b838111156114c4576000848401525b50505050565b600081518084526114e281602086016020860161149a565b601f01601f19169290920160200192915050565b805115158252600060208201516001600160a01b0380821660208601526040840151915060a0604086015261152e60a08601836114ca565b91506060840151858303606087015261154783826114ca565b925050806080850151166080860152508091505092915050565b60208152600061046560208301846114f6565b60006020828403121561158657600080fd5b813561046581611405565b606081016104268284805160070b82526001600160a01b036020820151166020830152604081015160070b60408301525050565b600081518084526020808501808196508360051b8101915082860160005b85811015611621578284038952815180518552850151604086860181905261160d818701836114f6565b9a87019a95505050908401906001016115e3565b5091979650505050505050565b60006101608251818552611644828601826114ca565b9150506020830151848203602086015261165e82826114ca565b915050604083015161167b60408601826001600160a01b03169052565b506060830151848203606086015261169382826114ca565b91505060808301516116a9608086018215159052565b5060a08301516116be60a086018260070b9052565b5060c08301516116d260c086018215159052565b5060e083015184820360e08601526116ea82826115c5565b9150506101008084015161172682870182805160070b82526001600160a01b036020820151166020830152604081015160070b60408301525050565b5090949350505050565b600081518084526020808501945080840160005b8381101561179d578151805160070b8852838101516001600160a01b03908116858a01526040808301511515908a01526060808301511515908a0152608091820151169088015260a09096019590820190600101611744565b509495945050505050565b600081518084526020808501945080840160005b8381101561179d5781518051600790810b895284820151810b858a0152604080830151820b908a015260608083015190910b9089015260808082015115159089015260a0908101516001600160a01b03169088015260c090960195908201906001016117bc565b600081518084526020808501945080840160005b8381101561179d5781518051600790810b895284820151810b858a015260408083015190910b908901526060808201516001600160a01b03908116918a01919091526080808301511515908a015260a091820151169088015260c09096019590820190600101611837565b600061012082518185526118b88286018261162e565b91505060208301516118cf602086018260070b9052565b5060408301516118e3604086018215159052565b5060608301516118f7606086018215159052565b50608083015161190b608086018215159052565b5060a083015184820360a08601526119238282611730565b91505060c083015184820360c086015261193d82826117a8565b91505060e083015184820360e08601526119578282611823565b915050610100808401518583038287015261197283826114ca565b9695505050505050565b60208152600061046560208301846118a2565b6060815260006119a26060830186611730565b82810360208401526119b481866117a8565b905082810360408401526119728185611823565b600080604083850312156119db57600080fd5b82356119e681611405565b915060208301356119f681611405565b809150509250929050565b602081526000825160406020840152611a1d60608401826118a2565b9050602084015160030b60408401528091505092915050565b7f4e487b7100000000000000000000000000000000000000000000000000000000600052604160045260246000fd5b60405160a0810167ffffffffffffffff81118282101715611a8857611a88611a36565b60405290565b6040805190810167ffffffffffffffff81118282101715611a8857611a88611a36565b604051610120810167ffffffffffffffff81118282101715611a8857611a88611a36565b60405160c0810167ffffffffffffffff81118282101715611a8857611a88611a36565b604051601f8201601f1916810167ffffffffffffffff81118282101715611b2157611b21611a36565b604052919050565b600067ffffffffffffffff821115611b4357611b43611a36565b50601f01601f191660200190565b60008060408385031215611b6457600080fd5b8235611b6f81611405565b9150602083013567ffffffffffffffff811115611b8b57600080fd5b8301601f81018513611b9c57600080fd5b8035611baf611baa82611b29565b611af8565b818152866020838501011115611bc457600080fd5b816020840160208301376000602083830101528093505050509250929050565b8260070b8152604060208201526000611c0060408301846114ca565b949350505050565b8060070b811461141a57600080fd5b60008060408385031215611c2a57600080fd5b8235611c3581611405565b915060208301356119f681611c08565b602081526000825160c06020840152611c6160e08401826118a2565b9050602084015160070b604084015260408401516001600160a01b038082166060860152606086015160070b608086015260808601519150601f198584030160a0860152611caf83836114ca565b92508060a08701511660c086015250508091505092915050565b60008251611cdb81846020870161149a565b9190910192915050565b8051600381900b8114611cf757600080fd5b919050565b600060208284031215611d0e57600080fd5b61046582611ce5565b6001600160a01b0383168152604060208201526000611c0060408301846114ca565b8215158152604060208201526000611c0060408301846114ca565b600082601f830112611d6557600080fd5b8151611d73611baa82611b29565b818152846020838601011115611d8857600080fd5b61042282602083016020870161149a565b60008060408385031215611dac57600080fd5b611db583611ce5565b9150602083015167ffffffffffffffff811115611dd157600080fd5b611ddd85828601611d54565b9150509250929050565b80518015158114611cf757600080fd5b8051611cf781611405565b600060a08284031215611e1457600080fd5b611e1c611a65565b9050611e2782611de7565b81526020820151611e3781611405565b6020820152604082015167ffffffffffffffff80821115611e5757600080fd5b611e6385838601611d54565b60408401526060840151915080821115611e7c57600080fd5b50611e8984828501611d54565b6060830152506080820151611e9d81611405565b608082015292915050565b60008060408385031215611ebb57600080fd5b611ec483611ce5565b9150602083015167ffffffffffffffff811115611ee057600080fd5b611ddd85828601611e02565b8051611cf781611c08565b600060608284031215611f0957600080fd5b6040516060810181811067ffffffffffffffff82111715611f2c57611f2c611a36565b80604052508091508251611f3f81611c08565b81526020830151611f4f81611405565b60208201526040830151611f6281611c08565b6040919091015292915050565b60008060808385031215611f8257600080fd5b611f8b83611ce5565b9150611f9a8460208501611ef7565b90509250929050565b60008060408385031215611fb657600080fd5b611fbf83611ce5565b9150611f9a60208401611de7565b600067ffffffffffffffff821115611fe757611fe7611a36565b5060051b60200190565b600082601f83011261200257600080fd5b81516020612012611baa83611fcd565b82815260059290921b8401810191818101908684111561203157600080fd5b8286015b848110156120b357805167ffffffffffffffff808211156120565760008081fd5b908801906040828b03601f19018113156120705760008081fd5b612078611a8e565b8388015181529083015190828211156120915760008081fd5b61209f8c8984870101611e02565b818901528652505050918301918301612035565b509695505050505050565b600061016082840312156120d157600080fd5b6120d9611ab1565b9050815167ffffffffffffffff808211156120f357600080fd5b6120ff85838601611d54565b8352602084015191508082111561211557600080fd5b61212185838601611d54565b602084015261213260408501611df7565b6040840152606084015191508082111561214b57600080fd5b61215785838601611d54565b606084015261216860808501611de7565b608084015261217960a08501611eec565b60a084015261218a60c08501611de7565b60c084015260e08401519150808211156121a357600080fd5b506121b084828501611ff1565b60e0830152506101006121c584828501611ef7565b9082015292915050565b600082601f8301126121e057600080fd5b815160206121f0611baa83611fcd565b82815260a0928302850182019282820191908785111561220f57600080fd5b8387015b858110156122935781818a03121561222b5760008081fd5b612233611a65565b815161223e81611c08565b81528186015161224d81611405565b81870152604061225e838201611de7565b90820152606061226f838201611de7565b9082015260808281015161228281611405565b908201528452928401928101612213565b5090979650505050505050565b600082601f8301126122b157600080fd5b815160206122c1611baa83611fcd565b82815260c092830285018201928282019190878511156122e057600080fd5b8387015b858110156122935781818a0312156122fc5760008081fd5b612304611ad5565b815161230f81611c08565b81528186015161231e81611c08565b8187015260408281015161233181611c08565b9082015260608281015161234481611c08565b908201526080612355838201611de7565b9082015260a08281015161236881611405565b9082015284529284019281016122e4565b600082601f83011261238a57600080fd5b8151602061239a611baa83611fcd565b82815260c092830285018201928282019190878511156123b957600080fd5b8387015b858110156122935781818a0312156123d55760008081fd5b6123dd611ad5565b81516123e881611c08565b8152818601516123f781611c08565b8187015260408281015161240a81611c08565b9082015260608281015161241d81611405565b90820152608061242e838201611de7565b9082015260a08281015161244181611405565b9082015284529284019281016123bd565b6000610120828403121561246557600080fd5b61246d611ab1565b9050815167ffffffffffffffff8082111561248757600080fd5b612493858386016120be565b83526124a160208501611eec565b60208401526124b260408501611de7565b60408401526124c360608501611de7565b60608401526124d460808501611de7565b608084015260a08401519150808211156124ed57600080fd5b6124f9858386016121cf565b60a084015260c084015191508082111561251257600080fd5b61251e858386016122a0565b60c084015260e084015191508082111561253757600080fd5b61254385838601612379565b60e08401526101009150818401518181111561255e57600080fd5b61256a86828701611d54565b8385015250505092915050565b6000806040838503121561258a57600080fd5b61259383611ce5565b9150602083015167ffffffffffffffff8111156125af57600080fd5b611ddd85828601612452565b600080600080608085870312156125d157600080fd5b6125da85611ce5565b9350602085015167ffffffffffffffff808211156125f757600080fd5b612603888389016121cf565b9450604087015191508082111561261957600080fd5b612625888389016122a0565b9350606087015191508082111561263b57600080fd5b5061264887828801612379565b91505092959194509250565b6000806040838503121561266757600080fd5b61267083611ce5565b9150602083015167ffffffffffffffff8082111561268d57600080fd5b90840190604082870312156126a157600080fd5b6040516040810181811083821117156126bc576126bc611a36565b6040528251828111156126ce57600080fd5b6126da88828601612452565b8252506126e960208401611ce5565b60208201528093505050509250929050565b6000806040838503121561270e57600080fd5b61271783611ce5565b9150602083015167ffffffffffffffff8082111561273457600080fd5b9084019060c0828703121561274857600080fd5b612750611ad5565b82518281111561275f57600080fd5b61276b88828601612452565b82525061277a60208401611eec565b602082015261278b60408401611df7565b604082015261279c60608401611eec565b60608201526080830151828111156127b357600080fd5b6127bf88828601611d54565b6080830152506127d160a08401611df7565b60a08201528093505050509250929050565b600080604083850312156127f657600080fd5b6127ff83611ce5565b9150611f9a60208401611ce556fea26469706673582212201a267dbe78a8fee05a7578b996ab5001ee7acec2f9a6bd0e2e09e6ac7a7ad97164736f6c63430008090033",
  "linkReferences": {},
  "deployedLinkReferences": {}
}