{
  "_format": "hh-sol-artifact-1",
  "contractName": "PrecompileTestContract",
  "sourceName": "contracts/PrecompileTestContract.sol",
  "abi": [
    {
      "anonymous": false,
      "inputs": [
        {
          "indexed": false,
          "internalType": "bool",
          "name": "",
          "type": "bool"
        },
        {
          "indexed": false,
          "internalType": "bytes",
          "name": "",
          "type": "bytes"
        }
      ],
      "name": "CallResponseEvent",
      "type": "event"
    },
    {
      "inputs": [
        {
          "internalType": "address",
          "name": "token",
          "type": "address"
        },
        {
          "internalType": "address",
          "name": "owner",
          "type": "address"
        },
        {
          "internalType": "address",
          "name": "spender",
          "type": "address"
        }
      ],
      "name": "allowanceRedirect",
      "outputs": [
        {
          "internalType": "bytes",
          "name": "result",
          "type": "bytes"
        }
      ],
      "stateMutability": "nonpayable",
      "type": "function"
    },
    {
      "inputs": [
        {
          "internalType": "address",
          "name": "token",
          "type": "address"
        },
        {
          "internalType": "address",
          "name": "spender",
          "type": "address"
        },
        {
          "internalType": "uint256",
          "name": "amount",
          "type": "uint256"
        }
      ],
      "name": "approveRedirect",
      "outputs": [
        {
          "internalType": "bytes",
          "name": "result",
          "type": "bytes"
        }
      ],
      "stateMutability": "nonpayable",
      "type": "function"
    },
    {
      "inputs": [
        {
          "internalType": "address",
          "name": "token",
          "type": "address"
        },
        {
          "internalType": "address",
          "name": "account",
          "type": "address"
        }
      ],
      "name": "balanceOfRedirect",
      "outputs": [
        {
          "internalType": "bytes",
          "name": "result",
          "type": "bytes"
        }
      ],
      "stateMutability": "nonpayable",
      "type": "function"
    },
    {
      "inputs": [
        {
          "internalType": "address",
          "name": "token",
          "type": "address"
        },
        {
          "internalType": "int64",
          "name": "amount",
          "type": "int64"
        },
        {
          "internalType": "int64[]",
          "name": "serialNumbers",
          "type": "int64[]"
        },
        {
          "internalType": "address",
          "name": "treasury",
          "type": "address"
        }
      ],
      "name": "burnTokenGetTotalSupplyAndBalanceOfTreasury",
      "outputs": [
        {
          "internalType": "uint256",
          "name": "",
          "type": "uint256"
        },
        {
          "internalType": "uint256",
          "name": "",
          "type": "uint256"
        },
        {
          "internalType": "int256",
          "name": "",
          "type": "int256"
        },
        {
          "internalType": "int256",
          "name": "",
          "type": "int256"
        }
      ],
      "stateMutability": "nonpayable",
      "type": "function"
    },
    {
      "inputs": [
        {
          "internalType": "address",
          "name": "token",
          "type": "address"
        }
      ],
      "name": "decimalsRedirect",
      "outputs": [
        {
          "internalType": "bytes",
          "name": "result",
          "type": "bytes"
        }
      ],
      "stateMutability": "nonpayable",
      "type": "function"
    },
    {
      "inputs": [
        {
          "internalType": "address",
          "name": "token",
          "type": "address"
        },
        {
          "internalType": "uint256",
          "name": "tokenId",
          "type": "uint256"
        }
      ],
      "name": "getApprovedRedirect",
      "outputs": [
        {
          "internalType": "bytes",
          "name": "result",
          "type": "bytes"
        }
      ],
      "stateMutability": "nonpayable",
      "type": "function"
    },
    {
      "inputs": [
        {
          "internalType": "address",
          "name": "token",
          "type": "address"
        }
      ],
      "name": "getCustomFeesForToken",
      "outputs": [
        {
          "components": [
            {
              "internalType": "int64",
              "name": "amount",
              "type": "int64"
            },
            {
              "internalType": "address",
              "name": "tokenId",
              "type": "address"
            },
            {
              "internalType": "bool",
              "name": "useHbarsForPayment",
              "type": "bool"
            },
            {
              "internalType": "bool",
              "name": "useCurrentTokenForPayment",
              "type": "bool"
            },
            {
              "internalType": "address",
              "name": "feeCollector",
              "type": "address"
            }
          ],
          "internalType": "struct IHederaTokenService.FixedFee[]",
          "name": "fixedFees",
          "type": "tuple[]"
        },
        {
          "components": [
            {
              "internalType": "int64",
              "name": "numerator",
              "type": "int64"
            },
            {
              "internalType": "int64",
              "name": "denominator",
              "type": "int64"
            },
            {
              "internalType": "int64",
              "name": "minimumAmount",
              "type": "int64"
            },
            {
              "internalType": "int64",
              "name": "maximumAmount",
              "type": "int64"
            },
            {
              "internalType": "bool",
              "name": "netOfTransfers",
              "type": "bool"
            },
            {
              "internalType": "address",
              "name": "feeCollector",
              "type": "address"
            }
          ],
          "internalType": "struct IHederaTokenService.FractionalFee[]",
          "name": "fractionalFees",
          "type": "tuple[]"
        },
        {
          "components": [
            {
              "internalType": "int64",
              "name": "numerator",
              "type": "int64"
            },
            {
              "internalType": "int64",
              "name": "denominator",
              "type": "int64"
            },
            {
              "internalType": "int64",
              "name": "amount",
              "type": "int64"
            },
            {
              "internalType": "address",
              "name": "tokenId",
              "type": "address"
            },
            {
              "internalType": "bool",
              "name": "useHbarsForPayment",
              "type": "bool"
            },
            {
              "internalType": "address",
              "name": "feeCollector",
              "type": "address"
            }
          ],
          "internalType": "struct IHederaTokenService.RoyaltyFee[]",
          "name": "royaltyFees",
          "type": "tuple[]"
        }
      ],
      "stateMutability": "nonpayable",
      "type": "function"
    },
    {
      "inputs": [
        {
          "internalType": "address",
          "name": "token",
          "type": "address"
        }
      ],
      "name": "getExpiryInfoForToken",
      "outputs": [
        {
          "components": [
            {
              "internalType": "int64",
              "name": "second",
              "type": "int64"
            },
            {
              "internalType": "address",
              "name": "autoRenewAccount",
              "type": "address"
            },
            {
              "internalType": "int64",
              "name": "autoRenewPeriod",
              "type": "int64"
            }
          ],
          "internalType": "struct IHederaTokenService.Expiry",
          "name": "expiry",
          "type": "tuple"
        }
      ],
      "stateMutability": "nonpayable",
      "type": "function"
    },
    {
      "inputs": [
        {
          "internalType": "address",
          "name": "token",
          "type": "address"
        }
      ],
      "name": "getInformationForFungibleToken",
      "outputs": [
        {
          "components": [
            {
              "components": [
                {
                  "components": [
                    {
                      "internalType": "string",
                      "name": "name",
                      "type": "string"
                    },
                    {
                      "internalType": "string",
                      "name": "symbol",
                      "type": "string"
                    },
                    {
                      "internalType": "address",
                      "name": "treasury",
                      "type": "address"
                    },
                    {
                      "internalType": "string",
                      "name": "memo",
                      "type": "string"
                    },
                    {
                      "internalType": "bool",
                      "name": "tokenSupplyType",
                      "type": "bool"
                    },
                    {
                      "internalType": "int64",
                      "name": "maxSupply",
                      "type": "int64"
                    },
                    {
                      "internalType": "bool",
                      "name": "freezeDefault",
                      "type": "bool"
                    },
                    {
                      "components": [
                        {
                          "internalType": "uint256",
                          "name": "keyType",
                          "type": "uint256"
                        },
                        {
                          "components": [
                            {
                              "internalType": "bool",
                              "name": "inheritAccountKey",
                              "type": "bool"
                            },
                            {
                              "internalType": "address",
                              "name": "contractId",
                              "type": "address"
                            },
                            {
                              "internalType": "bytes",
                              "name": "ed25519",
                              "type": "bytes"
                            },
                            {
                              "internalType": "bytes",
                              "name": "ECDSA_secp256k1",
                              "type": "bytes"
                            },
                            {
                              "internalType": "address",
                              "name": "delegatableContractId",
                              "type": "address"
                            }
                          ],
                          "internalType": "struct IHederaTokenService.KeyValue",
                          "name": "key",
                          "type": "tuple"
                        }
                      ],
                      "internalType": "struct IHederaTokenService.TokenKey[]",
                      "name": "tokenKeys",
                      "type": "tuple[]"
                    },
                    {
                      "components": [
                        {
                          "internalType": "int64",
                          "name": "second",
                          "type": "int64"
                        },
                        {
                          "internalType": "address",
                          "name": "autoRenewAccount",
                          "type": "address"
                        },
                        {
                          "internalType": "int64",
                          "name": "autoRenewPeriod",
                          "type": "int64"
                        }
                      ],
                      "internalType": "struct IHederaTokenService.Expiry",
                      "name": "expiry",
                      "type": "tuple"
                    }
                  ],
                  "internalType": "struct IHederaTokenService.HederaToken",
                  "name": "token",
                  "type": "tuple"
                },
                {
                  "internalType": "int64",
                  "name": "totalSupply",
                  "type": "int64"
                },
                {
                  "internalType": "bool",
                  "name": "deleted",
                  "type": "bool"
                },
                {
                  "internalType": "bool",
                  "name": "defaultKycStatus",
                  "type": "bool"
                },
                {
                  "internalType": "bool",
                  "name": "pauseStatus",
                  "type": "bool"
                },
                {
                  "components": [
                    {
                      "internalType": "int64",
                      "name": "amount",
                      "type": "int64"
                    },
                    {
                      "internalType": "address",
                      "name": "tokenId",
                      "type": "address"
                    },
                    {
                      "internalType": "bool",
                      "name": "useHbarsForPayment",
                      "type": "bool"
                    },
                    {
                      "internalType": "bool",
                      "name": "useCurrentTokenForPayment",
                      "type": "bool"
                    },
                    {
                      "internalType": "address",
                      "name": "feeCollector",
                      "type": "address"
                    }
                  ],
                  "internalType": "struct IHederaTokenService.FixedFee[]",
                  "name": "fixedFees",
                  "type": "tuple[]"
                },
                {
                  "components": [
                    {
                      "internalType": "int64",
                      "name": "numerator",
                      "type": "int64"
                    },
                    {
                      "internalType": "int64",
                      "name": "denominator",
                      "type": "int64"
                    },
                    {
                      "internalType": "int64",
                      "name": "minimumAmount",
                      "type": "int64"
                    },
                    {
                      "internalType": "int64",
                      "name": "maximumAmount",
                      "type": "int64"
                    },
                    {
                      "internalType": "bool",
                      "name": "netOfTransfers",
                      "type": "bool"
                    },
                    {
                      "internalType": "address",
                      "name": "feeCollector",
                      "type": "address"
                    }
                  ],
                  "internalType": "struct IHederaTokenService.FractionalFee[]",
                  "name": "fractionalFees",
                  "type": "tuple[]"
                },
                {
                  "components": [
                    {
                      "internalType": "int64",
                      "name": "numerator",
                      "type": "int64"
                    },
                    {
                      "internalType": "int64",
                      "name": "denominator",
                      "type": "int64"
                    },
                    {
                      "internalType": "int64",
                      "name": "amount",
                      "type": "int64"
                    },
                    {
                      "internalType": "address",
                      "name": "tokenId",
                      "type": "address"
                    },
                    {
                      "internalType": "bool",
                      "name": "useHbarsForPayment",
                      "type": "bool"
                    },
                    {
                      "internalType": "address",
                      "name": "feeCollector",
                      "type": "address"
                    }
                  ],
                  "internalType": "struct IHederaTokenService.RoyaltyFee[]",
                  "name": "royaltyFees",
                  "type": "tuple[]"
                },
                {
                  "internalType": "string",
                  "name": "ledgerId",
                  "type": "string"
                }
              ],
              "internalType": "struct IHederaTokenService.TokenInfo",
              "name": "tokenInfo",
              "type": "tuple"
            },
            {
              "internalType": "int32",
              "name": "decimals",
              "type": "int32"
            }
          ],
          "internalType": "struct IHederaTokenService.FungibleTokenInfo",
          "name": "fungibleTokenInfo",
          "type": "tuple"
        }
      ],
      "stateMutability": "nonpayable",
      "type": "function"
    },
    {
      "inputs": [
        {
          "internalType": "address",
          "name": "token",
          "type": "address"
        },
        {
          "internalType": "int64",
          "name": "serialNumber",
          "type": "int64"
        }
      ],
      "name": "getInformationForNonFungibleToken",
      "outputs": [
        {
          "components": [
            {
              "components": [
                {
                  "components": [
                    {
                      "internalType": "string",
                      "name": "name",
                      "type": "string"
                    },
                    {
                      "internalType": "string",
                      "name": "symbol",
                      "type": "string"
                    },
                    {
                      "internalType": "address",
                      "name": "treasury",
                      "type": "address"
                    },
                    {
                      "internalType": "string",
                      "name": "memo",
                      "type": "string"
                    },
                    {
                      "internalType": "bool",
                      "name": "tokenSupplyType",
                      "type": "bool"
                    },
                    {
                      "internalType": "int64",
                      "name": "maxSupply",
                      "type": "int64"
                    },
                    {
                      "internalType": "bool",
                      "name": "freezeDefault",
                      "type": "bool"
                    },
                    {
                      "components": [
                        {
                          "internalType": "uint256",
                          "name": "keyType",
                          "type": "uint256"
                        },
                        {
                          "components": [
                            {
                              "internalType": "bool",
                              "name": "inheritAccountKey",
                              "type": "bool"
                            },
                            {
                              "internalType": "address",
                              "name": "contractId",
                              "type": "address"
                            },
                            {
                              "internalType": "bytes",
                              "name": "ed25519",
                              "type": "bytes"
                            },
                            {
                              "internalType": "bytes",
                              "name": "ECDSA_secp256k1",
                              "type": "bytes"
                            },
                            {
                              "internalType": "address",
                              "name": "delegatableContractId",
                              "type": "address"
                            }
                          ],
                          "internalType": "struct IHederaTokenService.KeyValue",
                          "name": "key",
                          "type": "tuple"
                        }
                      ],
                      "internalType": "struct IHederaTokenService.TokenKey[]",
                      "name": "tokenKeys",
                      "type": "tuple[]"
                    },
                    {
                      "components": [
                        {
                          "internalType": "int64",
                          "name": "second",
                          "type": "int64"
                        },
                        {
                          "internalType": "address",
                          "name": "autoRenewAccount",
                          "type": "address"
                        },
                        {
                          "internalType": "int64",
                          "name": "autoRenewPeriod",
                          "type": "int64"
                        }
                      ],
                      "internalType": "struct IHederaTokenService.Expiry",
                      "name": "expiry",
                      "type": "tuple"
                    }
                  ],
                  "internalType": "struct IHederaTokenService.HederaToken",
                  "name": "token",
                  "type": "tuple"
                },
                {
                  "internalType": "int64",
                  "name": "totalSupply",
                  "type": "int64"
                },
                {
                  "internalType": "bool",
                  "name": "deleted",
                  "type": "bool"
                },
                {
                  "internalType": "bool",
                  "name": "defaultKycStatus",
                  "type": "bool"
                },
                {
                  "internalType": "bool",
                  "name": "pauseStatus",
                  "type": "bool"
                },
                {
                  "components": [
                    {
                      "internalType": "int64",
                      "name": "amount",
                      "type": "int64"
                    },
                    {
                      "internalType": "address",
                      "name": "tokenId",
                      "type": "address"
                    },
                    {
                      "internalType": "bool",
                      "name": "useHbarsForPayment",
                      "type": "bool"
                    },
                    {
                      "internalType": "bool",
                      "name": "useCurrentTokenForPayment",
                      "type": "bool"
                    },
                    {
                      "internalType": "address",
                      "name": "feeCollector",
                      "type": "address"
                    }
                  ],
                  "internalType": "struct IHederaTokenService.FixedFee[]",
                  "name": "fixedFees",
                  "type": "tuple[]"
                },
                {
                  "components": [
                    {
                      "internalType": "int64",
                      "name": "numerator",
                      "type": "int64"
                    },
                    {
                      "internalType": "int64",
                      "name": "denominator",
                      "type": "int64"
                    },
                    {
                      "internalType": "int64",
                      "name": "minimumAmount",
                      "type": "int64"
                    },
                    {
                      "internalType": "int64",
                      "name": "maximumAmount",
                      "type": "int64"
                    },
                    {
                      "internalType": "bool",
                      "name": "netOfTransfers",
                      "type": "bool"
                    },
                    {
                      "internalType": "address",
                      "name": "feeCollector",
                      "type": "address"
                    }
                  ],
                  "internalType": "struct IHederaTokenService.FractionalFee[]",
                  "name": "fractionalFees",
                  "type": "tuple[]"
                },
                {
                  "components": [
                    {
                      "internalType": "int64",
                      "name": "numerator",
                      "type": "int64"
                    },
                    {
                      "internalType": "int64",
                      "name": "denominator",
                      "type": "int64"
                    },
                    {
                      "internalType": "int64",
                      "name": "amount",
                      "type": "int64"
                    },
                    {
                      "internalType": "address",
                      "name": "tokenId",
                      "type": "address"
                    },
                    {
                      "internalType": "bool",
                      "name": "useHbarsForPayment",
                      "type": "bool"
                    },
                    {
                      "internalType": "address",
                      "name": "feeCollector",
                      "type": "address"
                    }
                  ],
                  "internalType": "struct IHederaTokenService.RoyaltyFee[]",
                  "name": "royaltyFees",
                  "type": "tuple[]"
                },
                {
                  "internalType": "string",
                  "name": "ledgerId",
                  "type": "string"
                }
              ],
              "internalType": "struct IHederaTokenService.TokenInfo",
              "name": "tokenInfo",
              "type": "tuple"
            },
            {
              "internalType": "int64",
              "name": "serialNumber",
              "type": "int64"
            },
            {
              "internalType": "address",
              "name": "ownerId",
              "type": "address"
            },
            {
              "internalType": "int64",
              "name": "creationTime",
              "type": "int64"
            },
            {
              "internalType": "bytes",
              "name": "metadata",
              "type": "bytes"
            },
            {
              "internalType": "address",
              "name": "spenderId",
              "type": "address"
            }
          ],
          "internalType": "struct IHederaTokenService.NonFungibleTokenInfo",
          "name": "nonFungibleTokenInfo",
          "type": "tuple"
        }
      ],
      "stateMutability": "nonpayable",
      "type": "function"
    },
    {
      "inputs": [
        {
          "internalType": "address",
          "name": "token",
          "type": "address"
        }
      ],
      "name": "getInformationForToken",
      "outputs": [
        {
          "components": [
            {
              "components": [
                {
                  "internalType": "string",
                  "name": "name",
                  "type": "string"
                },
                {
                  "internalType": "string",
                  "name": "symbol",
                  "type": "string"
                },
                {
                  "internalType": "address",
                  "name": "treasury",
                  "type": "address"
                },
                {
                  "internalType": "string",
                  "name": "memo",
                  "type": "string"
                },
                {
                  "internalType": "bool",
                  "name": "tokenSupplyType",
                  "type": "bool"
                },
                {
                  "internalType": "int64",
                  "name": "maxSupply",
                  "type": "int64"
                },
                {
                  "internalType": "bool",
                  "name": "freezeDefault",
                  "type": "bool"
                },
                {
                  "components": [
                    {
                      "internalType": "uint256",
                      "name": "keyType",
                      "type": "uint256"
                    },
                    {
                      "components": [
                        {
                          "internalType": "bool",
                          "name": "inheritAccountKey",
                          "type": "bool"
                        },
                        {
                          "internalType": "address",
                          "name": "contractId",
                          "type": "address"
                        },
                        {
                          "internalType": "bytes",
                          "name": "ed25519",
                          "type": "bytes"
                        },
                        {
                          "internalType": "bytes",
                          "name": "ECDSA_secp256k1",
                          "type": "bytes"
                        },
                        {
                          "internalType": "address",
                          "name": "delegatableContractId",
                          "type": "address"
                        }
                      ],
                      "internalType": "struct IHederaTokenService.KeyValue",
                      "name": "key",
                      "type": "tuple"
                    }
                  ],
                  "internalType": "struct IHederaTokenService.TokenKey[]",
                  "name": "tokenKeys",
                  "type": "tuple[]"
                },
                {
                  "components": [
                    {
                      "internalType": "int64",
                      "name": "second",
                      "type": "int64"
                    },
                    {
                      "internalType": "address",
                      "name": "autoRenewAccount",
                      "type": "address"
                    },
                    {
                      "internalType": "int64",
                      "name": "autoRenewPeriod",
                      "type": "int64"
                    }
                  ],
                  "internalType": "struct IHederaTokenService.Expiry",
                  "name": "expiry",
                  "type": "tuple"
                }
              ],
              "internalType": "struct IHederaTokenService.HederaToken",
              "name": "token",
              "type": "tuple"
            },
            {
              "internalType": "int64",
              "name": "totalSupply",
              "type": "int64"
            },
            {
              "internalType": "bool",
              "name": "deleted",
              "type": "bool"
            },
            {
              "internalType": "bool",
              "name": "defaultKycStatus",
              "type": "bool"
            },
            {
              "internalType": "bool",
              "name": "pauseStatus",
              "type": "bool"
            },
            {
              "components": [
                {
                  "internalType": "int64",
                  "name": "amount",
                  "type": "int64"
                },
                {
                  "internalType": "address",
                  "name": "tokenId",
                  "type": "address"
                },
                {
                  "internalType": "bool",
                  "name": "useHbarsForPayment",
                  "type": "bool"
                },
                {
                  "internalType": "bool",
                  "name": "useCurrentTokenForPayment",
                  "type": "bool"
                },
                {
                  "internalType": "address",
                  "name": "feeCollector",
                  "type": "address"
                }
              ],
              "internalType": "struct IHederaTokenService.FixedFee[]",
              "name": "fixedFees",
              "type": "tuple[]"
            },
            {
              "components": [
                {
                  "internalType": "int64",
                  "name": "numerator",
                  "type": "int64"
                },
                {
                  "internalType": "int64",
                  "name": "denominator",
                  "type": "int64"
                },
                {
                  "internalType": "int64",
                  "name": "minimumAmount",
                  "type": "int64"
                },
                {
                  "internalType": "int64",
                  "name": "maximumAmount",
                  "type": "int64"
                },
                {
                  "internalType": "bool",
                  "name": "netOfTransfers",
                  "type": "bool"
                },
                {
                  "internalType": "address",
                  "name": "feeCollector",
                  "type": "address"
                }
              ],
              "internalType": "struct IHederaTokenService.FractionalFee[]",
              "name": "fractionalFees",
              "type": "tuple[]"
            },
            {
              "components": [
                {
                  "internalType": "int64",
                  "name": "numerator",
                  "type": "int64"
                },
                {
                  "internalType": "int64",
                  "name": "denominator",
                  "type": "int64"
                },
                {
                  "internalType": "int64",
                  "name": "amount",
                  "type": "int64"
                },
                {
                  "internalType": "address",
                  "name": "tokenId",
                  "type": "address"
                },
                {
                  "internalType": "bool",
                  "name": "useHbarsForPayment",
                  "type": "bool"
                },
                {
                  "internalType": "address",
                  "name": "feeCollector",
                  "type": "address"
                }
              ],
              "internalType": "struct IHederaTokenService.RoyaltyFee[]",
              "name": "royaltyFees",
              "type": "tuple[]"
            },
            {
              "internalType": "string",
              "name": "ledgerId",
              "type": "string"
            }
          ],
          "internalType": "struct IHederaTokenService.TokenInfo",
          "name": "tokenInfo",
          "type": "tuple"
        }
      ],
      "stateMutability": "nonpayable",
      "type": "function"
    },
    {
      "inputs": [
        {
          "internalType": "address",
          "name": "token",
          "type": "address"
        },
        {
          "internalType": "uint256",
          "name": "serialNo",
          "type": "uint256"
        }
      ],
      "name": "getOwnerOfRedirect",
      "outputs": [
        {
          "internalType": "bytes",
          "name": "result",
          "type": "bytes"
        }
      ],
      "stateMutability": "nonpayable",
      "type": "function"
    },
    {
      "inputs": [
        {
          "internalType": "address",
          "name": "token",
          "type": "address"
        }
      ],
      "name": "getTokenDefaultFreeze",
      "outputs": [
        {
          "internalType": "bool",
          "name": "",
          "type": "bool"
        }
      ],
      "stateMutability": "nonpayable",
      "type": "function"
    },
    {
      "inputs": [
        {
          "internalType": "address",
          "name": "token",
          "type": "address"
        }
      ],
      "name": "getTokenDefaultKyc",
      "outputs": [
        {
          "internalType": "bool",
          "name": "",
          "type": "bool"
        }
      ],
      "stateMutability": "nonpayable",
      "type": "function"
    },
    {
      "inputs": [
        {
          "internalType": "address",
          "name": "token",
          "type": "address"
        },
        {
          "internalType": "uint256",
          "name": "keyType",
          "type": "uint256"
        }
      ],
      "name": "getTokenKeyPublic",
      "outputs": [
        {
          "components": [
            {
              "internalType": "bool",
              "name": "inheritAccountKey",
              "type": "bool"
            },
            {
              "internalType": "address",
              "name": "contractId",
              "type": "address"
            },
            {
              "internalType": "bytes",
              "name": "ed25519",
              "type": "bytes"
            },
            {
              "internalType": "bytes",
              "name": "ECDSA_secp256k1",
              "type": "bytes"
            },
            {
              "internalType": "address",
              "name": "delegatableContractId",
              "type": "address"
            }
          ],
          "internalType": "struct IHederaTokenService.KeyValue",
          "name": "",
          "type": "tuple"
        }
      ],
      "stateMutability": "nonpayable",
      "type": "function"
    },
    {
      "inputs": [
        {
          "internalType": "address",
          "name": "token",
          "type": "address"
        }
      ],
      "name": "getType",
      "outputs": [
        {
          "internalType": "int256",
          "name": "",
          "type": "int256"
        }
      ],
      "stateMutability": "nonpayable",
      "type": "function"
    },
    {
      "inputs": [
        {
          "internalType": "address",
          "name": "token",
          "type": "address"
        },
        {
          "internalType": "address",
          "name": "owner",
          "type": "address"
        },
        {
          "internalType": "address",
          "name": "operator",
          "type": "address"
        }
      ],
      "name": "isApprovedForAllRedirect",
      "outputs": [
        {
          "internalType": "bytes",
          "name": "result",
          "type": "bytes"
        }
      ],
      "stateMutability": "nonpayable",
      "type": "function"
    },
    {
      "inputs": [
        {
          "internalType": "address",
          "name": "token",
          "type": "address"
        },
        {
          "internalType": "address",
          "name": "account",
          "type": "address"
        }
      ],
      "name": "isKycGranted",
      "outputs": [
        {
          "internalType": "bool",
          "name": "",
          "type": "bool"
        }
      ],
      "stateMutability": "nonpayable",
      "type": "function"
    },
    {
      "inputs": [
        {
          "internalType": "address",
          "name": "token",
          "type": "address"
        }
      ],
      "name": "isTokenAddress",
      "outputs": [
        {
          "internalType": "bool",
          "name": "",
          "type": "bool"
        }
      ],
      "stateMutability": "nonpayable",
      "type": "function"
    },
    {
      "inputs": [
        {
          "internalType": "address",
          "name": "token",
          "type": "address"
        },
        {
          "internalType": "address",
          "name": "account",
          "type": "address"
        }
      ],
      "name": "isTokenFrozen",
      "outputs": [
        {
          "internalType": "bool",
          "name": "",
          "type": "bool"
        }
      ],
      "stateMutability": "nonpayable",
      "type": "function"
    },
    {
      "inputs": [
        {
          "internalType": "address",
          "name": "token",
          "type": "address"
        },
        {
          "internalType": "int64",
          "name": "amount",
          "type": "int64"
        },
        {
          "internalType": "bytes[]",
          "name": "metadata",
          "type": "bytes[]"
        },
        {
          "internalType": "address",
          "name": "treasury",
          "type": "address"
        }
      ],
      "name": "mintTokenGetTotalSupplyAndBalanceOfTreasury",
      "outputs": [
        {
          "internalType": "uint256",
          "name": "",
          "type": "uint256"
        },
        {
          "internalType": "uint256",
          "name": "",
          "type": "uint256"
        },
        {
          "internalType": "int256",
          "name": "",
          "type": "int256"
        },
        {
          "internalType": "int256",
          "name": "",
          "type": "int256"
        }
      ],
      "stateMutability": "nonpayable",
      "type": "function"
    },
    {
      "inputs": [
        {
          "internalType": "address",
          "name": "token",
          "type": "address"
        }
      ],
      "name": "nameNFTRedirect",
      "outputs": [
        {
          "internalType": "bytes",
          "name": "result",
          "type": "bytes"
        }
      ],
      "stateMutability": "nonpayable",
      "type": "function"
    },
    {
      "inputs": [
        {
          "internalType": "address",
          "name": "token",
          "type": "address"
        }
      ],
      "name": "nameRedirect",
      "outputs": [
        {
          "internalType": "bytes",
          "name": "result",
          "type": "bytes"
        }
      ],
      "stateMutability": "nonpayable",
      "type": "function"
    },
    {
      "inputs": [
        {
          "internalType": "address",
          "name": "token",
          "type": "address"
        }
      ],
      "name": "pauseTokenGetPauseStatusUnpauseGetPauseStatus",
      "outputs": [
        {
          "internalType": "bool",
          "name": "",
          "type": "bool"
        },
        {
          "internalType": "bool",
          "name": "",
          "type": "bool"
        }
      ],
      "stateMutability": "nonpayable",
      "type": "function"
    },
    {
      "inputs": [
        {
          "internalType": "address",
          "name": "token",
          "type": "address"
        },
        {
          "internalType": "bytes",
          "name": "encodedFunctionSelector",
          "type": "bytes"
        }
      ],
      "name": "redirectForToken",
      "outputs": [
        {
          "internalType": "int256",
          "name": "responseCode",
          "type": "int256"
        },
        {
          "internalType": "bytes",
          "name": "response",
          "type": "bytes"
        }
      ],
      "stateMutability": "nonpayable",
      "type": "function"
    },
    {
      "inputs": [
        {
          "internalType": "address",
          "name": "token",
          "type": "address"
        },
        {
          "internalType": "address",
          "name": "operator",
          "type": "address"
        },
        {
          "internalType": "bool",
          "name": "approved",
          "type": "bool"
        }
      ],
      "name": "setApprovalForAllRedirect",
      "outputs": [
        {
          "internalType": "bytes",
          "name": "result",
          "type": "bytes"
        }
      ],
      "stateMutability": "nonpayable",
      "type": "function"
    },
    {
      "inputs": [
        {
          "internalType": "address",
          "name": "token",
          "type": "address"
        }
      ],
      "name": "symbolNFTRedirect",
      "outputs": [
        {
          "internalType": "bytes",
          "name": "result",
          "type": "bytes"
        }
      ],
      "stateMutability": "nonpayable",
      "type": "function"
    },
    {
      "inputs": [
        {
          "internalType": "address",
          "name": "token",
          "type": "address"
        }
      ],
      "name": "symbolRedirect",
      "outputs": [
        {
          "internalType": "bytes",
          "name": "result",
          "type": "bytes"
        }
      ],
      "stateMutability": "nonpayable",
      "type": "function"
    },
    {
      "inputs": [
        {
          "internalType": "address",
          "name": "token",
          "type": "address"
        },
        {
          "internalType": "uint256",
          "name": "tokenId",
          "type": "uint256"
        }
      ],
      "name": "tokenURIRedirect",
      "outputs": [
        {
          "internalType": "bytes",
          "name": "result",
          "type": "bytes"
        }
      ],
      "stateMutability": "nonpayable",
      "type": "function"
    },
    {
      "inputs": [
        {
          "internalType": "address",
          "name": "token",
          "type": "address"
        }
      ],
      "name": "totalSupplyRedirect",
      "outputs": [
        {
          "internalType": "bytes",
          "name": "result",
          "type": "bytes"
        }
      ],
      "stateMutability": "nonpayable",
      "type": "function"
    },
    {
      "inputs": [
        {
          "internalType": "address",
          "name": "token",
          "type": "address"
        },
        {
          "internalType": "address",
          "name": "from",
          "type": "address"
        },
        {
          "internalType": "address",
          "name": "to",
          "type": "address"
        },
        {
          "internalType": "uint256",
          "name": "amount",
          "type": "uint256"
        }
      ],
      "name": "transferFrom",
      "outputs": [
        {
          "internalType": "int64",
          "name": "responseCode",
          "type": "int64"
        }
      ],
      "stateMutability": "nonpayable",
      "type": "function"
    },
    {
      "inputs": [
        {
          "internalType": "address",
          "name": "token",
          "type": "address"
        },
        {
          "internalType": "address",
          "name": "from",
          "type": "address"
        },
        {
          "internalType": "address",
          "name": "to",
          "type": "address"
        },
        {
          "internalType": "uint256",
          "name": "serialNumber",
          "type": "uint256"
        }
      ],
      "name": "transferFromNFT",
      "outputs": [
        {
          "internalType": "int64",
          "name": "responseCode",
          "type": "int64"
        }
      ],
      "stateMutability": "nonpayable",
      "type": "function"
    },
    {
      "inputs": [
        {
          "internalType": "address",
          "name": "token",
          "type": "address"
        },
        {
          "internalType": "address",
          "name": "from",
          "type": "address"
        },
        {
          "internalType": "address",
          "name": "to",
          "type": "address"
        },
        {
          "internalType": "uint256",
          "name": "tokenId",
          "type": "uint256"
        }
      ],
      "name": "transferFromNFTRedirect",
      "outputs": [
        {
          "internalType": "bytes",
          "name": "result",
          "type": "bytes"
        }
      ],
      "stateMutability": "nonpayable",
      "type": "function"
    },
    {
      "inputs": [
        {
          "internalType": "address",
          "name": "token",
          "type": "address"
        },
        {
          "internalType": "address",
          "name": "sender",
          "type": "address"
        },
        {
          "internalType": "address",
          "name": "recipient",
          "type": "address"
        },
        {
          "internalType": "uint256",
          "name": "amount",
          "type": "uint256"
        }
      ],
      "name": "transferFromRedirect",
      "outputs": [
        {
          "internalType": "bytes",
          "name": "result",
          "type": "bytes"
        }
      ],
      "stateMutability": "nonpayable",
      "type": "function"
    },
    {
      "inputs": [
        {
          "internalType": "address",
          "name": "token",
          "type": "address"
        },
        {
          "internalType": "address",
          "name": "recipient",
          "type": "address"
        },
        {
          "internalType": "uint256",
          "name": "amount",
          "type": "uint256"
        }
      ],
      "name": "transferRedirect",
      "outputs": [
        {
          "internalType": "bytes",
          "name": "result",
          "type": "bytes"
        }
      ],
      "stateMutability": "nonpayable",
      "type": "function"
    },
    {
      "inputs": [
        {
          "internalType": "address",
          "name": "token",
          "type": "address"
        },
        {
          "internalType": "int64",
          "name": "amount",
          "type": "int64"
        },
        {
          "internalType": "int64[]",
          "name": "serialNumbers",
          "type": "int64[]"
        },
        {
          "internalType": "address",
          "name": "account",
          "type": "address"
        }
      ],
      "name": "wipeTokenGetTotalSupplyAndBalanceOfAccount",
      "outputs": [
        {
          "internalType": "uint256",
          "name": "",
          "type": "uint256"
        },
        {
          "internalType": "uint256",
          "name": "",
          "type": "uint256"
        },
        {
          "internalType": "int256",
          "name": "",
          "type": "int256"
        },
        {
          "internalType": "int256",
          "name": "",
          "type": "int256"
        }
      ],
      "stateMutability": "nonpayable",
      "type": "function"
    }
  ],
  "bytecode": "0x608060405234801561001057600080fd5b506145e8806100206000396000f3fe608060405234801561001057600080fd5b506004361061025c5760003560e01c806385dec08e11610145578063c0395467116100bd578063f1e3aea21161008c578063f68a81bb11610071578063f68a81bb14610577578063fa5c22241461058a578063fd4d1c261461059d57600080fd5b8063f1e3aea214610543578063f429f19b1461055657600080fd5b8063c039546714610494578063d3f67d27146104ba578063ebe1e5fb14610506578063efe60aeb1461051957600080fd5b80639b23d3d911610114578063b51f3cf5116100f9578063b51f3cf5146104cd578063bc2fb00e146104e0578063bff9834f146104f357600080fd5b80639b23d3d9146104a7578063b132f494146104ba57600080fd5b806385dec08e1461044e5780638e5e799614610461578063911ce42514610481578063971f5a0b1461049457600080fd5b80633717ec98116101d8578063565ca6fa116101a75780635b3914931161018c5780635b39149314610407578063618dc65e1461041a578063622488631461043b57600080fd5b8063565ca6fa146103d457806359c16f5a146103e757600080fd5b80633717ec981461036c5780633cc2322f1461036c57806344f38bc81461037f5780634dc21f9f146103a157600080fd5b806325004c1c1161022f578063319a872311610214578063319a8723146103165780633232fc9f1461033957806335589a131461034c57600080fd5b806325004c1c146102f05780632b2f5c661461030357600080fd5b8063045c5bfe1461026157806315dacbea1461028a5780631955de0b146102b05780631de8edad146102d0575b600080fd5b61027461026f366004612cf8565b6105b0565b6040516102819190612d9f565b60405180910390f35b61029d610298366004612db2565b6106b9565b60405160079190910b8152602001610281565b6102c36102be366004612e03565b6107c6565b6040516102819190612e9a565b6102e36102de366004612ead565b61083a565b6040516102819190612eca565b6102746102fe366004612efe565b61087a565b610274610311366004612ead565b610959565b610329610324366004612ead565b610a19565b6040519015158152602001610281565b610274610347366004612e03565b610aa7565b61035f61035a366004612ead565b610ad7565b60405161028191906132e4565b61027461037a366004612db2565b610aeb565b61039261038d366004612ead565b610bef565b604051610281939291906132f7565b6103b46103af366004613456565b610c21565b604080519485526020850193909352918301526060820152608001610281565b6103296103e2366004612efe565b610f5b565b6103fa6103f5366004612ead565b610fc4565b604051610281919061352d565b610274610415366004613562565b610fd8565b61042d61042836600461361b565b61102e565b60405161028192919061366b565b610274610449366004612e03565b61115c565b61027461045c366004612ead565b61118c565b61047461046f36600461368c565b6112a1565b60405161028191906136ba565b61027461048f36600461373e565b6112b6565b6102746104a2366004612ead565b61130b565b61029d6104b5366004612db2565b611375565b6102746104c8366004612ead565b6113d3565b6102746104db366004613562565b61143d565b6103296104ee366004612efe565b611493565b610329610501366004612ead565b6114fc565b6103b461051436600461377f565b611564565b61052c610527366004612ead565b611751565b604080519215158352901515602083015201610281565b61027461055136600461373e565b611932565b610569610564366004612ead565b611987565b604051908152602001610281565b6103b4610585366004613456565b6119f2565b610274610598366004612e03565b611cf6565b6103296105ab366004612ead565b611d26565b6040516001600160a01b038316602482015281151560448201526060906000908190309063618dc65e9088907fa22cb46500000000000000000000000000000000000000000000000000000000906064015b60408051601f198184030181529181526020820180516001600160e01b03166001600160e01b03199485161790525160e085901b9092168252610648929160040161385d565b600060405180830381600087803b15801561066257600080fd5b505af1158015610676573d6000803e3d6000fd5b505050506040513d6000823e601f3d908101601f1916820160405261069e91908101906138c4565b9092509050601682146106b057600080fd5b95945050505050565b6040516001600160a01b0385811660248301528481166044830152831660648201526084810182905260009081908190610167907f15dacbea000000000000000000000000000000000000000000000000000000009060a4015b60408051601f198184030181529181526020820180516001600160e01b03166001600160e01b03199094169390931790925290516107519190613901565b6000604051808303816000865af19150503d806000811461078e576040519150601f19603f3d011682016040523d82523d6000602084013e610793565b606091505b5091509150816107a45760156107b8565b808060200190518101906107b8919061392f565b60030b979650505050505050565b61080c6040518060a0016040528060001515815260200160006001600160a01b03168152602001606081526020016060815260200160006001600160a01b031681525090565b6000806108198585611d89565b915060070b9150601660030b821461083057600080fd5b9150505b92915050565b60408051606081018252600080825260208201819052918101829052908061086184611ee6565b90925090506016821461087357600080fd5b9392505050565b6040516001600160a01b03821660248201526060906000908190309063618dc65e9087906370a0823160e01b906044015b60408051601f198184030181529181526020820180516001600160e01b03166001600160e01b03199485161790525160e085901b90921682526108f1929160040161385d565b600060405180830381600087803b15801561090b57600080fd5b505af115801561091f573d6000803e3d6000fd5b505050506040513d6000823e601f3d908101601f1916820160405261094791908101906138c4565b90925090506016821461083057600080fd5b6040805160048082526024820183526020820180516001600160e01b03167f313ce5670000000000000000000000000000000000000000000000000000000017905291516330c6e32f60e11b81526060926000928392309263618dc65e926109c39289920161385d565b600060405180830381600087803b1580156109dd57600080fd5b505af11580156109f1573d6000803e3d6000fd5b505050506040513d6000823e601f3d908101601f1916820160405261086191908101906138c4565b6000806000610a2784611ff7565b9092509050601682146108735760405162461bcd60e51b815260206004820152602360248201527f676574546f6b656e44656661756c74467265657a65537461747573206661696c60448201527f656421000000000000000000000000000000000000000000000000000000000060648201526084015b60405180910390fd5b6060600080306001600160a01b031663618dc65e8663081812fc60e01b876040516024016108ab91815260200190565b610adf612bb0565b600080610861846120f4565b604080516001600160a01b03858116602483015284166044820152606480820184905282518083039091018152608490910182526020810180516001600160e01b03167f23b872dd0000000000000000000000000000000000000000000000000000000017905290516330c6e32f60e11b81526060916000918291309163618dc65e91610b7d918b919060040161385d565b600060405180830381600087803b158015610b9757600080fd5b505af1158015610bab573d6000803e3d6000fd5b505050506040513d6000823e601f3d908101601f19168201604052610bd391908101906138c4565b909250905060168214610be557600080fd5b9695505050505050565b60608060606000610bff856121dd565b919650945092509050600781900b601614610c1957600080fd5b509193909250565b60008060008060008060008060008b60070b138015610c3f57508951155b15610cc4576040516370a0823160e01b81526001600160a01b038a811660048301528d16906370a082319060240160206040518083038186803b158015610c8557600080fd5b505afa158015610c99573d6000803e3d6000fd5b505050506040513d601f19601f82011682018060405250810190610cbd919061394a565b9350610d40565b6040516370a0823160e01b81526001600160a01b038a811660048301528d16906370a082319060240160206040518083038186803b158015610d0557600080fd5b505afa158015610d19573d6000803e3d6000fd5b505050506040513d601f19601f82011682018060405250810190610d3d919061394a565b93505b600080610d4c8e6120f4565b909250905060168214610dc75760405162461bcd60e51b815260206004820152602960248201527f4661696c656420746f20726574726965766520746f6b656e20696e666f20626560448201527f666f7265206275726e00000000000000000000000000000000000000000000006064820152608401610a9e565b806020015160070b9350610ddc8e8e8e6122dd565b60070b9350915060168214610e335760405162461bcd60e51b815260206004820152601460248201527f4661696c656420746f206275726e20746f6b656e0000000000000000000000006044820152606401610a9e565b60008d60070b138015610e4557508b51155b15610ecb576040516370a0823160e01b81526001600160a01b038c811660048301528f16906370a08231906024015b60206040518083038186803b158015610e8c57600080fd5b505afa158015610ea0573d6000803e3d6000fd5b505050506040513d601f19601f82011682018060405250810190610ec4919061394a565b9450610f47565b6040516370a0823160e01b81526001600160a01b038c811660048301528f16906370a082319060240160206040518083038186803b158015610f0c57600080fd5b505afa158015610f20573d6000803e3d6000fd5b505050506040513d601f19601f82011682018060405250810190610f44919061394a565b94505b50939c929b50909950975095505050505050565b6000806000610f6a85856123b3565b915060070b9150601660030b82146108305760405162461bcd60e51b815260206004820152601660248201527f546f6b656e20697346726f7a656e206661696c656421000000000000000000006044820152606401610a9e565b610fcc612c67565b600080610861846124a7565b6040516001600160a01b038381166024830152821660448201526060906000908190309063618dc65e9088907fdd62ed3e0000000000000000000000000000000000000000000000000000000090606401610602565b600060606000806101676001600160a01b031663618dc65e60e01b878760405160240161105c92919061385d565b60408051601f198184030181529181526020820180516001600160e01b03166001600160e01b031990941693909317909252905161109a9190613901565b6000604051808303816000865af19150503d80600081146110d7576040519150601f19603f3d011682016040523d82523d6000602084013e6110dc565b606091505b50915091507f4af4780e06fe8cb9df64b0794fa6f01399af979175bb988e35e0e57e594567bc8282604051611112929190613963565b60405180910390a1816111365760156040518060200160405280600081525061114a565b8080602001905181019061114a919061397e565b60039190910b97909650945050505050565b6060600080306001600160a01b031663618dc65e86636352211e60e01b876040516024016108ab91815260200190565b6040805160048082526024820183526020820180516001600160e01b03167f18160ddd0000000000000000000000000000000000000000000000000000000017905291516330c6e32f60e11b81526060926000928392309263618dc65e926111f69289920161385d565b600060405180830381600087803b15801561121057600080fd5b505af1158015611224573d6000803e3d6000fd5b505050506040513d6000823e601f3d908101601f1916820160405261124c91908101906138c4565b9092509050601682146108735760405162461bcd60e51b815260206004820152601560248201527f546f6b656e207265646972656374206661696c656400000000000000000000006044820152606401610a9e565b6112a9612c87565b6000806109478585612590565b6040516001600160a01b0383166024820152604481018290526060906000908190309063618dc65e9088907f095ea7b30000000000000000000000000000000000000000000000000000000090606401610602565b6040805160048082526024820183526020820180516001600160e01b03167f06fdde030000000000000000000000000000000000000000000000000000000017905291516330c6e32f60e11b81526060926000928392309263618dc65e926109c39289920161385d565b6040516001600160a01b0385811660248301528481166044830152831660648201526084810182905260009081908190610167907f9b23d3d9000000000000000000000000000000000000000000000000000000009060a401610713565b6040805160048082526024820183526020820180516001600160e01b03167f95d89b410000000000000000000000000000000000000000000000000000000017905291516330c6e32f60e11b81526060926000928392309263618dc65e926109c39289920161385d565b6040516001600160a01b038381166024830152821660448201526060906000908190309063618dc65e9088907fe985e9c50000000000000000000000000000000000000000000000000000000090606401610602565b60008060006114a28585612683565b915060070b9150601660030b82146108305760405162461bcd60e51b815260206004820152601360248201527f546f6b656e2069734b7963206661696c656421000000000000000000000000006044820152606401610a9e565b600080600061150a846126d4565b915060070b9150601660030b82146108735760405162461bcd60e51b815260206004820152601c60248201527f546f6b656e206973546f6b656e41646472657373206661696c656421000000006044820152606401610a9e565b60008060008060008060008060008b60070b13801561158257508951155b15611607576040516370a0823160e01b81526001600160a01b038a811660048301528d16906370a082319060240160206040518083038186803b1580156115c857600080fd5b505afa1580156115dc573d6000803e3d6000fd5b505050506040513d601f19601f82011682018060405250810190611600919061394a565b9350611683565b6040516370a0823160e01b81526001600160a01b038a811660048301528d16906370a082319060240160206040518083038186803b15801561164857600080fd5b505afa15801561165c573d6000803e3d6000fd5b505050506040513d601f19601f82011682018060405250810190611680919061394a565b93505b60008061168f8e6120f4565b9092509050601682146116e45760405162461bcd60e51b815260206004820152601d60248201527f4661696c656420746f20726574726965766520746f6b656e20696e666f0000006044820152606401610a9e565b806020015160070b93506116f98e8e8e61271d565b5060070b9350915060168214610e335760405162461bcd60e51b815260206004820152601460248201527f4661696c656420746f206d696e7420746f6b656e0000000000000000000000006044820152606401610a9e565b60008060008060006117628661281b565b9050601681146117b45760405162461bcd60e51b815260206004820152601560248201527f4661696c656420746f20706175736520746f6b656e00000000000000000000006044820152606401610a9e565b6000806117c0886120f4565b90925090506016821461183a5760405162461bcd60e51b8152602060048201526024808201527f4661696c656420746f2067657420746f6b656e20696e666f206166746572207060448201527f61757365000000000000000000000000000000000000000000000000000000006064820152608401610a9e565b8060800151945061184a8861290e565b92506016831461189c5760405162461bcd60e51b815260206004820152601760248201527f4661696c656420746f20756e706175736520746f6b656e0000000000000000006044820152606401610a9e565b6118a5886120f4565b9092509050601682146119205760405162461bcd60e51b815260206004820152602b60248201527f4661696c656420746f20726574726965766520746f6b656e20696e666f20616660448201527f74657220756e70617573650000000000000000000000000000000000000000006064820152608401610a9e565b60800151939793965092945050505050565b6040516001600160a01b0383166024820152604481018290526060906000908190309063618dc65e9088907fa9059cbb0000000000000000000000000000000000000000000000000000000090606401610602565b600080600061199584612955565b60030b915060070b9150601660030b82146108735760405162461bcd60e51b815260206004820152601c60248201527f546f6b656e20747970652061707072616973616c206661696c656421000000006044820152606401610a9e565b60008080808080808060078b900b81128015611a0d57508951155b15611a92576040516370a0823160e01b81526001600160a01b038a811660048301528d16906370a082319060240160206040518083038186803b158015611a5357600080fd5b505afa158015611a67573d6000803e3d6000fd5b505050506040513d601f19601f82011682018060405250810190611a8b919061394a565b9350611b0e565b6040516370a0823160e01b81526001600160a01b038a811660048301528d16906370a082319060240160206040518083038186803b158015611ad357600080fd5b505afa158015611ae7573d6000803e3d6000fd5b505050506040513d601f19601f82011682018060405250810190611b0b919061394a565b93505b600080611b1a8e6120f4565b909250905060168214611b955760405162461bcd60e51b815260206004820152602960248201527f4661696c656420746f20726574726965766520746f6b656e20696e666f20626560448201527f666f7265207769706500000000000000000000000000000000000000000000006064820152608401610a9e565b806020015160070b935060008d60070b138015611bb157508b51155b15611bc857611bc18e8c8f612a32565b9150611bd6565b611bd38e8c8e612b39565b91505b60168214611c265760405162461bcd60e51b815260206004820152601460248201527f4661696c656420746f207769706520746f6b656e0000000000000000000000006044820152606401610a9e565b611c2f8e6120f4565b909250905060168214611caa5760405162461bcd60e51b815260206004820152602860248201527f4661696c656420746f20726574726965766520746f6b656e20696e666f20616660448201527f74657220776970650000000000000000000000000000000000000000000000006064820152608401610a9e565b806020015160070b925060008d60070b138015610e4557508b51610ecb576040516370a0823160e01b81526001600160a01b038c811660048301528f16906370a0823190602401610e74565b6060600080306001600160a01b031663618dc65e8663c87b56dd60e01b876040516024016108ab91815260200190565b6000806000611d3484612b67565b9092509050601682146108735760405162461bcd60e51b815260206004820181905260248201527f676574546f6b656e44656661756c744b7963537461747573206661696c6564216044820152606401610a9e565b6040805160a081018252600080825260208083018290526060838501819052808401526080830182905283516001600160a01b03871660248201526044808201879052855180830390910181526064909101855290810180516001600160e01b03167f3c4dd32e00000000000000000000000000000000000000000000000000000000179052925190928391829161016791611e259190613901565b6000604051808303816000865af19150503d8060008114611e62576040519150601f19603f3d011682016040523d82523d6000602084013e611e67565b606091505b5091509150611eb26040518060a0016040528060001515815260200160006001600160a01b03168152602001606081526020016060815260200160006001600160a01b031681525090565b82611ebf57601581611ed3565b81806020019051810190611ed39190613a74565b60039190910b9890975095505050505050565b604080516060810182526000808252602080830182905282840182905283516001600160a01b038616602480830191909152855180830390910181526044909101855290810180516001600160e01b03167fd614cdb800000000000000000000000000000000000000000000000000000000179052925190928391829161016791611f719190613901565b6000604051808303816000865af19150503d8060008114611fae576040519150601f19603f3d011682016040523d82523d6000602084013e611fb3565b606091505b506040805160608101825260008082526020820181905291810191909152919350915082611fe35760158161114a565b8180602001905181019061114a9190613b3b565b6040516001600160a01b0382166024820152600090819081908190610167907fa7daa18d00000000000000000000000000000000000000000000000000000000906044015b60408051601f198184030181529181526020820180516001600160e01b03166001600160e01b031990941693909317909252905161207a9190613901565b6000604051808303816000865af19150503d80600081146120b7576040519150601f19603f3d011682016040523d82523d6000602084013e6120bc565b606091505b5091509150816120cf57601560006120e3565b808060200190518101906120e39190613b6f565b60039190910b969095509350505050565b60006120fe612bb0565b604080516001600160a01b03851660248083019190915282518083039091018152604490910182526020810180516001600160e01b03167f1f69565f00000000000000000000000000000000000000000000000000000000179052905160009182916101679161216d91613901565b6000604051808303816000865af19150503d80600081146121aa576040519150601f19603f3d011682016040523d82523d6000602084013e6121af565b606091505b50915091506121bc612bb0565b826121c95760158161114a565b8180602001905181019061114a9190614129565b604080516001600160a01b03831660248083019190915282518083039091018152604490910182526020810180516001600160e01b03167fae7611a000000000000000000000000000000000000000000000000000000000179052905160009160609182918291859182916101679161225591613901565b6000604051808303816000865af19150503d8060008114612292576040519150601f19603f3d011682016040523d82523d6000602084013e612297565b606091505b50915091506060806060846122b05760158383836122c4565b838060200190518101906122c4919061416d565b60039390930b9d919c509a509098509650505050505050565b6000806000806101676001600160a01b031663d6910d0660e01b88888860405160240161230c93929190614239565b60408051601f198184030181529181526020820180516001600160e01b03166001600160e01b031990941693909317909252905161234a9190613901565b6000604051808303816000865af19150503d8060008114612387576040519150601f19603f3d011682016040523d82523d6000602084013e61238c565b606091505b50915091508161239f5760156000611ed3565b80806020019051810190611ed39190614264565b6040516001600160a01b03838116602483015282166044820152600090819081908190610167907f46de0fb100000000000000000000000000000000000000000000000000000000906064015b60408051601f198184030181529181526020820180516001600160e01b03166001600160e01b031990941693909317909252905161243e9190613901565b6000604051808303816000865af19150503d806000811461247b576040519150601f19603f3d011682016040523d82523d6000602084013e612480565b606091505b509150915081612493576015600061114a565b8080602001905181019061114a9190613b6f565b60006124b1612c67565b604080516001600160a01b03851660248083019190915282518083039091018152604490910182526020810180516001600160e01b03167f3f28a19b00000000000000000000000000000000000000000000000000000000179052905160009182916101679161252091613901565b6000604051808303816000865af19150503d806000811461255d576040519150601f19603f3d011682016040523d82523d6000602084013e612562565b606091505b509150915061256f612c67565b8261257c5760158161114a565b8180602001905181019061114a9190614290565b600061259a612c87565b604080516001600160a01b0386166024820152600785900b60448083019190915282518083039091018152606490910182526020810180516001600160e01b03167f287e1da800000000000000000000000000000000000000000000000000000000179052905160009182916101679161261391613901565b6000604051808303816000865af19150503d8060008114612650576040519150601f19603f3d011682016040523d82523d6000602084013e612655565b606091505b5091509150612662612c87565b8261266f57601581611ed3565b81806020019051810190611ed39190614337565b6040516001600160a01b03838116602483015282166044820152600090819081908190610167907ff2c31ff40000000000000000000000000000000000000000000000000000000090606401612400565b6040516001600160a01b0382166024820152600090819081908190610167907f19f37361000000000000000000000000000000000000000000000000000000009060440161203c565b60008060606000806101676001600160a01b031663e0f4059a60e01b89898960405160240161274e9392919061441f565b60408051601f198184030181529181526020820180516001600160e01b03166001600160e01b031990941693909317909252905161278c9190613901565b6000604051808303816000865af19150503d80600081146127c9576040519150601f19603f3d011682016040523d82523d6000602084013e6127ce565b606091505b5091509150816127f1576040805160008082526020820190925260159190612805565b80806020019051810190612805919061449c565b60039290920b9a90995090975095505050505050565b6040516001600160a01b038216602482015260009081908190610167907f7c41ad2c00000000000000000000000000000000000000000000000000000000906044015b60408051601f198184030181529181526020820180516001600160e01b03166001600160e01b031990941693909317909252905161289c9190613901565b6000604051808303816000865af19150503d80600081146128d9576040519150601f19603f3d011682016040523d82523d6000602084013e6128de565b606091505b5091509150816128ef576015612903565b80806020019051810190612903919061392f565b60030b949350505050565b6040516001600160a01b038216602482015260009081908190610167907f3b3bff0f000000000000000000000000000000000000000000000000000000009060440161285e565b604080516001600160a01b03831660248083019190915282518083039091018152604490910182526020810180516001600160e01b03167f93272baf000000000000000000000000000000000000000000000000000000001790529051600091829182918291610167916129c891613901565b6000604051808303816000865af19150503d8060008114612a05576040519150601f19603f3d011682016040523d82523d6000602084013e612a0a565b606091505b509150915081612a1e5760156000196120e3565b808060200190518101906120e3919061455c565b6040516001600160a01b03848116602483015283166044820152600782900b606482015260009081908190610167907fefef57f900000000000000000000000000000000000000000000000000000000906084015b60408051601f198184030181529181526020820180516001600160e01b03166001600160e01b0319909416939093179092529051612ac59190613901565b6000604051808303816000865af19150503d8060008114612b02576040519150601f19603f3d011682016040523d82523d6000602084013e612b07565b606091505b509150915081612b18576015612b2c565b80806020019051810190612b2c919061392f565b60030b9695505050505050565b60008060006101676001600160a01b031663f7f38e2660e01b878787604051602401612a8793929190614586565b6040516001600160a01b0382166024820152600090819081908190610167907f335e04c1000000000000000000000000000000000000000000000000000000009060440161203c565b60408051610240810182526060610120820181815261014083018290526000610160840181905261018084018390526101a084018190526101c084018190526101e0840181905261020084018390528451928301855280835260208301819052938201939093526102208201529081908152602001600060070b8152602001600015158152602001600015158152602001600015158152602001606081526020016060815260200160608152602001606081525090565b6040518060400160405280612c7a612bb0565b8152600060209091015290565b6040518060c00160405280612c9a612bb0565b8152600060208201819052604082018190526060808301829052608083015260a09091015290565b6001600160a01b0381168114612cd757600080fd5b50565b8035612ce581612cc2565b919050565b8015158114612cd757600080fd5b600080600060608486031215612d0d57600080fd5b8335612d1881612cc2565b92506020840135612d2881612cc2565b91506040840135612d3881612cea565b809150509250925092565b60005b83811015612d5e578181015183820152602001612d46565b83811115612d6d576000848401525b50505050565b60008151808452612d8b816020860160208601612d43565b601f01601f19169290920160200192915050565b6020815260006108736020830184612d73565b60008060008060808587031215612dc857600080fd5b8435612dd381612cc2565b93506020850135612de381612cc2565b92506040850135612df381612cc2565b9396929550929360600135925050565b60008060408385031215612e1657600080fd5b8235612e2181612cc2565b946020939093013593505050565b805115158252600060208201516001600160a01b0380821660208601526040840151915060a06040860152612e6760a0860183612d73565b915060608401518583036060870152612e808382612d73565b925050806080850151166080860152508091505092915050565b6020815260006108736020830184612e2f565b600060208284031215612ebf57600080fd5b813561087381612cc2565b606081016108348284805160070b82526001600160a01b036020820151166020830152604081015160070b60408301525050565b60008060408385031215612f1157600080fd5b8235612f1c81612cc2565b91506020830135612f2c81612cc2565b809150509250929050565b600081518084526020808501808196508360051b8101915082860160005b85811015612f935782840389528151805185528501516040868601819052612f7f81870183612e2f565b9a87019a9550505090840190600101612f55565b5091979650505050505050565b60006101608251818552612fb682860182612d73565b91505060208301518482036020860152612fd08282612d73565b9150506040830151612fed60408601826001600160a01b03169052565b50606083015184820360608601526130058282612d73565b915050608083015161301b608086018215159052565b5060a083015161303060a086018260070b9052565b5060c083015161304460c086018215159052565b5060e083015184820360e086015261305c8282612f37565b9150506101008084015161309882870182805160070b82526001600160a01b036020820151166020830152604081015160070b60408301525050565b5090949350505050565b600081518084526020808501945080840160005b8381101561310f578151805160070b8852838101516001600160a01b03908116858a01526040808301511515908a01526060808301511515908a0152608091820151169088015260a090960195908201906001016130b6565b509495945050505050565b600081518084526020808501945080840160005b8381101561310f5781518051600790810b895284820151810b858a0152604080830151820b908a015260608083015190910b9089015260808082015115159089015260a0908101516001600160a01b03169088015260c0909601959082019060010161312e565b600081518084526020808501945080840160005b8381101561310f5781518051600790810b895284820151810b858a015260408083015190910b908901526060808201516001600160a01b03908116918a01919091526080808301511515908a015260a091820151169088015260c090960195908201906001016131a9565b6000610120825181855261322a82860182612fa0565b9150506020830151613241602086018260070b9052565b506040830151613255604086018215159052565b506060830151613269606086018215159052565b50608083015161327d608086018215159052565b5060a083015184820360a086015261329582826130a2565b91505060c083015184820360c08601526132af828261311a565b91505060e083015184820360e08601526132c98282613195565b9150506101008084015185830382870152610be58382612d73565b6020815260006108736020830184613214565b60608152600061330a60608301866130a2565b828103602084015261331c818661311a565b90508281036040840152610be58185613195565b8060070b8114612cd757600080fd5b7f4e487b7100000000000000000000000000000000000000000000000000000000600052604160045260246000fd5b60405160a0810167ffffffffffffffff811182821017156133915761339161333f565b60405290565b6040805190810167ffffffffffffffff811182821017156133915761339161333f565b604051610120810167ffffffffffffffff811182821017156133915761339161333f565b60405160c0810167ffffffffffffffff811182821017156133915761339161333f565b604051601f8201601f1916810167ffffffffffffffff8111828210171561342a5761342a61333f565b604052919050565b600067ffffffffffffffff82111561344c5761344c61333f565b5060051b60200190565b6000806000806080858703121561346c57600080fd5b843561347781612cc2565b935060208581013561348881613330565b9350604086013567ffffffffffffffff8111156134a457600080fd5b8601601f810188136134b557600080fd5b80356134c86134c382613432565b613401565b81815260059190911b8201830190838101908a8311156134e757600080fd5b928401925b8284101561350e5783356134ff81613330565b825292840192908401906134ec565b809650505050505061352260608601612cda565b905092959194509250565b6020815260008251604060208401526135496060840182613214565b9050602084015160030b60408401528091505092915050565b60008060006060848603121561357757600080fd5b833561358281612cc2565b9250602084013561359281612cc2565b91506040840135612d3881612cc2565b600067ffffffffffffffff8211156135bc576135bc61333f565b50601f01601f191660200190565b600082601f8301126135db57600080fd5b81356135e96134c3826135a2565b8181528460208386010111156135fe57600080fd5b816020850160208301376000918101602001919091529392505050565b6000806040838503121561362e57600080fd5b823561363981612cc2565b9150602083013567ffffffffffffffff81111561365557600080fd5b613661858286016135ca565b9150509250929050565b8281526040602082015260006136846040830184612d73565b949350505050565b6000806040838503121561369f57600080fd5b82356136aa81612cc2565b91506020830135612f2c81613330565b602081526000825160c060208401526136d660e0840182613214565b9050602084015160070b604084015260408401516001600160a01b038082166060860152606086015160070b608086015260808601519150601f198584030160a08601526137248383612d73565b92508060a08701511660c086015250508091505092915050565b60008060006060848603121561375357600080fd5b833561375e81612cc2565b9250602084013561376e81612cc2565b929592945050506040919091013590565b6000806000806080858703121561379557600080fd5b84356137a081612cc2565b93506020858101356137b181613330565b9350604086013567ffffffffffffffff808211156137ce57600080fd5b818801915088601f8301126137e257600080fd5b81356137f06134c382613432565b81815260059190911b8301840190848101908b83111561380f57600080fd5b8585015b838110156138475780358581111561382b5760008081fd5b6138398e89838a01016135ca565b845250918601918601613813565b5080975050505050505061352260608601612cda565b6001600160a01b03831681526040602082015260006136846040830184612d73565b600082601f83011261389057600080fd5b815161389e6134c3826135a2565b8181528460208386010111156138b357600080fd5b610830826020830160208701612d43565b600080604083850312156138d757600080fd5b82519150602083015167ffffffffffffffff8111156138f557600080fd5b6136618582860161387f565b60008251613913818460208701612d43565b9190910192915050565b8051600381900b8114612ce557600080fd5b60006020828403121561394157600080fd5b6108738261391d565b60006020828403121561395c57600080fd5b5051919050565b82151581526040602082015260006136846040830184612d73565b6000806040838503121561399157600080fd5b61399a8361391d565b9150602083015167ffffffffffffffff8111156138f557600080fd5b8051612ce581612cea565b8051612ce581612cc2565b600060a082840312156139de57600080fd5b6139e661336e565b905081516139f381612cea565b81526020820151613a0381612cc2565b6020820152604082015167ffffffffffffffff80821115613a2357600080fd5b613a2f8583860161387f565b60408401526060840151915080821115613a4857600080fd5b50613a558482850161387f565b6060830152506080820151613a6981612cc2565b608082015292915050565b60008060408385031215613a8757600080fd5b613a908361391d565b9150602083015167ffffffffffffffff811115613aac57600080fd5b613661858286016139cc565b8051612ce581613330565b600060608284031215613ad557600080fd5b6040516060810181811067ffffffffffffffff82111715613af857613af861333f565b80604052508091508251613b0b81613330565b81526020830151613b1b81612cc2565b60208201526040830151613b2e81613330565b6040919091015292915050565b60008060808385031215613b4e57600080fd5b613b578361391d565b9150613b668460208501613ac3565b90509250929050565b60008060408385031215613b8257600080fd5b613b8b8361391d565b91506020830151612f2c81612cea565b600082601f830112613bac57600080fd5b81516020613bbc6134c383613432565b82815260059290921b84018101918181019086841115613bdb57600080fd5b8286015b84811015613c5d57805167ffffffffffffffff80821115613c005760008081fd5b908801906040828b03601f1901811315613c1a5760008081fd5b613c22613397565b838801518152908301519082821115613c3b5760008081fd5b613c498c89848701016139cc565b818901528652505050918301918301613bdf565b509695505050505050565b60006101608284031215613c7b57600080fd5b613c836133ba565b9050815167ffffffffffffffff80821115613c9d57600080fd5b613ca98583860161387f565b83526020840151915080821115613cbf57600080fd5b613ccb8583860161387f565b6020840152613cdc604085016139c1565b60408401526060840151915080821115613cf557600080fd5b613d018583860161387f565b6060840152613d12608085016139b6565b6080840152613d2360a08501613ab8565b60a0840152613d3460c085016139b6565b60c084015260e0840151915080821115613d4d57600080fd5b50613d5a84828501613b9b565b60e083015250610100613d6f84828501613ac3565b9082015292915050565b600082601f830112613d8a57600080fd5b81516020613d9a6134c383613432565b82815260a09283028501820192828201919087851115613db957600080fd5b8387015b85811015613e415781818a031215613dd55760008081fd5b613ddd61336e565b8151613de881613330565b815281860151613df781612cc2565b81870152604082810151613e0a81612cea565b90820152606082810151613e1d81612cea565b90820152608082810151613e3081612cc2565b908201528452928401928101613dbd565b5090979650505050505050565b600082601f830112613e5f57600080fd5b81516020613e6f6134c383613432565b82815260c09283028501820192828201919087851115613e8e57600080fd5b8387015b85811015613e415781818a031215613eaa5760008081fd5b613eb26133de565b8151613ebd81613330565b815281860151613ecc81613330565b81870152604082810151613edf81613330565b90820152606082810151613ef281613330565b90820152608082810151613f0581612cea565b9082015260a082810151613f1881612cc2565b908201528452928401928101613e92565b600082601f830112613f3a57600080fd5b81516020613f4a6134c383613432565b82815260c09283028501820192828201919087851115613f6957600080fd5b8387015b85811015613e415781818a031215613f855760008081fd5b613f8d6133de565b8151613f9881613330565b815281860151613fa781613330565b81870152604082810151613fba81613330565b90820152606082810151613fcd81612cc2565b90820152608082810151613fe081612cea565b9082015260a082810151613ff381612cc2565b908201528452928401928101613f6d565b6000610120828403121561401757600080fd5b61401f6133ba565b9050815167ffffffffffffffff8082111561403957600080fd5b61404585838601613c68565b835261405360208501613ab8565b6020840152614064604085016139b6565b6040840152614075606085016139b6565b6060840152614086608085016139b6565b608084015260a084015191508082111561409f57600080fd5b6140ab85838601613d79565b60a084015260c08401519150808211156140c457600080fd5b6140d085838601613e4e565b60c084015260e08401519150808211156140e957600080fd5b6140f585838601613f29565b60e08401526101009150818401518181111561411057600080fd5b61411c8682870161387f565b8385015250505092915050565b6000806040838503121561413c57600080fd5b6141458361391d565b9150602083015167ffffffffffffffff81111561416157600080fd5b61366185828601614004565b6000806000806080858703121561418357600080fd5b61418c8561391d565b9350602085015167ffffffffffffffff808211156141a957600080fd5b6141b588838901613d79565b945060408701519150808211156141cb57600080fd5b6141d788838901613e4e565b935060608701519150808211156141ed57600080fd5b506141fa87828801613f29565b91505092959194509250565b600081518084526020808501945080840160005b8381101561310f57815160070b8752958201959082019060010161421a565b6001600160a01b03841681528260070b60208201526060604082015260006106b06060830184614206565b6000806040838503121561427757600080fd5b6142808361391d565b91506020830151612f2c81613330565b600080604083850312156142a357600080fd5b6142ac8361391d565b9150602083015167ffffffffffffffff808211156142c957600080fd5b90840190604082870312156142dd57600080fd5b6040516040810181811083821117156142f8576142f861333f565b60405282518281111561430a57600080fd5b61431688828601614004565b8252506143256020840161391d565b60208201528093505050509250929050565b6000806040838503121561434a57600080fd5b6143538361391d565b9150602083015167ffffffffffffffff8082111561437057600080fd5b9084019060c0828703121561438457600080fd5b61438c6133de565b82518281111561439b57600080fd5b6143a788828601614004565b8252506143b660208401613ab8565b60208201526143c7604084016139c1565b60408201526143d860608401613ab8565b60608201526080830151828111156143ef57600080fd5b6143fb8882860161387f565b60808301525061440d60a084016139c1565b60a08201528093505050509250929050565b6000606082016001600160a01b038616835260208560070b818501526060604085015281855180845260808601915060808160051b870101935082870160005b8281101561448d57607f1988870301845261447b868351612d73565b9550928401929084019060010161445f565b50939998505050505050505050565b6000806000606084860312156144b157600080fd5b6144ba8461391d565b92506020808501516144cb81613330565b604086015190935067ffffffffffffffff8111156144e857600080fd5b8501601f810187136144f957600080fd5b80516145076134c382613432565b81815260059190911b8201830190838101908983111561452657600080fd5b928401925b8284101561454d57835161453e81613330565b8252928401929084019061452b565b80955050505050509250925092565b6000806040838503121561456f57600080fd5b6145788361391d565b9150613b666020840161391d565b60006001600160a01b038086168352808516602084015250606060408301526106b0606083018461420656fea2646970667358221220eb4d05ca5e1edf2647dc71938e40876f7c741efc12c25760c829c27f3e52326464736f6c63430008090033",
  "linkReferences": {},
  "deployedLinkReferences": {}
}