{
  "_format": "hh-sol-artifact-1",
  "contractName": "PrecompileTestContract",
  "sourceName": "contracts/PrecompileTestContract.sol",
  "abi": [
    {
      "anonymous": false,
      "inputs": [
        {
          "indexed": false,
          "internalType": "bool",
          "name": "",
          "type": "bool"
        },
        {
          "indexed": false,
          "internalType": "bytes",
          "name": "",
          "type": "bytes"
        }
      ],
      "name": "CallResponseEvent",
      "type": "event"
    },
    {
      "inputs": [
        {
          "internalType": "address",
          "name": "token",
          "type": "address"
        },
        {
          "internalType": "address",
          "name": "owner",
          "type": "address"
        },
        {
          "internalType": "address",
          "name": "spender",
          "type": "address"
        }
      ],
      "name": "allowanceRedirect",
      "outputs": [
        {
          "internalType": "bytes",
          "name": "result",
          "type": "bytes"
        }
      ],
      "stateMutability": "nonpayable",
      "type": "function"
    },
    {
      "inputs": [
        {
          "internalType": "address",
          "name": "token",
          "type": "address"
        },
        {
          "internalType": "address",
          "name": "receiver",
          "type": "address"
        },
        {
          "internalType": "uint256",
          "name": "amount",
          "type": "uint256"
        }
      ],
      "name": "approveFungibleTokenTransferFromGetAllowanceGetBalance",
      "outputs": [
        {
          "internalType": "uint256",
          "name": "",
          "type": "uint256"
        },
        {
          "internalType": "uint256",
          "name": "",
          "type": "uint256"
        },
        {
          "internalType": "uint256",
          "name": "",
          "type": "uint256"
        },
        {
          "internalType": "uint256",
          "name": "",
          "type": "uint256"
        }
      ],
      "stateMutability": "nonpayable",
      "type": "function"
    },
    {
      "inputs": [
        {
          "internalType": "address",
          "name": "token",
          "type": "address"
        },
        {
          "internalType": "address",
          "name": "receiver",
          "type": "address"
        },
        {
          "internalType": "uint256",
          "name": "serialNumber",
          "type": "uint256"
        }
      ],
      "name": "approveNftAndTransfer",
      "outputs": [
        {
          "internalType": "address",
          "name": "",
          "type": "address"
        },
        {
          "internalType": "address",
          "name": "",
          "type": "address"
        },
        {
          "internalType": "address",
          "name": "",
          "type": "address"
        },
        {
          "internalType": "address",
          "name": "",
          "type": "address"
        }
      ],
      "stateMutability": "nonpayable",
      "type": "function"
    },
    {
      "inputs": [
        {
          "internalType": "address",
          "name": "token",
          "type": "address"
        },
        {
          "internalType": "address",
          "name": "spender",
          "type": "address"
        },
        {
          "internalType": "uint256",
          "name": "amount",
          "type": "uint256"
        }
      ],
      "name": "approveRedirect",
      "outputs": [
        {
          "internalType": "bytes",
          "name": "result",
          "type": "bytes"
        }
      ],
      "stateMutability": "nonpayable",
      "type": "function"
    },
    {
      "inputs": [
        {
          "internalType": "address",
          "name": "token",
          "type": "address"
        },
        {
          "internalType": "address",
          "name": "spender",
          "type": "address"
        },
        {
          "internalType": "uint256",
          "name": "amount",
          "type": "uint256"
        },
        {
          "internalType": "uint256",
          "name": "serialNumber",
          "type": "uint256"
        }
      ],
      "name": "approveTokenGetAllowance",
      "outputs": [
        {
          "internalType": "uint256",
          "name": "",
          "type": "uint256"
        },
        {
          "internalType": "address",
          "name": "",
          "type": "address"
        }
      ],
      "stateMutability": "nonpayable",
      "type": "function"
    },
    {
      "inputs": [
        {
          "internalType": "address",
          "name": "token",
          "type": "address"
        },
        {
          "internalType": "address",
          "name": "from",
          "type": "address"
        },
        {
          "internalType": "address",
          "name": "to",
          "type": "address"
        },
        {
          "internalType": "uint256",
          "name": "amount",
          "type": "uint256"
        },
        {
          "internalType": "uint256",
          "name": "serialNumber",
          "type": "uint256"
        }
      ],
      "name": "associateTokenDissociateFailTransfer",
      "outputs": [
        {
          "internalType": "int256",
          "name": "",
          "type": "int256"
        },
        {
          "internalType": "int256",
          "name": "",
          "type": "int256"
        }
      ],
      "stateMutability": "nonpayable",
      "type": "function"
    },
    {
      "inputs": [
        {
          "internalType": "address",
          "name": "token",
          "type": "address"
        },
        {
          "internalType": "address",
          "name": "account",
          "type": "address"
        }
      ],
      "name": "balanceOfRedirect",
      "outputs": [
        {
          "internalType": "bytes",
          "name": "result",
          "type": "bytes"
        }
      ],
      "stateMutability": "nonpayable",
      "type": "function"
    },
    {
      "inputs": [
        {
          "internalType": "address",
          "name": "token",
          "type": "address"
        },
        {
          "internalType": "int64",
          "name": "amount",
          "type": "int64"
        },
        {
          "internalType": "int64[]",
          "name": "serialNumbers",
          "type": "int64[]"
        },
        {
          "internalType": "address",
          "name": "treasury",
          "type": "address"
        }
      ],
      "name": "burnTokenGetTotalSupplyAndBalanceOfTreasury",
      "outputs": [
        {
          "internalType": "uint256",
          "name": "",
          "type": "uint256"
        },
        {
          "internalType": "uint256",
          "name": "",
          "type": "uint256"
        },
        {
          "internalType": "int256",
          "name": "",
          "type": "int256"
        },
        {
          "internalType": "int256",
          "name": "",
          "type": "int256"
        }
      ],
      "stateMutability": "nonpayable",
      "type": "function"
    },
    {
      "inputs": [
        {
          "internalType": "address",
          "name": "token",
          "type": "address"
        }
      ],
      "name": "decimalsRedirect",
      "outputs": [
        {
          "internalType": "bytes",
          "name": "result",
          "type": "bytes"
        }
      ],
      "stateMutability": "nonpayable",
      "type": "function"
    },
    {
      "inputs": [
        {
          "internalType": "address",
          "name": "token",
          "type": "address"
        },
        {
          "internalType": "address",
          "name": "account",
          "type": "address"
        }
      ],
      "name": "freezeTokenGetFreezeStatusUnfreezeGetFreezeStatus",
      "outputs": [
        {
          "internalType": "bool",
          "name": "",
          "type": "bool"
        },
        {
          "internalType": "bool",
          "name": "",
          "type": "bool"
        }
      ],
      "stateMutability": "nonpayable",
      "type": "function"
    },
    {
      "inputs": [
        {
          "internalType": "address",
          "name": "token",
          "type": "address"
        },
        {
          "internalType": "uint256",
          "name": "tokenId",
          "type": "uint256"
        }
      ],
      "name": "getApprovedRedirect",
      "outputs": [
        {
          "internalType": "bytes",
          "name": "result",
          "type": "bytes"
        }
      ],
      "stateMutability": "nonpayable",
      "type": "function"
    },
    {
      "inputs": [
        {
          "internalType": "address",
          "name": "token",
          "type": "address"
        }
      ],
      "name": "getCustomFeesForToken",
      "outputs": [
        {
          "components": [
            {
              "internalType": "int64",
              "name": "amount",
              "type": "int64"
            },
            {
              "internalType": "address",
              "name": "tokenId",
              "type": "address"
            },
            {
              "internalType": "bool",
              "name": "useHbarsForPayment",
              "type": "bool"
            },
            {
              "internalType": "bool",
              "name": "useCurrentTokenForPayment",
              "type": "bool"
            },
            {
              "internalType": "address",
              "name": "feeCollector",
              "type": "address"
            }
          ],
          "internalType": "struct IHederaTokenService.FixedFee[]",
          "name": "fixedFees",
          "type": "tuple[]"
        },
        {
          "components": [
            {
              "internalType": "int64",
              "name": "numerator",
              "type": "int64"
            },
            {
              "internalType": "int64",
              "name": "denominator",
              "type": "int64"
            },
            {
              "internalType": "int64",
              "name": "minimumAmount",
              "type": "int64"
            },
            {
              "internalType": "int64",
              "name": "maximumAmount",
              "type": "int64"
            },
            {
              "internalType": "bool",
              "name": "netOfTransfers",
              "type": "bool"
            },
            {
              "internalType": "address",
              "name": "feeCollector",
              "type": "address"
            }
          ],
          "internalType": "struct IHederaTokenService.FractionalFee[]",
          "name": "fractionalFees",
          "type": "tuple[]"
        },
        {
          "components": [
            {
              "internalType": "int64",
              "name": "numerator",
              "type": "int64"
            },
            {
              "internalType": "int64",
              "name": "denominator",
              "type": "int64"
            },
            {
              "internalType": "int64",
              "name": "amount",
              "type": "int64"
            },
            {
              "internalType": "address",
              "name": "tokenId",
              "type": "address"
            },
            {
              "internalType": "bool",
              "name": "useHbarsForPayment",
              "type": "bool"
            },
            {
              "internalType": "address",
              "name": "feeCollector",
              "type": "address"
            }
          ],
          "internalType": "struct IHederaTokenService.RoyaltyFee[]",
          "name": "royaltyFees",
          "type": "tuple[]"
        }
      ],
      "stateMutability": "nonpayable",
      "type": "function"
    },
    {
      "inputs": [
        {
          "internalType": "address",
          "name": "token",
          "type": "address"
        }
      ],
      "name": "getExpiryInfoForToken",
      "outputs": [
        {
          "components": [
            {
              "internalType": "int64",
              "name": "second",
              "type": "int64"
            },
            {
              "internalType": "address",
              "name": "autoRenewAccount",
              "type": "address"
            },
            {
              "internalType": "int64",
              "name": "autoRenewPeriod",
              "type": "int64"
            }
          ],
          "internalType": "struct IHederaTokenService.Expiry",
          "name": "expiry",
          "type": "tuple"
        }
      ],
      "stateMutability": "nonpayable",
      "type": "function"
    },
    {
      "inputs": [
        {
          "internalType": "address",
          "name": "token",
          "type": "address"
        }
      ],
      "name": "getInformationForFungibleToken",
      "outputs": [
        {
          "components": [
            {
              "components": [
                {
                  "components": [
                    {
                      "internalType": "string",
                      "name": "name",
                      "type": "string"
                    },
                    {
                      "internalType": "string",
                      "name": "symbol",
                      "type": "string"
                    },
                    {
                      "internalType": "address",
                      "name": "treasury",
                      "type": "address"
                    },
                    {
                      "internalType": "string",
                      "name": "memo",
                      "type": "string"
                    },
                    {
                      "internalType": "bool",
                      "name": "tokenSupplyType",
                      "type": "bool"
                    },
                    {
                      "internalType": "int64",
                      "name": "maxSupply",
                      "type": "int64"
                    },
                    {
                      "internalType": "bool",
                      "name": "freezeDefault",
                      "type": "bool"
                    },
                    {
                      "components": [
                        {
                          "internalType": "uint256",
                          "name": "keyType",
                          "type": "uint256"
                        },
                        {
                          "components": [
                            {
                              "internalType": "bool",
                              "name": "inheritAccountKey",
                              "type": "bool"
                            },
                            {
                              "internalType": "address",
                              "name": "contractId",
                              "type": "address"
                            },
                            {
                              "internalType": "bytes",
                              "name": "ed25519",
                              "type": "bytes"
                            },
                            {
                              "internalType": "bytes",
                              "name": "ECDSA_secp256k1",
                              "type": "bytes"
                            },
                            {
                              "internalType": "address",
                              "name": "delegatableContractId",
                              "type": "address"
                            }
                          ],
                          "internalType": "struct IHederaTokenService.KeyValue",
                          "name": "key",
                          "type": "tuple"
                        }
                      ],
                      "internalType": "struct IHederaTokenService.TokenKey[]",
                      "name": "tokenKeys",
                      "type": "tuple[]"
                    },
                    {
                      "components": [
                        {
                          "internalType": "int64",
                          "name": "second",
                          "type": "int64"
                        },
                        {
                          "internalType": "address",
                          "name": "autoRenewAccount",
                          "type": "address"
                        },
                        {
                          "internalType": "int64",
                          "name": "autoRenewPeriod",
                          "type": "int64"
                        }
                      ],
                      "internalType": "struct IHederaTokenService.Expiry",
                      "name": "expiry",
                      "type": "tuple"
                    }
                  ],
                  "internalType": "struct IHederaTokenService.HederaToken",
                  "name": "token",
                  "type": "tuple"
                },
                {
                  "internalType": "int64",
                  "name": "totalSupply",
                  "type": "int64"
                },
                {
                  "internalType": "bool",
                  "name": "deleted",
                  "type": "bool"
                },
                {
                  "internalType": "bool",
                  "name": "defaultKycStatus",
                  "type": "bool"
                },
                {
                  "internalType": "bool",
                  "name": "pauseStatus",
                  "type": "bool"
                },
                {
                  "components": [
                    {
                      "internalType": "int64",
                      "name": "amount",
                      "type": "int64"
                    },
                    {
                      "internalType": "address",
                      "name": "tokenId",
                      "type": "address"
                    },
                    {
                      "internalType": "bool",
                      "name": "useHbarsForPayment",
                      "type": "bool"
                    },
                    {
                      "internalType": "bool",
                      "name": "useCurrentTokenForPayment",
                      "type": "bool"
                    },
                    {
                      "internalType": "address",
                      "name": "feeCollector",
                      "type": "address"
                    }
                  ],
                  "internalType": "struct IHederaTokenService.FixedFee[]",
                  "name": "fixedFees",
                  "type": "tuple[]"
                },
                {
                  "components": [
                    {
                      "internalType": "int64",
                      "name": "numerator",
                      "type": "int64"
                    },
                    {
                      "internalType": "int64",
                      "name": "denominator",
                      "type": "int64"
                    },
                    {
                      "internalType": "int64",
                      "name": "minimumAmount",
                      "type": "int64"
                    },
                    {
                      "internalType": "int64",
                      "name": "maximumAmount",
                      "type": "int64"
                    },
                    {
                      "internalType": "bool",
                      "name": "netOfTransfers",
                      "type": "bool"
                    },
                    {
                      "internalType": "address",
                      "name": "feeCollector",
                      "type": "address"
                    }
                  ],
                  "internalType": "struct IHederaTokenService.FractionalFee[]",
                  "name": "fractionalFees",
                  "type": "tuple[]"
                },
                {
                  "components": [
                    {
                      "internalType": "int64",
                      "name": "numerator",
                      "type": "int64"
                    },
                    {
                      "internalType": "int64",
                      "name": "denominator",
                      "type": "int64"
                    },
                    {
                      "internalType": "int64",
                      "name": "amount",
                      "type": "int64"
                    },
                    {
                      "internalType": "address",
                      "name": "tokenId",
                      "type": "address"
                    },
                    {
                      "internalType": "bool",
                      "name": "useHbarsForPayment",
                      "type": "bool"
                    },
                    {
                      "internalType": "address",
                      "name": "feeCollector",
                      "type": "address"
                    }
                  ],
                  "internalType": "struct IHederaTokenService.RoyaltyFee[]",
                  "name": "royaltyFees",
                  "type": "tuple[]"
                },
                {
                  "internalType": "string",
                  "name": "ledgerId",
                  "type": "string"
                }
              ],
              "internalType": "struct IHederaTokenService.TokenInfo",
              "name": "tokenInfo",
              "type": "tuple"
            },
            {
              "internalType": "int32",
              "name": "decimals",
              "type": "int32"
            }
          ],
          "internalType": "struct IHederaTokenService.FungibleTokenInfo",
          "name": "fungibleTokenInfo",
          "type": "tuple"
        }
      ],
      "stateMutability": "nonpayable",
      "type": "function"
    },
    {
      "inputs": [
        {
          "internalType": "address",
          "name": "token",
          "type": "address"
        },
        {
          "internalType": "int64",
          "name": "serialNumber",
          "type": "int64"
        }
      ],
      "name": "getInformationForNonFungibleToken",
      "outputs": [
        {
          "components": [
            {
              "components": [
                {
                  "components": [
                    {
                      "internalType": "string",
                      "name": "name",
                      "type": "string"
                    },
                    {
                      "internalType": "string",
                      "name": "symbol",
                      "type": "string"
                    },
                    {
                      "internalType": "address",
                      "name": "treasury",
                      "type": "address"
                    },
                    {
                      "internalType": "string",
                      "name": "memo",
                      "type": "string"
                    },
                    {
                      "internalType": "bool",
                      "name": "tokenSupplyType",
                      "type": "bool"
                    },
                    {
                      "internalType": "int64",
                      "name": "maxSupply",
                      "type": "int64"
                    },
                    {
                      "internalType": "bool",
                      "name": "freezeDefault",
                      "type": "bool"
                    },
                    {
                      "components": [
                        {
                          "internalType": "uint256",
                          "name": "keyType",
                          "type": "uint256"
                        },
                        {
                          "components": [
                            {
                              "internalType": "bool",
                              "name": "inheritAccountKey",
                              "type": "bool"
                            },
                            {
                              "internalType": "address",
                              "name": "contractId",
                              "type": "address"
                            },
                            {
                              "internalType": "bytes",
                              "name": "ed25519",
                              "type": "bytes"
                            },
                            {
                              "internalType": "bytes",
                              "name": "ECDSA_secp256k1",
                              "type": "bytes"
                            },
                            {
                              "internalType": "address",
                              "name": "delegatableContractId",
                              "type": "address"
                            }
                          ],
                          "internalType": "struct IHederaTokenService.KeyValue",
                          "name": "key",
                          "type": "tuple"
                        }
                      ],
                      "internalType": "struct IHederaTokenService.TokenKey[]",
                      "name": "tokenKeys",
                      "type": "tuple[]"
                    },
                    {
                      "components": [
                        {
                          "internalType": "int64",
                          "name": "second",
                          "type": "int64"
                        },
                        {
                          "internalType": "address",
                          "name": "autoRenewAccount",
                          "type": "address"
                        },
                        {
                          "internalType": "int64",
                          "name": "autoRenewPeriod",
                          "type": "int64"
                        }
                      ],
                      "internalType": "struct IHederaTokenService.Expiry",
                      "name": "expiry",
                      "type": "tuple"
                    }
                  ],
                  "internalType": "struct IHederaTokenService.HederaToken",
                  "name": "token",
                  "type": "tuple"
                },
                {
                  "internalType": "int64",
                  "name": "totalSupply",
                  "type": "int64"
                },
                {
                  "internalType": "bool",
                  "name": "deleted",
                  "type": "bool"
                },
                {
                  "internalType": "bool",
                  "name": "defaultKycStatus",
                  "type": "bool"
                },
                {
                  "internalType": "bool",
                  "name": "pauseStatus",
                  "type": "bool"
                },
                {
                  "components": [
                    {
                      "internalType": "int64",
                      "name": "amount",
                      "type": "int64"
                    },
                    {
                      "internalType": "address",
                      "name": "tokenId",
                      "type": "address"
                    },
                    {
                      "internalType": "bool",
                      "name": "useHbarsForPayment",
                      "type": "bool"
                    },
                    {
                      "internalType": "bool",
                      "name": "useCurrentTokenForPayment",
                      "type": "bool"
                    },
                    {
                      "internalType": "address",
                      "name": "feeCollector",
                      "type": "address"
                    }
                  ],
                  "internalType": "struct IHederaTokenService.FixedFee[]",
                  "name": "fixedFees",
                  "type": "tuple[]"
                },
                {
                  "components": [
                    {
                      "internalType": "int64",
                      "name": "numerator",
                      "type": "int64"
                    },
                    {
                      "internalType": "int64",
                      "name": "denominator",
                      "type": "int64"
                    },
                    {
                      "internalType": "int64",
                      "name": "minimumAmount",
                      "type": "int64"
                    },
                    {
                      "internalType": "int64",
                      "name": "maximumAmount",
                      "type": "int64"
                    },
                    {
                      "internalType": "bool",
                      "name": "netOfTransfers",
                      "type": "bool"
                    },
                    {
                      "internalType": "address",
                      "name": "feeCollector",
                      "type": "address"
                    }
                  ],
                  "internalType": "struct IHederaTokenService.FractionalFee[]",
                  "name": "fractionalFees",
                  "type": "tuple[]"
                },
                {
                  "components": [
                    {
                      "internalType": "int64",
                      "name": "numerator",
                      "type": "int64"
                    },
                    {
                      "internalType": "int64",
                      "name": "denominator",
                      "type": "int64"
                    },
                    {
                      "internalType": "int64",
                      "name": "amount",
                      "type": "int64"
                    },
                    {
                      "internalType": "address",
                      "name": "tokenId",
                      "type": "address"
                    },
                    {
                      "internalType": "bool",
                      "name": "useHbarsForPayment",
                      "type": "bool"
                    },
                    {
                      "internalType": "address",
                      "name": "feeCollector",
                      "type": "address"
                    }
                  ],
                  "internalType": "struct IHederaTokenService.RoyaltyFee[]",
                  "name": "royaltyFees",
                  "type": "tuple[]"
                },
                {
                  "internalType": "string",
                  "name": "ledgerId",
                  "type": "string"
                }
              ],
              "internalType": "struct IHederaTokenService.TokenInfo",
              "name": "tokenInfo",
              "type": "tuple"
            },
            {
              "internalType": "int64",
              "name": "serialNumber",
              "type": "int64"
            },
            {
              "internalType": "address",
              "name": "ownerId",
              "type": "address"
            },
            {
              "internalType": "int64",
              "name": "creationTime",
              "type": "int64"
            },
            {
              "internalType": "bytes",
              "name": "metadata",
              "type": "bytes"
            },
            {
              "internalType": "address",
              "name": "spenderId",
              "type": "address"
            }
          ],
          "internalType": "struct IHederaTokenService.NonFungibleTokenInfo",
          "name": "nonFungibleTokenInfo",
          "type": "tuple"
        }
      ],
      "stateMutability": "nonpayable",
      "type": "function"
    },
    {
      "inputs": [
        {
          "internalType": "address",
          "name": "token",
          "type": "address"
        }
      ],
      "name": "getInformationForToken",
      "outputs": [
        {
          "components": [
            {
              "components": [
                {
                  "internalType": "string",
                  "name": "name",
                  "type": "string"
                },
                {
                  "internalType": "string",
                  "name": "symbol",
                  "type": "string"
                },
                {
                  "internalType": "address",
                  "name": "treasury",
                  "type": "address"
                },
                {
                  "internalType": "string",
                  "name": "memo",
                  "type": "string"
                },
                {
                  "internalType": "bool",
                  "name": "tokenSupplyType",
                  "type": "bool"
                },
                {
                  "internalType": "int64",
                  "name": "maxSupply",
                  "type": "int64"
                },
                {
                  "internalType": "bool",
                  "name": "freezeDefault",
                  "type": "bool"
                },
                {
                  "components": [
                    {
                      "internalType": "uint256",
                      "name": "keyType",
                      "type": "uint256"
                    },
                    {
                      "components": [
                        {
                          "internalType": "bool",
                          "name": "inheritAccountKey",
                          "type": "bool"
                        },
                        {
                          "internalType": "address",
                          "name": "contractId",
                          "type": "address"
                        },
                        {
                          "internalType": "bytes",
                          "name": "ed25519",
                          "type": "bytes"
                        },
                        {
                          "internalType": "bytes",
                          "name": "ECDSA_secp256k1",
                          "type": "bytes"
                        },
                        {
                          "internalType": "address",
                          "name": "delegatableContractId",
                          "type": "address"
                        }
                      ],
                      "internalType": "struct IHederaTokenService.KeyValue",
                      "name": "key",
                      "type": "tuple"
                    }
                  ],
                  "internalType": "struct IHederaTokenService.TokenKey[]",
                  "name": "tokenKeys",
                  "type": "tuple[]"
                },
                {
                  "components": [
                    {
                      "internalType": "int64",
                      "name": "second",
                      "type": "int64"
                    },
                    {
                      "internalType": "address",
                      "name": "autoRenewAccount",
                      "type": "address"
                    },
                    {
                      "internalType": "int64",
                      "name": "autoRenewPeriod",
                      "type": "int64"
                    }
                  ],
                  "internalType": "struct IHederaTokenService.Expiry",
                  "name": "expiry",
                  "type": "tuple"
                }
              ],
              "internalType": "struct IHederaTokenService.HederaToken",
              "name": "token",
              "type": "tuple"
            },
            {
              "internalType": "int64",
              "name": "totalSupply",
              "type": "int64"
            },
            {
              "internalType": "bool",
              "name": "deleted",
              "type": "bool"
            },
            {
              "internalType": "bool",
              "name": "defaultKycStatus",
              "type": "bool"
            },
            {
              "internalType": "bool",
              "name": "pauseStatus",
              "type": "bool"
            },
            {
              "components": [
                {
                  "internalType": "int64",
                  "name": "amount",
                  "type": "int64"
                },
                {
                  "internalType": "address",
                  "name": "tokenId",
                  "type": "address"
                },
                {
                  "internalType": "bool",
                  "name": "useHbarsForPayment",
                  "type": "bool"
                },
                {
                  "internalType": "bool",
                  "name": "useCurrentTokenForPayment",
                  "type": "bool"
                },
                {
                  "internalType": "address",
                  "name": "feeCollector",
                  "type": "address"
                }
              ],
              "internalType": "struct IHederaTokenService.FixedFee[]",
              "name": "fixedFees",
              "type": "tuple[]"
            },
            {
              "components": [
                {
                  "internalType": "int64",
                  "name": "numerator",
                  "type": "int64"
                },
                {
                  "internalType": "int64",
                  "name": "denominator",
                  "type": "int64"
                },
                {
                  "internalType": "int64",
                  "name": "minimumAmount",
                  "type": "int64"
                },
                {
                  "internalType": "int64",
                  "name": "maximumAmount",
                  "type": "int64"
                },
                {
                  "internalType": "bool",
                  "name": "netOfTransfers",
                  "type": "bool"
                },
                {
                  "internalType": "address",
                  "name": "feeCollector",
                  "type": "address"
                }
              ],
              "internalType": "struct IHederaTokenService.FractionalFee[]",
              "name": "fractionalFees",
              "type": "tuple[]"
            },
            {
              "components": [
                {
                  "internalType": "int64",
                  "name": "numerator",
                  "type": "int64"
                },
                {
                  "internalType": "int64",
                  "name": "denominator",
                  "type": "int64"
                },
                {
                  "internalType": "int64",
                  "name": "amount",
                  "type": "int64"
                },
                {
                  "internalType": "address",
                  "name": "tokenId",
                  "type": "address"
                },
                {
                  "internalType": "bool",
                  "name": "useHbarsForPayment",
                  "type": "bool"
                },
                {
                  "internalType": "address",
                  "name": "feeCollector",
                  "type": "address"
                }
              ],
              "internalType": "struct IHederaTokenService.RoyaltyFee[]",
              "name": "royaltyFees",
              "type": "tuple[]"
            },
            {
              "internalType": "string",
              "name": "ledgerId",
              "type": "string"
            }
          ],
          "internalType": "struct IHederaTokenService.TokenInfo",
          "name": "tokenInfo",
          "type": "tuple"
        }
      ],
      "stateMutability": "nonpayable",
      "type": "function"
    },
    {
      "inputs": [
        {
          "internalType": "address",
          "name": "token",
          "type": "address"
        },
        {
          "internalType": "uint256",
          "name": "serialNo",
          "type": "uint256"
        }
      ],
      "name": "getOwnerOfRedirect",
      "outputs": [
        {
          "internalType": "bytes",
          "name": "result",
          "type": "bytes"
        }
      ],
      "stateMutability": "nonpayable",
      "type": "function"
    },
    {
      "inputs": [
        {
          "internalType": "address",
          "name": "token",
          "type": "address"
        }
      ],
      "name": "getTokenDefaultFreeze",
      "outputs": [
        {
          "internalType": "bool",
          "name": "",
          "type": "bool"
        }
      ],
      "stateMutability": "nonpayable",
      "type": "function"
    },
    {
      "inputs": [
        {
          "internalType": "address",
          "name": "token",
          "type": "address"
        }
      ],
      "name": "getTokenDefaultKyc",
      "outputs": [
        {
          "internalType": "bool",
          "name": "",
          "type": "bool"
        }
      ],
      "stateMutability": "nonpayable",
      "type": "function"
    },
    {
      "inputs": [
        {
          "internalType": "address",
          "name": "token",
          "type": "address"
        },
        {
          "internalType": "uint256",
          "name": "keyType",
          "type": "uint256"
        }
      ],
      "name": "getTokenKeyPublic",
      "outputs": [
        {
          "components": [
            {
              "internalType": "bool",
              "name": "inheritAccountKey",
              "type": "bool"
            },
            {
              "internalType": "address",
              "name": "contractId",
              "type": "address"
            },
            {
              "internalType": "bytes",
              "name": "ed25519",
              "type": "bytes"
            },
            {
              "internalType": "bytes",
              "name": "ECDSA_secp256k1",
              "type": "bytes"
            },
            {
              "internalType": "address",
              "name": "delegatableContractId",
              "type": "address"
            }
          ],
          "internalType": "struct IHederaTokenService.KeyValue",
          "name": "",
          "type": "tuple"
        }
      ],
      "stateMutability": "nonpayable",
      "type": "function"
    },
    {
      "inputs": [
        {
          "internalType": "address",
          "name": "token",
          "type": "address"
        }
      ],
      "name": "getType",
      "outputs": [
        {
          "internalType": "int256",
          "name": "",
          "type": "int256"
        }
      ],
      "stateMutability": "nonpayable",
      "type": "function"
    },
    {
      "inputs": [
        {
          "internalType": "address",
          "name": "token",
          "type": "address"
        },
        {
          "internalType": "address",
          "name": "from",
          "type": "address"
        },
        {
          "internalType": "address",
          "name": "account",
          "type": "address"
        },
        {
          "internalType": "uint256",
          "name": "amount",
          "type": "uint256"
        }
      ],
      "name": "grantKycRevokeKyc",
      "outputs": [
        {
          "internalType": "bool",
          "name": "",
          "type": "bool"
        },
        {
          "internalType": "int256",
          "name": "",
          "type": "int256"
        },
        {
          "internalType": "bool",
          "name": "",
          "type": "bool"
        },
        {
          "internalType": "int256",
          "name": "",
          "type": "int256"
        },
        {
          "internalType": "int256",
          "name": "",
          "type": "int256"
        }
      ],
      "stateMutability": "nonpayable",
      "type": "function"
    },
    {
      "inputs": [
        {
          "internalType": "address",
          "name": "token",
          "type": "address"
        },
        {
          "internalType": "address",
          "name": "owner",
          "type": "address"
        },
        {
          "internalType": "address",
          "name": "operator",
          "type": "address"
        }
      ],
      "name": "isApprovedForAllRedirect",
      "outputs": [
        {
          "internalType": "bytes",
          "name": "result",
          "type": "bytes"
        }
      ],
      "stateMutability": "nonpayable",
      "type": "function"
    },
    {
      "inputs": [
        {
          "internalType": "address",
          "name": "token",
          "type": "address"
        },
        {
          "internalType": "address",
          "name": "account",
          "type": "address"
        }
      ],
      "name": "isKycGranted",
      "outputs": [
        {
          "internalType": "bool",
          "name": "",
          "type": "bool"
        }
      ],
      "stateMutability": "nonpayable",
      "type": "function"
    },
    {
      "inputs": [
        {
          "internalType": "address",
          "name": "token",
          "type": "address"
        }
      ],
      "name": "isTokenAddress",
      "outputs": [
        {
          "internalType": "bool",
          "name": "",
          "type": "bool"
        }
      ],
      "stateMutability": "nonpayable",
      "type": "function"
    },
    {
      "inputs": [
        {
          "internalType": "address",
          "name": "token",
          "type": "address"
        },
        {
          "internalType": "address",
          "name": "account",
          "type": "address"
        }
      ],
      "name": "isTokenFrozen",
      "outputs": [
        {
          "internalType": "bool",
          "name": "",
          "type": "bool"
        }
      ],
      "stateMutability": "nonpayable",
      "type": "function"
    },
    {
      "inputs": [
        {
          "internalType": "address",
          "name": "token",
          "type": "address"
        },
        {
          "internalType": "int64",
          "name": "amount",
          "type": "int64"
        },
        {
          "internalType": "bytes[]",
          "name": "metadata",
          "type": "bytes[]"
        },
        {
          "internalType": "address",
          "name": "treasury",
          "type": "address"
        }
      ],
      "name": "mintTokenGetTotalSupplyAndBalanceOfTreasury",
      "outputs": [
        {
          "internalType": "uint256",
          "name": "",
          "type": "uint256"
        },
        {
          "internalType": "uint256",
          "name": "",
          "type": "uint256"
        },
        {
          "internalType": "int256",
          "name": "",
          "type": "int256"
        },
        {
          "internalType": "int256",
          "name": "",
          "type": "int256"
        }
      ],
      "stateMutability": "nonpayable",
      "type": "function"
    },
    {
      "inputs": [
        {
          "internalType": "address",
          "name": "token",
          "type": "address"
        }
      ],
      "name": "nameNFTRedirect",
      "outputs": [
        {
          "internalType": "bytes",
          "name": "result",
          "type": "bytes"
        }
      ],
      "stateMutability": "nonpayable",
      "type": "function"
    },
    {
      "inputs": [
        {
          "internalType": "address",
          "name": "token",
          "type": "address"
        }
      ],
      "name": "nameRedirect",
      "outputs": [
        {
          "internalType": "bytes",
          "name": "result",
          "type": "bytes"
        }
      ],
      "stateMutability": "nonpayable",
      "type": "function"
    },
    {
      "inputs": [
        {
          "internalType": "address",
          "name": "token",
          "type": "address"
        }
      ],
      "name": "pauseTokenGetPauseStatusUnpauseGetPauseStatus",
      "outputs": [
        {
          "internalType": "bool",
          "name": "",
          "type": "bool"
        },
        {
          "internalType": "bool",
          "name": "",
          "type": "bool"
        }
      ],
      "stateMutability": "nonpayable",
      "type": "function"
    },
    {
      "inputs": [
        {
          "internalType": "address",
          "name": "token",
          "type": "address"
        },
        {
          "internalType": "bytes",
          "name": "encodedFunctionSelector",
          "type": "bytes"
        }
      ],
      "name": "redirectForToken",
      "outputs": [
        {
          "internalType": "int256",
          "name": "responseCode",
          "type": "int256"
        },
        {
          "internalType": "bytes",
          "name": "response",
          "type": "bytes"
        }
      ],
      "stateMutability": "nonpayable",
      "type": "function"
    },
    {
      "inputs": [
        {
          "internalType": "address",
          "name": "token",
          "type": "address"
        },
        {
          "internalType": "address",
          "name": "operator",
          "type": "address"
        },
        {
          "internalType": "bool",
          "name": "approved",
          "type": "bool"
        }
      ],
      "name": "setApprovalForAllRedirect",
      "outputs": [
        {
          "internalType": "bytes",
          "name": "result",
          "type": "bytes"
        }
      ],
      "stateMutability": "nonpayable",
      "type": "function"
    },
    {
      "inputs": [
        {
          "internalType": "address",
          "name": "token",
          "type": "address"
        }
      ],
      "name": "symbolNFTRedirect",
      "outputs": [
        {
          "internalType": "bytes",
          "name": "result",
          "type": "bytes"
        }
      ],
      "stateMutability": "nonpayable",
      "type": "function"
    },
    {
      "inputs": [
        {
          "internalType": "address",
          "name": "token",
          "type": "address"
        }
      ],
      "name": "symbolRedirect",
      "outputs": [
        {
          "internalType": "bytes",
          "name": "result",
          "type": "bytes"
        }
      ],
      "stateMutability": "nonpayable",
      "type": "function"
    },
    {
      "inputs": [
        {
          "internalType": "address",
          "name": "token",
          "type": "address"
        },
        {
          "internalType": "uint256",
          "name": "tokenId",
          "type": "uint256"
        }
      ],
      "name": "tokenURIRedirect",
      "outputs": [
        {
          "internalType": "bytes",
          "name": "result",
          "type": "bytes"
        }
      ],
      "stateMutability": "nonpayable",
      "type": "function"
    },
    {
      "inputs": [
        {
          "internalType": "address",
          "name": "token",
          "type": "address"
        }
      ],
      "name": "totalSupplyRedirect",
      "outputs": [
        {
          "internalType": "bytes",
          "name": "result",
          "type": "bytes"
        }
      ],
      "stateMutability": "nonpayable",
      "type": "function"
    },
    {
      "inputs": [
        {
          "internalType": "address",
          "name": "token",
          "type": "address"
        },
        {
          "internalType": "address",
          "name": "from",
          "type": "address"
        },
        {
          "internalType": "address",
          "name": "to",
          "type": "address"
        },
        {
          "internalType": "uint256",
          "name": "amount",
          "type": "uint256"
        }
      ],
      "name": "transferFrom",
      "outputs": [
        {
          "internalType": "int64",
          "name": "responseCode",
          "type": "int64"
        }
      ],
      "stateMutability": "nonpayable",
      "type": "function"
    },
    {
      "inputs": [
        {
          "internalType": "address",
          "name": "token",
          "type": "address"
        },
        {
          "internalType": "address",
          "name": "from",
          "type": "address"
        },
        {
          "internalType": "address",
          "name": "to",
          "type": "address"
        },
        {
          "internalType": "uint256",
          "name": "serialNumber",
          "type": "uint256"
        }
      ],
      "name": "transferFromNFT",
      "outputs": [
        {
          "internalType": "int64",
          "name": "responseCode",
          "type": "int64"
        }
      ],
      "stateMutability": "nonpayable",
      "type": "function"
    },
    {
      "inputs": [
        {
          "internalType": "address",
          "name": "token",
          "type": "address"
        },
        {
          "internalType": "address",
          "name": "from",
          "type": "address"
        },
        {
          "internalType": "address",
          "name": "to",
          "type": "address"
        },
        {
          "internalType": "uint256",
          "name": "tokenId",
          "type": "uint256"
        }
      ],
      "name": "transferFromNFTRedirect",
      "outputs": [
        {
          "internalType": "bytes",
          "name": "result",
          "type": "bytes"
        }
      ],
      "stateMutability": "nonpayable",
      "type": "function"
    },
    {
      "inputs": [
        {
          "internalType": "address",
          "name": "token",
          "type": "address"
        },
        {
          "internalType": "address",
          "name": "sender",
          "type": "address"
        },
        {
          "internalType": "address",
          "name": "recipient",
          "type": "address"
        },
        {
          "internalType": "uint256",
          "name": "amount",
          "type": "uint256"
        }
      ],
      "name": "transferFromRedirect",
      "outputs": [
        {
          "internalType": "bytes",
          "name": "result",
          "type": "bytes"
        }
      ],
      "stateMutability": "nonpayable",
      "type": "function"
    },
    {
      "inputs": [
        {
          "internalType": "address",
          "name": "token",
          "type": "address"
        },
        {
          "internalType": "address",
          "name": "recipient",
          "type": "address"
        },
        {
          "internalType": "uint256",
          "name": "amount",
          "type": "uint256"
        }
      ],
      "name": "transferRedirect",
      "outputs": [
        {
          "internalType": "bytes",
          "name": "result",
          "type": "bytes"
        }
      ],
      "stateMutability": "nonpayable",
      "type": "function"
    },
    {
      "inputs": [
        {
          "internalType": "address",
          "name": "token",
          "type": "address"
        },
        {
          "internalType": "int64",
          "name": "amount",
          "type": "int64"
        },
        {
          "internalType": "int64[]",
          "name": "serialNumbers",
          "type": "int64[]"
        },
        {
          "internalType": "address",
          "name": "account",
          "type": "address"
        }
      ],
      "name": "wipeTokenGetTotalSupplyAndBalanceOfAccount",
      "outputs": [
        {
          "internalType": "uint256",
          "name": "",
          "type": "uint256"
        },
        {
          "internalType": "uint256",
          "name": "",
          "type": "uint256"
        },
        {
          "internalType": "int256",
          "name": "",
          "type": "int256"
        },
        {
          "internalType": "int256",
          "name": "",
          "type": "int256"
        }
      ],
      "stateMutability": "nonpayable",
      "type": "function"
    }
  ],
  "bytecode": "0x608060405234801561001057600080fd5b50615b4680620000216000396000f3fe608060405234801561001057600080fd5b50600436106102de5760003560e01c80636552dd0a11610186578063bc2fb00e116100e3578063efe60aeb11610097578063f68a81bb11610071578063f68a81bb14610701578063fa5c222414610714578063fd4d1c261461072757600080fd5b8063efe60aeb146106ba578063f1e3aea2146106cd578063f429f19b146106e057600080fd5b8063c0395467116100c8578063c03954671461060d578063d3f67d271461065b578063ebe1e5fb146106a757600080fd5b8063bc2fb00e14610681578063bff9834f1461069457600080fd5b8063971f5a0b1161013a578063af4494fb1161011f578063af4494fb14610633578063b132f4941461065b578063b51f3cf51461066e57600080fd5b8063971f5a0b1461060d5780639b23d3d91461062057600080fd5b806385dec08e1161016b57806385dec08e146105c75780638e5e7996146105da578063911ce425146105fa57600080fd5b80636552dd0a1461055757806370a063641461059d57600080fd5b806335589a131161023f5780634dc21f9f116101f35780635b391493116101cd5780635b39149314610510578063618dc65e14610523578063622488631461054457600080fd5b80634dc21f9f146104ca578063565ca6fa146104dd57806359c16f5a146104f057600080fd5b80633cc2322f116102245780633cc2322f1461046557806344f38bc8146104785780634b27d1ac1461049a57600080fd5b806335589a13146104455780633717ec981461046557600080fd5b806325004c1c1161029657806330c4a1c61161027b57806330c4a1c6146103cb578063319a87231461040f5780633232fc9f1461043257600080fd5b806325004c1c146103a55780632b2f5c66146103b857600080fd5b806315dacbea116102c757806315dacbea1461033f5780631955de0b146103655780631de8edad1461038557600080fd5b8063045c5bfe146102e357806312fe05501461030c575b600080fd5b6102f66102f1366004613d9c565b61073a565b6040516103039190613e43565b60405180910390f35b61031f61031a366004613e56565b610843565b604080519485526020850193909352918301526060820152608001610303565b61035261034d366004613e97565b610c48565b60405160079190910b8152602001610303565b610378610373366004613ee8565b610d55565b6040516103039190613f7f565b610398610393366004613f92565b610dc9565b6040516103039190613faf565b6102f66103b3366004613fe3565b610e09565b6102f66103c6366004613f92565b610ee8565b6103de6103d9366004613e97565b610fa8565b6040516103039594939291909415158552602085019390935290151560408401526060830152608082015260a00190565b61042261041d366004613f92565b61113d565b6040519015158152602001610303565b6102f6610440366004613ee8565b6111c6565b610458610453366004613f92565b6111f6565b60405161030391906143c9565b6102f6610473366004613e97565b61120a565b61048b610486366004613f92565b61130e565b604051610303939291906143dc565b6104ad6104a8366004614415565b611340565b604080519283526001600160a01b03909116602083015201610303565b61031f6104d8366004614568565b6114f8565b6104226104eb366004613fe3565b6117d0565b6105036104fe366004613f92565b611839565b604051610303919061463f565b6102f661051e366004614674565b61184d565b61053661053136600461472d565b61188a565b60405161030392919061477d565b6102f6610552366004613ee8565b6119b8565b61056a610565366004613e56565b6119e8565b604080516001600160a01b0395861681529385166020850152918416918301919091529091166060820152608001610303565b6105b06105ab366004613fe3565b611c98565b604080519215158352901515602083015201610303565b6102f66105d5366004613f92565b611da1565b6105ed6105e836600461479e565b611eb6565b60405161030391906147cc565b6102f6610608366004613e56565b611ecb565b6102f661061b366004613f92565b611f20565b61035261062e366004613e97565b611f8a565b610646610641366004614850565b611fe8565b60408051928352602083019190915201610303565b6102f6610669366004613f92565b6121ec565b6102f661067c366004614674565b612256565b61042261068f366004613fe3565b6122ac565b6104226106a2366004613f92565b612315565b61031f6106b53660046148ab565b61237d565b6105b06106c8366004613f92565b61254b565b6102f66106db366004613e56565b612665565b6106f36106ee366004613f92565b6126ba565b604051908152602001610303565b61031f61070f366004614568565b612725565b6102f6610722366004613ee8565b612972565b610422610735366004613f92565b6129a2565b6040516001600160a01b038316602482015281151560448201526060906000908190309063618dc65e9088907fa22cb46500000000000000000000000000000000000000000000000000000000906064015b60408051601f198184030181529181526020820180516001600160e01b03166001600160e01b03199485161790525160e085901b90921682526107d29291600401614989565b600060405180830381600087803b1580156107ec57600080fd5b505af1158015610800573d6000803e3d6000fd5b505050506040513d6000823e601f3d908101601f1916820160405261082891908101906149f0565b90925090506016821461083a57600080fd5b95945050505050565b600080600080600060405161085790613c47565b604051809103906000f080158015610873573d6000803e3d6000fd5b50604051636eb1769f60e11b81523060048201526001600160a01b0380831660248301529192506000918a169063dd62ed3e9060440160206040518083038186803b1580156108c157600080fd5b505afa1580156108d5573d6000803e3d6000fd5b505050506040513d601f19601f820116820180604052508101906108f99190614a2d565b6040516370a0823160e01b81526001600160a01b038a811660048301529192506000918b16906370a082319060240160206040518083038186803b15801561094057600080fd5b505afa158015610954573d6000803e3d6000fd5b505050506040513d601f19601f820116820180604052508101906109789190614a2d565b905060006109878b858b612a05565b90506109ab8160405180606001604052806021815260200161598560219139612b09565b604051636eb1769f60e11b81523060048201526001600160a01b038581166024830152600091908d169063dd62ed3e9060440160206040518083038186803b1580156109f657600080fd5b505afa158015610a0a573d6000803e3d6000fd5b505050506040513d601f19601f82011682018060405250810190610a2e9190614a2d565b9050898114610a845760405162461bcd60e51b815260206004820152601360248201527f416c6c6f77616e6365206d69736d61746368210000000000000000000000000060448201526064015b60405180910390fd5b6040517f4444fbf70000000000000000000000000000000000000000000000000000000081526001600160a01b038d81166004830152602482018c90523060448301528c81166064830152861690634444fbf790608401600060405180830381600087803b158015610af557600080fd5b505af1158015610b09573d6000803e3d6000fd5b50505050610b2f826040518060600160405280602281526020016159cf60229139612b09565b604051636eb1769f60e11b81523060048201526001600160a01b038681166024830152600091908e169063dd62ed3e9060440160206040518083038186803b158015610b7a57600080fd5b505afa158015610b8e573d6000803e3d6000fd5b505050506040513d601f19601f82011682018060405250810190610bb29190614a2d565b6040516370a0823160e01b81526001600160a01b038e811660048301529192506000918f16906370a082319060240160206040518083038186803b158015610bf957600080fd5b505afa158015610c0d573d6000803e3d6000fd5b505050506040513d601f19601f82011682018060405250810190610c319190614a2d565b959e949d50909b5093995091975050505050505050565b6040516001600160a01b0385811660248301528481166044830152831660648201526084810182905260009081908190610167907f15dacbea000000000000000000000000000000000000000000000000000000009060a4015b60408051601f198184030181529181526020820180516001600160e01b03166001600160e01b0319909416939093179092529051610ce09190614a46565b6000604051808303816000865af19150503d8060008114610d1d576040519150601f19603f3d011682016040523d82523d6000602084013e610d22565b606091505b509150915081610d33576015610d47565b80806020019051810190610d479190614a74565b60030b979650505050505050565b610d9b6040518060a0016040528060001515815260200160006001600160a01b03168152602001606081526020016060815260200160006001600160a01b031681525090565b600080610da88585612b2f565b915060070b9150601660030b8214610dbf57600080fd5b9150505b92915050565b604080516060810182526000808252602082018190529181018290529080610df084612c8c565b909250905060168214610e0257600080fd5b9392505050565b6040516001600160a01b03821660248201526060906000908190309063618dc65e9087906370a0823160e01b906044015b60408051601f198184030181529181526020820180516001600160e01b03166001600160e01b03199485161790525160e085901b9092168252610e809291600401614989565b600060405180830381600087803b158015610e9a57600080fd5b505af1158015610eae573d6000803e3d6000fd5b505050506040513d6000823e601f3d908101601f19168201604052610ed691908101906149f0565b909250905060168214610dbf57600080fd5b6040805160048082526024820183526020820180516001600160e01b03167f313ce5670000000000000000000000000000000000000000000000000000000017905291516330c6e32f60e11b81526060926000928392309263618dc65e92610f5292899201614989565b600060405180830381600087803b158015610f6c57600080fd5b505af1158015610f80573d6000803e3d6000fd5b505050506040513d6000823e601f3d908101601f19168201604052610df091908101906149f0565b6000806000806000806000806000806000610fc38f8e612d9d565b60070b9050611007816040518060400160405280601181526020017f4772616e74206b7963206661696c65642e000000000000000000000000000000815250612b09565b6110118f8e612e99565b965060070b9350601684146110685760405162461bcd60e51b815260206004820152601760248201527f4973206b7963206f7065726174696f6e206661696c65640000000000000000006044820152606401610a7b565b856110b55760405162461bcd60e51b815260206004820152601360248201527f4b796320737461747573206d69736d61746368000000000000000000000000006044820152606401610a7b565b6110bf8f8e612f8d565b60070b9050611103816040518060400160405280601281526020017f5265766f6b65206b7963206661696c65642e0000000000000000000000000000815250612b09565b61110f8f8f8f8f612fdc565b915061111b8f8e612e99565b969b5093995094975060079290920b9550909350505050945094509450945094565b600080600061114b8461303d565b909250905060168214610e025760405162461bcd60e51b815260206004820152602360248201527f676574546f6b656e44656661756c74467265657a65537461747573206661696c60448201527f65642100000000000000000000000000000000000000000000000000000000006064820152608401610a7b565b6060600080306001600160a01b031663618dc65e8663081812fc60e01b87604051602401610e3a91815260200190565b6111fe613c54565b600080610df08461313a565b604080516001600160a01b03858116602483015284166044820152606480820184905282518083039091018152608490910182526020810180516001600160e01b03167f23b872dd0000000000000000000000000000000000000000000000000000000017905290516330c6e32f60e11b81526060916000918291309163618dc65e9161129c918b9190600401614989565b600060405180830381600087803b1580156112b657600080fd5b505af11580156112ca573d6000803e3d6000fd5b505050506040513d6000823e601f3d908101601f191682016040526112f291908101906149f0565b90925090506016821461130457600080fd5b9695505050505050565b6060806060600061131e85613223565b919650945092509050600781900b60161461133857600080fd5b509193909250565b600080600084118015611351575082155b15611418576000611363878787612a05565b90506113878160405180606001604052806021815260200161598560219139612b09565b604051636eb1769f60e11b81523060048201526001600160a01b0387811660248301526000919089169063dd62ed3e9060440160206040518083038186803b1580156113d257600080fd5b505afa1580156113e6573d6000803e3d6000fd5b505050506040513d601f19601f8201168201806040525081019061140a9190614a2d565b9350600092506114ef915050565b6000611425878786613323565b9050611466816040518060400160405280601681526020017f4661696c656420746f20617070726f7665204e46542e00000000000000000000815250612b09565b60405163020604bf60e21b8152600481018590526000906001600160a01b0389169063081812fc9060240160206040518083038186803b1580156114a957600080fd5b505afa1580156114bd573d6000803e3d6000fd5b505050506040513d601f19601f820116820180604052508101906114e19190614a9a565b6000945092506114ef915050565b94509492505050565b60008060008060008060008060008b60070b13801561151657508951155b1561159b576040516370a0823160e01b81526001600160a01b038a811660048301528d16906370a082319060240160206040518083038186803b15801561155c57600080fd5b505afa158015611570573d6000803e3d6000fd5b505050506040513d601f19601f820116820180604052508101906115949190614a2d565b9350611617565b6040516370a0823160e01b81526001600160a01b038a811660048301528d16906370a082319060240160206040518083038186803b1580156115dc57600080fd5b505afa1580156115f0573d6000803e3d6000fd5b505050506040513d601f19601f820116820180604052508101906116149190614a2d565b93505b6000806116238e61313a565b91509150611649826040518060600160405280602a8152602001615a71602a9139612b09565b806020015160070b935061165e8e8e8e613379565b60408051808201909152601581527f4661696c656420746f206275726e20746f6b656e2e0000000000000000000000602082015260079190910b94509092506116a8908390612b09565b60008d60070b1380156116ba57508b51155b15611740576040516370a0823160e01b81526001600160a01b038c811660048301528f16906370a08231906024015b60206040518083038186803b15801561170157600080fd5b505afa158015611715573d6000803e3d6000fd5b505050506040513d601f19601f820116820180604052508101906117399190614a2d565b94506117bc565b6040516370a0823160e01b81526001600160a01b038c811660048301528f16906370a082319060240160206040518083038186803b15801561178157600080fd5b505afa158015611795573d6000803e3d6000fd5b505050506040513d601f19601f820116820180604052508101906117b99190614a2d565b94505b50939c929b50909950975095505050505050565b60008060006117df858561344f565b915060070b9150601660030b8214610dbf5760405162461bcd60e51b815260206004820152601660248201527f546f6b656e20697346726f7a656e206661696c656421000000000000000000006044820152606401610a7b565b611841613d0b565b600080610df0846134a0565b6040516001600160a01b038381166024830152821660448201526060906000908190309063618dc65e908890636eb1769f60e11b9060640161078c565b600060606000806101676001600160a01b031663618dc65e60e01b87876040516024016118b8929190614989565b60408051601f198184030181529181526020820180516001600160e01b03166001600160e01b03199094169390931790925290516118f69190614a46565b6000604051808303816000865af19150503d8060008114611933576040519150601f19603f3d011682016040523d82523d6000602084013e611938565b606091505b50915091507f4af4780e06fe8cb9df64b0794fa6f01399af979175bb988e35e0e57e594567bc828260405161196e929190614ab7565b60405180910390a181611992576015604051806020016040528060008152506119a6565b808060200190518101906119a69190614ad2565b60039190910b97909650945050505050565b6060600080306001600160a01b031663618dc65e86636352211e60e01b87604051602401610e3a91815260200190565b60008060008060006040516119fc90613c47565b604051809103906000f080158015611a18573d6000803e3d6000fd5b5090506000611a28898389613323565b9050611a69816040518060400160405280601681526020017f4661696c656420746f20617070726f7665204e46542e00000000000000000000815250612b09565b60405163020604bf60e21b8152600481018890526000906001600160a01b038b169063081812fc9060240160206040518083038186803b158015611aac57600080fd5b505afa158015611ac0573d6000803e3d6000fd5b505050506040513d601f19601f82011682018060405250810190611ae49190614a9a565b6040517f4adcaa710000000000000000000000000000000000000000000000000000000081526001600160a01b038c81166004830152602482018b90523060448301528b8116606483015291925090841690634adcaa7190608401600060405180830381600087803b158015611b5957600080fd5b505af1158015611b6d573d6000803e3d6000fd5b50506040517f6352211e000000000000000000000000000000000000000000000000000000008152600481018b9052600092506001600160a01b038d169150636352211e9060240160206040518083038186803b158015611bcd57600080fd5b505afa158015611be1573d6000803e3d6000fd5b505050506040513d601f19601f82011682018060405250810190611c059190614a9a565b60405163020604bf60e21b8152600481018b90529091506000906001600160a01b038d169063081812fc9060240160206040518083038186803b158015611c4b57600080fd5b505afa158015611c5f573d6000803e3d6000fd5b505050506040513d601f19601f82011682018060405250810190611c839190614a9a565b929c919b509199509297509195505050505050565b6000806000806000611caa8787613589565b60070b9050611cd181604051806060016040528060278152602001615aea60279139612b09565b600080611cde898961344f565b915060070b9150611d07836040518060600160405280602981526020016159a660299139612b09565b809450611d1489896135d8565b60070b9250611d58836040518060400160405280601b81526020017f4661696c656420746f20756e667265657a65206163636f756e742e0000000000815250612b09565b611d62898961344f565b8160070b91508092508193505050611d92836040518060600160405280602b8152602001615a46602b9139612b09565b93989397509295505050505050565b6040805160048082526024820183526020820180516001600160e01b03167f18160ddd0000000000000000000000000000000000000000000000000000000017905291516330c6e32f60e11b81526060926000928392309263618dc65e92611e0b92899201614989565b600060405180830381600087803b158015611e2557600080fd5b505af1158015611e39573d6000803e3d6000fd5b505050506040513d6000823e601f3d908101601f19168201604052611e6191908101906149f0565b909250905060168214610e025760405162461bcd60e51b815260206004820152601560248201527f546f6b656e207265646972656374206661696c656400000000000000000000006044820152606401610a7b565b611ebe613d2b565b600080610ed68585613627565b6040516001600160a01b0383166024820152604481018290526060906000908190309063618dc65e9088907f095ea7b3000000000000000000000000000000000000000000000000000000009060640161078c565b6040805160048082526024820183526020820180516001600160e01b03167f06fdde030000000000000000000000000000000000000000000000000000000017905291516330c6e32f60e11b81526060926000928392309263618dc65e92610f5292899201614989565b6040516001600160a01b0385811660248301528481166044830152831660648201526084810182905260009081908190610167907f9b23d3d9000000000000000000000000000000000000000000000000000000009060a401610ca2565b6040805160018082528183019092526000918291829160208083019080368337019050509050600080898360008151811061202557612025614b0a565b60200260200101906001600160a01b031690816001600160a01b0316815250506000612051898c61371a565b9050612092816040518060400160405280601b81526020017f4661696c656420746f206173736f636961746520746f6b656e732e0000000000815250612b09565b6000881180156120a0575086155b156120b8576120b18b8b8b8b612fdc565b92506120c7565b6120c48b8b8b8a613769565b92505b6000881180156120d5575086155b1561210f576120e68b8a8c8b612fdc565b905061210a816040518060600160405280602281526020016159cf60229139612b09565b61215c565b61211b8b8a8c8a613769565b905061215c816040518060400160405280601d81526020017f4661696c656420746f207472616e73666572204e465420746f6b656e2e000000815250612b09565b612166898c6137ca565b90506121a7816040518060400160405280601b81526020017f4661696c656420746f20646973736f636961746520746f6b656e2e0000000000815250612b09565b6000881180156121b5575086155b156121cd576121c68b8b8b8b612fdc565b91506121dc565b6121d98b8b8b8a613769565b91505b5090999098509650505050505050565b6040805160048082526024820183526020820180516001600160e01b03167f95d89b410000000000000000000000000000000000000000000000000000000017905291516330c6e32f60e11b81526060926000928392309263618dc65e92610f5292899201614989565b6040516001600160a01b038381166024830152821660448201526060906000908190309063618dc65e9088907fe985e9c5000000000000000000000000000000000000000000000000000000009060640161078c565b60008060006122bb8585612e99565b915060070b9150601660030b8214610dbf5760405162461bcd60e51b815260206004820152601360248201527f546f6b656e2069734b7963206661696c656421000000000000000000000000006044820152606401610a7b565b600080600061232384613819565b915060070b9150601660030b8214610e025760405162461bcd60e51b815260206004820152601c60248201527f546f6b656e206973546f6b656e41646472657373206661696c656421000000006044820152606401610a7b565b60008060008060008060008060008b60070b13801561239b57508951155b15612420576040516370a0823160e01b81526001600160a01b038a811660048301528d16906370a082319060240160206040518083038186803b1580156123e157600080fd5b505afa1580156123f5573d6000803e3d6000fd5b505050506040513d601f19601f820116820180604052508101906124199190614a2d565b935061249c565b6040516370a0823160e01b81526001600160a01b038a811660048301528d16906370a082319060240160206040518083038186803b15801561246157600080fd5b505afa158015612475573d6000803e3d6000fd5b505050506040513d601f19601f820116820180604052508101906124999190614a2d565b93505b6000806124a88e61313a565b915091506124eb826040518060400160405280601e81526020017f4661696c656420746f20726574726965766520746f6b656e20696e666f2e0000815250612b09565b806020015160070b93506125008e8e8e613862565b5060408051808201909152601581527f4661696c656420746f206d696e7420746f6b656e2e0000000000000000000000602082015260079190910b94509092506116a8908390612b09565b600080600080600061255c86613960565b905061259d816040518060400160405280601681526020017f4661696c656420746f20706175736520746f6b656e2e00000000000000000000815250612b09565b6000806125a98861313a565b915091506125cf83604051806060016040528060258152602001615ac560259139612b09565b806080015194506125df88613a53565b9250612620836040518060400160405280601881526020017f4661696c656420746f20756e706175736520746f6b656e2e0000000000000000815250612b09565b6126298861313a565b8092508193505050612653836040518060600160405280602c81526020016159f1602c9139612b09565b60800151939793965092945050505050565b6040516001600160a01b0383166024820152604481018290526060906000908190309063618dc65e9088907fa9059cbb000000000000000000000000000000000000000000000000000000009060640161078c565b60008060006126c884613a9a565b60030b915060070b9150601660030b8214610e025760405162461bcd60e51b815260206004820152601c60248201527f546f6b656e20747970652061707072616973616c206661696c656421000000006044820152606401610a7b565b60008080808080808060078b900b8112801561274057508951155b156127c5576040516370a0823160e01b81526001600160a01b038a811660048301528d16906370a082319060240160206040518083038186803b15801561278657600080fd5b505afa15801561279a573d6000803e3d6000fd5b505050506040513d601f19601f820116820180604052508101906127be9190614a2d565b9350612841565b6040516370a0823160e01b81526001600160a01b038a811660048301528d16906370a082319060240160206040518083038186803b15801561280657600080fd5b505afa15801561281a573d6000803e3d6000fd5b505050506040513d601f19601f8201168201806040525081019061283e9190614a2d565b93505b60008061284d8e61313a565b91509150612873826040518060600160405280602a8152602001615a9b602a9139612b09565b806020015160070b935060008d60070b13801561288f57508b51155b156128a65761289f8e8c8f613b77565b91506128b4565b6128b18e8c8e613bd0565b91505b6128f3826040518060400160405280601581526020017f4661696c656420746f207769706520746f6b656e2e0000000000000000000000815250612b09565b6128fc8e61313a565b809250819350505061292682604051806060016040528060298152602001615a1d60299139612b09565b806020015160070b925060008d60070b1380156116ba57508b51611740576040516370a0823160e01b81526001600160a01b038c811660048301528f16906370a08231906024016116e9565b6060600080306001600160a01b031663618dc65e8663c87b56dd60e01b87604051602401610e3a91815260200190565b60008060006129b084613bfe565b909250905060168214610e025760405162461bcd60e51b815260206004820181905260248201527f676574546f6b656e44656661756c744b7963537461747573206661696c6564216044820152606401610a7b565b6040516001600160a01b038481166024830152831660448201526064810182905260009081908190610167907fe1f21c6700000000000000000000000000000000000000000000000000000000906084015b60408051601f198184030181529181526020820180516001600160e01b03166001600160e01b0319909416939093179092529051612a959190614a46565b6000604051808303816000865af19150503d8060008114612ad2576040519150601f19603f3d011682016040523d82523d6000602084013e612ad7565b606091505b509150915081612ae8576015612afc565b80806020019051810190612afc9190614a74565b60030b9695505050505050565b60168214612b2b578060405162461bcd60e51b8152600401610a7b9190613e43565b5050565b6040805160a081018252600080825260208083018290526060838501819052808401526080830182905283516001600160a01b03871660248201526044808201879052855180830390910181526064909101855290810180516001600160e01b03167f3c4dd32e00000000000000000000000000000000000000000000000000000000179052925190928391829161016791612bcb9190614a46565b6000604051808303816000865af19150503d8060008114612c08576040519150601f19603f3d011682016040523d82523d6000602084013e612c0d565b606091505b5091509150612c586040518060a0016040528060001515815260200160006001600160a01b03168152602001606081526020016060815260200160006001600160a01b031681525090565b82612c6557601581612c79565b81806020019051810190612c799190614bd3565b60039190910b9890975095505050505050565b604080516060810182526000808252602080830182905282840182905283516001600160a01b038616602480830191909152855180830390910181526044909101855290810180516001600160e01b03167fd614cdb800000000000000000000000000000000000000000000000000000000179052925190928391829161016791612d179190614a46565b6000604051808303816000865af19150503d8060008114612d54576040519150601f19603f3d011682016040523d82523d6000602084013e612d59565b606091505b506040805160608101825260008082526020820181905291810191909152919350915082612d89576015816119a6565b818060200190518101906119a69190614c9a565b6040516001600160a01b0383811660248301528216604482015260009081908190610167907f8f8d7f9900000000000000000000000000000000000000000000000000000000906064015b60408051601f198184030181529181526020820180516001600160e01b03166001600160e01b0319909416939093179092529051612e269190614a46565b6000604051808303816000865af19150503d8060008114612e63576040519150601f19603f3d011682016040523d82523d6000602084013e612e68565b606091505b509150915081612e79576015612e8d565b80806020019051810190612e8d9190614a74565b60030b95945050505050565b6040516001600160a01b03838116602483015282166044820152600090819081908190610167907ff2c31ff400000000000000000000000000000000000000000000000000000000906064015b60408051601f198184030181529181526020820180516001600160e01b03166001600160e01b0319909416939093179092529051612f249190614a46565b6000604051808303816000865af19150503d8060008114612f61576040519150601f19603f3d011682016040523d82523d6000602084013e612f66565b606091505b509150915081612f7957601560006119a6565b808060200190518101906119a69190614cce565b6040516001600160a01b0383811660248301528216604482015260009081908190610167907faf99c6330000000000000000000000000000000000000000000000000000000090606401612de8565b6040516001600160a01b038581166024830152848116604483015283166064820152600782900b608482015260009081908190610167907feca36917000000000000000000000000000000000000000000000000000000009060a401610ca2565b6040516001600160a01b0382166024820152600090819081908190610167907fa7daa18d00000000000000000000000000000000000000000000000000000000906044015b60408051601f198184030181529181526020820180516001600160e01b03166001600160e01b03199094169390931790925290516130c09190614a46565b6000604051808303816000865af19150503d80600081146130fd576040519150601f19603f3d011682016040523d82523d6000602084013e613102565b606091505b5091509150816131155760156000613129565b808060200190518101906131299190614cce565b60039190910b969095509350505050565b6000613144613c54565b604080516001600160a01b03851660248083019190915282518083039091018152604490910182526020810180516001600160e01b03167f1f69565f0000000000000000000000000000000000000000000000000000000017905290516000918291610167916131b391614a46565b6000604051808303816000865af19150503d80600081146131f0576040519150601f19603f3d011682016040523d82523d6000602084013e6131f5565b606091505b5091509150613202613c54565b8261320f576015816119a6565b818060200190518101906119a69190615288565b604080516001600160a01b03831660248083019190915282518083039091018152604490910182526020810180516001600160e01b03167fae7611a000000000000000000000000000000000000000000000000000000000179052905160009160609182918291859182916101679161329b91614a46565b6000604051808303816000865af19150503d80600081146132d8576040519150601f19603f3d011682016040523d82523d6000602084013e6132dd565b606091505b50915091506060806060846132f657601583838361330a565b8380602001905181019061330a91906152cc565b60039390930b9d919c509a509098509650505050505050565b6040516001600160a01b038481166024830152831660448201526064810182905260009081908190610167907f7336aaf00000000000000000000000000000000000000000000000000000000090608401612a57565b6000806000806101676001600160a01b031663d6910d0660e01b8888886040516024016133a893929190615398565b60408051601f198184030181529181526020820180516001600160e01b03166001600160e01b03199094169390931790925290516133e69190614a46565b6000604051808303816000865af19150503d8060008114613423576040519150601f19603f3d011682016040523d82523d6000602084013e613428565b606091505b50915091508161343b5760156000612c79565b80806020019051810190612c7991906153c3565b6040516001600160a01b03838116602483015282166044820152600090819081908190610167907f46de0fb10000000000000000000000000000000000000000000000000000000090606401612ee6565b60006134aa613d0b565b604080516001600160a01b03851660248083019190915282518083039091018152604490910182526020810180516001600160e01b03167f3f28a19b00000000000000000000000000000000000000000000000000000000179052905160009182916101679161351991614a46565b6000604051808303816000865af19150503d8060008114613556576040519150601f19603f3d011682016040523d82523d6000602084013e61355b565b606091505b5091509150613568613d0b565b82613575576015816119a6565b818060200190518101906119a691906153ef565b6040516001600160a01b0383811660248301528216604482015260009081908190610167907f5b8f85840000000000000000000000000000000000000000000000000000000090606401612de8565b6040516001600160a01b0383811660248301528216604482015260009081908190610167907f52f913870000000000000000000000000000000000000000000000000000000090606401612de8565b6000613631613d2b565b604080516001600160a01b0386166024820152600785900b60448083019190915282518083039091018152606490910182526020810180516001600160e01b03167f287e1da80000000000000000000000000000000000000000000000000000000017905290516000918291610167916136aa91614a46565b6000604051808303816000865af19150503d80600081146136e7576040519150601f19603f3d011682016040523d82523d6000602084013e6136ec565b606091505b50915091506136f9613d2b565b8261370657601581612c79565b81806020019051810190612c799190615496565b6040516001600160a01b0383811660248301528216604482015260009081908190610167907f49146bde0000000000000000000000000000000000000000000000000000000090606401612de8565b6040516001600160a01b038581166024830152848116604483015283166064820152600782900b608482015260009081908190610167907f5cfc9011000000000000000000000000000000000000000000000000000000009060a401610ca2565b6040516001600160a01b0383811660248301528216604482015260009081908190610167907f099794e80000000000000000000000000000000000000000000000000000000090606401612de8565b6040516001600160a01b0382166024820152600090819081908190610167907f19f373610000000000000000000000000000000000000000000000000000000090604401613082565b60008060606000806101676001600160a01b031663e0f4059a60e01b8989896040516024016138939392919061557e565b60408051601f198184030181529181526020820180516001600160e01b03166001600160e01b03199094169390931790925290516138d19190614a46565b6000604051808303816000865af19150503d806000811461390e576040519150601f19603f3d011682016040523d82523d6000602084013e613913565b606091505b50915091508161393657604080516000808252602082019092526015919061394a565b8080602001905181019061394a91906155fb565b60039290920b9a90995090975095505050505050565b6040516001600160a01b038216602482015260009081908190610167907f7c41ad2c00000000000000000000000000000000000000000000000000000000906044015b60408051601f198184030181529181526020820180516001600160e01b03166001600160e01b03199094169390931790925290516139e19190614a46565b6000604051808303816000865af19150503d8060008114613a1e576040519150601f19603f3d011682016040523d82523d6000602084013e613a23565b606091505b509150915081613a34576015613a48565b80806020019051810190613a489190614a74565b60030b949350505050565b6040516001600160a01b038216602482015260009081908190610167907f3b3bff0f00000000000000000000000000000000000000000000000000000000906044016139a3565b604080516001600160a01b03831660248083019190915282518083039091018152604490910182526020810180516001600160e01b03167f93272baf00000000000000000000000000000000000000000000000000000000179052905160009182918291829161016791613b0d91614a46565b6000604051808303816000865af19150503d8060008114613b4a576040519150601f19603f3d011682016040523d82523d6000602084013e613b4f565b606091505b509150915081613b63576015600019613129565b8080602001905181019061312991906156bb565b6040516001600160a01b03848116602483015283166044820152600782900b606482015260009081908190610167907fefef57f90000000000000000000000000000000000000000000000000000000090608401612a57565b60008060006101676001600160a01b031663f7f38e2660e01b878787604051602401612a57939291906156e5565b6040516001600160a01b0382166024820152600090819081908190610167907f335e04c10000000000000000000000000000000000000000000000000000000090604401613082565b6102738061571283390190565b60408051610240810182526060610120820181815261014083018290526000610160840181905261018084018390526101a084018190526101c084018190526101e0840181905261020084018390528451928301855280835260208301819052938201939093526102208201529081908152602001600060070b8152602001600015158152602001600015158152602001600015158152602001606081526020016060815260200160608152602001606081525090565b6040518060400160405280613d1e613c54565b8152600060209091015290565b6040518060c00160405280613d3e613c54565b8152600060208201819052604082018190526060808301829052608083015260a09091015290565b6001600160a01b0381168114613d7b57600080fd5b50565b8035613d8981613d66565b919050565b8015158114613d7b57600080fd5b600080600060608486031215613db157600080fd5b8335613dbc81613d66565b92506020840135613dcc81613d66565b91506040840135613ddc81613d8e565b809150509250925092565b60005b83811015613e02578181015183820152602001613dea565b83811115613e11576000848401525b50505050565b60008151808452613e2f816020860160208601613de7565b601f01601f19169290920160200192915050565b602081526000610e026020830184613e17565b600080600060608486031215613e6b57600080fd5b8335613e7681613d66565b92506020840135613e8681613d66565b929592945050506040919091013590565b60008060008060808587031215613ead57600080fd5b8435613eb881613d66565b93506020850135613ec881613d66565b92506040850135613ed881613d66565b9396929550929360600135925050565b60008060408385031215613efb57600080fd5b8235613f0681613d66565b946020939093013593505050565b805115158252600060208201516001600160a01b0380821660208601526040840151915060a06040860152613f4c60a0860183613e17565b915060608401518583036060870152613f658382613e17565b925050806080850151166080860152508091505092915050565b602081526000610e026020830184613f14565b600060208284031215613fa457600080fd5b8135610e0281613d66565b60608101610dc38284805160070b82526001600160a01b036020820151166020830152604081015160070b60408301525050565b60008060408385031215613ff657600080fd5b823561400181613d66565b9150602083013561401181613d66565b809150509250929050565b600081518084526020808501808196508360051b8101915082860160005b85811015614078578284038952815180518552850151604086860181905261406481870183613f14565b9a87019a955050509084019060010161403a565b5091979650505050505050565b6000610160825181855261409b82860182613e17565b915050602083015184820360208601526140b58282613e17565b91505060408301516140d260408601826001600160a01b03169052565b50606083015184820360608601526140ea8282613e17565b9150506080830151614100608086018215159052565b5060a083015161411560a086018260070b9052565b5060c083015161412960c086018215159052565b5060e083015184820360e0860152614141828261401c565b9150506101008084015161417d82870182805160070b82526001600160a01b036020820151166020830152604081015160070b60408301525050565b5090949350505050565b600081518084526020808501945080840160005b838110156141f4578151805160070b8852838101516001600160a01b03908116858a01526040808301511515908a01526060808301511515908a0152608091820151169088015260a0909601959082019060010161419b565b509495945050505050565b600081518084526020808501945080840160005b838110156141f45781518051600790810b895284820151810b858a0152604080830151820b908a015260608083015190910b9089015260808082015115159089015260a0908101516001600160a01b03169088015260c09096019590820190600101614213565b600081518084526020808501945080840160005b838110156141f45781518051600790810b895284820151810b858a015260408083015190910b908901526060808201516001600160a01b03908116918a01919091526080808301511515908a015260a091820151169088015260c0909601959082019060010161428e565b6000610120825181855261430f82860182614085565b9150506020830151614326602086018260070b9052565b50604083015161433a604086018215159052565b50606083015161434e606086018215159052565b506080830151614362608086018215159052565b5060a083015184820360a086015261437a8282614187565b91505060c083015184820360c086015261439482826141ff565b91505060e083015184820360e08601526143ae828261427a565b91505061010080840151858303828701526113048382613e17565b602081526000610e0260208301846142f9565b6060815260006143ef6060830186614187565b828103602084015261440181866141ff565b90508281036040840152611304818561427a565b6000806000806080858703121561442b57600080fd5b843561443681613d66565b9350602085013561444681613d66565b93969395505050506040820135916060013590565b8060070b8114613d7b57600080fd5b634e487b7160e01b600052604160045260246000fd5b60405160a0810167ffffffffffffffff811182821017156144a3576144a361446a565b60405290565b6040805190810167ffffffffffffffff811182821017156144a3576144a361446a565b604051610120810167ffffffffffffffff811182821017156144a3576144a361446a565b60405160c0810167ffffffffffffffff811182821017156144a3576144a361446a565b604051601f8201601f1916810167ffffffffffffffff8111828210171561453c5761453c61446a565b604052919050565b600067ffffffffffffffff82111561455e5761455e61446a565b5060051b60200190565b6000806000806080858703121561457e57600080fd5b843561458981613d66565b935060208581013561459a8161445b565b9350604086013567ffffffffffffffff8111156145b657600080fd5b8601601f810188136145c757600080fd5b80356145da6145d582614544565b614513565b81815260059190911b8201830190838101908a8311156145f957600080fd5b928401925b828410156146205783356146118161445b565b825292840192908401906145fe565b809650505050505061463460608601613d7e565b905092959194509250565b60208152600082516040602084015261465b60608401826142f9565b9050602084015160030b60408401528091505092915050565b60008060006060848603121561468957600080fd5b833561469481613d66565b925060208401356146a481613d66565b91506040840135613ddc81613d66565b600067ffffffffffffffff8211156146ce576146ce61446a565b50601f01601f191660200190565b600082601f8301126146ed57600080fd5b81356146fb6145d5826146b4565b81815284602083860101111561471057600080fd5b816020850160208301376000918101602001919091529392505050565b6000806040838503121561474057600080fd5b823561474b81613d66565b9150602083013567ffffffffffffffff81111561476757600080fd5b614773858286016146dc565b9150509250929050565b8281526040602082015260006147966040830184613e17565b949350505050565b600080604083850312156147b157600080fd5b82356147bc81613d66565b915060208301356140118161445b565b602081526000825160c060208401526147e860e08401826142f9565b9050602084015160070b604084015260408401516001600160a01b038082166060860152606086015160070b608086015260808601519150601f198584030160a08601526148368383613e17565b92508060a08701511660c086015250508091505092915050565b600080600080600060a0868803121561486857600080fd5b853561487381613d66565b9450602086013561488381613d66565b9350604086013561489381613d66565b94979396509394606081013594506080013592915050565b600080600080608085870312156148c157600080fd5b84356148cc81613d66565b93506020858101356148dd8161445b565b9350604086013567ffffffffffffffff808211156148fa57600080fd5b818801915088601f83011261490e57600080fd5b813561491c6145d582614544565b81815260059190911b8301840190848101908b83111561493b57600080fd5b8585015b83811015614973578035858111156149575760008081fd5b6149658e89838a01016146dc565b84525091860191860161493f565b5080975050505050505061463460608601613d7e565b6001600160a01b03831681526040602082015260006147966040830184613e17565b600082601f8301126149bc57600080fd5b81516149ca6145d5826146b4565b8181528460208386010111156149df57600080fd5b610dbf826020830160208701613de7565b60008060408385031215614a0357600080fd5b82519150602083015167ffffffffffffffff811115614a2157600080fd5b614773858286016149ab565b600060208284031215614a3f57600080fd5b5051919050565b60008251614a58818460208701613de7565b9190910192915050565b8051600381900b8114613d8957600080fd5b600060208284031215614a8657600080fd5b610e0282614a62565b8051613d8981613d66565b600060208284031215614aac57600080fd5b8151610e0281613d66565b82151581526040602082015260006147966040830184613e17565b60008060408385031215614ae557600080fd5b614aee83614a62565b9150602083015167ffffffffffffffff811115614a2157600080fd5b634e487b7160e01b600052603260045260246000fd5b8051613d8981613d8e565b600060a08284031215614b3d57600080fd5b614b45614480565b90508151614b5281613d8e565b81526020820151614b6281613d66565b6020820152604082015167ffffffffffffffff80821115614b8257600080fd5b614b8e858386016149ab565b60408401526060840151915080821115614ba757600080fd5b50614bb4848285016149ab565b6060830152506080820151614bc881613d66565b608082015292915050565b60008060408385031215614be657600080fd5b614bef83614a62565b9150602083015167ffffffffffffffff811115614c0b57600080fd5b61477385828601614b2b565b8051613d898161445b565b600060608284031215614c3457600080fd5b6040516060810181811067ffffffffffffffff82111715614c5757614c5761446a565b80604052508091508251614c6a8161445b565b81526020830151614c7a81613d66565b60208201526040830151614c8d8161445b565b6040919091015292915050565b60008060808385031215614cad57600080fd5b614cb683614a62565b9150614cc58460208501614c22565b90509250929050565b60008060408385031215614ce157600080fd5b614cea83614a62565b9150602083015161401181613d8e565b600082601f830112614d0b57600080fd5b81516020614d1b6145d583614544565b82815260059290921b84018101918181019086841115614d3a57600080fd5b8286015b84811015614dbc57805167ffffffffffffffff80821115614d5f5760008081fd5b908801906040828b03601f1901811315614d795760008081fd5b614d816144a9565b838801518152908301519082821115614d9a5760008081fd5b614da88c8984870101614b2b565b818901528652505050918301918301614d3e565b509695505050505050565b60006101608284031215614dda57600080fd5b614de26144cc565b9050815167ffffffffffffffff80821115614dfc57600080fd5b614e08858386016149ab565b83526020840151915080821115614e1e57600080fd5b614e2a858386016149ab565b6020840152614e3b60408501614a8f565b60408401526060840151915080821115614e5457600080fd5b614e60858386016149ab565b6060840152614e7160808501614b20565b6080840152614e8260a08501614c17565b60a0840152614e9360c08501614b20565b60c084015260e0840151915080821115614eac57600080fd5b50614eb984828501614cfa565b60e083015250610100614ece84828501614c22565b9082015292915050565b600082601f830112614ee957600080fd5b81516020614ef96145d583614544565b82815260a09283028501820192828201919087851115614f1857600080fd5b8387015b85811015614fa05781818a031215614f345760008081fd5b614f3c614480565b8151614f478161445b565b815281860151614f5681613d66565b81870152604082810151614f6981613d8e565b90820152606082810151614f7c81613d8e565b90820152608082810151614f8f81613d66565b908201528452928401928101614f1c565b5090979650505050505050565b600082601f830112614fbe57600080fd5b81516020614fce6145d583614544565b82815260c09283028501820192828201919087851115614fed57600080fd5b8387015b85811015614fa05781818a0312156150095760008081fd5b6150116144f0565b815161501c8161445b565b81528186015161502b8161445b565b8187015260408281015161503e8161445b565b908201526060828101516150518161445b565b9082015260808281015161506481613d8e565b9082015260a08281015161507781613d66565b908201528452928401928101614ff1565b600082601f83011261509957600080fd5b815160206150a96145d583614544565b82815260c092830285018201928282019190878511156150c857600080fd5b8387015b85811015614fa05781818a0312156150e45760008081fd5b6150ec6144f0565b81516150f78161445b565b8152818601516151068161445b565b818701526040828101516151198161445b565b9082015260608281015161512c81613d66565b9082015260808281015161513f81613d8e565b9082015260a08281015161515281613d66565b9082015284529284019281016150cc565b6000610120828403121561517657600080fd5b61517e6144cc565b9050815167ffffffffffffffff8082111561519857600080fd5b6151a485838601614dc7565b83526151b260208501614c17565b60208401526151c360408501614b20565b60408401526151d460608501614b20565b60608401526151e560808501614b20565b608084015260a08401519150808211156151fe57600080fd5b61520a85838601614ed8565b60a084015260c084015191508082111561522357600080fd5b61522f85838601614fad565b60c084015260e084015191508082111561524857600080fd5b61525485838601615088565b60e08401526101009150818401518181111561526f57600080fd5b61527b868287016149ab565b8385015250505092915050565b6000806040838503121561529b57600080fd5b6152a483614a62565b9150602083015167ffffffffffffffff8111156152c057600080fd5b61477385828601615163565b600080600080608085870312156152e257600080fd5b6152eb85614a62565b9350602085015167ffffffffffffffff8082111561530857600080fd5b61531488838901614ed8565b9450604087015191508082111561532a57600080fd5b61533688838901614fad565b9350606087015191508082111561534c57600080fd5b5061535987828801615088565b91505092959194509250565b600081518084526020808501945080840160005b838110156141f457815160070b87529582019590820190600101615379565b6001600160a01b03841681528260070b602082015260606040820152600061083a6060830184615365565b600080604083850312156153d657600080fd5b6153df83614a62565b915060208301516140118161445b565b6000806040838503121561540257600080fd5b61540b83614a62565b9150602083015167ffffffffffffffff8082111561542857600080fd5b908401906040828703121561543c57600080fd5b6040516040810181811083821117156154575761545761446a565b60405282518281111561546957600080fd5b61547588828601615163565b82525061548460208401614a62565b60208201528093505050509250929050565b600080604083850312156154a957600080fd5b6154b283614a62565b9150602083015167ffffffffffffffff808211156154cf57600080fd5b9084019060c082870312156154e357600080fd5b6154eb6144f0565b8251828111156154fa57600080fd5b61550688828601615163565b82525061551560208401614c17565b602082015261552660408401614a8f565b604082015261553760608401614c17565b606082015260808301518281111561554e57600080fd5b61555a888286016149ab565b60808301525061556c60a08401614a8f565b60a08201528093505050509250929050565b6000606082016001600160a01b038616835260208560070b818501526060604085015281855180845260808601915060808160051b870101935082870160005b828110156155ec57607f198887030184526155da868351613e17565b955092840192908401906001016155be565b50939998505050505050505050565b60008060006060848603121561561057600080fd5b61561984614a62565b925060208085015161562a8161445b565b604086015190935067ffffffffffffffff81111561564757600080fd5b8501601f8101871361565857600080fd5b80516156666145d582614544565b81815260059190911b8201830190838101908983111561568557600080fd5b928401925b828410156156ac57835161569d8161445b565b8252928401929084019061568a565b80955050505050509250925092565b600080604083850312156156ce57600080fd5b6156d783614a62565b9150614cc560208401614a62565b60006001600160a01b0380861683528085166020840152506060604083015261083a606083018461536556fe608060405234801561001057600080fd5b50610253806100206000396000f3fe608060405234801561001057600080fd5b50600436106100365760003560e01c80634444fbf71461003b5780634adcaa7114610050575b600080fd5b61004e6100493660046101a7565b610063565b005b61004e61005e3660046101a7565b610101565b6040516323b872dd60e01b815273ffffffffffffffffffffffffffffffffffffffff83811660048301528281166024830152604482018590528516906323b872dd90606401602060405180830381600087803b1580156100c257600080fd5b505af11580156100d6573d6000803e3d6000fd5b505050506040513d601f19601f820116820180604052508101906100fa91906101f4565b5050505050565b6040516323b872dd60e01b815273ffffffffffffffffffffffffffffffffffffffff83811660048301528281166024830152604482018590528516906323b872dd90606401600060405180830381600087803b15801561016057600080fd5b505af1158015610174573d6000803e3d6000fd5b5050505050505050565b803573ffffffffffffffffffffffffffffffffffffffff811681146101a257600080fd5b919050565b600080600080608085870312156101bd57600080fd5b6101c68561017e565b9350602085013592506101db6040860161017e565b91506101e96060860161017e565b905092959194509250565b60006020828403121561020657600080fd5b8151801515811461021657600080fd5b939250505056fea2646970667358221220e367c0dc846e218bf78a1646c5e3b5cf39755eafb0d625129aaa2ce4b71e8e7064736f6c634300080900334661696c656420746f20617070726f76652046756e6769626c6520746f6b656e2e4661696c656420746f20636865636b20667265657a6520737461747573206f66206163636f756e742e4661696c656420746f207472616e736665722046756e6769626c6520746f6b656e2e4661696c656420746f20726574726965766520746f6b656e20696e666f20616674657220756e70617573652e4661696c656420746f20726574726965766520746f6b656e20696e666f20616674657220776970652e4661696c656420746f20636865636b20756e667265657a6520737461747573206f66206163636f756e742e4661696c656420746f20726574726965766520746f6b656e20696e666f206265666f7265206275726e2e4661696c656420746f20726574726965766520746f6b656e20696e666f206265666f726520776970652e4661696c656420746f2067657420746f6b656e20696e666f2061667465722070617573652e4661696c656420746f20667265657a6520746f6b656e20666f7220746865206163636f756e742ea264697066735822122070d2f3609b62c834bd2438f29af05bb4ca5d3cc08cf35deb0a48462c202d3bdf64736f6c63430008090033",
  "linkReferences": {},
  "deployedLinkReferences": {}
}