{
  "_format": "hh-sol-artifact-1",
  "contractName": "PrecompileTestContract",
  "sourceName": "contracts/PrecompileTestContract.sol",
  "abi": [
    {
      "anonymous": false,
      "inputs": [
        {
          "indexed": false,
          "internalType": "bool",
          "name": "",
          "type": "bool"
        },
        {
          "indexed": false,
          "internalType": "bytes",
          "name": "",
          "type": "bytes"
        }
      ],
      "name": "CallResponseEvent",
      "type": "event"
    },
    {
      "inputs": [
        {
          "internalType": "address",
          "name": "token",
          "type": "address"
        },
        {
          "internalType": "address",
          "name": "owner",
          "type": "address"
        },
        {
          "internalType": "address",
          "name": "spender",
          "type": "address"
        }
      ],
      "name": "allowanceRedirect",
      "outputs": [
        {
          "internalType": "bytes",
          "name": "result",
          "type": "bytes"
        }
      ],
      "stateMutability": "nonpayable",
      "type": "function"
    },
    {
      "inputs": [
        {
          "internalType": "address",
          "name": "token",
          "type": "address"
        },
        {
          "internalType": "address",
          "name": "spender",
          "type": "address"
        },
        {
          "internalType": "uint256",
          "name": "amount",
          "type": "uint256"
        }
      ],
      "name": "approveFungibleTokenTransferFromGetAllowanceGetBalance",
      "outputs": [
        {
          "internalType": "uint256",
          "name": "",
          "type": "uint256"
        },
        {
          "internalType": "uint256",
          "name": "",
          "type": "uint256"
        },
        {
          "internalType": "uint256",
          "name": "",
          "type": "uint256"
        },
        {
          "internalType": "uint256",
          "name": "",
          "type": "uint256"
        }
      ],
      "stateMutability": "nonpayable",
      "type": "function"
    },
    {
      "inputs": [
        {
          "internalType": "address",
          "name": "token",
          "type": "address"
        },
        {
          "internalType": "address",
          "name": "spender",
          "type": "address"
        },
        {
          "internalType": "uint256",
          "name": "serialNumber",
          "type": "uint256"
        }
      ],
      "name": "approveNftAndTransfer",
      "outputs": [
        {
          "internalType": "address",
          "name": "",
          "type": "address"
        },
        {
          "internalType": "address",
          "name": "",
          "type": "address"
        },
        {
          "internalType": "address",
          "name": "",
          "type": "address"
        }
      ],
      "stateMutability": "nonpayable",
      "type": "function"
    },
    {
      "inputs": [
        {
          "internalType": "address",
          "name": "token",
          "type": "address"
        },
        {
          "internalType": "address",
          "name": "spender",
          "type": "address"
        },
        {
          "internalType": "uint256",
          "name": "amount",
          "type": "uint256"
        }
      ],
      "name": "approveRedirect",
      "outputs": [
        {
          "internalType": "bytes",
          "name": "result",
          "type": "bytes"
        }
      ],
      "stateMutability": "nonpayable",
      "type": "function"
    },
    {
      "inputs": [
        {
          "internalType": "address",
          "name": "token",
          "type": "address"
        },
        {
          "internalType": "address",
          "name": "spender",
          "type": "address"
        },
        {
          "internalType": "uint256",
          "name": "amount",
          "type": "uint256"
        },
        {
          "internalType": "uint256",
          "name": "serialNumber",
          "type": "uint256"
        }
      ],
      "name": "approveTokenGetAllowance",
      "outputs": [
        {
          "internalType": "uint256",
          "name": "",
          "type": "uint256"
        },
        {
          "internalType": "address",
          "name": "",
          "type": "address"
        }
      ],
      "stateMutability": "nonpayable",
      "type": "function"
    },
    {
      "inputs": [
        {
          "internalType": "address",
          "name": "token",
          "type": "address"
        },
        {
          "internalType": "address",
          "name": "from",
          "type": "address"
        },
        {
          "internalType": "address",
          "name": "to",
          "type": "address"
        },
        {
          "internalType": "uint256",
          "name": "amount",
          "type": "uint256"
        },
        {
          "internalType": "uint256",
          "name": "serialNumber",
          "type": "uint256"
        }
      ],
      "name": "associateTokenDissociateFailTransfer",
      "outputs": [
        {
          "internalType": "int256",
          "name": "",
          "type": "int256"
        },
        {
          "internalType": "int256",
          "name": "",
          "type": "int256"
        }
      ],
      "stateMutability": "nonpayable",
      "type": "function"
    },
    {
      "inputs": [
        {
          "internalType": "address",
          "name": "token",
          "type": "address"
        },
        {
          "internalType": "address",
          "name": "account",
          "type": "address"
        }
      ],
      "name": "balanceOfRedirect",
      "outputs": [
        {
          "internalType": "bytes",
          "name": "result",
          "type": "bytes"
        }
      ],
      "stateMutability": "nonpayable",
      "type": "function"
    },
    {
      "inputs": [
        {
          "internalType": "address",
          "name": "token",
          "type": "address"
        },
        {
          "internalType": "int64",
          "name": "amount",
          "type": "int64"
        },
        {
          "internalType": "int64[]",
          "name": "serialNumbers",
          "type": "int64[]"
        },
        {
          "internalType": "address",
          "name": "treasury",
          "type": "address"
        }
      ],
      "name": "burnTokenGetTotalSupplyAndBalanceOfTreasury",
      "outputs": [
        {
          "internalType": "uint256",
          "name": "",
          "type": "uint256"
        },
        {
          "internalType": "uint256",
          "name": "",
          "type": "uint256"
        },
        {
          "internalType": "int256",
          "name": "",
          "type": "int256"
        },
        {
          "internalType": "int256",
          "name": "",
          "type": "int256"
        }
      ],
      "stateMutability": "nonpayable",
      "type": "function"
    },
    {
      "inputs": [
        {
          "internalType": "address",
          "name": "token",
          "type": "address"
        }
      ],
      "name": "decimalsRedirect",
      "outputs": [
        {
          "internalType": "bytes",
          "name": "result",
          "type": "bytes"
        }
      ],
      "stateMutability": "nonpayable",
      "type": "function"
    },
    {
      "inputs": [
        {
          "internalType": "address",
          "name": "token",
          "type": "address"
        },
        {
          "internalType": "address",
          "name": "account",
          "type": "address"
        }
      ],
      "name": "freezeTokenGetFreezeStatusUnfreezeGetFreezeStatus",
      "outputs": [
        {
          "internalType": "bool",
          "name": "",
          "type": "bool"
        },
        {
          "internalType": "bool",
          "name": "",
          "type": "bool"
        }
      ],
      "stateMutability": "nonpayable",
      "type": "function"
    },
    {
      "inputs": [
        {
          "internalType": "address",
          "name": "token",
          "type": "address"
        },
        {
          "internalType": "uint256",
          "name": "tokenId",
          "type": "uint256"
        }
      ],
      "name": "getApprovedRedirect",
      "outputs": [
        {
          "internalType": "bytes",
          "name": "result",
          "type": "bytes"
        }
      ],
      "stateMutability": "nonpayable",
      "type": "function"
    },
    {
      "inputs": [
        {
          "internalType": "address",
          "name": "token",
          "type": "address"
        }
      ],
      "name": "getCustomFeesForToken",
      "outputs": [
        {
          "components": [
            {
              "internalType": "int64",
              "name": "amount",
              "type": "int64"
            },
            {
              "internalType": "address",
              "name": "tokenId",
              "type": "address"
            },
            {
              "internalType": "bool",
              "name": "useHbarsForPayment",
              "type": "bool"
            },
            {
              "internalType": "bool",
              "name": "useCurrentTokenForPayment",
              "type": "bool"
            },
            {
              "internalType": "address",
              "name": "feeCollector",
              "type": "address"
            }
          ],
          "internalType": "struct IHederaTokenService.FixedFee[]",
          "name": "fixedFees",
          "type": "tuple[]"
        },
        {
          "components": [
            {
              "internalType": "int64",
              "name": "numerator",
              "type": "int64"
            },
            {
              "internalType": "int64",
              "name": "denominator",
              "type": "int64"
            },
            {
              "internalType": "int64",
              "name": "minimumAmount",
              "type": "int64"
            },
            {
              "internalType": "int64",
              "name": "maximumAmount",
              "type": "int64"
            },
            {
              "internalType": "bool",
              "name": "netOfTransfers",
              "type": "bool"
            },
            {
              "internalType": "address",
              "name": "feeCollector",
              "type": "address"
            }
          ],
          "internalType": "struct IHederaTokenService.FractionalFee[]",
          "name": "fractionalFees",
          "type": "tuple[]"
        },
        {
          "components": [
            {
              "internalType": "int64",
              "name": "numerator",
              "type": "int64"
            },
            {
              "internalType": "int64",
              "name": "denominator",
              "type": "int64"
            },
            {
              "internalType": "int64",
              "name": "amount",
              "type": "int64"
            },
            {
              "internalType": "address",
              "name": "tokenId",
              "type": "address"
            },
            {
              "internalType": "bool",
              "name": "useHbarsForPayment",
              "type": "bool"
            },
            {
              "internalType": "address",
              "name": "feeCollector",
              "type": "address"
            }
          ],
          "internalType": "struct IHederaTokenService.RoyaltyFee[]",
          "name": "royaltyFees",
          "type": "tuple[]"
        }
      ],
      "stateMutability": "nonpayable",
      "type": "function"
    },
    {
      "inputs": [
        {
          "internalType": "address",
          "name": "token",
          "type": "address"
        }
      ],
      "name": "getExpiryInfoForToken",
      "outputs": [
        {
          "components": [
            {
              "internalType": "int64",
              "name": "second",
              "type": "int64"
            },
            {
              "internalType": "address",
              "name": "autoRenewAccount",
              "type": "address"
            },
            {
              "internalType": "int64",
              "name": "autoRenewPeriod",
              "type": "int64"
            }
          ],
          "internalType": "struct IHederaTokenService.Expiry",
          "name": "expiry",
          "type": "tuple"
        }
      ],
      "stateMutability": "nonpayable",
      "type": "function"
    },
    {
      "inputs": [
        {
          "internalType": "address",
          "name": "token",
          "type": "address"
        }
      ],
      "name": "getInformationForFungibleToken",
      "outputs": [
        {
          "components": [
            {
              "components": [
                {
                  "components": [
                    {
                      "internalType": "string",
                      "name": "name",
                      "type": "string"
                    },
                    {
                      "internalType": "string",
                      "name": "symbol",
                      "type": "string"
                    },
                    {
                      "internalType": "address",
                      "name": "treasury",
                      "type": "address"
                    },
                    {
                      "internalType": "string",
                      "name": "memo",
                      "type": "string"
                    },
                    {
                      "internalType": "bool",
                      "name": "tokenSupplyType",
                      "type": "bool"
                    },
                    {
                      "internalType": "int64",
                      "name": "maxSupply",
                      "type": "int64"
                    },
                    {
                      "internalType": "bool",
                      "name": "freezeDefault",
                      "type": "bool"
                    },
                    {
                      "components": [
                        {
                          "internalType": "uint256",
                          "name": "keyType",
                          "type": "uint256"
                        },
                        {
                          "components": [
                            {
                              "internalType": "bool",
                              "name": "inheritAccountKey",
                              "type": "bool"
                            },
                            {
                              "internalType": "address",
                              "name": "contractId",
                              "type": "address"
                            },
                            {
                              "internalType": "bytes",
                              "name": "ed25519",
                              "type": "bytes"
                            },
                            {
                              "internalType": "bytes",
                              "name": "ECDSA_secp256k1",
                              "type": "bytes"
                            },
                            {
                              "internalType": "address",
                              "name": "delegatableContractId",
                              "type": "address"
                            }
                          ],
                          "internalType": "struct IHederaTokenService.KeyValue",
                          "name": "key",
                          "type": "tuple"
                        }
                      ],
                      "internalType": "struct IHederaTokenService.TokenKey[]",
                      "name": "tokenKeys",
                      "type": "tuple[]"
                    },
                    {
                      "components": [
                        {
                          "internalType": "int64",
                          "name": "second",
                          "type": "int64"
                        },
                        {
                          "internalType": "address",
                          "name": "autoRenewAccount",
                          "type": "address"
                        },
                        {
                          "internalType": "int64",
                          "name": "autoRenewPeriod",
                          "type": "int64"
                        }
                      ],
                      "internalType": "struct IHederaTokenService.Expiry",
                      "name": "expiry",
                      "type": "tuple"
                    }
                  ],
                  "internalType": "struct IHederaTokenService.HederaToken",
                  "name": "token",
                  "type": "tuple"
                },
                {
                  "internalType": "int64",
                  "name": "totalSupply",
                  "type": "int64"
                },
                {
                  "internalType": "bool",
                  "name": "deleted",
                  "type": "bool"
                },
                {
                  "internalType": "bool",
                  "name": "defaultKycStatus",
                  "type": "bool"
                },
                {
                  "internalType": "bool",
                  "name": "pauseStatus",
                  "type": "bool"
                },
                {
                  "components": [
                    {
                      "internalType": "int64",
                      "name": "amount",
                      "type": "int64"
                    },
                    {
                      "internalType": "address",
                      "name": "tokenId",
                      "type": "address"
                    },
                    {
                      "internalType": "bool",
                      "name": "useHbarsForPayment",
                      "type": "bool"
                    },
                    {
                      "internalType": "bool",
                      "name": "useCurrentTokenForPayment",
                      "type": "bool"
                    },
                    {
                      "internalType": "address",
                      "name": "feeCollector",
                      "type": "address"
                    }
                  ],
                  "internalType": "struct IHederaTokenService.FixedFee[]",
                  "name": "fixedFees",
                  "type": "tuple[]"
                },
                {
                  "components": [
                    {
                      "internalType": "int64",
                      "name": "numerator",
                      "type": "int64"
                    },
                    {
                      "internalType": "int64",
                      "name": "denominator",
                      "type": "int64"
                    },
                    {
                      "internalType": "int64",
                      "name": "minimumAmount",
                      "type": "int64"
                    },
                    {
                      "internalType": "int64",
                      "name": "maximumAmount",
                      "type": "int64"
                    },
                    {
                      "internalType": "bool",
                      "name": "netOfTransfers",
                      "type": "bool"
                    },
                    {
                      "internalType": "address",
                      "name": "feeCollector",
                      "type": "address"
                    }
                  ],
                  "internalType": "struct IHederaTokenService.FractionalFee[]",
                  "name": "fractionalFees",
                  "type": "tuple[]"
                },
                {
                  "components": [
                    {
                      "internalType": "int64",
                      "name": "numerator",
                      "type": "int64"
                    },
                    {
                      "internalType": "int64",
                      "name": "denominator",
                      "type": "int64"
                    },
                    {
                      "internalType": "int64",
                      "name": "amount",
                      "type": "int64"
                    },
                    {
                      "internalType": "address",
                      "name": "tokenId",
                      "type": "address"
                    },
                    {
                      "internalType": "bool",
                      "name": "useHbarsForPayment",
                      "type": "bool"
                    },
                    {
                      "internalType": "address",
                      "name": "feeCollector",
                      "type": "address"
                    }
                  ],
                  "internalType": "struct IHederaTokenService.RoyaltyFee[]",
                  "name": "royaltyFees",
                  "type": "tuple[]"
                },
                {
                  "internalType": "string",
                  "name": "ledgerId",
                  "type": "string"
                }
              ],
              "internalType": "struct IHederaTokenService.TokenInfo",
              "name": "tokenInfo",
              "type": "tuple"
            },
            {
              "internalType": "int32",
              "name": "decimals",
              "type": "int32"
            }
          ],
          "internalType": "struct IHederaTokenService.FungibleTokenInfo",
          "name": "fungibleTokenInfo",
          "type": "tuple"
        }
      ],
      "stateMutability": "nonpayable",
      "type": "function"
    },
    {
      "inputs": [
        {
          "internalType": "address",
          "name": "token",
          "type": "address"
        },
        {
          "internalType": "int64",
          "name": "serialNumber",
          "type": "int64"
        }
      ],
      "name": "getInformationForNonFungibleToken",
      "outputs": [
        {
          "components": [
            {
              "components": [
                {
                  "components": [
                    {
                      "internalType": "string",
                      "name": "name",
                      "type": "string"
                    },
                    {
                      "internalType": "string",
                      "name": "symbol",
                      "type": "string"
                    },
                    {
                      "internalType": "address",
                      "name": "treasury",
                      "type": "address"
                    },
                    {
                      "internalType": "string",
                      "name": "memo",
                      "type": "string"
                    },
                    {
                      "internalType": "bool",
                      "name": "tokenSupplyType",
                      "type": "bool"
                    },
                    {
                      "internalType": "int64",
                      "name": "maxSupply",
                      "type": "int64"
                    },
                    {
                      "internalType": "bool",
                      "name": "freezeDefault",
                      "type": "bool"
                    },
                    {
                      "components": [
                        {
                          "internalType": "uint256",
                          "name": "keyType",
                          "type": "uint256"
                        },
                        {
                          "components": [
                            {
                              "internalType": "bool",
                              "name": "inheritAccountKey",
                              "type": "bool"
                            },
                            {
                              "internalType": "address",
                              "name": "contractId",
                              "type": "address"
                            },
                            {
                              "internalType": "bytes",
                              "name": "ed25519",
                              "type": "bytes"
                            },
                            {
                              "internalType": "bytes",
                              "name": "ECDSA_secp256k1",
                              "type": "bytes"
                            },
                            {
                              "internalType": "address",
                              "name": "delegatableContractId",
                              "type": "address"
                            }
                          ],
                          "internalType": "struct IHederaTokenService.KeyValue",
                          "name": "key",
                          "type": "tuple"
                        }
                      ],
                      "internalType": "struct IHederaTokenService.TokenKey[]",
                      "name": "tokenKeys",
                      "type": "tuple[]"
                    },
                    {
                      "components": [
                        {
                          "internalType": "int64",
                          "name": "second",
                          "type": "int64"
                        },
                        {
                          "internalType": "address",
                          "name": "autoRenewAccount",
                          "type": "address"
                        },
                        {
                          "internalType": "int64",
                          "name": "autoRenewPeriod",
                          "type": "int64"
                        }
                      ],
                      "internalType": "struct IHederaTokenService.Expiry",
                      "name": "expiry",
                      "type": "tuple"
                    }
                  ],
                  "internalType": "struct IHederaTokenService.HederaToken",
                  "name": "token",
                  "type": "tuple"
                },
                {
                  "internalType": "int64",
                  "name": "totalSupply",
                  "type": "int64"
                },
                {
                  "internalType": "bool",
                  "name": "deleted",
                  "type": "bool"
                },
                {
                  "internalType": "bool",
                  "name": "defaultKycStatus",
                  "type": "bool"
                },
                {
                  "internalType": "bool",
                  "name": "pauseStatus",
                  "type": "bool"
                },
                {
                  "components": [
                    {
                      "internalType": "int64",
                      "name": "amount",
                      "type": "int64"
                    },
                    {
                      "internalType": "address",
                      "name": "tokenId",
                      "type": "address"
                    },
                    {
                      "internalType": "bool",
                      "name": "useHbarsForPayment",
                      "type": "bool"
                    },
                    {
                      "internalType": "bool",
                      "name": "useCurrentTokenForPayment",
                      "type": "bool"
                    },
                    {
                      "internalType": "address",
                      "name": "feeCollector",
                      "type": "address"
                    }
                  ],
                  "internalType": "struct IHederaTokenService.FixedFee[]",
                  "name": "fixedFees",
                  "type": "tuple[]"
                },
                {
                  "components": [
                    {
                      "internalType": "int64",
                      "name": "numerator",
                      "type": "int64"
                    },
                    {
                      "internalType": "int64",
                      "name": "denominator",
                      "type": "int64"
                    },
                    {
                      "internalType": "int64",
                      "name": "minimumAmount",
                      "type": "int64"
                    },
                    {
                      "internalType": "int64",
                      "name": "maximumAmount",
                      "type": "int64"
                    },
                    {
                      "internalType": "bool",
                      "name": "netOfTransfers",
                      "type": "bool"
                    },
                    {
                      "internalType": "address",
                      "name": "feeCollector",
                      "type": "address"
                    }
                  ],
                  "internalType": "struct IHederaTokenService.FractionalFee[]",
                  "name": "fractionalFees",
                  "type": "tuple[]"
                },
                {
                  "components": [
                    {
                      "internalType": "int64",
                      "name": "numerator",
                      "type": "int64"
                    },
                    {
                      "internalType": "int64",
                      "name": "denominator",
                      "type": "int64"
                    },
                    {
                      "internalType": "int64",
                      "name": "amount",
                      "type": "int64"
                    },
                    {
                      "internalType": "address",
                      "name": "tokenId",
                      "type": "address"
                    },
                    {
                      "internalType": "bool",
                      "name": "useHbarsForPayment",
                      "type": "bool"
                    },
                    {
                      "internalType": "address",
                      "name": "feeCollector",
                      "type": "address"
                    }
                  ],
                  "internalType": "struct IHederaTokenService.RoyaltyFee[]",
                  "name": "royaltyFees",
                  "type": "tuple[]"
                },
                {
                  "internalType": "string",
                  "name": "ledgerId",
                  "type": "string"
                }
              ],
              "internalType": "struct IHederaTokenService.TokenInfo",
              "name": "tokenInfo",
              "type": "tuple"
            },
            {
              "internalType": "int64",
              "name": "serialNumber",
              "type": "int64"
            },
            {
              "internalType": "address",
              "name": "ownerId",
              "type": "address"
            },
            {
              "internalType": "int64",
              "name": "creationTime",
              "type": "int64"
            },
            {
              "internalType": "bytes",
              "name": "metadata",
              "type": "bytes"
            },
            {
              "internalType": "address",
              "name": "spenderId",
              "type": "address"
            }
          ],
          "internalType": "struct IHederaTokenService.NonFungibleTokenInfo",
          "name": "nonFungibleTokenInfo",
          "type": "tuple"
        }
      ],
      "stateMutability": "nonpayable",
      "type": "function"
    },
    {
      "inputs": [
        {
          "internalType": "address",
          "name": "token",
          "type": "address"
        }
      ],
      "name": "getInformationForToken",
      "outputs": [
        {
          "components": [
            {
              "components": [
                {
                  "internalType": "string",
                  "name": "name",
                  "type": "string"
                },
                {
                  "internalType": "string",
                  "name": "symbol",
                  "type": "string"
                },
                {
                  "internalType": "address",
                  "name": "treasury",
                  "type": "address"
                },
                {
                  "internalType": "string",
                  "name": "memo",
                  "type": "string"
                },
                {
                  "internalType": "bool",
                  "name": "tokenSupplyType",
                  "type": "bool"
                },
                {
                  "internalType": "int64",
                  "name": "maxSupply",
                  "type": "int64"
                },
                {
                  "internalType": "bool",
                  "name": "freezeDefault",
                  "type": "bool"
                },
                {
                  "components": [
                    {
                      "internalType": "uint256",
                      "name": "keyType",
                      "type": "uint256"
                    },
                    {
                      "components": [
                        {
                          "internalType": "bool",
                          "name": "inheritAccountKey",
                          "type": "bool"
                        },
                        {
                          "internalType": "address",
                          "name": "contractId",
                          "type": "address"
                        },
                        {
                          "internalType": "bytes",
                          "name": "ed25519",
                          "type": "bytes"
                        },
                        {
                          "internalType": "bytes",
                          "name": "ECDSA_secp256k1",
                          "type": "bytes"
                        },
                        {
                          "internalType": "address",
                          "name": "delegatableContractId",
                          "type": "address"
                        }
                      ],
                      "internalType": "struct IHederaTokenService.KeyValue",
                      "name": "key",
                      "type": "tuple"
                    }
                  ],
                  "internalType": "struct IHederaTokenService.TokenKey[]",
                  "name": "tokenKeys",
                  "type": "tuple[]"
                },
                {
                  "components": [
                    {
                      "internalType": "int64",
                      "name": "second",
                      "type": "int64"
                    },
                    {
                      "internalType": "address",
                      "name": "autoRenewAccount",
                      "type": "address"
                    },
                    {
                      "internalType": "int64",
                      "name": "autoRenewPeriod",
                      "type": "int64"
                    }
                  ],
                  "internalType": "struct IHederaTokenService.Expiry",
                  "name": "expiry",
                  "type": "tuple"
                }
              ],
              "internalType": "struct IHederaTokenService.HederaToken",
              "name": "token",
              "type": "tuple"
            },
            {
              "internalType": "int64",
              "name": "totalSupply",
              "type": "int64"
            },
            {
              "internalType": "bool",
              "name": "deleted",
              "type": "bool"
            },
            {
              "internalType": "bool",
              "name": "defaultKycStatus",
              "type": "bool"
            },
            {
              "internalType": "bool",
              "name": "pauseStatus",
              "type": "bool"
            },
            {
              "components": [
                {
                  "internalType": "int64",
                  "name": "amount",
                  "type": "int64"
                },
                {
                  "internalType": "address",
                  "name": "tokenId",
                  "type": "address"
                },
                {
                  "internalType": "bool",
                  "name": "useHbarsForPayment",
                  "type": "bool"
                },
                {
                  "internalType": "bool",
                  "name": "useCurrentTokenForPayment",
                  "type": "bool"
                },
                {
                  "internalType": "address",
                  "name": "feeCollector",
                  "type": "address"
                }
              ],
              "internalType": "struct IHederaTokenService.FixedFee[]",
              "name": "fixedFees",
              "type": "tuple[]"
            },
            {
              "components": [
                {
                  "internalType": "int64",
                  "name": "numerator",
                  "type": "int64"
                },
                {
                  "internalType": "int64",
                  "name": "denominator",
                  "type": "int64"
                },
                {
                  "internalType": "int64",
                  "name": "minimumAmount",
                  "type": "int64"
                },
                {
                  "internalType": "int64",
                  "name": "maximumAmount",
                  "type": "int64"
                },
                {
                  "internalType": "bool",
                  "name": "netOfTransfers",
                  "type": "bool"
                },
                {
                  "internalType": "address",
                  "name": "feeCollector",
                  "type": "address"
                }
              ],
              "internalType": "struct IHederaTokenService.FractionalFee[]",
              "name": "fractionalFees",
              "type": "tuple[]"
            },
            {
              "components": [
                {
                  "internalType": "int64",
                  "name": "numerator",
                  "type": "int64"
                },
                {
                  "internalType": "int64",
                  "name": "denominator",
                  "type": "int64"
                },
                {
                  "internalType": "int64",
                  "name": "amount",
                  "type": "int64"
                },
                {
                  "internalType": "address",
                  "name": "tokenId",
                  "type": "address"
                },
                {
                  "internalType": "bool",
                  "name": "useHbarsForPayment",
                  "type": "bool"
                },
                {
                  "internalType": "address",
                  "name": "feeCollector",
                  "type": "address"
                }
              ],
              "internalType": "struct IHederaTokenService.RoyaltyFee[]",
              "name": "royaltyFees",
              "type": "tuple[]"
            },
            {
              "internalType": "string",
              "name": "ledgerId",
              "type": "string"
            }
          ],
          "internalType": "struct IHederaTokenService.TokenInfo",
          "name": "tokenInfo",
          "type": "tuple"
        }
      ],
      "stateMutability": "nonpayable",
      "type": "function"
    },
    {
      "inputs": [
        {
          "internalType": "address",
          "name": "token",
          "type": "address"
        },
        {
          "internalType": "uint256",
          "name": "serialNo",
          "type": "uint256"
        }
      ],
      "name": "getOwnerOfRedirect",
      "outputs": [
        {
          "internalType": "bytes",
          "name": "result",
          "type": "bytes"
        }
      ],
      "stateMutability": "nonpayable",
      "type": "function"
    },
    {
      "inputs": [
        {
          "internalType": "address",
          "name": "token",
          "type": "address"
        }
      ],
      "name": "getTokenDefaultFreeze",
      "outputs": [
        {
          "internalType": "bool",
          "name": "",
          "type": "bool"
        }
      ],
      "stateMutability": "nonpayable",
      "type": "function"
    },
    {
      "inputs": [
        {
          "internalType": "address",
          "name": "token",
          "type": "address"
        }
      ],
      "name": "getTokenDefaultKyc",
      "outputs": [
        {
          "internalType": "bool",
          "name": "",
          "type": "bool"
        }
      ],
      "stateMutability": "nonpayable",
      "type": "function"
    },
    {
      "inputs": [
        {
          "internalType": "address",
          "name": "token",
          "type": "address"
        },
        {
          "internalType": "uint256",
          "name": "keyType",
          "type": "uint256"
        }
      ],
      "name": "getTokenKeyPublic",
      "outputs": [
        {
          "components": [
            {
              "internalType": "bool",
              "name": "inheritAccountKey",
              "type": "bool"
            },
            {
              "internalType": "address",
              "name": "contractId",
              "type": "address"
            },
            {
              "internalType": "bytes",
              "name": "ed25519",
              "type": "bytes"
            },
            {
              "internalType": "bytes",
              "name": "ECDSA_secp256k1",
              "type": "bytes"
            },
            {
              "internalType": "address",
              "name": "delegatableContractId",
              "type": "address"
            }
          ],
          "internalType": "struct IHederaTokenService.KeyValue",
          "name": "",
          "type": "tuple"
        }
      ],
      "stateMutability": "nonpayable",
      "type": "function"
    },
    {
      "inputs": [
        {
          "internalType": "address",
          "name": "token",
          "type": "address"
        }
      ],
      "name": "getType",
      "outputs": [
        {
          "internalType": "int256",
          "name": "",
          "type": "int256"
        }
      ],
      "stateMutability": "nonpayable",
      "type": "function"
    },
    {
      "inputs": [
        {
          "internalType": "address",
          "name": "token",
          "type": "address"
        },
        {
          "internalType": "address",
          "name": "from",
          "type": "address"
        },
        {
          "internalType": "address",
          "name": "account",
          "type": "address"
        },
        {
          "internalType": "uint256",
          "name": "amount",
          "type": "uint256"
        }
      ],
      "name": "grantKycRevokeKyc",
      "outputs": [
        {
          "internalType": "bool",
          "name": "",
          "type": "bool"
        },
        {
          "internalType": "int256",
          "name": "",
          "type": "int256"
        },
        {
          "internalType": "bool",
          "name": "",
          "type": "bool"
        },
        {
          "internalType": "int256",
          "name": "",
          "type": "int256"
        },
        {
          "internalType": "int256",
          "name": "",
          "type": "int256"
        }
      ],
      "stateMutability": "nonpayable",
      "type": "function"
    },
    {
      "inputs": [
        {
          "internalType": "address",
          "name": "token",
          "type": "address"
        },
        {
          "internalType": "address",
          "name": "owner",
          "type": "address"
        },
        {
          "internalType": "address",
          "name": "operator",
          "type": "address"
        }
      ],
      "name": "isApprovedForAllRedirect",
      "outputs": [
        {
          "internalType": "bytes",
          "name": "result",
          "type": "bytes"
        }
      ],
      "stateMutability": "nonpayable",
      "type": "function"
    },
    {
      "inputs": [
        {
          "internalType": "address",
          "name": "token",
          "type": "address"
        },
        {
          "internalType": "address",
          "name": "account",
          "type": "address"
        }
      ],
      "name": "isKycGranted",
      "outputs": [
        {
          "internalType": "bool",
          "name": "",
          "type": "bool"
        }
      ],
      "stateMutability": "nonpayable",
      "type": "function"
    },
    {
      "inputs": [
        {
          "internalType": "address",
          "name": "token",
          "type": "address"
        }
      ],
      "name": "isTokenAddress",
      "outputs": [
        {
          "internalType": "bool",
          "name": "",
          "type": "bool"
        }
      ],
      "stateMutability": "nonpayable",
      "type": "function"
    },
    {
      "inputs": [
        {
          "internalType": "address",
          "name": "token",
          "type": "address"
        },
        {
          "internalType": "address",
          "name": "account",
          "type": "address"
        }
      ],
      "name": "isTokenFrozen",
      "outputs": [
        {
          "internalType": "bool",
          "name": "",
          "type": "bool"
        }
      ],
      "stateMutability": "nonpayable",
      "type": "function"
    },
    {
      "inputs": [
        {
          "internalType": "address",
          "name": "token",
          "type": "address"
        },
        {
          "internalType": "int64",
          "name": "amount",
          "type": "int64"
        },
        {
          "internalType": "bytes[]",
          "name": "metadata",
          "type": "bytes[]"
        },
        {
          "internalType": "address",
          "name": "treasury",
          "type": "address"
        }
      ],
      "name": "mintTokenGetTotalSupplyAndBalanceOfTreasury",
      "outputs": [
        {
          "internalType": "uint256",
          "name": "",
          "type": "uint256"
        },
        {
          "internalType": "uint256",
          "name": "",
          "type": "uint256"
        },
        {
          "internalType": "int256",
          "name": "",
          "type": "int256"
        },
        {
          "internalType": "int256",
          "name": "",
          "type": "int256"
        }
      ],
      "stateMutability": "nonpayable",
      "type": "function"
    },
    {
      "inputs": [
        {
          "internalType": "address",
          "name": "token",
          "type": "address"
        }
      ],
      "name": "nameNFTRedirect",
      "outputs": [
        {
          "internalType": "bytes",
          "name": "result",
          "type": "bytes"
        }
      ],
      "stateMutability": "nonpayable",
      "type": "function"
    },
    {
      "inputs": [
        {
          "internalType": "address",
          "name": "token",
          "type": "address"
        }
      ],
      "name": "nameRedirect",
      "outputs": [
        {
          "internalType": "bytes",
          "name": "result",
          "type": "bytes"
        }
      ],
      "stateMutability": "nonpayable",
      "type": "function"
    },
    {
      "inputs": [
        {
          "internalType": "address",
          "name": "token",
          "type": "address"
        }
      ],
      "name": "pauseTokenGetPauseStatusUnpauseGetPauseStatus",
      "outputs": [
        {
          "internalType": "bool",
          "name": "",
          "type": "bool"
        },
        {
          "internalType": "bool",
          "name": "",
          "type": "bool"
        }
      ],
      "stateMutability": "nonpayable",
      "type": "function"
    },
    {
      "inputs": [
        {
          "internalType": "address",
          "name": "token",
          "type": "address"
        },
        {
          "internalType": "bytes",
          "name": "encodedFunctionSelector",
          "type": "bytes"
        }
      ],
      "name": "redirectForToken",
      "outputs": [
        {
          "internalType": "int256",
          "name": "responseCode",
          "type": "int256"
        },
        {
          "internalType": "bytes",
          "name": "response",
          "type": "bytes"
        }
      ],
      "stateMutability": "nonpayable",
      "type": "function"
    },
    {
      "inputs": [
        {
          "internalType": "address",
          "name": "token",
          "type": "address"
        },
        {
          "internalType": "address",
          "name": "operator",
          "type": "address"
        },
        {
          "internalType": "bool",
          "name": "approved",
          "type": "bool"
        }
      ],
      "name": "setApprovalForAllRedirect",
      "outputs": [
        {
          "internalType": "bytes",
          "name": "result",
          "type": "bytes"
        }
      ],
      "stateMutability": "nonpayable",
      "type": "function"
    },
    {
      "inputs": [
        {
          "internalType": "address",
          "name": "token",
          "type": "address"
        }
      ],
      "name": "symbolNFTRedirect",
      "outputs": [
        {
          "internalType": "bytes",
          "name": "result",
          "type": "bytes"
        }
      ],
      "stateMutability": "nonpayable",
      "type": "function"
    },
    {
      "inputs": [
        {
          "internalType": "address",
          "name": "token",
          "type": "address"
        }
      ],
      "name": "symbolRedirect",
      "outputs": [
        {
          "internalType": "bytes",
          "name": "result",
          "type": "bytes"
        }
      ],
      "stateMutability": "nonpayable",
      "type": "function"
    },
    {
      "inputs": [
        {
          "internalType": "address",
          "name": "token",
          "type": "address"
        },
        {
          "internalType": "uint256",
          "name": "tokenId",
          "type": "uint256"
        }
      ],
      "name": "tokenURIRedirect",
      "outputs": [
        {
          "internalType": "bytes",
          "name": "result",
          "type": "bytes"
        }
      ],
      "stateMutability": "nonpayable",
      "type": "function"
    },
    {
      "inputs": [
        {
          "internalType": "address",
          "name": "token",
          "type": "address"
        }
      ],
      "name": "totalSupplyRedirect",
      "outputs": [
        {
          "internalType": "bytes",
          "name": "result",
          "type": "bytes"
        }
      ],
      "stateMutability": "nonpayable",
      "type": "function"
    },
    {
      "inputs": [
        {
          "internalType": "address",
          "name": "token",
          "type": "address"
        },
        {
          "internalType": "address",
          "name": "from",
          "type": "address"
        },
        {
          "internalType": "address",
          "name": "to",
          "type": "address"
        },
        {
          "internalType": "uint256",
          "name": "amount",
          "type": "uint256"
        }
      ],
      "name": "transferFrom",
      "outputs": [
        {
          "internalType": "int64",
          "name": "responseCode",
          "type": "int64"
        }
      ],
      "stateMutability": "nonpayable",
      "type": "function"
    },
    {
      "inputs": [
        {
          "internalType": "address",
          "name": "token",
          "type": "address"
        },
        {
          "internalType": "address",
          "name": "from",
          "type": "address"
        },
        {
          "internalType": "address",
          "name": "to",
          "type": "address"
        },
        {
          "internalType": "uint256",
          "name": "serialNumber",
          "type": "uint256"
        }
      ],
      "name": "transferFromNFT",
      "outputs": [
        {
          "internalType": "int64",
          "name": "responseCode",
          "type": "int64"
        }
      ],
      "stateMutability": "nonpayable",
      "type": "function"
    },
    {
      "inputs": [
        {
          "internalType": "address",
          "name": "token",
          "type": "address"
        },
        {
          "internalType": "address",
          "name": "from",
          "type": "address"
        },
        {
          "internalType": "address",
          "name": "to",
          "type": "address"
        },
        {
          "internalType": "uint256",
          "name": "tokenId",
          "type": "uint256"
        }
      ],
      "name": "transferFromNFTRedirect",
      "outputs": [
        {
          "internalType": "bytes",
          "name": "result",
          "type": "bytes"
        }
      ],
      "stateMutability": "nonpayable",
      "type": "function"
    },
    {
      "inputs": [
        {
          "internalType": "address",
          "name": "token",
          "type": "address"
        },
        {
          "internalType": "address",
          "name": "sender",
          "type": "address"
        },
        {
          "internalType": "address",
          "name": "recipient",
          "type": "address"
        },
        {
          "internalType": "uint256",
          "name": "amount",
          "type": "uint256"
        }
      ],
      "name": "transferFromRedirect",
      "outputs": [
        {
          "internalType": "bytes",
          "name": "result",
          "type": "bytes"
        }
      ],
      "stateMutability": "nonpayable",
      "type": "function"
    },
    {
      "inputs": [
        {
          "internalType": "address",
          "name": "token",
          "type": "address"
        },
        {
          "internalType": "address",
          "name": "recipient",
          "type": "address"
        },
        {
          "internalType": "uint256",
          "name": "amount",
          "type": "uint256"
        }
      ],
      "name": "transferRedirect",
      "outputs": [
        {
          "internalType": "bytes",
          "name": "result",
          "type": "bytes"
        }
      ],
      "stateMutability": "nonpayable",
      "type": "function"
    },
    {
      "inputs": [
        {
          "internalType": "address",
          "name": "token",
          "type": "address"
        },
        {
          "internalType": "int64",
          "name": "amount",
          "type": "int64"
        },
        {
          "internalType": "int64[]",
          "name": "serialNumbers",
          "type": "int64[]"
        },
        {
          "internalType": "address",
          "name": "account",
          "type": "address"
        }
      ],
      "name": "wipeTokenGetTotalSupplyAndBalanceOfAccount",
      "outputs": [
        {
          "internalType": "uint256",
          "name": "",
          "type": "uint256"
        },
        {
          "internalType": "uint256",
          "name": "",
          "type": "uint256"
        },
        {
          "internalType": "int256",
          "name": "",
          "type": "int256"
        },
        {
          "internalType": "int256",
          "name": "",
          "type": "int256"
        }
      ],
      "stateMutability": "nonpayable",
      "type": "function"
    }
  ],
  "bytecode": "0x608060405234801561001057600080fd5b506157c680620000216000396000f3fe608060405234801561001057600080fd5b50600436106102de5760003560e01c80636552dd0a11610186578063bc2fb00e116100e3578063efe60aeb11610097578063f68a81bb11610071578063f68a81bb146106f8578063fa5c22241461070b578063fd4d1c261461071e57600080fd5b8063efe60aeb146106b1578063f1e3aea2146106c4578063f429f19b146106d757600080fd5b8063c0395467116100c8578063c039546714610604578063d3f67d2714610652578063ebe1e5fb1461069e57600080fd5b8063bc2fb00e14610678578063bff9834f1461068b57600080fd5b8063971f5a0b1161013a578063af4494fb1161011f578063af4494fb1461062a578063b132f49414610652578063b51f3cf51461066557600080fd5b8063971f5a0b146106045780639b23d3d91461061757600080fd5b806385dec08e1161016b57806385dec08e146105be5780638e5e7996146105d1578063911ce425146105f157600080fd5b80636552dd0a1461055757806370a063641461059457600080fd5b806335589a131161023f5780634dc21f9f116101f35780635b391493116101cd5780635b39149314610510578063618dc65e14610523578063622488631461054457600080fd5b80634dc21f9f146104ca578063565ca6fa146104dd57806359c16f5a146104f057600080fd5b80633cc2322f116102245780633cc2322f1461046557806344f38bc8146104785780634b27d1ac1461049a57600080fd5b806335589a13146104455780633717ec981461046557600080fd5b806325004c1c1161029657806330c4a1c61161027b57806330c4a1c6146103cb578063319a87231461040f5780633232fc9f1461043257600080fd5b806325004c1c146103a55780632b2f5c66146103b857600080fd5b806315dacbea116102c757806315dacbea1461033f5780631955de0b146103655780631de8edad1461038557600080fd5b8063045c5bfe146102e357806312fe05501461030c575b600080fd5b6102f66102f1366004613c72565b610731565b6040516103039190613d19565b60405180910390f35b61031f61031a366004613d2c565b61083a565b604080519485526020850193909352918301526060820152608001610303565b61035261034d366004613d6d565b610b42565b60405160079190910b8152602001610303565b610378610373366004613dbe565b610c36565b6040516103039190613e55565b610398610393366004613e68565b610caa565b6040516103039190613e85565b6102f66103b3366004613eb9565b610cea565b6102f66103c6366004613e68565b610dc9565b6103de6103d9366004613d6d565b610e89565b6040516103039594939291909415158552602085019390935290151560408401526060830152608082015260a00190565b61042261041d366004613e68565b611023565b6040519015158152602001610303565b6102f6610440366004613dbe565b6110ac565b610458610453366004613e68565b6110dc565b604051610303919061429f565b6102f6610473366004613d6d565b6110f0565b61048b610486366004613e68565b6111f4565b604051610303939291906142b2565b6104ad6104a83660046142eb565b611226565b604080519283526001600160a01b03909116602083015201610303565b61031f6104d836600461443e565b6113de565b6104226104eb366004613eb9565b6116b6565b6105036104fe366004613e68565b61171f565b6040516103039190614515565b6102f661051e36600461454a565b611733565b610536610531366004614603565b611770565b604051610303929190614653565b6102f6610552366004613dbe565b61189e565b61056a610565366004613d2c565b6118ce565b604080516001600160a01b0394851681529284166020840152921691810191909152606001610303565b6105a76105a2366004613eb9565b611b94565b604080519215158352901515602083015201610303565b6102f66105cc366004613e68565b611c9d565b6105e46105df366004614674565b611db2565b60405161030391906146a2565b6102f66105ff366004613d2c565b611dc7565b6102f6610612366004613e68565b611e1c565b610352610625366004613d6d565b611e86565b61063d610638366004614726565b611ecb565b60408051928352602083019190915201610303565b6102f6610660366004613e68565b6120cf565b6102f661067336600461454a565b612139565b610422610686366004613eb9565b61218f565b610422610699366004613e68565b6121f8565b61031f6106ac366004614781565b612260565b6105a76106bf366004613e68565b61242e565b6102f66106d2366004613d2c565b612548565b6106ea6106e5366004613e68565b61259d565b604051908152602001610303565b61031f61070636600461443e565b612608565b6102f6610719366004613dbe565b612855565b61042261072c366004613e68565b612885565b6040516001600160a01b038316602482015281151560448201526060906000908190309063618dc65e9088907fa22cb46500000000000000000000000000000000000000000000000000000000906064015b60408051601f198184030181529181526020820180516001600160e01b03166001600160e01b03199485161790525160e085901b90921682526107c9929160040161485f565b600060405180830381600087803b1580156107e357600080fd5b505af11580156107f7573d6000803e3d6000fd5b505050506040513d6000823e601f3d908101601f1916820160405261081f91908101906148c6565b90925090506016821461083157600080fd5b95945050505050565b600080600080600061084d8888886128e8565b905061087181604051806060016040528060218152602001615605602191396129ec565b604051636eb1769f60e11b81523060048201526001600160a01b038881166024830152600091908a169063dd62ed3e9060440160206040518083038186803b1580156108bc57600080fd5b505afa1580156108d0573d6000803e3d6000fd5b505050506040513d601f19601f820116820180604052508101906108f49190614903565b6040516370a0823160e01b81526001600160a01b038a811660048301529192506000918b16906370a082319060240160206040518083038186803b15801561093b57600080fd5b505afa15801561094f573d6000803e3d6000fd5b505050506040513d601f19601f820116820180604052508101906109739190614903565b604051630aed65f560e11b81526001600160a01b03808d1660048301523060248301819052908c166044830152606482018b90529192506315dacbea90608401602060405180830381600087803b1580156109cd57600080fd5b505af11580156109e1573d6000803e3d6000fd5b505050506040513d601f19601f82011682018060405250810190610a059190614927565b60070b9250610a2c8360405180606001604052806022815260200161564f602291396129ec565b604051636eb1769f60e11b81523060048201526001600160a01b038a81166024830152600091908c169063dd62ed3e9060440160206040518083038186803b158015610a7757600080fd5b505afa158015610a8b573d6000803e3d6000fd5b505050506040513d601f19601f82011682018060405250810190610aaf9190614903565b6040516370a0823160e01b81526001600160a01b038c811660048301529192506000918d16906370a082319060240160206040518083038186803b158015610af657600080fd5b505afa158015610b0a573d6000803e3d6000fd5b505050506040513d601f19601f82011682018060405250810190610b2e9190614903565b939c929b5090995091975095505050505050565b6040516001600160a01b038581166024830152848116604483015283166064820152608481018290526000908190819061016790630aed65f560e11b9060a4015b60408051601f198184030181529181526020820180516001600160e01b03166001600160e01b0319909416939093179092529051610bc19190614944565b6000604051808303816000865af19150503d8060008114610bfe576040519150601f19603f3d011682016040523d82523d6000602084013e610c03565b606091505b509150915081610c14576015610c28565b80806020019051810190610c289190614972565b60030b979650505050505050565b610c7c6040518060a0016040528060001515815260200160006001600160a01b03168152602001606081526020016060815260200160006001600160a01b031681525090565b600080610c898585612a12565b915060070b9150601660030b8214610ca057600080fd5b9150505b92915050565b604080516060810182526000808252602082018190529181018290529080610cd184612b6f565b909250905060168214610ce357600080fd5b9392505050565b6040516001600160a01b03821660248201526060906000908190309063618dc65e9087906370a0823160e01b906044015b60408051601f198184030181529181526020820180516001600160e01b03166001600160e01b03199485161790525160e085901b9092168252610d61929160040161485f565b600060405180830381600087803b158015610d7b57600080fd5b505af1158015610d8f573d6000803e3d6000fd5b505050506040513d6000823e601f3d908101601f19168201604052610db791908101906148c6565b909250905060168214610ca057600080fd5b6040805160048082526024820183526020820180516001600160e01b03167f313ce5670000000000000000000000000000000000000000000000000000000017905291516330c6e32f60e11b81526060926000928392309263618dc65e92610e339289920161485f565b600060405180830381600087803b158015610e4d57600080fd5b505af1158015610e61573d6000803e3d6000fd5b505050506040513d6000823e601f3d908101601f19168201604052610cd191908101906148c6565b6000806000806000806000806000806000610ea48f8e612c80565b60070b9050610ee8816040518060400160405280601181526020017f4772616e74206b7963206661696c65642e0000000000000000000000000000008152506129ec565b610ef28f8e612d7c565b965060070b935060168414610f4e5760405162461bcd60e51b815260206004820152601760248201527f4973206b7963206f7065726174696f6e206661696c656400000000000000000060448201526064015b60405180910390fd5b85610f9b5760405162461bcd60e51b815260206004820152601360248201527f4b796320737461747573206d69736d61746368000000000000000000000000006044820152606401610f45565b610fa58f8e612e70565b60070b9050610fe9816040518060400160405280601281526020017f5265766f6b65206b7963206661696c65642e00000000000000000000000000008152506129ec565b610ff58f8f8f8f612ebf565b91506110018f8e612d7c565b969b5093995094975060079290920b9550909350505050945094509450945094565b600080600061103184612f20565b909250905060168214610ce35760405162461bcd60e51b815260206004820152602360248201527f676574546f6b656e44656661756c74467265657a65537461747573206661696c60448201527f65642100000000000000000000000000000000000000000000000000000000006064820152608401610f45565b6060600080306001600160a01b031663618dc65e8663081812fc60e01b87604051602401610d1b91815260200190565b6110e4613b2a565b600080610cd18461301d565b604080516001600160a01b03858116602483015284166044820152606480820184905282518083039091018152608490910182526020810180516001600160e01b03167f23b872dd0000000000000000000000000000000000000000000000000000000017905290516330c6e32f60e11b81526060916000918291309163618dc65e91611182918b919060040161485f565b600060405180830381600087803b15801561119c57600080fd5b505af11580156111b0573d6000803e3d6000fd5b505050506040513d6000823e601f3d908101601f191682016040526111d891908101906148c6565b9092509050601682146111ea57600080fd5b9695505050505050565b6060806060600061120485613106565b919650945092509050600781900b60161461121e57600080fd5b509193909250565b600080600084118015611237575082155b156112fe5760006112498787876128e8565b905061126d81604051806060016040528060218152602001615605602191396129ec565b604051636eb1769f60e11b81523060048201526001600160a01b0387811660248301526000919089169063dd62ed3e9060440160206040518083038186803b1580156112b857600080fd5b505afa1580156112cc573d6000803e3d6000fd5b505050506040513d601f19601f820116820180604052508101906112f09190614903565b9350600092506113d5915050565b600061130b878786613206565b905061134c816040518060400160405280601681526020017f4661696c656420746f20617070726f7665204e46542e000000000000000000008152506129ec565b60405163020604bf60e21b8152600481018590526000906001600160a01b0389169063081812fc9060240160206040518083038186803b15801561138f57600080fd5b505afa1580156113a3573d6000803e3d6000fd5b505050506040513d601f19601f820116820180604052508101906113c79190614998565b6000945092506113d5915050565b94509492505050565b60008060008060008060008060008b60070b1380156113fc57508951155b15611481576040516370a0823160e01b81526001600160a01b038a811660048301528d16906370a082319060240160206040518083038186803b15801561144257600080fd5b505afa158015611456573d6000803e3d6000fd5b505050506040513d601f19601f8201168201806040525081019061147a9190614903565b93506114fd565b6040516370a0823160e01b81526001600160a01b038a811660048301528d16906370a082319060240160206040518083038186803b1580156114c257600080fd5b505afa1580156114d6573d6000803e3d6000fd5b505050506040513d601f19601f820116820180604052508101906114fa9190614903565b93505b6000806115098e61301d565b9150915061152f826040518060600160405280602a81526020016156f1602a91396129ec565b806020015160070b93506115448e8e8e61325c565b60408051808201909152601581527f4661696c656420746f206275726e20746f6b656e2e0000000000000000000000602082015260079190910b945090925061158e9083906129ec565b60008d60070b1380156115a057508b51155b15611626576040516370a0823160e01b81526001600160a01b038c811660048301528f16906370a08231906024015b60206040518083038186803b1580156115e757600080fd5b505afa1580156115fb573d6000803e3d6000fd5b505050506040513d601f19601f8201168201806040525081019061161f9190614903565b94506116a2565b6040516370a0823160e01b81526001600160a01b038c811660048301528f16906370a082319060240160206040518083038186803b15801561166757600080fd5b505afa15801561167b573d6000803e3d6000fd5b505050506040513d601f19601f8201168201806040525081019061169f9190614903565b94505b50939c929b50909950975095505050505050565b60008060006116c58585613332565b915060070b9150601660030b8214610ca05760405162461bcd60e51b815260206004820152601660248201527f546f6b656e20697346726f7a656e206661696c656421000000000000000000006044820152606401610f45565b611727613be1565b600080610cd184613383565b6040516001600160a01b038381166024830152821660448201526060906000908190309063618dc65e908890636eb1769f60e11b90606401610783565b600060606000806101676001600160a01b031663618dc65e60e01b878760405160240161179e92919061485f565b60408051601f198184030181529181526020820180516001600160e01b03166001600160e01b03199094169390931790925290516117dc9190614944565b6000604051808303816000865af19150503d8060008114611819576040519150601f19603f3d011682016040523d82523d6000602084013e61181e565b606091505b50915091507f4af4780e06fe8cb9df64b0794fa6f01399af979175bb988e35e0e57e594567bc82826040516118549291906149b5565b60405180910390a1816118785760156040518060200160405280600081525061188c565b8080602001905181019061188c91906149d0565b60039190910b97909650945050505050565b6060600080306001600160a01b031663618dc65e86636352211e60e01b87604051602401610d1b91815260200190565b6000806000806118df878787613206565b9050611920816040518060400160405280601681526020017f4661696c656420746f20617070726f7665204e46542e000000000000000000008152506129ec565b60405163020604bf60e21b8152600481018690526000906001600160a01b0389169063081812fc9060240160206040518083038186803b15801561196357600080fd5b505afa158015611977573d6000803e3d6000fd5b505050506040513d601f19601f8201168201806040525081019061199b9190614998565b604051639b23d3d960e01b81526001600160a01b03808b1660048301523060248301819052908a16604483015260648201899052919250639b23d3d990608401602060405180830381600087803b1580156119f557600080fd5b505af1158015611a09573d6000803e3d6000fd5b505050506040513d601f19601f82011682018060405250810190611a2d9190614927565b60070b9150611a71826040518060400160405280601781526020017f4661696c656420746f207472616e73666572204e46542e0000000000000000008152506129ec565b6040517f6352211e000000000000000000000000000000000000000000000000000000008152600481018790526000906001600160a01b038a1690636352211e9060240160206040518083038186803b158015611acd57600080fd5b505afa158015611ae1573d6000803e3d6000fd5b505050506040513d601f19601f82011682018060405250810190611b059190614998565b60405163020604bf60e21b8152600481018990529091506000906001600160a01b038b169063081812fc9060240160206040518083038186803b158015611b4b57600080fd5b505afa158015611b5f573d6000803e3d6000fd5b505050506040513d601f19601f82011682018060405250810190611b839190614998565b929a91995091975095505050505050565b6000806000806000611ba6878761346c565b60070b9050611bcd8160405180606001604052806027815260200161576a602791396129ec565b600080611bda8989613332565b915060070b9150611c0383604051806060016040528060298152602001615626602991396129ec565b809450611c1089896134bb565b60070b9250611c54836040518060400160405280601b81526020017f4661696c656420746f20756e667265657a65206163636f756e742e00000000008152506129ec565b611c5e8989613332565b8160070b91508092508193505050611c8e836040518060600160405280602b81526020016156c6602b91396129ec565b93989397509295505050505050565b6040805160048082526024820183526020820180516001600160e01b03167f18160ddd0000000000000000000000000000000000000000000000000000000017905291516330c6e32f60e11b81526060926000928392309263618dc65e92611d079289920161485f565b600060405180830381600087803b158015611d2157600080fd5b505af1158015611d35573d6000803e3d6000fd5b505050506040513d6000823e601f3d908101601f19168201604052611d5d91908101906148c6565b909250905060168214610ce35760405162461bcd60e51b815260206004820152601560248201527f546f6b656e207265646972656374206661696c656400000000000000000000006044820152606401610f45565b611dba613c01565b600080610db7858561350a565b6040516001600160a01b0383166024820152604481018290526060906000908190309063618dc65e9088907f095ea7b30000000000000000000000000000000000000000000000000000000090606401610783565b6040805160048082526024820183526020820180516001600160e01b03167f06fdde030000000000000000000000000000000000000000000000000000000017905291516330c6e32f60e11b81526060926000928392309263618dc65e92610e339289920161485f565b6040516001600160a01b038581166024830152848116604483015283166064820152608481018290526000908190819061016790639b23d3d960e01b9060a401610b83565b60408051600180825281830190925260009182918291602080830190803683370190505090506000808983600081518110611f0857611f08614a08565b60200260200101906001600160a01b031690816001600160a01b0316815250506000611f34898c6135fd565b9050611f75816040518060400160405280601b81526020017f4661696c656420746f206173736f636961746520746f6b656e732e00000000008152506129ec565b600088118015611f83575086155b15611f9b57611f948b8b8b8b612ebf565b9250611faa565b611fa78b8b8b8a61364c565b92505b600088118015611fb8575086155b15611ff257611fc98b8a308b612ebf565b9050611fed8160405180606001604052806022815260200161564f602291396129ec565b61203f565b611ffe8b8a308a61364c565b905061203f816040518060400160405280601d81526020017f4661696c656420746f207472616e73666572204e465420746f6b656e2e0000008152506129ec565b612049898c6136ad565b905061208a816040518060400160405280601b81526020017f4661696c656420746f20646973736f636961746520746f6b656e2e00000000008152506129ec565b600088118015612098575086155b156120b0576120a98b8b8b8b612ebf565b91506120bf565b6120bc8b8b8b8a61364c565b91505b5090999098509650505050505050565b6040805160048082526024820183526020820180516001600160e01b03167f95d89b410000000000000000000000000000000000000000000000000000000017905291516330c6e32f60e11b81526060926000928392309263618dc65e92610e339289920161485f565b6040516001600160a01b038381166024830152821660448201526060906000908190309063618dc65e9088907fe985e9c50000000000000000000000000000000000000000000000000000000090606401610783565b600080600061219e8585612d7c565b915060070b9150601660030b8214610ca05760405162461bcd60e51b815260206004820152601360248201527f546f6b656e2069734b7963206661696c656421000000000000000000000000006044820152606401610f45565b6000806000612206846136fc565b915060070b9150601660030b8214610ce35760405162461bcd60e51b815260206004820152601c60248201527f546f6b656e206973546f6b656e41646472657373206661696c656421000000006044820152606401610f45565b60008060008060008060008060008b60070b13801561227e57508951155b15612303576040516370a0823160e01b81526001600160a01b038a811660048301528d16906370a082319060240160206040518083038186803b1580156122c457600080fd5b505afa1580156122d8573d6000803e3d6000fd5b505050506040513d601f19601f820116820180604052508101906122fc9190614903565b935061237f565b6040516370a0823160e01b81526001600160a01b038a811660048301528d16906370a082319060240160206040518083038186803b15801561234457600080fd5b505afa158015612358573d6000803e3d6000fd5b505050506040513d601f19601f8201168201806040525081019061237c9190614903565b93505b60008061238b8e61301d565b915091506123ce826040518060400160405280601e81526020017f4661696c656420746f20726574726965766520746f6b656e20696e666f2e00008152506129ec565b806020015160070b93506123e38e8e8e613745565b5060408051808201909152601581527f4661696c656420746f206d696e7420746f6b656e2e0000000000000000000000602082015260079190910b945090925061158e9083906129ec565b600080600080600061243f86613843565b9050612480816040518060400160405280601681526020017f4661696c656420746f20706175736520746f6b656e2e000000000000000000008152506129ec565b60008061248c8861301d565b915091506124b283604051806060016040528060258152602001615745602591396129ec565b806080015194506124c288613936565b9250612503836040518060400160405280601881526020017f4661696c656420746f20756e706175736520746f6b656e2e00000000000000008152506129ec565b61250c8861301d565b8092508193505050612536836040518060600160405280602c8152602001615671602c91396129ec565b60800151939793965092945050505050565b6040516001600160a01b0383166024820152604481018290526060906000908190309063618dc65e9088907fa9059cbb0000000000000000000000000000000000000000000000000000000090606401610783565b60008060006125ab8461397d565b60030b915060070b9150601660030b8214610ce35760405162461bcd60e51b815260206004820152601c60248201527f546f6b656e20747970652061707072616973616c206661696c656421000000006044820152606401610f45565b60008080808080808060078b900b8112801561262357508951155b156126a8576040516370a0823160e01b81526001600160a01b038a811660048301528d16906370a082319060240160206040518083038186803b15801561266957600080fd5b505afa15801561267d573d6000803e3d6000fd5b505050506040513d601f19601f820116820180604052508101906126a19190614903565b9350612724565b6040516370a0823160e01b81526001600160a01b038a811660048301528d16906370a082319060240160206040518083038186803b1580156126e957600080fd5b505afa1580156126fd573d6000803e3d6000fd5b505050506040513d601f19601f820116820180604052508101906127219190614903565b93505b6000806127308e61301d565b91509150612756826040518060600160405280602a815260200161571b602a91396129ec565b806020015160070b935060008d60070b13801561277257508b51155b15612789576127828e8c8f613a5a565b9150612797565b6127948e8c8e613ab3565b91505b6127d6826040518060400160405280601581526020017f4661696c656420746f207769706520746f6b656e2e00000000000000000000008152506129ec565b6127df8e61301d565b80925081935050506128098260405180606001604052806029815260200161569d602991396129ec565b806020015160070b925060008d60070b1380156115a057508b51611626576040516370a0823160e01b81526001600160a01b038c811660048301528f16906370a08231906024016115cf565b6060600080306001600160a01b031663618dc65e8663c87b56dd60e01b87604051602401610d1b91815260200190565b600080600061289384613ae1565b909250905060168214610ce35760405162461bcd60e51b815260206004820181905260248201527f676574546f6b656e44656661756c744b7963537461747573206661696c6564216044820152606401610f45565b6040516001600160a01b038481166024830152831660448201526064810182905260009081908190610167907fe1f21c6700000000000000000000000000000000000000000000000000000000906084015b60408051601f198184030181529181526020820180516001600160e01b03166001600160e01b03199094169390931790925290516129789190614944565b6000604051808303816000865af19150503d80600081146129b5576040519150601f19603f3d011682016040523d82523d6000602084013e6129ba565b606091505b5091509150816129cb5760156129df565b808060200190518101906129df9190614972565b60030b9695505050505050565b60168214612a0e578060405162461bcd60e51b8152600401610f459190613d19565b5050565b6040805160a081018252600080825260208083018290526060838501819052808401526080830182905283516001600160a01b03871660248201526044808201879052855180830390910181526064909101855290810180516001600160e01b03167f3c4dd32e00000000000000000000000000000000000000000000000000000000179052925190928391829161016791612aae9190614944565b6000604051808303816000865af19150503d8060008114612aeb576040519150601f19603f3d011682016040523d82523d6000602084013e612af0565b606091505b5091509150612b3b6040518060a0016040528060001515815260200160006001600160a01b03168152602001606081526020016060815260200160006001600160a01b031681525090565b82612b4857601581612b5c565b81806020019051810190612b5c9190614ad1565b60039190910b9890975095505050505050565b604080516060810182526000808252602080830182905282840182905283516001600160a01b038616602480830191909152855180830390910181526044909101855290810180516001600160e01b03167fd614cdb800000000000000000000000000000000000000000000000000000000179052925190928391829161016791612bfa9190614944565b6000604051808303816000865af19150503d8060008114612c37576040519150601f19603f3d011682016040523d82523d6000602084013e612c3c565b606091505b506040805160608101825260008082526020820181905291810191909152919350915082612c6c5760158161188c565b8180602001905181019061188c9190614b8d565b6040516001600160a01b0383811660248301528216604482015260009081908190610167907f8f8d7f9900000000000000000000000000000000000000000000000000000000906064015b60408051601f198184030181529181526020820180516001600160e01b03166001600160e01b0319909416939093179092529051612d099190614944565b6000604051808303816000865af19150503d8060008114612d46576040519150601f19603f3d011682016040523d82523d6000602084013e612d4b565b606091505b509150915081612d5c576015612d70565b80806020019051810190612d709190614972565b60030b95945050505050565b6040516001600160a01b03838116602483015282166044820152600090819081908190610167907ff2c31ff400000000000000000000000000000000000000000000000000000000906064015b60408051601f198184030181529181526020820180516001600160e01b03166001600160e01b0319909416939093179092529051612e079190614944565b6000604051808303816000865af19150503d8060008114612e44576040519150601f19603f3d011682016040523d82523d6000602084013e612e49565b606091505b509150915081612e5c576015600061188c565b8080602001905181019061188c9190614bc1565b6040516001600160a01b0383811660248301528216604482015260009081908190610167907faf99c6330000000000000000000000000000000000000000000000000000000090606401612ccb565b6040516001600160a01b038581166024830152848116604483015283166064820152600782900b608482015260009081908190610167907feca36917000000000000000000000000000000000000000000000000000000009060a401610b83565b6040516001600160a01b0382166024820152600090819081908190610167907fa7daa18d00000000000000000000000000000000000000000000000000000000906044015b60408051601f198184030181529181526020820180516001600160e01b03166001600160e01b0319909416939093179092529051612fa39190614944565b6000604051808303816000865af19150503d8060008114612fe0576040519150601f19603f3d011682016040523d82523d6000602084013e612fe5565b606091505b509150915081612ff8576015600061300c565b8080602001905181019061300c9190614bc1565b60039190910b969095509350505050565b6000613027613b2a565b604080516001600160a01b03851660248083019190915282518083039091018152604490910182526020810180516001600160e01b03167f1f69565f00000000000000000000000000000000000000000000000000000000179052905160009182916101679161309691614944565b6000604051808303816000865af19150503d80600081146130d3576040519150601f19603f3d011682016040523d82523d6000602084013e6130d8565b606091505b50915091506130e5613b2a565b826130f25760158161188c565b8180602001905181019061188c919061517b565b604080516001600160a01b03831660248083019190915282518083039091018152604490910182526020810180516001600160e01b03167fae7611a000000000000000000000000000000000000000000000000000000000179052905160009160609182918291859182916101679161317e91614944565b6000604051808303816000865af19150503d80600081146131bb576040519150601f19603f3d011682016040523d82523d6000602084013e6131c0565b606091505b50915091506060806060846131d95760158383836131ed565b838060200190518101906131ed91906151bf565b60039390930b9d919c509a509098509650505050505050565b6040516001600160a01b038481166024830152831660448201526064810182905260009081908190610167907f7336aaf0000000000000000000000000000000000000000000000000000000009060840161293a565b6000806000806101676001600160a01b031663d6910d0660e01b88888860405160240161328b9392919061528b565b60408051601f198184030181529181526020820180516001600160e01b03166001600160e01b03199094169390931790925290516132c99190614944565b6000604051808303816000865af19150503d8060008114613306576040519150601f19603f3d011682016040523d82523d6000602084013e61330b565b606091505b50915091508161331e5760156000612b5c565b80806020019051810190612b5c91906152b6565b6040516001600160a01b03838116602483015282166044820152600090819081908190610167907f46de0fb10000000000000000000000000000000000000000000000000000000090606401612dc9565b600061338d613be1565b604080516001600160a01b03851660248083019190915282518083039091018152604490910182526020810180516001600160e01b03167f3f28a19b0000000000000000000000000000000000000000000000000000000017905290516000918291610167916133fc91614944565b6000604051808303816000865af19150503d8060008114613439576040519150601f19603f3d011682016040523d82523d6000602084013e61343e565b606091505b509150915061344b613be1565b826134585760158161188c565b8180602001905181019061188c91906152e2565b6040516001600160a01b0383811660248301528216604482015260009081908190610167907f5b8f85840000000000000000000000000000000000000000000000000000000090606401612ccb565b6040516001600160a01b0383811660248301528216604482015260009081908190610167907f52f913870000000000000000000000000000000000000000000000000000000090606401612ccb565b6000613514613c01565b604080516001600160a01b0386166024820152600785900b60448083019190915282518083039091018152606490910182526020810180516001600160e01b03167f287e1da800000000000000000000000000000000000000000000000000000000179052905160009182916101679161358d91614944565b6000604051808303816000865af19150503d80600081146135ca576040519150601f19603f3d011682016040523d82523d6000602084013e6135cf565b606091505b50915091506135dc613c01565b826135e957601581612b5c565b81806020019051810190612b5c9190615389565b6040516001600160a01b0383811660248301528216604482015260009081908190610167907f49146bde0000000000000000000000000000000000000000000000000000000090606401612ccb565b6040516001600160a01b038581166024830152848116604483015283166064820152600782900b608482015260009081908190610167907f5cfc9011000000000000000000000000000000000000000000000000000000009060a401610b83565b6040516001600160a01b0383811660248301528216604482015260009081908190610167907f099794e80000000000000000000000000000000000000000000000000000000090606401612ccb565b6040516001600160a01b0382166024820152600090819081908190610167907f19f373610000000000000000000000000000000000000000000000000000000090604401612f65565b60008060606000806101676001600160a01b031663e0f4059a60e01b89898960405160240161377693929190615471565b60408051601f198184030181529181526020820180516001600160e01b03166001600160e01b03199094169390931790925290516137b49190614944565b6000604051808303816000865af19150503d80600081146137f1576040519150601f19603f3d011682016040523d82523d6000602084013e6137f6565b606091505b50915091508161381957604080516000808252602082019092526015919061382d565b8080602001905181019061382d91906154ee565b60039290920b9a90995090975095505050505050565b6040516001600160a01b038216602482015260009081908190610167907f7c41ad2c00000000000000000000000000000000000000000000000000000000906044015b60408051601f198184030181529181526020820180516001600160e01b03166001600160e01b03199094169390931790925290516138c49190614944565b6000604051808303816000865af19150503d8060008114613901576040519150601f19603f3d011682016040523d82523d6000602084013e613906565b606091505b50915091508161391757601561392b565b8080602001905181019061392b9190614972565b60030b949350505050565b6040516001600160a01b038216602482015260009081908190610167907f3b3bff0f0000000000000000000000000000000000000000000000000000000090604401613886565b604080516001600160a01b03831660248083019190915282518083039091018152604490910182526020810180516001600160e01b03167f93272baf000000000000000000000000000000000000000000000000000000001790529051600091829182918291610167916139f091614944565b6000604051808303816000865af19150503d8060008114613a2d576040519150601f19603f3d011682016040523d82523d6000602084013e613a32565b606091505b509150915081613a4657601560001961300c565b8080602001905181019061300c91906155ae565b6040516001600160a01b03848116602483015283166044820152600782900b606482015260009081908190610167907fefef57f9000000000000000000000000000000000000000000000000000000009060840161293a565b60008060006101676001600160a01b031663f7f38e2660e01b87878760405160240161293a939291906155d8565b6040516001600160a01b0382166024820152600090819081908190610167907f335e04c10000000000000000000000000000000000000000000000000000000090604401612f65565b60408051610240810182526060610120820181815261014083018290526000610160840181905261018084018390526101a084018190526101c084018190526101e0840181905261020084018390528451928301855280835260208301819052938201939093526102208201529081908152602001600060070b8152602001600015158152602001600015158152602001600015158152602001606081526020016060815260200160608152602001606081525090565b6040518060400160405280613bf4613b2a565b8152600060209091015290565b6040518060c00160405280613c14613b2a565b8152600060208201819052604082018190526060808301829052608083015260a09091015290565b6001600160a01b0381168114613c5157600080fd5b50565b8035613c5f81613c3c565b919050565b8015158114613c5157600080fd5b600080600060608486031215613c8757600080fd5b8335613c9281613c3c565b92506020840135613ca281613c3c565b91506040840135613cb281613c64565b809150509250925092565b60005b83811015613cd8578181015183820152602001613cc0565b83811115613ce7576000848401525b50505050565b60008151808452613d05816020860160208601613cbd565b601f01601f19169290920160200192915050565b602081526000610ce36020830184613ced565b600080600060608486031215613d4157600080fd5b8335613d4c81613c3c565b92506020840135613d5c81613c3c565b929592945050506040919091013590565b60008060008060808587031215613d8357600080fd5b8435613d8e81613c3c565b93506020850135613d9e81613c3c565b92506040850135613dae81613c3c565b9396929550929360600135925050565b60008060408385031215613dd157600080fd5b8235613ddc81613c3c565b946020939093013593505050565b805115158252600060208201516001600160a01b0380821660208601526040840151915060a06040860152613e2260a0860183613ced565b915060608401518583036060870152613e3b8382613ced565b925050806080850151166080860152508091505092915050565b602081526000610ce36020830184613dea565b600060208284031215613e7a57600080fd5b8135610ce381613c3c565b60608101610ca48284805160070b82526001600160a01b036020820151166020830152604081015160070b60408301525050565b60008060408385031215613ecc57600080fd5b8235613ed781613c3c565b91506020830135613ee781613c3c565b809150509250929050565b600081518084526020808501808196508360051b8101915082860160005b85811015613f4e5782840389528151805185528501516040868601819052613f3a81870183613dea565b9a87019a9550505090840190600101613f10565b5091979650505050505050565b60006101608251818552613f7182860182613ced565b91505060208301518482036020860152613f8b8282613ced565b9150506040830151613fa860408601826001600160a01b03169052565b5060608301518482036060860152613fc08282613ced565b9150506080830151613fd6608086018215159052565b5060a0830151613feb60a086018260070b9052565b5060c0830151613fff60c086018215159052565b5060e083015184820360e08601526140178282613ef2565b9150506101008084015161405382870182805160070b82526001600160a01b036020820151166020830152604081015160070b60408301525050565b5090949350505050565b600081518084526020808501945080840160005b838110156140ca578151805160070b8852838101516001600160a01b03908116858a01526040808301511515908a01526060808301511515908a0152608091820151169088015260a09096019590820190600101614071565b509495945050505050565b600081518084526020808501945080840160005b838110156140ca5781518051600790810b895284820151810b858a0152604080830151820b908a015260608083015190910b9089015260808082015115159089015260a0908101516001600160a01b03169088015260c090960195908201906001016140e9565b600081518084526020808501945080840160005b838110156140ca5781518051600790810b895284820151810b858a015260408083015190910b908901526060808201516001600160a01b03908116918a01919091526080808301511515908a015260a091820151169088015260c09096019590820190600101614164565b600061012082518185526141e582860182613f5b565b91505060208301516141fc602086018260070b9052565b506040830151614210604086018215159052565b506060830151614224606086018215159052565b506080830151614238608086018215159052565b5060a083015184820360a0860152614250828261405d565b91505060c083015184820360c086015261426a82826140d5565b91505060e083015184820360e08601526142848282614150565b91505061010080840151858303828701526111ea8382613ced565b602081526000610ce360208301846141cf565b6060815260006142c5606083018661405d565b82810360208401526142d781866140d5565b905082810360408401526111ea8185614150565b6000806000806080858703121561430157600080fd5b843561430c81613c3c565b9350602085013561431c81613c3c565b93969395505050506040820135916060013590565b8060070b8114613c5157600080fd5b634e487b7160e01b600052604160045260246000fd5b60405160a0810167ffffffffffffffff8111828210171561437957614379614340565b60405290565b6040805190810167ffffffffffffffff8111828210171561437957614379614340565b604051610120810167ffffffffffffffff8111828210171561437957614379614340565b60405160c0810167ffffffffffffffff8111828210171561437957614379614340565b604051601f8201601f1916810167ffffffffffffffff8111828210171561441257614412614340565b604052919050565b600067ffffffffffffffff82111561443457614434614340565b5060051b60200190565b6000806000806080858703121561445457600080fd5b843561445f81613c3c565b935060208581013561447081614331565b9350604086013567ffffffffffffffff81111561448c57600080fd5b8601601f8101881361449d57600080fd5b80356144b06144ab8261441a565b6143e9565b81815260059190911b8201830190838101908a8311156144cf57600080fd5b928401925b828410156144f65783356144e781614331565b825292840192908401906144d4565b809650505050505061450a60608601613c54565b905092959194509250565b60208152600082516040602084015261453160608401826141cf565b9050602084015160030b60408401528091505092915050565b60008060006060848603121561455f57600080fd5b833561456a81613c3c565b9250602084013561457a81613c3c565b91506040840135613cb281613c3c565b600067ffffffffffffffff8211156145a4576145a4614340565b50601f01601f191660200190565b600082601f8301126145c357600080fd5b81356145d16144ab8261458a565b8181528460208386010111156145e657600080fd5b816020850160208301376000918101602001919091529392505050565b6000806040838503121561461657600080fd5b823561462181613c3c565b9150602083013567ffffffffffffffff81111561463d57600080fd5b614649858286016145b2565b9150509250929050565b82815260406020820152600061466c6040830184613ced565b949350505050565b6000806040838503121561468757600080fd5b823561469281613c3c565b91506020830135613ee781614331565b602081526000825160c060208401526146be60e08401826141cf565b9050602084015160070b604084015260408401516001600160a01b038082166060860152606086015160070b608086015260808601519150601f198584030160a086015261470c8383613ced565b92508060a08701511660c086015250508091505092915050565b600080600080600060a0868803121561473e57600080fd5b853561474981613c3c565b9450602086013561475981613c3c565b9350604086013561476981613c3c565b94979396509394606081013594506080013592915050565b6000806000806080858703121561479757600080fd5b84356147a281613c3c565b93506020858101356147b381614331565b9350604086013567ffffffffffffffff808211156147d057600080fd5b818801915088601f8301126147e457600080fd5b81356147f26144ab8261441a565b81815260059190911b8301840190848101908b83111561481157600080fd5b8585015b838110156148495780358581111561482d5760008081fd5b61483b8e89838a01016145b2565b845250918601918601614815565b5080975050505050505061450a60608601613c54565b6001600160a01b038316815260406020820152600061466c6040830184613ced565b600082601f83011261489257600080fd5b81516148a06144ab8261458a565b8181528460208386010111156148b557600080fd5b610ca0826020830160208701613cbd565b600080604083850312156148d957600080fd5b82519150602083015167ffffffffffffffff8111156148f757600080fd5b61464985828601614881565b60006020828403121561491557600080fd5b5051919050565b8051613c5f81614331565b60006020828403121561493957600080fd5b8151610ce381614331565b60008251614956818460208701613cbd565b9190910192915050565b8051600381900b8114613c5f57600080fd5b60006020828403121561498457600080fd5b610ce382614960565b8051613c5f81613c3c565b6000602082840312156149aa57600080fd5b8151610ce381613c3c565b821515815260406020820152600061466c6040830184613ced565b600080604083850312156149e357600080fd5b6149ec83614960565b9150602083015167ffffffffffffffff8111156148f757600080fd5b634e487b7160e01b600052603260045260246000fd5b8051613c5f81613c64565b600060a08284031215614a3b57600080fd5b614a43614356565b90508151614a5081613c64565b81526020820151614a6081613c3c565b6020820152604082015167ffffffffffffffff80821115614a8057600080fd5b614a8c85838601614881565b60408401526060840151915080821115614aa557600080fd5b50614ab284828501614881565b6060830152506080820151614ac681613c3c565b608082015292915050565b60008060408385031215614ae457600080fd5b614aed83614960565b9150602083015167ffffffffffffffff811115614b0957600080fd5b61464985828601614a29565b600060608284031215614b2757600080fd5b6040516060810181811067ffffffffffffffff82111715614b4a57614b4a614340565b80604052508091508251614b5d81614331565b81526020830151614b6d81613c3c565b60208201526040830151614b8081614331565b6040919091015292915050565b60008060808385031215614ba057600080fd5b614ba983614960565b9150614bb88460208501614b15565b90509250929050565b60008060408385031215614bd457600080fd5b614bdd83614960565b91506020830151613ee781613c64565b600082601f830112614bfe57600080fd5b81516020614c0e6144ab8361441a565b82815260059290921b84018101918181019086841115614c2d57600080fd5b8286015b84811015614caf57805167ffffffffffffffff80821115614c525760008081fd5b908801906040828b03601f1901811315614c6c5760008081fd5b614c7461437f565b838801518152908301519082821115614c8d5760008081fd5b614c9b8c8984870101614a29565b818901528652505050918301918301614c31565b509695505050505050565b60006101608284031215614ccd57600080fd5b614cd56143a2565b9050815167ffffffffffffffff80821115614cef57600080fd5b614cfb85838601614881565b83526020840151915080821115614d1157600080fd5b614d1d85838601614881565b6020840152614d2e6040850161498d565b60408401526060840151915080821115614d4757600080fd5b614d5385838601614881565b6060840152614d6460808501614a1e565b6080840152614d7560a0850161491c565b60a0840152614d8660c08501614a1e565b60c084015260e0840151915080821115614d9f57600080fd5b50614dac84828501614bed565b60e083015250610100614dc184828501614b15565b9082015292915050565b600082601f830112614ddc57600080fd5b81516020614dec6144ab8361441a565b82815260a09283028501820192828201919087851115614e0b57600080fd5b8387015b85811015614e935781818a031215614e275760008081fd5b614e2f614356565b8151614e3a81614331565b815281860151614e4981613c3c565b81870152604082810151614e5c81613c64565b90820152606082810151614e6f81613c64565b90820152608082810151614e8281613c3c565b908201528452928401928101614e0f565b5090979650505050505050565b600082601f830112614eb157600080fd5b81516020614ec16144ab8361441a565b82815260c09283028501820192828201919087851115614ee057600080fd5b8387015b85811015614e935781818a031215614efc5760008081fd5b614f046143c6565b8151614f0f81614331565b815281860151614f1e81614331565b81870152604082810151614f3181614331565b90820152606082810151614f4481614331565b90820152608082810151614f5781613c64565b9082015260a082810151614f6a81613c3c565b908201528452928401928101614ee4565b600082601f830112614f8c57600080fd5b81516020614f9c6144ab8361441a565b82815260c09283028501820192828201919087851115614fbb57600080fd5b8387015b85811015614e935781818a031215614fd75760008081fd5b614fdf6143c6565b8151614fea81614331565b815281860151614ff981614331565b8187015260408281015161500c81614331565b9082015260608281015161501f81613c3c565b9082015260808281015161503281613c64565b9082015260a08281015161504581613c3c565b908201528452928401928101614fbf565b6000610120828403121561506957600080fd5b6150716143a2565b9050815167ffffffffffffffff8082111561508b57600080fd5b61509785838601614cba565b83526150a56020850161491c565b60208401526150b660408501614a1e565b60408401526150c760608501614a1e565b60608401526150d860808501614a1e565b608084015260a08401519150808211156150f157600080fd5b6150fd85838601614dcb565b60a084015260c084015191508082111561511657600080fd5b61512285838601614ea0565b60c084015260e084015191508082111561513b57600080fd5b61514785838601614f7b565b60e08401526101009150818401518181111561516257600080fd5b61516e86828701614881565b8385015250505092915050565b6000806040838503121561518e57600080fd5b61519783614960565b9150602083015167ffffffffffffffff8111156151b357600080fd5b61464985828601615056565b600080600080608085870312156151d557600080fd5b6151de85614960565b9350602085015167ffffffffffffffff808211156151fb57600080fd5b61520788838901614dcb565b9450604087015191508082111561521d57600080fd5b61522988838901614ea0565b9350606087015191508082111561523f57600080fd5b5061524c87828801614f7b565b91505092959194509250565b600081518084526020808501945080840160005b838110156140ca57815160070b8752958201959082019060010161526c565b6001600160a01b03841681528260070b60208201526060604082015260006108316060830184615258565b600080604083850312156152c957600080fd5b6152d283614960565b91506020830151613ee781614331565b600080604083850312156152f557600080fd5b6152fe83614960565b9150602083015167ffffffffffffffff8082111561531b57600080fd5b908401906040828703121561532f57600080fd5b60405160408101818110838211171561534a5761534a614340565b60405282518281111561535c57600080fd5b61536888828601615056565b82525061537760208401614960565b60208201528093505050509250929050565b6000806040838503121561539c57600080fd5b6153a583614960565b9150602083015167ffffffffffffffff808211156153c257600080fd5b9084019060c082870312156153d657600080fd5b6153de6143c6565b8251828111156153ed57600080fd5b6153f988828601615056565b8252506154086020840161491c565b60208201526154196040840161498d565b604082015261542a6060840161491c565b606082015260808301518281111561544157600080fd5b61544d88828601614881565b60808301525061545f60a0840161498d565b60a08201528093505050509250929050565b6000606082016001600160a01b038616835260208560070b818501526060604085015281855180845260808601915060808160051b870101935082870160005b828110156154df57607f198887030184526154cd868351613ced565b955092840192908401906001016154b1565b50939998505050505050505050565b60008060006060848603121561550357600080fd5b61550c84614960565b925060208085015161551d81614331565b604086015190935067ffffffffffffffff81111561553a57600080fd5b8501601f8101871361554b57600080fd5b80516155596144ab8261441a565b81815260059190911b8201830190838101908983111561557857600080fd5b928401925b8284101561559f57835161559081614331565b8252928401929084019061557d565b80955050505050509250925092565b600080604083850312156155c157600080fd5b6155ca83614960565b9150614bb860208401614960565b60006001600160a01b03808616835280851660208401525060606040830152610831606083018461525856fe4661696c656420746f20617070726f76652046756e6769626c6520746f6b656e2e4661696c656420746f20636865636b20667265657a6520737461747573206f66206163636f756e742e4661696c656420746f207472616e736665722046756e6769626c6520746f6b656e2e4661696c656420746f20726574726965766520746f6b656e20696e666f20616674657220756e70617573652e4661696c656420746f20726574726965766520746f6b656e20696e666f20616674657220776970652e4661696c656420746f20636865636b20756e667265657a6520737461747573206f66206163636f756e742e4661696c656420746f20726574726965766520746f6b656e20696e666f206265666f7265206275726e2e4661696c656420746f20726574726965766520746f6b656e20696e666f206265666f726520776970652e4661696c656420746f2067657420746f6b656e20696e666f2061667465722070617573652e4661696c656420746f20667265657a6520746f6b656e20666f7220746865206163636f756e742ea2646970667358221220d72c90548c8572322db01986fc07949526771342e433f6294bcd3d3a4f0de3ab64736f6c63430008090033",
  "linkReferences": {},
  "deployedLinkReferences": {}
}