{
  "_format": "hh-sol-artifact-1",
  "contractName": "PrecompileTestContract",
  "sourceName": "contracts/PrecompileTestContract.sol",
  "abi": [
    {
      "anonymous": false,
      "inputs": [
        {
          "indexed": false,
          "internalType": "bool",
          "name": "",
          "type": "bool"
        },
        {
          "indexed": false,
          "internalType": "bytes",
          "name": "",
          "type": "bytes"
        }
      ],
      "name": "CallResponseEvent",
      "type": "event"
    },
    {
      "inputs": [
        {
          "internalType": "address",
          "name": "token",
          "type": "address"
        },
        {
          "internalType": "address",
          "name": "owner",
          "type": "address"
        },
        {
          "internalType": "address",
          "name": "spender",
          "type": "address"
        }
      ],
      "name": "allowanceRedirect",
      "outputs": [
        {
          "internalType": "bytes",
          "name": "result",
          "type": "bytes"
        }
      ],
      "stateMutability": "nonpayable",
      "type": "function"
    },
    {
      "inputs": [
        {
          "internalType": "address",
          "name": "token",
          "type": "address"
        },
        {
          "internalType": "address",
          "name": "spender",
          "type": "address"
        },
        {
          "internalType": "uint256",
          "name": "amount",
          "type": "uint256"
        }
      ],
      "name": "approveRedirect",
      "outputs": [
        {
          "internalType": "bytes",
          "name": "result",
          "type": "bytes"
        }
      ],
      "stateMutability": "nonpayable",
      "type": "function"
    },
    {
      "inputs": [
        {
          "internalType": "address",
          "name": "token",
          "type": "address"
        },
        {
          "internalType": "address",
          "name": "account",
          "type": "address"
        }
      ],
      "name": "balanceOfRedirect",
      "outputs": [
        {
          "internalType": "bytes",
          "name": "result",
          "type": "bytes"
        }
      ],
      "stateMutability": "nonpayable",
      "type": "function"
    },
    {
      "inputs": [
        {
          "internalType": "address",
          "name": "token",
          "type": "address"
        }
      ],
      "name": "decimalsRedirect",
      "outputs": [
        {
          "internalType": "bytes",
          "name": "result",
          "type": "bytes"
        }
      ],
      "stateMutability": "nonpayable",
      "type": "function"
    },
    {
      "inputs": [
        {
          "internalType": "address",
          "name": "token",
          "type": "address"
        },
        {
          "internalType": "uint256",
          "name": "tokenId",
          "type": "uint256"
        }
      ],
      "name": "getApprovedRedirect",
      "outputs": [
        {
          "internalType": "bytes",
          "name": "result",
          "type": "bytes"
        }
      ],
      "stateMutability": "nonpayable",
      "type": "function"
    },
    {
      "inputs": [
        {
          "internalType": "address",
          "name": "token",
          "type": "address"
        }
      ],
      "name": "getCustomFeesForToken",
      "outputs": [
        {
          "components": [
            {
              "internalType": "int64",
              "name": "amount",
              "type": "int64"
            },
            {
              "internalType": "address",
              "name": "tokenId",
              "type": "address"
            },
            {
              "internalType": "bool",
              "name": "useHbarsForPayment",
              "type": "bool"
            },
            {
              "internalType": "bool",
              "name": "useCurrentTokenForPayment",
              "type": "bool"
            },
            {
              "internalType": "address",
              "name": "feeCollector",
              "type": "address"
            }
          ],
          "internalType": "struct IHederaTokenService.FixedFee[]",
          "name": "fixedFees",
          "type": "tuple[]"
        },
        {
          "components": [
            {
              "internalType": "int64",
              "name": "numerator",
              "type": "int64"
            },
            {
              "internalType": "int64",
              "name": "denominator",
              "type": "int64"
            },
            {
              "internalType": "int64",
              "name": "minimumAmount",
              "type": "int64"
            },
            {
              "internalType": "int64",
              "name": "maximumAmount",
              "type": "int64"
            },
            {
              "internalType": "bool",
              "name": "netOfTransfers",
              "type": "bool"
            },
            {
              "internalType": "address",
              "name": "feeCollector",
              "type": "address"
            }
          ],
          "internalType": "struct IHederaTokenService.FractionalFee[]",
          "name": "fractionalFees",
          "type": "tuple[]"
        },
        {
          "components": [
            {
              "internalType": "int64",
              "name": "numerator",
              "type": "int64"
            },
            {
              "internalType": "int64",
              "name": "denominator",
              "type": "int64"
            },
            {
              "internalType": "int64",
              "name": "amount",
              "type": "int64"
            },
            {
              "internalType": "address",
              "name": "tokenId",
              "type": "address"
            },
            {
              "internalType": "bool",
              "name": "useHbarsForPayment",
              "type": "bool"
            },
            {
              "internalType": "address",
              "name": "feeCollector",
              "type": "address"
            }
          ],
          "internalType": "struct IHederaTokenService.RoyaltyFee[]",
          "name": "royaltyFees",
          "type": "tuple[]"
        }
      ],
      "stateMutability": "nonpayable",
      "type": "function"
    },
    {
      "inputs": [
        {
          "internalType": "address",
          "name": "token",
          "type": "address"
        }
      ],
      "name": "getExpiryInfoForToken",
      "outputs": [
        {
          "components": [
            {
              "internalType": "int64",
              "name": "second",
              "type": "int64"
            },
            {
              "internalType": "address",
              "name": "autoRenewAccount",
              "type": "address"
            },
            {
              "internalType": "int64",
              "name": "autoRenewPeriod",
              "type": "int64"
            }
          ],
          "internalType": "struct IHederaTokenService.Expiry",
          "name": "expiry",
          "type": "tuple"
        }
      ],
      "stateMutability": "nonpayable",
      "type": "function"
    },
    {
      "inputs": [
        {
          "internalType": "address",
          "name": "token",
          "type": "address"
        }
      ],
      "name": "getInformationForFungibleToken",
      "outputs": [
        {
          "components": [
            {
              "components": [
                {
                  "components": [
                    {
                      "internalType": "string",
                      "name": "name",
                      "type": "string"
                    },
                    {
                      "internalType": "string",
                      "name": "symbol",
                      "type": "string"
                    },
                    {
                      "internalType": "address",
                      "name": "treasury",
                      "type": "address"
                    },
                    {
                      "internalType": "string",
                      "name": "memo",
                      "type": "string"
                    },
                    {
                      "internalType": "bool",
                      "name": "tokenSupplyType",
                      "type": "bool"
                    },
                    {
                      "internalType": "int64",
                      "name": "maxSupply",
                      "type": "int64"
                    },
                    {
                      "internalType": "bool",
                      "name": "freezeDefault",
                      "type": "bool"
                    },
                    {
                      "components": [
                        {
                          "internalType": "uint256",
                          "name": "keyType",
                          "type": "uint256"
                        },
                        {
                          "components": [
                            {
                              "internalType": "bool",
                              "name": "inheritAccountKey",
                              "type": "bool"
                            },
                            {
                              "internalType": "address",
                              "name": "contractId",
                              "type": "address"
                            },
                            {
                              "internalType": "bytes",
                              "name": "ed25519",
                              "type": "bytes"
                            },
                            {
                              "internalType": "bytes",
                              "name": "ECDSA_secp256k1",
                              "type": "bytes"
                            },
                            {
                              "internalType": "address",
                              "name": "delegatableContractId",
                              "type": "address"
                            }
                          ],
                          "internalType": "struct IHederaTokenService.KeyValue",
                          "name": "key",
                          "type": "tuple"
                        }
                      ],
                      "internalType": "struct IHederaTokenService.TokenKey[]",
                      "name": "tokenKeys",
                      "type": "tuple[]"
                    },
                    {
                      "components": [
                        {
                          "internalType": "int64",
                          "name": "second",
                          "type": "int64"
                        },
                        {
                          "internalType": "address",
                          "name": "autoRenewAccount",
                          "type": "address"
                        },
                        {
                          "internalType": "int64",
                          "name": "autoRenewPeriod",
                          "type": "int64"
                        }
                      ],
                      "internalType": "struct IHederaTokenService.Expiry",
                      "name": "expiry",
                      "type": "tuple"
                    }
                  ],
                  "internalType": "struct IHederaTokenService.HederaToken",
                  "name": "token",
                  "type": "tuple"
                },
                {
                  "internalType": "int64",
                  "name": "totalSupply",
                  "type": "int64"
                },
                {
                  "internalType": "bool",
                  "name": "deleted",
                  "type": "bool"
                },
                {
                  "internalType": "bool",
                  "name": "defaultKycStatus",
                  "type": "bool"
                },
                {
                  "internalType": "bool",
                  "name": "pauseStatus",
                  "type": "bool"
                },
                {
                  "components": [
                    {
                      "internalType": "int64",
                      "name": "amount",
                      "type": "int64"
                    },
                    {
                      "internalType": "address",
                      "name": "tokenId",
                      "type": "address"
                    },
                    {
                      "internalType": "bool",
                      "name": "useHbarsForPayment",
                      "type": "bool"
                    },
                    {
                      "internalType": "bool",
                      "name": "useCurrentTokenForPayment",
                      "type": "bool"
                    },
                    {
                      "internalType": "address",
                      "name": "feeCollector",
                      "type": "address"
                    }
                  ],
                  "internalType": "struct IHederaTokenService.FixedFee[]",
                  "name": "fixedFees",
                  "type": "tuple[]"
                },
                {
                  "components": [
                    {
                      "internalType": "int64",
                      "name": "numerator",
                      "type": "int64"
                    },
                    {
                      "internalType": "int64",
                      "name": "denominator",
                      "type": "int64"
                    },
                    {
                      "internalType": "int64",
                      "name": "minimumAmount",
                      "type": "int64"
                    },
                    {
                      "internalType": "int64",
                      "name": "maximumAmount",
                      "type": "int64"
                    },
                    {
                      "internalType": "bool",
                      "name": "netOfTransfers",
                      "type": "bool"
                    },
                    {
                      "internalType": "address",
                      "name": "feeCollector",
                      "type": "address"
                    }
                  ],
                  "internalType": "struct IHederaTokenService.FractionalFee[]",
                  "name": "fractionalFees",
                  "type": "tuple[]"
                },
                {
                  "components": [
                    {
                      "internalType": "int64",
                      "name": "numerator",
                      "type": "int64"
                    },
                    {
                      "internalType": "int64",
                      "name": "denominator",
                      "type": "int64"
                    },
                    {
                      "internalType": "int64",
                      "name": "amount",
                      "type": "int64"
                    },
                    {
                      "internalType": "address",
                      "name": "tokenId",
                      "type": "address"
                    },
                    {
                      "internalType": "bool",
                      "name": "useHbarsForPayment",
                      "type": "bool"
                    },
                    {
                      "internalType": "address",
                      "name": "feeCollector",
                      "type": "address"
                    }
                  ],
                  "internalType": "struct IHederaTokenService.RoyaltyFee[]",
                  "name": "royaltyFees",
                  "type": "tuple[]"
                },
                {
                  "internalType": "string",
                  "name": "ledgerId",
                  "type": "string"
                }
              ],
              "internalType": "struct IHederaTokenService.TokenInfo",
              "name": "tokenInfo",
              "type": "tuple"
            },
            {
              "internalType": "int32",
              "name": "decimals",
              "type": "int32"
            }
          ],
          "internalType": "struct IHederaTokenService.FungibleTokenInfo",
          "name": "fungibleTokenInfo",
          "type": "tuple"
        }
      ],
      "stateMutability": "nonpayable",
      "type": "function"
    },
    {
      "inputs": [
        {
          "internalType": "address",
          "name": "token",
          "type": "address"
        },
        {
          "internalType": "int64",
          "name": "serialNumber",
          "type": "int64"
        }
      ],
      "name": "getInformationForNonFungibleToken",
      "outputs": [
        {
          "components": [
            {
              "components": [
                {
                  "components": [
                    {
                      "internalType": "string",
                      "name": "name",
                      "type": "string"
                    },
                    {
                      "internalType": "string",
                      "name": "symbol",
                      "type": "string"
                    },
                    {
                      "internalType": "address",
                      "name": "treasury",
                      "type": "address"
                    },
                    {
                      "internalType": "string",
                      "name": "memo",
                      "type": "string"
                    },
                    {
                      "internalType": "bool",
                      "name": "tokenSupplyType",
                      "type": "bool"
                    },
                    {
                      "internalType": "int64",
                      "name": "maxSupply",
                      "type": "int64"
                    },
                    {
                      "internalType": "bool",
                      "name": "freezeDefault",
                      "type": "bool"
                    },
                    {
                      "components": [
                        {
                          "internalType": "uint256",
                          "name": "keyType",
                          "type": "uint256"
                        },
                        {
                          "components": [
                            {
                              "internalType": "bool",
                              "name": "inheritAccountKey",
                              "type": "bool"
                            },
                            {
                              "internalType": "address",
                              "name": "contractId",
                              "type": "address"
                            },
                            {
                              "internalType": "bytes",
                              "name": "ed25519",
                              "type": "bytes"
                            },
                            {
                              "internalType": "bytes",
                              "name": "ECDSA_secp256k1",
                              "type": "bytes"
                            },
                            {
                              "internalType": "address",
                              "name": "delegatableContractId",
                              "type": "address"
                            }
                          ],
                          "internalType": "struct IHederaTokenService.KeyValue",
                          "name": "key",
                          "type": "tuple"
                        }
                      ],
                      "internalType": "struct IHederaTokenService.TokenKey[]",
                      "name": "tokenKeys",
                      "type": "tuple[]"
                    },
                    {
                      "components": [
                        {
                          "internalType": "int64",
                          "name": "second",
                          "type": "int64"
                        },
                        {
                          "internalType": "address",
                          "name": "autoRenewAccount",
                          "type": "address"
                        },
                        {
                          "internalType": "int64",
                          "name": "autoRenewPeriod",
                          "type": "int64"
                        }
                      ],
                      "internalType": "struct IHederaTokenService.Expiry",
                      "name": "expiry",
                      "type": "tuple"
                    }
                  ],
                  "internalType": "struct IHederaTokenService.HederaToken",
                  "name": "token",
                  "type": "tuple"
                },
                {
                  "internalType": "int64",
                  "name": "totalSupply",
                  "type": "int64"
                },
                {
                  "internalType": "bool",
                  "name": "deleted",
                  "type": "bool"
                },
                {
                  "internalType": "bool",
                  "name": "defaultKycStatus",
                  "type": "bool"
                },
                {
                  "internalType": "bool",
                  "name": "pauseStatus",
                  "type": "bool"
                },
                {
                  "components": [
                    {
                      "internalType": "int64",
                      "name": "amount",
                      "type": "int64"
                    },
                    {
                      "internalType": "address",
                      "name": "tokenId",
                      "type": "address"
                    },
                    {
                      "internalType": "bool",
                      "name": "useHbarsForPayment",
                      "type": "bool"
                    },
                    {
                      "internalType": "bool",
                      "name": "useCurrentTokenForPayment",
                      "type": "bool"
                    },
                    {
                      "internalType": "address",
                      "name": "feeCollector",
                      "type": "address"
                    }
                  ],
                  "internalType": "struct IHederaTokenService.FixedFee[]",
                  "name": "fixedFees",
                  "type": "tuple[]"
                },
                {
                  "components": [
                    {
                      "internalType": "int64",
                      "name": "numerator",
                      "type": "int64"
                    },
                    {
                      "internalType": "int64",
                      "name": "denominator",
                      "type": "int64"
                    },
                    {
                      "internalType": "int64",
                      "name": "minimumAmount",
                      "type": "int64"
                    },
                    {
                      "internalType": "int64",
                      "name": "maximumAmount",
                      "type": "int64"
                    },
                    {
                      "internalType": "bool",
                      "name": "netOfTransfers",
                      "type": "bool"
                    },
                    {
                      "internalType": "address",
                      "name": "feeCollector",
                      "type": "address"
                    }
                  ],
                  "internalType": "struct IHederaTokenService.FractionalFee[]",
                  "name": "fractionalFees",
                  "type": "tuple[]"
                },
                {
                  "components": [
                    {
                      "internalType": "int64",
                      "name": "numerator",
                      "type": "int64"
                    },
                    {
                      "internalType": "int64",
                      "name": "denominator",
                      "type": "int64"
                    },
                    {
                      "internalType": "int64",
                      "name": "amount",
                      "type": "int64"
                    },
                    {
                      "internalType": "address",
                      "name": "tokenId",
                      "type": "address"
                    },
                    {
                      "internalType": "bool",
                      "name": "useHbarsForPayment",
                      "type": "bool"
                    },
                    {
                      "internalType": "address",
                      "name": "feeCollector",
                      "type": "address"
                    }
                  ],
                  "internalType": "struct IHederaTokenService.RoyaltyFee[]",
                  "name": "royaltyFees",
                  "type": "tuple[]"
                },
                {
                  "internalType": "string",
                  "name": "ledgerId",
                  "type": "string"
                }
              ],
              "internalType": "struct IHederaTokenService.TokenInfo",
              "name": "tokenInfo",
              "type": "tuple"
            },
            {
              "internalType": "int64",
              "name": "serialNumber",
              "type": "int64"
            },
            {
              "internalType": "address",
              "name": "ownerId",
              "type": "address"
            },
            {
              "internalType": "int64",
              "name": "creationTime",
              "type": "int64"
            },
            {
              "internalType": "bytes",
              "name": "metadata",
              "type": "bytes"
            },
            {
              "internalType": "address",
              "name": "spenderId",
              "type": "address"
            }
          ],
          "internalType": "struct IHederaTokenService.NonFungibleTokenInfo",
          "name": "nonFungibleTokenInfo",
          "type": "tuple"
        }
      ],
      "stateMutability": "nonpayable",
      "type": "function"
    },
    {
      "inputs": [
        {
          "internalType": "address",
          "name": "token",
          "type": "address"
        }
      ],
      "name": "getInformationForToken",
      "outputs": [
        {
          "components": [
            {
              "components": [
                {
                  "internalType": "string",
                  "name": "name",
                  "type": "string"
                },
                {
                  "internalType": "string",
                  "name": "symbol",
                  "type": "string"
                },
                {
                  "internalType": "address",
                  "name": "treasury",
                  "type": "address"
                },
                {
                  "internalType": "string",
                  "name": "memo",
                  "type": "string"
                },
                {
                  "internalType": "bool",
                  "name": "tokenSupplyType",
                  "type": "bool"
                },
                {
                  "internalType": "int64",
                  "name": "maxSupply",
                  "type": "int64"
                },
                {
                  "internalType": "bool",
                  "name": "freezeDefault",
                  "type": "bool"
                },
                {
                  "components": [
                    {
                      "internalType": "uint256",
                      "name": "keyType",
                      "type": "uint256"
                    },
                    {
                      "components": [
                        {
                          "internalType": "bool",
                          "name": "inheritAccountKey",
                          "type": "bool"
                        },
                        {
                          "internalType": "address",
                          "name": "contractId",
                          "type": "address"
                        },
                        {
                          "internalType": "bytes",
                          "name": "ed25519",
                          "type": "bytes"
                        },
                        {
                          "internalType": "bytes",
                          "name": "ECDSA_secp256k1",
                          "type": "bytes"
                        },
                        {
                          "internalType": "address",
                          "name": "delegatableContractId",
                          "type": "address"
                        }
                      ],
                      "internalType": "struct IHederaTokenService.KeyValue",
                      "name": "key",
                      "type": "tuple"
                    }
                  ],
                  "internalType": "struct IHederaTokenService.TokenKey[]",
                  "name": "tokenKeys",
                  "type": "tuple[]"
                },
                {
                  "components": [
                    {
                      "internalType": "int64",
                      "name": "second",
                      "type": "int64"
                    },
                    {
                      "internalType": "address",
                      "name": "autoRenewAccount",
                      "type": "address"
                    },
                    {
                      "internalType": "int64",
                      "name": "autoRenewPeriod",
                      "type": "int64"
                    }
                  ],
                  "internalType": "struct IHederaTokenService.Expiry",
                  "name": "expiry",
                  "type": "tuple"
                }
              ],
              "internalType": "struct IHederaTokenService.HederaToken",
              "name": "token",
              "type": "tuple"
            },
            {
              "internalType": "int64",
              "name": "totalSupply",
              "type": "int64"
            },
            {
              "internalType": "bool",
              "name": "deleted",
              "type": "bool"
            },
            {
              "internalType": "bool",
              "name": "defaultKycStatus",
              "type": "bool"
            },
            {
              "internalType": "bool",
              "name": "pauseStatus",
              "type": "bool"
            },
            {
              "components": [
                {
                  "internalType": "int64",
                  "name": "amount",
                  "type": "int64"
                },
                {
                  "internalType": "address",
                  "name": "tokenId",
                  "type": "address"
                },
                {
                  "internalType": "bool",
                  "name": "useHbarsForPayment",
                  "type": "bool"
                },
                {
                  "internalType": "bool",
                  "name": "useCurrentTokenForPayment",
                  "type": "bool"
                },
                {
                  "internalType": "address",
                  "name": "feeCollector",
                  "type": "address"
                }
              ],
              "internalType": "struct IHederaTokenService.FixedFee[]",
              "name": "fixedFees",
              "type": "tuple[]"
            },
            {
              "components": [
                {
                  "internalType": "int64",
                  "name": "numerator",
                  "type": "int64"
                },
                {
                  "internalType": "int64",
                  "name": "denominator",
                  "type": "int64"
                },
                {
                  "internalType": "int64",
                  "name": "minimumAmount",
                  "type": "int64"
                },
                {
                  "internalType": "int64",
                  "name": "maximumAmount",
                  "type": "int64"
                },
                {
                  "internalType": "bool",
                  "name": "netOfTransfers",
                  "type": "bool"
                },
                {
                  "internalType": "address",
                  "name": "feeCollector",
                  "type": "address"
                }
              ],
              "internalType": "struct IHederaTokenService.FractionalFee[]",
              "name": "fractionalFees",
              "type": "tuple[]"
            },
            {
              "components": [
                {
                  "internalType": "int64",
                  "name": "numerator",
                  "type": "int64"
                },
                {
                  "internalType": "int64",
                  "name": "denominator",
                  "type": "int64"
                },
                {
                  "internalType": "int64",
                  "name": "amount",
                  "type": "int64"
                },
                {
                  "internalType": "address",
                  "name": "tokenId",
                  "type": "address"
                },
                {
                  "internalType": "bool",
                  "name": "useHbarsForPayment",
                  "type": "bool"
                },
                {
                  "internalType": "address",
                  "name": "feeCollector",
                  "type": "address"
                }
              ],
              "internalType": "struct IHederaTokenService.RoyaltyFee[]",
              "name": "royaltyFees",
              "type": "tuple[]"
            },
            {
              "internalType": "string",
              "name": "ledgerId",
              "type": "string"
            }
          ],
          "internalType": "struct IHederaTokenService.TokenInfo",
          "name": "tokenInfo",
          "type": "tuple"
        }
      ],
      "stateMutability": "nonpayable",
      "type": "function"
    },
    {
      "inputs": [
        {
          "internalType": "address",
          "name": "token",
          "type": "address"
        },
        {
          "internalType": "uint256",
          "name": "serialNo",
          "type": "uint256"
        }
      ],
      "name": "getOwnerOfRedirect",
      "outputs": [
        {
          "internalType": "bytes",
          "name": "result",
          "type": "bytes"
        }
      ],
      "stateMutability": "nonpayable",
      "type": "function"
    },
    {
      "inputs": [
        {
          "internalType": "address",
          "name": "token",
          "type": "address"
        }
      ],
      "name": "getTokenDefaultFreeze",
      "outputs": [
        {
          "internalType": "bool",
          "name": "",
          "type": "bool"
        }
      ],
      "stateMutability": "nonpayable",
      "type": "function"
    },
    {
      "inputs": [
        {
          "internalType": "address",
          "name": "token",
          "type": "address"
        }
      ],
      "name": "getTokenDefaultKyc",
      "outputs": [
        {
          "internalType": "bool",
          "name": "",
          "type": "bool"
        }
      ],
      "stateMutability": "nonpayable",
      "type": "function"
    },
    {
      "inputs": [
        {
          "internalType": "address",
          "name": "token",
          "type": "address"
        },
        {
          "internalType": "uint256",
          "name": "keyType",
          "type": "uint256"
        }
      ],
      "name": "getTokenKeyPublic",
      "outputs": [
        {
          "components": [
            {
              "internalType": "bool",
              "name": "inheritAccountKey",
              "type": "bool"
            },
            {
              "internalType": "address",
              "name": "contractId",
              "type": "address"
            },
            {
              "internalType": "bytes",
              "name": "ed25519",
              "type": "bytes"
            },
            {
              "internalType": "bytes",
              "name": "ECDSA_secp256k1",
              "type": "bytes"
            },
            {
              "internalType": "address",
              "name": "delegatableContractId",
              "type": "address"
            }
          ],
          "internalType": "struct IHederaTokenService.KeyValue",
          "name": "",
          "type": "tuple"
        }
      ],
      "stateMutability": "nonpayable",
      "type": "function"
    },
    {
      "inputs": [
        {
          "internalType": "address",
          "name": "token",
          "type": "address"
        }
      ],
      "name": "getType",
      "outputs": [
        {
          "internalType": "int256",
          "name": "",
          "type": "int256"
        }
      ],
      "stateMutability": "nonpayable",
      "type": "function"
    },
    {
      "inputs": [
        {
          "internalType": "address",
          "name": "token",
          "type": "address"
        },
        {
          "internalType": "address",
          "name": "owner",
          "type": "address"
        },
        {
          "internalType": "address",
          "name": "operator",
          "type": "address"
        }
      ],
      "name": "isApprovedForAllRedirect",
      "outputs": [
        {
          "internalType": "bytes",
          "name": "result",
          "type": "bytes"
        }
      ],
      "stateMutability": "nonpayable",
      "type": "function"
    },
    {
      "inputs": [
        {
          "internalType": "address",
          "name": "token",
          "type": "address"
        },
        {
          "internalType": "address",
          "name": "account",
          "type": "address"
        }
      ],
      "name": "isKycGranted",
      "outputs": [
        {
          "internalType": "bool",
          "name": "",
          "type": "bool"
        }
      ],
      "stateMutability": "nonpayable",
      "type": "function"
    },
    {
      "inputs": [
        {
          "internalType": "address",
          "name": "token",
          "type": "address"
        }
      ],
      "name": "isTokenAddress",
      "outputs": [
        {
          "internalType": "bool",
          "name": "",
          "type": "bool"
        }
      ],
      "stateMutability": "nonpayable",
      "type": "function"
    },
    {
      "inputs": [
        {
          "internalType": "address",
          "name": "token",
          "type": "address"
        },
        {
          "internalType": "address",
          "name": "account",
          "type": "address"
        }
      ],
      "name": "isTokenFrozen",
      "outputs": [
        {
          "internalType": "bool",
          "name": "",
          "type": "bool"
        }
      ],
      "stateMutability": "nonpayable",
      "type": "function"
    },
    {
      "inputs": [
        {
          "internalType": "address",
          "name": "token",
          "type": "address"
        }
      ],
      "name": "nameNFTRedirect",
      "outputs": [
        {
          "internalType": "bytes",
          "name": "result",
          "type": "bytes"
        }
      ],
      "stateMutability": "nonpayable",
      "type": "function"
    },
    {
      "inputs": [
        {
          "internalType": "address",
          "name": "token",
          "type": "address"
        }
      ],
      "name": "nameRedirect",
      "outputs": [
        {
          "internalType": "bytes",
          "name": "result",
          "type": "bytes"
        }
      ],
      "stateMutability": "nonpayable",
      "type": "function"
    },
    {
      "inputs": [
        {
          "internalType": "address",
          "name": "token",
          "type": "address"
        },
        {
          "internalType": "bytes",
          "name": "encodedFunctionSelector",
          "type": "bytes"
        }
      ],
      "name": "redirectForToken",
      "outputs": [
        {
          "internalType": "int256",
          "name": "responseCode",
          "type": "int256"
        },
        {
          "internalType": "bytes",
          "name": "response",
          "type": "bytes"
        }
      ],
      "stateMutability": "nonpayable",
      "type": "function"
    },
    {
      "inputs": [
        {
          "internalType": "address",
          "name": "token",
          "type": "address"
        },
        {
          "internalType": "address",
          "name": "operator",
          "type": "address"
        },
        {
          "internalType": "bool",
          "name": "approved",
          "type": "bool"
        }
      ],
      "name": "setApprovalForAllRedirect",
      "outputs": [
        {
          "internalType": "bytes",
          "name": "result",
          "type": "bytes"
        }
      ],
      "stateMutability": "nonpayable",
      "type": "function"
    },
    {
      "inputs": [
        {
          "internalType": "address",
          "name": "token",
          "type": "address"
        }
      ],
      "name": "symbolNFTRedirect",
      "outputs": [
        {
          "internalType": "bytes",
          "name": "result",
          "type": "bytes"
        }
      ],
      "stateMutability": "nonpayable",
      "type": "function"
    },
    {
      "inputs": [
        {
          "internalType": "address",
          "name": "token",
          "type": "address"
        }
      ],
      "name": "symbolRedirect",
      "outputs": [
        {
          "internalType": "bytes",
          "name": "result",
          "type": "bytes"
        }
      ],
      "stateMutability": "nonpayable",
      "type": "function"
    },
    {
      "inputs": [
        {
          "internalType": "address",
          "name": "token",
          "type": "address"
        },
        {
          "internalType": "uint256",
          "name": "tokenId",
          "type": "uint256"
        }
      ],
      "name": "tokenURIRedirect",
      "outputs": [
        {
          "internalType": "bytes",
          "name": "result",
          "type": "bytes"
        }
      ],
      "stateMutability": "nonpayable",
      "type": "function"
    },
    {
      "inputs": [
        {
          "internalType": "address",
          "name": "token",
          "type": "address"
        }
      ],
      "name": "totalSupplyRedirect",
      "outputs": [
        {
          "internalType": "bytes",
          "name": "result",
          "type": "bytes"
        }
      ],
      "stateMutability": "nonpayable",
      "type": "function"
    },
    {
      "inputs": [
        {
          "internalType": "address",
          "name": "token",
          "type": "address"
        },
        {
          "internalType": "address",
          "name": "from",
          "type": "address"
        },
        {
          "internalType": "address",
          "name": "to",
          "type": "address"
        },
        {
          "internalType": "uint256",
          "name": "amount",
          "type": "uint256"
        }
      ],
      "name": "transferFrom",
      "outputs": [
        {
          "internalType": "int64",
          "name": "responseCode",
          "type": "int64"
        }
      ],
      "stateMutability": "nonpayable",
      "type": "function"
    },
    {
      "inputs": [
        {
          "internalType": "address",
          "name": "token",
          "type": "address"
        },
        {
          "internalType": "address",
          "name": "from",
          "type": "address"
        },
        {
          "internalType": "address",
          "name": "to",
          "type": "address"
        },
        {
          "internalType": "uint256",
          "name": "serialNumber",
          "type": "uint256"
        }
      ],
      "name": "transferFromNFT",
      "outputs": [
        {
          "internalType": "int64",
          "name": "responseCode",
          "type": "int64"
        }
      ],
      "stateMutability": "nonpayable",
      "type": "function"
    },
    {
      "inputs": [
        {
          "internalType": "address",
          "name": "token",
          "type": "address"
        },
        {
          "internalType": "address",
          "name": "from",
          "type": "address"
        },
        {
          "internalType": "address",
          "name": "to",
          "type": "address"
        },
        {
          "internalType": "uint256",
          "name": "tokenId",
          "type": "uint256"
        }
      ],
      "name": "transferFromNFTRedirect",
      "outputs": [
        {
          "internalType": "bytes",
          "name": "result",
          "type": "bytes"
        }
      ],
      "stateMutability": "nonpayable",
      "type": "function"
    },
    {
      "inputs": [
        {
          "internalType": "address",
          "name": "token",
          "type": "address"
        },
        {
          "internalType": "address",
          "name": "sender",
          "type": "address"
        },
        {
          "internalType": "address",
          "name": "recipient",
          "type": "address"
        },
        {
          "internalType": "uint256",
          "name": "amount",
          "type": "uint256"
        }
      ],
      "name": "transferFromRedirect",
      "outputs": [
        {
          "internalType": "bytes",
          "name": "result",
          "type": "bytes"
        }
      ],
      "stateMutability": "nonpayable",
      "type": "function"
    },
    {
      "inputs": [
        {
          "internalType": "address",
          "name": "token",
          "type": "address"
        },
        {
          "internalType": "address",
          "name": "recipient",
          "type": "address"
        },
        {
          "internalType": "uint256",
          "name": "amount",
          "type": "uint256"
        }
      ],
      "name": "transferRedirect",
      "outputs": [
        {
          "internalType": "bytes",
          "name": "result",
          "type": "bytes"
        }
      ],
      "stateMutability": "nonpayable",
      "type": "function"
    }
  ],
  "bytecode": "0x608060405234801561001057600080fd5b506132f3806100206000396000f3fe608060405234801561001057600080fd5b50600436106101f05760003560e01c8063622488631161010f578063bc2fb00e116100a2578063f1e3aea211610071578063f1e3aea214610467578063f429f19b1461047a578063fa5c22241461049b578063fd4d1c26146104ae57600080fd5b8063bc2fb00e14610441578063bff9834f14610454578063c0395467146103f5578063d3f67d271461041b57600080fd5b8063971f5a0b116100de578063971f5a0b146103f55780639b23d3d914610408578063b132f4941461041b578063b51f3cf51461042e57600080fd5b8063622488631461039c57806385dec08e146103af5780638e5e7996146103c2578063911ce425146103e257600080fd5b806335589a1311610187578063565ca6fa11610156578063565ca6fa1461033557806359c16f5a146103485780635b39149314610368578063618dc65e1461037b57600080fd5b806335589a13146102e05780633717ec98146103005780633cc2322f1461030057806344f38bc81461031357600080fd5b806325004c1c116101c357806325004c1c146102845780632b2f5c6614610297578063319a8723146102aa5780633232fc9f146102cd57600080fd5b8063045c5bfe146101f557806315dacbea1461021e5780631955de0b146102445780631de8edad14610264575b600080fd5b610208610203366004611dc3565b6104c1565b6040516102159190611e6a565b60405180910390f35b61023161022c366004611e7d565b6105ca565b60405160079190910b8152602001610215565b610257610252366004611ece565b6106d7565b6040516102159190611f65565b610277610272366004611f78565b61074b565b6040516102159190611f95565b610208610292366004611fc9565b61078b565b6102086102a5366004611f78565b610883565b6102bd6102b8366004611f78565b610943565b6040519015158152602001610215565b6102086102db366004611ece565b6109d1565b6102f36102ee366004611f78565b610a01565b60405161021591906123af565b61020861030e366004611e7d565b610a15565b610326610321366004611f78565b610b19565b604051610215939291906123c2565b6102bd610343366004611fc9565b610b4b565b61035b610356366004611f78565b610bb4565b60405161021591906123fb565b610208610376366004612430565b610bc8565b61038e61038936600461258b565b610c1e565b60405161021592919061261e565b6102086103aa366004611ece565b610d4c565b6102086103bd366004611f78565b610d7c565b6103d56103d036600461264e565b610e91565b604051610215919061267c565b6102086103f0366004612700565b610ea6565b610208610403366004611f78565b610efb565b610231610416366004611e7d565b610f65565b610208610429366004611f78565b610fc3565b61020861043c366004612430565b61102d565b6102bd61044f366004611fc9565b611083565b6102bd610462366004611f78565b6110ec565b610208610475366004612700565b611154565b61048d610488366004611f78565b6111a9565b604051908152602001610215565b6102086104a9366004611ece565b611214565b6102bd6104bc366004611f78565b611244565b6040516001600160a01b038316602482015281151560448201526060906000908190309063618dc65e9088907fa22cb46500000000000000000000000000000000000000000000000000000000906064015b60408051601f198184030181529181526020820180516001600160e01b03166001600160e01b03199485161790525160e085901b90921682526105599291600401612741565b600060405180830381600087803b15801561057357600080fd5b505af1158015610587573d6000803e3d6000fd5b505050506040513d6000823e601f3d908101601f191682016040526105af91908101906127a8565b9092509050601682146105c157600080fd5b95945050505050565b6040516001600160a01b0385811660248301528481166044830152831660648201526084810182905260009081908190610167907f15dacbea000000000000000000000000000000000000000000000000000000009060a4015b60408051601f198184030181529181526020820180516001600160e01b03166001600160e01b031990941693909317909252905161066291906127ef565b6000604051808303816000865af19150503d806000811461069f576040519150601f19603f3d011682016040523d82523d6000602084013e6106a4565b606091505b5091509150816106b55760156106c9565b808060200190518101906106c99190612822565b60030b979650505050505050565b61071d6040518060a0016040528060001515815260200160006001600160a01b03168152602001606081526020016060815260200160006001600160a01b031681525090565b60008061072a85856112a7565b915060070b9150601660030b821461074157600080fd5b9150505b92915050565b60408051606081018252600080825260208201819052918101829052908061077284611404565b90925090506016821461078457600080fd5b9392505050565b6040516001600160a01b03821660248201526060906000908190309063618dc65e9087907f70a0823100000000000000000000000000000000000000000000000000000000906044015b60408051601f198184030181529181526020820180516001600160e01b03166001600160e01b03199485161790525160e085901b909216825261081b9291600401612741565b600060405180830381600087803b15801561083557600080fd5b505af1158015610849573d6000803e3d6000fd5b505050506040513d6000823e601f3d908101601f1916820160405261087191908101906127a8565b90925090506016821461074157600080fd5b6040805160048082526024820183526020820180516001600160e01b03167f313ce5670000000000000000000000000000000000000000000000000000000017905291516330c6e32f60e11b81526060926000928392309263618dc65e926108ed92899201612741565b600060405180830381600087803b15801561090757600080fd5b505af115801561091b573d6000803e3d6000fd5b505050506040513d6000823e601f3d908101601f1916820160405261077291908101906127a8565b600080600061095184611515565b9092509050601682146107845760405162461bcd60e51b815260206004820152602360248201527f676574546f6b656e44656661756c74467265657a65537461747573206661696c60448201527f656421000000000000000000000000000000000000000000000000000000000060648201526084015b60405180910390fd5b6060600080306001600160a01b031663618dc65e8663081812fc60e01b876040516024016107d591815260200190565b610a09611c8b565b60008061077284611612565b604080516001600160a01b03858116602483015284166044820152606480820184905282518083039091018152608490910182526020810180516001600160e01b03167f23b872dd0000000000000000000000000000000000000000000000000000000017905290516330c6e32f60e11b81526060916000918291309163618dc65e91610aa7918b9190600401612741565b600060405180830381600087803b158015610ac157600080fd5b505af1158015610ad5573d6000803e3d6000fd5b505050506040513d6000823e601f3d908101601f19168201604052610afd91908101906127a8565b909250905060168214610b0f57600080fd5b9695505050505050565b60608060606000610b29856116fb565b919650945092509050600781900b601614610b4357600080fd5b509193909250565b6000806000610b5a85856117fb565b915060070b9150601660030b82146107415760405162461bcd60e51b815260206004820152601660248201527f546f6b656e20697346726f7a656e206661696c6564210000000000000000000060448201526064016109c8565b610bbc611d42565b600080610772846118ef565b6040516001600160a01b038381166024830152821660448201526060906000908190309063618dc65e9088907fdd62ed3e0000000000000000000000000000000000000000000000000000000090606401610513565b600060606000806101676001600160a01b031663618dc65e60e01b8787604051602401610c4c929190612741565b60408051601f198184030181529181526020820180516001600160e01b03166001600160e01b0319909416939093179092529051610c8a91906127ef565b6000604051808303816000865af19150503d8060008114610cc7576040519150601f19603f3d011682016040523d82523d6000602084013e610ccc565b606091505b50915091507f4af4780e06fe8cb9df64b0794fa6f01399af979175bb988e35e0e57e594567bc8282604051610d0292919061283d565b60405180910390a181610d2657601560405180602001604052806000815250610d3a565b80806020019051810190610d3a9190612858565b60039190910b97909650945050505050565b6060600080306001600160a01b031663618dc65e86636352211e60e01b876040516024016107d591815260200190565b6040805160048082526024820183526020820180516001600160e01b03167f18160ddd0000000000000000000000000000000000000000000000000000000017905291516330c6e32f60e11b81526060926000928392309263618dc65e92610de692899201612741565b600060405180830381600087803b158015610e0057600080fd5b505af1158015610e14573d6000803e3d6000fd5b505050506040513d6000823e601f3d908101601f19168201604052610e3c91908101906127a8565b9092509050601682146107845760405162461bcd60e51b815260206004820152601560248201527f546f6b656e207265646972656374206661696c6564000000000000000000000060448201526064016109c8565b610e99611d62565b60008061087185856119d8565b6040516001600160a01b0383166024820152604481018290526060906000908190309063618dc65e9088907f095ea7b30000000000000000000000000000000000000000000000000000000090606401610513565b6040805160048082526024820183526020820180516001600160e01b03167f06fdde030000000000000000000000000000000000000000000000000000000017905291516330c6e32f60e11b81526060926000928392309263618dc65e926108ed92899201612741565b6040516001600160a01b0385811660248301528481166044830152831660648201526084810182905260009081908190610167907f9b23d3d9000000000000000000000000000000000000000000000000000000009060a401610624565b6040805160048082526024820183526020820180516001600160e01b03167f95d89b410000000000000000000000000000000000000000000000000000000017905291516330c6e32f60e11b81526060926000928392309263618dc65e926108ed92899201612741565b6040516001600160a01b038381166024830152821660448201526060906000908190309063618dc65e9088907fe985e9c50000000000000000000000000000000000000000000000000000000090606401610513565b60008060006110928585611acb565b915060070b9150601660030b82146107415760405162461bcd60e51b815260206004820152601360248201527f546f6b656e2069734b7963206661696c6564210000000000000000000000000060448201526064016109c8565b60008060006110fa84611b1c565b915060070b9150601660030b82146107845760405162461bcd60e51b815260206004820152601c60248201527f546f6b656e206973546f6b656e41646472657373206661696c6564210000000060448201526064016109c8565b6040516001600160a01b0383166024820152604481018290526060906000908190309063618dc65e9088907fa9059cbb0000000000000000000000000000000000000000000000000000000090606401610513565b60008060006111b784611b65565b60030b915060070b9150601660030b82146107845760405162461bcd60e51b815260206004820152601c60248201527f546f6b656e20747970652061707072616973616c206661696c6564210000000060448201526064016109c8565b6060600080306001600160a01b031663618dc65e8663c87b56dd60e01b876040516024016107d591815260200190565b600080600061125284611c42565b9092509050601682146107845760405162461bcd60e51b815260206004820181905260248201527f676574546f6b656e44656661756c744b7963537461747573206661696c65642160448201526064016109c8565b6040805160a081018252600080825260208083018290526060838501819052808401526080830182905283516001600160a01b03871660248201526044808201879052855180830390910181526064909101855290810180516001600160e01b03167f3c4dd32e0000000000000000000000000000000000000000000000000000000017905292519092839182916101679161134391906127ef565b6000604051808303816000865af19150503d8060008114611380576040519150601f19603f3d011682016040523d82523d6000602084013e611385565b606091505b50915091506113d06040518060a0016040528060001515815260200160006001600160a01b03168152602001606081526020016060815260200160006001600160a01b031681525090565b826113dd576015816113f1565b818060200190518101906113f1919061294e565b60039190910b9890975095505050505050565b604080516060810182526000808252602080830182905282840182905283516001600160a01b038616602480830191909152855180830390910181526044909101855290810180516001600160e01b03167fd614cdb80000000000000000000000000000000000000000000000000000000017905292519092839182916101679161148f91906127ef565b6000604051808303816000865af19150503d80600081146114cc576040519150601f19603f3d011682016040523d82523d6000602084013e6114d1565b606091505b50604080516060810182526000808252602082018190529181019190915291935091508261150157601581610d3a565b81806020019051810190610d3a9190612a15565b6040516001600160a01b0382166024820152600090819081908190610167907fa7daa18d00000000000000000000000000000000000000000000000000000000906044015b60408051601f198184030181529181526020820180516001600160e01b03166001600160e01b031990941693909317909252905161159891906127ef565b6000604051808303816000865af19150503d80600081146115d5576040519150601f19603f3d011682016040523d82523d6000602084013e6115da565b606091505b5091509150816115ed5760156000611601565b808060200190518101906116019190612a49565b60039190910b969095509350505050565b600061161c611c8b565b604080516001600160a01b03851660248083019190915282518083039091018152604490910182526020810180516001600160e01b03167f1f69565f00000000000000000000000000000000000000000000000000000000179052905160009182916101679161168b916127ef565b6000604051808303816000865af19150503d80600081146116c8576040519150601f19603f3d011682016040523d82523d6000602084013e6116cd565b606091505b50915091506116da611c8b565b826116e757601581610d3a565b81806020019051810190610d3a9190613027565b604080516001600160a01b03831660248083019190915282518083039091018152604490910182526020810180516001600160e01b03167fae7611a0000000000000000000000000000000000000000000000000000000001790529051600091606091829182918591829161016791611773916127ef565b6000604051808303816000865af19150503d80600081146117b0576040519150601f19603f3d011682016040523d82523d6000602084013e6117b5565b606091505b50915091506060806060846117ce5760158383836117e2565b838060200190518101906117e2919061306b565b60039390930b9d919c509a509098509650505050505050565b6040516001600160a01b03838116602483015282166044820152600090819081908190610167907f46de0fb100000000000000000000000000000000000000000000000000000000906064015b60408051601f198184030181529181526020820180516001600160e01b03166001600160e01b031990941693909317909252905161188691906127ef565b6000604051808303816000865af19150503d80600081146118c3576040519150601f19603f3d011682016040523d82523d6000602084013e6118c8565b606091505b5091509150816118db5760156000610d3a565b80806020019051810190610d3a9190612a49565b60006118f9611d42565b604080516001600160a01b03851660248083019190915282518083039091018152604490910182526020810180516001600160e01b03167f3f28a19b000000000000000000000000000000000000000000000000000000001790529051600091829161016791611968916127ef565b6000604051808303816000865af19150503d80600081146119a5576040519150601f19603f3d011682016040523d82523d6000602084013e6119aa565b606091505b50915091506119b7611d42565b826119c457601581610d3a565b81806020019051810190610d3a9190613104565b60006119e2611d62565b604080516001600160a01b0386166024820152600785900b60448083019190915282518083039091018152606490910182526020810180516001600160e01b03167f287e1da8000000000000000000000000000000000000000000000000000000001790529051600091829161016791611a5b916127ef565b6000604051808303816000865af19150503d8060008114611a98576040519150601f19603f3d011682016040523d82523d6000602084013e611a9d565b606091505b5091509150611aaa611d62565b82611ab7576015816113f1565b818060200190518101906113f191906131ab565b6040516001600160a01b03838116602483015282166044820152600090819081908190610167907ff2c31ff40000000000000000000000000000000000000000000000000000000090606401611848565b6040516001600160a01b0382166024820152600090819081908190610167907f19f37361000000000000000000000000000000000000000000000000000000009060440161155a565b604080516001600160a01b03831660248083019190915282518083039091018152604490910182526020810180516001600160e01b03167f93272baf00000000000000000000000000000000000000000000000000000000179052905160009182918291829161016791611bd8916127ef565b6000604051808303816000865af19150503d8060008114611c15576040519150601f19603f3d011682016040523d82523d6000602084013e611c1a565b606091505b509150915081611c2e576015600019611601565b808060200190518101906116019190613293565b6040516001600160a01b0382166024820152600090819081908190610167907f335e04c1000000000000000000000000000000000000000000000000000000009060440161155a565b60408051610240810182526060610120820181815261014083018290526000610160840181905261018084018390526101a084018190526101c084018190526101e0840181905261020084018390528451928301855280835260208301819052938201939093526102208201529081908152602001600060070b8152602001600015158152602001600015158152602001600015158152602001606081526020016060815260200160608152602001606081525090565b6040518060400160405280611d55611c8b565b8152600060209091015290565b6040518060c00160405280611d75611c8b565b8152600060208201819052604082018190526060808301829052608083015260a09091015290565b6001600160a01b0381168114611db257600080fd5b50565b8015158114611db257600080fd5b600080600060608486031215611dd857600080fd5b8335611de381611d9d565b92506020840135611df381611d9d565b91506040840135611e0381611db5565b809150509250925092565b60005b83811015611e29578181015183820152602001611e11565b83811115611e38576000848401525b50505050565b60008151808452611e56816020860160208601611e0e565b601f01601f19169290920160200192915050565b6020815260006107846020830184611e3e565b60008060008060808587031215611e9357600080fd5b8435611e9e81611d9d565b93506020850135611eae81611d9d565b92506040850135611ebe81611d9d565b9396929550929360600135925050565b60008060408385031215611ee157600080fd5b8235611eec81611d9d565b946020939093013593505050565b805115158252600060208201516001600160a01b0380821660208601526040840151915060a06040860152611f3260a0860183611e3e565b915060608401518583036060870152611f4b8382611e3e565b925050806080850151166080860152508091505092915050565b6020815260006107846020830184611efa565b600060208284031215611f8a57600080fd5b813561078481611d9d565b606081016107458284805160070b82526001600160a01b036020820151166020830152604081015160070b60408301525050565b60008060408385031215611fdc57600080fd5b8235611fe781611d9d565b91506020830135611ff781611d9d565b809150509250929050565b600081518084526020808501808196508360051b8101915082860160005b8581101561205e578284038952815180518552850151604086860181905261204a81870183611efa565b9a87019a9550505090840190600101612020565b5091979650505050505050565b6000610160825181855261208182860182611e3e565b9150506020830151848203602086015261209b8282611e3e565b91505060408301516120b860408601826001600160a01b03169052565b50606083015184820360608601526120d08282611e3e565b91505060808301516120e6608086018215159052565b5060a08301516120fb60a086018260070b9052565b5060c083015161210f60c086018215159052565b5060e083015184820360e08601526121278282612002565b9150506101008084015161216382870182805160070b82526001600160a01b036020820151166020830152604081015160070b60408301525050565b5090949350505050565b600081518084526020808501945080840160005b838110156121da578151805160070b8852838101516001600160a01b03908116858a01526040808301511515908a01526060808301511515908a0152608091820151169088015260a09096019590820190600101612181565b509495945050505050565b600081518084526020808501945080840160005b838110156121da5781518051600790810b895284820151810b858a0152604080830151820b908a015260608083015190910b9089015260808082015115159089015260a0908101516001600160a01b03169088015260c090960195908201906001016121f9565b600081518084526020808501945080840160005b838110156121da5781518051600790810b895284820151810b858a015260408083015190910b908901526060808201516001600160a01b03908116918a01919091526080808301511515908a015260a091820151169088015260c09096019590820190600101612274565b600061012082518185526122f58286018261206b565b915050602083015161230c602086018260070b9052565b506040830151612320604086018215159052565b506060830151612334606086018215159052565b506080830151612348608086018215159052565b5060a083015184820360a0860152612360828261216d565b91505060c083015184820360c086015261237a82826121e5565b91505060e083015184820360e08601526123948282612260565b9150506101008084015185830382870152610b0f8382611e3e565b60208152600061078460208301846122df565b6060815260006123d5606083018661216d565b82810360208401526123e781866121e5565b90508281036040840152610b0f8185612260565b60208152600082516040602084015261241760608401826122df565b9050602084015160030b60408401528091505092915050565b60008060006060848603121561244557600080fd5b833561245081611d9d565b9250602084013561246081611d9d565b91506040840135611e0381611d9d565b7f4e487b7100000000000000000000000000000000000000000000000000000000600052604160045260246000fd5b60405160a0810167ffffffffffffffff811182821017156124c2576124c2612470565b60405290565b6040805190810167ffffffffffffffff811182821017156124c2576124c2612470565b604051610120810167ffffffffffffffff811182821017156124c2576124c2612470565b60405160c0810167ffffffffffffffff811182821017156124c2576124c2612470565b604051601f8201601f1916810167ffffffffffffffff8111828210171561255b5761255b612470565b604052919050565b600067ffffffffffffffff82111561257d5761257d612470565b50601f01601f191660200190565b6000806040838503121561259e57600080fd5b82356125a981611d9d565b9150602083013567ffffffffffffffff8111156125c557600080fd5b8301601f810185136125d657600080fd5b80356125e96125e482612563565b612532565b8181528660208385010111156125fe57600080fd5b816020840160208301376000602083830101528093505050509250929050565b8281526040602082015260006126376040830184611e3e565b949350505050565b8060070b8114611db257600080fd5b6000806040838503121561266157600080fd5b823561266c81611d9d565b91506020830135611ff78161263f565b602081526000825160c0602084015261269860e08401826122df565b9050602084015160070b604084015260408401516001600160a01b038082166060860152606086015160070b608086015260808601519150601f198584030160a08601526126e68383611e3e565b92508060a08701511660c086015250508091505092915050565b60008060006060848603121561271557600080fd5b833561272081611d9d565b9250602084013561273081611d9d565b929592945050506040919091013590565b6001600160a01b03831681526040602082015260006126376040830184611e3e565b600082601f83011261277457600080fd5b81516127826125e482612563565b81815284602083860101111561279757600080fd5b610741826020830160208701611e0e565b600080604083850312156127bb57600080fd5b82519150602083015167ffffffffffffffff8111156127d957600080fd5b6127e585828601612763565b9150509250929050565b60008251612801818460208701611e0e565b9190910192915050565b8051600381900b811461281d57600080fd5b919050565b60006020828403121561283457600080fd5b6107848261280b565b82151581526040602082015260006126376040830184611e3e565b6000806040838503121561286b57600080fd5b6128748361280b565b9150602083015167ffffffffffffffff8111156127d957600080fd5b805161281d81611db5565b805161281d81611d9d565b600060a082840312156128b857600080fd5b6128c061249f565b905081516128cd81611db5565b815260208201516128dd81611d9d565b6020820152604082015167ffffffffffffffff808211156128fd57600080fd5b61290985838601612763565b6040840152606084015191508082111561292257600080fd5b5061292f84828501612763565b606083015250608082015161294381611d9d565b608082015292915050565b6000806040838503121561296157600080fd5b61296a8361280b565b9150602083015167ffffffffffffffff81111561298657600080fd5b6127e5858286016128a6565b805161281d8161263f565b6000606082840312156129af57600080fd5b6040516060810181811067ffffffffffffffff821117156129d2576129d2612470565b806040525080915082516129e58161263f565b815260208301516129f581611d9d565b60208201526040830151612a088161263f565b6040919091015292915050565b60008060808385031215612a2857600080fd5b612a318361280b565b9150612a40846020850161299d565b90509250929050565b60008060408385031215612a5c57600080fd5b612a658361280b565b91506020830151611ff781611db5565b600067ffffffffffffffff821115612a8f57612a8f612470565b5060051b60200190565b600082601f830112612aaa57600080fd5b81516020612aba6125e483612a75565b82815260059290921b84018101918181019086841115612ad957600080fd5b8286015b84811015612b5b57805167ffffffffffffffff80821115612afe5760008081fd5b908801906040828b03601f1901811315612b185760008081fd5b612b206124c8565b838801518152908301519082821115612b395760008081fd5b612b478c89848701016128a6565b818901528652505050918301918301612add565b509695505050505050565b60006101608284031215612b7957600080fd5b612b816124eb565b9050815167ffffffffffffffff80821115612b9b57600080fd5b612ba785838601612763565b83526020840151915080821115612bbd57600080fd5b612bc985838601612763565b6020840152612bda6040850161289b565b60408401526060840151915080821115612bf357600080fd5b612bff85838601612763565b6060840152612c1060808501612890565b6080840152612c2160a08501612992565b60a0840152612c3260c08501612890565b60c084015260e0840151915080821115612c4b57600080fd5b50612c5884828501612a99565b60e083015250610100612c6d8482850161299d565b9082015292915050565b600082601f830112612c8857600080fd5b81516020612c986125e483612a75565b82815260a09283028501820192828201919087851115612cb757600080fd5b8387015b85811015612d3f5781818a031215612cd35760008081fd5b612cdb61249f565b8151612ce68161263f565b815281860151612cf581611d9d565b81870152604082810151612d0881611db5565b90820152606082810151612d1b81611db5565b90820152608082810151612d2e81611d9d565b908201528452928401928101612cbb565b5090979650505050505050565b600082601f830112612d5d57600080fd5b81516020612d6d6125e483612a75565b82815260c09283028501820192828201919087851115612d8c57600080fd5b8387015b85811015612d3f5781818a031215612da85760008081fd5b612db061250f565b8151612dbb8161263f565b815281860151612dca8161263f565b81870152604082810151612ddd8161263f565b90820152606082810151612df08161263f565b90820152608082810151612e0381611db5565b9082015260a082810151612e1681611d9d565b908201528452928401928101612d90565b600082601f830112612e3857600080fd5b81516020612e486125e483612a75565b82815260c09283028501820192828201919087851115612e6757600080fd5b8387015b85811015612d3f5781818a031215612e835760008081fd5b612e8b61250f565b8151612e968161263f565b815281860151612ea58161263f565b81870152604082810151612eb88161263f565b90820152606082810151612ecb81611d9d565b90820152608082810151612ede81611db5565b9082015260a082810151612ef181611d9d565b908201528452928401928101612e6b565b60006101208284031215612f1557600080fd5b612f1d6124eb565b9050815167ffffffffffffffff80821115612f3757600080fd5b612f4385838601612b66565b8352612f5160208501612992565b6020840152612f6260408501612890565b6040840152612f7360608501612890565b6060840152612f8460808501612890565b608084015260a0840151915080821115612f9d57600080fd5b612fa985838601612c77565b60a084015260c0840151915080821115612fc257600080fd5b612fce85838601612d4c565b60c084015260e0840151915080821115612fe757600080fd5b612ff385838601612e27565b60e08401526101009150818401518181111561300e57600080fd5b61301a86828701612763565b8385015250505092915050565b6000806040838503121561303a57600080fd5b6130438361280b565b9150602083015167ffffffffffffffff81111561305f57600080fd5b6127e585828601612f02565b6000806000806080858703121561308157600080fd5b61308a8561280b565b9350602085015167ffffffffffffffff808211156130a757600080fd5b6130b388838901612c77565b945060408701519150808211156130c957600080fd5b6130d588838901612d4c565b935060608701519150808211156130eb57600080fd5b506130f887828801612e27565b91505092959194509250565b6000806040838503121561311757600080fd5b6131208361280b565b9150602083015167ffffffffffffffff8082111561313d57600080fd5b908401906040828703121561315157600080fd5b60405160408101818110838211171561316c5761316c612470565b60405282518281111561317e57600080fd5b61318a88828601612f02565b8252506131996020840161280b565b60208201528093505050509250929050565b600080604083850312156131be57600080fd5b6131c78361280b565b9150602083015167ffffffffffffffff808211156131e457600080fd5b9084019060c082870312156131f857600080fd5b61320061250f565b82518281111561320f57600080fd5b61321b88828601612f02565b82525061322a60208401612992565b602082015261323b6040840161289b565b604082015261324c60608401612992565b606082015260808301518281111561326357600080fd5b61326f88828601612763565b60808301525061328160a0840161289b565b60a08201528093505050509250929050565b600080604083850312156132a657600080fd5b6132af8361280b565b9150612a406020840161280b56fea2646970667358221220f7818acdd9406518dda5cacbab074793694dfe46ede5bd17b8b71a7939822f9c64736f6c63430008090033",
  "linkReferences": {},
  "deployedLinkReferences": {}
}