{
  "_format": "hh-sol-artifact-1",
  "contractName": "SpenderContract",
  "sourceName": "contracts/PrecompileTestContract.sol",
  "abi": [
    {
      "inputs": [
        {
          "internalType": "address",
          "name": "token",
          "type": "address"
        },
        {
          "internalType": "uint256",
          "name": "amount",
          "type": "uint256"
        },
        {
          "internalType": "address",
          "name": "from",
          "type": "address"
        },
        {
          "internalType": "address",
          "name": "to",
          "type": "address"
        }
      ],
      "name": "spendFungible",
      "outputs": [],
      "stateMutability": "nonpayable",
      "type": "function"
    },
    {
      "inputs": [
        {
          "internalType": "address",
          "name": "token",
          "type": "address"
        },
        {
          "internalType": "uint256",
          "name": "serialNumber",
          "type": "uint256"
        },
        {
          "internalType": "address",
          "name": "from",
          "type": "address"
        },
        {
          "internalType": "address",
          "name": "to",
          "type": "address"
        }
      ],
      "name": "spendNFT",
      "outputs": [],
      "stateMutability": "nonpayable",
      "type": "function"
    }
  ],
  "bytecode": "0x608060405234801561001057600080fd5b50610253806100206000396000f3fe608060405234801561001057600080fd5b50600436106100365760003560e01c80634444fbf71461003b5780634adcaa7114610050575b600080fd5b61004e6100493660046101a7565b610063565b005b61004e61005e3660046101a7565b610101565b6040516323b872dd60e01b815273ffffffffffffffffffffffffffffffffffffffff83811660048301528281166024830152604482018590528516906323b872dd90606401602060405180830381600087803b1580156100c257600080fd5b505af11580156100d6573d6000803e3d6000fd5b505050506040513d601f19601f820116820180604052508101906100fa91906101f4565b5050505050565b6040516323b872dd60e01b815273ffffffffffffffffffffffffffffffffffffffff83811660048301528281166024830152604482018590528516906323b872dd90606401600060405180830381600087803b15801561016057600080fd5b505af1158015610174573d6000803e3d6000fd5b5050505050505050565b803573ffffffffffffffffffffffffffffffffffffffff811681146101a257600080fd5b919050565b600080600080608085870312156101bd57600080fd5b6101c68561017e565b9350602085013592506101db6040860161017e565b91506101e96060860161017e565b905092959194509250565b60006020828403121561020657600080fd5b8151801515811461021657600080fd5b939250505056fea2646970667358221220e367c0dc846e218bf78a1646c5e3b5cf39755eafb0d625129aaa2ce4b71e8e7064736f6c63430008090033",
  "linkReferences": {},
  "deployedLinkReferences": {}
}