{
  "_format": "hh-sol-artifact-1",
  "contractName": "CallOperationsChecker",
  "sourceName": "contracts/CallOperationsChecker.sol",
  "abi": [
    {
      "inputs": [
        {
          "internalType": "address",
          "name": "tokenAddress",
          "type": "address"
        },
        {
          "internalType": "uint64",
          "name": "amount",
          "type": "uint64"
        },
        {
          "internalType": "bytes[]",
          "name": "metadata",
          "type": "bytes[]"
        }
      ],
      "name": "callcodeMint",
      "outputs": [],
      "stateMutability": "payable",
      "type": "function"
    }
  ],
  "bytecode": "0x608060405234801561001057600080fd5b5061046b806100206000396000f3fe60806040526004361061001e5760003560e01c80634540826714610023575b600080fd5b6100366100313660046101e5565b610038565b005b60008061016773ffffffffffffffffffffffffffffffffffffffff1685858560405160240161006993929190610370565b60408051601f198184030181529181526020820180517bffffffffffffffffffffffffffffffffffffffffffffffffffffffff167fee78d26f00000000000000000000000000000000000000000000000000000000179052516100cc9190610419565b6000604051808303816000865af19150503d8060008114610109576040519150601f19603f3d011682016040523d82523d6000602084013e61010e565b606091505b50915091508161017e576040517f08c379a000000000000000000000000000000000000000000000000000000000815260206004820152601560248201527f4d696e742043616c6c636f6465206661696c6564210000000000000000000000604482015260640160405180910390fd5b5050505050565b7f4e487b7100000000000000000000000000000000000000000000000000000000600052604160045260246000fd5b604051601f8201601f1916810167ffffffffffffffff811182821017156101dd576101dd610185565b604052919050565b6000806000606084860312156101fa57600080fd5b833573ffffffffffffffffffffffffffffffffffffffff8116811461021e57600080fd5b925060208481013567ffffffffffffffff808216821461023d57600080fd5b909350604090868201358181111561025457600080fd5b8701601f8101891361026557600080fd5b80358281111561027757610277610185565b8060051b6102868682016101b4565b918252828101860191868101908c8411156102a057600080fd5b87850192505b8383101561032e578235868111156102be5760008081fd5b8501603f81018e136102d05760008081fd5b88810135878111156102e4576102e4610185565b6102f6601f8201601f19168b016101b4565b8181528f8a83850101111561030b5760008081fd5b818a84018c83013760009181018b019190915283525091870191908701906102a6565b80985050505050505050509250925092565b60005b8381101561035b578181015183820152602001610343565b8381111561036a576000848401525b50505050565b60006060820173ffffffffffffffffffffffffffffffffffffffff86168352602067ffffffffffffffff8616818501526060604085015281855180845260808601915060808160051b870101935082870160005b8281101561040a57878603607f19018452815180518088526103eb81888a01898501610340565b601f01601f1916969096018501955092840192908401906001016103c4565b50939998505050505050505050565b6000825161042b818460208701610340565b919091019291505056fea2646970667358221220f29cadaa5ba6de1da13eec3a8010c612287ca2b982000a85d366884bc12aa47364736f6c63430008090033",
  "linkReferences": {},
  "deployedLinkReferences": {}
}