{
  "_format": "hh-sol-artifact-1",
  "contractName": "MintContract",
  "sourceName": "contracts/MintContract.sol",
  "abi": [
    {
      "inputs": [
        {
          "internalType": "address",
          "name": "_tokenAddress",
          "type": "address"
        }
      ],
      "stateMutability": "nonpayable",
      "type": "constructor"
    },
    {
      "anonymous": true,
      "inputs": [
        {
          "indexed": true,
          "internalType": "uint64",
          "name": "totalSupply",
          "type": "uint64"
        },
        {
          "indexed": true,
          "internalType": "int256",
          "name": "firstSerialNumber",
          "type": "int256"
        }
      ],
      "name": "MintedTokenInfo",
      "type": "event"
    },
    {
      "inputs": [
        {
          "internalType": "uint64",
          "name": "amount",
          "type": "uint64"
        },
        {
          "internalType": "address",
          "name": "sender",
          "type": "address"
        },
        {
          "internalType": "address",
          "name": "receiver",
          "type": "address"
        },
        {
          "internalType": "bytes[]",
          "name": "metadata",
          "type": "bytes[]"
        },
        {
          "internalType": "int64",
          "name": "serialNumber",
          "type": "int64"
        }
      ],
      "name": "mintAndTransferNonFungibleToken",
      "outputs": [],
      "stateMutability": "nonpayable",
      "type": "function"
    },
    {
      "inputs": [
        {
          "internalType": "uint64",
          "name": "amount",
          "type": "uint64"
        }
      ],
      "name": "mintFungibleToken",
      "outputs": [],
      "stateMutability": "nonpayable",
      "type": "function"
    },
    {
      "inputs": [
        {
          "internalType": "uint64",
          "name": "amount",
          "type": "uint64"
        }
      ],
      "name": "mintFungibleTokenWithEvent",
      "outputs": [],
      "stateMutability": "nonpayable",
      "type": "function"
    },
    {
      "inputs": [
        {
          "internalType": "bytes[]",
          "name": "metadata",
          "type": "bytes[]"
        }
      ],
      "name": "mintNonFungibleToken",
      "outputs": [],
      "stateMutability": "nonpayable",
      "type": "function"
    },
    {
      "inputs": [
        {
          "internalType": "address",
          "name": "_tokenAddress",
          "type": "address"
        },
        {
          "internalType": "bytes[]",
          "name": "metadata",
          "type": "bytes[]"
        }
      ],
      "name": "mintNonFungibleTokenWithAddress",
      "outputs": [],
      "stateMutability": "nonpayable",
      "type": "function"
    },
    {
      "inputs": [
        {
          "internalType": "bytes[]",
          "name": "metadata",
          "type": "bytes[]"
        }
      ],
      "name": "mintNonFungibleTokenWithEvent",
      "outputs": [],
      "stateMutability": "nonpayable",
      "type": "function"
    },
    {
      "inputs": [
        {
          "internalType": "address",
          "name": "token",
          "type": "address"
        }
      ],
      "name": "pauseToken",
      "outputs": [
        {
          "internalType": "int256",
          "name": "responseCode",
          "type": "int256"
        }
      ],
      "stateMutability": "nonpayable",
      "type": "function"
    },
    {
      "inputs": [
        {
          "internalType": "address",
          "name": "sender",
          "type": "address"
        },
        {
          "internalType": "address",
          "name": "recipient",
          "type": "address"
        },
        {
          "internalType": "int64",
          "name": "amount",
          "type": "int64"
        }
      ],
      "name": "revertMintAfterFailedMint",
      "outputs": [],
      "stateMutability": "nonpayable",
      "type": "function"
    }
  ],
  "bytecode": "0x608060405234801561001057600080fd5b50604051610d46380380610d4683398101604081905261002f91610054565b600080546001600160a01b0319166001600160a01b0392909216919091179055610084565b60006020828403121561006657600080fd5b81516001600160a01b038116811461007d57600080fd5b9392505050565b610cb3806100936000396000f3fe608060405234801561001057600080fd5b50600436106100885760003560e01c8063945d82181161005b578063945d8218146100ed578063aad9111014610100578063ef7c7fb014610113578063f418b4691461012657600080fd5b80631191dbdc1461008d57806312199f42146100a25780637c41ad2c146100b557806381f71ab6146100da575b600080fd5b6100a061009b3660046108bb565b610139565b005b6100a06100b0366004610926565b610159565b6100c86100c336600461096d565b610227565b60405190815260200160405180910390f35b6100a06100e836600461098f565b61030b565b6100a06100fb3660046109f3565b61037a565b6100a061010e3660046108bb565b6103f7565b6100a0610121366004610a79565b61049d565b6100a0610134366004610a79565b6104b8565b60008054610153916001600160a01b039091169083610550565b50505050565b600054610171906001600160a01b0316848484610666565b5060008054819081906101c3906001600160a01b031682805b6040519080825280602002602001820160405280156101bd57816020015b60608152602001906001900390816101a85790505b50610550565b919450925090506016831461021f5760405162461bcd60e51b815260206004820152601e60248201527f4d696e74206f662066756e6769626c6520746f6b656e206661696c656421000060448201526064015b60405180910390fd5b505050505050565b604080516001600160a01b03831660248083019190915282518083039091018152604490910182526020810180516001600160e01b03167f7c41ad2c00000000000000000000000000000000000000000000000000000000179052905160009182918291610167916102999190610ac2565b6000604051808303816000865af19150503d80600081146102d6576040519150601f19603f3d011682016040523d82523d6000602084013e6102db565b606091505b5091509150816102ec576015610300565b808060200190518101906103009190610af0565b60030b949350505050565b600080600061031c85600086610550565b91945092509050601683146103735760405162461bcd60e51b815260206004820152601960248201527f4e6f6e2066756e6769626c65206d696e74206661696c656421000000000000006044820152606401610216565b5050505050565b6000805481908190610396906001600160a01b03168987610550565b91945092509050601683146103ed5760405162461bcd60e51b815260206004820152601860248201527f4e6f6e46756e6769626c65206d696e74206661696c65642100000000000000006044820152606401610216565b5050505050505050565b6000805481908190610413906001600160a01b03168286610550565b9250925092508060008151811061042c5761042c610b0b565b602002602001015160070b8267ffffffffffffffff1660405160405180910390a2601683146101535760405162461bcd60e51b815260206004820152601960248201527f4e6f6e2066756e6769626c65206d696e74206661696c656421000000000000006044820152606401610216565b60008054610153916001600160a01b0390911690839061018a565b60008054819081906104d4906001600160a01b0316858361018a565b92509250925060008267ffffffffffffffff1660405160405180910390a2601683141580610503575060008151115b156101535760405162461bcd60e51b815260206004820152601560248201527f46756e6769626c65206d696e74206661696c65642100000000000000000000006044820152606401610216565b60008060606000806101676001600160a01b031663278e0b8860e01b89898960405160240161058193929190610b21565b60408051601f198184030181529181526020820180516001600160e01b03167fffffffff000000000000000000000000000000000000000000000000000000009094169390931790925290516105d79190610ac2565b6000604051808303816000865af19150503d8060008114610614576040519150601f19603f3d011682016040523d82523d6000602084013e610619565b606091505b50915091508161063c576040805160008082526020820190925260159190610650565b808060200190518101906106509190610bbd565b60039290920b9a90995090975095505050505050565b604080516001600160a01b038681166024830152858116604483015284166064820152600783900b6084808301919091528251808303909101815260a490910182526020810180516001600160e01b03167feca3691700000000000000000000000000000000000000000000000000000000179052905160009182918291610167916106f29190610ac2565b6000604051808303816000865af19150503d806000811461072f576040519150601f19603f3d011682016040523d82523d6000602084013e610734565b606091505b509150915081610745576015610759565b808060200190518101906107599190610af0565b60030b979650505050505050565b634e487b7160e01b600052604160045260246000fd5b604051601f8201601f1916810167ffffffffffffffff811182821017156107a6576107a6610767565b604052919050565b600067ffffffffffffffff8211156107c8576107c8610767565b5060051b60200190565b6000601f83818401126107e457600080fd5b823560206107f96107f4836107ae565b61077d565b82815260059290921b8501810191818101908784111561081857600080fd5b8287015b848110156108af57803567ffffffffffffffff8082111561083d5760008081fd5b818a0191508a603f8301126108525760008081fd5b8582013560408282111561086857610868610767565b610879828b01601f1916890161077d565b92508183528c818386010111156108905760008081fd5b818185018985013750600090820187015284525091830191830161081c565b50979650505050505050565b6000602082840312156108cd57600080fd5b813567ffffffffffffffff8111156108e457600080fd5b6108f0848285016107d2565b949350505050565b80356001600160a01b038116811461090f57600080fd5b919050565b8060070b811461092357600080fd5b50565b60008060006060848603121561093b57600080fd5b610944846108f8565b9250610952602085016108f8565b9150604084013561096281610914565b809150509250925092565b60006020828403121561097f57600080fd5b610988826108f8565b9392505050565b600080604083850312156109a257600080fd5b6109ab836108f8565b9150602083013567ffffffffffffffff8111156109c757600080fd5b6109d3858286016107d2565b9150509250929050565b67ffffffffffffffff8116811461092357600080fd5b600080600080600060a08688031215610a0b57600080fd5b8535610a16816109dd565b9450610a24602087016108f8565b9350610a32604087016108f8565b9250606086013567ffffffffffffffff811115610a4e57600080fd5b610a5a888289016107d2565b9250506080860135610a6b81610914565b809150509295509295909350565b600060208284031215610a8b57600080fd5b8135610988816109dd565b60005b83811015610ab1578181015183820152602001610a99565b838111156101535750506000910152565b60008251610ad4818460208701610a96565b9190910192915050565b8051600381900b811461090f57600080fd5b600060208284031215610b0257600080fd5b61098882610ade565b634e487b7160e01b600052603260045260246000fd5b6000606082016001600160a01b0386168352602067ffffffffffffffff8616818501526060604085015281855180845260808601915060808160051b870101935082870160005b82811015610bae57878603607f1901845281518051808852610b8f81888a01898501610a96565b601f01601f191696909601850195509284019290840190600101610b68565b50939998505050505050505050565b600080600060608486031215610bd257600080fd5b610bdb84610ade565b9250602080850151610bec816109dd565b604086015190935067ffffffffffffffff811115610c0957600080fd5b8501601f81018713610c1a57600080fd5b8051610c286107f4826107ae565b81815260059190911b82018301908381019089831115610c4757600080fd5b928401925b82841015610c6e578351610c5f81610914565b82529284019290840190610c4c565b8095505050505050925092509256fea264697066735822122090962efdc9d0978ce85a9a90d3c9512770eafabddc7e3572c8726911b579699464736f6c63430008090033",
  "linkReferences": {},
  "deployedLinkReferences": {}
}