{
  "_format": "hh-sol-artifact-1",
  "contractName": "StaticContract",
  "sourceName": "contracts/StaticContract.sol",
  "abi": [
    {
      "inputs": [
        {
          "internalType": "address",
          "name": "serviceContractAddress",
          "type": "address"
        }
      ],
      "stateMutability": "nonpayable",
      "type": "constructor"
    },
    {
      "inputs": [
        {
          "internalType": "address",
          "name": "token",
          "type": "address"
        },
        {
          "internalType": "uint64",
          "name": "amount",
          "type": "uint64"
        },
        {
          "internalType": "int64[]",
          "name": "serialNumbers",
          "type": "int64[]"
        }
      ],
      "name": "burnStaticCall",
      "outputs": [],
      "stateMutability": "nonpayable",
      "type": "function"
    },
    {
      "inputs": [
        {
          "internalType": "address",
          "name": "token",
          "type": "address"
        },
        {
          "internalType": "uint64",
          "name": "amount",
          "type": "uint64"
        }
      ],
      "name": "mintStaticCall",
      "outputs": [],
      "stateMutability": "nonpayable",
      "type": "function"
    },
    {
      "inputs": [
        {
          "internalType": "address",
          "name": "token",
          "type": "address"
        }
      ],
      "name": "pauseToken",
      "outputs": [
        {
          "internalType": "int256",
          "name": "responseCode",
          "type": "int256"
        }
      ],
      "stateMutability": "nonpayable",
      "type": "function"
    },
    {
      "inputs": [
        {
          "internalType": "address",
          "name": "token",
          "type": "address"
        },
        {
          "internalType": "address",
          "name": "sender",
          "type": "address"
        },
        {
          "internalType": "address",
          "name": "receiver",
          "type": "address"
        },
        {
          "internalType": "int64",
          "name": "serialNum",
          "type": "int64"
        }
      ],
      "name": "transferStaticCall",
      "outputs": [],
      "stateMutability": "nonpayable",
      "type": "function"
    }
  ],
  "bytecode": "0x608060405234801561001057600080fd5b5060405161087238038061087283398101604081905261002f91610054565b600080546001600160a01b0319166001600160a01b0392909216919091179055610084565b60006020828403121561006657600080fd5b81516001600160a01b038116811461007d57600080fd5b9392505050565b6107df806100936000396000f3fe608060405234801561001057600080fd5b506004361061004c5760003560e01c80635b33f602146100515780637c41ad2c146100665780639f325e671461008b578063d2d33b4f1461009e575b600080fd5b61006461005f36600461054f565b6100b1565b005b610079610074366004610637565b6101c2565b60405190815260200160405180910390f35b610064610099366004610659565b6102a6565b6100646100ac3660046106ad565b6103c6565b6000805460405182916001600160a01b0316906100d6908790879087906024016106e0565b60408051601f198184030181529181526020820180516001600160e01b03167f1a1eb4030000000000000000000000000000000000000000000000000000000017905251610124919061074b565b600060405180830381855afa9150503d806000811461015f576040519150601f19603f3d011682016040523d82523d6000602084013e610164565b606091505b5091509150816101bb5760405162461bcd60e51b815260206004820152601860248201527f537461746963206275726e2063616c6c206661696c656421000000000000000060448201526064015b60405180910390fd5b5050505050565b604080516001600160a01b03831660248083019190915282518083039091018152604490910182526020810180516001600160e01b03167f7c41ad2c0000000000000000000000000000000000000000000000000000000017905290516000918291829161016791610234919061074b565b6000604051808303816000865af19150503d8060008114610271576040519150601f19603f3d011682016040523d82523d6000602084013e610276565b606091505b50915091508161028757601561029b565b8080602001905181019061029b9190610786565b60030b949350505050565b600080546040516001600160a01b03878116602483015286811660448301528581166064830152600785900b60848301528392169060a40160408051601f198184030181529181526020820180516001600160e01b03167fa4aa39b1000000000000000000000000000000000000000000000000000000001790525161032c919061074b565b600060405180830381855afa9150503d8060008114610367576040519150601f19603f3d011682016040523d82523d6000602084013e61036c565b606091505b5091509150816103be5760405162461bcd60e51b815260206004820152601c60248201527f537461746963207472616e736665722063616c6c206661696c6564210000000060448201526064016101b2565b505050505050565b600080546040516001600160a01b03858116602483015267ffffffffffffffff851660448301528392169060640160408051601f198184030181529181526020820180516001600160e01b03167fc7b2d3360000000000000000000000000000000000000000000000000000000017905251610442919061074b565b600060405180830381855afa9150503d806000811461047d576040519150601f19603f3d011682016040523d82523d6000602084013e610482565b606091505b5091509150816104d45760405162461bcd60e51b815260206004820152601860248201527f537461746963206d696e742063616c6c206661696c656421000000000000000060448201526064016101b2565b50505050565b80356001600160a01b03811681146104f157600080fd5b919050565b803567ffffffffffffffff811681146104f157600080fd5b7f4e487b7100000000000000000000000000000000000000000000000000000000600052604160045260246000fd5b8035600781900b81146104f157600080fd5b60008060006060848603121561056457600080fd5b61056d846104da565b9250602061057c8186016104f6565b9250604085013567ffffffffffffffff8082111561059957600080fd5b818701915087601f8301126105ad57600080fd5b8135818111156105bf576105bf61050e565b8060051b604051601f19603f830116810181811085821117156105e4576105e461050e565b60405291825284820192508381018501918a83111561060257600080fd5b938501935b82851015610627576106188561053d565b84529385019392850192610607565b8096505050505050509250925092565b60006020828403121561064957600080fd5b610652826104da565b9392505050565b6000806000806080858703121561066f57600080fd5b610678856104da565b9350610686602086016104da565b9250610694604086016104da565b91506106a26060860161053d565b905092959194509250565b600080604083850312156106c057600080fd5b6106c9836104da565b91506106d7602084016104f6565b90509250929050565b6000606082016001600160a01b0386168352602067ffffffffffffffff86168185015260606040850152818551808452608086019150828701935060005b8181101561073d57845160070b8352938301939183019160010161071e565b509098975050505050505050565b6000825160005b8181101561076c5760208186018101518583015201610752565b8181111561077b576000828501525b509190910192915050565b60006020828403121561079857600080fd5b81518060030b811461065257600080fdfea2646970667358221220af7ffb242f9e9dcd1b6aea395e887a30ca499aeb0c603ed5afce2dcae3ef9cb964736f6c63430008090033",
  "linkReferences": {},
  "deployedLinkReferences": {}
}