{
  "_format": "hh-sol-artifact-1",
  "contractName": "AssociateDissociateContract",
  "sourceName": "contracts/NestedAssociateDissociate.sol",
  "abi": [
    {
      "inputs": [
        {
          "internalType": "address",
          "name": "token",
          "type": "address"
        }
      ],
      "name": "pauseToken",
      "outputs": [
        {
          "internalType": "int256",
          "name": "responseCode",
          "type": "int256"
        }
      ],
      "stateMutability": "nonpayable",
      "type": "function"
    },
    {
      "inputs": [
        {
          "internalType": "address",
          "name": "sender",
          "type": "address"
        },
        {
          "internalType": "address",
          "name": "tokenAddress",
          "type": "address"
        }
      ],
      "name": "tokenAssociate",
      "outputs": [],
      "stateMutability": "nonpayable",
      "type": "function"
    },
    {
      "inputs": [
        {
          "internalType": "address",
          "name": "sender",
          "type": "address"
        },
        {
          "internalType": "address",
          "name": "tokenAddress",
          "type": "address"
        }
      ],
      "name": "tokenDissociate",
      "outputs": [],
      "stateMutability": "nonpayable",
      "type": "function"
    }
  ],
  "bytecode": "0x608060405234801561001057600080fd5b50610456806100206000396000f3fe608060405234801561001057600080fd5b50600436106100415760003560e01c80634753b51b146100465780637c41ad2c1461005b5780637f6314d014610080575b600080fd5b61005961005436600461036d565b610093565b005b61006e6100693660046103a0565b6100a2565b60405190815260200160405180910390f35b61005961008e36600461036d565b6101a8565b61009d82826101b2565b505050565b6040805173ffffffffffffffffffffffffffffffffffffffff831660248083019190915282518083039091018152604490910182526020810180517bffffffffffffffffffffffffffffffffffffffffffffffffffffffff167f7c41ad2c000000000000000000000000000000000000000000000000000000001790529051600091829182916101679161013691906103c2565b6000604051808303816000865af19150503d8060008114610173576040519150601f19603f3d011682016040523d82523d6000602084013e610178565b606091505b50915091508161018957601561019d565b8080602001905181019061019d91906103fd565b60030b949350505050565b61009d82826102e8565b60405173ffffffffffffffffffffffffffffffffffffffff83811660248301528216604482015260009081908190610167907f099794e800000000000000000000000000000000000000000000000000000000906064015b60408051601f198184030181529181526020820180517bffffffffffffffffffffffffffffffffffffffffffffffffffffffff167fffffffff0000000000000000000000000000000000000000000000000000000090941693909317909252905161027591906103c2565b6000604051808303816000865af19150503d80600081146102b2576040519150601f19603f3d011682016040523d82523d6000602084013e6102b7565b606091505b5091509150816102c85760156102dc565b808060200190518101906102dc91906103fd565b60030b95945050505050565b60405173ffffffffffffffffffffffffffffffffffffffff83811660248301528216604482015260009081908190610167907f49146bde000000000000000000000000000000000000000000000000000000009060640161020a565b803573ffffffffffffffffffffffffffffffffffffffff8116811461036857600080fd5b919050565b6000806040838503121561038057600080fd5b61038983610344565b915061039760208401610344565b90509250929050565b6000602082840312156103b257600080fd5b6103bb82610344565b9392505050565b6000825160005b818110156103e357602081860181015185830152016103c9565b818111156103f2576000828501525b509190910192915050565b60006020828403121561040f57600080fd5b81518060030b81146103bb57600080fdfea2646970667358221220257930e1c189fb8118f85d81528d586a96cba914e8ae45695f57ca68d100860664736f6c63430008090033",
  "linkReferences": {},
  "deployedLinkReferences": {}
}